{
	"contractName": "AOContent",
	"abi": [
		{
			"constant": true,
			"inputs": [],
			"name": "aoSettingAddress",
			"outputs": [
				{
					"name": "",
					"type": "address"
				}
			],
			"payable": false,
			"stateMutability": "view",
			"type": "function"
		},
		{
			"constant": true,
			"inputs": [],
			"name": "totalContents",
			"outputs": [
				{
					"name": "",
					"type": "uint256"
				}
			],
			"payable": false,
			"stateMutability": "view",
			"type": "function"
		},
		{
			"constant": true,
			"inputs": [],
			"name": "nameTAOPositionAddress",
			"outputs": [
				{
					"name": "",
					"type": "address"
				}
			],
			"payable": false,
			"stateMutability": "view",
			"type": "function"
		},
		{
			"constant": true,
			"inputs": [
				{
					"name": "",
					"type": "address"
				}
			],
			"name": "whitelist",
			"outputs": [
				{
					"name": "",
					"type": "bool"
				}
			],
			"payable": false,
			"stateMutability": "view",
			"type": "function"
		},
		{
			"constant": true,
			"inputs": [],
			"name": "theAO",
			"outputs": [
				{
					"name": "",
					"type": "address"
				}
			],
			"payable": false,
			"stateMutability": "view",
			"type": "function"
		},
		{
			"constant": true,
			"inputs": [],
			"name": "nameFactoryAddress",
			"outputs": [
				{
					"name": "",
					"type": "address"
				}
			],
			"payable": false,
			"stateMutability": "view",
			"type": "function"
		},
		{
			"constant": true,
			"inputs": [],
			"name": "settingTAOId",
			"outputs": [
				{
					"name": "",
					"type": "address"
				}
			],
			"payable": false,
			"stateMutability": "view",
			"type": "function"
		},
		{
			"inputs": [
				{
					"name": "_settingTAOId",
					"type": "address"
				},
				{
					"name": "_aoSettingAddress",
					"type": "address"
				},
				{
					"name": "_nameFactoryAddress",
					"type": "address"
				},
				{
					"name": "_nameTAOPositionAddress",
					"type": "address"
				}
			],
			"payable": false,
			"stateMutability": "nonpayable",
			"type": "constructor"
		},
		{
			"anonymous": false,
			"inputs": [
				{
					"indexed": true,
					"name": "creator",
					"type": "address"
				},
				{
					"indexed": true,
					"name": "contentId",
					"type": "bytes32"
				},
				{
					"indexed": false,
					"name": "fileSize",
					"type": "uint256"
				},
				{
					"indexed": false,
					"name": "contentUsageType",
					"type": "bytes32"
				}
			],
			"name": "StoreContent",
			"type": "event"
		},
		{
			"anonymous": false,
			"inputs": [
				{
					"indexed": true,
					"name": "contentId",
					"type": "bytes32"
				},
				{
					"indexed": true,
					"name": "taoId",
					"type": "address"
				},
				{
					"indexed": false,
					"name": "signer",
					"type": "address"
				},
				{
					"indexed": false,
					"name": "taoContentState",
					"type": "bytes32"
				}
			],
			"name": "UpdateTAOContentState",
			"type": "event"
		},
		{
			"anonymous": false,
			"inputs": [
				{
					"indexed": true,
					"name": "creator",
					"type": "address"
				},
				{
					"indexed": true,
					"name": "contentId",
					"type": "bytes32"
				},
				{
					"indexed": false,
					"name": "newExtraData",
					"type": "string"
				}
			],
			"name": "SetExtraData",
			"type": "event"
		},
		{
			"constant": false,
			"inputs": [
				{
					"name": "_theAO",
					"type": "address"
				}
			],
			"name": "transferOwnership",
			"outputs": [],
			"payable": false,
			"stateMutability": "nonpayable",
			"type": "function"
		},
		{
			"constant": false,
			"inputs": [
				{
					"name": "_account",
					"type": "address"
				},
				{
					"name": "_whitelist",
					"type": "bool"
				}
			],
			"name": "setWhitelist",
			"outputs": [],
			"payable": false,
			"stateMutability": "nonpayable",
			"type": "function"
		},
		{
			"constant": false,
			"inputs": [
				{
					"name": "_settingTAOId",
					"type": "address"
				}
			],
			"name": "setSettingTAOId",
			"outputs": [],
			"payable": false,
			"stateMutability": "nonpayable",
			"type": "function"
		},
		{
			"constant": false,
			"inputs": [
				{
					"name": "_aoSettingAddress",
					"type": "address"
				}
			],
			"name": "setAOSettingAddress",
			"outputs": [],
			"payable": false,
			"stateMutability": "nonpayable",
			"type": "function"
		},
		{
			"constant": false,
			"inputs": [
				{
					"name": "_nameFactoryAddress",
					"type": "address"
				}
			],
			"name": "setNameFactoryAddress",
			"outputs": [],
			"payable": false,
			"stateMutability": "nonpayable",
			"type": "function"
		},
		{
			"constant": false,
			"inputs": [
				{
					"name": "_nameTAOPositionAddress",
					"type": "address"
				}
			],
			"name": "setNameTAOPositionAddress",
			"outputs": [],
			"payable": false,
			"stateMutability": "nonpayable",
			"type": "function"
		},
		{
			"constant": false,
			"inputs": [
				{
					"name": "_creator",
					"type": "address"
				},
				{
					"name": "_baseChallenge",
					"type": "string"
				},
				{
					"name": "_fileSize",
					"type": "uint256"
				},
				{
					"name": "_contentUsageType",
					"type": "bytes32"
				},
				{
					"name": "_taoId",
					"type": "address"
				}
			],
			"name": "create",
			"outputs": [
				{
					"name": "",
					"type": "bytes32"
				}
			],
			"payable": false,
			"stateMutability": "nonpayable",
			"type": "function"
		},
		{
			"constant": true,
			"inputs": [
				{
					"name": "_contentId",
					"type": "bytes32"
				}
			],
			"name": "getById",
			"outputs": [
				{
					"name": "",
					"type": "address"
				},
				{
					"name": "",
					"type": "uint256"
				},
				{
					"name": "",
					"type": "bytes32"
				},
				{
					"name": "",
					"type": "address"
				},
				{
					"name": "",
					"type": "bytes32"
				},
				{
					"name": "",
					"type": "uint8"
				},
				{
					"name": "",
					"type": "bytes32"
				},
				{
					"name": "",
					"type": "bytes32"
				},
				{
					"name": "",
					"type": "string"
				}
			],
			"payable": false,
			"stateMutability": "view",
			"type": "function"
		},
		{
			"constant": true,
			"inputs": [
				{
					"name": "_contentId",
					"type": "bytes32"
				}
			],
			"name": "getBaseChallenge",
			"outputs": [
				{
					"name": "",
					"type": "string"
				}
			],
			"payable": false,
			"stateMutability": "view",
			"type": "function"
		},
		{
			"constant": false,
			"inputs": [
				{
					"name": "_contentId",
					"type": "bytes32"
				},
				{
					"name": "_taoId",
					"type": "address"
				},
				{
					"name": "_taoContentState",
					"type": "bytes32"
				},
				{
					"name": "_updateTAOContentStateV",
					"type": "uint8"
				},
				{
					"name": "_updateTAOContentStateR",
					"type": "bytes32"
				},
				{
					"name": "_updateTAOContentStateS",
					"type": "bytes32"
				}
			],
			"name": "updateTAOContentState",
			"outputs": [],
			"payable": false,
			"stateMutability": "nonpayable",
			"type": "function"
		},
		{
			"constant": true,
			"inputs": [
				{
					"name": "_contentId",
					"type": "bytes32"
				}
			],
			"name": "isAOContentUsageType",
			"outputs": [
				{
					"name": "",
					"type": "bool"
				}
			],
			"payable": false,
			"stateMutability": "view",
			"type": "function"
		},
		{
			"constant": false,
			"inputs": [
				{
					"name": "_contentId",
					"type": "bytes32"
				},
				{
					"name": "_extraData",
					"type": "string"
				}
			],
			"name": "setExtraData",
			"outputs": [],
			"payable": false,
			"stateMutability": "nonpayable",
			"type": "function"
		}
	],
	"bytecode": "0x60806040523480156200001157600080fd5b5060405160808062002a34833981016040908152815160208301519183015160609093015160008054600160a060020a031916331790559092906200005f84640100000000620000a5810204565b620000738364010000000062000238810204565b62000087826401000000006200033d810204565b6200009b8164010000000062000442810204565b5050505062000547565b600054600154604080517ff66afcac000000000000000000000000000000000000000000000000000000008152336004820152600160a060020a0393841660248201529290911660448301525173__AOLibrary_____________________________9163f66afcac916064808301926020929190829003018186803b1580156200012e57600080fd5b505af415801562000143573d6000803e3d6000fd5b505050506040513d60208110156200015a57600080fd5b505115156200016857600080fd5b604080517f2fca5414000000000000000000000000000000000000000000000000000000008152600160a060020a0383166004820152905173__AOLibrary_____________________________91632fca5414916024808301926020929190829003018186803b158015620001dc57600080fd5b505af4158015620001f1573d6000803e3d6000fd5b505050506040513d60208110156200020857600080fd5b505115156200021657600080fd5b60048054600160a060020a031916600160a060020a0392909216919091179055565b600054600154604080517ff66afcac000000000000000000000000000000000000000000000000000000008152336004820152600160a060020a0393841660248201529290911660448301525173__AOLibrary_____________________________9163f66afcac916064808301926020929190829003018186803b158015620002c157600080fd5b505af4158015620002d6573d6000803e3d6000fd5b505050506040513d6020811015620002ed57600080fd5b50511515620002fb57600080fd5b600160a060020a03811615156200031157600080fd5b60058054600160a060020a03909216600160a060020a0319928316811790915560078054909216179055565b600054600154604080517ff66afcac000000000000000000000000000000000000000000000000000000008152336004820152600160a060020a0393841660248201529290911660448301525173__AOLibrary_____________________________9163f66afcac916064808301926020929190829003018186803b158015620003c657600080fd5b505af4158015620003db573d6000803e3d6000fd5b505050506040513d6020811015620003f257600080fd5b505115156200040057600080fd5b600160a060020a03811615156200041657600080fd5b60068054600160a060020a03909216600160a060020a0319928316811790915560088054909216179055565b600054600154604080517ff66afcac000000000000000000000000000000000000000000000000000000008152336004820152600160a060020a0393841660248201529290911660448301525173__AOLibrary_____________________________9163f66afcac916064808301926020929190829003018186803b158015620004cb57600080fd5b505af4158015620004e0573d6000803e3d6000fd5b505050506040513d6020811015620004f757600080fd5b505115156200050557600080fd5b600160a060020a03811615156200051b57600080fd5b60018054600160a060020a03909216600160a060020a0319928316811790915560098054909216179055565b6124dd80620005576000396000f3006080604052600436106101065763ffffffff7c010000000000000000000000000000000000000000000000000000000060003504166306fd7088811461010b5780631d0138ff1461012e5780632d189a621461015f5780632dff0d0d146101bd5780633486d8f61461029d5780633848627b1461032a5780634ef033f01461035157806353d6fd59146103665780635cfaf2ef1461038c57806365cf0ace146103ad57806383b01a83146103d95780638c9243611461040c5780639b19251a1461042d578063a9b6b38e1461044e578063bc40620614610463578063d0d9ca5214610478578063d6830af3146104b3578063e7c50185146104d4578063f2fde38b146104e9575b600080fd5b34801561011757600080fd5b5061012c600160a060020a036004351661050a565b005b34801561013a57600080fd5b50610143610601565b60408051600160a060020a039092168252519081900360200190f35b34801561016b57600080fd5b5060408051602060046024803582810135601f810185900485028601850190965285855261012c9583359536956044949193909101919081908401838280828437509497506106109650505050505050565b3480156101c957600080fd5b506101d56004356107cf565b60408051600160a060020a03808c16825260208083018c90529282018a9052881660608201526080810187905260ff861660a082015260c0810185905260e08101849052610120610100820181815284519183019190915283519192909161014084019185019080838360005b8381101561025a578181015183820152602001610242565b50505050905090810190601f1680156102875780820380516001836020036101000a031916815260200191505b509a505050505050505050505060405180910390f35b3480156102a957600080fd5b506102b5600435610a0f565b6040805160208082528351818301528351919283929083019185019080838360005b838110156102ef5781810151838201526020016102d7565b50505050905090810190601f16801561031c5780820380516001836020036101000a031916815260200191505b509250505060405180910390f35b34801561033657600080fd5b5061033f610ccb565b60408051918252519081900360200190f35b34801561035d57600080fd5b50610143610cd1565b34801561037257600080fd5b5061012c600160a060020a03600435166024351515610ce0565b34801561039857600080fd5b5061012c600160a060020a0360043516610dc9565b3480156103b957600080fd5b506103c5600435610ec0565b604080519115158252519081900360200190f35b3480156103e557600080fd5b5061012c600435600160a060020a036024351660443560ff6064351660843560a435610f12565b34801561041857600080fd5b5061012c600160a060020a0360043516611193565b34801561043957600080fd5b506103c5600160a060020a036004351661128a565b34801561045a57600080fd5b5061014361129f565b34801561046f57600080fd5b506101436112ae565b34801561048457600080fd5b5061033f600160a060020a036004803582169160248035908101920135906044359060643590608435166112bd565b3480156104bf57600080fd5b5061012c600160a060020a036004351661155d565b3480156104e057600080fd5b506101436116df565b3480156104f557600080fd5b5061012c600160a060020a03600435166116ee565b6000546001546040805160e260020a633d9abf2b028152336004820152600160a060020a0393841660248201529290911660448301525173__AOLibrary_____________________________9163f66afcac916064808301926020929190829003018186803b15801561057c57600080fd5b505af4158015610590573d6000803e3d6000fd5b505050506040513d60208110156105a657600080fd5b505115156105b357600080fd5b600160a060020a03811615156105c857600080fd5b60058054600160a060020a0390921673ffffffffffffffffffffffffffffffffffffffff19928316811790915560078054909216179055565b600554600160a060020a031681565b6000828152600b6020526040812054811061062a57600080fd5b506000828152600b60209081526040808320548352600a825280832060085482517f029b7d5300000000000000000000000000000000000000000000000000000000815233600482015292519194600160a060020a039091169363029b7d53936024808201949293918390030190829087803b1580156106a957600080fd5b505af11580156106bd573d6000803e3d6000fd5b505050506040513d60208110156106d357600080fd5b50516001820154600160a060020a039081169116146106f157600080fd5b815161070690600a830190602085019061234d565b508054600180830154604080516020808252600a8701805460029681161561010002600019011695909504908201819052600160a060020a03909316937fccfac2e5e45c8af339b83af022e2d6072564ca42a312b0511d9fd022ebb2fdf7939092829190820190849080156107bc5780601f10610791576101008083540402835291602001916107bc565b820191906000526020600020905b81548152906001019060200180831161079f57829003601f168201915b50509250505060405180910390a3505050565b60008060008060008060008060606107e56123cb565b60008b8152600b6020526040812054116107fe57600080fd5b60008b8152600b60209081526040808320548352600a82529182902082516101608101845281548152600180830154600160a060020a031682850152600280840180548751601f9482161561010002600019019091169290920492830186900486028201860187528282529295939493860193909291908301828280156108c65780601f1061089b576101008083540402835291602001916108c6565b820191906000526020600020905b8154815290600101906020018083116108a957829003601f168201915b5050509183525050600382015460208083019190915260048301546040808401919091526005840154600160a060020a0316606084015260068401546080840152600784015460ff1660a0840152600884015460c0840152600984015460e0840152600a840180548251601f600260018416156101009081026000190190941604908101869004860282018601909452838152940193929091908301828280156109b15780601f10610986576101008083540402835291602001916109b1565b820191906000526020600020905b81548152906001019060200180831161099457829003601f168201915b50505050508152505090508060200151816060015182608001518360a001518460c001518560e00151866101000151876101200151886101400151809050995099509950995099509950995099509950509193959799909294969850565b6060610a196123cb565b6000838152600b602052604081205411610a3257600080fd5b6000838152600b60209081526040808320548352600a82529182902082516101608101845281548152600180830154600160a060020a031682850152600280840180548751601f948216156101000260001901909116929092049283018690048602820186018752828252929593949386019390929190830182828015610afa5780601f10610acf57610100808354040283529160200191610afa565b820191906000526020600020905b815481529060010190602001808311610add57829003601f168201915b5050509183525050600382015460208083019190915260048301546040808401919091526005840154600160a060020a0316606084015260068401546080840152600784015460ff1660a0840152600884015460c0840152600984015460e0840152600a840180548251601f60026001841615610100908102600019019094160490810186900486028201860190945283815294019392909190830182828015610be55780601f10610bba57610100808354040283529160200191610be5565b820191906000526020600020905b815481529060010190602001808311610bc857829003601f168201915b505050919092525050336000908152600260205260409020549192505060ff16151560011480610cb65750600854604080517f029b7d530000000000000000000000000000000000000000000000000000000081523360048201529051600160a060020a039092169163029b7d53916024808201926020929091908290030181600087803b158015610c7657600080fd5b505af1158015610c8a573d6000803e3d6000fd5b505050506040513d6020811015610ca057600080fd5b50516020820151600160a060020a039081169116145b1515610cc157600080fd5b6040015192915050565b60035481565b600154600160a060020a031681565b6000546001546040805160e260020a633d9abf2b028152336004820152600160a060020a0393841660248201529290911660448301525173__AOLibrary_____________________________9163f66afcac916064808301926020929190829003018186803b158015610d5257600080fd5b505af4158015610d66573d6000803e3d6000fd5b505050506040513d6020811015610d7c57600080fd5b50511515610d8957600080fd5b600160a060020a0382161515610d9e57600080fd5b600160a060020a03919091166000908152600260205260409020805460ff1916911515919091179055565b6000546001546040805160e260020a633d9abf2b028152336004820152600160a060020a0393841660248201529290911660448301525173__AOLibrary_____________________________9163f66afcac916064808301926020929190829003018186803b158015610e3b57600080fd5b505af4158015610e4f573d6000803e3d6000fd5b505050506040513d6020811015610e6557600080fd5b50511515610e7257600080fd5b600160a060020a0381161515610e8757600080fd5b60018054600160a060020a0390921673ffffffffffffffffffffffffffffffffffffffff19928316811790915560098054909216179055565b6000818152600b602052604081205481908110610edc57600080fd5b610ee46117db565b50505060009586525050600b60209081526040808620548652600a9091529093206004015490921492915050565b6000868152600b6020526040812054819081908190819081908110610f3657600080fd5b604080517f2fca5414000000000000000000000000000000000000000000000000000000008152600160a060020a038d166004820152905173__AOLibrary_____________________________91632fca5414916024808301926020929190829003018186803b158015610fa957600080fd5b505af4158015610fbd573d6000803e3d6000fd5b505050506040513d6020811015610fd357600080fd5b50511515610fe057600080fd5b610fe86117db565b929a509098509650945050508985148061100157508984145b8061100b57508983145b151561101657600080fd5b6110248c8c8c8c8c8c611faf565b60008d8152600b60209081526040808320548352600a90915290209092509050600160a060020a038216331480156110f957506009546005820154604080517fe2c8e54a000000000000000000000000000000000000000000000000000000008152600160a060020a03868116600483015292831660248201529051919092169163e2c8e54a9160448083019260209291908290030181600087803b1580156110cc57600080fd5b505af11580156110e0573d6000803e3d6000fd5b505050506040513d60208110156110f657600080fd5b50515b151561110457600080fd5b6004810154861461111457600080fd5b600681018a905560078101805460ff191660ff8b16179055600881018890556009810187905560408051600160a060020a038481168252602082018d90528251908e16928f927f0528e12829f4904634dd7bd06309457b4867ebd8bdf33ae6a8f6092a9a9461b9929081900390910190a3505050505050505050505050565b6000546001546040805160e260020a633d9abf2b028152336004820152600160a060020a0393841660248201529290911660448301525173__AOLibrary_____________________________9163f66afcac916064808301926020929190829003018186803b15801561120557600080fd5b505af4158015611219573d6000803e3d6000fd5b505050506040513d602081101561122f57600080fd5b5051151561123c57600080fd5b600160a060020a038116151561125157600080fd5b60068054600160a060020a0390921673ffffffffffffffffffffffffffffffffffffffff19928316811790915560088054909216179055565b60026020526000908152604090205460ff1681565b600054600160a060020a031681565b600654600160a060020a031681565b33600090815260026020526040812054819081908190819060ff1615156001146112e657600080fd5b6113258b8b8b8080601f0160208091040260200160405190810160405280939291908181526020018383808284378201915050505050508a8a8a6120ca565b151561133057600080fd5b600360008154809291906001019190505550308b6003546040516020018084600160a060020a0316600160a060020a03166c0100000000000000000000000002815260140183600160a060020a0316600160a060020a03166c0100000000000000000000000002815260140182815260200193505050506040516020818303038152906040526040518082805190602001908083835b602083106113e55780518252601f1990920191602091820191016113c6565b51815160209384036101000a600019018019909216911617905260408051929094018290039091206003546000908152600a9092529290206001810154929850965050600160a060020a031615915061143f905057600080fd5b6114476117db565b5050935093505050838360000181600019169055508a8360010160006101000a815481600160a060020a030219169083600160a060020a031602179055508989846002019190611498929190612426565b506003830188905560048301879055818714156114e1576006830181905560058301805473ffffffffffffffffffffffffffffffffffffffff1916600160a060020a0388161790555b600380546000868152600b6020908152604091829020929092558554600187015493870154600488015483519182529381019390935281519093600160a060020a0316927fe57c42bf3a4425cef2daf5daea09e512a58183eac320e1480456a511a6afe7cd92908290030190a350505498975050505050505050565b6000546001546040805160e260020a633d9abf2b028152336004820152600160a060020a0393841660248201529290911660448301525173__AOLibrary_____________________________9163f66afcac916064808301926020929190829003018186803b1580156115cf57600080fd5b505af41580156115e3573d6000803e3d6000fd5b505050506040513d60208110156115f957600080fd5b5051151561160657600080fd5b604080517f2fca5414000000000000000000000000000000000000000000000000000000008152600160a060020a0383166004820152905173__AOLibrary_____________________________91632fca5414916024808301926020929190829003018186803b15801561167957600080fd5b505af415801561168d573d6000803e3d6000fd5b505050506040513d60208110156116a357600080fd5b505115156116b057600080fd5b6004805473ffffffffffffffffffffffffffffffffffffffff1916600160a060020a0392909216919091179055565b600454600160a060020a031681565b6000546001546040805160e260020a633d9abf2b028152336004820152600160a060020a0393841660248201529290911660448301525173__AOLibrary_____________________________9163f66afcac916064808301926020929190829003018186803b15801561176057600080fd5b505af4158015611774573d6000803e3d6000fd5b505050506040513d602081101561178a57600080fd5b5051151561179757600080fd5b600160a060020a03811615156117ac57600080fd5b6000805473ffffffffffffffffffffffffffffffffffffffff1916600160a060020a0392909216919091179055565b600754600480546040805160e260020a631c196fb7028152600160a060020a039283169381019390935260248301819052601a60448401527f636f6e74656e745573616765547970655f616f436f6e74656e7400000000000060648401525160009384938493849384938493849384938493849384938493921691637065bedc91608480820192869290919082900301818387803b15801561187c57600080fd5b505af1158015611890573d6000803e3d6000fd5b505050506040513d6000823e601f3d908101601f1916820160405260a08110156118b957600080fd5b8151602083015160408401516060850151608086018051949693959294919392830192916401000000008111156118ef57600080fd5b8201602081018481111561190257600080fd5b815164010000000081118282018710171561191c57600080fd5b5050929190505050509850505050600760009054906101000a9004600160a060020a0316600160a060020a0316637065bedc600460009054906101000a9004600160a060020a03166040518263ffffffff167c01000000000000000000000000000000000000000000000000000000000281526004018082600160a060020a0316600160a060020a0316815260200180602001828103825260208152602001807f636f6e74656e745573616765547970655f6372656174697665436f6d6d6f6e7381525060200192505050600060405180830381600087803b158015611a0157600080fd5b505af1158015611a15573d6000803e3d6000fd5b505050506040513d6000823e601f3d908101601f1916820160405260a0811015611a3e57600080fd5b815160208301516040840151606085015160808601805194969395929491939283019291640100000000811115611a7457600080fd5b82016020810184811115611a8757600080fd5b8151640100000000811182820187101715611aa157600080fd5b5050600754600480546040805160e260020a631c196fb7028152600160a060020a039283169381019390935260248301819052601b60448401527f636f6e74656e745573616765547970655f74616f436f6e74656e740000000000606484015251979f509091169850637065bedc97506084808201975060009695509085900301925083915084905087803b158015611b3957600080fd5b505af1158015611b4d573d6000803e3d6000fd5b505050506040513d6000823e601f3d908101601f1916820160405260a0811015611b7657600080fd5b815160208301516040840151606085015160808601805194969395929491939283019291640100000000811115611bac57600080fd5b82016020810184811115611bbf57600080fd5b8151640100000000811182820187101715611bd957600080fd5b5050600754600480546040805160e260020a631c196fb7028152600160a060020a039283169381019390935260248301819052601960448401527f74616f436f6e74656e7453746174655f7375626d697474656400000000000000606484015251979e509091169850637065bedc97506084808201975060009695509085900301925083915084905087803b158015611c7157600080fd5b505af1158015611c85573d6000803e3d6000fd5b505050506040513d6000823e601f3d908101601f1916820160405260a0811015611cae57600080fd5b815160208301516040840151606085015160808601805194969395929491939283019291640100000000811115611ce457600080fd5b82016020810184811115611cf757600080fd5b8151640100000000811182820187101715611d1157600080fd5b5050600754600480546040805160e260020a631c196fb7028152600160a060020a039283169381019390935260248301819052601d60448401527f74616f436f6e74656e7453746174655f70656e64696e67526576696577000000606484015251979d509091169850637065bedc97506084808201975060009695509085900301925083915084905087803b158015611da957600080fd5b505af1158015611dbd573d6000803e3d6000fd5b505050506040513d6000823e601f3d908101601f1916820160405260a0811015611de657600080fd5b815160208301516040840151606085015160808601805194969395929491939283019291640100000000811115611e1c57600080fd5b82016020810184811115611e2f57600080fd5b8151640100000000811182820187101715611e4957600080fd5b5050600754600480546040805160e260020a631c196fb7028152600160a060020a039283169381019390935260248301819052601d60448401527f74616f436f6e74656e7453746174655f6163636570746564546f54414f000000606484015251979c509091169850637065bedc97506084808201975060009695509085900301925083915084905087803b158015611ee157600080fd5b505af1158015611ef5573d6000803e3d6000fd5b505050506040513d6000823e601f3d908101601f1916820160405260a0811015611f1e57600080fd5b815160208301516040840151606085015160808601805194969395929491939283019291640100000000811115611f5457600080fd5b82016020810184811115611f6757600080fd5b8151640100000000811182820187101715611f8157600080fd5b50509291905050505093505050508585858585859b509b509b509b509b509b50505050505050909192939495565b604080516c01000000000000000000000000308102602080840191909152603483018a9052600160a060020a03891690910260548301526068808301889052835180840390910181526088909201928390528151600093849392909182918401908083835b602083106120335780518252601f199092019160209182019101612014565b51815160209384036101000a600019018019909216911617905260408051929094018290038220600080845283830180875282905260ff8d1684870152606084018c9052608084018b905294519097506001965060a080840196509194601f19820194509281900390910191865af11580156120b3573d6000803e3d6000fd5b5050604051601f1901519998505050505050505050565b6000806000806120d86117db565b5093965091945092505050600160a060020a038916158015906121965750604080517f2d706a34000000000000000000000000000000000000000000000000000000008152600160a060020a038b166004820152905173__AOLibrary_____________________________91632d706a34916024808301926020929190829003018186803b15801561216957600080fd5b505af415801561217d573d6000803e3d6000fd5b505050506040513d602081101561219357600080fd5b50515b80156121a3575060008851115b80156121af5750600087115b80156121cd5750858314806121c357508582145b806121cd57508581145b801561234057508581141580612340575085811480156121f55750600160a060020a03851615155b801561229c5750604080517f2fca5414000000000000000000000000000000000000000000000000000000008152600160a060020a0387166004820152905173__AOLibrary_____________________________91632fca5414916024808301926020929190829003018186803b15801561226f57600080fd5b505af4158015612283573d6000803e3d6000fd5b505050506040513d602081101561229957600080fd5b50515b80156123405750600954604080517f473f1e4d000000000000000000000000000000000000000000000000000000008152600160a060020a038c8116600483015288811660248301529151919092169163473f1e4d9160448083019260209291908290030181600087803b15801561231357600080fd5b505af1158015612327573d6000803e3d6000fd5b505050506040513d602081101561233d57600080fd5b50515b9998505050505050505050565b828054600181600116156101000203166002900490600052602060002090601f016020900481019282601f1061238e57805160ff19168380011785556123bb565b828001600101855582156123bb579182015b828111156123bb5782518255916020019190600101906123a0565b506123c7929150612494565b5090565b604080516101608101825260008082526020820181905260609282018390528282018190526080820181905260a0820181905260c0820181905260e08201819052610100820181905261012082015261014081019190915290565b828054600181600116156101000203166002900490600052602060002090601f016020900481019282601f106124675782800160ff198235161785556123bb565b828001600101855582156123bb579182015b828111156123bb578235825591602001919060010190612479565b6124ae91905b808211156123c7576000815560010161249a565b905600a165627a7a7230582048969e6a80313bf3be695d2340f48158078375b685e730b1ee6bc435e70ac1090029",
	"source": "pragma solidity ^0.4.24;\n\nimport './AOLibrary.sol';\nimport './TheAO.sol';\nimport './IAOContent.sol';\nimport './IAOSetting.sol';\nimport './INameFactory.sol';\nimport './INameTAOPosition.sol';\n\n/**\n * @title AOContent\n */\ncontract AOContent is TheAO, IAOContent {\n\tuint256 public totalContents;\n\taddress public settingTAOId;\n\taddress public aoSettingAddress;\n\taddress public nameFactoryAddress;\n\n\tIAOSetting internal _aoSetting;\n\tINameFactory internal _nameFactory;\n\tINameTAOPosition internal _nameTAOPosition;\n\n\tstruct Content {\n\t\tbytes32 contentId;\n\t\taddress creator;\n\t\t/**\n\t\t * baseChallenge is the content's PUBLIC KEY\n\t\t * When a request node wants to be a host, it is required to send a signed base challenge (its content's PUBLIC KEY)\n\t\t * so that the contract can verify the authenticity of the content by comparing what the contract has and what the request node\n\t\t * submit\n\t\t */\n\t\tstring baseChallenge;\n\t\tuint256 fileSize;\n\t\tbytes32 contentUsageType; // i.e AO Content, Creative Commons, or T(AO) Content\n\t\taddress taoId;\n\t\tbytes32 taoContentState; // i.e Submitted, Pending Review, Accepted to TAO\n\t\tuint8 updateTAOContentStateV;\n\t\tbytes32 updateTAOContentStateR;\n\t\tbytes32 updateTAOContentStateS;\n\t\tstring extraData;\n\t}\n\n\t// Mapping from Content index to the Content object\n\tmapping (uint256 => Content) internal contents;\n\n\t// Mapping from content ID to index of the contents list\n\tmapping (bytes32 => uint256) internal contentIndex;\n\n\t// Event to be broadcasted to public when `content` is stored\n\tevent StoreContent(address indexed creator, bytes32 indexed contentId, uint256 fileSize, bytes32 contentUsageType);\n\n\t// Event to be broadcasted to public when Advocate/Listener/Speaker wants to update the TAO Content's State\n\tevent UpdateTAOContentState(bytes32 indexed contentId, address indexed taoId, address signer, bytes32 taoContentState);\n\n\t// Event to be broadcasted to public when content creator updates the content's extra data\n\tevent SetExtraData(address indexed creator, bytes32 indexed contentId, string newExtraData);\n\n\t/**\n\t * @dev Constructor function\n\t * @param _settingTAOId The TAO ID that controls the setting\n\t * @param _aoSettingAddress The address of AOSetting\n\t * @param _nameFactoryAddress The address of NameFactory\n\t * @param _nameTAOPositionAddress The address of NameTAOPosition\n\t */\n\tconstructor(address _settingTAOId, address _aoSettingAddress, address _nameFactoryAddress, address _nameTAOPositionAddress) public {\n\t\tsetSettingTAOId(_settingTAOId);\n\t\tsetAOSettingAddress(_aoSettingAddress);\n\t\tsetNameFactoryAddress(_nameFactoryAddress);\n\t\tsetNameTAOPositionAddress(_nameTAOPositionAddress);\n\t}\n\n\t/**\n\t * @dev Checks if the calling contract address is The AO\n\t *\t\tOR\n\t *\t\tIf The AO is set to a Name/TAO, then check if calling address is the Advocate\n\t */\n\tmodifier onlyTheAO {\n\t\trequire (AOLibrary.isTheAO(msg.sender, theAO, nameTAOPositionAddress));\n\t\t_;\n\t}\n\n\t/***** The AO ONLY METHODS *****/\n\t/**\n\t * @dev Transfer ownership of The AO to new address\n\t * @param _theAO The new address to be transferred\n\t */\n\tfunction transferOwnership(address _theAO) public onlyTheAO {\n\t\trequire (_theAO != address(0));\n\t\ttheAO = _theAO;\n\t}\n\n\t/**\n\t * @dev Whitelist `_account` address to transact on behalf of others\n\t * @param _account The address to whitelist\n\t * @param _whitelist Either to whitelist or not\n\t */\n\tfunction setWhitelist(address _account, bool _whitelist) public onlyTheAO {\n\t\trequire (_account != address(0));\n\t\twhitelist[_account] = _whitelist;\n\t}\n\n\t/**\n\t * @dev The AO sets setting TAO ID\n\t * @param _settingTAOId The new setting TAO ID to set\n\t */\n\tfunction setSettingTAOId(address _settingTAOId) public onlyTheAO {\n\t\trequire (AOLibrary.isTAO(_settingTAOId));\n\t\tsettingTAOId = _settingTAOId;\n\t}\n\n\t/**\n\t * @dev The AO sets AO Setting address\n\t * @param _aoSettingAddress The address of AOSetting\n\t */\n\tfunction setAOSettingAddress(address _aoSettingAddress) public onlyTheAO {\n\t\trequire (_aoSettingAddress != address(0));\n\t\taoSettingAddress = _aoSettingAddress;\n\t\t_aoSetting = IAOSetting(_aoSettingAddress);\n\t}\n\n\t/**\n\t * @dev The AO sets NameFactory address\n\t * @param _nameFactoryAddress The address of NameFactory\n\t */\n\tfunction setNameFactoryAddress(address _nameFactoryAddress) public onlyTheAO {\n\t\trequire (_nameFactoryAddress != address(0));\n\t\tnameFactoryAddress = _nameFactoryAddress;\n\t\t_nameFactory = INameFactory(_nameFactoryAddress);\n\t}\n\n\t/**\n\t * @dev The AO sets NameTAOPosition address\n\t * @param _nameTAOPositionAddress The address of NameTAOPosition\n\t */\n\tfunction setNameTAOPositionAddress(address _nameTAOPositionAddress) public onlyTheAO {\n\t\trequire (_nameTAOPositionAddress != address(0));\n\t\tnameTAOPositionAddress = _nameTAOPositionAddress;\n\t\t_nameTAOPosition = INameTAOPosition(_nameTAOPositionAddress);\n\t}\n\n\t/***** PUBLIC METHODS *****/\n\t/**\n\t * @dev Store the content information (content creation during staking)\n\t * @param _creator the address of the content creator\n\t * @param _baseChallenge The base challenge string (PUBLIC KEY) of the content\n\t * @param _fileSize The size of the file\n\t * @param _contentUsageType The content usage type, i.e AO Content, Creative Commons, or T(AO) Content\n\t * @param _taoId The TAO (TAO) ID for this content (if this is a T(AO) Content)\n\t * @return the ID of the content\n\t */\n\tfunction create(address _creator,\n\t\tstring _baseChallenge,\n\t\tuint256 _fileSize,\n\t\tbytes32 _contentUsageType,\n\t\taddress _taoId\n\t\t) external inWhitelist returns (bytes32) {\n\t\trequire (_canCreate(_creator, _baseChallenge, _fileSize, _contentUsageType, _taoId));\n\n\t\t// Increment totalContents\n\t\ttotalContents++;\n\n\t\t// Generate contentId\n\t\tbytes32 _contentId = keccak256(abi.encodePacked(this, _creator, totalContents));\n\t\tContent storage _content = contents[totalContents];\n\n\t\t// Make sure the node does't store the same content twice\n\t\trequire (_content.creator == address(0));\n\n\t\t(,,bytes32 contentUsageType_taoContent, bytes32 taoContentState_submitted,,) = _getSettingVariables();\n\n\t\t_content.contentId = _contentId;\n\t\t_content.creator = _creator;\n\t\t_content.baseChallenge = _baseChallenge;\n\t\t_content.fileSize = _fileSize;\n\t\t_content.contentUsageType = _contentUsageType;\n\n\t\t// If this is a TAO Content\n\t\tif (_contentUsageType == contentUsageType_taoContent) {\n\t\t\t_content.taoContentState = taoContentState_submitted;\n\t\t\t_content.taoId = _taoId;\n\t\t}\n\n\t\tcontentIndex[_contentId] = totalContents;\n\n\t\temit StoreContent(_content.creator, _content.contentId, _content.fileSize, _content.contentUsageType);\n\t\treturn _content.contentId;\n\t}\n\n\t/**\n\t * @dev Return content info at a given ID\n\t * @param _contentId The ID of the content\n\t * @return address of the creator\n\t * @return file size of the content\n\t * @return the content usage type, i.e AO Content, Creative Commons, or T(AO) Content\n\t * @return The TAO ID for this content (if this is a T(AO) Content)\n\t * @return The TAO Content state, i.e Submitted, Pending Review, or Accepted to TAO\n\t * @return The V part of signature that is used to update the TAO Content State\n\t * @return The R part of signature that is used to update the TAO Content State\n\t * @return The S part of signature that is used to update the TAO Content State\n\t * @return the extra information sent to the contract when creating a content\n\t */\n\tfunction getById(bytes32 _contentId) external view returns (address, uint256, bytes32, address, bytes32, uint8, bytes32, bytes32, string) {\n\t\t// Make sure the content exist\n\t\trequire (contentIndex[_contentId] > 0);\n\t\tContent memory _content = contents[contentIndex[_contentId]];\n\t\treturn (\n\t\t\t_content.creator,\n\t\t\t_content.fileSize,\n\t\t\t_content.contentUsageType,\n\t\t\t_content.taoId,\n\t\t\t_content.taoContentState,\n\t\t\t_content.updateTAOContentStateV,\n\t\t\t_content.updateTAOContentStateR,\n\t\t\t_content.updateTAOContentStateS,\n\t\t\t_content.extraData\n\t\t);\n\t}\n\n\t/**\n\t * @dev Get content base challenge\n\t * @param _contentId The ID of the content\n\t * @return the base challenge\n\t */\n\tfunction getBaseChallenge(bytes32 _contentId) external view returns (string) {\n\t\t// Make sure the content exist\n\t\trequire (contentIndex[_contentId] > 0);\n\t\tContent memory _content = contents[contentIndex[_contentId]];\n\t\trequire (whitelist[msg.sender] == true || _content.creator == _nameFactory.ethAddressToNameId(msg.sender));\n\t\treturn _content.baseChallenge;\n\t}\n\n\t/**\n\t * @dev Update the TAO Content State of a T(AO) Content\n\t * @param _contentId The ID of the Content\n\t * @param _taoId The ID of the TAO that initiates the update\n\t * @param _taoContentState The TAO Content state value, i.e Submitted, Pending Review, or Accepted to TAO\n\t * @param _updateTAOContentStateV The V part of the signature for this update\n\t * @param _updateTAOContentStateR The R part of the signature for this update\n\t * @param _updateTAOContentStateS The S part of the signature for this update\n\t */\n\tfunction updateTAOContentState(\n\t\tbytes32 _contentId,\n\t\taddress _taoId,\n\t\tbytes32 _taoContentState,\n\t\tuint8 _updateTAOContentStateV,\n\t\tbytes32 _updateTAOContentStateR,\n\t\tbytes32 _updateTAOContentStateS\n\t) public {\n\t\t// Make sure the content exist\n\t\trequire (contentIndex[_contentId] > 0);\n\t\trequire (AOLibrary.isTAO(_taoId));\n\t\t(,, bytes32 _contentUsageType_taoContent, bytes32 taoContentState_submitted, bytes32 taoContentState_pendingReview, bytes32 taoContentState_acceptedToTAO) = _getSettingVariables();\n\t\trequire (_taoContentState == taoContentState_submitted || _taoContentState == taoContentState_pendingReview || _taoContentState == taoContentState_acceptedToTAO);\n\n\t\taddress _signatureAddress = _getUpdateTAOContentStateSignatureAddress(_contentId, _taoId, _taoContentState, _updateTAOContentStateV, _updateTAOContentStateR, _updateTAOContentStateS);\n\n\t\tContent storage _content = contents[contentIndex[_contentId]];\n\t\t// Make sure that the signature address is one of content's TAO ID's Advocate/Listener/Speaker\n\t\trequire (_signatureAddress == msg.sender && _nameTAOPosition.senderIsPosition(_signatureAddress, _content.taoId));\n\t\trequire (_content.contentUsageType == _contentUsageType_taoContent);\n\n\t\t_content.taoContentState = _taoContentState;\n\t\t_content.updateTAOContentStateV = _updateTAOContentStateV;\n\t\t_content.updateTAOContentStateR = _updateTAOContentStateR;\n\t\t_content.updateTAOContentStateS = _updateTAOContentStateS;\n\n\t\temit UpdateTAOContentState(_contentId, _taoId, _signatureAddress, _taoContentState);\n\t}\n\n\t/**\n\t * @dev Check whether or not the content is of AO Content Usage Type\n\t * @param _contentId The ID of the content\n\t * @return true if yes. false otherwise\n\t */\n\tfunction isAOContentUsageType(bytes32 _contentId) external view returns (bool) {\n\t\trequire (contentIndex[_contentId] > 0);\n\t\t(bytes32 _contentUsageType_aoContent,,,,,) = _getSettingVariables();\n\t\treturn contents[contentIndex[_contentId]].contentUsageType == _contentUsageType_aoContent;\n\t}\n\n\t/**\n\t * @dev Set extra data on existing content\n\t * @param _contentId The ID of the content\n\t * @param _extraData some extra information to send to the contract for a content\n\t */\n\tfunction setExtraData(bytes32 _contentId, string _extraData) public {\n\t\t// Make sure the content exist\n\t\trequire (contentIndex[_contentId] > 0);\n\n\t\tContent storage _content = contents[contentIndex[_contentId]];\n\t\t// Make sure the content creator is the same as the sender\n\t\trequire (_content.creator == _nameFactory.ethAddressToNameId(msg.sender));\n\n\t\t_content.extraData = _extraData;\n\n\t\temit SetExtraData(_content.creator, _content.contentId, _content.extraData);\n\t}\n\n\t/***** INTERNAL METHODS *****/\n\t/**\n\t * @dev Checks if create params are valid\n\t * @param _creator the address of the content creator\n\t * @param _baseChallenge The base challenge string (PUBLIC KEY) of the content\n\t * @param _fileSize The size of the file\n\t * @param _contentUsageType The content usage type, i.e AO Content, Creative Commons, or T(AO) Content\n\t * @param _taoId The TAO (TAO) ID for this content (if this is a T(AO) Content)\n\t * @return true if yes. false otherwise\n\t */\n\tfunction _canCreate(address _creator, string _baseChallenge, uint256 _fileSize, bytes32 _contentUsageType, address _taoId) internal view returns (bool) {\n\t\t(bytes32 aoContent, bytes32 creativeCommons, bytes32 taoContent,,,) = _getSettingVariables();\n\t\treturn (_creator != address(0) &&\n\t\t\tAOLibrary.isName(_creator) &&\n\t\t\tbytes(_baseChallenge).length > 0 &&\n\t\t\t_fileSize > 0 &&\n\t\t\t(_contentUsageType == aoContent || _contentUsageType == creativeCommons || _contentUsageType == taoContent) &&\n\t\t\t(\n\t\t\t\t_contentUsageType != taoContent ||\n\t\t\t\t(_contentUsageType == taoContent && _taoId != address(0) && AOLibrary.isTAO(_taoId) && _nameTAOPosition.nameIsPosition(_creator, _taoId))\n\t\t\t)\n\t\t);\n\t}\n\n\t/**\n\t * @dev Get setting variables\n\t * @return contentUsageType_aoContent Content Usage Type = AO Content\n\t * @return contentUsageType_creativeCommons Content Usage Type = Creative Commons\n\t * @return contentUsageType_taoContent Content Usage Type = T(AO) Content\n\t * @return taoContentState_submitted TAO Content State = Submitted\n\t * @return taoContentState_pendingReview TAO Content State = Pending Review\n\t * @return taoContentState_acceptedToTAO TAO Content State = Accepted to TAO\n\t */\n\tfunction _getSettingVariables() internal view returns (bytes32, bytes32, bytes32, bytes32, bytes32, bytes32) {\n\t\t(,,,bytes32 contentUsageType_aoContent,) = _aoSetting.getSettingValuesByTAOName(settingTAOId, 'contentUsageType_aoContent');\n\t\t(,,,bytes32 contentUsageType_creativeCommons,) = _aoSetting.getSettingValuesByTAOName(settingTAOId, 'contentUsageType_creativeCommons');\n\t\t(,,,bytes32 contentUsageType_taoContent,) = _aoSetting.getSettingValuesByTAOName(settingTAOId, 'contentUsageType_taoContent');\n\t\t(,,,bytes32 taoContentState_submitted,) = _aoSetting.getSettingValuesByTAOName(settingTAOId, 'taoContentState_submitted');\n\t\t(,,,bytes32 taoContentState_pendingReview,) = _aoSetting.getSettingValuesByTAOName(settingTAOId, 'taoContentState_pendingReview');\n\t\t(,,,bytes32 taoContentState_acceptedToTAO,) = _aoSetting.getSettingValuesByTAOName(settingTAOId, 'taoContentState_acceptedToTAO');\n\n\t\treturn (\n\t\t\tcontentUsageType_aoContent,\n\t\t\tcontentUsageType_creativeCommons,\n\t\t\tcontentUsageType_taoContent,\n\t\t\ttaoContentState_submitted,\n\t\t\ttaoContentState_pendingReview,\n\t\t\ttaoContentState_acceptedToTAO\n\t\t);\n\t}\n\n\t/**\n\t * @dev Return the address that signed the TAO content state update\n\t * @param _contentId the ID of the content\n\t * @param _taoId the ID of the TAO\n\t * @param _taoContentState the TAO Content State value, i.e Submitted, Pending Review, or Accepted to TAO\n\t * @param _v part of the signature\n\t * @param _r part of the signature\n\t * @param _s part of the signature\n\t * @return the address that signed the message\n\t */\n\tfunction _getUpdateTAOContentStateSignatureAddress(bytes32 _contentId, address _taoId, bytes32 _taoContentState, uint8 _v, bytes32 _r, bytes32 _s) internal view returns (address) {\n\t\tbytes32 _hash = keccak256(abi.encodePacked(address(this), _contentId, _taoId, _taoContentState));\n\t\treturn ecrecover(_hash, _v, _r, _s);\n\t}\n}\n",
	"sourcePath": "/Users/johanmulyono/Work/AO/ao-contracts/contracts/AOContent.sol",
	"compiler": {
		"name": "solc",
		"version": "0.4.24+commit.e67f0147.Emscripten.clang"
	},
	"schemaVersion": "2.0.1",
	"updatedAt": "2019-04-04T04:29:47.419Z"
}