{
	"contractName": "AOContentFactory",
	"abi": [
		{
			"constant": true,
			"inputs": [],
			"name": "aoStakedContentAddress",
			"outputs": [
				{
					"name": "",
					"type": "address"
				}
			],
			"payable": false,
			"stateMutability": "view",
			"type": "function"
		},
		{
			"constant": true,
			"inputs": [],
			"name": "aoSettingAddress",
			"outputs": [
				{
					"name": "",
					"type": "address"
				}
			],
			"payable": false,
			"stateMutability": "view",
			"type": "function"
		},
		{
			"constant": true,
			"inputs": [],
			"name": "nameTAOPositionAddress",
			"outputs": [
				{
					"name": "",
					"type": "address"
				}
			],
			"payable": false,
			"stateMutability": "view",
			"type": "function"
		},
		{
			"constant": true,
			"inputs": [],
			"name": "aoTreasuryAddress",
			"outputs": [
				{
					"name": "",
					"type": "address"
				}
			],
			"payable": false,
			"stateMutability": "view",
			"type": "function"
		},
		{
			"constant": true,
			"inputs": [],
			"name": "aoContentAddress",
			"outputs": [
				{
					"name": "",
					"type": "address"
				}
			],
			"payable": false,
			"stateMutability": "view",
			"type": "function"
		},
		{
			"constant": true,
			"inputs": [],
			"name": "aoEarningAddress",
			"outputs": [
				{
					"name": "",
					"type": "address"
				}
			],
			"payable": false,
			"stateMutability": "view",
			"type": "function"
		},
		{
			"constant": true,
			"inputs": [],
			"name": "aoContentHostAddress",
			"outputs": [
				{
					"name": "",
					"type": "address"
				}
			],
			"payable": false,
			"stateMutability": "view",
			"type": "function"
		},
		{
			"constant": true,
			"inputs": [
				{
					"name": "",
					"type": "address"
				}
			],
			"name": "whitelist",
			"outputs": [
				{
					"name": "",
					"type": "bool"
				}
			],
			"payable": false,
			"stateMutability": "view",
			"type": "function"
		},
		{
			"constant": true,
			"inputs": [],
			"name": "theAO",
			"outputs": [
				{
					"name": "",
					"type": "address"
				}
			],
			"payable": false,
			"stateMutability": "view",
			"type": "function"
		},
		{
			"constant": true,
			"inputs": [],
			"name": "nameFactoryAddress",
			"outputs": [
				{
					"name": "",
					"type": "address"
				}
			],
			"payable": false,
			"stateMutability": "view",
			"type": "function"
		},
		{
			"constant": true,
			"inputs": [],
			"name": "settingTAOId",
			"outputs": [
				{
					"name": "",
					"type": "address"
				}
			],
			"payable": false,
			"stateMutability": "view",
			"type": "function"
		},
		{
			"inputs": [
				{
					"name": "_settingTAOId",
					"type": "address"
				},
				{
					"name": "_aoSettingAddress",
					"type": "address"
				},
				{
					"name": "_aoTreasuryAddress",
					"type": "address"
				},
				{
					"name": "_aoContentAddress",
					"type": "address"
				},
				{
					"name": "_aoStakedContentAddress",
					"type": "address"
				},
				{
					"name": "_aoContentHostAddress",
					"type": "address"
				},
				{
					"name": "_aoEarningAddress",
					"type": "address"
				},
				{
					"name": "_nameFactoryAddress",
					"type": "address"
				},
				{
					"name": "_nameTAOPositionAddress",
					"type": "address"
				}
			],
			"payable": false,
			"stateMutability": "nonpayable",
			"type": "constructor"
		},
		{
			"constant": false,
			"inputs": [
				{
					"name": "_theAO",
					"type": "address"
				}
			],
			"name": "transferOwnership",
			"outputs": [],
			"payable": false,
			"stateMutability": "nonpayable",
			"type": "function"
		},
		{
			"constant": false,
			"inputs": [
				{
					"name": "_account",
					"type": "address"
				},
				{
					"name": "_whitelist",
					"type": "bool"
				}
			],
			"name": "setWhitelist",
			"outputs": [],
			"payable": false,
			"stateMutability": "nonpayable",
			"type": "function"
		},
		{
			"constant": false,
			"inputs": [
				{
					"name": "_settingTAOId",
					"type": "address"
				}
			],
			"name": "setSettingTAOId",
			"outputs": [],
			"payable": false,
			"stateMutability": "nonpayable",
			"type": "function"
		},
		{
			"constant": false,
			"inputs": [
				{
					"name": "_aoSettingAddress",
					"type": "address"
				}
			],
			"name": "setAOSettingAddress",
			"outputs": [],
			"payable": false,
			"stateMutability": "nonpayable",
			"type": "function"
		},
		{
			"constant": false,
			"inputs": [
				{
					"name": "_aoTreasuryAddress",
					"type": "address"
				}
			],
			"name": "setAOTreasuryAddress",
			"outputs": [],
			"payable": false,
			"stateMutability": "nonpayable",
			"type": "function"
		},
		{
			"constant": false,
			"inputs": [
				{
					"name": "_aoContentAddress",
					"type": "address"
				}
			],
			"name": "setAOContentAddress",
			"outputs": [],
			"payable": false,
			"stateMutability": "nonpayable",
			"type": "function"
		},
		{
			"constant": false,
			"inputs": [
				{
					"name": "_aoStakedContentAddress",
					"type": "address"
				}
			],
			"name": "setAOStakedContentAddress",
			"outputs": [],
			"payable": false,
			"stateMutability": "nonpayable",
			"type": "function"
		},
		{
			"constant": false,
			"inputs": [
				{
					"name": "_aoContentHostAddress",
					"type": "address"
				}
			],
			"name": "setAOContentHostAddress",
			"outputs": [],
			"payable": false,
			"stateMutability": "nonpayable",
			"type": "function"
		},
		{
			"constant": false,
			"inputs": [
				{
					"name": "_aoEarningAddress",
					"type": "address"
				}
			],
			"name": "setAOEarningAddress",
			"outputs": [],
			"payable": false,
			"stateMutability": "nonpayable",
			"type": "function"
		},
		{
			"constant": false,
			"inputs": [
				{
					"name": "_nameFactoryAddress",
					"type": "address"
				}
			],
			"name": "setNameFactoryAddress",
			"outputs": [],
			"payable": false,
			"stateMutability": "nonpayable",
			"type": "function"
		},
		{
			"constant": false,
			"inputs": [
				{
					"name": "_nameTAOPositionAddress",
					"type": "address"
				}
			],
			"name": "setNameTAOPositionAddress",
			"outputs": [],
			"payable": false,
			"stateMutability": "nonpayable",
			"type": "function"
		},
		{
			"constant": false,
			"inputs": [
				{
					"name": "_networkIntegerAmount",
					"type": "uint256"
				},
				{
					"name": "_networkFractionAmount",
					"type": "uint256"
				},
				{
					"name": "_denomination",
					"type": "bytes8"
				},
				{
					"name": "_primordialAmount",
					"type": "uint256"
				},
				{
					"name": "_baseChallenge",
					"type": "string"
				},
				{
					"name": "_encChallenge",
					"type": "string"
				},
				{
					"name": "_contentDatKey",
					"type": "string"
				},
				{
					"name": "_metadataDatKey",
					"type": "string"
				},
				{
					"name": "_fileSize",
					"type": "uint256"
				},
				{
					"name": "_profitPercentage",
					"type": "uint256"
				}
			],
			"name": "stakeAOContent",
			"outputs": [],
			"payable": false,
			"stateMutability": "nonpayable",
			"type": "function"
		},
		{
			"constant": false,
			"inputs": [
				{
					"name": "_networkIntegerAmount",
					"type": "uint256"
				},
				{
					"name": "_networkFractionAmount",
					"type": "uint256"
				},
				{
					"name": "_denomination",
					"type": "bytes8"
				},
				{
					"name": "_primordialAmount",
					"type": "uint256"
				},
				{
					"name": "_baseChallenge",
					"type": "string"
				},
				{
					"name": "_encChallenge",
					"type": "string"
				},
				{
					"name": "_contentDatKey",
					"type": "string"
				},
				{
					"name": "_metadataDatKey",
					"type": "string"
				},
				{
					"name": "_fileSize",
					"type": "uint256"
				}
			],
			"name": "stakeCreativeCommonsContent",
			"outputs": [],
			"payable": false,
			"stateMutability": "nonpayable",
			"type": "function"
		},
		{
			"constant": false,
			"inputs": [
				{
					"name": "_networkIntegerAmount",
					"type": "uint256"
				},
				{
					"name": "_networkFractionAmount",
					"type": "uint256"
				},
				{
					"name": "_denomination",
					"type": "bytes8"
				},
				{
					"name": "_primordialAmount",
					"type": "uint256"
				},
				{
					"name": "_baseChallenge",
					"type": "string"
				},
				{
					"name": "_encChallenge",
					"type": "string"
				},
				{
					"name": "_contentDatKey",
					"type": "string"
				},
				{
					"name": "_metadataDatKey",
					"type": "string"
				},
				{
					"name": "_fileSize",
					"type": "uint256"
				},
				{
					"name": "_taoId",
					"type": "address"
				}
			],
			"name": "stakeTAOContent",
			"outputs": [],
			"payable": false,
			"stateMutability": "nonpayable",
			"type": "function"
		},
		{
			"constant": true,
			"inputs": [
				{
					"name": "_stakedContentId",
					"type": "bytes32"
				}
			],
			"name": "getStakingMetrics",
			"outputs": [
				{
					"name": "",
					"type": "uint256"
				},
				{
					"name": "",
					"type": "uint256"
				},
				{
					"name": "",
					"type": "uint256"
				}
			],
			"payable": false,
			"stateMutability": "view",
			"type": "function"
		},
		{
			"constant": true,
			"inputs": [
				{
					"name": "_stakedContentId",
					"type": "bytes32"
				}
			],
			"name": "getEarningMetrics",
			"outputs": [
				{
					"name": "",
					"type": "uint256"
				},
				{
					"name": "",
					"type": "uint256"
				},
				{
					"name": "",
					"type": "uint256"
				}
			],
			"payable": false,
			"stateMutability": "view",
			"type": "function"
		},
		{
			"constant": true,
			"inputs": [
				{
					"name": "_stakedContentId",
					"type": "bytes32"
				}
			],
			"name": "getContentMetrics",
			"outputs": [
				{
					"name": "",
					"type": "uint256"
				},
				{
					"name": "",
					"type": "uint256"
				},
				{
					"name": "",
					"type": "uint256"
				},
				{
					"name": "",
					"type": "uint256"
				},
				{
					"name": "",
					"type": "uint256"
				},
				{
					"name": "",
					"type": "uint256"
				}
			],
			"payable": false,
			"stateMutability": "view",
			"type": "function"
		}
	],
	"bytecode": "0x60806040523480156200001157600080fd5b50604051610120806200298583398101604090815281516020830151918301516060840151608085015160a086015160c087015160e08801516101009098015160008054600160a060020a03191633179055959794959394929391929091620000838964010000000062000132810204565b6200009788640100000000620002c5810204565b620000ab87640100000000620003ca810204565b620000bf86640100000000620004cf810204565b620000d385640100000000620005d4810204565b620000e784640100000000620006d9810204565b620000fb83640100000000620007de810204565b6200010f82640100000000620008e3810204565b6200012381640100000000620009e8810204565b50505050505050505062000aed565b600054600154604080517ff66afcac000000000000000000000000000000000000000000000000000000008152336004820152600160a060020a0393841660248201529290911660448301525173__AOLibrary_____________________________9163f66afcac916064808301926020929190829003018186803b158015620001bb57600080fd5b505af4158015620001d0573d6000803e3d6000fd5b505050506040513d6020811015620001e757600080fd5b50511515620001f557600080fd5b604080517f2fca5414000000000000000000000000000000000000000000000000000000008152600160a060020a0383166004820152905173__AOLibrary_____________________________91632fca5414916024808301926020929190829003018186803b1580156200026957600080fd5b505af41580156200027e573d6000803e3d6000fd5b505050506040513d60208110156200029557600080fd5b50511515620002a357600080fd5b60038054600160a060020a031916600160a060020a0392909216919091179055565b600054600154604080517ff66afcac000000000000000000000000000000000000000000000000000000008152336004820152600160a060020a0393841660248201529290911660448301525173__AOLibrary_____________________________9163f66afcac916064808301926020929190829003018186803b1580156200034e57600080fd5b505af415801562000363573d6000803e3d6000fd5b505050506040513d60208110156200037a57600080fd5b505115156200038857600080fd5b600160a060020a03811615156200039e57600080fd5b60048054600160a060020a03909216600160a060020a03199283168117909155600b8054909216179055565b600054600154604080517ff66afcac000000000000000000000000000000000000000000000000000000008152336004820152600160a060020a0393841660248201529290911660448301525173__AOLibrary_____________________________9163f66afcac916064808301926020929190829003018186803b1580156200045357600080fd5b505af415801562000468573d6000803e3d6000fd5b505050506040513d60208110156200047f57600080fd5b505115156200048d57600080fd5b600160a060020a0381161515620004a357600080fd5b60058054600160a060020a03909216600160a060020a03199283168117909155600c8054909216179055565b600054600154604080517ff66afcac000000000000000000000000000000000000000000000000000000008152336004820152600160a060020a0393841660248201529290911660448301525173__AOLibrary_____________________________9163f66afcac916064808301926020929190829003018186803b1580156200055857600080fd5b505af41580156200056d573d6000803e3d6000fd5b505050506040513d60208110156200058457600080fd5b505115156200059257600080fd5b600160a060020a0381161515620005a857600080fd5b60068054600160a060020a03909216600160a060020a03199283168117909155600d8054909216179055565b600054600154604080517ff66afcac000000000000000000000000000000000000000000000000000000008152336004820152600160a060020a0393841660248201529290911660448301525173__AOLibrary_____________________________9163f66afcac916064808301926020929190829003018186803b1580156200065d57600080fd5b505af415801562000672573d6000803e3d6000fd5b505050506040513d60208110156200068957600080fd5b505115156200069757600080fd5b600160a060020a0381161515620006ad57600080fd5b60078054600160a060020a03909216600160a060020a03199283168117909155600e8054909216179055565b600054600154604080517ff66afcac000000000000000000000000000000000000000000000000000000008152336004820152600160a060020a0393841660248201529290911660448301525173__AOLibrary_____________________________9163f66afcac916064808301926020929190829003018186803b1580156200076257600080fd5b505af415801562000777573d6000803e3d6000fd5b505050506040513d60208110156200078e57600080fd5b505115156200079c57600080fd5b600160a060020a0381161515620007b257600080fd5b60088054600160a060020a03909216600160a060020a03199283168117909155600f8054909216179055565b600054600154604080517ff66afcac000000000000000000000000000000000000000000000000000000008152336004820152600160a060020a0393841660248201529290911660448301525173__AOLibrary_____________________________9163f66afcac916064808301926020929190829003018186803b1580156200086757600080fd5b505af41580156200087c573d6000803e3d6000fd5b505050506040513d60208110156200089357600080fd5b50511515620008a157600080fd5b600160a060020a0381161515620008b757600080fd5b60098054600160a060020a03909216600160a060020a0319928316811790915560108054909216179055565b600054600154604080517ff66afcac000000000000000000000000000000000000000000000000000000008152336004820152600160a060020a0393841660248201529290911660448301525173__AOLibrary_____________________________9163f66afcac916064808301926020929190829003018186803b1580156200096c57600080fd5b505af415801562000981573d6000803e3d6000fd5b505050506040513d60208110156200099857600080fd5b50511515620009a657600080fd5b600160a060020a0381161515620009bc57600080fd5b600a8054600160a060020a03909216600160a060020a0319928316811790915560118054909216179055565b600054600154604080517ff66afcac000000000000000000000000000000000000000000000000000000008152336004820152600160a060020a0393841660248201529290911660448301525173__AOLibrary_____________________________9163f66afcac916064808301926020929190829003018186803b15801562000a7157600080fd5b505af415801562000a86573d6000803e3d6000fd5b505050506040513d602081101562000a9d57600080fd5b5051151562000aab57600080fd5b600160a060020a038116151562000ac157600080fd5b60018054600160a060020a03909216600160a060020a0319928316811790915560128054909216179055565b611e888062000afd6000396000f3006080604052600436106101695763ffffffff7c010000000000000000000000000000000000000000000000000000000060003504166306fd7088811461016e578063078753ad1461019157806307a8385e146101c25780631d0138ff146101e35780633c19df06146101f85780633e36144f1461033a5780634ef033f01461035b57806353d6fd59146103705780635cfaf2ef146103965780635f7b99ea146103b757806385cb86c8146103cc57806389a83246146103e15780638c924361146104025780638f6292221461042357806395f04f27146104385780639b19251a1461044d578063a9b6b38e14610482578063b3a1863214610497578063b527c44e146105e0578063b606bd0014610616578063bb04e60814610661578063bc40620614610679578063c7061f971461068e578063cd5facb2146106af578063d6830af3146106d0578063e7c50185146106f1578063e914027414610706578063f2fde38b14610857575b600080fd5b34801561017a57600080fd5b5061018f600160a060020a0360043516610878565b005b34801561019d57600080fd5b506101a6610962565b60408051600160a060020a039092168252519081900360200190f35b3480156101ce57600080fd5b5061018f600160a060020a0360043516610971565b3480156101ef57600080fd5b506101a6610a5b565b34801561020457600080fd5b50604080516020601f60843560048181013592830184900484028501840190955281845261018f94803594602480359577ffffffffffffffffffffffffffffffffffffffffffffffff1960443516956064359536959460a494909391019190819084018382808284375050604080516020601f89358b018035918201839004830284018301909452808352979a99988101979196509182019450925082915084018382808284375050604080516020601f89358b018035918201839004830284018301909452808352979a99988101979196509182019450925082915084018382808284375050604080516020601f89358b018035918201839004830284018301909452808352979a9998810197919650918201945092508291508401838280828437509497505093359450610a6a9350505050565b34801561034657600080fd5b5061018f600160a060020a0360043516610ab0565b34801561036757600080fd5b506101a6610b9a565b34801561037c57600080fd5b5061018f600160a060020a03600435166024351515610ba9565b3480156103a257600080fd5b5061018f600160a060020a0360043516610c92565b3480156103c357600080fd5b506101a6610d7c565b3480156103d857600080fd5b506101a6610d8b565b3480156103ed57600080fd5b5061018f600160a060020a0360043516610d9a565b34801561040e57600080fd5b5061018f600160a060020a0360043516610e84565b34801561042f57600080fd5b506101a6610f6e565b34801561044457600080fd5b506101a6610f7d565b34801561045957600080fd5b5061046e600160a060020a0360043516610f8c565b604080519115158252519081900360200190f35b34801561048e57600080fd5b506101a6610fa1565b3480156104a357600080fd5b50604080516020601f60843560048181013592830184900484028501840190955281845261018f94803594602480359577ffffffffffffffffffffffffffffffffffffffffffffffff1960443516956064359536959460a494909391019190819084018382808284375050604080516020601f89358b018035918201839004830284018301909452808352979a99988101979196509182019450925082915084018382808284375050604080516020601f89358b018035918201839004830284018301909452808352979a99988101979196509182019450925082915084018382808284375050604080516020601f89358b018035918201839004830284018301909452808352979a999881019791965091820194509250829150840183828082843750949750508435955050506020909201359150610fb09050565b3480156105ec57600080fd5b506105f8600435610fef565b60408051938452602084019290925282820152519081900360600190f35b34801561062257600080fd5b5061062e6004356110ae565b604080519687526020870195909552858501939093526060850191909152608084015260a0830152519081900360c00190f35b34801561066d57600080fd5b506105f86004356110f1565b34801561068557600080fd5b506101a66111a2565b34801561069a57600080fd5b5061018f600160a060020a03600435166111b1565b3480156106bb57600080fd5b5061018f600160a060020a036004351661129b565b3480156106dc57600080fd5b5061018f600160a060020a0360043516611385565b3480156106fd57600080fd5b506101a66114fa565b34801561071257600080fd5b50604080516020601f60843560048181013592830184900484028501840190955281845261018f94803594602480359577ffffffffffffffffffffffffffffffffffffffffffffffff1960443516956064359536959460a494909391019190819084018382808284375050604080516020601f89358b018035918201839004830284018301909452808352979a99988101979196509182019450925082915084018382808284375050604080516020601f89358b018035918201839004830284018301909452808352979a99988101979196509182019450925082915084018382808284375050604080516020601f89358b018035918201839004830284018301909452808352979a9998810197919650918201945092508291508401838280828437509497505084359550505050602090910135600160a060020a03169050611509565b34801561086357600080fd5b5061018f600160a060020a0360043516611530565b6000546001546040805160e260020a633d9abf2b028152336004820152600160a060020a0393841660248201529290911660448301525173__AOLibrary_____________________________9163f66afcac916064808301926020929190829003018186803b1580156108ea57600080fd5b505af41580156108fe573d6000803e3d6000fd5b505050506040513d602081101561091457600080fd5b5051151561092157600080fd5b600160a060020a038116151561093657600080fd5b60048054600160a060020a03909216600160a060020a03199283168117909155600b8054909216179055565b600754600160a060020a031681565b6000546001546040805160e260020a633d9abf2b028152336004820152600160a060020a0393841660248201529290911660448301525173__AOLibrary_____________________________9163f66afcac916064808301926020929190829003018186803b1580156109e357600080fd5b505af41580156109f7573d6000803e3d6000fd5b505050506040513d6020811015610a0d57600080fd5b50511515610a1a57600080fd5b600160a060020a0381161515610a2f57600080fd5b60058054600160a060020a03909216600160a060020a03199283168117909155600c8054909216179055565b600454600160a060020a031681565b610a9a33610a9233610a87338a87610a80611610565b600061175f565b8d8d8d8d6000611933565b868686611ac4565b1515610aa557600080fd5b505050505050505050565b6000546001546040805160e260020a633d9abf2b028152336004820152600160a060020a0393841660248201529290911660448301525173__AOLibrary_____________________________9163f66afcac916064808301926020929190829003018186803b158015610b2257600080fd5b505af4158015610b36573d6000803e3d6000fd5b505050506040513d6020811015610b4c57600080fd5b50511515610b5957600080fd5b600160a060020a0381161515610b6e57600080fd5b60078054600160a060020a03909216600160a060020a03199283168117909155600e8054909216179055565b600154600160a060020a031681565b6000546001546040805160e260020a633d9abf2b028152336004820152600160a060020a0393841660248201529290911660448301525173__AOLibrary_____________________________9163f66afcac916064808301926020929190829003018186803b158015610c1b57600080fd5b505af4158015610c2f573d6000803e3d6000fd5b505050506040513d6020811015610c4557600080fd5b50511515610c5257600080fd5b600160a060020a0382161515610c6757600080fd5b600160a060020a03919091166000908152600260205260409020805460ff1916911515919091179055565b6000546001546040805160e260020a633d9abf2b028152336004820152600160a060020a0393841660248201529290911660448301525173__AOLibrary_____________________________9163f66afcac916064808301926020929190829003018186803b158015610d0457600080fd5b505af4158015610d18573d6000803e3d6000fd5b505050506040513d6020811015610d2e57600080fd5b50511515610d3b57600080fd5b600160a060020a0381161515610d5057600080fd5b60018054600160a060020a03909216600160a060020a0319928316811790915560128054909216179055565b600554600160a060020a031681565b600654600160a060020a031681565b6000546001546040805160e260020a633d9abf2b028152336004820152600160a060020a0393841660248201529290911660448301525173__AOLibrary_____________________________9163f66afcac916064808301926020929190829003018186803b158015610e0c57600080fd5b505af4158015610e20573d6000803e3d6000fd5b505050506040513d6020811015610e3657600080fd5b50511515610e4357600080fd5b600160a060020a0381161515610e5857600080fd5b60068054600160a060020a03909216600160a060020a03199283168117909155600d8054909216179055565b6000546001546040805160e260020a633d9abf2b028152336004820152600160a060020a0393841660248201529290911660448301525173__AOLibrary_____________________________9163f66afcac916064808301926020929190829003018186803b158015610ef657600080fd5b505af4158015610f0a573d6000803e3d6000fd5b505050506040513d6020811015610f2057600080fd5b50511515610f2d57600080fd5b600160a060020a0381161515610f4257600080fd5b600a8054600160a060020a03909216600160a060020a0319928316811790915560118054909216179055565b600954600160a060020a031681565b600854600160a060020a031681565b60026020526000908152604090205460ff1681565b600054600160a060020a031681565b610fd833610fd033610fc6338b88610a80611d1e565b8e8e8e8e89611933565b878787611ac4565b1515610fe357600080fd5b50505050505050505050565b600e54604080517f2dff0d0d00000000000000000000000000000000000000000000000000000000815260048101849052905160009283928392839283928392600160a060020a0390921691632dff0d0d916024808201926101009290919082900301818787803b15801561106357600080fd5b505af1158015611077573d6000803e3d6000fd5b505050506040513d61010081101561108e57600080fd5b506040810151606082015160809092015190999198509650945050505050565b6000806000806000806000806000806000806110c98d610fef565b9550955095506110d88d6110f1565b979f969e50949c509a5092985093965091945050505050565b601054604080517f41fddf9d00000000000000000000000000000000000000000000000000000000815260048101849052905160009283928392600160a060020a03909216916341fddf9d9160248082019260609290919082900301818787803b15801561115e57600080fd5b505af1158015611172573d6000803e3d6000fd5b505050506040513d606081101561118857600080fd5b508051602082015160409092015190969195509350915050565b600a54600160a060020a031681565b6000546001546040805160e260020a633d9abf2b028152336004820152600160a060020a0393841660248201529290911660448301525173__AOLibrary_____________________________9163f66afcac916064808301926020929190829003018186803b15801561122357600080fd5b505af4158015611237573d6000803e3d6000fd5b505050506040513d602081101561124d57600080fd5b5051151561125a57600080fd5b600160a060020a038116151561126f57600080fd5b60098054600160a060020a03909216600160a060020a0319928316811790915560108054909216179055565b6000546001546040805160e260020a633d9abf2b028152336004820152600160a060020a0393841660248201529290911660448301525173__AOLibrary_____________________________9163f66afcac916064808301926020929190829003018186803b15801561130d57600080fd5b505af4158015611321573d6000803e3d6000fd5b505050506040513d602081101561133757600080fd5b5051151561134457600080fd5b600160a060020a038116151561135957600080fd5b60088054600160a060020a03909216600160a060020a03199283168117909155600f8054909216179055565b6000546001546040805160e260020a633d9abf2b028152336004820152600160a060020a0393841660248201529290911660448301525173__AOLibrary_____________________________9163f66afcac916064808301926020929190829003018186803b1580156113f757600080fd5b505af415801561140b573d6000803e3d6000fd5b505050506040513d602081101561142157600080fd5b5051151561142e57600080fd5b604080517f2fca5414000000000000000000000000000000000000000000000000000000008152600160a060020a0383166004820152905173__AOLibrary_____________________________91632fca5414916024808301926020929190829003018186803b1580156114a157600080fd5b505af41580156114b5573d6000803e3d6000fd5b505050506040513d60208110156114cb57600080fd5b505115156114d857600080fd5b60038054600160a060020a031916600160a060020a0392909216919091179055565b600354600160a060020a031681565b610fd833610fd033611525338b8861151f611dbd565b8961175f565b8e8e8e8e6000611933565b6000546001546040805160e260020a633d9abf2b028152336004820152600160a060020a0393841660248201529290911660448301525173__AOLibrary_____________________________9163f66afcac916064808301926020929190829003018186803b1580156115a257600080fd5b505af41580156115b6573d6000803e3d6000fd5b505050506040513d60208110156115cc57600080fd5b505115156115d957600080fd5b600160a060020a03811615156115ee57600080fd5b60008054600160a060020a031916600160a060020a0392909216919091179055565b600b54600354604080517f7065bedc000000000000000000000000000000000000000000000000000000008152600160a060020a03928316600482015260248101829052602060448201527f636f6e74656e745573616765547970655f6372656174697665436f6d6d6f6e736064820152905160009384931691637065bedc916084808301928692919082900301818387803b1580156116af57600080fd5b505af11580156116c3573d6000803e3d6000fd5b505050506040513d6000823e601f3d908101601f1916820160405260a08110156116ec57600080fd5b81516020830151604084015160608501516080860180519496939592949193928301929164010000000081111561172257600080fd5b8201602081018481111561173557600080fd5b815164010000000081118282018710171561174f57600080fd5b50949a9950505050505050505050565b601154604080517f029b7d53000000000000000000000000000000000000000000000000000000008152600160a060020a03888116600483015291516000938493169163029b7d5391602480830192602092919082900301818787803b1580156117c857600080fd5b505af11580156117dc573d6000803e3d6000fd5b505050506040513d60208110156117f257600080fd5b50519050600160a060020a038116151561180b57600080fd5b600d546040517fd0d9ca52000000000000000000000000000000000000000000000000000000008152600160a060020a03838116600483019081526044830189905260648301889052868216608484015260a0602484019081528a5160a48501528a51929094169363d0d9ca529386938c938c938c938c9360c490910190602088019080838360005b838110156118ac578181015183820152602001611894565b50505050905090810190601f1680156118d95780820380516001836020036101000a031916815260200191505b509650505050505050602060405180830381600087803b1580156118fc57600080fd5b505af1158015611910573d6000803e3d6000fd5b505050506040513d602081101561192657600080fd5b5051979650505050505050565b601154604080517f029b7d53000000000000000000000000000000000000000000000000000000008152600160a060020a038a8116600483015291516000938493169163029b7d5391602480830192602092919082900301818787803b15801561199c57600080fd5b505af11580156119b0573d6000803e3d6000fd5b505050506040513d60208110156119c657600080fd5b50519050600160a060020a03811615156119df57600080fd5b600e54604080517f9789f617000000000000000000000000000000000000000000000000000000008152600160a060020a038481166004830152602482018c9052604482018b9052606482018a905277ffffffffffffffffffffffffffffffffffffffffffffffff198916608483015260a4820188905260c4820187905291519190921691639789f6179160e48083019260209291908290030181600087803b158015611a8b57600080fd5b505af1158015611a9f573d6000803e3d6000fd5b505050506040513d6020811015611ab557600080fd5b50519998505050505050505050565b601154604080517f029b7d53000000000000000000000000000000000000000000000000000000008152600160a060020a03888116600483015291516000938493169163029b7d5391602480830192602092919082900301818787803b158015611b2d57600080fd5b505af1158015611b41573d6000803e3d6000fd5b505050506040513d6020811015611b5757600080fd5b50519050600160a060020a0381161515611b7057600080fd5b600f546040517f0da8097d000000000000000000000000000000000000000000000000000000008152600160a060020a0383811660048301908152602483018a905260a060448401908152895160a485015289519290941693630da8097d9386938c938c938c938c936064820191608481019160c490910190602089019080838360005b83811015611c0c578181015183820152602001611bf4565b50505050905090810190601f168015611c395780820380516001836020036101000a031916815260200191505b50848103835286518152865160209182019188019080838360005b83811015611c6c578181015183820152602001611c54565b50505050905090810190601f168015611c995780820380516001836020036101000a031916815260200191505b50848103825285518152855160209182019187019080838360005b83811015611ccc578181015183820152602001611cb4565b50505050905090810190601f168015611cf95780820380516001836020036101000a031916815260200191505b5098505050505050505050602060405180830381600087803b1580156118fc57600080fd5b600b54600354604080517f7065bedc000000000000000000000000000000000000000000000000000000008152600160a060020a03928316600482015260248101829052601a60448201527f636f6e74656e745573616765547970655f616f436f6e74656e740000000000006064820152905160009384931691637065bedc916084808301928692919082900301818387803b1580156116af57600080fd5b600b54600354604080517f7065bedc000000000000000000000000000000000000000000000000000000008152600160a060020a03928316600482015260248101829052601b60448201527f636f6e74656e745573616765547970655f74616f436f6e74656e7400000000006064820152905160009384931691637065bedc916084808301928692919082900301818387803b1580156116af57600080fd00a165627a7a7230582012c0561111da395456966a47817c449ed3ea8be617fc4660bded3ee525fd4e040029",
	"source": "pragma solidity ^0.4.24;\n\nimport './SafeMath.sol';\nimport './AOLibrary.sol';\nimport './TheAO.sol';\nimport './IAOSetting.sol';\nimport './IAOTreasury.sol';\nimport './IAOContent.sol';\nimport './IAOStakedContent.sol';\nimport './IAOContentHost.sol';\nimport './IAOEarning.sol';\nimport './INameFactory.sol';\nimport './INameTAOPosition.sol';\n\n/**\n * @title AOContentFactory\n *\n * The purpose of this contract is to allow content creator to stake network AO ions and/or primordial AO+ ions\n * on his/her content\n */\ncontract AOContentFactory is TheAO {\n\tusing SafeMath for uint256;\n\n\taddress public settingTAOId;\n\taddress public aoSettingAddress;\n\taddress public aoTreasuryAddress;\n\taddress public aoContentAddress;\n\taddress public aoStakedContentAddress;\n\taddress public aoContentHostAddress;\n\taddress public aoEarningAddress;\n\taddress public nameFactoryAddress;\n\n\tIAOSetting internal _aoSetting;\n\tIAOTreasury internal _aoTreasury;\n\tIAOContent internal _aoContent;\n\tIAOStakedContent internal _aoStakedContent;\n\tIAOContentHost internal _aoContentHost;\n\tIAOEarning internal _aoEarning;\n\tINameFactory internal _nameFactory;\n\tINameTAOPosition internal _nameTAOPosition;\n\n\t/**\n\t * @dev Constructor function\n\t * @param _settingTAOId The TAO ID that controls the setting\n\t * @param _aoSettingAddress The address of AOSetting\n\t * @param _aoTreasuryAddress The address of AOTreasury\n\t * @param _aoContentAddress The address of AOContent\n\t * @param _aoStakedContentAddress The address of AOStakedContent\n\t * @param _aoContentHostAddress The address of AOContentHost\n\t * @param _aoEarningAddress The address of AOEarning\n\t * @param _nameFactoryAddress The address of NameFactory\n\t * @param _nameTAOPositionAddress The address of NameTAOPosition\n\t */\n\tconstructor(address _settingTAOId,\n\t\taddress _aoSettingAddress,\n\t\taddress _aoTreasuryAddress,\n\t\taddress _aoContentAddress,\n\t\taddress _aoStakedContentAddress,\n\t\taddress _aoContentHostAddress,\n\t\taddress _aoEarningAddress,\n\t\taddress _nameFactoryAddress,\n\t\taddress _nameTAOPositionAddress\n\t\t) public {\n\t\tsetSettingTAOId(_settingTAOId);\n\t\tsetAOSettingAddress(_aoSettingAddress);\n\t\tsetAOTreasuryAddress(_aoTreasuryAddress);\n\t\tsetAOContentAddress(_aoContentAddress);\n\t\tsetAOStakedContentAddress(_aoStakedContentAddress);\n\t\tsetAOContentHostAddress(_aoContentHostAddress);\n\t\tsetAOEarningAddress(_aoEarningAddress);\n\t\tsetNameFactoryAddress(_nameFactoryAddress);\n\t\tsetNameTAOPositionAddress(_nameTAOPositionAddress);\n\t}\n\n\t/**\n\t * @dev Checks if the calling contract address is The AO\n\t *\t\tOR\n\t *\t\tIf The AO is set to a Name/TAO, then check if calling address is the Advocate\n\t */\n\tmodifier onlyTheAO {\n\t\trequire (AOLibrary.isTheAO(msg.sender, theAO, nameTAOPositionAddress));\n\t\t_;\n\t}\n\n\t/***** The AO ONLY METHODS *****/\n\t/**\n\t * @dev Transfer ownership of The AO to new address\n\t * @param _theAO The new address to be transferred\n\t */\n\tfunction transferOwnership(address _theAO) public onlyTheAO {\n\t\trequire (_theAO != address(0));\n\t\ttheAO = _theAO;\n\t}\n\n\t/**\n\t * @dev Whitelist `_account` address to transact on behalf of others\n\t * @param _account The address to whitelist\n\t * @param _whitelist Either to whitelist or not\n\t */\n\tfunction setWhitelist(address _account, bool _whitelist) public onlyTheAO {\n\t\trequire (_account != address(0));\n\t\twhitelist[_account] = _whitelist;\n\t}\n\n\t/**\n\t * @dev The AO sets setting TAO ID\n\t * @param _settingTAOId The new setting TAO ID to set\n\t */\n\tfunction setSettingTAOId(address _settingTAOId) public onlyTheAO {\n\t\trequire (AOLibrary.isTAO(_settingTAOId));\n\t\tsettingTAOId = _settingTAOId;\n\t}\n\n\t/**\n\t * @dev The AO sets AO Setting address\n\t * @param _aoSettingAddress The address of AOSetting\n\t */\n\tfunction setAOSettingAddress(address _aoSettingAddress) public onlyTheAO {\n\t\trequire (_aoSettingAddress != address(0));\n\t\taoSettingAddress = _aoSettingAddress;\n\t\t_aoSetting = IAOSetting(_aoSettingAddress);\n\t}\n\n\t/**\n\t * @dev The AO sets AO Treasury address\n\t * @param _aoTreasuryAddress The address of AOTreasury\n\t */\n\tfunction setAOTreasuryAddress(address _aoTreasuryAddress) public onlyTheAO {\n\t\trequire (_aoTreasuryAddress != address(0));\n\t\taoTreasuryAddress = _aoTreasuryAddress;\n\t\t_aoTreasury = IAOTreasury(_aoTreasuryAddress);\n\t}\n\n\t/**\n\t * @dev The AO sets AOContent address\n\t * @param _aoContentAddress The address of AOContent\n\t */\n\tfunction setAOContentAddress(address _aoContentAddress) public onlyTheAO {\n\t\trequire (_aoContentAddress != address(0));\n\t\taoContentAddress = _aoContentAddress;\n\t\t_aoContent = IAOContent(_aoContentAddress);\n\t}\n\n\t/**\n\t * @dev The AO sets AOStakedContent address\n\t * @param _aoStakedContentAddress The address of AOStakedContent\n\t */\n\tfunction setAOStakedContentAddress(address _aoStakedContentAddress) public onlyTheAO {\n\t\trequire (_aoStakedContentAddress != address(0));\n\t\taoStakedContentAddress = _aoStakedContentAddress;\n\t\t_aoStakedContent = IAOStakedContent(_aoStakedContentAddress);\n\t}\n\n\t/**\n\t * @dev The AO sets AOContentHost address\n\t * @param _aoContentHostAddress The address of AOContentHost\n\t */\n\tfunction setAOContentHostAddress(address _aoContentHostAddress) public onlyTheAO {\n\t\trequire (_aoContentHostAddress != address(0));\n\t\taoContentHostAddress = _aoContentHostAddress;\n\t\t_aoContentHost = IAOContentHost(_aoContentHostAddress);\n\t}\n\n\t/**\n\t * @dev The AO sets AOEarning address\n\t * @param _aoEarningAddress The address of AOEarning\n\t */\n\tfunction setAOEarningAddress(address _aoEarningAddress) public onlyTheAO {\n\t\trequire (_aoEarningAddress != address(0));\n\t\taoEarningAddress = _aoEarningAddress;\n\t\t_aoEarning = IAOEarning(_aoEarningAddress);\n\t}\n\n\t/**\n\t * @dev The AO sets NameFactory address\n\t * @param _nameFactoryAddress The address of NameFactory\n\t */\n\tfunction setNameFactoryAddress(address _nameFactoryAddress) public onlyTheAO {\n\t\trequire (_nameFactoryAddress != address(0));\n\t\tnameFactoryAddress = _nameFactoryAddress;\n\t\t_nameFactory = INameFactory(_nameFactoryAddress);\n\t}\n\n\t/**\n\t * @dev The AO sets NameTAOPosition address\n\t * @param _nameTAOPositionAddress The address of NameTAOPosition\n\t */\n\tfunction setNameTAOPositionAddress(address _nameTAOPositionAddress) public onlyTheAO {\n\t\trequire (_nameTAOPositionAddress != address(0));\n\t\tnameTAOPositionAddress = _nameTAOPositionAddress;\n\t\t_nameTAOPosition = INameTAOPosition(_nameTAOPositionAddress);\n\t}\n\n\t/***** PUBLIC METHODS *****/\n\t/**\n\t * @dev Stake `_networkIntegerAmount` + `_networkFractionAmount` of network ion in `_denomination` and/or `_primordialAmount` primordial ion for an AO Content\n\t * @param _networkIntegerAmount The integer amount of network ion to stake\n\t * @param _networkFractionAmount The fraction amount of network ion to stake\n\t * @param _denomination The denomination of the network ion, i.e ao, kilo, mega, etc.\n\t * @param _primordialAmount The amount of primordial ion to stake\n\t * @param _baseChallenge The base challenge string (PUBLIC KEY) of the content\n\t * @param _encChallenge The encrypted challenge string (PUBLIC KEY) of the content unique to the host\n\t * @param _contentDatKey The dat key of the content\n\t * @param _metadataDatKey The dat key of the content's metadata\n\t * @param _fileSize The size of the file\n\t * @param _profitPercentage The percentage of profit the stake owner's media will charge\n\t */\n\tfunction stakeAOContent(\n\t\tuint256 _networkIntegerAmount,\n\t\tuint256 _networkFractionAmount,\n\t\tbytes8 _denomination,\n\t\tuint256 _primordialAmount,\n\t\tstring _baseChallenge,\n\t\tstring _encChallenge,\n\t\tstring _contentDatKey,\n\t\tstring _metadataDatKey,\n\t\tuint256 _fileSize,\n\t\tuint256 _profitPercentage\n\t\t) public {\n\t\t/**\n\t\t * 1. Store this content\n\t\t * 2. Stake the network/primordial ion on content\n\t\t * 3. Add the node info that hosts this content (in this case the creator himself)\n\t\t */\n\t\trequire (\n\t\t\t_hostContent(\n\t\t\t\tmsg.sender,\n\t\t\t\t_stakeContent(\n\t\t\t\t\tmsg.sender,\n\t\t\t\t\t_storeContent(\n\t\t\t\t\t\tmsg.sender,\n\t\t\t\t\t\t_baseChallenge,\n\t\t\t\t\t\t_fileSize,\n\t\t\t\t\t\t_contentUsageType_aoContent(),\n\t\t\t\t\t\taddress(0)\n\t\t\t\t\t),\n\t\t\t\t\t_networkIntegerAmount,\n\t\t\t\t\t_networkFractionAmount,\n\t\t\t\t\t_denomination,\n\t\t\t\t\t_primordialAmount,\n\t\t\t\t\t_profitPercentage\n\t\t\t\t),\n\t\t\t\t_encChallenge,\n\t\t\t\t_contentDatKey,\n\t\t\t\t_metadataDatKey\n\t\t\t)\n\t\t);\n\t}\n\n\t/**\n\t * @dev Stake `_networkIntegerAmount` + `_networkFractionAmount` of network ion in `_denomination` and/or `_primordialAmount` primordial ion for a Creative Commons Content\n\t * @param _networkIntegerAmount The integer amount of network on to stake\n\t * @param _networkFractionAmount The fraction amount of network ion to stake\n\t * @param _denomination The denomination of the network ion, i.e ao, kilo, mega, etc.\n\t * @param _primordialAmount The amount of primordial ion to stake\n\t * @param _baseChallenge The base challenge string (PUBLIC KEY) of the content\n\t * @param _encChallenge The encrypted challenge string (PUBLIC KEY) of the content unique to the host\n\t * @param _contentDatKey The dat key of the content\n\t * @param _metadataDatKey The dat key of the content's metadata\n\t * @param _fileSize The size of the file\n\t */\n\tfunction stakeCreativeCommonsContent(\n\t\tuint256 _networkIntegerAmount,\n\t\tuint256 _networkFractionAmount,\n\t\tbytes8 _denomination,\n\t\tuint256 _primordialAmount,\n\t\tstring _baseChallenge,\n\t\tstring _encChallenge,\n\t\tstring _contentDatKey,\n\t\tstring _metadataDatKey,\n\t\tuint256 _fileSize\n\t\t) public {\n\t\t/**\n\t\t * 1. Store this content\n\t\t * 2. Stake the network/primordial ion on content\n\t\t * 3. Add the node info that hosts this content (in this case the creator himself)\n\t\t */\n\t\trequire (\n\t\t\t_hostContent(\n\t\t\t\tmsg.sender,\n\t\t\t\t_stakeContent(\n\t\t\t\t\tmsg.sender,\n\t\t\t\t\t_storeContent(\n\t\t\t\t\t\tmsg.sender,\n\t\t\t\t\t\t_baseChallenge,\n\t\t\t\t\t\t_fileSize,\n\t\t\t\t\t\t_contentUsageType_creativeCommons(),\n\t\t\t\t\t\taddress(0)\n\t\t\t\t\t),\n\t\t\t\t\t_networkIntegerAmount,\n\t\t\t\t\t_networkFractionAmount,\n\t\t\t\t\t_denomination,\n\t\t\t\t\t_primordialAmount,\n\t\t\t\t\t0\n\t\t\t\t),\n\t\t\t\t_encChallenge,\n\t\t\t\t_contentDatKey,\n\t\t\t\t_metadataDatKey\n\t\t\t)\n\t\t);\n\t}\n\n\t/**\n\t * @dev Stake `_networkIntegerAmount` + `_networkFractionAmount` of network ion in `_denomination` and/or `_primordialAmount` primordial ion for a T(AO) Content\n\t * @param _networkIntegerAmount The integer amount of network ion to stake\n\t * @param _networkFractionAmount The fraction amount of network ion to stake\n\t * @param _denomination The denomination of the network ion, i.e ao, kilo, mega, etc.\n\t * @param _primordialAmount The amount of primordial ion to stake\n\t * @param _baseChallenge The base challenge string (PUBLIC KEY) of the content\n\t * @param _encChallenge The encrypted challenge string (PUBLIC KEY) of the content unique to the host\n\t * @param _contentDatKey The dat key of the content\n\t * @param _metadataDatKey The dat key of the content's metadata\n\t * @param _fileSize The size of the file\n\t * @param _taoId The TAO (TAO) ID for this content (if this is a T(AO) Content)\n\t */\n\tfunction stakeTAOContent(\n\t\tuint256 _networkIntegerAmount,\n\t\tuint256 _networkFractionAmount,\n\t\tbytes8 _denomination,\n\t\tuint256 _primordialAmount,\n\t\tstring _baseChallenge,\n\t\tstring _encChallenge,\n\t\tstring _contentDatKey,\n\t\tstring _metadataDatKey,\n\t\tuint256 _fileSize,\n\t\taddress _taoId\n\t\t) public {\n\t\t/**\n\t\t * 1. Store this content\n\t\t * 2. Stake the network/primordial ion on content\n\t\t * 3. Add the node info that hosts this content (in this case the creator himself)\n\t\t */\n\t\trequire (\n\t\t\t_hostContent(\n\t\t\t\tmsg.sender,\n\t\t\t\t_stakeContent(\n\t\t\t\t\tmsg.sender,\n\t\t\t\t\t_storeContent(\n\t\t\t\t\t\tmsg.sender,\n\t\t\t\t\t\t_baseChallenge,\n\t\t\t\t\t\t_fileSize,\n\t\t\t\t\t\t_contentUsageType_taoContent(),\n\t\t\t\t\t\t_taoId\n\t\t\t\t\t),\n\t\t\t\t\t_networkIntegerAmount,\n\t\t\t\t\t_networkFractionAmount,\n\t\t\t\t\t_denomination,\n\t\t\t\t\t_primordialAmount,\n\t\t\t\t\t0\n\t\t\t\t),\n\t\t\t\t_encChallenge,\n\t\t\t\t_contentDatKey,\n\t\t\t\t_metadataDatKey\n\t\t\t)\n\t\t);\n\t}\n\n\t/**\n\t * @dev Return the staking information of a StakedContent ID\n\t * @param _stakedContentId The ID of the staked content\n\t * @return the network base ion amount staked for this content\n\t * @return the primordial ion amount staked for this content\n\t * @return the primordial weighted multiplier of the staked content\n\t */\n\tfunction getStakingMetrics(bytes32 _stakedContentId) public view returns (uint256, uint256, uint256) {\n\t\t(,, uint256 networkAmount, uint256 primordialAmount, uint256 primordialWeightedMultiplier,,,) = _aoStakedContent.getById(_stakedContentId);\n\t\treturn (\n\t\t\tnetworkAmount,\n\t\t\tprimordialAmount,\n\t\t\tprimordialWeightedMultiplier\n\t\t);\n\t}\n\n\t/**\n\t * @dev Return the earning information of a StakedContent ID\n\t * @param _stakedContentId The ID of the staked content\n\t * @return the total earning from staking this content\n\t * @return the total earning from hosting this content\n\t * @return the total The AO earning of this content\n\t */\n\tfunction getEarningMetrics(bytes32 _stakedContentId) public view returns (uint256, uint256, uint256) {\n\t\treturn _aoEarning.getTotalStakedContentEarning(_stakedContentId);\n\t}\n\n\t/**\n\t * @dev Return the staking and earning information of a StakedContent ID\n\t * @param _stakedContentId The ID of the staked content\n\t * @return the network base ion amount staked for this content\n\t * @return the primordial ion amount staked for this content\n\t * @return the primordial weighted multiplier of the staked content\n\t * @return the total earning from staking this content\n\t * @return the total earning from hosting this content\n\t * @return the total The AO earning of this content\n\t */\n\tfunction getContentMetrics(bytes32 _stakedContentId) public view returns (uint256, uint256, uint256, uint256, uint256, uint256) {\n\t\t(uint256 networkAmount, uint256 primordialAmount, uint256 primordialWeightedMultiplier) = getStakingMetrics(_stakedContentId);\n\t\t(uint256 totalStakeEarning, uint256 totalHostEarning, uint256 totalTheAOEarning) = getEarningMetrics(_stakedContentId);\n\t\treturn (\n\t\t\tnetworkAmount,\n\t\t\tprimordialAmount,\n\t\t\tprimordialWeightedMultiplier,\n\t\t\ttotalStakeEarning,\n\t\t\ttotalHostEarning,\n\t\t\ttotalTheAOEarning\n\t\t);\n\t}\n\n\t/***** INTERNAL METHODS *****/\n\t/**\n\t * @dev Get Content Usage Type = AO Content setting\n\t * @return contentUsageType_aoContent Content Usage Type = AO Content\n\t */\n\tfunction _contentUsageType_aoContent() internal view returns (bytes32) {\n\t\t(,,,bytes32 contentUsageType_aoContent,) = _aoSetting.getSettingValuesByTAOName(settingTAOId, 'contentUsageType_aoContent');\n\t\treturn contentUsageType_aoContent;\n\t}\n\n\t/**\n\t * @dev Get Content Usage Type = Creative Commons setting\n\t * @return contentUsageType_creativeCommons Content Usage Type = Creative Commons\n\t */\n\tfunction _contentUsageType_creativeCommons() internal view returns (bytes32) {\n\t\t(,,,bytes32 contentUsageType_creativeCommons,) = _aoSetting.getSettingValuesByTAOName(settingTAOId, 'contentUsageType_creativeCommons');\n\t\treturn contentUsageType_creativeCommons;\n\t}\n\n\t/**\n\t * @dev Get Content Usage Type = TAO Content setting\n\t * @return contentUsageType_taoContent Content Usage Type = T(AO) Content\n\t */\n\tfunction _contentUsageType_taoContent() internal view returns (bytes32) {\n\t\t(,,,bytes32 contentUsageType_taoContent,) = _aoSetting.getSettingValuesByTAOName(settingTAOId, 'contentUsageType_taoContent');\n\t\treturn contentUsageType_taoContent;\n\t}\n\n\t/**\n\t * @dev Store the content information (content creation during staking)\n\t * @param _creator the address of the content creator\n\t * @param _baseChallenge The base challenge string (PUBLIC KEY) of the content\n\t * @param _fileSize The size of the file\n\t * @param _contentUsageType The content usage type, i.e AO Content, Creative Commons, or T(AO) Content\n\t * @param _taoId The TAO (TAO) ID for this content (if this is a T(AO) Content)\n\t * @return the ID of the content\n\t */\n\tfunction _storeContent(address _creator,\n\t\tstring _baseChallenge,\n\t\tuint256 _fileSize,\n\t\tbytes32 _contentUsageType,\n\t\taddress _taoId\n\t\t) internal returns (bytes32) {\n\t\taddress _creatorNameId = _nameFactory.ethAddressToNameId(_creator);\n\t\trequire (_creatorNameId != address(0));\n\t\treturn _aoContent.create(_creatorNameId, _baseChallenge, _fileSize, _contentUsageType, _taoId);\n\t}\n\n\t/**\n\t * @dev Actual staking the content\n\t * @param _stakeOwner the address that stake the content\n\t * @param _contentId The ID of the content\n\t * @param _networkIntegerAmount The integer amount of network ion to stake\n\t * @param _networkFractionAmount The fraction amount of network ion to stake\n\t * @param _denomination The denomination of the network ion, i.e ao, kilo, mega, etc.\n\t * @param _primordialAmount The amount of primordial ion to stake\n\t * @param _profitPercentage The percentage of profit the stake owner's media will charge\n\t * @return the newly created staked content ID\n\t */\n\tfunction _stakeContent(address _stakeOwner,\n\t\tbytes32 _contentId,\n\t\tuint256 _networkIntegerAmount,\n\t\tuint256 _networkFractionAmount,\n\t\tbytes8 _denomination,\n\t\tuint256 _primordialAmount,\n\t\tuint256 _profitPercentage\n\t\t) internal returns (bytes32) {\n\t\taddress _stakeOwnerNameId = _nameFactory.ethAddressToNameId(_stakeOwner);\n\t\trequire (_stakeOwnerNameId != address(0));\n\t\treturn _aoStakedContent.create(_stakeOwnerNameId, _contentId, _networkIntegerAmount, _networkFractionAmount, _denomination, _primordialAmount, _profitPercentage);\n\t}\n\n\t/**\n\t * @dev Add the distribution node info that hosts the content\n\t * @param _host the address of the host\n\t * @param _stakedContentId The ID of the staked content\n\t * @param _encChallenge The encrypted challenge string (PUBLIC KEY) of the content unique to the host\n\t * @param _contentDatKey The dat key of the content\n\t * @param _metadataDatKey The dat key of the content's metadata\n\t * @return true on success\n\t */\n\tfunction _hostContent(address _host, bytes32 _stakedContentId, string _encChallenge, string _contentDatKey, string _metadataDatKey) internal returns (bool) {\n\t\taddress _hostNameId = _nameFactory.ethAddressToNameId(_host);\n\t\trequire (_hostNameId != address(0));\n\t\treturn _aoContentHost.create(_hostNameId, _stakedContentId, _encChallenge, _contentDatKey, _metadataDatKey);\n\t}\n}\n",
	"sourcePath": "/Users/johanmulyono/Work/AO/ao-contracts/contracts/AOContentFactory.sol",
	"compiler": {
		"name": "solc",
		"version": "0.4.24+commit.e67f0147.Emscripten.clang"
	},
	"schemaVersion": "2.0.1",
	"updatedAt": "2019-04-04T04:29:47.645Z"
}