{
	"contractName": "AOContentHost",
	"abi": [
		{
			"constant": true,
			"inputs": [],
			"name": "aoStakedContentAddress",
			"outputs": [
				{
					"name": "",
					"type": "address"
				}
			],
			"payable": false,
			"stateMutability": "view",
			"type": "function"
		},
		{
			"constant": true,
			"inputs": [],
			"name": "nameTAOPositionAddress",
			"outputs": [
				{
					"name": "",
					"type": "address"
				}
			],
			"payable": false,
			"stateMutability": "view",
			"type": "function"
		},
		{
			"constant": true,
			"inputs": [],
			"name": "aoContentAddress",
			"outputs": [
				{
					"name": "",
					"type": "address"
				}
			],
			"payable": false,
			"stateMutability": "view",
			"type": "function"
		},
		{
			"constant": true,
			"inputs": [],
			"name": "aoEarningAddress",
			"outputs": [
				{
					"name": "",
					"type": "address"
				}
			],
			"payable": false,
			"stateMutability": "view",
			"type": "function"
		},
		{
			"constant": true,
			"inputs": [
				{
					"name": "",
					"type": "address"
				}
			],
			"name": "whitelist",
			"outputs": [
				{
					"name": "",
					"type": "bool"
				}
			],
			"payable": false,
			"stateMutability": "view",
			"type": "function"
		},
		{
			"constant": true,
			"inputs": [],
			"name": "theAO",
			"outputs": [
				{
					"name": "",
					"type": "address"
				}
			],
			"payable": false,
			"stateMutability": "view",
			"type": "function"
		},
		{
			"constant": true,
			"inputs": [],
			"name": "nameFactoryAddress",
			"outputs": [
				{
					"name": "",
					"type": "address"
				}
			],
			"payable": false,
			"stateMutability": "view",
			"type": "function"
		},
		{
			"constant": true,
			"inputs": [],
			"name": "totalContentHosts",
			"outputs": [
				{
					"name": "",
					"type": "uint256"
				}
			],
			"payable": false,
			"stateMutability": "view",
			"type": "function"
		},
		{
			"constant": true,
			"inputs": [],
			"name": "aoPurchaseReceiptAddress",
			"outputs": [
				{
					"name": "",
					"type": "address"
				}
			],
			"payable": false,
			"stateMutability": "view",
			"type": "function"
		},
		{
			"inputs": [
				{
					"name": "_aoContentAddress",
					"type": "address"
				},
				{
					"name": "_aoStakedContentAddress",
					"type": "address"
				},
				{
					"name": "_aoPurchaseReceiptAddress",
					"type": "address"
				},
				{
					"name": "_aoEarningAddress",
					"type": "address"
				},
				{
					"name": "_nameFactoryAddress",
					"type": "address"
				},
				{
					"name": "_nameTAOPositionAddress",
					"type": "address"
				}
			],
			"payable": false,
			"stateMutability": "nonpayable",
			"type": "constructor"
		},
		{
			"anonymous": false,
			"inputs": [
				{
					"indexed": true,
					"name": "host",
					"type": "address"
				},
				{
					"indexed": true,
					"name": "contentHostId",
					"type": "bytes32"
				},
				{
					"indexed": false,
					"name": "stakedContentId",
					"type": "bytes32"
				},
				{
					"indexed": false,
					"name": "contentId",
					"type": "bytes32"
				},
				{
					"indexed": false,
					"name": "contentDatKey",
					"type": "string"
				},
				{
					"indexed": false,
					"name": "metadataDatKey",
					"type": "string"
				}
			],
			"name": "HostContent",
			"type": "event"
		},
		{
			"constant": false,
			"inputs": [
				{
					"name": "_theAO",
					"type": "address"
				}
			],
			"name": "transferOwnership",
			"outputs": [],
			"payable": false,
			"stateMutability": "nonpayable",
			"type": "function"
		},
		{
			"constant": false,
			"inputs": [
				{
					"name": "_account",
					"type": "address"
				},
				{
					"name": "_whitelist",
					"type": "bool"
				}
			],
			"name": "setWhitelist",
			"outputs": [],
			"payable": false,
			"stateMutability": "nonpayable",
			"type": "function"
		},
		{
			"constant": false,
			"inputs": [
				{
					"name": "_aoContentAddress",
					"type": "address"
				}
			],
			"name": "setAOContentAddress",
			"outputs": [],
			"payable": false,
			"stateMutability": "nonpayable",
			"type": "function"
		},
		{
			"constant": false,
			"inputs": [
				{
					"name": "_aoStakedContentAddress",
					"type": "address"
				}
			],
			"name": "setAOStakedContentAddress",
			"outputs": [],
			"payable": false,
			"stateMutability": "nonpayable",
			"type": "function"
		},
		{
			"constant": false,
			"inputs": [
				{
					"name": "_aoPurchaseReceiptAddress",
					"type": "address"
				}
			],
			"name": "setAOPurchaseReceiptAddress",
			"outputs": [],
			"payable": false,
			"stateMutability": "nonpayable",
			"type": "function"
		},
		{
			"constant": false,
			"inputs": [
				{
					"name": "_aoEarningAddress",
					"type": "address"
				}
			],
			"name": "setAOEarningAddress",
			"outputs": [],
			"payable": false,
			"stateMutability": "nonpayable",
			"type": "function"
		},
		{
			"constant": false,
			"inputs": [
				{
					"name": "_nameFactoryAddress",
					"type": "address"
				}
			],
			"name": "setNameFactoryAddress",
			"outputs": [],
			"payable": false,
			"stateMutability": "nonpayable",
			"type": "function"
		},
		{
			"constant": false,
			"inputs": [
				{
					"name": "_nameTAOPositionAddress",
					"type": "address"
				}
			],
			"name": "setNameTAOPositionAddress",
			"outputs": [],
			"payable": false,
			"stateMutability": "nonpayable",
			"type": "function"
		},
		{
			"constant": false,
			"inputs": [
				{
					"name": "_host",
					"type": "address"
				},
				{
					"name": "_stakedContentId",
					"type": "bytes32"
				},
				{
					"name": "_encChallenge",
					"type": "string"
				},
				{
					"name": "_contentDatKey",
					"type": "string"
				},
				{
					"name": "_metadataDatKey",
					"type": "string"
				}
			],
			"name": "create",
			"outputs": [
				{
					"name": "",
					"type": "bool"
				}
			],
			"payable": false,
			"stateMutability": "nonpayable",
			"type": "function"
		},
		{
			"constant": true,
			"inputs": [
				{
					"name": "_contentHostId",
					"type": "bytes32"
				}
			],
			"name": "getById",
			"outputs": [
				{
					"name": "",
					"type": "bytes32"
				},
				{
					"name": "",
					"type": "bytes32"
				},
				{
					"name": "",
					"type": "address"
				},
				{
					"name": "",
					"type": "string"
				},
				{
					"name": "",
					"type": "string"
				}
			],
			"payable": false,
			"stateMutability": "view",
			"type": "function"
		},
		{
			"constant": true,
			"inputs": [
				{
					"name": "_contentHostId",
					"type": "bytes32"
				}
			],
			"name": "contentHostPrice",
			"outputs": [
				{
					"name": "",
					"type": "uint256"
				}
			],
			"payable": false,
			"stateMutability": "view",
			"type": "function"
		},
		{
			"constant": true,
			"inputs": [
				{
					"name": "_contentHostId",
					"type": "bytes32"
				}
			],
			"name": "contentHostPaidByAO",
			"outputs": [
				{
					"name": "",
					"type": "uint256"
				}
			],
			"payable": false,
			"stateMutability": "view",
			"type": "function"
		},
		{
			"constant": true,
			"inputs": [
				{
					"name": "_contentHostId",
					"type": "bytes32"
				}
			],
			"name": "isExist",
			"outputs": [
				{
					"name": "",
					"type": "bool"
				}
			],
			"payable": false,
			"stateMutability": "view",
			"type": "function"
		},
		{
			"constant": false,
			"inputs": [
				{
					"name": "_purchaseReceiptId",
					"type": "bytes32"
				},
				{
					"name": "_baseChallengeV",
					"type": "uint8"
				},
				{
					"name": "_baseChallengeR",
					"type": "bytes32"
				},
				{
					"name": "_baseChallengeS",
					"type": "bytes32"
				},
				{
					"name": "_encChallenge",
					"type": "string"
				},
				{
					"name": "_contentDatKey",
					"type": "string"
				},
				{
					"name": "_metadataDatKey",
					"type": "string"
				}
			],
			"name": "becomeHost",
			"outputs": [],
			"payable": false,
			"stateMutability": "nonpayable",
			"type": "function"
		}
	],
	"bytecode": "0x60806040523480156200001157600080fd5b5060405160c0806200286183398101604090815281516020830151918301516060840151608085015160a09095015160008054600160a060020a03191633179055929491929091906200006d86640100000000620000dd810204565b6200008185640100000000620001e2810204565b6200009584640100000000620002e7810204565b620000a983640100000000620003ec810204565b620000bd82640100000000620004f1810204565b620000d181640100000000620005f6810204565b505050505050620006f1565b600054600154604080517ff66afcac000000000000000000000000000000000000000000000000000000008152336004820152600160a060020a0393841660248201529290911660448301525173__AOLibrary_____________________________9163f66afcac916064808301926020929190829003018186803b1580156200016657600080fd5b505af41580156200017b573d6000803e3d6000fd5b505050506040513d60208110156200019257600080fd5b50511515620001a057600080fd5b600160a060020a0381161515620001b657600080fd5b60048054600160a060020a03909216600160a060020a0319928316811790915560098054909216179055565b600054600154604080517ff66afcac000000000000000000000000000000000000000000000000000000008152336004820152600160a060020a0393841660248201529290911660448301525173__AOLibrary_____________________________9163f66afcac916064808301926020929190829003018186803b1580156200026b57600080fd5b505af415801562000280573d6000803e3d6000fd5b505050506040513d60208110156200029757600080fd5b50511515620002a557600080fd5b600160a060020a0381161515620002bb57600080fd5b60058054600160a060020a03909216600160a060020a03199283168117909155600a8054909216179055565b600054600154604080517ff66afcac000000000000000000000000000000000000000000000000000000008152336004820152600160a060020a0393841660248201529290911660448301525173__AOLibrary_____________________________9163f66afcac916064808301926020929190829003018186803b1580156200037057600080fd5b505af415801562000385573d6000803e3d6000fd5b505050506040513d60208110156200039c57600080fd5b50511515620003aa57600080fd5b600160a060020a0381161515620003c057600080fd5b60068054600160a060020a03909216600160a060020a03199283168117909155600b8054909216179055565b600054600154604080517ff66afcac000000000000000000000000000000000000000000000000000000008152336004820152600160a060020a0393841660248201529290911660448301525173__AOLibrary_____________________________9163f66afcac916064808301926020929190829003018186803b1580156200047557600080fd5b505af41580156200048a573d6000803e3d6000fd5b505050506040513d6020811015620004a157600080fd5b50511515620004af57600080fd5b600160a060020a0381161515620004c557600080fd5b60078054600160a060020a03909216600160a060020a03199283168117909155600c8054909216179055565b600054600154604080517ff66afcac000000000000000000000000000000000000000000000000000000008152336004820152600160a060020a0393841660248201529290911660448301525173__AOLibrary_____________________________9163f66afcac916064808301926020929190829003018186803b1580156200057a57600080fd5b505af41580156200058f573d6000803e3d6000fd5b505050506040513d6020811015620005a657600080fd5b50511515620005b457600080fd5b600160a060020a0381161515620005ca57600080fd5b60088054600160a060020a03909216600160a060020a03199283168117909155600d8054909216179055565b600054600154604080517ff66afcac000000000000000000000000000000000000000000000000000000008152336004820152600160a060020a0393841660248201529290911660448301525173__AOLibrary_____________________________9163f66afcac916064808301926020929190829003018186803b1580156200067f57600080fd5b505af415801562000694573d6000803e3d6000fd5b505050506040513d6020811015620006ab57600080fd5b50511515620006b957600080fd5b600160a060020a0381161515620006cf57600080fd5b60018054600160a060020a031916600160a060020a0392909216919091179055565b61216080620007016000396000f3006080604052600436106101325763ffffffff7c0100000000000000000000000000000000000000000000000000000000600035041663078753ad81146101375780630da8097d146101685780632dff0d0d146101c55780633e36144f146102e15780634ef033f01461030457806353d6fd5914610319578063555ea48c1461033f5780635cfaf2ef14610429578063762fee181461044a57806385cb86c81461046257806386231b9e1461047757806389a83246146104a15780638c924361146104c25780638f629222146104e35780639b19251a146104f8578063a9b6b38e14610519578063a9e3fd271461052e578063bc40620614610546578063bc6abaa21461055b578063c7061f971461057c578063c96a74e51461059d578063e669ecab146105b2578063f2fde38b146105c7575b600080fd5b34801561014357600080fd5b5061014c6105e8565b60408051600160a060020a039092168252519081900360200190f35b34801561017457600080fd5b506101b160048035600160a060020a03169060248035916044358083019290820135916064358083019290820135916084359182019101356105f7565b604080519115158252519081900360200190f35b3480156101d157600080fd5b506101dd6004356106c9565b604080518681526020808201879052600160a060020a0386169282019290925260a060608201818152855191830191909152845191929091608084019160c08501919087019080838360005b83811015610241578181015183820152602001610229565b50505050905090810190601f16801561026e5780820380516001836020036101000a031916815260200191505b50838103825284518152845160209182019186019080838360005b838110156102a1578181015183820152602001610289565b50505050905090810190601f1680156102ce5780820380516001836020036101000a031916815260200191505b5097505050505050505060405180910390f35b3480156102ed57600080fd5b50610302600160a060020a036004351661092a565b005b34801561031057600080fd5b5061014c610a14565b34801561032557600080fd5b50610302600160a060020a03600435166024351515610a23565b34801561034b57600080fd5b50604080516020600460843581810135601f8101849004840285018401909552848452610302948235946024803560ff169560443595606435953695919460a494909391019190819084018382808284375050604080516020601f89358b018035918201839004830284018301909452808352979a99988101979196509182019450925082915084018382808284375050604080516020601f89358b018035918201839004830284018301909452808352979a999881019791965091820194509250829150840183828082843750949750610b0c9650505050505050565b34801561043557600080fd5b50610302600160a060020a0360043516610dae565b34801561045657600080fd5b506101b1600435610e8e565b34801561046e57600080fd5b5061014c610ea1565b34801561048357600080fd5b5061048f600435610eb0565b60408051918252519081900360200190f35b3480156104ad57600080fd5b50610302600160a060020a03600435166110d5565b3480156104ce57600080fd5b50610302600160a060020a03600435166111bf565b3480156104ef57600080fd5b5061014c6112a9565b34801561050457600080fd5b506101b1600160a060020a03600435166112b8565b34801561052557600080fd5b5061014c6112cd565b34801561053a57600080fd5b5061048f6004356112dc565b34801561055257600080fd5b5061014c61145d565b34801561056757600080fd5b50610302600160a060020a036004351661146c565b34801561058857600080fd5b50610302600160a060020a0360043516611556565b3480156105a957600080fd5b5061048f611640565b3480156105be57600080fd5b5061014c611646565b3480156105d357600080fd5b50610302600160a060020a0360043516611655565b600554600160a060020a031681565b3360009081526002602052604081205460ff16151560011461061857600080fd5b6106af898989898080601f0160208091040260200160405190810160405280939291908181526020018383808284375050604080516020601f8f018190048102820181019092528d815294508d93508c925082915084018382808284375050604080516020601f8e018190048102820181019092528c815294508c93508b9250829150840183828082843750611735945050505050565b15156106ba57600080fd5b50600198975050505050505050565b60008060006060806106d961205b565b6000878152600f6020526040812054116106f257600080fd5b6000878152600f60209081526040808320548352600e825291829020825160e0810184528154815260018083015482850152600280840154838701526003840154600160a060020a031660608401526004840180548751601f9482161561010002600019019091169290920492830186900486028201860190965281815291949293608086019391908301828280156107cc5780601f106107a1576101008083540402835291602001916107cc565b820191906000526020600020905b8154815290600101906020018083116107af57829003601f168201915b505050918352505060058201805460408051602060026001851615610100026000190190941693909304601f81018490048402820184019092528181529382019392918301828280156108605780601f1061083557610100808354040283529160200191610860565b820191906000526020600020905b81548152906001019060200180831161084357829003601f168201915b505050918352505060068201805460408051602060026001851615610100026000190190941693909304601f81018490048402820184019092528181529382019392918301828280156108f45780601f106108c9576101008083540402835291602001916108f4565b820191906000526020600020905b8154815290600101906020018083116108d757829003601f168201915b5050509190925250505060208101516040820151606083015160a084015160c090940151929b919a509850919650945092505050565b6000546001546040805160e260020a633d9abf2b028152336004820152600160a060020a0393841660248201529290911660448301525173__AOLibrary_____________________________9163f66afcac916064808301926020929190829003018186803b15801561099c57600080fd5b505af41580156109b0573d6000803e3d6000fd5b505050506040513d60208110156109c657600080fd5b505115156109d357600080fd5b600160a060020a03811615156109e857600080fd5b60058054600160a060020a03909216600160a060020a03199283168117909155600a8054909216179055565b600154600160a060020a031681565b6000546001546040805160e260020a633d9abf2b028152336004820152600160a060020a0393841660248201529290911660448301525173__AOLibrary_____________________________9163f66afcac916064808301926020929190829003018186803b158015610a9557600080fd5b505af4158015610aa9573d6000803e3d6000fd5b505050506040513d6020811015610abf57600080fd5b50511515610acc57600080fd5b600160a060020a0382161515610ae157600080fd5b600160a060020a03919091166000908152600260205260409020805460ff1916911515919091179055565b600d54604080517f029b7d5300000000000000000000000000000000000000000000000000000000815233600482015290516000928392600160a060020a039091169163029b7d539160248082019260209290919082900301818787803b158015610b7657600080fd5b505af1158015610b8a573d6000803e3d6000fd5b505050506040513d6020811015610ba057600080fd5b50519150600160a060020a0382161515610bb957600080fd5b610bc689838a8a8a611c14565b1515610bd157600080fd5b600b546040805160e060020a632dff0d0d028152600481018c90529051600160a060020a0390921691632dff0d0d9160248082019260009290919082900301818387803b158015610c2157600080fd5b505af1158015610c35573d6000803e3d6000fd5b505050506040513d6000823e601f3d908101601f19168201604052610140811015610c5f57600080fd5b8151602083015160408401516060850151608086015160a087015160c088015160e08901805197999698959794969395929491939283019291640100000000811115610caa57600080fd5b82016020810184811115610cbd57600080fd5b8151640100000000811182820187101715610cd757600080fd5b50999b50610cfa9a508c99508b98508f97508e96508d9550611735945050505050565b1515610d0557600080fd5b600c54604080517f4c9e0913000000000000000000000000000000000000000000000000000000008152600481018c90529051600160a060020a0390921691634c9e0913916024808201926020929091908290030181600087803b158015610d6c57600080fd5b505af1158015610d80573d6000803e3d6000fd5b505050506040513d6020811015610d9657600080fd5b50511515610da357600080fd5b505050505050505050565b6000546001546040805160e260020a633d9abf2b028152336004820152600160a060020a0393841660248201529290911660448301525173__AOLibrary_____________________________9163f66afcac916064808301926020929190829003018186803b158015610e2057600080fd5b505af4158015610e34573d6000803e3d6000fd5b505050506040513d6020811015610e4a57600080fd5b50511515610e5757600080fd5b600160a060020a0381161515610e6c57600080fd5b60018054600160a060020a031916600160a060020a0392909216919091179055565b6000908152600f60205260408120541190565b600454600160a060020a031681565b6000818152600f6020526040812054819081908110610ece57600080fd5b6000848152600f60209081526040808320548352600e825280832060010154600a5482517f5c36901c000000000000000000000000000000000000000000000000000000008152600481018390529251919650600160a060020a031693635c36901c93602480850194919392918390030190829087803b158015610f5157600080fd5b505af1158015610f65573d6000803e3d6000fd5b505050506040513d6020811015610f7b57600080fd5b50511515610f8857600080fd5b506000838152600f60209081526040808320548352600e82528083206002015460095482517f65cf0ace0000000000000000000000000000000000000000000000000000000081526004810183905292519194600160a060020a03909116936365cf0ace936024808201949293918390030190829087803b15801561100c57600080fd5b505af1158015611020573d6000803e3d6000fd5b505050506040513d602081101561103657600080fd5b50511561104657600092506110ce565b604080517fa9e3fd27000000000000000000000000000000000000000000000000000000008152600481018690529051309163a9e3fd279160248083019260209291908290030181600087803b15801561109f57600080fd5b505af11580156110b3573d6000803e3d6000fd5b505050506040513d60208110156110c957600080fd5b505192505b5050919050565b6000546001546040805160e260020a633d9abf2b028152336004820152600160a060020a0393841660248201529290911660448301525173__AOLibrary_____________________________9163f66afcac916064808301926020929190829003018186803b15801561114757600080fd5b505af415801561115b573d6000803e3d6000fd5b505050506040513d602081101561117157600080fd5b5051151561117e57600080fd5b600160a060020a038116151561119357600080fd5b60048054600160a060020a03909216600160a060020a0319928316811790915560098054909216179055565b6000546001546040805160e260020a633d9abf2b028152336004820152600160a060020a0393841660248201529290911660448301525173__AOLibrary_____________________________9163f66afcac916064808301926020929190829003018186803b15801561123157600080fd5b505af4158015611245573d6000803e3d6000fd5b505050506040513d602081101561125b57600080fd5b5051151561126857600080fd5b600160a060020a038116151561127d57600080fd5b60088054600160a060020a03909216600160a060020a03199283168117909155600d8054909216179055565b600754600160a060020a031681565b60026020526000908152604090205460ff1681565b600054600160a060020a031681565b6000818152600f602052604081205481908190819081106112fc57600080fd5b6000858152600f60209081526040808320548352600e825280832060010154600a5482517f5c36901c000000000000000000000000000000000000000000000000000000008152600481018390529251919750600160a060020a031693635c36901c93602480850194919392918390030190829087803b15801561137f57600080fd5b505af1158015611393573d6000803e3d6000fd5b505050506040513d60208110156113a957600080fd5b505115156113b657600080fd5b600a546040805160e060020a632dff0d0d028152600481018690529051600160a060020a0390921691632dff0d0d91602480820192610100929091908290030181600087803b15801561140857600080fd5b505af115801561141c573d6000803e3d6000fd5b505050506040513d61010081101561143357600080fd5b5060408101516060909101519092509050611454828263ffffffff611ccf16565b95945050505050565b600854600160a060020a031681565b6000546001546040805160e260020a633d9abf2b028152336004820152600160a060020a0393841660248201529290911660448301525173__AOLibrary_____________________________9163f66afcac916064808301926020929190829003018186803b1580156114de57600080fd5b505af41580156114f2573d6000803e3d6000fd5b505050506040513d602081101561150857600080fd5b5051151561151557600080fd5b600160a060020a038116151561152a57600080fd5b60068054600160a060020a03909216600160a060020a03199283168117909155600b8054909216179055565b6000546001546040805160e260020a633d9abf2b028152336004820152600160a060020a0393841660248201529290911660448301525173__AOLibrary_____________________________9163f66afcac916064808301926020929190829003018186803b1580156115c857600080fd5b505af41580156115dc573d6000803e3d6000fd5b505050506040513d60208110156115f257600080fd5b505115156115ff57600080fd5b600160a060020a038116151561161457600080fd5b60078054600160a060020a03909216600160a060020a03199283168117909155600c8054909216179055565b60035481565b600654600160a060020a031681565b6000546001546040805160e260020a633d9abf2b028152336004820152600160a060020a0393841660248201529290911660448301525173__AOLibrary_____________________________9163f66afcac916064808301926020929190829003018186803b1580156116c757600080fd5b505af41580156116db573d6000803e3d6000fd5b505050506040513d60208110156116f157600080fd5b505115156116fe57600080fd5b600160a060020a038116151561171357600080fd5b60008054600160a060020a031916600160a060020a0392909216919091179055565b6000808080600160a060020a038916151561174f57600080fd5b604080517f2d706a34000000000000000000000000000000000000000000000000000000008152600160a060020a038b166004820152905173__AOLibrary_____________________________91632d706a34916024808301926020929190829003018186803b1580156117c257600080fd5b505af41580156117d6573d6000803e3d6000fd5b505050506040513d60208110156117ec57600080fd5b505115156117f957600080fd5b865160001061180757600080fd5b855160001061181557600080fd5b845160001061182357600080fd5b600a54604080517f5c36901c000000000000000000000000000000000000000000000000000000008152600481018b90529051600160a060020a0390921691635c36901c916024808201926020929091908290030181600087803b15801561188a57600080fd5b505af115801561189e573d6000803e3d6000fd5b505050506040513d60208110156118b457600080fd5b505115156118c157600080fd5b600380546001019055604080516c01000000000000000000000000308102602080840191909152600160a060020a038d16909102603483015260488083018c905283518084039091018152606890920192839052815191929182918401908083835b602083106119425780518252601f199092019160209182019101611923565b51815160209384036101000a60001901801990921691161790526040805192909401829003909120600380546000908152600e909352939091209283015490975091955050600160a060020a031615915061199e905057600080fd5b600a546040805160e060020a632dff0d0d028152600481018b90529051600160a060020a0390921691632dff0d0d91602480820192610100929091908290030181600087803b1580156119f057600080fd5b505af1158015611a04573d6000803e3d6000fd5b505050506040513d610100811015611a1b57600080fd5b50518383556001830189905560028301819055600383018054600160a060020a031916600160a060020a038c161790558751909150611a6390600484019060208a0190612099565b508551611a799060058401906020890190612099565b508451611a8f9060068401906020880190612099565b50600380546000858152600f6020908152604091829020929092558454928501546001808701546002808901548551838152968701819052608095870186815260058b01805495861615610100026000190190951692909204958701869052600160a060020a03909416957f3822dc82485ad7da8362b68055846011a5882496620bcc8e725a6f810591eb10959294939260068b019290606083019060a084019086908015611b7f5780601f10611b5457610100808354040283529160200191611b7f565b820191906000526020600020905b815481529060010190602001808311611b6257829003601f168201915b5050838103825284546002600019610100600184161502019091160480825260209091019085908015611bf35780601f10611bc857610100808354040283529160200191611bf3565b820191906000526020600020905b815481529060010190602001808311611bd657829003601f168201915b5050965050505050505060405180910390a350600198975050505050505050565b600b54604080517f0671084200000000000000000000000000000000000000000000000000000000815260048101889052600160a060020a0387811660248301529151600093929092169163067108429160448082019260209290919082900301818787803b158015611c8657600080fd5b505af1158015611c9a573d6000803e3d6000fd5b505050506040513d6020811015611cb057600080fd5b50518015611cc55750611cc586858585611ce2565b9695505050505050565b81810182811015611cdc57fe5b92915050565b600b546040805160e060020a632dff0d0d028152600481018790529051600092839283928392600160a060020a031691632dff0d0d916024808301928692919082900301818387803b158015611d3757600080fd5b505af1158015611d4b573d6000803e3d6000fd5b505050506040513d6000823e601f3d908101601f19168201604052610140811015611d7557600080fd5b8151602083015160408401516060850151608086015160a087015160c088015160e08901805197999698959794969395929491939283019291640100000000811115611dc057600080fd5b82016020810184811115611dd357600080fd5b8151640100000000811182820187101715611ded57600080fd5b50505060200151600954604080517f3486d8f6000000000000000000000000000000000000000000000000000000008152600481018b90529051999e50919c50309a50600160a060020a03169850633486d8f69760248083019850600097509095509085900301925083915084905087803b158015611e6b57600080fd5b505af1158015611e7f573d6000803e3d6000fd5b505050506040513d6000823e601f3d908101601f191682016040526020811015611ea857600080fd5b810190808051640100000000811115611ec057600080fd5b82016020810184811115611ed357600080fd5b8151640100000000811182820187101715611eed57600080fd5b50509291905050506040516020018083600160a060020a0316600160a060020a03166c0100000000000000000000000002815260140182805190602001908083835b60208310611f4e5780518252601f199092019160209182019101611f2f565b6001836020036101000a038019825116818451168082178552505050505050905001925050506040516020818303038152906040526040518082805190602001908083835b60208310611fb25780518252601f199092019160209182019101611f93565b51815160209384036101000a600019018019909216911617905260408051929094018290038220600080845283830180875282905260ff8f1684870152606084018e9052608084018d90529451909750600160a060020a03891696506001955060a080840195929450601f198201938290030191865af115801561203a573d6000803e3d6000fd5b50505060206040510351600160a060020a0316149350505050949350505050565b6040805160e0810182526000808252602082018190529181018290526060808201929092526080810182905260a0810182905260c081019190915290565b828054600181600116156101000203166002900490600052602060002090601f016020900481019282601f106120da57805160ff1916838001178555612107565b82800160010185558215612107579182015b828111156121075782518255916020019190600101906120ec565b50612113929150612117565b5090565b61213191905b80821115612113576000815560010161211d565b905600a165627a7a72305820b6b6815a807a378e1fa3a322f54a460587c6dcd6f1d1c27795557305eec2b8f70029",
	"source": "pragma solidity ^0.4.24;\n\nimport './SafeMath.sol';\nimport './AOLibrary.sol';\nimport './TheAO.sol';\nimport './IAOContentHost.sol';\nimport './IAOContent.sol';\nimport './IAOStakedContent.sol';\nimport './IAOPurchaseReceipt.sol';\nimport './IAOEarning.sol';\nimport './INameFactory.sol';\n\n/**\n * @title AOContentHost\n */\ncontract AOContentHost is TheAO, IAOContentHost {\n\tusing SafeMath for uint256;\n\n\tuint256 public totalContentHosts;\n\taddress public aoContentAddress;\n\taddress public aoStakedContentAddress;\n\taddress public aoPurchaseReceiptAddress;\n\taddress public aoEarningAddress;\n\taddress public nameFactoryAddress;\n\n\tIAOContent internal _aoContent;\n\tIAOStakedContent internal _aoStakedContent;\n\tIAOPurchaseReceipt internal _aoPurchaseReceipt;\n\tIAOEarning internal _aoEarning;\n\tINameFactory internal _nameFactory;\n\n\tstruct ContentHost {\n\t\tbytes32 contentHostId;\n\t\tbytes32 stakedContentId;\n\t\tbytes32 contentId;\n\t\taddress host;\n\t\t/**\n\t\t * encChallenge is the content's PUBLIC KEY unique to the host\n\t\t */\n\t\tstring encChallenge;\n\t\tstring contentDatKey;\n\t\tstring metadataDatKey;\n\t}\n\n\t// Mapping from ContentHost index to the ContentHost object\n\tmapping (uint256 => ContentHost) internal contentHosts;\n\n\t// Mapping from content host ID to index of the contentHosts list\n\tmapping (bytes32 => uint256) internal contentHostIndex;\n\n\t// Event to be broadcasted to public when a node hosts a content\n\tevent HostContent(address indexed host, bytes32 indexed contentHostId, bytes32 stakedContentId, bytes32 contentId, string contentDatKey, string metadataDatKey);\n\n\t/**\n\t * @dev Constructor function\n\t * @param _aoContentAddress The address of AOContent\n\t * @param _aoStakedContentAddress The address of AOStakedContent\n\t * @param _aoPurchaseReceiptAddress The address of AOPurchaseReceipt\n\t * @param _aoEarningAddress The address of AOEarning\n\t * @param _nameFactoryAddress The address of NameFactory\n\t * @param _nameTAOPositionAddress The address of NameTAOPosition\n\t */\n\tconstructor(address _aoContentAddress, address _aoStakedContentAddress, address _aoPurchaseReceiptAddress, address _aoEarningAddress, address _nameFactoryAddress, address _nameTAOPositionAddress) public {\n\t\tsetAOContentAddress(_aoContentAddress);\n\t\tsetAOStakedContentAddress(_aoStakedContentAddress);\n\t\tsetAOPurchaseReceiptAddress(_aoPurchaseReceiptAddress);\n\t\tsetAOEarningAddress(_aoEarningAddress);\n\t\tsetNameFactoryAddress(_nameFactoryAddress);\n\t\tsetNameTAOPositionAddress(_nameTAOPositionAddress);\n\t}\n\n\t/**\n\t * @dev Checks if the calling contract address is The AO\n\t *\t\tOR\n\t *\t\tIf The AO is set to a Name/TAO, then check if calling address is the Advocate\n\t */\n\tmodifier onlyTheAO {\n\t\trequire (AOLibrary.isTheAO(msg.sender, theAO, nameTAOPositionAddress));\n\t\t_;\n\t}\n\n\t/***** The AO ONLY METHODS *****/\n\t/**\n\t * @dev Transfer ownership of The AO to new address\n\t * @param _theAO The new address to be transferred\n\t */\n\tfunction transferOwnership(address _theAO) public onlyTheAO {\n\t\trequire (_theAO != address(0));\n\t\ttheAO = _theAO;\n\t}\n\n\t/**\n\t * @dev Whitelist `_account` address to transact on behalf of others\n\t * @param _account The address to whitelist\n\t * @param _whitelist Either to whitelist or not\n\t */\n\tfunction setWhitelist(address _account, bool _whitelist) public onlyTheAO {\n\t\trequire (_account != address(0));\n\t\twhitelist[_account] = _whitelist;\n\t}\n\n\t/**\n\t * @dev The AO sets AOContent address\n\t * @param _aoContentAddress The address of AOContent\n\t */\n\tfunction setAOContentAddress(address _aoContentAddress) public onlyTheAO {\n\t\trequire (_aoContentAddress != address(0));\n\t\taoContentAddress = _aoContentAddress;\n\t\t_aoContent = IAOContent(_aoContentAddress);\n\t}\n\n\t/**\n\t * @dev The AO sets AOStakedContent address\n\t * @param _aoStakedContentAddress The address of AOStakedContent\n\t */\n\tfunction setAOStakedContentAddress(address _aoStakedContentAddress) public onlyTheAO {\n\t\trequire (_aoStakedContentAddress != address(0));\n\t\taoStakedContentAddress = _aoStakedContentAddress;\n\t\t_aoStakedContent = IAOStakedContent(_aoStakedContentAddress);\n\t}\n\n\t/**\n\t * @dev The AO sets AOPurchaseReceipt address\n\t * @param _aoPurchaseReceiptAddress The address of AOPurchaseReceipt\n\t */\n\tfunction setAOPurchaseReceiptAddress(address _aoPurchaseReceiptAddress) public onlyTheAO {\n\t\trequire (_aoPurchaseReceiptAddress != address(0));\n\t\taoPurchaseReceiptAddress = _aoPurchaseReceiptAddress;\n\t\t_aoPurchaseReceipt = IAOPurchaseReceipt(_aoPurchaseReceiptAddress);\n\t}\n\n\t/**\n\t * @dev The AO sets AOEarning address\n\t * @param _aoEarningAddress The address of AOEarning\n\t */\n\tfunction setAOEarningAddress(address _aoEarningAddress) public onlyTheAO {\n\t\trequire (_aoEarningAddress != address(0));\n\t\taoEarningAddress = _aoEarningAddress;\n\t\t_aoEarning = IAOEarning(_aoEarningAddress);\n\t}\n\n\t/**\n\t * @dev The AO sets NameFactory address\n\t * @param _nameFactoryAddress The address of NameFactory\n\t */\n\tfunction setNameFactoryAddress(address _nameFactoryAddress) public onlyTheAO {\n\t\trequire (_nameFactoryAddress != address(0));\n\t\tnameFactoryAddress = _nameFactoryAddress;\n\t\t_nameFactory = INameFactory(_nameFactoryAddress);\n\t}\n\n\t/**\n\t * @dev The AO sets NameTAOPosition address\n\t * @param _nameTAOPositionAddress The address of NameTAOPosition\n\t */\n\tfunction setNameTAOPositionAddress(address _nameTAOPositionAddress) public onlyTheAO {\n\t\trequire (_nameTAOPositionAddress != address(0));\n\t\tnameTAOPositionAddress = _nameTAOPositionAddress;\n\t}\n\n\t/***** PUBLIC METHODS *****/\n\t/**\n\t * @dev Add the distribution node info that hosts the content\n\t * @param _host the address of the host\n\t * @param _stakedContentId The ID of the staked content\n\t * @param _encChallenge The encrypted challenge string (PUBLIC KEY) of the content unique to the host\n\t * @param _contentDatKey The dat key of the content\n\t * @param _metadataDatKey The dat key of the content's metadata\n\t * @return true on success\n\t */\n\tfunction create(address _host, bytes32 _stakedContentId, string _encChallenge, string _contentDatKey, string _metadataDatKey) external inWhitelist returns (bool) {\n\t\trequire (_create(_host, _stakedContentId, _encChallenge, _contentDatKey, _metadataDatKey));\n\t\treturn true;\n\t}\n\n\t/**\n\t * @dev Return content host info at a given ID\n\t * @param _contentHostId The ID of the hosted content\n\t * @return The ID of the staked content\n\t * @return The ID of the content\n\t * @return address of the host\n\t * @return the dat key of the content\n\t * @return the dat key of the content's metadata\n\t */\n\tfunction getById(bytes32 _contentHostId) external view returns (bytes32, bytes32, address, string, string) {\n\t\t// Make sure the content host exist\n\t\trequire (contentHostIndex[_contentHostId] > 0);\n\t\tContentHost memory _contentHost = contentHosts[contentHostIndex[_contentHostId]];\n\t\treturn (\n\t\t\t_contentHost.stakedContentId,\n\t\t\t_contentHost.contentId,\n\t\t\t_contentHost.host,\n\t\t\t_contentHost.contentDatKey,\n\t\t\t_contentHost.metadataDatKey\n\t\t);\n\t}\n\n\t/**\n\t * @dev Determine the content price hosted by a host\n\t * @param _contentHostId The content host ID to be checked\n\t * @return the price of the content\n\t */\n\tfunction contentHostPrice(bytes32 _contentHostId) external view returns (uint256) {\n\t\t// Make sure content host exist\n\t\trequire (contentHostIndex[_contentHostId] > 0);\n\n\t\tbytes32 _stakedContentId = contentHosts[contentHostIndex[_contentHostId]].stakedContentId;\n\t\trequire (_aoStakedContent.isActive(_stakedContentId));\n\n\t\t(,,uint256 _networkAmount, uint256 _primordialAmount,,,,) = _aoStakedContent.getById(_stakedContentId);\n\t\treturn _networkAmount.add(_primordialAmount);\n\t}\n\n\t/**\n\t * @dev Determine the how much the content is paid by AO given a contentHostId\n\t * @param _contentHostId The content host ID to be checked\n\t * @return the amount paid by AO\n\t */\n\tfunction contentHostPaidByAO(bytes32 _contentHostId) external view returns (uint256) {\n\t\t// Make sure content host exist\n\t\trequire (contentHostIndex[_contentHostId] > 0);\n\n\t\tbytes32 _stakedContentId = contentHosts[contentHostIndex[_contentHostId]].stakedContentId;\n\t\trequire (_aoStakedContent.isActive(_stakedContentId));\n\n\t\tbytes32 _contentId = contentHosts[contentHostIndex[_contentHostId]].contentId;\n\t\tif (_aoContent.isAOContentUsageType(_contentId)) {\n\t\t\treturn 0;\n\t\t} else {\n\t\t\treturn this.contentHostPrice(_contentHostId);\n\t\t}\n\t}\n\n\t/**\n\t * @dev Check whether or not a contentHostId exist\n\t * @param _contentHostId The content host ID to be checked\n\t * @return true if yes, false otherwise\n\t */\n\tfunction isExist(bytes32 _contentHostId) external view returns (bool) {\n\t\treturn (contentHostIndex[_contentHostId] > 0);\n\t}\n\n\t/**\n\t * @dev Request node wants to become a distribution node after buying the content\n\t *\t\tAlso, if this transaction succeeds, contract will release all of the earnings that are\n\t *\t\tcurrently in escrow for content creator/host/The AO\n\t * @param _purchaseReceiptId The ID of the Purchase Receipt\n\t * @param _baseChallengeV The V part of signature when signing the base challenge\n\t * @param _baseChallengeR The R part of signature when signing the base challenge\n\t * @param _baseChallengeS The S part of signature when signing the base challenge\n\t * @param _encChallenge The encrypted challenge string (PUBLIC KEY) of the content unique to the host\n\t * @param _contentDatKey The dat key of the content\n\t * @param _metadataDatKey The dat key of the content's metadata\n\t */\n\tfunction becomeHost(\n\t\tbytes32 _purchaseReceiptId,\n\t\tuint8 _baseChallengeV,\n\t\tbytes32 _baseChallengeR,\n\t\tbytes32 _baseChallengeS,\n\t\tstring _encChallenge,\n\t\tstring _contentDatKey,\n\t\tstring _metadataDatKey\n\t) public {\n\t\taddress _hostNameId = _nameFactory.ethAddressToNameId(msg.sender);\n\t\trequire (_hostNameId != address(0));\n\t\trequire (_canBecomeHost(_purchaseReceiptId, _hostNameId, _baseChallengeV, _baseChallengeR, _baseChallengeS));\n\n\t\t(, bytes32 _stakedContentId,,,,,,,,) = _aoPurchaseReceipt.getById(_purchaseReceiptId);\n\n\t\trequire (_create(_hostNameId, _stakedContentId, _encChallenge, _contentDatKey, _metadataDatKey));\n\n\t\t// Release earning from escrow\n\t\trequire (_aoEarning.releaseEarning(_purchaseReceiptId));\n\t}\n\n\t/***** INTERNAL METHODS *****/\n\t/**\n\t * @dev Actual add the distribution node info that hosts the content\n\t * @param _host the address of the host\n\t * @param _stakedContentId The ID of the staked content\n\t * @param _encChallenge The encrypted challenge string (PUBLIC KEY) of the content unique to the host\n\t * @param _contentDatKey The dat key of the content\n\t * @param _metadataDatKey The dat key of the content's metadata\n\t * @return true on success\n\t */\n\tfunction _create(address _host, bytes32 _stakedContentId, string _encChallenge, string _contentDatKey, string _metadataDatKey) internal returns (bool) {\n\t\trequire (_host != address(0));\n\t\trequire (AOLibrary.isName(_host));\n\t\trequire (bytes(_encChallenge).length > 0);\n\t\trequire (bytes(_contentDatKey).length > 0);\n\t\trequire (bytes(_metadataDatKey).length > 0);\n\t\trequire (_aoStakedContent.isActive(_stakedContentId));\n\n\t\t// Increment totalContentHosts\n\t\ttotalContentHosts++;\n\n\t\t// Generate contentId\n\t\tbytes32 _contentHostId = keccak256(abi.encodePacked(this, _host, _stakedContentId));\n\n\t\tContentHost storage _contentHost = contentHosts[totalContentHosts];\n\n\t\t// Make sure the node doesn't host the same content twice\n\t\trequire (_contentHost.host == address(0));\n\n\t\t(bytes32 _contentId,,,,,,,) = _aoStakedContent.getById(_stakedContentId);\n\n\t\t_contentHost.contentHostId = _contentHostId;\n\t\t_contentHost.stakedContentId = _stakedContentId;\n\t\t_contentHost.contentId = _contentId;\n\t\t_contentHost.host = _host;\n\t\t_contentHost.encChallenge = _encChallenge;\n\t\t_contentHost.contentDatKey = _contentDatKey;\n\t\t_contentHost.metadataDatKey = _metadataDatKey;\n\n\t\tcontentHostIndex[_contentHostId] = totalContentHosts;\n\n\t\temit HostContent(_contentHost.host, _contentHost.contentHostId, _contentHost.stakedContentId, _contentHost.contentId, _contentHost.contentDatKey, _contentHost.metadataDatKey);\n\t\treturn true;\n\t}\n\n\t/**\n\t * @dev Check whether or not the passed params are valid\n\t * @param _purchaseReceiptId The ID of the Purchase Receipt\n\t * @param _sender The address of the sender\n\t * @param _baseChallengeV The V part of signature when signing the base challenge\n\t * @param _baseChallengeR The R part of signature when signing the base challenge\n\t * @param _baseChallengeS The S part of signature when signing the base challenge\n\t * @return true if yes, false otherwise\n\t */\n\tfunction _canBecomeHost(bytes32 _purchaseReceiptId, address _sender, uint8 _baseChallengeV, bytes32 _baseChallengeR, bytes32 _baseChallengeS) internal view returns (bool) {\n\t\t// Make sure the purchase receipt owner is the same as the sender\n\t\treturn (_aoPurchaseReceipt.senderIsBuyer(_purchaseReceiptId, _sender) &&\n\t\t\t_verifyBecomeHostSignature(_purchaseReceiptId, _baseChallengeV, _baseChallengeR, _baseChallengeS)\n\t\t);\n\t}\n\n\t/**\n\t * @dev Verify the become host signature\n\t * @param _purchaseReceiptId The ID of the purchase receipt\n\t * @param _v part of the signature\n\t * @param _r part of the signature\n\t * @param _s part of the signature\n\t * @return true if valid, false otherwise\n\t */\n\tfunction _verifyBecomeHostSignature(bytes32 _purchaseReceiptId, uint8 _v, bytes32 _r, bytes32 _s) internal view returns (bool) {\n\t\t(,, bytes32 _contentId,,,,,, address _publicAddress,) = _aoPurchaseReceipt.getById(_purchaseReceiptId);\n\n\t\tbytes32 _hash = keccak256(abi.encodePacked(address(this), _aoContent.getBaseChallenge(_contentId)));\n\t\treturn (ecrecover(_hash, _v, _r, _s) == _publicAddress);\n\t}\n}\n",
	"sourcePath": "/Users/johanmulyono/Work/AO/ao-contracts/contracts/AOContentHost.sol",
	"compiler": {
		"name": "solc",
		"version": "0.4.24+commit.e67f0147.Emscripten.clang"
	},
	"schemaVersion": "2.0.1",
	"updatedAt": "2019-04-04T04:29:47.753Z"
}