{
	"contractName": "AOContent",
	"abi": [
		{
			"constant": true,
			"inputs": [],
			"name": "aoSettingAddress",
			"outputs": [
				{
					"name": "",
					"type": "address"
				}
			],
			"payable": false,
			"stateMutability": "view",
			"type": "function"
		},
		{
			"constant": true,
			"inputs": [],
			"name": "totalContents",
			"outputs": [
				{
					"name": "",
					"type": "uint256"
				}
			],
			"payable": false,
			"stateMutability": "view",
			"type": "function"
		},
		{
			"constant": true,
			"inputs": [],
			"name": "nameTAOPositionAddress",
			"outputs": [
				{
					"name": "",
					"type": "address"
				}
			],
			"payable": false,
			"stateMutability": "view",
			"type": "function"
		},
		{
			"constant": true,
			"inputs": [
				{
					"name": "",
					"type": "address"
				}
			],
			"name": "whitelist",
			"outputs": [
				{
					"name": "",
					"type": "bool"
				}
			],
			"payable": false,
			"stateMutability": "view",
			"type": "function"
		},
		{
			"constant": true,
			"inputs": [],
			"name": "theAO",
			"outputs": [
				{
					"name": "",
					"type": "address"
				}
			],
			"payable": false,
			"stateMutability": "view",
			"type": "function"
		},
		{
			"constant": true,
			"inputs": [],
			"name": "settingTAOId",
			"outputs": [
				{
					"name": "",
					"type": "address"
				}
			],
			"payable": false,
			"stateMutability": "view",
			"type": "function"
		},
		{
			"inputs": [
				{
					"name": "_settingTAOId",
					"type": "address"
				},
				{
					"name": "_aoSettingAddress",
					"type": "address"
				},
				{
					"name": "_nameTAOPositionAddress",
					"type": "address"
				}
			],
			"payable": false,
			"stateMutability": "nonpayable",
			"type": "constructor"
		},
		{
			"anonymous": false,
			"inputs": [
				{
					"indexed": true,
					"name": "creator",
					"type": "address"
				},
				{
					"indexed": true,
					"name": "contentId",
					"type": "bytes32"
				},
				{
					"indexed": false,
					"name": "fileSize",
					"type": "uint256"
				},
				{
					"indexed": false,
					"name": "contentUsageType",
					"type": "bytes32"
				}
			],
			"name": "StoreContent",
			"type": "event"
		},
		{
			"anonymous": false,
			"inputs": [
				{
					"indexed": true,
					"name": "contentId",
					"type": "bytes32"
				},
				{
					"indexed": true,
					"name": "taoId",
					"type": "address"
				},
				{
					"indexed": false,
					"name": "signer",
					"type": "address"
				},
				{
					"indexed": false,
					"name": "taoContentState",
					"type": "bytes32"
				}
			],
			"name": "UpdateTAOContentState",
			"type": "event"
		},
		{
			"anonymous": false,
			"inputs": [
				{
					"indexed": true,
					"name": "creator",
					"type": "address"
				},
				{
					"indexed": true,
					"name": "contentId",
					"type": "bytes32"
				},
				{
					"indexed": false,
					"name": "newExtraData",
					"type": "string"
				}
			],
			"name": "SetExtraData",
			"type": "event"
		},
		{
			"constant": false,
			"inputs": [
				{
					"name": "_theAO",
					"type": "address"
				}
			],
			"name": "transferOwnership",
			"outputs": [],
			"payable": false,
			"stateMutability": "nonpayable",
			"type": "function"
		},
		{
			"constant": false,
			"inputs": [
				{
					"name": "_account",
					"type": "address"
				},
				{
					"name": "_whitelist",
					"type": "bool"
				}
			],
			"name": "setWhitelist",
			"outputs": [],
			"payable": false,
			"stateMutability": "nonpayable",
			"type": "function"
		},
		{
			"constant": false,
			"inputs": [
				{
					"name": "_settingTAOId",
					"type": "address"
				}
			],
			"name": "setSettingTAOId",
			"outputs": [],
			"payable": false,
			"stateMutability": "nonpayable",
			"type": "function"
		},
		{
			"constant": false,
			"inputs": [
				{
					"name": "_aoSettingAddress",
					"type": "address"
				}
			],
			"name": "setAOSettingAddress",
			"outputs": [],
			"payable": false,
			"stateMutability": "nonpayable",
			"type": "function"
		},
		{
			"constant": false,
			"inputs": [
				{
					"name": "_nameTAOPositionAddress",
					"type": "address"
				}
			],
			"name": "setNameTAOPositionAddress",
			"outputs": [],
			"payable": false,
			"stateMutability": "nonpayable",
			"type": "function"
		},
		{
			"constant": false,
			"inputs": [
				{
					"name": "_creator",
					"type": "address"
				},
				{
					"name": "_baseChallenge",
					"type": "string"
				},
				{
					"name": "_fileSize",
					"type": "uint256"
				},
				{
					"name": "_contentUsageType",
					"type": "bytes32"
				},
				{
					"name": "_taoId",
					"type": "address"
				}
			],
			"name": "create",
			"outputs": [
				{
					"name": "",
					"type": "bytes32"
				}
			],
			"payable": false,
			"stateMutability": "nonpayable",
			"type": "function"
		},
		{
			"constant": true,
			"inputs": [
				{
					"name": "_contentId",
					"type": "bytes32"
				}
			],
			"name": "getById",
			"outputs": [
				{
					"name": "",
					"type": "address"
				},
				{
					"name": "",
					"type": "uint256"
				},
				{
					"name": "",
					"type": "bytes32"
				},
				{
					"name": "",
					"type": "address"
				},
				{
					"name": "",
					"type": "bytes32"
				},
				{
					"name": "",
					"type": "uint8"
				},
				{
					"name": "",
					"type": "bytes32"
				},
				{
					"name": "",
					"type": "bytes32"
				},
				{
					"name": "",
					"type": "string"
				}
			],
			"payable": false,
			"stateMutability": "view",
			"type": "function"
		},
		{
			"constant": true,
			"inputs": [
				{
					"name": "_contentId",
					"type": "bytes32"
				}
			],
			"name": "getBaseChallenge",
			"outputs": [
				{
					"name": "",
					"type": "string"
				}
			],
			"payable": false,
			"stateMutability": "view",
			"type": "function"
		},
		{
			"constant": false,
			"inputs": [
				{
					"name": "_contentId",
					"type": "bytes32"
				},
				{
					"name": "_taoId",
					"type": "address"
				},
				{
					"name": "_taoContentState",
					"type": "bytes32"
				},
				{
					"name": "_updateTAOContentStateV",
					"type": "uint8"
				},
				{
					"name": "_updateTAOContentStateR",
					"type": "bytes32"
				},
				{
					"name": "_updateTAOContentStateS",
					"type": "bytes32"
				}
			],
			"name": "updateTAOContentState",
			"outputs": [],
			"payable": false,
			"stateMutability": "nonpayable",
			"type": "function"
		},
		{
			"constant": true,
			"inputs": [
				{
					"name": "_contentId",
					"type": "bytes32"
				}
			],
			"name": "isAOContentUsageType",
			"outputs": [
				{
					"name": "",
					"type": "bool"
				}
			],
			"payable": false,
			"stateMutability": "view",
			"type": "function"
		},
		{
			"constant": false,
			"inputs": [
				{
					"name": "_contentId",
					"type": "bytes32"
				},
				{
					"name": "_extraData",
					"type": "string"
				}
			],
			"name": "setExtraData",
			"outputs": [],
			"payable": false,
			"stateMutability": "nonpayable",
			"type": "function"
		}
	],
	"bytecode": "0x60806040523480156200001157600080fd5b50604051606080620025f283398101604090815281516020830151919092015160008054600160a060020a03191633179055620000578364010000000062000088810204565b6200006b826401000000006200021b810204565b6200007f8164010000000062000320810204565b50505062000425565b600054600154604080517ff66afcac000000000000000000000000000000000000000000000000000000008152336004820152600160a060020a0393841660248201529290911660448301525173__AOLibrary_____________________________9163f66afcac916064808301926020929190829003018186803b1580156200011157600080fd5b505af415801562000126573d6000803e3d6000fd5b505050506040513d60208110156200013d57600080fd5b505115156200014b57600080fd5b604080517f2fca5414000000000000000000000000000000000000000000000000000000008152600160a060020a0383166004820152905173__AOLibrary_____________________________91632fca5414916024808301926020929190829003018186803b158015620001bf57600080fd5b505af4158015620001d4573d6000803e3d6000fd5b505050506040513d6020811015620001eb57600080fd5b50511515620001f957600080fd5b60048054600160a060020a031916600160a060020a0392909216919091179055565b600054600154604080517ff66afcac000000000000000000000000000000000000000000000000000000008152336004820152600160a060020a0393841660248201529290911660448301525173__AOLibrary_____________________________9163f66afcac916064808301926020929190829003018186803b158015620002a457600080fd5b505af4158015620002b9573d6000803e3d6000fd5b505050506040513d6020811015620002d057600080fd5b50511515620002de57600080fd5b600160a060020a0381161515620002f457600080fd5b60058054600160a060020a03909216600160a060020a0319928316811790915560068054909216179055565b600054600154604080517ff66afcac000000000000000000000000000000000000000000000000000000008152336004820152600160a060020a0393841660248201529290911660448301525173__AOLibrary_____________________________9163f66afcac916064808301926020929190829003018186803b158015620003a957600080fd5b505af4158015620003be573d6000803e3d6000fd5b505050506040513d6020811015620003d557600080fd5b50511515620003e357600080fd5b600160a060020a0381161515620003f957600080fd5b60018054600160a060020a03909216600160a060020a0319928316811790915560078054909216179055565b6121bd80620004356000396000f3006080604052600436106100f05763ffffffff7c010000000000000000000000000000000000000000000000000000000060003504166306fd708881146100f55780631d0138ff146101185780632d189a62146101495780632dff0d0d146101a75780633486d8f6146102875780633848627b146103145780634ef033f01461033b57806353d6fd59146103505780635cfaf2ef1461037657806365cf0ace1461039757806383b01a83146103c35780639b19251a146103f6578063a9b6b38e14610417578063d0d9ca521461042c578063d6830af314610467578063e7c5018514610488578063f2fde38b1461049d575b600080fd5b34801561010157600080fd5b50610116600160a060020a03600435166104be565b005b34801561012457600080fd5b5061012d6105b5565b60408051600160a060020a039092168252519081900360200190f35b34801561015557600080fd5b5060408051602060046024803582810135601f81018590048502860185019096528585526101169583359536956044949193909101919081908401838280828437509497506105c49650505050505050565b3480156101b357600080fd5b506101bf6004356106f1565b60408051600160a060020a03808c16825260208083018c90529282018a9052881660608201526080810187905260ff861660a082015260c0810185905260e08101849052610120610100820181815284519183019190915283519192909161014084019185019080838360005b8381101561024457818101518382015260200161022c565b50505050905090810190601f1680156102715780820380516001836020036101000a031916815260200191505b509a505050505050505050505060405180910390f35b34801561029357600080fd5b5061029f600435610931565b6040805160208082528351818301528351919283929083019185019080838360005b838110156102d95781810151838201526020016102c1565b50505050905090810190601f1680156103065780820380516001836020036101000a031916815260200191505b509250505060405180910390f35b34801561032057600080fd5b50610329610b58565b60408051918252519081900360200190f35b34801561034757600080fd5b5061012d610b5e565b34801561035c57600080fd5b50610116600160a060020a03600435166024351515610b6d565b34801561038257600080fd5b50610116600160a060020a0360043516610c56565b3480156103a357600080fd5b506103af600435610d4d565b604080519115158252519081900360200190f35b3480156103cf57600080fd5b50610116600435600160a060020a036024351660443560ff6064351660843560a435610d9f565b34801561040257600080fd5b506103af600160a060020a0360043516611020565b34801561042357600080fd5b5061012d611035565b34801561043857600080fd5b50610329600160a060020a03600480358216916024803590810192013590604435906064359060843516611044565b34801561047357600080fd5b50610116600160a060020a03600435166112e4565b34801561049457600080fd5b5061012d611466565b3480156104a957600080fd5b50610116600160a060020a0360043516611475565b6000546001546040805160e260020a633d9abf2b028152336004820152600160a060020a0393841660248201529290911660448301525173__AOLibrary_____________________________9163f66afcac916064808301926020929190829003018186803b15801561053057600080fd5b505af4158015610544573d6000803e3d6000fd5b505050506040513d602081101561055a57600080fd5b5051151561056757600080fd5b600160a060020a038116151561057c57600080fd5b60058054600160a060020a0390921673ffffffffffffffffffffffffffffffffffffffff19928316811790915560068054909216179055565b600554600160a060020a031681565b60008281526009602052604081205481106105de57600080fd5b506000828152600960209081526040808320548352600890915290206001810154600160a060020a0316331461061357600080fd5b815161062890600a830190602085019061202d565b508054600180830154604080516020808252600a8701805460029681161561010002600019011695909504908201819052600160a060020a03909316937fccfac2e5e45c8af339b83af022e2d6072564ca42a312b0511d9fd022ebb2fdf7939092829190820190849080156106de5780601f106106b3576101008083540402835291602001916106de565b820191906000526020600020905b8154815290600101906020018083116106c157829003601f168201915b50509250505060405180910390a3505050565b60008060008060008060008060606107076120ab565b60008b8152600960205260408120541161072057600080fd5b60008b8152600960209081526040808320548352600882529182902082516101608101845281548152600180830154600160a060020a031682850152600280840180548751601f9482161561010002600019019091169290920492830186900486028201860187528282529295939493860193909291908301828280156107e85780601f106107bd576101008083540402835291602001916107e8565b820191906000526020600020905b8154815290600101906020018083116107cb57829003601f168201915b5050509183525050600382015460208083019190915260048301546040808401919091526005840154600160a060020a0316606084015260068401546080840152600784015460ff1660a0840152600884015460c0840152600984015460e0840152600a840180548251601f600260018416156101009081026000190190941604908101869004860282018601909452838152940193929091908301828280156108d35780601f106108a8576101008083540402835291602001916108d3565b820191906000526020600020905b8154815290600101906020018083116108b657829003601f168201915b50505050508152505090508060200151816060015182608001518360a001518460c001518560e00151866101000151876101200151886101400151809050995099509950995099509950995099509950509193959799909294969850565b606061093b6120ab565b6000838152600960205260408120541161095457600080fd5b6000838152600960209081526040808320548352600882529182902082516101608101845281548152600180830154600160a060020a031682850152600280840180548751601f948216156101000260001901909116929092049283018690048602820186018752828252929593949386019390929190830182828015610a1c5780601f106109f157610100808354040283529160200191610a1c565b820191906000526020600020905b8154815290600101906020018083116109ff57829003601f168201915b5050509183525050600382015460208083019190915260048301546040808401919091526005840154600160a060020a0316606084015260068401546080840152600784015460ff1660a0840152600884015460c0840152600984015460e0840152600a840180548251601f60026001841615610100908102600019019094160490810186900486028201860190945283815294019392909190830182828015610b075780601f10610adc57610100808354040283529160200191610b07565b820191906000526020600020905b815481529060010190602001808311610aea57829003601f168201915b505050919092525050336000908152600260205260409020549192505060ff16151560011480610b4357506020810151600160a060020a031633145b1515610b4e57600080fd5b6040015192915050565b60035481565b600154600160a060020a031681565b6000546001546040805160e260020a633d9abf2b028152336004820152600160a060020a0393841660248201529290911660448301525173__AOLibrary_____________________________9163f66afcac916064808301926020929190829003018186803b158015610bdf57600080fd5b505af4158015610bf3573d6000803e3d6000fd5b505050506040513d6020811015610c0957600080fd5b50511515610c1657600080fd5b600160a060020a0382161515610c2b57600080fd5b600160a060020a03919091166000908152600260205260409020805460ff1916911515919091179055565b6000546001546040805160e260020a633d9abf2b028152336004820152600160a060020a0393841660248201529290911660448301525173__AOLibrary_____________________________9163f66afcac916064808301926020929190829003018186803b158015610cc857600080fd5b505af4158015610cdc573d6000803e3d6000fd5b505050506040513d6020811015610cf257600080fd5b50511515610cff57600080fd5b600160a060020a0381161515610d1457600080fd5b60018054600160a060020a0390921673ffffffffffffffffffffffffffffffffffffffff19928316811790915560078054909216179055565b60008181526009602052604081205481908110610d6957600080fd5b610d71611562565b5050506000958652505060096020908152604080862054865260089091529093206004015490921492915050565b600086815260096020526040812054819081908190819081908110610dc357600080fd5b604080517f2fca5414000000000000000000000000000000000000000000000000000000008152600160a060020a038d166004820152905173__AOLibrary_____________________________91632fca5414916024808301926020929190829003018186803b158015610e3657600080fd5b505af4158015610e4a573d6000803e3d6000fd5b505050506040513d6020811015610e6057600080fd5b50511515610e6d57600080fd5b610e75611562565b929a5090985096509450505089851480610e8e57508984145b80610e9857508983145b1515610ea357600080fd5b610eb18c8c8c8c8c8c611d36565b60008d8152600960209081526040808320548352600890915290209092509050600160a060020a03821633148015610f8657506007546005820154604080517fe2c8e54a000000000000000000000000000000000000000000000000000000008152600160a060020a03868116600483015292831660248201529051919092169163e2c8e54a9160448083019260209291908290030181600087803b158015610f5957600080fd5b505af1158015610f6d573d6000803e3d6000fd5b505050506040513d6020811015610f8357600080fd5b50515b1515610f9157600080fd5b60048101548614610fa157600080fd5b600681018a905560078101805460ff191660ff8b16179055600881018890556009810187905560408051600160a060020a038481168252602082018d90528251908e16928f927f0528e12829f4904634dd7bd06309457b4867ebd8bdf33ae6a8f6092a9a9461b9929081900390910190a3505050505050505050505050565b60026020526000908152604090205460ff1681565b600054600160a060020a031681565b33600090815260026020526040812054819081908190819060ff16151560011461106d57600080fd5b6110ac8b8b8b8080601f0160208091040260200160405190810160405280939291908181526020018383808284378201915050505050508a8a8a611e51565b15156110b757600080fd5b600360008154809291906001019190505550308b6003546040516020018084600160a060020a0316600160a060020a03166c0100000000000000000000000002815260140183600160a060020a0316600160a060020a03166c0100000000000000000000000002815260140182815260200193505050506040516020818303038152906040526040518082805190602001908083835b6020831061116c5780518252601f19909201916020918201910161114d565b51815160209384036101000a60001901801990921691161790526040805192909401829003909120600354600090815260089092529290206001810154929850965050600160a060020a03161591506111c6905057600080fd5b6111ce611562565b5050935093505050838360000181600019169055508a8360010160006101000a815481600160a060020a030219169083600160a060020a03160217905550898984600201919061121f929190612106565b50600383018890556004830187905581871415611268576006830181905560058301805473ffffffffffffffffffffffffffffffffffffffff1916600160a060020a0388161790555b60038054600086815260096020908152604091829020929092558554600187015493870154600488015483519182529381019390935281519093600160a060020a0316927fe57c42bf3a4425cef2daf5daea09e512a58183eac320e1480456a511a6afe7cd92908290030190a350505498975050505050505050565b6000546001546040805160e260020a633d9abf2b028152336004820152600160a060020a0393841660248201529290911660448301525173__AOLibrary_____________________________9163f66afcac916064808301926020929190829003018186803b15801561135657600080fd5b505af415801561136a573d6000803e3d6000fd5b505050506040513d602081101561138057600080fd5b5051151561138d57600080fd5b604080517f2fca5414000000000000000000000000000000000000000000000000000000008152600160a060020a0383166004820152905173__AOLibrary_____________________________91632fca5414916024808301926020929190829003018186803b15801561140057600080fd5b505af4158015611414573d6000803e3d6000fd5b505050506040513d602081101561142a57600080fd5b5051151561143757600080fd5b6004805473ffffffffffffffffffffffffffffffffffffffff1916600160a060020a0392909216919091179055565b600454600160a060020a031681565b6000546001546040805160e260020a633d9abf2b028152336004820152600160a060020a0393841660248201529290911660448301525173__AOLibrary_____________________________9163f66afcac916064808301926020929190829003018186803b1580156114e757600080fd5b505af41580156114fb573d6000803e3d6000fd5b505050506040513d602081101561151157600080fd5b5051151561151e57600080fd5b600160a060020a038116151561153357600080fd5b6000805473ffffffffffffffffffffffffffffffffffffffff1916600160a060020a0392909216919091179055565b600654600480546040805160e260020a631c196fb7028152600160a060020a039283169381019390935260248301819052601a60448401527f636f6e74656e745573616765547970655f616f436f6e74656e7400000000000060648401525160009384938493849384938493849384938493849384938493921691637065bedc91608480820192869290919082900301818387803b15801561160357600080fd5b505af1158015611617573d6000803e3d6000fd5b505050506040513d6000823e601f3d908101601f1916820160405260a081101561164057600080fd5b81516020830151604084015160608501516080860180519496939592949193928301929164010000000081111561167657600080fd5b8201602081018481111561168957600080fd5b81516401000000008111828201871017156116a357600080fd5b5050929190505050509850505050600660009054906101000a9004600160a060020a0316600160a060020a0316637065bedc600460009054906101000a9004600160a060020a03166040518263ffffffff167c01000000000000000000000000000000000000000000000000000000000281526004018082600160a060020a0316600160a060020a0316815260200180602001828103825260208152602001807f636f6e74656e745573616765547970655f6372656174697665436f6d6d6f6e7381525060200192505050600060405180830381600087803b15801561178857600080fd5b505af115801561179c573d6000803e3d6000fd5b505050506040513d6000823e601f3d908101601f1916820160405260a08110156117c557600080fd5b8151602083015160408401516060850151608086018051949693959294919392830192916401000000008111156117fb57600080fd5b8201602081018481111561180e57600080fd5b815164010000000081118282018710171561182857600080fd5b5050600654600480546040805160e260020a631c196fb7028152600160a060020a039283169381019390935260248301819052601b60448401527f636f6e74656e745573616765547970655f74616f436f6e74656e740000000000606484015251979f509091169850637065bedc97506084808201975060009695509085900301925083915084905087803b1580156118c057600080fd5b505af11580156118d4573d6000803e3d6000fd5b505050506040513d6000823e601f3d908101601f1916820160405260a08110156118fd57600080fd5b81516020830151604084015160608501516080860180519496939592949193928301929164010000000081111561193357600080fd5b8201602081018481111561194657600080fd5b815164010000000081118282018710171561196057600080fd5b5050600654600480546040805160e260020a631c196fb7028152600160a060020a039283169381019390935260248301819052601960448401527f74616f436f6e74656e7453746174655f7375626d697474656400000000000000606484015251979e509091169850637065bedc97506084808201975060009695509085900301925083915084905087803b1580156119f857600080fd5b505af1158015611a0c573d6000803e3d6000fd5b505050506040513d6000823e601f3d908101601f1916820160405260a0811015611a3557600080fd5b815160208301516040840151606085015160808601805194969395929491939283019291640100000000811115611a6b57600080fd5b82016020810184811115611a7e57600080fd5b8151640100000000811182820187101715611a9857600080fd5b5050600654600480546040805160e260020a631c196fb7028152600160a060020a039283169381019390935260248301819052601d60448401527f74616f436f6e74656e7453746174655f70656e64696e67526576696577000000606484015251979d509091169850637065bedc97506084808201975060009695509085900301925083915084905087803b158015611b3057600080fd5b505af1158015611b44573d6000803e3d6000fd5b505050506040513d6000823e601f3d908101601f1916820160405260a0811015611b6d57600080fd5b815160208301516040840151606085015160808601805194969395929491939283019291640100000000811115611ba357600080fd5b82016020810184811115611bb657600080fd5b8151640100000000811182820187101715611bd057600080fd5b5050600654600480546040805160e260020a631c196fb7028152600160a060020a039283169381019390935260248301819052601d60448401527f74616f436f6e74656e7453746174655f6163636570746564546f54414f000000606484015251979c509091169850637065bedc97506084808201975060009695509085900301925083915084905087803b158015611c6857600080fd5b505af1158015611c7c573d6000803e3d6000fd5b505050506040513d6000823e601f3d908101601f1916820160405260a0811015611ca557600080fd5b815160208301516040840151606085015160808601805194969395929491939283019291640100000000811115611cdb57600080fd5b82016020810184811115611cee57600080fd5b8151640100000000811182820187101715611d0857600080fd5b50509291905050505093505050508585858585859b509b509b509b509b509b50505050505050909192939495565b604080516c01000000000000000000000000308102602080840191909152603483018a9052600160a060020a03891690910260548301526068808301889052835180840390910181526088909201928390528151600093849392909182918401908083835b60208310611dba5780518252601f199092019160209182019101611d9b565b51815160209384036101000a600019018019909216911617905260408051929094018290038220600080845283830180875282905260ff8d1684870152606084018c9052608084018b905294519097506001965060a080840196509194601f19820194509281900390910191865af1158015611e3a573d6000803e3d6000fd5b5050604051601f1901519998505050505050505050565b600080600080611e5f611562565b5093965091945092505050600160a060020a03891615801590611e83575060008851115b8015611e8f5750600087115b8015611ead575085831480611ea357508582145b80611ead57508581145b80156120205750858114158061202057508581148015611ed55750600160a060020a03851615155b8015611f7c5750604080517f2fca5414000000000000000000000000000000000000000000000000000000008152600160a060020a0387166004820152905173__AOLibrary_____________________________91632fca5414916024808301926020929190829003018186803b158015611f4f57600080fd5b505af4158015611f63573d6000803e3d6000fd5b505050506040513d6020811015611f7957600080fd5b50515b80156120205750600754604080517fe2c8e54a000000000000000000000000000000000000000000000000000000008152600160a060020a038c8116600483015288811660248301529151919092169163e2c8e54a9160448083019260209291908290030181600087803b158015611ff357600080fd5b505af1158015612007573d6000803e3d6000fd5b505050506040513d602081101561201d57600080fd5b50515b9998505050505050505050565b828054600181600116156101000203166002900490600052602060002090601f016020900481019282601f1061206e57805160ff191683800117855561209b565b8280016001018555821561209b579182015b8281111561209b578251825591602001919060010190612080565b506120a7929150612174565b5090565b604080516101608101825260008082526020820181905260609282018390528282018190526080820181905260a0820181905260c0820181905260e08201819052610100820181905261012082015261014081019190915290565b828054600181600116156101000203166002900490600052602060002090601f016020900481019282601f106121475782800160ff1982351617855561209b565b8280016001018555821561209b579182015b8281111561209b578235825591602001919060010190612159565b61218e91905b808211156120a7576000815560010161217a565b905600a165627a7a723058206c15eb4f7f089671253882120953fffd47a8bebbced54da1cb329e08b6ec938e0029",
	"source": "pragma solidity ^0.4.24;\n\nimport './AOLibrary.sol';\nimport './TheAO.sol';\nimport './IAOContent.sol';\nimport './IAOSetting.sol';\nimport './INameTAOPosition.sol';\n\n/**\n * @title AOContent\n */\ncontract AOContent is TheAO, IAOContent {\n\tuint256 public totalContents;\n\taddress public settingTAOId;\n\taddress public aoSettingAddress;\n\n\tIAOSetting internal _aoSetting;\n\tINameTAOPosition internal _nameTAOPosition;\n\n\tstruct Content {\n\t\tbytes32 contentId;\n\t\taddress creator;\n\t\t/**\n\t\t * baseChallenge is the content's PUBLIC KEY\n\t\t * When a request node wants to be a host, it is required to send a signed base challenge (its content's PUBLIC KEY)\n\t\t * so that the contract can verify the authenticity of the content by comparing what the contract has and what the request node\n\t\t * submit\n\t\t */\n\t\tstring baseChallenge;\n\t\tuint256 fileSize;\n\t\tbytes32 contentUsageType; // i.e AO Content, Creative Commons, or T(AO) Content\n\t\taddress taoId;\n\t\tbytes32 taoContentState; // i.e Submitted, Pending Review, Accepted to TAO\n\t\tuint8 updateTAOContentStateV;\n\t\tbytes32 updateTAOContentStateR;\n\t\tbytes32 updateTAOContentStateS;\n\t\tstring extraData;\n\t}\n\n\t// Mapping from Content index to the Content object\n\tmapping (uint256 => Content) internal contents;\n\n\t// Mapping from content ID to index of the contents list\n\tmapping (bytes32 => uint256) internal contentIndex;\n\n\t// Event to be broadcasted to public when `content` is stored\n\tevent StoreContent(address indexed creator, bytes32 indexed contentId, uint256 fileSize, bytes32 contentUsageType);\n\n\t// Event to be broadcasted to public when Advocate/Listener/Speaker wants to update the TAO Content's State\n\tevent UpdateTAOContentState(bytes32 indexed contentId, address indexed taoId, address signer, bytes32 taoContentState);\n\n\t// Event to be broadcasted to public when content creator updates the content's extra data\n\tevent SetExtraData(address indexed creator, bytes32 indexed contentId, string newExtraData);\n\n\t/**\n\t * @dev Constructor function\n\t * @param _settingTAOId The TAO ID that controls the setting\n\t * @param _aoSettingAddress The address of AOSetting\n\t * @param _nameTAOPositionAddress The address of NameTAOPosition\n\t */\n\tconstructor(address _settingTAOId, address _aoSettingAddress, address _nameTAOPositionAddress) public {\n\t\tsetSettingTAOId(_settingTAOId);\n\t\tsetAOSettingAddress(_aoSettingAddress);\n\t\tsetNameTAOPositionAddress(_nameTAOPositionAddress);\n\t}\n\n\t/**\n\t * @dev Checks if the calling contract address is The AO\n\t *\t\tOR\n\t *\t\tIf The AO is set to a Name/TAO, then check if calling address is the Advocate\n\t */\n\tmodifier onlyTheAO {\n\t\trequire (AOLibrary.isTheAO(msg.sender, theAO, nameTAOPositionAddress));\n\t\t_;\n\t}\n\n\t/***** The AO ONLY METHODS *****/\n\t/**\n\t * @dev Transfer ownership of The AO to new address\n\t * @param _theAO The new address to be transferred\n\t */\n\tfunction transferOwnership(address _theAO) public onlyTheAO {\n\t\trequire (_theAO != address(0));\n\t\ttheAO = _theAO;\n\t}\n\n\t/**\n\t * @dev Whitelist `_account` address to transact on behalf of others\n\t * @param _account The address to whitelist\n\t * @param _whitelist Either to whitelist or not\n\t */\n\tfunction setWhitelist(address _account, bool _whitelist) public onlyTheAO {\n\t\trequire (_account != address(0));\n\t\twhitelist[_account] = _whitelist;\n\t}\n\n\t/**\n\t * @dev The AO sets setting TAO ID\n\t * @param _settingTAOId The new setting TAO ID to set\n\t */\n\tfunction setSettingTAOId(address _settingTAOId) public onlyTheAO {\n\t\trequire (AOLibrary.isTAO(_settingTAOId));\n\t\tsettingTAOId = _settingTAOId;\n\t}\n\n\t/**\n\t * @dev The AO sets AO Setting address\n\t * @param _aoSettingAddress The address of AOSetting\n\t */\n\tfunction setAOSettingAddress(address _aoSettingAddress) public onlyTheAO {\n\t\trequire (_aoSettingAddress != address(0));\n\t\taoSettingAddress = _aoSettingAddress;\n\t\t_aoSetting = IAOSetting(_aoSettingAddress);\n\t}\n\n\t/**\n\t * @dev The AO sets NameTAOPosition address\n\t * @param _nameTAOPositionAddress The address of NameTAOPosition\n\t */\n\tfunction setNameTAOPositionAddress(address _nameTAOPositionAddress) public onlyTheAO {\n\t\trequire (_nameTAOPositionAddress != address(0));\n\t\tnameTAOPositionAddress = _nameTAOPositionAddress;\n\t\t_nameTAOPosition = INameTAOPosition(_nameTAOPositionAddress);\n\t}\n\n\t/***** PUBLIC METHODS *****/\n\t/**\n\t * @dev Store the content information (content creation during staking)\n\t * @param _creator the address of the content creator\n\t * @param _baseChallenge The base challenge string (PUBLIC KEY) of the content\n\t * @param _fileSize The size of the file\n\t * @param _contentUsageType The content usage type, i.e AO Content, Creative Commons, or T(AO) Content\n\t * @param _taoId The TAO (TAO) ID for this content (if this is a T(AO) Content)\n\t * @return the ID of the content\n\t */\n\tfunction create(address _creator,\n\t\tstring _baseChallenge,\n\t\tuint256 _fileSize,\n\t\tbytes32 _contentUsageType,\n\t\taddress _taoId\n\t\t) external inWhitelist returns (bytes32) {\n\t\trequire (_canCreate(_creator, _baseChallenge, _fileSize, _contentUsageType, _taoId));\n\n\t\t// Increment totalContents\n\t\ttotalContents++;\n\n\t\t// Generate contentId\n\t\tbytes32 _contentId = keccak256(abi.encodePacked(this, _creator, totalContents));\n\t\tContent storage _content = contents[totalContents];\n\n\t\t// Make sure the node does't store the same content twice\n\t\trequire (_content.creator == address(0));\n\n\t\t(,,bytes32 contentUsageType_taoContent, bytes32 taoContentState_submitted,,) = _getSettingVariables();\n\n\t\t_content.contentId = _contentId;\n\t\t_content.creator = _creator;\n\t\t_content.baseChallenge = _baseChallenge;\n\t\t_content.fileSize = _fileSize;\n\t\t_content.contentUsageType = _contentUsageType;\n\n\t\t// If this is a TAO Content\n\t\tif (_contentUsageType == contentUsageType_taoContent) {\n\t\t\t_content.taoContentState = taoContentState_submitted;\n\t\t\t_content.taoId = _taoId;\n\t\t}\n\n\t\tcontentIndex[_contentId] = totalContents;\n\n\t\temit StoreContent(_content.creator, _content.contentId, _content.fileSize, _content.contentUsageType);\n\t\treturn _content.contentId;\n\t}\n\n\t/**\n\t * @dev Return content info at a given ID\n\t * @param _contentId The ID of the content\n\t * @return address of the creator\n\t * @return file size of the content\n\t * @return the content usage type, i.e AO Content, Creative Commons, or T(AO) Content\n\t * @return The TAO ID for this content (if this is a T(AO) Content)\n\t * @return The TAO Content state, i.e Submitted, Pending Review, or Accepted to TAO\n\t * @return The V part of signature that is used to update the TAO Content State\n\t * @return The R part of signature that is used to update the TAO Content State\n\t * @return The S part of signature that is used to update the TAO Content State\n\t * @return the extra information sent to the contract when creating a content\n\t */\n\tfunction getById(bytes32 _contentId) external view returns (address, uint256, bytes32, address, bytes32, uint8, bytes32, bytes32, string) {\n\t\t// Make sure the content exist\n\t\trequire (contentIndex[_contentId] > 0);\n\t\tContent memory _content = contents[contentIndex[_contentId]];\n\t\treturn (\n\t\t\t_content.creator,\n\t\t\t_content.fileSize,\n\t\t\t_content.contentUsageType,\n\t\t\t_content.taoId,\n\t\t\t_content.taoContentState,\n\t\t\t_content.updateTAOContentStateV,\n\t\t\t_content.updateTAOContentStateR,\n\t\t\t_content.updateTAOContentStateS,\n\t\t\t_content.extraData\n\t\t);\n\t}\n\n\t/**\n\t * @dev Get content base challenge\n\t * @param _contentId The ID of the content\n\t * @return the base challenge\n\t */\n\tfunction getBaseChallenge(bytes32 _contentId) external view returns (string) {\n\t\t// Make sure the content exist\n\t\trequire (contentIndex[_contentId] > 0);\n\t\tContent memory _content = contents[contentIndex[_contentId]];\n\t\trequire (whitelist[msg.sender] == true || _content.creator == msg.sender);\n\t\treturn _content.baseChallenge;\n\t}\n\n\t/**\n\t * @dev Update the TAO Content State of a T(AO) Content\n\t * @param _contentId The ID of the Content\n\t * @param _taoId The ID of the TAO that initiates the update\n\t * @param _taoContentState The TAO Content state value, i.e Submitted, Pending Review, or Accepted to TAO\n\t * @param _updateTAOContentStateV The V part of the signature for this update\n\t * @param _updateTAOContentStateR The R part of the signature for this update\n\t * @param _updateTAOContentStateS The S part of the signature for this update\n\t */\n\tfunction updateTAOContentState(\n\t\tbytes32 _contentId,\n\t\taddress _taoId,\n\t\tbytes32 _taoContentState,\n\t\tuint8 _updateTAOContentStateV,\n\t\tbytes32 _updateTAOContentStateR,\n\t\tbytes32 _updateTAOContentStateS\n\t) public {\n\t\t// Make sure the content exist\n\t\trequire (contentIndex[_contentId] > 0);\n\t\trequire (AOLibrary.isTAO(_taoId));\n\t\t(,, bytes32 _contentUsageType_taoContent, bytes32 taoContentState_submitted, bytes32 taoContentState_pendingReview, bytes32 taoContentState_acceptedToTAO) = _getSettingVariables();\n\t\trequire (_taoContentState == taoContentState_submitted || _taoContentState == taoContentState_pendingReview || _taoContentState == taoContentState_acceptedToTAO);\n\n\t\taddress _signatureAddress = _getUpdateTAOContentStateSignatureAddress(_contentId, _taoId, _taoContentState, _updateTAOContentStateV, _updateTAOContentStateR, _updateTAOContentStateS);\n\n\t\tContent storage _content = contents[contentIndex[_contentId]];\n\t\t// Make sure that the signature address is one of content's TAO ID's Advocate/Listener/Speaker\n\t\trequire (_signatureAddress == msg.sender && _nameTAOPosition.senderIsPosition(_signatureAddress, _content.taoId));\n\t\trequire (_content.contentUsageType == _contentUsageType_taoContent);\n\n\t\t_content.taoContentState = _taoContentState;\n\t\t_content.updateTAOContentStateV = _updateTAOContentStateV;\n\t\t_content.updateTAOContentStateR = _updateTAOContentStateR;\n\t\t_content.updateTAOContentStateS = _updateTAOContentStateS;\n\n\t\temit UpdateTAOContentState(_contentId, _taoId, _signatureAddress, _taoContentState);\n\t}\n\n\t/**\n\t * @dev Check whether or not the content is of AO Content Usage Type\n\t * @param _contentId The ID of the content\n\t * @return true if yes. false otherwise\n\t */\n\tfunction isAOContentUsageType(bytes32 _contentId) external view returns (bool) {\n\t\trequire (contentIndex[_contentId] > 0);\n\t\t(bytes32 _contentUsageType_aoContent,,,,,) = _getSettingVariables();\n\t\treturn contents[contentIndex[_contentId]].contentUsageType == _contentUsageType_aoContent;\n\t}\n\n\t/**\n\t * @dev Set extra data on existing content\n\t * @param _contentId The ID of the content\n\t * @param _extraData some extra information to send to the contract for a content\n\t */\n\tfunction setExtraData(bytes32 _contentId, string _extraData) public {\n\t\t// Make sure the content exist\n\t\trequire (contentIndex[_contentId] > 0);\n\n\t\tContent storage _content = contents[contentIndex[_contentId]];\n\t\t// Make sure the content creator is the same as the sender\n\t\trequire (_content.creator == msg.sender);\n\n\t\t_content.extraData = _extraData;\n\n\t\temit SetExtraData(_content.creator, _content.contentId, _content.extraData);\n\t}\n\n\t/***** INTERNAL METHODS *****/\n\t/**\n\t * @dev Checks if create params are valid\n\t * @param _creator the address of the content creator\n\t * @param _baseChallenge The base challenge string (PUBLIC KEY) of the content\n\t * @param _fileSize The size of the file\n\t * @param _contentUsageType The content usage type, i.e AO Content, Creative Commons, or T(AO) Content\n\t * @param _taoId The TAO (TAO) ID for this content (if this is a T(AO) Content)\n\t * @return true if yes. false otherwise\n\t */\n\tfunction _canCreate(address _creator, string _baseChallenge, uint256 _fileSize, bytes32 _contentUsageType, address _taoId) internal view returns (bool) {\n\t\t(bytes32 aoContent, bytes32 creativeCommons, bytes32 taoContent,,,) = _getSettingVariables();\n\t\treturn (_creator != address(0) &&\n\t\t\tbytes(_baseChallenge).length > 0 &&\n\t\t\t_fileSize > 0 &&\n\t\t\t(_contentUsageType == aoContent || _contentUsageType == creativeCommons || _contentUsageType == taoContent) &&\n\t\t\t(\n\t\t\t\t_contentUsageType != taoContent ||\n\t\t\t\t(_contentUsageType == taoContent && _taoId != address(0) && AOLibrary.isTAO(_taoId) && _nameTAOPosition.senderIsPosition(_creator, _taoId))\n\t\t\t)\n\t\t);\n\t}\n\n\t/**\n\t * @dev Get setting variables\n\t * @return contentUsageType_aoContent Content Usage Type = AO Content\n\t * @return contentUsageType_creativeCommons Content Usage Type = Creative Commons\n\t * @return contentUsageType_taoContent Content Usage Type = T(AO) Content\n\t * @return taoContentState_submitted TAO Content State = Submitted\n\t * @return taoContentState_pendingReview TAO Content State = Pending Review\n\t * @return taoContentState_acceptedToTAO TAO Content State = Accepted to TAO\n\t */\n\tfunction _getSettingVariables() internal view returns (bytes32, bytes32, bytes32, bytes32, bytes32, bytes32) {\n\t\t(,,,bytes32 contentUsageType_aoContent,) = _aoSetting.getSettingValuesByTAOName(settingTAOId, 'contentUsageType_aoContent');\n\t\t(,,,bytes32 contentUsageType_creativeCommons,) = _aoSetting.getSettingValuesByTAOName(settingTAOId, 'contentUsageType_creativeCommons');\n\t\t(,,,bytes32 contentUsageType_taoContent,) = _aoSetting.getSettingValuesByTAOName(settingTAOId, 'contentUsageType_taoContent');\n\t\t(,,,bytes32 taoContentState_submitted,) = _aoSetting.getSettingValuesByTAOName(settingTAOId, 'taoContentState_submitted');\n\t\t(,,,bytes32 taoContentState_pendingReview,) = _aoSetting.getSettingValuesByTAOName(settingTAOId, 'taoContentState_pendingReview');\n\t\t(,,,bytes32 taoContentState_acceptedToTAO,) = _aoSetting.getSettingValuesByTAOName(settingTAOId, 'taoContentState_acceptedToTAO');\n\n\t\treturn (\n\t\t\tcontentUsageType_aoContent,\n\t\t\tcontentUsageType_creativeCommons,\n\t\t\tcontentUsageType_taoContent,\n\t\t\ttaoContentState_submitted,\n\t\t\ttaoContentState_pendingReview,\n\t\t\ttaoContentState_acceptedToTAO\n\t\t);\n\t}\n\n\t/**\n\t * @dev Return the address that signed the TAO content state update\n\t * @param _contentId the ID of the content\n\t * @param _taoId the ID of the TAO\n\t * @param _taoContentState the TAO Content State value, i.e Submitted, Pending Review, or Accepted to TAO\n\t * @param _v part of the signature\n\t * @param _r part of the signature\n\t * @param _s part of the signature\n\t * @return the address that signed the message\n\t */\n\tfunction _getUpdateTAOContentStateSignatureAddress(bytes32 _contentId, address _taoId, bytes32 _taoContentState, uint8 _v, bytes32 _r, bytes32 _s) internal view returns (address) {\n\t\tbytes32 _hash = keccak256(abi.encodePacked(address(this), _contentId, _taoId, _taoContentState));\n\t\treturn ecrecover(_hash, _v, _r, _s);\n\t}\n}\n",
	"sourcePath": "/data/jmulyono/ao-contracts/contracts/AOContent.sol",
	"compiler": {
		"name": "solc",
		"version": "0.4.24+commit.e67f0147.Emscripten.clang"
	},
	"schemaVersion": "2.0.1",
	"updatedAt": "2019-02-22T08:49:01.279Z"
}