{
	"contractName": "AOContentHost",
	"abi": [
		{
			"constant": true,
			"inputs": [],
			"name": "aoStakedContentAddress",
			"outputs": [
				{
					"name": "",
					"type": "address"
				}
			],
			"payable": false,
			"stateMutability": "view",
			"type": "function"
		},
		{
			"constant": true,
			"inputs": [],
			"name": "nameTAOPositionAddress",
			"outputs": [
				{
					"name": "",
					"type": "address"
				}
			],
			"payable": false,
			"stateMutability": "view",
			"type": "function"
		},
		{
			"constant": true,
			"inputs": [],
			"name": "aoContentAddress",
			"outputs": [
				{
					"name": "",
					"type": "address"
				}
			],
			"payable": false,
			"stateMutability": "view",
			"type": "function"
		},
		{
			"constant": true,
			"inputs": [],
			"name": "aoEarningAddress",
			"outputs": [
				{
					"name": "",
					"type": "address"
				}
			],
			"payable": false,
			"stateMutability": "view",
			"type": "function"
		},
		{
			"constant": true,
			"inputs": [
				{
					"name": "",
					"type": "address"
				}
			],
			"name": "whitelist",
			"outputs": [
				{
					"name": "",
					"type": "bool"
				}
			],
			"payable": false,
			"stateMutability": "view",
			"type": "function"
		},
		{
			"constant": true,
			"inputs": [],
			"name": "theAO",
			"outputs": [
				{
					"name": "",
					"type": "address"
				}
			],
			"payable": false,
			"stateMutability": "view",
			"type": "function"
		},
		{
			"constant": true,
			"inputs": [],
			"name": "totalContentHosts",
			"outputs": [
				{
					"name": "",
					"type": "uint256"
				}
			],
			"payable": false,
			"stateMutability": "view",
			"type": "function"
		},
		{
			"constant": true,
			"inputs": [],
			"name": "aoPurchaseReceiptAddress",
			"outputs": [
				{
					"name": "",
					"type": "address"
				}
			],
			"payable": false,
			"stateMutability": "view",
			"type": "function"
		},
		{
			"inputs": [
				{
					"name": "_aoContentAddress",
					"type": "address"
				},
				{
					"name": "_aoStakedContentAddress",
					"type": "address"
				},
				{
					"name": "_aoPurchaseReceiptAddress",
					"type": "address"
				},
				{
					"name": "_aoEarningAddress",
					"type": "address"
				},
				{
					"name": "_nameTAOPositionAddress",
					"type": "address"
				}
			],
			"payable": false,
			"stateMutability": "nonpayable",
			"type": "constructor"
		},
		{
			"anonymous": false,
			"inputs": [
				{
					"indexed": true,
					"name": "host",
					"type": "address"
				},
				{
					"indexed": true,
					"name": "contentHostId",
					"type": "bytes32"
				},
				{
					"indexed": false,
					"name": "stakedContentId",
					"type": "bytes32"
				},
				{
					"indexed": false,
					"name": "contentId",
					"type": "bytes32"
				},
				{
					"indexed": false,
					"name": "contentDatKey",
					"type": "string"
				},
				{
					"indexed": false,
					"name": "metadataDatKey",
					"type": "string"
				}
			],
			"name": "HostContent",
			"type": "event"
		},
		{
			"constant": false,
			"inputs": [
				{
					"name": "_theAO",
					"type": "address"
				}
			],
			"name": "transferOwnership",
			"outputs": [],
			"payable": false,
			"stateMutability": "nonpayable",
			"type": "function"
		},
		{
			"constant": false,
			"inputs": [
				{
					"name": "_account",
					"type": "address"
				},
				{
					"name": "_whitelist",
					"type": "bool"
				}
			],
			"name": "setWhitelist",
			"outputs": [],
			"payable": false,
			"stateMutability": "nonpayable",
			"type": "function"
		},
		{
			"constant": false,
			"inputs": [
				{
					"name": "_aoContentAddress",
					"type": "address"
				}
			],
			"name": "setAOContentAddress",
			"outputs": [],
			"payable": false,
			"stateMutability": "nonpayable",
			"type": "function"
		},
		{
			"constant": false,
			"inputs": [
				{
					"name": "_aoStakedContentAddress",
					"type": "address"
				}
			],
			"name": "setAOStakedContentAddress",
			"outputs": [],
			"payable": false,
			"stateMutability": "nonpayable",
			"type": "function"
		},
		{
			"constant": false,
			"inputs": [
				{
					"name": "_aoPurchaseReceiptAddress",
					"type": "address"
				}
			],
			"name": "setAOPurchaseReceiptAddress",
			"outputs": [],
			"payable": false,
			"stateMutability": "nonpayable",
			"type": "function"
		},
		{
			"constant": false,
			"inputs": [
				{
					"name": "_aoEarningAddress",
					"type": "address"
				}
			],
			"name": "setAOEarningAddress",
			"outputs": [],
			"payable": false,
			"stateMutability": "nonpayable",
			"type": "function"
		},
		{
			"constant": false,
			"inputs": [
				{
					"name": "_nameTAOPositionAddress",
					"type": "address"
				}
			],
			"name": "setNameTAOPositionAddress",
			"outputs": [],
			"payable": false,
			"stateMutability": "nonpayable",
			"type": "function"
		},
		{
			"constant": false,
			"inputs": [
				{
					"name": "_host",
					"type": "address"
				},
				{
					"name": "_stakedContentId",
					"type": "bytes32"
				},
				{
					"name": "_encChallenge",
					"type": "string"
				},
				{
					"name": "_contentDatKey",
					"type": "string"
				},
				{
					"name": "_metadataDatKey",
					"type": "string"
				}
			],
			"name": "create",
			"outputs": [
				{
					"name": "",
					"type": "bool"
				}
			],
			"payable": false,
			"stateMutability": "nonpayable",
			"type": "function"
		},
		{
			"constant": true,
			"inputs": [
				{
					"name": "_contentHostId",
					"type": "bytes32"
				}
			],
			"name": "getById",
			"outputs": [
				{
					"name": "",
					"type": "bytes32"
				},
				{
					"name": "",
					"type": "bytes32"
				},
				{
					"name": "",
					"type": "address"
				},
				{
					"name": "",
					"type": "string"
				},
				{
					"name": "",
					"type": "string"
				}
			],
			"payable": false,
			"stateMutability": "view",
			"type": "function"
		},
		{
			"constant": true,
			"inputs": [
				{
					"name": "_contentHostId",
					"type": "bytes32"
				}
			],
			"name": "contentHostPrice",
			"outputs": [
				{
					"name": "",
					"type": "uint256"
				}
			],
			"payable": false,
			"stateMutability": "view",
			"type": "function"
		},
		{
			"constant": true,
			"inputs": [
				{
					"name": "_contentHostId",
					"type": "bytes32"
				}
			],
			"name": "contentHostPaidByAO",
			"outputs": [
				{
					"name": "",
					"type": "uint256"
				}
			],
			"payable": false,
			"stateMutability": "view",
			"type": "function"
		},
		{
			"constant": true,
			"inputs": [
				{
					"name": "_contentHostId",
					"type": "bytes32"
				}
			],
			"name": "isExist",
			"outputs": [
				{
					"name": "",
					"type": "bool"
				}
			],
			"payable": false,
			"stateMutability": "view",
			"type": "function"
		},
		{
			"constant": false,
			"inputs": [
				{
					"name": "_purchaseReceiptId",
					"type": "bytes32"
				},
				{
					"name": "_baseChallengeV",
					"type": "uint8"
				},
				{
					"name": "_baseChallengeR",
					"type": "bytes32"
				},
				{
					"name": "_baseChallengeS",
					"type": "bytes32"
				},
				{
					"name": "_encChallenge",
					"type": "string"
				},
				{
					"name": "_contentDatKey",
					"type": "string"
				},
				{
					"name": "_metadataDatKey",
					"type": "string"
				}
			],
			"name": "becomeHost",
			"outputs": [],
			"payable": false,
			"stateMutability": "nonpayable",
			"type": "function"
		}
	],
	"bytecode": "0x60806040523480156200001157600080fd5b5060405160a080620024a48339810160409081528151602083015191830151606084015160809094015160008054600160a060020a03191633179055919390916200006585640100000000620000c0810204565b6200007984640100000000620001c5810204565b6200008d83640100000000620002ca810204565b620000a182640100000000620003cf810204565b620000b581640100000000620004d4810204565b5050505050620005cf565b600054600154604080517ff66afcac000000000000000000000000000000000000000000000000000000008152336004820152600160a060020a0393841660248201529290911660448301525173__AOLibrary_____________________________9163f66afcac916064808301926020929190829003018186803b1580156200014957600080fd5b505af41580156200015e573d6000803e3d6000fd5b505050506040513d60208110156200017557600080fd5b505115156200018357600080fd5b600160a060020a03811615156200019957600080fd5b60048054600160a060020a03909216600160a060020a0319928316811790915560088054909216179055565b600054600154604080517ff66afcac000000000000000000000000000000000000000000000000000000008152336004820152600160a060020a0393841660248201529290911660448301525173__AOLibrary_____________________________9163f66afcac916064808301926020929190829003018186803b1580156200024e57600080fd5b505af415801562000263573d6000803e3d6000fd5b505050506040513d60208110156200027a57600080fd5b505115156200028857600080fd5b600160a060020a03811615156200029e57600080fd5b60058054600160a060020a03909216600160a060020a0319928316811790915560098054909216179055565b600054600154604080517ff66afcac000000000000000000000000000000000000000000000000000000008152336004820152600160a060020a0393841660248201529290911660448301525173__AOLibrary_____________________________9163f66afcac916064808301926020929190829003018186803b1580156200035357600080fd5b505af415801562000368573d6000803e3d6000fd5b505050506040513d60208110156200037f57600080fd5b505115156200038d57600080fd5b600160a060020a0381161515620003a357600080fd5b60068054600160a060020a03909216600160a060020a03199283168117909155600a8054909216179055565b600054600154604080517ff66afcac000000000000000000000000000000000000000000000000000000008152336004820152600160a060020a0393841660248201529290911660448301525173__AOLibrary_____________________________9163f66afcac916064808301926020929190829003018186803b1580156200045857600080fd5b505af41580156200046d573d6000803e3d6000fd5b505050506040513d60208110156200048457600080fd5b505115156200049257600080fd5b600160a060020a0381161515620004a857600080fd5b60078054600160a060020a03909216600160a060020a03199283168117909155600b8054909216179055565b600054600154604080517ff66afcac000000000000000000000000000000000000000000000000000000008152336004820152600160a060020a0393841660248201529290911660448301525173__AOLibrary_____________________________9163f66afcac916064808301926020929190829003018186803b1580156200055d57600080fd5b505af415801562000572573d6000803e3d6000fd5b505050506040513d60208110156200058957600080fd5b505115156200059757600080fd5b600160a060020a0381161515620005ad57600080fd5b60018054600160a060020a031916600160a060020a0392909216919091179055565b611ec580620005df6000396000f30060806040526004361061011c5763ffffffff7c0100000000000000000000000000000000000000000000000000000000600035041663078753ad81146101215780630da8097d146101525780632dff0d0d146101af5780633e36144f146102cb5780634ef033f0146102ee57806353d6fd5914610303578063555ea48c146103295780635cfaf2ef14610413578063762fee181461043457806385cb86c81461044c57806386231b9e1461046157806389a832461461048b5780638f629222146104ac5780639b19251a146104c1578063a9b6b38e146104e2578063a9e3fd27146104f7578063bc6abaa21461050f578063c7061f9714610530578063c96a74e514610551578063e669ecab14610566578063f2fde38b1461057b575b600080fd5b34801561012d57600080fd5b5061013661059c565b60408051600160a060020a039092168252519081900360200190f35b34801561015e57600080fd5b5061019b60048035600160a060020a03169060248035916044358083019290820135916064358083019290820135916084359182019101356105ab565b604080519115158252519081900360200190f35b3480156101bb57600080fd5b506101c760043561067d565b604080518681526020808201879052600160a060020a0386169282019290925260a060608201818152855191830191909152845191929091608084019160c08501919087019080838360005b8381101561022b578181015183820152602001610213565b50505050905090810190601f1680156102585780820380516001836020036101000a031916815260200191505b50838103825284518152845160209182019186019080838360005b8381101561028b578181015183820152602001610273565b50505050905090810190601f1680156102b85780820380516001836020036101000a031916815260200191505b5097505050505050505060405180910390f35b3480156102d757600080fd5b506102ec600160a060020a03600435166108de565b005b3480156102fa57600080fd5b506101366109c8565b34801561030f57600080fd5b506102ec600160a060020a036004351660243515156109d7565b34801561033557600080fd5b50604080516020600460843581810135601f81018490048402850184019095528484526102ec948235946024803560ff169560443595606435953695919460a494909391019190819084018382808284375050604080516020601f89358b018035918201839004830284018301909452808352979a99988101979196509182019450925082915084018382808284375050604080516020601f89358b018035918201839004830284018301909452808352979a999881019791965091820194509250829150840183828082843750949750610ac09650505050505050565b34801561041f57600080fd5b506102ec600160a060020a0360043516610cb6565b34801561044057600080fd5b5061019b600435610d96565b34801561045857600080fd5b50610136610da9565b34801561046d57600080fd5b50610479600435610db8565b60408051918252519081900360200190f35b34801561049757600080fd5b506102ec600160a060020a0360043516610fdd565b3480156104b857600080fd5b506101366110c7565b3480156104cd57600080fd5b5061019b600160a060020a03600435166110d6565b3480156104ee57600080fd5b506101366110eb565b34801561050357600080fd5b506104796004356110fa565b34801561051b57600080fd5b506102ec600160a060020a036004351661127b565b34801561053c57600080fd5b506102ec600160a060020a0360043516611365565b34801561055d57600080fd5b5061047961144f565b34801561057257600080fd5b50610136611455565b34801561058757600080fd5b506102ec600160a060020a0360043516611464565b600554600160a060020a031681565b3360009081526002602052604081205460ff1615156001146105cc57600080fd5b610663898989898080601f0160208091040260200160405190810160405280939291908181526020018383808284375050604080516020601f8f018190048102820181019092528d815294508d93508c925082915084018382808284375050604080516020601f8e018190048102820181019092528c815294508c93508b9250829150840183828082843750611544945050505050565b151561066e57600080fd5b50600198975050505050505050565b600080600060608061068d611dc0565b6000878152600d6020526040812054116106a657600080fd5b6000878152600d60209081526040808320548352600c825291829020825160e0810184528154815260018083015482850152600280840154838701526003840154600160a060020a031660608401526004840180548751601f9482161561010002600019019091169290920492830186900486028201860190965281815291949293608086019391908301828280156107805780601f1061075557610100808354040283529160200191610780565b820191906000526020600020905b81548152906001019060200180831161076357829003601f168201915b505050918352505060058201805460408051602060026001851615610100026000190190941693909304601f81018490048402820184019092528181529382019392918301828280156108145780601f106107e957610100808354040283529160200191610814565b820191906000526020600020905b8154815290600101906020018083116107f757829003601f168201915b505050918352505060068201805460408051602060026001851615610100026000190190941693909304601f81018490048402820184019092528181529382019392918301828280156108a85780601f1061087d576101008083540402835291602001916108a8565b820191906000526020600020905b81548152906001019060200180831161088b57829003601f168201915b5050509190925250505060208101516040820151606083015160a084015160c090940151929b919a509850919650945092505050565b6000546001546040805160e260020a633d9abf2b028152336004820152600160a060020a0393841660248201529290911660448301525173__AOLibrary_____________________________9163f66afcac916064808301926020929190829003018186803b15801561095057600080fd5b505af4158015610964573d6000803e3d6000fd5b505050506040513d602081101561097a57600080fd5b5051151561098757600080fd5b600160a060020a038116151561099c57600080fd5b60058054600160a060020a03909216600160a060020a0319928316811790915560098054909216179055565b600154600160a060020a031681565b6000546001546040805160e260020a633d9abf2b028152336004820152600160a060020a0393841660248201529290911660448301525173__AOLibrary_____________________________9163f66afcac916064808301926020929190829003018186803b158015610a4957600080fd5b505af4158015610a5d573d6000803e3d6000fd5b505050506040513d6020811015610a7357600080fd5b50511515610a8057600080fd5b600160a060020a0382161515610a9557600080fd5b600160a060020a03919091166000908152600260205260409020805460ff1916911515919091179055565b6000610acf8833898989611979565b1515610ada57600080fd5b600a546040805160e060020a632dff0d0d028152600481018b90529051600160a060020a0390921691632dff0d0d9160248082019260009290919082900301818387803b158015610b2a57600080fd5b505af1158015610b3e573d6000803e3d6000fd5b505050506040513d6000823e601f3d908101601f19168201604052610140811015610b6857600080fd5b8151602083015160408401516060850151608086015160a087015160c088015160e08901805197999698959794969395929491939283019291640100000000811115610bb357600080fd5b82016020810184811115610bc657600080fd5b8151640100000000811182820187101715610be057600080fd5b50999b50610c039a503399508b98508e97508d96508c9550611544945050505050565b1515610c0e57600080fd5b600b54604080517f4c9e0913000000000000000000000000000000000000000000000000000000008152600481018b90529051600160a060020a0390921691634c9e0913916024808201926020929091908290030181600087803b158015610c7557600080fd5b505af1158015610c89573d6000803e3d6000fd5b505050506040513d6020811015610c9f57600080fd5b50511515610cac57600080fd5b5050505050505050565b6000546001546040805160e260020a633d9abf2b028152336004820152600160a060020a0393841660248201529290911660448301525173__AOLibrary_____________________________9163f66afcac916064808301926020929190829003018186803b158015610d2857600080fd5b505af4158015610d3c573d6000803e3d6000fd5b505050506040513d6020811015610d5257600080fd5b50511515610d5f57600080fd5b600160a060020a0381161515610d7457600080fd5b60018054600160a060020a031916600160a060020a0392909216919091179055565b6000908152600d60205260408120541190565b600454600160a060020a031681565b6000818152600d6020526040812054819081908110610dd657600080fd5b6000848152600d60209081526040808320548352600c82528083206001015460095482517f5c36901c000000000000000000000000000000000000000000000000000000008152600481018390529251919650600160a060020a031693635c36901c93602480850194919392918390030190829087803b158015610e5957600080fd5b505af1158015610e6d573d6000803e3d6000fd5b505050506040513d6020811015610e8357600080fd5b50511515610e9057600080fd5b506000838152600d60209081526040808320548352600c82528083206002015460085482517f65cf0ace0000000000000000000000000000000000000000000000000000000081526004810183905292519194600160a060020a03909116936365cf0ace936024808201949293918390030190829087803b158015610f1457600080fd5b505af1158015610f28573d6000803e3d6000fd5b505050506040513d6020811015610f3e57600080fd5b505115610f4e5760009250610fd6565b604080517fa9e3fd27000000000000000000000000000000000000000000000000000000008152600481018690529051309163a9e3fd279160248083019260209291908290030181600087803b158015610fa757600080fd5b505af1158015610fbb573d6000803e3d6000fd5b505050506040513d6020811015610fd157600080fd5b505192505b5050919050565b6000546001546040805160e260020a633d9abf2b028152336004820152600160a060020a0393841660248201529290911660448301525173__AOLibrary_____________________________9163f66afcac916064808301926020929190829003018186803b15801561104f57600080fd5b505af4158015611063573d6000803e3d6000fd5b505050506040513d602081101561107957600080fd5b5051151561108657600080fd5b600160a060020a038116151561109b57600080fd5b60048054600160a060020a03909216600160a060020a0319928316811790915560088054909216179055565b600754600160a060020a031681565b60026020526000908152604090205460ff1681565b600054600160a060020a031681565b6000818152600d6020526040812054819081908190811061111a57600080fd5b6000858152600d60209081526040808320548352600c82528083206001015460095482517f5c36901c000000000000000000000000000000000000000000000000000000008152600481018390529251919750600160a060020a031693635c36901c93602480850194919392918390030190829087803b15801561119d57600080fd5b505af11580156111b1573d6000803e3d6000fd5b505050506040513d60208110156111c757600080fd5b505115156111d457600080fd5b6009546040805160e060020a632dff0d0d028152600481018690529051600160a060020a0390921691632dff0d0d91602480820192610100929091908290030181600087803b15801561122657600080fd5b505af115801561123a573d6000803e3d6000fd5b505050506040513d61010081101561125157600080fd5b5060408101516060909101519092509050611272828263ffffffff611a3416565b95945050505050565b6000546001546040805160e260020a633d9abf2b028152336004820152600160a060020a0393841660248201529290911660448301525173__AOLibrary_____________________________9163f66afcac916064808301926020929190829003018186803b1580156112ed57600080fd5b505af4158015611301573d6000803e3d6000fd5b505050506040513d602081101561131757600080fd5b5051151561132457600080fd5b600160a060020a038116151561133957600080fd5b60068054600160a060020a03909216600160a060020a03199283168117909155600a8054909216179055565b6000546001546040805160e260020a633d9abf2b028152336004820152600160a060020a0393841660248201529290911660448301525173__AOLibrary_____________________________9163f66afcac916064808301926020929190829003018186803b1580156113d757600080fd5b505af41580156113eb573d6000803e3d6000fd5b505050506040513d602081101561140157600080fd5b5051151561140e57600080fd5b600160a060020a038116151561142357600080fd5b60078054600160a060020a03909216600160a060020a03199283168117909155600b8054909216179055565b60035481565b600654600160a060020a031681565b6000546001546040805160e260020a633d9abf2b028152336004820152600160a060020a0393841660248201529290911660448301525173__AOLibrary_____________________________9163f66afcac916064808301926020929190829003018186803b1580156114d657600080fd5b505af41580156114ea573d6000803e3d6000fd5b505050506040513d602081101561150057600080fd5b5051151561150d57600080fd5b600160a060020a038116151561152257600080fd5b60008054600160a060020a031916600160a060020a0392909216919091179055565b6000808080600160a060020a038916151561155e57600080fd5b865160001061156c57600080fd5b855160001061157a57600080fd5b845160001061158857600080fd5b600954604080517f5c36901c000000000000000000000000000000000000000000000000000000008152600481018b90529051600160a060020a0390921691635c36901c916024808201926020929091908290030181600087803b1580156115ef57600080fd5b505af1158015611603573d6000803e3d6000fd5b505050506040513d602081101561161957600080fd5b5051151561162657600080fd5b600380546001019055604080516c01000000000000000000000000308102602080840191909152600160a060020a038d16909102603483015260488083018c905283518084039091018152606890920192839052815191929182918401908083835b602083106116a75780518252601f199092019160209182019101611688565b51815160209384036101000a60001901801990921691161790526040805192909401829003909120600380546000908152600c909352939091209283015490975091955050600160a060020a0316159150611703905057600080fd5b6009546040805160e060020a632dff0d0d028152600481018b90529051600160a060020a0390921691632dff0d0d91602480820192610100929091908290030181600087803b15801561175557600080fd5b505af1158015611769573d6000803e3d6000fd5b505050506040513d61010081101561178057600080fd5b50518383556001830189905560028301819055600383018054600160a060020a031916600160a060020a038c1617905587519091506117c890600484019060208a0190611dfe565b5085516117de9060058401906020890190611dfe565b5084516117f49060068401906020880190611dfe565b50600380546000858152600d6020908152604091829020929092558454928501546001808701546002808901548551838152968701819052608095870186815260058b01805495861615610100026000190190951692909204958701869052600160a060020a03909416957f3822dc82485ad7da8362b68055846011a5882496620bcc8e725a6f810591eb10959294939260068b019290606083019060a0840190869080156118e45780601f106118b9576101008083540402835291602001916118e4565b820191906000526020600020905b8154815290600101906020018083116118c757829003601f168201915b50508381038252845460026000196101006001841615020190911604808252602090910190859080156119585780601f1061192d57610100808354040283529160200191611958565b820191906000526020600020905b81548152906001019060200180831161193b57829003601f168201915b5050965050505050505060405180910390a350600198975050505050505050565b600a54604080517f0671084200000000000000000000000000000000000000000000000000000000815260048101889052600160a060020a0387811660248301529151600093929092169163067108429160448082019260209290919082900301818787803b1580156119eb57600080fd5b505af11580156119ff573d6000803e3d6000fd5b505050506040513d6020811015611a1557600080fd5b50518015611a2a5750611a2a86858585611a47565b9695505050505050565b81810182811015611a4157fe5b92915050565b600a546040805160e060020a632dff0d0d028152600481018790529051600092839283928392600160a060020a031691632dff0d0d916024808301928692919082900301818387803b158015611a9c57600080fd5b505af1158015611ab0573d6000803e3d6000fd5b505050506040513d6000823e601f3d908101601f19168201604052610140811015611ada57600080fd5b8151602083015160408401516060850151608086015160a087015160c088015160e08901805197999698959794969395929491939283019291640100000000811115611b2557600080fd5b82016020810184811115611b3857600080fd5b8151640100000000811182820187101715611b5257600080fd5b50505060200151600854604080517f3486d8f6000000000000000000000000000000000000000000000000000000008152600481018b90529051999e50919c50309a50600160a060020a03169850633486d8f69760248083019850600097509095509085900301925083915084905087803b158015611bd057600080fd5b505af1158015611be4573d6000803e3d6000fd5b505050506040513d6000823e601f3d908101601f191682016040526020811015611c0d57600080fd5b810190808051640100000000811115611c2557600080fd5b82016020810184811115611c3857600080fd5b8151640100000000811182820187101715611c5257600080fd5b50509291905050506040516020018083600160a060020a0316600160a060020a03166c0100000000000000000000000002815260140182805190602001908083835b60208310611cb35780518252601f199092019160209182019101611c94565b6001836020036101000a038019825116818451168082178552505050505050905001925050506040516020818303038152906040526040518082805190602001908083835b60208310611d175780518252601f199092019160209182019101611cf8565b51815160209384036101000a600019018019909216911617905260408051929094018290038220600080845283830180875282905260ff8f1684870152606084018e9052608084018d90529451909750600160a060020a03891696506001955060a080840195929450601f198201938290030191865af1158015611d9f573d6000803e3d6000fd5b50505060206040510351600160a060020a0316149350505050949350505050565b6040805160e0810182526000808252602082018190529181018290526060808201929092526080810182905260a0810182905260c081019190915290565b828054600181600116156101000203166002900490600052602060002090601f016020900481019282601f10611e3f57805160ff1916838001178555611e6c565b82800160010185558215611e6c579182015b82811115611e6c578251825591602001919060010190611e51565b50611e78929150611e7c565b5090565b611e9691905b80821115611e785760008155600101611e82565b905600a165627a7a7230582012bb945f27b8fed12ae5a24e5ebda504b24680e37e8ac593c759f66295996c320029",
	"source": "pragma solidity ^0.4.24;\n\nimport './SafeMath.sol';\nimport './AOLibrary.sol';\nimport './TheAO.sol';\nimport './IAOContentHost.sol';\nimport './IAOContent.sol';\nimport './IAOStakedContent.sol';\nimport './IAOPurchaseReceipt.sol';\nimport './IAOEarning.sol';\n\n/**\n * @title AOContentHost\n */\ncontract AOContentHost is TheAO, IAOContentHost {\n\tusing SafeMath for uint256;\n\n\tuint256 public totalContentHosts;\n\taddress public aoContentAddress;\n\taddress public aoStakedContentAddress;\n\taddress public aoPurchaseReceiptAddress;\n\taddress public aoEarningAddress;\n\n\tIAOContent internal _aoContent;\n\tIAOStakedContent internal _aoStakedContent;\n\tIAOPurchaseReceipt internal _aoPurchaseReceipt;\n\tIAOEarning internal _aoEarning;\n\n\tstruct ContentHost {\n\t\tbytes32 contentHostId;\n\t\tbytes32 stakedContentId;\n\t\tbytes32 contentId;\n\t\taddress host;\n\t\t/**\n\t\t * encChallenge is the content's PUBLIC KEY unique to the host\n\t\t */\n\t\tstring encChallenge;\n\t\tstring contentDatKey;\n\t\tstring metadataDatKey;\n\t}\n\n\t// Mapping from ContentHost index to the ContentHost object\n\tmapping (uint256 => ContentHost) internal contentHosts;\n\n\t// Mapping from content host ID to index of the contentHosts list\n\tmapping (bytes32 => uint256) internal contentHostIndex;\n\n\t// Event to be broadcasted to public when a node hosts a content\n\tevent HostContent(address indexed host, bytes32 indexed contentHostId, bytes32 stakedContentId, bytes32 contentId, string contentDatKey, string metadataDatKey);\n\n\t/**\n\t * @dev Constructor function\n\t * @param _aoContentAddress The address of AOContent\n\t * @param _aoStakedContentAddress The address of AOStakedContent\n\t * @param _aoPurchaseReceiptAddress The address of AOPurchaseReceipt\n\t * @param _aoEarningAddress The address of AOEarning\n\t * @param _nameTAOPositionAddress The address of NameTAOPosition\n\t */\n\tconstructor(address _aoContentAddress, address _aoStakedContentAddress, address _aoPurchaseReceiptAddress, address _aoEarningAddress, address _nameTAOPositionAddress) public {\n\t\tsetAOContentAddress(_aoContentAddress);\n\t\tsetAOStakedContentAddress(_aoStakedContentAddress);\n\t\tsetAOPurchaseReceiptAddress(_aoPurchaseReceiptAddress);\n\t\tsetAOEarningAddress(_aoEarningAddress);\n\t\tsetNameTAOPositionAddress(_nameTAOPositionAddress);\n\t}\n\n\t/**\n\t * @dev Checks if the calling contract address is The AO\n\t *\t\tOR\n\t *\t\tIf The AO is set to a Name/TAO, then check if calling address is the Advocate\n\t */\n\tmodifier onlyTheAO {\n\t\trequire (AOLibrary.isTheAO(msg.sender, theAO, nameTAOPositionAddress));\n\t\t_;\n\t}\n\n\t/***** The AO ONLY METHODS *****/\n\t/**\n\t * @dev Transfer ownership of The AO to new address\n\t * @param _theAO The new address to be transferred\n\t */\n\tfunction transferOwnership(address _theAO) public onlyTheAO {\n\t\trequire (_theAO != address(0));\n\t\ttheAO = _theAO;\n\t}\n\n\t/**\n\t * @dev Whitelist `_account` address to transact on behalf of others\n\t * @param _account The address to whitelist\n\t * @param _whitelist Either to whitelist or not\n\t */\n\tfunction setWhitelist(address _account, bool _whitelist) public onlyTheAO {\n\t\trequire (_account != address(0));\n\t\twhitelist[_account] = _whitelist;\n\t}\n\n\t/**\n\t * @dev The AO sets AOContent address\n\t * @param _aoContentAddress The address of AOContent\n\t */\n\tfunction setAOContentAddress(address _aoContentAddress) public onlyTheAO {\n\t\trequire (_aoContentAddress != address(0));\n\t\taoContentAddress = _aoContentAddress;\n\t\t_aoContent = IAOContent(_aoContentAddress);\n\t}\n\n\t/**\n\t * @dev The AO sets AOStakedContent address\n\t * @param _aoStakedContentAddress The address of AOStakedContent\n\t */\n\tfunction setAOStakedContentAddress(address _aoStakedContentAddress) public onlyTheAO {\n\t\trequire (_aoStakedContentAddress != address(0));\n\t\taoStakedContentAddress = _aoStakedContentAddress;\n\t\t_aoStakedContent = IAOStakedContent(_aoStakedContentAddress);\n\t}\n\n\t/**\n\t * @dev The AO sets AOPurchaseReceipt address\n\t * @param _aoPurchaseReceiptAddress The address of AOPurchaseReceipt\n\t */\n\tfunction setAOPurchaseReceiptAddress(address _aoPurchaseReceiptAddress) public onlyTheAO {\n\t\trequire (_aoPurchaseReceiptAddress != address(0));\n\t\taoPurchaseReceiptAddress = _aoPurchaseReceiptAddress;\n\t\t_aoPurchaseReceipt = IAOPurchaseReceipt(_aoPurchaseReceiptAddress);\n\t}\n\n\t/**\n\t * @dev The AO sets AOEarning address\n\t * @param _aoEarningAddress The address of AOEarning\n\t */\n\tfunction setAOEarningAddress(address _aoEarningAddress) public onlyTheAO {\n\t\trequire (_aoEarningAddress != address(0));\n\t\taoEarningAddress = _aoEarningAddress;\n\t\t_aoEarning = IAOEarning(_aoEarningAddress);\n\t}\n\n\t/**\n\t * @dev The AO sets NameTAOPosition address\n\t * @param _nameTAOPositionAddress The address of NameTAOPosition\n\t */\n\tfunction setNameTAOPositionAddress(address _nameTAOPositionAddress) public onlyTheAO {\n\t\trequire (_nameTAOPositionAddress != address(0));\n\t\tnameTAOPositionAddress = _nameTAOPositionAddress;\n\t}\n\n\t/***** PUBLIC METHODS *****/\n\t/**\n\t * @dev Add the distribution node info that hosts the content\n\t * @param _host the address of the host\n\t * @param _stakedContentId The ID of the staked content\n\t * @param _encChallenge The encrypted challenge string (PUBLIC KEY) of the content unique to the host\n\t * @param _contentDatKey The dat key of the content\n\t * @param _metadataDatKey The dat key of the content's metadata\n\t * @return true on success\n\t */\n\tfunction create(address _host, bytes32 _stakedContentId, string _encChallenge, string _contentDatKey, string _metadataDatKey) external inWhitelist returns (bool) {\n\t\trequire (_create(_host, _stakedContentId, _encChallenge, _contentDatKey, _metadataDatKey));\n\t\treturn true;\n\t}\n\n\t/**\n\t * @dev Return content host info at a given ID\n\t * @param _contentHostId The ID of the hosted content\n\t * @return The ID of the staked content\n\t * @return The ID of the content\n\t * @return address of the host\n\t * @return the dat key of the content\n\t * @return the dat key of the content's metadata\n\t */\n\tfunction getById(bytes32 _contentHostId) external view returns (bytes32, bytes32, address, string, string) {\n\t\t// Make sure the content host exist\n\t\trequire (contentHostIndex[_contentHostId] > 0);\n\t\tContentHost memory _contentHost = contentHosts[contentHostIndex[_contentHostId]];\n\t\treturn (\n\t\t\t_contentHost.stakedContentId,\n\t\t\t_contentHost.contentId,\n\t\t\t_contentHost.host,\n\t\t\t_contentHost.contentDatKey,\n\t\t\t_contentHost.metadataDatKey\n\t\t);\n\t}\n\n\t/**\n\t * @dev Determine the content price hosted by a host\n\t * @param _contentHostId The content host ID to be checked\n\t * @return the price of the content\n\t */\n\tfunction contentHostPrice(bytes32 _contentHostId) external view returns (uint256) {\n\t\t// Make sure content host exist\n\t\trequire (contentHostIndex[_contentHostId] > 0);\n\n\t\tbytes32 _stakedContentId = contentHosts[contentHostIndex[_contentHostId]].stakedContentId;\n\t\trequire (_aoStakedContent.isActive(_stakedContentId));\n\n\t\t(,,uint256 _networkAmount, uint256 _primordialAmount,,,,) = _aoStakedContent.getById(_stakedContentId);\n\t\treturn _networkAmount.add(_primordialAmount);\n\t}\n\n\t/**\n\t * @dev Determine the how much the content is paid by AO given a contentHostId\n\t * @param _contentHostId The content host ID to be checked\n\t * @return the amount paid by AO\n\t */\n\tfunction contentHostPaidByAO(bytes32 _contentHostId) external view returns (uint256) {\n\t\t// Make sure content host exist\n\t\trequire (contentHostIndex[_contentHostId] > 0);\n\n\t\tbytes32 _stakedContentId = contentHosts[contentHostIndex[_contentHostId]].stakedContentId;\n\t\trequire (_aoStakedContent.isActive(_stakedContentId));\n\n\t\tbytes32 _contentId = contentHosts[contentHostIndex[_contentHostId]].contentId;\n\t\tif (_aoContent.isAOContentUsageType(_contentId)) {\n\t\t\treturn 0;\n\t\t} else {\n\t\t\treturn this.contentHostPrice(_contentHostId);\n\t\t}\n\t}\n\n\t/**\n\t * @dev Check whether or not a contentHostId exist\n\t * @param _contentHostId The content host ID to be checked\n\t * @return true if yes, false otherwise\n\t */\n\tfunction isExist(bytes32 _contentHostId) external view returns (bool) {\n\t\treturn (contentHostIndex[_contentHostId] > 0);\n\t}\n\n\t/**\n\t * @dev Request node wants to become a distribution node after buying the content\n\t *\t\tAlso, if this transaction succeeds, contract will release all of the earnings that are\n\t *\t\tcurrently in escrow for content creator/host/The AO\n\t * @param _purchaseReceiptId The ID of the Purchase Receipt\n\t * @param _baseChallengeV The V part of signature when signing the base challenge\n\t * @param _baseChallengeR The R part of signature when signing the base challenge\n\t * @param _baseChallengeS The S part of signature when signing the base challenge\n\t * @param _encChallenge The encrypted challenge string (PUBLIC KEY) of the content unique to the host\n\t * @param _contentDatKey The dat key of the content\n\t * @param _metadataDatKey The dat key of the content's metadata\n\t */\n\tfunction becomeHost(\n\t\tbytes32 _purchaseReceiptId,\n\t\tuint8 _baseChallengeV,\n\t\tbytes32 _baseChallengeR,\n\t\tbytes32 _baseChallengeS,\n\t\tstring _encChallenge,\n\t\tstring _contentDatKey,\n\t\tstring _metadataDatKey\n\t) public {\n\t\trequire (_canBecomeHost(_purchaseReceiptId, msg.sender, _baseChallengeV, _baseChallengeR, _baseChallengeS));\n\n\t\t(, bytes32 _stakedContentId,,,,,,,,) = _aoPurchaseReceipt.getById(_purchaseReceiptId);\n\n\t\trequire (_create(msg.sender, _stakedContentId, _encChallenge, _contentDatKey, _metadataDatKey));\n\n\t\t// Release earning from escrow\n\t\trequire (_aoEarning.releaseEarning(_purchaseReceiptId));\n\t}\n\n\t/***** INTERNAL METHODS *****/\n\t/**\n\t * @dev Actual add the distribution node info that hosts the content\n\t * @param _host the address of the host\n\t * @param _stakedContentId The ID of the staked content\n\t * @param _encChallenge The encrypted challenge string (PUBLIC KEY) of the content unique to the host\n\t * @param _contentDatKey The dat key of the content\n\t * @param _metadataDatKey The dat key of the content's metadata\n\t * @return true on success\n\t */\n\tfunction _create(address _host, bytes32 _stakedContentId, string _encChallenge, string _contentDatKey, string _metadataDatKey) internal returns (bool) {\n\t\trequire (_host != address(0));\n\t\trequire (bytes(_encChallenge).length > 0);\n\t\trequire (bytes(_contentDatKey).length > 0);\n\t\trequire (bytes(_metadataDatKey).length > 0);\n\t\trequire (_aoStakedContent.isActive(_stakedContentId));\n\n\t\t// Increment totalContentHosts\n\t\ttotalContentHosts++;\n\n\t\t// Generate contentId\n\t\tbytes32 _contentHostId = keccak256(abi.encodePacked(this, _host, _stakedContentId));\n\n\t\tContentHost storage _contentHost = contentHosts[totalContentHosts];\n\n\t\t// Make sure the node doesn't host the same content twice\n\t\trequire (_contentHost.host == address(0));\n\n\t\t(bytes32 _contentId,,,,,,,) = _aoStakedContent.getById(_stakedContentId);\n\n\t\t_contentHost.contentHostId = _contentHostId;\n\t\t_contentHost.stakedContentId = _stakedContentId;\n\t\t_contentHost.contentId = _contentId;\n\t\t_contentHost.host = _host;\n\t\t_contentHost.encChallenge = _encChallenge;\n\t\t_contentHost.contentDatKey = _contentDatKey;\n\t\t_contentHost.metadataDatKey = _metadataDatKey;\n\n\t\tcontentHostIndex[_contentHostId] = totalContentHosts;\n\n\t\temit HostContent(_contentHost.host, _contentHost.contentHostId, _contentHost.stakedContentId, _contentHost.contentId, _contentHost.contentDatKey, _contentHost.metadataDatKey);\n\t\treturn true;\n\t}\n\n\t/**\n\t * @dev Check whether or not the passed params are valid\n\t * @param _purchaseReceiptId The ID of the Purchase Receipt\n\t * @param _sender The address of the sender\n\t * @param _baseChallengeV The V part of signature when signing the base challenge\n\t * @param _baseChallengeR The R part of signature when signing the base challenge\n\t * @param _baseChallengeS The S part of signature when signing the base challenge\n\t * @return true if yes, false otherwise\n\t */\n\tfunction _canBecomeHost(bytes32 _purchaseReceiptId, address _sender, uint8 _baseChallengeV, bytes32 _baseChallengeR, bytes32 _baseChallengeS) internal view returns (bool) {\n\t\t// Make sure the purchase receipt owner is the same as the sender\n\t\treturn (_aoPurchaseReceipt.senderIsBuyer(_purchaseReceiptId, _sender) &&\n\t\t\t_verifyBecomeHostSignature(_purchaseReceiptId, _baseChallengeV, _baseChallengeR, _baseChallengeS)\n\t\t);\n\t}\n\n\t/**\n\t * @dev Verify the become host signature\n\t * @param _purchaseReceiptId The ID of the purchase receipt\n\t * @param _v part of the signature\n\t * @param _r part of the signature\n\t * @param _s part of the signature\n\t * @return true if valid, false otherwise\n\t */\n\tfunction _verifyBecomeHostSignature(bytes32 _purchaseReceiptId, uint8 _v, bytes32 _r, bytes32 _s) internal view returns (bool) {\n\t\t(,, bytes32 _contentId,,,,,, address _publicAddress,) = _aoPurchaseReceipt.getById(_purchaseReceiptId);\n\n\t\tbytes32 _hash = keccak256(abi.encodePacked(address(this), _aoContent.getBaseChallenge(_contentId)));\n\t\treturn (ecrecover(_hash, _v, _r, _s) == _publicAddress);\n\t}\n}\n",
	"sourcePath": "/Users/johanmulyono/Work/AO/ao-contracts/contracts/AOContentHost.sol",
	"compiler": {
		"name": "solc",
		"version": "0.4.24+commit.e67f0147.Emscripten.clang"
	},
	"schemaVersion": "2.0.1",
	"updatedAt": "2019-02-20T07:37:59.450Z"
}