{
	"contractName": "AOContentFactory",
	"abi": [
		{
			"constant": true,
			"inputs": [],
			"name": "aoStakedContentAddress",
			"outputs": [
				{
					"name": "",
					"type": "address"
				}
			],
			"payable": false,
			"stateMutability": "view",
			"type": "function"
		},
		{
			"constant": true,
			"inputs": [],
			"name": "aoSettingAddress",
			"outputs": [
				{
					"name": "",
					"type": "address"
				}
			],
			"payable": false,
			"stateMutability": "view",
			"type": "function"
		},
		{
			"constant": true,
			"inputs": [],
			"name": "nameTAOPositionAddress",
			"outputs": [
				{
					"name": "",
					"type": "address"
				}
			],
			"payable": false,
			"stateMutability": "view",
			"type": "function"
		},
		{
			"constant": true,
			"inputs": [],
			"name": "aoTreasuryAddress",
			"outputs": [
				{
					"name": "",
					"type": "address"
				}
			],
			"payable": false,
			"stateMutability": "view",
			"type": "function"
		},
		{
			"constant": true,
			"inputs": [],
			"name": "aoContentAddress",
			"outputs": [
				{
					"name": "",
					"type": "address"
				}
			],
			"payable": false,
			"stateMutability": "view",
			"type": "function"
		},
		{
			"constant": true,
			"inputs": [],
			"name": "aoEarningAddress",
			"outputs": [
				{
					"name": "",
					"type": "address"
				}
			],
			"payable": false,
			"stateMutability": "view",
			"type": "function"
		},
		{
			"constant": true,
			"inputs": [],
			"name": "aoContentHostAddress",
			"outputs": [
				{
					"name": "",
					"type": "address"
				}
			],
			"payable": false,
			"stateMutability": "view",
			"type": "function"
		},
		{
			"constant": true,
			"inputs": [
				{
					"name": "",
					"type": "address"
				}
			],
			"name": "whitelist",
			"outputs": [
				{
					"name": "",
					"type": "bool"
				}
			],
			"payable": false,
			"stateMutability": "view",
			"type": "function"
		},
		{
			"constant": true,
			"inputs": [],
			"name": "theAO",
			"outputs": [
				{
					"name": "",
					"type": "address"
				}
			],
			"payable": false,
			"stateMutability": "view",
			"type": "function"
		},
		{
			"constant": true,
			"inputs": [],
			"name": "settingTAOId",
			"outputs": [
				{
					"name": "",
					"type": "address"
				}
			],
			"payable": false,
			"stateMutability": "view",
			"type": "function"
		},
		{
			"inputs": [
				{
					"name": "_settingTAOId",
					"type": "address"
				},
				{
					"name": "_aoSettingAddress",
					"type": "address"
				},
				{
					"name": "_aoTreasuryAddress",
					"type": "address"
				},
				{
					"name": "_aoContentAddress",
					"type": "address"
				},
				{
					"name": "_aoStakedContentAddress",
					"type": "address"
				},
				{
					"name": "_aoContentHostAddress",
					"type": "address"
				},
				{
					"name": "_aoEarningAddress",
					"type": "address"
				},
				{
					"name": "_nameTAOPositionAddress",
					"type": "address"
				}
			],
			"payable": false,
			"stateMutability": "nonpayable",
			"type": "constructor"
		},
		{
			"constant": false,
			"inputs": [
				{
					"name": "_theAO",
					"type": "address"
				}
			],
			"name": "transferOwnership",
			"outputs": [],
			"payable": false,
			"stateMutability": "nonpayable",
			"type": "function"
		},
		{
			"constant": false,
			"inputs": [
				{
					"name": "_account",
					"type": "address"
				},
				{
					"name": "_whitelist",
					"type": "bool"
				}
			],
			"name": "setWhitelist",
			"outputs": [],
			"payable": false,
			"stateMutability": "nonpayable",
			"type": "function"
		},
		{
			"constant": false,
			"inputs": [
				{
					"name": "_settingTAOId",
					"type": "address"
				}
			],
			"name": "setSettingTAOId",
			"outputs": [],
			"payable": false,
			"stateMutability": "nonpayable",
			"type": "function"
		},
		{
			"constant": false,
			"inputs": [
				{
					"name": "_aoSettingAddress",
					"type": "address"
				}
			],
			"name": "setAOSettingAddress",
			"outputs": [],
			"payable": false,
			"stateMutability": "nonpayable",
			"type": "function"
		},
		{
			"constant": false,
			"inputs": [
				{
					"name": "_aoTreasuryAddress",
					"type": "address"
				}
			],
			"name": "setAOTreasuryAddress",
			"outputs": [],
			"payable": false,
			"stateMutability": "nonpayable",
			"type": "function"
		},
		{
			"constant": false,
			"inputs": [
				{
					"name": "_aoContentAddress",
					"type": "address"
				}
			],
			"name": "setAOContentAddress",
			"outputs": [],
			"payable": false,
			"stateMutability": "nonpayable",
			"type": "function"
		},
		{
			"constant": false,
			"inputs": [
				{
					"name": "_aoStakedContentAddress",
					"type": "address"
				}
			],
			"name": "setAOStakedContentAddress",
			"outputs": [],
			"payable": false,
			"stateMutability": "nonpayable",
			"type": "function"
		},
		{
			"constant": false,
			"inputs": [
				{
					"name": "_aoContentHostAddress",
					"type": "address"
				}
			],
			"name": "setAOContentHostAddress",
			"outputs": [],
			"payable": false,
			"stateMutability": "nonpayable",
			"type": "function"
		},
		{
			"constant": false,
			"inputs": [
				{
					"name": "_aoEarningAddress",
					"type": "address"
				}
			],
			"name": "setAOEarningAddress",
			"outputs": [],
			"payable": false,
			"stateMutability": "nonpayable",
			"type": "function"
		},
		{
			"constant": false,
			"inputs": [
				{
					"name": "_nameTAOPositionAddress",
					"type": "address"
				}
			],
			"name": "setNameTAOPositionAddress",
			"outputs": [],
			"payable": false,
			"stateMutability": "nonpayable",
			"type": "function"
		},
		{
			"constant": false,
			"inputs": [
				{
					"name": "_networkIntegerAmount",
					"type": "uint256"
				},
				{
					"name": "_networkFractionAmount",
					"type": "uint256"
				},
				{
					"name": "_denomination",
					"type": "bytes8"
				},
				{
					"name": "_primordialAmount",
					"type": "uint256"
				},
				{
					"name": "_baseChallenge",
					"type": "string"
				},
				{
					"name": "_encChallenge",
					"type": "string"
				},
				{
					"name": "_contentDatKey",
					"type": "string"
				},
				{
					"name": "_metadataDatKey",
					"type": "string"
				},
				{
					"name": "_fileSize",
					"type": "uint256"
				},
				{
					"name": "_profitPercentage",
					"type": "uint256"
				}
			],
			"name": "stakeAOContent",
			"outputs": [],
			"payable": false,
			"stateMutability": "nonpayable",
			"type": "function"
		},
		{
			"constant": false,
			"inputs": [
				{
					"name": "_networkIntegerAmount",
					"type": "uint256"
				},
				{
					"name": "_networkFractionAmount",
					"type": "uint256"
				},
				{
					"name": "_denomination",
					"type": "bytes8"
				},
				{
					"name": "_primordialAmount",
					"type": "uint256"
				},
				{
					"name": "_baseChallenge",
					"type": "string"
				},
				{
					"name": "_encChallenge",
					"type": "string"
				},
				{
					"name": "_contentDatKey",
					"type": "string"
				},
				{
					"name": "_metadataDatKey",
					"type": "string"
				},
				{
					"name": "_fileSize",
					"type": "uint256"
				}
			],
			"name": "stakeCreativeCommonsContent",
			"outputs": [],
			"payable": false,
			"stateMutability": "nonpayable",
			"type": "function"
		},
		{
			"constant": false,
			"inputs": [
				{
					"name": "_networkIntegerAmount",
					"type": "uint256"
				},
				{
					"name": "_networkFractionAmount",
					"type": "uint256"
				},
				{
					"name": "_denomination",
					"type": "bytes8"
				},
				{
					"name": "_primordialAmount",
					"type": "uint256"
				},
				{
					"name": "_baseChallenge",
					"type": "string"
				},
				{
					"name": "_encChallenge",
					"type": "string"
				},
				{
					"name": "_contentDatKey",
					"type": "string"
				},
				{
					"name": "_metadataDatKey",
					"type": "string"
				},
				{
					"name": "_fileSize",
					"type": "uint256"
				},
				{
					"name": "_taoId",
					"type": "address"
				}
			],
			"name": "stakeTAOContent",
			"outputs": [],
			"payable": false,
			"stateMutability": "nonpayable",
			"type": "function"
		},
		{
			"constant": true,
			"inputs": [
				{
					"name": "_stakedContentId",
					"type": "bytes32"
				}
			],
			"name": "getStakingMetrics",
			"outputs": [
				{
					"name": "",
					"type": "uint256"
				},
				{
					"name": "",
					"type": "uint256"
				},
				{
					"name": "",
					"type": "uint256"
				}
			],
			"payable": false,
			"stateMutability": "view",
			"type": "function"
		},
		{
			"constant": true,
			"inputs": [
				{
					"name": "_stakedContentId",
					"type": "bytes32"
				}
			],
			"name": "getEarningMetrics",
			"outputs": [
				{
					"name": "",
					"type": "uint256"
				},
				{
					"name": "",
					"type": "uint256"
				},
				{
					"name": "",
					"type": "uint256"
				}
			],
			"payable": false,
			"stateMutability": "view",
			"type": "function"
		},
		{
			"constant": true,
			"inputs": [
				{
					"name": "_stakedContentId",
					"type": "bytes32"
				}
			],
			"name": "getContentMetrics",
			"outputs": [
				{
					"name": "",
					"type": "uint256"
				},
				{
					"name": "",
					"type": "uint256"
				},
				{
					"name": "",
					"type": "uint256"
				},
				{
					"name": "",
					"type": "uint256"
				},
				{
					"name": "",
					"type": "uint256"
				},
				{
					"name": "",
					"type": "uint256"
				}
			],
			"payable": false,
			"stateMutability": "view",
			"type": "function"
		}
	],
	"bytecode": "0x60806040523480156200001157600080fd5b50604051610100806200254383398101604090815281516020830151918301516060840151608085015160a086015160c087015160e09097015160008054600160a060020a0319163317905594969394929391929091906200007c8864010000000062000116810204565b6200009087640100000000620002a9810204565b620000a486640100000000620003ae810204565b620000b885640100000000620004b3810204565b620000cc84640100000000620005b8810204565b620000e083640100000000620006bd810204565b620000f482640100000000620007c2810204565b6200010881640100000000620008c7810204565b5050505050505050620009cc565b600054600154604080517ff66afcac000000000000000000000000000000000000000000000000000000008152336004820152600160a060020a0393841660248201529290911660448301525173__AOLibrary_____________________________9163f66afcac916064808301926020929190829003018186803b1580156200019f57600080fd5b505af4158015620001b4573d6000803e3d6000fd5b505050506040513d6020811015620001cb57600080fd5b50511515620001d957600080fd5b604080517f2fca5414000000000000000000000000000000000000000000000000000000008152600160a060020a0383166004820152905173__AOLibrary_____________________________91632fca5414916024808301926020929190829003018186803b1580156200024d57600080fd5b505af415801562000262573d6000803e3d6000fd5b505050506040513d60208110156200027957600080fd5b505115156200028757600080fd5b60038054600160a060020a031916600160a060020a0392909216919091179055565b600054600154604080517ff66afcac000000000000000000000000000000000000000000000000000000008152336004820152600160a060020a0393841660248201529290911660448301525173__AOLibrary_____________________________9163f66afcac916064808301926020929190829003018186803b1580156200033257600080fd5b505af415801562000347573d6000803e3d6000fd5b505050506040513d60208110156200035e57600080fd5b505115156200036c57600080fd5b600160a060020a03811615156200038257600080fd5b60048054600160a060020a03909216600160a060020a03199283168117909155600a8054909216179055565b600054600154604080517ff66afcac000000000000000000000000000000000000000000000000000000008152336004820152600160a060020a0393841660248201529290911660448301525173__AOLibrary_____________________________9163f66afcac916064808301926020929190829003018186803b1580156200043757600080fd5b505af41580156200044c573d6000803e3d6000fd5b505050506040513d60208110156200046357600080fd5b505115156200047157600080fd5b600160a060020a03811615156200048757600080fd5b60058054600160a060020a03909216600160a060020a03199283168117909155600b8054909216179055565b600054600154604080517ff66afcac000000000000000000000000000000000000000000000000000000008152336004820152600160a060020a0393841660248201529290911660448301525173__AOLibrary_____________________________9163f66afcac916064808301926020929190829003018186803b1580156200053c57600080fd5b505af415801562000551573d6000803e3d6000fd5b505050506040513d60208110156200056857600080fd5b505115156200057657600080fd5b600160a060020a03811615156200058c57600080fd5b60068054600160a060020a03909216600160a060020a03199283168117909155600c8054909216179055565b600054600154604080517ff66afcac000000000000000000000000000000000000000000000000000000008152336004820152600160a060020a0393841660248201529290911660448301525173__AOLibrary_____________________________9163f66afcac916064808301926020929190829003018186803b1580156200064157600080fd5b505af415801562000656573d6000803e3d6000fd5b505050506040513d60208110156200066d57600080fd5b505115156200067b57600080fd5b600160a060020a03811615156200069157600080fd5b60078054600160a060020a03909216600160a060020a03199283168117909155600d8054909216179055565b600054600154604080517ff66afcac000000000000000000000000000000000000000000000000000000008152336004820152600160a060020a0393841660248201529290911660448301525173__AOLibrary_____________________________9163f66afcac916064808301926020929190829003018186803b1580156200074657600080fd5b505af41580156200075b573d6000803e3d6000fd5b505050506040513d60208110156200077257600080fd5b505115156200078057600080fd5b600160a060020a03811615156200079657600080fd5b60088054600160a060020a03909216600160a060020a03199283168117909155600e8054909216179055565b600054600154604080517ff66afcac000000000000000000000000000000000000000000000000000000008152336004820152600160a060020a0393841660248201529290911660448301525173__AOLibrary_____________________________9163f66afcac916064808301926020929190829003018186803b1580156200084b57600080fd5b505af415801562000860573d6000803e3d6000fd5b505050506040513d60208110156200087757600080fd5b505115156200088557600080fd5b600160a060020a03811615156200089b57600080fd5b60098054600160a060020a03909216600160a060020a03199283168117909155600f8054909216179055565b600054600154604080517ff66afcac000000000000000000000000000000000000000000000000000000008152336004820152600160a060020a0393841660248201529290911660448301525173__AOLibrary_____________________________9163f66afcac916064808301926020929190829003018186803b1580156200095057600080fd5b505af415801562000965573d6000803e3d6000fd5b505050506040513d60208110156200097c57600080fd5b505115156200098a57600080fd5b600160a060020a0381161515620009a057600080fd5b60018054600160a060020a03909216600160a060020a0319928316811790915560108054909216179055565b611b6780620009dc6000396000f3006080604052600436106101535763ffffffff7c010000000000000000000000000000000000000000000000000000000060003504166306fd70888114610158578063078753ad1461017b57806307a8385e146101ac5780631d0138ff146101cd5780633c19df06146101e25780633e36144f146103245780634ef033f01461034557806353d6fd591461035a5780635cfaf2ef146103805780635f7b99ea146103a157806385cb86c8146103b657806389a83246146103cb5780638f629222146103ec57806395f04f27146104015780639b19251a14610416578063a9b6b38e1461044b578063b3a1863214610460578063b527c44e146105a9578063b606bd00146105df578063bb04e6081461062a578063c7061f9714610642578063cd5facb214610663578063d6830af314610684578063e7c50185146106a5578063e9140274146106ba578063f2fde38b1461080b575b600080fd5b34801561016457600080fd5b50610179600160a060020a036004351661082c565b005b34801561018757600080fd5b50610190610916565b60408051600160a060020a039092168252519081900360200190f35b3480156101b857600080fd5b50610179600160a060020a0360043516610925565b3480156101d957600080fd5b50610190610a0f565b3480156101ee57600080fd5b50604080516020601f60843560048181013592830184900484028501840190955281845261017994803594602480359577ffffffffffffffffffffffffffffffffffffffffffffffff1960443516956064359536959460a494909391019190819084018382808284375050604080516020601f89358b018035918201839004830284018301909452808352979a99988101979196509182019450925082915084018382808284375050604080516020601f89358b018035918201839004830284018301909452808352979a99988101979196509182019450925082915084018382808284375050604080516020601f89358b018035918201839004830284018301909452808352979a9998810197919650918201945092508291508401838280828437509497505093359450610a1e9350505050565b34801561033057600080fd5b50610179600160a060020a0360043516610a64565b34801561035157600080fd5b50610190610b4e565b34801561036657600080fd5b50610179600160a060020a03600435166024351515610b5d565b34801561038c57600080fd5b50610179600160a060020a0360043516610c46565b3480156103ad57600080fd5b50610190610d30565b3480156103c257600080fd5b50610190610d3f565b3480156103d757600080fd5b50610179600160a060020a0360043516610d4e565b3480156103f857600080fd5b50610190610e38565b34801561040d57600080fd5b50610190610e47565b34801561042257600080fd5b50610437600160a060020a0360043516610e56565b604080519115158252519081900360200190f35b34801561045757600080fd5b50610190610e6b565b34801561046c57600080fd5b50604080516020601f60843560048181013592830184900484028501840190955281845261017994803594602480359577ffffffffffffffffffffffffffffffffffffffffffffffff1960443516956064359536959460a494909391019190819084018382808284375050604080516020601f89358b018035918201839004830284018301909452808352979a99988101979196509182019450925082915084018382808284375050604080516020601f89358b018035918201839004830284018301909452808352979a99988101979196509182019450925082915084018382808284375050604080516020601f89358b018035918201839004830284018301909452808352979a999881019791965091820194509250829150840183828082843750949750508435955050506020909201359150610e7a9050565b3480156105b557600080fd5b506105c1600435610eb9565b60408051938452602084019290925282820152519081900360600190f35b3480156105eb57600080fd5b506105f7600435610f78565b604080519687526020870195909552858501939093526060850191909152608084015260a0830152519081900360c00190f35b34801561063657600080fd5b506105c1600435610fbb565b34801561064e57600080fd5b50610179600160a060020a036004351661106c565b34801561066f57600080fd5b50610179600160a060020a0360043516611156565b34801561069057600080fd5b50610179600160a060020a0360043516611240565b3480156106b157600080fd5b506101906113b5565b3480156106c657600080fd5b50604080516020601f60843560048181013592830184900484028501840190955281845261017994803594602480359577ffffffffffffffffffffffffffffffffffffffffffffffff1960443516956064359536959460a494909391019190819084018382808284375050604080516020601f89358b018035918201839004830284018301909452808352979a99988101979196509182019450925082915084018382808284375050604080516020601f89358b018035918201839004830284018301909452808352979a99988101979196509182019450925082915084018382808284375050604080516020601f89358b018035918201839004830284018301909452808352979a9998810197919650918201945092508291508401838280828437509497505084359550505050602090910135600160a060020a031690506113c4565b34801561081757600080fd5b50610179600160a060020a03600435166113eb565b6000546001546040805160e260020a633d9abf2b028152336004820152600160a060020a0393841660248201529290911660448301525173__AOLibrary_____________________________9163f66afcac916064808301926020929190829003018186803b15801561089e57600080fd5b505af41580156108b2573d6000803e3d6000fd5b505050506040513d60208110156108c857600080fd5b505115156108d557600080fd5b600160a060020a03811615156108ea57600080fd5b60048054600160a060020a03909216600160a060020a03199283168117909155600a8054909216179055565b600754600160a060020a031681565b6000546001546040805160e260020a633d9abf2b028152336004820152600160a060020a0393841660248201529290911660448301525173__AOLibrary_____________________________9163f66afcac916064808301926020929190829003018186803b15801561099757600080fd5b505af41580156109ab573d6000803e3d6000fd5b505050506040513d60208110156109c157600080fd5b505115156109ce57600080fd5b600160a060020a03811615156109e357600080fd5b60058054600160a060020a03909216600160a060020a03199283168117909155600b8054909216179055565b600454600160a060020a031681565b610a4e33610a4633610a3b338a87610a346114cb565b600061161a565b8d8d8d8d6000611743565b86868661182a565b1515610a5957600080fd5b505050505050505050565b6000546001546040805160e260020a633d9abf2b028152336004820152600160a060020a0393841660248201529290911660448301525173__AOLibrary_____________________________9163f66afcac916064808301926020929190829003018186803b158015610ad657600080fd5b505af4158015610aea573d6000803e3d6000fd5b505050506040513d6020811015610b0057600080fd5b50511515610b0d57600080fd5b600160a060020a0381161515610b2257600080fd5b60078054600160a060020a03909216600160a060020a03199283168117909155600d8054909216179055565b600154600160a060020a031681565b6000546001546040805160e260020a633d9abf2b028152336004820152600160a060020a0393841660248201529290911660448301525173__AOLibrary_____________________________9163f66afcac916064808301926020929190829003018186803b158015610bcf57600080fd5b505af4158015610be3573d6000803e3d6000fd5b505050506040513d6020811015610bf957600080fd5b50511515610c0657600080fd5b600160a060020a0382161515610c1b57600080fd5b600160a060020a03919091166000908152600260205260409020805460ff1916911515919091179055565b6000546001546040805160e260020a633d9abf2b028152336004820152600160a060020a0393841660248201529290911660448301525173__AOLibrary_____________________________9163f66afcac916064808301926020929190829003018186803b158015610cb857600080fd5b505af4158015610ccc573d6000803e3d6000fd5b505050506040513d6020811015610ce257600080fd5b50511515610cef57600080fd5b600160a060020a0381161515610d0457600080fd5b60018054600160a060020a03909216600160a060020a0319928316811790915560108054909216179055565b600554600160a060020a031681565b600654600160a060020a031681565b6000546001546040805160e260020a633d9abf2b028152336004820152600160a060020a0393841660248201529290911660448301525173__AOLibrary_____________________________9163f66afcac916064808301926020929190829003018186803b158015610dc057600080fd5b505af4158015610dd4573d6000803e3d6000fd5b505050506040513d6020811015610dea57600080fd5b50511515610df757600080fd5b600160a060020a0381161515610e0c57600080fd5b60068054600160a060020a03909216600160a060020a03199283168117909155600c8054909216179055565b600954600160a060020a031681565b600854600160a060020a031681565b60026020526000908152604090205460ff1681565b600054600160a060020a031681565b610ea233610e9a33610e90338b88610a346119fd565b8e8e8e8e89611743565b87878761182a565b1515610ead57600080fd5b50505050505050505050565b600d54604080517f2dff0d0d00000000000000000000000000000000000000000000000000000000815260048101849052905160009283928392839283928392600160a060020a0390921691632dff0d0d916024808201926101009290919082900301818787803b158015610f2d57600080fd5b505af1158015610f41573d6000803e3d6000fd5b505050506040513d610100811015610f5857600080fd5b506040810151606082015160809092015190999198509650945050505050565b600080600080600080600080600080600080610f938d610eb9565b955095509550610fa28d610fbb565b979f969e50949c509a5092985093965091945050505050565b600f54604080517f41fddf9d00000000000000000000000000000000000000000000000000000000815260048101849052905160009283928392600160a060020a03909216916341fddf9d9160248082019260609290919082900301818787803b15801561102857600080fd5b505af115801561103c573d6000803e3d6000fd5b505050506040513d606081101561105257600080fd5b508051602082015160409092015190969195509350915050565b6000546001546040805160e260020a633d9abf2b028152336004820152600160a060020a0393841660248201529290911660448301525173__AOLibrary_____________________________9163f66afcac916064808301926020929190829003018186803b1580156110de57600080fd5b505af41580156110f2573d6000803e3d6000fd5b505050506040513d602081101561110857600080fd5b5051151561111557600080fd5b600160a060020a038116151561112a57600080fd5b60098054600160a060020a03909216600160a060020a03199283168117909155600f8054909216179055565b6000546001546040805160e260020a633d9abf2b028152336004820152600160a060020a0393841660248201529290911660448301525173__AOLibrary_____________________________9163f66afcac916064808301926020929190829003018186803b1580156111c857600080fd5b505af41580156111dc573d6000803e3d6000fd5b505050506040513d60208110156111f257600080fd5b505115156111ff57600080fd5b600160a060020a038116151561121457600080fd5b60088054600160a060020a03909216600160a060020a03199283168117909155600e8054909216179055565b6000546001546040805160e260020a633d9abf2b028152336004820152600160a060020a0393841660248201529290911660448301525173__AOLibrary_____________________________9163f66afcac916064808301926020929190829003018186803b1580156112b257600080fd5b505af41580156112c6573d6000803e3d6000fd5b505050506040513d60208110156112dc57600080fd5b505115156112e957600080fd5b604080517f2fca5414000000000000000000000000000000000000000000000000000000008152600160a060020a0383166004820152905173__AOLibrary_____________________________91632fca5414916024808301926020929190829003018186803b15801561135c57600080fd5b505af4158015611370573d6000803e3d6000fd5b505050506040513d602081101561138657600080fd5b5051151561139357600080fd5b60038054600160a060020a031916600160a060020a0392909216919091179055565b600354600160a060020a031681565b610ea233610e9a336113e0338b886113da611a9c565b8961161a565b8e8e8e8e6000611743565b6000546001546040805160e260020a633d9abf2b028152336004820152600160a060020a0393841660248201529290911660448301525173__AOLibrary_____________________________9163f66afcac916064808301926020929190829003018186803b15801561145d57600080fd5b505af4158015611471573d6000803e3d6000fd5b505050506040513d602081101561148757600080fd5b5051151561149457600080fd5b600160a060020a03811615156114a957600080fd5b60008054600160a060020a031916600160a060020a0392909216919091179055565b600a54600354604080517f7065bedc000000000000000000000000000000000000000000000000000000008152600160a060020a03928316600482015260248101829052602060448201527f636f6e74656e745573616765547970655f6372656174697665436f6d6d6f6e736064820152905160009384931691637065bedc916084808301928692919082900301818387803b15801561156a57600080fd5b505af115801561157e573d6000803e3d6000fd5b505050506040513d6000823e601f3d908101601f1916820160405260a08110156115a757600080fd5b8151602083015160408401516060850151608086018051949693959294919392830192916401000000008111156115dd57600080fd5b820160208101848111156115f057600080fd5b815164010000000081118282018710171561160a57600080fd5b50949a9950505050505050505050565b600c546040517fd0d9ca52000000000000000000000000000000000000000000000000000000008152600160a060020a03878116600483019081526044830187905260648301869052848216608484015260a060248401908152885160a48501528851600095939093169363d0d9ca52938b938b938b938b938b93929160c4019060208801908083838f5b838110156116bd5781810151838201526020016116a5565b50505050905090810190601f1680156116ea5780820380516001836020036101000a031916815260200191505b509650505050505050602060405180830381600087803b15801561170d57600080fd5b505af1158015611721573d6000803e3d6000fd5b505050506040513d602081101561173757600080fd5b50519695505050505050565b600d54604080517f9789f617000000000000000000000000000000000000000000000000000000008152600160a060020a038a81166004830152602482018a9052604482018990526064820188905277ffffffffffffffffffffffffffffffffffffffffffffffff198716608483015260a4820186905260c4820185905291516000939290921691639789f6179160e48082019260209290919082900301818787803b1580156117f257600080fd5b505af1158015611806573d6000803e3d6000fd5b505050506040513d602081101561181c57600080fd5b505198975050505050505050565b6000600e60009054906101000a9004600160a060020a0316600160a060020a0316630da8097d87878787876040518663ffffffff167c01000000000000000000000000000000000000000000000000000000000281526004018086600160a060020a0316600160a060020a031681526020018560001916600019168152602001806020018060200180602001848103845287818151815260200191508051906020019080838360005b838110156118eb5781810151838201526020016118d3565b50505050905090810190601f1680156119185780820380516001836020036101000a031916815260200191505b50848103835286518152865160209182019188019080838360005b8381101561194b578181015183820152602001611933565b50505050905090810190601f1680156119785780820380516001836020036101000a031916815260200191505b50848103825285518152855160209182019187019080838360005b838110156119ab578181015183820152602001611993565b50505050905090810190601f1680156119d85780820380516001836020036101000a031916815260200191505b5098505050505050505050602060405180830381600087803b15801561170d57600080fd5b600a54600354604080517f7065bedc000000000000000000000000000000000000000000000000000000008152600160a060020a03928316600482015260248101829052601a60448201527f636f6e74656e745573616765547970655f616f436f6e74656e740000000000006064820152905160009384931691637065bedc916084808301928692919082900301818387803b15801561156a57600080fd5b600a54600354604080517f7065bedc000000000000000000000000000000000000000000000000000000008152600160a060020a03928316600482015260248101829052601b60448201527f636f6e74656e745573616765547970655f74616f436f6e74656e7400000000006064820152905160009384931691637065bedc916084808301928692919082900301818387803b15801561156a57600080fd00a165627a7a723058209adfb23608b017ddc2ce40b97f008fa62e079ad7f3dbbb4d00d64a22165d79980029",
	"source": "pragma solidity ^0.4.24;\n\nimport './SafeMath.sol';\nimport './AOLibrary.sol';\nimport './TheAO.sol';\nimport './IAOSetting.sol';\nimport './IAOTreasury.sol';\nimport './IAOContent.sol';\nimport './IAOStakedContent.sol';\nimport './IAOContentHost.sol';\nimport './IAOEarning.sol';\nimport './INameTAOPosition.sol';\n\n/**\n * @title AOContentFactory\n *\n * The purpose of this contract is to allow content creator to stake network AO ions and/or primordial AO+ ions\n * on his/her content\n */\ncontract AOContentFactory is TheAO {\n\tusing SafeMath for uint256;\n\n\taddress public settingTAOId;\n\taddress public aoSettingAddress;\n\taddress public aoTreasuryAddress;\n\taddress public aoContentAddress;\n\taddress public aoStakedContentAddress;\n\taddress public aoContentHostAddress;\n\taddress public aoEarningAddress;\n\n\tIAOSetting internal _aoSetting;\n\tIAOTreasury internal _aoTreasury;\n\tIAOContent internal _aoContent;\n\tIAOStakedContent internal _aoStakedContent;\n\tIAOContentHost internal _aoContentHost;\n\tIAOEarning internal _aoEarning;\n\tINameTAOPosition internal _nameTAOPosition;\n\n\t/**\n\t * @dev Constructor function\n\t * @param _settingTAOId The TAO ID that controls the setting\n\t * @param _aoSettingAddress The address of AOSetting\n\t * @param _aoTreasuryAddress The address of AOTreasury\n\t * @param _aoContentAddress The address of AOContent\n\t * @param _aoStakedContentAddress The address of AOStakedContent\n\t * @param _aoContentHostAddress The address of AOContentHost\n\t * @param _aoEarningAddress The address of AOEarning\n\t * @param _nameTAOPositionAddress The address of NameTAOPosition\n\t */\n\tconstructor(address _settingTAOId,\n\t\taddress _aoSettingAddress,\n\t\taddress _aoTreasuryAddress,\n\t\taddress _aoContentAddress,\n\t\taddress _aoStakedContentAddress,\n\t\taddress _aoContentHostAddress,\n\t\taddress _aoEarningAddress,\n\t\taddress _nameTAOPositionAddress\n\t\t) public {\n\t\tsetSettingTAOId(_settingTAOId);\n\t\tsetAOSettingAddress(_aoSettingAddress);\n\t\tsetAOTreasuryAddress(_aoTreasuryAddress);\n\t\tsetAOContentAddress(_aoContentAddress);\n\t\tsetAOStakedContentAddress(_aoStakedContentAddress);\n\t\tsetAOContentHostAddress(_aoContentHostAddress);\n\t\tsetAOEarningAddress(_aoEarningAddress);\n\t\tsetNameTAOPositionAddress(_nameTAOPositionAddress);\n\t}\n\n\t/**\n\t * @dev Checks if the calling contract address is The AO\n\t *\t\tOR\n\t *\t\tIf The AO is set to a Name/TAO, then check if calling address is the Advocate\n\t */\n\tmodifier onlyTheAO {\n\t\trequire (AOLibrary.isTheAO(msg.sender, theAO, nameTAOPositionAddress));\n\t\t_;\n\t}\n\n\t/***** The AO ONLY METHODS *****/\n\t/**\n\t * @dev Transfer ownership of The AO to new address\n\t * @param _theAO The new address to be transferred\n\t */\n\tfunction transferOwnership(address _theAO) public onlyTheAO {\n\t\trequire (_theAO != address(0));\n\t\ttheAO = _theAO;\n\t}\n\n\t/**\n\t * @dev Whitelist `_account` address to transact on behalf of others\n\t * @param _account The address to whitelist\n\t * @param _whitelist Either to whitelist or not\n\t */\n\tfunction setWhitelist(address _account, bool _whitelist) public onlyTheAO {\n\t\trequire (_account != address(0));\n\t\twhitelist[_account] = _whitelist;\n\t}\n\n\t/**\n\t * @dev The AO sets setting TAO ID\n\t * @param _settingTAOId The new setting TAO ID to set\n\t */\n\tfunction setSettingTAOId(address _settingTAOId) public onlyTheAO {\n\t\trequire (AOLibrary.isTAO(_settingTAOId));\n\t\tsettingTAOId = _settingTAOId;\n\t}\n\n\t/**\n\t * @dev The AO sets AO Setting address\n\t * @param _aoSettingAddress The address of AOSetting\n\t */\n\tfunction setAOSettingAddress(address _aoSettingAddress) public onlyTheAO {\n\t\trequire (_aoSettingAddress != address(0));\n\t\taoSettingAddress = _aoSettingAddress;\n\t\t_aoSetting = IAOSetting(_aoSettingAddress);\n\t}\n\n\t/**\n\t * @dev The AO sets AO Treasury address\n\t * @param _aoTreasuryAddress The address of AOTreasury\n\t */\n\tfunction setAOTreasuryAddress(address _aoTreasuryAddress) public onlyTheAO {\n\t\trequire (_aoTreasuryAddress != address(0));\n\t\taoTreasuryAddress = _aoTreasuryAddress;\n\t\t_aoTreasury = IAOTreasury(_aoTreasuryAddress);\n\t}\n\n\t/**\n\t * @dev The AO sets AOContent address\n\t * @param _aoContentAddress The address of AOContent\n\t */\n\tfunction setAOContentAddress(address _aoContentAddress) public onlyTheAO {\n\t\trequire (_aoContentAddress != address(0));\n\t\taoContentAddress = _aoContentAddress;\n\t\t_aoContent = IAOContent(_aoContentAddress);\n\t}\n\n\t/**\n\t * @dev The AO sets AOStakedContent address\n\t * @param _aoStakedContentAddress The address of AOStakedContent\n\t */\n\tfunction setAOStakedContentAddress(address _aoStakedContentAddress) public onlyTheAO {\n\t\trequire (_aoStakedContentAddress != address(0));\n\t\taoStakedContentAddress = _aoStakedContentAddress;\n\t\t_aoStakedContent = IAOStakedContent(_aoStakedContentAddress);\n\t}\n\n\t/**\n\t * @dev The AO sets AOContentHost address\n\t * @param _aoContentHostAddress The address of AOContentHost\n\t */\n\tfunction setAOContentHostAddress(address _aoContentHostAddress) public onlyTheAO {\n\t\trequire (_aoContentHostAddress != address(0));\n\t\taoContentHostAddress = _aoContentHostAddress;\n\t\t_aoContentHost = IAOContentHost(_aoContentHostAddress);\n\t}\n\n\t/**\n\t * @dev The AO sets AOEarning address\n\t * @param _aoEarningAddress The address of AOEarning\n\t */\n\tfunction setAOEarningAddress(address _aoEarningAddress) public onlyTheAO {\n\t\trequire (_aoEarningAddress != address(0));\n\t\taoEarningAddress = _aoEarningAddress;\n\t\t_aoEarning = IAOEarning(_aoEarningAddress);\n\t}\n\n\t/**\n\t * @dev The AO sets NameTAOPosition address\n\t * @param _nameTAOPositionAddress The address of NameTAOPosition\n\t */\n\tfunction setNameTAOPositionAddress(address _nameTAOPositionAddress) public onlyTheAO {\n\t\trequire (_nameTAOPositionAddress != address(0));\n\t\tnameTAOPositionAddress = _nameTAOPositionAddress;\n\t\t_nameTAOPosition = INameTAOPosition(_nameTAOPositionAddress);\n\t}\n\n\t/***** PUBLIC METHODS *****/\n\t/**\n\t * @dev Stake `_networkIntegerAmount` + `_networkFractionAmount` of network ion in `_denomination` and/or `_primordialAmount` primordial ion for an AO Content\n\t * @param _networkIntegerAmount The integer amount of network ion to stake\n\t * @param _networkFractionAmount The fraction amount of network ion to stake\n\t * @param _denomination The denomination of the network ion, i.e ao, kilo, mega, etc.\n\t * @param _primordialAmount The amount of primordial ion to stake\n\t * @param _baseChallenge The base challenge string (PUBLIC KEY) of the content\n\t * @param _encChallenge The encrypted challenge string (PUBLIC KEY) of the content unique to the host\n\t * @param _contentDatKey The dat key of the content\n\t * @param _metadataDatKey The dat key of the content's metadata\n\t * @param _fileSize The size of the file\n\t * @param _profitPercentage The percentage of profit the stake owner's media will charge\n\t */\n\tfunction stakeAOContent(\n\t\tuint256 _networkIntegerAmount,\n\t\tuint256 _networkFractionAmount,\n\t\tbytes8 _denomination,\n\t\tuint256 _primordialAmount,\n\t\tstring _baseChallenge,\n\t\tstring _encChallenge,\n\t\tstring _contentDatKey,\n\t\tstring _metadataDatKey,\n\t\tuint256 _fileSize,\n\t\tuint256 _profitPercentage\n\t\t) public {\n\t\t/**\n\t\t * 1. Store this content\n\t\t * 2. Stake the network/primordial ion on content\n\t\t * 3. Add the node info that hosts this content (in this case the creator himself)\n\t\t */\n\t\trequire (\n\t\t\t_hostContent(\n\t\t\t\tmsg.sender,\n\t\t\t\t_stakeContent(\n\t\t\t\t\tmsg.sender,\n\t\t\t\t\t_storeContent(\n\t\t\t\t\t\tmsg.sender,\n\t\t\t\t\t\t_baseChallenge,\n\t\t\t\t\t\t_fileSize,\n\t\t\t\t\t\t_contentUsageType_aoContent(),\n\t\t\t\t\t\taddress(0)\n\t\t\t\t\t),\n\t\t\t\t\t_networkIntegerAmount,\n\t\t\t\t\t_networkFractionAmount,\n\t\t\t\t\t_denomination,\n\t\t\t\t\t_primordialAmount,\n\t\t\t\t\t_profitPercentage\n\t\t\t\t),\n\t\t\t\t_encChallenge,\n\t\t\t\t_contentDatKey,\n\t\t\t\t_metadataDatKey\n\t\t\t)\n\t\t);\n\t}\n\n\t/**\n\t * @dev Stake `_networkIntegerAmount` + `_networkFractionAmount` of network ion in `_denomination` and/or `_primordialAmount` primordial ion for a Creative Commons Content\n\t * @param _networkIntegerAmount The integer amount of network on to stake\n\t * @param _networkFractionAmount The fraction amount of network ion to stake\n\t * @param _denomination The denomination of the network ion, i.e ao, kilo, mega, etc.\n\t * @param _primordialAmount The amount of primordial ion to stake\n\t * @param _baseChallenge The base challenge string (PUBLIC KEY) of the content\n\t * @param _encChallenge The encrypted challenge string (PUBLIC KEY) of the content unique to the host\n\t * @param _contentDatKey The dat key of the content\n\t * @param _metadataDatKey The dat key of the content's metadata\n\t * @param _fileSize The size of the file\n\t */\n\tfunction stakeCreativeCommonsContent(\n\t\tuint256 _networkIntegerAmount,\n\t\tuint256 _networkFractionAmount,\n\t\tbytes8 _denomination,\n\t\tuint256 _primordialAmount,\n\t\tstring _baseChallenge,\n\t\tstring _encChallenge,\n\t\tstring _contentDatKey,\n\t\tstring _metadataDatKey,\n\t\tuint256 _fileSize\n\t\t) public {\n\t\t/**\n\t\t * 1. Store this content\n\t\t * 2. Stake the network/primordial ion on content\n\t\t * 3. Add the node info that hosts this content (in this case the creator himself)\n\t\t */\n\t\trequire (\n\t\t\t_hostContent(\n\t\t\t\tmsg.sender,\n\t\t\t\t_stakeContent(\n\t\t\t\t\tmsg.sender,\n\t\t\t\t\t_storeContent(\n\t\t\t\t\t\tmsg.sender,\n\t\t\t\t\t\t_baseChallenge,\n\t\t\t\t\t\t_fileSize,\n\t\t\t\t\t\t_contentUsageType_creativeCommons(),\n\t\t\t\t\t\taddress(0)\n\t\t\t\t\t),\n\t\t\t\t\t_networkIntegerAmount,\n\t\t\t\t\t_networkFractionAmount,\n\t\t\t\t\t_denomination,\n\t\t\t\t\t_primordialAmount,\n\t\t\t\t\t0\n\t\t\t\t),\n\t\t\t\t_encChallenge,\n\t\t\t\t_contentDatKey,\n\t\t\t\t_metadataDatKey\n\t\t\t)\n\t\t);\n\t}\n\n\t/**\n\t * @dev Stake `_networkIntegerAmount` + `_networkFractionAmount` of network ion in `_denomination` and/or `_primordialAmount` primordial ion for a T(AO) Content\n\t * @param _networkIntegerAmount The integer amount of network ion to stake\n\t * @param _networkFractionAmount The fraction amount of network ion to stake\n\t * @param _denomination The denomination of the network ion, i.e ao, kilo, mega, etc.\n\t * @param _primordialAmount The amount of primordial ion to stake\n\t * @param _baseChallenge The base challenge string (PUBLIC KEY) of the content\n\t * @param _encChallenge The encrypted challenge string (PUBLIC KEY) of the content unique to the host\n\t * @param _contentDatKey The dat key of the content\n\t * @param _metadataDatKey The dat key of the content's metadata\n\t * @param _fileSize The size of the file\n\t * @param _taoId The TAO (TAO) ID for this content (if this is a T(AO) Content)\n\t */\n\tfunction stakeTAOContent(\n\t\tuint256 _networkIntegerAmount,\n\t\tuint256 _networkFractionAmount,\n\t\tbytes8 _denomination,\n\t\tuint256 _primordialAmount,\n\t\tstring _baseChallenge,\n\t\tstring _encChallenge,\n\t\tstring _contentDatKey,\n\t\tstring _metadataDatKey,\n\t\tuint256 _fileSize,\n\t\taddress _taoId\n\t\t) public {\n\t\t/**\n\t\t * 1. Store this content\n\t\t * 2. Stake the network/primordial ion on content\n\t\t * 3. Add the node info that hosts this content (in this case the creator himself)\n\t\t */\n\t\trequire (\n\t\t\t_hostContent(\n\t\t\t\tmsg.sender,\n\t\t\t\t_stakeContent(\n\t\t\t\t\tmsg.sender,\n\t\t\t\t\t_storeContent(\n\t\t\t\t\t\tmsg.sender,\n\t\t\t\t\t\t_baseChallenge,\n\t\t\t\t\t\t_fileSize,\n\t\t\t\t\t\t_contentUsageType_taoContent(),\n\t\t\t\t\t\t_taoId\n\t\t\t\t\t),\n\t\t\t\t\t_networkIntegerAmount,\n\t\t\t\t\t_networkFractionAmount,\n\t\t\t\t\t_denomination,\n\t\t\t\t\t_primordialAmount,\n\t\t\t\t\t0\n\t\t\t\t),\n\t\t\t\t_encChallenge,\n\t\t\t\t_contentDatKey,\n\t\t\t\t_metadataDatKey\n\t\t\t)\n\t\t);\n\t}\n\n\t/**\n\t * @dev Return the staking information of a StakedContent ID\n\t * @param _stakedContentId The ID of the staked content\n\t * @return the network base ion amount staked for this content\n\t * @return the primordial ion amount staked for this content\n\t * @return the primordial weighted multiplier of the staked content\n\t */\n\tfunction getStakingMetrics(bytes32 _stakedContentId) public view returns (uint256, uint256, uint256) {\n\t\t(,, uint256 networkAmount, uint256 primordialAmount, uint256 primordialWeightedMultiplier,,,) = _aoStakedContent.getById(_stakedContentId);\n\t\treturn (\n\t\t\tnetworkAmount,\n\t\t\tprimordialAmount,\n\t\t\tprimordialWeightedMultiplier\n\t\t);\n\t}\n\n\t/**\n\t * @dev Return the earning information of a StakedContent ID\n\t * @param _stakedContentId The ID of the staked content\n\t * @return the total earning from staking this content\n\t * @return the total earning from hosting this content\n\t * @return the total The AO earning of this content\n\t */\n\tfunction getEarningMetrics(bytes32 _stakedContentId) public view returns (uint256, uint256, uint256) {\n\t\treturn _aoEarning.getTotalStakedContentEarning(_stakedContentId);\n\t}\n\n\t/**\n\t * @dev Return the staking and earning information of a StakedContent ID\n\t * @param _stakedContentId The ID of the staked content\n\t * @return the network base ion amount staked for this content\n\t * @return the primordial ion amount staked for this content\n\t * @return the primordial weighted multiplier of the staked content\n\t * @return the total earning from staking this content\n\t * @return the total earning from hosting this content\n\t * @return the total The AO earning of this content\n\t */\n\tfunction getContentMetrics(bytes32 _stakedContentId) public view returns (uint256, uint256, uint256, uint256, uint256, uint256) {\n\t\t(uint256 networkAmount, uint256 primordialAmount, uint256 primordialWeightedMultiplier) = getStakingMetrics(_stakedContentId);\n\t\t(uint256 totalStakeEarning, uint256 totalHostEarning, uint256 totalTheAOEarning) = getEarningMetrics(_stakedContentId);\n\t\treturn (\n\t\t\tnetworkAmount,\n\t\t\tprimordialAmount,\n\t\t\tprimordialWeightedMultiplier,\n\t\t\ttotalStakeEarning,\n\t\t\ttotalHostEarning,\n\t\t\ttotalTheAOEarning\n\t\t);\n\t}\n\n\t/***** INTERNAL METHODS *****/\n\t/**\n\t * @dev Get Content Usage Type = AO Content setting\n\t * @return contentUsageType_aoContent Content Usage Type = AO Content\n\t */\n\tfunction _contentUsageType_aoContent() internal view returns (bytes32) {\n\t\t(,,,bytes32 contentUsageType_aoContent,) = _aoSetting.getSettingValuesByTAOName(settingTAOId, 'contentUsageType_aoContent');\n\t\treturn contentUsageType_aoContent;\n\t}\n\n\t/**\n\t * @dev Get Content Usage Type = Creative Commons setting\n\t * @return contentUsageType_creativeCommons Content Usage Type = Creative Commons\n\t */\n\tfunction _contentUsageType_creativeCommons() internal view returns (bytes32) {\n\t\t(,,,bytes32 contentUsageType_creativeCommons,) = _aoSetting.getSettingValuesByTAOName(settingTAOId, 'contentUsageType_creativeCommons');\n\t\treturn contentUsageType_creativeCommons;\n\t}\n\n\t/**\n\t * @dev Get Content Usage Type = TAO Content setting\n\t * @return contentUsageType_taoContent Content Usage Type = T(AO) Content\n\t */\n\tfunction _contentUsageType_taoContent() internal view returns (bytes32) {\n\t\t(,,,bytes32 contentUsageType_taoContent,) = _aoSetting.getSettingValuesByTAOName(settingTAOId, 'contentUsageType_taoContent');\n\t\treturn contentUsageType_taoContent;\n\t}\n\n\t/**\n\t * @dev Store the content information (content creation during staking)\n\t * @param _creator the address of the content creator\n\t * @param _baseChallenge The base challenge string (PUBLIC KEY) of the content\n\t * @param _fileSize The size of the file\n\t * @param _contentUsageType The content usage type, i.e AO Content, Creative Commons, or T(AO) Content\n\t * @param _taoId The TAO (TAO) ID for this content (if this is a T(AO) Content)\n\t * @return the ID of the content\n\t */\n\tfunction _storeContent(address _creator,\n\t\tstring _baseChallenge,\n\t\tuint256 _fileSize,\n\t\tbytes32 _contentUsageType,\n\t\taddress _taoId\n\t\t) internal returns (bytes32) {\n\t\treturn _aoContent.create(_creator, _baseChallenge, _fileSize, _contentUsageType, _taoId);\n\t}\n\n\t/**\n\t * @dev Actual staking the content\n\t * @param _stakeOwner the address that stake the content\n\t * @param _contentId The ID of the content\n\t * @param _networkIntegerAmount The integer amount of network ion to stake\n\t * @param _networkFractionAmount The fraction amount of network ion to stake\n\t * @param _denomination The denomination of the network ion, i.e ao, kilo, mega, etc.\n\t * @param _primordialAmount The amount of primordial ion to stake\n\t * @param _profitPercentage The percentage of profit the stake owner's media will charge\n\t * @return the newly created staked content ID\n\t */\n\tfunction _stakeContent(address _stakeOwner,\n\t\tbytes32 _contentId,\n\t\tuint256 _networkIntegerAmount,\n\t\tuint256 _networkFractionAmount,\n\t\tbytes8 _denomination,\n\t\tuint256 _primordialAmount,\n\t\tuint256 _profitPercentage\n\t\t) internal returns (bytes32) {\n\t\treturn _aoStakedContent.create(_stakeOwner, _contentId, _networkIntegerAmount, _networkFractionAmount, _denomination, _primordialAmount, _profitPercentage);\n\t}\n\n\t/**\n\t * @dev Add the distribution node info that hosts the content\n\t * @param _host the address of the host\n\t * @param _stakedContentId The ID of the staked content\n\t * @param _encChallenge The encrypted challenge string (PUBLIC KEY) of the content unique to the host\n\t * @param _contentDatKey The dat key of the content\n\t * @param _metadataDatKey The dat key of the content's metadata\n\t * @return true on success\n\t */\n\tfunction _hostContent(address _host, bytes32 _stakedContentId, string _encChallenge, string _contentDatKey, string _metadataDatKey) internal returns (bool) {\n\t\treturn _aoContentHost.create(_host, _stakedContentId, _encChallenge, _contentDatKey, _metadataDatKey);\n\t}\n}\n",
	"sourcePath": "/Users/johanmulyono/Work/AO/ao-contracts/contracts/AOContentFactory.sol",
	"compiler": {
		"name": "solc",
		"version": "0.4.24+commit.e67f0147.Emscripten.clang"
	},
	"schemaVersion": "2.0.1",
	"updatedAt": "2019-02-20T07:37:59.623Z"
}