{
	"contractName": "AOEarning",
	"abi": [
		{
			"constant": true,
			"inputs": [],
			"name": "aoStakedContentAddress",
			"outputs": [
				{
					"name": "",
					"type": "address"
				}
			],
			"payable": false,
			"stateMutability": "view",
			"type": "function"
		},
		{
			"constant": true,
			"inputs": [],
			"name": "totalStakedContentEarning",
			"outputs": [
				{
					"name": "",
					"type": "uint256"
				}
			],
			"payable": false,
			"stateMutability": "view",
			"type": "function"
		},
		{
			"constant": true,
			"inputs": [],
			"name": "aoSettingAddress",
			"outputs": [
				{
					"name": "",
					"type": "address"
				}
			],
			"payable": false,
			"stateMutability": "view",
			"type": "function"
		},
		{
			"constant": true,
			"inputs": [
				{
					"name": "",
					"type": "bytes32"
				}
			],
			"name": "contentHostEarning",
			"outputs": [
				{
					"name": "",
					"type": "uint256"
				}
			],
			"payable": false,
			"stateMutability": "view",
			"type": "function"
		},
		{
			"constant": true,
			"inputs": [
				{
					"name": "",
					"type": "address"
				}
			],
			"name": "ownerContentPriceEarning",
			"outputs": [
				{
					"name": "",
					"type": "uint256"
				}
			],
			"payable": false,
			"stateMutability": "view",
			"type": "function"
		},
		{
			"constant": true,
			"inputs": [
				{
					"name": "",
					"type": "address"
				}
			],
			"name": "ownerStakedContentEarning",
			"outputs": [
				{
					"name": "",
					"type": "uint256"
				}
			],
			"payable": false,
			"stateMutability": "view",
			"type": "function"
		},
		{
			"constant": true,
			"inputs": [],
			"name": "aoIonAddress",
			"outputs": [
				{
					"name": "",
					"type": "address"
				}
			],
			"payable": false,
			"stateMutability": "view",
			"type": "function"
		},
		{
			"constant": true,
			"inputs": [],
			"name": "pathosAddress",
			"outputs": [
				{
					"name": "",
					"type": "address"
				}
			],
			"payable": false,
			"stateMutability": "view",
			"type": "function"
		},
		{
			"constant": true,
			"inputs": [],
			"name": "nameTAOPositionAddress",
			"outputs": [
				{
					"name": "",
					"type": "address"
				}
			],
			"payable": false,
			"stateMutability": "view",
			"type": "function"
		},
		{
			"constant": true,
			"inputs": [
				{
					"name": "",
					"type": "bytes32"
				}
			],
			"name": "stakedContentTheAOEarning",
			"outputs": [
				{
					"name": "",
					"type": "uint256"
				}
			],
			"payable": false,
			"stateMutability": "view",
			"type": "function"
		},
		{
			"constant": true,
			"inputs": [],
			"name": "totalContentHostEarning",
			"outputs": [
				{
					"name": "",
					"type": "uint256"
				}
			],
			"payable": false,
			"stateMutability": "view",
			"type": "function"
		},
		{
			"constant": true,
			"inputs": [],
			"name": "aoContentAddress",
			"outputs": [
				{
					"name": "",
					"type": "address"
				}
			],
			"payable": false,
			"stateMutability": "view",
			"type": "function"
		},
		{
			"constant": true,
			"inputs": [
				{
					"name": "",
					"type": "address"
				},
				{
					"name": "",
					"type": "bytes32"
				}
			],
			"name": "ownerPurchaseReceiptHostEarnings",
			"outputs": [
				{
					"name": "purchaseReceiptId",
					"type": "bytes32"
				},
				{
					"name": "paymentEarning",
					"type": "uint256"
				},
				{
					"name": "inflationBonus",
					"type": "uint256"
				},
				{
					"name": "pathosAmount",
					"type": "uint256"
				},
				{
					"name": "ethosAmount",
					"type": "uint256"
				}
			],
			"payable": false,
			"stateMutability": "view",
			"type": "function"
		},
		{
			"constant": true,
			"inputs": [],
			"name": "ethosAddress",
			"outputs": [
				{
					"name": "",
					"type": "address"
				}
			],
			"payable": false,
			"stateMutability": "view",
			"type": "function"
		},
		{
			"constant": true,
			"inputs": [
				{
					"name": "",
					"type": "address"
				},
				{
					"name": "",
					"type": "bytes32"
				}
			],
			"name": "ownerPurchaseReceiptStakeEarnings",
			"outputs": [
				{
					"name": "purchaseReceiptId",
					"type": "bytes32"
				},
				{
					"name": "paymentEarning",
					"type": "uint256"
				},
				{
					"name": "inflationBonus",
					"type": "uint256"
				},
				{
					"name": "pathosAmount",
					"type": "uint256"
				},
				{
					"name": "ethosAmount",
					"type": "uint256"
				}
			],
			"payable": false,
			"stateMutability": "view",
			"type": "function"
		},
		{
			"constant": true,
			"inputs": [],
			"name": "aoContentHostAddress",
			"outputs": [
				{
					"name": "",
					"type": "address"
				}
			],
			"payable": false,
			"stateMutability": "view",
			"type": "function"
		},
		{
			"constant": true,
			"inputs": [
				{
					"name": "",
					"type": "address"
				}
			],
			"name": "whitelist",
			"outputs": [
				{
					"name": "",
					"type": "bool"
				}
			],
			"payable": false,
			"stateMutability": "view",
			"type": "function"
		},
		{
			"constant": true,
			"inputs": [],
			"name": "theAO",
			"outputs": [
				{
					"name": "",
					"type": "address"
				}
			],
			"payable": false,
			"stateMutability": "view",
			"type": "function"
		},
		{
			"constant": true,
			"inputs": [],
			"name": "nameFactoryAddress",
			"outputs": [
				{
					"name": "",
					"type": "address"
				}
			],
			"payable": false,
			"stateMutability": "view",
			"type": "function"
		},
		{
			"constant": true,
			"inputs": [
				{
					"name": "",
					"type": "bytes32"
				}
			],
			"name": "stakedContentStakeEarning",
			"outputs": [
				{
					"name": "",
					"type": "uint256"
				}
			],
			"payable": false,
			"stateMutability": "view",
			"type": "function"
		},
		{
			"constant": true,
			"inputs": [],
			"name": "totalTheAOEarning",
			"outputs": [
				{
					"name": "",
					"type": "uint256"
				}
			],
			"payable": false,
			"stateMutability": "view",
			"type": "function"
		},
		{
			"constant": true,
			"inputs": [
				{
					"name": "",
					"type": "address"
				}
			],
			"name": "ownerInflationBonusAccrued",
			"outputs": [
				{
					"name": "",
					"type": "uint256"
				}
			],
			"payable": false,
			"stateMutability": "view",
			"type": "function"
		},
		{
			"constant": true,
			"inputs": [
				{
					"name": "",
					"type": "address"
				}
			],
			"name": "ownerNetworkPriceEarning",
			"outputs": [
				{
					"name": "",
					"type": "uint256"
				}
			],
			"payable": false,
			"stateMutability": "view",
			"type": "function"
		},
		{
			"constant": true,
			"inputs": [
				{
					"name": "",
					"type": "bytes32"
				}
			],
			"name": "theAOPurchaseReceiptEarnings",
			"outputs": [
				{
					"name": "purchaseReceiptId",
					"type": "bytes32"
				},
				{
					"name": "paymentEarning",
					"type": "uint256"
				},
				{
					"name": "inflationBonus",
					"type": "uint256"
				},
				{
					"name": "pathosAmount",
					"type": "uint256"
				},
				{
					"name": "ethosAmount",
					"type": "uint256"
				}
			],
			"payable": false,
			"stateMutability": "view",
			"type": "function"
		},
		{
			"constant": true,
			"inputs": [
				{
					"name": "",
					"type": "address"
				}
			],
			"name": "ownerContentHostEarning",
			"outputs": [
				{
					"name": "",
					"type": "uint256"
				}
			],
			"payable": false,
			"stateMutability": "view",
			"type": "function"
		},
		{
			"constant": true,
			"inputs": [],
			"name": "aoPurchaseReceiptAddress",
			"outputs": [
				{
					"name": "",
					"type": "address"
				}
			],
			"payable": false,
			"stateMutability": "view",
			"type": "function"
		},
		{
			"constant": true,
			"inputs": [],
			"name": "settingTAOId",
			"outputs": [
				{
					"name": "",
					"type": "address"
				}
			],
			"payable": false,
			"stateMutability": "view",
			"type": "function"
		},
		{
			"constant": true,
			"inputs": [
				{
					"name": "",
					"type": "bytes32"
				}
			],
			"name": "stakedContentHostEarning",
			"outputs": [
				{
					"name": "",
					"type": "uint256"
				}
			],
			"payable": false,
			"stateMutability": "view",
			"type": "function"
		},
		{
			"inputs": [
				{
					"name": "_settingTAOId",
					"type": "address"
				},
				{
					"name": "_aoSettingAddress",
					"type": "address"
				},
				{
					"name": "_aoIonAddress",
					"type": "address"
				},
				{
					"name": "_nameFactoryAddress",
					"type": "address"
				},
				{
					"name": "_pathosAddress",
					"type": "address"
				},
				{
					"name": "_ethosAddress",
					"type": "address"
				},
				{
					"name": "_aoContentAddress",
					"type": "address"
				},
				{
					"name": "_nameTAOPositionAddress",
					"type": "address"
				}
			],
			"payable": false,
			"stateMutability": "nonpayable",
			"type": "constructor"
		},
		{
			"anonymous": false,
			"inputs": [
				{
					"indexed": true,
					"name": "recipient",
					"type": "address"
				},
				{
					"indexed": true,
					"name": "purchaseReceiptId",
					"type": "bytes32"
				},
				{
					"indexed": false,
					"name": "price",
					"type": "uint256"
				},
				{
					"indexed": false,
					"name": "recipientProfitPercentage",
					"type": "uint256"
				},
				{
					"indexed": false,
					"name": "recipientPaymentEarning",
					"type": "uint256"
				},
				{
					"indexed": false,
					"name": "recipientType",
					"type": "uint8"
				}
			],
			"name": "PaymentEarningEscrowed",
			"type": "event"
		},
		{
			"anonymous": false,
			"inputs": [
				{
					"indexed": true,
					"name": "recipient",
					"type": "address"
				},
				{
					"indexed": true,
					"name": "purchaseReceiptId",
					"type": "bytes32"
				},
				{
					"indexed": false,
					"name": "totalInflationBonusAmount",
					"type": "uint256"
				},
				{
					"indexed": false,
					"name": "recipientProfitPercentage",
					"type": "uint256"
				},
				{
					"indexed": false,
					"name": "recipientInflationBonus",
					"type": "uint256"
				},
				{
					"indexed": false,
					"name": "recipientType",
					"type": "uint8"
				}
			],
			"name": "InflationBonusEscrowed",
			"type": "event"
		},
		{
			"anonymous": false,
			"inputs": [
				{
					"indexed": true,
					"name": "recipient",
					"type": "address"
				},
				{
					"indexed": true,
					"name": "purchaseReceiptId",
					"type": "bytes32"
				},
				{
					"indexed": false,
					"name": "paymentEarning",
					"type": "uint256"
				},
				{
					"indexed": false,
					"name": "inflationBonus",
					"type": "uint256"
				},
				{
					"indexed": false,
					"name": "recipientType",
					"type": "uint8"
				}
			],
			"name": "EarningUnescrowed",
			"type": "event"
		},
		{
			"anonymous": false,
			"inputs": [
				{
					"indexed": true,
					"name": "nameId",
					"type": "address"
				},
				{
					"indexed": true,
					"name": "purchaseReceiptId",
					"type": "bytes32"
				},
				{
					"indexed": false,
					"name": "amount",
					"type": "uint256"
				}
			],
			"name": "PathosEarned",
			"type": "event"
		},
		{
			"anonymous": false,
			"inputs": [
				{
					"indexed": true,
					"name": "nameId",
					"type": "address"
				},
				{
					"indexed": true,
					"name": "purchaseReceiptId",
					"type": "bytes32"
				},
				{
					"indexed": false,
					"name": "amount",
					"type": "uint256"
				}
			],
			"name": "EthosEarned",
			"type": "event"
		},
		{
			"constant": false,
			"inputs": [
				{
					"name": "_theAO",
					"type": "address"
				}
			],
			"name": "transferOwnership",
			"outputs": [],
			"payable": false,
			"stateMutability": "nonpayable",
			"type": "function"
		},
		{
			"constant": false,
			"inputs": [
				{
					"name": "_account",
					"type": "address"
				},
				{
					"name": "_whitelist",
					"type": "bool"
				}
			],
			"name": "setWhitelist",
			"outputs": [],
			"payable": false,
			"stateMutability": "nonpayable",
			"type": "function"
		},
		{
			"constant": false,
			"inputs": [
				{
					"name": "_settingTAOId",
					"type": "address"
				}
			],
			"name": "setSettingTAOId",
			"outputs": [],
			"payable": false,
			"stateMutability": "nonpayable",
			"type": "function"
		},
		{
			"constant": false,
			"inputs": [
				{
					"name": "_aoSettingAddress",
					"type": "address"
				}
			],
			"name": "setAOSettingAddress",
			"outputs": [],
			"payable": false,
			"stateMutability": "nonpayable",
			"type": "function"
		},
		{
			"constant": false,
			"inputs": [
				{
					"name": "_aoIonAddress",
					"type": "address"
				}
			],
			"name": "setAOIonAddress",
			"outputs": [],
			"payable": false,
			"stateMutability": "nonpayable",
			"type": "function"
		},
		{
			"constant": false,
			"inputs": [
				{
					"name": "_nameFactoryAddress",
					"type": "address"
				}
			],
			"name": "setNameFactoryAddress",
			"outputs": [],
			"payable": false,
			"stateMutability": "nonpayable",
			"type": "function"
		},
		{
			"constant": false,
			"inputs": [
				{
					"name": "_pathosAddress",
					"type": "address"
				}
			],
			"name": "setPathosAddress",
			"outputs": [],
			"payable": false,
			"stateMutability": "nonpayable",
			"type": "function"
		},
		{
			"constant": false,
			"inputs": [
				{
					"name": "_ethosAddress",
					"type": "address"
				}
			],
			"name": "setEthosAddress",
			"outputs": [],
			"payable": false,
			"stateMutability": "nonpayable",
			"type": "function"
		},
		{
			"constant": false,
			"inputs": [
				{
					"name": "_aoContentAddress",
					"type": "address"
				}
			],
			"name": "setAOContentAddress",
			"outputs": [],
			"payable": false,
			"stateMutability": "nonpayable",
			"type": "function"
		},
		{
			"constant": false,
			"inputs": [
				{
					"name": "_aoStakedContentAddress",
					"type": "address"
				}
			],
			"name": "setAOStakedContentAddress",
			"outputs": [],
			"payable": false,
			"stateMutability": "nonpayable",
			"type": "function"
		},
		{
			"constant": false,
			"inputs": [
				{
					"name": "_aoContentHostAddress",
					"type": "address"
				}
			],
			"name": "setAOContentHostAddress",
			"outputs": [],
			"payable": false,
			"stateMutability": "nonpayable",
			"type": "function"
		},
		{
			"constant": false,
			"inputs": [
				{
					"name": "_aoPurchaseReceiptAddress",
					"type": "address"
				}
			],
			"name": "setAOPurchaseReceiptAddress",
			"outputs": [],
			"payable": false,
			"stateMutability": "nonpayable",
			"type": "function"
		},
		{
			"constant": false,
			"inputs": [
				{
					"name": "_nameTAOPositionAddress",
					"type": "address"
				}
			],
			"name": "setNameTAOPositionAddress",
			"outputs": [],
			"payable": false,
			"stateMutability": "nonpayable",
			"type": "function"
		},
		{
			"constant": false,
			"inputs": [
				{
					"name": "_purchaseReceiptId",
					"type": "bytes32"
				}
			],
			"name": "calculateEarning",
			"outputs": [
				{
					"name": "",
					"type": "bool"
				}
			],
			"payable": false,
			"stateMutability": "nonpayable",
			"type": "function"
		},
		{
			"constant": false,
			"inputs": [
				{
					"name": "_purchaseReceiptId",
					"type": "bytes32"
				}
			],
			"name": "releaseEarning",
			"outputs": [
				{
					"name": "",
					"type": "bool"
				}
			],
			"payable": false,
			"stateMutability": "nonpayable",
			"type": "function"
		},
		{
			"constant": true,
			"inputs": [
				{
					"name": "_stakedContentId",
					"type": "bytes32"
				}
			],
			"name": "getTotalStakedContentEarning",
			"outputs": [
				{
					"name": "",
					"type": "uint256"
				},
				{
					"name": "",
					"type": "uint256"
				},
				{
					"name": "",
					"type": "uint256"
				}
			],
			"payable": false,
			"stateMutability": "view",
			"type": "function"
		}
	],
	"bytecode": "0x60806040523480156200001157600080fd5b50604051610100806200537f83398101604090815281516020830151918301516060840151608085015160a086015160c087015160e09097015160008054600160a060020a0319163317905594969394929391929091906200007c8864010000000062000116810204565b6200009087640100000000620002a9810204565b620000a486640100000000620003ae810204565b620000b885640100000000620004b3810204565b620000cc84640100000000620005b8810204565b620000e083640100000000620006bd810204565b620000f482640100000000620007c2810204565b6200010881640100000000620008c7810204565b5050505050505050620009c2565b600054600154604080517ff66afcac000000000000000000000000000000000000000000000000000000008152336004820152600160a060020a0393841660248201529290911660448301525173__AOLibrary_____________________________9163f66afcac916064808301926020929190829003018186803b1580156200019f57600080fd5b505af4158015620001b4573d6000803e3d6000fd5b505050506040513d6020811015620001cb57600080fd5b50511515620001d957600080fd5b604080517f2fca5414000000000000000000000000000000000000000000000000000000008152600160a060020a0383166004820152905173__AOLibrary_____________________________91632fca5414916024808301926020929190829003018186803b1580156200024d57600080fd5b505af415801562000262573d6000803e3d6000fd5b505050506040513d60208110156200027957600080fd5b505115156200028757600080fd5b60038054600160a060020a031916600160a060020a0392909216919091179055565b600054600154604080517ff66afcac000000000000000000000000000000000000000000000000000000008152336004820152600160a060020a0393841660248201529290911660448301525173__AOLibrary_____________________________9163f66afcac916064808301926020929190829003018186803b1580156200033257600080fd5b505af415801562000347573d6000803e3d6000fd5b505050506040513d60208110156200035e57600080fd5b505115156200036c57600080fd5b600160a060020a03811615156200038257600080fd5b60048054600160a060020a03909216600160a060020a03199283168117909155600d8054909216179055565b600054600154604080517ff66afcac000000000000000000000000000000000000000000000000000000008152336004820152600160a060020a0393841660248201529290911660448301525173__AOLibrary_____________________________9163f66afcac916064808301926020929190829003018186803b1580156200043757600080fd5b505af41580156200044c573d6000803e3d6000fd5b505050506040513d60208110156200046357600080fd5b505115156200047157600080fd5b600160a060020a03811615156200048757600080fd5b60058054600160a060020a03909216600160a060020a03199283168117909155600e8054909216179055565b600054600154604080517ff66afcac000000000000000000000000000000000000000000000000000000008152336004820152600160a060020a0393841660248201529290911660448301525173__AOLibrary_____________________________9163f66afcac916064808301926020929190829003018186803b1580156200053c57600080fd5b505af415801562000551573d6000803e3d6000fd5b505050506040513d60208110156200056857600080fd5b505115156200057657600080fd5b600160a060020a03811615156200058c57600080fd5b60068054600160a060020a03909216600160a060020a03199283168117909155600f8054909216179055565b600054600154604080517ff66afcac000000000000000000000000000000000000000000000000000000008152336004820152600160a060020a0393841660248201529290911660448301525173__AOLibrary_____________________________9163f66afcac916064808301926020929190829003018186803b1580156200064157600080fd5b505af415801562000656573d6000803e3d6000fd5b505050506040513d60208110156200066d57600080fd5b505115156200067b57600080fd5b600160a060020a03811615156200069157600080fd5b60078054600160a060020a03909216600160a060020a0319928316811790915560108054909216179055565b600054600154604080517ff66afcac000000000000000000000000000000000000000000000000000000008152336004820152600160a060020a0393841660248201529290911660448301525173__AOLibrary_____________________________9163f66afcac916064808301926020929190829003018186803b1580156200074657600080fd5b505af41580156200075b573d6000803e3d6000fd5b505050506040513d60208110156200077257600080fd5b505115156200078057600080fd5b600160a060020a03811615156200079657600080fd5b60088054600160a060020a03909216600160a060020a0319928316811790915560118054909216179055565b600054600154604080517ff66afcac000000000000000000000000000000000000000000000000000000008152336004820152600160a060020a0393841660248201529290911660448301525173__AOLibrary_____________________________9163f66afcac916064808301926020929190829003018186803b1580156200084b57600080fd5b505af415801562000860573d6000803e3d6000fd5b505050506040513d60208110156200087757600080fd5b505115156200088557600080fd5b600160a060020a03811615156200089b57600080fd5b60098054600160a060020a03909216600160a060020a0319928316811790915560128054909216179055565b600054600154604080517ff66afcac000000000000000000000000000000000000000000000000000000008152336004820152600160a060020a0393841660248201529290911660448301525173__AOLibrary_____________________________9163f66afcac916064808301926020929190829003018186803b1580156200095057600080fd5b505af415801562000965573d6000803e3d6000fd5b505050506040513d60208110156200097c57600080fd5b505115156200098a57600080fd5b600160a060020a0381161515620009a057600080fd5b60018054600160a060020a031916600160a060020a0392909216919091179055565b6149ad80620009d26000396000f3006080604052600436106102005763ffffffff60e060020a60003504166306fd70888114610205578063078753ad14610228578063101f6d79146102595780631add5b98146102805780631d0138ff146102a15780631f032c24146102b65780631fe7f23c146102ce57806335385ec8146102ef5780633c56b011146103105780633e36144f1461032557806341fddf9d146103465780634486ab0a1461037c5780634c9e0913146103915780634ef033f0146103bd57806353d6fd59146103d25780635cfaf2ef146103f85780637658f1d614610419578063793c82281461043157806380504a961461045257806385cb86c81461046757806389a832461461047c5780638a9e7fdc1461049d5780638c924361146104ec5780639093a7901461050d57806393ac4c1c1461052257806395f04f27146105465780639b19251a1461055b578063a9b6b38e1461057c578063bc40620614610591578063bc6abaa2146105a6578063be03a7de146105c7578063c26012cd146105df578063c7bc27af146105f4578063cd109f4c14610615578063cd5facb214610636578063d3bd134314610657578063d6830af31461066f578063d7ed73bd14610690578063e41800e2146106b1578063e669ecab146106c9578063e7c50185146106de578063ee9f7427146106f3578063f2fde38b1461070b578063f97106b51461072c575b600080fd5b34801561021157600080fd5b50610226600160a060020a036004351661074d565b005b34801561023457600080fd5b5061023d610837565b60408051600160a060020a039092168252519081900360200190f35b34801561026557600080fd5b5061026e610846565b60408051918252519081900360200190f35b34801561028c57600080fd5b50610226600160a060020a036004351661084c565b3480156102ad57600080fd5b5061023d610936565b3480156102c257600080fd5b5061026e600435610945565b3480156102da57600080fd5b5061026e600160a060020a0360043516610957565b3480156102fb57600080fd5b5061026e600160a060020a0360043516610969565b34801561031c57600080fd5b5061023d61097b565b34801561033157600080fd5b50610226600160a060020a036004351661098a565b34801561035257600080fd5b5061035e600435610a74565b60408051938452602084019290925282820152519081900360600190f35b34801561038857600080fd5b5061023d610a9d565b34801561039d57600080fd5b506103a9600435610aac565b604080519115158252519081900360200190f35b3480156103c957600080fd5b5061023d611057565b3480156103de57600080fd5b50610226600160a060020a03600435166024351515611066565b34801561040457600080fd5b50610226600160a060020a036004351661114f565b34801561042557600080fd5b5061026e60043561122f565b34801561043d57600080fd5b50610226600160a060020a0360043516611241565b34801561045e57600080fd5b5061026e61132b565b34801561047357600080fd5b5061023d611331565b34801561048857600080fd5b50610226600160a060020a0360043516611340565b3480156104a957600080fd5b506104c1600160a060020a036004351660243561142a565b6040805195865260208601949094528484019290925260608401526080830152519081900360a00190f35b3480156104f857600080fd5b50610226600160a060020a0360043516611464565b34801561051957600080fd5b5061023d61154e565b34801561052e57600080fd5b506104c1600160a060020a036004351660243561155d565b34801561055257600080fd5b5061023d611595565b34801561056757600080fd5b506103a9600160a060020a03600435166115a4565b34801561058857600080fd5b5061023d6115b9565b34801561059d57600080fd5b5061023d6115c8565b3480156105b257600080fd5b50610226600160a060020a03600435166115d7565b3480156105d357600080fd5b5061026e6004356116c1565b3480156105eb57600080fd5b5061026e6116d3565b34801561060057600080fd5b5061026e600160a060020a03600435166116d9565b34801561062157600080fd5b5061026e600160a060020a03600435166116eb565b34801561064257600080fd5b50610226600160a060020a03600435166116fd565b34801561066357600080fd5b506104c16004356117e7565b34801561067b57600080fd5b50610226600160a060020a0360043516611816565b34801561069c57600080fd5b5061026e600160a060020a036004351661198b565b3480156106bd57600080fd5b506103a960043561199d565b3480156106d557600080fd5b5061023d611aab565b3480156106ea57600080fd5b5061023d611aba565b3480156106ff57600080fd5b5061026e600435611ac9565b34801561071757600080fd5b50610226600160a060020a0360043516611adb565b34801561073857600080fd5b50610226600160a060020a0360043516611bbb565b6000546001546040805160e260020a633d9abf2b028152336004820152600160a060020a0393841660248201529290911660448301525173__AOLibrary_____________________________9163f66afcac916064808301926020929190829003018186803b1580156107bf57600080fd5b505af41580156107d3573d6000803e3d6000fd5b505050506040513d60208110156107e957600080fd5b505115156107f657600080fd5b600160a060020a038116151561080b57600080fd5b60048054600160a060020a03909216600160a060020a03199283168117909155600d8054909216179055565b600a54600160a060020a031681565b60165481565b6000546001546040805160e260020a633d9abf2b028152336004820152600160a060020a0393841660248201529290911660448301525173__AOLibrary_____________________________9163f66afcac916064808301926020929190829003018186803b1580156108be57600080fd5b505af41580156108d2573d6000803e3d6000fd5b505050506040513d60208110156108e857600080fd5b505115156108f557600080fd5b600160a060020a038116151561090a57600080fd5b60088054600160a060020a03909216600160a060020a0319928316811790915560118054909216179055565b600454600160a060020a031681565b60266020526000908152604090205481565b601e6020526000908152604090205481565b601b6020526000908152604090205481565b600554600160a060020a031681565b6000546001546040805160e260020a633d9abf2b028152336004820152600160a060020a0393841660248201529290911660448301525173__AOLibrary_____________________________9163f66afcac916064808301926020929190829003018186803b1580156109fc57600080fd5b505af4158015610a10573d6000803e3d6000fd5b505050506040513d6020811015610a2657600080fd5b50511515610a3357600080fd5b600160a060020a0381161515610a4857600080fd5b600a8054600160a060020a03909216600160a060020a0319928316811790915560138054909216179055565b600081815260236020908152604080832054602483528184205460259093529220549193909250565b600754600160a060020a031681565b33600090815260026020526040812054819081908190819081908190819060ff161515600114610adb57600080fd5b601554604080517f762fee18000000000000000000000000000000000000000000000000000000008152600481018c90529051600160a060020a039092169163762fee18916024808201926020929091908290030181600087803b158015610b4257600080fd5b505af1158015610b56573d6000803e3d6000fd5b505050506040513d6020811015610b6c57600080fd5b50511515610b7957600080fd5b60008981526019602052604090205460ff168015610ba657506000898152601a602052604090205460ff16155b1515610bb157600080fd5b6000898152601a6020526040808220805460ff19166001179055601554815160e060020a632dff0d0d028152600481018d90529151600160a060020a0390911692632dff0d0d926024808201939182900301818387803b158015610c1457600080fd5b505af1158015610c28573d6000803e3d6000fd5b505050506040513d6000823e601f3d908101601f19168201604052610140811015610c5257600080fd5b8151602083015160408401516060850151608086015160a087015160c088015160e08901805197999698959794969395929491939283019291640100000000811115610c9d57600080fd5b82016020810184811115610cb057600080fd5b8151640100000000811182820187101715610cca57600080fd5b505092919060200180519060200190929190805190602001909291905050505050505098505050965096509650601360009054906101000a9004600160a060020a0316600160a060020a0316632dff0d0d876040518263ffffffff1660e060020a02815260040180826000191660001916815260200191505061010060405180830381600087803b158015610d5e57600080fd5b505af1158015610d72573d6000803e3d6000fd5b505050506040513d610100811015610d8957600080fd5b50602001516014546040805160e060020a632dff0d0d028152600481018b90529051929550600160a060020a0390911691632dff0d0d9160248082019260009290919082900301818387803b158015610de157600080fd5b505af1158015610df5573d6000803e3d6000fd5b505050506040513d6000823e601f3d908101601f1916820160405260a0811015610e1e57600080fd5b8151602083015160408401516060850180519395929491939183019291640100000000811115610e4d57600080fd5b82016020810184811115610e6057600080fd5b8151640100000000811182820187101715610e7a57600080fd5b50509291906020018051640100000000811115610e9657600080fd5b82016020810184811115610ea957600080fd5b8151640100000000811182820187101715610ec357600080fd5b5050929190505050505093505050601260009054906101000a9004600160a060020a0316600160a060020a0316632dff0d0d866040518263ffffffff1660e060020a028152600401808260001916600019168152602001915050600060405180830381600087803b158015610f3757600080fd5b505af1158015610f4b573d6000803e3d6000fd5b505050506040513d6000823e601f3d908101601f19168201604052610120811015610f7557600080fd5b8151602083015160408401516060850151608086015160a087015160c088015160e08901516101008a018051989a9799969895979496939592949193820192640100000000811115610fc657600080fd5b82016020810184811115610fd957600080fd5b8151640100000000811182820187101715610ff357600080fd5b50509291905050505050505050505091505061101686888b848811876000611ca5565b61102786888b848811866001611ca5565b60005461104890879089908c9085891190600160a060020a03166002611ca5565b50600198975050505050505050565b600154600160a060020a031681565b6000546001546040805160e260020a633d9abf2b028152336004820152600160a060020a0393841660248201529290911660448301525173__AOLibrary_____________________________9163f66afcac916064808301926020929190829003018186803b1580156110d857600080fd5b505af41580156110ec573d6000803e3d6000fd5b505050506040513d602081101561110257600080fd5b5051151561110f57600080fd5b600160a060020a038216151561112457600080fd5b600160a060020a03919091166000908152600260205260409020805460ff1916911515919091179055565b6000546001546040805160e260020a633d9abf2b028152336004820152600160a060020a0393841660248201529290911660448301525173__AOLibrary_____________________________9163f66afcac916064808301926020929190829003018186803b1580156111c157600080fd5b505af41580156111d5573d6000803e3d6000fd5b505050506040513d60208110156111eb57600080fd5b505115156111f857600080fd5b600160a060020a038116151561120d57600080fd5b60018054600160a060020a031916600160a060020a0392909216919091179055565b60256020526000908152604090205481565b6000546001546040805160e260020a633d9abf2b028152336004820152600160a060020a0393841660248201529290911660448301525173__AOLibrary_____________________________9163f66afcac916064808301926020929190829003018186803b1580156112b357600080fd5b505af41580156112c7573d6000803e3d6000fd5b505050506040513d60208110156112dd57600080fd5b505115156112ea57600080fd5b600160a060020a03811615156112ff57600080fd5b60078054600160a060020a03909216600160a060020a0319928316811790915560108054909216179055565b60175481565b600954600160a060020a031681565b6000546001546040805160e260020a633d9abf2b028152336004820152600160a060020a0393841660248201529290911660448301525173__AOLibrary_____________________________9163f66afcac916064808301926020929190829003018186803b1580156113b257600080fd5b505af41580156113c6573d6000803e3d6000fd5b505050506040513d60208110156113dc57600080fd5b505115156113e957600080fd5b600160a060020a03811615156113fe57600080fd5b60098054600160a060020a03909216600160a060020a0319928316811790915560128054909216179055565b6021602090815260009283526040808420909152908252902080546001820154600283015460038401546004909401549293919290919085565b6000546001546040805160e260020a633d9abf2b028152336004820152600160a060020a0393841660248201529290911660448301525173__AOLibrary_____________________________9163f66afcac916064808301926020929190829003018186803b1580156114d657600080fd5b505af41580156114ea573d6000803e3d6000fd5b505050506040513d602081101561150057600080fd5b5051151561150d57600080fd5b600160a060020a038116151561152257600080fd5b60068054600160a060020a03909216600160a060020a03199283168117909155600f8054909216179055565b600854600160a060020a031681565b602080805260009283526040808420909152908252902080546001820154600283015460038401546004909401549293919290919085565b600b54600160a060020a031681565b60026020526000908152604090205460ff1681565b600054600160a060020a031681565b600654600160a060020a031681565b6000546001546040805160e260020a633d9abf2b028152336004820152600160a060020a0393841660248201529290911660448301525173__AOLibrary_____________________________9163f66afcac916064808301926020929190829003018186803b15801561164957600080fd5b505af415801561165d573d6000803e3d6000fd5b505050506040513d602081101561167357600080fd5b5051151561168057600080fd5b600160a060020a038116151561169557600080fd5b600c8054600160a060020a03909216600160a060020a0319928316811790915560158054909216179055565b60236020526000908152604090205481565b60185481565b601f6020526000908152604090205481565b601d6020526000908152604090205481565b6000546001546040805160e260020a633d9abf2b028152336004820152600160a060020a0393841660248201529290911660448301525173__AOLibrary_____________________________9163f66afcac916064808301926020929190829003018186803b15801561176f57600080fd5b505af4158015611783573d6000803e3d6000fd5b505050506040513d602081101561179957600080fd5b505115156117a657600080fd5b600160a060020a03811615156117bb57600080fd5b600b8054600160a060020a03909216600160a060020a0319928316811790915560148054909216179055565b602260205260009081526040902080546001820154600283015460038401546004909401549293919290919085565b6000546001546040805160e260020a633d9abf2b028152336004820152600160a060020a0393841660248201529290911660448301525173__AOLibrary_____________________________9163f66afcac916064808301926020929190829003018186803b15801561188857600080fd5b505af415801561189c573d6000803e3d6000fd5b505050506040513d60208110156118b257600080fd5b505115156118bf57600080fd5b604080517f2fca5414000000000000000000000000000000000000000000000000000000008152600160a060020a0383166004820152905173__AOLibrary_____________________________91632fca5414916024808301926020929190829003018186803b15801561193257600080fd5b505af4158015611946573d6000803e3d6000fd5b505050506040513d602081101561195c57600080fd5b5051151561196957600080fd5b60038054600160a060020a031916600160a060020a0392909216919091179055565b601c6020526000908152604090205481565b3360009081526002602052604081205460ff1615156001146119be57600080fd5b601554604080517f762fee18000000000000000000000000000000000000000000000000000000008152600481018590529051600160a060020a039092169163762fee18916024808201926020929091908290030181600087803b158015611a2557600080fd5b505af1158015611a39573d6000803e3d6000fd5b505050506040513d6020811015611a4f57600080fd5b50511515611a5c57600080fd5b60008281526019602052604090205460ff1615611a7857600080fd5b6000828152601960205260409020805460ff19166001179055611a9a826125f1565b611aa382612620565b506001919050565b600c54600160a060020a031681565b600354600160a060020a031681565b60246020526000908152604090205481565b6000546001546040805160e260020a633d9abf2b028152336004820152600160a060020a0393841660248201529290911660448301525173__AOLibrary_____________________________9163f66afcac916064808301926020929190829003018186803b158015611b4d57600080fd5b505af4158015611b61573d6000803e3d6000fd5b505050506040513d6020811015611b7757600080fd5b50511515611b8457600080fd5b600160a060020a0381161515611b9957600080fd5b60008054600160a060020a031916600160a060020a0392909216919091179055565b6000546001546040805160e260020a633d9abf2b028152336004820152600160a060020a0393841660248201529290911660448301525173__AOLibrary_____________________________9163f66afcac916064808301926020929190829003018186803b158015611c2d57600080fd5b505af4158015611c41573d6000803e3d6000fd5b505050506040513d6020811015611c5757600080fd5b50511515611c6457600080fd5b600160a060020a0381161515611c7957600080fd5b60058054600160a060020a03909216600160a060020a03199283168117909155600e8054909216179055565b60008060008060008060008760ff1610158015611cc6575060028760ff1611155b1515611cd157600080fd5b60ff871615156120605750600160a060020a0387166000908152602080805260408083208c8452909152812060018101805460028301805460038501805494879055918690559085905560048401949094559750919550909250611d3b868663ffffffff61309516565b601654909450611d51908563ffffffff61309516565b601655600160a060020a0388166000908152601b6020526040902054611d7d908563ffffffff61309516565b600160a060020a0389166000908152601b60209081526040808320939093558e8252602390522054611db5908563ffffffff61309516565b60008d8152602360205260409020558815611e1157600160a060020a0388166000908152601e6020526040902054611df3908563ffffffff61309516565b600160a060020a0389166000908152601e6020526040902055611e54565b600160a060020a0388166000908152601d6020526040902054611e3a908563ffffffff61309516565b600160a060020a0389166000908152601d60205260409020555b600160a060020a0388166000908152601f6020526040902054611e7d908663ffffffff61309516565b600160a060020a03808a166000818152601f6020908152604080832095909555601054600f54865160e060020a63029b7d5302815260048101959095529551908516956340c10f1995169363029b7d539360248083019493928390030190829087803b158015611eec57600080fd5b505af1158015611f00573d6000803e3d6000fd5b505050506040513d6020811015611f1657600080fd5b50516040805160e060020a63ffffffff8516028152600160a060020a039092166004830152602482018790525160448083019260209291908290030181600087803b158015611f6457600080fd5b505af1158015611f78573d6000803e3d6000fd5b505050506040513d6020811015611f8e57600080fd5b50511515611f9b57600080fd5b600f546040805160e060020a63029b7d53028152600160a060020a038b8116600483015291518d93929092169163029b7d53916024808201926020929091908290030181600087803b158015611ff057600080fd5b505af1158015612004573d6000803e3d6000fd5b505050506040513d602081101561201a57600080fd5b5051604080518681529051600160a060020a03909216917f21c3387baaff2d916ae2cd1669d5f94fe9583036b96ef82acb3a4565815cfce89181900360200190a36124ee565b8660ff166001141561241d575050600160a060020a03861660009081526021602090815260408083208b8452909152812060018101805460028301805460048501805494879055918690556003850186905594905596509194506120ca868663ffffffff61309516565b6017549094506120e0908563ffffffff61309516565b601755600160a060020a0388166000908152601c602052604090205461210c908563ffffffff61309516565b600160a060020a0389166000908152601c60209081526040808320939093558e8252602490522054612144908563ffffffff61309516565b60008d8152602460209081526040808320939093558d8252602690522054612172908563ffffffff61309516565b60008c81526026602052604090205588156121ce57600160a060020a0388166000908152601e60205260409020546121b0908563ffffffff61309516565b600160a060020a0389166000908152601e6020526040902055612211565b600160a060020a0388166000908152601d60205260409020546121f7908563ffffffff61309516565b600160a060020a0389166000908152601d60205260409020555b600160a060020a0388166000908152601f602052604090205461223a908663ffffffff61309516565b600160a060020a03808a166000818152601f6020908152604080832095909555601154600f54865160e060020a63029b7d5302815260048101959095529551908516956340c10f1995169363029b7d539360248083019493928390030190829087803b1580156122a957600080fd5b505af11580156122bd573d6000803e3d6000fd5b505050506040513d60208110156122d357600080fd5b50516040805160e060020a63ffffffff8516028152600160a060020a039092166004830152602482018690525160448083019260209291908290030181600087803b15801561232157600080fd5b505af1158015612335573d6000803e3d6000fd5b505050506040513d602081101561234b57600080fd5b5051151561235857600080fd5b600f546040805160e060020a63029b7d53028152600160a060020a038b8116600483015291518d93929092169163029b7d53916024808201926020929091908290030181600087803b1580156123ad57600080fd5b505af11580156123c1573d6000803e3d6000fd5b505050506040513d60208110156123d757600080fd5b5051604080518581529051600160a060020a03909216917f2a9470ba36cb39f146ccc29717c9098e046e556211964a2454021d1d9fe9dd559181900360200190a36124ee565b50600089815260226020526040812060018101805460028301805492859055849055600383018490556004830193909355919650909450612464868663ffffffff61309516565b60185490945061247a908563ffffffff61309516565b601855600160a060020a0388166000908152601f60205260409020546124a6908663ffffffff61309516565b600160a060020a0389166000908152601f60209081526040808320939093558e82526025905220546124de908563ffffffff61309516565b60008d8152602560205260409020555b600e54604080517f8a066045000000000000000000000000000000000000000000000000000000008152600160a060020a038b811660048301526024820188905291519190921691638a0660459160448083019260209291908290030181600087803b15801561255d57600080fd5b505af1158015612571573d6000803e3d6000fd5b505050506040513d602081101561258757600080fd5b5051151561259457600080fd5b604080518781526020810187905260ff89168183015290518b91600160a060020a038b16917f212de36dcbb73c749ef074ec2565ecd3e461ebb1d28ea6021effdb8be7d44cda9181900360600190a3505050505050505050505050565b60008060006125ff846130a8565b9250925061260d84846136fc565b905061261a848383613e50565b50505050565b60008060008060008060008060008060008061263a614153565b509c50506126478d61454d565b9a50601560009054906101000a9004600160a060020a0316600160a060020a0316632dff0d0d8e6040518263ffffffff1660e060020a028152600401808260001916600019168152602001915050600060405180830381600087803b1580156126af57600080fd5b505af11580156126c3573d6000803e3d6000fd5b505050506040513d6000823e601f3d908101601f191682016040526101408110156126ed57600080fd5b8151602083015160408401516060850151608086015160a087015160c088015160e0890180519799969895979496939592949193928301929164010000000081111561273857600080fd5b8201602081018481111561274b57600080fd5b815164010000000081118282018710171561276557600080fd5b5050929190602001805190602001909291908051906020019092919050505050505050505050995099509950601360009054906101000a9004600160a060020a0316600160a060020a0316632dff0d0d8a6040518263ffffffff1660e060020a02815260040180826000191660001916815260200191505061010060405180830381600087803b1580156127f857600080fd5b505af115801561280c573d6000803e3d6000fd5b505050506040513d61010081101561282357600080fd5b50602081015160a0909101516014546040805160e060020a632dff0d0d028152600481018f90529051939a50919850600160a060020a031691632dff0d0d9160248082019260009290919082900301818387803b15801561288357600080fd5b505af1158015612897573d6000803e3d6000fd5b505050506040513d6000823e601f3d908101601f1916820160405260a08110156128c057600080fd5b81516020830151604084015160608501805193959294919391830192916401000000008111156128ef57600080fd5b8201602081018481111561290257600080fd5b815164010000000081118282018710171561291c57600080fd5b5050929190602001805164010000000081111561293857600080fd5b8201602081018481111561294b57600080fd5b815164010000000081118282018710171561296557600080fd5b505092919050505050509650505060008b1115612f4c57601254604080517f65cf0ace000000000000000000000000000000000000000000000000000000008152600481018b90529051600160a060020a03909216916365cf0ace916024808201926020929091908290030181600087803b1580156129e357600080fd5b505af11580156129f7573d6000803e3d6000fd5b505050506040513d6020811015612a0d57600080fd5b5051612a1a576000612aac565b612aac73__AOLibrary_____________________________63caf297656040518163ffffffff1660e060020a02815260040160206040518083038186803b158015612a6457600080fd5b505af4158015612a78573d6000803e3d6000fd5b505050506040513d6020811015612a8e57600080fd5b5051612aa08d8963ffffffff61491116565b9063ffffffff61493a16565b93506020600088600160a060020a0316600160a060020a0316815260200190815260200160002060008e600019166000191681526020019081526020016000209250838360020181905550600e60009054906101000a9004600160a060020a0316600160a060020a031663d6c9e1898885600201546040518363ffffffff1660e060020a0281526004018083600160a060020a0316600160a060020a0316815260200182815260200192505050602060405180830381600087803b158015612b7357600080fd5b505af1158015612b87573d6000803e3d6000fd5b505050506040513d6020811015612b9d57600080fd5b50511515612baa57600080fd5b6002830154604080518d8152602081018990528082019290925260006060830152518e91600160a060020a038a16916000805160206149628339815191529181900360800190a36021600086600160a060020a0316600160a060020a0316815260200190815260200160002060008e600019166000191681526020019081526020016000209150612c44848c61494f90919063ffffffff16565b60028301819055600e546040805160e060020a63d6c9e189028152600160a060020a03898116600483015260248201949094529051929091169163d6c9e189916044808201926020929091908290030181600087803b158015612ca657600080fd5b505af1158015612cba573d6000803e3d6000fd5b505050506040513d6020811015612cd057600080fd5b50511515612cdd57600080fd5b8c6000191685600160a060020a03166000805160206149628339815191528d612d7f8a73__AOLibrary_____________________________63caf297656040518163ffffffff1660e060020a02815260040160206040518083038186803b158015612d4757600080fd5b505af4158015612d5b573d6000803e3d6000fd5b505050506040513d6020811015612d7157600080fd5b50519063ffffffff61494f16565b60028701546040805193845260208401929092528282015260016060830152519081900360800190a35060008c815260226020908152604091829020825160e060020a63caf2976502815292519092612e469273__AOLibrary_____________________________9263caf29765926004808201939291829003018186803b158015612e0a57600080fd5b505af4158015612e1e573d6000803e3d6000fd5b505050506040513d6020811015612e3457600080fd5b5051612aa08d8f63ffffffff61491116565b60028201819055600e54600080546040805160e060020a63d6c9e189028152600160a060020a03928316600482015260248101959095525192169263d6c9e1899260448083019360209383900390910190829087803b158015612ea857600080fd5b505af1158015612ebc573d6000803e3d6000fd5b505050506040513d6020811015612ed257600080fd5b50511515612edf57600080fd5b8c600019166000809054906101000a9004600160a060020a0316600160a060020a03166000805160206149628339815191528d8f85600201546002604051808581526020018481526020018381526020018260ff16815260200194505050505060405180910390a3613086565b60408051600080825260208201899052818301819052606082015290518e91600160a060020a038a16916000805160206149628339815191529181900360800190a38c6000191685600160a060020a03166000805160206149628339815191526000612ff98a73__AOLibrary_____________________________63caf297656040518163ffffffff1660e060020a02815260040160206040518083038186803b158015612d4757600080fd5b60408051928352602083019190915260008282015260016060830152519081900360800190a38c600019166000809054906101000a9004600160a060020a0316600160a060020a031660008051602061496283398151915260008f60006002604051808581526020018481526020018381526020018260ff16815260200194505050505060405180910390a35b50505050505050505050505050565b818101828110156130a257fe5b92915050565b6000806000806000806000806000806130bf614153565b50506015546040805160e060020a632dff0d0d028152600481018f90529051929a50600160a060020a0390911691632dff0d0d9160248082019260009290919082900301818387803b15801561311457600080fd5b505af1158015613128573d6000803e3d6000fd5b505050506040513d6000823e601f3d908101601f1916820160405261014081101561315257600080fd5b8151602083015160408401516060850151608086015160a087015160c088015160e0890180519799969895979496939592949193928301929164010000000081111561319d57600080fd5b820160208101848111156131b057600080fd5b81516401000000008111828201871017156131ca57600080fd5b505092919060200180519060200190929190805190602001909291905050505050505050975097509750975050601360009054906101000a9004600160a060020a0316600160a060020a0316632dff0d0d886040518263ffffffff1660e060020a02815260040180826000191660001916815260200191505061010060405180830381600087803b15801561325e57600080fd5b505af1158015613272573d6000803e3d6000fd5b505050506040513d61010081101561328957600080fd5b810190808051906020019092919080519060200190929190805190602001909291908051906020019092919080519060200190929190805190602001909291908051906020019092919080519060200190929190505050505096505050509350506020600084600160a060020a0316600160a060020a0316815260200190815260200160002060008c6000191660001916815260200190815260200160002090508a816000018160001916905550601260009054906101000a9004600160a060020a0316600160a060020a03166365cf0ace876040518263ffffffff1660e060020a028152600401808260001916600019168152602001915050602060405180830381600087803b15801561339d57600080fd5b505af11580156133b1573d6000803e3d6000fd5b505050506040513d60208110156133c757600080fd5b50516133d457600061345a565b61345a73__AOLibrary_____________________________63caf297656040518163ffffffff1660e060020a02815260040160206040518083038186803b15801561341e57600080fd5b505af4158015613432573d6000803e3d6000fd5b505050506040513d602081101561344857600080fd5b5051612aa0868563ffffffff61491116565b81600101819055506135cf73__AOLibrary_____________________________63caf297656040518163ffffffff1660e060020a02815260040160206040518083038186803b1580156134ac57600080fd5b505af41580156134c0573d6000803e3d6000fd5b505050506040513d60208110156134d657600080fd5b50516040805160e060020a63caf297650281529051612aa09173__AOLibrary_____________________________9163caf2976591600480820192602092909190829003018186803b15801561352b57600080fd5b505af415801561353f573d6000803e3d6000fd5b505050506040513d602081101561355557600080fd5b50516040805160e060020a63caf297650281529051612aa0918e916135c3916135b6918b9173__AOLibrary_____________________________9163caf2976591600480820192602092909190829003018186803b158015612d4757600080fd5b8b9063ffffffff61491116565b9063ffffffff61491116565b6003820155600e546001820154604080517f87d4ca93000000000000000000000000000000000000000000000000000000008152600160a060020a03898116600483015287811660248301526044820193909352905191909216916387d4ca939160648083019260209291908290030181600087803b15801561365157600080fd5b505af1158015613665573d6000803e3d6000fd5b505050506040513d602081101561367b57600080fd5b5051151561368857600080fd5b600181015460408051868152602081018590528082019290925260006060830152518c91600160a060020a038616917f2bc2599ff4713444a049b5e4a07d2cde6becf6e7fc7c4e041bc1cf36894f10ee9181900360800190a380600101548160030154995099505050505050505050915091565b600080600080600080600080600080613713614153565b50509850601560009054906101000a9004600160a060020a0316600160a060020a0316632dff0d0d8d6040518263ffffffff1660e060020a028152600401808260001916600019168152602001915050600060405180830381600087803b15801561377d57600080fd5b505af1158015613791573d6000803e3d6000fd5b505050506040513d6000823e601f3d908101601f191682016040526101408110156137bb57600080fd5b8151602083015160408401516060850151608086015160a087015160c088015160e0890180519799969895979496939592949193928301929164010000000081111561380657600080fd5b8201602081018481111561381957600080fd5b815164010000000081118282018710171561383357600080fd5b50509291906020018051906020019092919080519060200190929190505050505050505097509750975097509750601360009054906101000a9004600160a060020a0316600160a060020a0316632dff0d0d886040518263ffffffff1660e060020a02815260040180826000191660001916815260200191505061010060405180830381600087803b1580156138c857600080fd5b505af11580156138dc573d6000803e3d6000fd5b505050506040513d6101008110156138f357600080fd5b5060a001516014546040805160e060020a632dff0d0d028152600481018c90529051929550600160a060020a0390911691632dff0d0d9160248082019260009290919082900301818387803b15801561394b57600080fd5b505af115801561395f573d6000803e3d6000fd5b505050506040513d6000823e601f3d908101601f1916820160405260a081101561398857600080fd5b81516020830151604084015160608501805193959294919391830192916401000000008111156139b757600080fd5b820160208101848111156139ca57600080fd5b81516401000000008111828201871017156139e457600080fd5b50509291906020018051640100000000811115613a0057600080fd5b82016020810184811115613a1357600080fd5b8151640100000000811182820187101715613a2d57600080fd5b50509291905050505050935050506021600083600160a060020a0316600160a060020a0316815260200190815260200160002060008d6000191660001916815260200190815260200160002090508b816000018160001916905550613a9b8b8561494f90919063ffffffff16565b8160010181905550613bac73__AOLibrary_____________________________63caf297656040518163ffffffff1660e060020a02815260040160206040518083038186803b158015613aed57600080fd5b505af4158015613b01573d6000803e3d6000fd5b505050506040513d6020811015613b1757600080fd5b50516040805160e060020a63caf297650281529051612aa09173__AOLibrary_____________________________9163caf2976591600480820192602092909190829003018186803b158015613b6c57600080fd5b505af4158015613b80573d6000803e3d6000fd5b505050506040513d6020811015613b9657600080fd5b5051612aa08d6135c38a8a63ffffffff61491116565b600480830191909155601254604080517f65cf0ace00000000000000000000000000000000000000000000000000000000815292830189905251600160a060020a03909116916365cf0ace9160248083019260209291908290030181600087803b158015613c1957600080fd5b505af1158015613c2d573d6000803e3d6000fd5b505050506040513d6020811015613c4357600080fd5b505115613d0357600e546001820154604080517f87d4ca93000000000000000000000000000000000000000000000000000000008152600160a060020a03898116600483015286811660248301526044820193909352905191909216916387d4ca939160648083019260209291908290030181600087803b158015613cc757600080fd5b505af1158015613cdb573d6000803e3d6000fd5b505050506040513d6020811015613cf157600080fd5b50511515613cfe57600080fd5b613d99565b600e5460018201546040805160e060020a63d6c9e189028152600160a060020a03868116600483015260248201939093529051919092169163d6c9e1899160448083019260209291908290030181600087803b158015613d6257600080fd5b505af1158015613d76573d6000803e3d6000fd5b505050506040513d6020811015613d8c57600080fd5b50511515613d9957600080fd5b8b6000191682600160a060020a03167f2bc2599ff4713444a049b5e4a07d2cde6becf6e7fc7c4e041bc1cf36894f10ee86613e158773__AOLibrary_____________________________63caf297656040518163ffffffff1660e060020a02815260040160206040518083038186803b158015612d4757600080fd5b600180870154604080519485526020850193909352838301526060830152519081900360800190a3600401549b9a5050505050505050505050565b6000806000613e5d614153565b6015546040805160e060020a632dff0d0d028152600481018c90529051929750600160a060020a039091169350632dff0d0d925060248082019260009290919082900301818387803b158015613eb257600080fd5b505af1158015613ec6573d6000803e3d6000fd5b505050506040513d6000823e601f3d908101601f19168201604052610140811015613ef057600080fd5b8151602083015160408401516060850151608086015160a087015160c088015160e08901805197999698959794969395929491939283019291640100000000811115613f3b57600080fd5b82016020810184811115613f4e57600080fd5b8151640100000000811182820187101715613f6857600080fd5b50509291906020018051906020019092919080519060200190929190505050505050505095505050505060226000876000191660001916815260200190815260200160002090508581600001816000191690555061405261404573__AOLibrary_____________________________63caf297656040518163ffffffff1660e060020a02815260040160206040518083038186803b15801561400957600080fd5b505af415801561401d573d6000803e3d6000fd5b505050506040513d602081101561403357600080fd5b5051612aa0878763ffffffff61491116565b869063ffffffff61309516565b60018201819055600e54600080546040805160e060020a63d6c9e189028152600160a060020a03928316600482015260248101959095525192169263d6c9e1899260448083019360209383900390910190829087803b1580156140b457600080fd5b505af11580156140c8573d6000803e3d6000fd5b505050506040513d60208110156140de57600080fd5b505115156140eb57600080fd5b6000805460018301546040805186815260208101949094528381019190915260026060840152518892600160a060020a03909216917f2bc2599ff4713444a049b5e4a07d2cde6becf6e7fc7c4e041bc1cf36894f10ee919081900360800190a3505050505050565b600d8054600354604080517f7065bedc000000000000000000000000000000000000000000000000000000008152600160a060020a0392831660048201526024810182905260448101949094527f696e666c6174696f6e5261746500000000000000000000000000000000000000606485015251600093849384938493849384939290921691637065bedc916084808301928692919082900301818387803b1580156141fe57600080fd5b505af1158015614212573d6000803e3d6000fd5b505050506040513d6000823e601f3d908101601f1916820160405260a081101561423b57600080fd5b81516020830151604084015160608501516080860180519496939592949193928301929164010000000081111561427157600080fd5b8201602081018481111561428457600080fd5b815164010000000081118282018710171561429e57600080fd5b5050600d54600354604080517f7065bedc000000000000000000000000000000000000000000000000000000008152600160a060020a03928316600482015260248101829052600860448201527f746865414f437574000000000000000000000000000000000000000000000000606482015290519a9d50911698637065bedc985060848083019850600097509095509085900301925083915084905087803b15801561434a57600080fd5b505af115801561435e573d6000803e3d6000fd5b505050506040513d6000823e601f3d908101601f1916820160405260a081101561438757600080fd5b8151602083015160408401516060850151608086018051949693959294919392830192916401000000008111156143bd57600080fd5b820160208101848111156143d057600080fd5b81516401000000008111828201871017156143ea57600080fd5b5050600d54600354604080517f7065bedc000000000000000000000000000000000000000000000000000000008152600160a060020a03928316600482015260248101829052601460448201527f746865414f4574686f734561726e656452617465000000000000000000000000606482015290519a9c50911698637065bedc985060848083019850600097509095509085900301925083915084905087803b15801561449657600080fd5b505af11580156144aa573d6000803e3d6000fd5b505050506040513d6000823e601f3d908101601f1916820160405260a08110156144d357600080fd5b81516020830151604084015160608501516080860180519496939592949193928301929164010000000081111561450957600080fd5b8201602081018481111561451c57600080fd5b815164010000000081118282018710171561453657600080fd5b509a9e999d50969b50979950505050505050505050565b600080600080600080600080614561614153565b50506015546040805160e060020a632dff0d0d028152600481018d90529051929950600160a060020a0390911691632dff0d0d9160248082019260009290919082900301818387803b1580156145b657600080fd5b505af11580156145ca573d6000803e3d6000fd5b505050506040513d6000823e601f3d908101601f191682016040526101408110156145f457600080fd5b8151602083015160408401516060850151608086015160a087015160c088015160e0890180519799969895979496939592949193928301929164010000000081111561463f57600080fd5b8201602081018481111561465257600080fd5b815164010000000081118282018710171561466c57600080fd5b505092919060200180519060200190929190805190602001909291905050505050505050505050965050601360009054906101000a9004600160a060020a0316600160a060020a0316632dff0d0d876040518263ffffffff1660e060020a02815260040180826000191660001916815260200191505061010060405180830381600087803b1580156146fd57600080fd5b505af1158015614711573d6000803e3d6000fd5b505050506040513d61010081101561472857600080fd5b506040808201516060830151608090930151825160e060020a63caf2976502815292519198509296509194506147cf9173__AOLibrary_____________________________9163caf29765916004808301926020929190829003018186803b15801561479357600080fd5b505af41580156147a7573d6000803e3d6000fd5b505050506040513d60208110156147bd57600080fd5b5051612aa0878a63ffffffff61491116565b91506148f273__AOLibrary_____________________________63caf297656040518163ffffffff1660e060020a02815260040160206040518083038186803b15801561481b57600080fd5b505af415801561482f573d6000803e3d6000fd5b505050506040513d602081101561484557600080fd5b5051604080517fd661dd310000000000000000000000000000000000000000000000000000000081529051612aa0918b916135c39173__AOLibrary_____________________________9163d661dd3191600480820192602092909190829003018186803b1580156148b657600080fd5b505af41580156148ca573d6000803e3d6000fd5b505050506040513d60208110156148e057600080fd5b5051612aa08a8a63ffffffff61491116565b9050614904828263ffffffff61309516565b9998505050505050505050565b6000821515614922575060006130a2565b5081810281838281151561493257fe5b04146130a257fe5b6000818381151561494757fe5b049392505050565b60008282111561495b57fe5b509003905600df9b18b8b292e153b0dfff6e1d71024ca7486117e59c0bbaf074ad370deebd1ca165627a7a72305820c3427b910f6feb9de3f13a8436f580aa4f40b9dad32a2e61dafe8bf4ef96c4c70029",
	"source": "pragma solidity ^0.4.24;\n\nimport './SafeMath.sol';\nimport './AOLibrary.sol';\nimport './TheAO.sol';\nimport './IAOEarning.sol';\nimport './IAOSetting.sol';\nimport './AOIon.sol';\nimport './INameFactory.sol';\nimport './Pathos.sol';\nimport './Ethos.sol';\nimport './IAOContent.sol';\nimport './IAOStakedContent.sol';\nimport './IAOContentHost.sol';\nimport './IAOPurchaseReceipt.sol';\n\n/**\n * @title AOEarning\n *\n * This contract stores the earning from staking/hosting content on AO\n */\ncontract AOEarning is TheAO, IAOEarning {\n\tusing SafeMath for uint256;\n\n\taddress public settingTAOId;\n\taddress public aoSettingAddress;\n\taddress public aoIonAddress;\n\taddress public nameFactoryAddress;\n\taddress public pathosAddress;\n\taddress public ethosAddress;\n\taddress public aoContentAddress;\n\taddress public aoStakedContentAddress;\n\taddress public aoContentHostAddress;\n\taddress public aoPurchaseReceiptAddress;\n\n\tIAOSetting internal _aoSetting;\n\tAOIon internal _aoIon;\n\tINameFactory internal _nameFactory;\n\tPathos internal _pathos;\n\tEthos internal _ethos;\n\tIAOContent internal _aoContent;\n\tIAOStakedContent internal _aoStakedContent;\n\tIAOContentHost internal _aoContentHost;\n\tIAOPurchaseReceipt internal _aoPurchaseReceipt;\n\n\t// Total earning from staking content from all nodes\n\tuint256 public totalStakedContentEarning;\n\n\t// Total earning from hosting content from all nodes\n\tuint256 public totalContentHostEarning;\n\n\t// Total The AO earning\n\tuint256 public totalTheAOEarning;\n\n\t// Mapping from PurchaseReceipt ID to its escrowed earning status\n\tmapping (bytes32 => bool) internal purchaseReceiptEarningEscrowed;\n\n\t// Mapping from PurchaseReceipt ID to its unescrowed earning status\n\tmapping (bytes32 => bool) internal purchaseReceiptEarningUnescrowed;\n\n\t// Mapping from address to his/her earning from content that he/she staked\n\tmapping (address => uint256) public ownerStakedContentEarning;\n\n\t// Mapping from address to his/her earning from content that he/she hosted\n\tmapping (address => uint256) public ownerContentHostEarning;\n\n\t// Mapping from address to his/her network price earning\n\t// i.e, when staked amount = filesize\n\tmapping (address => uint256) public ownerNetworkPriceEarning;\n\n\t// Mapping from address to his/her content price earning\n\t// i.e, when staked amount > filesize\n\tmapping (address => uint256) public ownerContentPriceEarning;\n\n\t// Mapping from address to his/her inflation bonus\n\tmapping (address => uint256) public ownerInflationBonusAccrued;\n\n\tstruct Earning {\n\t\tbytes32 purchaseReceiptId;\n\t\tuint256 paymentEarning;\n\t\tuint256 inflationBonus;\n\t\tuint256 pathosAmount;\n\t\tuint256 ethosAmount;\n\t}\n\n\t// Mapping from address to earning from staking content of a PurchaseReceipt ID\n\tmapping (address => mapping(bytes32 => Earning)) public ownerPurchaseReceiptStakeEarnings;\n\n\t// Mapping from address to earning from hosting content of a PurchaseReceipt ID\n\tmapping (address => mapping(bytes32 => Earning)) public ownerPurchaseReceiptHostEarnings;\n\n\t// Mapping from PurchaaseReceipt ID to earning for The AO\n\tmapping (bytes32 => Earning) public theAOPurchaseReceiptEarnings;\n\n\t// Mapping from StakedContent ID to it's total earning from staking\n\tmapping (bytes32 => uint256) public stakedContentStakeEarning;\n\n\t// Mapping from StakedContent ID to it's total earning from hosting\n\tmapping (bytes32 => uint256) public stakedContentHostEarning;\n\n\t// Mapping from StakedContent ID to it's total earning earned by The AO\n\tmapping (bytes32 => uint256) public stakedContentTheAOEarning;\n\n\t// Mapping from content host ID to it's total earning\n\tmapping (bytes32 => uint256) public contentHostEarning;\n\n\t// Event to be broadcasted to public when content creator/host earns the payment split in escrow when request node buys the content\n\t// recipientType:\n\t// 0 => Content Creator (Stake Owner)\n\t// 1 => Node Host\n\t// 2 => The AO\n\tevent PaymentEarningEscrowed(address indexed recipient, bytes32 indexed purchaseReceiptId, uint256 price, uint256 recipientProfitPercentage, uint256 recipientPaymentEarning, uint8 recipientType);\n\n\t// Event to be broadcasted to public when content creator/host/The AO earns inflation bonus in escrow when request node buys the content\n\t// recipientType:\n\t// 0 => Content Creator (Stake Owner)\n\t// 1 => Node Host\n\t// 2 => The AO\n\tevent InflationBonusEscrowed(address indexed recipient, bytes32 indexed purchaseReceiptId, uint256 totalInflationBonusAmount, uint256 recipientProfitPercentage, uint256 recipientInflationBonus, uint8 recipientType);\n\n\t// Event to be broadcasted to public when content creator/host/The AO earning is released from escrow\n\t// recipientType:\n\t// 0 => Content Creator (Stake Owner)\n\t// 1 => Node Host\n\t// 2 => The AO\n\tevent EarningUnescrowed(address indexed recipient, bytes32 indexed purchaseReceiptId, uint256 paymentEarning, uint256 inflationBonus, uint8 recipientType);\n\n\t// Event to be broadcasted to public when content creator's Name earns Pathos when a node buys a content\n\tevent PathosEarned(address indexed nameId, bytes32 indexed purchaseReceiptId, uint256 amount);\n\n\t// Event to be broadcasted to public when host's Name earns Ethos when a node buys a content\n\tevent EthosEarned(address indexed nameId, bytes32 indexed purchaseReceiptId, uint256 amount);\n\n\t/**\n\t * @dev Constructor function\n\t * @param _settingTAOId The TAO ID that controls the setting\n\t * @param _aoSettingAddress The address of AOSetting\n\t * @param _aoIonAddress The address of AOIon\n\t * @param _nameFactoryAddress The address of NameFactory\n\t * @param _pathosAddress The address of Pathos\n\t * @param _ethosAddress The address of Ethos\n\t * @param _nameTAOPositionAddress The address of NameTAOPosition\n\t */\n\tconstructor(address _settingTAOId,\n\t\taddress _aoSettingAddress,\n\t\taddress _aoIonAddress,\n\t\taddress _nameFactoryAddress,\n\t\taddress _pathosAddress,\n\t\taddress _ethosAddress,\n\t\taddress _aoContentAddress,\n\t\taddress _nameTAOPositionAddress) public {\n\t\tsetSettingTAOId(_settingTAOId);\n\t\tsetAOSettingAddress(_aoSettingAddress);\n\t\tsetAOIonAddress(_aoIonAddress);\n\t\tsetNameFactoryAddress(_nameFactoryAddress);\n\t\tsetPathosAddress(_pathosAddress);\n\t\tsetEthosAddress(_ethosAddress);\n\t\tsetAOContentAddress(_aoContentAddress);\n\t\tsetNameTAOPositionAddress(_nameTAOPositionAddress);\n\t}\n\n\t/**\n\t * @dev Checks if the calling contract address is The AO\n\t *\t\tOR\n\t *\t\tIf The AO is set to a Name/TAO, then check if calling address is the Advocate\n\t */\n\tmodifier onlyTheAO {\n\t\trequire (AOLibrary.isTheAO(msg.sender, theAO, nameTAOPositionAddress));\n\t\t_;\n\t}\n\n\t/***** The AO ONLY METHODS *****/\n\t/**\n\t * @dev Transfer ownership of The AO to new address\n\t * @param _theAO The new address to be transferred\n\t */\n\tfunction transferOwnership(address _theAO) public onlyTheAO {\n\t\trequire (_theAO != address(0));\n\t\ttheAO = _theAO;\n\t}\n\n\t/**\n\t * @dev Whitelist `_account` address to transact on behalf of others\n\t * @param _account The address to whitelist\n\t * @param _whitelist Either to whitelist or not\n\t */\n\tfunction setWhitelist(address _account, bool _whitelist) public onlyTheAO {\n\t\trequire (_account != address(0));\n\t\twhitelist[_account] = _whitelist;\n\t}\n\n\t/**\n\t * @dev The AO sets setting TAO ID\n\t * @param _settingTAOId The new setting TAO ID to set\n\t */\n\tfunction setSettingTAOId(address _settingTAOId) public onlyTheAO {\n\t\trequire (AOLibrary.isTAO(_settingTAOId));\n\t\tsettingTAOId = _settingTAOId;\n\t}\n\n\t/**\n\t * @dev The AO sets AO Setting address\n\t * @param _aoSettingAddress The address of AOSetting\n\t */\n\tfunction setAOSettingAddress(address _aoSettingAddress) public onlyTheAO {\n\t\trequire (_aoSettingAddress != address(0));\n\t\taoSettingAddress = _aoSettingAddress;\n\t\t_aoSetting = IAOSetting(_aoSettingAddress);\n\t}\n\n\t/**\n\t * @dev The AO sets AOIon address\n\t * @param _aoIonAddress The address of AOIon\n\t */\n\tfunction setAOIonAddress(address _aoIonAddress) public onlyTheAO {\n\t\trequire (_aoIonAddress != address(0));\n\t\taoIonAddress = _aoIonAddress;\n\t\t_aoIon = AOIon(_aoIonAddress);\n\t}\n\n\t/**\n\t * @dev The AO sets NameFactory address\n\t * @param _nameFactoryAddress The address of NameFactory\n\t */\n\tfunction setNameFactoryAddress(address _nameFactoryAddress) public onlyTheAO {\n\t\trequire (_nameFactoryAddress != address(0));\n\t\tnameFactoryAddress = _nameFactoryAddress;\n\t\t_nameFactory = INameFactory(_nameFactoryAddress);\n\t}\n\n\t/**\n\t * @dev The AO sets Pathos address\n\t * @param _pathosAddress The address of Pathos\n\t */\n\tfunction setPathosAddress(address _pathosAddress) public onlyTheAO {\n\t\trequire (_pathosAddress != address(0));\n\t\tpathosAddress = _pathosAddress;\n\t\t_pathos = Pathos(_pathosAddress);\n\t}\n\n\t/**\n\t * @dev The AO sets Ethos address\n\t * @param _ethosAddress The address of Ethos\n\t */\n\tfunction setEthosAddress(address _ethosAddress) public onlyTheAO {\n\t\trequire (_ethosAddress != address(0));\n\t\tethosAddress = _ethosAddress;\n\t\t_ethos = Ethos(_ethosAddress);\n\t}\n\n\t/**\n\t * @dev The AO sets AOContent address\n\t * @param _aoContentAddress The address of AOContent\n\t */\n\tfunction setAOContentAddress(address _aoContentAddress) public onlyTheAO {\n\t\trequire (_aoContentAddress != address(0));\n\t\taoContentAddress = _aoContentAddress;\n\t\t_aoContent = IAOContent(_aoContentAddress);\n\t}\n\n\t/**\n\t * @dev The AO sets AOStakedContent address\n\t * @param _aoStakedContentAddress The address of AOStakedContent\n\t */\n\tfunction setAOStakedContentAddress(address _aoStakedContentAddress) public onlyTheAO {\n\t\trequire (_aoStakedContentAddress != address(0));\n\t\taoStakedContentAddress = _aoStakedContentAddress;\n\t\t_aoStakedContent = IAOStakedContent(_aoStakedContentAddress);\n\t}\n\n\t/**\n\t * @dev The AO sets AOContentHost address\n\t * @param _aoContentHostAddress The address of AOContentHost\n\t */\n\tfunction setAOContentHostAddress(address _aoContentHostAddress) public onlyTheAO {\n\t\trequire (_aoContentHostAddress != address(0));\n\t\taoContentHostAddress = _aoContentHostAddress;\n\t\t_aoContentHost = IAOContentHost(_aoContentHostAddress);\n\t}\n\n\t/**\n\t * @dev The AO sets AOPurchaseReceipt address\n\t * @param _aoPurchaseReceiptAddress The address of AOPurchaseReceipt\n\t */\n\tfunction setAOPurchaseReceiptAddress(address _aoPurchaseReceiptAddress) public onlyTheAO {\n\t\trequire (_aoPurchaseReceiptAddress != address(0));\n\t\taoPurchaseReceiptAddress = _aoPurchaseReceiptAddress;\n\t\t_aoPurchaseReceipt = IAOPurchaseReceipt(_aoPurchaseReceiptAddress);\n\t}\n\n\t/**\n\t * @dev The AO set the NameTAOPosition Address\n\t * @param _nameTAOPositionAddress The address of NameTAOPosition\n\t */\n\tfunction setNameTAOPositionAddress(address _nameTAOPositionAddress) public onlyTheAO {\n\t\trequire (_nameTAOPositionAddress != address(0));\n\t\tnameTAOPositionAddress = _nameTAOPositionAddress;\n\t}\n\n\t/***** PUBLIC METHODS *****/\n\t/**\n\t * @dev Calculate the content creator/host/The AO earning when request node buys the content.\n\t *\t\tAlso at this stage, all of the earnings are stored in escrow\n\t * @param _purchaseReceiptId The ID of the purchase receipt object\n\t * @return true on success\n\t */\n\tfunction calculateEarning(bytes32 _purchaseReceiptId) external inWhitelist returns (bool) {\n\t\trequire (_aoPurchaseReceipt.isExist(_purchaseReceiptId));\n\t\trequire (!purchaseReceiptEarningEscrowed[_purchaseReceiptId]);\n\t\tpurchaseReceiptEarningEscrowed[_purchaseReceiptId] = true;\n\n\t\t// Split the payment earning between content creator and host and store them in escrow\n\t\t_escrowPaymentEarning(_purchaseReceiptId);\n\n\t\t// Calculate the inflation bonus earning for content creator/node/The AO in escrow\n\t\t_escrowInflationBonus(_purchaseReceiptId);\n\t\treturn true;\n\t}\n\n\t/**\n\t * @dev Release the payment earning and inflation bonus that is in escrow for specific PurchaseReceipt ID\n\t * @param _purchaseReceiptId The purchase receipt ID to check\n\t * @return true on success\n\t */\n\tfunction releaseEarning(bytes32 _purchaseReceiptId) external inWhitelist returns (bool) {\n\t\trequire (_aoPurchaseReceipt.isExist(_purchaseReceiptId));\n\t\trequire (purchaseReceiptEarningEscrowed[_purchaseReceiptId] && !purchaseReceiptEarningUnescrowed[_purchaseReceiptId]);\n\t\tpurchaseReceiptEarningUnescrowed[_purchaseReceiptId] = true;\n\n\t\t(bytes32 _contentHostId, bytes32 _stakedContentId, bytes32 _contentId,,, uint256 _amountPaidByBuyer,,,,) = _aoPurchaseReceipt.getById(_purchaseReceiptId);\n\t\t(, address _stakeOwner,,,,,,) = _aoStakedContent.getById(_stakedContentId);\n\t\t(,, address _host,,) = _aoContentHost.getById(_contentHostId);\n\t\t(, uint256 _fileSize,,,,,,,) = _aoContent.getById(_contentId);\n\n\t\t// Release the earning in escrow for stake owner\n\t\t_releaseEarning(_stakedContentId, _contentHostId, _purchaseReceiptId, _amountPaidByBuyer > _fileSize, _stakeOwner, 0);\n\n\t\t// Release the earning in escrow for host\n\t\t_releaseEarning(_stakedContentId, _contentHostId, _purchaseReceiptId, _amountPaidByBuyer > _fileSize, _host, 1);\n\n\t\t// Release the earning in escrow for The AO\n\t\t_releaseEarning(_stakedContentId, _contentHostId, _purchaseReceiptId, _amountPaidByBuyer > _fileSize, theAO, 2);\n\t\treturn true;\n\t}\n\n\t/**\n\t * @dev Return the earning information of a StakedContent ID\n\t * @param _stakedContentId The ID of the staked content\n\t * @return the total earning from staking this content\n\t * @return the total earning from hosting this content\n\t * @return the total The AO earning of this content\n\t */\n\tfunction getTotalStakedContentEarning(bytes32 _stakedContentId) external view returns (uint256, uint256, uint256) {\n\t\treturn (\n\t\t\tstakedContentStakeEarning[_stakedContentId],\n\t\t\tstakedContentHostEarning[_stakedContentId],\n\t\t\tstakedContentTheAOEarning[_stakedContentId]\n\t\t);\n\t}\n\n\t/***** INTERNAL METHODS *****/\n\t/**\n\t * @dev Calculate the payment split for content creator/host and store them in escrow\n\t * @param _purchaseReceiptId The ID of the purchase receipt object\n\t */\n\tfunction _escrowPaymentEarning(bytes32 _purchaseReceiptId) internal {\n\t\t(uint256 _stakeOwnerEarning, uint256 _pathosAmount) = _escrowStakeOwnerPaymentEarning(_purchaseReceiptId);\n\t\t(uint256 _ethosAmount) = _escrowHostPaymentEarning(_purchaseReceiptId, _stakeOwnerEarning);\n\t\t_escrowTheAOPaymentEarning(_purchaseReceiptId, _pathosAmount, _ethosAmount);\n\t}\n\n\t/**\n\t * @dev Calculate the payment split for content creator and store them in escrow\n\t * @param _purchaseReceiptId The ID of the purchase receipt object\n\t * @return The stake owner's earning amount\n\t * @return The pathos earned from this transaction\n\t */\n\tfunction _escrowStakeOwnerPaymentEarning(bytes32 _purchaseReceiptId) internal returns (uint256, uint256) {\n\t\t(uint256 inflationRate,,) = _getSettingVariables();\n\t\t(, bytes32 _stakedContentId, bytes32 _contentId, address _buyer, uint256 _price,,,,,) = _aoPurchaseReceipt.getById(_purchaseReceiptId);\n\t\t(, address _stakeOwner,,,, uint256 _profitPercentage,,) = _aoStakedContent.getById(_stakedContentId);\n\n\t\tEarning storage _ownerPurchaseReceiptStakeEarning = ownerPurchaseReceiptStakeEarnings[_stakeOwner][_purchaseReceiptId];\n\t\t_ownerPurchaseReceiptStakeEarning.purchaseReceiptId = _purchaseReceiptId;\n\n\t\t// Store how much the content creator (stake owner) earns in escrow\n\t\t// If content is AO Content Usage Type, stake owner earns 0%\n\t\t// and all profit goes to the serving host node\n\t\t_ownerPurchaseReceiptStakeEarning.paymentEarning = _aoContent.isAOContentUsageType(_contentId) ? (_price.mul(_profitPercentage)).div(AOLibrary.PERCENTAGE_DIVISOR()) : 0;\n\t\t// Pathos = Price X Node Share X Inflation Rate\n\t\t_ownerPurchaseReceiptStakeEarning.pathosAmount = _price.mul(AOLibrary.PERCENTAGE_DIVISOR().sub(_profitPercentage)).mul(inflationRate).div(AOLibrary.PERCENTAGE_DIVISOR()).div(AOLibrary.PERCENTAGE_DIVISOR());\n\t\trequire (_aoIon.escrowFrom(_buyer, _stakeOwner, _ownerPurchaseReceiptStakeEarning.paymentEarning));\n\t\temit PaymentEarningEscrowed(_stakeOwner, _purchaseReceiptId, _price, _profitPercentage, _ownerPurchaseReceiptStakeEarning.paymentEarning, 0);\n\t\treturn (_ownerPurchaseReceiptStakeEarning.paymentEarning, _ownerPurchaseReceiptStakeEarning.pathosAmount);\n\t}\n\n\t/**\n\t * @dev Calculate the payment split for host node and store them in escrow\n\t * @param _purchaseReceiptId The ID of the purchase receipt object\n\t * @param _stakeOwnerEarning The stake owner's earning amount\n\t * @return The ethos earned from this transaction\n\t */\n\tfunction _escrowHostPaymentEarning(bytes32 _purchaseReceiptId, uint256 _stakeOwnerEarning) internal returns (uint256) {\n\t\t(uint256 inflationRate,,) = _getSettingVariables();\n\t\t(bytes32 _contentHostId, bytes32 _stakedContentId, bytes32 _contentId, address _buyer, uint256 _price,,,,,) = _aoPurchaseReceipt.getById(_purchaseReceiptId);\n\t\t(,,,,, uint256 _profitPercentage,,) = _aoStakedContent.getById(_stakedContentId);\n\t\t(,, address _host,,) = _aoContentHost.getById(_contentHostId);\n\n\t\t// Store how much the node host earns in escrow\n\t\tEarning storage _ownerPurchaseReceiptHostEarning = ownerPurchaseReceiptHostEarnings[_host][_purchaseReceiptId];\n\t\t_ownerPurchaseReceiptHostEarning.purchaseReceiptId = _purchaseReceiptId;\n\t\t_ownerPurchaseReceiptHostEarning.paymentEarning = _price.sub(_stakeOwnerEarning);\n\t\t// Ethos = Price X Creator Share X Inflation Rate\n\t\t_ownerPurchaseReceiptHostEarning.ethosAmount = _price.mul(_profitPercentage).mul(inflationRate).div(AOLibrary.PERCENTAGE_DIVISOR()).div(AOLibrary.PERCENTAGE_DIVISOR());\n\n\t\tif (_aoContent.isAOContentUsageType(_contentId)) {\n\t\t\trequire (_aoIon.escrowFrom(_buyer, _host, _ownerPurchaseReceiptHostEarning.paymentEarning));\n\t\t} else {\n\t\t\t// If not AO Content usage type, we want to mint to the host\n\t\t\trequire (_aoIon.mintEscrow(_host, _ownerPurchaseReceiptHostEarning.paymentEarning));\n\t\t}\n\t\temit PaymentEarningEscrowed(_host, _purchaseReceiptId, _price, AOLibrary.PERCENTAGE_DIVISOR().sub(_profitPercentage), _ownerPurchaseReceiptHostEarning.paymentEarning, 1);\n\t\treturn _ownerPurchaseReceiptHostEarning.ethosAmount;\n\t}\n\n\t/**\n\t * @dev Calculate the earning for The AO and store them in escrow\n\t * @param _purchaseReceiptId The ID of the purchase receipt object\n\t * @param _pathosAmount The amount of pathos earned by stake owner\n\t * @param _ethosAmount The amount of ethos earned by host node\n\t */\n\tfunction _escrowTheAOPaymentEarning(bytes32 _purchaseReceiptId, uint256 _pathosAmount, uint256 _ethosAmount) internal {\n\t\t(,,uint256 theAOEthosEarnedRate) = _getSettingVariables();\n\t\t(,,,, uint256 _price,,,,,) = _aoPurchaseReceipt.getById(_purchaseReceiptId);\n\n\t\t// Store how much The AO earns in escrow\n\t\tEarning storage _theAOPurchaseReceiptEarning = theAOPurchaseReceiptEarnings[_purchaseReceiptId];\n\t\t_theAOPurchaseReceiptEarning.purchaseReceiptId = _purchaseReceiptId;\n\t\t// Pathos + X% of Ethos\n\t\t_theAOPurchaseReceiptEarning.paymentEarning = _pathosAmount.add(_ethosAmount.mul(theAOEthosEarnedRate).div(AOLibrary.PERCENTAGE_DIVISOR()));\n\t\trequire (_aoIon.mintEscrow(theAO, _theAOPurchaseReceiptEarning.paymentEarning));\n\t\temit PaymentEarningEscrowed(theAO, _purchaseReceiptId, _price, 0, _theAOPurchaseReceiptEarning.paymentEarning, 2);\n\t}\n\n\t/**\n\t * @dev Mint the inflation bonus for content creator/host/The AO and store them in escrow\n\t * @param _purchaseReceiptId The ID of the purchase receipt object\n\t */\n\tfunction _escrowInflationBonus(\n\t\tbytes32 _purchaseReceiptId\n\t) internal {\n\t\t(, uint256 theAOCut,) = _getSettingVariables();\n\t\tuint256 _inflationBonusAmount = _calculateInflationBonus(_purchaseReceiptId);\n\t\t(bytes32 _contentHostId, bytes32 _stakedContentId, bytes32 _contentId,,,,,,,) = _aoPurchaseReceipt.getById(_purchaseReceiptId);\n\t\t(, address _stakeOwner,,,, uint256 _profitPercentage,,) = _aoStakedContent.getById(_stakedContentId);\n\t\t(,, address _host,,) = _aoContentHost.getById(_contentHostId);\n\n\t\tif (_inflationBonusAmount > 0) {\n\t\t\t// Store how much the content creator earns in escrow\n\t\t\tuint256 _stakeOwnerInflationBonus = _aoContent.isAOContentUsageType(_contentId) ? (_inflationBonusAmount.mul(_profitPercentage)).div(AOLibrary.PERCENTAGE_DIVISOR()) : 0;\n\t\t\tEarning storage _ownerPurchaseReceiptStakeEarning = ownerPurchaseReceiptStakeEarnings[_stakeOwner][_purchaseReceiptId];\n\t\t\t_ownerPurchaseReceiptStakeEarning.inflationBonus = _stakeOwnerInflationBonus;\n\t\t\trequire (_aoIon.mintEscrow(_stakeOwner, _ownerPurchaseReceiptStakeEarning.inflationBonus));\n\t\t\temit InflationBonusEscrowed(_stakeOwner, _purchaseReceiptId, _inflationBonusAmount, _profitPercentage, _ownerPurchaseReceiptStakeEarning.inflationBonus, 0);\n\n\t\t\t// Store how much the host earns in escrow\n\t\t\tEarning storage _ownerPurchaseReceiptHostEarning = ownerPurchaseReceiptHostEarnings[_host][_purchaseReceiptId];\n\t\t\t_ownerPurchaseReceiptHostEarning.inflationBonus = _inflationBonusAmount.sub(_stakeOwnerInflationBonus);\n\t\t\trequire (_aoIon.mintEscrow(_host, _ownerPurchaseReceiptHostEarning.inflationBonus));\n\t\t\temit InflationBonusEscrowed(_host, _purchaseReceiptId, _inflationBonusAmount, AOLibrary.PERCENTAGE_DIVISOR().sub(_profitPercentage), _ownerPurchaseReceiptHostEarning.inflationBonus, 1);\n\n\t\t\t// Store how much the The AO earns in escrow\n\t\t\tEarning storage _theAOPurchaseReceiptEarning = theAOPurchaseReceiptEarnings[_purchaseReceiptId];\n\t\t\t_theAOPurchaseReceiptEarning.inflationBonus = (_inflationBonusAmount.mul(theAOCut)).div(AOLibrary.PERCENTAGE_DIVISOR());\n\t\t\trequire (_aoIon.mintEscrow(theAO, _theAOPurchaseReceiptEarning.inflationBonus));\n\t\t\temit InflationBonusEscrowed(theAO, _purchaseReceiptId, _inflationBonusAmount, theAOCut, _theAOPurchaseReceiptEarning.inflationBonus, 2);\n\t\t} else {\n\t\t\temit InflationBonusEscrowed(_stakeOwner, _purchaseReceiptId, 0, _profitPercentage, 0, 0);\n\t\t\temit InflationBonusEscrowed(_host, _purchaseReceiptId, 0, AOLibrary.PERCENTAGE_DIVISOR().sub(_profitPercentage), 0, 1);\n\t\t\temit InflationBonusEscrowed(theAO, _purchaseReceiptId, 0, theAOCut, 0, 2);\n\t\t}\n\t}\n\n\t/**\n\t * @dev Calculate the inflation bonus amount\n\t * @param _purchaseReceiptId The ID of the PurchaseReceipt\n\t * @return the bonus network amount\n\t */\n\tfunction _calculateInflationBonus(bytes32 _purchaseReceiptId) internal view returns (uint256) {\n\t\t(uint256 inflationRate,,) = _getSettingVariables();\n\t\t(, bytes32 _stakedContentId,,,,,,,,) = _aoPurchaseReceipt.getById(_purchaseReceiptId);\n\t\t(,,uint256 _networkAmount, uint256 _primordialAmount, uint256 _primordialWeightedMultiplier,,,) = _aoStakedContent.getById(_stakedContentId);\n\n\t\tuint256 _networkBonus = _networkAmount.mul(inflationRate).div(AOLibrary.PERCENTAGE_DIVISOR());\n\t\tuint256 _primordialBonus = _primordialAmount.mul(_primordialWeightedMultiplier).div(AOLibrary.MULTIPLIER_DIVISOR()).mul(inflationRate).div(AOLibrary.PERCENTAGE_DIVISOR());\n\t\treturn _networkBonus.add(_primordialBonus);\n\t}\n\n\t/**\n\t * @dev Release the escrowed earning for a specific PurchaseReceipt ID for an account\n\t * @param _stakedContentId The ID of the staked content\n\t * @param _contentHostId The ID of the hosted content\n\t * @param _purchaseReceiptId The purchase receipt ID\n\t * @param _buyerPaidMoreThanFileSize Whether or not the request node paid more than filesize when buying the content\n\t * @param _account The address of account that made the earning (content creator/host)\n\t * @param _recipientType The type of the earning recipient (0 => content creator. 1 => host. 2 => theAO)\n\t */\n\tfunction _releaseEarning(bytes32 _stakedContentId, bytes32 _contentHostId, bytes32 _purchaseReceiptId, bool _buyerPaidMoreThanFileSize, address _account, uint8 _recipientType) internal {\n\t\t// Make sure the recipient type is valid\n\t\trequire (_recipientType >= 0 && _recipientType <= 2);\n\n\t\tuint256 _paymentEarning;\n\t\tuint256 _inflationBonus;\n\t\tuint256 _totalEarning;\n\t\tuint256 _pathosAmount;\n\t\tuint256 _ethosAmount;\n\t\tif (_recipientType == 0) {\n\t\t\tEarning storage _earning = ownerPurchaseReceiptStakeEarnings[_account][_purchaseReceiptId];\n\t\t\t_paymentEarning = _earning.paymentEarning;\n\t\t\t_inflationBonus = _earning.inflationBonus;\n\t\t\t_pathosAmount = _earning.pathosAmount;\n\t\t\t_earning.paymentEarning = 0;\n\t\t\t_earning.inflationBonus = 0;\n\t\t\t_earning.pathosAmount = 0;\n\t\t\t_earning.ethosAmount = 0;\n\t\t\t_totalEarning = _paymentEarning.add(_inflationBonus);\n\n\t\t\t// Update the global var settings\n\t\t\ttotalStakedContentEarning = totalStakedContentEarning.add(_totalEarning);\n\t\t\townerStakedContentEarning[_account] = ownerStakedContentEarning[_account].add(_totalEarning);\n\t\t\tstakedContentStakeEarning[_stakedContentId] = stakedContentStakeEarning[_stakedContentId].add(_totalEarning);\n\t\t\tif (_buyerPaidMoreThanFileSize) {\n\t\t\t\townerContentPriceEarning[_account] = ownerContentPriceEarning[_account].add(_totalEarning);\n\t\t\t} else {\n\t\t\t\townerNetworkPriceEarning[_account] = ownerNetworkPriceEarning[_account].add(_totalEarning);\n\t\t\t}\n\t\t\townerInflationBonusAccrued[_account] = ownerInflationBonusAccrued[_account].add(_inflationBonus);\n\n\t\t\t// Reward the content creator/stake owner with some Pathos\n\t\t\trequire (_pathos.mint(_nameFactory.ethAddressToNameId(_account), _pathosAmount));\n\t\t\temit PathosEarned(_nameFactory.ethAddressToNameId(_account), _purchaseReceiptId, _pathosAmount);\n\t\t} else if (_recipientType == 1) {\n\t\t\t_earning = ownerPurchaseReceiptHostEarnings[_account][_purchaseReceiptId];\n\t\t\t_paymentEarning = _earning.paymentEarning;\n\t\t\t_inflationBonus = _earning.inflationBonus;\n\t\t\t_ethosAmount = _earning.ethosAmount;\n\t\t\t_earning.paymentEarning = 0;\n\t\t\t_earning.inflationBonus = 0;\n\t\t\t_earning.pathosAmount = 0;\n\t\t\t_earning.ethosAmount = 0;\n\t\t\t_totalEarning = _paymentEarning.add(_inflationBonus);\n\n\t\t\t// Update the global var settings\n\t\t\ttotalContentHostEarning = totalContentHostEarning.add(_totalEarning);\n\t\t\townerContentHostEarning[_account] = ownerContentHostEarning[_account].add(_totalEarning);\n\t\t\tstakedContentHostEarning[_stakedContentId] = stakedContentHostEarning[_stakedContentId].add(_totalEarning);\n\t\t\tcontentHostEarning[_contentHostId] = contentHostEarning[_contentHostId].add(_totalEarning);\n\t\t\tif (_buyerPaidMoreThanFileSize) {\n\t\t\t\townerContentPriceEarning[_account] = ownerContentPriceEarning[_account].add(_totalEarning);\n\t\t\t} else {\n\t\t\t\townerNetworkPriceEarning[_account] = ownerNetworkPriceEarning[_account].add(_totalEarning);\n\t\t\t}\n\t\t\townerInflationBonusAccrued[_account] = ownerInflationBonusAccrued[_account].add(_inflationBonus);\n\n\t\t\t// Reward the host node with some Ethos\n\t\t\trequire (_ethos.mint(_nameFactory.ethAddressToNameId(_account), _ethosAmount));\n\t\t\temit EthosEarned(_nameFactory.ethAddressToNameId(_account), _purchaseReceiptId, _ethosAmount);\n\t\t} else {\n\t\t\t_earning = theAOPurchaseReceiptEarnings[_purchaseReceiptId];\n\t\t\t_paymentEarning = _earning.paymentEarning;\n\t\t\t_inflationBonus = _earning.inflationBonus;\n\t\t\t_earning.paymentEarning = 0;\n\t\t\t_earning.inflationBonus = 0;\n\t\t\t_earning.pathosAmount = 0;\n\t\t\t_earning.ethosAmount = 0;\n\t\t\t_totalEarning = _paymentEarning.add(_inflationBonus);\n\n\t\t\t// Update the global var settings\n\t\t\ttotalTheAOEarning = totalTheAOEarning.add(_totalEarning);\n\t\t\townerInflationBonusAccrued[_account] = ownerInflationBonusAccrued[_account].add(_inflationBonus);\n\t\t\tstakedContentTheAOEarning[_stakedContentId] = stakedContentTheAOEarning[_stakedContentId].add(_totalEarning);\n\t\t}\n\t\trequire (_aoIon.unescrowFrom(_account, _totalEarning));\n\t\temit EarningUnescrowed(_account, _purchaseReceiptId, _paymentEarning, _inflationBonus, _recipientType);\n\t}\n\n\t/**\n\t * @dev Get setting variables\n\t * @return inflationRate The rate to use when calculating inflation bonus\n\t * @return theAOCut The rate to use when calculating the AO earning\n\t * @return theAOEthosEarnedRate The rate to use when calculating the Ethos to AO rate for the AO\n\t */\n\tfunction _getSettingVariables() internal view returns (uint256, uint256, uint256) {\n\t\t(uint256 inflationRate,,,,) = _aoSetting.getSettingValuesByTAOName(settingTAOId, 'inflationRate');\n\t\t(uint256 theAOCut,,,,) = _aoSetting.getSettingValuesByTAOName(settingTAOId, 'theAOCut');\n\t\t(uint256 theAOEthosEarnedRate,,,,) = _aoSetting.getSettingValuesByTAOName(settingTAOId, 'theAOEthosEarnedRate');\n\n\t\treturn (inflationRate, theAOCut, theAOEthosEarnedRate);\n\t}\n}\n",
	"sourcePath": "/Users/johanmulyono/Work/AO/ao-contracts/contracts/AOEarning.sol",
	"compiler": {
		"name": "solc",
		"version": "0.4.24+commit.e67f0147.Emscripten.clang"
	},
	"schemaVersion": "2.0.1",
	"updatedAt": "2019-03-19T01:57:06.111Z"
}