{
	"contractName": "AOEarning",
	"abi": [
		{
			"constant": true,
			"inputs": [],
			"name": "aoStakedContentAddress",
			"outputs": [
				{
					"name": "",
					"type": "address"
				}
			],
			"payable": false,
			"stateMutability": "view",
			"type": "function"
		},
		{
			"constant": true,
			"inputs": [],
			"name": "totalStakedContentEarning",
			"outputs": [
				{
					"name": "",
					"type": "uint256"
				}
			],
			"payable": false,
			"stateMutability": "view",
			"type": "function"
		},
		{
			"constant": true,
			"inputs": [],
			"name": "aoSettingAddress",
			"outputs": [
				{
					"name": "",
					"type": "address"
				}
			],
			"payable": false,
			"stateMutability": "view",
			"type": "function"
		},
		{
			"constant": true,
			"inputs": [
				{
					"name": "",
					"type": "bytes32"
				}
			],
			"name": "contentHostEarning",
			"outputs": [
				{
					"name": "",
					"type": "uint256"
				}
			],
			"payable": false,
			"stateMutability": "view",
			"type": "function"
		},
		{
			"constant": true,
			"inputs": [
				{
					"name": "",
					"type": "address"
				}
			],
			"name": "ownerContentPriceEarning",
			"outputs": [
				{
					"name": "",
					"type": "uint256"
				}
			],
			"payable": false,
			"stateMutability": "view",
			"type": "function"
		},
		{
			"constant": true,
			"inputs": [
				{
					"name": "",
					"type": "address"
				}
			],
			"name": "ownerStakedContentEarning",
			"outputs": [
				{
					"name": "",
					"type": "uint256"
				}
			],
			"payable": false,
			"stateMutability": "view",
			"type": "function"
		},
		{
			"constant": true,
			"inputs": [],
			"name": "aoIonAddress",
			"outputs": [
				{
					"name": "",
					"type": "address"
				}
			],
			"payable": false,
			"stateMutability": "view",
			"type": "function"
		},
		{
			"constant": true,
			"inputs": [],
			"name": "pathosAddress",
			"outputs": [
				{
					"name": "",
					"type": "address"
				}
			],
			"payable": false,
			"stateMutability": "view",
			"type": "function"
		},
		{
			"constant": true,
			"inputs": [],
			"name": "nameTAOPositionAddress",
			"outputs": [
				{
					"name": "",
					"type": "address"
				}
			],
			"payable": false,
			"stateMutability": "view",
			"type": "function"
		},
		{
			"constant": true,
			"inputs": [
				{
					"name": "",
					"type": "bytes32"
				}
			],
			"name": "stakedContentTheAOEarning",
			"outputs": [
				{
					"name": "",
					"type": "uint256"
				}
			],
			"payable": false,
			"stateMutability": "view",
			"type": "function"
		},
		{
			"constant": true,
			"inputs": [],
			"name": "totalContentHostEarning",
			"outputs": [
				{
					"name": "",
					"type": "uint256"
				}
			],
			"payable": false,
			"stateMutability": "view",
			"type": "function"
		},
		{
			"constant": true,
			"inputs": [],
			"name": "aoContentAddress",
			"outputs": [
				{
					"name": "",
					"type": "address"
				}
			],
			"payable": false,
			"stateMutability": "view",
			"type": "function"
		},
		{
			"constant": true,
			"inputs": [
				{
					"name": "",
					"type": "address"
				},
				{
					"name": "",
					"type": "bytes32"
				}
			],
			"name": "ownerPurchaseReceiptHostEarnings",
			"outputs": [
				{
					"name": "purchaseReceiptId",
					"type": "bytes32"
				},
				{
					"name": "paymentEarning",
					"type": "uint256"
				},
				{
					"name": "inflationBonus",
					"type": "uint256"
				},
				{
					"name": "pathosAmount",
					"type": "uint256"
				},
				{
					"name": "ethosAmount",
					"type": "uint256"
				}
			],
			"payable": false,
			"stateMutability": "view",
			"type": "function"
		},
		{
			"constant": true,
			"inputs": [],
			"name": "ethosAddress",
			"outputs": [
				{
					"name": "",
					"type": "address"
				}
			],
			"payable": false,
			"stateMutability": "view",
			"type": "function"
		},
		{
			"constant": true,
			"inputs": [
				{
					"name": "",
					"type": "address"
				},
				{
					"name": "",
					"type": "bytes32"
				}
			],
			"name": "ownerPurchaseReceiptStakeEarnings",
			"outputs": [
				{
					"name": "purchaseReceiptId",
					"type": "bytes32"
				},
				{
					"name": "paymentEarning",
					"type": "uint256"
				},
				{
					"name": "inflationBonus",
					"type": "uint256"
				},
				{
					"name": "pathosAmount",
					"type": "uint256"
				},
				{
					"name": "ethosAmount",
					"type": "uint256"
				}
			],
			"payable": false,
			"stateMutability": "view",
			"type": "function"
		},
		{
			"constant": true,
			"inputs": [],
			"name": "aoContentHostAddress",
			"outputs": [
				{
					"name": "",
					"type": "address"
				}
			],
			"payable": false,
			"stateMutability": "view",
			"type": "function"
		},
		{
			"constant": true,
			"inputs": [
				{
					"name": "",
					"type": "address"
				}
			],
			"name": "whitelist",
			"outputs": [
				{
					"name": "",
					"type": "bool"
				}
			],
			"payable": false,
			"stateMutability": "view",
			"type": "function"
		},
		{
			"constant": true,
			"inputs": [],
			"name": "theAO",
			"outputs": [
				{
					"name": "",
					"type": "address"
				}
			],
			"payable": false,
			"stateMutability": "view",
			"type": "function"
		},
		{
			"constant": true,
			"inputs": [],
			"name": "nameFactoryAddress",
			"outputs": [
				{
					"name": "",
					"type": "address"
				}
			],
			"payable": false,
			"stateMutability": "view",
			"type": "function"
		},
		{
			"constant": true,
			"inputs": [
				{
					"name": "",
					"type": "bytes32"
				}
			],
			"name": "stakedContentStakeEarning",
			"outputs": [
				{
					"name": "",
					"type": "uint256"
				}
			],
			"payable": false,
			"stateMutability": "view",
			"type": "function"
		},
		{
			"constant": true,
			"inputs": [],
			"name": "totalTheAOEarning",
			"outputs": [
				{
					"name": "",
					"type": "uint256"
				}
			],
			"payable": false,
			"stateMutability": "view",
			"type": "function"
		},
		{
			"constant": true,
			"inputs": [
				{
					"name": "",
					"type": "address"
				}
			],
			"name": "ownerInflationBonusAccrued",
			"outputs": [
				{
					"name": "",
					"type": "uint256"
				}
			],
			"payable": false,
			"stateMutability": "view",
			"type": "function"
		},
		{
			"constant": true,
			"inputs": [
				{
					"name": "",
					"type": "address"
				}
			],
			"name": "ownerNetworkPriceEarning",
			"outputs": [
				{
					"name": "",
					"type": "uint256"
				}
			],
			"payable": false,
			"stateMutability": "view",
			"type": "function"
		},
		{
			"constant": true,
			"inputs": [
				{
					"name": "",
					"type": "bytes32"
				}
			],
			"name": "theAOPurchaseReceiptEarnings",
			"outputs": [
				{
					"name": "purchaseReceiptId",
					"type": "bytes32"
				},
				{
					"name": "paymentEarning",
					"type": "uint256"
				},
				{
					"name": "inflationBonus",
					"type": "uint256"
				},
				{
					"name": "pathosAmount",
					"type": "uint256"
				},
				{
					"name": "ethosAmount",
					"type": "uint256"
				}
			],
			"payable": false,
			"stateMutability": "view",
			"type": "function"
		},
		{
			"constant": true,
			"inputs": [
				{
					"name": "",
					"type": "address"
				}
			],
			"name": "ownerContentHostEarning",
			"outputs": [
				{
					"name": "",
					"type": "uint256"
				}
			],
			"payable": false,
			"stateMutability": "view",
			"type": "function"
		},
		{
			"constant": true,
			"inputs": [],
			"name": "namePublicKeyAddress",
			"outputs": [
				{
					"name": "",
					"type": "address"
				}
			],
			"payable": false,
			"stateMutability": "view",
			"type": "function"
		},
		{
			"constant": true,
			"inputs": [],
			"name": "aoPurchaseReceiptAddress",
			"outputs": [
				{
					"name": "",
					"type": "address"
				}
			],
			"payable": false,
			"stateMutability": "view",
			"type": "function"
		},
		{
			"constant": true,
			"inputs": [],
			"name": "settingTAOId",
			"outputs": [
				{
					"name": "",
					"type": "address"
				}
			],
			"payable": false,
			"stateMutability": "view",
			"type": "function"
		},
		{
			"constant": true,
			"inputs": [
				{
					"name": "",
					"type": "bytes32"
				}
			],
			"name": "stakedContentHostEarning",
			"outputs": [
				{
					"name": "",
					"type": "uint256"
				}
			],
			"payable": false,
			"stateMutability": "view",
			"type": "function"
		},
		{
			"inputs": [
				{
					"name": "_settingTAOId",
					"type": "address"
				},
				{
					"name": "_aoSettingAddress",
					"type": "address"
				},
				{
					"name": "_aoIonAddress",
					"type": "address"
				},
				{
					"name": "_nameFactoryAddress",
					"type": "address"
				},
				{
					"name": "_pathosAddress",
					"type": "address"
				},
				{
					"name": "_ethosAddress",
					"type": "address"
				},
				{
					"name": "_aoContentAddress",
					"type": "address"
				},
				{
					"name": "_namePublicKeyAddress",
					"type": "address"
				},
				{
					"name": "_nameTAOPositionAddress",
					"type": "address"
				}
			],
			"payable": false,
			"stateMutability": "nonpayable",
			"type": "constructor"
		},
		{
			"anonymous": false,
			"inputs": [
				{
					"indexed": true,
					"name": "recipient",
					"type": "address"
				},
				{
					"indexed": true,
					"name": "purchaseReceiptId",
					"type": "bytes32"
				},
				{
					"indexed": false,
					"name": "price",
					"type": "uint256"
				},
				{
					"indexed": false,
					"name": "recipientProfitPercentage",
					"type": "uint256"
				},
				{
					"indexed": false,
					"name": "recipientPaymentEarning",
					"type": "uint256"
				},
				{
					"indexed": false,
					"name": "recipientType",
					"type": "uint8"
				}
			],
			"name": "PaymentEarningEscrowed",
			"type": "event"
		},
		{
			"anonymous": false,
			"inputs": [
				{
					"indexed": true,
					"name": "recipient",
					"type": "address"
				},
				{
					"indexed": true,
					"name": "purchaseReceiptId",
					"type": "bytes32"
				},
				{
					"indexed": false,
					"name": "totalInflationBonusAmount",
					"type": "uint256"
				},
				{
					"indexed": false,
					"name": "recipientProfitPercentage",
					"type": "uint256"
				},
				{
					"indexed": false,
					"name": "recipientInflationBonus",
					"type": "uint256"
				},
				{
					"indexed": false,
					"name": "recipientType",
					"type": "uint8"
				}
			],
			"name": "InflationBonusEscrowed",
			"type": "event"
		},
		{
			"anonymous": false,
			"inputs": [
				{
					"indexed": true,
					"name": "recipient",
					"type": "address"
				},
				{
					"indexed": true,
					"name": "purchaseReceiptId",
					"type": "bytes32"
				},
				{
					"indexed": false,
					"name": "paymentEarning",
					"type": "uint256"
				},
				{
					"indexed": false,
					"name": "inflationBonus",
					"type": "uint256"
				},
				{
					"indexed": false,
					"name": "recipientType",
					"type": "uint8"
				}
			],
			"name": "EarningUnescrowed",
			"type": "event"
		},
		{
			"anonymous": false,
			"inputs": [
				{
					"indexed": true,
					"name": "nameId",
					"type": "address"
				},
				{
					"indexed": true,
					"name": "purchaseReceiptId",
					"type": "bytes32"
				},
				{
					"indexed": false,
					"name": "amount",
					"type": "uint256"
				}
			],
			"name": "PathosEarned",
			"type": "event"
		},
		{
			"anonymous": false,
			"inputs": [
				{
					"indexed": true,
					"name": "nameId",
					"type": "address"
				},
				{
					"indexed": true,
					"name": "purchaseReceiptId",
					"type": "bytes32"
				},
				{
					"indexed": false,
					"name": "amount",
					"type": "uint256"
				}
			],
			"name": "EthosEarned",
			"type": "event"
		},
		{
			"constant": false,
			"inputs": [
				{
					"name": "_theAO",
					"type": "address"
				}
			],
			"name": "transferOwnership",
			"outputs": [],
			"payable": false,
			"stateMutability": "nonpayable",
			"type": "function"
		},
		{
			"constant": false,
			"inputs": [
				{
					"name": "_account",
					"type": "address"
				},
				{
					"name": "_whitelist",
					"type": "bool"
				}
			],
			"name": "setWhitelist",
			"outputs": [],
			"payable": false,
			"stateMutability": "nonpayable",
			"type": "function"
		},
		{
			"constant": false,
			"inputs": [
				{
					"name": "_settingTAOId",
					"type": "address"
				}
			],
			"name": "setSettingTAOId",
			"outputs": [],
			"payable": false,
			"stateMutability": "nonpayable",
			"type": "function"
		},
		{
			"constant": false,
			"inputs": [
				{
					"name": "_aoSettingAddress",
					"type": "address"
				}
			],
			"name": "setAOSettingAddress",
			"outputs": [],
			"payable": false,
			"stateMutability": "nonpayable",
			"type": "function"
		},
		{
			"constant": false,
			"inputs": [
				{
					"name": "_aoIonAddress",
					"type": "address"
				}
			],
			"name": "setAOIonAddress",
			"outputs": [],
			"payable": false,
			"stateMutability": "nonpayable",
			"type": "function"
		},
		{
			"constant": false,
			"inputs": [
				{
					"name": "_nameFactoryAddress",
					"type": "address"
				}
			],
			"name": "setNameFactoryAddress",
			"outputs": [],
			"payable": false,
			"stateMutability": "nonpayable",
			"type": "function"
		},
		{
			"constant": false,
			"inputs": [
				{
					"name": "_pathosAddress",
					"type": "address"
				}
			],
			"name": "setPathosAddress",
			"outputs": [],
			"payable": false,
			"stateMutability": "nonpayable",
			"type": "function"
		},
		{
			"constant": false,
			"inputs": [
				{
					"name": "_ethosAddress",
					"type": "address"
				}
			],
			"name": "setEthosAddress",
			"outputs": [],
			"payable": false,
			"stateMutability": "nonpayable",
			"type": "function"
		},
		{
			"constant": false,
			"inputs": [
				{
					"name": "_aoContentAddress",
					"type": "address"
				}
			],
			"name": "setAOContentAddress",
			"outputs": [],
			"payable": false,
			"stateMutability": "nonpayable",
			"type": "function"
		},
		{
			"constant": false,
			"inputs": [
				{
					"name": "_aoStakedContentAddress",
					"type": "address"
				}
			],
			"name": "setAOStakedContentAddress",
			"outputs": [],
			"payable": false,
			"stateMutability": "nonpayable",
			"type": "function"
		},
		{
			"constant": false,
			"inputs": [
				{
					"name": "_aoContentHostAddress",
					"type": "address"
				}
			],
			"name": "setAOContentHostAddress",
			"outputs": [],
			"payable": false,
			"stateMutability": "nonpayable",
			"type": "function"
		},
		{
			"constant": false,
			"inputs": [
				{
					"name": "_aoPurchaseReceiptAddress",
					"type": "address"
				}
			],
			"name": "setAOPurchaseReceiptAddress",
			"outputs": [],
			"payable": false,
			"stateMutability": "nonpayable",
			"type": "function"
		},
		{
			"constant": false,
			"inputs": [
				{
					"name": "_namePublicKeyAddress",
					"type": "address"
				}
			],
			"name": "setNamePublicKeyAddress",
			"outputs": [],
			"payable": false,
			"stateMutability": "nonpayable",
			"type": "function"
		},
		{
			"constant": false,
			"inputs": [
				{
					"name": "_nameTAOPositionAddress",
					"type": "address"
				}
			],
			"name": "setNameTAOPositionAddress",
			"outputs": [],
			"payable": false,
			"stateMutability": "nonpayable",
			"type": "function"
		},
		{
			"constant": false,
			"inputs": [
				{
					"name": "_purchaseReceiptId",
					"type": "bytes32"
				}
			],
			"name": "calculateEarning",
			"outputs": [
				{
					"name": "",
					"type": "bool"
				}
			],
			"payable": false,
			"stateMutability": "nonpayable",
			"type": "function"
		},
		{
			"constant": false,
			"inputs": [
				{
					"name": "_purchaseReceiptId",
					"type": "bytes32"
				}
			],
			"name": "releaseEarning",
			"outputs": [
				{
					"name": "",
					"type": "bool"
				}
			],
			"payable": false,
			"stateMutability": "nonpayable",
			"type": "function"
		},
		{
			"constant": true,
			"inputs": [
				{
					"name": "_stakedContentId",
					"type": "bytes32"
				}
			],
			"name": "getTotalStakedContentEarning",
			"outputs": [
				{
					"name": "",
					"type": "uint256"
				},
				{
					"name": "",
					"type": "uint256"
				},
				{
					"name": "",
					"type": "uint256"
				}
			],
			"payable": false,
			"stateMutability": "view",
			"type": "function"
		}
	],
	"bytecode": "0x60806040523480156200001157600080fd5b50604051610120806200590783398101604090815281516020830151918301516060840151608085015160a086015160c087015160e08801516101009098015160008054600160a060020a03191633179055959794959394929391929091620000838964010000000062000132810204565b6200009788640100000000620002c5810204565b620000ab87640100000000620003ca810204565b620000bf86640100000000620004cf810204565b620000d385640100000000620005d4810204565b620000e784640100000000620006d9810204565b620000fb83640100000000620007de810204565b6200010f82640100000000620008e3810204565b6200012381640100000000620009e8810204565b50505050505050505062000ae3565b600054600154604080517ff66afcac000000000000000000000000000000000000000000000000000000008152336004820152600160a060020a0393841660248201529290911660448301525173__AOLibrary_____________________________9163f66afcac916064808301926020929190829003018186803b158015620001bb57600080fd5b505af4158015620001d0573d6000803e3d6000fd5b505050506040513d6020811015620001e757600080fd5b50511515620001f557600080fd5b604080517f2fca5414000000000000000000000000000000000000000000000000000000008152600160a060020a0383166004820152905173__AOLibrary_____________________________91632fca5414916024808301926020929190829003018186803b1580156200026957600080fd5b505af41580156200027e573d6000803e3d6000fd5b505050506040513d60208110156200029557600080fd5b50511515620002a357600080fd5b60038054600160a060020a031916600160a060020a0392909216919091179055565b600054600154604080517ff66afcac000000000000000000000000000000000000000000000000000000008152336004820152600160a060020a0393841660248201529290911660448301525173__AOLibrary_____________________________9163f66afcac916064808301926020929190829003018186803b1580156200034e57600080fd5b505af415801562000363573d6000803e3d6000fd5b505050506040513d60208110156200037a57600080fd5b505115156200038857600080fd5b600160a060020a03811615156200039e57600080fd5b60048054600160a060020a03909216600160a060020a03199283168117909155600e8054909216179055565b600054600154604080517ff66afcac000000000000000000000000000000000000000000000000000000008152336004820152600160a060020a0393841660248201529290911660448301525173__AOLibrary_____________________________9163f66afcac916064808301926020929190829003018186803b1580156200045357600080fd5b505af415801562000468573d6000803e3d6000fd5b505050506040513d60208110156200047f57600080fd5b505115156200048d57600080fd5b600160a060020a0381161515620004a357600080fd5b60058054600160a060020a03909216600160a060020a03199283168117909155600f8054909216179055565b600054600154604080517ff66afcac000000000000000000000000000000000000000000000000000000008152336004820152600160a060020a0393841660248201529290911660448301525173__AOLibrary_____________________________9163f66afcac916064808301926020929190829003018186803b1580156200055857600080fd5b505af41580156200056d573d6000803e3d6000fd5b505050506040513d60208110156200058457600080fd5b505115156200059257600080fd5b600160a060020a0381161515620005a857600080fd5b60068054600160a060020a03909216600160a060020a0319928316811790915560108054909216179055565b600054600154604080517ff66afcac000000000000000000000000000000000000000000000000000000008152336004820152600160a060020a0393841660248201529290911660448301525173__AOLibrary_____________________________9163f66afcac916064808301926020929190829003018186803b1580156200065d57600080fd5b505af415801562000672573d6000803e3d6000fd5b505050506040513d60208110156200068957600080fd5b505115156200069757600080fd5b600160a060020a0381161515620006ad57600080fd5b60078054600160a060020a03909216600160a060020a0319928316811790915560118054909216179055565b600054600154604080517ff66afcac000000000000000000000000000000000000000000000000000000008152336004820152600160a060020a0393841660248201529290911660448301525173__AOLibrary_____________________________9163f66afcac916064808301926020929190829003018186803b1580156200076257600080fd5b505af415801562000777573d6000803e3d6000fd5b505050506040513d60208110156200078e57600080fd5b505115156200079c57600080fd5b600160a060020a0381161515620007b257600080fd5b60088054600160a060020a03909216600160a060020a0319928316811790915560128054909216179055565b600054600154604080517ff66afcac000000000000000000000000000000000000000000000000000000008152336004820152600160a060020a0393841660248201529290911660448301525173__AOLibrary_____________________________9163f66afcac916064808301926020929190829003018186803b1580156200086757600080fd5b505af41580156200087c573d6000803e3d6000fd5b505050506040513d60208110156200089357600080fd5b50511515620008a157600080fd5b600160a060020a0381161515620008b757600080fd5b60098054600160a060020a03909216600160a060020a0319928316811790915560138054909216179055565b600054600154604080517ff66afcac000000000000000000000000000000000000000000000000000000008152336004820152600160a060020a0393841660248201529290911660448301525173__AOLibrary_____________________________9163f66afcac916064808301926020929190829003018186803b1580156200096c57600080fd5b505af415801562000981573d6000803e3d6000fd5b505050506040513d60208110156200099857600080fd5b50511515620009a657600080fd5b600160a060020a0381161515620009bc57600080fd5b600d8054600160a060020a03909216600160a060020a0319928316811790915560178054909216179055565b600054600154604080517ff66afcac000000000000000000000000000000000000000000000000000000008152336004820152600160a060020a0393841660248201529290911660448301525173__AOLibrary_____________________________9163f66afcac916064808301926020929190829003018186803b15801562000a7157600080fd5b505af415801562000a86573d6000803e3d6000fd5b505050506040513d602081101562000a9d57600080fd5b5051151562000aab57600080fd5b600160a060020a038116151562000ac157600080fd5b60018054600160a060020a031916600160a060020a0392909216919091179055565b614e148062000af36000396000f3006080604052600436106102165763ffffffff60e060020a60003504166306fd7088811461021b578063078753ad1461023e578063101f6d791461026f5780631add5b98146102965780631d0138ff146102b75780631f032c24146102cc5780631fe7f23c146102e457806335385ec8146103055780633c56b011146103265780633e36144f1461033b57806341fddf9d1461035c5780634486ab0a146103925780634c9e0913146103a75780634ef033f0146103d357806353d6fd59146103e85780635cfaf2ef1461040e5780636d9aa0341461042f5780637658f1d614610450578063793c82281461046857806380504a961461048957806385cb86c81461049e57806389a83246146104b35780638a9e7fdc146104d45780638c924361146105235780639093a7901461054457806393ac4c1c1461055957806395f04f271461057d5780639b19251a14610592578063a9b6b38e146105b3578063bc406206146105c8578063bc6abaa2146105dd578063be03a7de146105fe578063c26012cd14610616578063c7bc27af1461062b578063cd109f4c1461064c578063cd5facb21461066d578063d3bd13431461068e578063d6830af3146106a6578063d7ed73bd146106c7578063d8ce52d1146106e8578063e41800e2146106fd578063e669ecab14610715578063e7c501851461072a578063ee9f74271461073f578063f2fde38b14610757578063f97106b514610778575b600080fd5b34801561022757600080fd5b5061023c600160a060020a0360043516610799565b005b34801561024a57600080fd5b50610253610883565b60408051600160a060020a039092168252519081900360200190f35b34801561027b57600080fd5b50610284610892565b60408051918252519081900360200190f35b3480156102a257600080fd5b5061023c600160a060020a0360043516610898565b3480156102c357600080fd5b50610253610982565b3480156102d857600080fd5b50610284600435610991565b3480156102f057600080fd5b50610284600160a060020a03600435166109a3565b34801561031157600080fd5b50610284600160a060020a03600435166109b4565b34801561033257600080fd5b506102536109c6565b34801561034757600080fd5b5061023c600160a060020a03600435166109d5565b34801561036857600080fd5b50610374600435610abf565b60408051938452602084019290925282820152519081900360600190f35b34801561039e57600080fd5b50610253610ae8565b3480156103b357600080fd5b506103bf600435610af7565b604080519115158252519081900360200190f35b3480156103df57600080fd5b506102536110a2565b3480156103f457600080fd5b5061023c600160a060020a036004351660243515156110b1565b34801561041a57600080fd5b5061023c600160a060020a036004351661119a565b34801561043b57600080fd5b5061023c600160a060020a036004351661127a565b34801561045c57600080fd5b50610284600435611364565b34801561047457600080fd5b5061023c600160a060020a0360043516611376565b34801561049557600080fd5b50610284611460565b3480156104aa57600080fd5b50610253611466565b3480156104bf57600080fd5b5061023c600160a060020a0360043516611475565b3480156104e057600080fd5b506104f8600160a060020a036004351660243561155f565b6040805195865260208601949094528484019290925260608401526080830152519081900360a00190f35b34801561052f57600080fd5b5061023c600160a060020a0360043516611599565b34801561055057600080fd5b50610253611683565b34801561056557600080fd5b506104f8600160a060020a0360043516602435611692565b34801561058957600080fd5b506102536116cc565b34801561059e57600080fd5b506103bf600160a060020a03600435166116db565b3480156105bf57600080fd5b506102536116f0565b3480156105d457600080fd5b506102536116ff565b3480156105e957600080fd5b5061023c600160a060020a036004351661170e565b34801561060a57600080fd5b506102846004356117f8565b34801561062257600080fd5b5061028461180a565b34801561063757600080fd5b50610284600160a060020a0360043516611810565b34801561065857600080fd5b50610284600160a060020a0360043516611822565b34801561067957600080fd5b5061023c600160a060020a0360043516611834565b34801561069a57600080fd5b506104f860043561191e565b3480156106b257600080fd5b5061023c600160a060020a036004351661194d565b3480156106d357600080fd5b50610284600160a060020a0360043516611ac2565b3480156106f457600080fd5b50610253611ad4565b34801561070957600080fd5b506103bf600435611ae3565b34801561072157600080fd5b50610253611bf1565b34801561073657600080fd5b50610253611c00565b34801561074b57600080fd5b50610284600435611c0f565b34801561076357600080fd5b5061023c600160a060020a0360043516611c21565b34801561078457600080fd5b5061023c600160a060020a0360043516611d01565b6000546001546040805160e260020a633d9abf2b028152336004820152600160a060020a0393841660248201529290911660448301525173__AOLibrary_____________________________9163f66afcac916064808301926020929190829003018186803b15801561080b57600080fd5b505af415801561081f573d6000803e3d6000fd5b505050506040513d602081101561083557600080fd5b5051151561084257600080fd5b600160a060020a038116151561085757600080fd5b60048054600160a060020a03909216600160a060020a03199283168117909155600e8054909216179055565b600a54600160a060020a031681565b60185481565b6000546001546040805160e260020a633d9abf2b028152336004820152600160a060020a0393841660248201529290911660448301525173__AOLibrary_____________________________9163f66afcac916064808301926020929190829003018186803b15801561090a57600080fd5b505af415801561091e573d6000803e3d6000fd5b505050506040513d602081101561093457600080fd5b5051151561094157600080fd5b600160a060020a038116151561095657600080fd5b60088054600160a060020a03909216600160a060020a0319928316811790915560128054909216179055565b600454600160a060020a031681565b60286020526000908152604090205481565b602080526000908152604090205481565b601d6020526000908152604090205481565b600554600160a060020a031681565b6000546001546040805160e260020a633d9abf2b028152336004820152600160a060020a0393841660248201529290911660448301525173__AOLibrary_____________________________9163f66afcac916064808301926020929190829003018186803b158015610a4757600080fd5b505af4158015610a5b573d6000803e3d6000fd5b505050506040513d6020811015610a7157600080fd5b50511515610a7e57600080fd5b600160a060020a0381161515610a9357600080fd5b600a8054600160a060020a03909216600160a060020a0319928316811790915560148054909216179055565b600081815260256020908152604080832054602683528184205460279093529220549193909250565b600754600160a060020a031681565b33600090815260026020526040812054819081908190819081908190819060ff161515600114610b2657600080fd5b601654604080517f762fee18000000000000000000000000000000000000000000000000000000008152600481018c90529051600160a060020a039092169163762fee18916024808201926020929091908290030181600087803b158015610b8d57600080fd5b505af1158015610ba1573d6000803e3d6000fd5b505050506040513d6020811015610bb757600080fd5b50511515610bc457600080fd5b6000898152601b602052604090205460ff168015610bf157506000898152601c602052604090205460ff16155b1515610bfc57600080fd5b6000898152601c6020526040808220805460ff19166001179055601654815160e060020a632dff0d0d028152600481018d90529151600160a060020a0390911692632dff0d0d926024808201939182900301818387803b158015610c5f57600080fd5b505af1158015610c73573d6000803e3d6000fd5b505050506040513d6000823e601f3d908101601f19168201604052610140811015610c9d57600080fd5b8151602083015160408401516060850151608086015160a087015160c088015160e08901805197999698959794969395929491939283019291640100000000811115610ce857600080fd5b82016020810184811115610cfb57600080fd5b8151640100000000811182820187101715610d1557600080fd5b505092919060200180519060200190929190805190602001909291905050505050505098505050965096509650601460009054906101000a9004600160a060020a0316600160a060020a0316632dff0d0d876040518263ffffffff1660e060020a02815260040180826000191660001916815260200191505061010060405180830381600087803b158015610da957600080fd5b505af1158015610dbd573d6000803e3d6000fd5b505050506040513d610100811015610dd457600080fd5b50602001516015546040805160e060020a632dff0d0d028152600481018b90529051929550600160a060020a0390911691632dff0d0d9160248082019260009290919082900301818387803b158015610e2c57600080fd5b505af1158015610e40573d6000803e3d6000fd5b505050506040513d6000823e601f3d908101601f1916820160405260a0811015610e6957600080fd5b8151602083015160408401516060850180519395929491939183019291640100000000811115610e9857600080fd5b82016020810184811115610eab57600080fd5b8151640100000000811182820187101715610ec557600080fd5b50509291906020018051640100000000811115610ee157600080fd5b82016020810184811115610ef457600080fd5b8151640100000000811182820187101715610f0e57600080fd5b5050929190505050505093505050601360009054906101000a9004600160a060020a0316600160a060020a0316632dff0d0d866040518263ffffffff1660e060020a028152600401808260001916600019168152602001915050600060405180830381600087803b158015610f8257600080fd5b505af1158015610f96573d6000803e3d6000fd5b505050506040513d6000823e601f3d908101601f19168201604052610120811015610fc057600080fd5b8151602083015160408401516060850151608086015160a087015160c088015160e08901516101008a018051989a979996989597949693959294919382019264010000000081111561101157600080fd5b8201602081018481111561102457600080fd5b815164010000000081118282018710171561103e57600080fd5b50509291905050505050505050505091505061106186888b848811876000611deb565b61107286888b848811866001611deb565b60005461109390879089908c9085891190600160a060020a03166002611deb565b50600198975050505050505050565b600154600160a060020a031681565b6000546001546040805160e260020a633d9abf2b028152336004820152600160a060020a0393841660248201529290911660448301525173__AOLibrary_____________________________9163f66afcac916064808301926020929190829003018186803b15801561112357600080fd5b505af4158015611137573d6000803e3d6000fd5b505050506040513d602081101561114d57600080fd5b5051151561115a57600080fd5b600160a060020a038216151561116f57600080fd5b600160a060020a03919091166000908152600260205260409020805460ff1916911515919091179055565b6000546001546040805160e260020a633d9abf2b028152336004820152600160a060020a0393841660248201529290911660448301525173__AOLibrary_____________________________9163f66afcac916064808301926020929190829003018186803b15801561120c57600080fd5b505af4158015611220573d6000803e3d6000fd5b505050506040513d602081101561123657600080fd5b5051151561124357600080fd5b600160a060020a038116151561125857600080fd5b60018054600160a060020a031916600160a060020a0392909216919091179055565b6000546001546040805160e260020a633d9abf2b028152336004820152600160a060020a0393841660248201529290911660448301525173__AOLibrary_____________________________9163f66afcac916064808301926020929190829003018186803b1580156112ec57600080fd5b505af4158015611300573d6000803e3d6000fd5b505050506040513d602081101561131657600080fd5b5051151561132357600080fd5b600160a060020a038116151561133857600080fd5b600d8054600160a060020a03909216600160a060020a0319928316811790915560178054909216179055565b60276020526000908152604090205481565b6000546001546040805160e260020a633d9abf2b028152336004820152600160a060020a0393841660248201529290911660448301525173__AOLibrary_____________________________9163f66afcac916064808301926020929190829003018186803b1580156113e857600080fd5b505af41580156113fc573d6000803e3d6000fd5b505050506040513d602081101561141257600080fd5b5051151561141f57600080fd5b600160a060020a038116151561143457600080fd5b60078054600160a060020a03909216600160a060020a0319928316811790915560118054909216179055565b60195481565b600954600160a060020a031681565b6000546001546040805160e260020a633d9abf2b028152336004820152600160a060020a0393841660248201529290911660448301525173__AOLibrary_____________________________9163f66afcac916064808301926020929190829003018186803b1580156114e757600080fd5b505af41580156114fb573d6000803e3d6000fd5b505050506040513d602081101561151157600080fd5b5051151561151e57600080fd5b600160a060020a038116151561153357600080fd5b60098054600160a060020a03909216600160a060020a0319928316811790915560138054909216179055565b6023602090815260009283526040808420909152908252902080546001820154600283015460038401546004909401549293919290919085565b6000546001546040805160e260020a633d9abf2b028152336004820152600160a060020a0393841660248201529290911660448301525173__AOLibrary_____________________________9163f66afcac916064808301926020929190829003018186803b15801561160b57600080fd5b505af415801561161f573d6000803e3d6000fd5b505050506040513d602081101561163557600080fd5b5051151561164257600080fd5b600160a060020a038116151561165757600080fd5b60068054600160a060020a03909216600160a060020a0319928316811790915560108054909216179055565b600854600160a060020a031681565b6022602090815260009283526040808420909152908252902080546001820154600283015460038401546004909401549293919290919085565b600b54600160a060020a031681565b60026020526000908152604090205460ff1681565b600054600160a060020a031681565b600654600160a060020a031681565b6000546001546040805160e260020a633d9abf2b028152336004820152600160a060020a0393841660248201529290911660448301525173__AOLibrary_____________________________9163f66afcac916064808301926020929190829003018186803b15801561178057600080fd5b505af4158015611794573d6000803e3d6000fd5b505050506040513d60208110156117aa57600080fd5b505115156117b757600080fd5b600160a060020a03811615156117cc57600080fd5b600c8054600160a060020a03909216600160a060020a0319928316811790915560168054909216179055565b60256020526000908152604090205481565b601a5481565b60216020526000908152604090205481565b601f6020526000908152604090205481565b6000546001546040805160e260020a633d9abf2b028152336004820152600160a060020a0393841660248201529290911660448301525173__AOLibrary_____________________________9163f66afcac916064808301926020929190829003018186803b1580156118a657600080fd5b505af41580156118ba573d6000803e3d6000fd5b505050506040513d60208110156118d057600080fd5b505115156118dd57600080fd5b600160a060020a03811615156118f257600080fd5b600b8054600160a060020a03909216600160a060020a0319928316811790915560158054909216179055565b602460205260009081526040902080546001820154600283015460038401546004909401549293919290919085565b6000546001546040805160e260020a633d9abf2b028152336004820152600160a060020a0393841660248201529290911660448301525173__AOLibrary_____________________________9163f66afcac916064808301926020929190829003018186803b1580156119bf57600080fd5b505af41580156119d3573d6000803e3d6000fd5b505050506040513d60208110156119e957600080fd5b505115156119f657600080fd5b604080517f2fca5414000000000000000000000000000000000000000000000000000000008152600160a060020a0383166004820152905173__AOLibrary_____________________________91632fca5414916024808301926020929190829003018186803b158015611a6957600080fd5b505af4158015611a7d573d6000803e3d6000fd5b505050506040513d6020811015611a9357600080fd5b50511515611aa057600080fd5b60038054600160a060020a031916600160a060020a0392909216919091179055565b601e6020526000908152604090205481565b600d54600160a060020a031681565b3360009081526002602052604081205460ff161515600114611b0457600080fd5b601654604080517f762fee18000000000000000000000000000000000000000000000000000000008152600481018590529051600160a060020a039092169163762fee18916024808201926020929091908290030181600087803b158015611b6b57600080fd5b505af1158015611b7f573d6000803e3d6000fd5b505050506040513d6020811015611b9557600080fd5b50511515611ba257600080fd5b6000828152601b602052604090205460ff1615611bbe57600080fd5b6000828152601b60205260409020805460ff19166001179055611be0826126d4565b611be982612703565b506001919050565b600c54600160a060020a031681565b600354600160a060020a031681565b60266020526000908152604090205481565b6000546001546040805160e260020a633d9abf2b028152336004820152600160a060020a0393841660248201529290911660448301525173__AOLibrary_____________________________9163f66afcac916064808301926020929190829003018186803b158015611c9357600080fd5b505af4158015611ca7573d6000803e3d6000fd5b505050506040513d6020811015611cbd57600080fd5b50511515611cca57600080fd5b600160a060020a0381161515611cdf57600080fd5b60008054600160a060020a031916600160a060020a0392909216919091179055565b6000546001546040805160e260020a633d9abf2b028152336004820152600160a060020a0393841660248201529290911660448301525173__AOLibrary_____________________________9163f66afcac916064808301926020929190829003018186803b158015611d7357600080fd5b505af4158015611d87573d6000803e3d6000fd5b505050506040513d6020811015611d9d57600080fd5b50511515611daa57600080fd5b600160a060020a0381161515611dbf57600080fd5b60058054600160a060020a03909216600160a060020a03199283168117909155600f8054909216179055565b60008060008060008060008760ff1610158015611e0c575060028760ff1611155b1515611e1757600080fd5b60ff871615156121d05750600160a060020a03871660009081526022602090815260408083208c8452909152812060018101805460028301805460038501805494879055918690559085905560048401949094559750919550909250611e83868663ffffffff6132a416565b601854909450611e99908563ffffffff6132a416565b601855600160a060020a0388166000908152601d6020526040902054611ec5908563ffffffff6132a416565b600160a060020a0389166000908152601d60209081526040808320939093558e8252602590522054611efd908563ffffffff6132a416565b60008d8152602560205260409020558815611f5757600160a060020a0388166000908152602080526040902054611f3a908563ffffffff6132a416565b600160a060020a0389166000908152602080526040902055611f9a565b600160a060020a0388166000908152601f6020526040902054611f80908563ffffffff6132a416565b600160a060020a0389166000908152601f60205260409020555b600160a060020a038816600090815260216020526040902054611fc3908663ffffffff6132a416565b600160a060020a03808a1660008181526021602090815260408083209590955560115485517f40c10f19000000000000000000000000000000000000000000000000000000008152600481019490945260248401899052945194909316936340c10f19936044808501949193918390030190829087803b15801561204657600080fd5b505af115801561205a573d6000803e3d6000fd5b505050506040513d602081101561207057600080fd5b5051151561207d57600080fd5b6040805184815290518b91600160a060020a038b16917f21c3387baaff2d916ae2cd1669d5f94fe9583036b96ef82acb3a4565815cfce89181900360200190a3600f546017546040805160e060020a63db536d2f028152600160a060020a038c81166004830152915193821693638a066045939092169163db536d2f916024808201926020929091908290030181600087803b15801561211c57600080fd5b505af1158015612130573d6000803e3d6000fd5b505050506040513d602081101561214657600080fd5b50516040805160e060020a63ffffffff8516028152600160a060020a039092166004830152602482018890525160448083019260209291908290030181600087803b15801561219457600080fd5b505af11580156121a8573d6000803e3d6000fd5b505050506040513d60208110156121be57600080fd5b505115156121cb57600080fd5b612677565b8660ff1660011415612501575050600160a060020a03861660009081526023602090815260408083208b84529091528120600181018054600283018054600485018054948790559186905560038501869055949055965091945061223a868663ffffffff6132a416565b601954909450612250908563ffffffff6132a416565b601955600160a060020a0388166000908152601e602052604090205461227c908563ffffffff6132a416565b600160a060020a0389166000908152601e60209081526040808320939093558e82526026905220546122b4908563ffffffff6132a416565b60008d8152602660209081526040808320939093558d82526028905220546122e2908563ffffffff6132a416565b60008c815260286020526040902055881561233c57600160a060020a038816600090815260208052604090205461231f908563ffffffff6132a416565b600160a060020a038916600090815260208052604090205561237f565b600160a060020a0388166000908152601f6020526040902054612365908563ffffffff6132a416565b600160a060020a0389166000908152601f60205260409020555b600160a060020a0388166000908152602160205260409020546123a8908663ffffffff6132a416565b600160a060020a03808a1660008181526021602090815260408083209590955560125485517f40c10f19000000000000000000000000000000000000000000000000000000008152600481019490945260248401889052945194909316936340c10f19936044808501949193918390030190829087803b15801561242b57600080fd5b505af115801561243f573d6000803e3d6000fd5b505050506040513d602081101561245557600080fd5b5051151561246257600080fd5b6040805183815290518b91600160a060020a038b16917f2a9470ba36cb39f146ccc29717c9098e046e556211964a2454021d1d9fe9dd559181900360200190a3600f546017546040805160e060020a63db536d2f028152600160a060020a038c81166004830152915193821693638a066045939092169163db536d2f916024808201926020929091908290030181600087803b15801561211c57600080fd5b50600089815260246020526040812060018101805460028301805492859055849055600383018490556004830193909355919650909450612548868663ffffffff6132a416565b601a5490945061255e908563ffffffff6132a416565b601a55600160a060020a03881660009081526021602052604090205461258a908663ffffffff6132a416565b600160a060020a0389166000908152602160209081526040808320939093558e82526027905220546125c2908563ffffffff6132a416565b60008d815260276020908152604080832093909355600f5483517f8a066045000000000000000000000000000000000000000000000000000000008152600160a060020a038d81166004830152602482018a905294519490911693638a06604593604480840194938390030190829087803b15801561264057600080fd5b505af1158015612654573d6000803e3d6000fd5b505050506040513d602081101561266a57600080fd5b5051151561267757600080fd5b604080518781526020810187905260ff89168183015290518b91600160a060020a038b16917f212de36dcbb73c749ef074ec2565ecd3e461ebb1d28ea6021effdb8be7d44cda9181900360600190a3505050505050505050505050565b60008060006126e2846132b7565b925092506126f084846139ef565b90506126fd8483836142a5565b50505050565b60008060008060008060008060008060008061271d6145be565b509c505061272a8d6149b4565b9a50601660009054906101000a9004600160a060020a0316600160a060020a0316632dff0d0d8e6040518263ffffffff1660e060020a028152600401808260001916600019168152602001915050600060405180830381600087803b15801561279257600080fd5b505af11580156127a6573d6000803e3d6000fd5b505050506040513d6000823e601f3d908101601f191682016040526101408110156127d057600080fd5b8151602083015160408401516060850151608086015160a087015160c088015160e0890180519799969895979496939592949193928301929164010000000081111561281b57600080fd5b8201602081018481111561282e57600080fd5b815164010000000081118282018710171561284857600080fd5b5050929190602001805190602001909291908051906020019092919050505050505050505050995099509950601460009054906101000a9004600160a060020a0316600160a060020a0316632dff0d0d8a6040518263ffffffff1660e060020a02815260040180826000191660001916815260200191505061010060405180830381600087803b1580156128db57600080fd5b505af11580156128ef573d6000803e3d6000fd5b505050506040513d61010081101561290657600080fd5b50602081015160a0909101516015546040805160e060020a632dff0d0d028152600481018f90529051939a50919850600160a060020a031691632dff0d0d9160248082019260009290919082900301818387803b15801561296657600080fd5b505af115801561297a573d6000803e3d6000fd5b505050506040513d6000823e601f3d908101601f1916820160405260a08110156129a357600080fd5b81516020830151604084015160608501805193959294919391830192916401000000008111156129d257600080fd5b820160208101848111156129e557600080fd5b81516401000000008111828201871017156129ff57600080fd5b50509291906020018051640100000000811115612a1b57600080fd5b82016020810184811115612a2e57600080fd5b8151640100000000811182820187101715612a4857600080fd5b505092919050505050509650505060008b111561315b57601354604080517f65cf0ace000000000000000000000000000000000000000000000000000000008152600481018b90529051600160a060020a03909216916365cf0ace916024808201926020929091908290030181600087803b158015612ac657600080fd5b505af1158015612ada573d6000803e3d6000fd5b505050506040513d6020811015612af057600080fd5b5051612afd576000612b8f565b612b8f73__AOLibrary_____________________________63caf297656040518163ffffffff1660e060020a02815260040160206040518083038186803b158015612b4757600080fd5b505af4158015612b5b573d6000803e3d6000fd5b505050506040513d6020811015612b7157600080fd5b5051612b838d8963ffffffff614d7816565b9063ffffffff614da116565b93506022600088600160a060020a0316600160a060020a0316815260200190815260200160002060008e600019166000191681526020019081526020016000209250838360020181905550600f60009054906101000a9004600160a060020a0316600160a060020a031663d6c9e189601760009054906101000a9004600160a060020a0316600160a060020a031663db536d2f8a6040518263ffffffff1660e060020a0281526004018082600160a060020a0316600160a060020a03168152602001915050602060405180830381600087803b158015612c6e57600080fd5b505af1158015612c82573d6000803e3d6000fd5b505050506040513d6020811015612c9857600080fd5b505160028601546040805160e060020a63ffffffff8616028152600160a060020a03909316600484015260248301919091525160448083019260209291908290030181600087803b158015612cec57600080fd5b505af1158015612d00573d6000803e3d6000fd5b505050506040513d6020811015612d1657600080fd5b50511515612d2357600080fd5b6002830154604080518d8152602081018990528082019290925260006060830152518e91600160a060020a038a1691600080516020614dc98339815191529181900360800190a36023600086600160a060020a0316600160a060020a0316815260200190815260200160002060008e600019166000191681526020019081526020016000209150612dbd848c614db690919063ffffffff16565b6002830155600f546017546040805160e060020a63db536d2f028152600160a060020a03898116600483015291519382169363d6c9e189939092169163db536d2f916024808201926020929091908290030181600087803b158015612e2157600080fd5b505af1158015612e35573d6000803e3d6000fd5b505050506040513d6020811015612e4b57600080fd5b505160028501546040805160e060020a63ffffffff8616028152600160a060020a03909316600484015260248301919091525160448083019260209291908290030181600087803b158015612e9f57600080fd5b505af1158015612eb3573d6000803e3d6000fd5b505050506040513d6020811015612ec957600080fd5b50511515612ed657600080fd5b8c6000191685600160a060020a0316600080516020614dc98339815191528d612f788a73__AOLibrary_____________________________63caf297656040518163ffffffff1660e060020a02815260040160206040518083038186803b158015612f4057600080fd5b505af4158015612f54573d6000803e3d6000fd5b505050506040513d6020811015612f6a57600080fd5b50519063ffffffff614db616565b60028701546040805193845260208401929092528282015260016060830152519081900360800190a35060008c815260246020908152604091829020825160e060020a63caf297650281529251909261303f9273__AOLibrary_____________________________9263caf29765926004808201939291829003018186803b15801561300357600080fd5b505af4158015613017573d6000803e3d6000fd5b505050506040513d602081101561302d57600080fd5b5051612b838d8f63ffffffff614d7816565b60028201819055600f5460008054604080517fd6c9e189000000000000000000000000000000000000000000000000000000008152600160a060020a03928316600482015260248101959095525192169263d6c9e1899260448083019360209383900390910190829087803b1580156130b757600080fd5b505af11580156130cb573d6000803e3d6000fd5b505050506040513d60208110156130e157600080fd5b505115156130ee57600080fd5b8c600019166000809054906101000a9004600160a060020a0316600160a060020a0316600080516020614dc98339815191528d8f85600201546002604051808581526020018481526020018381526020018260ff16815260200194505050505060405180910390a3613295565b60408051600080825260208201899052818301819052606082015290518e91600160a060020a038a1691600080516020614dc98339815191529181900360800190a38c6000191685600160a060020a0316600080516020614dc983398151915260006132088a73__AOLibrary_____________________________63caf297656040518163ffffffff1660e060020a02815260040160206040518083038186803b158015612f4057600080fd5b60408051928352602083019190915260008282015260016060830152519081900360800190a38c600019166000809054906101000a9004600160a060020a0316600160a060020a0316600080516020614dc983398151915260008f60006002604051808581526020018481526020018381526020018260ff16815260200194505050505060405180910390a35b50505050505050505050505050565b818101828110156132b157fe5b92915050565b6000806000806000806000806000806132ce6145be565b50506016546040805160e060020a632dff0d0d028152600481018f90529051929a50600160a060020a0390911691632dff0d0d9160248082019260009290919082900301818387803b15801561332357600080fd5b505af1158015613337573d6000803e3d6000fd5b505050506040513d6000823e601f3d908101601f1916820160405261014081101561336157600080fd5b8151602083015160408401516060850151608086015160a087015160c088015160e089018051979996989597949693959294919392830192916401000000008111156133ac57600080fd5b820160208101848111156133bf57600080fd5b81516401000000008111828201871017156133d957600080fd5b505092919060200180519060200190929190805190602001909291905050505050505050975097509750975050601460009054906101000a9004600160a060020a0316600160a060020a0316632dff0d0d886040518263ffffffff1660e060020a02815260040180826000191660001916815260200191505061010060405180830381600087803b15801561346d57600080fd5b505af1158015613481573d6000803e3d6000fd5b505050506040513d61010081101561349857600080fd5b810190808051906020019092919080519060200190929190805190602001909291908051906020019092919080519060200190929190805190602001909291908051906020019092919080519060200190929190505050505096505050509350506022600084600160a060020a0316600160a060020a0316815260200190815260200160002060008c6000191660001916815260200190815260200160002090508a816000018160001916905550601360009054906101000a9004600160a060020a0316600160a060020a03166365cf0ace876040518263ffffffff1660e060020a028152600401808260001916600019168152602001915050602060405180830381600087803b1580156135ac57600080fd5b505af11580156135c0573d6000803e3d6000fd5b505050506040513d60208110156135d657600080fd5b50516135e3576000613669565b61366973__AOLibrary_____________________________63caf297656040518163ffffffff1660e060020a02815260040160206040518083038186803b15801561362d57600080fd5b505af4158015613641573d6000803e3d6000fd5b505050506040513d602081101561365757600080fd5b5051612b83868563ffffffff614d7816565b81600101819055506137de73__AOLibrary_____________________________63caf297656040518163ffffffff1660e060020a02815260040160206040518083038186803b1580156136bb57600080fd5b505af41580156136cf573d6000803e3d6000fd5b505050506040513d60208110156136e557600080fd5b50516040805160e060020a63caf297650281529051612b839173__AOLibrary_____________________________9163caf2976591600480820192602092909190829003018186803b15801561373a57600080fd5b505af415801561374e573d6000803e3d6000fd5b505050506040513d602081101561376457600080fd5b50516040805160e060020a63caf297650281529051612b83918e916137d2916137c5918b9173__AOLibrary_____________________________9163caf2976591600480820192602092909190829003018186803b158015612f4057600080fd5b8b9063ffffffff614d7816565b9063ffffffff614d7816565b6003820155600f546017546040805160e060020a63db536d2f028152600160a060020a0389811660048301529151938216936387d4ca93939092169163db536d2f916024808201926020929091908290030181600087803b15801561384257600080fd5b505af1158015613856573d6000803e3d6000fd5b505050506040513d602081101561386c57600080fd5b50516017546040805160e060020a63db536d2f028152600160a060020a0389811660048301529151919092169163db536d2f9160248083019260209291908290030181600087803b1580156138c057600080fd5b505af11580156138d4573d6000803e3d6000fd5b505050506040513d60208110156138ea57600080fd5b505160018501546040805160e060020a63ffffffff8716028152600160a060020a03948516600482015293909216602484015260448301525160648083019260209291908290030181600087803b15801561394457600080fd5b505af1158015613958573d6000803e3d6000fd5b505050506040513d602081101561396e57600080fd5b5051151561397b57600080fd5b600181015460408051868152602081018590528082019290925260006060830152518c91600160a060020a038616917f2bc2599ff4713444a049b5e4a07d2cde6becf6e7fc7c4e041bc1cf36894f10ee9181900360800190a380600101548160030154995099505050505050505050915091565b600080600080600080600080600080613a066145be565b50509850601660009054906101000a9004600160a060020a0316600160a060020a0316632dff0d0d8d6040518263ffffffff1660e060020a028152600401808260001916600019168152602001915050600060405180830381600087803b158015613a7057600080fd5b505af1158015613a84573d6000803e3d6000fd5b505050506040513d6000823e601f3d908101601f19168201604052610140811015613aae57600080fd5b8151602083015160408401516060850151608086015160a087015160c088015160e08901805197999698959794969395929491939283019291640100000000811115613af957600080fd5b82016020810184811115613b0c57600080fd5b8151640100000000811182820187101715613b2657600080fd5b50509291906020018051906020019092919080519060200190929190505050505050505097509750975097509750601460009054906101000a9004600160a060020a0316600160a060020a0316632dff0d0d886040518263ffffffff1660e060020a02815260040180826000191660001916815260200191505061010060405180830381600087803b158015613bbb57600080fd5b505af1158015613bcf573d6000803e3d6000fd5b505050506040513d610100811015613be657600080fd5b5060a001516015546040805160e060020a632dff0d0d028152600481018c90529051929550600160a060020a0390911691632dff0d0d9160248082019260009290919082900301818387803b158015613c3e57600080fd5b505af1158015613c52573d6000803e3d6000fd5b505050506040513d6000823e601f3d908101601f1916820160405260a0811015613c7b57600080fd5b8151602083015160408401516060850180519395929491939183019291640100000000811115613caa57600080fd5b82016020810184811115613cbd57600080fd5b8151640100000000811182820187101715613cd757600080fd5b50509291906020018051640100000000811115613cf357600080fd5b82016020810184811115613d0657600080fd5b8151640100000000811182820187101715613d2057600080fd5b50509291905050505050935050506023600083600160a060020a0316600160a060020a0316815260200190815260200160002060008d6000191660001916815260200190815260200160002090508b816000018160001916905550613d8e8b85614db690919063ffffffff16565b8160010181905550613e9f73__AOLibrary_____________________________63caf297656040518163ffffffff1660e060020a02815260040160206040518083038186803b158015613de057600080fd5b505af4158015613df4573d6000803e3d6000fd5b505050506040513d6020811015613e0a57600080fd5b50516040805160e060020a63caf297650281529051612b839173__AOLibrary_____________________________9163caf2976591600480820192602092909190829003018186803b158015613e5f57600080fd5b505af4158015613e73573d6000803e3d6000fd5b505050506040513d6020811015613e8957600080fd5b5051612b838d6137d28a8a63ffffffff614d7816565b600480830191909155601354604080517f65cf0ace00000000000000000000000000000000000000000000000000000000815292830189905251600160a060020a03909116916365cf0ace9160248083019260209291908290030181600087803b158015613f0c57600080fd5b505af1158015613f20573d6000803e3d6000fd5b505050506040513d6020811015613f3657600080fd5b5051156140da57600f546017546040805160e060020a63db536d2f028152600160a060020a0389811660048301529151938216936387d4ca93939092169163db536d2f916024808201926020929091908290030181600087803b158015613f9c57600080fd5b505af1158015613fb0573d6000803e3d6000fd5b505050506040513d6020811015613fc657600080fd5b50516017546040805160e060020a63db536d2f028152600160a060020a0388811660048301529151919092169163db536d2f9160248083019260209291908290030181600087803b15801561401a57600080fd5b505af115801561402e573d6000803e3d6000fd5b505050506040513d602081101561404457600080fd5b505160018501546040805160e060020a63ffffffff8716028152600160a060020a03948516600482015293909216602484015260448301525160648083019260209291908290030181600087803b15801561409e57600080fd5b505af11580156140b2573d6000803e3d6000fd5b505050506040513d60208110156140c857600080fd5b505115156140d557600080fd5b6141ee565b600f546017546040805160e060020a63db536d2f028152600160a060020a03868116600483015291519382169363d6c9e189939092169163db536d2f916024808201926020929091908290030181600087803b15801561413957600080fd5b505af115801561414d573d6000803e3d6000fd5b505050506040513d602081101561416357600080fd5b505160018401546040805160e060020a63ffffffff8616028152600160a060020a03909316600484015260248301919091525160448083019260209291908290030181600087803b1580156141b757600080fd5b505af11580156141cb573d6000803e3d6000fd5b505050506040513d60208110156141e157600080fd5b505115156141ee57600080fd5b8b6000191682600160a060020a03167f2bc2599ff4713444a049b5e4a07d2cde6becf6e7fc7c4e041bc1cf36894f10ee8661426a8773__AOLibrary_____________________________63caf297656040518163ffffffff1660e060020a02815260040160206040518083038186803b158015612f4057600080fd5b600180870154604080519485526020850193909352838301526060830152519081900360800190a3600401549b9a5050505050505050505050565b60008060006142b26145be565b6016546040805160e060020a632dff0d0d028152600481018c90529051929750600160a060020a039091169350632dff0d0d925060248082019260009290919082900301818387803b15801561430757600080fd5b505af115801561431b573d6000803e3d6000fd5b505050506040513d6000823e601f3d908101601f1916820160405261014081101561434557600080fd5b8151602083015160408401516060850151608086015160a087015160c088015160e0890180519799969895979496939592949193928301929164010000000081111561439057600080fd5b820160208101848111156143a357600080fd5b81516401000000008111828201871017156143bd57600080fd5b5050929190602001805190602001909291908051906020019092919050505050505050509550505050506024600087600019166000191681526020019081526020016000209050858160000181600019169055506144a761449a73__AOLibrary_____________________________63caf297656040518163ffffffff1660e060020a02815260040160206040518083038186803b15801561445e57600080fd5b505af4158015614472573d6000803e3d6000fd5b505050506040513d602081101561448857600080fd5b5051612b83878763ffffffff614d7816565b869063ffffffff6132a416565b60018201819055600f5460008054604080517fd6c9e189000000000000000000000000000000000000000000000000000000008152600160a060020a03928316600482015260248101959095525192169263d6c9e1899260448083019360209383900390910190829087803b15801561451f57600080fd5b505af1158015614533573d6000803e3d6000fd5b505050506040513d602081101561454957600080fd5b5051151561455657600080fd5b6000805460018301546040805186815260208101949094528381019190915260026060840152518892600160a060020a03909216917f2bc2599ff4713444a049b5e4a07d2cde6becf6e7fc7c4e041bc1cf36894f10ee919081900360800190a3505050505050565b600e54600354604080517f7065bedc000000000000000000000000000000000000000000000000000000008152600160a060020a03928316600482015260248101829052600d60448201527f696e666c6174696f6e526174650000000000000000000000000000000000000060648201529051600093849384938493849384931691637065bedc916084808301928692919082900301818387803b15801561466557600080fd5b505af1158015614679573d6000803e3d6000fd5b505050506040513d6000823e601f3d908101601f1916820160405260a08110156146a257600080fd5b8151602083015160408401516060850151608086018051949693959294919392830192916401000000008111156146d857600080fd5b820160208101848111156146eb57600080fd5b815164010000000081118282018710171561470557600080fd5b5050600e54600354604080517f7065bedc000000000000000000000000000000000000000000000000000000008152600160a060020a03928316600482015260248101829052600860448201527f746865414f437574000000000000000000000000000000000000000000000000606482015290519a9d50911698637065bedc985060848083019850600097509095509085900301925083915084905087803b1580156147b157600080fd5b505af11580156147c5573d6000803e3d6000fd5b505050506040513d6000823e601f3d908101601f1916820160405260a08110156147ee57600080fd5b81516020830151604084015160608501516080860180519496939592949193928301929164010000000081111561482457600080fd5b8201602081018481111561483757600080fd5b815164010000000081118282018710171561485157600080fd5b5050600e54600354604080517f7065bedc000000000000000000000000000000000000000000000000000000008152600160a060020a03928316600482015260248101829052601460448201527f746865414f4574686f734561726e656452617465000000000000000000000000606482015290519a9c50911698637065bedc985060848083019850600097509095509085900301925083915084905087803b1580156148fd57600080fd5b505af1158015614911573d6000803e3d6000fd5b505050506040513d6000823e601f3d908101601f1916820160405260a081101561493a57600080fd5b81516020830151604084015160608501516080860180519496939592949193928301929164010000000081111561497057600080fd5b8201602081018481111561498357600080fd5b815164010000000081118282018710171561499d57600080fd5b509a9e999d50969b50979950505050505050505050565b6000806000806000806000806149c86145be565b50506016546040805160e060020a632dff0d0d028152600481018d90529051929950600160a060020a0390911691632dff0d0d9160248082019260009290919082900301818387803b158015614a1d57600080fd5b505af1158015614a31573d6000803e3d6000fd5b505050506040513d6000823e601f3d908101601f19168201604052610140811015614a5b57600080fd5b8151602083015160408401516060850151608086015160a087015160c088015160e08901805197999698959794969395929491939283019291640100000000811115614aa657600080fd5b82016020810184811115614ab957600080fd5b8151640100000000811182820187101715614ad357600080fd5b505092919060200180519060200190929190805190602001909291905050505050505050505050965050601460009054906101000a9004600160a060020a0316600160a060020a0316632dff0d0d876040518263ffffffff1660e060020a02815260040180826000191660001916815260200191505061010060405180830381600087803b158015614b6457600080fd5b505af1158015614b78573d6000803e3d6000fd5b505050506040513d610100811015614b8f57600080fd5b506040808201516060830151608090930151825160e060020a63caf297650281529251919850929650919450614c369173__AOLibrary_____________________________9163caf29765916004808301926020929190829003018186803b158015614bfa57600080fd5b505af4158015614c0e573d6000803e3d6000fd5b505050506040513d6020811015614c2457600080fd5b5051612b83878a63ffffffff614d7816565b9150614d5973__AOLibrary_____________________________63caf297656040518163ffffffff1660e060020a02815260040160206040518083038186803b158015614c8257600080fd5b505af4158015614c96573d6000803e3d6000fd5b505050506040513d6020811015614cac57600080fd5b5051604080517fd661dd310000000000000000000000000000000000000000000000000000000081529051612b83918b916137d29173__AOLibrary_____________________________9163d661dd3191600480820192602092909190829003018186803b158015614d1d57600080fd5b505af4158015614d31573d6000803e3d6000fd5b505050506040513d6020811015614d4757600080fd5b5051612b838a8a63ffffffff614d7816565b9050614d6b828263ffffffff6132a416565b9998505050505050505050565b6000821515614d89575060006132b1565b50818102818382811515614d9957fe5b04146132b157fe5b60008183811515614dae57fe5b049392505050565b600082821115614dc257fe5b509003905600df9b18b8b292e153b0dfff6e1d71024ca7486117e59c0bbaf074ad370deebd1ca165627a7a7230582029b0511c28f4982290fdcb5872d8c0d0c5627fe732cbc2f2439dd45a3782045a0029",
	"source": "pragma solidity ^0.4.24;\n\nimport './SafeMath.sol';\nimport './AOLibrary.sol';\nimport './TheAO.sol';\nimport './IAOEarning.sol';\nimport './IAOSetting.sol';\nimport './AOIon.sol';\nimport './INameFactory.sol';\nimport './Pathos.sol';\nimport './Ethos.sol';\nimport './IAOContent.sol';\nimport './IAOStakedContent.sol';\nimport './IAOContentHost.sol';\nimport './IAOPurchaseReceipt.sol';\nimport './INamePublicKey.sol';\n\n/**\n * @title AOEarning\n *\n * This contract stores the earning from staking/hosting content on AO\n */\ncontract AOEarning is TheAO, IAOEarning {\n\tusing SafeMath for uint256;\n\n\taddress public settingTAOId;\n\taddress public aoSettingAddress;\n\taddress public aoIonAddress;\n\taddress public nameFactoryAddress;\n\taddress public pathosAddress;\n\taddress public ethosAddress;\n\taddress public aoContentAddress;\n\taddress public aoStakedContentAddress;\n\taddress public aoContentHostAddress;\n\taddress public aoPurchaseReceiptAddress;\n\taddress public namePublicKeyAddress;\n\n\tIAOSetting internal _aoSetting;\n\tAOIon internal _aoIon;\n\tINameFactory internal _nameFactory;\n\tPathos internal _pathos;\n\tEthos internal _ethos;\n\tIAOContent internal _aoContent;\n\tIAOStakedContent internal _aoStakedContent;\n\tIAOContentHost internal _aoContentHost;\n\tIAOPurchaseReceipt internal _aoPurchaseReceipt;\n\tINamePublicKey internal _namePublicKey;\n\n\t// Total earning from staking content from all nodes\n\tuint256 public totalStakedContentEarning;\n\n\t// Total earning from hosting content from all nodes\n\tuint256 public totalContentHostEarning;\n\n\t// Total The AO earning\n\tuint256 public totalTheAOEarning;\n\n\t// Mapping from PurchaseReceipt ID to its escrowed earning status\n\tmapping (bytes32 => bool) internal purchaseReceiptEarningEscrowed;\n\n\t// Mapping from PurchaseReceipt ID to its unescrowed earning status\n\tmapping (bytes32 => bool) internal purchaseReceiptEarningUnescrowed;\n\n\t// Mapping from address to his/her earning from content that he/she staked\n\tmapping (address => uint256) public ownerStakedContentEarning;\n\n\t// Mapping from address to his/her earning from content that he/she hosted\n\tmapping (address => uint256) public ownerContentHostEarning;\n\n\t// Mapping from address to his/her network price earning\n\t// i.e, when staked amount = filesize\n\tmapping (address => uint256) public ownerNetworkPriceEarning;\n\n\t// Mapping from address to his/her content price earning\n\t// i.e, when staked amount > filesize\n\tmapping (address => uint256) public ownerContentPriceEarning;\n\n\t// Mapping from address to his/her inflation bonus\n\tmapping (address => uint256) public ownerInflationBonusAccrued;\n\n\tstruct Earning {\n\t\tbytes32 purchaseReceiptId;\n\t\tuint256 paymentEarning;\n\t\tuint256 inflationBonus;\n\t\tuint256 pathosAmount;\n\t\tuint256 ethosAmount;\n\t}\n\n\t// Mapping from address to earning from staking content of a PurchaseReceipt ID\n\tmapping (address => mapping(bytes32 => Earning)) public ownerPurchaseReceiptStakeEarnings;\n\n\t// Mapping from address to earning from hosting content of a PurchaseReceipt ID\n\tmapping (address => mapping(bytes32 => Earning)) public ownerPurchaseReceiptHostEarnings;\n\n\t// Mapping from PurchaaseReceipt ID to earning for The AO\n\tmapping (bytes32 => Earning) public theAOPurchaseReceiptEarnings;\n\n\t// Mapping from StakedContent ID to it's total earning from staking\n\tmapping (bytes32 => uint256) public stakedContentStakeEarning;\n\n\t// Mapping from StakedContent ID to it's total earning from hosting\n\tmapping (bytes32 => uint256) public stakedContentHostEarning;\n\n\t// Mapping from StakedContent ID to it's total earning earned by The AO\n\tmapping (bytes32 => uint256) public stakedContentTheAOEarning;\n\n\t// Mapping from content host ID to it's total earning\n\tmapping (bytes32 => uint256) public contentHostEarning;\n\n\t// Event to be broadcasted to public when content creator/host earns the payment split in escrow when request node buys the content\n\t// recipientType:\n\t// 0 => Content Creator (Stake Owner)\n\t// 1 => Node Host\n\t// 2 => The AO\n\tevent PaymentEarningEscrowed(address indexed recipient, bytes32 indexed purchaseReceiptId, uint256 price, uint256 recipientProfitPercentage, uint256 recipientPaymentEarning, uint8 recipientType);\n\n\t// Event to be broadcasted to public when content creator/host/The AO earns inflation bonus in escrow when request node buys the content\n\t// recipientType:\n\t// 0 => Content Creator (Stake Owner)\n\t// 1 => Node Host\n\t// 2 => The AO\n\tevent InflationBonusEscrowed(address indexed recipient, bytes32 indexed purchaseReceiptId, uint256 totalInflationBonusAmount, uint256 recipientProfitPercentage, uint256 recipientInflationBonus, uint8 recipientType);\n\n\t// Event to be broadcasted to public when content creator/host/The AO earning is released from escrow\n\t// recipientType:\n\t// 0 => Content Creator (Stake Owner)\n\t// 1 => Node Host\n\t// 2 => The AO\n\tevent EarningUnescrowed(address indexed recipient, bytes32 indexed purchaseReceiptId, uint256 paymentEarning, uint256 inflationBonus, uint8 recipientType);\n\n\t// Event to be broadcasted to public when content creator's Name earns Pathos when a node buys a content\n\tevent PathosEarned(address indexed nameId, bytes32 indexed purchaseReceiptId, uint256 amount);\n\n\t// Event to be broadcasted to public when host's Name earns Ethos when a node buys a content\n\tevent EthosEarned(address indexed nameId, bytes32 indexed purchaseReceiptId, uint256 amount);\n\n\t/**\n\t * @dev Constructor function\n\t * @param _settingTAOId The TAO ID that controls the setting\n\t * @param _aoSettingAddress The address of AOSetting\n\t * @param _aoIonAddress The address of AOIon\n\t * @param _nameFactoryAddress The address of NameFactory\n\t * @param _pathosAddress The address of Pathos\n\t * @param _ethosAddress The address of Ethos\n\t * @param _namePublicKeyAddress The address of NamePublicKey\n\t * @param _nameTAOPositionAddress The address of NameTAOPosition\n\t */\n\tconstructor(address _settingTAOId,\n\t\taddress _aoSettingAddress,\n\t\taddress _aoIonAddress,\n\t\taddress _nameFactoryAddress,\n\t\taddress _pathosAddress,\n\t\taddress _ethosAddress,\n\t\taddress _aoContentAddress,\n\t\taddress _namePublicKeyAddress,\n\t\taddress _nameTAOPositionAddress) public {\n\t\tsetSettingTAOId(_settingTAOId);\n\t\tsetAOSettingAddress(_aoSettingAddress);\n\t\tsetAOIonAddress(_aoIonAddress);\n\t\tsetNameFactoryAddress(_nameFactoryAddress);\n\t\tsetPathosAddress(_pathosAddress);\n\t\tsetEthosAddress(_ethosAddress);\n\t\tsetAOContentAddress(_aoContentAddress);\n\t\tsetNamePublicKeyAddress(_namePublicKeyAddress);\n\t\tsetNameTAOPositionAddress(_nameTAOPositionAddress);\n\t}\n\n\t/**\n\t * @dev Checks if the calling contract address is The AO\n\t *\t\tOR\n\t *\t\tIf The AO is set to a Name/TAO, then check if calling address is the Advocate\n\t */\n\tmodifier onlyTheAO {\n\t\trequire (AOLibrary.isTheAO(msg.sender, theAO, nameTAOPositionAddress));\n\t\t_;\n\t}\n\n\t/***** The AO ONLY METHODS *****/\n\t/**\n\t * @dev Transfer ownership of The AO to new address\n\t * @param _theAO The new address to be transferred\n\t */\n\tfunction transferOwnership(address _theAO) public onlyTheAO {\n\t\trequire (_theAO != address(0));\n\t\ttheAO = _theAO;\n\t}\n\n\t/**\n\t * @dev Whitelist `_account` address to transact on behalf of others\n\t * @param _account The address to whitelist\n\t * @param _whitelist Either to whitelist or not\n\t */\n\tfunction setWhitelist(address _account, bool _whitelist) public onlyTheAO {\n\t\trequire (_account != address(0));\n\t\twhitelist[_account] = _whitelist;\n\t}\n\n\t/**\n\t * @dev The AO sets setting TAO ID\n\t * @param _settingTAOId The new setting TAO ID to set\n\t */\n\tfunction setSettingTAOId(address _settingTAOId) public onlyTheAO {\n\t\trequire (AOLibrary.isTAO(_settingTAOId));\n\t\tsettingTAOId = _settingTAOId;\n\t}\n\n\t/**\n\t * @dev The AO sets AO Setting address\n\t * @param _aoSettingAddress The address of AOSetting\n\t */\n\tfunction setAOSettingAddress(address _aoSettingAddress) public onlyTheAO {\n\t\trequire (_aoSettingAddress != address(0));\n\t\taoSettingAddress = _aoSettingAddress;\n\t\t_aoSetting = IAOSetting(_aoSettingAddress);\n\t}\n\n\t/**\n\t * @dev The AO sets AOIon address\n\t * @param _aoIonAddress The address of AOIon\n\t */\n\tfunction setAOIonAddress(address _aoIonAddress) public onlyTheAO {\n\t\trequire (_aoIonAddress != address(0));\n\t\taoIonAddress = _aoIonAddress;\n\t\t_aoIon = AOIon(_aoIonAddress);\n\t}\n\n\t/**\n\t * @dev The AO sets NameFactory address\n\t * @param _nameFactoryAddress The address of NameFactory\n\t */\n\tfunction setNameFactoryAddress(address _nameFactoryAddress) public onlyTheAO {\n\t\trequire (_nameFactoryAddress != address(0));\n\t\tnameFactoryAddress = _nameFactoryAddress;\n\t\t_nameFactory = INameFactory(_nameFactoryAddress);\n\t}\n\n\t/**\n\t * @dev The AO sets Pathos address\n\t * @param _pathosAddress The address of Pathos\n\t */\n\tfunction setPathosAddress(address _pathosAddress) public onlyTheAO {\n\t\trequire (_pathosAddress != address(0));\n\t\tpathosAddress = _pathosAddress;\n\t\t_pathos = Pathos(_pathosAddress);\n\t}\n\n\t/**\n\t * @dev The AO sets Ethos address\n\t * @param _ethosAddress The address of Ethos\n\t */\n\tfunction setEthosAddress(address _ethosAddress) public onlyTheAO {\n\t\trequire (_ethosAddress != address(0));\n\t\tethosAddress = _ethosAddress;\n\t\t_ethos = Ethos(_ethosAddress);\n\t}\n\n\t/**\n\t * @dev The AO sets AOContent address\n\t * @param _aoContentAddress The address of AOContent\n\t */\n\tfunction setAOContentAddress(address _aoContentAddress) public onlyTheAO {\n\t\trequire (_aoContentAddress != address(0));\n\t\taoContentAddress = _aoContentAddress;\n\t\t_aoContent = IAOContent(_aoContentAddress);\n\t}\n\n\t/**\n\t * @dev The AO sets AOStakedContent address\n\t * @param _aoStakedContentAddress The address of AOStakedContent\n\t */\n\tfunction setAOStakedContentAddress(address _aoStakedContentAddress) public onlyTheAO {\n\t\trequire (_aoStakedContentAddress != address(0));\n\t\taoStakedContentAddress = _aoStakedContentAddress;\n\t\t_aoStakedContent = IAOStakedContent(_aoStakedContentAddress);\n\t}\n\n\t/**\n\t * @dev The AO sets AOContentHost address\n\t * @param _aoContentHostAddress The address of AOContentHost\n\t */\n\tfunction setAOContentHostAddress(address _aoContentHostAddress) public onlyTheAO {\n\t\trequire (_aoContentHostAddress != address(0));\n\t\taoContentHostAddress = _aoContentHostAddress;\n\t\t_aoContentHost = IAOContentHost(_aoContentHostAddress);\n\t}\n\n\t/**\n\t * @dev The AO sets AOPurchaseReceipt address\n\t * @param _aoPurchaseReceiptAddress The address of AOPurchaseReceipt\n\t */\n\tfunction setAOPurchaseReceiptAddress(address _aoPurchaseReceiptAddress) public onlyTheAO {\n\t\trequire (_aoPurchaseReceiptAddress != address(0));\n\t\taoPurchaseReceiptAddress = _aoPurchaseReceiptAddress;\n\t\t_aoPurchaseReceipt = IAOPurchaseReceipt(_aoPurchaseReceiptAddress);\n\t}\n\n\t/**\n\t * @dev The AO sets NamePublicKey address\n\t * @param _namePublicKeyAddress The address of NamePublicKey\n\t */\n\tfunction setNamePublicKeyAddress(address _namePublicKeyAddress) public onlyTheAO {\n\t\trequire (_namePublicKeyAddress != address(0));\n\t\tnamePublicKeyAddress = _namePublicKeyAddress;\n\t\t_namePublicKey = INamePublicKey(_namePublicKeyAddress);\n\t}\n\n\t/**\n\t * @dev The AO set the NameTAOPosition Address\n\t * @param _nameTAOPositionAddress The address of NameTAOPosition\n\t */\n\tfunction setNameTAOPositionAddress(address _nameTAOPositionAddress) public onlyTheAO {\n\t\trequire (_nameTAOPositionAddress != address(0));\n\t\tnameTAOPositionAddress = _nameTAOPositionAddress;\n\t}\n\n\t/***** PUBLIC METHODS *****/\n\t/**\n\t * @dev Calculate the content creator/host/The AO earning when request node buys the content.\n\t *\t\tAlso at this stage, all of the earnings are stored in escrow\n\t * @param _purchaseReceiptId The ID of the purchase receipt object\n\t * @return true on success\n\t */\n\tfunction calculateEarning(bytes32 _purchaseReceiptId) external inWhitelist returns (bool) {\n\t\trequire (_aoPurchaseReceipt.isExist(_purchaseReceiptId));\n\t\trequire (!purchaseReceiptEarningEscrowed[_purchaseReceiptId]);\n\t\tpurchaseReceiptEarningEscrowed[_purchaseReceiptId] = true;\n\n\t\t// Split the payment earning between content creator and host and store them in escrow\n\t\t_escrowPaymentEarning(_purchaseReceiptId);\n\n\t\t// Calculate the inflation bonus earning for content creator/node/The AO in escrow\n\t\t_escrowInflationBonus(_purchaseReceiptId);\n\t\treturn true;\n\t}\n\n\t/**\n\t * @dev Release the payment earning and inflation bonus that is in escrow for specific PurchaseReceipt ID\n\t * @param _purchaseReceiptId The purchase receipt ID to check\n\t * @return true on success\n\t */\n\tfunction releaseEarning(bytes32 _purchaseReceiptId) external inWhitelist returns (bool) {\n\t\trequire (_aoPurchaseReceipt.isExist(_purchaseReceiptId));\n\t\trequire (purchaseReceiptEarningEscrowed[_purchaseReceiptId] && !purchaseReceiptEarningUnescrowed[_purchaseReceiptId]);\n\t\tpurchaseReceiptEarningUnescrowed[_purchaseReceiptId] = true;\n\n\t\t(bytes32 _contentHostId, bytes32 _stakedContentId, bytes32 _contentId,,, uint256 _amountPaidByBuyer,,,,) = _aoPurchaseReceipt.getById(_purchaseReceiptId);\n\t\t(, address _stakeOwner,,,,,,) = _aoStakedContent.getById(_stakedContentId);\n\t\t(,, address _host,,) = _aoContentHost.getById(_contentHostId);\n\t\t(, uint256 _fileSize,,,,,,,) = _aoContent.getById(_contentId);\n\n\t\t// Release the earning in escrow for stake owner\n\t\t_releaseEarning(_stakedContentId, _contentHostId, _purchaseReceiptId, _amountPaidByBuyer > _fileSize, _stakeOwner, 0);\n\n\t\t// Release the earning in escrow for host\n\t\t_releaseEarning(_stakedContentId, _contentHostId, _purchaseReceiptId, _amountPaidByBuyer > _fileSize, _host, 1);\n\n\t\t// Release the earning in escrow for The AO\n\t\t_releaseEarning(_stakedContentId, _contentHostId, _purchaseReceiptId, _amountPaidByBuyer > _fileSize, theAO, 2);\n\t\treturn true;\n\t}\n\n\t/**\n\t * @dev Return the earning information of a StakedContent ID\n\t * @param _stakedContentId The ID of the staked content\n\t * @return the total earning from staking this content\n\t * @return the total earning from hosting this content\n\t * @return the total The AO earning of this content\n\t */\n\tfunction getTotalStakedContentEarning(bytes32 _stakedContentId) external view returns (uint256, uint256, uint256) {\n\t\treturn (\n\t\t\tstakedContentStakeEarning[_stakedContentId],\n\t\t\tstakedContentHostEarning[_stakedContentId],\n\t\t\tstakedContentTheAOEarning[_stakedContentId]\n\t\t);\n\t}\n\n\t/***** INTERNAL METHODS *****/\n\t/**\n\t * @dev Calculate the payment split for content creator/host and store them in escrow\n\t * @param _purchaseReceiptId The ID of the purchase receipt object\n\t */\n\tfunction _escrowPaymentEarning(bytes32 _purchaseReceiptId) internal {\n\t\t(uint256 _stakeOwnerEarning, uint256 _pathosAmount) = _escrowStakeOwnerPaymentEarning(_purchaseReceiptId);\n\t\t(uint256 _ethosAmount) = _escrowHostPaymentEarning(_purchaseReceiptId, _stakeOwnerEarning);\n\t\t_escrowTheAOPaymentEarning(_purchaseReceiptId, _pathosAmount, _ethosAmount);\n\t}\n\n\t/**\n\t * @dev Calculate the payment split for content creator and store them in escrow\n\t * @param _purchaseReceiptId The ID of the purchase receipt object\n\t * @return The stake owner's earning amount\n\t * @return The pathos earned from this transaction\n\t */\n\tfunction _escrowStakeOwnerPaymentEarning(bytes32 _purchaseReceiptId) internal returns (uint256, uint256) {\n\t\t(uint256 inflationRate,,) = _getSettingVariables();\n\t\t(, bytes32 _stakedContentId, bytes32 _contentId, address _buyer, uint256 _price,,,,,) = _aoPurchaseReceipt.getById(_purchaseReceiptId);\n\t\t(, address _stakeOwner,,,, uint256 _profitPercentage,,) = _aoStakedContent.getById(_stakedContentId);\n\n\t\tEarning storage _ownerPurchaseReceiptStakeEarning = ownerPurchaseReceiptStakeEarnings[_stakeOwner][_purchaseReceiptId];\n\t\t_ownerPurchaseReceiptStakeEarning.purchaseReceiptId = _purchaseReceiptId;\n\n\t\t// Store how much the content creator (stake owner) earns in escrow\n\t\t// If content is AO Content Usage Type, stake owner earns 0%\n\t\t// and all profit goes to the serving host node\n\t\t_ownerPurchaseReceiptStakeEarning.paymentEarning = _aoContent.isAOContentUsageType(_contentId) ? (_price.mul(_profitPercentage)).div(AOLibrary.PERCENTAGE_DIVISOR()) : 0;\n\t\t// Pathos = Price X Node Share X Inflation Rate\n\t\t_ownerPurchaseReceiptStakeEarning.pathosAmount = _price.mul(AOLibrary.PERCENTAGE_DIVISOR().sub(_profitPercentage)).mul(inflationRate).div(AOLibrary.PERCENTAGE_DIVISOR()).div(AOLibrary.PERCENTAGE_DIVISOR());\n\t\trequire (_aoIon.escrowFrom(_namePublicKey.getDefaultKey(_buyer), _namePublicKey.getDefaultKey(_stakeOwner), _ownerPurchaseReceiptStakeEarning.paymentEarning));\n\t\temit PaymentEarningEscrowed(_stakeOwner, _purchaseReceiptId, _price, _profitPercentage, _ownerPurchaseReceiptStakeEarning.paymentEarning, 0);\n\t\treturn (_ownerPurchaseReceiptStakeEarning.paymentEarning, _ownerPurchaseReceiptStakeEarning.pathosAmount);\n\t}\n\n\t/**\n\t * @dev Calculate the payment split for host node and store them in escrow\n\t * @param _purchaseReceiptId The ID of the purchase receipt object\n\t * @param _stakeOwnerEarning The stake owner's earning amount\n\t * @return The ethos earned from this transaction\n\t */\n\tfunction _escrowHostPaymentEarning(bytes32 _purchaseReceiptId, uint256 _stakeOwnerEarning) internal returns (uint256) {\n\t\t(uint256 inflationRate,,) = _getSettingVariables();\n\t\t(bytes32 _contentHostId, bytes32 _stakedContentId, bytes32 _contentId, address _buyer, uint256 _price,,,,,) = _aoPurchaseReceipt.getById(_purchaseReceiptId);\n\t\t(,,,,, uint256 _profitPercentage,,) = _aoStakedContent.getById(_stakedContentId);\n\t\t(,, address _host,,) = _aoContentHost.getById(_contentHostId);\n\n\t\t// Store how much the node host earns in escrow\n\t\tEarning storage _ownerPurchaseReceiptHostEarning = ownerPurchaseReceiptHostEarnings[_host][_purchaseReceiptId];\n\t\t_ownerPurchaseReceiptHostEarning.purchaseReceiptId = _purchaseReceiptId;\n\t\t_ownerPurchaseReceiptHostEarning.paymentEarning = _price.sub(_stakeOwnerEarning);\n\t\t// Ethos = Price X Creator Share X Inflation Rate\n\t\t_ownerPurchaseReceiptHostEarning.ethosAmount = _price.mul(_profitPercentage).mul(inflationRate).div(AOLibrary.PERCENTAGE_DIVISOR()).div(AOLibrary.PERCENTAGE_DIVISOR());\n\n\t\tif (_aoContent.isAOContentUsageType(_contentId)) {\n\t\t\trequire (_aoIon.escrowFrom(_namePublicKey.getDefaultKey(_buyer), _namePublicKey.getDefaultKey(_host), _ownerPurchaseReceiptHostEarning.paymentEarning));\n\t\t} else {\n\t\t\t// If not AO Content usage type, we want to mint to the host\n\t\t\trequire (_aoIon.mintEscrow(_namePublicKey.getDefaultKey(_host), _ownerPurchaseReceiptHostEarning.paymentEarning));\n\t\t}\n\t\temit PaymentEarningEscrowed(_host, _purchaseReceiptId, _price, AOLibrary.PERCENTAGE_DIVISOR().sub(_profitPercentage), _ownerPurchaseReceiptHostEarning.paymentEarning, 1);\n\t\treturn _ownerPurchaseReceiptHostEarning.ethosAmount;\n\t}\n\n\t/**\n\t * @dev Calculate the earning for The AO and store them in escrow\n\t * @param _purchaseReceiptId The ID of the purchase receipt object\n\t * @param _pathosAmount The amount of pathos earned by stake owner\n\t * @param _ethosAmount The amount of ethos earned by host node\n\t */\n\tfunction _escrowTheAOPaymentEarning(bytes32 _purchaseReceiptId, uint256 _pathosAmount, uint256 _ethosAmount) internal {\n\t\t(,,uint256 theAOEthosEarnedRate) = _getSettingVariables();\n\t\t(,,,, uint256 _price,,,,,) = _aoPurchaseReceipt.getById(_purchaseReceiptId);\n\n\t\t// Store how much The AO earns in escrow\n\t\tEarning storage _theAOPurchaseReceiptEarning = theAOPurchaseReceiptEarnings[_purchaseReceiptId];\n\t\t_theAOPurchaseReceiptEarning.purchaseReceiptId = _purchaseReceiptId;\n\t\t// Pathos + X% of Ethos\n\t\t_theAOPurchaseReceiptEarning.paymentEarning = _pathosAmount.add(_ethosAmount.mul(theAOEthosEarnedRate).div(AOLibrary.PERCENTAGE_DIVISOR()));\n\t\trequire (_aoIon.mintEscrow(theAO, _theAOPurchaseReceiptEarning.paymentEarning));\n\t\temit PaymentEarningEscrowed(theAO, _purchaseReceiptId, _price, 0, _theAOPurchaseReceiptEarning.paymentEarning, 2);\n\t}\n\n\t/**\n\t * @dev Mint the inflation bonus for content creator/host/The AO and store them in escrow\n\t * @param _purchaseReceiptId The ID of the purchase receipt object\n\t */\n\tfunction _escrowInflationBonus(\n\t\tbytes32 _purchaseReceiptId\n\t) internal {\n\t\t(, uint256 theAOCut,) = _getSettingVariables();\n\t\tuint256 _inflationBonusAmount = _calculateInflationBonus(_purchaseReceiptId);\n\t\t(bytes32 _contentHostId, bytes32 _stakedContentId, bytes32 _contentId,,,,,,,) = _aoPurchaseReceipt.getById(_purchaseReceiptId);\n\t\t(, address _stakeOwner,,,, uint256 _profitPercentage,,) = _aoStakedContent.getById(_stakedContentId);\n\t\t(,, address _host,,) = _aoContentHost.getById(_contentHostId);\n\n\t\tif (_inflationBonusAmount > 0) {\n\t\t\t// Store how much the content creator earns in escrow\n\t\t\tuint256 _stakeOwnerInflationBonus = _aoContent.isAOContentUsageType(_contentId) ? (_inflationBonusAmount.mul(_profitPercentage)).div(AOLibrary.PERCENTAGE_DIVISOR()) : 0;\n\t\t\tEarning storage _ownerPurchaseReceiptStakeEarning = ownerPurchaseReceiptStakeEarnings[_stakeOwner][_purchaseReceiptId];\n\t\t\t_ownerPurchaseReceiptStakeEarning.inflationBonus = _stakeOwnerInflationBonus;\n\t\t\trequire (_aoIon.mintEscrow(_namePublicKey.getDefaultKey(_stakeOwner), _ownerPurchaseReceiptStakeEarning.inflationBonus));\n\t\t\temit InflationBonusEscrowed(_stakeOwner, _purchaseReceiptId, _inflationBonusAmount, _profitPercentage, _ownerPurchaseReceiptStakeEarning.inflationBonus, 0);\n\n\t\t\t// Store how much the host earns in escrow\n\t\t\tEarning storage _ownerPurchaseReceiptHostEarning = ownerPurchaseReceiptHostEarnings[_host][_purchaseReceiptId];\n\t\t\t_ownerPurchaseReceiptHostEarning.inflationBonus = _inflationBonusAmount.sub(_stakeOwnerInflationBonus);\n\t\t\trequire (_aoIon.mintEscrow(_namePublicKey.getDefaultKey(_host), _ownerPurchaseReceiptHostEarning.inflationBonus));\n\t\t\temit InflationBonusEscrowed(_host, _purchaseReceiptId, _inflationBonusAmount, AOLibrary.PERCENTAGE_DIVISOR().sub(_profitPercentage), _ownerPurchaseReceiptHostEarning.inflationBonus, 1);\n\n\t\t\t// Store how much the The AO earns in escrow\n\t\t\tEarning storage _theAOPurchaseReceiptEarning = theAOPurchaseReceiptEarnings[_purchaseReceiptId];\n\t\t\t_theAOPurchaseReceiptEarning.inflationBonus = (_inflationBonusAmount.mul(theAOCut)).div(AOLibrary.PERCENTAGE_DIVISOR());\n\t\t\trequire (_aoIon.mintEscrow(theAO, _theAOPurchaseReceiptEarning.inflationBonus));\n\t\t\temit InflationBonusEscrowed(theAO, _purchaseReceiptId, _inflationBonusAmount, theAOCut, _theAOPurchaseReceiptEarning.inflationBonus, 2);\n\t\t} else {\n\t\t\temit InflationBonusEscrowed(_stakeOwner, _purchaseReceiptId, 0, _profitPercentage, 0, 0);\n\t\t\temit InflationBonusEscrowed(_host, _purchaseReceiptId, 0, AOLibrary.PERCENTAGE_DIVISOR().sub(_profitPercentage), 0, 1);\n\t\t\temit InflationBonusEscrowed(theAO, _purchaseReceiptId, 0, theAOCut, 0, 2);\n\t\t}\n\t}\n\n\t/**\n\t * @dev Calculate the inflation bonus amount\n\t * @param _purchaseReceiptId The ID of the PurchaseReceipt\n\t * @return the bonus network amount\n\t */\n\tfunction _calculateInflationBonus(bytes32 _purchaseReceiptId) internal view returns (uint256) {\n\t\t(uint256 inflationRate,,) = _getSettingVariables();\n\t\t(, bytes32 _stakedContentId,,,,,,,,) = _aoPurchaseReceipt.getById(_purchaseReceiptId);\n\t\t(,,uint256 _networkAmount, uint256 _primordialAmount, uint256 _primordialWeightedMultiplier,,,) = _aoStakedContent.getById(_stakedContentId);\n\n\t\tuint256 _networkBonus = _networkAmount.mul(inflationRate).div(AOLibrary.PERCENTAGE_DIVISOR());\n\t\tuint256 _primordialBonus = _primordialAmount.mul(_primordialWeightedMultiplier).div(AOLibrary.MULTIPLIER_DIVISOR()).mul(inflationRate).div(AOLibrary.PERCENTAGE_DIVISOR());\n\t\treturn _networkBonus.add(_primordialBonus);\n\t}\n\n\t/**\n\t * @dev Release the escrowed earning for a specific PurchaseReceipt ID for an account\n\t * @param _stakedContentId The ID of the staked content\n\t * @param _contentHostId The ID of the hosted content\n\t * @param _purchaseReceiptId The purchase receipt ID\n\t * @param _buyerPaidMoreThanFileSize Whether or not the request node paid more than filesize when buying the content\n\t * @param _account The address of account that made the earning (content creator/host)\n\t * @param _recipientType The type of the earning recipient (0 => content creator. 1 => host. 2 => theAO)\n\t */\n\tfunction _releaseEarning(bytes32 _stakedContentId, bytes32 _contentHostId, bytes32 _purchaseReceiptId, bool _buyerPaidMoreThanFileSize, address _account, uint8 _recipientType) internal {\n\t\t// Make sure the recipient type is valid\n\t\trequire (_recipientType >= 0 && _recipientType <= 2);\n\n\t\tuint256 _paymentEarning;\n\t\tuint256 _inflationBonus;\n\t\tuint256 _totalEarning;\n\t\tuint256 _pathosAmount;\n\t\tuint256 _ethosAmount;\n\t\tif (_recipientType == 0) {\n\t\t\tEarning storage _earning = ownerPurchaseReceiptStakeEarnings[_account][_purchaseReceiptId];\n\t\t\t_paymentEarning = _earning.paymentEarning;\n\t\t\t_inflationBonus = _earning.inflationBonus;\n\t\t\t_pathosAmount = _earning.pathosAmount;\n\t\t\t_earning.paymentEarning = 0;\n\t\t\t_earning.inflationBonus = 0;\n\t\t\t_earning.pathosAmount = 0;\n\t\t\t_earning.ethosAmount = 0;\n\t\t\t_totalEarning = _paymentEarning.add(_inflationBonus);\n\n\t\t\t// Update the global var settings\n\t\t\ttotalStakedContentEarning = totalStakedContentEarning.add(_totalEarning);\n\t\t\townerStakedContentEarning[_account] = ownerStakedContentEarning[_account].add(_totalEarning);\n\t\t\tstakedContentStakeEarning[_stakedContentId] = stakedContentStakeEarning[_stakedContentId].add(_totalEarning);\n\t\t\tif (_buyerPaidMoreThanFileSize) {\n\t\t\t\townerContentPriceEarning[_account] = ownerContentPriceEarning[_account].add(_totalEarning);\n\t\t\t} else {\n\t\t\t\townerNetworkPriceEarning[_account] = ownerNetworkPriceEarning[_account].add(_totalEarning);\n\t\t\t}\n\t\t\townerInflationBonusAccrued[_account] = ownerInflationBonusAccrued[_account].add(_inflationBonus);\n\n\t\t\t// Reward the content creator/stake owner with some Pathos\n\t\t\trequire (_pathos.mint(_account, _pathosAmount));\n\t\t\temit PathosEarned(_account, _purchaseReceiptId, _pathosAmount);\n\t\t\trequire (_aoIon.unescrowFrom(_namePublicKey.getDefaultKey(_account), _totalEarning));\n\t\t} else if (_recipientType == 1) {\n\t\t\t_earning = ownerPurchaseReceiptHostEarnings[_account][_purchaseReceiptId];\n\t\t\t_paymentEarning = _earning.paymentEarning;\n\t\t\t_inflationBonus = _earning.inflationBonus;\n\t\t\t_ethosAmount = _earning.ethosAmount;\n\t\t\t_earning.paymentEarning = 0;\n\t\t\t_earning.inflationBonus = 0;\n\t\t\t_earning.pathosAmount = 0;\n\t\t\t_earning.ethosAmount = 0;\n\t\t\t_totalEarning = _paymentEarning.add(_inflationBonus);\n\n\t\t\t// Update the global var settings\n\t\t\ttotalContentHostEarning = totalContentHostEarning.add(_totalEarning);\n\t\t\townerContentHostEarning[_account] = ownerContentHostEarning[_account].add(_totalEarning);\n\t\t\tstakedContentHostEarning[_stakedContentId] = stakedContentHostEarning[_stakedContentId].add(_totalEarning);\n\t\t\tcontentHostEarning[_contentHostId] = contentHostEarning[_contentHostId].add(_totalEarning);\n\t\t\tif (_buyerPaidMoreThanFileSize) {\n\t\t\t\townerContentPriceEarning[_account] = ownerContentPriceEarning[_account].add(_totalEarning);\n\t\t\t} else {\n\t\t\t\townerNetworkPriceEarning[_account] = ownerNetworkPriceEarning[_account].add(_totalEarning);\n\t\t\t}\n\t\t\townerInflationBonusAccrued[_account] = ownerInflationBonusAccrued[_account].add(_inflationBonus);\n\n\t\t\t// Reward the host node with some Ethos\n\t\t\trequire (_ethos.mint(_account, _ethosAmount));\n\t\t\temit EthosEarned(_account, _purchaseReceiptId, _ethosAmount);\n\t\t\trequire (_aoIon.unescrowFrom(_namePublicKey.getDefaultKey(_account), _totalEarning));\n\t\t} else {\n\t\t\t_earning = theAOPurchaseReceiptEarnings[_purchaseReceiptId];\n\t\t\t_paymentEarning = _earning.paymentEarning;\n\t\t\t_inflationBonus = _earning.inflationBonus;\n\t\t\t_earning.paymentEarning = 0;\n\t\t\t_earning.inflationBonus = 0;\n\t\t\t_earning.pathosAmount = 0;\n\t\t\t_earning.ethosAmount = 0;\n\t\t\t_totalEarning = _paymentEarning.add(_inflationBonus);\n\n\t\t\t// Update the global var settings\n\t\t\ttotalTheAOEarning = totalTheAOEarning.add(_totalEarning);\n\t\t\townerInflationBonusAccrued[_account] = ownerInflationBonusAccrued[_account].add(_inflationBonus);\n\t\t\tstakedContentTheAOEarning[_stakedContentId] = stakedContentTheAOEarning[_stakedContentId].add(_totalEarning);\n\t\t\trequire (_aoIon.unescrowFrom(_account, _totalEarning));\n\t\t}\n\t\temit EarningUnescrowed(_account, _purchaseReceiptId, _paymentEarning, _inflationBonus, _recipientType);\n\t}\n\n\t/**\n\t * @dev Get setting variables\n\t * @return inflationRate The rate to use when calculating inflation bonus\n\t * @return theAOCut The rate to use when calculating the AO earning\n\t * @return theAOEthosEarnedRate The rate to use when calculating the Ethos to AO rate for the AO\n\t */\n\tfunction _getSettingVariables() internal view returns (uint256, uint256, uint256) {\n\t\t(uint256 inflationRate,,,,) = _aoSetting.getSettingValuesByTAOName(settingTAOId, 'inflationRate');\n\t\t(uint256 theAOCut,,,,) = _aoSetting.getSettingValuesByTAOName(settingTAOId, 'theAOCut');\n\t\t(uint256 theAOEthosEarnedRate,,,,) = _aoSetting.getSettingValuesByTAOName(settingTAOId, 'theAOEthosEarnedRate');\n\n\t\treturn (inflationRate, theAOCut, theAOEthosEarnedRate);\n\t}\n}\n",
	"sourcePath": "/Users/johanmulyono/Work/AO/ao-contracts/contracts/AOEarning.sol",
	"compiler": {
		"name": "solc",
		"version": "0.4.24+commit.e67f0147.Emscripten.clang"
	},
	"schemaVersion": "2.0.1",
	"updatedAt": "2019-04-04T04:29:47.699Z"
}