{
	"contractName": "AOETH",
	"abi": [
		{
			"constant": true,
			"inputs": [],
			"name": "name",
			"outputs": [
				{
					"name": "",
					"type": "string"
				}
			],
			"payable": false,
			"stateMutability": "view",
			"type": "function"
		},
		{
			"constant": false,
			"inputs": [
				{
					"name": "_spender",
					"type": "address"
				},
				{
					"name": "_value",
					"type": "uint256"
				}
			],
			"name": "approve",
			"outputs": [
				{
					"name": "success",
					"type": "bool"
				}
			],
			"payable": false,
			"stateMutability": "nonpayable",
			"type": "function"
		},
		{
			"constant": true,
			"inputs": [],
			"name": "totalSupply",
			"outputs": [
				{
					"name": "",
					"type": "uint256"
				}
			],
			"payable": false,
			"stateMutability": "view",
			"type": "function"
		},
		{
			"constant": false,
			"inputs": [
				{
					"name": "_from",
					"type": "address"
				},
				{
					"name": "_to",
					"type": "address"
				},
				{
					"name": "_value",
					"type": "uint256"
				}
			],
			"name": "transferFrom",
			"outputs": [
				{
					"name": "success",
					"type": "bool"
				}
			],
			"payable": false,
			"stateMutability": "nonpayable",
			"type": "function"
		},
		{
			"constant": true,
			"inputs": [
				{
					"name": "",
					"type": "address"
				}
			],
			"name": "totalAddressTokenExchanges",
			"outputs": [
				{
					"name": "",
					"type": "uint256"
				}
			],
			"payable": false,
			"stateMutability": "view",
			"type": "function"
		},
		{
			"constant": true,
			"inputs": [],
			"name": "decimals",
			"outputs": [
				{
					"name": "",
					"type": "uint8"
				}
			],
			"payable": false,
			"stateMutability": "view",
			"type": "function"
		},
		{
			"constant": true,
			"inputs": [],
			"name": "aoIonAddress",
			"outputs": [
				{
					"name": "",
					"type": "address"
				}
			],
			"payable": false,
			"stateMutability": "view",
			"type": "function"
		},
		{
			"constant": false,
			"inputs": [
				{
					"name": "_value",
					"type": "uint256"
				}
			],
			"name": "burn",
			"outputs": [
				{
					"name": "success",
					"type": "bool"
				}
			],
			"payable": false,
			"stateMutability": "nonpayable",
			"type": "function"
		},
		{
			"constant": true,
			"inputs": [],
			"name": "nameTAOPositionAddress",
			"outputs": [
				{
					"name": "",
					"type": "address"
				}
			],
			"payable": false,
			"stateMutability": "view",
			"type": "function"
		},
		{
			"constant": true,
			"inputs": [],
			"name": "totalERC20Tokens",
			"outputs": [
				{
					"name": "",
					"type": "uint256"
				}
			],
			"payable": false,
			"stateMutability": "view",
			"type": "function"
		},
		{
			"constant": true,
			"inputs": [
				{
					"name": "",
					"type": "address"
				}
			],
			"name": "balanceOf",
			"outputs": [
				{
					"name": "",
					"type": "uint256"
				}
			],
			"payable": false,
			"stateMutability": "view",
			"type": "function"
		},
		{
			"constant": false,
			"inputs": [
				{
					"name": "_from",
					"type": "address"
				},
				{
					"name": "_value",
					"type": "uint256"
				}
			],
			"name": "burnFrom",
			"outputs": [
				{
					"name": "success",
					"type": "bool"
				}
			],
			"payable": false,
			"stateMutability": "nonpayable",
			"type": "function"
		},
		{
			"constant": true,
			"inputs": [],
			"name": "symbol",
			"outputs": [
				{
					"name": "",
					"type": "string"
				}
			],
			"payable": false,
			"stateMutability": "view",
			"type": "function"
		},
		{
			"constant": true,
			"inputs": [
				{
					"name": "",
					"type": "address"
				}
			],
			"name": "whitelist",
			"outputs": [
				{
					"name": "",
					"type": "bool"
				}
			],
			"payable": false,
			"stateMutability": "view",
			"type": "function"
		},
		{
			"constant": false,
			"inputs": [
				{
					"name": "_to",
					"type": "address"
				},
				{
					"name": "_value",
					"type": "uint256"
				}
			],
			"name": "transfer",
			"outputs": [
				{
					"name": "success",
					"type": "bool"
				}
			],
			"payable": false,
			"stateMutability": "nonpayable",
			"type": "function"
		},
		{
			"constant": true,
			"inputs": [],
			"name": "theAO",
			"outputs": [
				{
					"name": "",
					"type": "address"
				}
			],
			"payable": false,
			"stateMutability": "view",
			"type": "function"
		},
		{
			"constant": false,
			"inputs": [
				{
					"name": "_spender",
					"type": "address"
				},
				{
					"name": "_value",
					"type": "uint256"
				},
				{
					"name": "_extraData",
					"type": "bytes"
				}
			],
			"name": "approveAndCall",
			"outputs": [
				{
					"name": "success",
					"type": "bool"
				}
			],
			"payable": false,
			"stateMutability": "nonpayable",
			"type": "function"
		},
		{
			"constant": true,
			"inputs": [
				{
					"name": "",
					"type": "address"
				},
				{
					"name": "",
					"type": "address"
				}
			],
			"name": "allowance",
			"outputs": [
				{
					"name": "",
					"type": "uint256"
				}
			],
			"payable": false,
			"stateMutability": "view",
			"type": "function"
		},
		{
			"constant": true,
			"inputs": [],
			"name": "totalTokenExchanges",
			"outputs": [
				{
					"name": "",
					"type": "uint256"
				}
			],
			"payable": false,
			"stateMutability": "view",
			"type": "function"
		},
		{
			"inputs": [
				{
					"name": "initialSupply",
					"type": "uint256"
				},
				{
					"name": "tokenName",
					"type": "string"
				},
				{
					"name": "tokenSymbol",
					"type": "string"
				},
				{
					"name": "_aoIonAddress",
					"type": "address"
				},
				{
					"name": "_nameTAOPositionAddress",
					"type": "address"
				}
			],
			"payable": false,
			"stateMutability": "nonpayable",
			"type": "constructor"
		},
		{
			"anonymous": false,
			"inputs": [
				{
					"indexed": true,
					"name": "tokenAddress",
					"type": "address"
				},
				{
					"indexed": false,
					"name": "price",
					"type": "uint256"
				},
				{
					"indexed": false,
					"name": "maxQuantity",
					"type": "uint256"
				}
			],
			"name": "AddERC20Token",
			"type": "event"
		},
		{
			"anonymous": false,
			"inputs": [
				{
					"indexed": true,
					"name": "tokenAddress",
					"type": "address"
				},
				{
					"indexed": false,
					"name": "price",
					"type": "uint256"
				}
			],
			"name": "SetPrice",
			"type": "event"
		},
		{
			"anonymous": false,
			"inputs": [
				{
					"indexed": true,
					"name": "tokenAddress",
					"type": "address"
				},
				{
					"indexed": false,
					"name": "maxQuantity",
					"type": "uint256"
				}
			],
			"name": "SetMaxQuantity",
			"type": "event"
		},
		{
			"anonymous": false,
			"inputs": [
				{
					"indexed": true,
					"name": "tokenAddress",
					"type": "address"
				},
				{
					"indexed": false,
					"name": "active",
					"type": "bool"
				}
			],
			"name": "SetActive",
			"type": "event"
		},
		{
			"anonymous": false,
			"inputs": [
				{
					"indexed": true,
					"name": "exchangeId",
					"type": "bytes32"
				},
				{
					"indexed": true,
					"name": "from",
					"type": "address"
				},
				{
					"indexed": false,
					"name": "tokenAddress",
					"type": "address"
				},
				{
					"indexed": false,
					"name": "tokenName",
					"type": "string"
				},
				{
					"indexed": false,
					"name": "tokenSymbol",
					"type": "string"
				},
				{
					"indexed": false,
					"name": "sentTokenAmount",
					"type": "uint256"
				},
				{
					"indexed": false,
					"name": "receivedAOETHAmount",
					"type": "uint256"
				},
				{
					"indexed": false,
					"name": "extraData",
					"type": "bytes"
				}
			],
			"name": "ExchangeToken",
			"type": "event"
		},
		{
			"anonymous": false,
			"inputs": [
				{
					"indexed": true,
					"name": "from",
					"type": "address"
				},
				{
					"indexed": true,
					"name": "to",
					"type": "address"
				},
				{
					"indexed": false,
					"name": "value",
					"type": "uint256"
				}
			],
			"name": "Transfer",
			"type": "event"
		},
		{
			"anonymous": false,
			"inputs": [
				{
					"indexed": true,
					"name": "_owner",
					"type": "address"
				},
				{
					"indexed": true,
					"name": "_spender",
					"type": "address"
				},
				{
					"indexed": false,
					"name": "_value",
					"type": "uint256"
				}
			],
			"name": "Approval",
			"type": "event"
		},
		{
			"anonymous": false,
			"inputs": [
				{
					"indexed": true,
					"name": "from",
					"type": "address"
				},
				{
					"indexed": false,
					"name": "value",
					"type": "uint256"
				}
			],
			"name": "Burn",
			"type": "event"
		},
		{
			"constant": false,
			"inputs": [
				{
					"name": "_theAO",
					"type": "address"
				}
			],
			"name": "transferOwnership",
			"outputs": [],
			"payable": false,
			"stateMutability": "nonpayable",
			"type": "function"
		},
		{
			"constant": false,
			"inputs": [
				{
					"name": "_account",
					"type": "address"
				},
				{
					"name": "_whitelist",
					"type": "bool"
				}
			],
			"name": "setWhitelist",
			"outputs": [],
			"payable": false,
			"stateMutability": "nonpayable",
			"type": "function"
		},
		{
			"constant": false,
			"inputs": [
				{
					"name": "_aoIonAddress",
					"type": "address"
				}
			],
			"name": "setAOIonAddress",
			"outputs": [],
			"payable": false,
			"stateMutability": "nonpayable",
			"type": "function"
		},
		{
			"constant": false,
			"inputs": [
				{
					"name": "_nameTAOPositionAddress",
					"type": "address"
				}
			],
			"name": "setNameTAOPositionAddress",
			"outputs": [],
			"payable": false,
			"stateMutability": "nonpayable",
			"type": "function"
		},
		{
			"constant": false,
			"inputs": [
				{
					"name": "_erc20TokenAddress",
					"type": "address"
				},
				{
					"name": "_recipient",
					"type": "address"
				},
				{
					"name": "_amount",
					"type": "uint256"
				}
			],
			"name": "transferERC20",
			"outputs": [],
			"payable": false,
			"stateMutability": "nonpayable",
			"type": "function"
		},
		{
			"constant": false,
			"inputs": [
				{
					"name": "_tokenAddress",
					"type": "address"
				},
				{
					"name": "_price",
					"type": "uint256"
				},
				{
					"name": "_maxQuantity",
					"type": "uint256"
				}
			],
			"name": "addERC20Token",
			"outputs": [],
			"payable": false,
			"stateMutability": "nonpayable",
			"type": "function"
		},
		{
			"constant": false,
			"inputs": [
				{
					"name": "_tokenAddress",
					"type": "address"
				},
				{
					"name": "_price",
					"type": "uint256"
				}
			],
			"name": "setPrice",
			"outputs": [],
			"payable": false,
			"stateMutability": "nonpayable",
			"type": "function"
		},
		{
			"constant": false,
			"inputs": [
				{
					"name": "_tokenAddress",
					"type": "address"
				},
				{
					"name": "_maxQuantity",
					"type": "uint256"
				}
			],
			"name": "setMaxQuantity",
			"outputs": [],
			"payable": false,
			"stateMutability": "nonpayable",
			"type": "function"
		},
		{
			"constant": false,
			"inputs": [
				{
					"name": "_tokenAddress",
					"type": "address"
				},
				{
					"name": "_active",
					"type": "bool"
				}
			],
			"name": "setActive",
			"outputs": [],
			"payable": false,
			"stateMutability": "nonpayable",
			"type": "function"
		},
		{
			"constant": false,
			"inputs": [
				{
					"name": "_from",
					"type": "address"
				},
				{
					"name": "_to",
					"type": "address"
				},
				{
					"name": "_value",
					"type": "uint256"
				}
			],
			"name": "whitelistTransferFrom",
			"outputs": [
				{
					"name": "success",
					"type": "bool"
				}
			],
			"payable": false,
			"stateMutability": "nonpayable",
			"type": "function"
		},
		{
			"constant": true,
			"inputs": [
				{
					"name": "_id",
					"type": "uint256"
				}
			],
			"name": "getById",
			"outputs": [
				{
					"name": "",
					"type": "address"
				},
				{
					"name": "",
					"type": "string"
				},
				{
					"name": "",
					"type": "string"
				},
				{
					"name": "",
					"type": "uint256"
				},
				{
					"name": "",
					"type": "uint256"
				},
				{
					"name": "",
					"type": "uint256"
				},
				{
					"name": "",
					"type": "bool"
				}
			],
			"payable": false,
			"stateMutability": "view",
			"type": "function"
		},
		{
			"constant": true,
			"inputs": [
				{
					"name": "_tokenAddress",
					"type": "address"
				}
			],
			"name": "getByAddress",
			"outputs": [
				{
					"name": "",
					"type": "address"
				},
				{
					"name": "",
					"type": "string"
				},
				{
					"name": "",
					"type": "string"
				},
				{
					"name": "",
					"type": "uint256"
				},
				{
					"name": "",
					"type": "uint256"
				},
				{
					"name": "",
					"type": "uint256"
				},
				{
					"name": "",
					"type": "bool"
				}
			],
			"payable": false,
			"stateMutability": "view",
			"type": "function"
		},
		{
			"constant": false,
			"inputs": [
				{
					"name": "_from",
					"type": "address"
				},
				{
					"name": "_value",
					"type": "uint256"
				},
				{
					"name": "_token",
					"type": "address"
				},
				{
					"name": "_extraData",
					"type": "bytes"
				}
			],
			"name": "receiveApproval",
			"outputs": [],
			"payable": false,
			"stateMutability": "nonpayable",
			"type": "function"
		},
		{
			"constant": true,
			"inputs": [
				{
					"name": "_exchangeId",
					"type": "bytes32"
				}
			],
			"name": "getTokenExchangeById",
			"outputs": [
				{
					"name": "",
					"type": "address"
				},
				{
					"name": "",
					"type": "address"
				},
				{
					"name": "",
					"type": "string"
				},
				{
					"name": "",
					"type": "string"
				},
				{
					"name": "",
					"type": "uint256"
				},
				{
					"name": "",
					"type": "uint256"
				},
				{
					"name": "",
					"type": "uint256"
				},
				{
					"name": "",
					"type": "bytes"
				}
			],
			"payable": false,
			"stateMutability": "view",
			"type": "function"
		}
	],
	"bytecode": "0x60806040526005805460ff191660121790553480156200001e57600080fd5b5060405162002df138038062002df18339810160409081528151602080840151838501516060860151608087015160008054600160a060020a03191633908117825560055460ff16600a0a88026006819055908252600787529790209690965591860180519496909591019391929091869186918691620000a591600391850190620002f8565b508051620000bb906004906020840190620002f8565b50505050620000d982620000f8640100000000026401000000009004565b620000ed81640100000000620001fd810204565b50505050506200039d565b600054600154604080517ff66afcac000000000000000000000000000000000000000000000000000000008152336004820152600160a060020a0393841660248201529290911660448301525173__AOLibrary_____________________________9163f66afcac916064808301926020929190829003018186803b1580156200018157600080fd5b505af415801562000196573d6000803e3d6000fd5b505050506040513d6020811015620001ad57600080fd5b50511515620001bb57600080fd5b600160a060020a0381161515620001d157600080fd5b60098054600160a060020a03909216600160a060020a03199283168117909155600a8054909216179055565b600054600154604080517ff66afcac000000000000000000000000000000000000000000000000000000008152336004820152600160a060020a0393841660248201529290911660448301525173__AOLibrary_____________________________9163f66afcac916064808301926020929190829003018186803b1580156200028657600080fd5b505af41580156200029b573d6000803e3d6000fd5b505050506040513d6020811015620002b257600080fd5b50511515620002c057600080fd5b600160a060020a0381161515620002d657600080fd5b60018054600160a060020a031916600160a060020a0392909216919091179055565b828054600181600116156101000203166002900490600052602060002090601f016020900481019282601f106200033b57805160ff19168380011785556200036b565b828001600101855582156200036b579182015b828111156200036b5782518255916020019190600101906200034e565b50620003799291506200037d565b5090565b6200039a91905b8082111562000379576000815560010162000384565b90565b612a4480620003ad6000396000f3006080604052600436106101865763ffffffff60e060020a600035041662e4768b811461018b57806306fdde03146101b1578063095ea7b31461023b57806318160ddd1461027357806323b872dd1461029a5780632b376fa5146102c45780632ce962cf146102e557806330257bf71461030b578063313ce567146104435780633c56b0111461046e57806342966c681461049f5780634ef033f0146104b757806353d6fd59146104cc5780635cfaf2ef146104f25780636fe1b3331461051357806370a082311461052857806379cc679014610549578063880040221461056d5780638f4ffcb11461059457806395d89b41146105cc57806399b3b8b0146105e15780639b19251a146106055780639db5dbe414610626578063a144a3e014610650578063a9059cbb1461067a578063a9b6b38e1461069e578063cae9ca51146106b3578063dd62ed3e1461071c578063e052571a14610743578063f2fde38b14610758578063f4f4d23714610779578063f97106b514610791578063fe052cb4146107b2575b600080fd5b34801561019757600080fd5b506101af600160a060020a0360043516602435610955565b005b3480156101bd57600080fd5b506101c6610a99565b6040805160208082528351818301528351919283929083019185019080838360005b838110156102005781810151838201526020016101e8565b50505050905090810190601f16801561022d5780820380516001836020036101000a031916815260200191505b509250505060405180910390f35b34801561024757600080fd5b5061025f600160a060020a0360043516602435610b27565b604080519115158252519081900360200190f35b34801561027f57600080fd5b50610288610b8d565b60408051918252519081900360200190f35b3480156102a657600080fd5b5061025f600160a060020a0360043581169060243516604435610b93565b3480156102d057600080fd5b50610288600160a060020a0360043516610c02565b3480156102f157600080fd5b506101af600160a060020a03600435166024351515610c14565b34801561031757600080fd5b5061032c600160a060020a0360043516610d5f565b6040518088600160a060020a0316600160a060020a03168152602001806020018060200187815260200186815260200185815260200184151515158152602001838103835289818151815260200191508051906020019080838360005b838110156103a1578181015183820152602001610389565b50505050905090810190601f1680156103ce5780820380516001836020036101000a031916815260200191505b5083810382528851815288516020918201918a019080838360005b838110156104015781810151838201526020016103e9565b50505050905090810190601f16801561042e5780820380516001836020036101000a031916815260200191505b50995050505050505050505060405180910390f35b34801561044f57600080fd5b50610458610dc9565b6040805160ff9092168252519081900360200190f35b34801561047a57600080fd5b50610483610dd2565b60408051600160a060020a039092168252519081900360200190f35b3480156104ab57600080fd5b5061025f600435610de1565b3480156104c357600080fd5b50610483610e59565b3480156104d857600080fd5b506101af600160a060020a03600435166024351515610e68565b3480156104fe57600080fd5b506101af600160a060020a0360043516610f51565b34801561051f57600080fd5b5061028861103e565b34801561053457600080fd5b50610288600160a060020a0360043516611044565b34801561055557600080fd5b5061025f600160a060020a0360043516602435611056565b34801561057957600080fd5b506101af600160a060020a0360043516602435604435611127565b3480156105a057600080fd5b506101af60048035600160a060020a039081169160248035926044351691606435918201910135611383565b3480156105d857600080fd5b506101c6611bc6565b3480156105ed57600080fd5b506101af600160a060020a0360043516602435611c21565b34801561061157600080fd5b5061025f600160a060020a0360043516611d71565b34801561063257600080fd5b506101af600160a060020a0360043581169060243516604435611d86565b34801561065c57600080fd5b5061025f600160a060020a0360043581169060243516604435611eda565b34801561068657600080fd5b5061025f600160a060020a0360043516602435611f06565b3480156106aa57600080fd5b50610483611f1c565b3480156106bf57600080fd5b50604080516020600460443581810135601f810184900484028501840190955284845261025f948235600160a060020a0316946024803595369594606494920191908190840183828082843750949750611f2b9650505050505050565b34801561072857600080fd5b50610288600160a060020a0360043581169060243516612044565b34801561074f57600080fd5b50610288612061565b34801561076457600080fd5b506101af600160a060020a0360043516612067565b34801561078557600080fd5b5061032c600435612154565b34801561079d57600080fd5b506101af600160a060020a03600435166123b6565b3480156107be57600080fd5b506107ca6004356124ad565b6040518089600160a060020a0316600160a060020a0316815260200188600160a060020a0316600160a060020a0316815260200180602001806020018781526020018681526020018581526020018060200184810384528a818151815260200191508051906020019080838360005b83811015610851578181015183820152602001610839565b50505050905090810190601f16801561087e5780820380516001836020036101000a031916815260200191505b5084810383528951815289516020918201918b019080838360005b838110156108b1578181015183820152602001610899565b50505050905090810190601f1680156108de5780820380516001836020036101000a031916815260200191505b50848103825285518152855160209182019187019080838360005b838110156109115781810151838201526020016108f9565b50505050905090810190601f16801561093e5780820380516001836020036101000a031916815260200191505b509b50505050505050505050505060405180910390f35b600080546001546040805160e260020a633d9abf2b028152336004820152600160a060020a0393841660248201529290911660448301525173__AOLibrary_____________________________9163f66afcac916064808301926020929190829003018186803b1580156109c857600080fd5b505af41580156109dc573d6000803e3d6000fd5b505050506040513d60208110156109f257600080fd5b505115156109ff57600080fd5b600160a060020a0383166000908152600e602052604081205411610a2257600080fd5b60008211610a2f57600080fd5b50600160a060020a038083166000908152600e60209081526040808320548352600d82529182902060018101859055805483518681529351919416927f95dce27040c59c8b1c445b284f81a3aaae6eecd7d08d5c7684faee64cdb514a192908290030190a2505050565b6003805460408051602060026001851615610100026000190190941693909304601f81018490048402820184019092528181529291830182828015610b1f5780601f10610af457610100808354040283529160200191610b1f565b820191906000526020600020905b815481529060010190602001808311610b0257829003601f168201915b505050505081565b336000818152600860209081526040808320600160a060020a038716808552908352818420869055815186815291519394909390927f8c5be1e5ebec7d5bd14f71427d1e84f3dd0314c0f7b2291e5b200ac8c7c3b925928290030190a350600192915050565b60065481565b600160a060020a0383166000908152600860209081526040808320338452909152812054821115610bc357600080fd5b600160a060020a0384166000908152600860209081526040808320338452909152902080548390039055610bf88484846127b4565b5060019392505050565b60116020526000908152604090205481565b600080546001546040805160e260020a633d9abf2b028152336004820152600160a060020a0393841660248201529290911660448301525173__AOLibrary_____________________________9163f66afcac916064808301926020929190829003018186803b158015610c8757600080fd5b505af4158015610c9b573d6000803e3d6000fd5b505050506040513d6020811015610cb157600080fd5b50511515610cbe57600080fd5b600160a060020a0383166000908152600e602052604081205411610ce157600080fd5b50600160a060020a038281166000908152600e60209081526040808320548352600d82529182902060048101805460ff191686151517908190558154845160ff909216151582529351919493909316927fcffe4dbbb5826fcea2505272feb0965988b63cea566c7936179fd30ecbc26cf992908290030190a2505050565b600160a060020a0381166000908152600e6020526040812054606090819083908190819081908110610d9057600080fd5b600160a060020a0388166000908152600e6020526040902054610db290612154565b959e949d50929b5090995097509550909350915050565b60055460ff1681565b600954600160a060020a031681565b33600090815260076020526040812054821115610dfd57600080fd5b3360008181526007602090815260409182902080548690039055600680548690039055815185815291517fcc16f5dbb4873280815c1ee09dbd06736cffcc184412cf7a71a0fdb75d397ca59281900390910190a2506001919050565b600154600160a060020a031681565b6000546001546040805160e260020a633d9abf2b028152336004820152600160a060020a0393841660248201529290911660448301525173__AOLibrary_____________________________9163f66afcac916064808301926020929190829003018186803b158015610eda57600080fd5b505af4158015610eee573d6000803e3d6000fd5b505050506040513d6020811015610f0457600080fd5b50511515610f1157600080fd5b600160a060020a0382161515610f2657600080fd5b600160a060020a03919091166000908152600260205260409020805460ff1916911515919091179055565b6000546001546040805160e260020a633d9abf2b028152336004820152600160a060020a0393841660248201529290911660448301525173__AOLibrary_____________________________9163f66afcac916064808301926020929190829003018186803b158015610fc357600080fd5b505af4158015610fd7573d6000803e3d6000fd5b505050506040513d6020811015610fed57600080fd5b50511515610ffa57600080fd5b600160a060020a038116151561100f57600080fd5b6001805473ffffffffffffffffffffffffffffffffffffffff1916600160a060020a0392909216919091179055565b600b5481565b60076020526000908152604090205481565b600160a060020a03821660009081526007602052604081205482111561107b57600080fd5b600160a060020a03831660009081526008602090815260408083203384529091529020548211156110ab57600080fd5b600160a060020a0383166000818152600760209081526040808320805487900390556008825280832033845282529182902080548690039055600680548690039055815185815291517fcc16f5dbb4873280815c1ee09dbd06736cffcc184412cf7a71a0fdb75d397ca59281900390910190a250600192915050565b600080546001546040805160e260020a633d9abf2b028152336004820152600160a060020a0393841660248201529290911660448301525173__AOLibrary_____________________________9163f66afcac916064808301926020929190829003018186803b15801561119a57600080fd5b505af41580156111ae573d6000803e3d6000fd5b505050506040513d60208110156111c457600080fd5b505115156111d157600080fd5b600160a060020a038416158015906111e95750600083115b80156111f55750600082115b151561120057600080fd5b604080517f2b439a94000000000000000000000000000000000000000000000000000000008152600160a060020a0386166004820152905173__AOLibrary_____________________________91632b439a94916024808301926020929190829003018186803b15801561127357600080fd5b505af4158015611287573d6000803e3d6000fd5b505050506040513d602081101561129d57600080fd5b505115156112aa57600080fd5b600160a060020a0384166000908152600e6020526040902054156112cd57600080fd5b50600b8054600190810191829055600160a060020a038086166000818152600e60209081526040808320879055958252600d815290859020805473ffffffffffffffffffffffffffffffffffffffff19169092178083558285018890556002830187905560048301805460ff191690951790945584518781529081018690528451919493909216927f0a5340431ac1bf5f1b6a1197ddc2a362b7c4be9a9a09018ed7d83596f5b9df58928290030190a250505050565b6000808080600160a060020a038916151561139d57600080fd5b604080517f2b439a94000000000000000000000000000000000000000000000000000000008152600160a060020a0389166004820152905173__AOLibrary_____________________________91632b439a94916024808301926020929190829003018186803b15801561141057600080fd5b505af4158015611424573d6000803e3d6000fd5b505050506040513d602081101561143a57600080fd5b5051151561144757600080fd5b600160a060020a0387166000908152600e60205260408120541161146a57600080fd5b600160a060020a0387166000908152600e60209081526040808320548352600d9091529020600481015490945060ff1680156114aa575060008460010154115b80156114bd575083600201548460030154105b15156114c857600080fd5b60018401546114de90899063ffffffff6128b516565b9250826114fc856003015486600201546128ca90919063ffffffff16565b101561150757600080fd5b600a54604080517ffb6ff16100000000000000000000000000000000000000000000000000000000815290518592600160a060020a03169163fb6ff1619160048083019260209291908290030181600087803b15801561156657600080fd5b505af115801561157a573d6000803e3d6000fd5b505050506040513d602081101561159057600080fd5b5051101561159d57600080fd5b604080517f23b872dd000000000000000000000000000000000000000000000000000000008152600160a060020a038b81166004830152306024830152604482018b90529151918916916323b872dd916064808201926020929091908290030181600087803b15801561160f57600080fd5b505af1158015611623573d6000803e3d6000fd5b505050506040513d602081101561163957600080fd5b5051151561164657600080fd5b600384015461165b908463ffffffff6128dc16565b6003850155600160a060020a038916600090815260076020526040902054611689908463ffffffff6128dc16565b600160a060020a038a166000908152600760205260409020556006546116b5908463ffffffff6128dc16565b600655600c805460019081018255600160a060020a038b166000818152601160209081526040918290208054909401909355925483516c010000000000000000000000003081028286015290920260348301526048808301919091528351808303909101815260689091019283905280519092918291908401908083835b602083106117525780518252601f199092019160209182019101611733565b6001836020036101000a03801982511681845116808217855250505050505090500191505060405180910390209150600c5460106000846000191660001916815260200190815260200160002081905550600f6000600c548152602001908152602001600020905081816000018160001916905550888160010160006101000a815481600160a060020a030219169083600160a060020a03160217905550868160020160006101000a815481600160a060020a030219169083600160a060020a0316021790555083600101548160030181905550878160040181905550828160050181905550858582600601919061184b9291906128ef565b50600181015481546002830154604080517f06fdde030000000000000000000000000000000000000000000000000000000081529051600160a060020a03948516947fca687dc8d756a0b92f40bdb8ffd02f4ab4b3a7c00e7d57ab5f2dc8cc5aa8bb1493811692908d16916306fdde039160048082019260009290919082900301818387803b1580156118dd57600080fd5b505af11580156118f1573d6000803e3d6000fd5b505050506040513d6000823e601f3d908101601f19168201604052602081101561191a57600080fd5b81019080805164010000000081111561193257600080fd5b8201602081018481111561194557600080fd5b815164010000000081118282018710171561195f57600080fd5b50509291905050508b600160a060020a03166395d89b416040518163ffffffff1660e060020a028152600401600060405180830381600087803b1580156119a557600080fd5b505af11580156119b9573d6000803e3d6000fd5b505050506040513d6000823e601f3d908101601f1916820160405260208110156119e257600080fd5b8101908080516401000000008111156119fa57600080fd5b82016020810184811115611a0d57600080fd5b8151640100000000811182820187101715611a2757600080fd5b505092919050505086600401548760050154886006016040518087600160a060020a0316600160a060020a03168152602001806020018060200186815260200185815260200180602001848103845289818151815260200191508051906020019080838360005b83811015611aa6578181015183820152602001611a8e565b50505050905090810190601f168015611ad35780820380516001836020036101000a031916815260200191505b5084810383528851815288516020918201918a019080838360005b83811015611b06578181015183820152602001611aee565b50505050905090810190601f168015611b335780820380516001836020036101000a031916815260200191505b50848103825285546002600019610100600184161502019091160480825260209091019086908015611ba65780601f10611b7b57610100808354040283529160200191611ba6565b820191906000526020600020905b815481529060010190602001808311611b8957829003601f168201915b5050995050505050505050505060405180910390a3505050505050505050565b6004805460408051602060026001851615610100026000190190941693909304601f81018490048402820184019092528181529291830182828015610b1f5780601f10610af457610100808354040283529160200191610b1f565b600080546001546040805160e260020a633d9abf2b028152336004820152600160a060020a0393841660248201529290911660448301525173__AOLibrary_____________________________9163f66afcac916064808301926020929190829003018186803b158015611c9457600080fd5b505af4158015611ca8573d6000803e3d6000fd5b505050506040513d6020811015611cbe57600080fd5b50511515611ccb57600080fd5b600160a060020a0383166000908152600e602052604081205411611cee57600080fd5b50600160a060020a0382166000908152600e60209081526040808320548352600d909152902060038101548211611d2457600080fd5b600281018290558054604080518481529051600160a060020a03909216917f104b11bce76a76d2ca69540c5831aac430a4dba8d5a7a7818aa12ef6c328657d9181900360200190a2505050565b60026020526000908152604090205460ff1681565b600080546001546040805160e260020a633d9abf2b028152336004820152600160a060020a0393841660248201529290911660448301525173__AOLibrary_____________________________9163f66afcac916064808301926020929190829003018186803b158015611df957600080fd5b505af4158015611e0d573d6000803e3d6000fd5b505050506040513d6020811015611e2357600080fd5b50511515611e3057600080fd5b50604080517fa9059cbb000000000000000000000000000000000000000000000000000000008152600160a060020a038481166004830152602482018490529151859283169163a9059cbb9160448083019260209291908290030181600087803b158015611e9d57600080fd5b505af1158015611eb1573d6000803e3d6000fd5b505050506040513d6020811015611ec757600080fd5b50511515611ed457600080fd5b50505050565b3360009081526002602052604081205460ff161515600114611efb57600080fd5b610bf88484846127b4565b6000611f133384846127b4565b50600192915050565b600054600160a060020a031681565b600083611f388185610b27565b1561203c576040517f8f4ffcb10000000000000000000000000000000000000000000000000000000081523360048201818152602483018790523060448401819052608060648501908152875160848601528751600160a060020a03871695638f4ffcb195948b94938b939192909160a490910190602085019080838360005b83811015611fd0578181015183820152602001611fb8565b50505050905090810190601f168015611ffd5780820380516001836020036101000a031916815260200191505b5095505050505050600060405180830381600087803b15801561201f57600080fd5b505af1158015612033573d6000803e3d6000fd5b50505050600191505b509392505050565b600860209081526000928352604080842090915290825290205481565b600c5481565b6000546001546040805160e260020a633d9abf2b028152336004820152600160a060020a0393841660248201529290911660448301525173__AOLibrary_____________________________9163f66afcac916064808301926020929190829003018186803b1580156120d957600080fd5b505af41580156120ed573d6000803e3d6000fd5b505050506040513d602081101561210357600080fd5b5051151561211057600080fd5b600160a060020a038116151561212557600080fd5b6000805473ffffffffffffffffffffffffffffffffffffffff1916600160a060020a0392909216919091179055565b600060608060008060008061216761296d565b6000898152600d6020526040902054600160a060020a0316151561218a57600080fd5b506000888152600d60209081526040808320815160a0810183528154600160a060020a03168082526001830154948201949094526002820154818401526003820154606082015260049182015460ff161515608082015282517f06fdde030000000000000000000000000000000000000000000000000000000081529251909484936306fdde0393818101939182900301818387803b15801561222c57600080fd5b505af1158015612240573d6000803e3d6000fd5b505050506040513d6000823e601f3d908101601f19168201604052602081101561226957600080fd5b81019080805164010000000081111561228157600080fd5b8201602081018481111561229457600080fd5b81516401000000008111828201871017156122ae57600080fd5b50509291905050508260000151600160a060020a03166395d89b416040518163ffffffff1660e060020a028152600401600060405180830381600087803b1580156122f857600080fd5b505af115801561230c573d6000803e3d6000fd5b505050506040513d6000823e601f3d908101601f19168201604052602081101561233557600080fd5b81019080805164010000000081111561234d57600080fd5b8201602081018481111561236057600080fd5b815164010000000081118282018710171561237a57600080fd5b50509291905050508360200151846040015185606001518660800151859550849450975097509750975097509750975050919395979092949650565b6000546001546040805160e260020a633d9abf2b028152336004820152600160a060020a0393841660248201529290911660448301525173__AOLibrary_____________________________9163f66afcac916064808301926020929190829003018186803b15801561242857600080fd5b505af415801561243c573d6000803e3d6000fd5b505050506040513d602081101561245257600080fd5b5051151561245f57600080fd5b600160a060020a038116151561247457600080fd5b60098054600160a060020a0390921673ffffffffffffffffffffffffffffffffffffffff199283168117909155600a8054909216179055565b600080606080600080600060606124c26129a8565b60008a815260106020526040812054116124db57600080fd5b60008a8152601060209081526040808320548352600f825291829020825160e08101845281548152600180830154600160a060020a0390811683860152600280850154909116838701526003840154606084015260048401546080840152600584015460a08401526006840180548751601f948216156101000260001901909116929092049283018690048602820186019096528181529194929360c086019391908301828280156125ce5780601f106125a3576101008083540402835291602001916125ce565b820191906000526020600020905b8154815290600101906020018083116125b157829003601f168201915b5050505050815250509050806020015181604001518260400151600160a060020a03166306fdde036040518163ffffffff1660e060020a028152600401600060405180830381600087803b15801561262557600080fd5b505af1158015612639573d6000803e3d6000fd5b505050506040513d6000823e601f3d908101601f19168201604052602081101561266257600080fd5b81019080805164010000000081111561267a57600080fd5b8201602081018481111561268d57600080fd5b81516401000000008111828201871017156126a757600080fd5b50509291905050508360400151600160a060020a03166395d89b416040518163ffffffff1660e060020a028152600401600060405180830381600087803b1580156126f157600080fd5b505af1158015612705573d6000803e3d6000fd5b505050506040513d6000823e601f3d908101601f19168201604052602081101561272e57600080fd5b81019080805164010000000081111561274657600080fd5b8201602081018481111561275957600080fd5b815164010000000081118282018710171561277357600080fd5b5050929190505050846060015185608001518660a001518760c001518595508494508090509850985098509850985098509850985050919395975091939597565b6000600160a060020a03831615156127cb57600080fd5b600160a060020a0384166000908152600760205260409020548211156127f057600080fd5b600160a060020a0383166000908152600760205260409020548281011161281657600080fd5b50600160a060020a038083166000818152600760209081526040808320805495891680855282852080548981039091559486905281548801909155815187815291519390950194927fddf252ad1be2c89b69c2b068fc378daa952ba7f163c4a11628f55a4df523b3ef929181900390910190a3600160a060020a03808416600090815260076020526040808220549287168252902054018114611ed457fe5b600081838115156128c257fe5b049392505050565b6000828211156128d657fe5b50900390565b818101828110156128e957fe5b92915050565b828054600181600116156101000203166002900490600052602060002090601f016020900481019282601f106129305782800160ff1982351617855561295d565b8280016001018555821561295d579182015b8281111561295d578235825591602001919060010190612942565b506129699291506129fb565b5090565b60a0604051908101604052806000600160a060020a031681526020016000815260200160008152602001600081526020016000151581525090565b60e060405190810160405280600080191681526020016000600160a060020a031681526020016000600160a060020a03168152602001600081526020016000815260200160008152602001606081525090565b612a1591905b808211156129695760008155600101612a01565b905600a165627a7a72305820e5ed02a34aa2e5815489300aba887f30b2daa3e05aaee9895def203e76a1a6520029",
	"source": "pragma solidity ^0.4.24;\n\nimport './SafeMath.sol';\nimport './AOLibrary.sol';\nimport './TheAO.sol';\nimport './TokenERC20.sol';\nimport './tokenRecipient.sol';\nimport './AOIon.sol';\n\n/**\n * @title AOETH\n */\ncontract AOETH is TheAO, TokenERC20, tokenRecipient {\n\tusing SafeMath for uint256;\n\n\taddress public aoIonAddress;\n\n\tAOIon internal _aoIon;\n\n\tuint256 public totalERC20Tokens;\n\tuint256 public totalTokenExchanges;\n\n\tstruct ERC20Token {\n\t\taddress tokenAddress;\n\t\tuint256 price;\t\t\t// price of this ERC20 Token to AOETH\n\t\tuint256 maxQuantity;\t// To prevent too much exposure to a given asset\n\t\tuint256 exchangedQuantity;\t// Running total (total AOETH exchanged from this specific ERC20 Token)\n\t\tbool active;\n\t}\n\n\tstruct TokenExchange {\n\t\tbytes32 exchangeId;\n\t\taddress buyer;\t\t\t// The buyer address\n\t\taddress tokenAddress;\t// The address of ERC20 Token\n\t\tuint256 price;\t\t\t// price of ERC20 Token to AOETH\n\t\tuint256 sentAmount;\t\t// Amount of ERC20 Token sent\n\t\tuint256 receivedAmount;\t// Amount of AOETH received\n\t\tbytes extraData; // Extra data\n\t}\n\n\t// Mapping from id to ERC20Token object\n\tmapping (uint256 => ERC20Token) internal erc20Tokens;\n\tmapping (address => uint256) internal erc20TokenIdLookup;\n\n\t// Mapping from id to TokenExchange object\n\tmapping (uint256 => TokenExchange) internal tokenExchanges;\n\tmapping (bytes32 => uint256) internal tokenExchangeIdLookup;\n\tmapping (address => uint256) public totalAddressTokenExchanges;\n\n\t// Event to be broadcasted to public when TheAO adds an ERC20 Token\n\tevent AddERC20Token(address indexed tokenAddress, uint256 price, uint256 maxQuantity);\n\n\t// Event to be broadcasted to public when TheAO sets price for ERC20 Token\n\tevent SetPrice(address indexed tokenAddress, uint256 price);\n\n\t// Event to be broadcasted to public when TheAO sets max quantity for ERC20 Token\n\tevent SetMaxQuantity(address indexed tokenAddress, uint256 maxQuantity);\n\n\t// Event to be broadcasted to public when TheAO sets active status for ERC20 Token\n\tevent SetActive(address indexed tokenAddress, bool active);\n\n\t// Event to be broadcasted to public when user exchanges ERC20 Token for AOETH\n\tevent ExchangeToken(bytes32 indexed exchangeId, address indexed from, address tokenAddress, string tokenName, string tokenSymbol, uint256 sentTokenAmount, uint256 receivedAOETHAmount, bytes extraData);\n\n\t/**\n\t * @dev Constructor function\n\t */\n\tconstructor(uint256 initialSupply, string tokenName, string tokenSymbol, address _aoIonAddress, address _nameTAOPositionAddress)\n\t\tTokenERC20(initialSupply, tokenName, tokenSymbol) public {\n\t\tsetAOIonAddress(_aoIonAddress);\n\t\tsetNameTAOPositionAddress(_nameTAOPositionAddress);\n\t}\n\n\t/**\n\t * @dev Checks if the calling contract address is The AO\n\t *\t\tOR\n\t *\t\tIf The AO is set to a Name/TAO, then check if calling address is the Advocate\n\t */\n\tmodifier onlyTheAO {\n\t\trequire (AOLibrary.isTheAO(msg.sender, theAO, nameTAOPositionAddress));\n\t\t_;\n\t}\n\n\t/***** The AO ONLY METHODS *****/\n\t/**\n\t * @dev Transfer ownership of The AO to new address\n\t * @param _theAO The new address to be transferred\n\t */\n\tfunction transferOwnership(address _theAO) public onlyTheAO {\n\t\trequire (_theAO != address(0));\n\t\ttheAO = _theAO;\n\t}\n\n\t/**\n\t * @dev Whitelist `_account` address to transact on behalf of others\n\t * @param _account The address to whitelist\n\t * @param _whitelist Either to whitelist or not\n\t */\n\tfunction setWhitelist(address _account, bool _whitelist) public onlyTheAO {\n\t\trequire (_account != address(0));\n\t\twhitelist[_account] = _whitelist;\n\t}\n\n\t/**\n\t * @dev The AO set the AOIon Address\n\t * @param _aoIonAddress The address of AOIon\n\t */\n\tfunction setAOIonAddress(address _aoIonAddress) public onlyTheAO {\n\t\trequire (_aoIonAddress != address(0));\n\t\taoIonAddress = _aoIonAddress;\n\t\t_aoIon = AOIon(_aoIonAddress);\n\t}\n\n\t/**\n\t * @dev The AO set the NameTAOPosition Address\n\t * @param _nameTAOPositionAddress The address of NameTAOPosition\n\t */\n\tfunction setNameTAOPositionAddress(address _nameTAOPositionAddress) public onlyTheAO {\n\t\trequire (_nameTAOPositionAddress != address(0));\n\t\tnameTAOPositionAddress = _nameTAOPositionAddress;\n\t}\n\n\t/**\n\t * @dev Allows TheAO to transfer `_amount` of ERC20 Token from this address to `_recipient`\n\t * @param _erc20TokenAddress The address of ERC20 Token\n\t * @param _recipient The recipient address\n\t * @param _amount The amount to transfer\n\t */\n\tfunction transferERC20(address _erc20TokenAddress, address _recipient, uint256 _amount) public onlyTheAO {\n\t\tTokenERC20 _erc20 = TokenERC20(_erc20TokenAddress);\n\t\trequire (_erc20.transfer(_recipient, _amount));\n\t}\n\n\t/**\n\t * @dev Add an ERC20 Token to the list\n\t * @param _tokenAddress The address of the ERC20 Token\n\t * @param _price The price of this token to AOETH\n\t * @param _maxQuantity Maximum quantity allowed for exchange\n\t */\n\tfunction addERC20Token(address _tokenAddress, uint256 _price, uint256 _maxQuantity) public onlyTheAO {\n\t\trequire (_tokenAddress != address(0) && _price > 0 && _maxQuantity > 0);\n\t\trequire (AOLibrary.isValidERC20TokenAddress(_tokenAddress));\n\t\trequire (erc20TokenIdLookup[_tokenAddress] == 0);\n\n\t\ttotalERC20Tokens++;\n\t\terc20TokenIdLookup[_tokenAddress] = totalERC20Tokens;\n\t\tERC20Token storage _erc20Token = erc20Tokens[totalERC20Tokens];\n\t\t_erc20Token.tokenAddress = _tokenAddress;\n\t\t_erc20Token.price = _price;\n\t\t_erc20Token.maxQuantity = _maxQuantity;\n\t\t_erc20Token.active = true;\n\t\temit AddERC20Token(_erc20Token.tokenAddress, _erc20Token.price, _erc20Token.maxQuantity);\n\t}\n\n\t/**\n\t * @dev Set price for existing ERC20 Token\n\t * @param _tokenAddress The address of the ERC20 Token\n\t * @param _price The price of this token to AOETH\n\t */\n\tfunction setPrice(address _tokenAddress, uint256 _price) public onlyTheAO {\n\t\trequire (erc20TokenIdLookup[_tokenAddress] > 0);\n\t\trequire (_price > 0);\n\n\t\tERC20Token storage _erc20Token = erc20Tokens[erc20TokenIdLookup[_tokenAddress]];\n\t\t_erc20Token.price = _price;\n\t\temit SetPrice(_erc20Token.tokenAddress, _erc20Token.price);\n\t}\n\n\t/**\n\t * @dev Set max quantity for existing ERC20 Token\n\t * @param _tokenAddress The address of the ERC20 Token\n\t * @param _maxQuantity The max exchange quantity for this token\n\t */\n\tfunction setMaxQuantity(address _tokenAddress, uint256 _maxQuantity) public onlyTheAO {\n\t\trequire (erc20TokenIdLookup[_tokenAddress] > 0);\n\n\t\tERC20Token storage _erc20Token = erc20Tokens[erc20TokenIdLookup[_tokenAddress]];\n\t\trequire (_maxQuantity > _erc20Token.exchangedQuantity);\n\t\t_erc20Token.maxQuantity = _maxQuantity;\n\t\temit SetMaxQuantity(_erc20Token.tokenAddress, _erc20Token.maxQuantity);\n\t}\n\n\t/**\n\t * @dev Set active status for existing ERC20 Token\n\t * @param _tokenAddress The address of the ERC20 Token\n\t * @param _active The active status for this token\n\t */\n\tfunction setActive(address _tokenAddress, bool _active) public onlyTheAO {\n\t\trequire (erc20TokenIdLookup[_tokenAddress] > 0);\n\n\t\tERC20Token storage _erc20Token = erc20Tokens[erc20TokenIdLookup[_tokenAddress]];\n\t\t_erc20Token.active = _active;\n\t\temit SetActive(_erc20Token.tokenAddress, _erc20Token.active);\n\t}\n\n\t/**\n\t * @dev Whitelisted address transfer tokens from other address\n\t *\n\t * Send `_value` tokens to `_to` on behalf of `_from`\n\t *\n\t * @param _from The address of the sender\n\t * @param _to The address of the recipient\n\t * @param _value the amount to send\n\t */\n\tfunction whitelistTransferFrom(address _from, address _to, uint256 _value) public inWhitelist returns (bool success) {\n\t\t_transfer(_from, _to, _value);\n\t\treturn true;\n\t}\n\n\t/***** PUBLIC METHODS *****/\n\t/**\n\t * @dev Get an ERC20 Token information given an ID\n\t * @param _id The internal ID of the ERC20 Token\n\t * @return The ERC20 Token address\n\t * @return The name of the token\n\t * @return The symbol of the token\n\t * @return The price of this token to AOETH\n\t * @return The max quantity for exchange\n\t * @return The total AOETH exchanged from this token\n\t * @return The status of this token\n\t */\n\tfunction getById(uint256 _id) public view returns (address, string, string, uint256, uint256, uint256, bool) {\n\t\trequire (erc20Tokens[_id].tokenAddress != address(0));\n\t\tERC20Token memory _erc20Token = erc20Tokens[_id];\n\t\treturn (\n\t\t\t_erc20Token.tokenAddress,\n\t\t\tTokenERC20(_erc20Token.tokenAddress).name(),\n\t\t\tTokenERC20(_erc20Token.tokenAddress).symbol(),\n\t\t\t_erc20Token.price,\n\t\t\t_erc20Token.maxQuantity,\n\t\t\t_erc20Token.exchangedQuantity,\n\t\t\t_erc20Token.active\n\t\t);\n\t}\n\n\t/**\n\t * @dev Get an ERC20 Token information given an address\n\t * @param _tokenAddress The address of the ERC20 Token\n\t * @return The ERC20 Token address\n\t * @return The name of the token\n\t * @return The symbol of the token\n\t * @return The price of this token to AOETH\n\t * @return The max quantity for exchange\n\t * @return The total AOETH exchanged from this token\n\t * @return The status of this token\n\t */\n\tfunction getByAddress(address _tokenAddress) public view returns (address, string, string, uint256, uint256, uint256, bool) {\n\t\trequire (erc20TokenIdLookup[_tokenAddress] > 0);\n\t\treturn getById(erc20TokenIdLookup[_tokenAddress]);\n\t}\n\n\t/**\n\t * @dev When a user approves AOETH to spend on his/her behalf (i.e exchange to AOETH)\n\t * @param _from The user address that approved AOETH\n\t * @param _value The amount that the user approved\n\t * @param _token The address of the ERC20 Token\n\t * @param _extraData The extra data sent during the approval\n\t */\n\tfunction receiveApproval(address _from, uint256 _value, address _token, bytes _extraData) external {\n\t\trequire (_from != address(0));\n\t\trequire (AOLibrary.isValidERC20TokenAddress(_token));\n\n\t\t// Check if the token is supported\n\t\trequire (erc20TokenIdLookup[_token] > 0);\n\t\tERC20Token storage _erc20Token = erc20Tokens[erc20TokenIdLookup[_token]];\n\t\trequire (_erc20Token.active && _erc20Token.price > 0 && _erc20Token.exchangedQuantity < _erc20Token.maxQuantity);\n\n\t\tuint256 amountToTransfer = _value.div(_erc20Token.price);\n\t\trequire (_erc20Token.maxQuantity.sub(_erc20Token.exchangedQuantity) >= amountToTransfer);\n\t\trequire (_aoIon.availableETH() >= amountToTransfer);\n\n\t\t// Transfer the ERC20 Token from the `_from` address to here\n\t\trequire (TokenERC20(_token).transferFrom(_from, address(this), _value));\n\n\t\t_erc20Token.exchangedQuantity = _erc20Token.exchangedQuantity.add(amountToTransfer);\n\t\tbalanceOf[_from] = balanceOf[_from].add(amountToTransfer);\n\t\ttotalSupply = totalSupply.add(amountToTransfer);\n\n\t\t// Store the TokenExchange information\n\t\ttotalTokenExchanges++;\n\t\ttotalAddressTokenExchanges[_from]++;\n\t\tbytes32 _exchangeId = keccak256(abi.encodePacked(this, _from, totalTokenExchanges));\n\t\ttokenExchangeIdLookup[_exchangeId] = totalTokenExchanges;\n\n\t\tTokenExchange storage _tokenExchange = tokenExchanges[totalTokenExchanges];\n\t\t_tokenExchange.exchangeId = _exchangeId;\n\t\t_tokenExchange.buyer = _from;\n\t\t_tokenExchange.tokenAddress = _token;\n\t\t_tokenExchange.price = _erc20Token.price;\n\t\t_tokenExchange.sentAmount = _value;\n\t\t_tokenExchange.receivedAmount = amountToTransfer;\n\t\t_tokenExchange.extraData = _extraData;\n\n\t\temit ExchangeToken(_tokenExchange.exchangeId, _tokenExchange.buyer, _tokenExchange.tokenAddress, TokenERC20(_token).name(), TokenERC20(_token).symbol(), _tokenExchange.sentAmount, _tokenExchange.receivedAmount, _tokenExchange.extraData);\n\t}\n\n\t/**\n\t * @dev Get TokenExchange information given an exchange ID\n\t * @param _exchangeId The exchange ID to query\n\t * @return The buyer address\n\t * @return The sent ERC20 Token address\n\t * @return The ERC20 Token name\n\t * @return The ERC20 Token symbol\n\t * @return The price of ERC20 Token to AOETH\n\t * @return The amount of ERC20 Token sent\n\t * @return The amount of AOETH received\n\t * @return Extra data during the transaction\n\t */\n\tfunction getTokenExchangeById(bytes32 _exchangeId) public view returns (address, address, string, string, uint256, uint256,  uint256, bytes) {\n\t\trequire (tokenExchangeIdLookup[_exchangeId] > 0);\n\t\tTokenExchange memory _tokenExchange = tokenExchanges[tokenExchangeIdLookup[_exchangeId]];\n\t\treturn (\n\t\t\t_tokenExchange.buyer,\n\t\t\t_tokenExchange.tokenAddress,\n\t\t\tTokenERC20(_tokenExchange.tokenAddress).name(),\n\t\t\tTokenERC20(_tokenExchange.tokenAddress).symbol(),\n\t\t\t_tokenExchange.price,\n\t\t\t_tokenExchange.sentAmount,\n\t\t\t_tokenExchange.receivedAmount,\n\t\t\t_tokenExchange.extraData\n\t\t);\n\t}\n}\n",
	"sourcePath": "/Users/johanmulyono/Work/AO/ao-contracts/contracts/AOETH.sol",
	"compiler": {
		"name": "solc",
		"version": "0.4.24+commit.e67f0147.Emscripten.clang"
	},
	"schemaVersion": "2.0.1",
	"updatedAt": "2019-02-21T15:27:09.219Z"
}