{
	"contractName": "AOIon",
	"abi": [
		{
			"constant": false,
			"inputs": [
				{
					"name": "newSellPrice",
					"type": "uint256"
				},
				{
					"name": "newBuyPrice",
					"type": "uint256"
				}
			],
			"name": "setPrices",
			"outputs": [],
			"payable": false,
			"stateMutability": "nonpayable",
			"type": "function"
		},
		{
			"constant": true,
			"inputs": [],
			"name": "name",
			"outputs": [
				{
					"name": "",
					"type": "string"
				}
			],
			"payable": false,
			"stateMutability": "view",
			"type": "function"
		},
		{
			"constant": false,
			"inputs": [
				{
					"name": "_spender",
					"type": "address"
				},
				{
					"name": "_value",
					"type": "uint256"
				}
			],
			"name": "approve",
			"outputs": [
				{
					"name": "success",
					"type": "bool"
				}
			],
			"payable": false,
			"stateMutability": "nonpayable",
			"type": "function"
		},
		{
			"constant": true,
			"inputs": [],
			"name": "powerOfTen",
			"outputs": [
				{
					"name": "",
					"type": "uint256"
				}
			],
			"payable": false,
			"stateMutability": "view",
			"type": "function"
		},
		{
			"constant": true,
			"inputs": [],
			"name": "aoDevTeam1",
			"outputs": [
				{
					"name": "",
					"type": "address"
				}
			],
			"payable": false,
			"stateMutability": "view",
			"type": "function"
		},
		{
			"constant": true,
			"inputs": [
				{
					"name": "",
					"type": "address"
				},
				{
					"name": "",
					"type": "uint256"
				}
			],
			"name": "primordialStakedBalance",
			"outputs": [
				{
					"name": "",
					"type": "uint256"
				}
			],
			"payable": false,
			"stateMutability": "view",
			"type": "function"
		},
		{
			"constant": true,
			"inputs": [],
			"name": "totalSupply",
			"outputs": [
				{
					"name": "",
					"type": "uint256"
				}
			],
			"payable": false,
			"stateMutability": "view",
			"type": "function"
		},
		{
			"constant": true,
			"inputs": [],
			"name": "aoSettingAddress",
			"outputs": [
				{
					"name": "",
					"type": "address"
				}
			],
			"payable": false,
			"stateMutability": "view",
			"type": "function"
		},
		{
			"constant": false,
			"inputs": [
				{
					"name": "_nameAccountRecoveryAddress",
					"type": "address"
				}
			],
			"name": "setNameAccountRecoveryAddress",
			"outputs": [],
			"payable": false,
			"stateMutability": "nonpayable",
			"type": "function"
		},
		{
			"constant": false,
			"inputs": [
				{
					"name": "_from",
					"type": "address"
				},
				{
					"name": "_to",
					"type": "address"
				},
				{
					"name": "_value",
					"type": "uint256"
				}
			],
			"name": "transferFrom",
			"outputs": [
				{
					"name": "success",
					"type": "bool"
				}
			],
			"payable": false,
			"stateMutability": "nonpayable",
			"type": "function"
		},
		{
			"constant": true,
			"inputs": [],
			"name": "primordialSellPrice",
			"outputs": [
				{
					"name": "",
					"type": "uint256"
				}
			],
			"payable": false,
			"stateMutability": "view",
			"type": "function"
		},
		{
			"constant": true,
			"inputs": [],
			"name": "decimals",
			"outputs": [
				{
					"name": "",
					"type": "uint8"
				}
			],
			"payable": false,
			"stateMutability": "view",
			"type": "function"
		},
		{
			"constant": false,
			"inputs": [
				{
					"name": "_from",
					"type": "address"
				},
				{
					"name": "_value",
					"type": "uint256"
				}
			],
			"name": "stakeFrom",
			"outputs": [
				{
					"name": "",
					"type": "bool"
				}
			],
			"payable": false,
			"stateMutability": "nonpayable",
			"type": "function"
		},
		{
			"constant": true,
			"inputs": [],
			"name": "totalRedeemedAOETH",
			"outputs": [
				{
					"name": "",
					"type": "uint256"
				}
			],
			"payable": false,
			"stateMutability": "view",
			"type": "function"
		},
		{
			"constant": false,
			"inputs": [
				{
					"name": "target",
					"type": "address"
				},
				{
					"name": "mintedAmount",
					"type": "uint256"
				}
			],
			"name": "mint",
			"outputs": [
				{
					"name": "",
					"type": "bool"
				}
			],
			"payable": false,
			"stateMutability": "nonpayable",
			"type": "function"
		},
		{
			"constant": false,
			"inputs": [
				{
					"name": "_value",
					"type": "uint256"
				}
			],
			"name": "burn",
			"outputs": [
				{
					"name": "success",
					"type": "bool"
				}
			],
			"payable": false,
			"stateMutability": "nonpayable",
			"type": "function"
		},
		{
			"constant": true,
			"inputs": [],
			"name": "sellPrice",
			"outputs": [
				{
					"name": "",
					"type": "uint256"
				}
			],
			"payable": false,
			"stateMutability": "view",
			"type": "function"
		},
		{
			"constant": true,
			"inputs": [],
			"name": "nameTAOPositionAddress",
			"outputs": [
				{
					"name": "",
					"type": "address"
				}
			],
			"payable": false,
			"stateMutability": "view",
			"type": "function"
		},
		{
			"constant": true,
			"inputs": [
				{
					"name": "",
					"type": "address"
				}
			],
			"name": "escrowedBalance",
			"outputs": [
				{
					"name": "",
					"type": "uint256"
				}
			],
			"payable": false,
			"stateMutability": "view",
			"type": "function"
		},
		{
			"constant": false,
			"inputs": [
				{
					"name": "_account",
					"type": "address"
				},
				{
					"name": "_whitelist",
					"type": "bool"
				}
			],
			"name": "setWhitelist",
			"outputs": [],
			"payable": false,
			"stateMutability": "nonpayable",
			"type": "function"
		},
		{
			"constant": true,
			"inputs": [
				{
					"name": "",
					"type": "address"
				}
			],
			"name": "primordialBalanceOf",
			"outputs": [
				{
					"name": "",
					"type": "uint256"
				}
			],
			"payable": false,
			"stateMutability": "view",
			"type": "function"
		},
		{
			"constant": false,
			"inputs": [
				{
					"name": "_nameTAOPositionAddress",
					"type": "address"
				}
			],
			"name": "setNameTAOPositionAddress",
			"outputs": [],
			"payable": false,
			"stateMutability": "nonpayable",
			"type": "function"
		},
		{
			"constant": true,
			"inputs": [
				{
					"name": "",
					"type": "address"
				}
			],
			"name": "stakedBalance",
			"outputs": [
				{
					"name": "",
					"type": "uint256"
				}
			],
			"payable": false,
			"stateMutability": "view",
			"type": "function"
		},
		{
			"constant": true,
			"inputs": [],
			"name": "TOTAL_PRIMORDIAL_FOR_SALE",
			"outputs": [
				{
					"name": "",
					"type": "uint256"
				}
			],
			"payable": false,
			"stateMutability": "view",
			"type": "function"
		},
		{
			"constant": false,
			"inputs": [
				{
					"name": "_namePublicKeyAddress",
					"type": "address"
				}
			],
			"name": "setNamePublicKeyAddress",
			"outputs": [],
			"payable": false,
			"stateMutability": "nonpayable",
			"type": "function"
		},
		{
			"constant": true,
			"inputs": [
				{
					"name": "",
					"type": "address"
				}
			],
			"name": "balanceOf",
			"outputs": [
				{
					"name": "",
					"type": "uint256"
				}
			],
			"payable": false,
			"stateMutability": "view",
			"type": "function"
		},
		{
			"constant": true,
			"inputs": [],
			"name": "primordialBuyPrice",
			"outputs": [
				{
					"name": "",
					"type": "uint256"
				}
			],
			"payable": false,
			"stateMutability": "view",
			"type": "function"
		},
		{
			"constant": false,
			"inputs": [
				{
					"name": "_from",
					"type": "address"
				},
				{
					"name": "_value",
					"type": "uint256"
				}
			],
			"name": "unstakeFrom",
			"outputs": [
				{
					"name": "",
					"type": "bool"
				}
			],
			"payable": false,
			"stateMutability": "nonpayable",
			"type": "function"
		},
		{
			"constant": false,
			"inputs": [
				{
					"name": "_from",
					"type": "address"
				},
				{
					"name": "_value",
					"type": "uint256"
				}
			],
			"name": "burnFrom",
			"outputs": [
				{
					"name": "success",
					"type": "bool"
				}
			],
			"payable": false,
			"stateMutability": "nonpayable",
			"type": "function"
		},
		{
			"constant": false,
			"inputs": [
				{
					"name": "_nameId",
					"type": "address"
				},
				{
					"name": "_from",
					"type": "address"
				},
				{
					"name": "_to",
					"type": "address"
				},
				{
					"name": "_value",
					"type": "uint256"
				}
			],
			"name": "transferBetweenPublicKeys",
			"outputs": [
				{
					"name": "success",
					"type": "bool"
				}
			],
			"payable": false,
			"stateMutability": "nonpayable",
			"type": "function"
		},
		{
			"constant": true,
			"inputs": [],
			"name": "primordialTotalSupply",
			"outputs": [
				{
					"name": "",
					"type": "uint256"
				}
			],
			"payable": false,
			"stateMutability": "view",
			"type": "function"
		},
		{
			"constant": true,
			"inputs": [],
			"name": "buyPrice",
			"outputs": [
				{
					"name": "",
					"type": "uint256"
				}
			],
			"payable": false,
			"stateMutability": "view",
			"type": "function"
		},
		{
			"constant": false,
			"inputs": [
				{
					"name": "_from",
					"type": "address"
				},
				{
					"name": "_to",
					"type": "address"
				},
				{
					"name": "_value",
					"type": "uint256"
				}
			],
			"name": "escrowFrom",
			"outputs": [
				{
					"name": "",
					"type": "bool"
				}
			],
			"payable": false,
			"stateMutability": "nonpayable",
			"type": "function"
		},
		{
			"constant": false,
			"inputs": [
				{
					"name": "_from",
					"type": "address"
				},
				{
					"name": "_value",
					"type": "uint256"
				}
			],
			"name": "unescrowFrom",
			"outputs": [
				{
					"name": "",
					"type": "bool"
				}
			],
			"payable": false,
			"stateMutability": "nonpayable",
			"type": "function"
		},
		{
			"constant": true,
			"inputs": [],
			"name": "symbol",
			"outputs": [
				{
					"name": "",
					"type": "string"
				}
			],
			"payable": false,
			"stateMutability": "view",
			"type": "function"
		},
		{
			"constant": true,
			"inputs": [
				{
					"name": "",
					"type": "address"
				}
			],
			"name": "whitelist",
			"outputs": [
				{
					"name": "",
					"type": "bool"
				}
			],
			"payable": false,
			"stateMutability": "view",
			"type": "function"
		},
		{
			"constant": false,
			"inputs": [
				{
					"name": "_from",
					"type": "address"
				},
				{
					"name": "_to",
					"type": "address"
				},
				{
					"name": "_value",
					"type": "uint256"
				}
			],
			"name": "whitelistTransferFrom",
			"outputs": [
				{
					"name": "success",
					"type": "bool"
				}
			],
			"payable": false,
			"stateMutability": "nonpayable",
			"type": "function"
		},
		{
			"constant": true,
			"inputs": [],
			"name": "totalEthForPrimordial",
			"outputs": [
				{
					"name": "",
					"type": "uint256"
				}
			],
			"payable": false,
			"stateMutability": "view",
			"type": "function"
		},
		{
			"constant": true,
			"inputs": [],
			"name": "nameAccountRecoveryAddress",
			"outputs": [
				{
					"name": "",
					"type": "address"
				}
			],
			"payable": false,
			"stateMutability": "view",
			"type": "function"
		},
		{
			"constant": true,
			"inputs": [],
			"name": "networkExchangeEnded",
			"outputs": [
				{
					"name": "",
					"type": "bool"
				}
			],
			"payable": false,
			"stateMutability": "view",
			"type": "function"
		},
		{
			"constant": false,
			"inputs": [],
			"name": "buy",
			"outputs": [],
			"payable": true,
			"stateMutability": "payable",
			"type": "function"
		},
		{
			"constant": false,
			"inputs": [
				{
					"name": "_to",
					"type": "address"
				},
				{
					"name": "_value",
					"type": "uint256"
				}
			],
			"name": "transfer",
			"outputs": [
				{
					"name": "success",
					"type": "bool"
				}
			],
			"payable": false,
			"stateMutability": "nonpayable",
			"type": "function"
		},
		{
			"constant": true,
			"inputs": [],
			"name": "aoDevTeam2",
			"outputs": [
				{
					"name": "",
					"type": "address"
				}
			],
			"payable": false,
			"stateMutability": "view",
			"type": "function"
		},
		{
			"constant": true,
			"inputs": [],
			"name": "theAO",
			"outputs": [
				{
					"name": "",
					"type": "address"
				}
			],
			"payable": false,
			"stateMutability": "view",
			"type": "function"
		},
		{
			"constant": true,
			"inputs": [],
			"name": "aoIonLotAddress",
			"outputs": [
				{
					"name": "",
					"type": "address"
				}
			],
			"payable": false,
			"stateMutability": "view",
			"type": "function"
		},
		{
			"constant": true,
			"inputs": [],
			"name": "primordialTotalBought",
			"outputs": [
				{
					"name": "",
					"type": "uint256"
				}
			],
			"payable": false,
			"stateMutability": "view",
			"type": "function"
		},
		{
			"constant": false,
			"inputs": [
				{
					"name": "_from",
					"type": "address"
				},
				{
					"name": "_value",
					"type": "uint256"
				}
			],
			"name": "whitelistBurnFrom",
			"outputs": [
				{
					"name": "success",
					"type": "bool"
				}
			],
			"payable": false,
			"stateMutability": "nonpayable",
			"type": "function"
		},
		{
			"constant": true,
			"inputs": [
				{
					"name": "",
					"type": "address"
				}
			],
			"name": "frozenAccount",
			"outputs": [
				{
					"name": "",
					"type": "bool"
				}
			],
			"payable": false,
			"stateMutability": "view",
			"type": "function"
		},
		{
			"constant": false,
			"inputs": [
				{
					"name": "_spender",
					"type": "address"
				},
				{
					"name": "_value",
					"type": "uint256"
				},
				{
					"name": "_extraData",
					"type": "bytes"
				}
			],
			"name": "approveAndCall",
			"outputs": [
				{
					"name": "success",
					"type": "bool"
				}
			],
			"payable": false,
			"stateMutability": "nonpayable",
			"type": "function"
		},
		{
			"constant": true,
			"inputs": [
				{
					"name": "",
					"type": "address"
				},
				{
					"name": "",
					"type": "address"
				}
			],
			"name": "primordialAllowance",
			"outputs": [
				{
					"name": "",
					"type": "uint256"
				}
			],
			"payable": false,
			"stateMutability": "view",
			"type": "function"
		},
		{
			"constant": false,
			"inputs": [
				{
					"name": "target",
					"type": "address"
				},
				{
					"name": "mintedAmount",
					"type": "uint256"
				}
			],
			"name": "mintEscrow",
			"outputs": [
				{
					"name": "",
					"type": "bool"
				}
			],
			"payable": false,
			"stateMutability": "nonpayable",
			"type": "function"
		},
		{
			"constant": true,
			"inputs": [],
			"name": "namePublicKeyAddress",
			"outputs": [
				{
					"name": "",
					"type": "address"
				}
			],
			"payable": false,
			"stateMutability": "view",
			"type": "function"
		},
		{
			"constant": true,
			"inputs": [
				{
					"name": "",
					"type": "address"
				},
				{
					"name": "",
					"type": "address"
				}
			],
			"name": "allowance",
			"outputs": [
				{
					"name": "",
					"type": "uint256"
				}
			],
			"payable": false,
			"stateMutability": "view",
			"type": "function"
		},
		{
			"constant": false,
			"inputs": [
				{
					"name": "amount",
					"type": "uint256"
				}
			],
			"name": "sell",
			"outputs": [],
			"payable": false,
			"stateMutability": "nonpayable",
			"type": "function"
		},
		{
			"constant": false,
			"inputs": [
				{
					"name": "target",
					"type": "address"
				},
				{
					"name": "freeze",
					"type": "bool"
				}
			],
			"name": "freezeAccount",
			"outputs": [],
			"payable": false,
			"stateMutability": "nonpayable",
			"type": "function"
		},
		{
			"constant": true,
			"inputs": [],
			"name": "settingTAOId",
			"outputs": [
				{
					"name": "",
					"type": "address"
				}
			],
			"payable": false,
			"stateMutability": "view",
			"type": "function"
		},
		{
			"constant": false,
			"inputs": [
				{
					"name": "_recipient",
					"type": "address"
				},
				{
					"name": "_amount",
					"type": "uint256"
				}
			],
			"name": "transferEth",
			"outputs": [],
			"payable": false,
			"stateMutability": "nonpayable",
			"type": "function"
		},
		{
			"constant": false,
			"inputs": [
				{
					"name": "_theAO",
					"type": "address"
				}
			],
			"name": "transferOwnership",
			"outputs": [],
			"payable": false,
			"stateMutability": "nonpayable",
			"type": "function"
		},
		{
			"constant": true,
			"inputs": [],
			"name": "aoethAddress",
			"outputs": [
				{
					"name": "",
					"type": "address"
				}
			],
			"payable": false,
			"stateMutability": "view",
			"type": "function"
		},
		{
			"inputs": [
				{
					"name": "_name",
					"type": "string"
				},
				{
					"name": "_symbol",
					"type": "string"
				},
				{
					"name": "_settingTAOId",
					"type": "address"
				},
				{
					"name": "_aoSettingAddress",
					"type": "address"
				},
				{
					"name": "_nameTAOPositionAddress",
					"type": "address"
				},
				{
					"name": "_namePublicKeyAddress",
					"type": "address"
				},
				{
					"name": "_nameAccountRecoveryAddress",
					"type": "address"
				}
			],
			"payable": false,
			"stateMutability": "nonpayable",
			"type": "constructor"
		},
		{
			"anonymous": false,
			"inputs": [
				{
					"indexed": true,
					"name": "from",
					"type": "address"
				},
				{
					"indexed": true,
					"name": "to",
					"type": "address"
				},
				{
					"indexed": false,
					"name": "value",
					"type": "uint256"
				}
			],
			"name": "PrimordialTransfer",
			"type": "event"
		},
		{
			"anonymous": false,
			"inputs": [
				{
					"indexed": true,
					"name": "_owner",
					"type": "address"
				},
				{
					"indexed": true,
					"name": "_spender",
					"type": "address"
				},
				{
					"indexed": false,
					"name": "_value",
					"type": "uint256"
				}
			],
			"name": "PrimordialApproval",
			"type": "event"
		},
		{
			"anonymous": false,
			"inputs": [
				{
					"indexed": true,
					"name": "from",
					"type": "address"
				},
				{
					"indexed": false,
					"name": "value",
					"type": "uint256"
				}
			],
			"name": "PrimordialBurn",
			"type": "event"
		},
		{
			"anonymous": false,
			"inputs": [
				{
					"indexed": true,
					"name": "from",
					"type": "address"
				},
				{
					"indexed": false,
					"name": "value",
					"type": "uint256"
				},
				{
					"indexed": false,
					"name": "weightedMultiplier",
					"type": "uint256"
				}
			],
			"name": "PrimordialStake",
			"type": "event"
		},
		{
			"anonymous": false,
			"inputs": [
				{
					"indexed": true,
					"name": "from",
					"type": "address"
				},
				{
					"indexed": false,
					"name": "value",
					"type": "uint256"
				},
				{
					"indexed": false,
					"name": "weightedMultiplier",
					"type": "uint256"
				}
			],
			"name": "PrimordialUnstake",
			"type": "event"
		},
		{
			"anonymous": false,
			"inputs": [],
			"name": "NetworkExchangeEnded",
			"type": "event"
		},
		{
			"anonymous": false,
			"inputs": [
				{
					"indexed": true,
					"name": "lotOwner",
					"type": "address"
				},
				{
					"indexed": true,
					"name": "lotId",
					"type": "bytes32"
				},
				{
					"indexed": false,
					"name": "payWith",
					"type": "uint8"
				},
				{
					"indexed": false,
					"name": "sentAmount",
					"type": "uint256"
				},
				{
					"indexed": false,
					"name": "refundedAmount",
					"type": "uint256"
				}
			],
			"name": "BuyPrimordial",
			"type": "event"
		},
		{
			"anonymous": false,
			"inputs": [
				{
					"indexed": false,
					"name": "target",
					"type": "address"
				},
				{
					"indexed": false,
					"name": "frozen",
					"type": "bool"
				}
			],
			"name": "FrozenFunds",
			"type": "event"
		},
		{
			"anonymous": false,
			"inputs": [
				{
					"indexed": true,
					"name": "from",
					"type": "address"
				},
				{
					"indexed": false,
					"name": "value",
					"type": "uint256"
				}
			],
			"name": "Stake",
			"type": "event"
		},
		{
			"anonymous": false,
			"inputs": [
				{
					"indexed": true,
					"name": "from",
					"type": "address"
				},
				{
					"indexed": false,
					"name": "value",
					"type": "uint256"
				}
			],
			"name": "Unstake",
			"type": "event"
		},
		{
			"anonymous": false,
			"inputs": [
				{
					"indexed": true,
					"name": "from",
					"type": "address"
				},
				{
					"indexed": true,
					"name": "to",
					"type": "address"
				},
				{
					"indexed": false,
					"name": "value",
					"type": "uint256"
				}
			],
			"name": "Escrow",
			"type": "event"
		},
		{
			"anonymous": false,
			"inputs": [
				{
					"indexed": true,
					"name": "from",
					"type": "address"
				},
				{
					"indexed": false,
					"name": "value",
					"type": "uint256"
				}
			],
			"name": "Unescrow",
			"type": "event"
		},
		{
			"anonymous": false,
			"inputs": [
				{
					"indexed": true,
					"name": "from",
					"type": "address"
				},
				{
					"indexed": true,
					"name": "to",
					"type": "address"
				},
				{
					"indexed": false,
					"name": "value",
					"type": "uint256"
				}
			],
			"name": "Transfer",
			"type": "event"
		},
		{
			"anonymous": false,
			"inputs": [
				{
					"indexed": true,
					"name": "_owner",
					"type": "address"
				},
				{
					"indexed": true,
					"name": "_spender",
					"type": "address"
				},
				{
					"indexed": false,
					"name": "_value",
					"type": "uint256"
				}
			],
			"name": "Approval",
			"type": "event"
		},
		{
			"anonymous": false,
			"inputs": [
				{
					"indexed": true,
					"name": "from",
					"type": "address"
				},
				{
					"indexed": false,
					"name": "value",
					"type": "uint256"
				}
			],
			"name": "Burn",
			"type": "event"
		},
		{
			"constant": false,
			"inputs": [
				{
					"name": "_aoIonLotAddress",
					"type": "address"
				}
			],
			"name": "setAOIonLotAddress",
			"outputs": [],
			"payable": false,
			"stateMutability": "nonpayable",
			"type": "function"
		},
		{
			"constant": false,
			"inputs": [
				{
					"name": "_settingTAOId",
					"type": "address"
				}
			],
			"name": "setSettingTAOId",
			"outputs": [],
			"payable": false,
			"stateMutability": "nonpayable",
			"type": "function"
		},
		{
			"constant": false,
			"inputs": [
				{
					"name": "_aoSettingAddress",
					"type": "address"
				}
			],
			"name": "setAOSettingAddress",
			"outputs": [],
			"payable": false,
			"stateMutability": "nonpayable",
			"type": "function"
		},
		{
			"constant": false,
			"inputs": [
				{
					"name": "_aoDevTeam1",
					"type": "address"
				},
				{
					"name": "_aoDevTeam2",
					"type": "address"
				}
			],
			"name": "setAODevTeamAddresses",
			"outputs": [],
			"payable": false,
			"stateMutability": "nonpayable",
			"type": "function"
		},
		{
			"constant": false,
			"inputs": [
				{
					"name": "_aoethAddress",
					"type": "address"
				}
			],
			"name": "setAOETHAddress",
			"outputs": [],
			"payable": false,
			"stateMutability": "nonpayable",
			"type": "function"
		},
		{
			"constant": false,
			"inputs": [
				{
					"name": "newPrimordialSellPrice",
					"type": "uint256"
				},
				{
					"name": "newPrimordialBuyPrice",
					"type": "uint256"
				}
			],
			"name": "setPrimordialPrices",
			"outputs": [],
			"payable": false,
			"stateMutability": "nonpayable",
			"type": "function"
		},
		{
			"constant": false,
			"inputs": [],
			"name": "endNetworkExchange",
			"outputs": [],
			"payable": false,
			"stateMutability": "nonpayable",
			"type": "function"
		},
		{
			"constant": false,
			"inputs": [
				{
					"name": "_from",
					"type": "address"
				},
				{
					"name": "_value",
					"type": "uint256"
				},
				{
					"name": "_weightedMultiplier",
					"type": "uint256"
				}
			],
			"name": "stakePrimordialFrom",
			"outputs": [
				{
					"name": "",
					"type": "bool"
				}
			],
			"payable": false,
			"stateMutability": "nonpayable",
			"type": "function"
		},
		{
			"constant": false,
			"inputs": [
				{
					"name": "_from",
					"type": "address"
				},
				{
					"name": "_value",
					"type": "uint256"
				},
				{
					"name": "_weightedMultiplier",
					"type": "uint256"
				}
			],
			"name": "unstakePrimordialFrom",
			"outputs": [
				{
					"name": "",
					"type": "bool"
				}
			],
			"payable": false,
			"stateMutability": "nonpayable",
			"type": "function"
		},
		{
			"constant": false,
			"inputs": [
				{
					"name": "_from",
					"type": "address"
				},
				{
					"name": "_to",
					"type": "address"
				},
				{
					"name": "_value",
					"type": "uint256"
				}
			],
			"name": "whitelistTransferPrimordialFrom",
			"outputs": [
				{
					"name": "",
					"type": "bool"
				}
			],
			"payable": false,
			"stateMutability": "nonpayable",
			"type": "function"
		},
		{
			"constant": false,
			"inputs": [],
			"name": "buyPrimordial",
			"outputs": [],
			"payable": true,
			"stateMutability": "payable",
			"type": "function"
		},
		{
			"constant": false,
			"inputs": [
				{
					"name": "_aoethAmount",
					"type": "uint256"
				}
			],
			"name": "buyPrimordialWithAOETH",
			"outputs": [],
			"payable": false,
			"stateMutability": "nonpayable",
			"type": "function"
		},
		{
			"constant": false,
			"inputs": [
				{
					"name": "_to",
					"type": "address"
				},
				{
					"name": "_value",
					"type": "uint256"
				}
			],
			"name": "transferPrimordial",
			"outputs": [
				{
					"name": "",
					"type": "bool"
				}
			],
			"payable": false,
			"stateMutability": "nonpayable",
			"type": "function"
		},
		{
			"constant": false,
			"inputs": [
				{
					"name": "_from",
					"type": "address"
				},
				{
					"name": "_to",
					"type": "address"
				},
				{
					"name": "_value",
					"type": "uint256"
				}
			],
			"name": "transferPrimordialFrom",
			"outputs": [
				{
					"name": "",
					"type": "bool"
				}
			],
			"payable": false,
			"stateMutability": "nonpayable",
			"type": "function"
		},
		{
			"constant": false,
			"inputs": [
				{
					"name": "_nameId",
					"type": "address"
				},
				{
					"name": "_from",
					"type": "address"
				},
				{
					"name": "_to",
					"type": "address"
				},
				{
					"name": "_value",
					"type": "uint256"
				}
			],
			"name": "transferPrimordialBetweenPublicKeys",
			"outputs": [
				{
					"name": "",
					"type": "bool"
				}
			],
			"payable": false,
			"stateMutability": "nonpayable",
			"type": "function"
		},
		{
			"constant": false,
			"inputs": [
				{
					"name": "_spender",
					"type": "address"
				},
				{
					"name": "_value",
					"type": "uint256"
				}
			],
			"name": "approvePrimordial",
			"outputs": [
				{
					"name": "",
					"type": "bool"
				}
			],
			"payable": false,
			"stateMutability": "nonpayable",
			"type": "function"
		},
		{
			"constant": false,
			"inputs": [
				{
					"name": "_spender",
					"type": "address"
				},
				{
					"name": "_value",
					"type": "uint256"
				},
				{
					"name": "_extraData",
					"type": "bytes"
				}
			],
			"name": "approvePrimordialAndCall",
			"outputs": [
				{
					"name": "",
					"type": "bool"
				}
			],
			"payable": false,
			"stateMutability": "nonpayable",
			"type": "function"
		},
		{
			"constant": false,
			"inputs": [
				{
					"name": "_value",
					"type": "uint256"
				}
			],
			"name": "burnPrimordial",
			"outputs": [
				{
					"name": "",
					"type": "bool"
				}
			],
			"payable": false,
			"stateMutability": "nonpayable",
			"type": "function"
		},
		{
			"constant": false,
			"inputs": [
				{
					"name": "_from",
					"type": "address"
				},
				{
					"name": "_value",
					"type": "uint256"
				}
			],
			"name": "burnPrimordialFrom",
			"outputs": [
				{
					"name": "",
					"type": "bool"
				}
			],
			"payable": false,
			"stateMutability": "nonpayable",
			"type": "function"
		},
		{
			"constant": true,
			"inputs": [
				{
					"name": "_lotOwner",
					"type": "address"
				}
			],
			"name": "weightedMultiplierByAddress",
			"outputs": [
				{
					"name": "",
					"type": "uint256"
				}
			],
			"payable": false,
			"stateMutability": "view",
			"type": "function"
		},
		{
			"constant": true,
			"inputs": [
				{
					"name": "_target",
					"type": "address"
				}
			],
			"name": "maxMultiplierByAddress",
			"outputs": [
				{
					"name": "",
					"type": "uint256"
				}
			],
			"payable": false,
			"stateMutability": "view",
			"type": "function"
		},
		{
			"constant": true,
			"inputs": [
				{
					"name": "_purchaseAmount",
					"type": "uint256"
				}
			],
			"name": "calculateMultiplierAndBonus",
			"outputs": [
				{
					"name": "",
					"type": "uint256"
				},
				{
					"name": "",
					"type": "uint256"
				},
				{
					"name": "",
					"type": "uint256"
				}
			],
			"payable": false,
			"stateMutability": "view",
			"type": "function"
		},
		{
			"constant": true,
			"inputs": [
				{
					"name": "_account",
					"type": "address"
				}
			],
			"name": "calculateMaximumBurnAmount",
			"outputs": [
				{
					"name": "",
					"type": "uint256"
				}
			],
			"payable": false,
			"stateMutability": "view",
			"type": "function"
		},
		{
			"constant": true,
			"inputs": [
				{
					"name": "_account",
					"type": "address"
				},
				{
					"name": "_amountToBurn",
					"type": "uint256"
				}
			],
			"name": "calculateMultiplierAfterBurn",
			"outputs": [
				{
					"name": "",
					"type": "uint256"
				}
			],
			"payable": false,
			"stateMutability": "view",
			"type": "function"
		},
		{
			"constant": true,
			"inputs": [
				{
					"name": "_account",
					"type": "address"
				},
				{
					"name": "_amountToConvert",
					"type": "uint256"
				}
			],
			"name": "calculateMultiplierAfterConversion",
			"outputs": [
				{
					"name": "",
					"type": "uint256"
				}
			],
			"payable": false,
			"stateMutability": "view",
			"type": "function"
		},
		{
			"constant": false,
			"inputs": [
				{
					"name": "_value",
					"type": "uint256"
				}
			],
			"name": "convertToPrimordial",
			"outputs": [
				{
					"name": "",
					"type": "bool"
				}
			],
			"payable": false,
			"stateMutability": "nonpayable",
			"type": "function"
		},
		{
			"constant": true,
			"inputs": [],
			"name": "availablePrimordialForSale",
			"outputs": [
				{
					"name": "",
					"type": "uint256"
				}
			],
			"payable": false,
			"stateMutability": "view",
			"type": "function"
		},
		{
			"constant": true,
			"inputs": [],
			"name": "availablePrimordialForSaleInETH",
			"outputs": [
				{
					"name": "",
					"type": "uint256"
				}
			],
			"payable": false,
			"stateMutability": "view",
			"type": "function"
		},
		{
			"constant": true,
			"inputs": [],
			"name": "availableETH",
			"outputs": [
				{
					"name": "",
					"type": "uint256"
				}
			],
			"payable": false,
			"stateMutability": "view",
			"type": "function"
		}
	],
	"bytecode": "0x608060405260188054600160a060020a0319908116735c63644d01ba385ebac5bcf2ddc1e6dbc1182b52179091556019805490911673156c79bf4347d1891da834ea30662a14177cbf281790553480156200005957600080fd5b506040516200607d3803806200607d83398101604090815281516020830151918301516060840151608085015160a086015160c087015160008054600160a060020a031916331790559487019695909501949293919290918686848484620000ca8364010000000062000190810204565b620000de8264010000000062000298810204565b620000f281640100000000620003a0810204565b8451620001079060089060208801906200080e565b5083516200011d9060099060208701906200080e565b50506000600c555050600a805460ff191690555062000147905085640100000000620004a8810204565b6200015b846401000000006200063b810204565b6000600c819055600a805460ff19169055620001839061271064010000000062000740810204565b50505050505050620008b3565b600054600154604080517ff66afcac000000000000000000000000000000000000000000000000000000008152336004820152600160a060020a0393841660248201529290911660448301525173__AOLibrary_____________________________9163f66afcac916064808301926020929190829003018186803b1580156200021957600080fd5b505af41580156200022e573d6000803e3d6000fd5b505050506040513d60208110156200024557600080fd5b505115156200025357600080fd5b600160a060020a03811615156200026957600080fd5b60018054600160a060020a0319908116600160a060020a03938416179182905560058054929093169116179055565b600054600154604080517ff66afcac000000000000000000000000000000000000000000000000000000008152336004820152600160a060020a0393841660248201529290911660448301525173__AOLibrary_____________________________9163f66afcac916064808301926020929190829003018186803b1580156200032157600080fd5b505af415801562000336573d6000803e3d6000fd5b505050506040513d60208110156200034d57600080fd5b505115156200035b57600080fd5b600160a060020a03811615156200037157600080fd5b60038054600160a060020a0319908116600160a060020a03938416179182905560068054929093169116179055565b600054600154604080517ff66afcac000000000000000000000000000000000000000000000000000000008152336004820152600160a060020a0393841660248201529290911660448301525173__AOLibrary_____________________________9163f66afcac916064808301926020929190829003018186803b1580156200042957600080fd5b505af41580156200043e573d6000803e3d6000fd5b505050506040513d60208110156200045557600080fd5b505115156200046357600080fd5b600160a060020a03811615156200047957600080fd5b60048054600160a060020a0319908116600160a060020a03938416179182905560078054929093169116179055565b600054600154604080517ff66afcac000000000000000000000000000000000000000000000000000000008152336004820152600160a060020a0393841660248201529290911660448301525173__AOLibrary_____________________________9163f66afcac916064808301926020929190829003018186803b1580156200053157600080fd5b505af415801562000546573d6000803e3d6000fd5b505050506040513d60208110156200055d57600080fd5b505115156200056b57600080fd5b604080517f2fca5414000000000000000000000000000000000000000000000000000000008152600160a060020a0383166004820152905173__AOLibrary_____________________________91632fca5414916024808301926020929190829003018186803b158015620005df57600080fd5b505af4158015620005f4573d6000803e3d6000fd5b505050506040513d60208110156200060b57600080fd5b505115156200061957600080fd5b60158054600160a060020a031916600160a060020a0392909216919091179055565b600054600154604080517ff66afcac000000000000000000000000000000000000000000000000000000008152336004820152600160a060020a0393841660248201529290911660448301525173__AOLibrary_____________________________9163f66afcac916064808301926020929190829003018186803b158015620006c457600080fd5b505af4158015620006d9573d6000803e3d6000fd5b505050506040513d6020811015620006f057600080fd5b50511515620006fe57600080fd5b600160a060020a03811615156200071457600080fd5b60168054600160a060020a03909216600160a060020a03199283168117909155601b8054909216179055565b600054600154604080517ff66afcac000000000000000000000000000000000000000000000000000000008152336004820152600160a060020a0393841660248201529290911660448301525173__AOLibrary_____________________________9163f66afcac916064808301926020929190829003018186803b158015620007c957600080fd5b505af4158015620007de573d6000803e3d6000fd5b505050506040513d6020811015620007f557600080fd5b505115156200080357600080fd5b601f91909155602055565b828054600181600116156101000203166002900490600052602060002090601f016020900481019282601f106200085157805160ff191683800117855562000881565b8280016001018555821562000881579182015b828111156200088157825182559160200191906001019062000864565b506200088f92915062000893565b5090565b620008b091905b808211156200088f57600081556001016200089a565b90565b6157ba80620008c36000396000f3006080604052600436106103e45763ffffffff60e060020a600035041663032b700681146103e957806305fefda71461041057806306fd70881461042d57806306fdde031461044e57806307f09e9a146104d8578063095ea7b31461051c5780630aa24546146105405780630ac0b31f146105555780630de8e2721461058b5780630e93571b146105a357806315227aa7146105bb578063153d9049146105ec57806318160ddd1461061057806318ff5c51146106255780631d0138ff1461064c5780631dfde2bd1461066157806323b872dd14610682578063281bdaf8146106ac5780632b687bb9146106cd578063313ce567146106e257806331a8aeb31461070d5780633480e251146107315780633a9c7d3d1461074657806340c10f191461076757806342966c681461078b5780634b750334146107a35780634ef033f0146107b85780634fbd2695146107cd57806353d6fd59146107ee57806357946b8e146108145780635cfaf2ef1461083557806360217267146108565780636a015bbe146108775780636aae86c31461088c5780636d9aa034146108a157806370a08231146108c257806372d11466146108e3578063731a3b06146108f857806379cc67901461091c5780637d9e2a2114610940578063834e9f31146109705780638620410b1461098557806387d4ca931461099a5780638a066045146109c457806395d89b41146109e85780639b19251a146109fd5780639d9b739614610a1e5780639eeead7a14610a33578063a144a3e014610a5d578063a2e8760b14610a87578063a4e5fad214610a9c578063a545a5d114610ab1578063a6f2ae3a14610ac6578063a9059cbb14610ace578063a918887814610af2578063a99433a614610b0d578063a9b6b38e14610b22578063ab13f75114610b37578063ab7f770614610b4c578063adc933cf14610b61578063b1e19d4514610b8b578063b24626e914610baf578063b414d4b614610bd6578063b811ae7f14610bf7578063c3c1ac4714610c1b578063cae9ca5114610c3f578063cf3e194d14610ca8578063d1e5a55214610ccc578063d318386414610cf3578063d569aa2514610d17578063d64468bf14610d38578063d6830af314610d59578063d6c9e18914610d7a578063d8ce52d114610d9e578063dd62ed3e14610db3578063e4849b3214610dda578063e724529c14610df2578063e7c5018514610e18578063e9bb84c214610e2d578063ecbbd1ca14610e51578063ede5e88414610e72578063f2fde38b14610edb578063f81eb76d14610efc578063f9f4363414610f23578063faaad91d14610f2b578063fb6ff16114610f43578063fdb52e8614610f58578063fff17e9e14610f6d575b600080fd5b3480156103f557600080fd5b506103fe610f91565b60408051918252519081900360200190f35b34801561041c57600080fd5b5061042b600435602435610fb4565b005b34801561043957600080fd5b5061042b600160a060020a0360043516611068565b34801561045a57600080fd5b50610463611152565b6040805160208082528351818301528351919283929083019185019080838360005b8381101561049d578181015183820152602001610485565b50505050905090810190601f1680156104ca5780820380516001836020036101000a031916815260200191505b509250505060405180910390f35b3480156104e457600080fd5b50610508600160a060020a03600435811690602435811690604435166064356111e0565b604080519115158252519081900360200190f35b34801561052857600080fd5b50610508600160a060020a03600435166024356114f6565b34801561054c57600080fd5b506103fe61155d565b34801561056157600080fd5b5061056d600435611563565b60408051938452602084019290925282820152519081900360600190f35b34801561059757600080fd5b5061042b6004356117ae565b3480156105af57600080fd5b50610508600435611a4a565b3480156105c757600080fd5b506105d0611bcb565b60408051600160a060020a039092168252519081900360200190f35b3480156105f857600080fd5b506103fe600160a060020a0360043516602435611bda565b34801561061c57600080fd5b506103fe611bf7565b34801561063157600080fd5b50610508600160a060020a0360043516602435604435611bfd565b34801561065857600080fd5b506105d0611d39565b34801561066d57600080fd5b5061042b600160a060020a0360043516611d48565b34801561068e57600080fd5b50610508600160a060020a0360043581169060243516604435611e35565b3480156106b857600080fd5b506103fe600160a060020a0360043516611ea4565b3480156106d957600080fd5b506103fe611ebf565b3480156106ee57600080fd5b506106f7611ec5565b6040805160ff9092168252519081900360200190f35b34801561071957600080fd5b50610508600160a060020a0360043516602435611ece565b34801561073d57600080fd5b506103fe611fcd565b34801561075257600080fd5b506103fe600160a060020a0360043516611fd3565b34801561077357600080fd5b50610508600160a060020a0360043516602435612090565b34801561079757600080fd5b506105086004356120c4565b3480156107af57600080fd5b506103fe61213c565b3480156107c457600080fd5b506105d0612142565b3480156107d957600080fd5b506103fe600160a060020a0360043516612151565b3480156107fa57600080fd5b5061042b600160a060020a03600435166024351515612163565b34801561082057600080fd5b506103fe600160a060020a036004351661224c565b34801561084157600080fd5b5061042b600160a060020a036004351661225e565b34801561086257600080fd5b506103fe600160a060020a036004351661234b565b34801561088357600080fd5b5061042b61235d565b34801561089857600080fd5b506103fe61244e565b3480156108ad57600080fd5b5061042b600160a060020a0360043516612459565b3480156108ce57600080fd5b506103fe600160a060020a0360043516612546565b3480156108ef57600080fd5b506103fe612558565b34801561090457600080fd5b50610508600160a060020a036004351660243561255e565b34801561092857600080fd5b50610508600160a060020a036004351660243561265d565b34801561094c57600080fd5b50610508600160a060020a036004358116906024358116906044351660643561272e565b34801561097c57600080fd5b506103fe612a46565b34801561099157600080fd5b506103fe612a4c565b3480156109a657600080fd5b50610508600160a060020a0360043581169060243516604435612a52565b3480156109d057600080fd5b50610508600160a060020a0360043516602435612b5e565b3480156109f457600080fd5b50610463612c5d565b348015610a0957600080fd5b50610508600160a060020a0360043516612cb8565b348015610a2a57600080fd5b506103fe612ccd565b348015610a3f57600080fd5b50610508600160a060020a0360043581169060243516604435612ce9565b348015610a6957600080fd5b50610508600160a060020a0360043581169060243516604435612d1d565b348015610a9357600080fd5b506103fe612d49565b348015610aa857600080fd5b506105d0612d4f565b348015610abd57600080fd5b50610508612d5e565b61042b612d67565b348015610ada57600080fd5b50610508600160a060020a0360043516602435612d9d565b348015610afe57600080fd5b5061042b600435602435612daa565b348015610b1957600080fd5b506105d0612e5e565b348015610b2e57600080fd5b506105d0612e6d565b348015610b4357600080fd5b506105d0612e7c565b348015610b5857600080fd5b506103fe612e8b565b348015610b6d57600080fd5b50610508600160a060020a0360043581169060243516604435612e91565b348015610b9757600080fd5b50610508600160a060020a0360043516602435612f24565b348015610bbb57600080fd5b5061042b600160a060020a036004358116906024351661300a565b348015610be257600080fd5b50610508600160a060020a03600435166130e1565b348015610c0357600080fd5b50610508600160a060020a03600435166024356130f6565b348015610c2757600080fd5b50610508600160a060020a036004351660243561310a565b348015610c4b57600080fd5b50604080516020600460443581810135601f8101849004840285018401909552848452610508948235600160a060020a031694602480359536959460649492019190819084018382808284375094975061332e9650505050505050565b348015610cb457600080fd5b506103fe600160a060020a0360043516602435613447565b348015610cd857600080fd5b506103fe600160a060020a0360043581169060243516613510565b348015610cff57600080fd5b506103fe600160a060020a036004351660243561352d565b348015610d2357600080fd5b5061042b600160a060020a03600435166135db565b348015610d4457600080fd5b5061042b600160a060020a03600435166136c5565b348015610d6557600080fd5b5061042b600160a060020a03600435166137af565b348015610d8657600080fd5b50610508600160a060020a0360043516602435613924565b348015610daa57600080fd5b506105d06139e6565b348015610dbf57600080fd5b506103fe600160a060020a03600435811690602435166139f5565b348015610de657600080fd5b5061042b600435613a12565b348015610dfe57600080fd5b5061042b600160a060020a03600435166024351515613aa3565b348015610e2457600080fd5b506105d0613bb0565b348015610e3957600080fd5b5061042b600160a060020a0360043516602435613bbf565b348015610e5d57600080fd5b506103fe600160a060020a0360043516613cb3565b348015610e7e57600080fd5b50604080516020600460443581810135601f8101849004840285018401909552848452610508948235600160a060020a0316946024803595369594606494920191908190840183828082843750949750613d849650505050505050565b348015610ee757600080fd5b5061042b600160a060020a0360043516613d91565b348015610f0857600080fd5b50610508600160a060020a0360043516602435604435613e71565b61042b613f9b565b348015610f3757600080fd5b506105086004356141bd565b348015610f4f57600080fd5b506103fe6142c5565b348015610f6457600080fd5b506105d06143ba565b348015610f7957600080fd5b50610508600160a060020a03600435166024356143c9565b6000610faf601e546603fffffffffffc61442f90919063ffffffff16565b905090565b6000546001546040805160e260020a633d9abf2b028152336004820152600160a060020a0393841660248201529290911660448301525173__AOLibrary_____________________________9163f66afcac916064808301926020929190829003018186803b15801561102657600080fd5b505af415801561103a573d6000803e3d6000fd5b505050506040513d602081101561105057600080fd5b5051151561105d57600080fd5b600d91909155600e55565b6000546001546040805160e260020a633d9abf2b028152336004820152600160a060020a0393841660248201529290911660448301525173__AOLibrary_____________________________9163f66afcac916064808301926020929190829003018186803b1580156110da57600080fd5b505af41580156110ee573d6000803e3d6000fd5b505050506040513d602081101561110457600080fd5b5051151561111157600080fd5b600160a060020a038116151561112657600080fd5b60168054600160a060020a03909216600160a060020a03199283168117909155601b8054909216179055565b6008805460408051602060026001851615610100026000190190941693909304601f810184900484028201840190925281815292918301828280156111d85780601f106111ad576101008083540402835291602001916111d8565b820191906000526020600020905b8154815290600101906020018083116111bb57829003601f168201915b505050505081565b600073__AOLibrary_____________________________632d706a34866040518263ffffffff1660e060020a0281526004018082600160a060020a0316600160a060020a0316815260200191505060206040518083038186803b15801561124657600080fd5b505af415801561125a573d6000803e3d6000fd5b505050506040513d602081101561127057600080fd5b5051151561127d57600080fd5b600554604080517f71ce52ed000000000000000000000000000000000000000000000000000000008152336004820152600160a060020a038881166024830152915191909216916371ce52ed9160448083019260209291908290030181600087803b1580156112eb57600080fd5b505af11580156112ff573d6000803e3d6000fd5b505050506040513d602081101561131557600080fd5b5051151561132257600080fd5b600754604080517f3ebc2ab3000000000000000000000000000000000000000000000000000000008152600160a060020a03888116600483015291519190921691633ebc2ab39160248083019260209291908290030181600087803b15801561138a57600080fd5b505af115801561139e573d6000803e3d6000fd5b505050506040513d60208110156113b457600080fd5b5051156113c057600080fd5b6006546040805160e260020a632920491f028152600160a060020a03888116600483015287811660248301529151919092169163a481247c9160448083019260209291908290030181600087803b15801561141a57600080fd5b505af115801561142e573d6000803e3d6000fd5b505050506040513d602081101561144457600080fd5b5051151561145157600080fd5b6006546040805160e260020a632920491f028152600160a060020a03888116600483015286811660248301529151919092169163a481247c9160448083019260209291908290030181600087803b1580156114ab57600080fd5b505af11580156114bf573d6000803e3d6000fd5b505050506040513d60208110156114d557600080fd5b505115156114e257600080fd5b6114ed848484614441565b95945050505050565b336000818152601060209081526040808320600160a060020a038716808552908352818420869055815186815291519394909390927f8c5be1e5ebec7d5bd14f71427d1e84f3dd0314c0f7b2291e5b200ac8c7c3b925928290030190a35060015b92915050565b600c5481565b6000806000806000806000611576614634565b935093509350935073__AOLibrary_____________________________63c35f4bbb896603fffffffffffc601e5488886040518663ffffffff1660e060020a028152600401808681526020018581526020018481526020018381526020018281526020019550505050505060206040518083038186803b1580156115f957600080fd5b505af415801561160d573d6000803e3d6000fd5b505050506040513d602081101561162357600080fd5b5051601e54604080517f7d3c3ac7000000000000000000000000000000000000000000000000000000008152600481018c90526603fffffffffffc6024820152604481019290925260648201859052608482018490525173__AOLibrary_____________________________91637d3c3ac79160a4808301926020929190829003018186803b1580156116b557600080fd5b505af41580156116c9573d6000803e3d6000fd5b505050506040513d60208110156116df57600080fd5b5051601e54604080517ff8e26025000000000000000000000000000000000000000000000000000000008152600481018d90526603fffffffffffc6024820152604481019290925260648201869052608482018590525173__AOLibrary_____________________________9163f8e260259160a4808301926020929190829003018186803b15801561177157600080fd5b505af4158015611785573d6000803e3d6000fd5b505050506040513d602081101561179b57600080fd5b5051919a90995090975095505050505050565b60265460009081908190819081908690829060ff161580156117d857506603fffffffffffc601e54105b80156117e657506000602054115b80156117f25750600082115b801561180557506000611803612ccd565b115b80156118b357508080156118205750600061181e6142c5565b115b806118b35750801580156118b35750601c60009054906101000a9004600160a060020a0316600160a060020a03166318160ddd6040518163ffffffff1660e060020a028152600401602060405180830381600087803b15801561188257600080fd5b505af1158015611896573d6000803e3d6000fd5b505050506040513d60208110156118ac57600080fd5b5051602254105b15156118be57600080fd5b6118c9886000614b32565b91985096509450600087116118dd57600080fd5b841561191a576026805460ff191660011790556040517ff39a948556de51164a82b6d174bdfa5d3006e0e4c261be48ddd5010c88e66d4090600090a15b61192a888763ffffffff61442f16565b602254909450611940908563ffffffff614c3e16565b602255601c54604080517fa144a3e0000000000000000000000000000000000000000000000000000000008152336004820152306024820152604481018790529051600160a060020a039092169163a144a3e0916064808201926020929091908290030181600087803b1580156119b657600080fd5b505af11580156119ca573d6000803e3d6000fd5b505050506040513d60208110156119e057600080fd5b505115156119ed57600080fd5b6119f78733614c4b565b6040805160028152602081018b90528082018990529051919450849133917f93e54450ea3b34de5171ce978678ebbda145946c245afccc3cc22161dcf8d4aa919081900360600190a35050505050505050565b33600090815260236020526040812054821115611a6657600080fd5b81611a7033613cb3565b1015611a7b57600080fd5b611a85338361352d565b33600090815260276020908152604080832093909355602390522054611ab1908363ffffffff61442f16565b33600090815260236020526040902055601d54611ad4908363ffffffff61442f16565b601d55601a543360008181526027602090815260408083205481517f30a331d1000000000000000000000000000000000000000000000000000000008152600481019590955260248501889052604485015251600160a060020a03909416936330a331d193606480820194918390030190829087803b158015611b5657600080fd5b505af1158015611b6a573d6000803e3d6000fd5b505050506040513d6020811015611b8057600080fd5b50511515611b8d57600080fd5b60408051838152905133917f8ca2ca4355ea7f1e1880fa3d5f2dc524f82297c88282d5d95badd4041b8a8edb919081900360200190a2506001919050565b601854600160a060020a031681565b602560209081526000928352604080842090915290825290205481565b600b5481565b3360009081526002602052604081205460ff161515600114611c1e57600080fd5b600160a060020a038416600090815260236020526040902054831115611c4357600080fd5b600160a060020a0384166000908152602760205260409020548214611c6757600080fd5b600160a060020a038416600090815260236020526040902054611c90908463ffffffff61442f16565b600160a060020a0385166000908152602360209081526040808320939093556025815282822085835290522054611ccd908463ffffffff614c3e16565b600160a060020a0385166000818152602560209081526040808320878452825291829020939093558051868152928301859052805191927fe62430bd00d68dd82de89addd3b7e4ce6bd50eb278f53dfb7fa7dac47643098d929081900390910190a25060019392505050565b601654600160a060020a031681565b6000546001546040805160e260020a633d9abf2b028152336004820152600160a060020a0393841660248201529290911660448301525173__AOLibrary_____________________________9163f66afcac916064808301926020929190829003018186803b158015611dba57600080fd5b505af4158015611dce573d6000803e3d6000fd5b505050506040513d6020811015611de457600080fd5b50511515611df157600080fd5b600160a060020a0381161515611e0657600080fd5b60048054600160a060020a0319908116600160a060020a03938416179182905560078054929093169116179055565b600160a060020a0383166000908152601060209081526040808320338452909152812054821115611e6557600080fd5b600160a060020a0384166000908152601060209081526040808320338452909152902080548390039055611e9a848484614dfe565b5060019392505050565b600160a060020a031660009081526027602052604090205490565b601f5481565b600a5460ff1681565b3360009081526002602052604081205460ff161515600114611eef57600080fd5b600160a060020a0383166000908152600f6020526040902054821115611f1457600080fd5b600160a060020a0383166000908152600f6020526040902054611f3d908363ffffffff61442f16565b600160a060020a0384166000908152600f6020908152604080832093909355601290522054611f72908363ffffffff614c3e16565b600160a060020a038416600081815260126020908152604091829020939093558051858152905191927febedb8b3c678666e7f36970bc8f57abf6d8fa2e828c0da91ea5b75bf68ed101a92918290030190a250600192915050565b60225481565b601a54604080517ff5bd48c4000000000000000000000000000000000000000000000000000000008152600160a060020a03848116600483015291516000938493169163f5bd48c491602480830192602092919082900301818787803b15801561203c57600080fd5b505af1158015612050573d6000803e3d6000fd5b505050506040513d602081101561206657600080fd5b505111612074576000611557565b50600160a060020a031660009081526028602052604090205490565b3360009081526002602052604081205460ff1615156001146120b157600080fd5b6120bb8383614fe6565b50600192915050565b336000908152600f60205260408120548211156120e057600080fd5b336000818152600f602090815260409182902080548690039055600b80548690039055815185815291517fcc16f5dbb4873280815c1ee09dbd06736cffcc184412cf7a71a0fdb75d397ca59281900390910190a2506001919050565b600d5481565b600154600160a060020a031681565b60136020526000908152604090205481565b6000546001546040805160e260020a633d9abf2b028152336004820152600160a060020a0393841660248201529290911660448301525173__AOLibrary_____________________________9163f66afcac916064808301926020929190829003018186803b1580156121d557600080fd5b505af41580156121e9573d6000803e3d6000fd5b505050506040513d60208110156121ff57600080fd5b5051151561220c57600080fd5b600160a060020a038216151561222157600080fd5b600160a060020a03919091166000908152600260205260409020805460ff1916911515919091179055565b60236020526000908152604090205481565b6000546001546040805160e260020a633d9abf2b028152336004820152600160a060020a0393841660248201529290911660448301525173__AOLibrary_____________________________9163f66afcac916064808301926020929190829003018186803b1580156122d057600080fd5b505af41580156122e4573d6000803e3d6000fd5b505050506040513d60208110156122fa57600080fd5b5051151561230757600080fd5b600160a060020a038116151561231c57600080fd5b60018054600160a060020a0319908116600160a060020a03938416179182905560058054929093169116179055565b60126020526000908152604090205481565b6000546001546040805160e260020a633d9abf2b028152336004820152600160a060020a0393841660248201529290911660448301525173__AOLibrary_____________________________9163f66afcac916064808301926020929190829003018186803b1580156123cf57600080fd5b505af41580156123e3573d6000803e3d6000fd5b505050506040513d60208110156123f957600080fd5b5051151561240657600080fd5b60265460ff161561241657600080fd5b6026805460ff191660011790556040517ff39a948556de51164a82b6d174bdfa5d3006e0e4c261be48ddd5010c88e66d4090600090a1565b6603fffffffffffc81565b6000546001546040805160e260020a633d9abf2b028152336004820152600160a060020a0393841660248201529290911660448301525173__AOLibrary_____________________________9163f66afcac916064808301926020929190829003018186803b1580156124cb57600080fd5b505af41580156124df573d6000803e3d6000fd5b505050506040513d60208110156124f557600080fd5b5051151561250257600080fd5b600160a060020a038116151561251757600080fd5b60038054600160a060020a0319908116600160a060020a03938416179182905560068054929093169116179055565b600f6020526000908152604090205481565b60205481565b3360009081526002602052604081205460ff16151560011461257f57600080fd5b600160a060020a0383166000908152601260205260409020548211156125a457600080fd5b600160a060020a0383166000908152601260205260409020546125cd908363ffffffff61442f16565b600160a060020a038416600090815260126020908152604080832093909355600f90522054612602908363ffffffff614c3e16565b600160a060020a0384166000818152600f6020908152604091829020939093558051858152905191927f85082129d87b2fe11527cb1b3b7a520aeb5aa6913f88a3d8757fe40d1db02fdd92918290030190a250600192915050565b600160a060020a0382166000908152600f602052604081205482111561268257600080fd5b600160a060020a03831660009081526010602090815260408083203384529091529020548211156126b257600080fd5b600160a060020a0383166000818152600f60209081526040808320805487900390556010825280832033845282529182902080548690039055600b80548690039055815185815291517fcc16f5dbb4873280815c1ee09dbd06736cffcc184412cf7a71a0fdb75d397ca59281900390910190a250600192915050565b600073__AOLibrary_____________________________632d706a34866040518263ffffffff1660e060020a0281526004018082600160a060020a0316600160a060020a0316815260200191505060206040518083038186803b15801561279457600080fd5b505af41580156127a8573d6000803e3d6000fd5b505050506040513d60208110156127be57600080fd5b505115156127cb57600080fd5b600554604080517f71ce52ed000000000000000000000000000000000000000000000000000000008152336004820152600160a060020a038881166024830152915191909216916371ce52ed9160448083019260209291908290030181600087803b15801561283957600080fd5b505af115801561284d573d6000803e3d6000fd5b505050506040513d602081101561286357600080fd5b5051151561287057600080fd5b600754604080517f3ebc2ab3000000000000000000000000000000000000000000000000000000008152600160a060020a03888116600483015291519190921691633ebc2ab39160248083019260209291908290030181600087803b1580156128d857600080fd5b505af11580156128ec573d6000803e3d6000fd5b505050506040513d602081101561290257600080fd5b50511561290e57600080fd5b6006546040805160e260020a632920491f028152600160a060020a03888116600483015287811660248301529151919092169163a481247c9160448083019260209291908290030181600087803b15801561296857600080fd5b505af115801561297c573d6000803e3d6000fd5b505050506040513d602081101561299257600080fd5b5051151561299f57600080fd5b6006546040805160e260020a632920491f028152600160a060020a03888116600483015286811660248301529151919092169163a481247c9160448083019260209291908290030181600087803b1580156129f957600080fd5b505af1158015612a0d573d6000803e3d6000fd5b505050506040513d6020811015612a2357600080fd5b50511515612a3057600080fd5b612a3b848484614dfe565b506001949350505050565b601d5481565b600e5481565b3360009081526002602052604081205460ff161515600114612a7357600080fd5b600160a060020a0384166000908152600f6020526040902054821115612a9857600080fd5b600160a060020a0384166000908152600f6020526040902054612ac1908363ffffffff61442f16565b600160a060020a038086166000908152600f6020908152604080832094909455918616815260139091522054612afd908363ffffffff614c3e16565b600160a060020a0380851660008181526013602090815260409182902094909455805186815290519193928816927f812c3251d8b2cd027716a7651ace6f9167d7fba4db9eb10df2e0cfe8b7fa48c992918290030190a35060019392505050565b3360009081526002602052604081205460ff161515600114612b7f57600080fd5b600160a060020a038316600090815260136020526040902054821115612ba457600080fd5b600160a060020a038316600090815260136020526040902054612bcd908363ffffffff61442f16565b600160a060020a038416600090815260136020908152604080832093909355600f90522054612c02908363ffffffff614c3e16565b600160a060020a0384166000818152600f6020908152604091829020939093558051858152905191927f85538b0b045118ba300aa14d9701eab875903dd2976d62d855ec959a3e6cffb192918290030190a250600192915050565b6009805460408051602060026001851615610100026000190190941693909304601f810184900484028201840190925281815292918301828280156111d85780601f106111ad576101008083540402835291602001916111d8565b60026020526000908152604090205460ff1681565b6000610faf602054612cdd610f91565b9063ffffffff6150ba16565b3360009081526002602052604081205460ff161515600114612d0a57600080fd5b612d15848484614441565b949350505050565b3360009081526002602052604081205460ff161515600114612d3e57600080fd5b611e9a848484614dfe565b60215481565b600454600160a060020a031681565b60265460ff1681565b600080600e54111515612d7957600080fd5b600e54612d8d90349063ffffffff6150e316565b9050612d9a303383614dfe565b50565b60006120bb338484614dfe565b6000546001546040805160e260020a633d9abf2b028152336004820152600160a060020a0393841660248201529290911660448301525173__AOLibrary_____________________________9163f66afcac916064808301926020929190829003018186803b158015612e1c57600080fd5b505af4158015612e30573d6000803e3d6000fd5b505050506040513d6020811015612e4657600080fd5b50511515612e5357600080fd5b601f91909155602055565b601954600160a060020a031681565b600054600160a060020a031681565b601454600160a060020a031681565b601e5481565b600160a060020a0383166000908152602460209081526040808320338452909152812054821115612ec157600080fd5b600160a060020a0384166000908152602460209081526040808320338452909152902054612ef5908363ffffffff61442f16565b600160a060020a0385166000908152602460209081526040808320338452909152902055612d15848484614441565b3360009081526002602052604081205460ff161515600114612f4557600080fd5b600160a060020a0383166000908152600f6020526040902054821115612f6a57600080fd5b600160a060020a0383166000908152600f6020526040902054612f93908363ffffffff61442f16565b600160a060020a0384166000908152600f6020526040902055600b54612fbf908363ffffffff61442f16565b600b55604080518381529051600160a060020a038516917fcc16f5dbb4873280815c1ee09dbd06736cffcc184412cf7a71a0fdb75d397ca5919081900360200190a250600192915050565b6000546001546040805160e260020a633d9abf2b028152336004820152600160a060020a0393841660248201529290911660448301525173__AOLibrary_____________________________9163f66afcac916064808301926020929190829003018186803b15801561307c57600080fd5b505af4158015613090573d6000803e3d6000fd5b505050506040513d60208110156130a657600080fd5b505115156130b357600080fd5b60188054600160a060020a03938416600160a060020a03199182161790915560198054929093169116179055565b60116020526000908152604090205460ff1681565b6000613103338484614441565b9392505050565b600160a060020a03821660009081526023602052604081205482111561312f57600080fd5b600160a060020a038316600090815260246020908152604080832033845290915290205482111561315f57600080fd5b8161316984613cb3565b101561317457600080fd5b61317e838361352d565b600160a060020a0384166000908152602760209081526040808320939093556023905220546131b3908363ffffffff61442f16565b600160a060020a03841660009081526023602090815260408083209390935560248152828220338352905220546131f0908363ffffffff61442f16565b600160a060020a0384166000908152602460209081526040808320338452909152902055601d54613227908363ffffffff61442f16565b601d55601a54600160a060020a0384811660008181526027602090815260408083205481517f30a331d100000000000000000000000000000000000000000000000000000000815260048101959095526024850189905260448501525193909416936330a331d193606480850194929391928390030190829087803b1580156132af57600080fd5b505af11580156132c3573d6000803e3d6000fd5b505050506040513d60208110156132d957600080fd5b505115156132e657600080fd5b604080518381529051600160a060020a038516917f8ca2ca4355ea7f1e1880fa3d5f2dc524f82297c88282d5d95badd4041b8a8edb919081900360200190a250600192915050565b60008361333b81856114f6565b1561343f576040517f8f4ffcb10000000000000000000000000000000000000000000000000000000081523360048201818152602483018790523060448401819052608060648501908152875160848601528751600160a060020a03871695638f4ffcb195948b94938b939192909160a490910190602085019080838360005b838110156133d35781810151838201526020016133bb565b50505050905090810190601f1680156134005780820380516001836020036101000a031916815260200191505b5095505050505050600060405180830381600087803b15801561342257600080fd5b505af1158015613436573d6000803e3d6000fd5b50505050600191505b509392505050565b600160a060020a038216600090815260236020908152604080832054602783528184205482517f7fbc9c550000000000000000000000000000000000000000000000000000000081526004810192909252602482015260448101859052905173__AOLibrary_____________________________92637fbc9c559260648082019391829003018186803b1580156134dd57600080fd5b505af41580156134f1573d6000803e3d6000fd5b505050506040513d602081101561350757600080fd5b50519392505050565b602460209081526000928352604080842090915290825290205481565b60008161353984613cb3565b101561354457600080fd5b600160a060020a03831660009081526023602090815260408083205460278352928190205481517f32363e0a00000000000000000000000000000000000000000000000000000000815260048101949094526024840152604483018590525173__AOLibrary_____________________________926332363e0a926064808301939192829003018186803b1580156134dd57600080fd5b6000546001546040805160e260020a633d9abf2b028152336004820152600160a060020a0393841660248201529290911660448301525173__AOLibrary_____________________________9163f66afcac916064808301926020929190829003018186803b15801561364d57600080fd5b505af4158015613661573d6000803e3d6000fd5b505050506040513d602081101561367757600080fd5b5051151561368457600080fd5b600160a060020a038116151561369957600080fd5b60178054600160a060020a03909216600160a060020a03199283168117909155601c8054909216179055565b6000546001546040805160e260020a633d9abf2b028152336004820152600160a060020a0393841660248201529290911660448301525173__AOLibrary_____________________________9163f66afcac916064808301926020929190829003018186803b15801561373757600080fd5b505af415801561374b573d6000803e3d6000fd5b505050506040513d602081101561376157600080fd5b5051151561376e57600080fd5b600160a060020a038116151561378357600080fd5b60148054600160a060020a03909216600160a060020a03199283168117909155601a8054909216179055565b6000546001546040805160e260020a633d9abf2b028152336004820152600160a060020a0393841660248201529290911660448301525173__AOLibrary_____________________________9163f66afcac916064808301926020929190829003018186803b15801561382157600080fd5b505af4158015613835573d6000803e3d6000fd5b505050506040513d602081101561384b57600080fd5b5051151561385857600080fd5b604080517f2fca5414000000000000000000000000000000000000000000000000000000008152600160a060020a0383166004820152905173__AOLibrary_____________________________91632fca5414916024808301926020929190829003018186803b1580156138cb57600080fd5b505af41580156138df573d6000803e3d6000fd5b505050506040513d60208110156138f557600080fd5b5051151561390257600080fd5b60158054600160a060020a031916600160a060020a0392909216919091179055565b3360009081526002602052604081205460ff16151560011461394557600080fd5b600160a060020a03831660009081526013602052604090205461396e908363ffffffff614c3e16565b600160a060020a038416600090815260136020526040902055600b5461399a908363ffffffff614c3e16565b600b55604080518381529051600160a060020a0385169130917f812c3251d8b2cd027716a7651ace6f9167d7fba4db9eb10df2e0cfe8b7fa48c99181900360200190a350600192915050565b600354600160a060020a031681565b601060209081526000928352604080842090915290825290205481565b600080600d54111515613a2457600080fd5b50600d543090613a3b90839063ffffffff6150ba16565b600160a060020a038216311015613a5157600080fd5b613a5c333084614dfe565b600d5433906108fc90613a7690859063ffffffff6150ba16565b6040518115909202916000818181858888f19350505050158015613a9e573d6000803e3d6000fd5b505050565b6000546001546040805160e260020a633d9abf2b028152336004820152600160a060020a0393841660248201529290911660448301525173__AOLibrary_____________________________9163f66afcac916064808301926020929190829003018186803b158015613b1557600080fd5b505af4158015613b29573d6000803e3d6000fd5b505050506040513d6020811015613b3f57600080fd5b50511515613b4c57600080fd5b600160a060020a038216600081815260116020908152604091829020805460ff191685151590811790915582519384529083015280517f48335238b4855f35377ed80f164e8c6f3c366e54ac00b96a6402d4a9814a03a59281900390910190a15050565b601554600160a060020a031681565b6000546001546040805160e260020a633d9abf2b028152336004820152600160a060020a0393841660248201529290911660448301525173__AOLibrary_____________________________9163f66afcac916064808301926020929190829003018186803b158015613c3157600080fd5b505af4158015613c45573d6000803e3d6000fd5b505050506040513d6020811015613c5b57600080fd5b50511515613c6857600080fd5b600160a060020a0382161515613c7d57600080fd5b604051600160a060020a0383169082156108fc029083906000818181858888f19350505050158015613a9e573d6000803e3d6000fd5b600160a060020a0381166000908152602360209081526040808320546027835281842054602884528285205483517f4d5a1173000000000000000000000000000000000000000000000000000000008152600481019390935260248301919091526044820152905173__AOLibrary_____________________________92634d5a11739260648082019391829003018186803b158015613d5257600080fd5b505af4158015613d66573d6000803e3d6000fd5b505050506040513d6020811015613d7c57600080fd5b505192915050565b60008361333b81856143c9565b6000546001546040805160e260020a633d9abf2b028152336004820152600160a060020a0393841660248201529290911660448301525173__AOLibrary_____________________________9163f66afcac916064808301926020929190829003018186803b158015613e0357600080fd5b505af4158015613e17573d6000803e3d6000fd5b505050506040513d6020811015613e2d57600080fd5b50511515613e3a57600080fd5b600160a060020a0381161515613e4f57600080fd5b60008054600160a060020a031916600160a060020a0392909216919091179055565b3360009081526002602052604081205460ff161515600114613e9257600080fd5b600160a060020a0384166000908152602560209081526040808320858452909152902054831115613ec257600080fd5b600160a060020a0384166000908152602560209081526040808320858452909152902054613ef6908463ffffffff61442f16565b600160a060020a038516600081815260256020908152604080832087845282528083209490945591815260239091522054613f37908463ffffffff614c3e16565b600160a060020a038516600081815260236020908152604091829020939093558051868152928301859052805191927f7bcdc377a1fa8b0dd654d64d7337143be4ce1250ada31f3b1cdac27dea65d3a3929081900390910190a25060019392505050565b602654600090819081908190349060019060ff16158015613fc457506603fffffffffffc601e54105b8015613fd257506000602054115b8015613fde5750600082115b8015613ff157506000613fef612ccd565b115b801561409f575080801561400c5750600061400a6142c5565b115b8061409f57508015801561409f5750601c60009054906101000a9004600160a060020a0316600160a060020a03166318160ddd6040518163ffffffff1660e060020a028152600401602060405180830381600087803b15801561406e57600080fd5b505af1158015614082573d6000803e3d6000fd5b505050506040513d602081101561409857600080fd5b5051602254105b15156140aa57600080fd5b6140b5346001614b32565b91975095509350600086116140c957600080fd5b8315614106576026805460ff191660011790556040517ff39a948556de51164a82b6d174bdfa5d3006e0e4c261be48ddd5010c88e66d4090600090a15b614128614119348763ffffffff61442f16565b6021549063ffffffff614c3e16565b6021556141358633614c4b565b60408051600181523460208201528082018890529051919450849133917f93e54450ea3b34de5171ce978678ebbda145946c245afccc3cc22161dcf8d4aa919081900360600190a360008511156141b557604051339086156108fc029087906000818181858888f193505050501580156141b3573d6000803e3d6000fd5b505b505050505050565b336000908152600f60205260408120548211156141d957600080fd5b6141e33383613447565b336000908152602760205260409020556141fc826120c4565b5061420733836150f8565b601a543360008181526027602090815260408083205481517f424cfd21000000000000000000000000000000000000000000000000000000008152600481019590955260248501889052604485015251600160a060020a039094169363424cfd2193606480820194918390030190829087803b15801561428657600080fd5b505af115801561429a573d6000803e3d6000fd5b505050506040513d60208110156142b057600080fd5b505115156142bd57600080fd5b506001919050565b60008060006142d2612ccd565b11156143b15761438061436c602254601c60009054906101000a9004600160a060020a0316600160a060020a03166318160ddd6040518163ffffffff1660e060020a028152600401602060405180830381600087803b15801561433457600080fd5b505af1158015614348573d6000803e3d6000fd5b505050506040513d602081101561435e57600080fd5b50519063ffffffff61442f16565b614374612ccd565b9063ffffffff61442f16565b905061438a610f91565b600114801561439a575060205481105b156143a95760205491506143b6565b8091506143b6565b600091505b5090565b601754600160a060020a031681565b336000818152602460209081526040808320600160a060020a038716808552908352818420869055815186815291519394909390927f199f64ba6278b91ed8e7f45335d9fdbfa2d094b1fdc34465229e79047fcea3ce928290030190a350600192915050565b60008282111561443b57fe5b50900390565b600160a060020a0383166000908152602760205260408120548190819061446b90869086906151cc565b601a54604080517f080e74f7000000000000000000000000000000000000000000000000000000008152600481018490529051929450600160a060020a039091169163080e74f7916024808201926080929091908290030181600087803b1580156144d557600080fd5b505af11580156144e9573d6000803e3d6000fd5b505050506040513d60808110156144ff57600080fd5b50602001519050600160a060020a038082169086161461451e57600080fd5b600160a060020a038086166000908152602760208181526040808420546023835281852054958c168552928252928390205483517f8cf3313f00000000000000000000000000000000000000000000000000000000815260048101939093526024830194909452604482019390935260648101879052905173__AOLibrary_____________________________92638cf3313f9260848082019391829003018186803b1580156145cd57600080fd5b505af41580156145e1573d6000803e3d6000fd5b505050506040513d60208110156145f757600080fd5b5051600160a060020a03861660009081526027602052604090205561461d868686615354565b151561462857600080fd5b50600195945050505050565b601b546015546040805160e260020a631c196fb7028152600160a060020a03928316600482015260248101829052601c60448201527f7374617274696e675072696d6f726469616c4d756c7469706c696572000000006064820152905160009384938493849384938493849384939190921691637065bedc916084808301928692919082900301818387803b1580156146cc57600080fd5b505af11580156146e0573d6000803e3d6000fd5b505050506040513d6000823e601f3d908101601f1916820160405260a081101561470957600080fd5b81516020830151604084015160608501516080860180519496939592949193928301929164010000000081111561473f57600080fd5b8201602081018481111561475257600080fd5b815164010000000081118282018710171561476c57600080fd5b5050601b546015546040805160e260020a631c196fb7028152600160a060020a03928316600482015260248101829052601a60448201527f656e64696e675072696d6f726469616c4d756c7469706c696572000000000000606482015290519a9e50911698637065bedc985060848083019850600097509095509085900301925083915084905087803b15801561480257600080fd5b505af1158015614816573d6000803e3d6000fd5b505050506040513d6000823e601f3d908101601f1916820160405260a081101561483f57600080fd5b81516020830151604084015160608501516080860180519496939592949193928301929164010000000081111561487557600080fd5b8201602081018481111561488857600080fd5b81516401000000008111828201871017156148a257600080fd5b5050601b546015546040805160e260020a631c196fb7028152600160a060020a03928316600482015260248101829052601e60448201527f7374617274696e674e6574776f726b426f6e75734d756c7469706c6965720000606482015290519a9d50911698637065bedc985060848083019850600097509095509085900301925083915084905087803b15801561493857600080fd5b505af115801561494c573d6000803e3d6000fd5b505050506040513d6000823e601f3d908101601f1916820160405260a081101561497557600080fd5b8151602083015160408401516060850151608086018051949693959294919392830192916401000000008111156149ab57600080fd5b820160208101848111156149be57600080fd5b81516401000000008111828201871017156149d857600080fd5b5050601b546015546040805160e260020a631c196fb7028152600160a060020a03928316600482015260248101829052601c60448201527f656e64696e674e6574776f726b426f6e75734d756c7469706c69657200000000606482015290519a9c50911698637065bedc985060848083019850600097509095509085900301925083915084905087803b158015614a6e57600080fd5b505af1158015614a82573d6000803e3d6000fd5b505050506040513d6000823e601f3d908101601f1916820160405260a0811015614aab57600080fd5b815160208301516040840151606085015160808601805194969395929491939283019291640100000000811115614ae157600080fd5b82016020810184811115614af457600080fd5b8151640100000000811182820187101715614b0e57600080fd5b50509291905050505050505090508383838397509750975097505050505090919293565b6000806000806000806000614b526020548a6150e390919063ffffffff16565b9350614b79614b6c602054866150ba90919063ffffffff16565b8a9063ffffffff61442f16565b9250614b836142c5565b9150878015614b985750614b956142c5565b89115b15614bce57602054614bb190839063ffffffff6150e316565b9350614bcb614b6c602054866150ba90919063ffffffff16565b92505b50601e546000906603fffffffffffc90614bee908663ffffffff614c3e16565b10614c2f57601e54614c0e906603fffffffffffc9063ffffffff61442f16565b935060019050614c2c614b6c602054866150ba90919063ffffffff16565b92505b92989197509195509350505050565b8181018281101561155757fe5b600080600080600080600080600080614c62614634565b99509950509850614c728c611563565b955095509550614c8d8c601e54614c3e90919063ffffffff16565b601e55614c9c8b8d8887615537565b9250614cae898763ffffffff61442f16565b9150614d5673__AOLibrary_____________________________63caf297656040518163ffffffff1660e060020a02815260040160206040518083038186803b158015614cfa57600080fd5b505af4158015614d0e573d6000803e3d6000fd5b505050506040513d6020811015614d2457600080fd5b5051614d4a8e612cdd8b614d3e8e8c63ffffffff61442f16565b9063ffffffff614c3e16565b9063ffffffff6150e316565b601854909150600160a060020a031615614da457601854614da290600160a060020a0316614d8b8e600263ffffffff6150e316565b84614d9d85600263ffffffff6150e316565b615537565b505b601954600160a060020a031615614dd857601954614dd690600160a060020a0316614d8b8e600263ffffffff6150e316565b505b600054614dee90600160a060020a031682614fe6565b50909a9950505050505050505050565b6000600160a060020a0383161515614e1557600080fd5b600160a060020a0384166000908152600f6020526040902054821115614e3a57600080fd5b600160a060020a0383166000908152600f6020526040902054614e63818463ffffffff614c3e16565b1015614e6e57600080fd5b600160a060020a03841660009081526011602052604090205460ff1615614e9457600080fd5b600160a060020a03831660009081526011602052604090205460ff1615614eba57600080fd5b600160a060020a038084166000908152600f6020526040808220549287168252902054614eec9163ffffffff614c3e16565b600160a060020a0385166000908152600f6020526040902054909150614f18908363ffffffff61442f16565b600160a060020a038086166000908152600f60205260408082209390935590851681522054614f4d908363ffffffff614c3e16565b600160a060020a038085166000818152600f602090815260409182902094909455805186815290519193928816927fddf252ad1be2c89b69c2b068fc378daa952ba7f163c4a11628f55a4df523b3ef92918290030190a3600160a060020a038084166000908152600f60205260408082205492871682529020548291614fd9919063ffffffff614c3e16565b14614fe057fe5b50505050565b600160a060020a0382166000908152600f602052604090205461500f908263ffffffff614c3e16565b600160a060020a0383166000908152600f6020526040902055600b5461503b908263ffffffff614c3e16565b600b5560408051828152905130916000917fddf252ad1be2c89b69c2b068fc378daa952ba7f163c4a11628f55a4df523b3ef9181900360200190a3604080518281529051600160a060020a0384169130917fddf252ad1be2c89b69c2b068fc378daa952ba7f163c4a11628f55a4df523b3ef9181900360200190a35050565b60008215156150cb57506000611557565b508181028183828115156150db57fe5b041461155757fe5b600081838115156150f057fe5b049392505050565b600160a060020a038216600090815260236020526040902054615121908263ffffffff614c3e16565b600160a060020a038316600090815260236020526040902055601d5461514d908263ffffffff614c3e16565b601d5560408051828152905130916000917fa906a7bdab67ba77819fbd926440353e67b66c398aaeffd1fd212ddae941bbe29181900360200190a3604080518281529051600160a060020a0384169130917fa906a7bdab67ba77819fbd926440353e67b66c398aaeffd1fd212ddae941bbe29181900360200190a35050565b600080600160a060020a03851615156151e457600080fd5b600084116151f157600080fd5b601a54604080517f28948e5b000000000000000000000000000000000000000000000000000000008152600160a060020a0388811660048301526024820188905260448201879052915191909216916328948e5b9160648083019260209291908290030181600087803b15801561526757600080fd5b505af115801561527b573d6000803e3d6000fd5b505050506040513d602081101561529157600080fd5b5051601a54604080517ff5bd48c4000000000000000000000000000000000000000000000000000000008152600160a060020a038981166004830152915193945091169163f5bd48c4916024808201926020929091908290030181600087803b1580156152fd57600080fd5b505af1158015615311573d6000803e3d6000fd5b505050506040513d602081101561532757600080fd5b505160011415612d1557600160a060020a0385166000908152602860205260409020839055949350505050565b600080600160a060020a038416151561536c57600080fd5b600160a060020a03851660009081526023602052604090205483111561539157600080fd5b600160a060020a0384166000908152602360205260409020546153ba818563ffffffff614c3e16565b10156153c557600080fd5b600160a060020a03851660009081526011602052604090205460ff16156153eb57600080fd5b600160a060020a03841660009081526011602052604090205460ff161561541157600080fd5b600160a060020a038085166000908152602360205260408082205492881682529020546154439163ffffffff614c3e16565b600160a060020a03861660009081526023602052604090205490915061546f908463ffffffff61442f16565b600160a060020a0380871660009081526023602052604080822093909355908616815220546154a4908463ffffffff614c3e16565b600160a060020a0380861660008181526023602090815260409182902094909455805187815290519193928916927fa906a7bdab67ba77819fbd926440353e67b66c398aaeffd1fd212ddae941bbe292918290030190a3600160a060020a038085166000908152602360205260408082205492881682529020548291615530919063ffffffff614c3e16565b14612a3b57fe5b601a54604080517fd9c93ccd000000000000000000000000000000000000000000000000000000008152600160a060020a03878116600483015260248201879052604482018690526064820185905291516000938493169163d9c93ccd91608480830192602092919082900301818787803b1580156155b557600080fd5b505af11580156155c9573d6000803e3d6000fd5b505050506040513d60208110156155df57600080fd5b5051600160a060020a03871660009081526027602090815260408083205460238352928190205481517f8cf3313f0000000000000000000000000000000000000000000000000000000081526004810194909452602484015260448301889052606483018990525192935073__AOLibrary_____________________________92638cf3313f926084808201939291829003018186803b15801561568257600080fd5b505af4158015615696573d6000803e3d6000fd5b505050506040513d60208110156156ac57600080fd5b5051600160a060020a03808816600081815260276020908152604080832095909555601a5485517ff5bd48c400000000000000000000000000000000000000000000000000000000815260048101949094529451949093169363f5bd48c4936024808501949193918390030190829087803b15801561572a57600080fd5b505af115801561573e573d6000803e3d6000fd5b505050506040513d602081101561575457600080fd5b50516001141561577a57600160a060020a03861660009081526028602052604090208490555b61578486866150f8565b6114ed8684614fe65600a165627a7a72305820a8419c93d3924eeb71093eea93fe262a07c979a30be9c2d0590b643e3924730a0029",
	"source": "pragma solidity ^0.4.24;\n\nimport './SafeMath.sol';\nimport './AOLibrary.sol';\nimport './AOIonInterface.sol';\nimport './IAOIonLot.sol';\nimport './tokenRecipient.sol';\nimport './IAOSetting.sol';\nimport './AOETH.sol';\n\n/**\n * @title AOIon\n */\ncontract AOIon is AOIonInterface {\n\tusing SafeMath for uint256;\n\n\taddress public aoIonLotAddress;\n\taddress public settingTAOId;\n\taddress public aoSettingAddress;\n\taddress public aoethAddress;\n\n\t// AO Dev Team addresses to receive Primordial/Network Ions\n\taddress public aoDevTeam1 = 0x5C63644D01Ba385eBAc5bcf2DDc1e6dBC1182b52;\n\taddress public aoDevTeam2 = 0x156C79bf4347D1891da834Ea30662A14177CbF28;\n\n\tIAOIonLot internal _aoIonLot;\n\tIAOSetting internal _aoSetting;\n\tAOETH internal _aoeth;\n\n\t/***** PRIMORDIAL ION VARIABLES *****/\n\tuint256 public primordialTotalSupply;\n\tuint256 public primordialTotalBought;\n\tuint256 public primordialSellPrice;\n\tuint256 public primordialBuyPrice;\n\tuint256 public totalEthForPrimordial;\t// Total ETH sent for Primordial AO+\n\tuint256 public totalRedeemedAOETH;\t\t// Total AOETH redeemed for Primordial AO+\n\n\t// Total available primordial ion for sale 1,125,899,906,842,620 AO+\n\tuint256 constant public TOTAL_PRIMORDIAL_FOR_SALE = 1125899906842620;\n\n\tmapping (address => uint256) public primordialBalanceOf;\n\tmapping (address => mapping (address => uint256)) public primordialAllowance;\n\n\t// Mapping from owner's lot weighted multiplier to the amount of staked ions\n\tmapping (address => mapping (uint256 => uint256)) public primordialStakedBalance;\n\n\tevent PrimordialTransfer(address indexed from, address indexed to, uint256 value);\n\tevent PrimordialApproval(address indexed _owner, address indexed _spender, uint256 _value);\n\tevent PrimordialBurn(address indexed from, uint256 value);\n\tevent PrimordialStake(address indexed from, uint256 value, uint256 weightedMultiplier);\n\tevent PrimordialUnstake(address indexed from, uint256 value, uint256 weightedMultiplier);\n\n\tevent NetworkExchangeEnded();\n\n\tbool public networkExchangeEnded;\n\n\t// Mapping from owner to his/her current weighted multiplier\n\tmapping (address => uint256) internal ownerWeightedMultiplier;\n\n\t// Mapping from owner to his/her max multiplier (multiplier of account's first Lot)\n\tmapping (address => uint256) internal ownerMaxMultiplier;\n\n\t// Event to be broadcasted to public when user buys primordial ion\n\t// payWith 1 == with Ethereum\n\t// payWith 2 == with AOETH\n\tevent BuyPrimordial(address indexed lotOwner, bytes32 indexed lotId, uint8 payWith, uint256 sentAmount, uint256 refundedAmount);\n\n\t/**\n\t * @dev Constructor function\n\t */\n\tconstructor(string _name, string _symbol, address _settingTAOId, address _aoSettingAddress, address _nameTAOPositionAddress, address _namePublicKeyAddress, address _nameAccountRecoveryAddress)\n\t\tAOIonInterface(_name, _symbol, _nameTAOPositionAddress, _namePublicKeyAddress, _nameAccountRecoveryAddress) public {\n\t\tsetSettingTAOId(_settingTAOId);\n\t\tsetAOSettingAddress(_aoSettingAddress);\n\n\t\tpowerOfTen = 0;\n\t\tdecimals = 0;\n\t\tsetPrimordialPrices(0, 10000); // Set Primordial buy price to 10000 Wei/ion\n\t}\n\n\t/**\n\t * @dev Checks if buyer can buy primordial ion\n\t */\n\tmodifier canBuyPrimordial(uint256 _sentAmount, bool _withETH) {\n\t\trequire (networkExchangeEnded == false &&\n\t\t\tprimordialTotalBought < TOTAL_PRIMORDIAL_FOR_SALE &&\n\t\t\tprimordialBuyPrice > 0 &&\n\t\t\t_sentAmount > 0 &&\n\t\t\tavailablePrimordialForSaleInETH() > 0 &&\n\t\t\t(\n\t\t\t\t(_withETH && availableETH() > 0) ||\n\t\t\t\t(!_withETH && totalRedeemedAOETH < _aoeth.totalSupply())\n\t\t\t)\n\t\t);\n\t\t_;\n\t}\n\n\t/***** The AO ONLY METHODS *****/\n\t/**\n\t * @dev The AO sets AOIonLot address\n\t * @param _aoIonLotAddress The address of AOIonLot\n\t */\n\tfunction setAOIonLotAddress(address _aoIonLotAddress) public onlyTheAO {\n\t\trequire (_aoIonLotAddress != address(0));\n\t\taoIonLotAddress = _aoIonLotAddress;\n\t\t_aoIonLot = IAOIonLot(_aoIonLotAddress);\n\t}\n\n\t/**\n\t * @dev The AO sets setting TAO ID\n\t * @param _settingTAOId The new setting TAO ID to set\n\t */\n\tfunction setSettingTAOId(address _settingTAOId) public onlyTheAO {\n\t\trequire (AOLibrary.isTAO(_settingTAOId));\n\t\tsettingTAOId = _settingTAOId;\n\t}\n\n\t/**\n\t * @dev The AO sets AO Setting address\n\t * @param _aoSettingAddress The address of AOSetting\n\t */\n\tfunction setAOSettingAddress(address _aoSettingAddress) public onlyTheAO {\n\t\trequire (_aoSettingAddress != address(0));\n\t\taoSettingAddress = _aoSettingAddress;\n\t\t_aoSetting = IAOSetting(_aoSettingAddress);\n\t}\n\n\t/**\n\t * @dev Set AO Dev team addresses to receive Primordial/Network ions during network exchange\n\t * @param _aoDevTeam1 The first AO dev team address\n\t * @param _aoDevTeam2 The second AO dev team address\n\t */\n\tfunction setAODevTeamAddresses(address _aoDevTeam1, address _aoDevTeam2) public onlyTheAO {\n\t\taoDevTeam1 = _aoDevTeam1;\n\t\taoDevTeam2 = _aoDevTeam2;\n\t}\n\n\t/**\n\t * @dev Set AOETH address\n\t * @param _aoethAddress The address of AOETH\n\t */\n\tfunction setAOETHAddress(address _aoethAddress) public onlyTheAO {\n\t\trequire (_aoethAddress != address(0));\n\t\taoethAddress = _aoethAddress;\n\t\t_aoeth = AOETH(_aoethAddress);\n\t}\n\n\t/***** PRIMORDIAL ION THE AO ONLY METHODS *****/\n\t/**\n\t * @dev Allow users to buy Primordial ions for `newBuyPrice` eth and sell Primordial ions for `newSellPrice` eth\n\t * @param newPrimordialSellPrice Price users can sell to the contract\n\t * @param newPrimordialBuyPrice Price users can buy from the contract\n\t */\n\tfunction setPrimordialPrices(uint256 newPrimordialSellPrice, uint256 newPrimordialBuyPrice) public onlyTheAO {\n\t\tprimordialSellPrice = newPrimordialSellPrice;\n\t\tprimordialBuyPrice = newPrimordialBuyPrice;\n\t}\n\n\t/**\n\t * @dev Only the AO can force end network exchange\n\t */\n\tfunction endNetworkExchange() public onlyTheAO {\n\t\trequire (!networkExchangeEnded);\n\t\tnetworkExchangeEnded = true;\n\t\temit NetworkExchangeEnded();\n\t}\n\n\t/***** PRIMORDIAL ION WHITELISTED ADDRESS ONLY METHODS *****/\n\t/**\n\t * @dev Stake `_value` Primordial ions at `_weightedMultiplier ` multiplier on behalf of `_from`\n\t * @param _from The address of the target\n\t * @param _value The amount of Primordial ions to stake\n\t * @param _weightedMultiplier The weighted multiplier of the Primordial ions\n\t * @return true on success\n\t */\n\tfunction stakePrimordialFrom(address _from, uint256 _value, uint256 _weightedMultiplier) public inWhitelist returns (bool) {\n\t\t// Check if the targeted balance is enough\n\t\trequire (primordialBalanceOf[_from] >= _value);\n\t\t// Make sure the weighted multiplier is the same as account's current weighted multiplier\n\t\trequire (_weightedMultiplier == ownerWeightedMultiplier[_from]);\n\t\t// Subtract from the targeted balance\n\t\tprimordialBalanceOf[_from] = primordialBalanceOf[_from].sub(_value);\n\t\t// Add to the targeted staked balance\n\t\tprimordialStakedBalance[_from][_weightedMultiplier] = primordialStakedBalance[_from][_weightedMultiplier].add(_value);\n\t\temit PrimordialStake(_from, _value, _weightedMultiplier);\n\t\treturn true;\n\t}\n\n\t/**\n\t * @dev Unstake `_value` Primordial ions at `_weightedMultiplier` on behalf of `_from`\n\t * @param _from The address of the target\n\t * @param _value The amount to unstake\n\t * @param _weightedMultiplier The weighted multiplier of the Primordial ions\n\t * @return true on success\n\t */\n\tfunction unstakePrimordialFrom(address _from, uint256 _value, uint256 _weightedMultiplier) public inWhitelist returns (bool) {\n\t\t// Check if the targeted staked balance is enough\n\t\trequire (primordialStakedBalance[_from][_weightedMultiplier] >= _value);\n\t\t// Subtract from the targeted staked balance\n\t\tprimordialStakedBalance[_from][_weightedMultiplier] = primordialStakedBalance[_from][_weightedMultiplier].sub(_value);\n\t\t// Add to the targeted balance\n\t\tprimordialBalanceOf[_from] = primordialBalanceOf[_from].add(_value);\n\t\temit PrimordialUnstake(_from, _value, _weightedMultiplier);\n\t\treturn true;\n\t}\n\n\t/**\n\t * @dev Send `_value` primordial ions to `_to` on behalf of `_from`\n\t * @param _from The address of the sender\n\t * @param _to The address of the recipient\n\t * @param _value The amount to send\n\t * @return true on success\n\t */\n\tfunction whitelistTransferPrimordialFrom(address _from, address _to, uint256 _value) public inWhitelist returns (bool) {\n\t\treturn _createLotAndTransferPrimordial(_from, _to, _value);\n\t}\n\n\t/***** PUBLIC METHODS *****/\n\t/***** PRIMORDIAL ION PUBLIC METHODS *****/\n\t/**\n\t * @dev Buy Primordial ions from contract by sending ether\n\t */\n\tfunction buyPrimordial() public payable canBuyPrimordial(msg.value, true) {\n\t\t(uint256 amount, uint256 remainderBudget, bool shouldEndNetworkExchange) = _calculateAmountAndRemainderBudget(msg.value, true);\n\t\trequire (amount > 0);\n\n\t\t// Ends network exchange if necessary\n\t\tif (shouldEndNetworkExchange) {\n\t\t\tnetworkExchangeEnded = true;\n\t\t\temit NetworkExchangeEnded();\n\t\t}\n\n\t\t// Update totalEthForPrimordial\n\t\ttotalEthForPrimordial = totalEthForPrimordial.add(msg.value.sub(remainderBudget));\n\n\t\t// Send the primordial ion to buyer and reward AO devs\n\t\tbytes32 _lotId = _sendPrimordialAndRewardDev(amount, msg.sender);\n\n\t\temit BuyPrimordial(msg.sender, _lotId, 1, msg.value, remainderBudget);\n\n\t\t// Send remainder budget back to buyer if exist\n\t\tif (remainderBudget > 0) {\n\t\t\tmsg.sender.transfer(remainderBudget);\n\t\t}\n\t}\n\n\t/**\n\t * @dev Buy Primordial ion from contract by sending AOETH\n\t */\n\tfunction buyPrimordialWithAOETH(uint256 _aoethAmount) public canBuyPrimordial(_aoethAmount, false) {\n\t\t(uint256 amount, uint256 remainderBudget, bool shouldEndNetworkExchange) = _calculateAmountAndRemainderBudget(_aoethAmount, false);\n\t\trequire (amount > 0);\n\n\t\t// Ends network exchange if necessary\n\t\tif (shouldEndNetworkExchange) {\n\t\t\tnetworkExchangeEnded = true;\n\t\t\temit NetworkExchangeEnded();\n\t\t}\n\n\t\t// Calculate the actual AOETH that was charged for this transaction\n\t\tuint256 actualCharge = _aoethAmount.sub(remainderBudget);\n\n\t\t// Update totalRedeemedAOETH\n\t\ttotalRedeemedAOETH = totalRedeemedAOETH.add(actualCharge);\n\n\t\t// Transfer AOETH from buyer to here\n\t\trequire (_aoeth.whitelistTransferFrom(msg.sender, address(this), actualCharge));\n\n\t\t// Send the primordial ion to buyer and reward AO devs\n\t\tbytes32 _lotId = _sendPrimordialAndRewardDev(amount, msg.sender);\n\n\t\temit BuyPrimordial(msg.sender, _lotId, 2, _aoethAmount, remainderBudget);\n\t}\n\n\t/**\n\t * @dev Send `_value` Primordial ions to `_to` from your account\n\t * @param _to The address of the recipient\n\t * @param _value The amount to send\n\t * @return true on success\n\t */\n\tfunction transferPrimordial(address _to, uint256 _value) public returns (bool) {\n\t\treturn _createLotAndTransferPrimordial(msg.sender, _to, _value);\n\t}\n\n\t/**\n\t * @dev Send `_value` Primordial ions to `_to` from `_from`\n\t * @param _from The address of the sender\n\t * @param _to The address of the recipient\n\t * @param _value The amount to send\n\t * @return true on success\n\t */\n\tfunction transferPrimordialFrom(address _from, address _to, uint256 _value) public returns (bool) {\n\t\trequire (_value <= primordialAllowance[_from][msg.sender]);\n\t\tprimordialAllowance[_from][msg.sender] = primordialAllowance[_from][msg.sender].sub(_value);\n\n\t\treturn _createLotAndTransferPrimordial(_from, _to, _value);\n\t}\n\n\t/**\n\t * Transfer primordial ions between public key addresses in a Name\n\t * @param _nameId The ID of the Name\n\t * @param _from The address of the sender\n\t * @param _to The address of the recipient\n\t * @param _value the amount to send\n\t */\n\tfunction transferPrimordialBetweenPublicKeys(address _nameId, address _from, address _to, uint256 _value) public returns (bool) {\n\t\trequire (AOLibrary.isName(_nameId));\n\t\trequire (_nameTAOPosition.senderIsAdvocate(msg.sender, _nameId));\n\t\trequire (!_nameAccountRecovery.isCompromised(_nameId));\n\t\t// Make sure _from exist in the Name's Public Keys\n\t\trequire (_namePublicKey.isKeyExist(_nameId, _from));\n\t\t// Make sure _to exist in the Name's Public Keys\n\t\trequire (_namePublicKey.isKeyExist(_nameId, _to));\n\t\treturn _createLotAndTransferPrimordial(_from, _to, _value);\n\t}\n\n\t/**\n\t * @dev Allows `_spender` to spend no more than `_value` Primordial ions in your behalf\n\t * @param _spender The address authorized to spend\n\t * @param _value The max amount they can spend\n\t * @return true on success\n\t */\n\tfunction approvePrimordial(address _spender, uint256 _value) public returns (bool) {\n\t\tprimordialAllowance[msg.sender][_spender] = _value;\n\t\temit PrimordialApproval(msg.sender, _spender, _value);\n\t\treturn true;\n\t}\n\n\t/**\n\t * @dev Allows `_spender` to spend no more than `_value` Primordial ions in your behalf, and then ping the contract about it\n\t * @param _spender The address authorized to spend\n\t * @param _value The max amount they can spend\n\t * @param _extraData some extra information to send to the approved contract\n\t * @return true on success\n\t */\n\tfunction approvePrimordialAndCall(address _spender, uint256 _value, bytes _extraData) public returns (bool) {\n\t\ttokenRecipient spender = tokenRecipient(_spender);\n\t\tif (approvePrimordial(_spender, _value)) {\n\t\t\tspender.receiveApproval(msg.sender, _value, this, _extraData);\n\t\t\treturn true;\n\t\t}\n\t}\n\n\t/**\n\t * @dev Remove `_value` Primordial ions from the system irreversibly\n\t *\t\tand re-weight the account's multiplier after burn\n\t * @param _value The amount to burn\n\t * @return true on success\n\t */\n\tfunction burnPrimordial(uint256 _value) public returns (bool) {\n\t\trequire (primordialBalanceOf[msg.sender] >= _value);\n\t\trequire (calculateMaximumBurnAmount(msg.sender) >= _value);\n\n\t\t// Update the account's multiplier\n\t\townerWeightedMultiplier[msg.sender] = calculateMultiplierAfterBurn(msg.sender, _value);\n\t\tprimordialBalanceOf[msg.sender] = primordialBalanceOf[msg.sender].sub(_value);\n\t\tprimordialTotalSupply = primordialTotalSupply.sub(_value);\n\n\t\t// Store burn lot info\n\t\trequire (_aoIonLot.createBurnLot(msg.sender, _value, ownerWeightedMultiplier[msg.sender]));\n\t\temit PrimordialBurn(msg.sender, _value);\n\t\treturn true;\n\t}\n\n\t/**\n\t * @dev Remove `_value` Primordial ions from the system irreversibly on behalf of `_from`\n\t *\t\tand re-weight `_from`'s multiplier after burn\n\t * @param _from The address of sender\n\t * @param _value The amount to burn\n\t * @return true on success\n\t */\n\tfunction burnPrimordialFrom(address _from, uint256 _value) public returns (bool) {\n\t\trequire (primordialBalanceOf[_from] >= _value);\n\t\trequire (primordialAllowance[_from][msg.sender] >= _value);\n\t\trequire (calculateMaximumBurnAmount(_from) >= _value);\n\n\t\t// Update `_from`'s multiplier\n\t\townerWeightedMultiplier[_from] = calculateMultiplierAfterBurn(_from, _value);\n\t\tprimordialBalanceOf[_from] = primordialBalanceOf[_from].sub(_value);\n\t\tprimordialAllowance[_from][msg.sender] = primordialAllowance[_from][msg.sender].sub(_value);\n\t\tprimordialTotalSupply = primordialTotalSupply.sub(_value);\n\n\t\t// Store burn lot info\n\t\trequire (_aoIonLot.createBurnLot(_from, _value, ownerWeightedMultiplier[_from]));\n\t\temit PrimordialBurn(_from, _value);\n\t\treturn true;\n\t}\n\n\t/**\n\t * @dev Return the average weighted multiplier of all lots owned by an address\n\t * @param _lotOwner The address of the lot owner\n\t * @return the weighted multiplier of the address (in 10 ** 6)\n\t */\n\tfunction weightedMultiplierByAddress(address _lotOwner) public view returns (uint256) {\n\t\treturn ownerWeightedMultiplier[_lotOwner];\n\t}\n\n\t/**\n\t * @dev Return the max multiplier of an address\n\t * @param _target The address to query\n\t * @return the max multiplier of the address (in 10 ** 6)\n\t */\n\tfunction maxMultiplierByAddress(address _target) public view returns (uint256) {\n\t\treturn (_aoIonLot.totalLotsByAddress(_target) > 0) ? ownerMaxMultiplier[_target] : 0;\n\t}\n\n\t/**\n\t * @dev Calculate the primordial ion multiplier, bonus network ion percentage, and the\n\t *\t\tbonus network ion amount on a given lot when someone purchases primordial ion\n\t *\t\tduring network exchange\n\t * @param _purchaseAmount The amount of primordial ion intended to be purchased\n\t * @return The multiplier in (10 ** 6)\n\t * @return The bonus percentage\n\t * @return The amount of network ion as bonus\n\t */\n\tfunction calculateMultiplierAndBonus(uint256 _purchaseAmount) public view returns (uint256, uint256, uint256) {\n\t\t(uint256 startingPrimordialMultiplier, uint256 endingPrimordialMultiplier, uint256 startingNetworkBonusMultiplier, uint256 endingNetworkBonusMultiplier) = _getSettingVariables();\n\t\treturn (\n\t\t\tAOLibrary.calculatePrimordialMultiplier(_purchaseAmount, TOTAL_PRIMORDIAL_FOR_SALE, primordialTotalBought, startingPrimordialMultiplier, endingPrimordialMultiplier),\n\t\t\tAOLibrary.calculateNetworkBonusPercentage(_purchaseAmount, TOTAL_PRIMORDIAL_FOR_SALE, primordialTotalBought, startingNetworkBonusMultiplier, endingNetworkBonusMultiplier),\n\t\t\tAOLibrary.calculateNetworkBonusAmount(_purchaseAmount, TOTAL_PRIMORDIAL_FOR_SALE, primordialTotalBought, startingNetworkBonusMultiplier, endingNetworkBonusMultiplier)\n\t\t);\n\t}\n\n\t/**\n\t * @dev Calculate the maximum amount of Primordial an account can burn\n\t * @param _account The address of the account\n\t * @return The maximum primordial ion amount to burn\n\t */\n\tfunction calculateMaximumBurnAmount(address _account) public view returns (uint256) {\n\t\treturn AOLibrary.calculateMaximumBurnAmount(primordialBalanceOf[_account], ownerWeightedMultiplier[_account], ownerMaxMultiplier[_account]);\n\t}\n\n\t/**\n\t * @dev Calculate account's new multiplier after burn `_amountToBurn` primordial ions\n\t * @param _account The address of the account\n\t * @param _amountToBurn The amount of primordial ion to burn\n\t * @return The new multiplier in (10 ** 6)\n\t */\n\tfunction calculateMultiplierAfterBurn(address _account, uint256 _amountToBurn) public view returns (uint256) {\n\t\trequire (calculateMaximumBurnAmount(_account) >= _amountToBurn);\n\t\treturn AOLibrary.calculateMultiplierAfterBurn(primordialBalanceOf[_account], ownerWeightedMultiplier[_account], _amountToBurn);\n\t}\n\n\t/**\n\t * @dev Calculate account's new multiplier after converting `amountToConvert` network ion to primordial ion\n\t * @param _account The address of the account\n\t * @param _amountToConvert The amount of network ion to convert\n\t * @return The new multiplier in (10 ** 6)\n\t */\n\tfunction calculateMultiplierAfterConversion(address _account, uint256 _amountToConvert) public view returns (uint256) {\n\t\treturn AOLibrary.calculateMultiplierAfterConversion(primordialBalanceOf[_account], ownerWeightedMultiplier[_account], _amountToConvert);\n\t}\n\n\t/**\n\t * @dev Convert `_value` of network ions to primordial ions\n\t *\t\tand re-weight the account's multiplier after conversion\n\t * @param _value The amount to convert\n\t * @return true on success\n\t */\n\tfunction convertToPrimordial(uint256 _value) public returns (bool) {\n\t\trequire (balanceOf[msg.sender] >= _value);\n\n\t\t// Update the account's multiplier\n\t\townerWeightedMultiplier[msg.sender] = calculateMultiplierAfterConversion(msg.sender, _value);\n\t\t// Burn network ion\n\t\tburn(_value);\n\t\t// mint primordial ion\n\t\t_mintPrimordial(msg.sender, _value);\n\n\t\trequire (_aoIonLot.createConvertLot(msg.sender, _value, ownerWeightedMultiplier[msg.sender]));\n\t\treturn true;\n\t}\n\n\t/**\n\t * @dev Get quantity of AO+ left in Network Exchange\n\t * @return The quantity of AO+ left in Network Exchange\n\t */\n\tfunction availablePrimordialForSale() public view returns (uint256) {\n\t\treturn TOTAL_PRIMORDIAL_FOR_SALE.sub(primordialTotalBought);\n\t}\n\n\t/**\n\t * @dev Get quantity of AO+ in ETH left in Network Exchange (i.e How much ETH is there total that can be\n\t *\t\texchanged for AO+\n\t * @return The quantity of AO+ in ETH left in Network Exchange\n\t */\n\tfunction availablePrimordialForSaleInETH() public view returns (uint256) {\n\t\treturn availablePrimordialForSale().mul(primordialBuyPrice);\n\t}\n\n\t/**\n\t * @dev Get maximum quantity of AOETH or ETH that can still be sold\n\t * @return The maximum quantity of AOETH or ETH that can still be sold\n\t */\n\tfunction availableETH() public view returns (uint256) {\n\t\tif (availablePrimordialForSaleInETH() > 0) {\n\t\t\tuint256 _availableETH = availablePrimordialForSaleInETH().sub(_aoeth.totalSupply().sub(totalRedeemedAOETH));\n\t\t\tif (availablePrimordialForSale() == 1 && _availableETH < primordialBuyPrice) {\n\t\t\t\treturn primordialBuyPrice;\n\t\t\t} else {\n\t\t\t\treturn _availableETH;\n\t\t\t}\n\t\t} else {\n\t\t\treturn 0;\n\t\t}\n\t}\n\n\t/***** INTERNAL METHODS *****/\n\t/***** PRIMORDIAL ION INTERNAL METHODS *****/\n\t/**\n\t * @dev Calculate the amount of ion the buyer will receive and remaining budget if exist\n\t *\t\twhen he/she buys primordial ion\n\t * @param _budget The amount of ETH sent by buyer\n\t * @param _withETH Whether or not buyer is paying with ETH\n\t * @return uint256 of the amount the buyer will receiver\n\t * @return uint256 of the remaining budget, if exist\n\t * @return bool whether or not the network exchange should end\n\t */\n\tfunction _calculateAmountAndRemainderBudget(uint256 _budget, bool _withETH) internal view returns (uint256, uint256, bool) {\n\t\t// Calculate the amount of ion\n\t\tuint256 amount = _budget.div(primordialBuyPrice);\n\n\t\t// If we need to return ETH to the buyer, in the case\n\t\t// where the buyer sends more ETH than available primordial ion to be purchased\n\t\tuint256 remainderEth = _budget.sub(amount.mul(primordialBuyPrice));\n\n\t\tuint256 _availableETH = availableETH();\n\t\t// If paying with ETH, it can't exceed availableETH\n\t\tif (_withETH && _budget > availableETH()) {\n\t\t\t// Calculate the amount of ions\n\t\t\tamount = _availableETH.div(primordialBuyPrice);\n\t\t\tremainderEth = _budget.sub(amount.mul(primordialBuyPrice));\n\t\t}\n\n\t\t// Make sure primordialTotalBought is not overflowing\n\t\tbool shouldEndNetworkExchange = false;\n\t\tif (primordialTotalBought.add(amount) >= TOTAL_PRIMORDIAL_FOR_SALE) {\n\t\t\tamount = TOTAL_PRIMORDIAL_FOR_SALE.sub(primordialTotalBought);\n\t\t\tshouldEndNetworkExchange = true;\n\t\t\tremainderEth = _budget.sub(amount.mul(primordialBuyPrice));\n\t\t}\n\t\treturn (amount, remainderEth, shouldEndNetworkExchange);\n\t}\n\n\t/**\n\t * @dev Actually sending the primordial ion to buyer and reward AO devs accordingly\n\t * @param amount The amount of primordial ion to be sent to buyer\n\t * @param to The recipient of ion\n\t * @return the lot Id of the buyer\n\t */\n\tfunction _sendPrimordialAndRewardDev(uint256 amount, address to) internal returns (bytes32) {\n\t\t(uint256 startingPrimordialMultiplier,, uint256 startingNetworkBonusMultiplier, uint256 endingNetworkBonusMultiplier) = _getSettingVariables();\n\n\t\t// Update primordialTotalBought\n\t\t(uint256 multiplier, uint256 networkBonusPercentage, uint256 networkBonusAmount) = calculateMultiplierAndBonus(amount);\n\t\tprimordialTotalBought = primordialTotalBought.add(amount);\n\t\tbytes32 _lotId = _createPrimordialLot(to, amount, multiplier, networkBonusAmount);\n\n\t\t// Calculate The AO and AO Dev Team's portion of Primordial and Network ion Bonus\n\t\tuint256 inverseMultiplier = startingPrimordialMultiplier.sub(multiplier); // Inverse of the buyer's multiplier\n\t\tuint256 theAONetworkBonusAmount = (startingNetworkBonusMultiplier.sub(networkBonusPercentage).add(endingNetworkBonusMultiplier)).mul(amount).div(AOLibrary.PERCENTAGE_DIVISOR());\n\t\tif (aoDevTeam1 != address(0)) {\n\t\t\t_createPrimordialLot(aoDevTeam1, amount.div(2), inverseMultiplier, theAONetworkBonusAmount.div(2));\n\t\t}\n\t\tif (aoDevTeam2 != address(0)) {\n\t\t\t_createPrimordialLot(aoDevTeam2, amount.div(2), inverseMultiplier, theAONetworkBonusAmount.div(2));\n\t\t}\n\t\t_mint(theAO, theAONetworkBonusAmount);\n\t\treturn _lotId;\n\t}\n\n\t/**\n\t * @dev Create a lot with `primordialAmount` of primordial ions with `_multiplier` for an `account`\n\t *\t\tduring network exchange, and reward `_networkBonusAmount` if exist\n\t * @param _account Address of the lot owner\n\t * @param _primordialAmount The amount of primordial ions to be stored in the lot\n\t * @param _multiplier The multiplier for this lot in (10 ** 6)\n\t * @param _networkBonusAmount The network ion bonus amount\n\t * @return Created lot Id\n\t */\n\tfunction _createPrimordialLot(address _account, uint256 _primordialAmount, uint256 _multiplier, uint256 _networkBonusAmount) internal returns (bytes32) {\n\t\tbytes32 lotId = _aoIonLot.createPrimordialLot(_account, _primordialAmount, _multiplier, _networkBonusAmount);\n\n\t\townerWeightedMultiplier[_account] = AOLibrary.calculateWeightedMultiplier(ownerWeightedMultiplier[_account], primordialBalanceOf[_account], _multiplier, _primordialAmount);\n\n\t\t// If this is the first lot, set this as the max multiplier of the account\n\t\tif (_aoIonLot.totalLotsByAddress(_account) == 1) {\n\t\t\townerMaxMultiplier[_account] = _multiplier;\n\t\t}\n\t\t_mintPrimordial(_account, _primordialAmount);\n\t\t_mint(_account, _networkBonusAmount);\n\n\t\treturn lotId;\n\t}\n\n\t/**\n\t * @dev Create `mintedAmount` Primordial ions and send it to `target`\n\t * @param target Address to receive the Primordial ions\n\t * @param mintedAmount The amount of Primordial ions it will receive\n\t */\n\tfunction _mintPrimordial(address target, uint256 mintedAmount) internal {\n\t\tprimordialBalanceOf[target] = primordialBalanceOf[target].add(mintedAmount);\n\t\tprimordialTotalSupply = primordialTotalSupply.add(mintedAmount);\n\t\temit PrimordialTransfer(0, this, mintedAmount);\n\t\temit PrimordialTransfer(this, target, mintedAmount);\n\t}\n\n\t/**\n\t * @dev Create a lot with `amount` of ions at `weightedMultiplier` for an `account`\n\t * @param _account Address of lot owner\n\t * @param _amount The amount of ions\n\t * @param _weightedMultiplier The multiplier of the lot (in 10^6)\n\t * @return bytes32 of new created lot ID\n\t */\n\tfunction _createWeightedMultiplierLot(address _account, uint256 _amount, uint256 _weightedMultiplier) internal returns (bytes32) {\n\t\trequire (_account != address(0));\n\t\trequire (_amount > 0);\n\n\t\tbytes32 lotId = _aoIonLot.createWeightedMultiplierLot(_account, _amount, _weightedMultiplier);\n\t\t// If this is the first lot, set this as the max multiplier of the account\n\t\tif (_aoIonLot.totalLotsByAddress(_account) == 1) {\n\t\t\townerMaxMultiplier[_account] = _weightedMultiplier;\n\t\t}\n\t\treturn lotId;\n\t}\n\n\t/**\n\t * @dev Create Lot and send `_value` Primordial ions from `_from` to `_to`\n\t * @param _from The address of sender\n\t * @param _to The address of the recipient\n\t * @param _value The amount to send\n\t * @return true on success\n\t */\n\tfunction _createLotAndTransferPrimordial(address _from, address _to, uint256 _value) internal returns (bool) {\n\t\tbytes32 _createdLotId = _createWeightedMultiplierLot(_to, _value, ownerWeightedMultiplier[_from]);\n\t\t(, address _lotOwner,,) = _aoIonLot.lotById(_createdLotId);\n\n\t\t// Make sure the new lot is created successfully\n\t\trequire (_lotOwner == _to);\n\n\t\t// Update the weighted multiplier of the recipient\n\t\townerWeightedMultiplier[_to] = AOLibrary.calculateWeightedMultiplier(ownerWeightedMultiplier[_to], primordialBalanceOf[_to], ownerWeightedMultiplier[_from], _value);\n\n\t\t// Transfer the Primordial ions\n\t\trequire (_transferPrimordial(_from, _to, _value));\n\t\treturn true;\n\t}\n\n\t/**\n\t * @dev Send `_value` Primordial ions from `_from` to `_to`\n\t * @param _from The address of sender\n\t * @param _to The address of the recipient\n\t * @param _value The amount to send\n\t */\n\tfunction _transferPrimordial(address _from, address _to, uint256 _value) internal returns (bool) {\n\t\trequire (_to != address(0));\t\t\t\t\t\t\t\t\t// Prevent transfer to 0x0 address. Use burn() instead\n\t\trequire (primordialBalanceOf[_from] >= _value);\t\t\t\t\t\t// Check if the sender has enough\n\t\trequire (primordialBalanceOf[_to].add(_value) >= primordialBalanceOf[_to]);\t// Check for overflows\n\t\trequire (!frozenAccount[_from]);\t\t\t\t\t\t\t\t// Check if sender is frozen\n\t\trequire (!frozenAccount[_to]);\t\t\t\t\t\t\t\t\t// Check if recipient is frozen\n\t\tuint256 previousBalances = primordialBalanceOf[_from].add(primordialBalanceOf[_to]);\n\t\tprimordialBalanceOf[_from] = primordialBalanceOf[_from].sub(_value);\t\t\t// Subtract from the sender\n\t\tprimordialBalanceOf[_to] = primordialBalanceOf[_to].add(_value);\t\t\t\t// Add the same to the recipient\n\t\temit PrimordialTransfer(_from, _to, _value);\n\t\tassert(primordialBalanceOf[_from].add(primordialBalanceOf[_to]) == previousBalances);\n\t\treturn true;\n\t}\n\n\t/**\n\t * @dev Get setting variables\n\t * @return startingPrimordialMultiplier The starting multiplier used to calculate primordial ion\n\t * @return endingPrimordialMultiplier The ending multiplier used to calculate primordial ion\n\t * @return startingNetworkBonusMultiplier The starting multiplier used to calculate network ion bonus\n\t * @return endingNetworkBonusMultiplier The ending multiplier used to calculate network ion bonus\n\t */\n\tfunction _getSettingVariables() internal view returns (uint256, uint256, uint256, uint256) {\n\t\t(uint256 startingPrimordialMultiplier,,,,) = _aoSetting.getSettingValuesByTAOName(settingTAOId, 'startingPrimordialMultiplier');\n\t\t(uint256 endingPrimordialMultiplier,,,,) = _aoSetting.getSettingValuesByTAOName(settingTAOId, 'endingPrimordialMultiplier');\n\n\t\t(uint256 startingNetworkBonusMultiplier,,,,) = _aoSetting.getSettingValuesByTAOName(settingTAOId, 'startingNetworkBonusMultiplier');\n\t\t(uint256 endingNetworkBonusMultiplier,,,,) = _aoSetting.getSettingValuesByTAOName(settingTAOId, 'endingNetworkBonusMultiplier');\n\n\t\treturn (startingPrimordialMultiplier, endingPrimordialMultiplier, startingNetworkBonusMultiplier, endingNetworkBonusMultiplier);\n\t}\n}\n",
	"sourcePath": "/Users/johanmulyono/Work/AO/ao-contracts/contracts/AOIon.sol",
	"compiler": {
		"name": "solc",
		"version": "0.4.24+commit.e67f0147.Emscripten.clang"
	},
	"schemaVersion": "2.0.1",
	"updatedAt": "2019-03-19T01:57:05.915Z"
}