{
	"contractName": "AOIonInterface",
	"abi": [
		{
			"constant": true,
			"inputs": [],
			"name": "name",
			"outputs": [
				{
					"name": "",
					"type": "string"
				}
			],
			"payable": false,
			"stateMutability": "view",
			"type": "function"
		},
		{
			"constant": true,
			"inputs": [],
			"name": "powerOfTen",
			"outputs": [
				{
					"name": "",
					"type": "uint256"
				}
			],
			"payable": false,
			"stateMutability": "view",
			"type": "function"
		},
		{
			"constant": true,
			"inputs": [],
			"name": "totalSupply",
			"outputs": [
				{
					"name": "",
					"type": "uint256"
				}
			],
			"payable": false,
			"stateMutability": "view",
			"type": "function"
		},
		{
			"constant": true,
			"inputs": [],
			"name": "decimals",
			"outputs": [
				{
					"name": "",
					"type": "uint8"
				}
			],
			"payable": false,
			"stateMutability": "view",
			"type": "function"
		},
		{
			"constant": true,
			"inputs": [],
			"name": "sellPrice",
			"outputs": [
				{
					"name": "",
					"type": "uint256"
				}
			],
			"payable": false,
			"stateMutability": "view",
			"type": "function"
		},
		{
			"constant": true,
			"inputs": [],
			"name": "nameTAOPositionAddress",
			"outputs": [
				{
					"name": "",
					"type": "address"
				}
			],
			"payable": false,
			"stateMutability": "view",
			"type": "function"
		},
		{
			"constant": true,
			"inputs": [
				{
					"name": "",
					"type": "address"
				}
			],
			"name": "escrowedBalance",
			"outputs": [
				{
					"name": "",
					"type": "uint256"
				}
			],
			"payable": false,
			"stateMutability": "view",
			"type": "function"
		},
		{
			"constant": true,
			"inputs": [
				{
					"name": "",
					"type": "address"
				}
			],
			"name": "stakedBalance",
			"outputs": [
				{
					"name": "",
					"type": "uint256"
				}
			],
			"payable": false,
			"stateMutability": "view",
			"type": "function"
		},
		{
			"constant": true,
			"inputs": [
				{
					"name": "",
					"type": "address"
				}
			],
			"name": "balanceOf",
			"outputs": [
				{
					"name": "",
					"type": "uint256"
				}
			],
			"payable": false,
			"stateMutability": "view",
			"type": "function"
		},
		{
			"constant": true,
			"inputs": [],
			"name": "buyPrice",
			"outputs": [
				{
					"name": "",
					"type": "uint256"
				}
			],
			"payable": false,
			"stateMutability": "view",
			"type": "function"
		},
		{
			"constant": true,
			"inputs": [],
			"name": "symbol",
			"outputs": [
				{
					"name": "",
					"type": "string"
				}
			],
			"payable": false,
			"stateMutability": "view",
			"type": "function"
		},
		{
			"constant": true,
			"inputs": [
				{
					"name": "",
					"type": "address"
				}
			],
			"name": "whitelist",
			"outputs": [
				{
					"name": "",
					"type": "bool"
				}
			],
			"payable": false,
			"stateMutability": "view",
			"type": "function"
		},
		{
			"constant": true,
			"inputs": [],
			"name": "nameAccountRecoveryAddress",
			"outputs": [
				{
					"name": "",
					"type": "address"
				}
			],
			"payable": false,
			"stateMutability": "view",
			"type": "function"
		},
		{
			"constant": true,
			"inputs": [],
			"name": "theAO",
			"outputs": [
				{
					"name": "",
					"type": "address"
				}
			],
			"payable": false,
			"stateMutability": "view",
			"type": "function"
		},
		{
			"constant": true,
			"inputs": [
				{
					"name": "",
					"type": "address"
				}
			],
			"name": "frozenAccount",
			"outputs": [
				{
					"name": "",
					"type": "bool"
				}
			],
			"payable": false,
			"stateMutability": "view",
			"type": "function"
		},
		{
			"constant": true,
			"inputs": [],
			"name": "namePublicKeyAddress",
			"outputs": [
				{
					"name": "",
					"type": "address"
				}
			],
			"payable": false,
			"stateMutability": "view",
			"type": "function"
		},
		{
			"constant": true,
			"inputs": [
				{
					"name": "",
					"type": "address"
				},
				{
					"name": "",
					"type": "address"
				}
			],
			"name": "allowance",
			"outputs": [
				{
					"name": "",
					"type": "uint256"
				}
			],
			"payable": false,
			"stateMutability": "view",
			"type": "function"
		},
		{
			"inputs": [
				{
					"name": "_name",
					"type": "string"
				},
				{
					"name": "_symbol",
					"type": "string"
				},
				{
					"name": "_nameTAOPositionAddress",
					"type": "address"
				},
				{
					"name": "_namePublicKeyAddress",
					"type": "address"
				},
				{
					"name": "_nameAccountRecoveryAddress",
					"type": "address"
				}
			],
			"payable": false,
			"stateMutability": "nonpayable",
			"type": "constructor"
		},
		{
			"anonymous": false,
			"inputs": [
				{
					"indexed": false,
					"name": "target",
					"type": "address"
				},
				{
					"indexed": false,
					"name": "frozen",
					"type": "bool"
				}
			],
			"name": "FrozenFunds",
			"type": "event"
		},
		{
			"anonymous": false,
			"inputs": [
				{
					"indexed": true,
					"name": "from",
					"type": "address"
				},
				{
					"indexed": false,
					"name": "value",
					"type": "uint256"
				}
			],
			"name": "Stake",
			"type": "event"
		},
		{
			"anonymous": false,
			"inputs": [
				{
					"indexed": true,
					"name": "from",
					"type": "address"
				},
				{
					"indexed": false,
					"name": "value",
					"type": "uint256"
				}
			],
			"name": "Unstake",
			"type": "event"
		},
		{
			"anonymous": false,
			"inputs": [
				{
					"indexed": true,
					"name": "from",
					"type": "address"
				},
				{
					"indexed": true,
					"name": "to",
					"type": "address"
				},
				{
					"indexed": false,
					"name": "value",
					"type": "uint256"
				}
			],
			"name": "Escrow",
			"type": "event"
		},
		{
			"anonymous": false,
			"inputs": [
				{
					"indexed": true,
					"name": "from",
					"type": "address"
				},
				{
					"indexed": false,
					"name": "value",
					"type": "uint256"
				}
			],
			"name": "Unescrow",
			"type": "event"
		},
		{
			"anonymous": false,
			"inputs": [
				{
					"indexed": true,
					"name": "from",
					"type": "address"
				},
				{
					"indexed": true,
					"name": "to",
					"type": "address"
				},
				{
					"indexed": false,
					"name": "value",
					"type": "uint256"
				}
			],
			"name": "Transfer",
			"type": "event"
		},
		{
			"anonymous": false,
			"inputs": [
				{
					"indexed": true,
					"name": "_owner",
					"type": "address"
				},
				{
					"indexed": true,
					"name": "_spender",
					"type": "address"
				},
				{
					"indexed": false,
					"name": "_value",
					"type": "uint256"
				}
			],
			"name": "Approval",
			"type": "event"
		},
		{
			"anonymous": false,
			"inputs": [
				{
					"indexed": true,
					"name": "from",
					"type": "address"
				},
				{
					"indexed": false,
					"name": "value",
					"type": "uint256"
				}
			],
			"name": "Burn",
			"type": "event"
		},
		{
			"constant": false,
			"inputs": [
				{
					"name": "_theAO",
					"type": "address"
				}
			],
			"name": "transferOwnership",
			"outputs": [],
			"payable": false,
			"stateMutability": "nonpayable",
			"type": "function"
		},
		{
			"constant": false,
			"inputs": [
				{
					"name": "_account",
					"type": "address"
				},
				{
					"name": "_whitelist",
					"type": "bool"
				}
			],
			"name": "setWhitelist",
			"outputs": [],
			"payable": false,
			"stateMutability": "nonpayable",
			"type": "function"
		},
		{
			"constant": false,
			"inputs": [
				{
					"name": "_nameTAOPositionAddress",
					"type": "address"
				}
			],
			"name": "setNameTAOPositionAddress",
			"outputs": [],
			"payable": false,
			"stateMutability": "nonpayable",
			"type": "function"
		},
		{
			"constant": false,
			"inputs": [
				{
					"name": "_namePublicKeyAddress",
					"type": "address"
				}
			],
			"name": "setNamePublicKeyAddress",
			"outputs": [],
			"payable": false,
			"stateMutability": "nonpayable",
			"type": "function"
		},
		{
			"constant": false,
			"inputs": [
				{
					"name": "_nameAccountRecoveryAddress",
					"type": "address"
				}
			],
			"name": "setNameAccountRecoveryAddress",
			"outputs": [],
			"payable": false,
			"stateMutability": "nonpayable",
			"type": "function"
		},
		{
			"constant": false,
			"inputs": [
				{
					"name": "_recipient",
					"type": "address"
				},
				{
					"name": "_amount",
					"type": "uint256"
				}
			],
			"name": "transferEth",
			"outputs": [],
			"payable": false,
			"stateMutability": "nonpayable",
			"type": "function"
		},
		{
			"constant": false,
			"inputs": [
				{
					"name": "target",
					"type": "address"
				},
				{
					"name": "freeze",
					"type": "bool"
				}
			],
			"name": "freezeAccount",
			"outputs": [],
			"payable": false,
			"stateMutability": "nonpayable",
			"type": "function"
		},
		{
			"constant": false,
			"inputs": [
				{
					"name": "newSellPrice",
					"type": "uint256"
				},
				{
					"name": "newBuyPrice",
					"type": "uint256"
				}
			],
			"name": "setPrices",
			"outputs": [],
			"payable": false,
			"stateMutability": "nonpayable",
			"type": "function"
		},
		{
			"constant": false,
			"inputs": [
				{
					"name": "target",
					"type": "address"
				},
				{
					"name": "mintedAmount",
					"type": "uint256"
				}
			],
			"name": "mint",
			"outputs": [
				{
					"name": "",
					"type": "bool"
				}
			],
			"payable": false,
			"stateMutability": "nonpayable",
			"type": "function"
		},
		{
			"constant": false,
			"inputs": [
				{
					"name": "_from",
					"type": "address"
				},
				{
					"name": "_value",
					"type": "uint256"
				}
			],
			"name": "stakeFrom",
			"outputs": [
				{
					"name": "",
					"type": "bool"
				}
			],
			"payable": false,
			"stateMutability": "nonpayable",
			"type": "function"
		},
		{
			"constant": false,
			"inputs": [
				{
					"name": "_from",
					"type": "address"
				},
				{
					"name": "_value",
					"type": "uint256"
				}
			],
			"name": "unstakeFrom",
			"outputs": [
				{
					"name": "",
					"type": "bool"
				}
			],
			"payable": false,
			"stateMutability": "nonpayable",
			"type": "function"
		},
		{
			"constant": false,
			"inputs": [
				{
					"name": "_from",
					"type": "address"
				},
				{
					"name": "_to",
					"type": "address"
				},
				{
					"name": "_value",
					"type": "uint256"
				}
			],
			"name": "escrowFrom",
			"outputs": [
				{
					"name": "",
					"type": "bool"
				}
			],
			"payable": false,
			"stateMutability": "nonpayable",
			"type": "function"
		},
		{
			"constant": false,
			"inputs": [
				{
					"name": "target",
					"type": "address"
				},
				{
					"name": "mintedAmount",
					"type": "uint256"
				}
			],
			"name": "mintEscrow",
			"outputs": [
				{
					"name": "",
					"type": "bool"
				}
			],
			"payable": false,
			"stateMutability": "nonpayable",
			"type": "function"
		},
		{
			"constant": false,
			"inputs": [
				{
					"name": "_from",
					"type": "address"
				},
				{
					"name": "_value",
					"type": "uint256"
				}
			],
			"name": "unescrowFrom",
			"outputs": [
				{
					"name": "",
					"type": "bool"
				}
			],
			"payable": false,
			"stateMutability": "nonpayable",
			"type": "function"
		},
		{
			"constant": false,
			"inputs": [
				{
					"name": "_from",
					"type": "address"
				},
				{
					"name": "_value",
					"type": "uint256"
				}
			],
			"name": "whitelistBurnFrom",
			"outputs": [
				{
					"name": "success",
					"type": "bool"
				}
			],
			"payable": false,
			"stateMutability": "nonpayable",
			"type": "function"
		},
		{
			"constant": false,
			"inputs": [
				{
					"name": "_from",
					"type": "address"
				},
				{
					"name": "_to",
					"type": "address"
				},
				{
					"name": "_value",
					"type": "uint256"
				}
			],
			"name": "whitelistTransferFrom",
			"outputs": [
				{
					"name": "success",
					"type": "bool"
				}
			],
			"payable": false,
			"stateMutability": "nonpayable",
			"type": "function"
		},
		{
			"constant": false,
			"inputs": [
				{
					"name": "_to",
					"type": "address"
				},
				{
					"name": "_value",
					"type": "uint256"
				}
			],
			"name": "transfer",
			"outputs": [
				{
					"name": "success",
					"type": "bool"
				}
			],
			"payable": false,
			"stateMutability": "nonpayable",
			"type": "function"
		},
		{
			"constant": false,
			"inputs": [
				{
					"name": "_from",
					"type": "address"
				},
				{
					"name": "_to",
					"type": "address"
				},
				{
					"name": "_value",
					"type": "uint256"
				}
			],
			"name": "transferFrom",
			"outputs": [
				{
					"name": "success",
					"type": "bool"
				}
			],
			"payable": false,
			"stateMutability": "nonpayable",
			"type": "function"
		},
		{
			"constant": false,
			"inputs": [
				{
					"name": "_nameId",
					"type": "address"
				},
				{
					"name": "_from",
					"type": "address"
				},
				{
					"name": "_to",
					"type": "address"
				},
				{
					"name": "_value",
					"type": "uint256"
				}
			],
			"name": "transferBetweenPublicKeys",
			"outputs": [
				{
					"name": "success",
					"type": "bool"
				}
			],
			"payable": false,
			"stateMutability": "nonpayable",
			"type": "function"
		},
		{
			"constant": false,
			"inputs": [
				{
					"name": "_spender",
					"type": "address"
				},
				{
					"name": "_value",
					"type": "uint256"
				}
			],
			"name": "approve",
			"outputs": [
				{
					"name": "success",
					"type": "bool"
				}
			],
			"payable": false,
			"stateMutability": "nonpayable",
			"type": "function"
		},
		{
			"constant": false,
			"inputs": [
				{
					"name": "_spender",
					"type": "address"
				},
				{
					"name": "_value",
					"type": "uint256"
				},
				{
					"name": "_extraData",
					"type": "bytes"
				}
			],
			"name": "approveAndCall",
			"outputs": [
				{
					"name": "success",
					"type": "bool"
				}
			],
			"payable": false,
			"stateMutability": "nonpayable",
			"type": "function"
		},
		{
			"constant": false,
			"inputs": [
				{
					"name": "_value",
					"type": "uint256"
				}
			],
			"name": "burn",
			"outputs": [
				{
					"name": "success",
					"type": "bool"
				}
			],
			"payable": false,
			"stateMutability": "nonpayable",
			"type": "function"
		},
		{
			"constant": false,
			"inputs": [
				{
					"name": "_from",
					"type": "address"
				},
				{
					"name": "_value",
					"type": "uint256"
				}
			],
			"name": "burnFrom",
			"outputs": [
				{
					"name": "success",
					"type": "bool"
				}
			],
			"payable": false,
			"stateMutability": "nonpayable",
			"type": "function"
		},
		{
			"constant": false,
			"inputs": [],
			"name": "buy",
			"outputs": [],
			"payable": true,
			"stateMutability": "payable",
			"type": "function"
		},
		{
			"constant": false,
			"inputs": [
				{
					"name": "amount",
					"type": "uint256"
				}
			],
			"name": "sell",
			"outputs": [],
			"payable": false,
			"stateMutability": "nonpayable",
			"type": "function"
		}
	],
	"bytecode": "0x60806040523480156200001157600080fd5b50604051620026d2380380620026d283398101604090815281516020830151918301516060840151608085015160008054600160a060020a0319163317905592850194939093019290916200006f83640100000000620000de810204565b6200008382640100000000620001e6810204565b6200009781640100000000620002ee810204565b8451620000ac906008906020880190620003f6565b508351620000c2906009906020870190620003f6565b50506000600c555050600a805460ff19169055506200049b9050565b600054600154604080517ff66afcac000000000000000000000000000000000000000000000000000000008152336004820152600160a060020a0393841660248201529290911660448301525173__AOLibrary_____________________________9163f66afcac916064808301926020929190829003018186803b1580156200016757600080fd5b505af41580156200017c573d6000803e3d6000fd5b505050506040513d60208110156200019357600080fd5b50511515620001a157600080fd5b600160a060020a0381161515620001b757600080fd5b60018054600160a060020a0319908116600160a060020a03938416179182905560058054929093169116179055565b600054600154604080517ff66afcac000000000000000000000000000000000000000000000000000000008152336004820152600160a060020a0393841660248201529290911660448301525173__AOLibrary_____________________________9163f66afcac916064808301926020929190829003018186803b1580156200026f57600080fd5b505af415801562000284573d6000803e3d6000fd5b505050506040513d60208110156200029b57600080fd5b50511515620002a957600080fd5b600160a060020a0381161515620002bf57600080fd5b60038054600160a060020a0319908116600160a060020a03938416179182905560068054929093169116179055565b600054600154604080517ff66afcac000000000000000000000000000000000000000000000000000000008152336004820152600160a060020a0393841660248201529290911660448301525173__AOLibrary_____________________________9163f66afcac916064808301926020929190829003018186803b1580156200037757600080fd5b505af41580156200038c573d6000803e3d6000fd5b505050506040513d6020811015620003a357600080fd5b50511515620003b157600080fd5b600160a060020a0381161515620003c757600080fd5b60048054600160a060020a0319908116600160a060020a03938416179182905560078054929093169116179055565b828054600181600116156101000203166002900490600052602060002090601f016020900481019282601f106200043957805160ff191683800117855562000469565b8280016001018555821562000469579182015b82811115620004695782518255916020019190600101906200044c565b50620004779291506200047b565b5090565b6200049891905b8082111562000477576000815560010162000482565b90565b61222780620004ab6000396000f3006080604052600436106102035763ffffffff7c010000000000000000000000000000000000000000000000000000000060003504166305fefda7811461020857806306fdde0314610225578063095ea7b3146102af5780630aa24546146102e757806318160ddd1461030e5780631dfde2bd1461032357806323b872dd14610344578063313ce5671461036e57806331a8aeb31461039957806340c10f19146103bd57806342966c68146103e15780634b750334146103f95780634ef033f01461040e5780634fbd26951461043f57806353d6fd59146104605780635cfaf2ef1461048657806360217267146104a75780636d9aa034146104c857806370a08231146104e9578063731a3b061461050a57806379cc67901461052e5780637d9e2a21146105525780638620410b1461058257806387d4ca93146105975780638a066045146105c157806395d89b41146105e55780639b19251a146105fa578063a144a3e01461061b578063a4e5fad214610645578063a6f2ae3a1461065a578063a9059cbb14610662578063a9b6b38e14610686578063b1e19d451461069b578063b414d4b6146106bf578063cae9ca51146106e0578063d6c9e18914610749578063d8ce52d11461076d578063dd62ed3e14610782578063e4849b32146107a9578063e724529c146107c1578063e9bb84c2146107e7578063f2fde38b1461080b575b600080fd5b34801561021457600080fd5b5061022360043560243561082c565b005b34801561023157600080fd5b5061023a6108e0565b6040805160208082528351818301528351919283929083019185019080838360005b8381101561027457818101518382015260200161025c565b50505050905090810190601f1680156102a15780820380516001836020036101000a031916815260200191505b509250505060405180910390f35b3480156102bb57600080fd5b506102d3600160a060020a036004351660243561096e565b604080519115158252519081900360200190f35b3480156102f357600080fd5b506102fc6109d5565b60408051918252519081900360200190f35b34801561031a57600080fd5b506102fc6109db565b34801561032f57600080fd5b50610223600160a060020a03600435166109e1565b34801561035057600080fd5b506102d3600160a060020a0360043581169060243516604435610adb565b34801561037a57600080fd5b50610383610b4a565b6040805160ff9092168252519081900360200190f35b3480156103a557600080fd5b506102d3600160a060020a0360043516602435610b53565b3480156103c957600080fd5b506102d3600160a060020a0360043516602435610c52565b3480156103ed57600080fd5b506102d3600435610c86565b34801561040557600080fd5b506102fc610cfe565b34801561041a57600080fd5b50610423610d04565b60408051600160a060020a039092168252519081900360200190f35b34801561044b57600080fd5b506102fc600160a060020a0360043516610d13565b34801561046c57600080fd5b50610223600160a060020a03600435166024351515610d25565b34801561049257600080fd5b50610223600160a060020a0360043516610e0e565b3480156104b357600080fd5b506102fc600160a060020a0360043516610f08565b3480156104d457600080fd5b50610223600160a060020a0360043516610f1a565b3480156104f557600080fd5b506102fc600160a060020a0360043516611014565b34801561051657600080fd5b506102d3600160a060020a0360043516602435611026565b34801561053a57600080fd5b506102d3600160a060020a0360043516602435611125565b34801561055e57600080fd5b506102d3600160a060020a03600435811690602435811690604435166064356111f6565b34801561058e57600080fd5b506102fc611553565b3480156105a357600080fd5b506102d3600160a060020a0360043581169060243516604435611559565b3480156105cd57600080fd5b506102d3600160a060020a0360043516602435611665565b3480156105f157600080fd5b5061023a611764565b34801561060657600080fd5b506102d3600160a060020a03600435166117bf565b34801561062757600080fd5b506102d3600160a060020a03600435811690602435166044356117d4565b34801561065157600080fd5b50610423611800565b61022361180f565b34801561066e57600080fd5b506102d3600160a060020a0360043516602435611845565b34801561069257600080fd5b50610423611852565b3480156106a757600080fd5b506102d3600160a060020a0360043516602435611861565b3480156106cb57600080fd5b506102d3600160a060020a0360043516611947565b3480156106ec57600080fd5b50604080516020600460443581810135601f81018490048402850184019095528484526102d3948235600160a060020a031694602480359536959460649492019190819084018382808284375094975061195c9650505050505050565b34801561075557600080fd5b506102d3600160a060020a0360043516602435611a75565b34801561077957600080fd5b50610423611b37565b34801561078e57600080fd5b506102fc600160a060020a0360043581169060243516611b46565b3480156107b557600080fd5b50610223600435611b63565b3480156107cd57600080fd5b50610223600160a060020a03600435166024351515611bf4565b3480156107f357600080fd5b50610223600160a060020a0360043516602435611d01565b34801561081757600080fd5b50610223600160a060020a0360043516611df5565b6000546001546040805160e260020a633d9abf2b028152336004820152600160a060020a0393841660248201529290911660448301525173__AOLibrary_____________________________9163f66afcac916064808301926020929190829003018186803b15801561089e57600080fd5b505af41580156108b2573d6000803e3d6000fd5b505050506040513d60208110156108c857600080fd5b505115156108d557600080fd5b600d91909155600e55565b6008805460408051602060026001851615610100026000190190941693909304601f810184900484028201840190925281815292918301828280156109665780601f1061093b57610100808354040283529160200191610966565b820191906000526020600020905b81548152906001019060200180831161094957829003601f168201915b505050505081565b336000818152601060209081526040808320600160a060020a038716808552908352818420869055815186815291519394909390927f8c5be1e5ebec7d5bd14f71427d1e84f3dd0314c0f7b2291e5b200ac8c7c3b925928290030190a35060015b92915050565b600c5481565b600b5481565b6000546001546040805160e260020a633d9abf2b028152336004820152600160a060020a0393841660248201529290911660448301525173__AOLibrary_____________________________9163f66afcac916064808301926020929190829003018186803b158015610a5357600080fd5b505af4158015610a67573d6000803e3d6000fd5b505050506040513d6020811015610a7d57600080fd5b50511515610a8a57600080fd5b600160a060020a0381161515610a9f57600080fd5b6004805473ffffffffffffffffffffffffffffffffffffffff19908116600160a060020a03938416179182905560078054929093169116179055565b600160a060020a0383166000908152601060209081526040808320338452909152812054821115610b0b57600080fd5b600160a060020a0384166000908152601060209081526040808320338452909152902080548390039055610b40848484611ee2565b5060019392505050565b600a5460ff1681565b3360009081526002602052604081205460ff161515600114610b7457600080fd5b600160a060020a0383166000908152600f6020526040902054821115610b9957600080fd5b600160a060020a0383166000908152600f6020526040902054610bc2908363ffffffff6120ca16565b600160a060020a0384166000908152600f6020908152604080832093909355601290522054610bf7908363ffffffff6120dc16565b600160a060020a038416600081815260126020908152604091829020939093558051858152905191927febedb8b3c678666e7f36970bc8f57abf6d8fa2e828c0da91ea5b75bf68ed101a92918290030190a250600192915050565b3360009081526002602052604081205460ff161515600114610c7357600080fd5b610c7d83836120e9565b50600192915050565b336000908152600f6020526040812054821115610ca257600080fd5b336000818152600f602090815260409182902080548690039055600b80548690039055815185815291517fcc16f5dbb4873280815c1ee09dbd06736cffcc184412cf7a71a0fdb75d397ca59281900390910190a2506001919050565b600d5481565b600154600160a060020a031681565b60136020526000908152604090205481565b6000546001546040805160e260020a633d9abf2b028152336004820152600160a060020a0393841660248201529290911660448301525173__AOLibrary_____________________________9163f66afcac916064808301926020929190829003018186803b158015610d9757600080fd5b505af4158015610dab573d6000803e3d6000fd5b505050506040513d6020811015610dc157600080fd5b50511515610dce57600080fd5b600160a060020a0382161515610de357600080fd5b600160a060020a03919091166000908152600260205260409020805460ff1916911515919091179055565b6000546001546040805160e260020a633d9abf2b028152336004820152600160a060020a0393841660248201529290911660448301525173__AOLibrary_____________________________9163f66afcac916064808301926020929190829003018186803b158015610e8057600080fd5b505af4158015610e94573d6000803e3d6000fd5b505050506040513d6020811015610eaa57600080fd5b50511515610eb757600080fd5b600160a060020a0381161515610ecc57600080fd5b6001805473ffffffffffffffffffffffffffffffffffffffff19908116600160a060020a03938416179182905560058054929093169116179055565b60126020526000908152604090205481565b6000546001546040805160e260020a633d9abf2b028152336004820152600160a060020a0393841660248201529290911660448301525173__AOLibrary_____________________________9163f66afcac916064808301926020929190829003018186803b158015610f8c57600080fd5b505af4158015610fa0573d6000803e3d6000fd5b505050506040513d6020811015610fb657600080fd5b50511515610fc357600080fd5b600160a060020a0381161515610fd857600080fd5b6003805473ffffffffffffffffffffffffffffffffffffffff19908116600160a060020a03938416179182905560068054929093169116179055565b600f6020526000908152604090205481565b3360009081526002602052604081205460ff16151560011461104757600080fd5b600160a060020a03831660009081526012602052604090205482111561106c57600080fd5b600160a060020a038316600090815260126020526040902054611095908363ffffffff6120ca16565b600160a060020a038416600090815260126020908152604080832093909355600f905220546110ca908363ffffffff6120dc16565b600160a060020a0384166000818152600f6020908152604091829020939093558051858152905191927f85082129d87b2fe11527cb1b3b7a520aeb5aa6913f88a3d8757fe40d1db02fdd92918290030190a250600192915050565b600160a060020a0382166000908152600f602052604081205482111561114a57600080fd5b600160a060020a038316600090815260106020908152604080832033845290915290205482111561117a57600080fd5b600160a060020a0383166000818152600f60209081526040808320805487900390556010825280832033845282529182902080548690039055600b80548690039055815185815291517fcc16f5dbb4873280815c1ee09dbd06736cffcc184412cf7a71a0fdb75d397ca59281900390910190a250600192915050565b600073__AOLibrary_____________________________632d706a34866040518263ffffffff167c01000000000000000000000000000000000000000000000000000000000281526004018082600160a060020a0316600160a060020a0316815260200191505060206040518083038186803b15801561127557600080fd5b505af4158015611289573d6000803e3d6000fd5b505050506040513d602081101561129f57600080fd5b505115156112ac57600080fd5b600554604080517f71ce52ed000000000000000000000000000000000000000000000000000000008152336004820152600160a060020a038881166024830152915191909216916371ce52ed9160448083019260209291908290030181600087803b15801561131a57600080fd5b505af115801561132e573d6000803e3d6000fd5b505050506040513d602081101561134457600080fd5b5051151561135157600080fd5b600754604080517f3ebc2ab3000000000000000000000000000000000000000000000000000000008152600160a060020a03888116600483015291519190921691633ebc2ab39160248083019260209291908290030181600087803b1580156113b957600080fd5b505af11580156113cd573d6000803e3d6000fd5b505050506040513d60208110156113e357600080fd5b5051156113ef57600080fd5b600654604080517fa481247c000000000000000000000000000000000000000000000000000000008152600160a060020a03888116600483015287811660248301529151919092169163a481247c9160448083019260209291908290030181600087803b15801561145f57600080fd5b505af1158015611473573d6000803e3d6000fd5b505050506040513d602081101561148957600080fd5b5051151561149657600080fd5b600654604080517fa481247c000000000000000000000000000000000000000000000000000000008152600160a060020a03888116600483015286811660248301529151919092169163a481247c9160448083019260209291908290030181600087803b15801561150657600080fd5b505af115801561151a573d6000803e3d6000fd5b505050506040513d602081101561153057600080fd5b5051151561153d57600080fd5b611548848484611ee2565b506001949350505050565b600e5481565b3360009081526002602052604081205460ff16151560011461157a57600080fd5b600160a060020a0384166000908152600f602052604090205482111561159f57600080fd5b600160a060020a0384166000908152600f60205260409020546115c8908363ffffffff6120ca16565b600160a060020a038086166000908152600f6020908152604080832094909455918616815260139091522054611604908363ffffffff6120dc16565b600160a060020a0380851660008181526013602090815260409182902094909455805186815290519193928816927f812c3251d8b2cd027716a7651ace6f9167d7fba4db9eb10df2e0cfe8b7fa48c992918290030190a35060019392505050565b3360009081526002602052604081205460ff16151560011461168657600080fd5b600160a060020a0383166000908152601360205260409020548211156116ab57600080fd5b600160a060020a0383166000908152601360205260409020546116d4908363ffffffff6120ca16565b600160a060020a038416600090815260136020908152604080832093909355600f90522054611709908363ffffffff6120dc16565b600160a060020a0384166000818152600f6020908152604091829020939093558051858152905191927f85538b0b045118ba300aa14d9701eab875903dd2976d62d855ec959a3e6cffb192918290030190a250600192915050565b6009805460408051602060026001851615610100026000190190941693909304601f810184900484028201840190925281815292918301828280156109665780601f1061093b57610100808354040283529160200191610966565b60026020526000908152604090205460ff1681565b3360009081526002602052604081205460ff1615156001146117f557600080fd5b610b40848484611ee2565b600454600160a060020a031681565b600080600e5411151561182157600080fd5b600e5461183590349063ffffffff6121bd16565b9050611842303383611ee2565b50565b6000610c7d338484611ee2565b600054600160a060020a031681565b3360009081526002602052604081205460ff16151560011461188257600080fd5b600160a060020a0383166000908152600f60205260409020548211156118a757600080fd5b600160a060020a0383166000908152600f60205260409020546118d0908363ffffffff6120ca16565b600160a060020a0384166000908152600f6020526040902055600b546118fc908363ffffffff6120ca16565b600b55604080518381529051600160a060020a038516917fcc16f5dbb4873280815c1ee09dbd06736cffcc184412cf7a71a0fdb75d397ca5919081900360200190a250600192915050565b60116020526000908152604090205460ff1681565b600083611969818561096e565b15611a6d576040517f8f4ffcb10000000000000000000000000000000000000000000000000000000081523360048201818152602483018790523060448401819052608060648501908152875160848601528751600160a060020a03871695638f4ffcb195948b94938b939192909160a490910190602085019080838360005b83811015611a015781810151838201526020016119e9565b50505050905090810190601f168015611a2e5780820380516001836020036101000a031916815260200191505b5095505050505050600060405180830381600087803b158015611a5057600080fd5b505af1158015611a64573d6000803e3d6000fd5b50505050600191505b509392505050565b3360009081526002602052604081205460ff161515600114611a9657600080fd5b600160a060020a038316600090815260136020526040902054611abf908363ffffffff6120dc16565b600160a060020a038416600090815260136020526040902055600b54611aeb908363ffffffff6120dc16565b600b55604080518381529051600160a060020a0385169130917f812c3251d8b2cd027716a7651ace6f9167d7fba4db9eb10df2e0cfe8b7fa48c99181900360200190a350600192915050565b600354600160a060020a031681565b601060209081526000928352604080842090915290825290205481565b600080600d54111515611b7557600080fd5b50600d543090611b8c90839063ffffffff6121d216565b600160a060020a038216311015611ba257600080fd5b611bad333084611ee2565b600d5433906108fc90611bc790859063ffffffff6121d216565b6040518115909202916000818181858888f19350505050158015611bef573d6000803e3d6000fd5b505050565b6000546001546040805160e260020a633d9abf2b028152336004820152600160a060020a0393841660248201529290911660448301525173__AOLibrary_____________________________9163f66afcac916064808301926020929190829003018186803b158015611c6657600080fd5b505af4158015611c7a573d6000803e3d6000fd5b505050506040513d6020811015611c9057600080fd5b50511515611c9d57600080fd5b600160a060020a038216600081815260116020908152604091829020805460ff191685151590811790915582519384529083015280517f48335238b4855f35377ed80f164e8c6f3c366e54ac00b96a6402d4a9814a03a59281900390910190a15050565b6000546001546040805160e260020a633d9abf2b028152336004820152600160a060020a0393841660248201529290911660448301525173__AOLibrary_____________________________9163f66afcac916064808301926020929190829003018186803b158015611d7357600080fd5b505af4158015611d87573d6000803e3d6000fd5b505050506040513d6020811015611d9d57600080fd5b50511515611daa57600080fd5b600160a060020a0382161515611dbf57600080fd5b604051600160a060020a0383169082156108fc029083906000818181858888f19350505050158015611bef573d6000803e3d6000fd5b6000546001546040805160e260020a633d9abf2b028152336004820152600160a060020a0393841660248201529290911660448301525173__AOLibrary_____________________________9163f66afcac916064808301926020929190829003018186803b158015611e6757600080fd5b505af4158015611e7b573d6000803e3d6000fd5b505050506040513d6020811015611e9157600080fd5b50511515611e9e57600080fd5b600160a060020a0381161515611eb357600080fd5b6000805473ffffffffffffffffffffffffffffffffffffffff1916600160a060020a0392909216919091179055565b6000600160a060020a0383161515611ef957600080fd5b600160a060020a0384166000908152600f6020526040902054821115611f1e57600080fd5b600160a060020a0383166000908152600f6020526040902054611f47818463ffffffff6120dc16565b1015611f5257600080fd5b600160a060020a03841660009081526011602052604090205460ff1615611f7857600080fd5b600160a060020a03831660009081526011602052604090205460ff1615611f9e57600080fd5b600160a060020a038084166000908152600f6020526040808220549287168252902054611fd09163ffffffff6120dc16565b600160a060020a0385166000908152600f6020526040902054909150611ffc908363ffffffff6120ca16565b600160a060020a038086166000908152600f60205260408082209390935590851681522054612031908363ffffffff6120dc16565b600160a060020a038085166000818152600f602090815260409182902094909455805186815290519193928816927fddf252ad1be2c89b69c2b068fc378daa952ba7f163c4a11628f55a4df523b3ef92918290030190a3600160a060020a038084166000908152600f602052604080822054928716825290205482916120bd919063ffffffff6120dc16565b146120c457fe5b50505050565b6000828211156120d657fe5b50900390565b818101828110156109cf57fe5b600160a060020a0382166000908152600f6020526040902054612112908263ffffffff6120dc16565b600160a060020a0383166000908152600f6020526040902055600b5461213e908263ffffffff6120dc16565b600b5560408051828152905130916000917fddf252ad1be2c89b69c2b068fc378daa952ba7f163c4a11628f55a4df523b3ef9181900360200190a3604080518281529051600160a060020a0384169130917fddf252ad1be2c89b69c2b068fc378daa952ba7f163c4a11628f55a4df523b3ef9181900360200190a35050565b600081838115156121ca57fe5b049392505050565b60008215156121e3575060006109cf565b508181028183828115156121f357fe5b04146109cf57fe00a165627a7a72305820db52ee2328378a327b000488b28dc11131b07350e67eb3286a295b141afe14140029",
	"source": "pragma solidity ^0.4.24;\n\nimport './SafeMath.sol';\nimport './AOLibrary.sol';\nimport './TheAO.sol';\nimport './INameTAOPosition.sol';\nimport './INamePublicKey.sol';\nimport './INameAccountRecovery.sol';\n\ninterface ionRecipient {\n\tfunction receiveApproval(address _from, uint256 _value, address _token, bytes _extraData) external;\n}\n\n/**\n * @title AOIonInterface\n */\ncontract AOIonInterface is TheAO {\n\tusing SafeMath for uint256;\n\n\taddress public namePublicKeyAddress;\n\taddress public nameAccountRecoveryAddress;\n\n\tINameTAOPosition internal _nameTAOPosition;\n\tINamePublicKey internal _namePublicKey;\n\tINameAccountRecovery internal _nameAccountRecovery;\n\n\t// Public variables of the contract\n\tstring public name;\n\tstring public symbol;\n\tuint8 public decimals;\n\tuint256 public totalSupply;\n\n\t// To differentiate denomination of AO\n\tuint256 public powerOfTen;\n\n\t/***** NETWORK ION VARIABLES *****/\n\tuint256 public sellPrice;\n\tuint256 public buyPrice;\n\n\t// This creates an array with all balances\n\tmapping (address => uint256) public balanceOf;\n\tmapping (address => mapping (address => uint256)) public allowance;\n\tmapping (address => bool) public frozenAccount;\n\tmapping (address => uint256) public stakedBalance;\n\tmapping (address => uint256) public escrowedBalance;\n\n\t// This generates a public event on the blockchain that will notify clients\n\tevent FrozenFunds(address target, bool frozen);\n\tevent Stake(address indexed from, uint256 value);\n\tevent Unstake(address indexed from, uint256 value);\n\tevent Escrow(address indexed from, address indexed to, uint256 value);\n\tevent Unescrow(address indexed from, uint256 value);\n\n\t// This generates a public event on the blockchain that will notify clients\n\tevent Transfer(address indexed from, address indexed to, uint256 value);\n\n\t// This generates a public event on the blockchain that will notify clients\n\tevent Approval(address indexed _owner, address indexed _spender, uint256 _value);\n\n\t// This notifies clients about the amount burnt\n\tevent Burn(address indexed from, uint256 value);\n\n\t/**\n\t * @dev Constructor function\n\t */\n\tconstructor(string _name, string _symbol, address _nameTAOPositionAddress, address _namePublicKeyAddress, address _nameAccountRecoveryAddress) public {\n\t\tsetNameTAOPositionAddress(_nameTAOPositionAddress);\n\t\tsetNamePublicKeyAddress(_namePublicKeyAddress);\n\t\tsetNameAccountRecoveryAddress(_nameAccountRecoveryAddress);\n\t\tname = _name;           // Set the name for display purposes\n\t\tsymbol = _symbol;       // Set the symbol for display purposes\n\t\tpowerOfTen = 0;\n\t\tdecimals = 0;\n\t}\n\n\t/**\n\t * @dev Checks if the calling contract address is The AO\n\t *\t\tOR\n\t *\t\tIf The AO is set to a Name/TAO, then check if calling address is the Advocate\n\t */\n\tmodifier onlyTheAO {\n\t\trequire (AOLibrary.isTheAO(msg.sender, theAO, nameTAOPositionAddress));\n\t\t_;\n\t}\n\n\t/***** The AO ONLY METHODS *****/\n\t/**\n\t * @dev Transfer ownership of The AO to new address\n\t * @param _theAO The new address to be transferred\n\t */\n\tfunction transferOwnership(address _theAO) public onlyTheAO {\n\t\trequire (_theAO != address(0));\n\t\ttheAO = _theAO;\n\t}\n\n\t/**\n\t * @dev Whitelist `_account` address to transact on behalf of others\n\t * @param _account The address to whitelist\n\t * @param _whitelist Either to whitelist or not\n\t */\n\tfunction setWhitelist(address _account, bool _whitelist) public onlyTheAO {\n\t\trequire (_account != address(0));\n\t\twhitelist[_account] = _whitelist;\n\t}\n\n\t/**\n\t * @dev The AO set the NameTAOPosition Address\n\t * @param _nameTAOPositionAddress The address of NameTAOPosition\n\t */\n\tfunction setNameTAOPositionAddress(address _nameTAOPositionAddress) public onlyTheAO {\n\t\trequire (_nameTAOPositionAddress != address(0));\n\t\tnameTAOPositionAddress = _nameTAOPositionAddress;\n\t\t_nameTAOPosition = INameTAOPosition(nameTAOPositionAddress);\n\t}\n\n\t/**\n\t * @dev The AO set the NamePublicKey Address\n\t * @param _namePublicKeyAddress The address of NamePublicKey\n\t */\n\tfunction setNamePublicKeyAddress(address _namePublicKeyAddress) public onlyTheAO {\n\t\trequire (_namePublicKeyAddress != address(0));\n\t\tnamePublicKeyAddress = _namePublicKeyAddress;\n\t\t_namePublicKey = INamePublicKey(namePublicKeyAddress);\n\t}\n\n\t/**\n\t * @dev The AO set the NameAccountRecovery Address\n\t * @param _nameAccountRecoveryAddress The address of NameAccountRecovery\n\t */\n\tfunction setNameAccountRecoveryAddress(address _nameAccountRecoveryAddress) public onlyTheAO {\n\t\trequire (_nameAccountRecoveryAddress != address(0));\n\t\tnameAccountRecoveryAddress = _nameAccountRecoveryAddress;\n\t\t_nameAccountRecovery = INameAccountRecovery(nameAccountRecoveryAddress);\n\t}\n\n\t/**\n\t * @dev Allows TheAO to transfer `_amount` of ETH from this address to `_recipient`\n\t * @param _recipient The recipient address\n\t * @param _amount The amount to transfer\n\t */\n\tfunction transferEth(address _recipient, uint256 _amount) public onlyTheAO {\n\t\trequire (_recipient != address(0));\n\t\t_recipient.transfer(_amount);\n\t}\n\n\t/**\n\t * @dev Prevent/Allow target from sending & receiving ions\n\t * @param target Address to be frozen\n\t * @param freeze Either to freeze it or not\n\t */\n\tfunction freezeAccount(address target, bool freeze) public onlyTheAO {\n\t\tfrozenAccount[target] = freeze;\n\t\temit FrozenFunds(target, freeze);\n\t}\n\n\t/**\n\t * @dev Allow users to buy ions for `newBuyPrice` eth and sell ions for `newSellPrice` eth\n\t * @param newSellPrice Price users can sell to the contract\n\t * @param newBuyPrice Price users can buy from the contract\n\t */\n\tfunction setPrices(uint256 newSellPrice, uint256 newBuyPrice) public onlyTheAO {\n\t\tsellPrice = newSellPrice;\n\t\tbuyPrice = newBuyPrice;\n\t}\n\n\t/***** NETWORK ION WHITELISTED ADDRESS ONLY METHODS *****/\n\t/**\n\t * @dev Create `mintedAmount` ions and send it to `target`\n\t * @param target Address to receive the ions\n\t * @param mintedAmount The amount of ions it will receive\n\t * @return true on success\n\t */\n\tfunction mint(address target, uint256 mintedAmount) public inWhitelist returns (bool) {\n\t\t_mint(target, mintedAmount);\n\t\treturn true;\n\t}\n\n\t/**\n\t * @dev Stake `_value` ions on behalf of `_from`\n\t * @param _from The address of the target\n\t * @param _value The amount to stake\n\t * @return true on success\n\t */\n\tfunction stakeFrom(address _from, uint256 _value) public inWhitelist returns (bool) {\n\t\trequire (balanceOf[_from] >= _value);\t\t\t\t\t\t// Check if the targeted balance is enough\n\t\tbalanceOf[_from] = balanceOf[_from].sub(_value);\t\t\t// Subtract from the targeted balance\n\t\tstakedBalance[_from] = stakedBalance[_from].add(_value);\t// Add to the targeted staked balance\n\t\temit Stake(_from, _value);\n\t\treturn true;\n\t}\n\n\t/**\n\t * @dev Unstake `_value` ions on behalf of `_from`\n\t * @param _from The address of the target\n\t * @param _value The amount to unstake\n\t * @return true on success\n\t */\n\tfunction unstakeFrom(address _from, uint256 _value) public inWhitelist returns (bool) {\n\t\trequire (stakedBalance[_from] >= _value);\t\t\t\t\t// Check if the targeted staked balance is enough\n\t\tstakedBalance[_from] = stakedBalance[_from].sub(_value);\t// Subtract from the targeted staked balance\n\t\tbalanceOf[_from] = balanceOf[_from].add(_value);\t\t\t// Add to the targeted balance\n\t\temit Unstake(_from, _value);\n\t\treturn true;\n\t}\n\n\t/**\n\t * @dev Store `_value` from `_from` to `_to` in escrow\n\t * @param _from The address of the sender\n\t * @param _to The address of the recipient\n\t * @param _value The amount of network ions to put in escrow\n\t * @return true on success\n\t */\n\tfunction escrowFrom(address _from, address _to, uint256 _value) public inWhitelist returns (bool) {\n\t\trequire (balanceOf[_from] >= _value);\t\t\t\t\t\t// Check if the targeted balance is enough\n\t\tbalanceOf[_from] = balanceOf[_from].sub(_value);\t\t\t// Subtract from the targeted balance\n\t\tescrowedBalance[_to] = escrowedBalance[_to].add(_value);\t// Add to the targeted escrowed balance\n\t\temit Escrow(_from, _to, _value);\n\t\treturn true;\n\t}\n\n\t/**\n\t * @dev Create `mintedAmount` ions and send it to `target` escrow balance\n\t * @param target Address to receive ions\n\t * @param mintedAmount The amount of ions it will receive in escrow\n\t */\n\tfunction mintEscrow(address target, uint256 mintedAmount) public inWhitelist returns (bool) {\n\t\tescrowedBalance[target] = escrowedBalance[target].add(mintedAmount);\n\t\ttotalSupply = totalSupply.add(mintedAmount);\n\t\temit Escrow(this, target, mintedAmount);\n\t\treturn true;\n\t}\n\n\t/**\n\t * @dev Release escrowed `_value` from `_from`\n\t * @param _from The address of the sender\n\t * @param _value The amount of escrowed network ions to be released\n\t * @return true on success\n\t */\n\tfunction unescrowFrom(address _from, uint256 _value) public inWhitelist returns (bool) {\n\t\trequire (escrowedBalance[_from] >= _value);\t\t\t\t\t\t// Check if the targeted escrowed balance is enough\n\t\tescrowedBalance[_from] = escrowedBalance[_from].sub(_value);\t// Subtract from the targeted escrowed balance\n\t\tbalanceOf[_from] = balanceOf[_from].add(_value);\t\t\t\t// Add to the targeted balance\n\t\temit Unescrow(_from, _value);\n\t\treturn true;\n\t}\n\n\t/**\n\t *\n\t * @dev Whitelisted address remove `_value` ions from the system irreversibly on behalf of `_from`.\n\t *\n\t * @param _from the address of the sender\n\t * @param _value the amount of money to burn\n\t */\n\tfunction whitelistBurnFrom(address _from, uint256 _value) public inWhitelist returns (bool success) {\n\t\trequire(balanceOf[_from] >= _value);                // Check if the targeted balance is enough\n\t\tbalanceOf[_from] = balanceOf[_from].sub(_value);    // Subtract from the targeted balance\n\t\ttotalSupply = totalSupply.sub(_value);              // Update totalSupply\n\t\temit Burn(_from, _value);\n\t\treturn true;\n\t}\n\n\t/**\n\t * @dev Whitelisted address transfer ions from other address\n\t *\n\t * Send `_value` ions to `_to` on behalf of `_from`\n\t *\n\t * @param _from The address of the sender\n\t * @param _to The address of the recipient\n\t * @param _value the amount to send\n\t */\n\tfunction whitelistTransferFrom(address _from, address _to, uint256 _value) public inWhitelist returns (bool success) {\n\t\t_transfer(_from, _to, _value);\n\t\treturn true;\n\t}\n\n\t/***** PUBLIC METHODS *****/\n\t/**\n\t * Transfer ions\n\t *\n\t * Send `_value` ions to `_to` from your account\n\t *\n\t * @param _to The address of the recipient\n\t * @param _value the amount to send\n\t */\n\tfunction transfer(address _to, uint256 _value) public returns (bool success) {\n\t\t_transfer(msg.sender, _to, _value);\n\t\treturn true;\n\t}\n\n\t/**\n\t * Transfer ions from other address\n\t *\n\t * Send `_value` ions to `_to` in behalf of `_from`\n\t *\n\t * @param _from The address of the sender\n\t * @param _to The address of the recipient\n\t * @param _value the amount to send\n\t */\n\tfunction transferFrom(address _from, address _to, uint256 _value) public returns (bool success) {\n\t\trequire(_value <= allowance[_from][msg.sender]);     // Check allowance\n\t\tallowance[_from][msg.sender] -= _value;\n\t\t_transfer(_from, _to, _value);\n\t\treturn true;\n\t}\n\n\t/**\n\t * Transfer ions between public key addresses in a Name\n\t * @param _nameId The ID of the Name\n\t * @param _from The address of the sender\n\t * @param _to The address of the recipient\n\t * @param _value the amount to send\n\t */\n\tfunction transferBetweenPublicKeys(address _nameId, address _from, address _to, uint256 _value) public returns (bool success) {\n\t\trequire (AOLibrary.isName(_nameId));\n\t\trequire (_nameTAOPosition.senderIsAdvocate(msg.sender, _nameId));\n\t\trequire (!_nameAccountRecovery.isCompromised(_nameId));\n\t\t// Make sure _from exist in the Name's Public Keys\n\t\trequire (_namePublicKey.isKeyExist(_nameId, _from));\n\t\t// Make sure _to exist in the Name's Public Keys\n\t\trequire (_namePublicKey.isKeyExist(_nameId, _to));\n\t\t_transfer(_from, _to, _value);\n\t\treturn true;\n\t}\n\n\t/**\n\t * Set allowance for other address\n\t *\n\t * Allows `_spender` to spend no more than `_value` ions in your behalf\n\t *\n\t * @param _spender The address authorized to spend\n\t * @param _value the max amount they can spend\n\t */\n\tfunction approve(address _spender, uint256 _value) public returns (bool success) {\n\t\tallowance[msg.sender][_spender] = _value;\n\t\temit Approval(msg.sender, _spender, _value);\n\t\treturn true;\n\t}\n\n\t/**\n\t * Set allowance for other address and notify\n\t *\n\t * Allows `_spender` to spend no more than `_value` ions in your behalf, and then ping the contract about it\n\t *\n\t * @param _spender The address authorized to spend\n\t * @param _value the max amount they can spend\n\t * @param _extraData some extra information to send to the approved contract\n\t */\n\tfunction approveAndCall(address _spender, uint256 _value, bytes _extraData) public returns (bool success) {\n\t\tionRecipient spender = ionRecipient(_spender);\n\t\tif (approve(_spender, _value)) {\n\t\t\tspender.receiveApproval(msg.sender, _value, this, _extraData);\n\t\t\treturn true;\n\t\t}\n\t}\n\n\t/**\n\t * Destroy ions\n\t *\n\t * Remove `_value` ions from the system irreversibly\n\t *\n\t * @param _value the amount of money to burn\n\t */\n\tfunction burn(uint256 _value) public returns (bool success) {\n\t\trequire(balanceOf[msg.sender] >= _value);   // Check if the sender has enough\n\t\tbalanceOf[msg.sender] -= _value;            // Subtract from the sender\n\t\ttotalSupply -= _value;                      // Updates totalSupply\n\t\temit Burn(msg.sender, _value);\n\t\treturn true;\n\t}\n\n\t/**\n\t * Destroy ions from other account\n\t *\n\t * Remove `_value` ions from the system irreversibly on behalf of `_from`.\n\t *\n\t * @param _from the address of the sender\n\t * @param _value the amount of money to burn\n\t */\n\tfunction burnFrom(address _from, uint256 _value) public returns (bool success) {\n\t\trequire(balanceOf[_from] >= _value);                // Check if the targeted balance is enough\n\t\trequire(_value <= allowance[_from][msg.sender]);    // Check allowance\n\t\tbalanceOf[_from] -= _value;                         // Subtract from the targeted balance\n\t\tallowance[_from][msg.sender] -= _value;             // Subtract from the sender's allowance\n\t\ttotalSupply -= _value;                              // Update totalSupply\n\t\temit Burn(_from, _value);\n\t\treturn true;\n\t}\n\n\t/**\n\t * @dev Buy ions from contract by sending ether\n\t */\n\tfunction buy() public payable {\n\t\trequire (buyPrice > 0);\n\t\tuint256 amount = msg.value.div(buyPrice);\n\t\t_transfer(this, msg.sender, amount);\n\t}\n\n\t/**\n\t * @dev Sell `amount` ions to contract\n\t * @param amount The amount of ions to be sold\n\t */\n\tfunction sell(uint256 amount) public {\n\t\trequire (sellPrice > 0);\n\t\taddress myAddress = this;\n\t\trequire (myAddress.balance >= amount.mul(sellPrice));\n\t\t_transfer(msg.sender, this, amount);\n\t\tmsg.sender.transfer(amount.mul(sellPrice));\n\t}\n\n\t/***** INTERNAL METHODS *****/\n\t/**\n\t * @dev Send `_value` ions from `_from` to `_to`\n\t * @param _from The address of sender\n\t * @param _to The address of the recipient\n\t * @param _value The amount to send\n\t */\n\tfunction _transfer(address _from, address _to, uint256 _value) internal {\n\t\trequire (_to != address(0));\t\t\t\t\t\t\t// Prevent transfer to 0x0 address. Use burn() instead\n\t\trequire (balanceOf[_from] >= _value);\t\t\t\t\t// Check if the sender has enough\n\t\trequire (balanceOf[_to].add(_value) >= balanceOf[_to]); // Check for overflows\n\t\trequire (!frozenAccount[_from]);\t\t\t\t\t\t// Check if sender is frozen\n\t\trequire (!frozenAccount[_to]);\t\t\t\t\t\t\t// Check if recipient is frozen\n\t\tuint256 previousBalances = balanceOf[_from].add(balanceOf[_to]);\n\t\tbalanceOf[_from] = balanceOf[_from].sub(_value);        // Subtract from the sender\n\t\tbalanceOf[_to] = balanceOf[_to].add(_value);            // Add the same to the recipient\n\t\temit Transfer(_from, _to, _value);\n\t\tassert(balanceOf[_from].add(balanceOf[_to]) == previousBalances);\n\t}\n\n\t/**\n\t * @dev Create `mintedAmount` ions and send it to `target`\n\t * @param target Address to receive the ions\n\t * @param mintedAmount The amount of ions it will receive\n\t */\n\tfunction _mint(address target, uint256 mintedAmount) internal {\n\t\tbalanceOf[target] = balanceOf[target].add(mintedAmount);\n\t\ttotalSupply = totalSupply.add(mintedAmount);\n\t\temit Transfer(0, this, mintedAmount);\n\t\temit Transfer(this, target, mintedAmount);\n\t}\n}\n",
	"sourcePath": "/Users/johanmulyono/Work/AO/ao-contracts/contracts/AOIonInterface.sol",
	"compiler": {
		"name": "solc",
		"version": "0.4.24+commit.e67f0147.Emscripten.clang"
	},
	"schemaVersion": "2.0.1",
	"updatedAt": "2019-04-04T04:26:16.966Z"
}