{
	"contractName": "AOIonLot",
	"abi": [
		{
			"constant": true,
			"inputs": [],
			"name": "totalConvertLots",
			"outputs": [
				{
					"name": "",
					"type": "uint256"
				}
			],
			"payable": false,
			"stateMutability": "view",
			"type": "function"
		},
		{
			"constant": true,
			"inputs": [],
			"name": "totalLots",
			"outputs": [
				{
					"name": "",
					"type": "uint256"
				}
			],
			"payable": false,
			"stateMutability": "view",
			"type": "function"
		},
		{
			"constant": true,
			"inputs": [],
			"name": "aoIonAddress",
			"outputs": [
				{
					"name": "",
					"type": "address"
				}
			],
			"payable": false,
			"stateMutability": "view",
			"type": "function"
		},
		{
			"constant": true,
			"inputs": [],
			"name": "totalBurnLots",
			"outputs": [
				{
					"name": "",
					"type": "uint256"
				}
			],
			"payable": false,
			"stateMutability": "view",
			"type": "function"
		},
		{
			"constant": true,
			"inputs": [],
			"name": "nameTAOPositionAddress",
			"outputs": [
				{
					"name": "",
					"type": "address"
				}
			],
			"payable": false,
			"stateMutability": "view",
			"type": "function"
		},
		{
			"constant": true,
			"inputs": [
				{
					"name": "",
					"type": "address"
				}
			],
			"name": "whitelist",
			"outputs": [
				{
					"name": "",
					"type": "bool"
				}
			],
			"payable": false,
			"stateMutability": "view",
			"type": "function"
		},
		{
			"constant": true,
			"inputs": [],
			"name": "theAO",
			"outputs": [
				{
					"name": "",
					"type": "address"
				}
			],
			"payable": false,
			"stateMutability": "view",
			"type": "function"
		},
		{
			"inputs": [
				{
					"name": "_aoIonAddress",
					"type": "address"
				},
				{
					"name": "_nameTAOPositionAddress",
					"type": "address"
				}
			],
			"payable": false,
			"stateMutability": "nonpayable",
			"type": "constructor"
		},
		{
			"anonymous": false,
			"inputs": [
				{
					"indexed": true,
					"name": "lotOwner",
					"type": "address"
				},
				{
					"indexed": true,
					"name": "lotId",
					"type": "bytes32"
				},
				{
					"indexed": false,
					"name": "multiplier",
					"type": "uint256"
				},
				{
					"indexed": false,
					"name": "primordialAmount",
					"type": "uint256"
				},
				{
					"indexed": false,
					"name": "networkBonusAmount",
					"type": "uint256"
				}
			],
			"name": "LotCreation",
			"type": "event"
		},
		{
			"anonymous": false,
			"inputs": [
				{
					"indexed": true,
					"name": "lotOwner",
					"type": "address"
				},
				{
					"indexed": true,
					"name": "burnLotId",
					"type": "bytes32"
				},
				{
					"indexed": false,
					"name": "burnAmount",
					"type": "uint256"
				},
				{
					"indexed": false,
					"name": "multiplierAfterBurn",
					"type": "uint256"
				}
			],
			"name": "BurnLotCreation",
			"type": "event"
		},
		{
			"anonymous": false,
			"inputs": [
				{
					"indexed": true,
					"name": "lotOwner",
					"type": "address"
				},
				{
					"indexed": true,
					"name": "convertLotId",
					"type": "bytes32"
				},
				{
					"indexed": false,
					"name": "convertAmount",
					"type": "uint256"
				},
				{
					"indexed": false,
					"name": "multiplierAfterConversion",
					"type": "uint256"
				}
			],
			"name": "ConvertLotCreation",
			"type": "event"
		},
		{
			"constant": false,
			"inputs": [
				{
					"name": "_theAO",
					"type": "address"
				}
			],
			"name": "transferOwnership",
			"outputs": [],
			"payable": false,
			"stateMutability": "nonpayable",
			"type": "function"
		},
		{
			"constant": false,
			"inputs": [
				{
					"name": "_account",
					"type": "address"
				},
				{
					"name": "_whitelist",
					"type": "bool"
				}
			],
			"name": "setWhitelist",
			"outputs": [],
			"payable": false,
			"stateMutability": "nonpayable",
			"type": "function"
		},
		{
			"constant": false,
			"inputs": [
				{
					"name": "_aoIonAddress",
					"type": "address"
				}
			],
			"name": "setAOIonAddress",
			"outputs": [],
			"payable": false,
			"stateMutability": "nonpayable",
			"type": "function"
		},
		{
			"constant": false,
			"inputs": [
				{
					"name": "_nameTAOPositionAddress",
					"type": "address"
				}
			],
			"name": "setNameTAOPositionAddress",
			"outputs": [],
			"payable": false,
			"stateMutability": "nonpayable",
			"type": "function"
		},
		{
			"constant": false,
			"inputs": [
				{
					"name": "_account",
					"type": "address"
				},
				{
					"name": "_primordialAmount",
					"type": "uint256"
				},
				{
					"name": "_multiplier",
					"type": "uint256"
				},
				{
					"name": "_networkBonusAmount",
					"type": "uint256"
				}
			],
			"name": "createPrimordialLot",
			"outputs": [
				{
					"name": "",
					"type": "bytes32"
				}
			],
			"payable": false,
			"stateMutability": "nonpayable",
			"type": "function"
		},
		{
			"constant": false,
			"inputs": [
				{
					"name": "_account",
					"type": "address"
				},
				{
					"name": "_amount",
					"type": "uint256"
				},
				{
					"name": "_weightedMultiplier",
					"type": "uint256"
				}
			],
			"name": "createWeightedMultiplierLot",
			"outputs": [
				{
					"name": "",
					"type": "bytes32"
				}
			],
			"payable": false,
			"stateMutability": "nonpayable",
			"type": "function"
		},
		{
			"constant": true,
			"inputs": [
				{
					"name": "_lotId",
					"type": "bytes32"
				}
			],
			"name": "lotById",
			"outputs": [
				{
					"name": "",
					"type": "bytes32"
				},
				{
					"name": "",
					"type": "address"
				},
				{
					"name": "",
					"type": "uint256"
				},
				{
					"name": "",
					"type": "uint256"
				}
			],
			"payable": false,
			"stateMutability": "view",
			"type": "function"
		},
		{
			"constant": true,
			"inputs": [
				{
					"name": "_lotOwner",
					"type": "address"
				}
			],
			"name": "lotIdsByAddress",
			"outputs": [
				{
					"name": "",
					"type": "bytes32[]"
				}
			],
			"payable": false,
			"stateMutability": "view",
			"type": "function"
		},
		{
			"constant": true,
			"inputs": [
				{
					"name": "_lotOwner",
					"type": "address"
				}
			],
			"name": "totalLotsByAddress",
			"outputs": [
				{
					"name": "",
					"type": "uint256"
				}
			],
			"payable": false,
			"stateMutability": "view",
			"type": "function"
		},
		{
			"constant": true,
			"inputs": [
				{
					"name": "_lotOwner",
					"type": "address"
				},
				{
					"name": "_index",
					"type": "uint256"
				}
			],
			"name": "lotOfOwnerByIndex",
			"outputs": [
				{
					"name": "",
					"type": "bytes32"
				},
				{
					"name": "",
					"type": "address"
				},
				{
					"name": "",
					"type": "uint256"
				},
				{
					"name": "",
					"type": "uint256"
				}
			],
			"payable": false,
			"stateMutability": "view",
			"type": "function"
		},
		{
			"constant": false,
			"inputs": [
				{
					"name": "_account",
					"type": "address"
				},
				{
					"name": "_amount",
					"type": "uint256"
				},
				{
					"name": "_multiplierAfterBurn",
					"type": "uint256"
				}
			],
			"name": "createBurnLot",
			"outputs": [
				{
					"name": "",
					"type": "bool"
				}
			],
			"payable": false,
			"stateMutability": "nonpayable",
			"type": "function"
		},
		{
			"constant": true,
			"inputs": [
				{
					"name": "_lotOwner",
					"type": "address"
				}
			],
			"name": "burnLotIdsByAddress",
			"outputs": [
				{
					"name": "",
					"type": "bytes32[]"
				}
			],
			"payable": false,
			"stateMutability": "view",
			"type": "function"
		},
		{
			"constant": true,
			"inputs": [
				{
					"name": "_lotOwner",
					"type": "address"
				}
			],
			"name": "totalBurnLotsByAddress",
			"outputs": [
				{
					"name": "",
					"type": "uint256"
				}
			],
			"payable": false,
			"stateMutability": "view",
			"type": "function"
		},
		{
			"constant": true,
			"inputs": [
				{
					"name": "_burnLotId",
					"type": "bytes32"
				}
			],
			"name": "burnLotById",
			"outputs": [
				{
					"name": "",
					"type": "bytes32"
				},
				{
					"name": "",
					"type": "address"
				},
				{
					"name": "",
					"type": "uint256"
				}
			],
			"payable": false,
			"stateMutability": "view",
			"type": "function"
		},
		{
			"constant": false,
			"inputs": [
				{
					"name": "_account",
					"type": "address"
				},
				{
					"name": "_amount",
					"type": "uint256"
				},
				{
					"name": "_multiplierAfterConversion",
					"type": "uint256"
				}
			],
			"name": "createConvertLot",
			"outputs": [
				{
					"name": "",
					"type": "bool"
				}
			],
			"payable": false,
			"stateMutability": "nonpayable",
			"type": "function"
		},
		{
			"constant": true,
			"inputs": [
				{
					"name": "_lotOwner",
					"type": "address"
				}
			],
			"name": "convertLotIdsByAddress",
			"outputs": [
				{
					"name": "",
					"type": "bytes32[]"
				}
			],
			"payable": false,
			"stateMutability": "view",
			"type": "function"
		},
		{
			"constant": true,
			"inputs": [
				{
					"name": "_lotOwner",
					"type": "address"
				}
			],
			"name": "totalConvertLotsByAddress",
			"outputs": [
				{
					"name": "",
					"type": "uint256"
				}
			],
			"payable": false,
			"stateMutability": "view",
			"type": "function"
		},
		{
			"constant": true,
			"inputs": [
				{
					"name": "_convertLotId",
					"type": "bytes32"
				}
			],
			"name": "convertLotById",
			"outputs": [
				{
					"name": "",
					"type": "bytes32"
				},
				{
					"name": "",
					"type": "address"
				},
				{
					"name": "",
					"type": "uint256"
				}
			],
			"payable": false,
			"stateMutability": "view",
			"type": "function"
		}
	],
	"bytecode": "0x60806040523480156200001157600080fd5b50604051604080620014f983398101604052805160209091015160008054600160a060020a0319163317905562000051826401000000006200006d810204565b620000658164010000000062000168810204565b505062000263565b600054600154604080517ff66afcac000000000000000000000000000000000000000000000000000000008152336004820152600160a060020a0393841660248201529290911660448301525173__AOLibrary_____________________________9163f66afcac916064808301926020929190829003018186803b158015620000f657600080fd5b505af41580156200010b573d6000803e3d6000fd5b505050506040513d60208110156200012257600080fd5b505115156200013057600080fd5b600160a060020a03811615156200014657600080fd5b60038054600160a060020a031916600160a060020a0392909216919091179055565b600054600154604080517ff66afcac000000000000000000000000000000000000000000000000000000008152336004820152600160a060020a0393841660248201529290911660448301525173__AOLibrary_____________________________9163f66afcac916064808301926020929190829003018186803b158015620001f157600080fd5b505af415801562000206573d6000803e3d6000fd5b505050506040513d60208110156200021d57600080fd5b505115156200022b57600080fd5b600160a060020a03811615156200024157600080fd5b60018054600160a060020a031916600160a060020a0392909216919091179055565b61128680620002736000396000f3006080604052600436106101485763ffffffff7c0100000000000000000000000000000000000000000000000000000000600035041663080e74f7811461014d578063178a8f341461019357806328948e5b146102045780632ffeef771461023d57806330a331d114610252578063324b8ad21461028d578063360f277b146102ae5780633be92863146102c35780633c56b0111461030157806341682d9714610332578063424cfd21146103475780634ef033f01461036e57806353d6fd591461038357806354f7dd8c146103ab5780635cfaf2ef146103cf5780637056d1f4146103f05780639b19251a14610411578063a9b6b38e14610432578063af339ee414610447578063d58e17581461045f578063d9c93ccd14610480578063f2fde38b146104aa578063f39cce01146104cb578063f5bd48c4146104ec578063f97106b51461050d575b600080fd5b34801561015957600080fd5b5061016560043561052e565b60408051948552600160a060020a039093166020850152838301919091526060830152519081900360800190f35b34801561019f57600080fd5b506101b4600160a060020a0360043516610591565b60408051602080825283518183015283519192839290830191858101910280838360005b838110156101f05781810151838201526020016101d8565b505050509050019250505060405180910390f35b34801561021057600080fd5b5061022b600160a060020a03600435166024356044356105fe565b60408051918252519081900360200190f35b34801561024957600080fd5b5061022b61064f565b34801561025e57600080fd5b50610279600160a060020a0360043516602435604435610655565b604080519115158252519081900360200190f35b34801561029957600080fd5b5061022b600160a060020a03600435166107fe565b3480156102ba57600080fd5b5061022b610819565b3480156102cf57600080fd5b506102db60043561081f565b60408051938452600160a060020a03909216602084015282820152519081900360600190f35b34801561030d57600080fd5b50610316610874565b60408051600160a060020a039092168252519081900360200190f35b34801561033e57600080fd5b5061022b610883565b34801561035357600080fd5b50610279600160a060020a0360043516602435604435610889565b34801561037a57600080fd5b50610316610a32565b34801561038f57600080fd5b506103a9600160a060020a03600435166024351515610a41565b005b3480156103b757600080fd5b50610165600160a060020a0360043516602435610b2a565b3480156103db57600080fd5b506103a9600160a060020a0360043516610bf0565b3480156103fc57600080fd5b506101b4600160a060020a0360043516610cdd565b34801561041d57600080fd5b50610279600160a060020a0360043516610d48565b34801561043e57600080fd5b50610316610d5d565b34801561045357600080fd5b506102db600435610d6c565b34801561046b57600080fd5b5061022b600160a060020a0360043516610dc1565b34801561048c57600080fd5b5061022b600160a060020a0360043516602435604435606435610ddc565b3480156104b657600080fd5b506103a9600160a060020a0360043516610e0b565b3480156104d757600080fd5b506101b4600160a060020a0360043516610ef8565b3480156104f857600080fd5b5061022b600160a060020a0360043516610f63565b34801561051957600080fd5b506103a9600160a060020a0360043516610f7e565b60008060008061053c611213565b50505060009283525050600760209081526040918290208251608081018452815480825260018301549382018490526002830154600160a060020a031694820185905260039092015460609091018190529093565b600160a060020a0381166000908152600a60209081526040918290208054835181840281018401909452808452606093928301828280156105f257602002820191906000526020600020905b815481526001909101906020018083116105dd575b50505050509050919050565b600354600090600160a060020a0316331461061857600080fd5b600160a060020a038416151561062d57600080fd5b6000831161063a57600080fd5b610647848484600061106b565b949350505050565b60065481565b60035460009081908190600160a060020a0316331461067357600080fd5b6005805460010190819055604080516c01000000000000000000000000308102602080840191909152600160a060020a038b16909102603483015260488083019490945282518083039094018452606890910191829052825182918401908083835b602083106106f45780518252601f1990920191602091820191016106d5565b51815160209384036101000a60001901801990921691161790526040805192909401829003909120600081815260089092529290206001015491955050600160a060020a0316159150610748905057600080fd5b5060008181526008602090815260408083208481556001808201805473ffffffffffffffffffffffffffffffffffffffff1916600160a060020a038c81169182178355600285018c8155918852600b87528588208054948501815588529686902090920187905582549054915484519081529485018990528351929590949116927f6c5992d9f99885465942ae05b2bcc358a509184bb262ec9bfe242ccdc42d1a0392918290030190a350600195945050505050565b600160a060020a03166000908152600b602052604090205490565b60045481565b600080600061082c61123a565b50505060009182525060086020908152604091829020825160608101845281548082526001830154600160a060020a0316938201849052600290920154930183905292909190565b600354600160a060020a031681565b60055481565b60035460009081908190600160a060020a031633146108a757600080fd5b6006805460010190819055604080516c01000000000000000000000000308102602080840191909152600160a060020a038b16909102603483015260488083019490945282518083039094018452606890910191829052825182918401908083835b602083106109285780518252601f199092019160209182019101610909565b51815160209384036101000a60001901801990921691161790526040805192909401829003909120600081815260099092529290206001015491955050600160a060020a031615915061097c905057600080fd5b5060008181526009602090815260408083208481556001808201805473ffffffffffffffffffffffffffffffffffffffff1916600160a060020a038c81169182178355600285018c8155918852600c87528588208054948501815588529686902090920187905582549054915484519081529485018990528351929590949116927f24f057e925d9fc5c8b912d57da9cf8bbcf393fa8c87db8005d378fe9f828e7ba92918290030190a350600195945050505050565b600154600160a060020a031681565b6000546001546040805160e260020a633d9abf2b028152336004820152600160a060020a0393841660248201529290911660448301525173__AOLibrary_____________________________9163f66afcac916064808301926020929190829003018186803b158015610ab357600080fd5b505af4158015610ac7573d6000803e3d6000fd5b505050506040513d6020811015610add57600080fd5b50511515610aea57600080fd5b600160a060020a0382161515610aff57600080fd5b600160a060020a03919091166000908152600260205260409020805460ff1916911515919091179055565b600080600080610b38611213565b600160a060020a0387166000908152600a60205260409020548610610b5c57600080fd5b600160a060020a0387166000908152600a602052604081208054600792919089908110610b8557fe5b600091825260208083209190910154835282810193909352604091820190208151608081018352815480825260018301549482018590526002830154600160a060020a03169382018490526003909201546060909101819052909a9199509197509095509350505050565b6000546001546040805160e260020a633d9abf2b028152336004820152600160a060020a0393841660248201529290911660448301525173__AOLibrary_____________________________9163f66afcac916064808301926020929190829003018186803b158015610c6257600080fd5b505af4158015610c76573d6000803e3d6000fd5b505050506040513d6020811015610c8c57600080fd5b50511515610c9957600080fd5b600160a060020a0381161515610cae57600080fd5b6001805473ffffffffffffffffffffffffffffffffffffffff1916600160a060020a0392909216919091179055565b600160a060020a0381166000908152600b60209081526040918290208054835181840281018401909452808452606093928301828280156105f25760200282019190600052602060002090815481526001909101906020018083116105dd5750505050509050919050565b60026020526000908152604090205460ff1681565b600054600160a060020a031681565b6000806000610d7961123a565b50505060009182525060096020908152604091829020825160608101845281548082526001830154600160a060020a0316938201849052600290920154930183905292909190565b600160a060020a03166000908152600c602052604090205490565b600354600090600160a060020a03163314610df657600080fd5b610e028585858561106b565b95945050505050565b6000546001546040805160e260020a633d9abf2b028152336004820152600160a060020a0393841660248201529290911660448301525173__AOLibrary_____________________________9163f66afcac916064808301926020929190829003018186803b158015610e7d57600080fd5b505af4158015610e91573d6000803e3d6000fd5b505050506040513d6020811015610ea757600080fd5b50511515610eb457600080fd5b600160a060020a0381161515610ec957600080fd5b6000805473ffffffffffffffffffffffffffffffffffffffff1916600160a060020a0392909216919091179055565b600160a060020a0381166000908152600c60209081526040918290208054835181840281018401909452808452606093928301828280156105f25760200282019190600052602060002090815481526001909101906020018083116105dd5750505050509050919050565b600160a060020a03166000908152600a602052604090205490565b6000546001546040805160e260020a633d9abf2b028152336004820152600160a060020a0393841660248201529290911660448301525173__AOLibrary_____________________________9163f66afcac916064808301926020929190829003018186803b158015610ff057600080fd5b505af4158015611004573d6000803e3d6000fd5b505050506040513d602081101561101a57600080fd5b5051151561102757600080fd5b600160a060020a038116151561103c57600080fd5b6003805473ffffffffffffffffffffffffffffffffffffffff1916600160a060020a0392909216919091179055565b6004805460010190819055604080516c01000000000000000000000000308102602080840191909152600160a060020a038916909102603483015260488083019490945282518083039094018452606890910191829052825160009384938493919290918291908401908083835b602083106110f85780518252601f1990920191602091820191016110d9565b51815160209384036101000a60001901801990921691161790526040805192909401829003909120600081815260079092529290206002015491955050600160a060020a031615915061114c905057600080fd5b5060008181526007602090815260408083208481556001808201898155600283018054600160a060020a03808f1673ffffffffffffffffffffffffffffffffffffffff1990921682178355600386018e8155918952600a88528689208054958601815589529787902090930188905583549054915492548551938452958301959095528184018990529251919492909216917f20dcffcce6f33b394371fed8876a2562e3110ed8dbdc448b593a2680c7330a03919081900360600190a35095945050505050565b60408051608081018252600080825260208201819052918101829052606081019190915290565b6040805160608101825260008082526020820181905291810191909152905600a165627a7a7230582097063bdb9b13447ca700f256ab981182c5100b738e5dad056bc802a94b36feec0029",
	"source": "pragma solidity ^0.4.24;\n\nimport './SafeMath.sol';\nimport './AOLibrary.sol';\nimport './TheAO.sol';\nimport './IAOIonLot.sol';\n\n/**\n * @title AOIonLot\n */\ncontract AOIonLot is TheAO {\n\tusing SafeMath for uint256;\n\n\taddress public aoIonAddress;\n\n\tuint256 public totalLots;\n\tuint256 public totalBurnLots;\n\tuint256 public totalConvertLots;\n\n\t/**\n\t * Stores Lot creation data (during network exchange)\n\t */\n\tstruct Lot {\n\t\tbytes32 lotId;\n\t\tuint256 multiplier;\t// This value is in 10^6, so 1000000 = 1\n\t\taddress lotOwner;\n\t\tuint256 amount;\n\t}\n\n\t/**\n\t * Struct to store info when account burns primordial ion\n\t */\n\tstruct BurnLot {\n\t\tbytes32 burnLotId;\n\t\taddress lotOwner;\n\t\tuint256 amount;\n\t}\n\n\t/**\n\t * Struct to store info when account converts network ion to primordial ion\n\t */\n\tstruct ConvertLot {\n\t\tbytes32 convertLotId;\n\t\taddress lotOwner;\n\t\tuint256 amount;\n\t}\n\n\t// Mapping from Lot ID to Lot object\n\tmapping (bytes32 => Lot) internal lots;\n\n\t// Mapping from Burn Lot ID to BurnLot object\n\tmapping (bytes32 => BurnLot) internal burnLots;\n\n\t// Mapping from Convert Lot ID to ConvertLot object\n\tmapping (bytes32 => ConvertLot) internal convertLots;\n\n\t// Mapping from owner to list of owned lot IDs\n\tmapping (address => bytes32[]) internal ownedLots;\n\n\t// Mapping from owner to list of owned burn lot IDs\n\tmapping (address => bytes32[]) internal ownedBurnLots;\n\n\t// Mapping from owner to list of owned convert lot IDs\n\tmapping (address => bytes32[]) internal ownedConvertLots;\n\n\t// Event to be broadcasted to public when a lot is created\n\t// multiplier value is in 10^6 to account for 6 decimal points\n\tevent LotCreation(address indexed lotOwner, bytes32 indexed lotId, uint256 multiplier, uint256 primordialAmount, uint256 networkBonusAmount);\n\n\t// Event to be broadcasted to public when burn lot is created (when account burns primordial ions)\n\tevent BurnLotCreation(address indexed lotOwner, bytes32 indexed burnLotId, uint256 burnAmount, uint256 multiplierAfterBurn);\n\n\t// Event to be broadcasted to public when convert lot is created (when account convert network ions to primordial ions)\n\tevent ConvertLotCreation(address indexed lotOwner, bytes32 indexed convertLotId, uint256 convertAmount, uint256 multiplierAfterConversion);\n\n\t/**\n\t * @dev Constructor function\n\t */\n\tconstructor(address _aoIonAddress, address _nameTAOPositionAddress) public {\n\t\tsetAOIonAddress(_aoIonAddress);\n\t\tsetNameTAOPositionAddress(_nameTAOPositionAddress);\n\t}\n\n\t/**\n\t * @dev Checks if the calling contract address is The AO\n\t *\t\tOR\n\t *\t\tIf The AO is set to a Name/TAO, then check if calling address is the Advocate\n\t */\n\tmodifier onlyTheAO {\n\t\trequire (AOLibrary.isTheAO(msg.sender, theAO, nameTAOPositionAddress));\n\t\t_;\n\t}\n\n\t/**\n\t * @dev Check if calling address is AOIon\n\t */\n\tmodifier onlyAOIon {\n\t\trequire (msg.sender == aoIonAddress);\n\t\t_;\n\t}\n\n\t/***** The AO ONLY METHODS *****/\n\t/**\n\t * @dev Transfer ownership of The AO to new address\n\t * @param _theAO The new address to be transferred\n\t */\n\tfunction transferOwnership(address _theAO) public onlyTheAO {\n\t\trequire (_theAO != address(0));\n\t\ttheAO = _theAO;\n\t}\n\n\t/**\n\t * @dev Whitelist `_account` address to transact on behalf of others\n\t * @param _account The address to whitelist\n\t * @param _whitelist Either to whitelist or not\n\t */\n\tfunction setWhitelist(address _account, bool _whitelist) public onlyTheAO {\n\t\trequire (_account != address(0));\n\t\twhitelist[_account] = _whitelist;\n\t}\n\n\t/**\n\t * @dev The AO set the AOIon Address\n\t * @param _aoIonAddress The address of AOIon\n\t */\n\tfunction setAOIonAddress(address _aoIonAddress) public onlyTheAO {\n\t\trequire (_aoIonAddress != address(0));\n\t\taoIonAddress = _aoIonAddress;\n\t}\n\n\t/**\n\t * @dev The AO set the NameTAOPosition Address\n\t * @param _nameTAOPositionAddress The address of NameTAOPosition\n\t */\n\tfunction setNameTAOPositionAddress(address _nameTAOPositionAddress) public onlyTheAO {\n\t\trequire (_nameTAOPositionAddress != address(0));\n\t\tnameTAOPositionAddress = _nameTAOPositionAddress;\n\t}\n\n\t/***** PUBLIC METHODS *****/\n\t/**\n\t * @dev Create a lot with `primordialAmount` of primordial ions with `_multiplier` for an `account`\n\t *\t\tduring network exchange, and reward `_networkBonusAmount` if exist\n\t * @param _account Address of the lot owner\n\t * @param _primordialAmount The amount of primordial ions to be stored in the lot\n\t * @param _multiplier The multiplier for this lot in (10 ** 6)\n\t * @param _networkBonusAmount The network ion bonus amount\n\t * @return Created lot Id\n\t */\n\tfunction createPrimordialLot(address _account, uint256 _primordialAmount, uint256 _multiplier, uint256 _networkBonusAmount) external onlyAOIon returns (bytes32) {\n\t\treturn _createWeightedMultiplierLot(_account, _primordialAmount, _multiplier, _networkBonusAmount);\n\t}\n\n\t/**\n\t * @dev Create a lot with `amount` of ions at `weightedMultiplier` for an `account`\n\t * @param _account Address of lot owner\n\t * @param _amount The amount of ions\n\t * @param _weightedMultiplier The multiplier of the lot (in 10^6)\n\t * @return bytes32 of new created lot ID\n\t */\n\tfunction createWeightedMultiplierLot(address _account, uint256 _amount, uint256 _weightedMultiplier) external onlyAOIon returns (bytes32) {\n\t\trequire (_account != address(0));\n\t\trequire (_amount > 0);\n\t\treturn _createWeightedMultiplierLot(_account, _amount, _weightedMultiplier, 0);\n\t}\n\n\t/**\n\t * @dev Return the lot information at a given ID\n\t * @param _lotId The lot ID in question\n\t * @return id of the lot\n\t * @return The lot owner address\n\t * @return multiplier of the lot in (10 ** 6)\n\t * @return Primordial ion amount in the lot\n\t */\n\tfunction lotById(bytes32 _lotId) external view returns (bytes32, address, uint256, uint256) {\n\t\tLot memory _lot = lots[_lotId];\n\t\treturn (_lot.lotId, _lot.lotOwner, _lot.multiplier, _lot.amount);\n\t}\n\n\t/**\n\t * @dev Return all lot IDs owned by an address\n\t * @param _lotOwner The address of the lot owner\n\t * @return array of lot IDs\n\t */\n\tfunction lotIdsByAddress(address _lotOwner) public view returns (bytes32[]) {\n\t\treturn ownedLots[_lotOwner];\n\t}\n\n\t/**\n\t * @dev Return the total lots owned by an address\n\t * @param _lotOwner The address of the lot owner\n\t * @return total lots owner by the address\n\t */\n\tfunction totalLotsByAddress(address _lotOwner) external view returns (uint256) {\n\t\treturn ownedLots[_lotOwner].length;\n\t}\n\n\t/**\n\t * @dev Return the lot information at a given index of the lots list of the requested owner\n\t * @param _lotOwner The address owning the lots list to be accessed\n\t * @param _index uint256 representing the index to be accessed of the requested lots list\n\t * @return id of the lot\n\t * @return The address of the lot owner\n\t * @return multiplier of the lot in (10 ** 6)\n\t * @return Primordial ion amount in the lot\n\t */\n\tfunction lotOfOwnerByIndex(address _lotOwner, uint256 _index) public view returns (bytes32, address, uint256, uint256) {\n\t\trequire (_index < ownedLots[_lotOwner].length);\n\t\tLot memory _lot = lots[ownedLots[_lotOwner][_index]];\n\t\treturn (_lot.lotId, _lot.lotOwner, _lot.multiplier, _lot.amount);\n\t}\n\n\t/**\n\t * @dev Store burn lot information\n\t * @param _account The address of the account\n\t * @param _amount The amount of primordial ions to burn\n\t * @param _multiplierAfterBurn The owner's weighted multiplier after burn\n\t * @return true on success\n\t */\n\tfunction createBurnLot(address _account, uint256 _amount, uint256 _multiplierAfterBurn) external onlyAOIon returns (bool) {\n\t\ttotalBurnLots++;\n\n\t\t// Generate burn lot Id\n\t\tbytes32 burnLotId = keccak256(abi.encodePacked(this, _account, totalBurnLots));\n\n\t\t// Make sure no one owns this lot yet\n\t\trequire (burnLots[burnLotId].lotOwner == address(0));\n\n\t\tBurnLot storage burnLot = burnLots[burnLotId];\n\t\tburnLot.burnLotId = burnLotId;\n\t\tburnLot.lotOwner = _account;\n\t\tburnLot.amount = _amount;\n\t\townedBurnLots[_account].push(burnLotId);\n\t\temit BurnLotCreation(burnLot.lotOwner, burnLot.burnLotId, burnLot.amount, _multiplierAfterBurn);\n\t\treturn true;\n\t}\n\n\t/**\n\t * @dev Return all Burn Lot IDs owned by an address\n\t * @param _lotOwner The address of the burn lot owner\n\t * @return array of Burn Lot IDs\n\t */\n\tfunction burnLotIdsByAddress(address _lotOwner) public view returns (bytes32[]) {\n\t\treturn ownedBurnLots[_lotOwner];\n\t}\n\n\t/**\n\t * @dev Return the total burn lots owned by an address\n\t * @param _lotOwner The address of the burn lot owner\n\t * @return total burn lots owner by the address\n\t */\n\tfunction totalBurnLotsByAddress(address _lotOwner) public view returns (uint256) {\n\t\treturn ownedBurnLots[_lotOwner].length;\n\t}\n\n\t/**\n\t * @dev Return the burn lot information at a given ID\n\t * @param _burnLotId The burn lot ID in question\n\t * @return id of the lot\n\t * @return The address of the burn lot owner\n\t * @return Primordial ion amount in the burn lot\n\t */\n\tfunction burnLotById(bytes32 _burnLotId) public view returns (bytes32, address, uint256) {\n\t\tBurnLot memory _burnLot = burnLots[_burnLotId];\n\t\treturn (_burnLot.burnLotId, _burnLot.lotOwner, _burnLot.amount);\n\t}\n\n\t/**\n\t * @dev Store convert lot information\n\t * @param _account The address of the account\n\t * @param _amount The amount to convert\n\t * @param _multiplierAfterConversion The owner's weighted multiplier after conversion\n\t * @return true on success\n\t */\n\tfunction createConvertLot(address _account, uint256 _amount, uint256 _multiplierAfterConversion) external onlyAOIon returns (bool) {\n\t\t// Store convert lot info\n\t\ttotalConvertLots++;\n\n\t\t// Generate convert lot Id\n\t\tbytes32 convertLotId = keccak256(abi.encodePacked(this, _account, totalConvertLots));\n\n\t\t// Make sure no one owns this lot yet\n\t\trequire (convertLots[convertLotId].lotOwner == address(0));\n\n\t\tConvertLot storage convertLot = convertLots[convertLotId];\n\t\tconvertLot.convertLotId = convertLotId;\n\t\tconvertLot.lotOwner = _account;\n\t\tconvertLot.amount = _amount;\n\t\townedConvertLots[_account].push(convertLotId);\n\t\temit ConvertLotCreation(convertLot.lotOwner, convertLot.convertLotId, convertLot.amount, _multiplierAfterConversion);\n\t\treturn true;\n\t}\n\n\t/**\n\t * @dev Return all Convert Lot IDs owned by an address\n\t * @param _lotOwner The address of the convert lot owner\n\t * @return array of Convert Lot IDs\n\t */\n\tfunction convertLotIdsByAddress(address _lotOwner) public view returns (bytes32[]) {\n\t\treturn ownedConvertLots[_lotOwner];\n\t}\n\n\t/**\n\t * @dev Return the total convert lots owned by an address\n\t * @param _lotOwner The address of the convert lot owner\n\t * @return total convert lots owner by the address\n\t */\n\tfunction totalConvertLotsByAddress(address _lotOwner) public view returns (uint256) {\n\t\treturn ownedConvertLots[_lotOwner].length;\n\t}\n\n\t/**\n\t * @dev Return the convert lot information at a given ID\n\t * @param _convertLotId The convert lot ID in question\n\t * @return id of the lot\n\t * @return The address of the convert lot owner\n\t * @return Primordial ion amount in the convert lot\n\t */\n\tfunction convertLotById(bytes32 _convertLotId) public view returns (bytes32, address, uint256) {\n\t\tConvertLot memory _convertLot = convertLots[_convertLotId];\n\t\treturn (_convertLot.convertLotId, _convertLot.lotOwner, _convertLot.amount);\n\t}\n\n\t/***** INTERNAL METHOD *****/\n\t/**\n\t * @dev Actual creating a lot with `amount` of ions at `weightedMultiplier` for an `account`\n\t * @param _account Address of lot owner\n\t * @param _amount The amount of ions\n\t * @param _weightedMultiplier The multiplier of the lot (in 10^6)\n\t * @param _networkBonusAmount The network ion bonus amount\n\t * @return bytes32 of new created lot ID\n\t */\n\tfunction _createWeightedMultiplierLot(address _account, uint256 _amount, uint256 _weightedMultiplier, uint256 _networkBonusAmount) internal returns (bytes32) {\n\t\ttotalLots++;\n\n\t\t// Generate lotId\n\t\tbytes32 lotId = keccak256(abi.encodePacked(address(this), _account, totalLots));\n\n\t\t// Make sure no one owns this lot yet\n\t\trequire (lots[lotId].lotOwner == address(0));\n\n\t\tLot storage lot = lots[lotId];\n\t\tlot.lotId = lotId;\n\t\tlot.multiplier = _weightedMultiplier;\n\t\tlot.lotOwner = _account;\n\t\tlot.amount = _amount;\n\t\townedLots[_account].push(lotId);\n\n\t\temit LotCreation(lot.lotOwner, lot.lotId, lot.multiplier, lot.amount, _networkBonusAmount);\n\t\treturn lotId;\n\t}\n}\n",
	"sourcePath": "/Users/johanmulyono/Work/AO/ao-contracts/contracts/AOIonLot.sol",
	"compiler": {
		"name": "solc",
		"version": "0.4.24+commit.e67f0147.Emscripten.clang"
	},
	"schemaVersion": "2.0.1",
	"updatedAt": "2019-04-04T04:29:47.320Z"
}