{
	"contractName": "AOLibrary",
	"abi": [
		{
			"constant": true,
			"inputs": [
				{
					"name": "_taoId",
					"type": "address"
				}
			],
			"name": "isTAO",
			"outputs": [
				{
					"name": "",
					"type": "bool"
				}
			],
			"payable": false,
			"stateMutability": "view",
			"type": "function"
		},
		{
			"constant": true,
			"inputs": [
				{
					"name": "_nameId",
					"type": "address"
				}
			],
			"name": "isName",
			"outputs": [
				{
					"name": "",
					"type": "bool"
				}
			],
			"payable": false,
			"stateMutability": "view",
			"type": "function"
		},
		{
			"constant": true,
			"inputs": [
				{
					"name": "_tokenAddress",
					"type": "address"
				}
			],
			"name": "isValidERC20TokenAddress",
			"outputs": [
				{
					"name": "",
					"type": "bool"
				}
			],
			"payable": false,
			"stateMutability": "view",
			"type": "function"
		},
		{
			"constant": true,
			"inputs": [
				{
					"name": "_sender",
					"type": "address"
				},
				{
					"name": "_theAO",
					"type": "address"
				},
				{
					"name": "_nameTAOPositionAddress",
					"type": "address"
				}
			],
			"name": "isTheAO",
			"outputs": [
				{
					"name": "",
					"type": "bool"
				}
			],
			"payable": false,
			"stateMutability": "view",
			"type": "function"
		},
		{
			"constant": true,
			"inputs": [],
			"name": "PERCENTAGE_DIVISOR",
			"outputs": [
				{
					"name": "",
					"type": "uint256"
				}
			],
			"payable": false,
			"stateMutability": "pure",
			"type": "function"
		},
		{
			"constant": true,
			"inputs": [],
			"name": "MULTIPLIER_DIVISOR",
			"outputs": [
				{
					"name": "",
					"type": "uint256"
				}
			],
			"payable": false,
			"stateMutability": "pure",
			"type": "function"
		},
		{
			"constant": false,
			"inputs": [
				{
					"name": "_name",
					"type": "string"
				},
				{
					"name": "_originId",
					"type": "address"
				},
				{
					"name": "_datHash",
					"type": "string"
				},
				{
					"name": "_database",
					"type": "string"
				},
				{
					"name": "_keyValue",
					"type": "string"
				},
				{
					"name": "_contentId",
					"type": "bytes32"
				},
				{
					"name": "_nameTAOVaultAddress",
					"type": "address"
				}
			],
			"name": "deployTAO",
			"outputs": [
				{
					"name": "_tao",
					"type": "TAO"
				}
			],
			"payable": false,
			"stateMutability": "nonpayable",
			"type": "function"
		},
		{
			"constant": false,
			"inputs": [
				{
					"name": "_name",
					"type": "string"
				},
				{
					"name": "_originId",
					"type": "address"
				},
				{
					"name": "_datHash",
					"type": "string"
				},
				{
					"name": "_database",
					"type": "string"
				},
				{
					"name": "_keyValue",
					"type": "string"
				},
				{
					"name": "_contentId",
					"type": "bytes32"
				},
				{
					"name": "_nameTAOVaultAddress",
					"type": "address"
				}
			],
			"name": "deployName",
			"outputs": [
				{
					"name": "_myName",
					"type": "Name"
				}
			],
			"payable": false,
			"stateMutability": "nonpayable",
			"type": "function"
		},
		{
			"constant": true,
			"inputs": [
				{
					"name": "_currentWeightedMultiplier",
					"type": "uint256"
				},
				{
					"name": "_currentPrimordialBalance",
					"type": "uint256"
				},
				{
					"name": "_additionalWeightedMultiplier",
					"type": "uint256"
				},
				{
					"name": "_additionalPrimordialAmount",
					"type": "uint256"
				}
			],
			"name": "calculateWeightedMultiplier",
			"outputs": [
				{
					"name": "",
					"type": "uint256"
				}
			],
			"payable": false,
			"stateMutability": "pure",
			"type": "function"
		},
		{
			"constant": true,
			"inputs": [
				{
					"name": "_purchaseAmount",
					"type": "uint256"
				},
				{
					"name": "_totalPrimordialMintable",
					"type": "uint256"
				},
				{
					"name": "_totalPrimordialMinted",
					"type": "uint256"
				},
				{
					"name": "_startingMultiplier",
					"type": "uint256"
				},
				{
					"name": "_endingMultiplier",
					"type": "uint256"
				}
			],
			"name": "calculatePrimordialMultiplier",
			"outputs": [
				{
					"name": "",
					"type": "uint256"
				}
			],
			"payable": false,
			"stateMutability": "pure",
			"type": "function"
		},
		{
			"constant": true,
			"inputs": [
				{
					"name": "_purchaseAmount",
					"type": "uint256"
				},
				{
					"name": "_totalPrimordialMintable",
					"type": "uint256"
				},
				{
					"name": "_totalPrimordialMinted",
					"type": "uint256"
				},
				{
					"name": "_startingMultiplier",
					"type": "uint256"
				},
				{
					"name": "_endingMultiplier",
					"type": "uint256"
				}
			],
			"name": "calculateNetworkBonusPercentage",
			"outputs": [
				{
					"name": "",
					"type": "uint256"
				}
			],
			"payable": false,
			"stateMutability": "pure",
			"type": "function"
		},
		{
			"constant": true,
			"inputs": [
				{
					"name": "_purchaseAmount",
					"type": "uint256"
				},
				{
					"name": "_totalPrimordialMintable",
					"type": "uint256"
				},
				{
					"name": "_totalPrimordialMinted",
					"type": "uint256"
				},
				{
					"name": "_startingMultiplier",
					"type": "uint256"
				},
				{
					"name": "_endingMultiplier",
					"type": "uint256"
				}
			],
			"name": "calculateNetworkBonusAmount",
			"outputs": [
				{
					"name": "",
					"type": "uint256"
				}
			],
			"payable": false,
			"stateMutability": "pure",
			"type": "function"
		},
		{
			"constant": true,
			"inputs": [
				{
					"name": "_primordialBalance",
					"type": "uint256"
				},
				{
					"name": "_currentWeightedMultiplier",
					"type": "uint256"
				},
				{
					"name": "_maximumMultiplier",
					"type": "uint256"
				}
			],
			"name": "calculateMaximumBurnAmount",
			"outputs": [
				{
					"name": "",
					"type": "uint256"
				}
			],
			"payable": false,
			"stateMutability": "pure",
			"type": "function"
		},
		{
			"constant": true,
			"inputs": [
				{
					"name": "_primordialBalance",
					"type": "uint256"
				},
				{
					"name": "_currentWeightedMultiplier",
					"type": "uint256"
				},
				{
					"name": "_amountToBurn",
					"type": "uint256"
				}
			],
			"name": "calculateMultiplierAfterBurn",
			"outputs": [
				{
					"name": "",
					"type": "uint256"
				}
			],
			"payable": false,
			"stateMutability": "pure",
			"type": "function"
		},
		{
			"constant": true,
			"inputs": [
				{
					"name": "_primordialBalance",
					"type": "uint256"
				},
				{
					"name": "_currentWeightedMultiplier",
					"type": "uint256"
				},
				{
					"name": "_amountToConvert",
					"type": "uint256"
				}
			],
			"name": "calculateMultiplierAfterConversion",
			"outputs": [
				{
					"name": "",
					"type": "uint256"
				}
			],
			"payable": false,
			"stateMutability": "pure",
			"type": "function"
		},
		{
			"constant": true,
			"inputs": [
				{
					"name": "number",
					"type": "uint256"
				}
			],
			"name": "numDigits",
			"outputs": [
				{
					"name": "",
					"type": "uint8"
				}
			],
			"payable": false,
			"stateMutability": "pure",
			"type": "function"
		}
	],
	"bytecode": "0x612011610030600b82828239805160001a6073146000811461002057610022565bfe5b5030600052607381538281f3007300000000000000000000000000000000000000003014608060405260043610620000f45763ffffffff60e060020a6000350416632b439a948114620000f95780632d706a3414620001235780632fca5414146200013957806332363e0a146200014f5780634d5a117314620001745780637d3c3ac714620001875780637fbc9c5514620001a05780638cf3313f14620001b3578063a1e7975014620001c9578063b49ec3e1146200031b578063c35f4bbb1462000451578063caf29765146200046a578063d661dd31146200046a578063db9d28d51462000474578063f66afcac1462000497578063f8e2602514620004b9575b600080fd5b6200010f600160a060020a0360043516620004d2565b604080519115158252519081900360200190f35b6200010f600160a060020a036004351662000723565b6200010f600160a060020a03600435166200091a565b6200016260043560243560443562000b0e565b60408051918252519081900360200190f35b6200016260043560243560443562000b4d565b6200016260043560243560443560643560843562000b89565b6200016260043560243560443562000c51565b6200016260043560243560443560643562000c69565b818015620001d657600080fd5b506040805160206004803580820135601f8101849004840285018401909552848452620002ff94369492936024939284019190819084018382808284375050604080516020601f818a01358b0180359182018390048302840183018552818452989b600160a060020a038b35169b909a90999401975091955091820193509150819084018382808284375050604080516020601f89358b018035918201839004830284018301909452808352979a99988101979196509182019450925082915084018382808284375050604080516020601f89358b018035918201839004830284018301909452808352979a9998810197919650918201945092508291508401838280828437509497505084359550505050602090910135600160a060020a0316905062000cea565b60408051600160a060020a039092168252519081900360200190f35b8180156200032857600080fd5b506040805160206004803580820135601f8101849004840285018401909552848452620002ff94369492936024939284019190819084018382808284375050604080516020601f818a01358b0180359182018390048302840183018552818452989b600160a060020a038b35169b909a90999401975091955091820193509150819084018382808284375050604080516020601f89358b018035918201839004830284018301909452808352979a99988101979196509182019450925082915084018382808284375050604080516020601f89358b018035918201839004830284018301909452808352979a9998810197919650918201945092508291508401838280828437509497505084359550505050602090910135600160a060020a0316905062000ef6565b6200016260043560243560443560643560843562000f09565b6200016262000fa1565b6200048160043562000fa8565b6040805160ff9092168252519081900360200190f35b6200010f600160a060020a036004358116906024358116906044351662000fd1565b62000162600435602435604435606435608435620010cd565b600080600160a060020a0383161515620004f057600091506200071d565b829050600081600160a060020a03166318160ddd6040518163ffffffff1660e060020a028152600401602060405180830381600087803b1580156200053457600080fd5b505af115801562000549573d6000803e3d6000fd5b505050506040513d60208110156200056057600080fd5b5051108015906200063f5750600081600160a060020a03166306fdde036040518163ffffffff1660e060020a028152600401600060405180830381600087803b158015620005ad57600080fd5b505af1158015620005c2573d6000803e3d6000fd5b505050506040513d6000823e601f3d908101601f191682016040526020811015620005ec57600080fd5b8101908080516401000000008111156200060557600080fd5b820160208101848111156200061957600080fd5b81516401000000008111828201871017156200063457600080fd5b505092919050505051115b80156200071a5750600081600160a060020a03166395d89b416040518163ffffffff1660e060020a028152600401600060405180830381600087803b1580156200068857600080fd5b505af11580156200069d573d6000803e3d6000fd5b505050506040513d6000823e601f3d908101601f191682016040526020811015620006c757600080fd5b810190808051640100000000811115620006e057600080fd5b82016020810184811115620006f457600080fd5b81516401000000008111828201871017156200070f57600080fd5b505092919050505051115b91505b50919050565b6000600160a060020a038216158015906200080c5750600082600160a060020a03166306fdde036040518163ffffffff1660e060020a028152600401600060405180830381600087803b1580156200077a57600080fd5b505af11580156200078f573d6000803e3d6000fd5b505050506040513d6000823e601f3d908101601f191682016040526020811015620007b957600080fd5b810190808051640100000000811115620007d257600080fd5b82016020810184811115620007e657600080fd5b81516401000000008111828201871017156200080157600080fd5b505092919050505051115b80156200089857506000600160a060020a031682600160a060020a03166313866efa6040518163ffffffff1660e060020a028152600401602060405180830381600087803b1580156200085e57600080fd5b505af115801562000873573d6000803e3d6000fd5b505050506040513d60208110156200088a57600080fd5b5051600160a060020a031614155b801562000914575081600160a060020a0316638f940f636040518163ffffffff1660e060020a028152600401602060405180830381600087803b158015620008df57600080fd5b505af1158015620008f4573d6000803e3d6000fd5b505050506040513d60208110156200090b57600080fd5b505160ff166001145b92915050565b6000600160a060020a0382161580159062000a035750600082600160a060020a03166306fdde036040518163ffffffff1660e060020a028152600401600060405180830381600087803b1580156200097157600080fd5b505af115801562000986573d6000803e3d6000fd5b505050506040513d6000823e601f3d908101601f191682016040526020811015620009b057600080fd5b810190808051640100000000811115620009c957600080fd5b82016020810184811115620009dd57600080fd5b8151640100000000811182820187101715620009f857600080fd5b505092919050505051115b801562000a8f57506000600160a060020a031682600160a060020a03166313866efa6040518163ffffffff1660e060020a028152600401602060405180830381600087803b15801562000a5557600080fd5b505af115801562000a6a573d6000803e3d6000fd5b505050506040513d602081101562000a8157600080fd5b5051600160a060020a031614155b801562000914575081600160a060020a0316638f940f636040518163ffffffff1660e060020a028152600401602060405180830381600087803b15801562000ad657600080fd5b505af115801562000aeb573d6000803e3d6000fd5b505050506040513d602081101562000b0257600080fd5b505160ff161592915050565b600062000b4562000b26858463ffffffff6200110916565b62000b38868663ffffffff6200111c16565b9063ffffffff6200114916565b949350505050565b600062000b458262000b3862000b6a878763ffffffff6200111c16565b62000b7c868963ffffffff6200111c16565b9063ffffffff6200110916565b6000806000808811801562000baf575062000bab878763ffffffff6200110916565b8811155b1562000c415762000bda62000bcc89600263ffffffff6200114916565b879063ffffffff6200115f16565b915062000c36620f424062000b3862000bfa888863ffffffff6200110916565b62000c2962000c188c62000b38620f42408a63ffffffff6200111c16565b620f42409063ffffffff6200110916565b9063ffffffff6200111c16565b905080925062000c46565b600092505b505095945050505050565b600062000b4562000b26858463ffffffff6200115f16565b60008060008087111562000cdc5762000cac62000c8d868663ffffffff6200111c16565b62000c9f898963ffffffff6200111c16565b9063ffffffff6200115f16565b915062000cc0868563ffffffff6200115f16565b905062000cd4828263ffffffff6200114916565b925062000ce0565b8492505b5050949350505050565b60008787878787878762000cfd6200116d565b600160a060020a0380881660208084019190915260a0830185905290831660c083015260e0808352895190830152885182916040830191606084019160808501916101008601918e019080838360005b8381101562000d6757818101518382015260200162000d4d565b50505050905090810190601f16801562000d955780820380516001836020036101000a031916815260200191505b5085810384528a5181528a516020918201918c019080838360005b8381101562000dca57818101518382015260200162000db0565b50505050905090810190601f16801562000df85780820380516001836020036101000a031916815260200191505b5085810383528951815289516020918201918b019080838360005b8381101562000e2d57818101518382015260200162000e13565b50505050905090810190601f16801562000e5b5780820380516001836020036101000a031916815260200191505b5085810382528851815288516020918201918a019080838360005b8381101562000e9057818101518382015260200162000e76565b50505050905090810190601f16801562000ebe5780820380516001836020036101000a031916815260200191505b509b505050505050505050505050604051809103906000f08015801562000ee9573d6000803e3d6000fd5b5098975050505050505050565b60008787878787878762000cfd6200117e565b6000806000808811801562000f2f575062000f2b878763ffffffff6200110916565b8811155b1562000c415762000f4c62000bcc89600263ffffffff6200114916565b915062000f8262000f64868663ffffffff6200110916565b62000c2962000c188a62000b38620f42408863ffffffff6200111c16565b905062000f9981620f424063ffffffff6200114916565b925062000c46565b620f424090565b6000805b8215620009145762000fc683600a63ffffffff6200114916565b925060010162000fac565b600082600160a060020a031684600160a060020a0316148062000b45575062000ffa836200091a565b806200100c57506200100c8362000723565b8015620010215750600160a060020a03821615155b801562000b455750604080517f71ce52ed000000000000000000000000000000000000000000000000000000008152600160a060020a03868116600483015285811660248301529151918416916371ce52ed916044808201926020929091908290030181600087803b1580156200109757600080fd5b505af1158015620010ac573d6000803e3d6000fd5b505050506040513d6020811015620010c357600080fd5b5051949350505050565b6000806000620010e1888888888862000b89565b9150620010fd620f424062000b38848b63ffffffff6200111c16565b98975050505050505050565b6000828211156200111657fe5b50900390565b60008215156200112f5750600062000914565b508181028183828115156200114057fe5b04146200091457fe5b600081838115156200115757fe5b049392505050565b818101828110156200091457fe5b604051610739806200119083390190565b60405161071d80620018c9833901905600608060405234801561001057600080fd5b506040516107393803806107398339810160409081528151602080840151928401516060850151608086015160a087015160c08801519588018051909894850196938501959290940193909291889188918891889188918891889161007b91600191908a019061011a565b5060028054600160a060020a031916600160a060020a03881617905584516100aa90600390602088019061011a565b5083516100be90600490602087019061011a565b5082516100d290600590602086019061011a565b506006919091556007805460008054600160a060020a031916600160a060020a039094169390931790925560ff199091166001179055506101b59a5050505050505050505050565b828054600181600116156101000203166002900490600052602060002090601f016020900481019282601f1061015b57805160ff1916838001178555610188565b82800160010185558215610188579182015b8281111561018857825182559160200191906001019061016d565b50610194929150610198565b5090565b6101b291905b80821115610194576000815560010161019e565b90565b610575806101c46000396000f3006080604052600436106100a35763ffffffff7c01000000000000000000000000000000000000000000000000000000006000350416630568479081146100a557806306fdde031461012f57806313866efa14610144578063430bf08a14610175578063713b563f1461018a5780638f940f631461019f5780639db5dbe4146101ca578063a727be5714610208578063d97aa9771461021d578063e9bb84c214610244575b005b3480156100b157600080fd5b506100ba610268565b6040805160208082528351818301528351919283929083019185019080838360005b838110156100f45781810151838201526020016100dc565b50505050905090810190601f1680156101215780820380516001836020036101000a031916815260200191505b509250505060405180910390f35b34801561013b57600080fd5b506100ba6102f6565b34801561015057600080fd5b50610159610350565b60408051600160a060020a039092168252519081900360200190f35b34801561018157600080fd5b5061015961035f565b34801561019657600080fd5b506100ba61036e565b3480156101ab57600080fd5b506101b46103c9565b6040805160ff9092168252519081900360200190f35b3480156101d657600080fd5b506101f4600160a060020a03600435811690602435166044356103d2565b604080519115158252519081900360200190f35b34801561021457600080fd5b506100ba610490565b34801561022957600080fd5b506102326104eb565b60408051918252519081900360200190f35b34801561025057600080fd5b506101f4600160a060020a03600435166024356104f1565b6003805460408051602060026001851615610100026000190190941693909304601f810184900484028201840190925281815292918301828280156102ee5780601f106102c3576101008083540402835291602001916102ee565b820191906000526020600020905b8154815290600101906020018083116102d157829003601f168201915b505050505081565b60018054604080516020600284861615610100026000190190941693909304601f810184900484028201840190925281815292918301828280156102ee5780601f106102c3576101008083540402835291602001916102ee565b600254600160a060020a031681565b600054600160a060020a031681565b6004805460408051602060026001851615610100026000190190941693909304601f810184900484028201840190925281815292918301828280156102ee5780601f106102c3576101008083540402835291602001916102ee565b60075460ff1681565b600080548190600160a060020a031633146103ec57600080fd5b50604080517fa9059cbb000000000000000000000000000000000000000000000000000000008152600160a060020a038581166004830152602482018590529151869283169163a9059cbb9160448083019260209291908290030181600087803b15801561045957600080fd5b505af115801561046d573d6000803e3d6000fd5b505050506040513d602081101561048357600080fd5b5060019695505050505050565b6005805460408051602060026001851615610100026000190190941693909304601f810184900484028201840190925281815292918301828280156102ee5780601f106102c3576101008083540402835291602001916102ee565b60065481565b60008054600160a060020a0316331461050957600080fd5b604051600160a060020a0384169083156108fc029084906000818181858888f1935050505015801561053f573d6000803e3d6000fd5b50600193925050505600a165627a7a723058205822ef5c3c6213a46930354ca87960125877d25f31f1495c766763fccac918ec0029608060405234801561001057600080fd5b5060405161071d38038061071d8339810160409081528151602080840151928401516060850151608086015160a087015160c0880151958801805190989485019693850195929094019390929161006c916001918a01906100fe565b5060028054600160a060020a031916600160a060020a038816179055845161009b9060039060208801906100fe565b5083516100af9060049060208701906100fe565b5082516100c39060059060208601906100fe565b506006919091556007805460ff1916905560008054600160a060020a031916600160a060020a03909216919091179055506101999350505050565b828054600181600116156101000203166002900490600052602060002090601f016020900481019282601f1061013f57805160ff191683800117855561016c565b8280016001018555821561016c579182015b8281111561016c578251825591602001919060010190610151565b5061017892915061017c565b5090565b61019691905b808211156101785760008155600101610182565b90565b610575806101a86000396000f3006080604052600436106100a35763ffffffff7c01000000000000000000000000000000000000000000000000000000006000350416630568479081146100a557806306fdde031461012f57806313866efa14610144578063430bf08a14610175578063713b563f1461018a5780638f940f631461019f5780639db5dbe4146101ca578063a727be5714610208578063d97aa9771461021d578063e9bb84c214610244575b005b3480156100b157600080fd5b506100ba610268565b6040805160208082528351818301528351919283929083019185019080838360005b838110156100f45781810151838201526020016100dc565b50505050905090810190601f1680156101215780820380516001836020036101000a031916815260200191505b509250505060405180910390f35b34801561013b57600080fd5b506100ba6102f6565b34801561015057600080fd5b50610159610350565b60408051600160a060020a039092168252519081900360200190f35b34801561018157600080fd5b5061015961035f565b34801561019657600080fd5b506100ba61036e565b3480156101ab57600080fd5b506101b46103c9565b6040805160ff9092168252519081900360200190f35b3480156101d657600080fd5b506101f4600160a060020a03600435811690602435166044356103d2565b604080519115158252519081900360200190f35b34801561021457600080fd5b506100ba610490565b34801561022957600080fd5b506102326104eb565b60408051918252519081900360200190f35b34801561025057600080fd5b506101f4600160a060020a03600435166024356104f1565b6003805460408051602060026001851615610100026000190190941693909304601f810184900484028201840190925281815292918301828280156102ee5780601f106102c3576101008083540402835291602001916102ee565b820191906000526020600020905b8154815290600101906020018083116102d157829003601f168201915b505050505081565b60018054604080516020600284861615610100026000190190941693909304601f810184900484028201840190925281815292918301828280156102ee5780601f106102c3576101008083540402835291602001916102ee565b600254600160a060020a031681565b600054600160a060020a031681565b6004805460408051602060026001851615610100026000190190941693909304601f810184900484028201840190925281815292918301828280156102ee5780601f106102c3576101008083540402835291602001916102ee565b60075460ff1681565b600080548190600160a060020a031633146103ec57600080fd5b50604080517fa9059cbb000000000000000000000000000000000000000000000000000000008152600160a060020a038581166004830152602482018590529151869283169163a9059cbb9160448083019260209291908290030181600087803b15801561045957600080fd5b505af115801561046d573d6000803e3d6000fd5b505050506040513d602081101561048357600080fd5b5060019695505050505050565b6005805460408051602060026001851615610100026000190190941693909304601f810184900484028201840190925281815292918301828280156102ee5780601f106102c3576101008083540402835291602001916102ee565b60065481565b60008054600160a060020a0316331461050957600080fd5b604051600160a060020a0384169083156108fc029084906000818181858888f1935050505015801561053f573d6000803e3d6000fd5b50600193925050505600a165627a7a72305820999b60fd63678d0b0ec9c43a5427510d404587aedb540dc32d965926357f52f30029a165627a7a72305820db6feb91e3952148549be00450e359c9e2c401310df42559127feadb5a90b24c0029",
	"source": "pragma solidity ^0.4.24;\n\nimport './SafeMath.sol';\nimport './TAO.sol';\nimport './Name.sol';\nimport './INameTAOPosition.sol';\nimport './TokenERC20.sol';\n\n/**\n * @title AOLibrary\n */\nlibrary AOLibrary {\n\tusing SafeMath for uint256;\n\n\tuint256 constant private _MULTIPLIER_DIVISOR = 10 ** 6; // 1000000 = 1\n\tuint256 constant private _PERCENTAGE_DIVISOR = 10 ** 6; // 100% = 1000000\n\n\t/**\n\t * @dev Check whether or not the given TAO ID is a TAO\n\t * @param _taoId The ID of the TAO\n\t * @return true if yes. false otherwise\n\t */\n\tfunction isTAO(address _taoId) public view returns (bool) {\n\t\treturn (_taoId != address(0) && bytes(TAO(_taoId).name()).length > 0 && TAO(_taoId).originId() != address(0) && TAO(_taoId).typeId() == 0);\n\t}\n\n\t/**\n\t * @dev Check whether or not the given Name ID is a Name\n\t * @param _nameId The ID of the Name\n\t * @return true if yes. false otherwise\n\t */\n\tfunction isName(address _nameId) public view returns (bool) {\n\t\treturn (_nameId != address(0) && bytes(TAO(_nameId).name()).length > 0 && Name(_nameId).originId() != address(0) && Name(_nameId).typeId() == 1);\n\t}\n\n\t/**\n\t * @dev Check if `_tokenAddress` is a valid ERC20 Token address\n\t * @param _tokenAddress The ERC20 Token address to check\n\t */\n\tfunction isValidERC20TokenAddress(address _tokenAddress) public view returns (bool) {\n\t\tif (_tokenAddress == address(0)) {\n\t\t\treturn false;\n\t\t}\n\t\tTokenERC20 _erc20 = TokenERC20(_tokenAddress);\n\t\treturn (_erc20.totalSupply() >= 0 && bytes(_erc20.name()).length > 0 && bytes(_erc20.symbol()).length > 0);\n\t}\n\n\t/**\n\t * @dev Checks if the calling contract address is The AO\n\t *\t\tOR\n\t *\t\tIf The AO is set to a Name/TAO, then check if calling address is the Advocate\n\t * @param _sender The address to check\n\t * @param _theAO The AO address\n\t * @param _nameTAOPositionAddress The address of NameTAOPosition\n\t * @return true if yes, false otherwise\n\t */\n\tfunction isTheAO(address _sender, address _theAO, address _nameTAOPositionAddress) public view returns (bool) {\n\t\treturn (_sender == _theAO ||\n\t\t\t(\n\t\t\t\t(isTAO(_theAO) || isName(_theAO)) &&\n\t\t\t\t_nameTAOPositionAddress != address(0) &&\n\t\t\t\tINameTAOPosition(_nameTAOPositionAddress).senderIsAdvocate(_sender, _theAO)\n\t\t\t)\n\t\t);\n\t}\n\n\t/**\n\t * @dev Return the divisor used to correctly calculate percentage.\n\t *\t\tPercentage stored throughout AO contracts covers 4 decimals,\n\t *\t\tso 1% is 10000, 1.25% is 12500, etc\n\t */\n\tfunction PERCENTAGE_DIVISOR() public pure returns (uint256) {\n\t\treturn _PERCENTAGE_DIVISOR;\n\t}\n\n\t/**\n\t * @dev Return the divisor used to correctly calculate multiplier.\n\t *\t\tMultiplier stored throughout AO contracts covers 6 decimals,\n\t *\t\tso 1 is 1000000, 0.023 is 23000, etc\n\t */\n\tfunction MULTIPLIER_DIVISOR() public pure returns (uint256) {\n\t\treturn _MULTIPLIER_DIVISOR;\n\t}\n\n\t/**\n\t * @dev deploy a TAO\n\t * @param _name The name of the TAO\n\t * @param _originId The Name ID the creates the TAO\n\t * @param _datHash The datHash of this TAO\n\t * @param _database The database for this TAO\n\t * @param _keyValue The key/value pair to be checked on the database\n\t * @param _contentId The contentId related to this TAO\n\t * @param _nameTAOVaultAddress The address of NameTAOVault\n\t */\n\tfunction deployTAO(string _name,\n\t\taddress _originId,\n\t\tstring _datHash,\n\t\tstring _database,\n\t\tstring _keyValue,\n\t\tbytes32 _contentId,\n\t\taddress _nameTAOVaultAddress\n\t\t) public returns (TAO _tao) {\n\t\t_tao = new TAO(_name, _originId, _datHash, _database, _keyValue, _contentId, _nameTAOVaultAddress);\n\t}\n\n\t/**\n\t * @dev deploy a Name\n\t * @param _name The name of the Name\n\t * @param _originId The eth address the creates the Name\n\t * @param _datHash The datHash of this Name\n\t * @param _database The database for this Name\n\t * @param _keyValue The key/value pair to be checked on the database\n\t * @param _contentId The contentId related to this Name\n\t * @param _nameTAOVaultAddress The address of NameTAOVault\n\t */\n\tfunction deployName(string _name,\n\t\taddress _originId,\n\t\tstring _datHash,\n\t\tstring _database,\n\t\tstring _keyValue,\n\t\tbytes32 _contentId,\n\t\taddress _nameTAOVaultAddress\n\t\t) public returns (Name _myName) {\n\t\t_myName = new Name(_name, _originId, _datHash, _database, _keyValue, _contentId, _nameTAOVaultAddress);\n\t}\n\n\t/**\n\t * @dev Calculate the new weighted multiplier when adding `_additionalPrimordialAmount` at `_additionalWeightedMultiplier` to the current `_currentPrimordialBalance` at `_currentWeightedMultiplier`\n\t * @param _currentWeightedMultiplier Account's current weighted multiplier\n\t * @param _currentPrimordialBalance Account's current primordial ion balance\n\t * @param _additionalWeightedMultiplier The weighted multiplier to be added\n\t * @param _additionalPrimordialAmount The primordial ion amount to be added\n\t * @return the new primordial weighted multiplier\n\t */\n\tfunction calculateWeightedMultiplier(uint256 _currentWeightedMultiplier, uint256 _currentPrimordialBalance, uint256 _additionalWeightedMultiplier, uint256 _additionalPrimordialAmount) public pure returns (uint256) {\n\t\tif (_currentWeightedMultiplier > 0) {\n\t\t\tuint256 _totalWeightedIons = (_currentWeightedMultiplier.mul(_currentPrimordialBalance)).add(_additionalWeightedMultiplier.mul(_additionalPrimordialAmount));\n\t\t\tuint256 _totalIons = _currentPrimordialBalance.add(_additionalPrimordialAmount);\n\t\t\treturn _totalWeightedIons.div(_totalIons);\n\t\t} else {\n\t\t\treturn _additionalWeightedMultiplier;\n\t\t}\n\t}\n\n\t/**\n\t * @dev Calculate the primordial ion multiplier on a given lot\n\t *\t\tTotal Primordial Mintable = T\n\t *\t\tTotal Primordial Minted = M\n\t *\t\tStarting Multiplier = S\n\t *\t\tEnding Multiplier = E\n\t *\t\tTo Purchase = P\n\t *\t\tMultiplier for next Lot of Amount = (1 - ((M + P/2) / T)) x (S-E)\n\t *\n\t * @param _purchaseAmount The amount of primordial ion intended to be purchased\n\t * @param _totalPrimordialMintable Total Primordial ion mintable\n\t * @param _totalPrimordialMinted Total Primordial ion minted so far\n\t * @param _startingMultiplier The starting multiplier in (10 ** 6)\n\t * @param _endingMultiplier The ending multiplier in (10 ** 6)\n\t * @return The multiplier in (10 ** 6)\n\t */\n\tfunction calculatePrimordialMultiplier(uint256 _purchaseAmount, uint256 _totalPrimordialMintable, uint256 _totalPrimordialMinted, uint256 _startingMultiplier, uint256 _endingMultiplier) public pure returns (uint256) {\n\t\tif (_purchaseAmount > 0 && _purchaseAmount <= _totalPrimordialMintable.sub(_totalPrimordialMinted)) {\n\t\t\t/**\n\t\t\t * Let temp = M + (P/2)\n\t\t\t * Multiplier = (1 - (temp / T)) x (S-E)\n\t\t\t */\n\t\t\tuint256 temp = _totalPrimordialMinted.add(_purchaseAmount.div(2));\n\n\t\t\t/**\n\t\t\t * Multiply multiplier with _MULTIPLIER_DIVISOR/_MULTIPLIER_DIVISOR to account for 6 decimals\n\t\t\t * so, Multiplier = (_MULTIPLIER_DIVISOR/_MULTIPLIER_DIVISOR) * (1 - (temp / T)) * (S-E)\n\t\t\t * Multiplier = ((_MULTIPLIER_DIVISOR * (1 - (temp / T))) * (S-E)) / _MULTIPLIER_DIVISOR\n\t\t\t * Multiplier = ((_MULTIPLIER_DIVISOR - ((_MULTIPLIER_DIVISOR * temp) / T)) * (S-E)) / _MULTIPLIER_DIVISOR\n\t\t\t * Take out the division by _MULTIPLIER_DIVISOR for now and include in later calculation\n\t\t\t * Multiplier = (_MULTIPLIER_DIVISOR - ((_MULTIPLIER_DIVISOR * temp) / T)) * (S-E)\n\t\t\t */\n\t\t\tuint256 multiplier = (_MULTIPLIER_DIVISOR.sub(_MULTIPLIER_DIVISOR.mul(temp).div(_totalPrimordialMintable))).mul(_startingMultiplier.sub(_endingMultiplier));\n\t\t\t/**\n\t\t\t * Since _startingMultiplier and _endingMultiplier are in 6 decimals\n\t\t\t * Need to divide multiplier by _MULTIPLIER_DIVISOR\n\t\t\t */\n\t\t\treturn multiplier.div(_MULTIPLIER_DIVISOR);\n\t\t} else {\n\t\t\treturn 0;\n\t\t}\n\t}\n\n\t/**\n\t * @dev Calculate the bonus percentage of network ion on a given lot\n\t *\t\tTotal Primordial Mintable = T\n\t *\t\tTotal Primordial Minted = M\n\t *\t\tStarting Network Bonus Multiplier = Bs\n\t *\t\tEnding Network Bonus Multiplier = Be\n\t *\t\tTo Purchase = P\n\t *\t\tAO Bonus % = B% = (1 - ((M + P/2) / T)) x (Bs-Be)\n\t *\n\t * @param _purchaseAmount The amount of primordial ion intended to be purchased\n\t * @param _totalPrimordialMintable Total Primordial ion intable\n\t * @param _totalPrimordialMinted Total Primordial ion minted so far\n\t * @param _startingMultiplier The starting Network ion bonus multiplier\n\t * @param _endingMultiplier The ending Network ion bonus multiplier\n\t * @return The bonus percentage\n\t */\n\tfunction calculateNetworkBonusPercentage(uint256 _purchaseAmount, uint256 _totalPrimordialMintable, uint256 _totalPrimordialMinted, uint256 _startingMultiplier, uint256 _endingMultiplier) public pure returns (uint256) {\n\t\tif (_purchaseAmount > 0 && _purchaseAmount <= _totalPrimordialMintable.sub(_totalPrimordialMinted)) {\n\t\t\t/**\n\t\t\t * Let temp = M + (P/2)\n\t\t\t * B% = (1 - (temp / T)) x (Bs-Be)\n\t\t\t */\n\t\t\tuint256 temp = _totalPrimordialMinted.add(_purchaseAmount.div(2));\n\n\t\t\t/**\n\t\t\t * Multiply B% with _PERCENTAGE_DIVISOR/_PERCENTAGE_DIVISOR to account for 6 decimals\n\t\t\t * so, B% = (_PERCENTAGE_DIVISOR/_PERCENTAGE_DIVISOR) * (1 - (temp / T)) * (Bs-Be)\n\t\t\t * B% = ((_PERCENTAGE_DIVISOR * (1 - (temp / T))) * (Bs-Be)) / _PERCENTAGE_DIVISOR\n\t\t\t * B% = ((_PERCENTAGE_DIVISOR - ((_PERCENTAGE_DIVISOR * temp) / T)) * (Bs-Be)) / _PERCENTAGE_DIVISOR\n\t\t\t * Take out the division by _PERCENTAGE_DIVISOR for now and include in later calculation\n\t\t\t * B% = (_PERCENTAGE_DIVISOR - ((_PERCENTAGE_DIVISOR * temp) / T)) * (Bs-Be)\n\t\t\t * But since Bs and Be are in 6 decimals, need to divide by _PERCENTAGE_DIVISOR\n\t\t\t * B% = (_PERCENTAGE_DIVISOR - ((_PERCENTAGE_DIVISOR * temp) / T)) * (Bs-Be) / _PERCENTAGE_DIVISOR\n\t\t\t */\n\t\t\tuint256 bonusPercentage = (_PERCENTAGE_DIVISOR.sub(_PERCENTAGE_DIVISOR.mul(temp).div(_totalPrimordialMintable))).mul(_startingMultiplier.sub(_endingMultiplier)).div(_PERCENTAGE_DIVISOR);\n\t\t\treturn bonusPercentage;\n\t\t} else {\n\t\t\treturn 0;\n\t\t}\n\t}\n\n\t/**\n\t * @dev Calculate the bonus amount of network ion on a given lot\n\t *\t\tAO Bonus Amount = B% x P\n\t *\n\t * @param _purchaseAmount The amount of primordial ion intended to be purchased\n\t * @param _totalPrimordialMintable Total Primordial ion intable\n\t * @param _totalPrimordialMinted Total Primordial ion minted so far\n\t * @param _startingMultiplier The starting Network ion bonus multiplier\n\t * @param _endingMultiplier The ending Network ion bonus multiplier\n\t * @return The bonus percentage\n\t */\n\tfunction calculateNetworkBonusAmount(uint256 _purchaseAmount, uint256 _totalPrimordialMintable, uint256 _totalPrimordialMinted, uint256 _startingMultiplier, uint256 _endingMultiplier) public pure returns (uint256) {\n\t\tuint256 bonusPercentage = calculateNetworkBonusPercentage(_purchaseAmount, _totalPrimordialMintable, _totalPrimordialMinted, _startingMultiplier, _endingMultiplier);\n\t\t/**\n\t\t * Since bonusPercentage is in _PERCENTAGE_DIVISOR format, need to divide it with _PERCENTAGE DIVISOR\n\t\t * when calculating the network ion bonus amount\n\t\t */\n\t\tuint256 networkBonus = bonusPercentage.mul(_purchaseAmount).div(_PERCENTAGE_DIVISOR);\n\t\treturn networkBonus;\n\t}\n\n\t/**\n\t * @dev Calculate the maximum amount of Primordial an account can burn\n\t *\t\t_primordialBalance = P\n\t *\t\t_currentWeightedMultiplier = M\n\t *\t\t_maximumMultiplier = S\n\t *\t\t_amountToBurn = B\n\t *\t\tB = ((S x P) - (P x M)) / S\n\t *\n\t * @param _primordialBalance Account's primordial ion balance\n\t * @param _currentWeightedMultiplier Account's current weighted multiplier\n\t * @param _maximumMultiplier The maximum multiplier of this account\n\t * @return The maximum burn amount\n\t */\n\tfunction calculateMaximumBurnAmount(uint256 _primordialBalance, uint256 _currentWeightedMultiplier, uint256 _maximumMultiplier) public pure returns (uint256) {\n\t\treturn (_maximumMultiplier.mul(_primordialBalance).sub(_primordialBalance.mul(_currentWeightedMultiplier))).div(_maximumMultiplier);\n\t}\n\n\t/**\n\t * @dev Calculate the new multiplier after burning primordial ion\n\t *\t\t_primordialBalance = P\n\t *\t\t_currentWeightedMultiplier = M\n\t *\t\t_amountToBurn = B\n\t *\t\t_newMultiplier = E\n\t *\t\tE = (P x M) / (P - B)\n\t *\n\t * @param _primordialBalance Account's primordial ion balance\n\t * @param _currentWeightedMultiplier Account's current weighted multiplier\n\t * @param _amountToBurn The amount of primordial ion to burn\n\t * @return The new multiplier\n\t */\n\tfunction calculateMultiplierAfterBurn(uint256 _primordialBalance, uint256 _currentWeightedMultiplier, uint256 _amountToBurn) public pure returns (uint256) {\n\t\treturn _primordialBalance.mul(_currentWeightedMultiplier).div(_primordialBalance.sub(_amountToBurn));\n\t}\n\n\t/**\n\t * @dev Calculate the new multiplier after converting network ion to primordial ion\n\t *\t\t_primordialBalance = P\n\t *\t\t_currentWeightedMultiplier = M\n\t *\t\t_amountToConvert = C\n\t *\t\t_newMultiplier = E\n\t *\t\tE = (P x M) / (P + C)\n\t *\n\t * @param _primordialBalance Account's primordial ion balance\n\t * @param _currentWeightedMultiplier Account's current weighted multiplier\n\t * @param _amountToConvert The amount of network ion to convert\n\t * @return The new multiplier\n\t */\n\tfunction calculateMultiplierAfterConversion(uint256 _primordialBalance, uint256 _currentWeightedMultiplier, uint256 _amountToConvert) public pure returns (uint256) {\n\t\treturn _primordialBalance.mul(_currentWeightedMultiplier).div(_primordialBalance.add(_amountToConvert));\n\t}\n\n\t/**\n\t * @dev count num of digits\n\t * @param number uint256 of the nuumber to be checked\n\t * @return uint8 num of digits\n\t */\n\tfunction numDigits(uint256 number) public pure returns (uint8) {\n\t\tuint8 digits = 0;\n\t\twhile(number != 0) {\n\t\t\tnumber = number.div(10);\n\t\t\tdigits++;\n\t\t}\n\t\treturn digits;\n\t}\n}\n",
	"sourcePath": "/Users/johanmulyono/Work/AO/ao-contracts/contracts/AOLibrary.sol",
	"compiler": {
		"name": "solc",
		"version": "0.4.24+commit.e67f0147.Emscripten.clang"
	},
	"schemaVersion": "2.0.1",
	"updatedAt": "2019-03-22T03:50:43.256Z"
}