{
	"contractName": "AOPool",
	"abi": [
		{
			"constant": true,
			"inputs": [
				{
					"name": "",
					"type": "uint256"
				}
			],
			"name": "poolERC20TokenBalance",
			"outputs": [
				{
					"name": "",
					"type": "uint256"
				}
			],
			"payable": false,
			"stateMutability": "view",
			"type": "function"
		},
		{
			"constant": true,
			"inputs": [],
			"name": "contractTotalQuantity",
			"outputs": [
				{
					"name": "",
					"type": "uint256"
				}
			],
			"payable": false,
			"stateMutability": "view",
			"type": "function"
		},
		{
			"constant": true,
			"inputs": [],
			"name": "contractTotalBuy",
			"outputs": [
				{
					"name": "",
					"type": "uint256"
				}
			],
			"payable": false,
			"stateMutability": "view",
			"type": "function"
		},
		{
			"constant": true,
			"inputs": [],
			"name": "contractTotalSell",
			"outputs": [
				{
					"name": "",
					"type": "uint256"
				}
			],
			"payable": false,
			"stateMutability": "view",
			"type": "function"
		},
		{
			"constant": true,
			"inputs": [],
			"name": "aoIonAddress",
			"outputs": [
				{
					"name": "",
					"type": "address"
				}
			],
			"payable": false,
			"stateMutability": "view",
			"type": "function"
		},
		{
			"constant": true,
			"inputs": [
				{
					"name": "",
					"type": "address"
				}
			],
			"name": "totalBought",
			"outputs": [
				{
					"name": "",
					"type": "uint256"
				}
			],
			"payable": false,
			"stateMutability": "view",
			"type": "function"
		},
		{
			"constant": true,
			"inputs": [
				{
					"name": "",
					"type": "uint256"
				}
			],
			"name": "poolTotalQuantity",
			"outputs": [
				{
					"name": "",
					"type": "uint256"
				}
			],
			"payable": false,
			"stateMutability": "view",
			"type": "function"
		},
		{
			"constant": true,
			"inputs": [],
			"name": "nameTAOPositionAddress",
			"outputs": [
				{
					"name": "",
					"type": "address"
				}
			],
			"payable": false,
			"stateMutability": "view",
			"type": "function"
		},
		{
			"constant": true,
			"inputs": [],
			"name": "contractTotalLot",
			"outputs": [
				{
					"name": "",
					"type": "uint256"
				}
			],
			"payable": false,
			"stateMutability": "view",
			"type": "function"
		},
		{
			"constant": true,
			"inputs": [
				{
					"name": "",
					"type": "uint256"
				}
			],
			"name": "poolTotalBuy",
			"outputs": [
				{
					"name": "",
					"type": "uint256"
				}
			],
			"payable": false,
			"stateMutability": "view",
			"type": "function"
		},
		{
			"constant": true,
			"inputs": [],
			"name": "contractEthereumBalance",
			"outputs": [
				{
					"name": "",
					"type": "uint256"
				}
			],
			"payable": false,
			"stateMutability": "view",
			"type": "function"
		},
		{
			"constant": true,
			"inputs": [
				{
					"name": "",
					"type": "address"
				}
			],
			"name": "whitelist",
			"outputs": [
				{
					"name": "",
					"type": "bool"
				}
			],
			"payable": false,
			"stateMutability": "view",
			"type": "function"
		},
		{
			"constant": true,
			"inputs": [],
			"name": "theAO",
			"outputs": [
				{
					"name": "",
					"type": "address"
				}
			],
			"payable": false,
			"stateMutability": "view",
			"type": "function"
		},
		{
			"constant": true,
			"inputs": [
				{
					"name": "",
					"type": "uint256"
				}
			],
			"name": "pools",
			"outputs": [
				{
					"name": "price",
					"type": "uint256"
				},
				{
					"name": "status",
					"type": "bool"
				},
				{
					"name": "sellCapStatus",
					"type": "bool"
				},
				{
					"name": "sellCapAmount",
					"type": "uint256"
				},
				{
					"name": "quantityCapStatus",
					"type": "bool"
				},
				{
					"name": "quantityCapAmount",
					"type": "uint256"
				},
				{
					"name": "erc20CounterAsset",
					"type": "bool"
				},
				{
					"name": "erc20TokenAddress",
					"type": "address"
				},
				{
					"name": "erc20TokenMultiplier",
					"type": "uint256"
				},
				{
					"name": "adminAddress",
					"type": "address"
				}
			],
			"payable": false,
			"stateMutability": "view",
			"type": "function"
		},
		{
			"constant": true,
			"inputs": [
				{
					"name": "",
					"type": "uint256"
				}
			],
			"name": "poolEthereumBalance",
			"outputs": [
				{
					"name": "",
					"type": "uint256"
				}
			],
			"payable": false,
			"stateMutability": "view",
			"type": "function"
		},
		{
			"constant": true,
			"inputs": [
				{
					"name": "",
					"type": "address"
				}
			],
			"name": "totalPutOnSale",
			"outputs": [
				{
					"name": "",
					"type": "uint256"
				}
			],
			"payable": false,
			"stateMutability": "view",
			"type": "function"
		},
		{
			"constant": true,
			"inputs": [
				{
					"name": "",
					"type": "uint256"
				}
			],
			"name": "poolTotalLot",
			"outputs": [
				{
					"name": "",
					"type": "uint256"
				}
			],
			"payable": false,
			"stateMutability": "view",
			"type": "function"
		},
		{
			"constant": true,
			"inputs": [
				{
					"name": "",
					"type": "uint256"
				}
			],
			"name": "poolTotalEthereumWithdrawn",
			"outputs": [
				{
					"name": "",
					"type": "uint256"
				}
			],
			"payable": false,
			"stateMutability": "view",
			"type": "function"
		},
		{
			"constant": true,
			"inputs": [
				{
					"name": "",
					"type": "uint256"
				}
			],
			"name": "poolTotalWithdrawn",
			"outputs": [
				{
					"name": "",
					"type": "uint256"
				}
			],
			"payable": false,
			"stateMutability": "view",
			"type": "function"
		},
		{
			"constant": true,
			"inputs": [],
			"name": "contractTotalWithdrawn",
			"outputs": [
				{
					"name": "",
					"type": "uint256"
				}
			],
			"payable": false,
			"stateMutability": "view",
			"type": "function"
		},
		{
			"constant": true,
			"inputs": [
				{
					"name": "",
					"type": "address"
				}
			],
			"name": "totalEthereumWithdrawn",
			"outputs": [
				{
					"name": "",
					"type": "uint256"
				}
			],
			"payable": false,
			"stateMutability": "view",
			"type": "function"
		},
		{
			"constant": true,
			"inputs": [],
			"name": "contractTotalEthereumWithdrawn",
			"outputs": [
				{
					"name": "",
					"type": "uint256"
				}
			],
			"payable": false,
			"stateMutability": "view",
			"type": "function"
		},
		{
			"constant": true,
			"inputs": [
				{
					"name": "",
					"type": "uint256"
				}
			],
			"name": "poolTotalSell",
			"outputs": [
				{
					"name": "",
					"type": "uint256"
				}
			],
			"payable": false,
			"stateMutability": "view",
			"type": "function"
		},
		{
			"constant": true,
			"inputs": [
				{
					"name": "",
					"type": "bytes32"
				}
			],
			"name": "lots",
			"outputs": [
				{
					"name": "lotId",
					"type": "bytes32"
				},
				{
					"name": "seller",
					"type": "address"
				},
				{
					"name": "lotQuantity",
					"type": "uint256"
				},
				{
					"name": "poolId",
					"type": "uint256"
				},
				{
					"name": "poolPreSellSnapshot",
					"type": "uint256"
				},
				{
					"name": "poolSellLotSnapshot",
					"type": "uint256"
				},
				{
					"name": "lotValueInCounterAsset",
					"type": "uint256"
				},
				{
					"name": "counterAssetWithdrawn",
					"type": "uint256"
				},
				{
					"name": "ionWithdrawn",
					"type": "uint256"
				},
				{
					"name": "timestamp",
					"type": "uint256"
				}
			],
			"payable": false,
			"stateMutability": "view",
			"type": "function"
		},
		{
			"constant": true,
			"inputs": [
				{
					"name": "",
					"type": "address"
				}
			],
			"name": "totalSold",
			"outputs": [
				{
					"name": "",
					"type": "uint256"
				}
			],
			"payable": false,
			"stateMutability": "view",
			"type": "function"
		},
		{
			"constant": true,
			"inputs": [],
			"name": "totalPool",
			"outputs": [
				{
					"name": "",
					"type": "uint256"
				}
			],
			"payable": false,
			"stateMutability": "view",
			"type": "function"
		},
		{
			"inputs": [
				{
					"name": "_aoIonAddress",
					"type": "address"
				},
				{
					"name": "_nameTAOPositionAddress",
					"type": "address"
				}
			],
			"payable": false,
			"stateMutability": "nonpayable",
			"type": "constructor"
		},
		{
			"anonymous": false,
			"inputs": [
				{
					"indexed": true,
					"name": "poolId",
					"type": "uint256"
				},
				{
					"indexed": true,
					"name": "adminAddress",
					"type": "address"
				},
				{
					"indexed": false,
					"name": "price",
					"type": "uint256"
				},
				{
					"indexed": false,
					"name": "status",
					"type": "bool"
				},
				{
					"indexed": false,
					"name": "sellCapStatus",
					"type": "bool"
				},
				{
					"indexed": false,
					"name": "sellCapAmount",
					"type": "uint256"
				},
				{
					"indexed": false,
					"name": "quantityCapStatus",
					"type": "bool"
				},
				{
					"indexed": false,
					"name": "quantityCapAmount",
					"type": "uint256"
				},
				{
					"indexed": false,
					"name": "erc20CounterAsset",
					"type": "bool"
				},
				{
					"indexed": false,
					"name": "erc20TokenAddress",
					"type": "address"
				},
				{
					"indexed": false,
					"name": "erc20TokenMultiplier",
					"type": "uint256"
				}
			],
			"name": "CreatePool",
			"type": "event"
		},
		{
			"anonymous": false,
			"inputs": [
				{
					"indexed": true,
					"name": "poolId",
					"type": "uint256"
				},
				{
					"indexed": false,
					"name": "status",
					"type": "bool"
				}
			],
			"name": "UpdatePoolStatus",
			"type": "event"
		},
		{
			"anonymous": false,
			"inputs": [
				{
					"indexed": true,
					"name": "poolId",
					"type": "uint256"
				},
				{
					"indexed": false,
					"name": "newAdminAddress",
					"type": "address"
				}
			],
			"name": "ChangeAdminAddress",
			"type": "event"
		},
		{
			"anonymous": false,
			"inputs": [
				{
					"indexed": true,
					"name": "poolId",
					"type": "uint256"
				},
				{
					"indexed": true,
					"name": "lotId",
					"type": "bytes32"
				},
				{
					"indexed": true,
					"name": "seller",
					"type": "address"
				},
				{
					"indexed": false,
					"name": "lotQuantity",
					"type": "uint256"
				},
				{
					"indexed": false,
					"name": "price",
					"type": "uint256"
				},
				{
					"indexed": false,
					"name": "poolPreSellSnapshot",
					"type": "uint256"
				},
				{
					"indexed": false,
					"name": "poolSellLotSnapshot",
					"type": "uint256"
				},
				{
					"indexed": false,
					"name": "lotValueInCounterAsset",
					"type": "uint256"
				},
				{
					"indexed": false,
					"name": "erc20CounterAsset",
					"type": "bool"
				},
				{
					"indexed": false,
					"name": "timestamp",
					"type": "uint256"
				}
			],
			"name": "LotCreation",
			"type": "event"
		},
		{
			"anonymous": false,
			"inputs": [
				{
					"indexed": true,
					"name": "poolId",
					"type": "uint256"
				},
				{
					"indexed": true,
					"name": "buyer",
					"type": "address"
				},
				{
					"indexed": false,
					"name": "buyQuantity",
					"type": "uint256"
				},
				{
					"indexed": false,
					"name": "price",
					"type": "uint256"
				},
				{
					"indexed": false,
					"name": "currentPoolTotalBuy",
					"type": "uint256"
				}
			],
			"name": "BuyWithEth",
			"type": "event"
		},
		{
			"anonymous": false,
			"inputs": [
				{
					"indexed": true,
					"name": "seller",
					"type": "address"
				},
				{
					"indexed": true,
					"name": "lotId",
					"type": "bytes32"
				},
				{
					"indexed": true,
					"name": "poolId",
					"type": "uint256"
				},
				{
					"indexed": false,
					"name": "withdrawnAmount",
					"type": "uint256"
				},
				{
					"indexed": false,
					"name": "currentLotValueInCounterAsset",
					"type": "uint256"
				},
				{
					"indexed": false,
					"name": "currentLotCounterAssetWithdrawn",
					"type": "uint256"
				}
			],
			"name": "WithdrawEth",
			"type": "event"
		},
		{
			"anonymous": false,
			"inputs": [
				{
					"indexed": true,
					"name": "seller",
					"type": "address"
				},
				{
					"indexed": true,
					"name": "lotId",
					"type": "bytes32"
				},
				{
					"indexed": true,
					"name": "poolId",
					"type": "uint256"
				},
				{
					"indexed": false,
					"name": "withdrawnAmount",
					"type": "uint256"
				},
				{
					"indexed": false,
					"name": "currentlotValueInCounterAsset",
					"type": "uint256"
				},
				{
					"indexed": false,
					"name": "currentLotIonWithdrawn",
					"type": "uint256"
				}
			],
			"name": "WithdrawIon",
			"type": "event"
		},
		{
			"constant": false,
			"inputs": [
				{
					"name": "_theAO",
					"type": "address"
				}
			],
			"name": "transferOwnership",
			"outputs": [],
			"payable": false,
			"stateMutability": "nonpayable",
			"type": "function"
		},
		{
			"constant": false,
			"inputs": [
				{
					"name": "_account",
					"type": "address"
				},
				{
					"name": "_whitelist",
					"type": "bool"
				}
			],
			"name": "setWhitelist",
			"outputs": [],
			"payable": false,
			"stateMutability": "nonpayable",
			"type": "function"
		},
		{
			"constant": false,
			"inputs": [
				{
					"name": "_aoIonAddress",
					"type": "address"
				}
			],
			"name": "setAOIonAddress",
			"outputs": [],
			"payable": false,
			"stateMutability": "nonpayable",
			"type": "function"
		},
		{
			"constant": false,
			"inputs": [
				{
					"name": "_nameTAOPositionAddress",
					"type": "address"
				}
			],
			"name": "setNameTAOPositionAddress",
			"outputs": [],
			"payable": false,
			"stateMutability": "nonpayable",
			"type": "function"
		},
		{
			"constant": false,
			"inputs": [
				{
					"name": "_recipient",
					"type": "address"
				},
				{
					"name": "_amount",
					"type": "uint256"
				}
			],
			"name": "transferEth",
			"outputs": [],
			"payable": false,
			"stateMutability": "nonpayable",
			"type": "function"
		},
		{
			"constant": false,
			"inputs": [
				{
					"name": "_erc20TokenAddress",
					"type": "address"
				},
				{
					"name": "_recipient",
					"type": "address"
				},
				{
					"name": "_amount",
					"type": "uint256"
				}
			],
			"name": "transferERC20",
			"outputs": [],
			"payable": false,
			"stateMutability": "nonpayable",
			"type": "function"
		},
		{
			"constant": false,
			"inputs": [
				{
					"name": "_price",
					"type": "uint256"
				},
				{
					"name": "_status",
					"type": "bool"
				},
				{
					"name": "_sellCapStatus",
					"type": "bool"
				},
				{
					"name": "_sellCapAmount",
					"type": "uint256"
				},
				{
					"name": "_quantityCapStatus",
					"type": "bool"
				},
				{
					"name": "_quantityCapAmount",
					"type": "uint256"
				},
				{
					"name": "_erc20CounterAsset",
					"type": "bool"
				},
				{
					"name": "_erc20TokenAddress",
					"type": "address"
				},
				{
					"name": "_erc20TokenMultiplier",
					"type": "uint256"
				}
			],
			"name": "createPool",
			"outputs": [],
			"payable": false,
			"stateMutability": "nonpayable",
			"type": "function"
		},
		{
			"constant": false,
			"inputs": [
				{
					"name": "_poolId",
					"type": "uint256"
				},
				{
					"name": "_status",
					"type": "bool"
				}
			],
			"name": "updatePoolStatus",
			"outputs": [],
			"payable": false,
			"stateMutability": "nonpayable",
			"type": "function"
		},
		{
			"constant": false,
			"inputs": [
				{
					"name": "_poolId",
					"type": "uint256"
				},
				{
					"name": "_adminAddress",
					"type": "address"
				}
			],
			"name": "changeAdminAddress",
			"outputs": [],
			"payable": false,
			"stateMutability": "nonpayable",
			"type": "function"
		},
		{
			"constant": false,
			"inputs": [
				{
					"name": "_poolId",
					"type": "uint256"
				},
				{
					"name": "_quantity",
					"type": "uint256"
				},
				{
					"name": "_price",
					"type": "uint256"
				}
			],
			"name": "sell",
			"outputs": [],
			"payable": false,
			"stateMutability": "nonpayable",
			"type": "function"
		},
		{
			"constant": true,
			"inputs": [
				{
					"name": "_account",
					"type": "address"
				}
			],
			"name": "ownerTotalLot",
			"outputs": [
				{
					"name": "",
					"type": "uint256"
				}
			],
			"payable": false,
			"stateMutability": "view",
			"type": "function"
		},
		{
			"constant": true,
			"inputs": [
				{
					"name": "_account",
					"type": "address"
				},
				{
					"name": "_from",
					"type": "uint256"
				},
				{
					"name": "_to",
					"type": "uint256"
				}
			],
			"name": "ownerLotIds",
			"outputs": [
				{
					"name": "",
					"type": "bytes32[]"
				}
			],
			"payable": false,
			"stateMutability": "view",
			"type": "function"
		},
		{
			"constant": false,
			"inputs": [
				{
					"name": "_poolId",
					"type": "uint256"
				},
				{
					"name": "_quantity",
					"type": "uint256"
				},
				{
					"name": "_price",
					"type": "uint256"
				}
			],
			"name": "buyWithEth",
			"outputs": [],
			"payable": true,
			"stateMutability": "payable",
			"type": "function"
		},
		{
			"constant": false,
			"inputs": [
				{
					"name": "_lotId",
					"type": "bytes32"
				}
			],
			"name": "withdrawEth",
			"outputs": [],
			"payable": false,
			"stateMutability": "nonpayable",
			"type": "function"
		},
		{
			"constant": true,
			"inputs": [
				{
					"name": "_lotId",
					"type": "bytes32"
				}
			],
			"name": "lotEthAvailableToWithdraw",
			"outputs": [
				{
					"name": "",
					"type": "uint256"
				},
				{
					"name": "",
					"type": "uint256"
				},
				{
					"name": "",
					"type": "uint256"
				}
			],
			"payable": false,
			"stateMutability": "view",
			"type": "function"
		},
		{
			"constant": false,
			"inputs": [
				{
					"name": "_lotId",
					"type": "bytes32"
				},
				{
					"name": "_quantity",
					"type": "uint256"
				}
			],
			"name": "withdrawIon",
			"outputs": [],
			"payable": false,
			"stateMutability": "nonpayable",
			"type": "function"
		},
		{
			"constant": true,
			"inputs": [
				{
					"name": "_lotId",
					"type": "bytes32"
				}
			],
			"name": "totalIonWithdrawnBeforeLot",
			"outputs": [
				{
					"name": "",
					"type": "uint256"
				}
			],
			"payable": false,
			"stateMutability": "view",
			"type": "function"
		}
	],
	"bytecode": "0x60806040523480156200001157600080fd5b506040516040806200383c83398101604052805160209091015160008054600160a060020a0319163317905562000051826401000000006200006d810204565b620000658164010000000062000172810204565b50506200026d565b600054600154604080517ff66afcac000000000000000000000000000000000000000000000000000000008152336004820152600160a060020a0393841660248201529290911660448301525173__AOLibrary_____________________________9163f66afcac916064808301926020929190829003018186803b158015620000f657600080fd5b505af41580156200010b573d6000803e3d6000fd5b505050506040513d60208110156200012257600080fd5b505115156200013057600080fd5b600160a060020a03811615156200014657600080fd5b60038054600160a060020a03909216600160a060020a0319928316811790915560048054909216179055565b600054600154604080517ff66afcac000000000000000000000000000000000000000000000000000000008152336004820152600160a060020a0393841660248201529290911660448301525173__AOLibrary_____________________________9163f66afcac916064808301926020929190829003018186803b158015620001fb57600080fd5b505af415801562000210573d6000803e3d6000fd5b505050506040513d60208110156200022757600080fd5b505115156200023557600080fd5b600160a060020a03811615156200024b57600080fd5b60018054600160a060020a031916600160a060020a0392909216919091179055565b6135bf806200027d6000396000f30060806040526004361061020e5763ffffffff7c0100000000000000000000000000000000000000000000000000000000600035041663053db66d811461021357806307e6e0b41461023d5780630f63acb4146102505780632ca3000b146102655780632d9608c11461027a57806335758d481461029e578063375cd4f6146102b95780633c56b011146102ce5780634663b1b2146102ff5780634ce3c8d8146103205780634ef033f01461033857806350159a9e1461034d57806353d6fd5914610362578063560e8783146103885780635cfaf2ef146103a55780635d813eb4146103c657806398810147146103e757806399ff470e146103ff5780639b19251a146104145780639db5dbe414610449578063a9b6b38e14610473578063ac4afa3814610488578063b760b91a14610501578063bf205c7814610519578063c17cdeff1461053a578063c33c24bd14610552578063c513b4a41461056a578063ccb47b0b146105a0578063ccf14847146105b8578063cd9be6b2146105cd578063d1be4297146105e5578063d3c9727c14610606578063ddba78e514610624578063ddec1a1a14610639578063de4796cd14610651578063e19fbbb1146106c1578063e25fb6ee14610703578063e9bb84c214610724578063ecfb49a314610748578063f2fde38b1461075d578063f838955a1461077e578063f97106b5146107f5578063fa0bbc3714610816575b600080fd5b34801561021f57600080fd5b5061022b60043561082e565b60408051918252519081900360200190f35b61024e600435602435604435610840565b005b34801561025c57600080fd5b5061022b610b62565b34801561027157600080fd5b5061022b610b68565b34801561028657600080fd5b5061024e600435600160a060020a0360243516610b6e565b3480156102aa57600080fd5b5061024e600435602435610cdb565b3480156102c557600080fd5b5061022b611516565b3480156102da57600080fd5b506102e361151c565b60408051600160a060020a039092168252519081900360200190f35b34801561030b57600080fd5b5061022b600160a060020a036004351661152b565b34801561032c57600080fd5b5061022b60043561153d565b34801561034457600080fd5b506102e361154f565b34801561035957600080fd5b5061022b61155e565b34801561036e57600080fd5b5061024e600160a060020a03600435166024351515611564565b34801561039457600080fd5b5061024e600435602435151561164d565b3480156103b157600080fd5b5061024e600160a060020a036004351661178b565b3480156103d257600080fd5b5061022b600160a060020a0360043516611878565b3480156103f357600080fd5b5061022b600435611893565b34801561040b57600080fd5b5061022b6118a5565b34801561042057600080fd5b50610435600160a060020a03600435166118ab565b604080519115158252519081900360200190f35b34801561045557600080fd5b5061024e600160a060020a03600435811690602435166044356118c0565b34801561047f57600080fd5b506102e3611a14565b34801561049457600080fd5b506104a0600435611a23565b604080519a8b5298151560208b0152961515898901526060890195909552921515608088015260a0870191909152151560c0860152600160a060020a0390811660e08601526101008501919091521661012083015251908190036101400190f35b34801561050d57600080fd5b5061022b600435611a84565b34801561052557600080fd5b5061022b600160a060020a0360043516611a96565b34801561054657600080fd5b5061022b600435611aa8565b34801561055e57600080fd5b5061022b600435611aba565b34801561057657600080fd5b50610582600435611acc565b60408051938452602084019290925282820152519081900360600190f35b3480156105ac57600080fd5b5061022b600435611d68565b3480156105c457600080fd5b5061022b611d7a565b3480156105d957600080fd5b5061024e600435611d80565b3480156105f157600080fd5b5061022b600160a060020a0360043516611fea565b34801561061257600080fd5b5061024e600435602435604435611ffc565b34801561063057600080fd5b5061022b61255f565b34801561064557600080fd5b5061022b600435612565565b34801561065d57600080fd5b50610669600435612577565b604080519a8b52600160a060020a0390991660208b0152898901979097526060890195909552608088019390935260a087019190915260c086015260e085015261010084015261012083015251908190036101400190f35b3480156106cd57600080fd5b5061024e60043560243515156044351515606435608435151560a43560c4351515600160a060020a0360e43516610104356125d2565b34801561070f57600080fd5b5061022b600160a060020a0360043516612924565b34801561073057600080fd5b5061024e600160a060020a0360043516602435612936565b34801561075457600080fd5b5061022b612a1a565b34801561076957600080fd5b5061024e600160a060020a0360043516612a20565b34801561078a57600080fd5b506107a5600160a060020a0360043516602435604435612b0d565b60408051602080825283518183015283519192839290830191858101910280838360005b838110156107e15781810151838201526020016107c9565b505050509050019250505060405180910390f35b34801561080157600080fd5b5061024e600160a060020a0360043516612c02565b34801561082257600080fd5b5061022b600435612cf9565b60156020526000908152604090205481565b6108486134df565b506000838152600d60209081526040918290208251610140810184528154815260018083015460ff8082161515958401869052610100918290048116151596840196909652600284015460608401526003840154861615156080840152600484015460a08401526005840154958616151560c0840152600160a060020a0395819004861660e08401526006840154908301526007909201549093166101208401521480156108f65750805182145b8015610904575060c0810151155b151561090f57600080fd5b60008311801561092d57506000848152601060205260409020548311155b151561093857600080fd5b60003411801561095a57508051839061095890349063ffffffff61348016565b145b151561096557600080fd5b600084815260106020526040902054610984908463ffffffff61349716565b6000858152601060209081526040808320939093556012905220546109af908463ffffffff6134a916565b6000858152601260209081526040808320939093556014905220546109da903463ffffffff6134a916565b6000858152601460205260409020556009546109fc908463ffffffff61349716565b600955600854610a12908463ffffffff6134a916565b600855600b54610a28903463ffffffff6134a916565b600b5533600090815260196020526040902054610a4b908463ffffffff6134a916565b336000818152601960209081526040808320949094556004805485517fa144a3e000000000000000000000000000000000000000000000000000000000815230928101929092526024820194909452604481018890529351600160a060020a039093169363a144a3e09360648083019491928390030190829087803b158015610ad357600080fd5b505af1158015610ae7573d6000803e3d6000fd5b505050506040513d6020811015610afd57600080fd5b50511515610b0a57600080fd5b600084815260126020908152604091829020548251868152918201859052818301529051339186917fee2630dc019d6651a8610d35864d3742dabc15df4f306e69d97c350145dc2a839181900360600190a350505050565b60095481565b60085481565b6000828152600d6020526040812054118015610c4757506000828152600d6020526040902060070154600160a060020a0316331480610c4757506000546001546040805160e260020a633d9abf2b028152336004820152600160a060020a0393841660248201529290911660448301525173__AOLibrary_____________________________9163f66afcac916064808301926020929190829003018186803b158015610c1a57600080fd5b505af4158015610c2e573d6000803e3d6000fd5b505050506040513d6020811015610c4457600080fd5b50515b1515610c5257600080fd5b600160a060020a0381161515610c6757600080fd5b6000828152600d6020908152604091829020600701805473ffffffffffffffffffffffffffffffffffffffff1916600160a060020a0385169081179091558251908152915184927fb0ea0475d8f544ed781f7384574790a84d3534ae55c4dcfb7c498d583501849c92908290030190a25050565b6000610ce56134df565b6000848152600e60205260408120600181015490935081908190819081908190600160a060020a031633148015610d20575060008860060154115b1515610d2b57600080fd5b6003808901546000908152600d6020908152604080832081516101408101835281548152600182015460ff8082161515958301959095526101009081900485161515938201939093526002820154606082015294810154831615156080860152600481015460a08601526005810154928316151560c0860152600160a060020a0392829004831660e0860152600681015491850191909152600701541661012083015290975089118015610df4575086516006890154610df09163ffffffff61348016565b8911155b1515610dff57600080fd5b6008880154610e14908a63ffffffff6134a916565b60088901558651610e4190610e30908b9063ffffffff6134b616565b60068a01549063ffffffff61349716565b60068901556005880154610e5b908a63ffffffff61349716565b600589015560038801546000908152601d60209081526040808320601c83528184208e85528352818420548452909152902054610e9e908a63ffffffff6134a916565b601d60008a6003015481526020019081526020016000206000601c60008c60030154815260200190815260200160002060008e6000191660001916815260200190815260200160002054815260200190815260200160002081905550610f40620f4240601c60008b60030154815260200190815260200160002060008d600019166000191681526020019081526020016000205461348090919063ffffffff16565b9550610f83610f5887620f424063ffffffff6134b616565b60038a01546000908152601c602090815260408083208f84529091529020549063ffffffff61349716565b15610f8f576001909501945b60038801546000908152602360209081526040808320898452909152902054610fbe908a63ffffffff6134a916565b60038901805460009081526023602090815260408083208b845282528083209490945591548152601c82528281208d8252909152205461100790620186a063ffffffff61348016565b945061101f610f5886620186a063ffffffff6134b616565b1561102b576001909401935b6003880154600090815260226020908152604080832088845290915290205461105a908a63ffffffff6134a916565b60038901805460009081526022602090815260408083208a845282528083209490945591548152601c82528281208d825290915220546110a29061271063ffffffff61348016565b93506110b9610f588561271063ffffffff6134b616565b156110c5576001909301925b600388015460009081526021602090815260408083208784529091529020546110f4908a63ffffffff6134a916565b600389018054600090815260216020908152604080832089845282528083209490945591548152601c82528281208d8252909152205461113c906103e863ffffffff61348016565b9250611153610f58846103e863ffffffff6134b616565b1561115f576001909201915b600388015460009081526020808052604080832086845290915290205461118c908a63ffffffff6134a916565b60038901805460009081526020808052604080832088845282528083209490945591548152601c82528281208d825290915220546111d190606463ffffffff61348016565b91506111e7610f5883606463ffffffff6134b616565b156111f3576001909101905b60038801546000908152601f60209081526040808320858452909152902054611222908a63ffffffff6134a916565b6003890180546000908152601f6020908152604080832087845282528083209490945591548152601c82528281208d8252909152205461126990600a63ffffffff61348016565b905061127f610f5882600a63ffffffff6134b616565b15611288576001015b60038801546000908152601e602090815260408083208484529091529020546112b7908a63ffffffff6134a916565b6003890180546000908152601e6020908152604080832086845282528083209490945591548152601090915220546112f5908a63ffffffff61349716565b600389015460009081526010602052604090205560095461131c908a63ffffffff61349716565b6009556003880154600090815260136020526040902054611343908a63ffffffff6134a916565b6003890154600090815260136020526040902055600a5461136a908a63ffffffff6134a916565b600a553360009081526017602052604090205461138d908a63ffffffff61349716565b336000908152601760205260409020556002880154875160078a01546113f5916113bd919063ffffffff61348016565b895160068c01546113e9916113d8919063ffffffff61348016565b60088d01549063ffffffff6134a916565b9063ffffffff6134a916565b146113fc57fe5b60048054604080517fa144a3e00000000000000000000000000000000000000000000000000000000081523093810193909352336024840152604483018c905251600160a060020a039091169163a144a3e09160648083019260209291908290030181600087803b15801561147057600080fd5b505af1158015611484573d6000803e3d6000fd5b505050506040513d602081101561149a57600080fd5b505115156114a757600080fd5b6003880154885460018a015460068b015460088c0154604080518f815260208101939093528281019190915251600160a060020a03909216917f557ba6d0a83ceff8ce596997e713fda0bd447c8d165edad2bba68a42a35d1fc99181900360600190a450505050505050505050565b60075481565b600354600160a060020a031681565b60196020526000908152604090205481565b60106020526000908152604090205481565b600154600160a060020a031681565b60065481565b6000546001546040805160e260020a633d9abf2b028152336004820152600160a060020a0393841660248201529290911660448301525173__AOLibrary_____________________________9163f66afcac916064808301926020929190829003018186803b1580156115d657600080fd5b505af41580156115ea573d6000803e3d6000fd5b505050506040513d602081101561160057600080fd5b5051151561160d57600080fd5b600160a060020a038216151561162257600080fd5b600160a060020a03919091166000908152600260205260409020805460ff1916911515919091179055565b6000828152600d602052604081205411801561172657506000828152600d6020526040902060070154600160a060020a031633148061172657506000546001546040805160e260020a633d9abf2b028152336004820152600160a060020a0393841660248201529290911660448301525173__AOLibrary_____________________________9163f66afcac916064808301926020929190829003018186803b1580156116f957600080fd5b505af415801561170d573d6000803e3d6000fd5b505050506040513d602081101561172357600080fd5b50515b151561173157600080fd5b6000828152600d6020908152604091829020600101805460ff19168415159081179091558251908152915184927fc30934c85ea89d18c5f239d5ff07fbce315e46d5487f59c32330c42712c6603792908290030190a25050565b6000546001546040805160e260020a633d9abf2b028152336004820152600160a060020a0393841660248201529290911660448301525173__AOLibrary_____________________________9163f66afcac916064808301926020929190829003018186803b1580156117fd57600080fd5b505af4158015611811573d6000803e3d6000fd5b505050506040513d602081101561182757600080fd5b5051151561183457600080fd5b600160a060020a038116151561184957600080fd5b6001805473ffffffffffffffffffffffffffffffffffffffff1916600160a060020a0392909216919091179055565b600160a060020a03166000908152601b602052604090205490565b60126020526000908152604090205481565b600b5481565b60026020526000908152604090205460ff1681565b600080546001546040805160e260020a633d9abf2b028152336004820152600160a060020a0393841660248201529290911660448301525173__AOLibrary_____________________________9163f66afcac916064808301926020929190829003018186803b15801561193357600080fd5b505af4158015611947573d6000803e3d6000fd5b505050506040513d602081101561195d57600080fd5b5051151561196a57600080fd5b50604080517fa9059cbb000000000000000000000000000000000000000000000000000000008152600160a060020a038481166004830152602482018490529151859283169163a9059cbb9160448083019260209291908290030181600087803b1580156119d757600080fd5b505af11580156119eb573d6000803e3d6000fd5b505050506040513d6020811015611a0157600080fd5b50511515611a0e57600080fd5b50505050565b600054600160a060020a031681565b600d6020526000908152604090208054600182015460028301546003840154600485015460058601546006870154600790970154959660ff80871697610100978890048216979582169591841693600160a060020a0392900482169291168a565b60146020526000908152604090205481565b60176020526000908152604090205481565b600f6020526000908152604090205481565b60166020526000908152604090205481565b6000806000611ad9613533565b611ae16134df565b6000868152600e60209081526040808320815161014081018352815481526001820154600160a060020a03169381018490526002820154928101929092526003810154606083015260048101546080830152600581015460a0830152600681015460c0830152600781015460e08301526008810154610100830152600901546101208201529350819081901515611b7757600080fd5b6060808601516000908152600d602090815260409182902082516101408101845281548152600182015460ff8082161515948301949094526101009081900484161515948201949094526002820154948101949094526003810154821615156080850152600481015460a0850152600581015491821615801560c0860152600160a060020a0392849004831660e08601526006820154938501939093526007015416610120830152909450611c2b57600080fd5b6000925060009150611c3c89612cf9565b6080860151909150611c54908263ffffffff61349716565b6060860151600090815260126020526040902054118015611c79575060008560c00151115b15611d535760a0850151611c93908263ffffffff61349716565b60608601516000908152601260205260409020541015611ceb576080850151611ce690611cc6908363ffffffff61349716565b60608701516000908152601260205260409020549063ffffffff61349716565b611cf1565b84604001515b92506000831115611d5357610100850151845160e0870151611d3a9291611d2e91611d219163ffffffff61348016565b869063ffffffff61349716565b9063ffffffff61349716565b8451909350611d5090849063ffffffff6134b616565b91505b5060e090930151909792965094509092505050565b60136020526000908152604090205481565b600a5481565b6000818152600e6020526040812060018101549091908190600160a060020a031633148015611db3575060008360060154115b1515611dbe57600080fd5b611dc784611acc565b5091509150600081118015611de0575082600601548111155b8015611dff575060038301546000908152601460205260409020548111155b8015611e0d5750600b548111155b1515611e1857600080fd5b6007830154611e2d908263ffffffff6134a916565b60078401556006830154611e47908263ffffffff61349716565b60068401556003830154600090815260146020526040902054611e70908263ffffffff61349716565b6003840180546000908152601460209081526040808320949094559154815260169091522054611ea6908263ffffffff6134a916565b6003840154600090815260166020526040902055600b54611ecd908263ffffffff61349716565b600b55600c54611ee3908263ffffffff6134a916565b600c5533600090815260186020526040902054611f06908363ffffffff6134a916565b33600090815260186020908152604080832093909355601a90522054611f32908263ffffffff6134a916565b336000908152601a60205260408082209290925560018501549151600160a060020a03909216916108fc84150291849190818181858888f19350505050158015611f80573d6000803e3d6000fd5b50600383015483546001850154600686015460078701546040805187815260208101939093528281019190915251600160a060020a03909216917f98eae951670f4cb129c5a751fb8b222b287681953d38f006efdd31ae1a0ebccf9181900360600190a450505050565b601a6020526000908152604090205481565b6120046134df565b506000838152600d602090815260408083208151610140810183528154815260018083015460ff8082161515968401879052610100918290048116151595840195909552600284015460608401526003840154851615156080840152600484015460a08401526005840154948516151560c0840152600160a060020a0394819004851660e084015260068401549083015260079092015490921661012083015290929182911480156120b65750825184145b80156120c25750600085115b8015612161575060048054604080517f70a082310000000000000000000000000000000000000000000000000000000081523393810193909352518792600160a060020a03909216916370a082319160248083019260209291908290030181600087803b15801561213257600080fd5b505af1158015612146573d6000803e3d6000fd5b505050506040513d602081101561215c57600080fd5b505110155b151561216c57600080fd5b60408301511515600114156121aa57606083015160008781526011602052604090205461219f908763ffffffff6134a916565b11156121aa57600080fd5b60808301511515600114156121e85760a08301516000878152601060205260409020546121dd908763ffffffff6134a916565b11156121e857600080fd5b60068054600190810182556000888152600f60209081526040918290208054909301909255915482516c010000000000000000000000003081028285015233026034820152604880820192909252835180820390920182526068019283905280519092918291908401908083835b602083106122755780518252601f199092019160209182019101612256565b51815160209384036101000a600019018019909216911617905260408051929094018290039091206000818152600e83528481208281556001810180543373ffffffffffffffffffffffffffffffffffffffff19909116179055600281018d9055600381018e90558d82526011909352939093205460048201819055929650945061230693509091508790506134a9565b6005820155825161231e90869063ffffffff6134b616565b60068201554260098201556000868152600f6020908152604080832054601c8352818420868552835281842055338352601b82528083208054600181018255908452828420018590558883526010909152902054612382908663ffffffff6134a916565b6000878152601060209081526040808320939093556011905220546123ad908663ffffffff6134a916565b6000878152601160209081526040808320939093553382526017905220546123db908663ffffffff6134a916565b336000908152601760205260409020556009546123fe908663ffffffff6134a916565b600955600754612414908663ffffffff6134a916565b60075560048054604080517fa144a3e000000000000000000000000000000000000000000000000000000000815233938101939093523060248401526044830188905251600160a060020a039091169163a144a3e09160648083019260209291908290030181600087803b15801561248b57600080fd5b505af115801561249f573d6000803e3d6000fd5b505050506040513d60208110156124b557600080fd5b505115156124c257600080fd5b6001810154815460038301546002840154865160048601546005870154600688015460c0808c015160098b0154604080519889526020890197909752878701959095526060870193909352608086019190915290151560a085015283015251600160a060020a03909416937f981d21149cf54101805c055a2b600bbecb86e0ef13056dc7ee5c12f7fa0c5f4f9181900360e00190a4505050505050565b600c5481565b60116020526000908152604090205481565b600e6020526000908152604090208054600182015460028301546003840154600485015460058601546006870154600788015460088901546009909901549798600160a060020a03909716979596949593949293919290918a565b600080546001546040805160e260020a633d9abf2b028152336004820152600160a060020a0393841660248201529290911660448301525173__AOLibrary_____________________________9163f66afcac916064808301926020929190829003018186803b15801561264557600080fd5b505af4158015612659573d6000803e3d6000fd5b505050506040513d602081101561266f57600080fd5b5051151561267c57600080fd5b60008a1161268957600080fd5b600188151514156126a157600087116126a157600080fd5b600186151514156126b957600085116126b957600080fd5b6001841515141561277b57604080517f2b439a94000000000000000000000000000000000000000000000000000000008152600160a060020a0385166004820152905173__AOLibrary_____________________________91632b439a94916024808301926020929190829003018186803b15801561273757600080fd5b505af415801561274b573d6000803e3d6000fd5b505050506040513d602081101561276157600080fd5b5051151561276e57600080fd5b6000821161277b57600080fd5b50600580546001908101918290556000918252600d60205260409091208a8155908101805460ff19168a15151761ff0019166101008a15801591909102919091179091556127cb57600281018790555b60038101805460ff191687158015919091179091556127ec57600481018590555b60058101805460ff1916851580159190911790915561283c5760058101805474ffffffffffffffffffffffffffffffffffffffff001916610100600160a060020a03861602179055600681018290555b60078101805473ffffffffffffffffffffffffffffffffffffffff191633179081905560058054835460018501546002860154600387015460048801549588015460068901546040805196875260ff8087161515602089015261010096879004811615158883015260608801959095529284161515608087015260a0860197909752918216151560c085015290829004600160a060020a0390811660e0850152918301949094529251939092169290917fed37974fd8fdac3b384e60b31da7bc35d93b916f5ceacdff9a326476c982bdd391908190036101200190a350505050505050505050565b60186020526000908152604090205481565b6000546001546040805160e260020a633d9abf2b028152336004820152600160a060020a0393841660248201529290911660448301525173__AOLibrary_____________________________9163f66afcac916064808301926020929190829003018186803b1580156129a857600080fd5b505af41580156129bc573d6000803e3d6000fd5b505050506040513d60208110156129d257600080fd5b505115156129df57600080fd5b604051600160a060020a0383169082156108fc029083906000818181858888f19350505050158015612a15573d6000803e3d6000fd5b505050565b60055481565b6000546001546040805160e260020a633d9abf2b028152336004820152600160a060020a0393841660248201529290911660448301525173__AOLibrary_____________________________9163f66afcac916064808301926020929190829003018186803b158015612a9257600080fd5b505af4158015612aa6573d6000803e3d6000fd5b505050506040513d6020811015612abc57600080fd5b50511515612ac957600080fd5b600160a060020a0381161515612ade57600080fd5b6000805473ffffffffffffffffffffffffffffffffffffffff1916600160a060020a0392909216919091179055565b6060806000808510158015612b225750848410155b8015612b455750600160a060020a0386166000908152601b602052604090205484105b1515612b5057600080fd5b612b6560016113e9868863ffffffff61349716565b604051908082528060200260200182016040528015612b8e578160200160208202803883390190505b5091508490505b838111612bf957600160a060020a0386166000908152601b60205260409020805482908110612bc057fe5b60009182526020909120015482612bdd838863ffffffff61349716565b81518110612be757fe5b60209081029091010152600101612b95565b50949350505050565b6000546001546040805160e260020a633d9abf2b028152336004820152600160a060020a0393841660248201529290911660448301525173__AOLibrary_____________________________9163f66afcac916064808301926020929190829003018186803b158015612c7457600080fd5b505af4158015612c88573d6000803e3d6000fd5b505050506040513d6020811015612c9e57600080fd5b50511515612cab57600080fd5b600160a060020a0381161515612cc057600080fd5b60038054600160a060020a0390921673ffffffffffffffffffffffffffffffffffffffff19928316811790915560048054909216179055565b6000612d03613533565b506000828152600e60209081526040808320815161014081018352815481526001820154600160a060020a03169381018490526002820154928101929092526003810154606083015260048101546080830152600581015460a0830152600681015460c0830152600781015460e0830152600881015461010083015260090154610120820152919081908190819081908190819081908190819015801590612ddb57506000601c60008d60600151815260200190815260200160002060008f6000191660001916815260200190815260200160002054115b1515612de657600080fd5b60009950601c60008c60600151815260200190815260200160002060008e6000191660001916815260200190815260200160002054985060009750612e37620f42408a61348090919063ffffffff16565b96506000871115612f1e57600195505b868611612eb15760608b015160009081526023602090815260408083208984529091528120541115612ea65760608b01516000908152602360209081526040808320898452909152902054612ea3908b9063ffffffff6134a916565b99505b600190950194612e47565b612ec487620f424063ffffffff6134b616565b975088881415612f085760608b01516000908152601d602090815260408083208c8452909152902054612efe908b9063ffffffff61349716565b9950899b50613470565b612f1b88620186a063ffffffff61348016565b97505b612f3189620186a063ffffffff61348016565b9450600085111561301c57612f4d88600163ffffffff6134a916565b95505b848611612fba5760608b015160009081526022602090815260408083208984529091528120541115612faf5760608b01516000908152602260209081526040808320898452909152902054612fac908b9063ffffffff6134a916565b99505b600190950194612f50565b612fcd85620186a063ffffffff6134b616565b9750888814156130075760608b01516000908152601d602090815260408083208c8452909152902054612efe908b9063ffffffff61349716565b6130198861271063ffffffff61348016565b97505b61302e8961271063ffffffff61348016565b935060008411156131185761304a88600163ffffffff6134a916565b95505b8386116130b75760608b0151600090815260216020908152604080832089845290915281205411156130ac5760608b015160009081526021602090815260408083208984529091529020546130a9908b9063ffffffff6134a916565b99505b60019095019461304d565b6130c98461271063ffffffff6134b616565b9750888814156131035760608b01516000908152601d602090815260408083208c8452909152902054612efe908b9063ffffffff61349716565b613115886103e863ffffffff61348016565b97505b61312a896103e863ffffffff61348016565b9250600083111561320f5761314688600163ffffffff6134a916565b95505b8286116131af5760608b015160009081526020808052604080832089845290915281205411156131a45760608b01516000908152602080805260408083208984529091529020546131a1908b9063ffffffff6134a916565b99505b600190950194613149565b6131c1836103e863ffffffff6134b616565b9750888814156131fb5760608b01516000908152601d602090815260408083208c8452909152902054612efe908b9063ffffffff61349716565b61320c88606463ffffffff61348016565b97505b61322089606463ffffffff61348016565b915060008211156133085761323c88600163ffffffff6134a916565b95505b8186116132a95760608b01516000908152601f60209081526040808320898452909152812054111561329e5760608b01516000908152601f6020908152604080832089845290915290205461329b908b9063ffffffff6134a916565b99505b60019095019461323f565b6132ba82606463ffffffff6134b616565b9750888814156132f45760608b01516000908152601d602090815260408083208c8452909152902054612efe908b9063ffffffff61349716565b61330588600a63ffffffff61348016565b97505b61331989600a63ffffffff61348016565b905060008111156133ed5761333588600163ffffffff6134a916565b95505b8086116133a25760608b01516000908152601e6020908152604080832089845290915281205411156133975760608b01516000908152601e60209081526040808320898452909152902054613394908b9063ffffffff6134a916565b99505b600190950194613338565b6133b381600a63ffffffff6134b616565b9750888814156133ed5760608b01516000908152601d602090815260408083208c8452909152902054612efe908b9063ffffffff61349716565b6133fe88600163ffffffff6134a916565b95505b8886101561346c5760608b01516000908152601d6020908152604080832089845290915281205411156134615760608b01516000908152601d6020908152604080832089845290915290205461345e908b9063ffffffff6134a916565b99505b600190950194613401565b899b505b5050505050505050505050919050565b6000818381151561348d57fe5b0490505b92915050565b6000828211156134a357fe5b50900390565b8181018281101561349157fe5b60008215156134c757506000613491565b508181028183828115156134d757fe5b041461349157fe5b6040805161014081018252600080825260208201819052918101829052606081018290526080810182905260a0810182905260c0810182905260e08101829052610100810182905261012081019190915290565b61014060405190810160405280600080191681526020016000600160a060020a03168152602001600081526020016000815260200160008152602001600081526020016000815260200160008152602001600081526020016000815250905600a165627a7a72305820ad0848838abd007fd959e31b6d9ae1a0eec1e8c9090d9652e72e8a05f88db4280029",
	"source": "pragma solidity ^0.4.24;\n\nimport './SafeMath.sol';\nimport './AOLibrary.sol';\nimport './TheAO.sol';\nimport './TokenERC20.sol';\nimport './AOIon.sol';\n\n/**\n * @title AOPool\n *\n * This contract acts as the exchange between AO and ETH/ERC-20 compatible tokens\n */\ncontract AOPool is TheAO {\n\tusing SafeMath for uint256;\n\n\taddress public aoIonAddress;\n\tAOIon internal _aoIon;\n\n\tstruct Pool {\n\t\tuint256 price;\t// Flat price of AO\n\n\t\t/**\n\t\t * If true, Pool is live and can be sold into.\n\t\t * Otherwise, Pool cannot be sold into.\n\t\t */\n\t\tbool status;\n\n\t\t/**\n\t\t * If true, has sell cap. Otherwise, no sell cap.\n\t\t */\n\t\tbool sellCapStatus;\n\n\t\t/**\n\t\t * Denominated in AO, creates a cap for the amount of AO that can be\n\t\t * put up for sale in this pool at `price`\n\t\t */\n\t\tuint256 sellCapAmount;\n\n\t\t/**\n\t\t * If true, has quantity cap. Otherwise, no quantity cap.\n\t\t */\n\t\tbool quantityCapStatus;\n\n\t\t/**\n\t\t * Denominated in AO, creates a cap for the amount of AO at any given time\n\t\t * that can be available for sale in this pool\n\t\t */\n\t\tuint256 quantityCapAmount;\n\n\t\t/**\n\t\t * If true, the Pool is priced in an ERC20 compatible token.\n\t\t * Otherwise, the Pool is priced in Ethereum\n\t\t */\n\t\tbool erc20CounterAsset;\n\n\t\taddress erc20TokenAddress;\t\t\t// The address of the ERC20 Token\n\n\t\t/**\n\t\t * Used if ERC20 token needs to deviate from Ethereum in multiplication/division\n\t\t */\n\t\tuint256 erc20TokenMultiplier;\n\n\t\taddress adminAddress;\t\t\t\t// defaults to TheAO address, but can be modified\n\t}\n\n\tstruct Lot {\n\t\tbytes32 lotId;\t\t\t\t\t\t// The ID of this Lot\n\t\taddress seller;\t\t\t\t\t\t// Ethereum address of the seller\n\t\tuint256 lotQuantity;\t\t\t\t// Amount of AO being added to the Pool from this Lot\n\t\tuint256 poolId;\t\t\t\t\t\t// Identifier for the Pool this Lot is adding to\n\t\tuint256 poolPreSellSnapshot;\t\t// Amount of contributed to the Pool prior to this Lot Number\n\t\tuint256 poolSellLotSnapshot;\t\t// poolPreSellSnapshot + lotQuantity - ionWithdrawn\n\t\tuint256 lotValueInCounterAsset;\t\t// Amount of AO x Pool Price\n\t\tuint256 counterAssetWithdrawn;\t\t// Amount of Counter-Asset withdrawn from this Lot\n\t\tuint256 ionWithdrawn;\t\t\t\t// Amount of AO withdrawn from this Lot\n\t\tuint256 timestamp;\n\t}\n\n\t// Contract variables\n\tuint256 public totalPool;\n\tuint256 public contractTotalLot;\t\t// Total lot from all pools\n\tuint256 public contractTotalSell;\t\t// Quantity of AO that has been contributed to all Pools\n\tuint256 public contractTotalBuy;\t\t// Quantity of AO that has been bought from all Pools\n\tuint256 public contractTotalQuantity;\t// Quantity of AO available to buy from all Pools\n\tuint256 public contractTotalWithdrawn;\t// Quantity of AO that has been withdrawn from all Pools\n\tuint256 public contractEthereumBalance;\t// Total Ethereum in contract\n\tuint256 public contractTotalEthereumWithdrawn; // Total Ethereum withdrawn from selling AO in contract\n\n\t// Mapping from Pool ID to Pool\n\tmapping (uint256 => Pool) public pools;\n\n\t// Mapping from Lot ID to Lot\n\tmapping (bytes32 => Lot) public lots;\n\n\t// Mapping from Pool ID to total Lots in the Pool\n\tmapping (uint256 => uint256) public poolTotalLot;\n\n\t// Mapping from Pool ID to quantity of AO available to buy at `price`\n\tmapping (uint256 => uint256) public poolTotalQuantity;\n\n\t// Mapping from Pool ID to quantity of AO that has been contributed to the Pool\n\tmapping (uint256 => uint256) public poolTotalSell;\n\n\t// Mapping from Pool ID to quantity of AO that has been bought from the Pool\n\tmapping (uint256 => uint256) public poolTotalBuy;\n\n\t// Mapping from Pool ID to quantity of AO that has been withdrawn from the Pool\n\tmapping (uint256 => uint256) public poolTotalWithdrawn;\n\n\t// Mapping from Pool ID to total Ethereum available to withdraw\n\tmapping (uint256 => uint256) public poolEthereumBalance;\n\n\t// Mapping from Pool ID to quantity of ERC20 token available to withdraw\n\tmapping (uint256 => uint256) public poolERC20TokenBalance;\n\n\t// Mapping from Pool ID to amount of Ethereum withdrawn from selling AO\n\tmapping (uint256 => uint256) public poolTotalEthereumWithdrawn;\n\n\t// Mapping from an address to quantity of AO put on sale from all sell lots\n\tmapping (address => uint256) public totalPutOnSale;\n\n\t// Mapping from an address to quantity of AO sold and redeemed from all sell lots\n\tmapping (address => uint256) public totalSold;\n\n\t// Mapping from an address to quantity of AO bought from all pool\n\tmapping (address => uint256) public totalBought;\n\n\t// Mapping from an address to amount of Ethereum withdrawn from selling AO\n\tmapping (address => uint256) public totalEthereumWithdrawn;\n\n\t// Mapping from an address to its Lots\n\tmapping (address => bytes32[]) internal ownerLots;\n\n\t// Mapping from Pool's Lot ID to Lot internal ID\n\tmapping (uint256 => mapping (bytes32 => uint256)) internal poolLotInternalIdLookup;\n\n\t// Mapping from Pool's Lot internal ID to total ion withdrawn\n\tmapping (uint256 => mapping (uint256 => uint256)) internal poolLotIonWithdrawn;\n\n\t// Mapping from Pool's tenth Lot to total ion withdrawn\n\t// This is to help optimize calculating the total ion withdrawn before certain Lot\n\tmapping (uint256 => mapping (uint256 => uint256)) internal poolTenthLotIonWithdrawnSnapshot;\n\n\t// Mapping from Pool's hundredth Lot to total ion withdrawn\n\t// This is to help optimize calculating the total ion withdrawn before certain Lot\n\tmapping (uint256 => mapping (uint256 => uint256)) internal poolHundredthLotIonWithdrawnSnapshot;\n\n\t// Mapping from Pool's thousandth Lot to total ion withdrawn\n\t// This is to help optimize calculating the total ion withdrawn before certain Lot\n\tmapping (uint256 => mapping (uint256 => uint256)) internal poolThousandthLotIonWithdrawnSnapshot;\n\n\t// Mapping from Pool's ten thousandth Lot to total ion withdrawn\n\t// This is to help optimize calculating the total ion withdrawn before certain Lot\n\tmapping (uint256 => mapping (uint256 => uint256)) internal poolTenThousandthLotIonWithdrawnSnapshot;\n\n\t// Mapping from Pool's hundred thousandth Lot to total ion withdrawn\n\t// This is to help optimize calculating the total ion withdrawn before certain Lot\n\tmapping (uint256 => mapping (uint256 => uint256)) internal poolHundredThousandthLotIonWithdrawnSnapshot;\n\n\t// Mapping from Pool's millionth Lot to total ion withdrawn\n\t// This is to help optimize calculating the total ion withdrawn before certain Lot\n\tmapping (uint256 => mapping (uint256 => uint256)) internal poolMillionthLotIonWithdrawnSnapshot;\n\n\t// Event to be broadcasted to public when Pool is created\n\tevent CreatePool(uint256 indexed poolId, address indexed adminAddress, uint256 price, bool status, bool sellCapStatus, uint256 sellCapAmount, bool quantityCapStatus, uint256 quantityCapAmount, bool erc20CounterAsset, address erc20TokenAddress, uint256 erc20TokenMultiplier);\n\n\t// Event to be broadcasted to public when Pool's status is updated\n\t// If status == true, start Pool\n\t// Otherwise, stop Pool\n\tevent UpdatePoolStatus(uint256 indexed poolId, bool status);\n\n\t// Event to be broadcasted to public when Pool's admin address is changed\n\tevent ChangeAdminAddress(uint256 indexed poolId, address newAdminAddress);\n\n\t/**\n\t * Event to be broadcasted to public when a seller sells AO\n\t *\n\t * If erc20CounterAsset is true, the Lot is priced in an ERC20 compatible token.\n\t * Otherwise, the Lot is priced in Ethereum\n\t */\n\tevent LotCreation(uint256 indexed poolId, bytes32 indexed lotId, address indexed seller, uint256 lotQuantity, uint256 price, uint256 poolPreSellSnapshot, uint256 poolSellLotSnapshot, uint256 lotValueInCounterAsset, bool erc20CounterAsset, uint256 timestamp);\n\n\t// Event to be broadcasted to public when a buyer buys AO\n\tevent BuyWithEth(uint256 indexed poolId, address indexed buyer, uint256 buyQuantity, uint256 price, uint256 currentPoolTotalBuy);\n\n\t// Event to be broadcasted to public when a buyer withdraw ETH from Lot\n\tevent WithdrawEth(address indexed seller, bytes32 indexed lotId, uint256 indexed poolId, uint256 withdrawnAmount, uint256 currentLotValueInCounterAsset, uint256 currentLotCounterAssetWithdrawn);\n\n\t// Event to be broadcasted to public when a seller withdraw ion from Lot\n\tevent WithdrawIon(address indexed seller, bytes32 indexed lotId, uint256 indexed poolId, uint256 withdrawnAmount, uint256 currentlotValueInCounterAsset, uint256 currentLotIonWithdrawn);\n\n\t/**\n\t * @dev Constructor function\n\t */\n\tconstructor(address _aoIonAddress, address _nameTAOPositionAddress) public {\n\t\tsetAOIonAddress(_aoIonAddress);\n\t\tsetNameTAOPositionAddress(_nameTAOPositionAddress);\n\t}\n\n\t/**\n\t * @dev Checks if the calling contract address is The AO\n\t *\t\tOR\n\t *\t\tIf The AO is set to a Name/TAO, then check if calling address is the Advocate\n\t */\n\tmodifier onlyTheAO {\n\t\trequire (AOLibrary.isTheAO(msg.sender, theAO, nameTAOPositionAddress));\n\t\t_;\n\t}\n\n\t/***** THE AO ONLY METHODS *****/\n\t/**\n\t * @dev Transfer ownership of The AO to new address\n\t * @param _theAO The new address to be transferred\n\t */\n\tfunction transferOwnership(address _theAO) public onlyTheAO {\n\t\trequire (_theAO != address(0));\n\t\ttheAO = _theAO;\n\t}\n\n\t/**\n\t * @dev Whitelist `_account` address to transact on behalf of others\n\t * @param _account The address to whitelist\n\t * @param _whitelist Either to whitelist or not\n\t */\n\tfunction setWhitelist(address _account, bool _whitelist) public onlyTheAO {\n\t\trequire (_account != address(0));\n\t\twhitelist[_account] = _whitelist;\n\t}\n\n\t/**\n\t * @dev The AO set the AOIonAddress Address\n\t * @param _aoIonAddress The address of AOIonAddress\n\t */\n\tfunction setAOIonAddress(address _aoIonAddress) public onlyTheAO {\n\t\trequire (_aoIonAddress != address(0));\n\t\taoIonAddress = _aoIonAddress;\n\t\t_aoIon = AOIon(_aoIonAddress);\n\t}\n\n\t/**\n\t * @dev The AO sets NameTAOPosition address\n\t * @param _nameTAOPositionAddress The address of NameTAOPosition\n\t */\n\tfunction setNameTAOPositionAddress(address _nameTAOPositionAddress) public onlyTheAO {\n\t\trequire (_nameTAOPositionAddress != address(0));\n\t\tnameTAOPositionAddress = _nameTAOPositionAddress;\n\t}\n\n\t/**\n\t * @dev Allows TheAO to transfer `_amount` of ETH from this address to `_recipient`\n\t * @param _recipient The recipient address\n\t * @param _amount The amount to transfer\n\t */\n\tfunction transferEth(address _recipient, uint256 _amount) public onlyTheAO {\n\t\t_recipient.transfer(_amount);\n\t}\n\n\t/**\n\t * @dev Allows TheAO to transfer `_amount` of ERC20 Token from this address to `_recipient`\n\t * @param _erc20TokenAddress The address of ERC20 Token\n\t * @param _recipient The recipient address\n\t * @param _amount The amount to transfer\n\t */\n\tfunction transferERC20(address _erc20TokenAddress, address _recipient, uint256 _amount) public onlyTheAO {\n\t\tTokenERC20 _erc20 = TokenERC20(_erc20TokenAddress);\n\t\trequire (_erc20.transfer(_recipient, _amount));\n\t}\n\n\t/**\n\t * @dev TheAO creates a Pool\n\t * @param _price The flat price of AO\n\t * @param _status The status of the Pool\n\t *\t\t\t\t\ttrue = Pool is live and can be sold into\n\t *\t\t\t\t\tfalse = Pool cannot be sold into\n\t * @param _sellCapStatus Whether or not the Pool has sell cap\n\t *\t\t\t\t\ttrue = has sell cap\n\t *\t\t\t\t\tfalse = no sell cap\n\t * @param _sellCapAmount Cap for the amount of AO that can be put up for sale in this Pool at `_price`\n\t * @param _quantityCapStatus Whether or not the Pool has quantity cap\n\t *\t\t\t\t\ttrue = has quantity cap\n\t *\t\t\t\t\tfalse = no quantity cap\n\t * @param _quantityCapAmount Cap for the amount of AO at any given time that can be available for sale in this Pool\n\t * @param _erc20CounterAsset Type of the Counter-Asset\n\t *\t\t\t\t\ttrue = Pool is priced in ERC20 compatible Token\n\t *\t\t\t\t\tfalse = Pool is priced in Ethereum\n\t * @param _erc20TokenAddress The address of the ERC20 Token\n\t * @param _erc20TokenMultiplier Used if ERC20 Token needs to deviate from Ethereum in multiplication/division\n\t */\n\tfunction createPool(\n\t\tuint256 _price,\n\t\tbool _status,\n\t\tbool _sellCapStatus,\n\t\tuint256 _sellCapAmount,\n\t\tbool _quantityCapStatus,\n\t\tuint256 _quantityCapAmount,\n\t\tbool _erc20CounterAsset,\n\t\taddress _erc20TokenAddress,\n\t\tuint256 _erc20TokenMultiplier) public onlyTheAO {\n\t\trequire (_price > 0);\n\t\t// Make sure sell cap amount is provided if sell cap is enabled\n\t\tif (_sellCapStatus == true) {\n\t\t\trequire (_sellCapAmount > 0);\n\t\t}\n\t\t// Make sure quantity cap amount is provided if quantity cap is enabled\n\t\tif (_quantityCapStatus == true) {\n\t\t\trequire (_quantityCapAmount > 0);\n\t\t}\n\t\t// Make sure the ERC20 token address and multiplier are provided\n\t\t// if this Pool is priced in ERC20 compatible Token\n\t\tif (_erc20CounterAsset == true) {\n\t\t\trequire (AOLibrary.isValidERC20TokenAddress(_erc20TokenAddress));\n\t\t\trequire (_erc20TokenMultiplier > 0);\n\t\t}\n\n\t\ttotalPool++;\n\t\tPool storage _pool = pools[totalPool];\n\t\t_pool.price = _price;\n\t\t_pool.status = _status;\n\t\t_pool.sellCapStatus = _sellCapStatus;\n\t\tif (_sellCapStatus) {\n\t\t\t_pool.sellCapAmount = _sellCapAmount;\n\t\t}\n\t\t_pool.quantityCapStatus = _quantityCapStatus;\n\t\tif (_quantityCapStatus) {\n\t\t\t_pool.quantityCapAmount = _quantityCapAmount;\n\t\t}\n\t\t_pool.erc20CounterAsset = _erc20CounterAsset;\n\t\tif (_erc20CounterAsset) {\n\t\t\t_pool.erc20TokenAddress = _erc20TokenAddress;\n\t\t\t_pool.erc20TokenMultiplier = _erc20TokenMultiplier;\n\t\t}\n\t\t_pool.adminAddress = msg.sender;\n\n\t\temit CreatePool(totalPool, _pool.adminAddress, _pool.price, _pool.status, _pool.sellCapStatus, _pool.sellCapAmount, _pool.quantityCapStatus, _pool.quantityCapAmount, _pool.erc20CounterAsset, _pool.erc20TokenAddress, _pool.erc20TokenMultiplier);\n\t}\n\n\t/***** Pool's Admin Only Methods *****/\n\t/**\n\t * @dev Start/Stop a Pool\n\t * @param _poolId The ID of the Pool\n\t * @param _status The status to set. true = start. false = stop\n\t */\n\tfunction updatePoolStatus(uint256 _poolId, bool _status) public {\n\t\t// Check pool existence by requiring price > 0\n\t\trequire (pools[_poolId].price > 0 && (pools[_poolId].adminAddress == msg.sender || AOLibrary.isTheAO(msg.sender, theAO, nameTAOPositionAddress)));\n\t\tpools[_poolId].status = _status;\n\t\temit UpdatePoolStatus(_poolId, _status);\n\t}\n\n\t/**\n\t * @dev Change Admin Address\n\t * @param _poolId The ID of the Pool\n\t * @param _adminAddress The new admin address to set\n\t */\n\tfunction changeAdminAddress(uint256 _poolId, address _adminAddress) public {\n\t\t// Check pool existence by requiring price > 0\n\t\trequire (pools[_poolId].price > 0 && (pools[_poolId].adminAddress == msg.sender || AOLibrary.isTheAO(msg.sender, theAO, nameTAOPositionAddress)));\n\t\trequire (_adminAddress != address(0));\n\t\tpools[_poolId].adminAddress = _adminAddress;\n\t\temit ChangeAdminAddress(_poolId, _adminAddress);\n\t}\n\n\t/***** Public Methods *****/\n\t/**\n\t * @dev Seller sells AO in Pool `_poolId` - create a Lot to be added to a Pool for a seller.\n\t * @param _poolId The ID of the Pool\n\t * @param _quantity The amount of AO to be sold\n\t * @param _price The price supplied by seller\n\t */\n\tfunction sell(uint256 _poolId, uint256 _quantity, uint256 _price) public {\n\t\tPool memory _pool = pools[_poolId];\n\t\trequire (_pool.status == true && _pool.price == _price && _quantity > 0 && _aoIon.balanceOf(msg.sender) >= _quantity);\n\n\t\t// If there is a sell cap\n\t\tif (_pool.sellCapStatus == true) {\n\t\t\trequire (poolTotalSell[_poolId].add(_quantity) <= _pool.sellCapAmount);\n\t\t}\n\n\t\t// If there is a quantity cap\n\t\tif (_pool.quantityCapStatus == true) {\n\t\t\trequire (poolTotalQuantity[_poolId].add(_quantity) <= _pool.quantityCapAmount);\n\t\t}\n\n\t\t// Create Lot for this sell transaction\n\t\tcontractTotalLot++;\n\t\tpoolTotalLot[_poolId]++;\n\n\t\t// Generate Lot ID\n\t\tbytes32 _lotId = keccak256(abi.encodePacked(this, msg.sender, contractTotalLot));\n\n\t\tLot storage _lot = lots[_lotId];\n\t\t_lot.lotId = _lotId;\n\t\t_lot.seller = msg.sender;\n\t\t_lot.lotQuantity = _quantity;\n\t\t_lot.poolId = _poolId;\n\t\t_lot.poolPreSellSnapshot = poolTotalSell[_poolId];\n\t\t_lot.poolSellLotSnapshot = poolTotalSell[_poolId].add(_quantity);\n\t\t_lot.lotValueInCounterAsset = _quantity.mul(_pool.price);\n\t\t_lot.timestamp = now;\n\t\tpoolLotInternalIdLookup[_poolId][_lotId] = poolTotalLot[_poolId];\n\t\townerLots[msg.sender].push(_lotId);\n\n\t\t// Update contract variables\n\t\tpoolTotalQuantity[_poolId] = poolTotalQuantity[_poolId].add(_quantity);\n\t\tpoolTotalSell[_poolId] = poolTotalSell[_poolId].add(_quantity);\n\t\ttotalPutOnSale[msg.sender] = totalPutOnSale[msg.sender].add(_quantity);\n\t\tcontractTotalQuantity = contractTotalQuantity.add(_quantity);\n\t\tcontractTotalSell = contractTotalSell.add(_quantity);\n\n\t\trequire (_aoIon.whitelistTransferFrom(msg.sender, this, _quantity));\n\n\t\temit LotCreation(_lot.poolId, _lot.lotId, _lot.seller, _lot.lotQuantity, _pool.price, _lot.poolPreSellSnapshot, _lot.poolSellLotSnapshot, _lot.lotValueInCounterAsset, _pool.erc20CounterAsset, _lot.timestamp);\n\t}\n\n\t/**\n\t * @dev Retrieve number of Lots an `_account` has\n\t * @param _account The address of the Lot's owner\n\t * @return Total Lots the owner has\n\t */\n\tfunction ownerTotalLot(address _account) public view returns (uint256) {\n\t\treturn ownerLots[_account].length;\n\t}\n\n\t/**\n\t * @dev Get list of owner's Lot IDs from `_from` to `_to` index\n\t * @param _account The address of the Lot's owner\n\t * @param _from The starting index, (i.e 0)\n\t * @param _to The ending index, (i.e total - 1)\n\t * @return list of owner's Lot IDs\n\t */\n\tfunction ownerLotIds(address _account, uint256 _from, uint256 _to) public view returns (bytes32[]) {\n\t\trequire (_from >= 0 && _to >= _from && ownerLots[_account].length > _to);\n\t\tbytes32[] memory _lotIds = new bytes32[](_to.sub(_from).add(1));\n\t\tfor (uint256 i = _from; i <= _to; i++) {\n\t\t\t_lotIds[i.sub(_from)] = ownerLots[_account][i];\n\t\t}\n\t\treturn _lotIds;\n\t}\n\n\t/**\n\t * @dev Buyer buys AO from Pool `_poolId` with Ethereum\n\t * @param _poolId The ID of the Pool\n\t * @param _quantity The amount of AO to be bought\n\t * @param _price The price supplied by buyer\n\t */\n\tfunction buyWithEth(uint256 _poolId, uint256 _quantity, uint256 _price) public payable {\n\t\tPool memory _pool = pools[_poolId];\n\t\trequire (_pool.status == true && _pool.price == _price && _pool.erc20CounterAsset == false);\n\t\trequire (_quantity > 0 && _quantity <= poolTotalQuantity[_poolId]);\n\t\trequire (msg.value > 0 && msg.value.div(_pool.price) == _quantity);\n\n\t\t// Update contract variables\n\t\tpoolTotalQuantity[_poolId] = poolTotalQuantity[_poolId].sub(_quantity);\n\t\tpoolTotalBuy[_poolId] = poolTotalBuy[_poolId].add(_quantity);\n\t\tpoolEthereumBalance[_poolId] = poolEthereumBalance[_poolId].add(msg.value);\n\n\t\tcontractTotalQuantity = contractTotalQuantity.sub(_quantity);\n\t\tcontractTotalBuy = contractTotalBuy.add(_quantity);\n\t\tcontractEthereumBalance = contractEthereumBalance.add(msg.value);\n\n\t\ttotalBought[msg.sender] = totalBought[msg.sender].add(_quantity);\n\n\t\trequire (_aoIon.whitelistTransferFrom(this, msg.sender, _quantity));\n\n\t\temit BuyWithEth(_poolId, msg.sender, _quantity, _price, poolTotalBuy[_poolId]);\n\t}\n\n\t/**\n\t * @dev Seller withdraw Ethereum from Lot `_lotId`\n\t * @param _lotId The ID of the Lot\n\t */\n\tfunction withdrawEth(bytes32 _lotId) public {\n\t\tLot storage _lot = lots[_lotId];\n\t\trequire (_lot.seller == msg.sender && _lot.lotValueInCounterAsset > 0);\n\t\t(uint256 soldQuantity, uint256 ethAvailableToWithdraw,) = lotEthAvailableToWithdraw(_lotId);\n\n\t\trequire (ethAvailableToWithdraw > 0 && ethAvailableToWithdraw <= _lot.lotValueInCounterAsset && ethAvailableToWithdraw <= poolEthereumBalance[_lot.poolId] && ethAvailableToWithdraw <= contractEthereumBalance);\n\n\t\t// Update lot variables\n\t\t_lot.counterAssetWithdrawn = _lot.counterAssetWithdrawn.add(ethAvailableToWithdraw);\n\t\t_lot.lotValueInCounterAsset = _lot.lotValueInCounterAsset.sub(ethAvailableToWithdraw);\n\n\t\t// Update contract variables\n\t\tpoolEthereumBalance[_lot.poolId] = poolEthereumBalance[_lot.poolId].sub(ethAvailableToWithdraw);\n\t\tpoolTotalEthereumWithdrawn[_lot.poolId] = poolTotalEthereumWithdrawn[_lot.poolId].add(ethAvailableToWithdraw);\n\t\tcontractEthereumBalance = contractEthereumBalance.sub(ethAvailableToWithdraw);\n\t\tcontractTotalEthereumWithdrawn = contractTotalEthereumWithdrawn.add(ethAvailableToWithdraw);\n\n\t\ttotalSold[msg.sender] = totalSold[msg.sender].add(soldQuantity);\n\t\ttotalEthereumWithdrawn[msg.sender] = totalEthereumWithdrawn[msg.sender].add(ethAvailableToWithdraw);\n\n\t\t// Send eth to seller\n\t\t_lot.seller.transfer(ethAvailableToWithdraw);\n\n\t\temit WithdrawEth(_lot.seller, _lot.lotId, _lot.poolId, ethAvailableToWithdraw, _lot.lotValueInCounterAsset, _lot.counterAssetWithdrawn);\n\t}\n\n\t/**\n\t * @dev Seller gets Lot `_lotId` (priced in ETH) available to withdraw info\n\t * @param _lotId The ID of the Lot\n\t * @return The amount of ion sold\n\t * @return Ethereum available to withdraw from the Lot\n\t * @return Current Ethereum withdrawn from the Lot\n\t */\n\tfunction lotEthAvailableToWithdraw(bytes32 _lotId) public view returns (uint256, uint256, uint256) {\n\t\tLot memory _lot = lots[_lotId];\n\t\trequire (_lot.seller != address(0));\n\n\t\tPool memory _pool = pools[_lot.poolId];\n\t\trequire (_pool.erc20CounterAsset == false);\n\n\t\tuint256 soldQuantity = 0;\n\t\tuint256 ethAvailableToWithdraw = 0;\n\n\t\t// Check whether or not there are ions withdrawn from Lots before this Lot\n\t\tuint256 lotAdjustment = totalIonWithdrawnBeforeLot(_lotId);\n\n\t\tif (poolTotalBuy[_lot.poolId] > _lot.poolPreSellSnapshot.sub(lotAdjustment) && _lot.lotValueInCounterAsset > 0) {\n\t\t\tsoldQuantity = (poolTotalBuy[_lot.poolId] >= _lot.poolSellLotSnapshot.sub(lotAdjustment)) ? _lot.lotQuantity : poolTotalBuy[_lot.poolId].sub(_lot.poolPreSellSnapshot.sub(lotAdjustment));\n\t\t\tif (soldQuantity > 0) {\n\t\t\t\tsoldQuantity = soldQuantity.sub(_lot.counterAssetWithdrawn.div(_pool.price)).sub(_lot.ionWithdrawn);\n\t\t\t\tethAvailableToWithdraw = soldQuantity.mul(_pool.price);\n\t\t\t}\n\t\t}\n\t\treturn (soldQuantity, ethAvailableToWithdraw, _lot.counterAssetWithdrawn);\n\t}\n\n\t/**\n\t * @dev Seller withdraw ion from Lot `_lotId`\n\t * @param _lotId The ID of the Lot\n\t * @param _quantity The amount of ion to withdraw\n\t */\n\tfunction withdrawIon(bytes32 _lotId, uint256 _quantity) public {\n\t\tLot storage _lot = lots[_lotId];\n\t\trequire (_lot.seller == msg.sender && _lot.lotValueInCounterAsset > 0);\n\n\t\tPool memory _pool = pools[_lot.poolId];\n\t\trequire (_quantity > 0 && _quantity <= _lot.lotValueInCounterAsset.div(_pool.price));\n\n\t\t// Update lot variables\n\t\t_lot.ionWithdrawn = _lot.ionWithdrawn.add(_quantity);\n\t\t_lot.lotValueInCounterAsset = _lot.lotValueInCounterAsset.sub(_quantity.mul(_pool.price));\n\t\t_lot.poolSellLotSnapshot = _lot.poolSellLotSnapshot.sub(_quantity);\n\t\tpoolLotIonWithdrawn[_lot.poolId][poolLotInternalIdLookup[_lot.poolId][_lotId]] = poolLotIonWithdrawn[_lot.poolId][poolLotInternalIdLookup[_lot.poolId][_lotId]].add(_quantity);\n\n\t\t// Store Pool's millionth Lot snapshot\n\t\tuint256 millionth = poolLotInternalIdLookup[_lot.poolId][_lotId].div(1000000);\n\t\tif (poolLotInternalIdLookup[_lot.poolId][_lotId].sub(millionth.mul(1000000)) != 0) {\n\t\t\tmillionth++;\n\t\t}\n\t\tpoolMillionthLotIonWithdrawnSnapshot[_lot.poolId][millionth] = poolMillionthLotIonWithdrawnSnapshot[_lot.poolId][millionth].add(_quantity);\n\n\t\t// Store Pool's hundred thousandth Lot snapshot\n\t\tuint256 hundredThousandth = poolLotInternalIdLookup[_lot.poolId][_lotId].div(100000);\n\t\tif (poolLotInternalIdLookup[_lot.poolId][_lotId].sub(hundredThousandth.mul(100000)) != 0) {\n\t\t\thundredThousandth++;\n\t\t}\n\t\tpoolHundredThousandthLotIonWithdrawnSnapshot[_lot.poolId][hundredThousandth] = poolHundredThousandthLotIonWithdrawnSnapshot[_lot.poolId][hundredThousandth].add(_quantity);\n\n\t\t// Store Pool's ten thousandth Lot snapshot\n\t\tuint256 tenThousandth = poolLotInternalIdLookup[_lot.poolId][_lotId].div(10000);\n\t\tif (poolLotInternalIdLookup[_lot.poolId][_lotId].sub(tenThousandth.mul(10000)) != 0) {\n\t\t\ttenThousandth++;\n\t\t}\n\t\tpoolTenThousandthLotIonWithdrawnSnapshot[_lot.poolId][tenThousandth] = poolTenThousandthLotIonWithdrawnSnapshot[_lot.poolId][tenThousandth].add(_quantity);\n\n\t\t// Store Pool's thousandth Lot snapshot\n\t\tuint256 thousandth = poolLotInternalIdLookup[_lot.poolId][_lotId].div(1000);\n\t\tif (poolLotInternalIdLookup[_lot.poolId][_lotId].sub(thousandth.mul(1000)) != 0) {\n\t\t\tthousandth++;\n\t\t}\n\t\tpoolThousandthLotIonWithdrawnSnapshot[_lot.poolId][thousandth] = poolThousandthLotIonWithdrawnSnapshot[_lot.poolId][thousandth].add(_quantity);\n\n\t\t// Store Pool's hundredth Lot snapshot\n\t\tuint256 hundredth = poolLotInternalIdLookup[_lot.poolId][_lotId].div(100);\n\t\tif (poolLotInternalIdLookup[_lot.poolId][_lotId].sub(hundredth.mul(100)) != 0) {\n\t\t\thundredth++;\n\t\t}\n\t\tpoolHundredthLotIonWithdrawnSnapshot[_lot.poolId][hundredth] = poolHundredthLotIonWithdrawnSnapshot[_lot.poolId][hundredth].add(_quantity);\n\n\t\t// Store Pool's tenth Lot snapshot\n\t\tuint256 tenth = poolLotInternalIdLookup[_lot.poolId][_lotId].div(10);\n\t\tif (poolLotInternalIdLookup[_lot.poolId][_lotId].sub(tenth.mul(10)) != 0) {\n\t\t\ttenth++;\n\t\t}\n\t\tpoolTenthLotIonWithdrawnSnapshot[_lot.poolId][tenth] = poolTenthLotIonWithdrawnSnapshot[_lot.poolId][tenth].add(_quantity);\n\n\t\t// Update contract variables\n\t\tpoolTotalQuantity[_lot.poolId] = poolTotalQuantity[_lot.poolId].sub(_quantity);\n\t\tcontractTotalQuantity = contractTotalQuantity.sub(_quantity);\n\t\tpoolTotalWithdrawn[_lot.poolId] = poolTotalWithdrawn[_lot.poolId].add(_quantity);\n\t\tcontractTotalWithdrawn = contractTotalWithdrawn.add(_quantity);\n\n\t\ttotalPutOnSale[msg.sender] = totalPutOnSale[msg.sender].sub(_quantity);\n\n\t\tassert (_lot.ionWithdrawn.add(_lot.lotValueInCounterAsset.div(_pool.price)).add(_lot.counterAssetWithdrawn.div(_pool.price)) == _lot.lotQuantity);\n\n\t\trequire (_aoIon.whitelistTransferFrom(this, msg.sender, _quantity));\n\n\t\temit WithdrawIon(_lot.seller, _lot.lotId, _lot.poolId, _quantity, _lot.lotValueInCounterAsset, _lot.ionWithdrawn);\n\t}\n\n\t/**\n\t * @dev Get total ion withdrawn from all Lots before Lot `_lotId`\n\t * @param _lotId The ID of the Lot\n\t * @return Total ion withdrawn from all Lots before Lot `_lotId`\n\t */\n\tfunction totalIonWithdrawnBeforeLot(bytes32 _lotId) public view returns (uint256) {\n\t\tLot memory _lot = lots[_lotId];\n\t\trequire (_lot.seller != address(0) && poolLotInternalIdLookup[_lot.poolId][_lotId] > 0);\n\n\t\tuint256 totalIonWithdrawn = 0;\n\t\tuint256 lotInternalId = poolLotInternalIdLookup[_lot.poolId][_lotId];\n\t\tuint256 lowerBound = 0;\n\n\t\tuint256 millionth = lotInternalId.div(1000000);\n\t\tif (millionth > 0) {\n\t\t\tfor (uint256 i=1; i<=millionth; i++) {\n\t\t\t\tif (poolMillionthLotIonWithdrawnSnapshot[_lot.poolId][i] > 0) {\n\t\t\t\t\ttotalIonWithdrawn = totalIonWithdrawn.add(poolMillionthLotIonWithdrawnSnapshot[_lot.poolId][i]);\n\t\t\t\t}\n\t\t\t}\n\t\t\tlowerBound = millionth.mul(1000000);\n\t\t\tif (lowerBound == lotInternalId) {\n\t\t\t\ttotalIonWithdrawn = totalIonWithdrawn.sub(poolLotIonWithdrawn[_lot.poolId][lotInternalId]);\n\t\t\t\treturn totalIonWithdrawn;\n\t\t\t} else {\n\t\t\t\tlowerBound = lowerBound.div(100000);\n\t\t\t}\n\t\t}\n\n\t\tuint256 hundredThousandth = lotInternalId.div(100000);\n\t\tif (hundredThousandth > 0) {\n\t\t\tfor (i=lowerBound.add(1); i<=hundredThousandth; i++) {\n\t\t\t\tif (poolHundredThousandthLotIonWithdrawnSnapshot[_lot.poolId][i] > 0) {\n\t\t\t\t\ttotalIonWithdrawn = totalIonWithdrawn.add(poolHundredThousandthLotIonWithdrawnSnapshot[_lot.poolId][i]);\n\t\t\t\t}\n\t\t\t}\n\t\t\tlowerBound = hundredThousandth.mul(100000);\n\t\t\tif (lowerBound == lotInternalId) {\n\t\t\t\ttotalIonWithdrawn = totalIonWithdrawn.sub(poolLotIonWithdrawn[_lot.poolId][lotInternalId]);\n\t\t\t\treturn totalIonWithdrawn;\n\t\t\t} else {\n\t\t\t\tlowerBound = lowerBound.div(10000);\n\t\t\t}\n\t\t}\n\n\t\tuint256 tenThousandth = lotInternalId.div(10000);\n\t\tif (tenThousandth > 0) {\n\t\t\tfor (i=lowerBound.add(1); i<=tenThousandth; i++) {\n\t\t\t\tif (poolTenThousandthLotIonWithdrawnSnapshot[_lot.poolId][i] > 0) {\n\t\t\t\t\ttotalIonWithdrawn = totalIonWithdrawn.add(poolTenThousandthLotIonWithdrawnSnapshot[_lot.poolId][i]);\n\t\t\t\t}\n\t\t\t}\n\t\t\tlowerBound = tenThousandth.mul(10000);\n\t\t\tif (lowerBound == lotInternalId) {\n\t\t\t\ttotalIonWithdrawn = totalIonWithdrawn.sub(poolLotIonWithdrawn[_lot.poolId][lotInternalId]);\n\t\t\t\treturn totalIonWithdrawn;\n\t\t\t} else {\n\t\t\t\tlowerBound = lowerBound.div(1000);\n\t\t\t}\n\t\t}\n\n\t\tuint256 thousandth = lotInternalId.div(1000);\n\t\tif (thousandth > 0) {\n\t\t\tfor (i=lowerBound.add(1); i<=thousandth; i++) {\n\t\t\t\tif (poolThousandthLotIonWithdrawnSnapshot[_lot.poolId][i] > 0) {\n\t\t\t\t\ttotalIonWithdrawn = totalIonWithdrawn.add(poolThousandthLotIonWithdrawnSnapshot[_lot.poolId][i]);\n\t\t\t\t}\n\t\t\t}\n\t\t\tlowerBound = thousandth.mul(1000);\n\t\t\tif (lowerBound == lotInternalId) {\n\t\t\t\ttotalIonWithdrawn = totalIonWithdrawn.sub(poolLotIonWithdrawn[_lot.poolId][lotInternalId]);\n\t\t\t\treturn totalIonWithdrawn;\n\t\t\t} else {\n\t\t\t\tlowerBound = lowerBound.div(100);\n\t\t\t}\n\t\t}\n\n\t\tuint256 hundredth = lotInternalId.div(100);\n\t\tif (hundredth > 0) {\n\t\t\tfor (i=lowerBound.add(1); i<=hundredth; i++) {\n\t\t\t\tif (poolHundredthLotIonWithdrawnSnapshot[_lot.poolId][i] > 0) {\n\t\t\t\t\ttotalIonWithdrawn = totalIonWithdrawn.add(poolHundredthLotIonWithdrawnSnapshot[_lot.poolId][i]);\n\t\t\t\t}\n\t\t\t}\n\t\t\tlowerBound = hundredth.mul(100);\n\t\t\tif (lowerBound == lotInternalId) {\n\t\t\t\ttotalIonWithdrawn = totalIonWithdrawn.sub(poolLotIonWithdrawn[_lot.poolId][lotInternalId]);\n\t\t\t\treturn totalIonWithdrawn;\n\t\t\t} else {\n\t\t\t\tlowerBound = lowerBound.div(10);\n\t\t\t}\n\t\t}\n\n\t\tuint256 tenth = lotInternalId.div(10);\n\t\tif (tenth > 0) {\n\t\t\tfor (i=lowerBound.add(1); i<=tenth; i++) {\n\t\t\t\tif (poolTenthLotIonWithdrawnSnapshot[_lot.poolId][i] > 0) {\n\t\t\t\t\ttotalIonWithdrawn = totalIonWithdrawn.add(poolTenthLotIonWithdrawnSnapshot[_lot.poolId][i]);\n\t\t\t\t}\n\t\t\t}\n\t\t\tlowerBound = tenth.mul(10);\n\t\t\tif (lowerBound == lotInternalId) {\n\t\t\t\ttotalIonWithdrawn = totalIonWithdrawn.sub(poolLotIonWithdrawn[_lot.poolId][lotInternalId]);\n\t\t\t\treturn totalIonWithdrawn;\n\t\t\t}\n\t\t}\n\n\t\tfor (i=lowerBound.add(1); i<lotInternalId; i++) {\n\t\t\tif (poolLotIonWithdrawn[_lot.poolId][i] > 0) {\n\t\t\t\ttotalIonWithdrawn = totalIonWithdrawn.add(poolLotIonWithdrawn[_lot.poolId][i]);\n\t\t\t}\n\t\t}\n\t\treturn totalIonWithdrawn;\n\t}\n}\n",
	"sourcePath": "/Users/johanmulyono/Work/AO/ao-contracts/contracts/AOPool.sol",
	"compiler": {
		"name": "solc",
		"version": "0.4.24+commit.e67f0147.Emscripten.clang"
	},
	"schemaVersion": "2.0.1",
	"updatedAt": "2019-02-12T13:00:57.387Z"
}