{
	"contractName": "AOPurchaseReceipt",
	"abi": [
		{
			"constant": true,
			"inputs": [],
			"name": "aoStakedContentAddress",
			"outputs": [
				{
					"name": "",
					"type": "address"
				}
			],
			"payable": false,
			"stateMutability": "view",
			"type": "function"
		},
		{
			"constant": true,
			"inputs": [],
			"name": "nameTAOPositionAddress",
			"outputs": [
				{
					"name": "",
					"type": "address"
				}
			],
			"payable": false,
			"stateMutability": "view",
			"type": "function"
		},
		{
			"constant": true,
			"inputs": [],
			"name": "aoTreasuryAddress",
			"outputs": [
				{
					"name": "",
					"type": "address"
				}
			],
			"payable": false,
			"stateMutability": "view",
			"type": "function"
		},
		{
			"constant": true,
			"inputs": [],
			"name": "aoContentAddress",
			"outputs": [
				{
					"name": "",
					"type": "address"
				}
			],
			"payable": false,
			"stateMutability": "view",
			"type": "function"
		},
		{
			"constant": true,
			"inputs": [],
			"name": "aoEarningAddress",
			"outputs": [
				{
					"name": "",
					"type": "address"
				}
			],
			"payable": false,
			"stateMutability": "view",
			"type": "function"
		},
		{
			"constant": true,
			"inputs": [],
			"name": "aoContentHostAddress",
			"outputs": [
				{
					"name": "",
					"type": "address"
				}
			],
			"payable": false,
			"stateMutability": "view",
			"type": "function"
		},
		{
			"constant": true,
			"inputs": [
				{
					"name": "",
					"type": "address"
				}
			],
			"name": "whitelist",
			"outputs": [
				{
					"name": "",
					"type": "bool"
				}
			],
			"payable": false,
			"stateMutability": "view",
			"type": "function"
		},
		{
			"constant": true,
			"inputs": [],
			"name": "theAO",
			"outputs": [
				{
					"name": "",
					"type": "address"
				}
			],
			"payable": false,
			"stateMutability": "view",
			"type": "function"
		},
		{
			"constant": true,
			"inputs": [],
			"name": "nameFactoryAddress",
			"outputs": [
				{
					"name": "",
					"type": "address"
				}
			],
			"payable": false,
			"stateMutability": "view",
			"type": "function"
		},
		{
			"constant": true,
			"inputs": [],
			"name": "totalPurchaseReceipts",
			"outputs": [
				{
					"name": "",
					"type": "uint256"
				}
			],
			"payable": false,
			"stateMutability": "view",
			"type": "function"
		},
		{
			"constant": true,
			"inputs": [
				{
					"name": "",
					"type": "address"
				},
				{
					"name": "",
					"type": "bytes32"
				}
			],
			"name": "buyerPurchaseReceipts",
			"outputs": [
				{
					"name": "",
					"type": "bytes32"
				}
			],
			"payable": false,
			"stateMutability": "view",
			"type": "function"
		},
		{
			"inputs": [
				{
					"name": "_aoContentAddress",
					"type": "address"
				},
				{
					"name": "_aoStakedContentAddress",
					"type": "address"
				},
				{
					"name": "_aoTreasuryAddress",
					"type": "address"
				},
				{
					"name": "_aoEarningAddress",
					"type": "address"
				},
				{
					"name": "_nameFactoryAddress",
					"type": "address"
				},
				{
					"name": "_nameTAOPositionAddress",
					"type": "address"
				}
			],
			"payable": false,
			"stateMutability": "nonpayable",
			"type": "constructor"
		},
		{
			"anonymous": false,
			"inputs": [
				{
					"indexed": true,
					"name": "buyer",
					"type": "address"
				},
				{
					"indexed": true,
					"name": "purchaseReceiptId",
					"type": "bytes32"
				},
				{
					"indexed": true,
					"name": "contentHostId",
					"type": "bytes32"
				},
				{
					"indexed": false,
					"name": "stakedContentId",
					"type": "bytes32"
				},
				{
					"indexed": false,
					"name": "contentId",
					"type": "bytes32"
				},
				{
					"indexed": false,
					"name": "price",
					"type": "uint256"
				},
				{
					"indexed": false,
					"name": "amountPaidByAO",
					"type": "uint256"
				},
				{
					"indexed": false,
					"name": "amountPaidByBuyer",
					"type": "uint256"
				},
				{
					"indexed": false,
					"name": "publicKey",
					"type": "string"
				},
				{
					"indexed": false,
					"name": "publicAddress",
					"type": "address"
				},
				{
					"indexed": false,
					"name": "createdOnTimestamp",
					"type": "uint256"
				}
			],
			"name": "BuyContent",
			"type": "event"
		},
		{
			"constant": false,
			"inputs": [
				{
					"name": "_theAO",
					"type": "address"
				}
			],
			"name": "transferOwnership",
			"outputs": [],
			"payable": false,
			"stateMutability": "nonpayable",
			"type": "function"
		},
		{
			"constant": false,
			"inputs": [
				{
					"name": "_account",
					"type": "address"
				},
				{
					"name": "_whitelist",
					"type": "bool"
				}
			],
			"name": "setWhitelist",
			"outputs": [],
			"payable": false,
			"stateMutability": "nonpayable",
			"type": "function"
		},
		{
			"constant": false,
			"inputs": [
				{
					"name": "_aoContentAddress",
					"type": "address"
				}
			],
			"name": "setAOContentAddress",
			"outputs": [],
			"payable": false,
			"stateMutability": "nonpayable",
			"type": "function"
		},
		{
			"constant": false,
			"inputs": [
				{
					"name": "_aoStakedContentAddress",
					"type": "address"
				}
			],
			"name": "setAOStakedContentAddress",
			"outputs": [],
			"payable": false,
			"stateMutability": "nonpayable",
			"type": "function"
		},
		{
			"constant": false,
			"inputs": [
				{
					"name": "_aoContentHostAddress",
					"type": "address"
				}
			],
			"name": "setAOContentHostAddress",
			"outputs": [],
			"payable": false,
			"stateMutability": "nonpayable",
			"type": "function"
		},
		{
			"constant": false,
			"inputs": [
				{
					"name": "_aoTreasuryAddress",
					"type": "address"
				}
			],
			"name": "setAOTreasuryAddress",
			"outputs": [],
			"payable": false,
			"stateMutability": "nonpayable",
			"type": "function"
		},
		{
			"constant": false,
			"inputs": [
				{
					"name": "_aoEarningAddress",
					"type": "address"
				}
			],
			"name": "setAOEarningAddress",
			"outputs": [],
			"payable": false,
			"stateMutability": "nonpayable",
			"type": "function"
		},
		{
			"constant": false,
			"inputs": [
				{
					"name": "_nameFactoryAddress",
					"type": "address"
				}
			],
			"name": "setNameFactoryAddress",
			"outputs": [],
			"payable": false,
			"stateMutability": "nonpayable",
			"type": "function"
		},
		{
			"constant": false,
			"inputs": [
				{
					"name": "_nameTAOPositionAddress",
					"type": "address"
				}
			],
			"name": "setNameTAOPositionAddress",
			"outputs": [],
			"payable": false,
			"stateMutability": "nonpayable",
			"type": "function"
		},
		{
			"constant": false,
			"inputs": [
				{
					"name": "_contentHostId",
					"type": "bytes32"
				},
				{
					"name": "_networkIntegerAmount",
					"type": "uint256"
				},
				{
					"name": "_networkFractionAmount",
					"type": "uint256"
				},
				{
					"name": "_denomination",
					"type": "bytes8"
				},
				{
					"name": "_publicKey",
					"type": "string"
				},
				{
					"name": "_publicAddress",
					"type": "address"
				}
			],
			"name": "buyContent",
			"outputs": [],
			"payable": false,
			"stateMutability": "nonpayable",
			"type": "function"
		},
		{
			"constant": true,
			"inputs": [
				{
					"name": "_purchaseReceiptId",
					"type": "bytes32"
				}
			],
			"name": "getById",
			"outputs": [
				{
					"name": "",
					"type": "bytes32"
				},
				{
					"name": "",
					"type": "bytes32"
				},
				{
					"name": "",
					"type": "bytes32"
				},
				{
					"name": "",
					"type": "address"
				},
				{
					"name": "",
					"type": "uint256"
				},
				{
					"name": "",
					"type": "uint256"
				},
				{
					"name": "",
					"type": "uint256"
				},
				{
					"name": "",
					"type": "string"
				},
				{
					"name": "",
					"type": "address"
				},
				{
					"name": "",
					"type": "uint256"
				}
			],
			"payable": false,
			"stateMutability": "view",
			"type": "function"
		},
		{
			"constant": true,
			"inputs": [
				{
					"name": "_purchaseReceiptId",
					"type": "bytes32"
				},
				{
					"name": "_sender",
					"type": "address"
				}
			],
			"name": "senderIsBuyer",
			"outputs": [
				{
					"name": "",
					"type": "bool"
				}
			],
			"payable": false,
			"stateMutability": "view",
			"type": "function"
		},
		{
			"constant": true,
			"inputs": [
				{
					"name": "_purchaseReceiptId",
					"type": "bytes32"
				}
			],
			"name": "isExist",
			"outputs": [
				{
					"name": "",
					"type": "bool"
				}
			],
			"payable": false,
			"stateMutability": "view",
			"type": "function"
		}
	],
	"bytecode": "0x60806040523480156200001157600080fd5b5060405160c080620027d983398101604090815281516020830151918301516060840151608085015160a09095015160008054600160a060020a03191633179055929491929091906200006d86640100000000620000dd810204565b6200008185640100000000620001e2810204565b6200009584640100000000620002e7810204565b620000a983640100000000620003ec810204565b620000bd82640100000000620004f1810204565b620000d181640100000000620005f6810204565b505050505050620006f1565b600054600154604080517ff66afcac000000000000000000000000000000000000000000000000000000008152336004820152600160a060020a0393841660248201529290911660448301525173__AOLibrary_____________________________9163f66afcac916064808301926020929190829003018186803b1580156200016657600080fd5b505af41580156200017b573d6000803e3d6000fd5b505050506040513d60208110156200019257600080fd5b50511515620001a057600080fd5b600160a060020a0381161515620001b657600080fd5b60048054600160a060020a03909216600160a060020a03199283168117909155600a8054909216179055565b600054600154604080517ff66afcac000000000000000000000000000000000000000000000000000000008152336004820152600160a060020a0393841660248201529290911660448301525173__AOLibrary_____________________________9163f66afcac916064808301926020929190829003018186803b1580156200026b57600080fd5b505af415801562000280573d6000803e3d6000fd5b505050506040513d60208110156200029757600080fd5b50511515620002a557600080fd5b600160a060020a0381161515620002bb57600080fd5b60058054600160a060020a03909216600160a060020a03199283168117909155600b8054909216179055565b600054600154604080517ff66afcac000000000000000000000000000000000000000000000000000000008152336004820152600160a060020a0393841660248201529290911660448301525173__AOLibrary_____________________________9163f66afcac916064808301926020929190829003018186803b1580156200037057600080fd5b505af415801562000385573d6000803e3d6000fd5b505050506040513d60208110156200039c57600080fd5b50511515620003aa57600080fd5b600160a060020a0381161515620003c057600080fd5b60078054600160a060020a03909216600160a060020a03199283168117909155600d8054909216179055565b600054600154604080517ff66afcac000000000000000000000000000000000000000000000000000000008152336004820152600160a060020a0393841660248201529290911660448301525173__AOLibrary_____________________________9163f66afcac916064808301926020929190829003018186803b1580156200047557600080fd5b505af41580156200048a573d6000803e3d6000fd5b505050506040513d6020811015620004a157600080fd5b50511515620004af57600080fd5b600160a060020a0381161515620004c557600080fd5b60088054600160a060020a03909216600160a060020a03199283168117909155600e8054909216179055565b600054600154604080517ff66afcac000000000000000000000000000000000000000000000000000000008152336004820152600160a060020a0393841660248201529290911660448301525173__AOLibrary_____________________________9163f66afcac916064808301926020929190829003018186803b1580156200057a57600080fd5b505af41580156200058f573d6000803e3d6000fd5b505050506040513d6020811015620005a657600080fd5b50511515620005b457600080fd5b600160a060020a0381161515620005ca57600080fd5b60098054600160a060020a03909216600160a060020a03199283168117909155600f8054909216179055565b600054600154604080517ff66afcac000000000000000000000000000000000000000000000000000000008152336004820152600160a060020a0393841660248201529290911660448301525173__AOLibrary_____________________________9163f66afcac916064808301926020929190829003018186803b1580156200067f57600080fd5b505af415801562000694573d6000803e3d6000fd5b505050506040513d6020811015620006ab57600080fd5b50511515620006b957600080fd5b600160a060020a0381161515620006cf57600080fd5b60018054600160a060020a031916600160a060020a0392909216919091179055565b6120d880620007016000396000f30060806040526004361061013d5763ffffffff7c0100000000000000000000000000000000000000000000000000000000600035041663067108428114610142578063078753ad1461017a57806307a8385e146101ab5780632dff0d0d146101ce5780633e36144f146102b45780634ef033f0146102d557806353d6fd59146102ea5780635cfaf2ef146103105780635f7b99ea14610331578063762fee18146103465780637b4126f41461035e57806385cb86c8146103ef57806389a83246146104045780638c924361146104255780638f6292221461044657806395f04f271461045b5780639b19251a14610470578063a9b6b38e14610491578063bc406206146104a6578063c7061f97146104bb578063cd5facb2146104dc578063f2fde38b146104fd578063f4f0bfeb1461051e578063fffbd7aa14610545575b600080fd5b34801561014e57600080fd5b50610166600435600160a060020a0360243516610569565b604080519115158252519081900360200190f35b34801561018657600080fd5b5061018f61075a565b60408051600160a060020a039092168252519081900360200190f35b3480156101b757600080fd5b506101cc600160a060020a0360043516610769565b005b3480156101da57600080fd5b506101e6600435610853565b604080518b815260208082018c90529181018a9052600160a060020a03808a1660608301526080820189905260a0820188905260c082018790528416610100820152610120810183905261014060e0820181815286519183019190915285519192909161016084019187019080838360005b83811015610270578181015183820152602001610258565b50505050905090810190601f16801561029d5780820380516001836020036101000a031916815260200191505b509b50505050505050505050505060405180910390f35b3480156102c057600080fd5b506101cc600160a060020a0360043516610a9c565b3480156102e157600080fd5b5061018f610b86565b3480156102f657600080fd5b506101cc600160a060020a03600435166024351515610b95565b34801561031c57600080fd5b506101cc600160a060020a0360043516610c7e565b34801561033d57600080fd5b5061018f610d5e565b34801561035257600080fd5b50610166600435610d6d565b34801561036a57600080fd5b50604080516020601f6084356004818101359283018490048402850184019095528184526101cc9480359460248035956044359577ffffffffffffffffffffffffffffffffffffffffffffffff19606435169536959460a494909391019190819084018382808284375094975050509235600160a060020a03169350610d8092505050565b3480156103fb57600080fd5b5061018f6115b4565b34801561041057600080fd5b506101cc600160a060020a03600435166115c3565b34801561043157600080fd5b506101cc600160a060020a03600435166116ad565b34801561045257600080fd5b5061018f611797565b34801561046757600080fd5b5061018f6117a6565b34801561047c57600080fd5b50610166600160a060020a03600435166117b5565b34801561049d57600080fd5b5061018f6117ca565b3480156104b257600080fd5b5061018f6117d9565b3480156104c757600080fd5b506101cc600160a060020a03600435166117e8565b3480156104e857600080fd5b506101cc600160a060020a03600435166118d2565b34801561050957600080fd5b506101cc600160a060020a03600435166119bc565b34801561052a57600080fd5b50610533611a9c565b60408051918252519081900360200190f35b34801561055157600080fd5b50610533600160a060020a0360043516602435611aa2565b6000610573611fb6565b604080517f762fee18000000000000000000000000000000000000000000000000000000008152600481018690529051309163762fee189160248083019260209291908290030181600087803b1580156105cc57600080fd5b505af11580156105e0573d6000803e3d6000fd5b505050506040513d60208110156105f657600080fd5b5051151561060357600080fd5b600160a060020a038316151561061857600080fd5b60008481526011602090815260408083205483526010825291829020825161016081018452815481526001808301548285015260028084015483870152600384015460608401526004840154600160a060020a03166080840152600584015460a0840152600684015460c0840152600784015460e084015260088401805487516000196101009583161586020190911692909204601f8101879004870283018701909752868252929593949186019390929183018282801561071b5780601f106106f05761010080835404028352916020019161071b565b820191906000526020600020905b8154815290600101906020018083116106fe57829003601f168201915b50505091835250506009820154600160a060020a039081166020830152600a909201546040909101526080820151811690851614925090505092915050565b600554600160a060020a031681565b6000546001546040805160e260020a633d9abf2b028152336004820152600160a060020a0393841660248201529290911660448301525173__AOLibrary_____________________________9163f66afcac916064808301926020929190829003018186803b1580156107db57600080fd5b505af41580156107ef573d6000803e3d6000fd5b505050506040513d602081101561080557600080fd5b5051151561081257600080fd5b600160a060020a038116151561082757600080fd5b60078054600160a060020a03909216600160a060020a03199283168117909155600d8054909216179055565b6000806000806000806000606060008061086b611fb6565b604080517f762fee18000000000000000000000000000000000000000000000000000000008152600481018e90529051309163762fee189160248083019260209291908290030181600087803b1580156108c457600080fd5b505af11580156108d8573d6000803e3d6000fd5b505050506040513d60208110156108ee57600080fd5b505115156108fb57600080fd5b60008c81526011602090815260408083205483526010825291829020825161016081018452815481526001808301548285015260028084015483870152600384015460608401526004840154600160a060020a03166080840152600584015460a0840152600684015460c0840152600784015460e084015260088401805487516000196101009583161586020190911692909204601f810187900487028301870190975286825292959394918601939092918301828280156109fe5780601f106109d3576101008083540402835291602001916109fe565b820191906000526020600020905b8154815290600101906020018083116109e157829003601f168201915b505050505081526020016009820160009054906101000a9004600160a060020a0316600160a060020a0316600160a060020a03168152602001600a82015481525050905080602001518160400151826060015183608001518460a001518560c001518660e001518761010001518861012001518961014001518292509a509a509a509a509a509a509a509a509a509a50509193959799509193959799565b6000546001546040805160e260020a633d9abf2b028152336004820152600160a060020a0393841660248201529290911660448301525173__AOLibrary_____________________________9163f66afcac916064808301926020929190829003018186803b158015610b0e57600080fd5b505af4158015610b22573d6000803e3d6000fd5b505050506040513d6020811015610b3857600080fd5b50511515610b4557600080fd5b600160a060020a0381161515610b5a57600080fd5b60058054600160a060020a03909216600160a060020a03199283168117909155600b8054909216179055565b600154600160a060020a031681565b6000546001546040805160e260020a633d9abf2b028152336004820152600160a060020a0393841660248201529290911660448301525173__AOLibrary_____________________________9163f66afcac916064808301926020929190829003018186803b158015610c0757600080fd5b505af4158015610c1b573d6000803e3d6000fd5b505050506040513d6020811015610c3157600080fd5b50511515610c3e57600080fd5b600160a060020a0382161515610c5357600080fd5b600160a060020a03919091166000908152600260205260409020805460ff1916911515919091179055565b6000546001546040805160e260020a633d9abf2b028152336004820152600160a060020a0393841660248201529290911660448301525173__AOLibrary_____________________________9163f66afcac916064808301926020929190829003018186803b158015610cf057600080fd5b505af4158015610d04573d6000803e3d6000fd5b505050506040513d6020811015610d1a57600080fd5b50511515610d2757600080fd5b600160a060020a0381161515610d3c57600080fd5b60018054600160a060020a031916600160a060020a0392909216919091179055565b600754600160a060020a031681565b6000908152601160205260408120541190565b600f54604080517f029b7d5300000000000000000000000000000000000000000000000000000000815233600482015290516000928392839283928392600160a060020a039091169163029b7d539160248082019260209290919082900301818787803b158015610df057600080fd5b505af1158015610e04573d6000803e3d6000fd5b505050506040513d6020811015610e1a57600080fd5b50519450600160a060020a0385161515610e3357600080fd5b610e3f858c8989611abf565b1515610e4a57600080fd5b600c54604080517f2dff0d0d000000000000000000000000000000000000000000000000000000008152600481018e90529051600160a060020a0390921691632dff0d0d9160248082019260009290919082900301818387803b158015610eb057600080fd5b505af1158015610ec4573d6000803e3d6000fd5b505050506040513d6000823e601f3d908101601f1916820160405260a0811015610eed57600080fd5b8151602083015160408401516060850180519395929491939183019291640100000000811115610f1c57600080fd5b82016020810184811115610f2f57600080fd5b8151640100000000811182820187101715610f4957600080fd5b50509291906020018051640100000000811115610f6557600080fd5b82016020810184811115610f7857600080fd5b8151640100000000811182820187101715610f9257600080fd5b5050600a54604080517f65cf0ace000000000000000000000000000000000000000000000000000000008152600481018a90529051999d50979b50600160a060020a0316976365cf0ace9760248082019850602097509195508590030192508391506000905087803b15801561100757600080fd5b505af115801561101b573d6000803e3d6000fd5b505050506040513d602081101561103157600080fd5b5051156110df57600c54604080517fa9e3fd27000000000000000000000000000000000000000000000000000000008152600481018e905290516110d492600160a060020a03169163a9e3fd279160248083019260209291908290030181600087803b1580156110a057600080fd5b505af11580156110b4573d6000803e3d6000fd5b505050506040513d60208110156110ca57600080fd5b50518b8b8b611eda565b15156110df57600080fd5b600380546001019055604080516c01000000000000000000000000308102602080840191909152600160a060020a038916909102603483015260488083018f905283518084039091018152606890920192839052815191929182918401908083835b602083106111605780518252601f199092019160209182019101611141565b51815160209384036101000a60001901801990921691161790526040805192909401829003909120600354600090815260109092529290206004810154929650945050600160a060020a03161591506111ba905057600080fd5b818155600181018b9055600281018490556003810183905560048082018054600160a060020a031916600160a060020a0388811691909117909155600c54604080517fa9e3fd270000000000000000000000000000000000000000000000000000000081529384018f90525191169163a9e3fd279160248083019260209291908290030181600087803b15801561125057600080fd5b505af1158015611264573d6000803e3d6000fd5b505050506040513d602081101561127a57600080fd5b50516005820155600c54604080517f86231b9e000000000000000000000000000000000000000000000000000000008152600481018e90529051600160a060020a03909216916386231b9e916024808201926020929091908290030181600087803b1580156112e857600080fd5b505af11580156112fc573d6000803e3d6000fd5b505050506040513d602081101561131257600080fd5b505160078201819055600582015461132f9163ffffffff611fa416565b6006820155865161134990600883019060208a0190612011565b50600981018054600160a060020a031916600160a060020a038881169190911790915542600a8301556003546000848152601160209081526040808320939093558884168252601281528282208f83528152828220869055600e5483517fe41800e200000000000000000000000000000000000000000000000000000000815260048101889052935194169363e41800e293602480820194918390030190829087803b1580156113f857600080fd5b505af115801561140c573d6000803e3d6000fd5b505050506040513d602081101561142257600080fd5b5051151561142f57600080fd5b8060010154600019168160000154600019168260040160009054906101000a9004600160a060020a0316600160a060020a03167fdf92ee31f72a8dbc51130354d9220988266bb5cd9eaafe7b8914826a0fa794dd84600201548560030154866005015487600701548860060154896008018a60090160009054906101000a9004600160a060020a03168b600a015460405180896000191660001916815260200188600019166000191681526020018781526020018681526020018581526020018060200184600160a060020a0316600160a060020a031681526020018381526020018281038252858181546001816001161561010002031660029004815260200191508054600181600116156101000203166002900480156115925780601f1061156757610100808354040283529160200191611592565b820191906000526020600020905b81548152906001019060200180831161157557829003601f168201915b5050995050505050505050505060405180910390a45050505050505050505050565b600454600160a060020a031681565b6000546001546040805160e260020a633d9abf2b028152336004820152600160a060020a0393841660248201529290911660448301525173__AOLibrary_____________________________9163f66afcac916064808301926020929190829003018186803b15801561163557600080fd5b505af4158015611649573d6000803e3d6000fd5b505050506040513d602081101561165f57600080fd5b5051151561166c57600080fd5b600160a060020a038116151561168157600080fd5b60048054600160a060020a03909216600160a060020a03199283168117909155600a8054909216179055565b6000546001546040805160e260020a633d9abf2b028152336004820152600160a060020a0393841660248201529290911660448301525173__AOLibrary_____________________________9163f66afcac916064808301926020929190829003018186803b15801561171f57600080fd5b505af4158015611733573d6000803e3d6000fd5b505050506040513d602081101561174957600080fd5b5051151561175657600080fd5b600160a060020a038116151561176b57600080fd5b60098054600160a060020a03909216600160a060020a03199283168117909155600f8054909216179055565b600854600160a060020a031681565b600654600160a060020a031681565b60026020526000908152604090205460ff1681565b600054600160a060020a031681565b600954600160a060020a031681565b6000546001546040805160e260020a633d9abf2b028152336004820152600160a060020a0393841660248201529290911660448301525173__AOLibrary_____________________________9163f66afcac916064808301926020929190829003018186803b15801561185a57600080fd5b505af415801561186e573d6000803e3d6000fd5b505050506040513d602081101561188457600080fd5b5051151561189157600080fd5b600160a060020a03811615156118a657600080fd5b60088054600160a060020a03909216600160a060020a03199283168117909155600e8054909216179055565b6000546001546040805160e260020a633d9abf2b028152336004820152600160a060020a0393841660248201529290911660448301525173__AOLibrary_____________________________9163f66afcac916064808301926020929190829003018186803b15801561194457600080fd5b505af4158015611958573d6000803e3d6000fd5b505050506040513d602081101561196e57600080fd5b5051151561197b57600080fd5b600160a060020a038116151561199057600080fd5b60068054600160a060020a03909216600160a060020a03199283168117909155600c8054909216179055565b6000546001546040805160e260020a633d9abf2b028152336004820152600160a060020a0393841660248201529290911660448301525173__AOLibrary_____________________________9163f66afcac916064808301926020929190829003018186803b158015611a2e57600080fd5b505af4158015611a42573d6000803e3d6000fd5b505050506040513d6020811015611a5857600080fd5b50511515611a6557600080fd5b600160a060020a0381161515611a7a57600080fd5b60008054600160a060020a031916600160a060020a0392909216919091179055565b60035481565b601260209081526000928352604080842090915290825290205481565b600c54604080517f2dff0d0d00000000000000000000000000000000000000000000000000000000815260048101869052905160009283928392600160a060020a0390921691632dff0d0d91602480820192869290919082900301818387803b158015611b2b57600080fd5b505af1158015611b3f573d6000803e3d6000fd5b505050506040513d6000823e601f3d908101601f1916820160405260a0811015611b6857600080fd5b8151602083015160408401516060850180519395929491939183019291640100000000811115611b9757600080fd5b82016020810184811115611baa57600080fd5b8151640100000000811182820187101715611bc457600080fd5b50509291906020018051640100000000811115611be057600080fd5b82016020810184811115611bf357600080fd5b8151640100000000811182820187101715611c0d57600080fd5b505092919050505050509250509150600c60009054906101000a9004600160a060020a0316600160a060020a031663762fee18876040518263ffffffff167c0100000000000000000000000000000000000000000000000000000000028152600401808260001916600019168152602001915050602060405180830381600087803b158015611c9b57600080fd5b505af1158015611caf573d6000803e3d6000fd5b505050506040513d6020811015611cc557600080fd5b50518015611cdb5750600160a060020a03871615155b8015611cf9575080600160a060020a031687600160a060020a031614155b8015611da05750604080517f2d706a34000000000000000000000000000000000000000000000000000000008152600160a060020a0389166004820152905173__AOLibrary_____________________________91632d706a34916024808301926020929190829003018186803b158015611d7357600080fd5b505af4158015611d87573d6000803e3d6000fd5b505050506040513d6020811015611d9d57600080fd5b50515b8015611dad575060008551115b8015611dc15750600160a060020a03841615155b8015611e5c5750600b54604080517f5c36901c000000000000000000000000000000000000000000000000000000008152600481018590529051600160a060020a0390921691635c36901c916024808201926020929091908290030181600087803b158015611e2f57600080fd5b505af1158015611e43573d6000803e3d6000fd5b505050506040513d6020811015611e5957600080fd5b50515b8015611ecf5750600160a060020a0387166000908152601260209081526040808320898452909152812054901a7f0100000000000000000000000000000000000000000000000000000000000000027fff0000000000000000000000000000000000000000000000000000000000000016155b979650505050505050565b600d54604080517f217db8e8000000000000000000000000000000000000000000000000000000008152600481018690526024810185905277ffffffffffffffffffffffffffffffffffffffffffffffff198416604482015290516000928792600160a060020a039091169163217db8e89160648082019260209290919082900301818887803b158015611f6d57600080fd5b505af1158015611f81573d6000803e3d6000fd5b505050506040513d6020811015611f9757600080fd5b5051101595945050505050565b600082821115611fb057fe5b50900390565b604080516101608101825260008082526020820181905291810182905260608082018390526080820183905260a0820183905260c0820183905260e08201839052610100820152610120810182905261014081019190915290565b828054600181600116156101000203166002900490600052602060002090601f016020900481019282601f1061205257805160ff191683800117855561207f565b8280016001018555821561207f579182015b8281111561207f578251825591602001919060010190612064565b5061208b92915061208f565b5090565b6120a991905b8082111561208b5760008155600101612095565b905600a165627a7a72305820a2f6387c95ce0af866fa6a11bdd3c1d893a8ffcda3a67b05807cd40fb1a1777a0029",
	"source": "pragma solidity ^0.4.24;\n\nimport './SafeMath.sol';\nimport './AOLibrary.sol';\nimport './TheAO.sol';\nimport './IAOPurchaseReceipt.sol';\nimport './IAOContent.sol';\nimport './IAOStakedContent.sol';\nimport './IAOContentHost.sol';\nimport './IAOTreasury.sol';\nimport './IAOEarning.sol';\nimport './INameFactory.sol';\n\n/**\n * @title AOPurchaseReceipt\n */\ncontract AOPurchaseReceipt is TheAO, IAOPurchaseReceipt {\n\tusing SafeMath for uint256;\n\n\tuint256 public totalPurchaseReceipts;\n\taddress public aoContentAddress;\n\taddress public aoStakedContentAddress;\n\taddress public aoContentHostAddress;\n\taddress public aoTreasuryAddress;\n\taddress public aoEarningAddress;\n\taddress public nameFactoryAddress;\n\n\tIAOContent internal _aoContent;\n\tIAOStakedContent internal _aoStakedContent;\n\tIAOContentHost internal _aoContentHost;\n\tIAOTreasury internal _aoTreasury;\n\tIAOEarning internal _aoEarning;\n\tINameFactory internal _nameFactory;\n\n\tstruct PurchaseReceipt {\n\t\tbytes32 purchaseReceiptId;\n\t\tbytes32 contentHostId;\n\t\tbytes32 stakedContentId;\n\t\tbytes32 contentId;\n\t\taddress buyer;\n\t\tuint256 price;\n\t\tuint256 amountPaidByBuyer;\t// total network ion paid in base denomination\n\t\tuint256 amountPaidByAO; // total amount paid by AO\n\t\tstring publicKey; // The public key provided by request node\n\t\taddress publicAddress; // The public address provided by request node\n\t\tuint256 createdOnTimestamp;\n\t}\n\n\t// Mapping from PurchaseReceipt index to the PurchaseReceipt object\n\tmapping (uint256 => PurchaseReceipt) internal purchaseReceipts;\n\n\t// Mapping from purchase receipt ID to index of the purchaseReceipts list\n\tmapping (bytes32 => uint256) internal purchaseReceiptIndex;\n\n\t// Mapping from buyer's content host ID to the buy ID\n\t// To check whether or not buyer has bought/paid for a content\n\tmapping (address => mapping (bytes32 => bytes32)) public buyerPurchaseReceipts;\n\n\t// Event to be broadcasted to public when a request node buys a content\n\tevent BuyContent(\n\t\taddress indexed buyer,\n\t\tbytes32 indexed purchaseReceiptId,\n\t\tbytes32 indexed contentHostId,\n\t\tbytes32 stakedContentId,\n\t\tbytes32 contentId,\n\t\tuint256 price,\n\t\tuint256 amountPaidByAO,\n\t\tuint256 amountPaidByBuyer,\n\t\tstring publicKey,\n\t\taddress publicAddress,\n\t\tuint256 createdOnTimestamp\n\t);\n\n\t/**\n\t * @dev Constructor function\n\t * @param _aoContentAddress The address of AOContent\n\t * @param _aoStakedContentAddress The address of AOStakedContent\n\t * @param _aoTreasuryAddress The address of AOTreasury\n\t * @param _aoEarningAddress The address of AOEarning\n\t * @param _nameFactoryAddress The address of NameFactory\n\t * @param _nameTAOPositionAddress The address of NameTAOPosition\n\t */\n\tconstructor(address _aoContentAddress,\n\t\taddress _aoStakedContentAddress,\n\t\taddress _aoTreasuryAddress,\n\t\taddress _aoEarningAddress,\n\t\taddress _nameFactoryAddress,\n\t\taddress _nameTAOPositionAddress\n\t\t) public {\n\t\tsetAOContentAddress(_aoContentAddress);\n\t\tsetAOStakedContentAddress(_aoStakedContentAddress);\n\t\tsetAOTreasuryAddress(_aoTreasuryAddress);\n\t\tsetAOEarningAddress(_aoEarningAddress);\n\t\tsetNameFactoryAddress(_nameFactoryAddress);\n\t\tsetNameTAOPositionAddress(_nameTAOPositionAddress);\n\t}\n\n\t/**\n\t * @dev Checks if the calling contract address is The AO\n\t *\t\tOR\n\t *\t\tIf The AO is set to a Name/TAO, then check if calling address is the Advocate\n\t */\n\tmodifier onlyTheAO {\n\t\trequire (AOLibrary.isTheAO(msg.sender, theAO, nameTAOPositionAddress));\n\t\t_;\n\t}\n\n\t/***** The AO ONLY METHODS *****/\n\t/**\n\t * @dev Transfer ownership of The AO to new address\n\t * @param _theAO The new address to be transferred\n\t */\n\tfunction transferOwnership(address _theAO) public onlyTheAO {\n\t\trequire (_theAO != address(0));\n\t\ttheAO = _theAO;\n\t}\n\n\t/**\n\t * @dev Whitelist `_account` address to transact on behalf of others\n\t * @param _account The address to whitelist\n\t * @param _whitelist Either to whitelist or not\n\t */\n\tfunction setWhitelist(address _account, bool _whitelist) public onlyTheAO {\n\t\trequire (_account != address(0));\n\t\twhitelist[_account] = _whitelist;\n\t}\n\n\t/**\n\t * @dev The AO sets AOContent address\n\t * @param _aoContentAddress The address of AOContent\n\t */\n\tfunction setAOContentAddress(address _aoContentAddress) public onlyTheAO {\n\t\trequire (_aoContentAddress != address(0));\n\t\taoContentAddress = _aoContentAddress;\n\t\t_aoContent = IAOContent(_aoContentAddress);\n\t}\n\n\t/**\n\t * @dev The AO sets AOStakedContent address\n\t * @param _aoStakedContentAddress The address of AOStakedContent\n\t */\n\tfunction setAOStakedContentAddress(address _aoStakedContentAddress) public onlyTheAO {\n\t\trequire (_aoStakedContentAddress != address(0));\n\t\taoStakedContentAddress = _aoStakedContentAddress;\n\t\t_aoStakedContent = IAOStakedContent(_aoStakedContentAddress);\n\t}\n\n\t/**\n\t * @dev The AO sets AOContentHost address\n\t * @param _aoContentHostAddress The address of AOContentHost\n\t */\n\tfunction setAOContentHostAddress(address _aoContentHostAddress) public onlyTheAO {\n\t\trequire (_aoContentHostAddress != address(0));\n\t\taoContentHostAddress = _aoContentHostAddress;\n\t\t_aoContentHost = IAOContentHost(_aoContentHostAddress);\n\t}\n\n\t/**\n\t * @dev The AO sets AOTreasury address\n\t * @param _aoTreasuryAddress The address of AOTreasury\n\t */\n\tfunction setAOTreasuryAddress(address _aoTreasuryAddress) public onlyTheAO {\n\t\trequire (_aoTreasuryAddress != address(0));\n\t\taoTreasuryAddress = _aoTreasuryAddress;\n\t\t_aoTreasury = IAOTreasury(_aoTreasuryAddress);\n\t}\n\n\t/**\n\t * @dev The AO sets AOEarning address\n\t * @param _aoEarningAddress The address of AOEarning\n\t */\n\tfunction setAOEarningAddress(address _aoEarningAddress) public onlyTheAO {\n\t\trequire (_aoEarningAddress != address(0));\n\t\taoEarningAddress = _aoEarningAddress;\n\t\t_aoEarning = IAOEarning(_aoEarningAddress);\n\t}\n\n\t/**\n\t * @dev The AO sets NameFactory address\n\t * @param _nameFactoryAddress The address of NameFactory\n\t */\n\tfunction setNameFactoryAddress(address _nameFactoryAddress) public onlyTheAO {\n\t\trequire (_nameFactoryAddress != address(0));\n\t\tnameFactoryAddress = _nameFactoryAddress;\n\t\t_nameFactory = INameFactory(_nameFactoryAddress);\n\t}\n\n\t/**\n\t * @dev The AO sets NameTAOPosition address\n\t * @param _nameTAOPositionAddress The address of NameTAOPosition\n\t */\n\tfunction setNameTAOPositionAddress(address _nameTAOPositionAddress) public onlyTheAO {\n\t\trequire (_nameTAOPositionAddress != address(0));\n\t\tnameTAOPositionAddress = _nameTAOPositionAddress;\n\t}\n\n\t/***** PUBLIC METHODS *****/\n\t/**\n\t * @dev Bring content in to the requesting node by sending network ions to the contract to pay for the content\n\t * @param _contentHostId The ID of hosted content\n\t * @param _networkIntegerAmount The integer amount of network ion to pay\n\t * @param _networkFractionAmount The fraction amount of network ion to pay\n\t * @param _denomination The denomination of the network ion, i.e ao, kilo, mega, etc.\n\t * @param _publicKey The public key of the request node\n\t * @param _publicAddress The public address of the request node\n\t */\n\tfunction buyContent(bytes32 _contentHostId,\n\t\tuint256 _networkIntegerAmount,\n\t\tuint256 _networkFractionAmount,\n\t\tbytes8 _denomination,\n\t\tstring _publicKey,\n\t\taddress _publicAddress\n\t) public {\n\t\taddress _buyerNameId = _nameFactory.ethAddressToNameId(msg.sender);\n\t\trequire (_buyerNameId != address(0));\n\t\trequire (_canBuy(_buyerNameId, _contentHostId, _publicKey, _publicAddress));\n\n\t\t(bytes32 _stakedContentId, bytes32 _contentId,,,) = _aoContentHost.getById(_contentHostId);\n\n\t\t// Make sure the ion amount can pay for the content price\n\t\tif (_aoContent.isAOContentUsageType(_contentId)) {\n\t\t\trequire (_canBuyAOContent(_aoContentHost.contentHostPrice(_contentHostId), _networkIntegerAmount, _networkFractionAmount, _denomination));\n\t\t}\n\n\t\t// Increment totalPurchaseReceipts;\n\t\ttotalPurchaseReceipts++;\n\n\t\t// Generate purchaseReceiptId\n\t\tbytes32 _purchaseReceiptId = keccak256(abi.encodePacked(this, _buyerNameId, _contentHostId));\n\t\tPurchaseReceipt storage _purchaseReceipt = purchaseReceipts[totalPurchaseReceipts];\n\n\t\t// Make sure the node doesn't buy the same content twice\n\t\trequire (_purchaseReceipt.buyer == address(0));\n\n\t\t_purchaseReceipt.purchaseReceiptId = _purchaseReceiptId;\n\t\t_purchaseReceipt.contentHostId = _contentHostId;\n\t\t_purchaseReceipt.stakedContentId = _stakedContentId;\n\t\t_purchaseReceipt.contentId = _contentId;\n\t\t_purchaseReceipt.buyer = _buyerNameId;\n\t\t// Update the receipt with the correct network amount\n\t\t_purchaseReceipt.price = _aoContentHost.contentHostPrice(_contentHostId);\n\t\t_purchaseReceipt.amountPaidByAO = _aoContentHost.contentHostPaidByAO(_contentHostId);\n\t\t_purchaseReceipt.amountPaidByBuyer = _purchaseReceipt.price.sub(_purchaseReceipt.amountPaidByAO);\n\t\t_purchaseReceipt.publicKey = _publicKey;\n\t\t_purchaseReceipt.publicAddress = _publicAddress;\n\t\t_purchaseReceipt.createdOnTimestamp = now;\n\n\t\tpurchaseReceiptIndex[_purchaseReceiptId] = totalPurchaseReceipts;\n\t\tbuyerPurchaseReceipts[_buyerNameId][_contentHostId] = _purchaseReceiptId;\n\n\t\t// Calculate content creator/host/The AO earning from this purchase and store them in escrow\n\t\trequire (_aoEarning.calculateEarning(_purchaseReceiptId));\n\n\t\temit BuyContent(\n\t\t\t_purchaseReceipt.buyer,\n\t\t\t_purchaseReceipt.purchaseReceiptId,\n\t\t\t_purchaseReceipt.contentHostId,\n\t\t\t_purchaseReceipt.stakedContentId,\n\t\t\t_purchaseReceipt.contentId,\n\t\t\t_purchaseReceipt.price,\n\t\t\t_purchaseReceipt.amountPaidByAO,\n\t\t\t_purchaseReceipt.amountPaidByBuyer,\n\t\t\t_purchaseReceipt.publicKey,\n\t\t\t_purchaseReceipt.publicAddress,\n\t\t\t_purchaseReceipt.createdOnTimestamp\n\t\t);\n\t}\n\n\t/**\n\t * @dev Return purchase receipt info at a given ID\n\t * @param _purchaseReceiptId The ID of the purchased content\n\t * @return The ID of the content host\n\t * @return The ID of the staked content\n\t * @return The ID of the content\n\t * @return address of the buyer\n\t * @return price of the content\n\t * @return amount paid by AO\n\t * @return amount paid by Buyer\n\t * @return request node's public key\n\t * @return request node's public address\n\t * @return created on timestamp\n\t */\n\tfunction getById(bytes32 _purchaseReceiptId) external view returns (bytes32, bytes32, bytes32, address, uint256, uint256, uint256, string, address, uint256) {\n\t\t// Make sure the purchase receipt exist\n\t\trequire (this.isExist(_purchaseReceiptId));\n\t\tPurchaseReceipt memory _purchaseReceipt = purchaseReceipts[purchaseReceiptIndex[_purchaseReceiptId]];\n\t\treturn (\n\t\t\t_purchaseReceipt.contentHostId,\n\t\t\t_purchaseReceipt.stakedContentId,\n\t\t\t_purchaseReceipt.contentId,\n\t\t\t_purchaseReceipt.buyer,\n\t\t\t_purchaseReceipt.price,\n\t\t\t_purchaseReceipt.amountPaidByBuyer,\n\t\t\t_purchaseReceipt.amountPaidByAO,\n\t\t\t_purchaseReceipt.publicKey,\n\t\t\t_purchaseReceipt.publicAddress,\n\t\t\t_purchaseReceipt.createdOnTimestamp\n\t\t);\n\t}\n\n\t/**\n\t * @dev Check whether or not sender is the buyer of purchase receipt ID\n\t * @param _purchaseReceiptId The ID of the Purchase Receipt to be checked\n\t * @param _sender The sender address\n\t * @return true if yes, false otherwise\n\t */\n\tfunction senderIsBuyer(bytes32 _purchaseReceiptId, address _sender) external view returns (bool) {\n\t\trequire (this.isExist(_purchaseReceiptId));\n\t\trequire (_sender != address(0));\n\t\tPurchaseReceipt memory _purchaseReceipt = purchaseReceipts[purchaseReceiptIndex[_purchaseReceiptId]];\n\t\treturn (_purchaseReceipt.buyer == _sender);\n\t}\n\n\t/**\n\t * @dev Check whether or not a purchaseReceiptId exist\n\t * @param _purchaseReceiptId The PurchaseReceipt ID to be checked\n\t * @return true if yes, false otherwise\n\t */\n\tfunction isExist(bytes32 _purchaseReceiptId) external view returns (bool) {\n\t\treturn (purchaseReceiptIndex[_purchaseReceiptId] > 0);\n\t}\n\n\t/***** INTERNAL METHODS *****/\n\t/**\n\t * @dev Check whether or not the passed params valid\n\t * @param _buyer The address of the buyer\n\t * @param _contentHostId The ID of hosted content\n\t * @param _publicKey The public key of the request node\n\t * @param _publicAddress The public address of the request node\n\t * @return true if yes, false otherwise\n\t */\n\tfunction _canBuy(address _buyer,\n\t\tbytes32 _contentHostId,\n\t\tstring _publicKey,\n\t\taddress _publicAddress\n\t) internal view returns (bool) {\n\t\t(bytes32 _stakedContentId,,address _host,,) = _aoContentHost.getById(_contentHostId);\n\n\t\t// Make sure the content host exist\n\t\treturn (_aoContentHost.isExist(_contentHostId) &&\n\t\t\t_buyer != address(0) &&\n\t\t\t_buyer != _host &&\n\t\t\tAOLibrary.isName(_buyer) &&\n\t\t\tbytes(_publicKey).length > 0 &&\n\t\t\t_publicAddress != address(0) &&\n\t\t\t_aoStakedContent.isActive(_stakedContentId) &&\n\t\t\tbuyerPurchaseReceipts[_buyer][_contentHostId][0] == 0\n\t\t);\n\t}\n\n\t/**\n\t * @dev Check whether the network ion is adequate to pay for existing staked content\n\t * @param _price The price of the content\n\t * @param _networkIntegerAmount The integer amount of the network ion\n\t * @param _networkFractionAmount The fraction amount of the network ion\n\t * @param _denomination The denomination of the the network ion\n\t * @return true when the amount is sufficient, false otherwise\n\t */\n\tfunction _canBuyAOContent(uint256 _price, uint256 _networkIntegerAmount, uint256 _networkFractionAmount, bytes8 _denomination) internal view returns (bool) {\n\t\treturn _aoTreasury.toBase(_networkIntegerAmount, _networkFractionAmount, _denomination) >= _price;\n\t}\n}\n",
	"sourcePath": "/Users/johanmulyono/Work/AO/ao-contracts/contracts/AOPurchaseReceipt.sol",
	"compiler": {
		"name": "solc",
		"version": "0.4.24+commit.e67f0147.Emscripten.clang"
	},
	"schemaVersion": "2.0.1",
	"updatedAt": "2019-04-04T04:29:47.550Z"
}