{
	"contractName": "AOPurchaseReceipt",
	"abi": [
		{
			"constant": true,
			"inputs": [],
			"name": "aoStakedContentAddress",
			"outputs": [
				{
					"name": "",
					"type": "address"
				}
			],
			"payable": false,
			"stateMutability": "view",
			"type": "function"
		},
		{
			"constant": true,
			"inputs": [],
			"name": "nameTAOPositionAddress",
			"outputs": [
				{
					"name": "",
					"type": "address"
				}
			],
			"payable": false,
			"stateMutability": "view",
			"type": "function"
		},
		{
			"constant": true,
			"inputs": [],
			"name": "aoTreasuryAddress",
			"outputs": [
				{
					"name": "",
					"type": "address"
				}
			],
			"payable": false,
			"stateMutability": "view",
			"type": "function"
		},
		{
			"constant": true,
			"inputs": [],
			"name": "aoContentAddress",
			"outputs": [
				{
					"name": "",
					"type": "address"
				}
			],
			"payable": false,
			"stateMutability": "view",
			"type": "function"
		},
		{
			"constant": true,
			"inputs": [],
			"name": "aoEarningAddress",
			"outputs": [
				{
					"name": "",
					"type": "address"
				}
			],
			"payable": false,
			"stateMutability": "view",
			"type": "function"
		},
		{
			"constant": true,
			"inputs": [],
			"name": "aoContentHostAddress",
			"outputs": [
				{
					"name": "",
					"type": "address"
				}
			],
			"payable": false,
			"stateMutability": "view",
			"type": "function"
		},
		{
			"constant": true,
			"inputs": [
				{
					"name": "",
					"type": "address"
				}
			],
			"name": "whitelist",
			"outputs": [
				{
					"name": "",
					"type": "bool"
				}
			],
			"payable": false,
			"stateMutability": "view",
			"type": "function"
		},
		{
			"constant": true,
			"inputs": [],
			"name": "theAO",
			"outputs": [
				{
					"name": "",
					"type": "address"
				}
			],
			"payable": false,
			"stateMutability": "view",
			"type": "function"
		},
		{
			"constant": true,
			"inputs": [],
			"name": "totalPurchaseReceipts",
			"outputs": [
				{
					"name": "",
					"type": "uint256"
				}
			],
			"payable": false,
			"stateMutability": "view",
			"type": "function"
		},
		{
			"constant": true,
			"inputs": [
				{
					"name": "",
					"type": "address"
				},
				{
					"name": "",
					"type": "bytes32"
				}
			],
			"name": "buyerPurchaseReceipts",
			"outputs": [
				{
					"name": "",
					"type": "bytes32"
				}
			],
			"payable": false,
			"stateMutability": "view",
			"type": "function"
		},
		{
			"inputs": [
				{
					"name": "_aoContentAddress",
					"type": "address"
				},
				{
					"name": "_aoStakedContentAddress",
					"type": "address"
				},
				{
					"name": "_aoTreasuryAddress",
					"type": "address"
				},
				{
					"name": "_aoEarningAddress",
					"type": "address"
				},
				{
					"name": "_nameTAOPositionAddress",
					"type": "address"
				}
			],
			"payable": false,
			"stateMutability": "nonpayable",
			"type": "constructor"
		},
		{
			"anonymous": false,
			"inputs": [
				{
					"indexed": true,
					"name": "buyer",
					"type": "address"
				},
				{
					"indexed": true,
					"name": "purchaseReceiptId",
					"type": "bytes32"
				},
				{
					"indexed": true,
					"name": "contentHostId",
					"type": "bytes32"
				},
				{
					"indexed": false,
					"name": "stakedContentId",
					"type": "bytes32"
				},
				{
					"indexed": false,
					"name": "contentId",
					"type": "bytes32"
				},
				{
					"indexed": false,
					"name": "price",
					"type": "uint256"
				},
				{
					"indexed": false,
					"name": "amountPaidByAO",
					"type": "uint256"
				},
				{
					"indexed": false,
					"name": "amountPaidByBuyer",
					"type": "uint256"
				},
				{
					"indexed": false,
					"name": "publicKey",
					"type": "string"
				},
				{
					"indexed": false,
					"name": "publicAddress",
					"type": "address"
				},
				{
					"indexed": false,
					"name": "createdOnTimestamp",
					"type": "uint256"
				}
			],
			"name": "BuyContent",
			"type": "event"
		},
		{
			"constant": false,
			"inputs": [
				{
					"name": "_theAO",
					"type": "address"
				}
			],
			"name": "transferOwnership",
			"outputs": [],
			"payable": false,
			"stateMutability": "nonpayable",
			"type": "function"
		},
		{
			"constant": false,
			"inputs": [
				{
					"name": "_account",
					"type": "address"
				},
				{
					"name": "_whitelist",
					"type": "bool"
				}
			],
			"name": "setWhitelist",
			"outputs": [],
			"payable": false,
			"stateMutability": "nonpayable",
			"type": "function"
		},
		{
			"constant": false,
			"inputs": [
				{
					"name": "_aoContentAddress",
					"type": "address"
				}
			],
			"name": "setAOContentAddress",
			"outputs": [],
			"payable": false,
			"stateMutability": "nonpayable",
			"type": "function"
		},
		{
			"constant": false,
			"inputs": [
				{
					"name": "_aoStakedContentAddress",
					"type": "address"
				}
			],
			"name": "setAOStakedContentAddress",
			"outputs": [],
			"payable": false,
			"stateMutability": "nonpayable",
			"type": "function"
		},
		{
			"constant": false,
			"inputs": [
				{
					"name": "_aoContentHostAddress",
					"type": "address"
				}
			],
			"name": "setAOContentHostAddress",
			"outputs": [],
			"payable": false,
			"stateMutability": "nonpayable",
			"type": "function"
		},
		{
			"constant": false,
			"inputs": [
				{
					"name": "_aoTreasuryAddress",
					"type": "address"
				}
			],
			"name": "setAOTreasuryAddress",
			"outputs": [],
			"payable": false,
			"stateMutability": "nonpayable",
			"type": "function"
		},
		{
			"constant": false,
			"inputs": [
				{
					"name": "_aoEarningAddress",
					"type": "address"
				}
			],
			"name": "setAOEarningAddress",
			"outputs": [],
			"payable": false,
			"stateMutability": "nonpayable",
			"type": "function"
		},
		{
			"constant": false,
			"inputs": [
				{
					"name": "_nameTAOPositionAddress",
					"type": "address"
				}
			],
			"name": "setNameTAOPositionAddress",
			"outputs": [],
			"payable": false,
			"stateMutability": "nonpayable",
			"type": "function"
		},
		{
			"constant": false,
			"inputs": [
				{
					"name": "_contentHostId",
					"type": "bytes32"
				},
				{
					"name": "_networkIntegerAmount",
					"type": "uint256"
				},
				{
					"name": "_networkFractionAmount",
					"type": "uint256"
				},
				{
					"name": "_denomination",
					"type": "bytes8"
				},
				{
					"name": "_publicKey",
					"type": "string"
				},
				{
					"name": "_publicAddress",
					"type": "address"
				}
			],
			"name": "buyContent",
			"outputs": [],
			"payable": false,
			"stateMutability": "nonpayable",
			"type": "function"
		},
		{
			"constant": true,
			"inputs": [
				{
					"name": "_purchaseReceiptId",
					"type": "bytes32"
				}
			],
			"name": "getById",
			"outputs": [
				{
					"name": "",
					"type": "bytes32"
				},
				{
					"name": "",
					"type": "bytes32"
				},
				{
					"name": "",
					"type": "bytes32"
				},
				{
					"name": "",
					"type": "address"
				},
				{
					"name": "",
					"type": "uint256"
				},
				{
					"name": "",
					"type": "uint256"
				},
				{
					"name": "",
					"type": "uint256"
				},
				{
					"name": "",
					"type": "string"
				},
				{
					"name": "",
					"type": "address"
				},
				{
					"name": "",
					"type": "uint256"
				}
			],
			"payable": false,
			"stateMutability": "view",
			"type": "function"
		},
		{
			"constant": true,
			"inputs": [
				{
					"name": "_purchaseReceiptId",
					"type": "bytes32"
				},
				{
					"name": "_sender",
					"type": "address"
				}
			],
			"name": "senderIsBuyer",
			"outputs": [
				{
					"name": "",
					"type": "bool"
				}
			],
			"payable": false,
			"stateMutability": "view",
			"type": "function"
		},
		{
			"constant": true,
			"inputs": [
				{
					"name": "_purchaseReceiptId",
					"type": "bytes32"
				}
			],
			"name": "isExist",
			"outputs": [
				{
					"name": "",
					"type": "bool"
				}
			],
			"payable": false,
			"stateMutability": "view",
			"type": "function"
		}
	],
	"bytecode": "0x60806040523480156200001157600080fd5b5060405160a0806200240f8339810160409081528151602083015191830151606084015160809094015160008054600160a060020a03191633179055919390916200006585640100000000620000c0810204565b6200007984640100000000620001c5810204565b6200008d83640100000000620002ca810204565b620000a182640100000000620003cf810204565b620000b581640100000000620004d4810204565b5050505050620005cf565b600054600154604080517ff66afcac000000000000000000000000000000000000000000000000000000008152336004820152600160a060020a0393841660248201529290911660448301525173__AOLibrary_____________________________9163f66afcac916064808301926020929190829003018186803b1580156200014957600080fd5b505af41580156200015e573d6000803e3d6000fd5b505050506040513d60208110156200017557600080fd5b505115156200018357600080fd5b600160a060020a03811615156200019957600080fd5b60048054600160a060020a03909216600160a060020a0319928316811790915560098054909216179055565b600054600154604080517ff66afcac000000000000000000000000000000000000000000000000000000008152336004820152600160a060020a0393841660248201529290911660448301525173__AOLibrary_____________________________9163f66afcac916064808301926020929190829003018186803b1580156200024e57600080fd5b505af415801562000263573d6000803e3d6000fd5b505050506040513d60208110156200027a57600080fd5b505115156200028857600080fd5b600160a060020a03811615156200029e57600080fd5b60058054600160a060020a03909216600160a060020a03199283168117909155600a8054909216179055565b600054600154604080517ff66afcac000000000000000000000000000000000000000000000000000000008152336004820152600160a060020a0393841660248201529290911660448301525173__AOLibrary_____________________________9163f66afcac916064808301926020929190829003018186803b1580156200035357600080fd5b505af415801562000368573d6000803e3d6000fd5b505050506040513d60208110156200037f57600080fd5b505115156200038d57600080fd5b600160a060020a0381161515620003a357600080fd5b60078054600160a060020a03909216600160a060020a03199283168117909155600c8054909216179055565b600054600154604080517ff66afcac000000000000000000000000000000000000000000000000000000008152336004820152600160a060020a0393841660248201529290911660448301525173__AOLibrary_____________________________9163f66afcac916064808301926020929190829003018186803b1580156200045857600080fd5b505af41580156200046d573d6000803e3d6000fd5b505050506040513d60208110156200048457600080fd5b505115156200049257600080fd5b600160a060020a0381161515620004a857600080fd5b60088054600160a060020a03909216600160a060020a03199283168117909155600d8054909216179055565b600054600154604080517ff66afcac000000000000000000000000000000000000000000000000000000008152336004820152600160a060020a0393841660248201529290911660448301525173__AOLibrary_____________________________9163f66afcac916064808301926020929190829003018186803b1580156200055d57600080fd5b505af415801562000572573d6000803e3d6000fd5b505050506040513d60208110156200058957600080fd5b505115156200059757600080fd5b600160a060020a0381161515620005ad57600080fd5b60018054600160a060020a031916600160a060020a0392909216919091179055565b611e3080620005df6000396000f3006080604052600436106101275763ffffffff7c010000000000000000000000000000000000000000000000000000000060003504166306710842811461012c578063078753ad1461016457806307a8385e146101955780632dff0d0d146101b85780633e36144f1461029e5780634ef033f0146102bf57806353d6fd59146102d45780635cfaf2ef146102fa5780635f7b99ea1461031b578063762fee18146103305780637b4126f41461034857806385cb86c8146103d957806389a83246146103ee5780638f6292221461040f57806395f04f27146104245780639b19251a14610439578063a9b6b38e1461045a578063c7061f971461046f578063cd5facb214610490578063f2fde38b146104b1578063f4f0bfeb146104d2578063fffbd7aa146104f9575b600080fd5b34801561013857600080fd5b50610150600435600160a060020a036024351661051d565b604080519115158252519081900360200190f35b34801561017057600080fd5b5061017961070e565b60408051600160a060020a039092168252519081900360200190f35b3480156101a157600080fd5b506101b6600160a060020a036004351661071d565b005b3480156101c457600080fd5b506101d0600435610807565b604080518b815260208082018c90529181018a9052600160a060020a03808a1660608301526080820189905260a0820188905260c082018790528416610100820152610120810183905261014060e0820181815286519183019190915285519192909161016084019187019080838360005b8381101561025a578181015183820152602001610242565b50505050905090810190601f1680156102875780820380516001836020036101000a031916815260200191505b509b50505050505050505050505060405180910390f35b3480156102aa57600080fd5b506101b6600160a060020a0360043516610a50565b3480156102cb57600080fd5b50610179610b3a565b3480156102e057600080fd5b506101b6600160a060020a03600435166024351515610b49565b34801561030657600080fd5b506101b6600160a060020a0360043516610c32565b34801561032757600080fd5b50610179610d12565b34801561033c57600080fd5b50610150600435610d21565b34801561035457600080fd5b50604080516020601f6084356004818101359283018490048402850184019095528184526101b69480359460248035956044359577ffffffffffffffffffffffffffffffffffffffffffffffff19606435169536959460a494909391019190819084018382808284375094975050509235600160a060020a03169350610d3492505050565b3480156103e557600080fd5b506101796114ac565b3480156103fa57600080fd5b506101b6600160a060020a03600435166114bb565b34801561041b57600080fd5b506101796115a5565b34801561043057600080fd5b506101796115b4565b34801561044557600080fd5b50610150600160a060020a03600435166115c3565b34801561046657600080fd5b506101796115d8565b34801561047b57600080fd5b506101b6600160a060020a03600435166115e7565b34801561049c57600080fd5b506101b6600160a060020a03600435166116d1565b3480156104bd57600080fd5b506101b6600160a060020a03600435166117bb565b3480156104de57600080fd5b506104e761189b565b60408051918252519081900360200190f35b34801561050557600080fd5b506104e7600160a060020a03600435166024356118a1565b6000610527611d0e565b604080517f762fee18000000000000000000000000000000000000000000000000000000008152600481018690529051309163762fee189160248083019260209291908290030181600087803b15801561058057600080fd5b505af1158015610594573d6000803e3d6000fd5b505050506040513d60208110156105aa57600080fd5b505115156105b757600080fd5b600160a060020a03831615156105cc57600080fd5b6000848152600f60209081526040808320548352600e825291829020825161016081018452815481526001808301548285015260028084015483870152600384015460608401526004840154600160a060020a03166080840152600584015460a0840152600684015460c0840152600784015460e084015260088401805487516000196101009583161586020190911692909204601f810187900487028301870190975286825292959394918601939092918301828280156106cf5780601f106106a4576101008083540402835291602001916106cf565b820191906000526020600020905b8154815290600101906020018083116106b257829003601f168201915b50505091835250506009820154600160a060020a039081166020830152600a909201546040909101526080820151811690851614925090505092915050565b600554600160a060020a031681565b6000546001546040805160e260020a633d9abf2b028152336004820152600160a060020a0393841660248201529290911660448301525173__AOLibrary_____________________________9163f66afcac916064808301926020929190829003018186803b15801561078f57600080fd5b505af41580156107a3573d6000803e3d6000fd5b505050506040513d60208110156107b957600080fd5b505115156107c657600080fd5b600160a060020a03811615156107db57600080fd5b60078054600160a060020a03909216600160a060020a03199283168117909155600c8054909216179055565b6000806000806000806000606060008061081f611d0e565b604080517f762fee18000000000000000000000000000000000000000000000000000000008152600481018e90529051309163762fee189160248083019260209291908290030181600087803b15801561087857600080fd5b505af115801561088c573d6000803e3d6000fd5b505050506040513d60208110156108a257600080fd5b505115156108af57600080fd5b60008c8152600f60209081526040808320548352600e825291829020825161016081018452815481526001808301548285015260028084015483870152600384015460608401526004840154600160a060020a03166080840152600584015460a0840152600684015460c0840152600784015460e084015260088401805487516000196101009583161586020190911692909204601f810187900487028301870190975286825292959394918601939092918301828280156109b25780601f10610987576101008083540402835291602001916109b2565b820191906000526020600020905b81548152906001019060200180831161099557829003601f168201915b505050505081526020016009820160009054906101000a9004600160a060020a0316600160a060020a0316600160a060020a03168152602001600a82015481525050905080602001518160400151826060015183608001518460a001518560c001518660e001518761010001518861012001518961014001518292509a509a509a509a509a509a509a509a509a509a50509193959799509193959799565b6000546001546040805160e260020a633d9abf2b028152336004820152600160a060020a0393841660248201529290911660448301525173__AOLibrary_____________________________9163f66afcac916064808301926020929190829003018186803b158015610ac257600080fd5b505af4158015610ad6573d6000803e3d6000fd5b505050506040513d6020811015610aec57600080fd5b50511515610af957600080fd5b600160a060020a0381161515610b0e57600080fd5b60058054600160a060020a03909216600160a060020a03199283168117909155600a8054909216179055565b600154600160a060020a031681565b6000546001546040805160e260020a633d9abf2b028152336004820152600160a060020a0393841660248201529290911660448301525173__AOLibrary_____________________________9163f66afcac916064808301926020929190829003018186803b158015610bbb57600080fd5b505af4158015610bcf573d6000803e3d6000fd5b505050506040513d6020811015610be557600080fd5b50511515610bf257600080fd5b600160a060020a0382161515610c0757600080fd5b600160a060020a03919091166000908152600260205260409020805460ff1916911515919091179055565b6000546001546040805160e260020a633d9abf2b028152336004820152600160a060020a0393841660248201529290911660448301525173__AOLibrary_____________________________9163f66afcac916064808301926020929190829003018186803b158015610ca457600080fd5b505af4158015610cb8573d6000803e3d6000fd5b505050506040513d6020811015610cce57600080fd5b50511515610cdb57600080fd5b600160a060020a0381161515610cf057600080fd5b60018054600160a060020a031916600160a060020a0392909216919091179055565b600754600160a060020a031681565b6000908152600f60205260408120541190565b600080600080610d46338b88886118be565b1515610d5157600080fd5b600b54604080517f2dff0d0d000000000000000000000000000000000000000000000000000000008152600481018d90529051600160a060020a0390921691632dff0d0d9160248082019260009290919082900301818387803b158015610db757600080fd5b505af1158015610dcb573d6000803e3d6000fd5b505050506040513d6000823e601f3d908101601f1916820160405260a0811015610df457600080fd5b8151602083015160408401516060850180519395929491939183019291640100000000811115610e2357600080fd5b82016020810184811115610e3657600080fd5b8151640100000000811182820187101715610e5057600080fd5b50509291906020018051640100000000811115610e6c57600080fd5b82016020810184811115610e7f57600080fd5b8151640100000000811182820187101715610e9957600080fd5b5050600954604080517f65cf0ace000000000000000000000000000000000000000000000000000000008152600481018a90529051999d50979b50600160a060020a0316976365cf0ace9760248082019850602097509195508590030192508391506000905087803b158015610f0e57600080fd5b505af1158015610f22573d6000803e3d6000fd5b505050506040513d6020811015610f3857600080fd5b505115610fe657600b54604080517fa9e3fd27000000000000000000000000000000000000000000000000000000008152600481018d90529051610fdb92600160a060020a03169163a9e3fd279160248083019260209291908290030181600087803b158015610fa757600080fd5b505af1158015610fbb573d6000803e3d6000fd5b505050506040513d6020811015610fd157600080fd5b50518a8a8a611c32565b1515610fe657600080fd5b600380546001019055604080516c010000000000000000000000003081026020808401919091523391909102603483015260488083018e905283518084039091018152606890920192839052815191929182918401908083835b6020831061105f5780518252601f199092019160209182019101611040565b51815160209384036101000a600019018019909216911617905260408051929094018290039091206003546000908152600e9092529290206004810154929650945050600160a060020a03161591506110b9905057600080fd5b818155600181018a9055600281018490556003810183905560048082018054600160a060020a03191633179055600b54604080517fa9e3fd270000000000000000000000000000000000000000000000000000000081529283018d905251600160a060020a03919091169163a9e3fd279160248083019260209291908290030181600087803b15801561114b57600080fd5b505af115801561115f573d6000803e3d6000fd5b505050506040513d602081101561117557600080fd5b50516005820155600b54604080517f86231b9e000000000000000000000000000000000000000000000000000000008152600481018d90529051600160a060020a03909216916386231b9e916024808201926020929091908290030181600087803b1580156111e357600080fd5b505af11580156111f7573d6000803e3d6000fd5b505050506040513d602081101561120d57600080fd5b505160078201819055600582015461122a9163ffffffff611cfc16565b600682015585516112449060088301906020890190611d69565b50600981018054600160a060020a031916600160a060020a038781169190911790915542600a8301556003546000848152600f6020908152604080832093909355338252601081528282208e83528152828220869055600d5483517fe41800e200000000000000000000000000000000000000000000000000000000815260048101889052935194169363e41800e293602480820194918390030190829087803b1580156112f157600080fd5b505af1158015611305573d6000803e3d6000fd5b505050506040513d602081101561131b57600080fd5b5051151561132857600080fd5b8060010154600019168160000154600019168260040160009054906101000a9004600160a060020a0316600160a060020a03167fdf92ee31f72a8dbc51130354d9220988266bb5cd9eaafe7b8914826a0fa794dd84600201548560030154866005015487600701548860060154896008018a60090160009054906101000a9004600160a060020a03168b600a015460405180896000191660001916815260200188600019166000191681526020018781526020018681526020018581526020018060200184600160a060020a0316600160a060020a0316815260200183815260200182810382528581815460018160011615610100020316600290048152602001915080546001816001161561010002031660029004801561148b5780601f106114605761010080835404028352916020019161148b565b820191906000526020600020905b81548152906001019060200180831161146e57829003601f168201915b5050995050505050505050505060405180910390a450505050505050505050565b600454600160a060020a031681565b6000546001546040805160e260020a633d9abf2b028152336004820152600160a060020a0393841660248201529290911660448301525173__AOLibrary_____________________________9163f66afcac916064808301926020929190829003018186803b15801561152d57600080fd5b505af4158015611541573d6000803e3d6000fd5b505050506040513d602081101561155757600080fd5b5051151561156457600080fd5b600160a060020a038116151561157957600080fd5b60048054600160a060020a03909216600160a060020a0319928316811790915560098054909216179055565b600854600160a060020a031681565b600654600160a060020a031681565b60026020526000908152604090205460ff1681565b600054600160a060020a031681565b6000546001546040805160e260020a633d9abf2b028152336004820152600160a060020a0393841660248201529290911660448301525173__AOLibrary_____________________________9163f66afcac916064808301926020929190829003018186803b15801561165957600080fd5b505af415801561166d573d6000803e3d6000fd5b505050506040513d602081101561168357600080fd5b5051151561169057600080fd5b600160a060020a03811615156116a557600080fd5b60088054600160a060020a03909216600160a060020a03199283168117909155600d8054909216179055565b6000546001546040805160e260020a633d9abf2b028152336004820152600160a060020a0393841660248201529290911660448301525173__AOLibrary_____________________________9163f66afcac916064808301926020929190829003018186803b15801561174357600080fd5b505af4158015611757573d6000803e3d6000fd5b505050506040513d602081101561176d57600080fd5b5051151561177a57600080fd5b600160a060020a038116151561178f57600080fd5b60068054600160a060020a03909216600160a060020a03199283168117909155600b8054909216179055565b6000546001546040805160e260020a633d9abf2b028152336004820152600160a060020a0393841660248201529290911660448301525173__AOLibrary_____________________________9163f66afcac916064808301926020929190829003018186803b15801561182d57600080fd5b505af4158015611841573d6000803e3d6000fd5b505050506040513d602081101561185757600080fd5b5051151561186457600080fd5b600160a060020a038116151561187957600080fd5b60008054600160a060020a031916600160a060020a0392909216919091179055565b60035481565b601060209081526000928352604080842090915290825290205481565b600b54604080517f2dff0d0d00000000000000000000000000000000000000000000000000000000815260048101869052905160009283928392600160a060020a0390921691632dff0d0d91602480820192869290919082900301818387803b15801561192a57600080fd5b505af115801561193e573d6000803e3d6000fd5b505050506040513d6000823e601f3d908101601f1916820160405260a081101561196757600080fd5b815160208301516040840151606085018051939592949193918301929164010000000081111561199657600080fd5b820160208101848111156119a957600080fd5b81516401000000008111828201871017156119c357600080fd5b505092919060200180516401000000008111156119df57600080fd5b820160208101848111156119f257600080fd5b8151640100000000811182820187101715611a0c57600080fd5b505092919050505050509250509150600b60009054906101000a9004600160a060020a0316600160a060020a031663762fee18876040518263ffffffff167c0100000000000000000000000000000000000000000000000000000000028152600401808260001916600019168152602001915050602060405180830381600087803b158015611a9a57600080fd5b505af1158015611aae573d6000803e3d6000fd5b505050506040513d6020811015611ac457600080fd5b50518015611ada5750600160a060020a03871615155b8015611af8575080600160a060020a031687600160a060020a031614155b8015611b05575060008551115b8015611b195750600160a060020a03841615155b8015611bb45750600a54604080517f5c36901c000000000000000000000000000000000000000000000000000000008152600481018590529051600160a060020a0390921691635c36901c916024808201926020929091908290030181600087803b158015611b8757600080fd5b505af1158015611b9b573d6000803e3d6000fd5b505050506040513d6020811015611bb157600080fd5b50515b8015611c275750600160a060020a0387166000908152601060209081526040808320898452909152812054901a7f0100000000000000000000000000000000000000000000000000000000000000027fff0000000000000000000000000000000000000000000000000000000000000016155b979650505050505050565b600c54604080517f217db8e8000000000000000000000000000000000000000000000000000000008152600481018690526024810185905277ffffffffffffffffffffffffffffffffffffffffffffffff198416604482015290516000928792600160a060020a039091169163217db8e89160648082019260209290919082900301818887803b158015611cc557600080fd5b505af1158015611cd9573d6000803e3d6000fd5b505050506040513d6020811015611cef57600080fd5b5051101595945050505050565b600082821115611d0857fe5b50900390565b604080516101608101825260008082526020820181905291810182905260608082018390526080820183905260a0820183905260c0820183905260e08201839052610100820152610120810182905261014081019190915290565b828054600181600116156101000203166002900490600052602060002090601f016020900481019282601f10611daa57805160ff1916838001178555611dd7565b82800160010185558215611dd7579182015b82811115611dd7578251825591602001919060010190611dbc565b50611de3929150611de7565b5090565b611e0191905b80821115611de35760008155600101611ded565b905600a165627a7a723058200f7c85a3d4693e2032a13f316e3fedcffd2e892af62d0a1091f6110b8929b0e50029",
	"source": "pragma solidity ^0.4.24;\n\nimport './SafeMath.sol';\nimport './AOLibrary.sol';\nimport './TheAO.sol';\nimport './IAOPurchaseReceipt.sol';\nimport './IAOContent.sol';\nimport './IAOStakedContent.sol';\nimport './IAOContentHost.sol';\nimport './IAOTreasury.sol';\nimport './IAOEarning.sol';\n\n/**\n * @title AOPurchaseReceipt\n */\ncontract AOPurchaseReceipt is TheAO, IAOPurchaseReceipt {\n\tusing SafeMath for uint256;\n\n\tuint256 public totalPurchaseReceipts;\n\taddress public aoContentAddress;\n\taddress public aoStakedContentAddress;\n\taddress public aoContentHostAddress;\n\taddress public aoTreasuryAddress;\n\taddress public aoEarningAddress;\n\n\tIAOContent internal _aoContent;\n\tIAOStakedContent internal _aoStakedContent;\n\tIAOContentHost internal _aoContentHost;\n\tIAOTreasury internal _aoTreasury;\n\tIAOEarning internal _aoEarning;\n\n\tstruct PurchaseReceipt {\n\t\tbytes32 purchaseReceiptId;\n\t\tbytes32 contentHostId;\n\t\tbytes32 stakedContentId;\n\t\tbytes32 contentId;\n\t\taddress buyer;\n\t\tuint256 price;\n\t\tuint256 amountPaidByBuyer;\t// total network ion paid in base denomination\n\t\tuint256 amountPaidByAO; // total amount paid by AO\n\t\tstring publicKey; // The public key provided by request node\n\t\taddress publicAddress; // The public address provided by request node\n\t\tuint256 createdOnTimestamp;\n\t}\n\n\t// Mapping from PurchaseReceipt index to the PurchaseReceipt object\n\tmapping (uint256 => PurchaseReceipt) internal purchaseReceipts;\n\n\t// Mapping from purchase receipt ID to index of the purchaseReceipts list\n\tmapping (bytes32 => uint256) internal purchaseReceiptIndex;\n\n\t// Mapping from buyer's content host ID to the buy ID\n\t// To check whether or not buyer has bought/paid for a content\n\tmapping (address => mapping (bytes32 => bytes32)) public buyerPurchaseReceipts;\n\n\t// Event to be broadcasted to public when a request node buys a content\n\tevent BuyContent(\n\t\taddress indexed buyer,\n\t\tbytes32 indexed purchaseReceiptId,\n\t\tbytes32 indexed contentHostId,\n\t\tbytes32 stakedContentId,\n\t\tbytes32 contentId,\n\t\tuint256 price,\n\t\tuint256 amountPaidByAO,\n\t\tuint256 amountPaidByBuyer,\n\t\tstring publicKey,\n\t\taddress publicAddress,\n\t\tuint256 createdOnTimestamp\n\t);\n\n\t/**\n\t * @dev Constructor function\n\t * @param _aoContentAddress The address of AOContent\n\t * @param _aoStakedContentAddress The address of AOStakedContent\n\t * @param _aoTreasuryAddress The address of AOTreasury\n\t * @param _aoEarningAddress The address of AOEarning\n\t * @param _nameTAOPositionAddress The address of NameTAOPosition\n\t */\n\tconstructor(address _aoContentAddress,\n\t\taddress _aoStakedContentAddress,\n\t\taddress _aoTreasuryAddress,\n\t\taddress _aoEarningAddress,\n\t\taddress _nameTAOPositionAddress\n\t\t) public {\n\t\tsetAOContentAddress(_aoContentAddress);\n\t\tsetAOStakedContentAddress(_aoStakedContentAddress);\n\t\tsetAOTreasuryAddress(_aoTreasuryAddress);\n\t\tsetAOEarningAddress(_aoEarningAddress);\n\t\tsetNameTAOPositionAddress(_nameTAOPositionAddress);\n\t}\n\n\t/**\n\t * @dev Checks if the calling contract address is The AO\n\t *\t\tOR\n\t *\t\tIf The AO is set to a Name/TAO, then check if calling address is the Advocate\n\t */\n\tmodifier onlyTheAO {\n\t\trequire (AOLibrary.isTheAO(msg.sender, theAO, nameTAOPositionAddress));\n\t\t_;\n\t}\n\n\t/***** The AO ONLY METHODS *****/\n\t/**\n\t * @dev Transfer ownership of The AO to new address\n\t * @param _theAO The new address to be transferred\n\t */\n\tfunction transferOwnership(address _theAO) public onlyTheAO {\n\t\trequire (_theAO != address(0));\n\t\ttheAO = _theAO;\n\t}\n\n\t/**\n\t * @dev Whitelist `_account` address to transact on behalf of others\n\t * @param _account The address to whitelist\n\t * @param _whitelist Either to whitelist or not\n\t */\n\tfunction setWhitelist(address _account, bool _whitelist) public onlyTheAO {\n\t\trequire (_account != address(0));\n\t\twhitelist[_account] = _whitelist;\n\t}\n\n\t/**\n\t * @dev The AO sets AOContent address\n\t * @param _aoContentAddress The address of AOContent\n\t */\n\tfunction setAOContentAddress(address _aoContentAddress) public onlyTheAO {\n\t\trequire (_aoContentAddress != address(0));\n\t\taoContentAddress = _aoContentAddress;\n\t\t_aoContent = IAOContent(_aoContentAddress);\n\t}\n\n\t/**\n\t * @dev The AO sets AOStakedContent address\n\t * @param _aoStakedContentAddress The address of AOStakedContent\n\t */\n\tfunction setAOStakedContentAddress(address _aoStakedContentAddress) public onlyTheAO {\n\t\trequire (_aoStakedContentAddress != address(0));\n\t\taoStakedContentAddress = _aoStakedContentAddress;\n\t\t_aoStakedContent = IAOStakedContent(_aoStakedContentAddress);\n\t}\n\n\t/**\n\t * @dev The AO sets AOContentHost address\n\t * @param _aoContentHostAddress The address of AOContentHost\n\t */\n\tfunction setAOContentHostAddress(address _aoContentHostAddress) public onlyTheAO {\n\t\trequire (_aoContentHostAddress != address(0));\n\t\taoContentHostAddress = _aoContentHostAddress;\n\t\t_aoContentHost = IAOContentHost(_aoContentHostAddress);\n\t}\n\n\t/**\n\t * @dev The AO sets AOTreasury address\n\t * @param _aoTreasuryAddress The address of AOTreasury\n\t */\n\tfunction setAOTreasuryAddress(address _aoTreasuryAddress) public onlyTheAO {\n\t\trequire (_aoTreasuryAddress != address(0));\n\t\taoTreasuryAddress = _aoTreasuryAddress;\n\t\t_aoTreasury = IAOTreasury(_aoTreasuryAddress);\n\t}\n\n\t/**\n\t * @dev The AO sets AOEarning address\n\t * @param _aoEarningAddress The address of AOEarning\n\t */\n\tfunction setAOEarningAddress(address _aoEarningAddress) public onlyTheAO {\n\t\trequire (_aoEarningAddress != address(0));\n\t\taoEarningAddress = _aoEarningAddress;\n\t\t_aoEarning = IAOEarning(_aoEarningAddress);\n\t}\n\n\t/**\n\t * @dev The AO sets NameTAOPosition address\n\t * @param _nameTAOPositionAddress The address of NameTAOPosition\n\t */\n\tfunction setNameTAOPositionAddress(address _nameTAOPositionAddress) public onlyTheAO {\n\t\trequire (_nameTAOPositionAddress != address(0));\n\t\tnameTAOPositionAddress = _nameTAOPositionAddress;\n\t}\n\n\t/***** PUBLIC METHODS *****/\n\t/**\n\t * @dev Bring content in to the requesting node by sending network ions to the contract to pay for the content\n\t * @param _contentHostId The ID of hosted content\n\t * @param _networkIntegerAmount The integer amount of network ion to pay\n\t * @param _networkFractionAmount The fraction amount of network ion to pay\n\t * @param _denomination The denomination of the network ion, i.e ao, kilo, mega, etc.\n\t * @param _publicKey The public key of the request node\n\t * @param _publicAddress The public address of the request node\n\t */\n\tfunction buyContent(bytes32 _contentHostId,\n\t\tuint256 _networkIntegerAmount,\n\t\tuint256 _networkFractionAmount,\n\t\tbytes8 _denomination,\n\t\tstring _publicKey,\n\t\taddress _publicAddress\n\t) public {\n\t\trequire (_canBuy(msg.sender, _contentHostId, _publicKey, _publicAddress));\n\n\t\t(bytes32 _stakedContentId, bytes32 _contentId,,,) = _aoContentHost.getById(_contentHostId);\n\n\t\t// Make sure the ion amount can pay for the content price\n\t\tif (_aoContent.isAOContentUsageType(_contentId)) {\n\t\t\trequire (_canBuyAOContent(_aoContentHost.contentHostPrice(_contentHostId), _networkIntegerAmount, _networkFractionAmount, _denomination));\n\t\t}\n\n\t\t// Increment totalPurchaseReceipts;\n\t\ttotalPurchaseReceipts++;\n\n\t\t// Generate purchaseReceiptId\n\t\tbytes32 _purchaseReceiptId = keccak256(abi.encodePacked(this, msg.sender, _contentHostId));\n\t\tPurchaseReceipt storage _purchaseReceipt = purchaseReceipts[totalPurchaseReceipts];\n\n\t\t// Make sure the node doesn't buy the same content twice\n\t\trequire (_purchaseReceipt.buyer == address(0));\n\n\t\t_purchaseReceipt.purchaseReceiptId = _purchaseReceiptId;\n\t\t_purchaseReceipt.contentHostId = _contentHostId;\n\t\t_purchaseReceipt.stakedContentId = _stakedContentId;\n\t\t_purchaseReceipt.contentId = _contentId;\n\t\t_purchaseReceipt.buyer = msg.sender;\n\t\t// Update the receipt with the correct network amount\n\t\t_purchaseReceipt.price = _aoContentHost.contentHostPrice(_contentHostId);\n\t\t_purchaseReceipt.amountPaidByAO = _aoContentHost.contentHostPaidByAO(_contentHostId);\n\t\t_purchaseReceipt.amountPaidByBuyer = _purchaseReceipt.price.sub(_purchaseReceipt.amountPaidByAO);\n\t\t_purchaseReceipt.publicKey = _publicKey;\n\t\t_purchaseReceipt.publicAddress = _publicAddress;\n\t\t_purchaseReceipt.createdOnTimestamp = now;\n\n\t\tpurchaseReceiptIndex[_purchaseReceiptId] = totalPurchaseReceipts;\n\t\tbuyerPurchaseReceipts[msg.sender][_contentHostId] = _purchaseReceiptId;\n\n\t\t// Calculate content creator/host/The AO earning from this purchase and store them in escrow\n\t\trequire (_aoEarning.calculateEarning(_purchaseReceiptId));\n\n\t\temit BuyContent(\n\t\t\t_purchaseReceipt.buyer,\n\t\t\t_purchaseReceipt.purchaseReceiptId,\n\t\t\t_purchaseReceipt.contentHostId,\n\t\t\t_purchaseReceipt.stakedContentId,\n\t\t\t_purchaseReceipt.contentId,\n\t\t\t_purchaseReceipt.price,\n\t\t\t_purchaseReceipt.amountPaidByAO,\n\t\t\t_purchaseReceipt.amountPaidByBuyer,\n\t\t\t_purchaseReceipt.publicKey,\n\t\t\t_purchaseReceipt.publicAddress,\n\t\t\t_purchaseReceipt.createdOnTimestamp\n\t\t);\n\t}\n\n\t/**\n\t * @dev Return purchase receipt info at a given ID\n\t * @param _purchaseReceiptId The ID of the purchased content\n\t * @return The ID of the content host\n\t * @return The ID of the staked content\n\t * @return The ID of the content\n\t * @return address of the buyer\n\t * @return price of the content\n\t * @return amount paid by AO\n\t * @return amount paid by Buyer\n\t * @return request node's public key\n\t * @return request node's public address\n\t * @return created on timestamp\n\t */\n\tfunction getById(bytes32 _purchaseReceiptId) external view returns (bytes32, bytes32, bytes32, address, uint256, uint256, uint256, string, address, uint256) {\n\t\t// Make sure the purchase receipt exist\n\t\trequire (this.isExist(_purchaseReceiptId));\n\t\tPurchaseReceipt memory _purchaseReceipt = purchaseReceipts[purchaseReceiptIndex[_purchaseReceiptId]];\n\t\treturn (\n\t\t\t_purchaseReceipt.contentHostId,\n\t\t\t_purchaseReceipt.stakedContentId,\n\t\t\t_purchaseReceipt.contentId,\n\t\t\t_purchaseReceipt.buyer,\n\t\t\t_purchaseReceipt.price,\n\t\t\t_purchaseReceipt.amountPaidByBuyer,\n\t\t\t_purchaseReceipt.amountPaidByAO,\n\t\t\t_purchaseReceipt.publicKey,\n\t\t\t_purchaseReceipt.publicAddress,\n\t\t\t_purchaseReceipt.createdOnTimestamp\n\t\t);\n\t}\n\n\t/**\n\t * @dev Check whether or not sender is the buyer of purchase receipt ID\n\t * @param _purchaseReceiptId The ID of the Purchase Receipt to be checked\n\t * @param _sender The sender address\n\t * @return true if yes, false otherwise\n\t */\n\tfunction senderIsBuyer(bytes32 _purchaseReceiptId, address _sender) external view returns (bool) {\n\t\trequire (this.isExist(_purchaseReceiptId));\n\t\trequire (_sender != address(0));\n\t\tPurchaseReceipt memory _purchaseReceipt = purchaseReceipts[purchaseReceiptIndex[_purchaseReceiptId]];\n\t\treturn (_purchaseReceipt.buyer == _sender);\n\t}\n\n\t/**\n\t * @dev Check whether or not a purchaseReceiptId exist\n\t * @param _purchaseReceiptId The PurchaseReceipt ID to be checked\n\t * @return true if yes, false otherwise\n\t */\n\tfunction isExist(bytes32 _purchaseReceiptId) external view returns (bool) {\n\t\treturn (purchaseReceiptIndex[_purchaseReceiptId] > 0);\n\t}\n\n\t/***** INTERNAL METHODS *****/\n\t/**\n\t * @dev Check whether or not the passed params valid\n\t * @param _buyer The address of the buyer\n\t * @param _contentHostId The ID of hosted content\n\t * @param _publicKey The public key of the request node\n\t * @param _publicAddress The public address of the request node\n\t * @return true if yes, false otherwise\n\t */\n\tfunction _canBuy(address _buyer,\n\t\tbytes32 _contentHostId,\n\t\tstring _publicKey,\n\t\taddress _publicAddress\n\t) internal view returns (bool) {\n\t\t(bytes32 _stakedContentId,,address _host,,) = _aoContentHost.getById(_contentHostId);\n\n\t\t// Make sure the content host exist\n\t\treturn (_aoContentHost.isExist(_contentHostId) &&\n\t\t\t_buyer != address(0) &&\n\t\t\t_buyer != _host &&\n\t\t\tbytes(_publicKey).length > 0 &&\n\t\t\t_publicAddress != address(0) &&\n\t\t\t_aoStakedContent.isActive(_stakedContentId) &&\n\t\t\tbuyerPurchaseReceipts[_buyer][_contentHostId][0] == 0\n\t\t);\n\t}\n\n\t/**\n\t * @dev Check whether the network ion is adequate to pay for existing staked content\n\t * @param _price The price of the content\n\t * @param _networkIntegerAmount The integer amount of the network ion\n\t * @param _networkFractionAmount The fraction amount of the network ion\n\t * @param _denomination The denomination of the the network ion\n\t * @return true when the amount is sufficient, false otherwise\n\t */\n\tfunction _canBuyAOContent(uint256 _price, uint256 _networkIntegerAmount, uint256 _networkFractionAmount, bytes8 _denomination) internal view returns (bool) {\n\t\treturn _aoTreasury.toBase(_networkIntegerAmount, _networkFractionAmount, _denomination) >= _price;\n\t}\n}\n",
	"sourcePath": "/Users/johanmulyono/Work/AO/ao-contracts/contracts/AOPurchaseReceipt.sol",
	"compiler": {
		"name": "solc",
		"version": "0.4.24+commit.e67f0147.Emscripten.clang"
	},
	"schemaVersion": "2.0.1",
	"updatedAt": "2019-02-21T15:27:09.358Z"
}