{
	"contractName": "AOSettingAttribute",
	"abi": [
		{
			"constant": true,
			"inputs": [],
			"name": "nameTAOPositionAddress",
			"outputs": [
				{
					"name": "",
					"type": "address"
				}
			],
			"payable": false,
			"stateMutability": "view",
			"type": "function"
		},
		{
			"constant": true,
			"inputs": [
				{
					"name": "",
					"type": "address"
				}
			],
			"name": "whitelist",
			"outputs": [
				{
					"name": "",
					"type": "bool"
				}
			],
			"payable": false,
			"stateMutability": "view",
			"type": "function"
		},
		{
			"constant": true,
			"inputs": [],
			"name": "theAO",
			"outputs": [
				{
					"name": "",
					"type": "address"
				}
			],
			"payable": false,
			"stateMutability": "view",
			"type": "function"
		},
		{
			"inputs": [
				{
					"name": "_nameTAOPositionAddress",
					"type": "address"
				}
			],
			"payable": false,
			"stateMutability": "nonpayable",
			"type": "constructor"
		},
		{
			"constant": false,
			"inputs": [
				{
					"name": "_theAO",
					"type": "address"
				}
			],
			"name": "transferOwnership",
			"outputs": [],
			"payable": false,
			"stateMutability": "nonpayable",
			"type": "function"
		},
		{
			"constant": false,
			"inputs": [
				{
					"name": "_account",
					"type": "address"
				},
				{
					"name": "_whitelist",
					"type": "bool"
				}
			],
			"name": "setWhitelist",
			"outputs": [],
			"payable": false,
			"stateMutability": "nonpayable",
			"type": "function"
		},
		{
			"constant": false,
			"inputs": [
				{
					"name": "_nameTAOPositionAddress",
					"type": "address"
				}
			],
			"name": "setNameTAOPositionAddress",
			"outputs": [],
			"payable": false,
			"stateMutability": "nonpayable",
			"type": "function"
		},
		{
			"constant": false,
			"inputs": [
				{
					"name": "_settingId",
					"type": "uint256"
				},
				{
					"name": "_creatorNameId",
					"type": "address"
				},
				{
					"name": "_settingName",
					"type": "string"
				},
				{
					"name": "_creatorTAOId",
					"type": "address"
				},
				{
					"name": "_associatedTAOId",
					"type": "address"
				},
				{
					"name": "_extraData",
					"type": "string"
				}
			],
			"name": "add",
			"outputs": [
				{
					"name": "",
					"type": "bytes32"
				},
				{
					"name": "",
					"type": "bytes32"
				}
			],
			"payable": false,
			"stateMutability": "nonpayable",
			"type": "function"
		},
		{
			"constant": true,
			"inputs": [
				{
					"name": "_settingId",
					"type": "uint256"
				}
			],
			"name": "getSettingData",
			"outputs": [
				{
					"name": "",
					"type": "uint256"
				},
				{
					"name": "",
					"type": "address"
				},
				{
					"name": "",
					"type": "address"
				},
				{
					"name": "",
					"type": "address"
				},
				{
					"name": "",
					"type": "string"
				},
				{
					"name": "",
					"type": "bool"
				},
				{
					"name": "",
					"type": "bool"
				},
				{
					"name": "",
					"type": "bool"
				},
				{
					"name": "",
					"type": "string"
				}
			],
			"payable": false,
			"stateMutability": "view",
			"type": "function"
		},
		{
			"constant": true,
			"inputs": [
				{
					"name": "_associatedTAOSettingId",
					"type": "bytes32"
				}
			],
			"name": "getAssociatedTAOSetting",
			"outputs": [
				{
					"name": "",
					"type": "bytes32"
				},
				{
					"name": "",
					"type": "address"
				},
				{
					"name": "",
					"type": "uint256"
				}
			],
			"payable": false,
			"stateMutability": "view",
			"type": "function"
		},
		{
			"constant": true,
			"inputs": [
				{
					"name": "_creatorTAOSettingId",
					"type": "bytes32"
				}
			],
			"name": "getCreatorTAOSetting",
			"outputs": [
				{
					"name": "",
					"type": "bytes32"
				},
				{
					"name": "",
					"type": "address"
				},
				{
					"name": "",
					"type": "uint256"
				}
			],
			"payable": false,
			"stateMutability": "view",
			"type": "function"
		},
		{
			"constant": false,
			"inputs": [
				{
					"name": "_settingId",
					"type": "uint256"
				},
				{
					"name": "_associatedTAOAdvocate",
					"type": "address"
				},
				{
					"name": "_approved",
					"type": "bool"
				}
			],
			"name": "approveAdd",
			"outputs": [
				{
					"name": "",
					"type": "bool"
				}
			],
			"payable": false,
			"stateMutability": "nonpayable",
			"type": "function"
		},
		{
			"constant": false,
			"inputs": [
				{
					"name": "_settingId",
					"type": "uint256"
				},
				{
					"name": "_creatorTAOAdvocate",
					"type": "address"
				}
			],
			"name": "finalizeAdd",
			"outputs": [
				{
					"name": "",
					"type": "bool"
				}
			],
			"payable": false,
			"stateMutability": "nonpayable",
			"type": "function"
		},
		{
			"constant": false,
			"inputs": [
				{
					"name": "_settingId",
					"type": "uint256"
				},
				{
					"name": "_associatedTAOAdvocate",
					"type": "address"
				},
				{
					"name": "_proposalTAOId",
					"type": "address"
				},
				{
					"name": "_extraData",
					"type": "string"
				}
			],
			"name": "update",
			"outputs": [
				{
					"name": "",
					"type": "bool"
				}
			],
			"payable": false,
			"stateMutability": "nonpayable",
			"type": "function"
		},
		{
			"constant": true,
			"inputs": [
				{
					"name": "_settingId",
					"type": "uint256"
				}
			],
			"name": "getSettingState",
			"outputs": [
				{
					"name": "",
					"type": "uint256"
				},
				{
					"name": "",
					"type": "bool"
				},
				{
					"name": "",
					"type": "address"
				},
				{
					"name": "",
					"type": "address"
				},
				{
					"name": "",
					"type": "address"
				},
				{
					"name": "",
					"type": "string"
				}
			],
			"payable": false,
			"stateMutability": "view",
			"type": "function"
		},
		{
			"constant": false,
			"inputs": [
				{
					"name": "_settingId",
					"type": "uint256"
				},
				{
					"name": "_proposalTAOAdvocate",
					"type": "address"
				},
				{
					"name": "_approved",
					"type": "bool"
				}
			],
			"name": "approveUpdate",
			"outputs": [
				{
					"name": "",
					"type": "bool"
				}
			],
			"payable": false,
			"stateMutability": "nonpayable",
			"type": "function"
		},
		{
			"constant": false,
			"inputs": [
				{
					"name": "_settingId",
					"type": "uint256"
				},
				{
					"name": "_associatedTAOAdvocate",
					"type": "address"
				}
			],
			"name": "finalizeUpdate",
			"outputs": [
				{
					"name": "",
					"type": "bool"
				}
			],
			"payable": false,
			"stateMutability": "nonpayable",
			"type": "function"
		},
		{
			"constant": false,
			"inputs": [
				{
					"name": "_settingId",
					"type": "uint256"
				},
				{
					"name": "_creatorNameId",
					"type": "address"
				},
				{
					"name": "_creatorTAOId",
					"type": "address"
				},
				{
					"name": "_associatedTAOId",
					"type": "address"
				},
				{
					"name": "_newSettingId",
					"type": "uint256"
				},
				{
					"name": "_newSettingContractAddress",
					"type": "address"
				}
			],
			"name": "addDeprecation",
			"outputs": [
				{
					"name": "",
					"type": "bytes32"
				},
				{
					"name": "",
					"type": "bytes32"
				}
			],
			"payable": false,
			"stateMutability": "nonpayable",
			"type": "function"
		},
		{
			"constant": true,
			"inputs": [
				{
					"name": "_settingId",
					"type": "uint256"
				}
			],
			"name": "getSettingDeprecation",
			"outputs": [
				{
					"name": "",
					"type": "uint256"
				},
				{
					"name": "",
					"type": "address"
				},
				{
					"name": "",
					"type": "address"
				},
				{
					"name": "",
					"type": "address"
				},
				{
					"name": "",
					"type": "bool"
				},
				{
					"name": "",
					"type": "bool"
				},
				{
					"name": "",
					"type": "bool"
				},
				{
					"name": "",
					"type": "bool"
				},
				{
					"name": "",
					"type": "uint256"
				},
				{
					"name": "",
					"type": "uint256"
				},
				{
					"name": "",
					"type": "address"
				},
				{
					"name": "",
					"type": "address"
				}
			],
			"payable": false,
			"stateMutability": "view",
			"type": "function"
		},
		{
			"constant": true,
			"inputs": [
				{
					"name": "_associatedTAOSettingDeprecationId",
					"type": "bytes32"
				}
			],
			"name": "getAssociatedTAOSettingDeprecation",
			"outputs": [
				{
					"name": "",
					"type": "bytes32"
				},
				{
					"name": "",
					"type": "address"
				},
				{
					"name": "",
					"type": "uint256"
				}
			],
			"payable": false,
			"stateMutability": "view",
			"type": "function"
		},
		{
			"constant": true,
			"inputs": [
				{
					"name": "_creatorTAOSettingDeprecationId",
					"type": "bytes32"
				}
			],
			"name": "getCreatorTAOSettingDeprecation",
			"outputs": [
				{
					"name": "",
					"type": "bytes32"
				},
				{
					"name": "",
					"type": "address"
				},
				{
					"name": "",
					"type": "uint256"
				}
			],
			"payable": false,
			"stateMutability": "view",
			"type": "function"
		},
		{
			"constant": false,
			"inputs": [
				{
					"name": "_settingId",
					"type": "uint256"
				},
				{
					"name": "_associatedTAOAdvocate",
					"type": "address"
				},
				{
					"name": "_approved",
					"type": "bool"
				}
			],
			"name": "approveDeprecation",
			"outputs": [
				{
					"name": "",
					"type": "bool"
				}
			],
			"payable": false,
			"stateMutability": "nonpayable",
			"type": "function"
		},
		{
			"constant": false,
			"inputs": [
				{
					"name": "_settingId",
					"type": "uint256"
				},
				{
					"name": "_creatorTAOAdvocate",
					"type": "address"
				}
			],
			"name": "finalizeDeprecation",
			"outputs": [
				{
					"name": "",
					"type": "bool"
				}
			],
			"payable": false,
			"stateMutability": "nonpayable",
			"type": "function"
		},
		{
			"constant": true,
			"inputs": [
				{
					"name": "_settingId",
					"type": "uint256"
				}
			],
			"name": "settingExist",
			"outputs": [
				{
					"name": "",
					"type": "bool"
				}
			],
			"payable": false,
			"stateMutability": "view",
			"type": "function"
		},
		{
			"constant": true,
			"inputs": [
				{
					"name": "_settingId",
					"type": "uint256"
				}
			],
			"name": "getLatestSettingId",
			"outputs": [
				{
					"name": "",
					"type": "uint256"
				}
			],
			"payable": false,
			"stateMutability": "view",
			"type": "function"
		}
	],
	"bytecode": "0x60806040523480156200001157600080fd5b5060405160208062002e93833981016040525160008054600160a060020a031916331790556200004a8164010000000062000051810204565b5062000156565b600054600154604080517ff66afcac000000000000000000000000000000000000000000000000000000008152336004820152600160a060020a0393841660248201529290911660448301525173__AOLibrary_____________________________9163f66afcac916064808301926020929190829003018186803b158015620000da57600080fd5b505af4158015620000ef573d6000803e3d6000fd5b505050506040513d60208110156200010657600080fd5b505115156200011457600080fd5b600160a060020a03811615156200012a57600080fd5b60018054600160a060020a03909216600160a060020a0319928316811790915560038054909216179055565b612d2d80620001666000396000f3006080604052600436106101245763ffffffff60e060020a6000350416632a82fdbd811461012957806346082aaf14610166578063479564d51461018f5780634a176017146101cd5780634c5598cd146101f15780634ef033f01461025557806353d6fd591461028657806353db5fdb146102ae57806356b8c164146102c65780635cfaf2ef146102de5780635f39fd73146102ff5780637b0862e11461032857806380c965271461035257806381f3e8971461036a57806383fee16d146104d3578063982a2376146104f75780639b19251a1461050f578063a9b6b38e14610530578063ad58a7d214610545578063c555ca1e14610632578063d79964c31461066b578063eb10b4bd146106a5578063ed3ad43e1461072b578063f2fde38b1461074f575b600080fd5b34801561013557600080fd5b50610152600435600160a060020a03602435166044351515610770565b604080519115158252519081900360200190f35b34801561017257600080fd5b50610152600435600160a060020a036024351660443515156108dc565b34801561019b57600080fd5b506101a7600435610aa0565b60408051938452600160a060020a03909216602084015282820152519081900360600190f35b3480156101d957600080fd5b50610152600435600160a060020a0360243516610af5565b3480156101fd57600080fd5b5061023c6004803590600160a060020a03602480358216926044358083019390820135926064358216926084359092169160a435918201910135610c3e565b6040805192835260208301919091528051918290030190f35b34801561026157600080fd5b5061026a610d01565b60408051600160a060020a039092168252519081900360200190f35b34801561029257600080fd5b506102ac600160a060020a03600435166024351515610d10565b005b3480156102ba57600080fd5b506101a7600435610e0f565b3480156102d257600080fd5b506101a7600435610e64565b3480156102ea57600080fd5b506102ac600160a060020a0360043516610eb9565b34801561030b57600080fd5b50610152600435600160a060020a03602435166044351515610fb9565b34801561033457600080fd5b50610340600435611163565b60408051918252519081900360200190f35b34801561035e57600080fd5b506101a760043561129e565b34801561037657600080fd5b506103826004356112f3565b604051808a815260200189600160a060020a0316600160a060020a0316815260200188600160a060020a0316600160a060020a0316815260200187600160a060020a0316600160a060020a031681526020018060200186151515158152602001851515151581526020018415151515815260200180602001838103835288818151815260200191508051906020019080838360005b8381101561042f578181015183820152602001610417565b50505050905090810190601f16801561045c5780820380516001836020036101000a031916815260200191505b50838103825284518152845160209182019186019080838360005b8381101561048f578181015183820152602001610477565b50505050905090810190601f1680156104bc5780820380516001836020036101000a031916815260200191505b509b50505050505050505050505060405180910390f35b3480156104df57600080fd5b50610152600435600160a060020a036024351661150d565b34801561050357600080fd5b50610152600435611702565b34801561051b57600080fd5b50610152600160a060020a03600435166118d7565b34801561053c57600080fd5b5061026a6118ec565b34801561055157600080fd5b5061055d6004356118fb565b604051808781526020018615151515815260200185600160a060020a0316600160a060020a0316815260200184600160a060020a0316600160a060020a0316815260200183600160a060020a0316600160a060020a0316815260200180602001828103825283818151815260200191508051906020019080838360005b838110156105f25781810151838201526020016105da565b50505050905090810190601f16801561061f5780820380516001836020036101000a031916815260200191505b5097505050505050505060405180910390f35b34801561063e57600080fd5b506101526004803590600160a060020a036024803582169260443590921691606435918201910135611a2f565b34801561067757600080fd5b5061023c600435600160a060020a036024358116906044358116906064358116906084359060a43516611e83565b3480156106b157600080fd5b506106bd600435612134565b604080519c8d52600160a060020a039b8c1660208e0152998b168c8b0152978a1660608c015295151560808b015293151560a08a015291151560c0890152151560e0880152610100870152610120860152831661014085015290911661016083015251908190036101800190f35b34801561073757600080fd5b50610152600435600160a060020a036024351661234d565b34801561075b57600080fd5b506102ac600160a060020a036004351661254b565b33600090815260026020526040812054819060ff16151560011461079357600080fd5b5060008481526004602052604090208054851480156107bb5750600581015460ff1615156001145b80156107d65750600581015460ff6101009091041615156001145b80156107ed5750600581015462010000900460ff16155b80156108015750600160a060020a03841615155b801561089a575060038054908201546040805160e060020a63fd6f4137028152600160a060020a0392831660048201529051919092169163fd6f41379160248083019260209291908290030181600087803b15801561085f57600080fd5b505af1158015610873573d6000803e3d6000fd5b505050506040513d602081101561088957600080fd5b5051600160a060020a038581169116145b15156108a557600080fd5b82156108bd5760058101805461ff00191690556108d1565b60058101805462ff00ff1916620100001790555b506001949350505050565b33600090815260026020526040812054819060ff1615156001146108ff57600080fd5b50600084815260066020526040902080548514801561092a5750600381015460b860020a900460ff16155b80156109575750600381015474010000000000000000000000000000000000000000900460ff1615156001145b80156109735750600381015460a860020a900460ff1615156001145b801561098b5750600381015460b060020a900460ff16155b801561099f5750600160a060020a03841615155b8015610a38575060038054908201546040805160e060020a63fd6f4137028152600160a060020a0392831660048201529051919092169163fd6f41379160248083019260209291908290030181600087803b1580156109fd57600080fd5b505af1158015610a11573d6000803e3d6000fd5b505050506040513d6020811015610a2757600080fd5b5051600160a060020a038581169116145b1515610a4357600080fd5b8215610a6f5760038101805475ff000000000000000000000000000000000000000000191690556108d1565b600301805476ff00ff0000000000000000000000000000000000000000191660b060020a1790555060019392505050565b6000806000610aad612aef565b50505060009182525060096020908152604091829020825160608101845281548082526001830154600160a060020a0316938201849052600290920154930183905292909190565b33600090815260026020526040812054819060ff161515600114610b1857600080fd5b506000838152600460205260409020805484148015610b405750600581015460ff1615156001145b8015610b5657506005810154610100900460ff16155b8015610b6d5750600581015462010000900460ff16155b8015610b815750600160a060020a03831615155b8015610c1a575060035460028201546040805160e060020a63fd6f4137028152600160a060020a0392831660048201529051919092169163fd6f41379160248083019260209291908290030181600087803b158015610bdf57600080fd5b505af1158015610bf3573d6000803e3d6000fd5b505050506040513d6020811015610c0957600080fd5b5051600160a060020a038481169116145b1515610c2557600080fd5b600501805461ffff191661010017905550600192915050565b33600090815260026020526040812054819060ff161515600114610c6157600080fd5b610cd18a8a8a8a8080601f016020809104026020016040519081016040528093929190818152602001838380828437820191505050505050898989898080601f01602080910402602001604051908101604052809392919081815260200183838082843750612641945050505050565b1515610cdc57600080fd5b610ce6858b6126ff565b610cf0878c612814565b915091509850989650505050505050565b600154600160a060020a031681565b600054600154604080517ff66afcac000000000000000000000000000000000000000000000000000000008152336004820152600160a060020a0393841660248201529290911660448301525173__AOLibrary_____________________________9163f66afcac916064808301926020929190829003018186803b158015610d9857600080fd5b505af4158015610dac573d6000803e3d6000fd5b505050506040513d6020811015610dc257600080fd5b50511515610dcf57600080fd5b600160a060020a0382161515610de457600080fd5b600160a060020a03919091166000908152600260205260409020805460ff1916911515919091179055565b6000806000610e1c612aef565b505050600091825250600a6020908152604091829020825160608101845281548082526001830154600160a060020a0316938201849052600290920154930183905292909190565b6000806000610e71612aef565b50505060009182525060086020908152604091829020825160608101845281548082526001830154600160a060020a0316938201849052600290920154930183905292909190565b600054600154604080517ff66afcac000000000000000000000000000000000000000000000000000000008152336004820152600160a060020a0393841660248201529290911660448301525173__AOLibrary_____________________________9163f66afcac916064808301926020929190829003018186803b158015610f4157600080fd5b505af4158015610f55573d6000803e3d6000fd5b505050506040513d6020811015610f6b57600080fd5b50511515610f7857600080fd5b600160a060020a0381161515610f8d57600080fd5b60018054600160a060020a03909216600160a060020a0319928316811790915560038054909216179055565b336000908152600260205260408120548190819060ff161515600114610fde57600080fd5b60008681526004602052604090208054909250861480156110045750600582015460ff16155b801561101f5750600582015460ff6101009091041615156001145b80156110365750600582015462010000900460ff16155b151561104157600080fd5b506000858152600560205260409020805486148015611068575060018082015460ff161515145b801561107c5750600160a060020a03851615155b8015611115575060035460028201546040805160e060020a63fd6f4137028152600160a060020a0392831660048201529051919092169163fd6f41379160248083019260209291908290030181600087803b1580156110da57600080fd5b505af11580156110ee573d6000803e3d6000fd5b505050506040513d602081101561110457600080fd5b5051600160a060020a038681169116145b151561112057600080fd5b83156111385760058201805461ff0019169055611157565b60018101805460ff19169055600281018054600160a060020a03191690555b50600195945050505050565b60008060008084925030600160a060020a031663eb10b4bd846040518263ffffffff1660e060020a0281526004018082815260200191505061018060405180830381600087803b1580156111b657600080fd5b505af11580156111ca573d6000803e3d6000fd5b505050506040513d6101808110156111e157600080fd5b5060e08101516101209091015190925090505b8180156112015750600081115b156112955780925030600160a060020a031663eb10b4bd846040518263ffffffff1660e060020a0281526004018082815260200191505061018060405180830381600087803b15801561125357600080fd5b505af1158015611267573d6000803e3d6000fd5b505050506040513d61018081101561127e57600080fd5b5060e08101516101209091015190925090506111f4565b50909392505050565b60008060006112ab612aef565b50505060009182525060076020908152604091829020825160608101845281548082526001830154600160a060020a0316938201849052600290920154930183905292909190565b60008060008060606000806000606061130a612b0f565b60008b81526004602081815260409283902083516101208101855281548152600180830154600160a060020a039081168386015260028085015482168489015260038501549091166060840152948301805487516101009382161593909302600019011695909504601f8101859004850282018501909652858152909491936080860193919290918301828280156113e35780601f106113b8576101008083540402835291602001916113e3565b820191906000526020600020905b8154815290600101906020018083116113c657829003601f168201915b5050509183525050600582015460ff80821615156020808501919091526101008084048316151560408087019190915262010000909404909216151560608501526006850180548451600260018316159095026000190190911693909304601f81018390048302840183019094528383526080909401939192908301828280156114ae5780601f10611483576101008083540402835291602001916114ae565b820191906000526020600020905b81548152906001019060200180831161149157829003601f168201915b5050505050815250509050806000015181602001518260400151836060015184608001518560a001518660c001518760e00151886101000151849450809050995099509950995099509950995099509950509193959799909294969850565b3360009081526002602052604081205481908190819060ff16151560011461153457600080fd5b600086815260046020526040902080549093508614801561155a5750600583015460ff16155b801561157057506005830154610100900460ff16155b80156115875750600583015462010000900460ff16155b801561159b5750600160a060020a03851615155b8015611634575060038054908401546040805160e060020a63fd6f4137028152600160a060020a0392831660048201529051919092169163fd6f41379160248083019260209291908290030181600087803b1580156115f957600080fd5b505af115801561160d573d6000803e3d6000fd5b505050506040513d602081101561162357600080fd5b5051600160a060020a038681169116145b151561163f57600080fd5b6000868152600560205260409020805490925086148015611668575060018083015460ff161515145b801561168057506002820154600160a060020a031615155b151561168b57600080fd5b5060058201805461ff00191661010090811790915560018281018054600160a060020a0380891690940274ffffffffffffffffffffffffffffffffffffffffff19909116179055600283018054600160a060020a031980821690925560038501805490921693169283179055935050505092915050565b600061170c612b0f565b60008381526004602081815260409283902083516101208101855281548152600180830154600160a060020a039081168386015260028085015482168489015260038501549091166060840152948301805487516101009382161593909302600019011695909504601f8101859004850282018501909652858152909491936080860193919290918301828280156117e55780601f106117ba576101008083540402835291602001916117e5565b820191906000526020600020905b8154815290600101906020018083116117c857829003601f168201915b5050509183525050600582015460ff80821615156020808501919091526101008084048316151560408087019190915262010000909404909216151560608501526006850180548451600260018316159095026000190190911693909304601f81018390048302840183019094528383526080909401939192908301828280156118b05780601f10611885576101008083540402835291602001916118b0565b820191906000526020600020905b81548152906001019060200180831161189357829003601f168201915b50505050508152505090508281600001511480156118d0575060e0810151155b9392505050565b60026020526000908152604090205460ff1681565b600054600160a060020a031681565b6000806000806000606061190d612b5d565b600088815260056020908152604091829020825160c0810184528154815260018083015460ff811615158386015261010090819004600160a060020a039081168488015260028086015482166060860152600386015490911660808501526004850180548851948116159093026000190190921604601f81018690048602830186019096528582529194929360a0860193919291908301828280156119f35780601f106119c8576101008083540402835291602001916119f3565b820191906000526020600020905b8154815290600101906020018083116119d657829003601f168201915b5050509190925250508151602083015160408401516060850151608086015160a090960151939e929d50909b5099509297509550909350505050565b6000611a39612b0f565b6000611a43612b94565b3360009081526002602052604090205460ff161515600114611a6457600080fd5b60008981526004602081815260409283902083516101208101855281548152600180830154600160a060020a039081168386015260028085015482168489015260038501549091166060840152948301805487516101009382161593909302600019011695909504601f810185900485028201850190965285815290949193608086019391929091830182828015611b3d5780601f10611b1257610100808354040283529160200191611b3d565b820191906000526020600020905b815481529060010190602001808311611b2057829003601f168201915b5050509183525050600582015460ff80821615156020808501919091526101008084048316151560408087019190915262010000909404909216151560608501526006850180548451600260018316159095026000190190911693909304601f8101839004830284018301909452838352608090940193919290830182828015611c085780601f10611bdd57610100808354040283529160200191611c08565b820191906000526020600020905b815481529060010190602001808311611beb57829003601f168201915b5050505050815250509250888360000151148015611c28575060a0830151155b8015611c3a575060c083015115156001145b8015611c48575060e0830151155b8015611c5c5750600160a060020a03881615155b8015611cf5575060035460608401516040805160e060020a63fd6f4137028152600160a060020a0392831660048201529051919092169163fd6f41379160248083019260209291908290030181600087803b158015611cba57600080fd5b505af1158015611cce573d6000803e3d6000fd5b505050506040513d6020811015611ce457600080fd5b5051600160a060020a038981169116145b1515611d0057600080fd5b6000898152600560205260409020600181015490925060ff1615611d2357600080fd5b5060008881526006602081815260409283902083516101808101855281548082526001830154600160a060020a039081169483019490945260028301548416958201959095526003820154808416606083015260ff74010000000000000000000000000000000000000000820481161515608084015260a860020a82048116151560a084015260b060020a82048116151560c084015260b860020a90910416151560e082015260048201546101008201526005820154610120820152928101548216610140840152600701541661016082015290891415611e0d5760e081015115611e0d57600080fd5b6001828101805460ff191690911774ffffffffffffffffffffffffffffffffffffffff001916610100600160a060020a038b81169190910291909117909155600283018054600160a060020a031916918916919091179055611e73600483018787612bf8565b5060019998505050505050505050565b336000908152600260205260408120548190819081908190819060ff161515600114611eae57600080fd5b611ebc8c8c8c8c8c8c612929565b1515611ec757600080fd5b30898d6040516020018084600160a060020a0316600160a060020a03166c0100000000000000000000000002815260140183600160a060020a0316600160a060020a03166c0100000000000000000000000002815260140182815260200193505050506040516020818303038152906040526040518082805190602001908083835b60208310611f685780518252601f199092019160209182019101611f49565b6001836020036101000a03801982511681845116808217855250505050505090500191505060405180910390209350600960008560001916600019168152602001908152602001600020925083836000018160001916905550888360010160006101000a815481600160a060020a030219169083600160a060020a031602179055508b8360020181905550308a8d6040516020018084600160a060020a0316600160a060020a03166c0100000000000000000000000002815260140183600160a060020a0316600160a060020a03166c0100000000000000000000000002815260140182815260200193505050506040516020818303038152906040526040518082805190602001908083835b602083106120945780518252601f199092019160209182019101612075565b6001836020036101000a03801982511681845116808217855250505050505090500191505060405180910390209150600a60008360001916600019168152602001908152602001600020905081816000018160001916905550898160010160006101000a815481600160a060020a030219169083600160a060020a031602179055508b816002018190555083829550955050505050965096945050505050565b60008060008060008060008060008060008061214e612b94565b600660008f81526020019081526020016000206101806040519081016040529081600082015481526020016001820160009054906101000a9004600160a060020a0316600160a060020a0316600160a060020a031681526020016002820160009054906101000a9004600160a060020a0316600160a060020a0316600160a060020a031681526020016003820160009054906101000a9004600160a060020a0316600160a060020a0316600160a060020a031681526020016003820160149054906101000a900460ff161515151581526020016003820160159054906101000a900460ff161515151581526020016003820160169054906101000a900460ff161515151581526020016003820160179054906101000a900460ff1615151515815260200160048201548152602001600582015481526020016006820160009054906101000a9004600160a060020a0316600160a060020a0316600160a060020a031681526020016007820160009054906101000a9004600160a060020a0316600160a060020a0316600160a060020a0316815250509050806000015181602001518260400151836060015184608001518560a001518660c001518760e001518861010001518961012001518a61014001518b61016001519c509c509c509c509c509c509c509c509c509c509c509c505091939597999b5091939597999b565b3360009081526002602052604081205481908190819060ff16151560011461237457600080fd5b60008681526006602052604090208054909350861480156123a15750600383015460b860020a900460ff16155b80156123ce5750600383015474010000000000000000000000000000000000000000900460ff1615156001145b80156123e65750600383015460a860020a900460ff16155b80156123fe5750600383015460b060020a900460ff16155b80156124125750600160a060020a03851615155b80156124ab575060035460028401546040805160e060020a63fd6f4137028152600160a060020a0392831660048201529051919092169163fd6f41379160248083019260209291908290030181600087803b15801561247057600080fd5b505af1158015612484573d6000803e3d6000fd5b505050506040513d602081101561249a57600080fd5b5051600160a060020a038681169116145b15156124b657600080fd5b505060038101805477ff00000000000000000000000000000000000000000000001975ffff00000000000000000000000000000000000000001990911660a860020a171660b860020a17905560048101805460009091556005820155600681018054600160a060020a031980821690925560079092018054909116600160a060020a0390921691909117905550600192915050565b600054600154604080517ff66afcac000000000000000000000000000000000000000000000000000000008152336004820152600160a060020a0393841660248201529290911660448301525173__AOLibrary_____________________________9163f66afcac916064808301926020929190829003018186803b1580156125d357600080fd5b505af41580156125e7573d6000803e3d6000fd5b505050506040513d60208110156125fd57600080fd5b5051151561260a57600080fd5b600160a060020a038116151561261f57600080fd5b60008054600160a060020a031916600160a060020a0392909216919091179055565b60008681526004602081815260408320898155600181018054600160a060020a03808c16600160a060020a0319928316179092556002830180548a8416908316179055600383018054928916929091169190911790558751909284926126ae9291850191908a0190612c76565b5060058201805461ff001960ff199091166001171661010017905583516126de9060068401906020870190612c76565b50505060008781526005602052604090209690965550600195945050505050565b60008060003085856040516020018084600160a060020a0316600160a060020a03166c0100000000000000000000000002815260140183600160a060020a0316600160a060020a03166c0100000000000000000000000002815260140182815260200193505050506040516020818303038152906040526040518082805190602001908083835b602083106127a55780518252601f199092019160209182019101612786565b51815160209384036101000a6000190180199092169116179052604080519290940182900390912060008181526007909252929020828155600181018054600160a060020a031916600160a060020a039b909b169a909a17909955506002909701959095555093949350505050565b60008060003085856040516020018084600160a060020a0316600160a060020a03166c0100000000000000000000000002815260140183600160a060020a0316600160a060020a03166c0100000000000000000000000002815260140182815260200193505050506040516020818303038152906040526040518082805190602001908083835b602083106128ba5780518252601f19909201916020918201910161289b565b51815160209384036101000a6000190180199092169116179052604080519290940182900390912060008181526008909252929020828155600181018054600160a060020a031916600160a060020a039b909b169a909a17909955506002909701959095555093949350505050565b6000868152600460205260408120600101548190600160a060020a03161580159061296c575060008881526004602052604090206005015462010000900460ff16155b801561298a575060008881526004602052604090206005015460ff16155b151561299557600080fd5b600088815260066020526040902060010154600160a060020a0316156129ba57600080fd5b600084815260046020526040902060010154600160a060020a0316158015906129fb575060008481526004602052604090206005015462010000900460ff16155b8015612a19575060008481526004602052604090206005015460ff16155b1515612a2457600080fd5b5050600086815260066020819052604090912096875560018088018054600160a060020a0319908116600160a060020a03998a161790915560028901805482169789169790971790965560038801805460a860020a74010000000000000000000000000000000000000000918916978a169790971774ff000000000000000000000000000000000000000019161775ff000000000000000000000000000000000000000000191695909517909455600487019290925594018054909216939092169290921790915590565b604080516060810182526000808252602082018190529181019190915290565b604080516101208101825260008082526020820181905291810182905260608082018390526080820181905260a0820183905260c0820183905260e082019290925261010081019190915290565b6040805160c0810182526000808252602082018190529181018290526060808201839052608082019290925260a081019190915290565b6040805161018081018252600080825260208201819052918101829052606081018290526080810182905260a0810182905260c0810182905260e0810182905261010081018290526101208101829052610140810182905261016081019190915290565b828054600181600116156101000203166002900490600052602060002090601f016020900481019282601f10612c395782800160ff19823516178555612c66565b82800160010185558215612c66579182015b82811115612c66578235825591602001919060010190612c4b565b50612c72929150612ce4565b5090565b828054600181600116156101000203166002900490600052602060002090601f016020900481019282601f10612cb757805160ff1916838001178555612c66565b82800160010185558215612c66579182015b82811115612c66578251825591602001919060010190612cc9565b612cfe91905b80821115612c725760008155600101612cea565b905600a165627a7a723058205fd08dde076d923217ce284b2c87f2a82711be925c55559ff776f0aaefcdeae60029",
	"source": "pragma solidity ^0.4.24;\n\nimport './AOLibrary.sol';\nimport \"./TheAO.sol\";\nimport './IAOSettingAttribute.sol';\nimport './INameTAOPosition.sol';\n\n/**\n * @title AOSettingAttribute\n *\n * This contract stores all AO setting data/state\n */\ncontract AOSettingAttribute is TheAO, IAOSettingAttribute {\n\tINameTAOPosition internal _nameTAOPosition;\n\n\tstruct SettingData {\n\t\tuint256 settingId;\t\t\t\t// Identifier of this setting\n\t\taddress creatorNameId;\t\t\t// The nameId that created the setting\n\t\taddress creatorTAOId;\t\t// The taoId that created the setting\n\t\taddress associatedTAOId;\t// The taoId that the setting affects\n\t\tstring settingName;\t\t\t\t// The human-readable name of the setting\n\t\tbool pendingCreate;\t\t\t\t// State when associatedTAOId has not accepted setting\n\t\tbool locked;\t\t\t\t\t// State when pending anything (cannot change if locked)\n\t\tbool rejected;\t\t\t\t\t// State when associatedTAOId rejected this setting\n\t\tstring settingDataJSON;\t\t\t// Catch-all\n\t}\n\n\tstruct SettingState {\n\t\tuint256 settingId;\t\t\t\t// Identifier of this setting\n\t\tbool pendingUpdate;\t\t\t\t// State when setting is in process of being updated\n\t\taddress updateAdvocateNameId;\t// The nameId of the Advocate that performed the update\n\n\t\t/**\n\t\t * A child of the associatedTAOId with the update Logos.\n\t\t * This tells the setting contract that there is a proposal TAO that is a Child TAO\n\t\t * of the associated TAO, which will be responsible for deciding if the update to the\n\t\t * setting is accepted or rejected.\n\t\t */\n\t\taddress proposalTAOId;\n\n\t\t/**\n\t\t * The proposalTAOId moves here when setting value changes successfully\n\t\t */\n\t\taddress lastUpdateTAOId;\n\n\t\tstring settingStateJSON;\t\t// Catch-all\n\t}\n\n\tstruct SettingDeprecation {\n\t\tuint256 settingId;\t\t\t\t// Identifier of this setting\n\t\taddress creatorNameId;\t\t\t// The nameId that created this deprecation\n\t\taddress creatorTAOId;\t\t// The taoId that created this deprecation\n\t\taddress associatedTAOId;\t// The taoId that the setting affects\n\t\tbool pendingDeprecated;\t\t\t// State when associatedTAOId has not accepted setting\n\t\tbool locked;\t\t\t\t\t// State when pending anything (cannot change if locked)\n\t\tbool rejected;\t\t\t\t\t// State when associatedTAOId rejected this setting\n\t\tbool migrated;\t\t\t\t\t// State when this setting is fully migrated\n\n\t\t// holds the pending new settingId value when a deprecation is set\n\t\tuint256 pendingNewSettingId;\n\n\t\t// holds the new settingId that has been approved by associatedTAOId\n\t\tuint256 newSettingId;\n\n\t\t// holds the pending new contract address for this setting\n\t\taddress pendingNewSettingContractAddress;\n\n\t\t// holds the new contract address for this setting\n\t\taddress newSettingContractAddress;\n\t}\n\n\tstruct AssociatedTAOSetting {\n\t\tbytes32 associatedTAOSettingId;\t\t// Identifier\n\t\taddress associatedTAOId;\t\t\t// The TAO ID that the setting is associated to\n\t\tuint256 settingId;\t\t\t\t\t\t// The Setting ID that is associated with the TAO ID\n\t}\n\n\tstruct CreatorTAOSetting {\n\t\tbytes32 creatorTAOSettingId;\t\t// Identifier\n\t\taddress creatorTAOId;\t\t\t\t// The TAO ID that the setting was created from\n\t\tuint256 settingId;\t\t\t\t\t\t// The Setting ID created from the TAO ID\n\t}\n\n\tstruct AssociatedTAOSettingDeprecation {\n\t\tbytes32 associatedTAOSettingDeprecationId;\t\t// Identifier\n\t\taddress associatedTAOId;\t\t\t\t\t\t// The TAO ID that the setting is associated to\n\t\tuint256 settingId;\t\t\t\t\t\t\t\t\t// The Setting ID that is associated with the TAO ID\n\t}\n\n\tstruct CreatorTAOSettingDeprecation {\n\t\tbytes32 creatorTAOSettingDeprecationId;\t\t\t// Identifier\n\t\taddress creatorTAOId;\t\t\t\t\t\t\t// The TAO ID that the setting was created from\n\t\tuint256 settingId;\t\t\t\t\t\t\t\t\t// The Setting ID created from the TAO ID\n\t}\n\n\t// Mapping from settingId to it's data\n\tmapping (uint256 => SettingData) internal settingDatas;\n\n\t// Mapping from settingId to it's state\n\tmapping (uint256 => SettingState) internal settingStates;\n\n\t// Mapping from settingId to it's deprecation info\n\tmapping (uint256 => SettingDeprecation) internal settingDeprecations;\n\n\t// Mapping from associatedTAOSettingId to AssociatedTAOSetting\n\tmapping (bytes32 => AssociatedTAOSetting) internal associatedTAOSettings;\n\n\t// Mapping from creatorTAOSettingId to CreatorTAOSetting\n\tmapping (bytes32 => CreatorTAOSetting) internal creatorTAOSettings;\n\n\t// Mapping from associatedTAOSettingDeprecationId to AssociatedTAOSettingDeprecation\n\tmapping (bytes32 => AssociatedTAOSettingDeprecation) internal associatedTAOSettingDeprecations;\n\n\t// Mapping from creatorTAOSettingDeprecationId to CreatorTAOSettingDeprecation\n\tmapping (bytes32 => CreatorTAOSettingDeprecation) internal creatorTAOSettingDeprecations;\n\n\t/**\n\t * @dev Constructor function\n\t */\n\tconstructor(address _nameTAOPositionAddress) public {\n\t\tsetNameTAOPositionAddress(_nameTAOPositionAddress);\n\t}\n\n\t/**\n\t * @dev Checks if the calling contract address is The AO\n\t *\t\tOR\n\t *\t\tIf The AO is set to a Name/TAO, then check if calling address is the Advocate\n\t */\n\tmodifier onlyTheAO {\n\t\trequire (AOLibrary.isTheAO(msg.sender, theAO, nameTAOPositionAddress));\n\t\t_;\n\t}\n\n\t/***** The AO ONLY METHODS *****/\n\t/**\n\t * @dev Transfer ownership of The AO to new address\n\t * @param _theAO The new address to be transferred\n\t */\n\tfunction transferOwnership(address _theAO) public onlyTheAO {\n\t\trequire (_theAO != address(0));\n\t\ttheAO = _theAO;\n\t}\n\n\t/**\n\t * @dev Whitelist `_account` address to transact on behalf of others\n\t * @param _account The address to whitelist\n\t * @param _whitelist Either to whitelist or not\n\t */\n\tfunction setWhitelist(address _account, bool _whitelist) public onlyTheAO {\n\t\trequire (_account != address(0));\n\t\twhitelist[_account] = _whitelist;\n\t}\n\n\t/**\n\t * @dev The AO sets NameTAOPosition address\n\t * @param _nameTAOPositionAddress The address of NameTAOPosition\n\t */\n\tfunction setNameTAOPositionAddress(address _nameTAOPositionAddress) public onlyTheAO {\n\t\trequire (_nameTAOPositionAddress != address(0));\n\t\tnameTAOPositionAddress = _nameTAOPositionAddress;\n\t\t_nameTAOPosition = INameTAOPosition(_nameTAOPositionAddress);\n\t}\n\n\t/***** PUBLIC METHODS *****/\n\t/**\n\t * @dev Add setting data/state\n\t * @param _settingId The ID of the setting\n\t * @param _creatorNameId The nameId that created the setting\n\t * @param _settingName The human-readable name of the setting\n\t * @param _creatorTAOId The taoId that created the setting\n\t * @param _associatedTAOId The taoId that the setting affects\n\t * @param _extraData Catch-all string value to be stored if exist\n\t * @return The ID of the \"Associated\" setting\n\t * @return The ID of the \"Creator\" setting\n\t */\n\tfunction add(uint256 _settingId, address _creatorNameId, string _settingName, address _creatorTAOId, address _associatedTAOId, string _extraData) external inWhitelist returns (bytes32, bytes32) {\n\t\t// Store setting data/state\n\t\trequire (_storeSettingDataState(_settingId, _creatorNameId, _settingName, _creatorTAOId, _associatedTAOId, _extraData));\n\n\t\t// Store the associatedTAOSetting/creatorTAOSetting info\n\t\treturn (\n\t\t\t_storeAssociatedTAOSetting(_associatedTAOId, _settingId),\n\t\t\t_storeCreatorTAOSetting(_creatorTAOId, _settingId)\n\t\t);\n\t}\n\n\t/**\n\t * @dev Get Setting Data of a setting ID\n\t * @param _settingId The ID of the setting\n\t */\n\tfunction getSettingData(uint256 _settingId) external view returns (uint256, address, address, address, string, bool, bool, bool, string) {\n\t\tSettingData memory _settingData = settingDatas[_settingId];\n\t\treturn (\n\t\t\t_settingData.settingId,\n\t\t\t_settingData.creatorNameId,\n\t\t\t_settingData.creatorTAOId,\n\t\t\t_settingData.associatedTAOId,\n\t\t\t_settingData.settingName,\n\t\t\t_settingData.pendingCreate,\n\t\t\t_settingData.locked,\n\t\t\t_settingData.rejected,\n\t\t\t_settingData.settingDataJSON\n\t\t);\n\t}\n\n\t/**\n\t * @dev Get Associated TAO Setting info\n\t * @param _associatedTAOSettingId The ID of the associated tao setting\n\t */\n\tfunction getAssociatedTAOSetting(bytes32 _associatedTAOSettingId) public view returns (bytes32, address, uint256) {\n\t\tAssociatedTAOSetting memory _associatedTAOSetting = associatedTAOSettings[_associatedTAOSettingId];\n\t\treturn (\n\t\t\t_associatedTAOSetting.associatedTAOSettingId,\n\t\t\t_associatedTAOSetting.associatedTAOId,\n\t\t\t_associatedTAOSetting.settingId\n\t\t);\n\t}\n\n\t/**\n\t * @dev Get Creator TAO Setting info\n\t * @param _creatorTAOSettingId The ID of the creator tao setting\n\t */\n\tfunction getCreatorTAOSetting(bytes32 _creatorTAOSettingId) public view returns (bytes32, address, uint256) {\n\t\tCreatorTAOSetting memory _creatorTAOSetting = creatorTAOSettings[_creatorTAOSettingId];\n\t\treturn (\n\t\t\t_creatorTAOSetting.creatorTAOSettingId,\n\t\t\t_creatorTAOSetting.creatorTAOId,\n\t\t\t_creatorTAOSetting.settingId\n\t\t);\n\t}\n\n\t/**\n\t * @dev Advocate of Setting's _associatedTAOId approves setting creation\n\t * @param _settingId The ID of the setting to approve\n\t * @param _associatedTAOAdvocate The advocate of the associated TAO\n\t * @param _approved Whether to approve or reject\n\t * @return true on success\n\t */\n\tfunction approveAdd(uint256 _settingId, address _associatedTAOAdvocate, bool _approved) external inWhitelist returns (bool) {\n\t\t// Make sure setting exists and needs approval\n\t\tSettingData storage _settingData = settingDatas[_settingId];\n\t\trequire (_settingData.settingId == _settingId &&\n\t\t\t_settingData.pendingCreate == true &&\n\t\t\t_settingData.locked == true &&\n\t\t\t_settingData.rejected == false &&\n\t\t\t_associatedTAOAdvocate != address(0) &&\n\t\t\t_associatedTAOAdvocate == _nameTAOPosition.getAdvocate(_settingData.associatedTAOId)\n\t\t);\n\n\t\tif (_approved) {\n\t\t\t// Unlock the setting so that advocate of creatorTAOId can finalize the creation\n\t\t\t_settingData.locked = false;\n\t\t} else {\n\t\t\t// Reject the setting\n\t\t\t_settingData.pendingCreate = false;\n\t\t\t_settingData.rejected = true;\n\t\t}\n\n\t\treturn true;\n\t}\n\n\t/**\n\t * @dev Advocate of Setting's _creatorTAOId finalizes the setting creation once the setting is approved\n\t * @param _settingId The ID of the setting to be finalized\n\t * @param _creatorTAOAdvocate The advocate of the creator TAO\n\t * @return true on success\n\t */\n\tfunction finalizeAdd(uint256 _settingId, address _creatorTAOAdvocate) external inWhitelist returns (bool) {\n\t\t// Make sure setting exists and needs approval\n\t\tSettingData storage _settingData = settingDatas[_settingId];\n\t\trequire (_settingData.settingId == _settingId &&\n\t\t\t_settingData.pendingCreate == true &&\n\t\t\t_settingData.locked == false &&\n\t\t\t_settingData.rejected == false &&\n\t\t\t_creatorTAOAdvocate != address(0) &&\n\t\t\t_creatorTAOAdvocate == _nameTAOPosition.getAdvocate(_settingData.creatorTAOId)\n\t\t);\n\n\t\t// Update the setting data\n\t\t_settingData.pendingCreate = false;\n\t\t_settingData.locked = true;\n\n\t\treturn true;\n\t}\n\n\t/**\n\t * @dev Store setting update data\n\t * @param _settingId The ID of the setting to be updated\n\t * @param _associatedTAOAdvocate The setting's associatedTAOId's advocate's name address\n\t * @param _proposalTAOId The child of the associatedTAOId with the update Logos\n\t * @param _extraData Catch-all string value to be stored if exist\n\t * @return true on success\n\t */\n\tfunction update(uint256 _settingId, address _associatedTAOAdvocate, address _proposalTAOId, string _extraData) external inWhitelist returns (bool) {\n\t\t// Make sure setting is created\n\t\tSettingData memory _settingData = settingDatas[_settingId];\n\t\trequire (_settingData.settingId == _settingId &&\n\t\t\t_settingData.pendingCreate == false &&\n\t\t\t_settingData.locked == true &&\n\t\t\t_settingData.rejected == false &&\n\t\t\t_associatedTAOAdvocate != address(0) &&\n\t\t\t_associatedTAOAdvocate == _nameTAOPosition.getAdvocate(_settingData.associatedTAOId)\n\t\t);\n\n\t\t// Make sure setting is not in the middle of updating\n\t\tSettingState storage _settingState = settingStates[_settingId];\n\t\trequire (_settingState.pendingUpdate == false);\n\n\t\t// Make sure setting is not yet deprecated\n\t\tSettingDeprecation memory _settingDeprecation = settingDeprecations[_settingId];\n\t\tif (_settingDeprecation.settingId == _settingId) {\n\t\t\trequire (_settingDeprecation.migrated == false);\n\t\t}\n\n\t\t// Store the SettingState data\n\t\t_settingState.pendingUpdate = true;\n\t\t_settingState.updateAdvocateNameId = _associatedTAOAdvocate;\n\t\t_settingState.proposalTAOId = _proposalTAOId;\n\t\t_settingState.settingStateJSON = _extraData;\n\n\t\treturn true;\n\t}\n\n\t/**\n\t * @dev Get setting state\n\t * @param _settingId The ID of the setting\n\t */\n\tfunction getSettingState(uint256 _settingId) external view returns (uint256, bool, address, address, address, string) {\n\t\tSettingState memory _settingState = settingStates[_settingId];\n\t\treturn (\n\t\t\t_settingState.settingId,\n\t\t\t_settingState.pendingUpdate,\n\t\t\t_settingState.updateAdvocateNameId,\n\t\t\t_settingState.proposalTAOId,\n\t\t\t_settingState.lastUpdateTAOId,\n\t\t\t_settingState.settingStateJSON\n\t\t);\n\t}\n\n\t/**\n\t * @dev Advocate of Setting's proposalTAOId approves the setting update\n\t * @param _settingId The ID of the setting to be approved\n\t * @param _proposalTAOAdvocate The advocate of the proposal TAO\n\t * @param _approved Whether to approve or reject\n\t * @return true on success\n\t */\n\tfunction approveUpdate(uint256 _settingId, address _proposalTAOAdvocate, bool _approved) external inWhitelist returns (bool) {\n\t\t// Make sure setting is created\n\t\tSettingData storage _settingData = settingDatas[_settingId];\n\t\trequire (_settingData.settingId == _settingId && _settingData.pendingCreate == false && _settingData.locked == true && _settingData.rejected == false);\n\n\t\t// Make sure setting update exists and needs approval\n\t\tSettingState storage _settingState = settingStates[_settingId];\n\t\trequire (_settingState.settingId == _settingId &&\n\t\t\t_settingState.pendingUpdate == true &&\n\t\t\t_proposalTAOAdvocate != address(0) &&\n\t\t\t_proposalTAOAdvocate == _nameTAOPosition.getAdvocate(_settingState.proposalTAOId)\n\t\t);\n\n\t\tif (_approved) {\n\t\t\t// Unlock the setting so that advocate of associatedTAOId can finalize the update\n\t\t\t_settingData.locked = false;\n\t\t} else {\n\t\t\t// Set pendingUpdate to false\n\t\t\t_settingState.pendingUpdate = false;\n\t\t\t_settingState.proposalTAOId = address(0);\n\t\t}\n\t\treturn true;\n\t}\n\n\t/**\n\t * @dev Advocate of Setting's _associatedTAOId finalizes the setting update once the setting is approved\n\t * @param _settingId The ID of the setting to be finalized\n\t * @param _associatedTAOAdvocate The advocate of the associated TAO\n\t * @return true on success\n\t */\n\tfunction finalizeUpdate(uint256 _settingId, address _associatedTAOAdvocate) external inWhitelist returns (bool) {\n\t\t// Make sure setting is created\n\t\tSettingData storage _settingData = settingDatas[_settingId];\n\t\trequire (_settingData.settingId == _settingId &&\n\t\t\t_settingData.pendingCreate == false &&\n\t\t\t_settingData.locked == false &&\n\t\t\t_settingData.rejected == false &&\n\t\t\t_associatedTAOAdvocate != address(0) &&\n\t\t\t_associatedTAOAdvocate == _nameTAOPosition.getAdvocate(_settingData.associatedTAOId)\n\t\t);\n\n\t\t// Make sure setting update exists and needs approval\n\t\tSettingState storage _settingState = settingStates[_settingId];\n\t\trequire (_settingState.settingId == _settingId && _settingState.pendingUpdate == true && _settingState.proposalTAOId != address(0));\n\n\t\t// Update the setting data\n\t\t_settingData.locked = true;\n\n\t\t// Update the setting state\n\t\t_settingState.pendingUpdate = false;\n\t\t_settingState.updateAdvocateNameId = _associatedTAOAdvocate;\n\t\taddress _proposalTAOId = _settingState.proposalTAOId;\n\t\t_settingState.proposalTAOId = address(0);\n\t\t_settingState.lastUpdateTAOId = _proposalTAOId;\n\n\t\treturn true;\n\t}\n\n\t/**\n\t * @dev Add setting deprecation\n\t * @param _settingId The ID of the setting\n\t * @param _creatorNameId The nameId that created the setting\n\t * @param _creatorTAOId The taoId that created the setting\n\t * @param _associatedTAOId The taoId that the setting affects\n\t * @param _newSettingId The new settingId value to route\n\t * @param _newSettingContractAddress The address of the new setting contract to route\n\t * @return The ID of the \"Associated\" setting deprecation\n\t * @return The ID of the \"Creator\" setting deprecation\n\t */\n\tfunction addDeprecation(uint256 _settingId, address _creatorNameId, address _creatorTAOId, address _associatedTAOId, uint256 _newSettingId, address _newSettingContractAddress) external inWhitelist returns (bytes32, bytes32) {\n\t\trequire (_storeSettingDeprecation(_settingId, _creatorNameId, _creatorTAOId, _associatedTAOId, _newSettingId, _newSettingContractAddress));\n\n\t\t// Store the associatedTAOSettingDeprecation info\n\t\tbytes32 _associatedTAOSettingDeprecationId = keccak256(abi.encodePacked(this, _associatedTAOId, _settingId));\n\t\tAssociatedTAOSettingDeprecation storage _associatedTAOSettingDeprecation = associatedTAOSettingDeprecations[_associatedTAOSettingDeprecationId];\n\t\t_associatedTAOSettingDeprecation.associatedTAOSettingDeprecationId = _associatedTAOSettingDeprecationId;\n\t\t_associatedTAOSettingDeprecation.associatedTAOId = _associatedTAOId;\n\t\t_associatedTAOSettingDeprecation.settingId = _settingId;\n\n\t\t// Store the creatorTAOSettingDeprecation info\n\t\tbytes32 _creatorTAOSettingDeprecationId = keccak256(abi.encodePacked(this, _creatorTAOId, _settingId));\n\t\tCreatorTAOSettingDeprecation storage _creatorTAOSettingDeprecation = creatorTAOSettingDeprecations[_creatorTAOSettingDeprecationId];\n\t\t_creatorTAOSettingDeprecation.creatorTAOSettingDeprecationId = _creatorTAOSettingDeprecationId;\n\t\t_creatorTAOSettingDeprecation.creatorTAOId = _creatorTAOId;\n\t\t_creatorTAOSettingDeprecation.settingId = _settingId;\n\n\t\treturn (_associatedTAOSettingDeprecationId, _creatorTAOSettingDeprecationId);\n\t}\n\n\t/**\n\t * @dev Get Setting Deprecation info of a setting ID\n\t * @param _settingId The ID of the setting\n\t */\n\tfunction getSettingDeprecation(uint256 _settingId) external view returns (uint256, address, address, address, bool, bool, bool, bool, uint256, uint256, address, address) {\n\t\tSettingDeprecation memory _settingDeprecation = settingDeprecations[_settingId];\n\t\treturn (\n\t\t\t_settingDeprecation.settingId,\n\t\t\t_settingDeprecation.creatorNameId,\n\t\t\t_settingDeprecation.creatorTAOId,\n\t\t\t_settingDeprecation.associatedTAOId,\n\t\t\t_settingDeprecation.pendingDeprecated,\n\t\t\t_settingDeprecation.locked,\n\t\t\t_settingDeprecation.rejected,\n\t\t\t_settingDeprecation.migrated,\n\t\t\t_settingDeprecation.pendingNewSettingId,\n\t\t\t_settingDeprecation.newSettingId,\n\t\t\t_settingDeprecation.pendingNewSettingContractAddress,\n\t\t\t_settingDeprecation.newSettingContractAddress\n\t\t);\n\t}\n\n\t/**\n\t * @dev Get Associated TAO Setting Deprecation info\n\t * @param _associatedTAOSettingDeprecationId The ID of the associated tao setting deprecation\n\t */\n\tfunction getAssociatedTAOSettingDeprecation(bytes32 _associatedTAOSettingDeprecationId) external view returns (bytes32, address, uint256) {\n\t\tAssociatedTAOSettingDeprecation memory _associatedTAOSettingDeprecation = associatedTAOSettingDeprecations[_associatedTAOSettingDeprecationId];\n\t\treturn (\n\t\t\t_associatedTAOSettingDeprecation.associatedTAOSettingDeprecationId,\n\t\t\t_associatedTAOSettingDeprecation.associatedTAOId,\n\t\t\t_associatedTAOSettingDeprecation.settingId\n\t\t);\n\t}\n\n\t/**\n\t * @dev Get Creator TAO Setting Deprecation info\n\t * @param _creatorTAOSettingDeprecationId The ID of the creator tao setting deprecation\n\t */\n\tfunction getCreatorTAOSettingDeprecation(bytes32 _creatorTAOSettingDeprecationId) public view returns (bytes32, address, uint256) {\n\t\tCreatorTAOSettingDeprecation memory _creatorTAOSettingDeprecation = creatorTAOSettingDeprecations[_creatorTAOSettingDeprecationId];\n\t\treturn (\n\t\t\t_creatorTAOSettingDeprecation.creatorTAOSettingDeprecationId,\n\t\t\t_creatorTAOSettingDeprecation.creatorTAOId,\n\t\t\t_creatorTAOSettingDeprecation.settingId\n\t\t);\n\t}\n\n\t/**\n\t * @dev Advocate of SettingDeprecation's _associatedTAOId approves deprecation\n\t * @param _settingId The ID of the setting to approve\n\t * @param _associatedTAOAdvocate The advocate of the associated TAO\n\t * @param _approved Whether to approve or reject\n\t * @return true on success\n\t */\n\tfunction approveDeprecation(uint256 _settingId, address _associatedTAOAdvocate, bool _approved) external inWhitelist returns (bool) {\n\t\t// Make sure setting exists and needs approval\n\t\tSettingDeprecation storage _settingDeprecation = settingDeprecations[_settingId];\n\t\trequire (_settingDeprecation.settingId == _settingId &&\n\t\t\t_settingDeprecation.migrated == false &&\n\t\t\t_settingDeprecation.pendingDeprecated == true &&\n\t\t\t_settingDeprecation.locked == true &&\n\t\t\t_settingDeprecation.rejected == false &&\n\t\t\t_associatedTAOAdvocate != address(0) &&\n\t\t\t_associatedTAOAdvocate == _nameTAOPosition.getAdvocate(_settingDeprecation.associatedTAOId)\n\t\t);\n\n\t\tif (_approved) {\n\t\t\t// Unlock the setting so that advocate of creatorTAOId can finalize the creation\n\t\t\t_settingDeprecation.locked = false;\n\t\t} else {\n\t\t\t// Reject the setting\n\t\t\t_settingDeprecation.pendingDeprecated = false;\n\t\t\t_settingDeprecation.rejected = true;\n\t\t}\n\t\treturn true;\n\t}\n\n\t/**\n\t * @dev Advocate of SettingDeprecation's _creatorTAOId finalizes the deprecation once the setting deprecation is approved\n\t * @param _settingId The ID of the setting to be finalized\n\t * @param _creatorTAOAdvocate The advocate of the creator TAO\n\t * @return true on success\n\t */\n\tfunction finalizeDeprecation(uint256 _settingId, address _creatorTAOAdvocate) external inWhitelist returns (bool) {\n\t\t// Make sure setting exists and needs approval\n\t\tSettingDeprecation storage _settingDeprecation = settingDeprecations[_settingId];\n\t\trequire (_settingDeprecation.settingId == _settingId &&\n\t\t\t_settingDeprecation.migrated == false &&\n\t\t\t_settingDeprecation.pendingDeprecated == true &&\n\t\t\t_settingDeprecation.locked == false &&\n\t\t\t_settingDeprecation.rejected == false &&\n\t\t\t_creatorTAOAdvocate != address(0) &&\n\t\t\t_creatorTAOAdvocate == _nameTAOPosition.getAdvocate(_settingDeprecation.creatorTAOId)\n\t\t);\n\n\t\t// Update the setting data\n\t\t_settingDeprecation.pendingDeprecated = false;\n\t\t_settingDeprecation.locked = true;\n\t\t_settingDeprecation.migrated = true;\n\t\tuint256 _newSettingId = _settingDeprecation.pendingNewSettingId;\n\t\t_settingDeprecation.pendingNewSettingId = 0;\n\t\t_settingDeprecation.newSettingId = _newSettingId;\n\n\t\taddress _newSettingContractAddress = _settingDeprecation.pendingNewSettingContractAddress;\n\t\t_settingDeprecation.pendingNewSettingContractAddress = address(0);\n\t\t_settingDeprecation.newSettingContractAddress = _newSettingContractAddress;\n\t\treturn true;\n\t}\n\n\t/**\n\t * @dev Check if a setting exist and not rejected\n\t * @param _settingId The ID of the setting\n\t * @return true if exist. false otherwise\n\t */\n\tfunction settingExist(uint256 _settingId) external view returns (bool) {\n\t\tSettingData memory _settingData = settingDatas[_settingId];\n\t\treturn (_settingData.settingId == _settingId && _settingData.rejected == false);\n\t}\n\n\t/**\n\t * @dev Get the latest ID of a deprecated setting, if exist\n\t * @param _settingId The ID of the setting\n\t * @return The latest setting ID\n\t */\n\tfunction getLatestSettingId(uint256 _settingId) external view returns (uint256) {\n\t\tuint256 _latestSettingId = _settingId;\n\t\t(,,,,,,, bool _migrated,, uint256 _newSettingId,,) = this.getSettingDeprecation(_latestSettingId);\n\t\twhile (_migrated && _newSettingId > 0) {\n\t\t\t_latestSettingId = _newSettingId;\n\t\t\t(,,,,,,, _migrated,, _newSettingId,,) = this.getSettingDeprecation(_latestSettingId);\n\t\t}\n\t\treturn _latestSettingId;\n\t}\n\n\t/***** Internal Method *****/\n\t/**\n\t * @dev Store setting data/state\n\t * @param _settingId The ID of the setting\n\t * @param _creatorNameId The nameId that created the setting\n\t * @param _settingName The human-readable name of the setting\n\t * @param _creatorTAOId The taoId that created the setting\n\t * @param _associatedTAOId The taoId that the setting affects\n\t * @param _extraData Catch-all string value to be stored if exist\n\t * @return true on success\n\t */\n\tfunction _storeSettingDataState(uint256 _settingId, address _creatorNameId, string _settingName, address _creatorTAOId, address _associatedTAOId, string _extraData) internal returns (bool) {\n\t\t// Store setting data\n\t\tSettingData storage _settingData = settingDatas[_settingId];\n\t\t_settingData.settingId = _settingId;\n\t\t_settingData.creatorNameId = _creatorNameId;\n\t\t_settingData.creatorTAOId = _creatorTAOId;\n\t\t_settingData.associatedTAOId = _associatedTAOId;\n\t\t_settingData.settingName = _settingName;\n\t\t_settingData.pendingCreate = true;\n\t\t_settingData.locked = true;\n\t\t_settingData.settingDataJSON = _extraData;\n\n\t\t// Store setting state\n\t\tSettingState storage _settingState = settingStates[_settingId];\n\t\t_settingState.settingId = _settingId;\n\t\treturn true;\n\t}\n\n\t/**\n\t * @dev Store setting deprecation\n\t * @param _settingId The ID of the setting\n\t * @param _creatorNameId The nameId that created the setting\n\t * @param _creatorTAOId The taoId that created the setting\n\t * @param _associatedTAOId The taoId that the setting affects\n\t * @param _newSettingId The new settingId value to route\n\t * @param _newSettingContractAddress The address of the new setting contract to route\n\t * @return true on success\n\t */\n\tfunction _storeSettingDeprecation(uint256 _settingId, address _creatorNameId, address _creatorTAOId, address _associatedTAOId, uint256 _newSettingId, address _newSettingContractAddress) internal returns (bool) {\n\t\t// Make sure this setting exists\n\t\trequire (settingDatas[_settingId].creatorNameId != address(0) && settingDatas[_settingId].rejected == false && settingDatas[_settingId].pendingCreate == false);\n\n\t\t// Make sure deprecation is not yet exist for this setting Id\n\t\trequire (settingDeprecations[_settingId].creatorNameId == address(0));\n\n\t\t// Make sure newSettingId exists\n\t\trequire (settingDatas[_newSettingId].creatorNameId != address(0) && settingDatas[_newSettingId].rejected == false && settingDatas[_newSettingId].pendingCreate == false);\n\n\t\t// Store setting deprecation info\n\t\tSettingDeprecation storage _settingDeprecation = settingDeprecations[_settingId];\n\t\t_settingDeprecation.settingId = _settingId;\n\t\t_settingDeprecation.creatorNameId = _creatorNameId;\n\t\t_settingDeprecation.creatorTAOId = _creatorTAOId;\n\t\t_settingDeprecation.associatedTAOId = _associatedTAOId;\n\t\t_settingDeprecation.pendingDeprecated = true;\n\t\t_settingDeprecation.locked = true;\n\t\t_settingDeprecation.pendingNewSettingId = _newSettingId;\n\t\t_settingDeprecation.pendingNewSettingContractAddress = _newSettingContractAddress;\n\t\treturn true;\n\t}\n\n\t/**\n\t * @dev Store the associated TAO Setting info\n\t * @param _associatedTAOId The Associated TAO ID\n\t * @param _settingId The setting ID\n\t * @return The newly created associated TAO setting ID\n\t */\n\tfunction _storeAssociatedTAOSetting(address _associatedTAOId, uint256 _settingId) internal returns (bytes32) {\n\t\t// Store the associatedTAOSetting info\n\t\tbytes32 _associatedTAOSettingId = keccak256(abi.encodePacked(this, _associatedTAOId, _settingId));\n\t\tAssociatedTAOSetting storage _associatedTAOSetting = associatedTAOSettings[_associatedTAOSettingId];\n\t\t_associatedTAOSetting.associatedTAOSettingId = _associatedTAOSettingId;\n\t\t_associatedTAOSetting.associatedTAOId = _associatedTAOId;\n\t\t_associatedTAOSetting.settingId = _settingId;\n\t\treturn _associatedTAOSettingId;\n\t}\n\n\t/**\n\t * @dev Store the creator TAO Setting info\n\t * @param _creatorTAOId The Creator TAO ID\n\t * @param _settingId The setting ID\n\t * @return The newly created creator TAO setting ID\n\t */\n\tfunction _storeCreatorTAOSetting(address _creatorTAOId, uint256 _settingId) internal returns (bytes32) {\n\t\t// Store the creatorTAOSetting info\n\t\tbytes32 _creatorTAOSettingId = keccak256(abi.encodePacked(this, _creatorTAOId, _settingId));\n\t\tCreatorTAOSetting storage _creatorTAOSetting = creatorTAOSettings[_creatorTAOSettingId];\n\t\t_creatorTAOSetting.creatorTAOSettingId = _creatorTAOSettingId;\n\t\t_creatorTAOSetting.creatorTAOId = _creatorTAOId;\n\t\t_creatorTAOSetting.settingId = _settingId;\n\t\treturn _creatorTAOSettingId;\n\t}\n}\n",
	"sourcePath": "/Users/johanmulyono/Work/AO/ao-contracts/contracts/AOSettingAttribute.sol",
	"compiler": {
		"name": "solc",
		"version": "0.4.24+commit.e67f0147.Emscripten.clang"
	},
	"schemaVersion": "2.0.1",
	"updatedAt": "2019-02-21T15:27:08.874Z"
}