{
	"contractName": "AOSettingDeprecation",
	"abi": [
		{
			"constant": true,
			"inputs": [],
			"name": "aoSettingAddress",
			"outputs": [
				{
					"name": "",
					"type": "address"
				}
			],
			"payable": false,
			"stateMutability": "view",
			"type": "function"
		},
		{
			"constant": true,
			"inputs": [],
			"name": "nameTAOPositionAddress",
			"outputs": [
				{
					"name": "",
					"type": "address"
				}
			],
			"payable": false,
			"stateMutability": "view",
			"type": "function"
		},
		{
			"constant": true,
			"inputs": [
				{
					"name": "",
					"type": "address"
				}
			],
			"name": "whitelist",
			"outputs": [
				{
					"name": "",
					"type": "bool"
				}
			],
			"payable": false,
			"stateMutability": "view",
			"type": "function"
		},
		{
			"constant": true,
			"inputs": [],
			"name": "nameAccountRecoveryAddress",
			"outputs": [
				{
					"name": "",
					"type": "address"
				}
			],
			"payable": false,
			"stateMutability": "view",
			"type": "function"
		},
		{
			"constant": true,
			"inputs": [],
			"name": "theAO",
			"outputs": [
				{
					"name": "",
					"type": "address"
				}
			],
			"payable": false,
			"stateMutability": "view",
			"type": "function"
		},
		{
			"constant": true,
			"inputs": [],
			"name": "nameFactoryAddress",
			"outputs": [
				{
					"name": "",
					"type": "address"
				}
			],
			"payable": false,
			"stateMutability": "view",
			"type": "function"
		},
		{
			"constant": true,
			"inputs": [],
			"name": "aoSettingAttributeAddress",
			"outputs": [
				{
					"name": "",
					"type": "address"
				}
			],
			"payable": false,
			"stateMutability": "view",
			"type": "function"
		},
		{
			"inputs": [
				{
					"name": "_nameFactoryAddress",
					"type": "address"
				},
				{
					"name": "_nameTAOPositionAddress",
					"type": "address"
				},
				{
					"name": "_nameAccountRecoveryAddress",
					"type": "address"
				},
				{
					"name": "_aoSettingAttributeAddress",
					"type": "address"
				},
				{
					"name": "_aoSettingAddress",
					"type": "address"
				}
			],
			"payable": false,
			"stateMutability": "nonpayable",
			"type": "constructor"
		},
		{
			"anonymous": false,
			"inputs": [
				{
					"indexed": true,
					"name": "settingId",
					"type": "uint256"
				},
				{
					"indexed": true,
					"name": "creatorNameId",
					"type": "address"
				},
				{
					"indexed": false,
					"name": "creatorTAOId",
					"type": "address"
				},
				{
					"indexed": false,
					"name": "associatedTAOId",
					"type": "address"
				},
				{
					"indexed": false,
					"name": "newSettingId",
					"type": "uint256"
				},
				{
					"indexed": false,
					"name": "newSettingContractAddress",
					"type": "address"
				},
				{
					"indexed": false,
					"name": "associatedTAOSettingDeprecationId",
					"type": "bytes32"
				},
				{
					"indexed": false,
					"name": "creatorTAOSettingDeprecationId",
					"type": "bytes32"
				}
			],
			"name": "SettingDeprecation",
			"type": "event"
		},
		{
			"anonymous": false,
			"inputs": [
				{
					"indexed": true,
					"name": "settingId",
					"type": "uint256"
				},
				{
					"indexed": false,
					"name": "associatedTAOId",
					"type": "address"
				},
				{
					"indexed": false,
					"name": "associatedTAOAdvocate",
					"type": "address"
				},
				{
					"indexed": false,
					"name": "approved",
					"type": "bool"
				}
			],
			"name": "ApproveSettingDeprecation",
			"type": "event"
		},
		{
			"anonymous": false,
			"inputs": [
				{
					"indexed": true,
					"name": "settingId",
					"type": "uint256"
				},
				{
					"indexed": false,
					"name": "creatorTAOId",
					"type": "address"
				},
				{
					"indexed": false,
					"name": "creatorTAOAdvocate",
					"type": "address"
				}
			],
			"name": "FinalizeSettingDeprecation",
			"type": "event"
		},
		{
			"constant": false,
			"inputs": [
				{
					"name": "_theAO",
					"type": "address"
				}
			],
			"name": "transferOwnership",
			"outputs": [],
			"payable": false,
			"stateMutability": "nonpayable",
			"type": "function"
		},
		{
			"constant": false,
			"inputs": [
				{
					"name": "_account",
					"type": "address"
				},
				{
					"name": "_whitelist",
					"type": "bool"
				}
			],
			"name": "setWhitelist",
			"outputs": [],
			"payable": false,
			"stateMutability": "nonpayable",
			"type": "function"
		},
		{
			"constant": false,
			"inputs": [
				{
					"name": "_nameFactoryAddress",
					"type": "address"
				}
			],
			"name": "setNameFactoryAddress",
			"outputs": [],
			"payable": false,
			"stateMutability": "nonpayable",
			"type": "function"
		},
		{
			"constant": false,
			"inputs": [
				{
					"name": "_nameTAOPositionAddress",
					"type": "address"
				}
			],
			"name": "setNameTAOPositionAddress",
			"outputs": [],
			"payable": false,
			"stateMutability": "nonpayable",
			"type": "function"
		},
		{
			"constant": false,
			"inputs": [
				{
					"name": "_nameAccountRecoveryAddress",
					"type": "address"
				}
			],
			"name": "setNameAccountRecoveryAddress",
			"outputs": [],
			"payable": false,
			"stateMutability": "nonpayable",
			"type": "function"
		},
		{
			"constant": false,
			"inputs": [
				{
					"name": "_aoSettingAttributeAddress",
					"type": "address"
				}
			],
			"name": "setAOSettingAttributeAddress",
			"outputs": [],
			"payable": false,
			"stateMutability": "nonpayable",
			"type": "function"
		},
		{
			"constant": false,
			"inputs": [
				{
					"name": "_aoSettingAddress",
					"type": "address"
				}
			],
			"name": "setAOSettingAddress",
			"outputs": [],
			"payable": false,
			"stateMutability": "nonpayable",
			"type": "function"
		},
		{
			"constant": false,
			"inputs": [
				{
					"name": "_settingId",
					"type": "uint256"
				},
				{
					"name": "_newSettingId",
					"type": "uint256"
				},
				{
					"name": "_newSettingContractAddress",
					"type": "address"
				},
				{
					"name": "_creatorTAOId",
					"type": "address"
				},
				{
					"name": "_associatedTAOId",
					"type": "address"
				}
			],
			"name": "addSettingDeprecation",
			"outputs": [],
			"payable": false,
			"stateMutability": "nonpayable",
			"type": "function"
		},
		{
			"constant": false,
			"inputs": [
				{
					"name": "_settingId",
					"type": "uint256"
				},
				{
					"name": "_approved",
					"type": "bool"
				}
			],
			"name": "approveSettingDeprecation",
			"outputs": [],
			"payable": false,
			"stateMutability": "nonpayable",
			"type": "function"
		},
		{
			"constant": false,
			"inputs": [
				{
					"name": "_settingId",
					"type": "uint256"
				}
			],
			"name": "finalizeSettingDeprecation",
			"outputs": [],
			"payable": false,
			"stateMutability": "nonpayable",
			"type": "function"
		}
	],
	"bytecode": "0x60806040523480156200001157600080fd5b5060405160a08062001faf8339810160409081528151602083015191830151606084015160809094015160008054600160a060020a03191633179055919390916200006585640100000000620000c0810204565b6200007984640100000000620001c5810204565b6200008d83640100000000620002ca810204565b620000a182640100000000620003d2810204565b620000b581640100000000620004d7810204565b5050505050620005dc565b600054600154604080517ff66afcac000000000000000000000000000000000000000000000000000000008152336004820152600160a060020a0393841660248201529290911660448301525173__AOLibrary_____________________________9163f66afcac916064808301926020929190829003018186803b1580156200014957600080fd5b505af41580156200015e573d6000803e3d6000fd5b505050506040513d60208110156200017557600080fd5b505115156200018357600080fd5b600160a060020a03811615156200019957600080fd5b60038054600160a060020a03909216600160a060020a0319928316811790915560078054909216179055565b600054600154604080517ff66afcac000000000000000000000000000000000000000000000000000000008152336004820152600160a060020a0393841660248201529290911660448301525173__AOLibrary_____________________________9163f66afcac916064808301926020929190829003018186803b1580156200024e57600080fd5b505af415801562000263573d6000803e3d6000fd5b505050506040513d60208110156200027a57600080fd5b505115156200028857600080fd5b600160a060020a03811615156200029e57600080fd5b60018054600160a060020a03909216600160a060020a0319928316811790915560088054909216179055565b600054600154604080517ff66afcac000000000000000000000000000000000000000000000000000000008152336004820152600160a060020a0393841660248201529290911660448301525173__AOLibrary_____________________________9163f66afcac916064808301926020929190829003018186803b1580156200035357600080fd5b505af415801562000368573d6000803e3d6000fd5b505050506040513d60208110156200037f57600080fd5b505115156200038d57600080fd5b600160a060020a0381161515620003a357600080fd5b60048054600160a060020a0319908116600160a060020a03938416179182905560098054929093169116179055565b600054600154604080517ff66afcac000000000000000000000000000000000000000000000000000000008152336004820152600160a060020a0393841660248201529290911660448301525173__AOLibrary_____________________________9163f66afcac916064808301926020929190829003018186803b1580156200045b57600080fd5b505af415801562000470573d6000803e3d6000fd5b505050506040513d60208110156200048757600080fd5b505115156200049557600080fd5b600160a060020a0381161515620004ab57600080fd5b60058054600160a060020a03909216600160a060020a03199283168117909155600a8054909216179055565b600054600154604080517ff66afcac000000000000000000000000000000000000000000000000000000008152336004820152600160a060020a0393841660248201529290911660448301525173__AOLibrary_____________________________9163f66afcac916064808301926020929190829003018186803b1580156200056057600080fd5b505af415801562000575573d6000803e3d6000fd5b505050506040513d60208110156200058c57600080fd5b505115156200059a57600080fd5b600160a060020a0381161515620005b057600080fd5b60068054600160a060020a03909216600160a060020a03199283168117909155600b8054909216179055565b6119c380620005ec6000396000f3006080604052600436106100d75763ffffffff60e060020a60003504166306fd708881146100dc5780631d0138ff146100ff5780631dfde2bd146101305780634ef033f01461015157806353d6fd59146101665780635cfaf2ef1461018c57806361f61867146101ad57806372eca635146101e05780637a713023146102015780638c924361146102195780639793714f1461023a5780639b19251a14610257578063a4e5fad21461028c578063a9b6b38e146102a1578063bc406206146102b6578063cf8477cf146102cb578063f2fde38b146102e0575b600080fd5b3480156100e857600080fd5b506100fd600160a060020a0360043516610301565b005b34801561010b57600080fd5b506101146103f8565b60408051600160a060020a039092168252519081900360200190f35b34801561013c57600080fd5b506100fd600160a060020a0360043516610407565b34801561015d57600080fd5b50610114610501565b34801561017257600080fd5b506100fd600160a060020a03600435166024351515610510565b34801561019857600080fd5b506100fd600160a060020a03600435166105f9565b3480156101b957600080fd5b506100fd600435602435600160a060020a03604435811690606435811690608435166106f0565b3480156101ec57600080fd5b506100fd600160a060020a0360043516610e07565b34801561020d57600080fd5b506100fd600435610efe565b34801561022557600080fd5b506100fd600160a060020a0360043516611327565b34801561024657600080fd5b506100fd600435602435151561141e565b34801561026357600080fd5b50610278600160a060020a0360043516611859565b604080519115158252519081900360200190f35b34801561029857600080fd5b5061011461186e565b3480156102ad57600080fd5b5061011461187d565b3480156102c257600080fd5b5061011461188c565b3480156102d757600080fd5b5061011461189b565b3480156102ec57600080fd5b506100fd600160a060020a03600435166118aa565b6000546001546040805160e260020a633d9abf2b028152336004820152600160a060020a0393841660248201529290911660448301525173__AOLibrary_____________________________9163f66afcac916064808301926020929190829003018186803b15801561037357600080fd5b505af4158015610387573d6000803e3d6000fd5b505050506040513d602081101561039d57600080fd5b505115156103aa57600080fd5b600160a060020a03811615156103bf57600080fd5b60068054600160a060020a0390921673ffffffffffffffffffffffffffffffffffffffff199283168117909155600b8054909216179055565b600654600160a060020a031681565b6000546001546040805160e260020a633d9abf2b028152336004820152600160a060020a0393841660248201529290911660448301525173__AOLibrary_____________________________9163f66afcac916064808301926020929190829003018186803b15801561047957600080fd5b505af415801561048d573d6000803e3d6000fd5b505050506040513d60208110156104a357600080fd5b505115156104b057600080fd5b600160a060020a03811615156104c557600080fd5b6004805473ffffffffffffffffffffffffffffffffffffffff19908116600160a060020a03938416179182905560098054929093169116179055565b600154600160a060020a031681565b6000546001546040805160e260020a633d9abf2b028152336004820152600160a060020a0393841660248201529290911660448301525173__AOLibrary_____________________________9163f66afcac916064808301926020929190829003018186803b15801561058257600080fd5b505af4158015610596573d6000803e3d6000fd5b505050506040513d60208110156105ac57600080fd5b505115156105b957600080fd5b600160a060020a03821615156105ce57600080fd5b600160a060020a03919091166000908152600260205260409020805460ff1916911515919091179055565b6000546001546040805160e260020a633d9abf2b028152336004820152600160a060020a0393841660248201529290911660448301525173__AOLibrary_____________________________9163f66afcac916064808301926020929190829003018186803b15801561066b57600080fd5b505af415801561067f573d6000803e3d6000fd5b505050506040513d602081101561069557600080fd5b505115156106a257600080fd5b600160a060020a03811615156106b757600080fd5b60018054600160a060020a0390921673ffffffffffffffffffffffffffffffffffffffff19928316811790915560088054909216179055565b6000808373__AOLibrary_____________________________632fca5414826040518263ffffffff1660e060020a0281526004018082600160a060020a0316600160a060020a0316815260200191505060206040518083038186803b15801561075857600080fd5b505af415801561076c573d6000803e3d6000fd5b505050506040513d602081101561078257600080fd5b5051151561078f57600080fd5b8373__AOLibrary_____________________________632fca5414826040518263ffffffff1660e060020a0281526004018082600160a060020a0316600160a060020a0316815260200191505060206040518083038186803b1580156107f457600080fd5b505af4158015610808573d6000803e3d6000fd5b505050506040513d602081101561081e57600080fd5b5051151561082b57600080fd5b600854604080517f71ce52ed000000000000000000000000000000000000000000000000000000008152336004820152600160a060020a03808a1660248301529151899392909216916371ce52ed916044808201926020929091908290030181600087803b15801561089c57600080fd5b505af11580156108b0573d6000803e3d6000fd5b505050506040513d60208110156108c657600080fd5b505115156108d357600080fd5b6009546007546040805160e060020a63029b7d530281523360048201529051600160a060020a0393841693633ebc2ab393169163029b7d539160248083019260209291908290030181600087803b15801561092d57600080fd5b505af1158015610941573d6000803e3d6000fd5b505050506040513d602081101561095757600080fd5b50516040805160e060020a63ffffffff8516028152600160a060020a0390921660048301525160248083019260209291908290030181600087803b15801561099e57600080fd5b505af11580156109b2573d6000803e3d6000fd5b505050506040513d60208110156109c857600080fd5b5051156109d457600080fd5b600b546040805160e060020a63a62eeead028152600481018d90529051600092600160a060020a03169163a62eeead91602480830192602092919082900301818787803b158015610a2457600080fd5b505af1158015610a38573d6000803e3d6000fd5b505050506040513d6020811015610a4e57600080fd5b505160ff16118015610adc5750600b546040805160e060020a63a62eeead028152600481018c90529051600092600160a060020a03169163a62eeead91602480830192602092919082900301818787803b158015610aab57600080fd5b505af1158015610abf573d6000803e3d6000fd5b505050506040513d6020811015610ad557600080fd5b505160ff16115b1515610ae757600080fd5b600b546040805160e060020a63a62eeead028152600481018c90529051600160a060020a039092169163a62eeead916024808201926020929091908290030181600087803b158015610b3857600080fd5b505af1158015610b4c573d6000803e3d6000fd5b505050506040513d6020811015610b6257600080fd5b5051600b546040805160e060020a63a62eeead028152600481018e9052905160ff90931692600160a060020a039092169163a62eeead916024808201926020929091908290030181600087803b158015610bbb57600080fd5b505af1158015610bcf573d6000803e3d6000fd5b505050506040513d6020811015610be557600080fd5b505160ff1614610bf457600080fd5b600a546007546040805160e060020a63029b7d530281523360048201529051600160a060020a039384169363d79964c3938f9391169163029b7d53916024808201926020929091908290030181600087803b158015610c5257600080fd5b505af1158015610c66573d6000803e3d6000fd5b505050506040513d6020811015610c7c57600080fd5b50516040805160e060020a63ffffffff86160281526004810193909352600160a060020a039182166024840152818c166044840152818b166064840152608483018e9052908c1660a4830152805160c4808401938290030181600087803b158015610ce657600080fd5b505af1158015610cfa573d6000803e3d6000fd5b505050506040513d6040811015610d1057600080fd5b5080516020918201516007546040805160e060020a63029b7d530281523360048201529051939950919750600160a060020a03169263029b7d53926024808401938290030181600087803b158015610d6757600080fd5b505af1158015610d7b573d6000803e3d6000fd5b505050506040513d6020811015610d9157600080fd5b505160408051600160a060020a038a8116825289811660208301528183018d90528b811660608301526080820189905260a08201889052915191909216918c917f5b0aa40d58b997f6865a44dcb51e82305ff4fc4d2f7fed2e10d853de9394ae2a9181900360c00190a350505050505050505050565b6000546001546040805160e260020a633d9abf2b028152336004820152600160a060020a0393841660248201529290911660448301525173__AOLibrary_____________________________9163f66afcac916064808301926020929190829003018186803b158015610e7957600080fd5b505af4158015610e8d573d6000803e3d6000fd5b505050506040513d6020811015610ea357600080fd5b50511515610eb057600080fd5b600160a060020a0381161515610ec557600080fd5b60058054600160a060020a0390921673ffffffffffffffffffffffffffffffffffffffff199283168117909155600a8054909216179055565b6007546040805160e060020a63029b7d53028152336004820152905160009283928392600160a060020a039092169163029b7d539160248082019260209290919082900301818787803b158015610f5457600080fd5b505af1158015610f68573d6000803e3d6000fd5b505050506040513d6020811015610f7e57600080fd5b5051600160a060020a03161415610f9457600080fd5b6009546007546040805160e060020a63029b7d530281523360048201529051600160a060020a0393841693633ebc2ab393169163029b7d539160248083019260209291908290030181600087803b158015610fee57600080fd5b505af1158015611002573d6000803e3d6000fd5b505050506040513d602081101561101857600080fd5b50516040805160e060020a63ffffffff8516028152600160a060020a0390921660048301525160248083019260209291908290030181600087803b15801561105f57600080fd5b505af1158015611073573d6000803e3d6000fd5b505050506040513d602081101561108957600080fd5b50511561109557600080fd5b600b546040805160e060020a63a62eeead028152600481018690529051600092600160a060020a03169163a62eeead91602480830192602092919082900301818787803b1580156110e557600080fd5b505af11580156110f9573d6000803e3d6000fd5b505050506040513d602081101561110f57600080fd5b505160ff161161111e57600080fd5b6007546040805160e060020a63029b7d530281523360048201529051600160a060020a039092169163029b7d53916024808201926020929091908290030181600087803b15801561116e57600080fd5b505af1158015611182573d6000803e3d6000fd5b505050506040513d602081101561119857600080fd5b5051600a54604080517fed3ad43e00000000000000000000000000000000000000000000000000000000815260048101879052600160a060020a038085166024830152915193955091169163ed3ad43e916044808201926020929091908290030181600087803b15801561120b57600080fd5b505af115801561121f573d6000803e3d6000fd5b505050506040513d602081101561123557600080fd5b5051151561124257600080fd5b600a54604080517feb10b4bd000000000000000000000000000000000000000000000000000000008152600481018690529051600160a060020a039092169163eb10b4bd91602480820192610180929091908290030181600087803b1580156112aa57600080fd5b505af11580156112be573d6000803e3d6000fd5b505050506040513d6101808110156112d557600080fd5b506040908101518151600160a060020a03808316825285166020820152825191935085927fddce695af8c75c8fab3a9b369527822852b7fca9ca33aa7c48141b1134298f2d92918290030190a2505050565b6000546001546040805160e260020a633d9abf2b028152336004820152600160a060020a0393841660248201529290911660448301525173__AOLibrary_____________________________9163f66afcac916064808301926020929190829003018186803b15801561139957600080fd5b505af41580156113ad573d6000803e3d6000fd5b505050506040513d60208110156113c357600080fd5b505115156113d057600080fd5b600160a060020a03811615156113e557600080fd5b60038054600160a060020a0390921673ffffffffffffffffffffffffffffffffffffffff19928316811790915560078054909216179055565b6007546040805160e060020a63029b7d53028152336004820152905160009283928392600160a060020a039092169163029b7d539160248082019260209290919082900301818787803b15801561147457600080fd5b505af1158015611488573d6000803e3d6000fd5b505050506040513d602081101561149e57600080fd5b5051600160a060020a031614156114b457600080fd5b6009546007546040805160e060020a63029b7d530281523360048201529051600160a060020a0393841693633ebc2ab393169163029b7d539160248083019260209291908290030181600087803b15801561150e57600080fd5b505af1158015611522573d6000803e3d6000fd5b505050506040513d602081101561153857600080fd5b50516040805160e060020a63ffffffff8516028152600160a060020a0390921660048301525160248083019260209291908290030181600087803b15801561157f57600080fd5b505af1158015611593573d6000803e3d6000fd5b505050506040513d60208110156115a957600080fd5b5051156115b557600080fd5b600b546040805160e060020a63a62eeead028152600481018790529051600092600160a060020a03169163a62eeead91602480830192602092919082900301818787803b15801561160557600080fd5b505af1158015611619573d6000803e3d6000fd5b505050506040513d602081101561162f57600080fd5b505160ff161161163e57600080fd5b6007546040805160e060020a63029b7d530281523360048201529051600160a060020a039092169163029b7d53916024808201926020929091908290030181600087803b15801561168e57600080fd5b505af11580156116a2573d6000803e3d6000fd5b505050506040513d60208110156116b857600080fd5b5051600a54604080517f46082aaf00000000000000000000000000000000000000000000000000000000815260048101889052600160a060020a038085166024830152871515604483015291519395509116916346082aaf916064808201926020929091908290030181600087803b15801561173357600080fd5b505af1158015611747573d6000803e3d6000fd5b505050506040513d602081101561175d57600080fd5b5051151561176a57600080fd5b600a54604080517feb10b4bd000000000000000000000000000000000000000000000000000000008152600481018790529051600160a060020a039092169163eb10b4bd91602480820192610180929091908290030181600087803b1580156117d257600080fd5b505af11580156117e6573d6000803e3d6000fd5b505050506040513d6101808110156117fd57600080fd5b5060609081015160408051600160a060020a0380841682528616602082015286151581830152905191935086927f68e70a35c7a2d3a84a6d5f1fca218f248ebab3821e88a3b58ead71224623433292918290030190a250505050565b60026020526000908152604090205460ff1681565b600454600160a060020a031681565b600054600160a060020a031681565b600354600160a060020a031681565b600554600160a060020a031681565b6000546001546040805160e260020a633d9abf2b028152336004820152600160a060020a0393841660248201529290911660448301525173__AOLibrary_____________________________9163f66afcac916064808301926020929190829003018186803b15801561191c57600080fd5b505af4158015611930573d6000803e3d6000fd5b505050506040513d602081101561194657600080fd5b5051151561195357600080fd5b600160a060020a038116151561196857600080fd5b6000805473ffffffffffffffffffffffffffffffffffffffff1916600160a060020a03929092169190911790555600a165627a7a72305820262a889dbe823e48b41920f8a59a5d84753c764b7c069a3e823564d82a9800040029",
	"source": "pragma solidity ^0.4.24;\n\nimport './AOLibrary.sol';\nimport './TheAO.sol';\nimport './IAOSetting.sol';\nimport './INameFactory.sol';\nimport './IAOSettingAttribute.sol';\nimport './INameTAOPosition.sol';\nimport './INameAccountRecovery.sol';\n\n/**\n * @title AOSettingDeprecation\n *\n * This contract responsible for adding setting deprecation\n */\ncontract AOSettingDeprecation is TheAO {\n\taddress public nameFactoryAddress;\n\taddress public nameAccountRecoveryAddress;\n\taddress public aoSettingAttributeAddress;\n\taddress public aoSettingAddress;\n\n\tINameFactory internal _nameFactory;\n\tINameTAOPosition internal _nameTAOPosition;\n\tINameAccountRecovery internal _nameAccountRecovery;\n\tIAOSettingAttribute internal _aoSettingAttribute;\n\tIAOSetting internal _aoSetting;\n\n\t// Event to be broadcasted to public when a setting deprecation is created and waiting for approval\n\tevent SettingDeprecation(uint256 indexed settingId, address indexed creatorNameId, address creatorTAOId, address associatedTAOId, uint256 newSettingId, address newSettingContractAddress, bytes32 associatedTAOSettingDeprecationId, bytes32 creatorTAOSettingDeprecationId);\n\n\t// Event to be broadcasted to public when setting deprecation is approved/rejected by the advocate of associatedTAOId\n\tevent ApproveSettingDeprecation(uint256 indexed settingId, address associatedTAOId, address associatedTAOAdvocate, bool approved);\n\n\t// Event to be broadcasted to public when setting deprecation is finalized by the advocate of creatorTAOId\n\tevent FinalizeSettingDeprecation(uint256 indexed settingId, address creatorTAOId, address creatorTAOAdvocate);\n\n\t/**\n\t * @dev Constructor function\n\t */\n\tconstructor(address _nameFactoryAddress,\n\t\taddress _nameTAOPositionAddress,\n\t\taddress _nameAccountRecoveryAddress,\n\t\taddress _aoSettingAttributeAddress,\n\t\taddress _aoSettingAddress\n\t\t) public {\n\t\tsetNameFactoryAddress(_nameFactoryAddress);\n\t\tsetNameTAOPositionAddress(_nameTAOPositionAddress);\n\t\tsetNameAccountRecoveryAddress(_nameAccountRecoveryAddress);\n\t\tsetAOSettingAttributeAddress(_aoSettingAttributeAddress);\n\t\tsetAOSettingAddress(_aoSettingAddress);\n\t}\n\n\t/**\n\t * @dev Checks if the calling contract address is The AO\n\t *\t\tOR\n\t *\t\tIf The AO is set to a Name/TAO, then check if calling address is the Advocate\n\t */\n\tmodifier onlyTheAO {\n\t\trequire (AOLibrary.isTheAO(msg.sender, theAO, nameTAOPositionAddress));\n\t\t_;\n\t}\n\n\t/**\n\t * @dev Check if `_taoId` is a TAO\n\t */\n\tmodifier isTAO(address _taoId) {\n\t\trequire (AOLibrary.isTAO(_taoId));\n\t\t_;\n\t}\n\n\t/**\n\t * @dev Check if msg.sender is the current advocate of Name ID\n\t */\n\tmodifier onlyAdvocate(address _id) {\n\t\trequire (_nameTAOPosition.senderIsAdvocate(msg.sender, _id));\n\t\t_;\n\t}\n\n\t/**\n\t * @dev Check is msg.sender address is a Name\n\t */\n\t modifier senderIsName() {\n\t\trequire (_nameFactory.ethAddressToNameId(msg.sender) != address(0));\n\t\t_;\n\t }\n\n\t/**\n\t * @dev Only allowed if sender's Name is not compromised\n\t */\n\tmodifier senderNameNotCompromised() {\n\t\trequire (!_nameAccountRecovery.isCompromised(_nameFactory.ethAddressToNameId(msg.sender)));\n\t\t_;\n\t}\n\n\t/***** The AO ONLY METHODS *****/\n\t/**\n\t * @dev Transfer ownership of The AO to new address\n\t * @param _theAO The new address to be transferred\n\t */\n\tfunction transferOwnership(address _theAO) public onlyTheAO {\n\t\trequire (_theAO != address(0));\n\t\ttheAO = _theAO;\n\t}\n\n\t/**\n\t * @dev Whitelist `_account` address to transact on behalf of others\n\t * @param _account The address to whitelist\n\t * @param _whitelist Either to whitelist or not\n\t */\n\tfunction setWhitelist(address _account, bool _whitelist) public onlyTheAO {\n\t\trequire (_account != address(0));\n\t\twhitelist[_account] = _whitelist;\n\t}\n\n\t/**\n\t * @dev The AO sets NameFactory address\n\t * @param _nameFactoryAddress The address of NameFactory\n\t */\n\tfunction setNameFactoryAddress(address _nameFactoryAddress) public onlyTheAO {\n\t\trequire (_nameFactoryAddress != address(0));\n\t\tnameFactoryAddress = _nameFactoryAddress;\n\t\t_nameFactory = INameFactory(_nameFactoryAddress);\n\t}\n\n\t/**\n\t * @dev The AO sets NameTAOPosition address\n\t * @param _nameTAOPositionAddress The address of NameTAOPosition\n\t */\n\tfunction setNameTAOPositionAddress(address _nameTAOPositionAddress) public onlyTheAO {\n\t\trequire (_nameTAOPositionAddress != address(0));\n\t\tnameTAOPositionAddress = _nameTAOPositionAddress;\n\t\t_nameTAOPosition = INameTAOPosition(_nameTAOPositionAddress);\n\t}\n\n\t/**\n\t * @dev The AO set the NameAccountRecovery Address\n\t * @param _nameAccountRecoveryAddress The address of NameAccountRecovery\n\t */\n\tfunction setNameAccountRecoveryAddress(address _nameAccountRecoveryAddress) public onlyTheAO {\n\t\trequire (_nameAccountRecoveryAddress != address(0));\n\t\tnameAccountRecoveryAddress = _nameAccountRecoveryAddress;\n\t\t_nameAccountRecovery = INameAccountRecovery(nameAccountRecoveryAddress);\n\t}\n\n\t/**\n\t * @dev The AO sets AOSettingAttribute address\n\t * @param _aoSettingAttributeAddress The address of AOSettingAttribute\n\t */\n\tfunction setAOSettingAttributeAddress(address _aoSettingAttributeAddress) public onlyTheAO {\n\t\trequire (_aoSettingAttributeAddress != address(0));\n\t\taoSettingAttributeAddress = _aoSettingAttributeAddress;\n\t\t_aoSettingAttribute = IAOSettingAttribute(_aoSettingAttributeAddress);\n\t}\n\n\t/**\n\t * @dev The AO sets AOSetting address\n\t * @param _aoSettingAddress The address of AOSetting\n\t */\n\tfunction setAOSettingAddress(address _aoSettingAddress) public onlyTheAO {\n\t\trequire (_aoSettingAddress != address(0));\n\t\taoSettingAddress = _aoSettingAddress;\n\t\t_aoSetting = IAOSetting(_aoSettingAddress);\n\t}\n\n\t/***** PUBLIC METHODS *****/\n\t/**\n\t * @dev Advocate of _creatorTAOId adds a setting deprecation\n\t * @param _settingId The ID of the setting to be deprecated\n\t * @param _newSettingId The new setting ID to route\n\t * @param _newSettingContractAddress The new setting contract address to route\n\t * @param _creatorTAOId The taoId that created the setting\n\t * @param _associatedTAOId The taoId that the setting affects\n\t */\n\tfunction addSettingDeprecation(\n\t\tuint256 _settingId,\n\t\tuint256 _newSettingId,\n\t\taddress _newSettingContractAddress,\n\t\taddress _creatorTAOId,\n\t\taddress _associatedTAOId)\n\t\tpublic\n\t\tisTAO(_creatorTAOId)\n\t\tisTAO(_associatedTAOId)\n\t\tonlyAdvocate(_creatorTAOId)\n\t\tsenderNameNotCompromised {\n\t\t// Make sure the settings exist\n\t\trequire (_aoSetting.settingTypeLookup(_settingId) > 0 && _aoSetting.settingTypeLookup(_newSettingId) > 0);\n\n\t\t// Make sure it's the same type\n\t\trequire (_aoSetting.settingTypeLookup(_settingId) == _aoSetting.settingTypeLookup(_newSettingId));\n\n\t\t(bytes32 _associatedTAOSettingDeprecationId, bytes32 _creatorTAOSettingDeprecationId) = _aoSettingAttribute.addDeprecation(_settingId, _nameFactory.ethAddressToNameId(msg.sender), _creatorTAOId, _associatedTAOId, _newSettingId, _newSettingContractAddress);\n\n\t\temit SettingDeprecation(_settingId, _nameFactory.ethAddressToNameId(msg.sender), _creatorTAOId, _associatedTAOId, _newSettingId, _newSettingContractAddress, _associatedTAOSettingDeprecationId, _creatorTAOSettingDeprecationId);\n\t}\n\n\t/**\n\t * @dev Advocate of SettingDeprecation's _associatedTAOId approves setting deprecation\n\t * @param _settingId The ID of the setting to approve\n\t * @param _approved Whether to approve or reject\n\t */\n\tfunction approveSettingDeprecation(uint256 _settingId, bool _approved) public senderIsName senderNameNotCompromised {\n\t\t// Make sure setting exist\n\t\trequire (_aoSetting.settingTypeLookup(_settingId) > 0);\n\n\t\taddress _associatedTAOAdvocate = _nameFactory.ethAddressToNameId(msg.sender);\n\t\trequire (_aoSettingAttribute.approveDeprecation(_settingId, _associatedTAOAdvocate, _approved));\n\n\t\t(,,, address _associatedTAOId,,,,,,,,) = _aoSettingAttribute.getSettingDeprecation(_settingId);\n\t\temit ApproveSettingDeprecation(_settingId, _associatedTAOId, _associatedTAOAdvocate, _approved);\n\t}\n\n\t/**\n\t * @dev Advocate of SettingDeprecation's _creatorTAOId finalizes the setting deprecation once the setting deprecation is approved\n\t * @param _settingId The ID of the setting to be finalized\n\t */\n\tfunction finalizeSettingDeprecation(uint256 _settingId) public senderIsName senderNameNotCompromised {\n\t\t// Make sure setting exist\n\t\trequire (_aoSetting.settingTypeLookup(_settingId) > 0);\n\n\t\taddress _creatorTAOAdvocate = _nameFactory.ethAddressToNameId(msg.sender);\n\t\trequire (_aoSettingAttribute.finalizeDeprecation(_settingId, _creatorTAOAdvocate));\n\n\t\t(,, address _creatorTAOId,,,,,,,,,) = _aoSettingAttribute.getSettingDeprecation(_settingId);\n\t\temit FinalizeSettingDeprecation(_settingId, _creatorTAOId, _creatorTAOAdvocate);\n\t}\n}\n",
	"sourcePath": "/Users/johanmulyono/Work/AO/ao-contracts/contracts/AOSettingDeprecation.sol",
	"compiler": {
		"name": "solc",
		"version": "0.4.24+commit.e67f0147.Emscripten.clang"
	},
	"schemaVersion": "2.0.1",
	"updatedAt": "2019-02-21T15:27:08.829Z"
}