{
	"contractName": "AOSetting",
	"abi": [
		{
			"constant": true,
			"inputs": [
				{
					"name": "",
					"type": "bytes32"
				}
			],
			"name": "updateHashLookup",
			"outputs": [
				{
					"name": "",
					"type": "uint256"
				}
			],
			"payable": false,
			"stateMutability": "view",
			"type": "function"
		},
		{
			"constant": true,
			"inputs": [],
			"name": "nameTAOPositionAddress",
			"outputs": [
				{
					"name": "",
					"type": "address"
				}
			],
			"payable": false,
			"stateMutability": "view",
			"type": "function"
		},
		{
			"constant": true,
			"inputs": [],
			"name": "STRING_SETTING_TYPE",
			"outputs": [
				{
					"name": "",
					"type": "uint8"
				}
			],
			"payable": false,
			"stateMutability": "view",
			"type": "function"
		},
		{
			"constant": true,
			"inputs": [],
			"name": "BOOL_SETTING_TYPE",
			"outputs": [
				{
					"name": "",
					"type": "uint8"
				}
			],
			"payable": false,
			"stateMutability": "view",
			"type": "function"
		},
		{
			"constant": true,
			"inputs": [
				{
					"name": "",
					"type": "address"
				}
			],
			"name": "whitelist",
			"outputs": [
				{
					"name": "",
					"type": "bool"
				}
			],
			"payable": false,
			"stateMutability": "view",
			"type": "function"
		},
		{
			"constant": true,
			"inputs": [],
			"name": "nameAccountRecoveryAddress",
			"outputs": [
				{
					"name": "",
					"type": "address"
				}
			],
			"payable": false,
			"stateMutability": "view",
			"type": "function"
		},
		{
			"constant": true,
			"inputs": [],
			"name": "UINT_SETTING_TYPE",
			"outputs": [
				{
					"name": "",
					"type": "uint8"
				}
			],
			"payable": false,
			"stateMutability": "view",
			"type": "function"
		},
		{
			"constant": true,
			"inputs": [],
			"name": "theAO",
			"outputs": [
				{
					"name": "",
					"type": "address"
				}
			],
			"payable": false,
			"stateMutability": "view",
			"type": "function"
		},
		{
			"constant": true,
			"inputs": [],
			"name": "totalSetting",
			"outputs": [
				{
					"name": "",
					"type": "uint256"
				}
			],
			"payable": false,
			"stateMutability": "view",
			"type": "function"
		},
		{
			"constant": true,
			"inputs": [],
			"name": "BYTES_SETTING_TYPE",
			"outputs": [
				{
					"name": "",
					"type": "uint8"
				}
			],
			"payable": false,
			"stateMutability": "view",
			"type": "function"
		},
		{
			"constant": true,
			"inputs": [],
			"name": "nameFactoryAddress",
			"outputs": [
				{
					"name": "",
					"type": "address"
				}
			],
			"payable": false,
			"stateMutability": "view",
			"type": "function"
		},
		{
			"constant": true,
			"inputs": [],
			"name": "aoSettingAttributeAddress",
			"outputs": [
				{
					"name": "",
					"type": "address"
				}
			],
			"payable": false,
			"stateMutability": "view",
			"type": "function"
		},
		{
			"constant": true,
			"inputs": [],
			"name": "aoSettingValueAddress",
			"outputs": [
				{
					"name": "",
					"type": "address"
				}
			],
			"payable": false,
			"stateMutability": "view",
			"type": "function"
		},
		{
			"constant": true,
			"inputs": [],
			"name": "ADDRESS_SETTING_TYPE",
			"outputs": [
				{
					"name": "",
					"type": "uint8"
				}
			],
			"payable": false,
			"stateMutability": "view",
			"type": "function"
		},
		{
			"inputs": [
				{
					"name": "_nameFactoryAddress",
					"type": "address"
				},
				{
					"name": "_nameTAOPositionAddress",
					"type": "address"
				},
				{
					"name": "_nameAccountRecoveryAddress",
					"type": "address"
				},
				{
					"name": "_aoSettingAttributeAddress",
					"type": "address"
				},
				{
					"name": "_aoSettingValueAddress",
					"type": "address"
				}
			],
			"payable": false,
			"stateMutability": "nonpayable",
			"type": "constructor"
		},
		{
			"anonymous": false,
			"inputs": [
				{
					"indexed": true,
					"name": "settingId",
					"type": "uint256"
				},
				{
					"indexed": true,
					"name": "creatorNameId",
					"type": "address"
				},
				{
					"indexed": false,
					"name": "creatorTAOId",
					"type": "address"
				},
				{
					"indexed": false,
					"name": "associatedTAOId",
					"type": "address"
				},
				{
					"indexed": false,
					"name": "settingName",
					"type": "string"
				},
				{
					"indexed": false,
					"name": "associatedTAOSettingId",
					"type": "bytes32"
				},
				{
					"indexed": false,
					"name": "creatorTAOSettingId",
					"type": "bytes32"
				}
			],
			"name": "SettingCreation",
			"type": "event"
		},
		{
			"anonymous": false,
			"inputs": [
				{
					"indexed": true,
					"name": "settingId",
					"type": "uint256"
				},
				{
					"indexed": false,
					"name": "associatedTAOId",
					"type": "address"
				},
				{
					"indexed": false,
					"name": "associatedTAOAdvocate",
					"type": "address"
				},
				{
					"indexed": false,
					"name": "approved",
					"type": "bool"
				}
			],
			"name": "ApproveSettingCreation",
			"type": "event"
		},
		{
			"anonymous": false,
			"inputs": [
				{
					"indexed": true,
					"name": "settingId",
					"type": "uint256"
				},
				{
					"indexed": false,
					"name": "creatorTAOId",
					"type": "address"
				},
				{
					"indexed": false,
					"name": "creatorTAOAdvocate",
					"type": "address"
				}
			],
			"name": "FinalizeSettingCreation",
			"type": "event"
		},
		{
			"constant": false,
			"inputs": [
				{
					"name": "_theAO",
					"type": "address"
				}
			],
			"name": "transferOwnership",
			"outputs": [],
			"payable": false,
			"stateMutability": "nonpayable",
			"type": "function"
		},
		{
			"constant": false,
			"inputs": [
				{
					"name": "_account",
					"type": "address"
				},
				{
					"name": "_whitelist",
					"type": "bool"
				}
			],
			"name": "setWhitelist",
			"outputs": [],
			"payable": false,
			"stateMutability": "nonpayable",
			"type": "function"
		},
		{
			"constant": false,
			"inputs": [
				{
					"name": "_nameFactoryAddress",
					"type": "address"
				}
			],
			"name": "setNameFactoryAddress",
			"outputs": [],
			"payable": false,
			"stateMutability": "nonpayable",
			"type": "function"
		},
		{
			"constant": false,
			"inputs": [
				{
					"name": "_nameTAOPositionAddress",
					"type": "address"
				}
			],
			"name": "setNameTAOPositionAddress",
			"outputs": [],
			"payable": false,
			"stateMutability": "nonpayable",
			"type": "function"
		},
		{
			"constant": false,
			"inputs": [
				{
					"name": "_nameAccountRecoveryAddress",
					"type": "address"
				}
			],
			"name": "setNameAccountRecoveryAddress",
			"outputs": [],
			"payable": false,
			"stateMutability": "nonpayable",
			"type": "function"
		},
		{
			"constant": false,
			"inputs": [
				{
					"name": "_aoSettingAttributeAddress",
					"type": "address"
				}
			],
			"name": "setAOSettingAttributeAddress",
			"outputs": [],
			"payable": false,
			"stateMutability": "nonpayable",
			"type": "function"
		},
		{
			"constant": false,
			"inputs": [
				{
					"name": "_aoSettingValueAddress",
					"type": "address"
				}
			],
			"name": "setAOSettingValueAddress",
			"outputs": [],
			"payable": false,
			"stateMutability": "nonpayable",
			"type": "function"
		},
		{
			"constant": true,
			"inputs": [
				{
					"name": "_settingName",
					"type": "string"
				},
				{
					"name": "_associatedTAOId",
					"type": "address"
				}
			],
			"name": "settingNameExist",
			"outputs": [
				{
					"name": "",
					"type": "bool"
				}
			],
			"payable": false,
			"stateMutability": "view",
			"type": "function"
		},
		{
			"constant": false,
			"inputs": [
				{
					"name": "_settingName",
					"type": "string"
				},
				{
					"name": "_value",
					"type": "uint256"
				},
				{
					"name": "_creatorTAOId",
					"type": "address"
				},
				{
					"name": "_associatedTAOId",
					"type": "address"
				},
				{
					"name": "_extraData",
					"type": "string"
				}
			],
			"name": "addUintSetting",
			"outputs": [],
			"payable": false,
			"stateMutability": "nonpayable",
			"type": "function"
		},
		{
			"constant": false,
			"inputs": [
				{
					"name": "_settingName",
					"type": "string"
				},
				{
					"name": "_value",
					"type": "bool"
				},
				{
					"name": "_creatorTAOId",
					"type": "address"
				},
				{
					"name": "_associatedTAOId",
					"type": "address"
				},
				{
					"name": "_extraData",
					"type": "string"
				}
			],
			"name": "addBoolSetting",
			"outputs": [],
			"payable": false,
			"stateMutability": "nonpayable",
			"type": "function"
		},
		{
			"constant": false,
			"inputs": [
				{
					"name": "_settingName",
					"type": "string"
				},
				{
					"name": "_value",
					"type": "address"
				},
				{
					"name": "_creatorTAOId",
					"type": "address"
				},
				{
					"name": "_associatedTAOId",
					"type": "address"
				},
				{
					"name": "_extraData",
					"type": "string"
				}
			],
			"name": "addAddressSetting",
			"outputs": [],
			"payable": false,
			"stateMutability": "nonpayable",
			"type": "function"
		},
		{
			"constant": false,
			"inputs": [
				{
					"name": "_settingName",
					"type": "string"
				},
				{
					"name": "_value",
					"type": "bytes32"
				},
				{
					"name": "_creatorTAOId",
					"type": "address"
				},
				{
					"name": "_associatedTAOId",
					"type": "address"
				},
				{
					"name": "_extraData",
					"type": "string"
				}
			],
			"name": "addBytesSetting",
			"outputs": [],
			"payable": false,
			"stateMutability": "nonpayable",
			"type": "function"
		},
		{
			"constant": false,
			"inputs": [
				{
					"name": "_settingName",
					"type": "string"
				},
				{
					"name": "_value",
					"type": "string"
				},
				{
					"name": "_creatorTAOId",
					"type": "address"
				},
				{
					"name": "_associatedTAOId",
					"type": "address"
				},
				{
					"name": "_extraData",
					"type": "string"
				}
			],
			"name": "addStringSetting",
			"outputs": [],
			"payable": false,
			"stateMutability": "nonpayable",
			"type": "function"
		},
		{
			"constant": false,
			"inputs": [
				{
					"name": "_settingId",
					"type": "uint256"
				},
				{
					"name": "_approved",
					"type": "bool"
				}
			],
			"name": "approveSettingCreation",
			"outputs": [],
			"payable": false,
			"stateMutability": "nonpayable",
			"type": "function"
		},
		{
			"constant": false,
			"inputs": [
				{
					"name": "_settingId",
					"type": "uint256"
				}
			],
			"name": "finalizeSettingCreation",
			"outputs": [],
			"payable": false,
			"stateMutability": "nonpayable",
			"type": "function"
		},
		{
			"constant": true,
			"inputs": [
				{
					"name": "_settingId",
					"type": "uint256"
				}
			],
			"name": "settingTypeLookup",
			"outputs": [
				{
					"name": "",
					"type": "uint8"
				}
			],
			"payable": false,
			"stateMutability": "view",
			"type": "function"
		},
		{
			"constant": true,
			"inputs": [
				{
					"name": "_associatedTAOId",
					"type": "address"
				},
				{
					"name": "_settingName",
					"type": "string"
				}
			],
			"name": "getSettingIdByTAOName",
			"outputs": [
				{
					"name": "",
					"type": "uint256"
				}
			],
			"payable": false,
			"stateMutability": "view",
			"type": "function"
		},
		{
			"constant": true,
			"inputs": [
				{
					"name": "_settingId",
					"type": "uint256"
				}
			],
			"name": "getSettingValuesById",
			"outputs": [
				{
					"name": "",
					"type": "uint256"
				},
				{
					"name": "",
					"type": "bool"
				},
				{
					"name": "",
					"type": "address"
				},
				{
					"name": "",
					"type": "bytes32"
				},
				{
					"name": "",
					"type": "string"
				}
			],
			"payable": false,
			"stateMutability": "view",
			"type": "function"
		},
		{
			"constant": true,
			"inputs": [
				{
					"name": "_taoId",
					"type": "address"
				},
				{
					"name": "_settingName",
					"type": "string"
				}
			],
			"name": "getSettingValuesByTAOName",
			"outputs": [
				{
					"name": "",
					"type": "uint256"
				},
				{
					"name": "",
					"type": "bool"
				},
				{
					"name": "",
					"type": "address"
				},
				{
					"name": "",
					"type": "bytes32"
				},
				{
					"name": "",
					"type": "string"
				}
			],
			"payable": false,
			"stateMutability": "view",
			"type": "function"
		},
		{
			"constant": true,
			"inputs": [],
			"name": "getSettingTypes",
			"outputs": [
				{
					"name": "",
					"type": "uint8"
				},
				{
					"name": "",
					"type": "uint8"
				},
				{
					"name": "",
					"type": "uint8"
				},
				{
					"name": "",
					"type": "uint8"
				},
				{
					"name": "",
					"type": "uint8"
				}
			],
			"payable": false,
			"stateMutability": "view",
			"type": "function"
		}
	],
	"bytecode": "0x60806040523480156200001157600080fd5b5060405160a08062003e298339810160409081528151602083015191830151606084015160809094015160008054600160a060020a03191633179055919390916200006585640100000000620000c0810204565b6200007984640100000000620001c5810204565b6200008d83640100000000620002ca810204565b620000a182640100000000620003d2810204565b620000b581640100000000620004d7810204565b5050505050620005dc565b600054600154604080517ff66afcac000000000000000000000000000000000000000000000000000000008152336004820152600160a060020a0393841660248201529290911660448301525173__AOLibrary_____________________________9163f66afcac916064808301926020929190829003018186803b1580156200014957600080fd5b505af41580156200015e573d6000803e3d6000fd5b505050506040513d60208110156200017557600080fd5b505115156200018357600080fd5b600160a060020a03811615156200019957600080fd5b60038054600160a060020a03909216600160a060020a0319928316811790915560078054909216179055565b600054600154604080517ff66afcac000000000000000000000000000000000000000000000000000000008152336004820152600160a060020a0393841660248201529290911660448301525173__AOLibrary_____________________________9163f66afcac916064808301926020929190829003018186803b1580156200024e57600080fd5b505af415801562000263573d6000803e3d6000fd5b505050506040513d60208110156200027a57600080fd5b505115156200028857600080fd5b600160a060020a03811615156200029e57600080fd5b60018054600160a060020a03909216600160a060020a0319928316811790915560088054909216179055565b600054600154604080517ff66afcac000000000000000000000000000000000000000000000000000000008152336004820152600160a060020a0393841660248201529290911660448301525173__AOLibrary_____________________________9163f66afcac916064808301926020929190829003018186803b1580156200035357600080fd5b505af415801562000368573d6000803e3d6000fd5b505050506040513d60208110156200037f57600080fd5b505115156200038d57600080fd5b600160a060020a0381161515620003a357600080fd5b60048054600160a060020a0319908116600160a060020a03938416179182905560098054929093169116179055565b600054600154604080517ff66afcac000000000000000000000000000000000000000000000000000000008152336004820152600160a060020a0393841660248201529290911660448301525173__AOLibrary_____________________________9163f66afcac916064808301926020929190829003018186803b1580156200045b57600080fd5b505af415801562000470573d6000803e3d6000fd5b505050506040513d60208110156200048757600080fd5b505115156200049557600080fd5b600160a060020a0381161515620004ab57600080fd5b60058054600160a060020a03909216600160a060020a03199283168117909155600a8054909216179055565b600054600154604080517ff66afcac000000000000000000000000000000000000000000000000000000008152336004820152600160a060020a0393841660248201529290911660448301525173__AOLibrary_____________________________9163f66afcac916064808301926020929190829003018186803b1580156200056057600080fd5b505af415801562000575573d6000803e3d6000fd5b505050506040513d60208110156200058c57600080fd5b505115156200059a57600080fd5b600160a060020a0381161515620005b057600080fd5b60068054600160a060020a03909216600160a060020a03199283168117909155600b8054909216179055565b61383d80620005ec6000396000f3006080604052600436106101925763ffffffff60e060020a600035041663113d893881146101975780631b2dbff61461024d5780631dfde2bd1461027757806332f896af146102985780633d694f30146102ff5780633f056cb41461031c578063420911371461033d578063438630451461042d5780634ef033f0146104e15780634efa45a11461051257806353d6fd59146105ca5780635885d7bb146105f05780635cfaf2ef1461061b5780635ef17eff1461063c5780637065bedc1461070657806372eca63514610733578063788e31bf1461075457806379d0c71e1461080a57806387e5b070146108555780638c9243611461086a5780639525f3821461088b5780639b19251a146108a3578063a4e5fad2146108d8578063a4ed5eab146108ed578063a62eeead14610902578063a9b6b38e1461091a578063bb2445a81461092f578063bbc8f29b14610944578063bc40620614610959578063bdfd62571461096e578063cf8477cf146109d2578063dc4c5d56146109e7578063f2fde38b146109fc578063ff282aaf14610a1d575b600080fd5b3480156101a357600080fd5b506040805160206004803580820135601f810184900484028501840190955284845261024b94369492936024939284019190819084018382808284375050604080516020601f60608a01358b0180359182018390048302840183018552818452989b8a359b600160a060020a03848d013581169c96870135169a919950975060809094019550919350918201918190840183828082843750949750610a329650505050505050565b005b34801561025957600080fd5b50610265600435610e6f565b60408051918252519081900360200190f35b34801561028357600080fd5b5061024b600160a060020a0360043516610e81565b3480156102a457600080fd5b5060408051602060046024803582810135601f8101859004850286018501909652858552610265958335600160a060020a0316953695604494919390910191908190840183828082843750949750610f7b9650505050505050565b34801561030b57600080fd5b5061024b60043560243515156110a5565b34801561032857600080fd5b5061024b600160a060020a0360043516611674565b34801561034957600080fd5b506040805160206004803580820135601f810184900484028501840190955284845261024b94369492936024939284019190819084018382808284375050604080516020601f89358b018035918201839004830284018301909452808352979a99988101979196509182019450925082915084018382808284375050604080516020888301358a018035601f8101839004830284018301909452838352979a8935600160a060020a039081169b8b8401359091169a9199909850606090910196509194509081019250819084018382808284375094975061176b9650505050505050565b34801561043957600080fd5b506040805160206004803580820135601f810184900484028501840190955284845261024b94369492936024939284019190819084018382808284375050604080516020601f60608a01358b0180359182018390048302840183018552818452989b8a359b600160a060020a03848d013581169c96870135169a919950975060809094019550919350918201918190840183828082843750949750611b8a9650505050505050565b3480156104ed57600080fd5b506104f6611f02565b60408051600160a060020a039092168252519081900360200190f35b34801561051e57600080fd5b506040805160206004803580820135601f810184900484028501840190955284845261024b94369492936024939284019190819084018382808284375050604080516020601f60608a01358b0180359182018390048302840183018552818452989b600160a060020a038b3581169c848d013582169c968701359091169a919950975060809094019550919350918201918190840183828082843750949750611f119650505050505050565b3480156105d657600080fd5b5061024b600160a060020a0360043516602435151561228f565b3480156105fc57600080fd5b50610605612378565b6040805160ff9092168252519081900360200190f35b34801561062757600080fd5b5061024b600160a060020a036004351661237d565b34801561064857600080fd5b50610654600435612474565b604051808681526020018515151515815260200184600160a060020a0316600160a060020a03168152602001836000191660001916815260200180602001828103825283818151815260200191508051906020019080838360005b838110156106c75781810151838201526020016106af565b50505050905090810190601f1680156106f45780820380516001836020036101000a031916815260200191505b50965050505050505060405180910390f35b34801561071257600080fd5b5061065460048035600160a060020a031690602480359081019101356126e4565b34801561073f57600080fd5b5061024b600160a060020a0360043516612742565b34801561076057600080fd5b506040805160206004803580820135601f810184900484028501840190955284845261024b94369492936024939284019190819084018382808284375050604080516020601f60608a01358b0180359182018390048302840183018552818452989b8a3515159b600160a060020a03848d013581169c96870135169a9199509750608090940195509193509182019181908401838280828437509497506128399650505050505050565b34801561081657600080fd5b5061081f612bb2565b6040805160ff96871681529486166020860152928516848401529084166060840152909216608082015290519081900360a00190f35b34801561086157600080fd5b50610605612bc3565b34801561087657600080fd5b5061024b600160a060020a0360043516612bc8565b34801561089757600080fd5b5061024b600435612cbf565b3480156108af57600080fd5b506108c4600160a060020a03600435166131cf565b604080519115158252519081900360200190f35b3480156108e457600080fd5b506104f66131e4565b3480156108f957600080fd5b506106056131f3565b34801561090e57600080fd5b506106056004356131f8565b34801561092657600080fd5b506104f661320d565b34801561093b57600080fd5b5061026561321c565b34801561095057600080fd5b50610605613222565b34801561096557600080fd5b506104f6613227565b34801561097a57600080fd5b506040805160206004803580820135601f81018490048402850184019095528484526108c494369492936024939284019190819084018382808284375094975050509235600160a060020a0316935061323692505050565b3480156109de57600080fd5b506104f6613365565b3480156109f357600080fd5b506104f6613374565b348015610a0857600080fd5b5061024b600160a060020a0360043516613383565b348015610a2957600080fd5b50610605613470565b8273__AOLibrary_____________________________632fca5414826040518263ffffffff1660e060020a0281526004018082600160a060020a0316600160a060020a0316815260200191505060206040518083038186803b158015610a9757600080fd5b505af4158015610aab573d6000803e3d6000fd5b505050506040513d6020811015610ac157600080fd5b50511515610ace57600080fd5b8273__AOLibrary_____________________________632fca5414826040518263ffffffff1660e060020a0281526004018082600160a060020a0316600160a060020a0316815260200191505060206040518083038186803b158015610b3357600080fd5b505af4158015610b47573d6000803e3d6000fd5b505050506040513d6020811015610b5d57600080fd5b50511515610b6a57600080fd5b8684610b768282613236565b15610b8057600080fd5b6008546040805160e060020a6371ce52ed028152336004820152600160a060020a03808b16602483015291518a9392909216916371ce52ed916044808201926020929091908290030181600087803b158015610bdb57600080fd5b505af1158015610bef573d6000803e3d6000fd5b505050506040513d6020811015610c0557600080fd5b50511515610c1257600080fd5b6009546007546040805160e060020a63029b7d530281523360048201529051600160a060020a0393841693633ebc2ab393169163029b7d539160248083019260209291908290030181600087803b158015610c6c57600080fd5b505af1158015610c80573d6000803e3d6000fd5b505050506040513d6020811015610c9657600080fd5b50516040805160e060020a63ffffffff8516028152600160a060020a0390921660048301525160248083019260209291908290030181600087803b158015610cdd57600080fd5b505af1158015610cf1573d6000803e3d6000fd5b505050506040513d6020811015610d0757600080fd5b505115610d1357600080fd5b600c80546001018082556000908152600f60209081526040808320805460ff19166003179055600b549354815160e060020a63ccdd6afd02815260048101919091526024810184905260448101849052606481018e905260a4810184905260c0608482015260c481018490529051600160a060020a039094169363ccdd6afd9361010480840194938390030190829087803b158015610db157600080fd5b505af1158015610dc5573d6000803e3d6000fd5b505050506040513d6020811015610ddb57600080fd5b50506007546040805160e060020a63029b7d530281523360048201529051610e6392600160a060020a03169163029b7d539160248083019260209291908290030181600087803b158015610e2e57600080fd5b505af1158015610e42573d6000803e3d6000fd5b505050506040513d6020811015610e5857600080fd5b50518b8a8a8a613475565b50505050505050505050565b600e6020526000908152604090205481565b6000546001546040805160e260020a633d9abf2b028152336004820152600160a060020a0393841660248201529290911660448301525173__AOLibrary_____________________________9163f66afcac916064808301926020929190829003018186803b158015610ef357600080fd5b505af4158015610f07573d6000803e3d6000fd5b505050506040513d6020811015610f1d57600080fd5b50511515610f2a57600080fd5b600160a060020a0381161515610f3f57600080fd5b6004805473ffffffffffffffffffffffffffffffffffffffff19908116600160a060020a03938416179182905560098054929093169116179055565b6000600d600084600160a060020a0316600160a060020a03168152602001908152602001600020600030846040516020018083600160a060020a0316600160a060020a03166c0100000000000000000000000002815260140182805190602001908083835b60208310610fff5780518252601f199092019160209182019101610fe0565b6001836020036101000a038019825116818451168082178552505050505050905001925050506040516020818303038152906040526040518082805190602001908083835b602083106110635780518252601f199092019160209182019101611044565b51815160209384036101000a60001901801990921691161790526040805192909401829003909120865285019590955292909201600020549695505050505050565b6007546040805160e060020a63029b7d53028152336004820152905160009283926060928492600160a060020a03169163029b7d5391602480830192602092919082900301818787803b1580156110fb57600080fd5b505af115801561110f573d6000803e3d6000fd5b505050506040513d602081101561112557600080fd5b5051600160a060020a0316141561113b57600080fd5b6009546007546040805160e060020a63029b7d530281523360048201529051600160a060020a0393841693633ebc2ab393169163029b7d539160248083019260209291908290030181600087803b15801561119557600080fd5b505af11580156111a9573d6000803e3d6000fd5b505050506040513d60208110156111bf57600080fd5b50516040805160e060020a63ffffffff8516028152600160a060020a0390921660048301525160248083019260209291908290030181600087803b15801561120657600080fd5b505af115801561121a573d6000803e3d6000fd5b505050506040513d602081101561123057600080fd5b50511561123c57600080fd5b6007546040805160e060020a63029b7d530281523360048201529051600160a060020a039092169163029b7d53916024808201926020929091908290030181600087803b15801561128c57600080fd5b505af11580156112a0573d6000803e3d6000fd5b505050506040513d60208110156112b657600080fd5b5051600a54604080517f2a82fdbd00000000000000000000000000000000000000000000000000000000815260048101899052600160a060020a03808516602483015288151560448301529151939650911691632a82fdbd916064808201926020929091908290030181600087803b15801561133157600080fd5b505af1158015611345573d6000803e3d6000fd5b505050506040513d602081101561135b57600080fd5b5051151561136857600080fd5b600a54604080517f81f3e897000000000000000000000000000000000000000000000000000000008152600481018890529051600160a060020a03909216916381f3e8979160248082019260009290919082900301818387803b1580156113ce57600080fd5b505af11580156113e2573d6000803e3d6000fd5b505050506040513d6000823e601f3d908101601f1916820160405261012081101561140c57600080fd5b81516020830151604084015160608501516080860180519496939592949193928301929164010000000081111561144257600080fd5b8201602081018481111561145557600080fd5b815164010000000081118282018710171561146f57600080fd5b505060208201516040830151606084015160809094018051939692959194936401000000008111156114a057600080fd5b820160208101848111156114b357600080fd5b81516401000000008111828201871017156114cd57600080fd5b5050929190505050505050509450945050505083151561161f57600d600083600160a060020a0316600160a060020a03168152602001908152602001600020600030836040516020018083600160a060020a0316600160a060020a03166c0100000000000000000000000002815260140182805190602001908083835b602083106115695780518252601f19909201916020918201910161154a565b6001836020036101000a038019825116818451168082178552505050505050905001925050506040516020818303038152906040526040518082805190602001908083835b602083106115cd5780518252601f1990920191602091820191016115ae565b51815160209384036101000a60001901801990921691161790526040805192909401829003909120865285810196909652509283016000908120819055898152600f90945250509020805460ff191690555b60408051600160a060020a0380851682528516602082015285151581830152905186917f88777193beb258cd3af58ac99deaac6fe1e4fd4079ce3085aa04e27c153c241a919081900360600190a25050505050565b6000546001546040805160e260020a633d9abf2b028152336004820152600160a060020a0393841660248201529290911660448301525173__AOLibrary_____________________________9163f66afcac916064808301926020929190829003018186803b1580156116e657600080fd5b505af41580156116fa573d6000803e3d6000fd5b505050506040513d602081101561171057600080fd5b5051151561171d57600080fd5b600160a060020a038116151561173257600080fd5b60068054600160a060020a0390921673ffffffffffffffffffffffffffffffffffffffff199283168117909155600b8054909216179055565b8273__AOLibrary_____________________________632fca5414826040518263ffffffff1660e060020a0281526004018082600160a060020a0316600160a060020a0316815260200191505060206040518083038186803b1580156117d057600080fd5b505af41580156117e4573d6000803e3d6000fd5b505050506040513d60208110156117fa57600080fd5b5051151561180757600080fd5b8273__AOLibrary_____________________________632fca5414826040518263ffffffff1660e060020a0281526004018082600160a060020a0316600160a060020a0316815260200191505060206040518083038186803b15801561186c57600080fd5b505af4158015611880573d6000803e3d6000fd5b505050506040513d602081101561189657600080fd5b505115156118a357600080fd5b86846118af8282613236565b156118b957600080fd5b6008546040805160e060020a6371ce52ed028152336004820152600160a060020a03808b16602483015291518a9392909216916371ce52ed916044808201926020929091908290030181600087803b15801561191457600080fd5b505af1158015611928573d6000803e3d6000fd5b505050506040513d602081101561193e57600080fd5b5051151561194b57600080fd5b6009546007546040805160e060020a63029b7d530281523360048201529051600160a060020a0393841693633ebc2ab393169163029b7d539160248083019260209291908290030181600087803b1580156119a557600080fd5b505af11580156119b9573d6000803e3d6000fd5b505050506040513d60208110156119cf57600080fd5b50516040805160e060020a63ffffffff8516028152600160a060020a0390921660048301525160248083019260209291908290030181600087803b158015611a1657600080fd5b505af1158015611a2a573d6000803e3d6000fd5b505050506040513d6020811015611a4057600080fd5b505115611a4c57600080fd5b600c600081548092919060010191905055506004600f6000600c54815260200190815260200160002060006101000a81548160ff021916908360ff160217905550600b60009054906101000a9004600160a060020a0316600160a060020a031663ccdd6afd600c546000808d60006040518663ffffffff1660e060020a0281526004018086815260200185600160a060020a0316600160a060020a031681526020018415151515815260200160200180602001838152602001828103825284818151815260200191508051906020019080838360005b83811015611b3a578181015183820152602001611b22565b50505050905090810190601f168015611b675780820380516001836020036101000a031916815260200191505b509650505050505050602060405180830381600087803b158015610db157600080fd5b8273__AOLibrary_____________________________632fca5414826040518263ffffffff1660e060020a0281526004018082600160a060020a0316600160a060020a0316815260200191505060206040518083038186803b158015611bef57600080fd5b505af4158015611c03573d6000803e3d6000fd5b505050506040513d6020811015611c1957600080fd5b50511515611c2657600080fd5b8273__AOLibrary_____________________________632fca5414826040518263ffffffff1660e060020a0281526004018082600160a060020a0316600160a060020a0316815260200191505060206040518083038186803b158015611c8b57600080fd5b505af4158015611c9f573d6000803e3d6000fd5b505050506040513d6020811015611cb557600080fd5b50511515611cc257600080fd5b8684611cce8282613236565b15611cd857600080fd5b6008546040805160e060020a6371ce52ed028152336004820152600160a060020a03808b16602483015291518a9392909216916371ce52ed916044808201926020929091908290030181600087803b158015611d3357600080fd5b505af1158015611d47573d6000803e3d6000fd5b505050506040513d6020811015611d5d57600080fd5b50511515611d6a57600080fd5b6009546007546040805160e060020a63029b7d530281523360048201529051600160a060020a0393841693633ebc2ab393169163029b7d539160248083019260209291908290030181600087803b158015611dc457600080fd5b505af1158015611dd8573d6000803e3d6000fd5b505050506040513d6020811015611dee57600080fd5b50516040805160e060020a63ffffffff8516028152600160a060020a0390921660048301525160248083019260209291908290030181600087803b158015611e3557600080fd5b505af1158015611e49573d6000803e3d6000fd5b505050506040513d6020811015611e5f57600080fd5b505115611e6b57600080fd5b600c80546001018082556000908152600f60209081526040808320805460ff19166005179055600b549354815160e060020a63ccdd6afd0281526004810191909152602481018490526044810184905260a481018e905260c0608482015260c481018490529051600160a060020a039094169363ccdd6afd9361010480840194938390030190829087803b158015610db157600080fd5b600154600160a060020a031681565b8273__AOLibrary_____________________________632fca5414826040518263ffffffff1660e060020a0281526004018082600160a060020a0316600160a060020a0316815260200191505060206040518083038186803b158015611f7657600080fd5b505af4158015611f8a573d6000803e3d6000fd5b505050506040513d6020811015611fa057600080fd5b50511515611fad57600080fd5b8273__AOLibrary_____________________________632fca5414826040518263ffffffff1660e060020a0281526004018082600160a060020a0316600160a060020a0316815260200191505060206040518083038186803b15801561201257600080fd5b505af4158015612026573d6000803e3d6000fd5b505050506040513d602081101561203c57600080fd5b5051151561204957600080fd5b86846120558282613236565b1561205f57600080fd5b6008546040805160e060020a6371ce52ed028152336004820152600160a060020a03808b16602483015291518a9392909216916371ce52ed916044808201926020929091908290030181600087803b1580156120ba57600080fd5b505af11580156120ce573d6000803e3d6000fd5b505050506040513d60208110156120e457600080fd5b505115156120f157600080fd5b6009546007546040805160e060020a63029b7d530281523360048201529051600160a060020a0393841693633ebc2ab393169163029b7d539160248083019260209291908290030181600087803b15801561214b57600080fd5b505af115801561215f573d6000803e3d6000fd5b505050506040513d602081101561217557600080fd5b50516040805160e060020a63ffffffff8516028152600160a060020a0390921660048301525160248083019260209291908290030181600087803b1580156121bc57600080fd5b505af11580156121d0573d6000803e3d6000fd5b505050506040513d60208110156121e657600080fd5b5051156121f257600080fd5b600c805460019081018083556000908152600f60209081526040808320805460ff1916909417909355600b549354835160e060020a63ccdd6afd0281526004810191909152600160a060020a038e811660248301526044820184905260a4820184905260c0608483015260c482018490529351939094169363ccdd6afd936101048083019491928390030190829087803b158015610db157600080fd5b6000546001546040805160e260020a633d9abf2b028152336004820152600160a060020a0393841660248201529290911660448301525173__AOLibrary_____________________________9163f66afcac916064808301926020929190829003018186803b15801561230157600080fd5b505af4158015612315573d6000803e3d6000fd5b505050506040513d602081101561232b57600080fd5b5051151561233857600080fd5b600160a060020a038216151561234d57600080fd5b600160a060020a03919091166000908152600260205260409020805460ff1916911515919091179055565b600481565b6000546001546040805160e260020a633d9abf2b028152336004820152600160a060020a0393841660248201529290911660448301525173__AOLibrary_____________________________9163f66afcac916064808301926020929190829003018186803b1580156123ef57600080fd5b505af4158015612403573d6000803e3d6000fd5b505050506040513d602081101561241957600080fd5b5051151561242657600080fd5b600160a060020a038116151561243b57600080fd5b60018054600160a060020a0390921673ffffffffffffffffffffffffffffffffffffffff19928316811790915560088054909216179055565b6000806000806060600080600060606000600a60009054906101000a9004600160a060020a0316600160a060020a031663982a23768c6040518263ffffffff1660e060020a02815260040180828152602001915050602060405180830381600087803b1580156124e357600080fd5b505af11580156124f7573d6000803e3d6000fd5b505050506040513d602081101561250d57600080fd5b5051151561251a57600080fd5b600a54604080517f7b0862e1000000000000000000000000000000000000000000000000000000008152600481018e90529051600160a060020a0390921691637b0862e1916024808201926020929091908290030181600087803b15801561258157600080fd5b505af1158015612595573d6000803e3d6000fd5b505050506040513d60208110156125ab57600080fd5b5051600b54604080517f9ba535ce000000000000000000000000000000000000000000000000000000008152600481018490529051929d50600160a060020a0390911691639ba535ce9160248082019260009290919082900301818387803b15801561261657600080fd5b505af115801561262a573d6000803e3d6000fd5b505050506040513d6000823e601f3d908101601f1916820160405260a081101561265357600080fd5b815160208301516040840151606085018051939592949193918301929164010000000081111561268257600080fd5b8201602081018481111561269557600080fd5b81516401000000008111828201871017156126af57600080fd5b50506020909101519f50939d50939b509099509097508996508a95508894508793508b92505050505050505091939590929450565b600080600080606061272e6127298989898080601f01602080910402602001604051908101604052809392919081815260200183838082843750610f7b945050505050565b612474565b939c929b5090995097509095509350505050565b6000546001546040805160e260020a633d9abf2b028152336004820152600160a060020a0393841660248201529290911660448301525173__AOLibrary_____________________________9163f66afcac916064808301926020929190829003018186803b1580156127b457600080fd5b505af41580156127c8573d6000803e3d6000fd5b505050506040513d60208110156127de57600080fd5b505115156127eb57600080fd5b600160a060020a038116151561280057600080fd5b60058054600160a060020a0390921673ffffffffffffffffffffffffffffffffffffffff199283168117909155600a8054909216179055565b8273__AOLibrary_____________________________632fca5414826040518263ffffffff1660e060020a0281526004018082600160a060020a0316600160a060020a0316815260200191505060206040518083038186803b15801561289e57600080fd5b505af41580156128b2573d6000803e3d6000fd5b505050506040513d60208110156128c857600080fd5b505115156128d557600080fd5b8273__AOLibrary_____________________________632fca5414826040518263ffffffff1660e060020a0281526004018082600160a060020a0316600160a060020a0316815260200191505060206040518083038186803b15801561293a57600080fd5b505af415801561294e573d6000803e3d6000fd5b505050506040513d602081101561296457600080fd5b5051151561297157600080fd5b868461297d8282613236565b1561298757600080fd5b6008546040805160e060020a6371ce52ed028152336004820152600160a060020a03808b16602483015291518a9392909216916371ce52ed916044808201926020929091908290030181600087803b1580156129e257600080fd5b505af11580156129f6573d6000803e3d6000fd5b505050506040513d6020811015612a0c57600080fd5b50511515612a1957600080fd5b6009546007546040805160e060020a63029b7d530281523360048201529051600160a060020a0393841693633ebc2ab393169163029b7d539160248083019260209291908290030181600087803b158015612a7357600080fd5b505af1158015612a87573d6000803e3d6000fd5b505050506040513d6020811015612a9d57600080fd5b50516040805160e060020a63ffffffff8516028152600160a060020a0390921660048301525160248083019260209291908290030181600087803b158015612ae457600080fd5b505af1158015612af8573d6000803e3d6000fd5b505050506040513d6020811015612b0e57600080fd5b505115612b1a57600080fd5b600c80546001018082556000908152600f60209081526040808320805460ff19166002179055600b549354815160e060020a63ccdd6afd0281526004810191909152602481018490528d1515604482015260a4810184905260c0608482015260c481018490529051600160a060020a039094169363ccdd6afd9361010480840194938390030190829087803b158015610db157600080fd5b600160026003600460059091929394565b600281565b6000546001546040805160e260020a633d9abf2b028152336004820152600160a060020a0393841660248201529290911660448301525173__AOLibrary_____________________________9163f66afcac916064808301926020929190829003018186803b158015612c3a57600080fd5b505af4158015612c4e573d6000803e3d6000fd5b505050506040513d6020811015612c6457600080fd5b50511515612c7157600080fd5b600160a060020a0381161515612c8657600080fd5b60038054600160a060020a0390921673ffffffffffffffffffffffffffffffffffffffff19928316811790915560078054909216179055565b6007546040805160e060020a63029b7d53028152336004820152905160009283928392600160a060020a039092169163029b7d539160248082019260209290919082900301818787803b158015612d1557600080fd5b505af1158015612d29573d6000803e3d6000fd5b505050506040513d6020811015612d3f57600080fd5b5051600160a060020a03161415612d5557600080fd5b6009546007546040805160e060020a63029b7d530281523360048201529051600160a060020a0393841693633ebc2ab393169163029b7d539160248083019260209291908290030181600087803b158015612daf57600080fd5b505af1158015612dc3573d6000803e3d6000fd5b505050506040513d6020811015612dd957600080fd5b50516040805160e060020a63ffffffff8516028152600160a060020a0390921660048301525160248083019260209291908290030181600087803b158015612e2057600080fd5b505af1158015612e34573d6000803e3d6000fd5b505050506040513d6020811015612e4a57600080fd5b505115612e5657600080fd5b6007546040805160e060020a63029b7d530281523360048201529051600160a060020a039092169163029b7d53916024808201926020929091908290030181600087803b158015612ea657600080fd5b505af1158015612eba573d6000803e3d6000fd5b505050506040513d6020811015612ed057600080fd5b5051600a54604080517f4a17601700000000000000000000000000000000000000000000000000000000815260048101879052600160a060020a0380851660248301529151939550911691634a176017916044808201926020929091908290030181600087803b158015612f4357600080fd5b505af1158015612f57573d6000803e3d6000fd5b505050506040513d6020811015612f6d57600080fd5b50511515612f7a57600080fd5b600a54604080517f81f3e897000000000000000000000000000000000000000000000000000000008152600481018690529051600160a060020a03909216916381f3e8979160248082019260009290919082900301818387803b158015612fe057600080fd5b505af1158015612ff4573d6000803e3d6000fd5b505050506040513d6000823e601f3d908101601f1916820160405261012081101561301e57600080fd5b81516020830151604084015160608501516080860180519496939592949193928301929164010000000081111561305457600080fd5b8201602081018481111561306757600080fd5b815164010000000081118282018710171561308157600080fd5b505060208201516040830151606084015160809094018051939692959194936401000000008111156130b257600080fd5b820160208101848111156130c557600080fd5b81516401000000008111828201871017156130df57600080fd5b505092919050505050505050505092505050600b60009054906101000a9004600160a060020a0316600160a060020a031663088fc1a8846040518263ffffffff1660e060020a02815260040180828152602001915050602060405180830381600087803b15801561314f57600080fd5b505af1158015613163573d6000803e3d6000fd5b505050506040513d602081101561317957600080fd5b5051151561318657600080fd5b60408051600160a060020a03808416825284166020820152815185927fbb5e0d5e53d5c4edcb39f401558efb469259576f753902721daa75c87b14416c928290030190a2505050565b60026020526000908152604090205460ff1681565b600454600160a060020a031681565b600581565b6000908152600f602052604090205460ff1690565b600054600160a060020a031681565b600c5481565b600381565b600354600160a060020a031681565b600080600d600084600160a060020a0316600160a060020a03168152602001908152602001600020600030866040516020018083600160a060020a0316600160a060020a03166c0100000000000000000000000002815260140182805190602001908083835b602083106132bb5780518252601f19909201916020918201910161329c565b6001836020036101000a038019825116818451168082178552505050505050905001925050506040516020818303038152906040526040518082805190602001908083835b6020831061331f5780518252601f199092019160209182019101613300565b51815160209384036101000a6000190180199092169116179052604080519290940182900390912086528501959095529290920160002054939093119695505050505050565b600554600160a060020a031681565b600654600160a060020a031681565b6000546001546040805160e260020a633d9abf2b028152336004820152600160a060020a0393841660248201529290911660448301525173__AOLibrary_____________________________9163f66afcac916064808301926020929190829003018186803b1580156133f557600080fd5b505af4158015613409573d6000803e3d6000fd5b505050506040513d602081101561341f57600080fd5b5051151561342c57600080fd5b600160a060020a038116151561344157600080fd5b6000805473ffffffffffffffffffffffffffffffffffffffff1916600160a060020a0392909216919091179055565b600181565b600080600c54600d600086600160a060020a0316600160a060020a03168152602001908152602001600020600030896040516020018083600160a060020a0316600160a060020a03166c0100000000000000000000000002815260140182805190602001908083835b602083106134fd5780518252601f1990920191602091820191016134de565b6001836020036101000a038019825116818451168082178552505050505050905001925050506040516020818303038152906040526040518082805190602001908083835b602083106135615780518252601f199092019160209182019101613542565b51815160209384036101000a60001901801990921691161790526040805192909401829003909120865285810196909652509283016000908120959095555050600a54600c5491517f4c5598cd00000000000000000000000000000000000000000000000000000000815260048101838152600160a060020a038d811660248401528b811660648401528a8116608484015260c0604484019081528d5160c48501528d519190941696634c5598cd968f958f958f958f958f95919460a484019360e40192908a0191908190849084905b83811015613649578181015183820152602001613631565b50505050905090810190601f1680156136765780820380516001836020036101000a031916815260200191505b50838103825284518152845160209182019186019080838360005b838110156136a9578181015183820152602001613691565b50505050905090810190601f1680156136d65780820380516001836020036101000a031916815260200191505b50985050505050505050506040805180830381600087803b1580156136fa57600080fd5b505af115801561370e573d6000803e3d6000fd5b505050506040513d604081101561372457600080fd5b508051602091820151600c5460408051600160a060020a038b811682528a811682880152606082018690526080820185905260a09282018381528d51938301939093528c51959850939650928c169491937f53322aac567204587b4738d1fb8b8942e91eca09c783083ab113f683fe707367938b938b938e938b938b9390929160c084019187019080838360005b838110156137ca5781810151838201526020016137b2565b50505050905090810190601f1680156137f75780820380516001836020036101000a031916815260200191505b50965050505050505060405180910390a3505050505050505600a165627a7a72305820dd392790ad3144bbced56d0f3bf5e1fecde628e5ee2d754a4183f178ff58ec760029",
	"source": "pragma solidity ^0.4.24;\n\nimport './AOLibrary.sol';\nimport './TheAO.sol';\nimport './IAOSetting.sol';\nimport './INameFactory.sol';\nimport './IAOSettingAttribute.sol';\nimport './IAOSettingValue.sol';\nimport './INameTAOPosition.sol';\nimport './INameAccountRecovery.sol';\n\n/**\n * @title AOSetting\n *\n * This contract stores all AO setting variables\n */\ncontract AOSetting is TheAO, IAOSetting {\n\taddress public nameFactoryAddress;\n\taddress public nameAccountRecoveryAddress;\n\taddress public aoSettingAttributeAddress;\n\taddress public aoSettingValueAddress;\n\n\tINameFactory internal _nameFactory;\n\tINameTAOPosition internal _nameTAOPosition;\n\tINameAccountRecovery internal _nameAccountRecovery;\n\tIAOSettingAttribute internal _aoSettingAttribute;\n\tIAOSettingValue internal _aoSettingValue;\n\n\tuint8 constant public ADDRESS_SETTING_TYPE = 1;\n\tuint8 constant public BOOL_SETTING_TYPE = 2;\n\tuint8 constant public BYTES_SETTING_TYPE = 3;\n\tuint8 constant public STRING_SETTING_TYPE = 4;\n\tuint8 constant public UINT_SETTING_TYPE = 5;\n\n\tuint256 public totalSetting;\n\n\t/**\n\t * Mapping from associatedTAOId's setting name to Setting ID.\n\t *\n\t * Instead of concatenating the associatedTAOID and setting name to create a unique ID for lookup,\n\t * use nested mapping to achieve the same result.\n\t *\n\t * The setting's name needs to be converted to bytes32 since solidity does not support mapping by string.\n\t */\n\tmapping (address => mapping (bytes32 => uint256)) internal nameSettingLookup;\n\n\t// Mapping from updateHashKey to it's settingId\n\tmapping (bytes32 => uint256) public updateHashLookup;\n\n\t// Mapping from setting ID to it's type\n\t// setting type 1 => uint256, 2 => bool, 3 => address, 4 => bytes32, 5 => string\n\tmapping (uint256 => uint8) internal _settingTypeLookup;\n\n\t// Event to be broadcasted to public when a setting is created and waiting for approval\n\tevent SettingCreation(uint256 indexed settingId, address indexed creatorNameId, address creatorTAOId, address associatedTAOId, string settingName, bytes32 associatedTAOSettingId, bytes32 creatorTAOSettingId);\n\n\t// Event to be broadcasted to public when setting creation is approved/rejected by the advocate of associatedTAOId\n\tevent ApproveSettingCreation(uint256 indexed settingId, address associatedTAOId, address associatedTAOAdvocate, bool approved);\n\t// Event to be broadcasted to public when setting creation is finalized by the advocate of creatorTAOId\n\tevent FinalizeSettingCreation(uint256 indexed settingId, address creatorTAOId, address creatorTAOAdvocate);\n\n\t/**\n\t * @dev Constructor function\n\t */\n\tconstructor(address _nameFactoryAddress,\n\t\taddress _nameTAOPositionAddress,\n\t\taddress _nameAccountRecoveryAddress,\n\t\taddress _aoSettingAttributeAddress,\n\t\taddress _aoSettingValueAddress\n\t\t) public {\n\t\tsetNameFactoryAddress(_nameFactoryAddress);\n\t\tsetNameTAOPositionAddress(_nameTAOPositionAddress);\n\t\tsetNameAccountRecoveryAddress(_nameAccountRecoveryAddress);\n\t\tsetAOSettingAttributeAddress(_aoSettingAttributeAddress);\n\t\tsetAOSettingValueAddress(_aoSettingValueAddress);\n\t}\n\n\t/**\n\t * @dev Checks if the calling contract address is The AO\n\t *\t\tOR\n\t *\t\tIf The AO is set to a Name/TAO, then check if calling address is the Advocate\n\t */\n\tmodifier onlyTheAO {\n\t\trequire (AOLibrary.isTheAO(msg.sender, theAO, nameTAOPositionAddress));\n\t\t_;\n\t}\n\n\t/**\n\t * @dev Check if `_taoId` is a TAO\n\t */\n\tmodifier isTAO(address _taoId) {\n\t\trequire (AOLibrary.isTAO(_taoId));\n\t\t_;\n\t}\n\n\t/**\n\t * @dev Check if `_settingName` of `_associatedTAOId` is taken\n\t */\n\tmodifier settingNameNotTaken(string _settingName, address _associatedTAOId) {\n\t\trequire (settingNameExist(_settingName, _associatedTAOId) == false);\n\t\t_;\n\t}\n\n\t/**\n\t * @dev Check if msg.sender is the current advocate of Name ID\n\t */\n\tmodifier onlyAdvocate(address _id) {\n\t\trequire (_nameTAOPosition.senderIsAdvocate(msg.sender, _id));\n\t\t_;\n\t}\n\n\t/**\n\t * @dev Check is msg.sender address is a Name\n\t */\n\t modifier senderIsName() {\n\t\trequire (_nameFactory.ethAddressToNameId(msg.sender) != address(0));\n\t\t_;\n\t }\n\n\t/**\n\t * @dev Only allowed if sender's Name is not compromised\n\t */\n\tmodifier senderNameNotCompromised() {\n\t\trequire (!_nameAccountRecovery.isCompromised(_nameFactory.ethAddressToNameId(msg.sender)));\n\t\t_;\n\t}\n\n\t/***** The AO ONLY METHODS *****/\n\t/**\n\t * @dev Transfer ownership of The AO to new address\n\t * @param _theAO The new address to be transferred\n\t */\n\tfunction transferOwnership(address _theAO) public onlyTheAO {\n\t\trequire (_theAO != address(0));\n\t\ttheAO = _theAO;\n\t}\n\n\t/**\n\t * @dev Whitelist `_account` address to transact on behalf of others\n\t * @param _account The address to whitelist\n\t * @param _whitelist Either to whitelist or not\n\t */\n\tfunction setWhitelist(address _account, bool _whitelist) public onlyTheAO {\n\t\trequire (_account != address(0));\n\t\twhitelist[_account] = _whitelist;\n\t}\n\n\t/**\n\t * @dev The AO sets NameFactory address\n\t * @param _nameFactoryAddress The address of NameFactory\n\t */\n\tfunction setNameFactoryAddress(address _nameFactoryAddress) public onlyTheAO {\n\t\trequire (_nameFactoryAddress != address(0));\n\t\tnameFactoryAddress = _nameFactoryAddress;\n\t\t_nameFactory = INameFactory(_nameFactoryAddress);\n\t}\n\n\t/**\n\t * @dev The AO sets NameTAOPosition address\n\t * @param _nameTAOPositionAddress The address of NameTAOPosition\n\t */\n\tfunction setNameTAOPositionAddress(address _nameTAOPositionAddress) public onlyTheAO {\n\t\trequire (_nameTAOPositionAddress != address(0));\n\t\tnameTAOPositionAddress = _nameTAOPositionAddress;\n\t\t_nameTAOPosition = INameTAOPosition(_nameTAOPositionAddress);\n\t}\n\n\t/**\n\t * @dev The AO set the NameAccountRecovery Address\n\t * @param _nameAccountRecoveryAddress The address of NameAccountRecovery\n\t */\n\tfunction setNameAccountRecoveryAddress(address _nameAccountRecoveryAddress) public onlyTheAO {\n\t\trequire (_nameAccountRecoveryAddress != address(0));\n\t\tnameAccountRecoveryAddress = _nameAccountRecoveryAddress;\n\t\t_nameAccountRecovery = INameAccountRecovery(nameAccountRecoveryAddress);\n\t}\n\n\t/**\n\t * @dev The AO sets AOSettingAttribute address\n\t * @param _aoSettingAttributeAddress The address of AOSettingAttribute\n\t */\n\tfunction setAOSettingAttributeAddress(address _aoSettingAttributeAddress) public onlyTheAO {\n\t\trequire (_aoSettingAttributeAddress != address(0));\n\t\taoSettingAttributeAddress = _aoSettingAttributeAddress;\n\t\t_aoSettingAttribute = IAOSettingAttribute(_aoSettingAttributeAddress);\n\t}\n\n\t/**\n\t * @dev The AO sets AOSettingValue address\n\t * @param _aoSettingValueAddress The address of AOSettingValue\n\t */\n\tfunction setAOSettingValueAddress(address _aoSettingValueAddress) public onlyTheAO {\n\t\trequire (_aoSettingValueAddress != address(0));\n\t\taoSettingValueAddress = _aoSettingValueAddress;\n\t\t_aoSettingValue = IAOSettingValue(_aoSettingValueAddress);\n\t}\n\n\t/***** PUBLIC METHODS *****/\n\t/**\n\t * @dev Check whether or not a setting name of an associatedTAOId exist\n\t * @param _settingName The human-readable name of the setting\n\t * @param _associatedTAOId The taoId that the setting affects\n\t * @return true if yes. false otherwise\n\t */\n\tfunction settingNameExist(string _settingName, address _associatedTAOId) public view returns (bool) {\n\t\treturn (nameSettingLookup[_associatedTAOId][keccak256(abi.encodePacked(this, _settingName))] > 0);\n\t}\n\n\t/**\n\t * @dev Advocate of _creatorTAOId adds a uint setting\n\t * @param _settingName The human-readable name of the setting\n\t * @param _value The uint256 value of the setting\n\t * @param _creatorTAOId The taoId that created the setting\n\t * @param _associatedTAOId The taoId that the setting affects\n\t * @param _extraData Catch-all string value to be stored if exist\n\t */\n\tfunction addUintSetting(\n\t\tstring _settingName,\n\t\tuint256 _value,\n\t\taddress _creatorTAOId,\n\t\taddress _associatedTAOId,\n\t\tstring _extraData)\n\t\tpublic\n\t\tisTAO(_creatorTAOId)\n\t\tisTAO(_associatedTAOId)\n\t\tsettingNameNotTaken(_settingName, _associatedTAOId)\n\t\tonlyAdvocate(_creatorTAOId)\n\t\tsenderNameNotCompromised {\n\t\t// Update global variables\n\t\ttotalSetting++;\n\n\t\t_settingTypeLookup[totalSetting] = UINT_SETTING_TYPE;\n\n\t\t// Store the value as pending value\n\t\t_aoSettingValue.setPendingValue(totalSetting, address(0), false, '', '', _value);\n\n\t\t// Store setting creation data\n\t\t_storeSettingCreation(_nameFactory.ethAddressToNameId(msg.sender), _settingName, _creatorTAOId, _associatedTAOId, _extraData);\n\t}\n\n\t/**\n\t * @dev Advocate of _creatorTAOId adds a bool setting\n\t * @param _settingName The human-readable name of the setting\n\t * @param _value The bool value of the setting\n\t * @param _creatorTAOId The taoId that created the setting\n\t * @param _associatedTAOId The taoId that the setting affects\n\t * @param _extraData Catch-all string value to be stored if exist\n\t */\n\tfunction addBoolSetting(\n\t\tstring _settingName,\n\t\tbool _value,\n\t\taddress _creatorTAOId,\n\t\taddress _associatedTAOId,\n\t\tstring _extraData)\n\t\tpublic\n\t\tisTAO(_creatorTAOId)\n\t\tisTAO(_associatedTAOId)\n\t\tsettingNameNotTaken(_settingName, _associatedTAOId)\n\t\tonlyAdvocate(_creatorTAOId)\n\t\tsenderNameNotCompromised {\n\t\t// Update global variables\n\t\ttotalSetting++;\n\n\t\t_settingTypeLookup[totalSetting] = BOOL_SETTING_TYPE;\n\n\t\t// Store the value as pending value\n\t\t_aoSettingValue.setPendingValue(totalSetting, address(0), _value, '', '', 0);\n\n\t\t// Store setting creation data\n\t\t_storeSettingCreation(_nameFactory.ethAddressToNameId(msg.sender), _settingName, _creatorTAOId, _associatedTAOId, _extraData);\n\t}\n\n\t/**\n\t * @dev Advocate of _creatorTAOId adds an address setting\n\t * @param _settingName The human-readable name of the setting\n\t * @param _value The address value of the setting\n\t * @param _creatorTAOId The taoId that created the setting\n\t * @param _associatedTAOId The taoId that the setting affects\n\t * @param _extraData Catch-all string value to be stored if exist\n\t */\n\tfunction addAddressSetting(\n\t\tstring _settingName,\n\t\taddress _value,\n\t\taddress _creatorTAOId,\n\t\taddress _associatedTAOId,\n\t\tstring _extraData)\n\t\tpublic\n\t\tisTAO(_creatorTAOId)\n\t\tisTAO(_associatedTAOId)\n\t\tsettingNameNotTaken(_settingName, _associatedTAOId)\n\t\tonlyAdvocate(_creatorTAOId)\n\t\tsenderNameNotCompromised {\n\t\t// Update global variables\n\t\ttotalSetting++;\n\n\t\t_settingTypeLookup[totalSetting] = ADDRESS_SETTING_TYPE;\n\n\t\t// Store the value as pending value\n\t\t_aoSettingValue.setPendingValue(totalSetting, _value, false, '', '', 0);\n\n\t\t// Store setting creation data\n\t\t_storeSettingCreation(_nameFactory.ethAddressToNameId(msg.sender), _settingName, _creatorTAOId, _associatedTAOId, _extraData);\n\t}\n\n\t/**\n\t * @dev Advocate of _creatorTAOId adds a bytes32 setting\n\t * @param _settingName The human-readable name of the setting\n\t * @param _value The bytes32 value of the setting\n\t * @param _creatorTAOId The taoId that created the setting\n\t * @param _associatedTAOId The taoId that the setting affects\n\t * @param _extraData Catch-all string value to be stored if exist\n\t */\n\tfunction addBytesSetting(\n\t\tstring _settingName,\n\t\tbytes32 _value,\n\t\taddress _creatorTAOId,\n\t\taddress _associatedTAOId,\n\t\tstring _extraData)\n\t\tpublic\n\t\tisTAO(_creatorTAOId)\n\t\tisTAO(_associatedTAOId)\n\t\tsettingNameNotTaken(_settingName, _associatedTAOId)\n\t\tonlyAdvocate(_creatorTAOId)\n\t\tsenderNameNotCompromised {\n\t\t// Update global variables\n\t\ttotalSetting++;\n\n\t\t_settingTypeLookup[totalSetting] = BYTES_SETTING_TYPE;\n\n\t\t// Store the value as pending value\n\t\t_aoSettingValue.setPendingValue(totalSetting, address(0), false, _value, '', 0);\n\n\t\t// Store setting creation data\n\t\t_storeSettingCreation(_nameFactory.ethAddressToNameId(msg.sender), _settingName, _creatorTAOId, _associatedTAOId, _extraData);\n\t}\n\n\t/**\n\t * @dev Advocate of _creatorTAOId adds a string setting\n\t * @param _settingName The human-readable name of the setting\n\t * @param _value The string value of the setting\n\t * @param _creatorTAOId The taoId that created the setting\n\t * @param _associatedTAOId The taoId that the setting affects\n\t * @param _extraData Catch-all string value to be stored if exist\n\t */\n\tfunction addStringSetting(\n\t\tstring _settingName,\n\t\tstring _value,\n\t\taddress _creatorTAOId,\n\t\taddress _associatedTAOId,\n\t\tstring _extraData)\n\t\tpublic\n\t\tisTAO(_creatorTAOId)\n\t\tisTAO(_associatedTAOId)\n\t\tsettingNameNotTaken(_settingName, _associatedTAOId)\n\t\tonlyAdvocate(_creatorTAOId)\n\t\tsenderNameNotCompromised {\n\t\t// Update global variables\n\t\ttotalSetting++;\n\n\t\t_settingTypeLookup[totalSetting] = STRING_SETTING_TYPE;\n\n\t\t// Store the value as pending value\n\t\t_aoSettingValue.setPendingValue(totalSetting, address(0), false, '', _value, 0);\n\n\t\t// Store setting creation data\n\t\t_storeSettingCreation(_nameFactory.ethAddressToNameId(msg.sender), _settingName, _creatorTAOId, _associatedTAOId, _extraData);\n\t}\n\n\t/**\n\t * @dev Advocate of Setting's _associatedTAOId approves setting creation\n\t * @param _settingId The ID of the setting to approve\n\t * @param _approved Whether to approve or reject\n\t */\n\tfunction approveSettingCreation(uint256 _settingId, bool _approved) public senderIsName senderNameNotCompromised {\n\t\taddress _associatedTAOAdvocate = _nameFactory.ethAddressToNameId(msg.sender);\n\t\trequire (_aoSettingAttribute.approveAdd(_settingId, _associatedTAOAdvocate, _approved));\n\t\t(,,, address _associatedTAOId, string memory _settingName,,,,) = _aoSettingAttribute.getSettingData(_settingId);\n\t\tif (!_approved) {\n\t\t\t// Clear the settingName from nameSettingLookup so it can be added again in the future\n\t\t\tdelete nameSettingLookup[_associatedTAOId][keccak256(abi.encodePacked(this, _settingName))];\n\t\t\tdelete _settingTypeLookup[_settingId];\n\t\t}\n\t\temit ApproveSettingCreation(_settingId, _associatedTAOId, _associatedTAOAdvocate, _approved);\n\t}\n\n\t/**\n\t * @dev Advocate of Setting's _creatorTAOId finalizes the setting creation once the setting is approved\n\t * @param _settingId The ID of the setting to be finalized\n\t */\n\tfunction finalizeSettingCreation(uint256 _settingId) public senderIsName senderNameNotCompromised {\n\t\taddress _creatorTAOAdvocate = _nameFactory.ethAddressToNameId(msg.sender);\n\t\trequire (_aoSettingAttribute.finalizeAdd(_settingId, _creatorTAOAdvocate));\n\n\t\t(,,address _creatorTAOId,,,,,,) = _aoSettingAttribute.getSettingData(_settingId);\n\n\t\trequire (_aoSettingValue.movePendingToSetting(_settingId));\n\n\t\temit FinalizeSettingCreation(_settingId, _creatorTAOId, _creatorTAOAdvocate);\n\t}\n\n\t/**\n\t * @dev Get setting type of a setting ID\n\t * @param _settingId The ID of the setting\n\t * @return the setting type value\n\t *\t\t   setting type 1 => uint256, 2 => bool, 3 => address, 4 => bytes32, 5 => string\n\t */\n\tfunction settingTypeLookup(uint256 _settingId) external view returns (uint8) {\n\t\treturn _settingTypeLookup[_settingId];\n\t}\n\n\t/**\n\t * @dev Get setting Id given an associatedTAOId and settingName\n\t * @param _associatedTAOId The ID of the AssociatedTAO\n\t * @param _settingName The name of the setting\n\t * @return the ID of the setting\n\t */\n\tfunction getSettingIdByTAOName(address _associatedTAOId, string _settingName) public view returns (uint256) {\n\t\treturn nameSettingLookup[_associatedTAOId][keccak256(abi.encodePacked(this, _settingName))];\n\t}\n\n\t/**\n\t * @dev Get setting values by setting ID.\n\t *\t\tWill throw error if the setting is not exist or rejected.\n\t * @param _settingId The ID of the setting\n\t * @return the uint256 value of this setting ID\n\t * @return the bool value of this setting ID\n\t * @return the address value of this setting ID\n\t * @return the bytes32 value of this setting ID\n\t * @return the string value of this setting ID\n\t */\n\tfunction getSettingValuesById(uint256 _settingId) public view returns (uint256, bool, address, bytes32, string) {\n\t\trequire (_aoSettingAttribute.settingExist(_settingId));\n\t\t_settingId = _aoSettingAttribute.getLatestSettingId(_settingId);\n\t\t(address _addressValue, bool _boolValue, bytes32 _bytesValue, string memory _stringValue, uint256 _uintValue) = _aoSettingValue.settingValue(_settingId);\n\t\treturn (_uintValue, _boolValue, _addressValue, _bytesValue, _stringValue);\n\t}\n\n\t/**\n\t * @dev Get setting values by taoId and settingName.\n\t *\t\tWill throw error if the setting is not exist or rejected.\n\t * @param _taoId The ID of the TAO\n\t * @param _settingName The name of the setting\n\t * @return the uint256 value of this setting ID\n\t * @return the bool value of this setting ID\n\t * @return the address value of this setting ID\n\t * @return the bytes32 value of this setting ID\n\t * @return the string value of this setting ID\n\t */\n\tfunction getSettingValuesByTAOName(address _taoId, string _settingName) external view returns (uint256, bool, address, bytes32, string) {\n\t\treturn getSettingValuesById(getSettingIdByTAOName(_taoId, _settingName));\n\t}\n\n\t/**\n\t * @dev Return the setting type values\n\t * @return The setting type value for address\n\t * @return The setting type value for bool\n\t * @return The setting type value for bytes\n\t * @return The setting type value for string\n\t * @return The setting type value for uint\n\t */\n\tfunction getSettingTypes() external view returns (uint8, uint8, uint8, uint8, uint8) {\n\t\treturn (\n\t\t\tADDRESS_SETTING_TYPE,\n\t\t\tBOOL_SETTING_TYPE,\n\t\t\tBYTES_SETTING_TYPE,\n\t\t\tSTRING_SETTING_TYPE,\n\t\t\tUINT_SETTING_TYPE\n\t\t);\n\t}\n\n\t/***** Internal Method *****/\n\t/**\n\t * @dev Store setting creation data\n\t * @param _creatorNameId The nameId that created the setting\n\t * @param _settingName The human-readable name of the setting\n\t * @param _creatorTAOId The taoId that created the setting\n\t * @param _associatedTAOId The taoId that the setting affects\n\t * @param _extraData Catch-all string value to be stored if exist\n\t */\n\tfunction _storeSettingCreation(address _creatorNameId, string _settingName, address _creatorTAOId, address _associatedTAOId, string _extraData) internal {\n\t\t// Store nameSettingLookup\n\t\tnameSettingLookup[_associatedTAOId][keccak256(abi.encodePacked(address(this), _settingName))] = totalSetting;\n\n\t\t// Store setting data/state\n\t\t(bytes32 _associatedTAOSettingId, bytes32 _creatorTAOSettingId) = _aoSettingAttribute.add(totalSetting, _creatorNameId, _settingName, _creatorTAOId, _associatedTAOId, _extraData);\n\n\t\temit SettingCreation(totalSetting, _creatorNameId, _creatorTAOId, _associatedTAOId, _settingName, _associatedTAOSettingId, _creatorTAOSettingId);\n\t}\n}\n",
	"sourcePath": "/data/jmulyono/ao-contracts/contracts/AOSetting.sol",
	"compiler": {
		"name": "solc",
		"version": "0.4.24+commit.e67f0147.Emscripten.clang"
	},
	"schemaVersion": "2.0.1",
	"updatedAt": "2019-02-22T08:49:01.098Z"
}