{
	"contractName": "AOSettingValue",
	"abi": [
		{
			"constant": true,
			"inputs": [],
			"name": "nameTAOPositionAddress",
			"outputs": [
				{
					"name": "",
					"type": "address"
				}
			],
			"payable": false,
			"stateMutability": "view",
			"type": "function"
		},
		{
			"constant": true,
			"inputs": [
				{
					"name": "",
					"type": "address"
				}
			],
			"name": "whitelist",
			"outputs": [
				{
					"name": "",
					"type": "bool"
				}
			],
			"payable": false,
			"stateMutability": "view",
			"type": "function"
		},
		{
			"constant": true,
			"inputs": [],
			"name": "theAO",
			"outputs": [
				{
					"name": "",
					"type": "address"
				}
			],
			"payable": false,
			"stateMutability": "view",
			"type": "function"
		},
		{
			"inputs": [
				{
					"name": "_nameTAOPositionAddress",
					"type": "address"
				}
			],
			"payable": false,
			"stateMutability": "nonpayable",
			"type": "constructor"
		},
		{
			"constant": false,
			"inputs": [
				{
					"name": "_theAO",
					"type": "address"
				}
			],
			"name": "transferOwnership",
			"outputs": [],
			"payable": false,
			"stateMutability": "nonpayable",
			"type": "function"
		},
		{
			"constant": false,
			"inputs": [
				{
					"name": "_account",
					"type": "address"
				},
				{
					"name": "_whitelist",
					"type": "bool"
				}
			],
			"name": "setWhitelist",
			"outputs": [],
			"payable": false,
			"stateMutability": "nonpayable",
			"type": "function"
		},
		{
			"constant": false,
			"inputs": [
				{
					"name": "_nameTAOPositionAddress",
					"type": "address"
				}
			],
			"name": "setNameTAOPositionAddress",
			"outputs": [],
			"payable": false,
			"stateMutability": "nonpayable",
			"type": "function"
		},
		{
			"constant": false,
			"inputs": [
				{
					"name": "_settingId",
					"type": "uint256"
				},
				{
					"name": "_addressValue",
					"type": "address"
				},
				{
					"name": "_boolValue",
					"type": "bool"
				},
				{
					"name": "_bytesValue",
					"type": "bytes32"
				},
				{
					"name": "_stringValue",
					"type": "string"
				},
				{
					"name": "_uintValue",
					"type": "uint256"
				}
			],
			"name": "setPendingValue",
			"outputs": [
				{
					"name": "",
					"type": "bool"
				}
			],
			"payable": false,
			"stateMutability": "nonpayable",
			"type": "function"
		},
		{
			"constant": false,
			"inputs": [
				{
					"name": "_settingId",
					"type": "uint256"
				}
			],
			"name": "movePendingToSetting",
			"outputs": [
				{
					"name": "",
					"type": "bool"
				}
			],
			"payable": false,
			"stateMutability": "nonpayable",
			"type": "function"
		},
		{
			"constant": true,
			"inputs": [
				{
					"name": "_settingId",
					"type": "uint256"
				}
			],
			"name": "settingValue",
			"outputs": [
				{
					"name": "",
					"type": "address"
				},
				{
					"name": "",
					"type": "bool"
				},
				{
					"name": "",
					"type": "bytes32"
				},
				{
					"name": "",
					"type": "string"
				},
				{
					"name": "",
					"type": "uint256"
				}
			],
			"payable": false,
			"stateMutability": "view",
			"type": "function"
		},
		{
			"constant": true,
			"inputs": [
				{
					"name": "_settingId",
					"type": "uint256"
				}
			],
			"name": "pendingValue",
			"outputs": [
				{
					"name": "",
					"type": "address"
				},
				{
					"name": "",
					"type": "bool"
				},
				{
					"name": "",
					"type": "bytes32"
				},
				{
					"name": "",
					"type": "string"
				},
				{
					"name": "",
					"type": "uint256"
				}
			],
			"payable": false,
			"stateMutability": "view",
			"type": "function"
		}
	],
	"bytecode": "0x608060405234801561001057600080fd5b50604051602080610d61833981016040525160008054600160a060020a031916331790556100468164010000000061004c810204565b50610142565b600054600154604080517ff66afcac000000000000000000000000000000000000000000000000000000008152336004820152600160a060020a0393841660248201529290911660448301525173__AOLibrary_____________________________9163f66afcac916064808301926020929190829003018186803b1580156100d457600080fd5b505af41580156100e8573d6000803e3d6000fd5b505050506040513d60208110156100fe57600080fd5b5051151561010b57600080fd5b600160a060020a038116151561012057600080fd5b60018054600160a060020a031916600160a060020a0392909216919091179055565b610c10806101516000396000f3006080604052600436106100a35763ffffffff7c0100000000000000000000000000000000000000000000000000000000600035041663088fc1a881146100a85780634ef033f0146100d457806353d6fd59146101055780635cfaf2ef1461012d5780639b19251a1461014e5780639ba535ce1461016f578063a9b6b38e1461022d578063af9e8b1614610242578063ccdd6afd1461025a578063f2fde38b14610298575b600080fd5b3480156100b457600080fd5b506100c06004356102b9565b604080519115158252519081900360200190f35b3480156100e057600080fd5b506100e96104b9565b60408051600160a060020a039092168252519081900360200190f35b34801561011157600080fd5b5061012b600160a060020a036004351660243515156104c8565b005b34801561013957600080fd5b5061012b600160a060020a03600435166105c7565b34801561015a57600080fd5b506100c0600160a060020a03600435166106ca565b34801561017b57600080fd5b506101876004356106df565b60408051600160a060020a03871681528515156020808301919091529181018590526080810183905260a06060820181815285519183019190915284519192909160c084019186019080838360005b838110156101ee5781810151838201526020016101d6565b50505050905090810190601f16801561021b5780820380516001836020036101000a031916815260200191505b50965050505050505060405180910390f35b34801561023957600080fd5b506100e96107fc565b34801561024e57600080fd5b5061018760043561080b565b34801561026657600080fd5b506100c0600480359060248035600160a060020a0316916044351515916064359160843591820191013560a4356108c0565b3480156102a457600080fd5b5061012b600160a060020a0360043516610964565b60006102c3610a67565b3360009081526002602052604081205460ff1615156001146102e457600080fd5b600084815260036020908152604091829020825160a0810184528154600160a060020a038116825260ff60a060020a9091041615158184015260018083015482860152600280840180548751601f9482161561010002600019019091169290920492830186900486028201860190965281815291949293606086019391908301828280156103b35780601f10610388576101008083540402835291602001916103b3565b820191906000526020600020905b81548152906001019060200180831161039657829003601f168201915b5050509183525050600391909101546020918201526000868152600482526040908190208351815485850151151560a060020a0274ff000000000000000000000000000000000000000019600160a060020a0390931673ffffffffffffffffffffffffffffffffffffffff199092169190911791909116178155908301516001820155606083015180519395509093506104569260028501929190910190610a94565b506080820151600380830191909155600085815260209190915260408120805474ffffffffffffffffffffffffffffffffffffffffff1916815560018101829055906104a56002830182610b12565b506000600391909101555060019392505050565b600154600160a060020a031681565b600054600154604080517ff66afcac000000000000000000000000000000000000000000000000000000008152336004820152600160a060020a0393841660248201529290911660448301525173__AOLibrary_____________________________9163f66afcac916064808301926020929190829003018186803b15801561055057600080fd5b505af4158015610564573d6000803e3d6000fd5b505050506040513d602081101561057a57600080fd5b5051151561058757600080fd5b600160a060020a038216151561059c57600080fd5b600160a060020a03919091166000908152600260205260409020805460ff1916911515919091179055565b600054600154604080517ff66afcac000000000000000000000000000000000000000000000000000000008152336004820152600160a060020a0393841660248201529290911660448301525173__AOLibrary_____________________________9163f66afcac916064808301926020929190829003018186803b15801561064f57600080fd5b505af4158015610663573d6000803e3d6000fd5b505050506040513d602081101561067957600080fd5b5051151561068657600080fd5b600160a060020a038116151561069b57600080fd5b6001805473ffffffffffffffffffffffffffffffffffffffff1916600160a060020a0392909216919091179055565b60026020526000908152604090205460ff1681565b6000806000606060006106f0610a67565b600087815260046020908152604091829020825160a0810184528154600160a060020a038116825260ff60a060020a9091041615158184015260018083015482860152600280840180548751601f9482161561010002600019019091169290920492830186900486028201860190965281815291949293606086019391908301828280156107bf5780601f10610794576101008083540402835291602001916107bf565b820191906000526020600020905b8154815290600101906020018083116107a257829003601f168201915b50505091835250506003919091015460209182015281519082015160408301516060840151608090940151929b919a509850919650945092505050565b600054600160a060020a031681565b60008060006060600061081c610a67565b600087815260036020908152604091829020825160a0810184528154600160a060020a038116825260ff60a060020a9091041615158184015260018083015482860152600280840180548751601f9482161561010002600019019091169290920492830186900486028201860190965281815291949293606086019391908301828280156107bf5780601f10610794576101008083540402835291602001916107bf565b33600090815260026020526040812054819060ff1615156001146108e357600080fd5b506000888152600360205260409020805473ffffffffffffffffffffffffffffffffffffffff1916600160a060020a0389161774ff0000000000000000000000000000000000000000191660a060020a881515021781556001810186905561094f600282018686610b59565b50600301919091555060019695505050505050565b600054600154604080517ff66afcac000000000000000000000000000000000000000000000000000000008152336004820152600160a060020a0393841660248201529290911660448301525173__AOLibrary_____________________________9163f66afcac916064808301926020929190829003018186803b1580156109ec57600080fd5b505af4158015610a00573d6000803e3d6000fd5b505050506040513d6020811015610a1657600080fd5b50511515610a2357600080fd5b600160a060020a0381161515610a3857600080fd5b6000805473ffffffffffffffffffffffffffffffffffffffff1916600160a060020a0392909216919091179055565b6040805160a081018252600080825260208201819052918101829052606080820152608081019190915290565b828054600181600116156101000203166002900490600052602060002090601f016020900481019282601f10610ad557805160ff1916838001178555610b02565b82800160010185558215610b02579182015b82811115610b02578251825591602001919060010190610ae7565b50610b0e929150610bc7565b5090565b50805460018160011615610100020316600290046000825580601f10610b385750610b56565b601f016020900490600052602060002090810190610b569190610bc7565b50565b828054600181600116156101000203166002900490600052602060002090601f016020900481019282601f10610b9a5782800160ff19823516178555610b02565b82800160010185558215610b02579182015b82811115610b02578235825591602001919060010190610bac565b610be191905b80821115610b0e5760008155600101610bcd565b905600a165627a7a72305820dc5a1849d550db81abf1327a3bc912b5878ef86d8403efd78f77793e854b26180029",
	"source": "pragma solidity ^0.4.24;\n\nimport './AOLibrary.sol';\nimport './TheAO.sol';\nimport './IAOSettingValue.sol';\n\n/**\n * @title AOSettingValue\n *\n */\ncontract AOSettingValue is TheAO, IAOSettingValue {\n\tstruct PendingValue {\n\t\taddress addressValue;\n\t\tbool boolValue;\n\t\tbytes32 bytesValue;\n\t\tstring stringValue;\n\t\tuint256 uintValue;\n\t}\n\n\tstruct SettingValue {\n\t\taddress addressValue;\n\t\tbool boolValue;\n\t\tbytes32 bytesValue;\n\t\tstring stringValue;\n\t\tuint256 uintValue;\n\t}\n\n\t// Mapping from settingId to PendingValue\n\tmapping (uint256 => PendingValue) internal pendingValues;\n\n\t// Mapping from settingId to SettingValue\n\tmapping (uint256 => SettingValue) internal settingValues;\n\n\t/**\n\t * @dev Constructor function\n\t */\n\tconstructor(address _nameTAOPositionAddress) public {\n\t\tsetNameTAOPositionAddress(_nameTAOPositionAddress);\n\t}\n\n\t/**\n\t * @dev Checks if the calling contract address is The AO\n\t *\t\tOR\n\t *\t\tIf The AO is set to a Name/TAO, then check if calling address is the Advocate\n\t */\n\tmodifier onlyTheAO {\n\t\trequire (AOLibrary.isTheAO(msg.sender, theAO, nameTAOPositionAddress));\n\t\t_;\n\t}\n\n\t/***** The AO ONLY METHODS *****/\n\t/**\n\t * @dev Transfer ownership of The AO to new address\n\t * @param _theAO The new address to be transferred\n\t */\n\tfunction transferOwnership(address _theAO) public onlyTheAO {\n\t\trequire (_theAO != address(0));\n\t\ttheAO = _theAO;\n\t}\n\n\t/**\n\t * @dev Whitelist `_account` address to transact on behalf of others\n\t * @param _account The address to whitelist\n\t * @param _whitelist Either to whitelist or not\n\t */\n\tfunction setWhitelist(address _account, bool _whitelist) public onlyTheAO {\n\t\trequire (_account != address(0));\n\t\twhitelist[_account] = _whitelist;\n\t}\n\n\t/**\n\t * @dev The AO set the NameTAOPosition Address\n\t * @param _nameTAOPositionAddress The address of NameTAOPosition\n\t */\n\tfunction setNameTAOPositionAddress(address _nameTAOPositionAddress) public onlyTheAO {\n\t\trequire (_nameTAOPositionAddress != address(0));\n\t\tnameTAOPositionAddress = _nameTAOPositionAddress;\n\t}\n\n\t/***** PUBLIC METHODS *****/\n\t/**\n\t * @dev Set pending value\n\t * @param _settingId The ID of the setting\n\t * @param _addressValue The address value to be set\n\t * @param _boolValue The bool value to be set\n\t * @param _bytesValue The bytes32 value to be set\n\t * @param _stringValue The string value to be set\n\t * @param _uintValue The uint256 value to be set\n\t * @return true on success\n\t */\n\tfunction setPendingValue(uint256 _settingId,\n\t\taddress _addressValue,\n\t\tbool _boolValue,\n\t\tbytes32 _bytesValue,\n\t\tstring _stringValue,\n\t\tuint256 _uintValue) external inWhitelist returns (bool) {\n\t\tPendingValue storage _pendingValue = pendingValues[_settingId];\n\t\t_pendingValue.addressValue = _addressValue;\n\t\t_pendingValue.boolValue = _boolValue;\n\t\t_pendingValue.bytesValue = _bytesValue;\n\t\t_pendingValue.stringValue = _stringValue;\n\t\t_pendingValue.uintValue = _uintValue;\n\t\treturn true;\n\t}\n\n\t/**\n\t * @dev Move value from pending to setting\n\t * @param _settingId The ID of the setting\n\t * @return true on success\n\t */\n\tfunction movePendingToSetting(uint256 _settingId) external inWhitelist returns (bool) {\n\t\tPendingValue memory _pendingValue = pendingValues[_settingId];\n\t\tSettingValue storage _settingValue = settingValues[_settingId];\n\t\t_settingValue.addressValue = _pendingValue.addressValue;\n\t\t_settingValue.boolValue = _pendingValue.boolValue;\n\t\t_settingValue.bytesValue = _pendingValue.bytesValue;\n\t\t_settingValue.stringValue = _pendingValue.stringValue;\n\t\t_settingValue.uintValue = _pendingValue.uintValue;\n\t\tdelete pendingValues[_settingId];\n\t\treturn true;\n\t}\n\n\t/**\n\t * @dev Get setting value given a setting ID\n\t * @return The address setting value\n\t * @return The bool setting value\n\t * @return The bytes32 setting value\n\t * @return The string setting value\n\t * @return The uint256 setting value\n\t */\n\tfunction settingValue(uint256 _settingId) external view returns (address, bool, bytes32, string, uint256) {\n\t\tSettingValue memory _settingValue = settingValues[_settingId];\n\t\treturn (\n\t\t\t_settingValue.addressValue,\n\t\t\t_settingValue.boolValue,\n\t\t\t_settingValue.bytesValue,\n\t\t\t_settingValue.stringValue,\n\t\t\t_settingValue.uintValue\n\t\t);\n\t}\n\n\t/**\n\t * @dev Get pending value given a setting ID\n\t * @return The address pending value\n\t * @return The bool pending value\n\t * @return The bytes32 pending value\n\t * @return The string pending value\n\t * @return The uint256 pending value\n\t */\n\tfunction pendingValue(uint256 _settingId) public view returns (address, bool, bytes32, string, uint256) {\n\t\tPendingValue memory _pendingValue = pendingValues[_settingId];\n\t\treturn (\n\t\t\t_pendingValue.addressValue,\n\t\t\t_pendingValue.boolValue,\n\t\t\t_pendingValue.bytesValue,\n\t\t\t_pendingValue.stringValue,\n\t\t\t_pendingValue.uintValue\n\t\t);\n\t}\n}\n",
	"sourcePath": "/Users/johanmulyono/Work/AO/ao-contracts/contracts/AOSettingValue.sol",
	"compiler": {
		"name": "solc",
		"version": "0.4.24+commit.e67f0147.Emscripten.clang"
	},
	"schemaVersion": "2.0.1",
	"updatedAt": "2019-03-22T03:50:43.541Z"
}