{
	"contractName": "AOSettingUpdate",
	"abi": [
		{
			"constant": true,
			"inputs": [
				{
					"name": "",
					"type": "bytes32"
				}
			],
			"name": "updateHashLookup",
			"outputs": [
				{
					"name": "",
					"type": "uint256"
				}
			],
			"payable": false,
			"stateMutability": "view",
			"type": "function"
		},
		{
			"constant": true,
			"inputs": [
				{
					"name": "",
					"type": "uint256"
				}
			],
			"name": "updateSignatures",
			"outputs": [
				{
					"name": "signatureV",
					"type": "uint8"
				},
				{
					"name": "signatureR",
					"type": "bytes32"
				},
				{
					"name": "signatureS",
					"type": "bytes32"
				}
			],
			"payable": false,
			"stateMutability": "view",
			"type": "function"
		},
		{
			"constant": true,
			"inputs": [],
			"name": "aoSettingAddress",
			"outputs": [
				{
					"name": "",
					"type": "address"
				}
			],
			"payable": false,
			"stateMutability": "view",
			"type": "function"
		},
		{
			"constant": true,
			"inputs": [],
			"name": "nameTAOPositionAddress",
			"outputs": [
				{
					"name": "",
					"type": "address"
				}
			],
			"payable": false,
			"stateMutability": "view",
			"type": "function"
		},
		{
			"constant": true,
			"inputs": [
				{
					"name": "",
					"type": "address"
				}
			],
			"name": "whitelist",
			"outputs": [
				{
					"name": "",
					"type": "bool"
				}
			],
			"payable": false,
			"stateMutability": "view",
			"type": "function"
		},
		{
			"constant": true,
			"inputs": [],
			"name": "nameAccountRecoveryAddress",
			"outputs": [
				{
					"name": "",
					"type": "address"
				}
			],
			"payable": false,
			"stateMutability": "view",
			"type": "function"
		},
		{
			"constant": true,
			"inputs": [],
			"name": "theAO",
			"outputs": [
				{
					"name": "",
					"type": "address"
				}
			],
			"payable": false,
			"stateMutability": "view",
			"type": "function"
		},
		{
			"constant": true,
			"inputs": [],
			"name": "nameFactoryAddress",
			"outputs": [
				{
					"name": "",
					"type": "address"
				}
			],
			"payable": false,
			"stateMutability": "view",
			"type": "function"
		},
		{
			"constant": true,
			"inputs": [],
			"name": "aoSettingAttributeAddress",
			"outputs": [
				{
					"name": "",
					"type": "address"
				}
			],
			"payable": false,
			"stateMutability": "view",
			"type": "function"
		},
		{
			"constant": true,
			"inputs": [],
			"name": "aoSettingValueAddress",
			"outputs": [
				{
					"name": "",
					"type": "address"
				}
			],
			"payable": false,
			"stateMutability": "view",
			"type": "function"
		},
		{
			"inputs": [
				{
					"name": "_nameFactoryAddress",
					"type": "address"
				},
				{
					"name": "_nameTAOPositionAddress",
					"type": "address"
				},
				{
					"name": "_nameAccountRecoveryAddress",
					"type": "address"
				},
				{
					"name": "_aoSettingAttributeAddress",
					"type": "address"
				},
				{
					"name": "_aoSettingValueAddress",
					"type": "address"
				},
				{
					"name": "_aoSettingAddress",
					"type": "address"
				}
			],
			"payable": false,
			"stateMutability": "nonpayable",
			"type": "constructor"
		},
		{
			"anonymous": false,
			"inputs": [
				{
					"indexed": true,
					"name": "settingId",
					"type": "uint256"
				},
				{
					"indexed": true,
					"name": "updateAdvocateNameId",
					"type": "address"
				},
				{
					"indexed": false,
					"name": "proposalTAOId",
					"type": "address"
				}
			],
			"name": "SettingUpdate",
			"type": "event"
		},
		{
			"anonymous": false,
			"inputs": [
				{
					"indexed": true,
					"name": "settingId",
					"type": "uint256"
				},
				{
					"indexed": false,
					"name": "proposalTAOId",
					"type": "address"
				},
				{
					"indexed": false,
					"name": "proposalTAOAdvocate",
					"type": "address"
				},
				{
					"indexed": false,
					"name": "approved",
					"type": "bool"
				}
			],
			"name": "ApproveSettingUpdate",
			"type": "event"
		},
		{
			"anonymous": false,
			"inputs": [
				{
					"indexed": true,
					"name": "settingId",
					"type": "uint256"
				},
				{
					"indexed": false,
					"name": "associatedTAOId",
					"type": "address"
				},
				{
					"indexed": false,
					"name": "associatedTAOAdvocate",
					"type": "address"
				}
			],
			"name": "FinalizeSettingUpdate",
			"type": "event"
		},
		{
			"constant": false,
			"inputs": [
				{
					"name": "_theAO",
					"type": "address"
				}
			],
			"name": "transferOwnership",
			"outputs": [],
			"payable": false,
			"stateMutability": "nonpayable",
			"type": "function"
		},
		{
			"constant": false,
			"inputs": [
				{
					"name": "_account",
					"type": "address"
				},
				{
					"name": "_whitelist",
					"type": "bool"
				}
			],
			"name": "setWhitelist",
			"outputs": [],
			"payable": false,
			"stateMutability": "nonpayable",
			"type": "function"
		},
		{
			"constant": false,
			"inputs": [
				{
					"name": "_nameFactoryAddress",
					"type": "address"
				}
			],
			"name": "setNameFactoryAddress",
			"outputs": [],
			"payable": false,
			"stateMutability": "nonpayable",
			"type": "function"
		},
		{
			"constant": false,
			"inputs": [
				{
					"name": "_nameTAOPositionAddress",
					"type": "address"
				}
			],
			"name": "setNameTAOPositionAddress",
			"outputs": [],
			"payable": false,
			"stateMutability": "nonpayable",
			"type": "function"
		},
		{
			"constant": false,
			"inputs": [
				{
					"name": "_nameAccountRecoveryAddress",
					"type": "address"
				}
			],
			"name": "setNameAccountRecoveryAddress",
			"outputs": [],
			"payable": false,
			"stateMutability": "nonpayable",
			"type": "function"
		},
		{
			"constant": false,
			"inputs": [
				{
					"name": "_aoSettingAttributeAddress",
					"type": "address"
				}
			],
			"name": "setAOSettingAttributeAddress",
			"outputs": [],
			"payable": false,
			"stateMutability": "nonpayable",
			"type": "function"
		},
		{
			"constant": false,
			"inputs": [
				{
					"name": "_aoSettingValueAddress",
					"type": "address"
				}
			],
			"name": "setAOSettingValueAddress",
			"outputs": [],
			"payable": false,
			"stateMutability": "nonpayable",
			"type": "function"
		},
		{
			"constant": false,
			"inputs": [
				{
					"name": "_aoSettingAddress",
					"type": "address"
				}
			],
			"name": "setAOSettingAddress",
			"outputs": [],
			"payable": false,
			"stateMutability": "nonpayable",
			"type": "function"
		},
		{
			"constant": false,
			"inputs": [
				{
					"name": "_settingId",
					"type": "uint256"
				},
				{
					"name": "_newValue",
					"type": "address"
				},
				{
					"name": "_proposalTAOId",
					"type": "address"
				},
				{
					"name": "_signatureV",
					"type": "uint8"
				},
				{
					"name": "_signatureR",
					"type": "bytes32"
				},
				{
					"name": "_signatureS",
					"type": "bytes32"
				},
				{
					"name": "_extraData",
					"type": "string"
				}
			],
			"name": "updateAddressSetting",
			"outputs": [],
			"payable": false,
			"stateMutability": "nonpayable",
			"type": "function"
		},
		{
			"constant": false,
			"inputs": [
				{
					"name": "_settingId",
					"type": "uint256"
				},
				{
					"name": "_newValue",
					"type": "bool"
				},
				{
					"name": "_proposalTAOId",
					"type": "address"
				},
				{
					"name": "_signatureV",
					"type": "uint8"
				},
				{
					"name": "_signatureR",
					"type": "bytes32"
				},
				{
					"name": "_signatureS",
					"type": "bytes32"
				},
				{
					"name": "_extraData",
					"type": "string"
				}
			],
			"name": "updateBoolSetting",
			"outputs": [],
			"payable": false,
			"stateMutability": "nonpayable",
			"type": "function"
		},
		{
			"constant": false,
			"inputs": [
				{
					"name": "_settingId",
					"type": "uint256"
				},
				{
					"name": "_newValue",
					"type": "bytes32"
				},
				{
					"name": "_proposalTAOId",
					"type": "address"
				},
				{
					"name": "_signatureV",
					"type": "uint8"
				},
				{
					"name": "_signatureR",
					"type": "bytes32"
				},
				{
					"name": "_signatureS",
					"type": "bytes32"
				},
				{
					"name": "_extraData",
					"type": "string"
				}
			],
			"name": "updateBytesSetting",
			"outputs": [],
			"payable": false,
			"stateMutability": "nonpayable",
			"type": "function"
		},
		{
			"constant": false,
			"inputs": [
				{
					"name": "_settingId",
					"type": "uint256"
				},
				{
					"name": "_newValue",
					"type": "string"
				},
				{
					"name": "_proposalTAOId",
					"type": "address"
				},
				{
					"name": "_signatureV",
					"type": "uint8"
				},
				{
					"name": "_signatureR",
					"type": "bytes32"
				},
				{
					"name": "_signatureS",
					"type": "bytes32"
				},
				{
					"name": "_extraData",
					"type": "string"
				}
			],
			"name": "updateStringSetting",
			"outputs": [],
			"payable": false,
			"stateMutability": "nonpayable",
			"type": "function"
		},
		{
			"constant": false,
			"inputs": [
				{
					"name": "_settingId",
					"type": "uint256"
				},
				{
					"name": "_newValue",
					"type": "uint256"
				},
				{
					"name": "_proposalTAOId",
					"type": "address"
				},
				{
					"name": "_signatureV",
					"type": "uint8"
				},
				{
					"name": "_signatureR",
					"type": "bytes32"
				},
				{
					"name": "_signatureS",
					"type": "bytes32"
				},
				{
					"name": "_extraData",
					"type": "string"
				}
			],
			"name": "updateUintSetting",
			"outputs": [],
			"payable": false,
			"stateMutability": "nonpayable",
			"type": "function"
		},
		{
			"constant": false,
			"inputs": [
				{
					"name": "_settingId",
					"type": "uint256"
				},
				{
					"name": "_approved",
					"type": "bool"
				}
			],
			"name": "approveSettingUpdate",
			"outputs": [],
			"payable": false,
			"stateMutability": "nonpayable",
			"type": "function"
		},
		{
			"constant": false,
			"inputs": [
				{
					"name": "_settingId",
					"type": "uint256"
				}
			],
			"name": "finalizeSettingUpdate",
			"outputs": [],
			"payable": false,
			"stateMutability": "nonpayable",
			"type": "function"
		},
		{
			"constant": false,
			"inputs": [
				{
					"name": "_settingId",
					"type": "uint256"
				},
				{
					"name": "_newValue",
					"type": "uint256"
				},
				{
					"name": "_proposalTAOId",
					"type": "address"
				},
				{
					"name": "_v",
					"type": "uint8"
				},
				{
					"name": "_r",
					"type": "bytes32"
				},
				{
					"name": "_s",
					"type": "bytes32"
				}
			],
			"name": "_verifyAndStoreUpdateUintSignature",
			"outputs": [
				{
					"name": "",
					"type": "bool"
				}
			],
			"payable": false,
			"stateMutability": "nonpayable",
			"type": "function"
		}
	],
	"bytecode": "0x60806040523480156200001157600080fd5b5060405160c08062004bd983398101604090815281516020830151918301516060840151608085015160a09095015160008054600160a060020a03191633179055929491929091906200006d86640100000000620000dd810204565b6200008185640100000000620001e2810204565b6200009584640100000000620002e7810204565b620000a983640100000000620003ef810204565b620000bd82640100000000620004f4810204565b620000d181640100000000620005f9810204565b505050505050620006fe565b600054600154604080517ff66afcac000000000000000000000000000000000000000000000000000000008152336004820152600160a060020a0393841660248201529290911660448301525173__AOLibrary_____________________________9163f66afcac916064808301926020929190829003018186803b1580156200016657600080fd5b505af41580156200017b573d6000803e3d6000fd5b505050506040513d60208110156200019257600080fd5b50511515620001a057600080fd5b600160a060020a0381161515620001b657600080fd5b60038054600160a060020a03909216600160a060020a0319928316811790915560088054909216179055565b600054600154604080517ff66afcac000000000000000000000000000000000000000000000000000000008152336004820152600160a060020a0393841660248201529290911660448301525173__AOLibrary_____________________________9163f66afcac916064808301926020929190829003018186803b1580156200026b57600080fd5b505af415801562000280573d6000803e3d6000fd5b505050506040513d60208110156200029757600080fd5b50511515620002a557600080fd5b600160a060020a0381161515620002bb57600080fd5b60018054600160a060020a03909216600160a060020a0319928316811790915560098054909216179055565b600054600154604080517ff66afcac000000000000000000000000000000000000000000000000000000008152336004820152600160a060020a0393841660248201529290911660448301525173__AOLibrary_____________________________9163f66afcac916064808301926020929190829003018186803b1580156200037057600080fd5b505af415801562000385573d6000803e3d6000fd5b505050506040513d60208110156200039c57600080fd5b50511515620003aa57600080fd5b600160a060020a0381161515620003c057600080fd5b60048054600160a060020a0319908116600160a060020a039384161791829055600a8054929093169116179055565b600054600154604080517ff66afcac000000000000000000000000000000000000000000000000000000008152336004820152600160a060020a0393841660248201529290911660448301525173__AOLibrary_____________________________9163f66afcac916064808301926020929190829003018186803b1580156200047857600080fd5b505af41580156200048d573d6000803e3d6000fd5b505050506040513d6020811015620004a457600080fd5b50511515620004b257600080fd5b600160a060020a0381161515620004c857600080fd5b60058054600160a060020a03909216600160a060020a03199283168117909155600b8054909216179055565b600054600154604080517ff66afcac000000000000000000000000000000000000000000000000000000008152336004820152600160a060020a0393841660248201529290911660448301525173__AOLibrary_____________________________9163f66afcac916064808301926020929190829003018186803b1580156200057d57600080fd5b505af415801562000592573d6000803e3d6000fd5b505050506040513d6020811015620005a957600080fd5b50511515620005b757600080fd5b600160a060020a0381161515620005cd57600080fd5b60068054600160a060020a03909216600160a060020a03199283168117909155600c8054909216179055565b600054600154604080517ff66afcac000000000000000000000000000000000000000000000000000000008152336004820152600160a060020a0393841660248201529290911660448301525173__AOLibrary_____________________________9163f66afcac916064808301926020929190829003018186803b1580156200068257600080fd5b505af415801562000697573d6000803e3d6000fd5b505050506040513d6020811015620006ae57600080fd5b50511515620006bc57600080fd5b600160a060020a0381161515620006d257600080fd5b60078054600160a060020a03909216600160a060020a03199283168117909155600d8054909216179055565b6144cb806200070e6000396000f30060806040526004361061013a5763ffffffff60e060020a60003504166306fd7088811461013f57806309fac5101461016257806311a137b2146101e45780631b2dbff6146102645780631c89d9ae1461028e5780631d0138ff146102c85780631dfde2bd146102f95780631f1241161461031a5780633f056cb4146103375780634ef033f01461035857806353d6fd591461036d5780635cfaf2ef1461039357806372eca635146103b45780638c924361146103d557806394bdae77146103f65780639a44690e1461043d5780639b19251a146104555780639d7dd7de14610476578063a125f76314610536578063a4e5fad2146105b6578063a9b6b38e146105cb578063bc406206146105e0578063cf8477cf146105f5578063dc4c5d561461060a578063ec18d8ce1461061f578063f2fde38b146106a1575b600080fd5b34801561014b57600080fd5b50610160600160a060020a03600435166106c2565b005b34801561016e57600080fd5b50604080516020601f60c4356004818101359283018490048402850184019095528184526101609480359460248035151595600160a060020a03604435169560ff60643516956084359560a435953695919460e49491939092019181908401838280828437509497506107ac9650505050505050565b3480156101f057600080fd5b50604080516020601f60c435600481810135928301849004840285018401909552818452610160948035946024803595600160a060020a03604435169560ff60643516956084359560a435953695919460e4949193909201918190840183828082843750949750610e049650505050505050565b34801561027057600080fd5b5061027c600435611397565b60408051918252519081900360200190f35b34801561029a57600080fd5b506102a66004356113a9565b6040805160ff9094168452602084019290925282820152519081900360600190f35b3480156102d457600080fd5b506102dd6113ce565b60408051600160a060020a039092168252519081900360200190f35b34801561030557600080fd5b50610160600160a060020a03600435166113dd565b34801561032657600080fd5b5061016060043560243515156114ca565b34801561034357600080fd5b50610160600160a060020a0360043516611992565b34801561036457600080fd5b506102dd611a7c565b34801561037957600080fd5b50610160600160a060020a03600435166024351515611a8b565b34801561039f57600080fd5b50610160600160a060020a0360043516611b74565b3480156103c057600080fd5b50610160600160a060020a0360043516611c5e565b3480156103e157600080fd5b50610160600160a060020a0360043516611d48565b34801561040257600080fd5b50610429600435602435600160a060020a036044351660ff6064351660843560a435611e32565b604080519115158252519081900360200190f35b34801561044957600080fd5b50610160600435611ffc565b34801561046157600080fd5b50610429600160a060020a0360043516612595565b34801561048257600080fd5b5060408051602060046024803582810135601f810185900485028601850190965285855261016095833595369560449491939091019190819084018382808284375050604080516020601f60808a01358b0180359182018390048302840183018552818452989b600160a060020a038b35169b60ff848d0135169b958601359a60608701359a50919850965060a0909401945091928101919081908401838280828437509497506125aa9650505050505050565b34801561054257600080fd5b50604080516020601f60c435600481810135928301849004840285018401909552818452610160948035946024803595600160a060020a03604435169560ff60643516956084359560a435953695919460e4949193909201918190840183828082843750949750612bb99650505050505050565b3480156105c257600080fd5b506102dd613145565b3480156105d757600080fd5b506102dd613154565b3480156105ec57600080fd5b506102dd613163565b34801561060157600080fd5b506102dd613172565b34801561061657600080fd5b506102dd613181565b34801561062b57600080fd5b50604080516020601f60c43560048181013592830184900484028501840190955281845261016094803594600160a060020a03602480358216966044359092169560ff60643516956084359560a435953695919460e4949193019181908401838280828437509497506131909650505050505050565b3480156106ad57600080fd5b50610160600160a060020a0360043516613719565b6000546001546040805160e260020a633d9abf2b028152336004820152600160a060020a0393841660248201529290911660448301525173__AOLibrary_____________________________9163f66afcac916064808301926020929190829003018186803b15801561073457600080fd5b505af4158015610748573d6000803e3d6000fd5b505050506040513d602081101561075e57600080fd5b5051151561076b57600080fd5b600160a060020a038116151561078057600080fd5b60078054600160a060020a03909216600160a060020a03199283168117909155600d8054909216179055565b8473__AOLibrary_____________________________632fca5414826040518263ffffffff1660e060020a0281526004018082600160a060020a0316600160a060020a0316815260200191505060206040518083038186803b15801561081157600080fd5b505af4158015610825573d6000803e3d6000fd5b505050506040513d602081101561083b57600080fd5b505180156108cb57506008546040805160e060020a63029b7d530281523360048201529051600092600160a060020a03169163029b7d5391602480830192602092919082900301818787803b15801561089357600080fd5b505af11580156108a7573d6000803e3d6000fd5b505050506040513d60208110156108bd57600080fd5b5051600160a060020a031614155b80156109cb5750600a546008546040805160e060020a63029b7d530281523360048201529051600160a060020a0393841693633ebc2ab393169163029b7d539160248083019260209291908290030181600087803b15801561092c57600080fd5b505af1158015610940573d6000803e3d6000fd5b505050506040513d602081101561095657600080fd5b50516040805160e060020a63ffffffff8516028152600160a060020a0390921660048301525160248083019260209291908290030181600087803b15801561099d57600080fd5b505af11580156109b1573d6000803e3d6000fd5b505050506040513d60208110156109c757600080fd5b5051155b15156109d657600080fd5b876000600d60009054906101000a9004600160a060020a0316600160a060020a03166379d0c71e6040518163ffffffff1660e060020a02815260040160a060405180830381600087803b158015610a2c57600080fd5b505af1158015610a40573d6000803e3d6000fd5b505050506040513d60a0811015610a5657600080fd5b50602090810151600d546040805160e060020a63a62eeead02815260048101879052905192945060ff851693600160a060020a039092169263a62eeead926024808401939192918290030181600087803b158015610ab357600080fd5b505af1158015610ac7573d6000803e3d6000fd5b505050506040513d6020811015610add57600080fd5b505160ff1614610aec57600080fd5b610afa8a8a8a8a8a8a6137f9565b1515610b0557600080fd5b600b546008546040805160e060020a63029b7d530281523360048201529051600160a060020a039384169363c555ca1e938f9391169163029b7d53916024808201926020929091908290030181600087803b158015610b6357600080fd5b505af1158015610b77573d6000803e3d6000fd5b505050506040513d6020811015610b8d57600080fd5b505160405160e060020a63ffffffff851602815260048101838152600160a060020a0380841660248401528e1660448301526080606483019081528a5160848401528a518f938c93929160a490910190602085019080838360005b83811015610c00578181015183820152602001610be8565b50505050905090810190601f168015610c2d5780820380516001836020036101000a031916815260200191505b5095505050505050602060405180830381600087803b158015610c4f57600080fd5b505af1158015610c63573d6000803e3d6000fd5b505050506040513d6020811015610c7957600080fd5b50511515610c8657600080fd5b600c546040805160e060020a63ccdd6afd028152600481018d90526000602482018190528c1515604483015260a4820181905260c0608483015260c482018190529151600160a060020a039093169263ccdd6afd9261010480840193602093929083900390910190829087803b158015610cff57600080fd5b505af1158015610d13573d6000803e3d6000fd5b505050506040513d6020811015610d2957600080fd5b50610d3890508a8a8a87613929565b6008546040805160e060020a63029b7d530281523360048201529051600160a060020a039092169163029b7d53916024808201926020929091908290030181600087803b158015610d8857600080fd5b505af1158015610d9c573d6000803e3d6000fd5b505050506040513d6020811015610db257600080fd5b505160408051600160a060020a038b81168252915191909216918c917f6b669130d0b3ac9bed9420e1b2bfc22364661b81330a9aa01a1deddf3512d2e09181900360200190a350505050505050505050565b8473__AOLibrary_____________________________632fca5414826040518263ffffffff1660e060020a0281526004018082600160a060020a0316600160a060020a0316815260200191505060206040518083038186803b158015610e6957600080fd5b505af4158015610e7d573d6000803e3d6000fd5b505050506040513d6020811015610e9357600080fd5b50518015610f2357506008546040805160e060020a63029b7d530281523360048201529051600092600160a060020a03169163029b7d5391602480830192602092919082900301818787803b158015610eeb57600080fd5b505af1158015610eff573d6000803e3d6000fd5b505050506040513d6020811015610f1557600080fd5b5051600160a060020a031614155b80156110235750600a546008546040805160e060020a63029b7d530281523360048201529051600160a060020a0393841693633ebc2ab393169163029b7d539160248083019260209291908290030181600087803b158015610f8457600080fd5b505af1158015610f98573d6000803e3d6000fd5b505050506040513d6020811015610fae57600080fd5b50516040805160e060020a63ffffffff8516028152600160a060020a0390921660048301525160248083019260209291908290030181600087803b158015610ff557600080fd5b505af1158015611009573d6000803e3d6000fd5b505050506040513d602081101561101f57600080fd5b5051155b151561102e57600080fd5b876000600d60009054906101000a9004600160a060020a0316600160a060020a03166379d0c71e6040518163ffffffff1660e060020a02815260040160a060405180830381600087803b15801561108457600080fd5b505af1158015611098573d6000803e3d6000fd5b505050506040513d60a08110156110ae57600080fd5b50604090810151600d54825160e060020a63a62eeead02815260048101869052925191935060ff841692600160a060020a039091169163a62eeead916024808201926020929091908290030181600087803b15801561110c57600080fd5b505af1158015611120573d6000803e3d6000fd5b505050506040513d602081101561113657600080fd5b505160ff161461114557600080fd5b6111538a8a8a8a8a8a611e32565b151561115e57600080fd5b600b546008546040805160e060020a63029b7d530281523360048201529051600160a060020a039384169363c555ca1e938f9391169163029b7d53916024808201926020929091908290030181600087803b1580156111bc57600080fd5b505af11580156111d0573d6000803e3d6000fd5b505050506040513d60208110156111e657600080fd5b505160405160e060020a63ffffffff851602815260048101838152600160a060020a0380841660248401528e1660448301526080606483019081528a5160848401528a518f938c93929160a490910190602085019080838360005b83811015611259578181015183820152602001611241565b50505050905090810190601f1680156112865780820380516001836020036101000a031916815260200191505b5095505050505050602060405180830381600087803b1580156112a857600080fd5b505af11580156112bc573d6000803e3d6000fd5b505050506040513d60208110156112d257600080fd5b505115156112df57600080fd5b600c546040805160e060020a63ccdd6afd028152600481018d905260006024820181905260448201819052606482018d905260a4820181905260c0608483015260c482018190529151600160a060020a039093169263ccdd6afd9261010480840193602093929083900390910190829087803b15801561135e57600080fd5b505af1158015611372573d6000803e3d6000fd5b505050506040513d602081101561138857600080fd5b50610d3890508a8a8a87613b65565b600f6020526000908152604090205481565b600e6020526000908152604090208054600182015460029092015460ff909116919083565b600754600160a060020a031681565b6000546001546040805160e260020a633d9abf2b028152336004820152600160a060020a0393841660248201529290911660448301525173__AOLibrary_____________________________9163f66afcac916064808301926020929190829003018186803b15801561144f57600080fd5b505af4158015611463573d6000803e3d6000fd5b505050506040513d602081101561147957600080fd5b5051151561148657600080fd5b600160a060020a038116151561149b57600080fd5b60048054600160a060020a0319908116600160a060020a039384161791829055600a8054929093169116179055565b6008546040805160e060020a63029b7d53028152336004820152905160009283928392600160a060020a039092169163029b7d539160248082019260209290919082900301818787803b15801561152057600080fd5b505af1158015611534573d6000803e3d6000fd5b505050506040513d602081101561154a57600080fd5b5051600160a060020a0316141561156057600080fd5b600a546008546040805160e060020a63029b7d530281523360048201529051600160a060020a0393841693633ebc2ab393169163029b7d539160248083019260209291908290030181600087803b1580156115ba57600080fd5b505af11580156115ce573d6000803e3d6000fd5b505050506040513d60208110156115e457600080fd5b50516040805160e060020a63ffffffff8516028152600160a060020a0390921660048301525160248083019260209291908290030181600087803b15801561162b57600080fd5b505af115801561163f573d6000803e3d6000fd5b505050506040513d602081101561165557600080fd5b50511561166157600080fd5b600d546040805160e060020a63a62eeead028152600481018790529051600092600160a060020a03169163a62eeead91602480830192602092919082900301818787803b1580156116b157600080fd5b505af11580156116c5573d6000803e3d6000fd5b505050506040513d60208110156116db57600080fd5b505160ff16116116ea57600080fd5b6008546040805160e060020a63029b7d530281523360048201529051600160a060020a039092169163029b7d53916024808201926020929091908290030181600087803b15801561173a57600080fd5b505af115801561174e573d6000803e3d6000fd5b505050506040513d602081101561176457600080fd5b5051600b54604080517fad58a7d2000000000000000000000000000000000000000000000000000000008152600481018890529051929450600160a060020a039091169163ad58a7d29160248082019260009290919082900301818387803b1580156117cf57600080fd5b505af11580156117e3573d6000803e3d6000fd5b505050506040513d6000823e601f3d908101601f1916820160405260c081101561180c57600080fd5b8151602083015160408401516060850151608086015160a0870180519597949693959294919382019264010000000081111561184757600080fd5b8201602081018481111561185a57600080fd5b815164010000000081118282018710171561187457600080fd5b505092919050505050509350505050600b60009054906101000a9004600160a060020a0316600160a060020a0316635f39fd738584866040518463ffffffff1660e060020a0281526004018084815260200183600160a060020a0316600160a060020a03168152602001821515151581526020019350505050602060405180830381600087803b15801561190757600080fd5b505af115801561191b573d6000803e3d6000fd5b505050506040513d602081101561193157600080fd5b5051151561193e57600080fd5b60408051600160a060020a0380841682528416602082015284151581830152905185917fd1ceffc896374df3ec020f7a5b068a38f909c6833edd2c4fec3716074c07dc7d919081900360600190a250505050565b6000546001546040805160e260020a633d9abf2b028152336004820152600160a060020a0393841660248201529290911660448301525173__AOLibrary_____________________________9163f66afcac916064808301926020929190829003018186803b158015611a0457600080fd5b505af4158015611a18573d6000803e3d6000fd5b505050506040513d6020811015611a2e57600080fd5b50511515611a3b57600080fd5b600160a060020a0381161515611a5057600080fd5b60068054600160a060020a03909216600160a060020a03199283168117909155600c8054909216179055565b600154600160a060020a031681565b6000546001546040805160e260020a633d9abf2b028152336004820152600160a060020a0393841660248201529290911660448301525173__AOLibrary_____________________________9163f66afcac916064808301926020929190829003018186803b158015611afd57600080fd5b505af4158015611b11573d6000803e3d6000fd5b505050506040513d6020811015611b2757600080fd5b50511515611b3457600080fd5b600160a060020a0382161515611b4957600080fd5b600160a060020a03919091166000908152600260205260409020805460ff1916911515919091179055565b6000546001546040805160e260020a633d9abf2b028152336004820152600160a060020a0393841660248201529290911660448301525173__AOLibrary_____________________________9163f66afcac916064808301926020929190829003018186803b158015611be657600080fd5b505af4158015611bfa573d6000803e3d6000fd5b505050506040513d6020811015611c1057600080fd5b50511515611c1d57600080fd5b600160a060020a0381161515611c3257600080fd5b60018054600160a060020a03909216600160a060020a0319928316811790915560098054909216179055565b6000546001546040805160e260020a633d9abf2b028152336004820152600160a060020a0393841660248201529290911660448301525173__AOLibrary_____________________________9163f66afcac916064808301926020929190829003018186803b158015611cd057600080fd5b505af4158015611ce4573d6000803e3d6000fd5b505050506040513d6020811015611cfa57600080fd5b50511515611d0757600080fd5b600160a060020a0381161515611d1c57600080fd5b60058054600160a060020a03909216600160a060020a03199283168117909155600b8054909216179055565b6000546001546040805160e260020a633d9abf2b028152336004820152600160a060020a0393841660248201529290911660448301525173__AOLibrary_____________________________9163f66afcac916064808301926020929190829003018186803b158015611dba57600080fd5b505af4158015611dce573d6000803e3d6000fd5b505050506040513d6020811015611de457600080fd5b50511515611df157600080fd5b600160a060020a0381161515611e0657600080fd5b60038054600160a060020a03909216600160a060020a0319928316811790915560088054909216179055565b6008546040805160e060020a63029b7d530281523360048201529051600092839230928b928a928c92600160a060020a039092169163029b7d539160248082019260209290919082900301818b87803b158015611e8e57600080fd5b505af1158015611ea2573d6000803e3d6000fd5b505050506040513d6020811015611eb857600080fd5b505160408051606060020a600160a060020a0397881681026020838101919091526034830197909752948716850260548201526068810193909352941690910260888201528251607c818303018152609c9091019283905280519092918291908401908083835b60208310611f3e5780518252601f199092019160209182019101611f1f565b51815160209384036101000a600019018019909216911617905260408051929094018290038220600080845283830180875282905260ff8d1684870152606084018c9052608084018b905294519097503396506001955060a080840195929450601f198201938290030191865af1158015611fbd573d6000803e3d6000fd5b50505060206040510351600160a060020a0316141515611fe05760009150611ff1565b611fec88868686613ccf565b600191505b509695505050505050565b6008546040805160e060020a63029b7d53028152336004820152905160009283928392600160a060020a039092169163029b7d539160248082019260209290919082900301818787803b15801561205257600080fd5b505af1158015612066573d6000803e3d6000fd5b505050506040513d602081101561207c57600080fd5b5051600160a060020a0316141561209257600080fd5b600a546008546040805160e060020a63029b7d530281523360048201529051600160a060020a0393841693633ebc2ab393169163029b7d539160248083019260209291908290030181600087803b1580156120ec57600080fd5b505af1158015612100573d6000803e3d6000fd5b505050506040513d602081101561211657600080fd5b50516040805160e060020a63ffffffff8516028152600160a060020a0390921660048301525160248083019260209291908290030181600087803b15801561215d57600080fd5b505af1158015612171573d6000803e3d6000fd5b505050506040513d602081101561218757600080fd5b50511561219357600080fd5b600d546040805160e060020a63a62eeead028152600481018690529051600092600160a060020a03169163a62eeead91602480830192602092919082900301818787803b1580156121e357600080fd5b505af11580156121f7573d6000803e3d6000fd5b505050506040513d602081101561220d57600080fd5b505160ff161161221c57600080fd5b6008546040805160e060020a63029b7d530281523360048201529051600160a060020a039092169163029b7d53916024808201926020929091908290030181600087803b15801561226c57600080fd5b505af1158015612280573d6000803e3d6000fd5b505050506040513d602081101561229657600080fd5b5051600b54604080517f83fee16d00000000000000000000000000000000000000000000000000000000815260048101879052600160a060020a03808516602483015291519395509116916383fee16d916044808201926020929091908290030181600087803b15801561230957600080fd5b505af115801561231d573d6000803e3d6000fd5b505050506040513d602081101561233357600080fd5b5051151561234057600080fd5b600b54604080517f81f3e897000000000000000000000000000000000000000000000000000000008152600481018690529051600160a060020a03909216916381f3e8979160248082019260009290919082900301818387803b1580156123a657600080fd5b505af11580156123ba573d6000803e3d6000fd5b505050506040513d6000823e601f3d908101601f191682016040526101208110156123e457600080fd5b81516020830151604084015160608501516080860180519496939592949193928301929164010000000081111561241a57600080fd5b8201602081018481111561242d57600080fd5b815164010000000081118282018710171561244757600080fd5b5050602082015160408301516060840151608090940180519396929591949364010000000081111561247857600080fd5b8201602081018481111561248b57600080fd5b81516401000000008111828201871017156124a557600080fd5b505092919050505050505050509350505050600c60009054906101000a9004600160a060020a0316600160a060020a031663088fc1a8846040518263ffffffff1660e060020a02815260040180828152602001915050602060405180830381600087803b15801561251557600080fd5b505af1158015612529573d6000803e3d6000fd5b505050506040513d602081101561253f57600080fd5b5051151561254c57600080fd5b60408051600160a060020a03808416825284166020820152815185927f0b8de7345c8858c1a768f8563f771e787ca936dd91e184518c41598661bcecf6928290030190a2505050565b60026020526000908152604090205460ff1681565b8473__AOLibrary_____________________________632fca5414826040518263ffffffff1660e060020a0281526004018082600160a060020a0316600160a060020a0316815260200191505060206040518083038186803b15801561260f57600080fd5b505af4158015612623573d6000803e3d6000fd5b505050506040513d602081101561263957600080fd5b505180156126c957506008546040805160e060020a63029b7d530281523360048201529051600092600160a060020a03169163029b7d5391602480830192602092919082900301818787803b15801561269157600080fd5b505af11580156126a5573d6000803e3d6000fd5b505050506040513d60208110156126bb57600080fd5b5051600160a060020a031614155b80156127c95750600a546008546040805160e060020a63029b7d530281523360048201529051600160a060020a0393841693633ebc2ab393169163029b7d539160248083019260209291908290030181600087803b15801561272a57600080fd5b505af115801561273e573d6000803e3d6000fd5b505050506040513d602081101561275457600080fd5b50516040805160e060020a63ffffffff8516028152600160a060020a0390921660048301525160248083019260209291908290030181600087803b15801561279b57600080fd5b505af11580156127af573d6000803e3d6000fd5b505050506040513d60208110156127c557600080fd5b5051155b15156127d457600080fd5b876000600d60009054906101000a9004600160a060020a0316600160a060020a03166379d0c71e6040518163ffffffff1660e060020a02815260040160a060405180830381600087803b15801561282a57600080fd5b505af115801561283e573d6000803e3d6000fd5b505050506040513d60a081101561285457600080fd5b5060600151600d546040805160e060020a63a62eeead02815260048101869052905192935060ff841692600160a060020a039092169163a62eeead916024808201926020929091908290030181600087803b1580156128b257600080fd5b505af11580156128c6573d6000803e3d6000fd5b505050506040513d60208110156128dc57600080fd5b505160ff16146128eb57600080fd5b6128f98a8a8a8a8a8a613cfb565b151561290457600080fd5b600b546008546040805160e060020a63029b7d530281523360048201529051600160a060020a039384169363c555ca1e938f9391169163029b7d53916024808201926020929091908290030181600087803b15801561296257600080fd5b505af1158015612976573d6000803e3d6000fd5b505050506040513d602081101561298c57600080fd5b505160405160e060020a63ffffffff851602815260048101838152600160a060020a0380841660248401528e1660448301526080606483019081528a5160848401528a518f938c93929160a490910190602085019080838360005b838110156129ff5781810151838201526020016129e7565b50505050905090810190601f168015612a2c5780820380516001836020036101000a031916815260200191505b5095505050505050602060405180830381600087803b158015612a4e57600080fd5b505af1158015612a62573d6000803e3d6000fd5b505050506040513d6020811015612a7857600080fd5b50511515612a8557600080fd5b600c60009054906101000a9004600160a060020a0316600160a060020a031663ccdd6afd8b6000808d60006040518663ffffffff1660e060020a0281526004018086815260200185600160a060020a0316600160a060020a031681526020018415151515815260200160200180602001838152602001828103825284818151815260200191508051906020019080838360005b83811015612b30578181015183820152602001612b18565b50505050905090810190601f168015612b5d5780820380516001836020036101000a031916815260200191505b509650505050505050602060405180830381600087803b158015612b8057600080fd5b505af1158015612b94573d6000803e3d6000fd5b505050506040513d6020811015612baa57600080fd5b50610d3890508a8a8a87613e65565b8473__AOLibrary_____________________________632fca5414826040518263ffffffff1660e060020a0281526004018082600160a060020a0316600160a060020a0316815260200191505060206040518083038186803b158015612c1e57600080fd5b505af4158015612c32573d6000803e3d6000fd5b505050506040513d6020811015612c4857600080fd5b50518015612cd857506008546040805160e060020a63029b7d530281523360048201529051600092600160a060020a03169163029b7d5391602480830192602092919082900301818787803b158015612ca057600080fd5b505af1158015612cb4573d6000803e3d6000fd5b505050506040513d6020811015612cca57600080fd5b5051600160a060020a031614155b8015612dd85750600a546008546040805160e060020a63029b7d530281523360048201529051600160a060020a0393841693633ebc2ab393169163029b7d539160248083019260209291908290030181600087803b158015612d3957600080fd5b505af1158015612d4d573d6000803e3d6000fd5b505050506040513d6020811015612d6357600080fd5b50516040805160e060020a63ffffffff8516028152600160a060020a0390921660048301525160248083019260209291908290030181600087803b158015612daa57600080fd5b505af1158015612dbe573d6000803e3d6000fd5b505050506040513d6020811015612dd457600080fd5b5051155b1515612de357600080fd5b876000600d60009054906101000a9004600160a060020a0316600160a060020a03166379d0c71e6040518163ffffffff1660e060020a02815260040160a060405180830381600087803b158015612e3957600080fd5b505af1158015612e4d573d6000803e3d6000fd5b505050506040513d60a0811015612e6357600080fd5b5060800151600d546040805160e060020a63a62eeead02815260048101869052905192935060ff841692600160a060020a039092169163a62eeead916024808201926020929091908290030181600087803b158015612ec157600080fd5b505af1158015612ed5573d6000803e3d6000fd5b505050506040513d6020811015612eeb57600080fd5b505160ff1614612efa57600080fd5b612f088a8a8a8a8a8a611e32565b1515612f1357600080fd5b600b546008546040805160e060020a63029b7d530281523360048201529051600160a060020a039384169363c555ca1e938f9391169163029b7d53916024808201926020929091908290030181600087803b158015612f7157600080fd5b505af1158015612f85573d6000803e3d6000fd5b505050506040513d6020811015612f9b57600080fd5b505160405160e060020a63ffffffff851602815260048101838152600160a060020a0380841660248401528e1660448301526080606483019081528a5160848401528a518f938c93929160a490910190602085019080838360005b8381101561300e578181015183820152602001612ff6565b50505050905090810190601f16801561303b5780820380516001836020036101000a031916815260200191505b5095505050505050602060405180830381600087803b15801561305d57600080fd5b505af1158015613071573d6000803e3d6000fd5b505050506040513d602081101561308757600080fd5b5051151561309457600080fd5b600c546040805160e060020a63ccdd6afd028152600481018d90526000602482018190526044820181905260a482018d905260c0608483015260c482018190529151600160a060020a039093169263ccdd6afd9261010480840193602093929083900390910190829087803b15801561310c57600080fd5b505af1158015613120573d6000803e3d6000fd5b505050506040513d602081101561313657600080fd5b50610d3890508a8a8a87614054565b600454600160a060020a031681565b600054600160a060020a031681565b600354600160a060020a031681565b600554600160a060020a031681565b600654600160a060020a031681565b8473__AOLibrary_____________________________632fca5414826040518263ffffffff1660e060020a0281526004018082600160a060020a0316600160a060020a0316815260200191505060206040518083038186803b1580156131f557600080fd5b505af4158015613209573d6000803e3d6000fd5b505050506040513d602081101561321f57600080fd5b505180156132af57506008546040805160e060020a63029b7d530281523360048201529051600092600160a060020a03169163029b7d5391602480830192602092919082900301818787803b15801561327757600080fd5b505af115801561328b573d6000803e3d6000fd5b505050506040513d60208110156132a157600080fd5b5051600160a060020a031614155b80156133af5750600a546008546040805160e060020a63029b7d530281523360048201529051600160a060020a0393841693633ebc2ab393169163029b7d539160248083019260209291908290030181600087803b15801561331057600080fd5b505af1158015613324573d6000803e3d6000fd5b505050506040513d602081101561333a57600080fd5b50516040805160e060020a63ffffffff8516028152600160a060020a0390921660048301525160248083019260209291908290030181600087803b15801561338157600080fd5b505af1158015613395573d6000803e3d6000fd5b505050506040513d60208110156133ab57600080fd5b5051155b15156133ba57600080fd5b876000600d60009054906101000a9004600160a060020a0316600160a060020a03166379d0c71e6040518163ffffffff1660e060020a02815260040160a060405180830381600087803b15801561341057600080fd5b505af1158015613424573d6000803e3d6000fd5b505050506040513d60a081101561343a57600080fd5b5051600d546040805160e060020a63a62eeead02815260048101869052905192935060ff841692600160a060020a039092169163a62eeead916024808201926020929091908290030181600087803b15801561349557600080fd5b505af11580156134a9573d6000803e3d6000fd5b505050506040513d60208110156134bf57600080fd5b505160ff16146134ce57600080fd5b6134dc8a8a8a8a8a8a6141db565b15156134e757600080fd5b600b546008546040805160e060020a63029b7d530281523360048201529051600160a060020a039384169363c555ca1e938f9391169163029b7d53916024808201926020929091908290030181600087803b15801561354557600080fd5b505af1158015613559573d6000803e3d6000fd5b505050506040513d602081101561356f57600080fd5b505160405160e060020a63ffffffff851602815260048101838152600160a060020a0380841660248401528e1660448301526080606483019081528a5160848401528a518f938c93929160a490910190602085019080838360005b838110156135e25781810151838201526020016135ca565b50505050905090810190601f16801561360f5780820380516001836020036101000a031916815260200191505b5095505050505050602060405180830381600087803b15801561363157600080fd5b505af1158015613645573d6000803e3d6000fd5b505050506040513d602081101561365b57600080fd5b5051151561366857600080fd5b600c546040805160e060020a63ccdd6afd028152600481018d9052600160a060020a038c8116602483015260006044830181905260a4830181905260c0608484015260c48301819052925193169263ccdd6afd9261010480840193602093929083900390910190829087803b1580156136e057600080fd5b505af11580156136f4573d6000803e3d6000fd5b505050506040513d602081101561370a57600080fd5b50610d3890508a8a8a876142e8565b6000546001546040805160e260020a633d9abf2b028152336004820152600160a060020a0393841660248201529290911660448301525173__AOLibrary_____________________________9163f66afcac916064808301926020929190829003018186803b15801561378b57600080fd5b505af415801561379f573d6000803e3d6000fd5b505050506040513d60208110156137b557600080fd5b505115156137c257600080fd5b600160a060020a03811615156137d757600080fd5b60008054600160a060020a031916600160a060020a0392909216919091179055565b6008546040805160e060020a63029b7d530281523360048201529051600092839230928b928a928c92600160a060020a039092169163029b7d539160248082019260209290919082900301818b87803b15801561385557600080fd5b505af1158015613869573d6000803e3d6000fd5b505050506040513d602081101561387f57600080fd5b505160408051606060020a600160a060020a0397881681026020838101919091526034830197909752948716850260548201527f0100000000000000000000000000000000000000000000000000000000000000931515939093026068840152941690910260698201528251605d818303018152607d90910192839052805190929182919084019080838360208310611f3e5780518252601f199092019160209182019101611f1f565b600c546040805160e160020a634dd29ae7028152600481018790529051600092600160a060020a031691639ba535ce916024808301928692919082900301818387803b15801561397857600080fd5b505af115801561398c573d6000803e3d6000fd5b505050506040513d6000823e601f3d908101601f1916820160405260a08110156139b557600080fd5b81516020830151604084015160608501805193959294919391830192916401000000008111156139e457600080fd5b820160208101848111156139f757600080fd5b8151640100000000811182820187101715613a1157600080fd5b5050604051606060020a308181026020848101918252600160a060020a038f1690930260348501527f01000000000000000000000000000000000000000000000000000000000000008a1515810260488601528f15150260498501528c51999b508f9a50600f99600099509197508d96508b95508e94508c938b939192604a909101918501908083835b60208310613aba5780518252601f199092019160209182019101613a9b565b51815160209384036101000a600019018019909216911617905292019384525060408051808503815293820190819052835193985096508695508701935090915081905083835b60208310613b205780518252601f199092019160209182019101613b01565b51815160209384036101000a60001901801990921691161790526040805192909401829003909120865285019590955292909201600020939093555050505050505050565b600c546040805160e160020a634dd29ae7028152600481018790529051600092600160a060020a031691639ba535ce916024808301928692919082900301818387803b158015613bb457600080fd5b505af1158015613bc8573d6000803e3d6000fd5b505050506040513d6000823e601f3d908101601f1916820160405260a0811015613bf157600080fd5b8151602083015160408401516060850180519395929491939183019291640100000000811115613c2057600080fd5b82016020810184811115613c3357600080fd5b8151640100000000811182820187101715613c4d57600080fd5b5050604051606060020a308181026020848101918252600160a060020a038f16909302603485015260488401899052606884018f90528c51989b508f9a50600f99506000989197508d96508b95508e94508c938b93919260889091019185019080838360208310613aba5780518252601f199092019160209182019101613a9b565b6000938452600e6020526040909320805460ff191660ff93909316929092178255600182015560020155565b6008546040805160e060020a63029b7d530281523360048201529051600092839230928b928a928c92600160a060020a039092169163029b7d539160248082019260209290919082900301818b87803b158015613d5757600080fd5b505af1158015613d6b573d6000803e3d6000fd5b505050506040513d6020811015613d8157600080fd5b5051604051606060020a600160a060020a03808816820260208481019182526034850189905291871690920260548401528451919260680191908501908083835b60208310613de15780518252601f199092019160209182019101613dc2565b6001836020036101000a03801982511681845116808217855250505050505090500182600160a060020a0316600160a060020a0316606060020a0281526014019550505050505060405160208183030381529060405260405180828051906020019080838360208310611f3e5780518252601f199092019160209182019101611f1f565b600c546040805160e160020a634dd29ae7028152600481018790529051606092600160a060020a031691639ba535ce91602480830192600092919082900301818387803b158015613eb557600080fd5b505af1158015613ec9573d6000803e3d6000fd5b505050506040513d6000823e601f3d908101601f1916820160405260a0811015613ef257600080fd5b8151602083015160408401516060850180519395929491939183019291640100000000811115613f2157600080fd5b82016020810184811115613f3457600080fd5b8151640100000000811182820187101715613f4e57600080fd5b5050604051606060020a308181026020848101918252600160a060020a038f1690930260348501528451949b508f9a50600f9950600098509096508c95508a94508d938c938b93604890910191908701908083835b60208310613fc25780518252601f199092019160209182019101613fa3565b51815160209384036101000a600019018019909216911617905287519190930192870191508083835b6020831061400a5780518252601f199092019160209182019101613feb565b51815160001960209485036101000a0190811690199190911617905286519390910192908601915080838360208310613aba5780518252601f199092019160209182019101613a9b565b600c546040805160e160020a634dd29ae7028152600481018790529051600092600160a060020a031691639ba535ce916024808301928692919082900301818387803b1580156140a357600080fd5b505af11580156140b7573d6000803e3d6000fd5b505050506040513d6000823e601f3d908101601f1916820160405260a08110156140e057600080fd5b815160208301516040840151606085018051939592949193918301929164010000000081111561410f57600080fd5b8201602081018481111561412257600080fd5b815164010000000081118282018710171561413c57600080fd5b50509291906020018051906020019092919050505094505050505084600f600030868589888c6040516020018087600160a060020a0316600160a060020a0316606060020a02815260140186600160a060020a0316600160a060020a0316606060020a028152601401858152602001848152602001838051906020019080838360208310613aba5780518252601f199092019160209182019101613a9b565b6008546040805160e060020a63029b7d530281523360048201529051600092839230928b928a928c92600160a060020a039092169163029b7d539160248082019260209290919082900301818b87803b15801561423757600080fd5b505af115801561424b573d6000803e3d6000fd5b505050506040513d602081101561426157600080fd5b505160408051606060020a600160a060020a039788168102602083810191909152603483019790975294871685026054820152928616840260688401529416909102607c82015282516070818303018152609090910192839052805190929182919084019080838360208310611f3e5780518252601f199092019160209182019101611f1f565b600c546040805160e160020a634dd29ae7028152600481018790529051600092600160a060020a031691639ba535ce916024808301928692919082900301818387803b15801561433757600080fd5b505af115801561434b573d6000803e3d6000fd5b505050506040513d6000823e601f3d908101601f1916820160405260a081101561437457600080fd5b81516020830151604084015160608501805193959294919391830192916401000000008111156143a357600080fd5b820160208101848111156143b657600080fd5b81516401000000008111828201871017156143d057600080fd5b50509291906020018051906020019092919050505050505050905084600f600030868589888c6040516020018087600160a060020a0316600160a060020a0316606060020a02815260140186600160a060020a0316600160a060020a0316606060020a02815260140185600160a060020a0316600160a060020a0316606060020a02815260140184600160a060020a0316600160a060020a0316606060020a028152601401838051906020019080838360208310613aba5780518252601f199092019160209182019101613a9b5600a165627a7a7230582079a6b98d9831b04df919392460d5292da2c6cae96033cc9c96366692f432697c0029",
	"source": "pragma solidity ^0.4.24;\n\nimport './AOLibrary.sol';\nimport './TheAO.sol';\nimport './IAOSetting.sol';\nimport './INameFactory.sol';\nimport './IAOSettingAttribute.sol';\nimport './IAOSettingValue.sol';\nimport './INameTAOPosition.sol';\nimport './INameAccountRecovery.sol';\n\n/**\n * @title AOSettingUpdate\n *\n * This contract purpose is to update existing Setting Value\n */\ncontract AOSettingUpdate is TheAO {\n\taddress public nameFactoryAddress;\n\taddress public nameAccountRecoveryAddress;\n\taddress public aoSettingAttributeAddress;\n\taddress public aoSettingValueAddress;\n\taddress public aoSettingAddress;\n\n\tINameFactory internal _nameFactory;\n\tINameTAOPosition internal _nameTAOPosition;\n\tINameAccountRecovery internal _nameAccountRecovery;\n\tIAOSettingAttribute internal _aoSettingAttribute;\n\tIAOSettingValue internal _aoSettingValue;\n\tIAOSetting internal _aoSetting;\n\n\tstruct UpdateSignature {\n\t\tuint8 signatureV;\n\t\tbytes32 signatureR;\n\t\tbytes32 signatureS;\n\t}\n\n\t// Mapping from settingId to UpdateSignature\n\tmapping (uint256 => UpdateSignature) public updateSignatures;\n\n\t// Mapping from updateHashKey to it's settingId\n\tmapping (bytes32 => uint256) public updateHashLookup;\n\n\t// Event to be broadcasted to public when a proposed update for a setting is created\n\tevent SettingUpdate(uint256 indexed settingId, address indexed updateAdvocateNameId, address proposalTAOId);\n\n\t// Event to be broadcasted to public when setting update is approved/rejected by the advocate of proposalTAOId\n\tevent ApproveSettingUpdate(uint256 indexed settingId, address proposalTAOId, address proposalTAOAdvocate, bool approved);\n\n\t// Event to be broadcasted to public when setting update is finalized by the advocate of associatedTAOId\n\tevent FinalizeSettingUpdate(uint256 indexed settingId, address associatedTAOId, address associatedTAOAdvocate);\n\n\t/**\n\t * @dev Constructor function\n\t */\n\tconstructor(address _nameFactoryAddress,\n\t\taddress _nameTAOPositionAddress,\n\t\taddress _nameAccountRecoveryAddress,\n\t\taddress _aoSettingAttributeAddress,\n\t\taddress _aoSettingValueAddress,\n\t\taddress _aoSettingAddress\n\t\t) public {\n\t\tsetNameFactoryAddress(_nameFactoryAddress);\n\t\tsetNameTAOPositionAddress(_nameTAOPositionAddress);\n\t\tsetNameAccountRecoveryAddress(_nameAccountRecoveryAddress);\n\t\tsetAOSettingAttributeAddress(_aoSettingAttributeAddress);\n\t\tsetAOSettingValueAddress(_aoSettingValueAddress);\n\t\tsetAOSettingAddress(_aoSettingAddress);\n\t}\n\n\t/**\n\t * @dev Checks if the calling contract address is The AO\n\t *\t\tOR\n\t *\t\tIf The AO is set to a Name/TAO, then check if calling address is the Advocate\n\t */\n\tmodifier onlyTheAO {\n\t\trequire (AOLibrary.isTheAO(msg.sender, theAO, nameTAOPositionAddress));\n\t\t_;\n\t}\n\n\t/**\n\t * @dev Check is msg.sender address is a Name\n\t */\n\t modifier senderIsName() {\n\t\trequire (_nameFactory.ethAddressToNameId(msg.sender) != address(0));\n\t\t_;\n\t }\n\n\t/**\n\t * @dev Only allowed if sender's Name is not compromised\n\t */\n\tmodifier senderNameNotCompromised() {\n\t\trequire (!_nameAccountRecovery.isCompromised(_nameFactory.ethAddressToNameId(msg.sender)));\n\t\t_;\n\t}\n\n\t/**\n\t * @dev Check if sender can update setting\n\t */\n\tmodifier canUpdate(address _proposalTAOId) {\n\t\trequire (\n\t\t\tAOLibrary.isTAO(_proposalTAOId) &&\n\t\t\t_nameFactory.ethAddressToNameId(msg.sender) != address(0) &&\n\t\t\t!_nameAccountRecovery.isCompromised(_nameFactory.ethAddressToNameId(msg.sender))\n\t\t);\n\t\t_;\n\t}\n\n\t/**\n\t * @dev Check whether or not setting is of type address\n\t */\n\tmodifier isAddressSetting(uint256 _settingId) {\n\t\t(uint8 ADDRESS_SETTING_TYPE,,,,) = _aoSetting.getSettingTypes();\n\t\t// Make sure the setting type is address\n\t\trequire (_aoSetting.settingTypeLookup(_settingId) == ADDRESS_SETTING_TYPE);\n\t\t_;\n\t}\n\n\t/**\n\t * @dev Check whether or not setting is of type bool\n\t */\n\tmodifier isBoolSetting(uint256 _settingId) {\n\t\t(, uint8 BOOL_SETTING_TYPE,,,) = _aoSetting.getSettingTypes();\n\t\t// Make sure the setting type is bool\n\t\trequire (_aoSetting.settingTypeLookup(_settingId) == BOOL_SETTING_TYPE);\n\t\t_;\n\t}\n\n\t/**\n\t * @dev Check whether or not setting is of type bytes32\n\t */\n\tmodifier isBytesSetting(uint256 _settingId) {\n\t\t(,, uint8 BYTES_SETTING_TYPE,,) = _aoSetting.getSettingTypes();\n\t\t// Make sure the setting type is bytes32\n\t\trequire (_aoSetting.settingTypeLookup(_settingId) == BYTES_SETTING_TYPE);\n\t\t_;\n\t}\n\n\t/**\n\t * @dev Check whether or not setting is of type string\n\t */\n\tmodifier isStringSetting(uint256 _settingId) {\n\t\t(,,, uint8 STRING_SETTING_TYPE,) = _aoSetting.getSettingTypes();\n\t\t// Make sure the setting type is string\n\t\trequire (_aoSetting.settingTypeLookup(_settingId) == STRING_SETTING_TYPE);\n\t\t_;\n\t}\n\n\t/**\n\t * @dev Check whether or not setting is of type uint256\n\t */\n\tmodifier isUintSetting(uint256 _settingId) {\n\t\t(,,,, uint8 UINT_SETTING_TYPE) = _aoSetting.getSettingTypes();\n\t\t// Make sure the setting type is uint256\n\t\trequire (_aoSetting.settingTypeLookup(_settingId) == UINT_SETTING_TYPE);\n\t\t_;\n\t}\n\n\t/***** The AO ONLY METHODS *****/\n\t/**\n\t * @dev Transfer ownership of The AO to new address\n\t * @param _theAO The new address to be transferred\n\t */\n\tfunction transferOwnership(address _theAO) public onlyTheAO {\n\t\trequire (_theAO != address(0));\n\t\ttheAO = _theAO;\n\t}\n\n\t/**\n\t * @dev Whitelist `_account` address to transact on behalf of others\n\t * @param _account The address to whitelist\n\t * @param _whitelist Either to whitelist or not\n\t */\n\tfunction setWhitelist(address _account, bool _whitelist) public onlyTheAO {\n\t\trequire (_account != address(0));\n\t\twhitelist[_account] = _whitelist;\n\t}\n\n\t/**\n\t * @dev The AO sets NameFactory address\n\t * @param _nameFactoryAddress The address of NameFactory\n\t */\n\tfunction setNameFactoryAddress(address _nameFactoryAddress) public onlyTheAO {\n\t\trequire (_nameFactoryAddress != address(0));\n\t\tnameFactoryAddress = _nameFactoryAddress;\n\t\t_nameFactory = INameFactory(_nameFactoryAddress);\n\t}\n\n\t/**\n\t * @dev The AO sets NameTAOPosition address\n\t * @param _nameTAOPositionAddress The address of NameTAOPosition\n\t */\n\tfunction setNameTAOPositionAddress(address _nameTAOPositionAddress) public onlyTheAO {\n\t\trequire (_nameTAOPositionAddress != address(0));\n\t\tnameTAOPositionAddress = _nameTAOPositionAddress;\n\t\t_nameTAOPosition = INameTAOPosition(_nameTAOPositionAddress);\n\t}\n\n\t/**\n\t * @dev The AO set the NameAccountRecovery Address\n\t * @param _nameAccountRecoveryAddress The address of NameAccountRecovery\n\t */\n\tfunction setNameAccountRecoveryAddress(address _nameAccountRecoveryAddress) public onlyTheAO {\n\t\trequire (_nameAccountRecoveryAddress != address(0));\n\t\tnameAccountRecoveryAddress = _nameAccountRecoveryAddress;\n\t\t_nameAccountRecovery = INameAccountRecovery(nameAccountRecoveryAddress);\n\t}\n\n\t/**\n\t * @dev The AO sets AOSettingAttribute address\n\t * @param _aoSettingAttributeAddress The address of AOSettingAttribute\n\t */\n\tfunction setAOSettingAttributeAddress(address _aoSettingAttributeAddress) public onlyTheAO {\n\t\trequire (_aoSettingAttributeAddress != address(0));\n\t\taoSettingAttributeAddress = _aoSettingAttributeAddress;\n\t\t_aoSettingAttribute = IAOSettingAttribute(_aoSettingAttributeAddress);\n\t}\n\n\t/**\n\t * @dev The AO sets AOSettingValue address\n\t * @param _aoSettingValueAddress The address of AOSettingValue\n\t */\n\tfunction setAOSettingValueAddress(address _aoSettingValueAddress) public onlyTheAO {\n\t\trequire (_aoSettingValueAddress != address(0));\n\t\taoSettingValueAddress = _aoSettingValueAddress;\n\t\t_aoSettingValue = IAOSettingValue(_aoSettingValueAddress);\n\t}\n\n\t/**\n\t * @dev The AO sets AOSetting address\n\t * @param _aoSettingAddress The address of AOSetting\n\t */\n\tfunction setAOSettingAddress(address _aoSettingAddress) public onlyTheAO {\n\t\trequire (_aoSettingAddress != address(0));\n\t\taoSettingAddress = _aoSettingAddress;\n\t\t_aoSetting = IAOSetting(_aoSettingAddress);\n\t}\n\n\t/***** PUBLIC METHODS *****/\n\t/**\n\t * @dev Advocate of Setting's _associatedTAOId submits an address setting update after an update has been proposed\n\t * @param _settingId The ID of the setting to be updated\n\t * @param _newValue The new address value for this setting\n\t * @param _proposalTAOId The child of the associatedTAOId with the update Logos\n\t * @param _signatureV The V part of the signature of proposalTAOId, newValue and associatedTAOId's Advocate\n\t * @param _signatureR The R part of the signature of proposalTAOId, newValue and associatedTAOId's Advocate\n\t * @param _signatureS The S part of the signature of proposalTAOId, newValue and associatedTAOId's Advocate\n\t * @param _extraData Catch-all string value to be stored if exist\n\t */\n\tfunction updateAddressSetting(\n\t\tuint256 _settingId,\n\t\taddress _newValue,\n\t\taddress _proposalTAOId,\n\t\tuint8 _signatureV,\n\t\tbytes32 _signatureR,\n\t\tbytes32 _signatureS,\n\t\tstring _extraData)\n\t\tpublic\n\t\tcanUpdate(_proposalTAOId)\n\t\tisAddressSetting(_settingId) {\n\n\t\t// Verify and store update address signature\n\t\trequire (_verifyAndStoreUpdateAddressSignature(_settingId, _newValue, _proposalTAOId, _signatureV, _signatureR, _signatureS));\n\n\t\t// Store the setting state data\n\t\trequire (_aoSettingAttribute.update(_settingId, _nameFactory.ethAddressToNameId(msg.sender), _proposalTAOId, _extraData));\n\n\t\t// Store the value as pending value\n\t\t_aoSettingValue.setPendingValue(_settingId, _newValue, false, '', '', 0);\n\n\t\t// Store the update hash key lookup\n\t\t_storeUpdateAddressHashLookup(_settingId, _newValue, _proposalTAOId, _extraData);\n\n\t\temit SettingUpdate(_settingId, _nameFactory.ethAddressToNameId(msg.sender), _proposalTAOId);\n\t}\n\n\t/**\n\t * @dev Advocate of Setting's _associatedTAOId submits a bool setting update after an update has been proposed\n\t * @param _settingId The ID of the setting to be updated\n\t * @param _newValue The new bool value for this setting\n\t * @param _proposalTAOId The child of the associatedTAOId with the update Logos\n\t * @param _signatureV The V part of the signature of proposalTAOId, newValue and associatedTAOId's Advocate\n\t * @param _signatureR The R part of the signature of proposalTAOId, newValue and associatedTAOId's Advocate\n\t * @param _signatureS The S part of the signature of proposalTAOId, newValue and associatedTAOId's Advocate\n\t * @param _extraData Catch-all string value to be stored if exist\n\t */\n\tfunction updateBoolSetting(\n\t\tuint256 _settingId,\n\t\tbool _newValue,\n\t\taddress _proposalTAOId,\n\t\tuint8 _signatureV,\n\t\tbytes32 _signatureR,\n\t\tbytes32 _signatureS,\n\t\tstring _extraData)\n\t\tpublic\n\t\tcanUpdate(_proposalTAOId)\n\t\tisBoolSetting(_settingId) {\n\n\t\t// Verify and store update bool signature\n\t\trequire (_verifyAndStoreUpdateBoolSignature(_settingId, _newValue, _proposalTAOId, _signatureV, _signatureR, _signatureS));\n\n\t\t// Store the setting state data\n\t\trequire (_aoSettingAttribute.update(_settingId, _nameFactory.ethAddressToNameId(msg.sender), _proposalTAOId, _extraData));\n\n\t\t// Store the value as pending value\n\t\t_aoSettingValue.setPendingValue(_settingId, address(0), _newValue, '', '', 0);\n\n\t\t// Store the update hash key lookup\n\t\t_storeUpdateBoolHashLookup(_settingId, _newValue, _proposalTAOId, _extraData);\n\n\t\temit SettingUpdate(_settingId, _nameFactory.ethAddressToNameId(msg.sender), _proposalTAOId);\n\t}\n\n\t/**\n\t * @dev Advocate of Setting's _associatedTAOId submits a bytes32 setting update after an update has been proposed\n\t * @param _settingId The ID of the setting to be updated\n\t * @param _newValue The new bytes32 value for this setting\n\t * @param _proposalTAOId The child of the associatedTAOId with the update Logos\n\t * @param _signatureV The V part of the signature of proposalTAOId, newValue and associatedTAOId's Advocate\n\t * @param _signatureR The R part of the signature of proposalTAOId, newValue and associatedTAOId's Advocate\n\t * @param _signatureS The S part of the signature of proposalTAOId, newValue and associatedTAOId's Advocate\n\t * @param _extraData Catch-all string value to be stored if exist\n\t */\n\tfunction updateBytesSetting(\n\t\tuint256 _settingId,\n\t\tbytes32 _newValue,\n\t\taddress _proposalTAOId,\n\t\tuint8 _signatureV,\n\t\tbytes32 _signatureR,\n\t\tbytes32 _signatureS,\n\t\tstring _extraData)\n\t\tpublic\n\t\tcanUpdate(_proposalTAOId)\n\t\tisBytesSetting(_settingId) {\n\n\t\t// Verify and store update bytes32 signature\n\t\trequire (_verifyAndStoreUpdateBytesSignature(_settingId, _newValue, _proposalTAOId, _signatureV, _signatureR, _signatureS));\n\n\t\t// Store the setting state data\n\t\trequire (_aoSettingAttribute.update(_settingId, _nameFactory.ethAddressToNameId(msg.sender), _proposalTAOId, _extraData));\n\n\t\t// Store the value as pending value\n\t\t_aoSettingValue.setPendingValue(_settingId, address(0), false, _newValue, '', 0);\n\n\t\t// Store the update hash key lookup\n\t\t_storeUpdateBytesHashLookup(_settingId, _newValue, _proposalTAOId, _extraData);\n\n\t\temit SettingUpdate(_settingId, _nameFactory.ethAddressToNameId(msg.sender), _proposalTAOId);\n\t}\n\n\t/**\n\t * @dev Advocate of Setting's _associatedTAOId submits a string setting update after an update has been proposed\n\t * @param _settingId The ID of the setting to be updated\n\t * @param _newValue The new string value for this setting\n\t * @param _proposalTAOId The child of the associatedTAOId with the update Logos\n\t * @param _signatureV The V part of the signature of proposalTAOId, newValue and associatedTAOId's Advocate\n\t * @param _signatureR The R part of the signature of proposalTAOId, newValue and associatedTAOId's Advocate\n\t * @param _signatureS The S part of the signature of proposalTAOId, newValue and associatedTAOId's Advocate\n\t * @param _extraData Catch-all string value to be stored if exist\n\t */\n\tfunction updateStringSetting(\n\t\tuint256 _settingId,\n\t\tstring _newValue,\n\t\taddress _proposalTAOId,\n\t\tuint8 _signatureV,\n\t\tbytes32 _signatureR,\n\t\tbytes32 _signatureS,\n\t\tstring _extraData)\n\t\tpublic\n\t\tcanUpdate(_proposalTAOId)\n\t\tisStringSetting(_settingId) {\n\n\t\t// Verify and store update string signature\n\t\trequire (_verifyAndStoreUpdateStringSignature(_settingId, _newValue, _proposalTAOId, _signatureV, _signatureR, _signatureS));\n\n\t\t// Store the setting state data\n\t\trequire (_aoSettingAttribute.update(_settingId, _nameFactory.ethAddressToNameId(msg.sender), _proposalTAOId, _extraData));\n\n\t\t// Store the value as pending value\n\t\t_aoSettingValue.setPendingValue(_settingId, address(0), false, '', _newValue, 0);\n\n\t\t// Store the update hash key lookup\n\t\t_storeUpdateStringHashLookup(_settingId, _newValue, _proposalTAOId, _extraData);\n\n\t\temit SettingUpdate(_settingId, _nameFactory.ethAddressToNameId(msg.sender), _proposalTAOId);\n\t}\n\n\t/**\n\t * @dev Advocate of Setting's _associatedTAOId submits a uint256 setting update after an update has been proposed\n\t * @param _settingId The ID of the setting to be updated\n\t * @param _newValue The new uint256 value for this setting\n\t * @param _proposalTAOId The child of the associatedTAOId with the update Logos\n\t * @param _signatureV The V part of the signature of proposalTAOId, newValue and associatedTAOId's Advocate\n\t * @param _signatureR The R part of the signature of proposalTAOId, newValue and associatedTAOId's Advocate\n\t * @param _signatureS The S part of the signature of proposalTAOId, newValue and associatedTAOId's Advocate\n\t * @param _extraData Catch-all string value to be stored if exist\n\t */\n\tfunction updateUintSetting(\n\t\tuint256 _settingId,\n\t\tuint256 _newValue,\n\t\taddress _proposalTAOId,\n\t\tuint8 _signatureV,\n\t\tbytes32 _signatureR,\n\t\tbytes32 _signatureS,\n\t\tstring _extraData)\n\t\tpublic\n\t\tcanUpdate(_proposalTAOId)\n\t\tisUintSetting(_settingId) {\n\n\t\t// Verify and store update uint256 signature\n\t\trequire (_verifyAndStoreUpdateUintSignature(_settingId, _newValue, _proposalTAOId, _signatureV, _signatureR, _signatureS));\n\n\t\t// Store the setting state data\n\t\trequire (_aoSettingAttribute.update(_settingId, _nameFactory.ethAddressToNameId(msg.sender), _proposalTAOId, _extraData));\n\n\t\t// Store the value as pending value\n\t\t_aoSettingValue.setPendingValue(_settingId, address(0), false, '', '', _newValue);\n\n\t\t// Store the update hash key lookup\n\t\t_storeUpdateUintHashLookup(_settingId, _newValue, _proposalTAOId, _extraData);\n\n\t\temit SettingUpdate(_settingId, _nameFactory.ethAddressToNameId(msg.sender), _proposalTAOId);\n\t}\n\n\t/**\n\t * @dev Advocate of Setting's proposalTAOId approves the setting update\n\t * @param _settingId The ID of the setting to be approved\n\t * @param _approved Whether to approve or reject\n\t */\n\tfunction approveSettingUpdate(uint256 _settingId, bool _approved) public senderIsName senderNameNotCompromised {\n\t\t// Make sure setting exist\n\t\trequire (_aoSetting.settingTypeLookup(_settingId) > 0);\n\n\t\taddress _proposalTAOAdvocate = _nameFactory.ethAddressToNameId(msg.sender);\n\t\t(,,, address _proposalTAOId,,) = _aoSettingAttribute.getSettingState(_settingId);\n\n\t\trequire (_aoSettingAttribute.approveUpdate(_settingId, _proposalTAOAdvocate, _approved));\n\n\t\temit ApproveSettingUpdate(_settingId, _proposalTAOId, _proposalTAOAdvocate, _approved);\n\t}\n\n\t/**\n\t * @dev Advocate of Setting's _associatedTAOId finalizes the setting update once the setting is approved\n\t * @param _settingId The ID of the setting to be finalized\n\t */\n\tfunction finalizeSettingUpdate(uint256 _settingId) public senderIsName senderNameNotCompromised {\n\t\t// Make sure setting exist\n\t\trequire (_aoSetting.settingTypeLookup(_settingId) > 0);\n\n\t\taddress _associatedTAOAdvocate = _nameFactory.ethAddressToNameId(msg.sender);\n\t\trequire (_aoSettingAttribute.finalizeUpdate(_settingId, _associatedTAOAdvocate));\n\n\t\t(,,, address _associatedTAOId,,,,,) = _aoSettingAttribute.getSettingData(_settingId);\n\n\t\trequire (_aoSettingValue.movePendingToSetting(_settingId));\n\n\t\temit FinalizeSettingUpdate(_settingId, _associatedTAOId, _associatedTAOAdvocate);\n\t}\n\n\t/***** Internal Method *****/\n\t/**\n\t * @dev Verify the signature for the address update and store the signature info\n\t * @param _settingId The ID of the setting to be updated\n\t * @param _newValue The new address value for this setting\n\t * @param _proposalTAOId The child of the associatedTAOId with the update Logos\n\t * @param _v The V part of the signature of proposalTAOId, newValue and associatedTAOId's Advocate\n\t * @param _r The R part of the signature of proposalTAOId, newValue and associatedTAOId's Advocate\n\t * @param _s The S part of the signature of proposalTAOId, newValue and associatedTAOId's Advocate\n\t * @return true if valid, false otherwise\n\t */\n\tfunction _verifyAndStoreUpdateAddressSignature(\n\t\tuint256 _settingId,\n\t\taddress _newValue,\n\t\taddress _proposalTAOId,\n\t\tuint8 _v,\n\t\tbytes32 _r,\n\t\tbytes32 _s\n\t\t) internal returns (bool) {\n\t\tbytes32 _hash = keccak256(abi.encodePacked(address(this), _settingId, _proposalTAOId, _newValue, _nameFactory.ethAddressToNameId(msg.sender)));\n\t\tif (ecrecover(_hash, _v, _r, _s) != msg.sender) {\n\t\t\treturn false;\n\t\t}\n\t\t_storeUpdateSignature(_settingId, _v, _r, _s);\n\t\treturn true;\n\t}\n\n\t/**\n\t * @dev Verify the signature for the bool update and store the signature info\n\t * @param _settingId The ID of the setting to be updated\n\t * @param _newValue The new bool value for this setting\n\t * @param _proposalTAOId The child of the associatedTAOId with the update Logos\n\t * @param _v The V part of the signature of proposalTAOId, newValue and associatedTAOId's Advocate\n\t * @param _r The R part of the signature of proposalTAOId, newValue and associatedTAOId's Advocate\n\t * @param _s The S part of the signature of proposalTAOId, newValue and associatedTAOId's Advocate\n\t * @return true if valid, false otherwise\n\t */\n\tfunction _verifyAndStoreUpdateBoolSignature(\n\t\tuint256 _settingId,\n\t\tbool _newValue,\n\t\taddress _proposalTAOId,\n\t\tuint8 _v,\n\t\tbytes32 _r,\n\t\tbytes32 _s\n\t\t) internal returns (bool) {\n\t\tbytes32 _hash = keccak256(abi.encodePacked(address(this), _settingId, _proposalTAOId, _newValue, _nameFactory.ethAddressToNameId(msg.sender)));\n\t\tif (ecrecover(_hash, _v, _r, _s) != msg.sender) {\n\t\t\treturn false;\n\t\t}\n\t\t_storeUpdateSignature(_settingId, _v, _r, _s);\n\t\treturn true;\n\t}\n\n\t/**\n\t * @dev Verify the signature for the bytes32 update and store the signature info\n\t * @param _settingId The ID of the setting to be updated\n\t * @param _newValue The new bytes32 value for this setting\n\t * @param _proposalTAOId The child of the associatedTAOId with the update Logos\n\t * @param _v The V part of the signature of proposalTAOId, newValue and associatedTAOId's Advocate\n\t * @param _r The R part of the signature of proposalTAOId, newValue and associatedTAOId's Advocate\n\t * @param _s The S part of the signature of proposalTAOId, newValue and associatedTAOId's Advocate\n\t * @return true if valid, false otherwise\n\t */\n\tfunction _verifyAndStoreUpdateBytesSignature(\n\t\tuint256 _settingId,\n\t\tbytes32 _newValue,\n\t\taddress _proposalTAOId,\n\t\tuint8 _v,\n\t\tbytes32 _r,\n\t\tbytes32 _s\n\t\t) internal returns (bool) {\n\t\tbytes32 _hash = keccak256(abi.encodePacked(address(this), _settingId, _proposalTAOId, _newValue, _nameFactory.ethAddressToNameId(msg.sender)));\n\t\tif (ecrecover(_hash, _v, _r, _s) != msg.sender) {\n\t\t\treturn false;\n\t\t}\n\t\t_storeUpdateSignature(_settingId, _v, _r, _s);\n\t\treturn true;\n\t}\n\n\t/**\n\t * @dev Verify the signature for the string update and store the signature info\n\t * @param _settingId The ID of the setting to be updated\n\t * @param _newValue The new string value for this setting\n\t * @param _proposalTAOId The child of the associatedTAOId with the update Logos\n\t * @param _v The V part of the signature of proposalTAOId, newValue and associatedTAOId's Advocate\n\t * @param _r The R part of the signature of proposalTAOId, newValue and associatedTAOId's Advocate\n\t * @param _s The S part of the signature of proposalTAOId, newValue and associatedTAOId's Advocate\n\t * @return true if valid, false otherwise\n\t */\n\tfunction _verifyAndStoreUpdateStringSignature(\n\t\tuint256 _settingId,\n\t\tstring _newValue,\n\t\taddress _proposalTAOId,\n\t\tuint8 _v,\n\t\tbytes32 _r,\n\t\tbytes32 _s\n\t\t) internal returns (bool) {\n\t\tbytes32 _hash = keccak256(abi.encodePacked(address(this), _settingId, _proposalTAOId, _newValue, _nameFactory.ethAddressToNameId(msg.sender)));\n\t\tif (ecrecover(_hash, _v, _r, _s) != msg.sender) {\n\t\t\treturn false;\n\t\t}\n\t\t_storeUpdateSignature(_settingId, _v, _r, _s);\n\t\treturn true;\n\t}\n\n\t/**\n\t * @dev Verify the signature for the uint256 update and store the signature info\n\t * @param _settingId The ID of the setting to be updated\n\t * @param _newValue The new uint256 value for this setting\n\t * @param _proposalTAOId The child of the associatedTAOId with the update Logos\n\t * @param _v The V part of the signature of proposalTAOId, newValue and associatedTAOId's Advocate\n\t * @param _r The R part of the signature of proposalTAOId, newValue and associatedTAOId's Advocate\n\t * @param _s The S part of the signature of proposalTAOId, newValue and associatedTAOId's Advocate\n\t * @return true if valid, false otherwise\n\t */\n\tfunction _verifyAndStoreUpdateUintSignature(\n\t\tuint256 _settingId,\n\t\tuint256 _newValue,\n\t\taddress _proposalTAOId,\n\t\tuint8 _v,\n\t\tbytes32 _r,\n\t\tbytes32 _s\n\t\t) public returns (bool) {\n\t\tbytes32 _hash = keccak256(abi.encodePacked(address(this), _settingId, _proposalTAOId, _newValue, _nameFactory.ethAddressToNameId(msg.sender)));\n\t\tif (ecrecover(_hash, _v, _r, _s) != msg.sender) {\n\t\t\treturn false;\n\t\t}\n\t\t_storeUpdateSignature(_settingId, _v, _r, _s);\n\t\treturn true;\n\t}\n\n\t/**\n\t * @dev Store the update hash lookup for this address setting\n\t * @param _settingId The ID of the setting to be updated\n\t * @param _newValue The new address value for this setting\n\t * @param _proposalTAOId The child of the associatedTAOId with the update Logos\n\t * @param _extraData Catch-all string value to be stored if exist\n\t */\n\tfunction _storeUpdateAddressHashLookup(\n\t\tuint256 _settingId,\n\t\taddress _newValue,\n\t\taddress _proposalTAOId,\n\t\tstring _extraData)\n\t\tinternal {\n\t\t// Store the update hash key lookup\n\t\t(address _addressValue,,,,) = _aoSettingValue.settingValue(_settingId);\n\t\tupdateHashLookup[keccak256(abi.encodePacked(address(this), _proposalTAOId, _addressValue, _newValue, _extraData, _settingId))] = _settingId;\n\t}\n\n\t/**\n\t * @dev Store the update hash lookup for this bool setting\n\t * @param _settingId The ID of the setting to be updated\n\t * @param _newValue The new bool value for this setting\n\t * @param _proposalTAOId The child of the associatedTAOId with the update Logos\n\t * @param _extraData Catch-all string value to be stored if exist\n\t */\n\tfunction _storeUpdateBoolHashLookup(\n\t\tuint256 _settingId,\n\t\tbool _newValue,\n\t\taddress _proposalTAOId,\n\t\tstring _extraData)\n\t\tinternal {\n\t\t// Store the update hash key lookup\n\t\t(, bool _boolValue,,,) = _aoSettingValue.settingValue(_settingId);\n\t\tupdateHashLookup[keccak256(abi.encodePacked(address(this), _proposalTAOId, _boolValue, _newValue, _extraData, _settingId))] = _settingId;\n\t}\n\n\t/**\n\t * @dev Store the update hash lookup for this bytes32 setting\n\t * @param _settingId The ID of the setting to be updated\n\t * @param _newValue The new bytes32 value for this setting\n\t * @param _proposalTAOId The child of the associatedTAOId with the update Logos\n\t * @param _extraData Catch-all string value to be stored if exist\n\t */\n\tfunction _storeUpdateBytesHashLookup(\n\t\tuint256 _settingId,\n\t\tbytes32 _newValue,\n\t\taddress _proposalTAOId,\n\t\tstring _extraData)\n\t\tinternal {\n\t\t// Store the update hash key lookup\n\t\t(,, bytes32 _bytesValue,,) = _aoSettingValue.settingValue(_settingId);\n\t\tupdateHashLookup[keccak256(abi.encodePacked(address(this), _proposalTAOId, _bytesValue, _newValue, _extraData, _settingId))] = _settingId;\n\t}\n\n\t/**\n\t * @dev Store the update hash lookup for this string setting\n\t * @param _settingId The ID of the setting to be updated\n\t * @param _newValue The new string value for this setting\n\t * @param _proposalTAOId The child of the associatedTAOId with the update Logos\n\t * @param _extraData Catch-all string value to be stored if exist\n\t */\n\tfunction _storeUpdateStringHashLookup(\n\t\tuint256 _settingId,\n\t\tstring _newValue,\n\t\taddress _proposalTAOId,\n\t\tstring _extraData)\n\t\tinternal {\n\t\t// Store the update hash key lookup\n\t\t(,,, string memory _stringValue,) = _aoSettingValue.settingValue(_settingId);\n\t\tupdateHashLookup[keccak256(abi.encodePacked(address(this), _proposalTAOId, _stringValue, _newValue, _extraData, _settingId))] = _settingId;\n\t}\n\n\t/**\n\t * @dev Store the update hash lookup for this uint256 setting\n\t * @param _settingId The ID of the setting to be updated\n\t * @param _newValue The new address value for this setting\n\t * @param _proposalTAOId The child of the associatedTAOId with the update Logos\n\t * @param _extraData Catch-all string value to be stored if exist\n\t */\n\tfunction _storeUpdateUintHashLookup(\n\t\tuint256 _settingId,\n\t\tuint256 _newValue,\n\t\taddress _proposalTAOId,\n\t\tstring _extraData)\n\t\tinternal {\n\t\t// Store the update hash key lookup\n\t\t(,,,, uint256 _uintValue) = _aoSettingValue.settingValue(_settingId);\n\t\tupdateHashLookup[keccak256(abi.encodePacked(address(this), _proposalTAOId, _uintValue, _newValue, _extraData, _settingId))] = _settingId;\n\t}\n\n\t/**\n\t * @dev Actual storing the UpdateSignature info\n\t * @param _settingId The ID of the setting to be updated\n\t * @param _v The V part of the signature of proposalTAOId, newValue and associatedTAOId's Advocate\n\t * @param _r The R part of the signature of proposalTAOId, newValue and associatedTAOId's Advocate\n\t * @param _s The S part of the signature of proposalTAOId, newValue and associatedTAOId's Advocate\n\t */\n\tfunction _storeUpdateSignature(uint256 _settingId, uint8 _v, bytes32 _r, bytes32 _s) internal {\n\t\tUpdateSignature storage _updateSignature = updateSignatures[_settingId];\n\t\t_updateSignature.signatureV = _v;\n\t\t_updateSignature.signatureR = _r;\n\t\t_updateSignature.signatureS = _s;\n\t}\n}\n",
	"sourcePath": "/Users/johanmulyono/Work/AO/ao-contracts/contracts/AOSettingUpdate.sol",
	"compiler": {
		"name": "solc",
		"version": "0.4.24+commit.e67f0147.Emscripten.clang"
	},
	"schemaVersion": "2.0.1",
	"updatedAt": "2019-03-22T03:50:43.861Z"
}