{
	"contractName": "AOStakedContent",
	"abi": [
		{
			"constant": true,
			"inputs": [],
			"name": "totalStakedContents",
			"outputs": [
				{
					"name": "",
					"type": "uint256"
				}
			],
			"payable": false,
			"stateMutability": "view",
			"type": "function"
		},
		{
			"constant": true,
			"inputs": [],
			"name": "aoIonAddress",
			"outputs": [
				{
					"name": "",
					"type": "address"
				}
			],
			"payable": false,
			"stateMutability": "view",
			"type": "function"
		},
		{
			"constant": true,
			"inputs": [],
			"name": "nameTAOPositionAddress",
			"outputs": [
				{
					"name": "",
					"type": "address"
				}
			],
			"payable": false,
			"stateMutability": "view",
			"type": "function"
		},
		{
			"constant": true,
			"inputs": [],
			"name": "aoTreasuryAddress",
			"outputs": [
				{
					"name": "",
					"type": "address"
				}
			],
			"payable": false,
			"stateMutability": "view",
			"type": "function"
		},
		{
			"constant": true,
			"inputs": [],
			"name": "aoContentAddress",
			"outputs": [
				{
					"name": "",
					"type": "address"
				}
			],
			"payable": false,
			"stateMutability": "view",
			"type": "function"
		},
		{
			"constant": true,
			"inputs": [
				{
					"name": "",
					"type": "address"
				}
			],
			"name": "whitelist",
			"outputs": [
				{
					"name": "",
					"type": "bool"
				}
			],
			"payable": false,
			"stateMutability": "view",
			"type": "function"
		},
		{
			"constant": true,
			"inputs": [],
			"name": "theAO",
			"outputs": [
				{
					"name": "",
					"type": "address"
				}
			],
			"payable": false,
			"stateMutability": "view",
			"type": "function"
		},
		{
			"constant": true,
			"inputs": [],
			"name": "nameFactoryAddress",
			"outputs": [
				{
					"name": "",
					"type": "address"
				}
			],
			"payable": false,
			"stateMutability": "view",
			"type": "function"
		},
		{
			"constant": true,
			"inputs": [],
			"name": "namePublicKeyAddress",
			"outputs": [
				{
					"name": "",
					"type": "address"
				}
			],
			"payable": false,
			"stateMutability": "view",
			"type": "function"
		},
		{
			"inputs": [
				{
					"name": "_aoIonAddress",
					"type": "address"
				},
				{
					"name": "_aoTreasuryAddress",
					"type": "address"
				},
				{
					"name": "_aoContentAddress",
					"type": "address"
				},
				{
					"name": "_nameFactoryAddress",
					"type": "address"
				},
				{
					"name": "_namePublicKeyAddress",
					"type": "address"
				},
				{
					"name": "_nameTAOPositionAddress",
					"type": "address"
				}
			],
			"payable": false,
			"stateMutability": "nonpayable",
			"type": "constructor"
		},
		{
			"anonymous": false,
			"inputs": [
				{
					"indexed": true,
					"name": "stakeOwner",
					"type": "address"
				},
				{
					"indexed": true,
					"name": "stakedContentId",
					"type": "bytes32"
				},
				{
					"indexed": true,
					"name": "contentId",
					"type": "bytes32"
				},
				{
					"indexed": false,
					"name": "baseNetworkAmount",
					"type": "uint256"
				},
				{
					"indexed": false,
					"name": "primordialAmount",
					"type": "uint256"
				},
				{
					"indexed": false,
					"name": "primordialWeightedMultiplier",
					"type": "uint256"
				},
				{
					"indexed": false,
					"name": "profitPercentage",
					"type": "uint256"
				},
				{
					"indexed": false,
					"name": "createdOnTimestamp",
					"type": "uint256"
				}
			],
			"name": "StakeContent",
			"type": "event"
		},
		{
			"anonymous": false,
			"inputs": [
				{
					"indexed": true,
					"name": "stakeOwner",
					"type": "address"
				},
				{
					"indexed": true,
					"name": "stakedContentId",
					"type": "bytes32"
				},
				{
					"indexed": false,
					"name": "newProfitPercentage",
					"type": "uint256"
				}
			],
			"name": "SetProfitPercentage",
			"type": "event"
		},
		{
			"anonymous": false,
			"inputs": [
				{
					"indexed": true,
					"name": "stakeOwner",
					"type": "address"
				},
				{
					"indexed": true,
					"name": "stakedContentId",
					"type": "bytes32"
				},
				{
					"indexed": true,
					"name": "contentId",
					"type": "bytes32"
				},
				{
					"indexed": false,
					"name": "remainingNetworkAmount",
					"type": "uint256"
				},
				{
					"indexed": false,
					"name": "remainingPrimordialAmount",
					"type": "uint256"
				},
				{
					"indexed": false,
					"name": "primordialWeightedMultiplier",
					"type": "uint256"
				}
			],
			"name": "UnstakePartialContent",
			"type": "event"
		},
		{
			"anonymous": false,
			"inputs": [
				{
					"indexed": true,
					"name": "stakeOwner",
					"type": "address"
				},
				{
					"indexed": true,
					"name": "stakedContentId",
					"type": "bytes32"
				}
			],
			"name": "UnstakeContent",
			"type": "event"
		},
		{
			"anonymous": false,
			"inputs": [
				{
					"indexed": true,
					"name": "stakeOwner",
					"type": "address"
				},
				{
					"indexed": true,
					"name": "stakedContentId",
					"type": "bytes32"
				},
				{
					"indexed": true,
					"name": "contentId",
					"type": "bytes32"
				},
				{
					"indexed": false,
					"name": "currentNetworkAmount",
					"type": "uint256"
				},
				{
					"indexed": false,
					"name": "currentPrimordialAmount",
					"type": "uint256"
				},
				{
					"indexed": false,
					"name": "currentPrimordialWeightedMultiplier",
					"type": "uint256"
				}
			],
			"name": "StakeExistingContent",
			"type": "event"
		},
		{
			"constant": false,
			"inputs": [
				{
					"name": "_theAO",
					"type": "address"
				}
			],
			"name": "transferOwnership",
			"outputs": [],
			"payable": false,
			"stateMutability": "nonpayable",
			"type": "function"
		},
		{
			"constant": false,
			"inputs": [
				{
					"name": "_account",
					"type": "address"
				},
				{
					"name": "_whitelist",
					"type": "bool"
				}
			],
			"name": "setWhitelist",
			"outputs": [],
			"payable": false,
			"stateMutability": "nonpayable",
			"type": "function"
		},
		{
			"constant": false,
			"inputs": [
				{
					"name": "_aoIonAddress",
					"type": "address"
				}
			],
			"name": "setAOIonAddress",
			"outputs": [],
			"payable": false,
			"stateMutability": "nonpayable",
			"type": "function"
		},
		{
			"constant": false,
			"inputs": [
				{
					"name": "_aoTreasuryAddress",
					"type": "address"
				}
			],
			"name": "setAOTreasuryAddress",
			"outputs": [],
			"payable": false,
			"stateMutability": "nonpayable",
			"type": "function"
		},
		{
			"constant": false,
			"inputs": [
				{
					"name": "_aoContentAddress",
					"type": "address"
				}
			],
			"name": "setAOContentAddress",
			"outputs": [],
			"payable": false,
			"stateMutability": "nonpayable",
			"type": "function"
		},
		{
			"constant": false,
			"inputs": [
				{
					"name": "_nameFactoryAddress",
					"type": "address"
				}
			],
			"name": "setNameFactoryAddress",
			"outputs": [],
			"payable": false,
			"stateMutability": "nonpayable",
			"type": "function"
		},
		{
			"constant": false,
			"inputs": [
				{
					"name": "_namePublicKeyAddress",
					"type": "address"
				}
			],
			"name": "setNamePublicKeyAddress",
			"outputs": [],
			"payable": false,
			"stateMutability": "nonpayable",
			"type": "function"
		},
		{
			"constant": false,
			"inputs": [
				{
					"name": "_nameTAOPositionAddress",
					"type": "address"
				}
			],
			"name": "setNameTAOPositionAddress",
			"outputs": [],
			"payable": false,
			"stateMutability": "nonpayable",
			"type": "function"
		},
		{
			"constant": false,
			"inputs": [
				{
					"name": "_stakeOwner",
					"type": "address"
				},
				{
					"name": "_contentId",
					"type": "bytes32"
				},
				{
					"name": "_networkIntegerAmount",
					"type": "uint256"
				},
				{
					"name": "_networkFractionAmount",
					"type": "uint256"
				},
				{
					"name": "_denomination",
					"type": "bytes8"
				},
				{
					"name": "_primordialAmount",
					"type": "uint256"
				},
				{
					"name": "_profitPercentage",
					"type": "uint256"
				}
			],
			"name": "create",
			"outputs": [
				{
					"name": "",
					"type": "bytes32"
				}
			],
			"payable": false,
			"stateMutability": "nonpayable",
			"type": "function"
		},
		{
			"constant": false,
			"inputs": [
				{
					"name": "_stakedContentId",
					"type": "bytes32"
				},
				{
					"name": "_profitPercentage",
					"type": "uint256"
				}
			],
			"name": "setProfitPercentage",
			"outputs": [],
			"payable": false,
			"stateMutability": "nonpayable",
			"type": "function"
		},
		{
			"constant": true,
			"inputs": [
				{
					"name": "_stakedContentId",
					"type": "bytes32"
				}
			],
			"name": "getById",
			"outputs": [
				{
					"name": "",
					"type": "bytes32"
				},
				{
					"name": "",
					"type": "address"
				},
				{
					"name": "",
					"type": "uint256"
				},
				{
					"name": "",
					"type": "uint256"
				},
				{
					"name": "",
					"type": "uint256"
				},
				{
					"name": "",
					"type": "uint256"
				},
				{
					"name": "",
					"type": "bool"
				},
				{
					"name": "",
					"type": "uint256"
				}
			],
			"payable": false,
			"stateMutability": "view",
			"type": "function"
		},
		{
			"constant": false,
			"inputs": [
				{
					"name": "_stakedContentId",
					"type": "bytes32"
				},
				{
					"name": "_networkIntegerAmount",
					"type": "uint256"
				},
				{
					"name": "_networkFractionAmount",
					"type": "uint256"
				},
				{
					"name": "_denomination",
					"type": "bytes8"
				},
				{
					"name": "_primordialAmount",
					"type": "uint256"
				}
			],
			"name": "unstakePartialContent",
			"outputs": [],
			"payable": false,
			"stateMutability": "nonpayable",
			"type": "function"
		},
		{
			"constant": false,
			"inputs": [
				{
					"name": "_stakedContentId",
					"type": "bytes32"
				}
			],
			"name": "unstakeContent",
			"outputs": [],
			"payable": false,
			"stateMutability": "nonpayable",
			"type": "function"
		},
		{
			"constant": false,
			"inputs": [
				{
					"name": "_stakedContentId",
					"type": "bytes32"
				},
				{
					"name": "_networkIntegerAmount",
					"type": "uint256"
				},
				{
					"name": "_networkFractionAmount",
					"type": "uint256"
				},
				{
					"name": "_denomination",
					"type": "bytes8"
				},
				{
					"name": "_primordialAmount",
					"type": "uint256"
				}
			],
			"name": "stakeExistingContent",
			"outputs": [],
			"payable": false,
			"stateMutability": "nonpayable",
			"type": "function"
		},
		{
			"constant": true,
			"inputs": [
				{
					"name": "_stakedContentId",
					"type": "bytes32"
				}
			],
			"name": "isActive",
			"outputs": [
				{
					"name": "",
					"type": "bool"
				}
			],
			"payable": false,
			"stateMutability": "view",
			"type": "function"
		}
	],
	"bytecode": "0x60806040523480156200001157600080fd5b5060405160c08062003bd683398101604090815281516020830151918301516060840151608085015160a09095015160008054600160a060020a03191633179055929491929091906200006d86640100000000620000dd810204565b6200008185640100000000620001e2810204565b6200009584640100000000620002e7810204565b620000a983640100000000620003ec810204565b620000bd82640100000000620004f1810204565b620000d181640100000000620005f6810204565b505050505050620006f1565b600054600154604080517ff66afcac000000000000000000000000000000000000000000000000000000008152336004820152600160a060020a0393841660248201529290911660448301525173__AOLibrary_____________________________9163f66afcac916064808301926020929190829003018186803b1580156200016657600080fd5b505af41580156200017b573d6000803e3d6000fd5b505050506040513d60208110156200019257600080fd5b50511515620001a057600080fd5b600160a060020a0381161515620001b657600080fd5b60048054600160a060020a03909216600160a060020a0319928316811790915560098054909216179055565b600054600154604080517ff66afcac000000000000000000000000000000000000000000000000000000008152336004820152600160a060020a0393841660248201529290911660448301525173__AOLibrary_____________________________9163f66afcac916064808301926020929190829003018186803b1580156200026b57600080fd5b505af415801562000280573d6000803e3d6000fd5b505050506040513d60208110156200029757600080fd5b50511515620002a557600080fd5b600160a060020a0381161515620002bb57600080fd5b60058054600160a060020a03909216600160a060020a03199283168117909155600a8054909216179055565b600054600154604080517ff66afcac000000000000000000000000000000000000000000000000000000008152336004820152600160a060020a0393841660248201529290911660448301525173__AOLibrary_____________________________9163f66afcac916064808301926020929190829003018186803b1580156200037057600080fd5b505af415801562000385573d6000803e3d6000fd5b505050506040513d60208110156200039c57600080fd5b50511515620003aa57600080fd5b600160a060020a0381161515620003c057600080fd5b60068054600160a060020a03909216600160a060020a03199283168117909155600b8054909216179055565b600054600154604080517ff66afcac000000000000000000000000000000000000000000000000000000008152336004820152600160a060020a0393841660248201529290911660448301525173__AOLibrary_____________________________9163f66afcac916064808301926020929190829003018186803b1580156200047557600080fd5b505af41580156200048a573d6000803e3d6000fd5b505050506040513d6020811015620004a157600080fd5b50511515620004af57600080fd5b600160a060020a0381161515620004c557600080fd5b60078054600160a060020a03909216600160a060020a03199283168117909155600c8054909216179055565b600054600154604080517ff66afcac000000000000000000000000000000000000000000000000000000008152336004820152600160a060020a0393841660248201529290911660448301525173__AOLibrary_____________________________9163f66afcac916064808301926020929190829003018186803b1580156200057a57600080fd5b505af41580156200058f573d6000803e3d6000fd5b505050506040513d6020811015620005a657600080fd5b50511515620005b457600080fd5b600160a060020a0381161515620005ca57600080fd5b60088054600160a060020a03909216600160a060020a03199283168117909155600d8054909216179055565b600054600154604080517ff66afcac000000000000000000000000000000000000000000000000000000008152336004820152600160a060020a0393841660248201529290911660448301525173__AOLibrary_____________________________9163f66afcac916064808301926020929190829003018186803b1580156200067f57600080fd5b505af415801562000694573d6000803e3d6000fd5b505050506040513d6020811015620006ab57600080fd5b50511515620006b957600080fd5b600160a060020a0381161515620006cf57600080fd5b60018054600160a060020a031916600160a060020a0392909216919091179055565b6134d580620007016000396000f3006080604052600436106101245763ffffffff60e060020a60003504166307a8385e8114610129578063202352f71461014c5780632dff0d0d146101735780633c56b011146101d65780634ef033f01461020757806353d6fd591461021c5780635c36901c146102425780635cfaf2ef1461026e5780635f7b99ea1461028f5780636d9aa034146102a457806370660f7c146102c557806385cb86c8146102f357806389a83246146103085780638c924361146103295780639789f6171461034a5780639b19251a14610387578063a9b6b38e146103a8578063b380b0d4146103bd578063bc406206146103d8578063c3db397f146103ed578063d8ce52d11461041b578063e6ab96ed14610430578063f2fde38b14610448578063f97106b514610469575b600080fd5b34801561013557600080fd5b5061014a600160a060020a036004351661048a565b005b34801561015857600080fd5b50610161610574565b60408051918252519081900360200190f35b34801561017f57600080fd5b5061018b60043561057a565b60408051988952600160a060020a039097166020890152878701959095526060870193909352608086019190915260a0850152151560c084015260e083015251908190036101000190f35b3480156101e257600080fd5b506101eb610655565b60408051600160a060020a039092168252519081900360200190f35b34801561021357600080fd5b506101eb610664565b34801561022857600080fd5b5061014a600160a060020a03600435166024351515610673565b34801561024e57600080fd5b5061025a60043561075c565b604080519115158252519081900360200190f35b34801561027a57600080fd5b5061014a600160a060020a0360043516610845565b34801561029b57600080fd5b506101eb610925565b3480156102b057600080fd5b5061014a600160a060020a0360043516610934565b3480156102d157600080fd5b5061014a600435602435604435600160c060020a031960643516608435610a1e565b3480156102ff57600080fd5b506101eb6113d2565b34801561031457600080fd5b5061014a600160a060020a03600435166113e1565b34801561033557600080fd5b5061014a600160a060020a03600435166114cb565b34801561035657600080fd5b50610161600160a060020a0360043516602435604435606435600160c060020a03196084351660a43560c4356115b5565b34801561039357600080fd5b5061025a600160a060020a0360043516611c53565b3480156103b457600080fd5b506101eb611c68565b3480156103c957600080fd5b5061014a600435602435611c77565b3480156103e457600080fd5b506101eb611ee3565b3480156103f957600080fd5b5061014a600435602435604435600160c060020a031960643516608435611ef2565b34801561042757600080fd5b506101eb612631565b34801561043c57600080fd5b5061014a600435612640565b34801561045457600080fd5b5061014a600160a060020a0360043516612a87565b34801561047557600080fd5b5061014a600160a060020a0360043516612b67565b6000546001546040805160e260020a633d9abf2b028152336004820152600160a060020a0393841660248201529290911660448301525173__AOLibrary_____________________________9163f66afcac916064808301926020929190829003018186803b1580156104fc57600080fd5b505af4158015610510573d6000803e3d6000fd5b505050506040513d602081101561052657600080fd5b5051151561053357600080fd5b600160a060020a038116151561054857600080fd5b60058054600160a060020a03909216600160a060020a03199283168117909155600a8054909216179055565b60035481565b60008060008060008060008061058e61345d565b60008a8152600f6020526040812054116105a757600080fd5b50505060009687525050600f60209081526040808720548752600e8252958690208651610120810188528154815260018201549281018390526002820154600160a060020a0316978101889052600382015460608201819052600483015460808301819052600584015460a08401819052600685015460c08501819052600786015460ff16151560e08601819052600890960154610100909501859052959b92995090975095509293509091565b600454600160a060020a031681565b600154600160a060020a031681565b6000546001546040805160e260020a633d9abf2b028152336004820152600160a060020a0393841660248201529290911660448301525173__AOLibrary_____________________________9163f66afcac916064808301926020929190829003018186803b1580156106e557600080fd5b505af41580156106f9573d6000803e3d6000fd5b505050506040513d602081101561070f57600080fd5b5051151561071c57600080fd5b600160a060020a038216151561073157600080fd5b600160a060020a03919091166000908152600260205260409020805460ff1916911515919091179055565b600061076661345d565b6000838152600f60205260408120541161077f57600080fd5b506000828152600f60209081526040808320548352600e82529182902082516101208101845281548152600180830154938201939093526002820154600160a060020a0316938101939093526003810154606084015260048101546080840152600581015460a0840152600681015460c0840152600781015460ff16151560e0840181905260089091015461010084015214801561083e575060008160600151118061083e57506000816080015111801561083e575060008160a00151115b9392505050565b6000546001546040805160e260020a633d9abf2b028152336004820152600160a060020a0393841660248201529290911660448301525173__AOLibrary_____________________________9163f66afcac916064808301926020929190829003018186803b1580156108b757600080fd5b505af41580156108cb573d6000803e3d6000fd5b505050506040513d60208110156108e157600080fd5b505115156108ee57600080fd5b600160a060020a038116151561090357600080fd5b60018054600160a060020a031916600160a060020a0392909216919091179055565b600554600160a060020a031681565b6000546001546040805160e260020a633d9abf2b028152336004820152600160a060020a0393841660248201529290911660448301525173__AOLibrary_____________________________9163f66afcac916064808301926020929190829003018186803b1580156109a657600080fd5b505af41580156109ba573d6000803e3d6000fd5b505050506040513d60208110156109d057600080fd5b505115156109dd57600080fd5b600160a060020a03811615156109f257600080fd5b60088054600160a060020a03909216600160a060020a03199283168117909155600d8054909216179055565b6000858152600f60205260408120548190819081908110610a3e57600080fd5b6000898152600f60209081526040808320548352600e909152808220600b54600182015483517f2dff0d0d00000000000000000000000000000000000000000000000000000000815260048101919091529251919750600160a060020a031692632dff0d0d926024808201939182900301818387803b158015610ac057600080fd5b505af1158015610ad4573d6000803e3d6000fd5b505050506040513d6000823e601f3d908101601f19168201604052610120811015610afe57600080fd5b8151602083015160408401516060850151608086015160a087015160c088015160e08901516101008a018051989a9799969895979496939592949193820192640100000000811115610b4f57600080fd5b82016020810184811115610b6257600080fd5b8151640100000000811182820187101715610b7c57600080fd5b505092919050505050505050505050935050600c60009054906101000a9004600160a060020a0316600160a060020a031663029b7d53336040518263ffffffff1660e060020a0281526004018082600160a060020a0316600160a060020a03168152602001915050602060405180830381600087803b158015610bfe57600080fd5b505af1158015610c12573d6000803e3d6000fd5b505050506040513d6020811015610c2857600080fd5b50519150600160a060020a0382161515610c4157600080fd5b6002840154600160a060020a03838116911614610c5d57600080fd5b6000881180610c6c5750600087115b80610c775750600085115b1515610c8257600080fd5b600b546001850154604080517f65cf0ace000000000000000000000000000000000000000000000000000000008152600481019290925251610d4092600160a060020a0316916365cf0ace9160248083019260209291908290030181600087803b158015610cef57600080fd5b505af1158015610d03573d6000803e3d6000fd5b505050506040513d6020811015610d1957600080fd5b5051600486015460038701548691610d37919063ffffffff612c5116565b8b8b8b8b612c64565b1515610d4b57600080fd5b600085118015610d5f5750600784015460ff165b8015610d6f575060008460040154115b8015610d7f575060008460050154115b15610e8f576005840154600954600d546040805160e060020a63db536d2f028152600160a060020a03878116600483015291519382169363281bdaf8939092169163db536d2f916024808201926020929091908290030181600087803b158015610de857600080fd5b505af1158015610dfc573d6000803e3d6000fd5b505050506040513d6020811015610e1257600080fd5b50516040805160e060020a63ffffffff8516028152600160a060020a0390921660048301525160248083019260209291908290030181600087803b158015610e5957600080fd5b505af1158015610e6d573d6000803e3d6000fd5b505050506040513d6020811015610e8357600080fd5b505114610e8f57600080fd5b60078401805460ff19166001179055600a54604080517f90358f5d000000000000000000000000000000000000000000000000000000008152600160c060020a0319891660048201529051600160a060020a03909216916390358f5d916024808201926020929091908290030181600087803b158015610f0e57600080fd5b505af1158015610f22573d6000803e3d6000fd5b505050506040513d6020811015610f3857600080fd5b50518015610f5057506000881180610f505750600087115b1561111957600a546040805160e360020a63042fb71d028152600481018b9052602481018a9052600160c060020a0319891660448201529051600160a060020a039092169163217db8e8916064808201926020929091908290030181600087803b158015610fbd57600080fd5b505af1158015610fd1573d6000803e3d6000fd5b505050506040513d6020811015610fe757600080fd5b50516003850154909150611001908263ffffffff612c5116565b6003850155600954600d5460028601546040805160e060020a63db536d2f028152600160a060020a0392831660048201529051938216936331a8aeb3939092169163db536d2f916024808201926020929091908290030181600087803b15801561106a57600080fd5b505af115801561107e573d6000803e3d6000fd5b505050506040513d602081101561109457600080fd5b50516040805160e060020a63ffffffff8516028152600160a060020a039092166004830152602482018590525160448083019260209291908290030181600087803b1580156110e257600080fd5b505af11580156110f6573d6000803e3d6000fd5b505050506040513d602081101561110c57600080fd5b5051151561111957600080fd5b6000851115611367576004840154611137908663ffffffff612c5116565b600485810191909155600954600d5460028701546040805160e060020a63db536d2f028152600160a060020a0392831695810195909552519281169363281bdaf893919092169163db536d2f9160248083019260209291908290030181600087803b1580156111a557600080fd5b505af11580156111b9573d6000803e3d6000fd5b505050506040513d60208110156111cf57600080fd5b50516040805160e060020a63ffffffff8516028152600160a060020a0390921660048301525160248083019260209291908290030181600087803b15801561121657600080fd5b505af115801561122a573d6000803e3d6000fd5b505050506040513d602081101561124057600080fd5b50516005850155600954600d5460028601546040805160e060020a63db536d2f028152600160a060020a0392831660048201529051938216936318ff5c51939092169163db536d2f916024808201926020929091908290030181600087803b1580156112ab57600080fd5b505af11580156112bf573d6000803e3d6000fd5b505050506040513d60208110156112d557600080fd5b505160058701546040805160e060020a63ffffffff8616028152600160a060020a039093166004840152602483018a905260448301919091525160648083019260209291908290030181600087803b15801561133057600080fd5b505af1158015611344573d6000803e3d6000fd5b505050506040513d602081101561135a57600080fd5b5051151561136757600080fd5b600184015484546003860154600487015460058801546040805193845260208401929092528282015251600160a060020a038616917f7fa32f70b286f05be6f001e570ad7f2e82d767dc5ec7f8e0e585414189184224919081900360600190a4505050505050505050565b600654600160a060020a031681565b6000546001546040805160e260020a633d9abf2b028152336004820152600160a060020a0393841660248201529290911660448301525173__AOLibrary_____________________________9163f66afcac916064808301926020929190829003018186803b15801561145357600080fd5b505af4158015611467573d6000803e3d6000fd5b505050506040513d602081101561147d57600080fd5b5051151561148a57600080fd5b600160a060020a038116151561149f57600080fd5b60068054600160a060020a03909216600160a060020a03199283168117909155600b8054909216179055565b6000546001546040805160e260020a633d9abf2b028152336004820152600160a060020a0393841660248201529290911660448301525173__AOLibrary_____________________________9163f66afcac916064808301926020929190829003018186803b15801561153d57600080fd5b505af4158015611551573d6000803e3d6000fd5b505050506040513d602081101561156757600080fd5b5051151561157457600080fd5b600160a060020a038116151561158957600080fd5b60078054600160a060020a03909216600160a060020a03199283168117909155600c8054909216179055565b336000908152600260205260408120548190819060ff1615156001146115da57600080fd5b6115e98a8a8a8a8a8a8a612db4565b15156115f457600080fd5b600380546001019055604080516c01000000000000000000000000308102602080840191909152600160a060020a038e16909102603483015260488083018d905283518084039091018152606890920192839052815191929182918401908083835b602083106116755780518252601f199092019160209182019101611656565b51815160209384036101000a600019018019909216911617905260408051929094018290039091206003546000908152600e9092529290206002810154929650945050600160a060020a03161591506116cf905057600080fd5b81815560018082018a9055600282018054600160a060020a031916600160a060020a038d8116919091179091556006830186905560078301805460ff1916909217909155426008830155600a54604080517f90358f5d000000000000000000000000000000000000000000000000000000008152600160c060020a03198a166004820152905191909216916390358f5d9160248083019260209291908290030181600087803b15801561178157600080fd5b505af1158015611795573d6000803e3d6000fd5b505050506040513d60208110156117ab57600080fd5b505180156117c3575060008811806117c35750600087115b1561197557600a546040805160e360020a63042fb71d028152600481018b9052602481018a9052600160c060020a0319891660448201529051600160a060020a039092169163217db8e8916064808201926020929091908290030181600087803b15801561183057600080fd5b505af1158015611844573d6000803e3d6000fd5b505050506040513d602081101561185a57600080fd5b50516003820155600954600d546040805160e060020a63db536d2f028152600160a060020a038e811660048301529151938216936331a8aeb3939092169163db536d2f916024808201926020929091908290030181600087803b1580156118c057600080fd5b505af11580156118d4573d6000803e3d6000fd5b505050506040513d60208110156118ea57600080fd5b505160038401546040805160e060020a63ffffffff8616028152600160a060020a03909316600484015260248301919091525160448083019260209291908290030181600087803b15801561193e57600080fd5b505af1158015611952573d6000803e3d6000fd5b505050506040513d602081101561196857600080fd5b5051151561197557600080fd5b6000851115611bad576004818101869055600954600d5460028401546040805160e060020a63db536d2f028152600160a060020a0392831695810195909552519281169363281bdaf893919092169163db536d2f9160248083019260209291908290030181600087803b1580156119eb57600080fd5b505af11580156119ff573d6000803e3d6000fd5b505050506040513d6020811015611a1557600080fd5b50516040805160e060020a63ffffffff8516028152600160a060020a0390921660048301525160248083019260209291908290030181600087803b158015611a5c57600080fd5b505af1158015611a70573d6000803e3d6000fd5b505050506040513d6020811015611a8657600080fd5b50516005820155600954600d5460028301546040805160e060020a63db536d2f028152600160a060020a0392831660048201529051938216936318ff5c51939092169163db536d2f916024808201926020929091908290030181600087803b158015611af157600080fd5b505af1158015611b05573d6000803e3d6000fd5b505050506040513d6020811015611b1b57600080fd5b505160058401546040805160e060020a63ffffffff8616028152600160a060020a039093166004840152602483018a905260448301919091525160648083019260209291908290030181600087803b158015611b7657600080fd5b505af1158015611b8a573d6000803e3d6000fd5b505050506040513d6020811015611ba057600080fd5b50511515611bad57600080fd5b600380546000848152600f6020908152604091829020929092556001840154845460028601549486015460048701546005880154600689015460088a01548751948552978401929092528286015260608201526080810194909452915190939192600160a060020a03909216917f8e4070fcd0119c9df9d24fa5f6be85f7b7951b6b226bea5b3509e5a97b03b687919081900360a00190a4549998505050505050505050565b60026020526000908152604090205460ff1681565b600054600160a060020a031681565b60008073__AOLibrary_____________________________63caf297656040518163ffffffff1660e060020a02815260040160206040518083038186803b158015611cc157600080fd5b505af4158015611cd5573d6000803e3d6000fd5b505050506040513d6020811015611ceb57600080fd5b5051831115611cf957600080fd5b6000848152600f602052604081205411611d1257600080fd5b600c54604080517f029b7d530000000000000000000000000000000000000000000000000000000081523360048201529051600160a060020a039092169163029b7d53916024808201926020929091908290030181600087803b158015611d7857600080fd5b505af1158015611d8c573d6000803e3d6000fd5b505050506040513d6020811015611da257600080fd5b50519150600160a060020a0382161515611dbb57600080fd5b506000838152600f60209081526040808320548352600e90915290206002810154600160a060020a03838116911614611df357600080fd5b600b546001820154604080517f65cf0ace000000000000000000000000000000000000000000000000000000008152600481019290925251600160a060020a03909216916365cf0ace916024808201926020929091908290030181600087803b158015611e5f57600080fd5b505af1158015611e73573d6000803e3d6000fd5b505050506040513d6020811015611e8957600080fd5b50511515611e9657600080fd5b600681018390556040805184815290518591600160a060020a038516917f6c4a0cfd4af9f173dec0ac350616d6c855be630c8c83b3cd18879ad5a6bf6d299181900360200190a350505050565b600754600160a060020a031681565b6000858152600f60205260408120548190819081908110611f1257600080fd5b6000881180611f215750600087115b80611f2c5750600085115b1515611f3757600080fd5b6000898152600f60209081526040808320548352600e909152808220600b54600182015483517f2dff0d0d00000000000000000000000000000000000000000000000000000000815260048101919091529251919750600160a060020a031692632dff0d0d926024808201939182900301818387803b158015611fb957600080fd5b505af1158015611fcd573d6000803e3d6000fd5b505050506040513d6000823e601f3d908101601f19168201604052610120811015611ff757600080fd5b8151602083015160408401516060850151608086015160a087015160c088015160e08901516101008a018051989a979996989597949693959294919382019264010000000081111561204857600080fd5b8201602081018481111561205b57600080fd5b815164010000000081118282018710171561207557600080fd5b505092919050505050505050505050935050600c60009054906101000a9004600160a060020a0316600160a060020a031663029b7d53336040518263ffffffff1660e060020a0281526004018082600160a060020a0316600160a060020a03168152602001915050602060405180830381600087803b1580156120f757600080fd5b505af115801561210b573d6000803e3d6000fd5b505050506040513d602081101561212157600080fd5b50519150600160a060020a038216151561213a57600080fd5b6002840154600160a060020a0383811691161461215657600080fd5b604080517f5c36901c000000000000000000000000000000000000000000000000000000008152600481018b905290513091635c36901c9160248083019260209291908290030181600087803b1580156121af57600080fd5b505af11580156121c3573d6000803e3d6000fd5b505050506040513d60208110156121d957600080fd5b505115156121e657600080fd5b6121fd8888888888600301548960040154896131fe565b151561220857600080fd5b600a54604080517f90358f5d000000000000000000000000000000000000000000000000000000008152600160c060020a0319891660048201529051600160a060020a03909216916390358f5d916024808201926020929091908290030181600087803b15801561227857600080fd5b505af115801561228c573d6000803e3d6000fd5b505050506040513d60208110156122a257600080fd5b505180156122ba575060008811806122ba5750600087115b1561247e57600a546040805160e360020a63042fb71d028152600481018b9052602481018a9052600160c060020a0319891660448201529051600160a060020a039092169163217db8e8916064808201926020929091908290030181600087803b15801561232757600080fd5b505af115801561233b573d6000803e3d6000fd5b505050506040513d602081101561235157600080fd5b5051600385015490915061236b908263ffffffff61344b16565b6003850155600954600d546040805160e060020a63db536d2f028152600160a060020a03868116600483015291519382169363731a3b06939092169163db536d2f916024808201926020929091908290030181600087803b1580156123cf57600080fd5b505af11580156123e3573d6000803e3d6000fd5b505050506040513d60208110156123f957600080fd5b50516040805160e060020a63ffffffff8516028152600160a060020a039092166004830152602482018590525160448083019260209291908290030181600087803b15801561244757600080fd5b505af115801561245b573d6000803e3d6000fd5b505050506040513d602081101561247157600080fd5b5051151561247e57600080fd5b60008511156125c157600484015461249c908663ffffffff61344b16565b600480860191909155600954600d546040805160e060020a63db536d2f028152600160a060020a038781169582019590955290519284169363f81eb76d9392169163db536d2f916024808201926020929091908290030181600087803b15801561250557600080fd5b505af1158015612519573d6000803e3d6000fd5b505050506040513d602081101561252f57600080fd5b505160058701546040805160e060020a63ffffffff8616028152600160a060020a039093166004840152602483018a905260448301919091525160648083019260209291908290030181600087803b15801561258a57600080fd5b505af115801561259e573d6000803e3d6000fd5b505050506040513d60208110156125b457600080fd5b505115156125c157600080fd5b6001840154845460028601546003870154600488015460058901546040805193845260208401929092528282015251600160a060020a03909216917f645f75eb984f0b89f1e9887da267d2025a37764e7bd6537b7d7eff900e8725eb9181900360600190a4505050505050505050565b600854600160a060020a031681565b6000818152600f60205260408120548190819081908190811061266257600080fd5b6000868152600f60209081526040808320548352600e8252808320600c5482517f029b7d530000000000000000000000000000000000000000000000000000000081523360048201529251919950600160a060020a03169363029b7d5393602480850194919392918390030190829087803b1580156126e057600080fd5b505af11580156126f4573d6000803e3d6000fd5b505050506040513d602081101561270a57600080fd5b50519350600160a060020a038416151561272357600080fd5b6002850154600160a060020a0385811691161461273f57600080fd5b604080517f5c36901c0000000000000000000000000000000000000000000000000000000081526004810188905290513091635c36901c9160248083019260209291908290030181600087803b15801561279857600080fd5b505af11580156127ac573d6000803e3d6000fd5b505050506040513d60208110156127c257600080fd5b505115156127cf57600080fd5b60078501805460ff1916905560038501546000101561290557600385018054600091829055600954600d546040805160e060020a63db536d2f028152600160a060020a038a8116600483015291519498509281169463731a3b0694929091169263db536d2f9260248083019360209383900390910190829087803b15801561285657600080fd5b505af115801561286a573d6000803e3d6000fd5b505050506040513d602081101561288057600080fd5b50516040805160e060020a63ffffffff8516028152600160a060020a039092166004830152602482018790525160448083019260209291908290030181600087803b1580156128ce57600080fd5b505af11580156128e2573d6000803e3d6000fd5b505050506040513d60208110156128f857600080fd5b5051151561290557600080fd5b600085600401541115612a465750506004838101805460058601805460009384905590839055600954600d546040805160e060020a63db536d2f028152600160a060020a038a8116988201989098529051949693959284169463f81eb76d949092169263db536d2f926024808401936020939083900390910190829087803b15801561299057600080fd5b505af11580156129a4573d6000803e3d6000fd5b505050506040513d60208110156129ba57600080fd5b50516040805160e060020a63ffffffff8516028152600160a060020a03909216600483015260248201869052604482018590525160648083019260209291908290030181600087803b158015612a0f57600080fd5b505af1158015612a23573d6000803e3d6000fd5b505050506040513d6020811015612a3957600080fd5b50511515612a4657600080fd5b60028501546040518791600160a060020a0316907eeb6a306a149d2ec8a5e5f228483a31d06863f4cd48237ddf5c1c236805def890600090a3505050505050565b6000546001546040805160e260020a633d9abf2b028152336004820152600160a060020a0393841660248201529290911660448301525173__AOLibrary_____________________________9163f66afcac916064808301926020929190829003018186803b158015612af957600080fd5b505af4158015612b0d573d6000803e3d6000fd5b505050506040513d6020811015612b2357600080fd5b50511515612b3057600080fd5b600160a060020a0381161515612b4557600080fd5b60008054600160a060020a031916600160a060020a0392909216919091179055565b6000546001546040805160e260020a633d9abf2b028152336004820152600160a060020a0393841660248201529290911660448301525173__AOLibrary_____________________________9163f66afcac916064808301926020929190829003018186803b158015612bd957600080fd5b505af4158015612bed573d6000803e3d6000fd5b505050506040513d6020811015612c0357600080fd5b50511515612c1057600080fd5b600160a060020a0381161515612c2557600080fd5b60048054600160a060020a03909216600160a060020a0319928316811790915560098054909216179055565b81810182811015612c5e57fe5b92915050565b60008715612d2f57600a546040805160e360020a63042fb71d0281526004810188905260248101879052600160c060020a03198616604482015290518992612d26928a92612d1a928892600160a060020a039091169163217db8e8916064808201926020929091908290030181600087803b158015612ce257600080fd5b505af1158015612cf6573d6000803e3d6000fd5b505050506040513d6020811015612d0c57600080fd5b50519063ffffffff612c5116565b9063ffffffff612c5116565b10159050612da9565b600a546040805160e360020a63042fb71d0281526004810188905260248101879052600160c060020a03198616604482015290518992612da5928a92612d1a928892600160a060020a039091169163217db8e8916064808201926020929091908290030181600087803b158015612ce257600080fd5b1490505b979650505050505050565b600b54604080517f2dff0d0d00000000000000000000000000000000000000000000000000000000815260048101899052905160009283928392600160a060020a0390921691632dff0d0d91602480820192869290919082900301818387803b158015612e2057600080fd5b505af1158015612e34573d6000803e3d6000fd5b505050506040513d6000823e601f3d908101601f19168201604052610120811015612e5e57600080fd5b8151602083015160408401516060850151608086015160a087015160c088015160e08901516101008a018051989a9799969895979496939592949193820192640100000000811115612eaf57600080fd5b82016020810184811115612ec257600080fd5b8151640100000000811182820187101715612edc57600080fd5b505092919050505050505050505050915091506000600160a060020a03168a600160a060020a031614158015612fad5750604080517f2d706a34000000000000000000000000000000000000000000000000000000008152600160a060020a038c166004820152905173__AOLibrary_____________________________91632d706a34916024808301926020929190829003018186803b158015612f8057600080fd5b505af4158015612f94573d6000803e3d6000fd5b505050506040513d6020811015612faa57600080fd5b50515b8015612fca575081600160a060020a03168a600160a060020a0316145b8015612feb57506000881180612fe05750600087115b80612feb5750600085115b80156131725750600b54604080517f65cf0ace000000000000000000000000000000000000000000000000000000008152600481018c90529051600160a060020a03909216916365cf0ace916024808201926020929091908290030181600087803b15801561305957600080fd5b505af115801561306d573d6000803e3d6000fd5b505050506040513d602081101561308357600080fd5b50516130ff57600a546040805160e360020a63042fb71d028152600481018b9052602481018a9052600160c060020a031989166044820152905183926130f9928992600160a060020a039092169163217db8e8916064808201926020929091908290030181600087803b158015612ce257600080fd5b14613172565b600a546040805160e360020a63042fb71d028152600481018b9052602481018a9052600160c060020a0319891660448201529051839261316f928992600160a060020a039092169163217db8e8916064808201926020929091908290030181600087803b158015612ce257600080fd5b10155b80156131f0575073__AOLibrary_____________________________63caf297656040518163ffffffff1660e060020a02815260040160206040518083038186803b1580156131c057600080fd5b505af41580156131d4573d6000803e3d6000fd5b505050506040513d60208110156131ea57600080fd5b50518411155b9a9950505050505050505050565b60007fff000000000000000000000000000000000000000000000000000000000000007f010000000000000000000000000000000000000000000000000000000000000087831a02161580159061325f5750600088118061325f5750600087115b80156132fd5750600a546040805160e360020a63042fb71d028152600481018b9052602481018a9052600160c060020a0319891660448201529051600160a060020a039092169163217db8e8916064808201926020929091908290030181600087803b1580156132ce57600080fd5b505af11580156132e2573d6000803e3d6000fd5b505050506040513d60208110156132f857600080fd5b505184105b8061330757508483105b8061342d57507fff000000000000000000000000000000000000000000000000000000000000007f0100000000000000000000000000000000000000000000000000000000000000600088901a02161580159061336e5750600088118061336e5750600087115b801561342d57508161342b613389858863ffffffff61344b16565b600a546040805160e360020a63042fb71d028152600481018e9052602481018d9052600160c060020a03198c1660448201529051612d1a92600160a060020a03169163217db8e89160648083019260209291908290030181600087803b1580156133f257600080fd5b505af1158015613406573d6000803e3d6000fd5b505050506040513d602081101561341c57600080fd5b5051889063ffffffff61344b16565b105b80613436575060005b1561344357506000612da9565b506001612da9565b60008282111561345757fe5b50900390565b6040805161012081018252600080825260208201819052918101829052606081018290526080810182905260a0810182905260c0810182905260e08101829052610100810191909152905600a165627a7a72305820d5420dd6e1a299e97345f8135fe736441a4e2ac12eeed74da40b32f68a6d93a80029",
	"source": "pragma solidity ^0.4.24;\n\nimport './SafeMath.sol';\nimport './AOLibrary.sol';\nimport './TheAO.sol';\nimport './IAOStakedContent.sol';\nimport './AOIon.sol';\nimport './IAOTreasury.sol';\nimport './IAOContent.sol';\nimport './INameFactory.sol';\nimport './INamePublicKey.sol';\n\n/**\n * @title AOStakedContent\n */\ncontract AOStakedContent is TheAO, IAOStakedContent {\n\tusing SafeMath for uint256;\n\n\tuint256 public totalStakedContents;\n\taddress public aoIonAddress;\n\taddress public aoTreasuryAddress;\n\taddress public aoContentAddress;\n\taddress public nameFactoryAddress;\n\taddress public namePublicKeyAddress;\n\n\tAOIon internal _aoIon;\n\tIAOTreasury internal _aoTreasury;\n\tIAOContent internal _aoContent;\n\tINameFactory internal _nameFactory;\n\tINamePublicKey internal _namePublicKey;\n\n\tstruct StakedContent {\n\t\tbytes32 stakedContentId;\n\t\tbytes32 contentId;\n\t\taddress stakeOwner;\n\t\tuint256 networkAmount;\t\t// total network ion staked in base denomination\n\t\tuint256 primordialAmount;\t// the amount of primordial AOIon to stake (always in base denomination)\n\t\tuint256 primordialWeightedMultiplier;\n\t\tuint256 profitPercentage;\t// support up to 4 decimals, 100% = 1000000\n\t\tbool active;\t// true if currently staked, false when unstaked\n\t\tuint256 createdOnTimestamp;\n\t}\n\n\t// Mapping from StakedContent index to the StakedContent object\n\tmapping (uint256 => StakedContent) internal stakedContents;\n\n\t// Mapping from StakedContent ID to index of the stakedContents list\n\tmapping (bytes32 => uint256) internal stakedContentIndex;\n\n\t// Event to be broadcasted to public when `stakeOwner` stakes a new content\n\tevent StakeContent(\n\t\taddress indexed stakeOwner,\n\t\tbytes32 indexed stakedContentId,\n\t\tbytes32 indexed contentId,\n\t\tuint256 baseNetworkAmount,\n\t\tuint256 primordialAmount,\n\t\tuint256 primordialWeightedMultiplier,\n\t\tuint256 profitPercentage,\n\t\tuint256 createdOnTimestamp\n\t);\n\n\t// Event to be broadcasted to public when `stakeOwner` updates the staked content's profit percentage\n\tevent SetProfitPercentage(address indexed stakeOwner, bytes32 indexed stakedContentId, uint256 newProfitPercentage);\n\n\t// Event to be broadcasted to public when `stakeOwner` unstakes some network/primordial ion from an existing content\n\tevent UnstakePartialContent(\n\t\taddress indexed stakeOwner,\n\t\tbytes32 indexed stakedContentId,\n\t\tbytes32 indexed contentId,\n\t\tuint256 remainingNetworkAmount,\n\t\tuint256 remainingPrimordialAmount,\n\t\tuint256 primordialWeightedMultiplier\n\t);\n\n\t// Event to be broadcasted to public when `stakeOwner` unstakes all ion amount on an existing content\n\tevent UnstakeContent(address indexed stakeOwner, bytes32 indexed stakedContentId);\n\n\t// Event to be broadcasted to public when `stakeOwner` re-stakes an existing content\n\tevent StakeExistingContent(\n\t\taddress indexed stakeOwner,\n\t\tbytes32 indexed stakedContentId,\n\t\tbytes32 indexed contentId,\n\t\tuint256 currentNetworkAmount,\n\t\tuint256 currentPrimordialAmount,\n\t\tuint256 currentPrimordialWeightedMultiplier\n\t);\n\n\t/**\n\t * @dev Constructor function\n\t * @param _aoIonAddress The address of AOIon\n\t * @param _aoTreasuryAddress The address of AOTreasury\n\t * @param _aoContentAddress The address of AOContent\n\t * @param _nameFactoryAddress The address of NameFactory\n\t * @param _namePublicKeyAddress The address of NamePublicKey\n\t * @param _nameTAOPositionAddress The address of NameTAOPosition\n\t */\n\tconstructor(address _aoIonAddress, address _aoTreasuryAddress, address _aoContentAddress, address _nameFactoryAddress, address _namePublicKeyAddress, address _nameTAOPositionAddress) public {\n\t\tsetAOIonAddress(_aoIonAddress);\n\t\tsetAOTreasuryAddress(_aoTreasuryAddress);\n\t\tsetAOContentAddress(_aoContentAddress);\n\t\tsetNameFactoryAddress(_nameFactoryAddress);\n\t\tsetNamePublicKeyAddress(_namePublicKeyAddress);\n\t\tsetNameTAOPositionAddress(_nameTAOPositionAddress);\n\t}\n\n\t/**\n\t * @dev Checks if the calling contract address is The AO\n\t *\t\tOR\n\t *\t\tIf The AO is set to a Name/TAO, then check if calling address is the Advocate\n\t */\n\tmodifier onlyTheAO {\n\t\trequire (AOLibrary.isTheAO(msg.sender, theAO, nameTAOPositionAddress));\n\t\t_;\n\t}\n\n\t/***** The AO ONLY METHODS *****/\n\t/**\n\t * @dev Transfer ownership of The AO to new address\n\t * @param _theAO The new address to be transferred\n\t */\n\tfunction transferOwnership(address _theAO) public onlyTheAO {\n\t\trequire (_theAO != address(0));\n\t\ttheAO = _theAO;\n\t}\n\n\t/**\n\t * @dev Whitelist `_account` address to transact on behalf of others\n\t * @param _account The address to whitelist\n\t * @param _whitelist Either to whitelist or not\n\t */\n\tfunction setWhitelist(address _account, bool _whitelist) public onlyTheAO {\n\t\trequire (_account != address(0));\n\t\twhitelist[_account] = _whitelist;\n\t}\n\n\t/**\n\t * @dev The AO sets AOIon address\n\t * @param _aoIonAddress The address of AOIon\n\t */\n\tfunction setAOIonAddress(address _aoIonAddress) public onlyTheAO {\n\t\trequire (_aoIonAddress != address(0));\n\t\taoIonAddress = _aoIonAddress;\n\t\t_aoIon = AOIon(_aoIonAddress);\n\t}\n\n\t/**\n\t * @dev The AO sets AOTreasury address\n\t * @param _aoTreasuryAddress The address of AOTreasury\n\t */\n\tfunction setAOTreasuryAddress(address _aoTreasuryAddress) public onlyTheAO {\n\t\trequire (_aoTreasuryAddress != address(0));\n\t\taoTreasuryAddress = _aoTreasuryAddress;\n\t\t_aoTreasury = IAOTreasury(_aoTreasuryAddress);\n\t}\n\n\t/**\n\t * @dev The AO sets AO Content address\n\t * @param _aoContentAddress The address of AOContent\n\t */\n\tfunction setAOContentAddress(address _aoContentAddress) public onlyTheAO {\n\t\trequire (_aoContentAddress != address(0));\n\t\taoContentAddress = _aoContentAddress;\n\t\t_aoContent = IAOContent(_aoContentAddress);\n\t}\n\n\t/**\n\t * @dev The AO sets NameFactory address\n\t * @param _nameFactoryAddress The address of NameFactory\n\t */\n\tfunction setNameFactoryAddress(address _nameFactoryAddress) public onlyTheAO {\n\t\trequire (_nameFactoryAddress != address(0));\n\t\tnameFactoryAddress = _nameFactoryAddress;\n\t\t_nameFactory = INameFactory(_nameFactoryAddress);\n\t}\n\n\t/**\n\t * @dev The AO sets NamePublicKey address\n\t * @param _namePublicKeyAddress The address of NamePublicKey\n\t */\n\tfunction setNamePublicKeyAddress(address _namePublicKeyAddress) public onlyTheAO {\n\t\trequire (_namePublicKeyAddress != address(0));\n\t\tnamePublicKeyAddress = _namePublicKeyAddress;\n\t\t_namePublicKey = INamePublicKey(_namePublicKeyAddress);\n\t}\n\n\t/**\n\t * @dev The AO sets NameTAOPosition address\n\t * @param _nameTAOPositionAddress The address of NameTAOPosition\n\t */\n\tfunction setNameTAOPositionAddress(address _nameTAOPositionAddress) public onlyTheAO {\n\t\trequire (_nameTAOPositionAddress != address(0));\n\t\tnameTAOPositionAddress = _nameTAOPositionAddress;\n\t}\n\n\t/***** PUBLIC METHODS *****/\n\t/**\n\t * @dev Stake the content\n\t * @param _stakeOwner the address that stake the content\n\t * @param _contentId The ID of the content\n\t * @param _networkIntegerAmount The integer amount of network ion to stake\n\t * @param _networkFractionAmount The fraction amount of network ion to stake\n\t * @param _denomination The denomination of the network ion, i.e ao, kilo, mega, etc.\n\t * @param _primordialAmount The amount of primordial ion to stake\n\t * @param _profitPercentage The percentage of profit the stake owner's media will charge\n\t * @return the newly created staked content ID\n\t */\n\tfunction create(address _stakeOwner,\n\t\tbytes32 _contentId,\n\t\tuint256 _networkIntegerAmount,\n\t\tuint256 _networkFractionAmount,\n\t\tbytes8 _denomination,\n\t\tuint256 _primordialAmount,\n\t\tuint256 _profitPercentage\n\t\t) external inWhitelist returns (bytes32) {\n\t\trequire (_canCreate(_stakeOwner, _contentId, _networkIntegerAmount, _networkFractionAmount, _denomination, _primordialAmount, _profitPercentage));\n\t\t// Increment totalStakedContents\n\t\ttotalStakedContents++;\n\n\t\t// Generate stakedContentId\n\t\tbytes32 _stakedContentId = keccak256(abi.encodePacked(this, _stakeOwner, _contentId));\n\t\tStakedContent storage _stakedContent = stakedContents[totalStakedContents];\n\n\t\t// Make sure the node doesn't stake the same content twice\n\t\trequire (_stakedContent.stakeOwner == address(0));\n\n\t\t_stakedContent.stakedContentId = _stakedContentId;\n\t\t_stakedContent.contentId = _contentId;\n\t\t_stakedContent.stakeOwner = _stakeOwner;\n\t\t_stakedContent.profitPercentage = _profitPercentage;\n\t\t_stakedContent.active = true;\n\t\t_stakedContent.createdOnTimestamp = now;\n\n\t\tif (_aoTreasury.isDenominationExist(_denomination) && (_networkIntegerAmount > 0 || _networkFractionAmount > 0)) {\n\t\t\t_stakedContent.networkAmount = _aoTreasury.toBase(_networkIntegerAmount, _networkFractionAmount, _denomination);\n\t\t\trequire (_aoIon.stakeFrom(_namePublicKey.getDefaultKey(_stakeOwner), _stakedContent.networkAmount));\n\t\t}\n\t\tif (_primordialAmount > 0) {\n\t\t\t_stakedContent.primordialAmount = _primordialAmount;\n\n\t\t\t// Primordial ion is the base AO ion\n\t\t\t_stakedContent.primordialWeightedMultiplier = _aoIon.weightedMultiplierByAddress(_namePublicKey.getDefaultKey(_stakedContent.stakeOwner));\n\t\t\trequire (_aoIon.stakePrimordialFrom(_namePublicKey.getDefaultKey(_stakedContent.stakeOwner), _primordialAmount, _stakedContent.primordialWeightedMultiplier));\n\t\t}\n\n\t\tstakedContentIndex[_stakedContentId] = totalStakedContents;\n\n\t\temit StakeContent(_stakedContent.stakeOwner, _stakedContent.stakedContentId, _stakedContent.contentId, _stakedContent.networkAmount, _stakedContent.primordialAmount, _stakedContent.primordialWeightedMultiplier, _stakedContent.profitPercentage, _stakedContent.createdOnTimestamp);\n\t\treturn _stakedContent.stakedContentId;\n\t}\n\n\t/**\n\t * @dev Set profit percentage on existing staked content\n\t *\t\tWill throw error if this is a Creative Commons/T(AO) Content\n\t * @param _stakedContentId The ID of the staked content\n\t * @param _profitPercentage The new value to be set\n\t */\n\tfunction setProfitPercentage(bytes32 _stakedContentId, uint256 _profitPercentage) public {\n\t\trequire (_profitPercentage <= AOLibrary.PERCENTAGE_DIVISOR());\n\n\t\t// Make sure the staked content exist\n\t\trequire (stakedContentIndex[_stakedContentId] > 0);\n\n\t\taddress _stakeOwnerNameId = _nameFactory.ethAddressToNameId(msg.sender);\n\t\trequire (_stakeOwnerNameId != address(0));\n\n\t\tStakedContent storage _stakedContent = stakedContents[stakedContentIndex[_stakedContentId]];\n\t\t// Make sure the staked content owner is the same as the sender\n\t\trequire (_stakedContent.stakeOwner == _stakeOwnerNameId);\n\n\t\t// Make sure we are updating profit percentage for AO Content only\n\t\t// Creative Commons/T(AO) Content has 0 profit percentage\n\t\trequire (_aoContent.isAOContentUsageType(_stakedContent.contentId));\n\n\t\t_stakedContent.profitPercentage = _profitPercentage;\n\n\t\temit SetProfitPercentage(_stakeOwnerNameId, _stakedContentId, _profitPercentage);\n\t}\n\n\t/**\n\t * @dev Return staked content information at a given ID\n\t * @param _stakedContentId The ID of the staked content\n\t * @return The ID of the content being staked\n\t * @return address of the staked content's owner\n\t * @return the network base ion amount staked for this content\n\t * @return the primordial ion amount staked for this content\n\t * @return the primordial weighted multiplier of the staked content\n\t * @return the profit percentage of the content\n\t * @return status of the staked content\n\t * @return the timestamp when the staked content was created\n\t */\n\tfunction getById(bytes32 _stakedContentId) external view returns (bytes32, address, uint256, uint256, uint256, uint256, bool, uint256) {\n\t\t// Make sure the staked content exist\n\t\trequire (stakedContentIndex[_stakedContentId] > 0);\n\n\t\tStakedContent memory _stakedContent = stakedContents[stakedContentIndex[_stakedContentId]];\n\t\treturn (\n\t\t\t_stakedContent.contentId,\n\t\t\t_stakedContent.stakeOwner,\n\t\t\t_stakedContent.networkAmount,\n\t\t\t_stakedContent.primordialAmount,\n\t\t\t_stakedContent.primordialWeightedMultiplier,\n\t\t\t_stakedContent.profitPercentage,\n\t\t\t_stakedContent.active,\n\t\t\t_stakedContent.createdOnTimestamp\n\t\t);\n\t}\n\n\t/**\n\t * @dev Unstake existing staked content and refund partial staked amount to the stake owner\n\t *\t\tUse unstakeContent() to unstake all staked ion amount. unstakePartialContent() can unstake only up to\n\t *\t\tthe mininum required to pay the fileSize\n\t * @param _stakedContentId The ID of the staked content\n\t * @param _networkIntegerAmount The integer amount of network ion to unstake\n\t * @param _networkFractionAmount The fraction amount of network ion to unstake\n\t * @param _denomination The denomination of the network ion, i.e ao, kilo, mega, etc.\n\t * @param _primordialAmount The amount of primordial ion to unstake\n\t */\n\tfunction unstakePartialContent(bytes32 _stakedContentId,\n\t\tuint256 _networkIntegerAmount,\n\t\tuint256 _networkFractionAmount,\n\t\tbytes8 _denomination,\n\t\tuint256 _primordialAmount\n\t\t) public {\n\t\t// Make sure the staked content exist\n\t\trequire (stakedContentIndex[_stakedContentId] > 0);\n\t\trequire (_networkIntegerAmount > 0 || _networkFractionAmount > 0 || _primordialAmount > 0);\n\n\t\tStakedContent storage _stakedContent = stakedContents[stakedContentIndex[_stakedContentId]];\n\t\t(, uint256 _fileSize,,,,,,,) = _aoContent.getById(_stakedContent.contentId);\n\n\t\taddress _stakeOwnerNameId = _nameFactory.ethAddressToNameId(msg.sender);\n\t\trequire (_stakeOwnerNameId != address(0));\n\n\t\t// Make sure the staked content owner is the same as the sender\n\t\trequire (_stakedContent.stakeOwner == _stakeOwnerNameId);\n\t\t// Make sure the staked content is currently active (staked) with some amounts\n\t\trequire (this.isActive(_stakedContentId));\n\t\t// Make sure the staked content has enough balance to unstake\n\t\trequire (_canUnstakePartial(_networkIntegerAmount, _networkFractionAmount, _denomination, _primordialAmount, _stakedContent.networkAmount, _stakedContent.primordialAmount, _fileSize));\n\n\t\tif (_aoTreasury.isDenominationExist(_denomination) && (_networkIntegerAmount > 0 || _networkFractionAmount > 0)) {\n\t\t\tuint256 _unstakeNetworkAmount = _aoTreasury.toBase(_networkIntegerAmount, _networkFractionAmount, _denomination);\n\t\t\t_stakedContent.networkAmount = _stakedContent.networkAmount.sub(_unstakeNetworkAmount);\n\t\t\trequire (_aoIon.unstakeFrom(_namePublicKey.getDefaultKey(_stakeOwnerNameId), _unstakeNetworkAmount));\n\t\t}\n\t\tif (_primordialAmount > 0) {\n\t\t\t_stakedContent.primordialAmount = _stakedContent.primordialAmount.sub(_primordialAmount);\n\t\t\trequire (_aoIon.unstakePrimordialFrom(_namePublicKey.getDefaultKey(_stakeOwnerNameId), _primordialAmount, _stakedContent.primordialWeightedMultiplier));\n\t\t}\n\t\temit UnstakePartialContent(_stakedContent.stakeOwner, _stakedContent.stakedContentId, _stakedContent.contentId, _stakedContent.networkAmount, _stakedContent.primordialAmount, _stakedContent.primordialWeightedMultiplier);\n\t}\n\n\t/**\n\t * @dev Unstake existing staked content and refund the total staked amount to the stake owner\n\t * @param _stakedContentId The ID of the staked content\n\t */\n\tfunction unstakeContent(bytes32 _stakedContentId) public {\n\t\t// Make sure the staked content exist\n\t\trequire (stakedContentIndex[_stakedContentId] > 0);\n\n\t\tStakedContent storage _stakedContent = stakedContents[stakedContentIndex[_stakedContentId]];\n\n\t\taddress _stakeOwnerNameId = _nameFactory.ethAddressToNameId(msg.sender);\n\t\trequire (_stakeOwnerNameId != address(0));\n\n\t\t// Make sure the staked content owner is the same as the sender\n\t\trequire (_stakedContent.stakeOwner == _stakeOwnerNameId);\n\t\t// Make sure the staked content is currently active (staked) with some amounts\n\t\trequire (this.isActive(_stakedContentId));\n\t\t_stakedContent.active = false;\n\n\t\tif (_stakedContent.networkAmount > 0) {\n\t\t\tuint256 _unstakeNetworkAmount = _stakedContent.networkAmount;\n\t\t\t_stakedContent.networkAmount = 0;\n\t\t\trequire (_aoIon.unstakeFrom(_namePublicKey.getDefaultKey(_stakeOwnerNameId), _unstakeNetworkAmount));\n\t\t}\n\t\tif (_stakedContent.primordialAmount > 0) {\n\t\t\tuint256 _primordialAmount = _stakedContent.primordialAmount;\n\t\t\tuint256 _primordialWeightedMultiplier = _stakedContent.primordialWeightedMultiplier;\n\t\t\t_stakedContent.primordialAmount = 0;\n\t\t\t_stakedContent.primordialWeightedMultiplier = 0;\n\t\t\trequire (_aoIon.unstakePrimordialFrom(_namePublicKey.getDefaultKey(_stakeOwnerNameId), _primordialAmount, _primordialWeightedMultiplier));\n\t\t}\n\t\temit UnstakeContent(_stakedContent.stakeOwner, _stakedContentId);\n\t}\n\n\t/**\n\t * @dev Stake existing content with more ions (this is to increase the price)\n\t *\n\t * @param _stakedContentId The ID of the staked content\n\t * @param _networkIntegerAmount The integer amount of network ion to stake\n\t * @param _networkFractionAmount The fraction amount of network ion to stake\n\t * @param _denomination The denomination of the network ion, i.e ao, kilo, mega, etc.\n\t * @param _primordialAmount The amount of primordial ion to stake. (The primordial weighted multiplier has to match the current staked weighted multiplier)\n\t */\n\tfunction stakeExistingContent(bytes32 _stakedContentId,\n\t\tuint256 _networkIntegerAmount,\n\t\tuint256 _networkFractionAmount,\n\t\tbytes8 _denomination,\n\t\tuint256 _primordialAmount\n\t\t) public {\n\t\t// Make sure the staked content exist\n\t\trequire (stakedContentIndex[_stakedContentId] > 0);\n\n\t\tStakedContent storage _stakedContent = stakedContents[stakedContentIndex[_stakedContentId]];\n\t\t(, uint256 _fileSize,,,,,,,) = _aoContent.getById(_stakedContent.contentId);\n\n\t\taddress _stakeOwnerNameId = _nameFactory.ethAddressToNameId(msg.sender);\n\t\trequire (_stakeOwnerNameId != address(0));\n\n\t\t// Make sure the staked content owner is the same as the sender\n\t\trequire (_stakedContent.stakeOwner == _stakeOwnerNameId);\n\t\trequire (_networkIntegerAmount > 0 || _networkFractionAmount > 0 || _primordialAmount > 0);\n\t\trequire (_canStakeExisting(_aoContent.isAOContentUsageType(_stakedContent.contentId), _fileSize, _stakedContent.networkAmount.add(_stakedContent.primordialAmount), _networkIntegerAmount, _networkFractionAmount, _denomination, _primordialAmount));\n\n\t\t// Make sure we can stake primordial ion\n\t\t// If we are currently staking an active staked content, then the stake owner's weighted multiplier has to match `stakedContent.primordialWeightedMultiplier`\n\t\t// i.e, can't use a combination of different weighted multiplier. Stake owner has to call unstakeContent() to unstake all ions first\n\t\tif (_primordialAmount > 0 && _stakedContent.active && _stakedContent.primordialAmount > 0 && _stakedContent.primordialWeightedMultiplier > 0) {\n\t\t\trequire (_aoIon.weightedMultiplierByAddress(_namePublicKey.getDefaultKey(_stakeOwnerNameId)) == _stakedContent.primordialWeightedMultiplier);\n\t\t}\n\n\t\t_stakedContent.active = true;\n\t\tif (_aoTreasury.isDenominationExist(_denomination) && (_networkIntegerAmount > 0 || _networkFractionAmount > 0)) {\n\t\t\tuint256 _stakeNetworkAmount = _aoTreasury.toBase(_networkIntegerAmount, _networkFractionAmount, _denomination);\n\t\t\t_stakedContent.networkAmount = _stakedContent.networkAmount.add(_stakeNetworkAmount);\n\t\t\trequire (_aoIon.stakeFrom(_namePublicKey.getDefaultKey(_stakedContent.stakeOwner), _stakeNetworkAmount));\n\t\t}\n\t\tif (_primordialAmount > 0) {\n\t\t\t_stakedContent.primordialAmount = _stakedContent.primordialAmount.add(_primordialAmount);\n\n\t\t\t// Primordial ion is the base AO ion\n\t\t\t_stakedContent.primordialWeightedMultiplier = _aoIon.weightedMultiplierByAddress(_namePublicKey.getDefaultKey(_stakedContent.stakeOwner));\n\t\t\trequire (_aoIon.stakePrimordialFrom(_namePublicKey.getDefaultKey(_stakedContent.stakeOwner), _primordialAmount, _stakedContent.primordialWeightedMultiplier));\n\t\t}\n\n\t\temit StakeExistingContent(_stakeOwnerNameId, _stakedContent.stakedContentId, _stakedContent.contentId, _stakedContent.networkAmount, _stakedContent.primordialAmount, _stakedContent.primordialWeightedMultiplier);\n\t}\n\n\t/**\n\t * @dev Check whether or not a staked content is active\n\t * @param _stakedContentId The ID of the staked content\n\t * @return true if yes, false otherwise.\n\t */\n\tfunction isActive(bytes32 _stakedContentId) external view returns (bool) {\n\t\t// Make sure the staked content exist\n\t\trequire (stakedContentIndex[_stakedContentId] > 0);\n\n\t\tStakedContent memory _stakedContent = stakedContents[stakedContentIndex[_stakedContentId]];\n\t\treturn (_stakedContent.active == true && (_stakedContent.networkAmount > 0 || (_stakedContent.primordialAmount > 0 && _stakedContent.primordialWeightedMultiplier > 0)));\n\t}\n\n\t/***** INTERNAL METHODS *****/\n\t/**\n\t * @dev Checks if create params are valid\n\t * @param _stakeOwner the address that stake the content\n\t * @param _contentId The ID of the content\n\t * @param _networkIntegerAmount The integer amount of network ion to stake\n\t * @param _networkFractionAmount The fraction amount of network ion to stake\n\t * @param _denomination The denomination of the network ion, i.e ao, kilo, mega, etc.\n\t * @param _primordialAmount The amount of primordial ion to stake\n\t * @param _profitPercentage The percentage of profit the stake owner's media will charge\n\t * @return true if yes. false otherwise\n\t */\n\tfunction _canCreate(address _stakeOwner,\n\t\tbytes32 _contentId,\n\t\tuint256 _networkIntegerAmount,\n\t\tuint256 _networkFractionAmount,\n\t\tbytes8 _denomination,\n\t\tuint256 _primordialAmount,\n\t\tuint256 _profitPercentage) internal view returns (bool) {\n\t\t(address _contentCreator, uint256 _fileSize,,,,,,,) = _aoContent.getById(_contentId);\n\t\treturn (_stakeOwner != address(0) &&\n\t\t\tAOLibrary.isName(_stakeOwner) &&\n\t\t\t_stakeOwner == _contentCreator &&\n\t\t\t(_networkIntegerAmount > 0 || _networkFractionAmount > 0 || _primordialAmount > 0) &&\n\t\t\t(_aoContent.isAOContentUsageType(_contentId) ?\n\t\t\t\t_aoTreasury.toBase(_networkIntegerAmount, _networkFractionAmount, _denomination).add(_primordialAmount) >= _fileSize :\n\t\t\t\t_aoTreasury.toBase(_networkIntegerAmount, _networkFractionAmount, _denomination).add(_primordialAmount) == _fileSize\n\t\t\t) &&\n\t\t\t_profitPercentage <= AOLibrary.PERCENTAGE_DIVISOR()\n\t\t);\n\t}\n\n\t/**\n\t * @dev Check whether or the requested unstake amount is valid\n\t * @param _networkIntegerAmount The integer amount of the network ion\n\t * @param _networkFractionAmount The fraction amount of the network ion\n\t * @param _denomination The denomination of the the network ion\n\t * @param _primordialAmount The amount of primordial ion\n\t * @param _stakedNetworkAmount The current staked network ion amount\n\t * @param _stakedPrimordialAmount The current staked primordial ion amount\n\t * @param _stakedFileSize The file size of the staked content\n\t * @return true if can unstake, false otherwise\n\t */\n\tfunction _canUnstakePartial(\n\t\tuint256 _networkIntegerAmount,\n\t\tuint256 _networkFractionAmount,\n\t\tbytes8 _denomination,\n\t\tuint256 _primordialAmount,\n\t\tuint256 _stakedNetworkAmount,\n\t\tuint256 _stakedPrimordialAmount,\n\t\tuint256 _stakedFileSize\n\t\t) internal view returns (bool) {\n\t\tif (\n\t\t\t(_denomination.length > 0 && _denomination[0] != 0 &&\n\t\t\t\t(_networkIntegerAmount > 0 || _networkFractionAmount > 0) &&\n\t\t\t\t_stakedNetworkAmount < _aoTreasury.toBase(_networkIntegerAmount, _networkFractionAmount, _denomination)\n\t\t\t) ||\n\t\t\t_stakedPrimordialAmount < _primordialAmount ||\n\t\t\t(\n\t\t\t\t_denomination.length > 0 && _denomination[0] != 0\n\t\t\t\t\t&& (_networkIntegerAmount > 0 || _networkFractionAmount > 0)\n\t\t\t\t\t&& (_stakedNetworkAmount.sub(_aoTreasury.toBase(_networkIntegerAmount, _networkFractionAmount, _denomination)).add(_stakedPrimordialAmount.sub(_primordialAmount)) < _stakedFileSize)\n\t\t\t) ||\n\t\t\t( _denomination.length == 0 && _denomination[0] == 0 && _networkIntegerAmount == 0 && _networkFractionAmount == 0 && _primordialAmount > 0 && _stakedPrimordialAmount.sub(_primordialAmount) < _stakedFileSize)\n\t\t) {\n\t\t\treturn false;\n\t\t} else {\n\t\t\treturn true;\n\t\t}\n\t}\n\n\t/**\n\t * @dev Check whether the network ion and/or primordial ion is adequate to pay for existing staked content\n\t * @param _isAOContentUsageType whether or not the content is of AO Content usage type\n\t * @param _fileSize The size of the file\n\t * @param _stakedAmount The total staked amount\n\t * @param _networkIntegerAmount The integer amount of the network ion\n\t * @param _networkFractionAmount The fraction amount of the network ion\n\t * @param _denomination The denomination of the the network ion\n\t * @param _primordialAmount The amount of primordial ion\n\t * @return true when the amount is sufficient, false otherwise\n\t */\n\tfunction _canStakeExisting(\n\t\tbool _isAOContentUsageType,\n\t\tuint256 _fileSize,\n\t\tuint256 _stakedAmount,\n\t\tuint256 _networkIntegerAmount,\n\t\tuint256 _networkFractionAmount,\n\t\tbytes8 _denomination,\n\t\tuint256 _primordialAmount\n\t) internal view returns (bool) {\n\t\tif (_isAOContentUsageType) {\n\t\t\treturn _aoTreasury.toBase(_networkIntegerAmount, _networkFractionAmount, _denomination).add(_primordialAmount).add(_stakedAmount) >= _fileSize;\n\t\t} else {\n\t\t\treturn _aoTreasury.toBase(_networkIntegerAmount, _networkFractionAmount, _denomination).add(_primordialAmount).add(_stakedAmount) == _fileSize;\n\t\t}\n\t}\n}\n",
	"sourcePath": "/Users/johanmulyono/Work/AO/ao-contracts/contracts/AOStakedContent.sol",
	"compiler": {
		"name": "solc",
		"version": "0.4.24+commit.e67f0147.Emscripten.clang"
	},
	"schemaVersion": "2.0.1",
	"updatedAt": "2019-04-04T04:29:47.596Z"
}