{
	"contractName": "AOStakedContent",
	"abi": [
		{
			"constant": true,
			"inputs": [],
			"name": "totalStakedContents",
			"outputs": [
				{
					"name": "",
					"type": "uint256"
				}
			],
			"payable": false,
			"stateMutability": "view",
			"type": "function"
		},
		{
			"constant": true,
			"inputs": [],
			"name": "aoIonAddress",
			"outputs": [
				{
					"name": "",
					"type": "address"
				}
			],
			"payable": false,
			"stateMutability": "view",
			"type": "function"
		},
		{
			"constant": true,
			"inputs": [],
			"name": "nameTAOPositionAddress",
			"outputs": [
				{
					"name": "",
					"type": "address"
				}
			],
			"payable": false,
			"stateMutability": "view",
			"type": "function"
		},
		{
			"constant": true,
			"inputs": [],
			"name": "aoTreasuryAddress",
			"outputs": [
				{
					"name": "",
					"type": "address"
				}
			],
			"payable": false,
			"stateMutability": "view",
			"type": "function"
		},
		{
			"constant": true,
			"inputs": [],
			"name": "aoContentAddress",
			"outputs": [
				{
					"name": "",
					"type": "address"
				}
			],
			"payable": false,
			"stateMutability": "view",
			"type": "function"
		},
		{
			"constant": true,
			"inputs": [
				{
					"name": "",
					"type": "address"
				}
			],
			"name": "whitelist",
			"outputs": [
				{
					"name": "",
					"type": "bool"
				}
			],
			"payable": false,
			"stateMutability": "view",
			"type": "function"
		},
		{
			"constant": true,
			"inputs": [],
			"name": "theAO",
			"outputs": [
				{
					"name": "",
					"type": "address"
				}
			],
			"payable": false,
			"stateMutability": "view",
			"type": "function"
		},
		{
			"inputs": [
				{
					"name": "_aoIonAddress",
					"type": "address"
				},
				{
					"name": "_aoTreasuryAddress",
					"type": "address"
				},
				{
					"name": "_aoContentAddress",
					"type": "address"
				},
				{
					"name": "_nameTAOPositionAddress",
					"type": "address"
				}
			],
			"payable": false,
			"stateMutability": "nonpayable",
			"type": "constructor"
		},
		{
			"anonymous": false,
			"inputs": [
				{
					"indexed": true,
					"name": "stakeOwner",
					"type": "address"
				},
				{
					"indexed": true,
					"name": "stakedContentId",
					"type": "bytes32"
				},
				{
					"indexed": true,
					"name": "contentId",
					"type": "bytes32"
				},
				{
					"indexed": false,
					"name": "baseNetworkAmount",
					"type": "uint256"
				},
				{
					"indexed": false,
					"name": "primordialAmount",
					"type": "uint256"
				},
				{
					"indexed": false,
					"name": "primordialWeightedMultiplier",
					"type": "uint256"
				},
				{
					"indexed": false,
					"name": "profitPercentage",
					"type": "uint256"
				},
				{
					"indexed": false,
					"name": "createdOnTimestamp",
					"type": "uint256"
				}
			],
			"name": "StakeContent",
			"type": "event"
		},
		{
			"anonymous": false,
			"inputs": [
				{
					"indexed": true,
					"name": "stakeOwner",
					"type": "address"
				},
				{
					"indexed": true,
					"name": "stakedContentId",
					"type": "bytes32"
				},
				{
					"indexed": false,
					"name": "newProfitPercentage",
					"type": "uint256"
				}
			],
			"name": "SetProfitPercentage",
			"type": "event"
		},
		{
			"anonymous": false,
			"inputs": [
				{
					"indexed": true,
					"name": "stakeOwner",
					"type": "address"
				},
				{
					"indexed": true,
					"name": "stakedContentId",
					"type": "bytes32"
				},
				{
					"indexed": true,
					"name": "contentId",
					"type": "bytes32"
				},
				{
					"indexed": false,
					"name": "remainingNetworkAmount",
					"type": "uint256"
				},
				{
					"indexed": false,
					"name": "remainingPrimordialAmount",
					"type": "uint256"
				},
				{
					"indexed": false,
					"name": "primordialWeightedMultiplier",
					"type": "uint256"
				}
			],
			"name": "UnstakePartialContent",
			"type": "event"
		},
		{
			"anonymous": false,
			"inputs": [
				{
					"indexed": true,
					"name": "stakeOwner",
					"type": "address"
				},
				{
					"indexed": true,
					"name": "stakedContentId",
					"type": "bytes32"
				}
			],
			"name": "UnstakeContent",
			"type": "event"
		},
		{
			"anonymous": false,
			"inputs": [
				{
					"indexed": true,
					"name": "stakeOwner",
					"type": "address"
				},
				{
					"indexed": true,
					"name": "stakedContentId",
					"type": "bytes32"
				},
				{
					"indexed": true,
					"name": "contentId",
					"type": "bytes32"
				},
				{
					"indexed": false,
					"name": "currentNetworkAmount",
					"type": "uint256"
				},
				{
					"indexed": false,
					"name": "currentPrimordialAmount",
					"type": "uint256"
				},
				{
					"indexed": false,
					"name": "currentPrimordialWeightedMultiplier",
					"type": "uint256"
				}
			],
			"name": "StakeExistingContent",
			"type": "event"
		},
		{
			"constant": false,
			"inputs": [
				{
					"name": "_theAO",
					"type": "address"
				}
			],
			"name": "transferOwnership",
			"outputs": [],
			"payable": false,
			"stateMutability": "nonpayable",
			"type": "function"
		},
		{
			"constant": false,
			"inputs": [
				{
					"name": "_account",
					"type": "address"
				},
				{
					"name": "_whitelist",
					"type": "bool"
				}
			],
			"name": "setWhitelist",
			"outputs": [],
			"payable": false,
			"stateMutability": "nonpayable",
			"type": "function"
		},
		{
			"constant": false,
			"inputs": [
				{
					"name": "_aoIonAddress",
					"type": "address"
				}
			],
			"name": "setAOIonAddress",
			"outputs": [],
			"payable": false,
			"stateMutability": "nonpayable",
			"type": "function"
		},
		{
			"constant": false,
			"inputs": [
				{
					"name": "_aoTreasuryAddress",
					"type": "address"
				}
			],
			"name": "setAOTreasuryAddress",
			"outputs": [],
			"payable": false,
			"stateMutability": "nonpayable",
			"type": "function"
		},
		{
			"constant": false,
			"inputs": [
				{
					"name": "_aoContentAddress",
					"type": "address"
				}
			],
			"name": "setAOContentAddress",
			"outputs": [],
			"payable": false,
			"stateMutability": "nonpayable",
			"type": "function"
		},
		{
			"constant": false,
			"inputs": [
				{
					"name": "_nameTAOPositionAddress",
					"type": "address"
				}
			],
			"name": "setNameTAOPositionAddress",
			"outputs": [],
			"payable": false,
			"stateMutability": "nonpayable",
			"type": "function"
		},
		{
			"constant": false,
			"inputs": [
				{
					"name": "_stakeOwner",
					"type": "address"
				},
				{
					"name": "_contentId",
					"type": "bytes32"
				},
				{
					"name": "_networkIntegerAmount",
					"type": "uint256"
				},
				{
					"name": "_networkFractionAmount",
					"type": "uint256"
				},
				{
					"name": "_denomination",
					"type": "bytes8"
				},
				{
					"name": "_primordialAmount",
					"type": "uint256"
				},
				{
					"name": "_profitPercentage",
					"type": "uint256"
				}
			],
			"name": "create",
			"outputs": [
				{
					"name": "",
					"type": "bytes32"
				}
			],
			"payable": false,
			"stateMutability": "nonpayable",
			"type": "function"
		},
		{
			"constant": false,
			"inputs": [
				{
					"name": "_stakedContentId",
					"type": "bytes32"
				},
				{
					"name": "_profitPercentage",
					"type": "uint256"
				}
			],
			"name": "setProfitPercentage",
			"outputs": [],
			"payable": false,
			"stateMutability": "nonpayable",
			"type": "function"
		},
		{
			"constant": true,
			"inputs": [
				{
					"name": "_stakedContentId",
					"type": "bytes32"
				}
			],
			"name": "getById",
			"outputs": [
				{
					"name": "",
					"type": "bytes32"
				},
				{
					"name": "",
					"type": "address"
				},
				{
					"name": "",
					"type": "uint256"
				},
				{
					"name": "",
					"type": "uint256"
				},
				{
					"name": "",
					"type": "uint256"
				},
				{
					"name": "",
					"type": "uint256"
				},
				{
					"name": "",
					"type": "bool"
				},
				{
					"name": "",
					"type": "uint256"
				}
			],
			"payable": false,
			"stateMutability": "view",
			"type": "function"
		},
		{
			"constant": false,
			"inputs": [
				{
					"name": "_stakedContentId",
					"type": "bytes32"
				},
				{
					"name": "_networkIntegerAmount",
					"type": "uint256"
				},
				{
					"name": "_networkFractionAmount",
					"type": "uint256"
				},
				{
					"name": "_denomination",
					"type": "bytes8"
				},
				{
					"name": "_primordialAmount",
					"type": "uint256"
				}
			],
			"name": "unstakePartialContent",
			"outputs": [],
			"payable": false,
			"stateMutability": "nonpayable",
			"type": "function"
		},
		{
			"constant": false,
			"inputs": [
				{
					"name": "_stakedContentId",
					"type": "bytes32"
				}
			],
			"name": "unstakeContent",
			"outputs": [],
			"payable": false,
			"stateMutability": "nonpayable",
			"type": "function"
		},
		{
			"constant": false,
			"inputs": [
				{
					"name": "_stakedContentId",
					"type": "bytes32"
				},
				{
					"name": "_networkIntegerAmount",
					"type": "uint256"
				},
				{
					"name": "_networkFractionAmount",
					"type": "uint256"
				},
				{
					"name": "_denomination",
					"type": "bytes8"
				},
				{
					"name": "_primordialAmount",
					"type": "uint256"
				}
			],
			"name": "stakeExistingContent",
			"outputs": [],
			"payable": false,
			"stateMutability": "nonpayable",
			"type": "function"
		},
		{
			"constant": true,
			"inputs": [
				{
					"name": "_stakedContentId",
					"type": "bytes32"
				}
			],
			"name": "isActive",
			"outputs": [
				{
					"name": "",
					"type": "bool"
				}
			],
			"payable": false,
			"stateMutability": "view",
			"type": "function"
		}
	],
	"bytecode": "0x60806040523480156200001157600080fd5b5060405160808062002f48833981016040908152815160208301519183015160609093015160008054600160a060020a031916331790559092906200005f84640100000000620000a5810204565b6200007383640100000000620001aa810204565b6200008782640100000000620002af810204565b6200009b81640100000000620003b4810204565b50505050620004af565b600054600154604080517ff66afcac000000000000000000000000000000000000000000000000000000008152336004820152600160a060020a0393841660248201529290911660448301525173__AOLibrary_____________________________9163f66afcac916064808301926020929190829003018186803b1580156200012e57600080fd5b505af415801562000143573d6000803e3d6000fd5b505050506040513d60208110156200015a57600080fd5b505115156200016857600080fd5b600160a060020a03811615156200017e57600080fd5b60048054600160a060020a03909216600160a060020a0319928316811790915560078054909216179055565b600054600154604080517ff66afcac000000000000000000000000000000000000000000000000000000008152336004820152600160a060020a0393841660248201529290911660448301525173__AOLibrary_____________________________9163f66afcac916064808301926020929190829003018186803b1580156200023357600080fd5b505af415801562000248573d6000803e3d6000fd5b505050506040513d60208110156200025f57600080fd5b505115156200026d57600080fd5b600160a060020a03811615156200028357600080fd5b60058054600160a060020a03909216600160a060020a0319928316811790915560088054909216179055565b600054600154604080517ff66afcac000000000000000000000000000000000000000000000000000000008152336004820152600160a060020a0393841660248201529290911660448301525173__AOLibrary_____________________________9163f66afcac916064808301926020929190829003018186803b1580156200033857600080fd5b505af41580156200034d573d6000803e3d6000fd5b505050506040513d60208110156200036457600080fd5b505115156200037257600080fd5b600160a060020a03811615156200038857600080fd5b60068054600160a060020a03909216600160a060020a0319928316811790915560098054909216179055565b600054600154604080517ff66afcac000000000000000000000000000000000000000000000000000000008152336004820152600160a060020a0393841660248201529290911660448301525173__AOLibrary_____________________________9163f66afcac916064808301926020929190829003018186803b1580156200043d57600080fd5b505af415801562000452573d6000803e3d6000fd5b505050506040513d60208110156200046957600080fd5b505115156200047757600080fd5b600160a060020a03811615156200048d57600080fd5b60018054600160a060020a031916600160a060020a0392909216919091179055565b612a8980620004bf6000396000f3006080604052600436106100f85763ffffffff60e060020a60003504166307a8385e81146100fd578063202352f7146101205780632dff0d0d146101475780633c56b011146101aa5780634ef033f0146101db57806353d6fd59146101f05780635c36901c146102165780635cfaf2ef146102425780635f7b99ea1461026357806370660f7c1461027857806385cb86c8146102a657806389a83246146102bb5780639789f617146102dc5780639b19251a14610319578063a9b6b38e1461033a578063b380b0d41461034f578063c3db397f1461036a578063e6ab96ed14610398578063f2fde38b146103b0578063f97106b5146103d1575b600080fd5b34801561010957600080fd5b5061011e600160a060020a03600435166103f2565b005b34801561012c57600080fd5b506101356104e9565b60408051918252519081900360200190f35b34801561015357600080fd5b5061015f6004356104ef565b60408051988952600160a060020a039097166020890152878701959095526060870193909352608086019190915260a0850152151560c084015260e083015251908190036101000190f35b3480156101b657600080fd5b506101bf6105ca565b60408051600160a060020a039092168252519081900360200190f35b3480156101e757600080fd5b506101bf6105d9565b3480156101fc57600080fd5b5061011e600160a060020a036004351660243515156105e8565b34801561022257600080fd5b5061022e6004356106d1565b604080519115158252519081900360200190f35b34801561024e57600080fd5b5061011e600160a060020a03600435166107ba565b34801561026f57600080fd5b506101bf6108a7565b34801561028457600080fd5b5061011e600435602435604435600160c060020a0319606435166084356108b6565b3480156102b257600080fd5b506101bf611001565b3480156102c757600080fd5b5061011e600160a060020a0360043516611010565b3480156102e857600080fd5b50610135600160a060020a0360043516602435604435606435600160c060020a03196084351660a43560c435611107565b34801561032557600080fd5b5061022e600160a060020a0360043516611672565b34801561034657600080fd5b506101bf611687565b34801561035b57600080fd5b5061011e600435602435611696565b34801561037657600080fd5b5061011e600435602435604435600160c060020a03196064351660843561184b565b3480156103a457600080fd5b5061011e600435611dff565b3480156103bc57600080fd5b5061011e600160a060020a03600435166120c8565b3480156103dd57600080fd5b5061011e600160a060020a03600435166121b5565b6000546001546040805160e260020a633d9abf2b028152336004820152600160a060020a0393841660248201529290911660448301525173__AOLibrary_____________________________9163f66afcac916064808301926020929190829003018186803b15801561046457600080fd5b505af4158015610478573d6000803e3d6000fd5b505050506040513d602081101561048e57600080fd5b5051151561049b57600080fd5b600160a060020a03811615156104b057600080fd5b60058054600160a060020a0390921673ffffffffffffffffffffffffffffffffffffffff19928316811790915560088054909216179055565b60035481565b600080600080600080600080610503612a11565b60008a8152600b60205260408120541161051c57600080fd5b50505060009687525050600b60209081526040808720548752600a8252958690208651610120810188528154815260018201549281018390526002820154600160a060020a0316978101889052600382015460608201819052600483015460808301819052600584015460a08401819052600685015460c08501819052600786015460ff16151560e08601819052600890960154610100909501859052959b92995090975095509293509091565b600454600160a060020a031681565b600154600160a060020a031681565b6000546001546040805160e260020a633d9abf2b028152336004820152600160a060020a0393841660248201529290911660448301525173__AOLibrary_____________________________9163f66afcac916064808301926020929190829003018186803b15801561065a57600080fd5b505af415801561066e573d6000803e3d6000fd5b505050506040513d602081101561068457600080fd5b5051151561069157600080fd5b600160a060020a03821615156106a657600080fd5b600160a060020a03919091166000908152600260205260409020805460ff1916911515919091179055565b60006106db612a11565b6000838152600b6020526040812054116106f457600080fd5b506000828152600b60209081526040808320548352600a82529182902082516101208101845281548152600180830154938201939093526002820154600160a060020a0316938101939093526003810154606084015260048101546080840152600581015460a0840152600681015460c0840152600781015460ff16151560e084018190526008909101546101008401521480156107b357506000816060015111806107b35750600081608001511180156107b3575060008160a00151115b9392505050565b6000546001546040805160e260020a633d9abf2b028152336004820152600160a060020a0393841660248201529290911660448301525173__AOLibrary_____________________________9163f66afcac916064808301926020929190829003018186803b15801561082c57600080fd5b505af4158015610840573d6000803e3d6000fd5b505050506040513d602081101561085657600080fd5b5051151561086357600080fd5b600160a060020a038116151561087857600080fd5b6001805473ffffffffffffffffffffffffffffffffffffffff1916600160a060020a0392909216919091179055565b600554600160a060020a031681565b6000858152600b60205260408120548190819081106108d457600080fd5b6000888152600b60209081526040808320548352600a909152808220600954600182015483517f2dff0d0d00000000000000000000000000000000000000000000000000000000815260048101919091529251919650600160a060020a031692632dff0d0d926024808201939182900301818387803b15801561095657600080fd5b505af115801561096a573d6000803e3d6000fd5b505050506040513d6000823e601f3d908101601f1916820160405261012081101561099457600080fd5b8151602083015160408401516060850151608086015160a087015160c088015160e08901516101008a018051989a97999698959794969395929491938201926401000000008111156109e557600080fd5b820160208101848111156109f857600080fd5b8151640100000000811182820187101715610a1257600080fd5b50505060028e0154999c50505050600160a060020a039690961633149650610a409550505050505057600080fd5b6000871180610a4f5750600086115b80610a5a5750600084115b1515610a6557600080fd5b6009546001840154604080517f65cf0ace000000000000000000000000000000000000000000000000000000008152600481019290925251610b2392600160a060020a0316916365cf0ace9160248083019260209291908290030181600087803b158015610ad257600080fd5b505af1158015610ae6573d6000803e3d6000fd5b505050506040513d6020811015610afc57600080fd5b5051600485015460038601548591610b1a919063ffffffff6122ac16565b8a8a8a8a6122bf565b1515610b2e57600080fd5b600084118015610b425750600783015460ff165b8015610b52575060008360040154115b8015610b62575060008360050154115b15610c08576005830154600754604080517f281bdaf80000000000000000000000000000000000000000000000000000000081523360048201529051600160a060020a039092169163281bdaf8916024808201926020929091908290030181600087803b158015610bd257600080fd5b505af1158015610be6573d6000803e3d6000fd5b505050506040513d6020811015610bfc57600080fd5b505114610c0857600080fd5b60078301805460ff19166001179055600854604080517f90358f5d000000000000000000000000000000000000000000000000000000008152600160c060020a0319881660048201529051600160a060020a03909216916390358f5d916024808201926020929091908290030181600087803b158015610c8757600080fd5b505af1158015610c9b573d6000803e3d6000fd5b505050506040513d6020811015610cb157600080fd5b50518015610cc957506000871180610cc95750600086115b15610e2a576008546040805160e360020a63042fb71d028152600481018a905260248101899052600160c060020a0319881660448201529051600160a060020a039092169163217db8e8916064808201926020929091908290030181600087803b158015610d3657600080fd5b505af1158015610d4a573d6000803e3d6000fd5b505050506040513d6020811015610d6057600080fd5b50516003840154909150610d7a908263ffffffff6122ac16565b60038401556007546002840154604080517f31a8aeb3000000000000000000000000000000000000000000000000000000008152600160a060020a03928316600482015260248101859052905191909216916331a8aeb39160448083019260209291908290030181600087803b158015610df357600080fd5b505af1158015610e07573d6000803e3d6000fd5b505050506040513d6020811015610e1d57600080fd5b50511515610e2a57600080fd5b6000841115610fa0576004830154610e48908563ffffffff6122ac16565b6004808501919091556007546002850154604080517f281bdaf8000000000000000000000000000000000000000000000000000000008152600160a060020a03928316948101949094525191169163281bdaf89160248083019260209291908290030181600087803b158015610ebd57600080fd5b505af1158015610ed1573d6000803e3d6000fd5b505050506040513d6020811015610ee757600080fd5b5051600584018190556007546002850154604080517f18ff5c51000000000000000000000000000000000000000000000000000000008152600160a060020a039283166004820152602481018990526044810194909452519116916318ff5c519160648083019260209291908290030181600087803b158015610f6957600080fd5b505af1158015610f7d573d6000803e3d6000fd5b505050506040513d6020811015610f9357600080fd5b50511515610fa057600080fd5b60018301548354600385015460048601546005870154604080519384526020840192909252828201525133917f7fa32f70b286f05be6f001e570ad7f2e82d767dc5ec7f8e0e585414189184224919081900360600190a45050505050505050565b600654600160a060020a031681565b6000546001546040805160e260020a633d9abf2b028152336004820152600160a060020a0393841660248201529290911660448301525173__AOLibrary_____________________________9163f66afcac916064808301926020929190829003018186803b15801561108257600080fd5b505af4158015611096573d6000803e3d6000fd5b505050506040513d60208110156110ac57600080fd5b505115156110b957600080fd5b600160a060020a03811615156110ce57600080fd5b60068054600160a060020a0390921673ffffffffffffffffffffffffffffffffffffffff19928316811790915560098054909216179055565b336000908152600260205260408120548190819060ff16151560011461112c57600080fd5b61113b8a8a8a8a8a8a8a61240f565b151561114657600080fd5b600380546001019055604080516c01000000000000000000000000308102602080840191909152600160a060020a038e16909102603483015260488083018d905283518084039091018152606890920192839052815191929182918401908083835b602083106111c75780518252601f1990920191602091820191016111a8565b51815160209384036101000a600019018019909216911617905260408051929094018290039091206003546000908152600a9092529290206002810154929650945050600160a060020a0316159150611221905057600080fd5b81815560018082018a905560028201805473ffffffffffffffffffffffffffffffffffffffff1916600160a060020a038d8116919091179091556006830186905560078301805460ff19169092179091554260088084019190915554604080517f90358f5d000000000000000000000000000000000000000000000000000000008152600160c060020a03198a166004820152905191909216916390358f5d9160248083019260209291908290030181600087803b1580156112e257600080fd5b505af11580156112f6573d6000803e3d6000fd5b505050506040513d602081101561130c57600080fd5b50518015611324575060008811806113245750600087115b1561146c576008546040805160e360020a63042fb71d028152600481018b9052602481018a9052600160c060020a0319891660448201529051600160a060020a039092169163217db8e8916064808201926020929091908290030181600087803b15801561139157600080fd5b505af11580156113a5573d6000803e3d6000fd5b505050506040513d60208110156113bb57600080fd5b505160038201819055600754604080517f31a8aeb3000000000000000000000000000000000000000000000000000000008152600160a060020a038e811660048301526024820194909452905192909116916331a8aeb3916044808201926020929091908290030181600087803b15801561143557600080fd5b505af1158015611449573d6000803e3d6000fd5b505050506040513d602081101561145f57600080fd5b5051151561146c57600080fd5b60008511156115cc5760048082018690556007546002830154604080517f281bdaf8000000000000000000000000000000000000000000000000000000008152600160a060020a03928316948101949094525191169163281bdaf89160248083019260209291908290030181600087803b1580156114e957600080fd5b505af11580156114fd573d6000803e3d6000fd5b505050506040513d602081101561151357600080fd5b5051600582018190556007546002830154604080517f18ff5c51000000000000000000000000000000000000000000000000000000008152600160a060020a039283166004820152602481018a90526044810194909452519116916318ff5c519160648083019260209291908290030181600087803b15801561159557600080fd5b505af11580156115a9573d6000803e3d6000fd5b505050506040513d60208110156115bf57600080fd5b505115156115cc57600080fd5b600380546000848152600b6020908152604091829020929092556001840154845460028601549486015460048701546005880154600689015460088a01548751948552978401929092528286015260608201526080810194909452915190939192600160a060020a03909216917f8e4070fcd0119c9df9d24fa5f6be85f7b7951b6b226bea5b3509e5a97b03b687919081900360a00190a4549998505050505050505050565b60026020526000908152604090205460ff1681565b600054600160a060020a031681565b600073__AOLibrary_____________________________63caf297656040518163ffffffff1660e060020a02815260040160206040518083038186803b1580156116df57600080fd5b505af41580156116f3573d6000803e3d6000fd5b505050506040513d602081101561170957600080fd5b505182111561171757600080fd5b6000838152600b60205260408120541161173057600080fd5b506000828152600b60209081526040808320548352600a90915290206002810154600160a060020a0316331461176557600080fd5b6009546001820154604080517f65cf0ace000000000000000000000000000000000000000000000000000000008152600481019290925251600160a060020a03909216916365cf0ace916024808201926020929091908290030181600087803b1580156117d157600080fd5b505af11580156117e5573d6000803e3d6000fd5b505050506040513d60208110156117fb57600080fd5b5051151561180857600080fd5b60068101829055604080518381529051849133917f6c4a0cfd4af9f173dec0ac350616d6c855be630c8c83b3cd18879ad5a6bf6d299181900360200190a3505050565b6000858152600b602052604081205481908190811061186957600080fd5b60008711806118785750600086115b806118835750600084115b151561188e57600080fd5b6000888152600b60209081526040808320548352600a909152808220600954600182015483517f2dff0d0d00000000000000000000000000000000000000000000000000000000815260048101919091529251919650600160a060020a031692632dff0d0d926024808201939182900301818387803b15801561191057600080fd5b505af1158015611924573d6000803e3d6000fd5b505050506040513d6000823e601f3d908101601f1916820160405261012081101561194e57600080fd5b8151602083015160408401516060850151608086015160a087015160c088015160e08901516101008a018051989a979996989597949693959294919382019264010000000081111561199f57600080fd5b820160208101848111156119b257600080fd5b81516401000000008111828201871017156119cc57600080fd5b50505060028e0154999c50505050600160a060020a0396909616331496506119fa9550505050505057600080fd5b604080517f5c36901c000000000000000000000000000000000000000000000000000000008152600481018a905290513091635c36901c9160248083019260209291908290030181600087803b158015611a5357600080fd5b505af1158015611a67573d6000803e3d6000fd5b505050506040513d6020811015611a7d57600080fd5b50511515611a8a57600080fd5b611aa18787878787600301548860040154886127b2565b1515611aac57600080fd5b600854604080517f90358f5d000000000000000000000000000000000000000000000000000000008152600160c060020a0319881660048201529051600160a060020a03909216916390358f5d916024808201926020929091908290030181600087803b158015611b1c57600080fd5b505af1158015611b30573d6000803e3d6000fd5b505050506040513d6020811015611b4657600080fd5b50518015611b5e57506000871180611b5e5750600086115b15611cb8576008546040805160e360020a63042fb71d028152600481018a905260248101899052600160c060020a0319881660448201529051600160a060020a039092169163217db8e8916064808201926020929091908290030181600087803b158015611bcb57600080fd5b505af1158015611bdf573d6000803e3d6000fd5b505050506040513d6020811015611bf557600080fd5b50516003840154909150611c0f908263ffffffff6129ff16565b6003840155600754604080517f731a3b06000000000000000000000000000000000000000000000000000000008152336004820152602481018490529051600160a060020a039092169163731a3b06916044808201926020929091908290030181600087803b158015611c8157600080fd5b505af1158015611c95573d6000803e3d6000fd5b505050506040513d6020811015611cab57600080fd5b50511515611cb857600080fd5b6000841115611d90576004830154611cd6908563ffffffff6129ff16565b6004808501919091556007546005850154604080517ff81eb76d000000000000000000000000000000000000000000000000000000008152339481019490945260248401889052604484019190915251600160a060020a039091169163f81eb76d9160648083019260209291908290030181600087803b158015611d5957600080fd5b505af1158015611d6d573d6000803e3d6000fd5b505050506040513d6020811015611d8357600080fd5b50511515611d9057600080fd5b6001830154835460028501546003860154600487015460058801546040805193845260208401929092528282015251600160a060020a03909216917f645f75eb984f0b89f1e9887da267d2025a37764e7bd6537b7d7eff900e8725eb9181900360600190a45050505050505050565b6000818152600b60205260408120548190819081908110611e1f57600080fd5b6000858152600b60209081526040808320548352600a90915290206002810154909450600160a060020a03163314611e5657600080fd5b604080517f5c36901c0000000000000000000000000000000000000000000000000000000081526004810187905290513091635c36901c9160248083019260209291908290030181600087803b158015611eaf57600080fd5b505af1158015611ec3573d6000803e3d6000fd5b505050506040513d6020811015611ed957600080fd5b50511515611ee657600080fd5b60078401805460ff19169055600384015460001015611fb257600384018054600091829055600754604080517f731a3b06000000000000000000000000000000000000000000000000000000008152336004820152602481018490529051929650600160a060020a039091169263731a3b06926044808401936020939083900390910190829087803b158015611f7b57600080fd5b505af1158015611f8f573d6000803e3d6000fd5b505050506040513d6020811015611fa557600080fd5b50511515611fb257600080fd5b6000846004015411156120885750506004808301805460058501805460009384905590839055600754604080517ff81eb76d000000000000000000000000000000000000000000000000000000008152339681019690965260248601849052604486018390525192949193600160a060020a039091169263f81eb76d926064808201936020939283900390910190829087803b15801561205157600080fd5b505af1158015612065573d6000803e3d6000fd5b505050506040513d602081101561207b57600080fd5b5051151561208857600080fd5b60028401546040518691600160a060020a0316907eeb6a306a149d2ec8a5e5f228483a31d06863f4cd48237ddf5c1c236805def890600090a35050505050565b6000546001546040805160e260020a633d9abf2b028152336004820152600160a060020a0393841660248201529290911660448301525173__AOLibrary_____________________________9163f66afcac916064808301926020929190829003018186803b15801561213a57600080fd5b505af415801561214e573d6000803e3d6000fd5b505050506040513d602081101561216457600080fd5b5051151561217157600080fd5b600160a060020a038116151561218657600080fd5b6000805473ffffffffffffffffffffffffffffffffffffffff1916600160a060020a0392909216919091179055565b6000546001546040805160e260020a633d9abf2b028152336004820152600160a060020a0393841660248201529290911660448301525173__AOLibrary_____________________________9163f66afcac916064808301926020929190829003018186803b15801561222757600080fd5b505af415801561223b573d6000803e3d6000fd5b505050506040513d602081101561225157600080fd5b5051151561225e57600080fd5b600160a060020a038116151561227357600080fd5b60048054600160a060020a0390921673ffffffffffffffffffffffffffffffffffffffff19928316811790915560078054909216179055565b818101828110156122b957fe5b92915050565b6000871561238a576008546040805160e360020a63042fb71d0281526004810188905260248101879052600160c060020a03198616604482015290518992612381928a92612375928892600160a060020a039091169163217db8e8916064808201926020929091908290030181600087803b15801561233d57600080fd5b505af1158015612351573d6000803e3d6000fd5b505050506040513d602081101561236757600080fd5b50519063ffffffff6122ac16565b9063ffffffff6122ac16565b10159050612404565b6008546040805160e360020a63042fb71d0281526004810188905260248101879052600160c060020a03198616604482015290518992612400928a92612375928892600160a060020a039091169163217db8e8916064808201926020929091908290030181600087803b15801561233d57600080fd5b1490505b979650505050505050565b600954604080517f2dff0d0d00000000000000000000000000000000000000000000000000000000815260048101899052905160009283928392600160a060020a0390921691632dff0d0d91602480820192869290919082900301818387803b15801561247b57600080fd5b505af115801561248f573d6000803e3d6000fd5b505050506040513d6000823e601f3d908101601f191682016040526101208110156124b957600080fd5b8151602083015160408401516060850151608086015160a087015160c088015160e08901516101008a018051989a979996989597949693959294919382019264010000000081111561250a57600080fd5b8201602081018481111561251d57600080fd5b815164010000000081118282018710171561253757600080fd5b505092919050505050505050505050915091506000600160a060020a03168a600160a060020a03161415801561257e575081600160a060020a03168a600160a060020a0316145b801561259f575060008811806125945750600087115b8061259f5750600085115b80156127265750600954604080517f65cf0ace000000000000000000000000000000000000000000000000000000008152600481018c90529051600160a060020a03909216916365cf0ace916024808201926020929091908290030181600087803b15801561260d57600080fd5b505af1158015612621573d6000803e3d6000fd5b505050506040513d602081101561263757600080fd5b50516126b3576008546040805160e360020a63042fb71d028152600481018b9052602481018a9052600160c060020a031989166044820152905183926126ad928992600160a060020a039092169163217db8e8916064808201926020929091908290030181600087803b15801561233d57600080fd5b14612726565b6008546040805160e360020a63042fb71d028152600481018b9052602481018a9052600160c060020a03198916604482015290518392612723928992600160a060020a039092169163217db8e8916064808201926020929091908290030181600087803b15801561233d57600080fd5b10155b80156127a4575073__AOLibrary_____________________________63caf297656040518163ffffffff1660e060020a02815260040160206040518083038186803b15801561277457600080fd5b505af4158015612788573d6000803e3d6000fd5b505050506040513d602081101561279e57600080fd5b50518411155b9a9950505050505050505050565b60007fff000000000000000000000000000000000000000000000000000000000000007f010000000000000000000000000000000000000000000000000000000000000087831a021615801590612813575060008811806128135750600087115b80156128b157506008546040805160e360020a63042fb71d028152600481018b9052602481018a9052600160c060020a0319891660448201529051600160a060020a039092169163217db8e8916064808201926020929091908290030181600087803b15801561288257600080fd5b505af1158015612896573d6000803e3d6000fd5b505050506040513d60208110156128ac57600080fd5b505184105b806128bb57508483105b806129e157507fff000000000000000000000000000000000000000000000000000000000000007f0100000000000000000000000000000000000000000000000000000000000000600088901a021615801590612922575060008811806129225750600087115b80156129e15750816129df61293d858863ffffffff6129ff16565b6008546040805160e360020a63042fb71d028152600481018e9052602481018d9052600160c060020a03198c166044820152905161237592600160a060020a03169163217db8e89160648083019260209291908290030181600087803b1580156129a657600080fd5b505af11580156129ba573d6000803e3d6000fd5b505050506040513d60208110156129d057600080fd5b5051889063ffffffff6129ff16565b105b806129ea575060005b156129f757506000612404565b506001612404565b600082821115612a0b57fe5b50900390565b6040805161012081018252600080825260208201819052918101829052606081018290526080810182905260a0810182905260c0810182905260e08101829052610100810191909152905600a165627a7a7230582032d9c28eff68a644b5ce7876545e6440f4e7f2bc0994ce7812738fbb38b189ca0029",
	"source": "pragma solidity ^0.4.24;\n\nimport './SafeMath.sol';\nimport './AOLibrary.sol';\nimport './TheAO.sol';\nimport './IAOStakedContent.sol';\nimport './AOIon.sol';\nimport './IAOTreasury.sol';\nimport './IAOContent.sol';\n\n/**\n * @title AOStakedContent\n */\ncontract AOStakedContent is TheAO, IAOStakedContent {\n\tusing SafeMath for uint256;\n\n\tuint256 public totalStakedContents;\n\taddress public aoIonAddress;\n\taddress public aoTreasuryAddress;\n\taddress public aoContentAddress;\n\n\tAOIon internal _aoIon;\n\tIAOTreasury internal _aoTreasury;\n\tIAOContent internal _aoContent;\n\n\tstruct StakedContent {\n\t\tbytes32 stakedContentId;\n\t\tbytes32 contentId;\n\t\taddress stakeOwner;\n\t\tuint256 networkAmount;\t\t// total network ion staked in base denomination\n\t\tuint256 primordialAmount;\t// the amount of primordial AOIon to stake (always in base denomination)\n\t\tuint256 primordialWeightedMultiplier;\n\t\tuint256 profitPercentage;\t// support up to 4 decimals, 100% = 1000000\n\t\tbool active;\t// true if currently staked, false when unstaked\n\t\tuint256 createdOnTimestamp;\n\t}\n\n\t// Mapping from StakedContent index to the StakedContent object\n\tmapping (uint256 => StakedContent) internal stakedContents;\n\n\t// Mapping from StakedContent ID to index of the stakedContents list\n\tmapping (bytes32 => uint256) internal stakedContentIndex;\n\n\t// Event to be broadcasted to public when `stakeOwner` stakes a new content\n\tevent StakeContent(\n\t\taddress indexed stakeOwner,\n\t\tbytes32 indexed stakedContentId,\n\t\tbytes32 indexed contentId,\n\t\tuint256 baseNetworkAmount,\n\t\tuint256 primordialAmount,\n\t\tuint256 primordialWeightedMultiplier,\n\t\tuint256 profitPercentage,\n\t\tuint256 createdOnTimestamp\n\t);\n\n\t// Event to be broadcasted to public when `stakeOwner` updates the staked content's profit percentage\n\tevent SetProfitPercentage(address indexed stakeOwner, bytes32 indexed stakedContentId, uint256 newProfitPercentage);\n\n\t// Event to be broadcasted to public when `stakeOwner` unstakes some network/primordial ion from an existing content\n\tevent UnstakePartialContent(\n\t\taddress indexed stakeOwner,\n\t\tbytes32 indexed stakedContentId,\n\t\tbytes32 indexed contentId,\n\t\tuint256 remainingNetworkAmount,\n\t\tuint256 remainingPrimordialAmount,\n\t\tuint256 primordialWeightedMultiplier\n\t);\n\n\t// Event to be broadcasted to public when `stakeOwner` unstakes all ion amount on an existing content\n\tevent UnstakeContent(address indexed stakeOwner, bytes32 indexed stakedContentId);\n\n\t// Event to be broadcasted to public when `stakeOwner` re-stakes an existing content\n\tevent StakeExistingContent(\n\t\taddress indexed stakeOwner,\n\t\tbytes32 indexed stakedContentId,\n\t\tbytes32 indexed contentId,\n\t\tuint256 currentNetworkAmount,\n\t\tuint256 currentPrimordialAmount,\n\t\tuint256 currentPrimordialWeightedMultiplier\n\t);\n\n\t/**\n\t * @dev Constructor function\n\t * @param _aoIonAddress The address of AOIon\n\t * @param _aoTreasuryAddress The address of AOTreasury\n\t * @param _aoContentAddress The address of AOContent\n\t * @param _nameTAOPositionAddress The address of NameTAOPosition\n\t */\n\tconstructor(address _aoIonAddress, address _aoTreasuryAddress, address _aoContentAddress, address _nameTAOPositionAddress) public {\n\t\tsetAOIonAddress(_aoIonAddress);\n\t\tsetAOTreasuryAddress(_aoTreasuryAddress);\n\t\tsetAOContentAddress(_aoContentAddress);\n\t\tsetNameTAOPositionAddress(_nameTAOPositionAddress);\n\t}\n\n\t/**\n\t * @dev Checks if the calling contract address is The AO\n\t *\t\tOR\n\t *\t\tIf The AO is set to a Name/TAO, then check if calling address is the Advocate\n\t */\n\tmodifier onlyTheAO {\n\t\trequire (AOLibrary.isTheAO(msg.sender, theAO, nameTAOPositionAddress));\n\t\t_;\n\t}\n\n\t/***** The AO ONLY METHODS *****/\n\t/**\n\t * @dev Transfer ownership of The AO to new address\n\t * @param _theAO The new address to be transferred\n\t */\n\tfunction transferOwnership(address _theAO) public onlyTheAO {\n\t\trequire (_theAO != address(0));\n\t\ttheAO = _theAO;\n\t}\n\n\t/**\n\t * @dev Whitelist `_account` address to transact on behalf of others\n\t * @param _account The address to whitelist\n\t * @param _whitelist Either to whitelist or not\n\t */\n\tfunction setWhitelist(address _account, bool _whitelist) public onlyTheAO {\n\t\trequire (_account != address(0));\n\t\twhitelist[_account] = _whitelist;\n\t}\n\n\t/**\n\t * @dev The AO sets AOIon address\n\t * @param _aoIonAddress The address of AOIon\n\t */\n\tfunction setAOIonAddress(address _aoIonAddress) public onlyTheAO {\n\t\trequire (_aoIonAddress != address(0));\n\t\taoIonAddress = _aoIonAddress;\n\t\t_aoIon = AOIon(_aoIonAddress);\n\t}\n\n\t/**\n\t * @dev The AO sets AOTreasury address\n\t * @param _aoTreasuryAddress The address of AOTreasury\n\t */\n\tfunction setAOTreasuryAddress(address _aoTreasuryAddress) public onlyTheAO {\n\t\trequire (_aoTreasuryAddress != address(0));\n\t\taoTreasuryAddress = _aoTreasuryAddress;\n\t\t_aoTreasury = IAOTreasury(_aoTreasuryAddress);\n\t}\n\n\t/**\n\t * @dev The AO sets AO Content address\n\t * @param _aoContentAddress The address of AOContent\n\t */\n\tfunction setAOContentAddress(address _aoContentAddress) public onlyTheAO {\n\t\trequire (_aoContentAddress != address(0));\n\t\taoContentAddress = _aoContentAddress;\n\t\t_aoContent = IAOContent(_aoContentAddress);\n\t}\n\n\t/**\n\t * @dev The AO sets NameTAOPosition address\n\t * @param _nameTAOPositionAddress The address of NameTAOPosition\n\t */\n\tfunction setNameTAOPositionAddress(address _nameTAOPositionAddress) public onlyTheAO {\n\t\trequire (_nameTAOPositionAddress != address(0));\n\t\tnameTAOPositionAddress = _nameTAOPositionAddress;\n\t}\n\n\t/***** PUBLIC METHODS *****/\n\t/**\n\t * @dev Stake the content\n\t * @param _stakeOwner the address that stake the content\n\t * @param _contentId The ID of the content\n\t * @param _networkIntegerAmount The integer amount of network ion to stake\n\t * @param _networkFractionAmount The fraction amount of network ion to stake\n\t * @param _denomination The denomination of the network ion, i.e ao, kilo, mega, etc.\n\t * @param _primordialAmount The amount of primordial ion to stake\n\t * @param _profitPercentage The percentage of profit the stake owner's media will charge\n\t * @return the newly created staked content ID\n\t */\n\tfunction create(address _stakeOwner,\n\t\tbytes32 _contentId,\n\t\tuint256 _networkIntegerAmount,\n\t\tuint256 _networkFractionAmount,\n\t\tbytes8 _denomination,\n\t\tuint256 _primordialAmount,\n\t\tuint256 _profitPercentage\n\t\t) external inWhitelist returns (bytes32) {\n\t\trequire (_canCreate(_stakeOwner, _contentId, _networkIntegerAmount, _networkFractionAmount, _denomination, _primordialAmount, _profitPercentage));\n\t\t// Increment totalStakedContents\n\t\ttotalStakedContents++;\n\n\t\t// Generate stakedContentId\n\t\tbytes32 _stakedContentId = keccak256(abi.encodePacked(this, _stakeOwner, _contentId));\n\t\tStakedContent storage _stakedContent = stakedContents[totalStakedContents];\n\n\t\t// Make sure the node doesn't stake the same content twice\n\t\trequire (_stakedContent.stakeOwner == address(0));\n\n\t\t_stakedContent.stakedContentId = _stakedContentId;\n\t\t_stakedContent.contentId = _contentId;\n\t\t_stakedContent.stakeOwner = _stakeOwner;\n\t\t_stakedContent.profitPercentage = _profitPercentage;\n\t\t_stakedContent.active = true;\n\t\t_stakedContent.createdOnTimestamp = now;\n\n\t\tif (_aoTreasury.isDenominationExist(_denomination) && (_networkIntegerAmount > 0 || _networkFractionAmount > 0)) {\n\t\t\t_stakedContent.networkAmount = _aoTreasury.toBase(_networkIntegerAmount, _networkFractionAmount, _denomination);\n\t\t\trequire (_aoIon.stakeFrom(_stakeOwner, _stakedContent.networkAmount));\n\t\t}\n\t\tif (_primordialAmount > 0) {\n\t\t\t_stakedContent.primordialAmount = _primordialAmount;\n\n\t\t\t// Primordial ion is the base AO ion\n\t\t\t_stakedContent.primordialWeightedMultiplier = _aoIon.weightedMultiplierByAddress(_stakedContent.stakeOwner);\n\t\t\trequire (_aoIon.stakePrimordialFrom(_stakedContent.stakeOwner, _primordialAmount, _stakedContent.primordialWeightedMultiplier));\n\t\t}\n\n\t\tstakedContentIndex[_stakedContentId] = totalStakedContents;\n\n\t\temit StakeContent(_stakedContent.stakeOwner, _stakedContent.stakedContentId, _stakedContent.contentId, _stakedContent.networkAmount, _stakedContent.primordialAmount, _stakedContent.primordialWeightedMultiplier, _stakedContent.profitPercentage, _stakedContent.createdOnTimestamp);\n\t\treturn _stakedContent.stakedContentId;\n\t}\n\n\t/**\n\t * @dev Set profit percentage on existing staked content\n\t *\t\tWill throw error if this is a Creative Commons/T(AO) Content\n\t * @param _stakedContentId The ID of the staked content\n\t * @param _profitPercentage The new value to be set\n\t */\n\tfunction setProfitPercentage(bytes32 _stakedContentId, uint256 _profitPercentage) public {\n\t\trequire (_profitPercentage <= AOLibrary.PERCENTAGE_DIVISOR());\n\n\t\t// Make sure the staked content exist\n\t\trequire (stakedContentIndex[_stakedContentId] > 0);\n\n\t\tStakedContent storage _stakedContent = stakedContents[stakedContentIndex[_stakedContentId]];\n\t\t// Make sure the staked content owner is the same as the sender\n\t\trequire (_stakedContent.stakeOwner == msg.sender);\n\n\t\t// Make sure we are updating profit percentage for AO Content only\n\t\t// Creative Commons/T(AO) Content has 0 profit percentage\n\t\trequire (_aoContent.isAOContentUsageType(_stakedContent.contentId));\n\n\t\t_stakedContent.profitPercentage = _profitPercentage;\n\n\t\temit SetProfitPercentage(msg.sender, _stakedContentId, _profitPercentage);\n\t}\n\n\t/**\n\t * @dev Return staked content information at a given ID\n\t * @param _stakedContentId The ID of the staked content\n\t * @return The ID of the content being staked\n\t * @return address of the staked content's owner\n\t * @return the network base ion amount staked for this content\n\t * @return the primordial ion amount staked for this content\n\t * @return the primordial weighted multiplier of the staked content\n\t * @return the profit percentage of the content\n\t * @return status of the staked content\n\t * @return the timestamp when the staked content was created\n\t */\n\tfunction getById(bytes32 _stakedContentId) external view returns (bytes32, address, uint256, uint256, uint256, uint256, bool, uint256) {\n\t\t// Make sure the staked content exist\n\t\trequire (stakedContentIndex[_stakedContentId] > 0);\n\n\t\tStakedContent memory _stakedContent = stakedContents[stakedContentIndex[_stakedContentId]];\n\t\treturn (\n\t\t\t_stakedContent.contentId,\n\t\t\t_stakedContent.stakeOwner,\n\t\t\t_stakedContent.networkAmount,\n\t\t\t_stakedContent.primordialAmount,\n\t\t\t_stakedContent.primordialWeightedMultiplier,\n\t\t\t_stakedContent.profitPercentage,\n\t\t\t_stakedContent.active,\n\t\t\t_stakedContent.createdOnTimestamp\n\t\t);\n\t}\n\n\t/**\n\t * @dev Unstake existing staked content and refund partial staked amount to the stake owner\n\t *\t\tUse unstakeContent() to unstake all staked ion amount. unstakePartialContent() can unstake only up to\n\t *\t\tthe mininum required to pay the fileSize\n\t * @param _stakedContentId The ID of the staked content\n\t * @param _networkIntegerAmount The integer amount of network ion to unstake\n\t * @param _networkFractionAmount The fraction amount of network ion to unstake\n\t * @param _denomination The denomination of the network ion, i.e ao, kilo, mega, etc.\n\t * @param _primordialAmount The amount of primordial ion to unstake\n\t */\n\tfunction unstakePartialContent(bytes32 _stakedContentId,\n\t\tuint256 _networkIntegerAmount,\n\t\tuint256 _networkFractionAmount,\n\t\tbytes8 _denomination,\n\t\tuint256 _primordialAmount\n\t\t) public {\n\t\t// Make sure the staked content exist\n\t\trequire (stakedContentIndex[_stakedContentId] > 0);\n\t\trequire (_networkIntegerAmount > 0 || _networkFractionAmount > 0 || _primordialAmount > 0);\n\n\t\tStakedContent storage _stakedContent = stakedContents[stakedContentIndex[_stakedContentId]];\n\t\t(, uint256 _fileSize,,,,,,,) = _aoContent.getById(_stakedContent.contentId);\n\n\t\t// Make sure the staked content owner is the same as the sender\n\t\trequire (_stakedContent.stakeOwner == msg.sender);\n\t\t// Make sure the staked content is currently active (staked) with some amounts\n\t\trequire (this.isActive(_stakedContentId));\n\t\t// Make sure the staked content has enough balance to unstake\n\t\trequire (_canUnstakePartial(_networkIntegerAmount, _networkFractionAmount, _denomination, _primordialAmount, _stakedContent.networkAmount, _stakedContent.primordialAmount, _fileSize));\n\n\t\tif (_aoTreasury.isDenominationExist(_denomination) && (_networkIntegerAmount > 0 || _networkFractionAmount > 0)) {\n\t\t\tuint256 _unstakeNetworkAmount = _aoTreasury.toBase(_networkIntegerAmount, _networkFractionAmount, _denomination);\n\t\t\t_stakedContent.networkAmount = _stakedContent.networkAmount.sub(_unstakeNetworkAmount);\n\t\t\trequire (_aoIon.unstakeFrom(msg.sender, _unstakeNetworkAmount));\n\t\t}\n\t\tif (_primordialAmount > 0) {\n\t\t\t_stakedContent.primordialAmount = _stakedContent.primordialAmount.sub(_primordialAmount);\n\t\t\trequire (_aoIon.unstakePrimordialFrom(msg.sender, _primordialAmount, _stakedContent.primordialWeightedMultiplier));\n\t\t}\n\t\temit UnstakePartialContent(_stakedContent.stakeOwner, _stakedContent.stakedContentId, _stakedContent.contentId, _stakedContent.networkAmount, _stakedContent.primordialAmount, _stakedContent.primordialWeightedMultiplier);\n\t}\n\n\t/**\n\t * @dev Unstake existing staked content and refund the total staked amount to the stake owner\n\t * @param _stakedContentId The ID of the staked content\n\t */\n\tfunction unstakeContent(bytes32 _stakedContentId) public {\n\t\t// Make sure the staked content exist\n\t\trequire (stakedContentIndex[_stakedContentId] > 0);\n\n\t\tStakedContent storage _stakedContent = stakedContents[stakedContentIndex[_stakedContentId]];\n\t\t// Make sure the staked content owner is the same as the sender\n\t\trequire (_stakedContent.stakeOwner == msg.sender);\n\t\t// Make sure the staked content is currently active (staked) with some amounts\n\t\trequire (this.isActive(_stakedContentId));\n\t\t_stakedContent.active = false;\n\n\t\tif (_stakedContent.networkAmount > 0) {\n\t\t\tuint256 _unstakeNetworkAmount = _stakedContent.networkAmount;\n\t\t\t_stakedContent.networkAmount = 0;\n\t\t\trequire (_aoIon.unstakeFrom(msg.sender, _unstakeNetworkAmount));\n\t\t}\n\t\tif (_stakedContent.primordialAmount > 0) {\n\t\t\tuint256 _primordialAmount = _stakedContent.primordialAmount;\n\t\t\tuint256 _primordialWeightedMultiplier = _stakedContent.primordialWeightedMultiplier;\n\t\t\t_stakedContent.primordialAmount = 0;\n\t\t\t_stakedContent.primordialWeightedMultiplier = 0;\n\t\t\trequire (_aoIon.unstakePrimordialFrom(msg.sender, _primordialAmount, _primordialWeightedMultiplier));\n\t\t}\n\t\temit UnstakeContent(_stakedContent.stakeOwner, _stakedContentId);\n\t}\n\n\t/**\n\t * @dev Stake existing content with more ions (this is to increase the price)\n\t *\n\t * @param _stakedContentId The ID of the staked content\n\t * @param _networkIntegerAmount The integer amount of network ion to stake\n\t * @param _networkFractionAmount The fraction amount of network ion to stake\n\t * @param _denomination The denomination of the network ion, i.e ao, kilo, mega, etc.\n\t * @param _primordialAmount The amount of primordial ion to stake. (The primordial weighted multiplier has to match the current staked weighted multiplier)\n\t */\n\tfunction stakeExistingContent(bytes32 _stakedContentId,\n\t\tuint256 _networkIntegerAmount,\n\t\tuint256 _networkFractionAmount,\n\t\tbytes8 _denomination,\n\t\tuint256 _primordialAmount\n\t\t) public {\n\t\t// Make sure the staked content exist\n\t\trequire (stakedContentIndex[_stakedContentId] > 0);\n\n\t\tStakedContent storage _stakedContent = stakedContents[stakedContentIndex[_stakedContentId]];\n\t\t(, uint256 _fileSize,,,,,,,) = _aoContent.getById(_stakedContent.contentId);\n\n\t\t// Make sure the staked content owner is the same as the sender\n\t\trequire (_stakedContent.stakeOwner == msg.sender);\n\t\trequire (_networkIntegerAmount > 0 || _networkFractionAmount > 0 || _primordialAmount > 0);\n\t\trequire (_canStakeExisting(_aoContent.isAOContentUsageType(_stakedContent.contentId), _fileSize, _stakedContent.networkAmount.add(_stakedContent.primordialAmount), _networkIntegerAmount, _networkFractionAmount, _denomination, _primordialAmount));\n\n\t\t// Make sure we can stake primordial ion\n\t\t// If we are currently staking an active staked content, then the stake owner's weighted multiplier has to match `stakedContent.primordialWeightedMultiplier`\n\t\t// i.e, can't use a combination of different weighted multiplier. Stake owner has to call unstakeContent() to unstake all ions first\n\t\tif (_primordialAmount > 0 && _stakedContent.active && _stakedContent.primordialAmount > 0 && _stakedContent.primordialWeightedMultiplier > 0) {\n\t\t\trequire (_aoIon.weightedMultiplierByAddress(msg.sender) == _stakedContent.primordialWeightedMultiplier);\n\t\t}\n\n\t\t_stakedContent.active = true;\n\t\tif (_aoTreasury.isDenominationExist(_denomination) && (_networkIntegerAmount > 0 || _networkFractionAmount > 0)) {\n\t\t\tuint256 _stakeNetworkAmount = _aoTreasury.toBase(_networkIntegerAmount, _networkFractionAmount, _denomination);\n\t\t\t_stakedContent.networkAmount = _stakedContent.networkAmount.add(_stakeNetworkAmount);\n\t\t\trequire (_aoIon.stakeFrom(_stakedContent.stakeOwner, _stakeNetworkAmount));\n\t\t}\n\t\tif (_primordialAmount > 0) {\n\t\t\t_stakedContent.primordialAmount = _stakedContent.primordialAmount.add(_primordialAmount);\n\n\t\t\t// Primordial ion is the base AO ion\n\t\t\t_stakedContent.primordialWeightedMultiplier = _aoIon.weightedMultiplierByAddress(_stakedContent.stakeOwner);\n\t\t\trequire (_aoIon.stakePrimordialFrom(_stakedContent.stakeOwner, _primordialAmount, _stakedContent.primordialWeightedMultiplier));\n\t\t}\n\n\t\temit StakeExistingContent(msg.sender, _stakedContent.stakedContentId, _stakedContent.contentId, _stakedContent.networkAmount, _stakedContent.primordialAmount, _stakedContent.primordialWeightedMultiplier);\n\t}\n\n\t/**\n\t * @dev Check whether or not a staked content is active\n\t * @param _stakedContentId The ID of the staked content\n\t * @return true if yes, false otherwise.\n\t */\n\tfunction isActive(bytes32 _stakedContentId) external view returns (bool) {\n\t\t// Make sure the staked content exist\n\t\trequire (stakedContentIndex[_stakedContentId] > 0);\n\n\t\tStakedContent memory _stakedContent = stakedContents[stakedContentIndex[_stakedContentId]];\n\t\treturn (_stakedContent.active == true && (_stakedContent.networkAmount > 0 || (_stakedContent.primordialAmount > 0 && _stakedContent.primordialWeightedMultiplier > 0)));\n\t}\n\n\t/***** INTERNAL METHODS *****/\n\t/**\n\t * @dev Checks if create params are valid\n\t * @param _stakeOwner the address that stake the content\n\t * @param _contentId The ID of the content\n\t * @param _networkIntegerAmount The integer amount of network ion to stake\n\t * @param _networkFractionAmount The fraction amount of network ion to stake\n\t * @param _denomination The denomination of the network ion, i.e ao, kilo, mega, etc.\n\t * @param _primordialAmount The amount of primordial ion to stake\n\t * @param _profitPercentage The percentage of profit the stake owner's media will charge\n\t * @return true if yes. false otherwise\n\t */\n\tfunction _canCreate(address _stakeOwner,\n\t\tbytes32 _contentId,\n\t\tuint256 _networkIntegerAmount,\n\t\tuint256 _networkFractionAmount,\n\t\tbytes8 _denomination,\n\t\tuint256 _primordialAmount,\n\t\tuint256 _profitPercentage) internal view returns (bool) {\n\t\t(address _contentCreator, uint256 _fileSize,,,,,,,) = _aoContent.getById(_contentId);\n\t\treturn (_stakeOwner != address(0) &&\n\t\t\t_stakeOwner == _contentCreator &&\n\t\t\t(_networkIntegerAmount > 0 || _networkFractionAmount > 0 || _primordialAmount > 0) &&\n\t\t\t(_aoContent.isAOContentUsageType(_contentId) ?\n\t\t\t\t_aoTreasury.toBase(_networkIntegerAmount, _networkFractionAmount, _denomination).add(_primordialAmount) >= _fileSize :\n\t\t\t\t_aoTreasury.toBase(_networkIntegerAmount, _networkFractionAmount, _denomination).add(_primordialAmount) == _fileSize\n\t\t\t) &&\n\t\t\t_profitPercentage <= AOLibrary.PERCENTAGE_DIVISOR()\n\t\t);\n\t}\n\n\t/**\n\t * @dev Check whether or the requested unstake amount is valid\n\t * @param _networkIntegerAmount The integer amount of the network ion\n\t * @param _networkFractionAmount The fraction amount of the network ion\n\t * @param _denomination The denomination of the the network ion\n\t * @param _primordialAmount The amount of primordial ion\n\t * @param _stakedNetworkAmount The current staked network ion amount\n\t * @param _stakedPrimordialAmount The current staked primordial ion amount\n\t * @param _stakedFileSize The file size of the staked content\n\t * @return true if can unstake, false otherwise\n\t */\n\tfunction _canUnstakePartial(\n\t\tuint256 _networkIntegerAmount,\n\t\tuint256 _networkFractionAmount,\n\t\tbytes8 _denomination,\n\t\tuint256 _primordialAmount,\n\t\tuint256 _stakedNetworkAmount,\n\t\tuint256 _stakedPrimordialAmount,\n\t\tuint256 _stakedFileSize\n\t\t) internal view returns (bool) {\n\t\tif (\n\t\t\t(_denomination.length > 0 && _denomination[0] != 0 &&\n\t\t\t\t(_networkIntegerAmount > 0 || _networkFractionAmount > 0) &&\n\t\t\t\t_stakedNetworkAmount < _aoTreasury.toBase(_networkIntegerAmount, _networkFractionAmount, _denomination)\n\t\t\t) ||\n\t\t\t_stakedPrimordialAmount < _primordialAmount ||\n\t\t\t(\n\t\t\t\t_denomination.length > 0 && _denomination[0] != 0\n\t\t\t\t\t&& (_networkIntegerAmount > 0 || _networkFractionAmount > 0)\n\t\t\t\t\t&& (_stakedNetworkAmount.sub(_aoTreasury.toBase(_networkIntegerAmount, _networkFractionAmount, _denomination)).add(_stakedPrimordialAmount.sub(_primordialAmount)) < _stakedFileSize)\n\t\t\t) ||\n\t\t\t( _denomination.length == 0 && _denomination[0] == 0 && _networkIntegerAmount == 0 && _networkFractionAmount == 0 && _primordialAmount > 0 && _stakedPrimordialAmount.sub(_primordialAmount) < _stakedFileSize)\n\t\t) {\n\t\t\treturn false;\n\t\t} else {\n\t\t\treturn true;\n\t\t}\n\t}\n\n\t/**\n\t * @dev Check whether the network ion and/or primordial ion is adequate to pay for existing staked content\n\t * @param _isAOContentUsageType whether or not the content is of AO Content usage type\n\t * @param _fileSize The size of the file\n\t * @param _stakedAmount The total staked amount\n\t * @param _networkIntegerAmount The integer amount of the network ion\n\t * @param _networkFractionAmount The fraction amount of the network ion\n\t * @param _denomination The denomination of the the network ion\n\t * @param _primordialAmount The amount of primordial ion\n\t * @return true when the amount is sufficient, false otherwise\n\t */\n\tfunction _canStakeExisting(\n\t\tbool _isAOContentUsageType,\n\t\tuint256 _fileSize,\n\t\tuint256 _stakedAmount,\n\t\tuint256 _networkIntegerAmount,\n\t\tuint256 _networkFractionAmount,\n\t\tbytes8 _denomination,\n\t\tuint256 _primordialAmount\n\t) internal view returns (bool) {\n\t\tif (_isAOContentUsageType) {\n\t\t\treturn _aoTreasury.toBase(_networkIntegerAmount, _networkFractionAmount, _denomination).add(_primordialAmount).add(_stakedAmount) >= _fileSize;\n\t\t} else {\n\t\t\treturn _aoTreasury.toBase(_networkIntegerAmount, _networkFractionAmount, _denomination).add(_primordialAmount).add(_stakedAmount) == _fileSize;\n\t\t}\n\t}\n}\n",
	"sourcePath": "/Users/johanmulyono/Work/AO/ao-contracts/contracts/AOStakedContent.sol",
	"compiler": {
		"name": "solc",
		"version": "0.4.24+commit.e67f0147.Emscripten.clang"
	},
	"schemaVersion": "2.0.1",
	"updatedAt": "2019-02-20T14:29:15.636Z"
}