{
	"contractName": "AOTreasury",
	"abi": [
		{
			"constant": true,
			"inputs": [],
			"name": "nameTAOPositionAddress",
			"outputs": [
				{
					"name": "",
					"type": "address"
				}
			],
			"payable": false,
			"stateMutability": "view",
			"type": "function"
		},
		{
			"constant": true,
			"inputs": [],
			"name": "totalDenominations",
			"outputs": [
				{
					"name": "",
					"type": "uint256"
				}
			],
			"payable": false,
			"stateMutability": "view",
			"type": "function"
		},
		{
			"constant": true,
			"inputs": [
				{
					"name": "",
					"type": "address"
				}
			],
			"name": "whitelist",
			"outputs": [
				{
					"name": "",
					"type": "bool"
				}
			],
			"payable": false,
			"stateMutability": "view",
			"type": "function"
		},
		{
			"constant": true,
			"inputs": [],
			"name": "totalDenominationExchanges",
			"outputs": [
				{
					"name": "",
					"type": "uint256"
				}
			],
			"payable": false,
			"stateMutability": "view",
			"type": "function"
		},
		{
			"constant": true,
			"inputs": [],
			"name": "theAO",
			"outputs": [
				{
					"name": "",
					"type": "address"
				}
			],
			"payable": false,
			"stateMutability": "view",
			"type": "function"
		},
		{
			"inputs": [
				{
					"name": "_nameTAOPositionAddress",
					"type": "address"
				}
			],
			"payable": false,
			"stateMutability": "nonpayable",
			"type": "constructor"
		},
		{
			"anonymous": false,
			"inputs": [
				{
					"indexed": true,
					"name": "account",
					"type": "address"
				},
				{
					"indexed": true,
					"name": "exchangeId",
					"type": "bytes32"
				},
				{
					"indexed": false,
					"name": "amount",
					"type": "uint256"
				},
				{
					"indexed": false,
					"name": "fromDenominationAddress",
					"type": "address"
				},
				{
					"indexed": false,
					"name": "fromDenominationSymbol",
					"type": "string"
				},
				{
					"indexed": false,
					"name": "toDenominationAddress",
					"type": "address"
				},
				{
					"indexed": false,
					"name": "toDenominationSymbol",
					"type": "string"
				}
			],
			"name": "ExchangeDenomination",
			"type": "event"
		},
		{
			"constant": false,
			"inputs": [
				{
					"name": "_theAO",
					"type": "address"
				}
			],
			"name": "transferOwnership",
			"outputs": [],
			"payable": false,
			"stateMutability": "nonpayable",
			"type": "function"
		},
		{
			"constant": false,
			"inputs": [
				{
					"name": "_account",
					"type": "address"
				},
				{
					"name": "_whitelist",
					"type": "bool"
				}
			],
			"name": "setWhitelist",
			"outputs": [],
			"payable": false,
			"stateMutability": "nonpayable",
			"type": "function"
		},
		{
			"constant": false,
			"inputs": [
				{
					"name": "_nameTAOPositionAddress",
					"type": "address"
				}
			],
			"name": "setNameTAOPositionAddress",
			"outputs": [],
			"payable": false,
			"stateMutability": "nonpayable",
			"type": "function"
		},
		{
			"constant": false,
			"inputs": [
				{
					"name": "denominationName",
					"type": "bytes8"
				},
				{
					"name": "denominationAddress",
					"type": "address"
				}
			],
			"name": "addDenomination",
			"outputs": [
				{
					"name": "",
					"type": "bool"
				}
			],
			"payable": false,
			"stateMutability": "nonpayable",
			"type": "function"
		},
		{
			"constant": false,
			"inputs": [
				{
					"name": "denominationName",
					"type": "bytes8"
				},
				{
					"name": "denominationAddress",
					"type": "address"
				}
			],
			"name": "updateDenomination",
			"outputs": [
				{
					"name": "",
					"type": "bool"
				}
			],
			"payable": false,
			"stateMutability": "nonpayable",
			"type": "function"
		},
		{
			"constant": true,
			"inputs": [
				{
					"name": "denominationName",
					"type": "bytes8"
				}
			],
			"name": "isDenominationExist",
			"outputs": [
				{
					"name": "",
					"type": "bool"
				}
			],
			"payable": false,
			"stateMutability": "view",
			"type": "function"
		},
		{
			"constant": true,
			"inputs": [
				{
					"name": "denominationName",
					"type": "bytes8"
				}
			],
			"name": "getDenominationByName",
			"outputs": [
				{
					"name": "",
					"type": "bytes8"
				},
				{
					"name": "",
					"type": "address"
				},
				{
					"name": "",
					"type": "string"
				},
				{
					"name": "",
					"type": "string"
				},
				{
					"name": "",
					"type": "uint8"
				},
				{
					"name": "",
					"type": "uint256"
				}
			],
			"payable": false,
			"stateMutability": "view",
			"type": "function"
		},
		{
			"constant": true,
			"inputs": [
				{
					"name": "index",
					"type": "uint256"
				}
			],
			"name": "getDenominationByIndex",
			"outputs": [
				{
					"name": "",
					"type": "bytes8"
				},
				{
					"name": "",
					"type": "address"
				},
				{
					"name": "",
					"type": "string"
				},
				{
					"name": "",
					"type": "string"
				},
				{
					"name": "",
					"type": "uint8"
				},
				{
					"name": "",
					"type": "uint256"
				}
			],
			"payable": false,
			"stateMutability": "view",
			"type": "function"
		},
		{
			"constant": true,
			"inputs": [],
			"name": "getBaseDenomination",
			"outputs": [
				{
					"name": "",
					"type": "bytes8"
				},
				{
					"name": "",
					"type": "address"
				},
				{
					"name": "",
					"type": "string"
				},
				{
					"name": "",
					"type": "string"
				},
				{
					"name": "",
					"type": "uint8"
				},
				{
					"name": "",
					"type": "uint256"
				}
			],
			"payable": false,
			"stateMutability": "view",
			"type": "function"
		},
		{
			"constant": true,
			"inputs": [
				{
					"name": "integerAmount",
					"type": "uint256"
				},
				{
					"name": "fractionAmount",
					"type": "uint256"
				},
				{
					"name": "denominationName",
					"type": "bytes8"
				}
			],
			"name": "toBase",
			"outputs": [
				{
					"name": "",
					"type": "uint256"
				}
			],
			"payable": false,
			"stateMutability": "view",
			"type": "function"
		},
		{
			"constant": true,
			"inputs": [
				{
					"name": "integerAmount",
					"type": "uint256"
				},
				{
					"name": "denominationName",
					"type": "bytes8"
				}
			],
			"name": "fromBase",
			"outputs": [
				{
					"name": "",
					"type": "uint256"
				},
				{
					"name": "",
					"type": "uint256"
				}
			],
			"payable": false,
			"stateMutability": "view",
			"type": "function"
		},
		{
			"constant": false,
			"inputs": [
				{
					"name": "amount",
					"type": "uint256"
				},
				{
					"name": "fromDenominationName",
					"type": "bytes8"
				},
				{
					"name": "toDenominationName",
					"type": "bytes8"
				}
			],
			"name": "exchangeDenomination",
			"outputs": [],
			"payable": false,
			"stateMutability": "nonpayable",
			"type": "function"
		},
		{
			"constant": true,
			"inputs": [
				{
					"name": "_exchangeId",
					"type": "bytes32"
				}
			],
			"name": "getDenominationExchangeById",
			"outputs": [
				{
					"name": "",
					"type": "address"
				},
				{
					"name": "",
					"type": "address"
				},
				{
					"name": "",
					"type": "address"
				},
				{
					"name": "",
					"type": "string"
				},
				{
					"name": "",
					"type": "string"
				},
				{
					"name": "",
					"type": "uint256"
				}
			],
			"payable": false,
			"stateMutability": "view",
			"type": "function"
		},
		{
			"constant": true,
			"inputs": [
				{
					"name": "amount",
					"type": "uint256"
				}
			],
			"name": "toHighestDenomination",
			"outputs": [
				{
					"name": "",
					"type": "bytes8"
				},
				{
					"name": "",
					"type": "address"
				},
				{
					"name": "",
					"type": "uint256"
				},
				{
					"name": "",
					"type": "uint256"
				},
				{
					"name": "",
					"type": "string"
				},
				{
					"name": "",
					"type": "string"
				},
				{
					"name": "",
					"type": "uint8"
				},
				{
					"name": "",
					"type": "uint256"
				}
			],
			"payable": false,
			"stateMutability": "view",
			"type": "function"
		}
	],
	"bytecode": "0x60806040523480156200001157600080fd5b5060405160208062002ec0833981016040525160008054600160a060020a031916331790556200004a8164010000000062000051810204565b506200014c565b600054600154604080517ff66afcac000000000000000000000000000000000000000000000000000000008152336004820152600160a060020a0393841660248201529290911660448301525173__AOLibrary_____________________________9163f66afcac916064808301926020929190829003018186803b158015620000da57600080fd5b505af4158015620000ef573d6000803e3d6000fd5b505050506040513d60208110156200010657600080fd5b505115156200011457600080fd5b600160a060020a03811615156200012a57600080fd5b60018054600160a060020a031916600160a060020a0392909216919091179055565b612d64806200015c6000396000f3006080604052600436106100ed5763ffffffff60e060020a600035041663217db8e881146100f25780633d9f923b1461012c578063446ea5991461016e5780634ef033f0146102b657806353d6fd59146102e75780635768f84d1461030f5780635cfaf2ef146103245780635d990791146103455780636e0069241461044157806390358f5d1461046c578063932fd99f1461048e5780639b19251a146105da5780639d28d1d0146105fb578063a46a891e14610610578063a9b6b38e1461064e578063aa25c74414610663578063c1e5277514610685578063dc689d3c146106b3578063f2fde38b146106c8575b600080fd5b3480156100fe57600080fd5b5061011a600435602435600160c060020a0319604435166106e9565b60408051918252519081900360200190f35b34801561013857600080fd5b5061015a600160c060020a031960043516600160a060020a0360243516610a3e565b604080519115158252519081900360200190f35b34801561017a57600080fd5b50610186600435610e54565b6040518087600160a060020a0316600160a060020a0316815260200186600160a060020a0316600160a060020a0316815260200185600160a060020a0316600160a060020a031681526020018060200180602001848152602001838103835286818151815260200191508051906020019080838360005b838110156102155781810151838201526020016101fd565b50505050905090810190601f1680156102425780820380516001836020036101000a031916815260200191505b50838103825285518152855160209182019187019080838360005b8381101561027557818101518382015260200161025d565b50505050905090810190601f1680156102a25780820380516001836020036101000a031916815260200191505b509850505050505050505060405180910390f35b3480156102c257600080fd5b506102cb6110a6565b60408051600160a060020a039092168252519081900360200190f35b3480156102f357600080fd5b5061030d600160a060020a036004351660243515156110b5565b005b34801561031b57600080fd5b5061011a61119e565b34801561033057600080fd5b5061030d600160a060020a03600435166111a4565b34801561035157600080fd5b5061035d600435611291565b6040518087600160c060020a031916600160c060020a031916815260200186600160a060020a0316600160a060020a0316815260200180602001806020018560ff1660ff168152602001848152602001838103835287818151815260200191508051906020019080838360005b838110156103e25781810151838201526020016103ca565b50505050905090810190601f16801561040f5780820380516001836020036101000a031916815260200191505b50838103825286518152865160209182019188019080838360008381101561027557818101518382015260200161025d565b34801561044d57600080fd5b5061030d600435600160c060020a0319602435811690604435166115a7565b34801561047857600080fd5b5061015a600160c060020a031960043516611de4565b34801561049a57600080fd5b506104a6600435611e9e565b6040518089600160c060020a031916600160c060020a031916815260200188600160a060020a0316600160a060020a0316815260200187815260200186815260200180602001806020018560ff1660ff168152602001848152602001838103835287818151815260200191508051906020019080838360005b8381101561053757818101518382015260200161051f565b50505050905090810190601f1680156105645780820380516001836020036101000a031916815260200191505b50838103825286518152865160209182019188019080838360005b8381101561059757818101518382015260200161057f565b50505050905090810190601f1680156105c45780820380516001836020036101000a031916815260200191505b509a505050505050505050505060405180910390f35b3480156105e657600080fd5b5061015a600160a060020a03600435166122bf565b34801561060757600080fd5b5061011a6122d4565b34801561061c57600080fd5b50610635600435600160c060020a0319602435166122da565b6040805192835260208301919091528051918290030190f35b34801561065a57600080fd5b506102cb6124ee565b34801561066f57600080fd5b5061035d600160c060020a0319600435166124fd565b34801561069157600080fd5b5061015a600160c060020a031960043516600160a060020a0360243516612877565b3480156106bf57600080fd5b5061035d612b72565b3480156106d457600080fd5b5061030d600160a060020a0360043516612ba9565b6000806106f4612cf3565b6040805160e060020a6390358f5d028152600160c060020a03198616600482015290518693506000918291829130916390358f5d9160248082019260209290919082900301818787803b15801561074a57600080fd5b505af115801561075e573d6000803e3d6000fd5b505050506040513d602081101561077457600080fd5b5051801561078c5750600089118061078c5750600085115b15610a2d57600160c060020a03198781166000908152600660209081526040808320548352600582529182902082518084018452905460c060020a8102909416815268010000000000000000909304600160a060020a031683820181905282517fdb9d28d5000000000000000000000000000000000000000000000000000000008152600481018a90529251939750955073__AOLibrary_____________________________9263db9d28d5926024808201939291829003018186803b15801561085557600080fd5b505af4158015610869573d6000803e3d6000fd5b505050506040513d602081101561087f57600080fd5b5051604080517f313ce5670000000000000000000000000000000000000000000000000000000081529051919350600160a060020a0385169163313ce567916004808201926020929091908290030181600087803b1580156108e057600080fd5b505af11580156108f4573d6000803e3d6000fd5b505050506040513d602081101561090a57600080fd5b505160ff908116908316111561091f57600080fd5b61099c83600160a060020a0316630aa245466040518163ffffffff1660e060020a028152600401602060405180830381600087803b15801561096057600080fd5b505af1158015610974573d6000803e3d6000fd5b505050506040513d602081101561098a57600080fd5b50518a90600a0a63ffffffff612c9616565b905082600160a060020a031663313ce5676040518163ffffffff1660e060020a028152600401602060405180830381600087803b1580156109dc57600080fd5b505af11580156109f0573d6000803e3d6000fd5b505050506040513d6020811015610a0657600080fd5b505160ff161515610a1657600094505b610a26818663ffffffff612cbf16565b9550610a32565b600095505b50505050509392505050565b600080546001546040805160e260020a633d9abf2b028152336004820152600160a060020a03938416602482015292909116604483015251829182918291829173__AOLibrary_____________________________9163f66afcac916064808301926020929190829003018186803b158015610ab957600080fd5b505af4158015610acd573d6000803e3d6000fd5b505050506040513d6020811015610ae357600080fd5b50511515610af057600080fd5b6040805160e060020a6390358f5d028152600160c060020a0319891660048201529051889130916390358f5d916024808201926020929091908290030181600087803b158015610b3f57600080fd5b505af1158015610b53573d6000803e3d6000fd5b505050506040513d6020811015610b6957600080fd5b50511515610b7657600080fd5b600160a060020a0387161515610b8b57600080fd5b600160c060020a0319881660009081526006602052604090205494508693506001851115610cc7576005600060018703815260200190815260200160002060000160089054906101000a9004600160a060020a0316925082600160a060020a0316630aa245466040518163ffffffff1660e060020a028152600401602060405180830381600087803b158015610c2057600080fd5b505af1158015610c34573d6000803e3d6000fd5b505050506040513d6020811015610c4a57600080fd5b50516040805160e160020a63055122a30281529051600160a060020a03871691630aa245469160048083019260209291908290030181600087803b158015610c9157600080fd5b505af1158015610ca5573d6000803e3d6000fd5b505050506040513d6020811015610cbb57600080fd5b505111610cc757600080fd5b600354851015610de45760056000600354815260200190815260200160002060000160089054906101000a9004600160a060020a0316915081600160a060020a0316630aa245466040518163ffffffff1660e060020a028152600401602060405180830381600087803b158015610d3d57600080fd5b505af1158015610d51573d6000803e3d6000fd5b505050506040513d6020811015610d6757600080fd5b50516040805160e160020a63055122a30281529051600160a060020a03871691630aa245469160048083019260209291908290030181600087803b158015610dae57600080fd5b505af1158015610dc2573d6000803e3d6000fd5b505050506040513d6020811015610dd857600080fd5b505110610de457600080fd5b600160c060020a031988166000908152600660209081526040808320548352600590915290208054600160a060020a03891668010000000000000000027bffffffffffffffffffffffffffffffffffffffff00000000000000001990911617905560019550505050505092915050565b60008060006060806000610e66612d0a565b60008881526008602052604081205411610e7f57600080fd5b50600087815260086020908152604080832054835260078252808320815160a081018352815481526001820154600160a060020a0390811694820185905260028301548116828501819052600384015490911660608301819052600493840154608084015284517f95d89b41000000000000000000000000000000000000000000000000000000008152945192969194909385936395d89b41938383019390929082900301818387803b158015610f3557600080fd5b505af1158015610f49573d6000803e3d6000fd5b505050506040513d6000823e601f3d908101601f191682016040526020811015610f7257600080fd5b810190808051640100000000811115610f8a57600080fd5b82016020810184811115610f9d57600080fd5b8151640100000000811182820187101715610fb757600080fd5b50509291905050508460600151600160a060020a03166395d89b416040518163ffffffff1660e060020a028152600401600060405180830381600087803b15801561100157600080fd5b505af1158015611015573d6000803e3d6000fd5b505050506040513d6000823e601f3d908101601f19168201604052602081101561103e57600080fd5b81019080805164010000000081111561105657600080fd5b8201602081018481111561106957600080fd5b815164010000000081118282018710171561108357600080fd5b505060809890980151969f959e50939c50919a5094985092965090945050505050565b600154600160a060020a031681565b6000546001546040805160e260020a633d9abf2b028152336004820152600160a060020a0393841660248201529290911660448301525173__AOLibrary_____________________________9163f66afcac916064808301926020929190829003018186803b15801561112757600080fd5b505af415801561113b573d6000803e3d6000fd5b505050506040513d602081101561115157600080fd5b5051151561115e57600080fd5b600160a060020a038216151561117357600080fd5b600160a060020a03919091166000908152600260205260409020805460ff1916911515919091179055565b60035481565b6000546001546040805160e260020a633d9abf2b028152336004820152600160a060020a0393841660248201529290911660448301525173__AOLibrary_____________________________9163f66afcac916064808301926020929190829003018186803b15801561121657600080fd5b505af415801561122a573d6000803e3d6000fd5b505050506040513d602081101561124057600080fd5b5051151561124d57600080fd5b600160a060020a038116151561126257600080fd5b6001805473ffffffffffffffffffffffffffffffffffffffff1916600160a060020a0392909216919091179055565b600080606080600080600080881180156112ad57506003548811155b15156112b857600080fd5b600088815260056020526040902054680100000000000000009004600160a060020a031615156112e757600080fd5b506000878152600560205260408082205481517f06fdde030000000000000000000000000000000000000000000000000000000081529151600160a060020a03680100000000000000008304169360c060020a90920292849283926306fdde0392600480820193929182900301818387803b15801561136557600080fd5b505af1158015611379573d6000803e3d6000fd5b505050506040513d6000823e601f3d908101601f1916820160405260208110156113a257600080fd5b8101908080516401000000008111156113ba57600080fd5b820160208101848111156113cd57600080fd5b81516401000000008111828201871017156113e757600080fd5b505092919050505083600160a060020a03166395d89b416040518163ffffffff1660e060020a028152600401600060405180830381600087803b15801561142d57600080fd5b505af1158015611441573d6000803e3d6000fd5b505050506040513d6000823e601f3d908101601f19168201604052602081101561146a57600080fd5b81019080805164010000000081111561148257600080fd5b8201602081018481111561149557600080fd5b81516401000000008111828201871017156114af57600080fd5b505092919050505084600160a060020a031663313ce5676040518163ffffffff1660e060020a028152600401602060405180830381600087803b1580156114f557600080fd5b505af1158015611509573d6000803e3d6000fd5b505050506040513d602081101561151f57600080fd5b50516040805160e160020a63055122a30281529051600160a060020a03881691630aa245469160048083019260209291908290030181600087803b15801561156657600080fd5b505af115801561157a573d6000803e3d6000fd5b505050506040513d602081101561159057600080fd5b5051949d939c50919a509850965090945092505050565b6115af612cf3565b6115b7612cf3565b6000806000808730600160a060020a03166390358f5d826040518263ffffffff1660e060020a0281526004018082600160c060020a031916600160c060020a0319168152602001915050602060405180830381600087803b15801561161b57600080fd5b505af115801561162f573d6000803e3d6000fd5b505050506040513d602081101561164557600080fd5b5051151561165257600080fd5b6040805160e060020a6390358f5d028152600160c060020a03198a1660048201529051899130916390358f5d916024808201926020929091908290030181600087803b1580156116a157600080fd5b505af11580156116b5573d6000803e3d6000fd5b505050506040513d60208110156116cb57600080fd5b505115156116d857600080fd5b60008b116116e557600080fd5b60056000600660008d600160c060020a031916600160c060020a03191681526020019081526020016000205481526020019081526020016000206040805190810160405290816000820160009054906101000a900460c060020a02600160c060020a031916600160c060020a03191681526020016000820160089054906101000a9004600160a060020a0316600160a060020a0316600160a060020a031681525050975060056000600660008c600160c060020a031916600160c060020a03191681526020019081526020016000205481526020019081526020016000206040805190810160405290816000820160009054906101000a900460c060020a02600160c060020a031916600160c060020a03191681526020016000820160089054906101000a9004600160a060020a0316600160a060020a0316600160a060020a0316815250509650876020015195508660200151945085600160a060020a031663b1e19d45338d6040518363ffffffff1660e060020a0281526004018083600160a060020a0316600160a060020a0316815260200182815260200192505050602060405180830381600087803b15801561189e57600080fd5b505af11580156118b2573d6000803e3d6000fd5b505050506040513d60208110156118c857600080fd5b505115156118d557600080fd5b604080517f40c10f19000000000000000000000000000000000000000000000000000000008152336004820152602481018d90529051600160a060020a038716916340c10f199160448083019260209291908290030181600087803b15801561193d57600080fd5b505af1158015611951573d6000803e3d6000fd5b505050506040513d602081101561196757600080fd5b5051151561197457600080fd5b6004805460010190819055604080516c010000000000000000000000003081026020808401919091523391909102603483015260488083019490945282518083039094018452606890910191829052825182918401908083835b602083106119ed5780518252601f1990920191602091820191016119ce565b6001836020036101000a0380198251168184511680821785525050505050509050019150506040518091039020935060045460086000866000191660001916815260200190815260200160002081905550600760006004548152602001908152602001600020925083836000018160001916905550338360010160006101000a815481600160a060020a030219169083600160a060020a0316021790555087602001518360020160006101000a815481600160a060020a030219169083600160a060020a0316021790555086602001518360030160006101000a815481600160a060020a030219169083600160a060020a031602179055508a8360040181905550836000191633600160a060020a03167f82cf2552454b8d1e8c4cdb9c621ef4e6cb79e8614fa8044ce1903ae97eb46ff38d8b602001518c60200151600160a060020a03166395d89b416040518163ffffffff1660e060020a028152600401600060405180830381600087803b158015611b6657600080fd5b505af1158015611b7a573d6000803e3d6000fd5b505050506040513d6000823e601f3d908101601f191682016040526020811015611ba357600080fd5b810190808051640100000000811115611bbb57600080fd5b82016020810184811115611bce57600080fd5b8151640100000000811182820187101715611be857600080fd5b50509291905050508c602001518d60200151600160a060020a03166395d89b416040518163ffffffff1660e060020a028152600401600060405180830381600087803b158015611c3757600080fd5b505af1158015611c4b573d6000803e3d6000fd5b505050506040513d6000823e601f3d908101601f191682016040526020811015611c7457600080fd5b810190808051640100000000811115611c8c57600080fd5b82016020810184811115611c9f57600080fd5b8151640100000000811182820187101715611cb957600080fd5b50509291905050506040518086815260200185600160a060020a0316600160a060020a031681526020018060200184600160a060020a0316600160a060020a0316815260200180602001838103835286818151815260200191508051906020019080838360005b83811015611d38578181015183820152602001611d20565b50505050905090810190601f168015611d655780820380516001836020036101000a031916815260200191505b50838103825284518152845160209182019186019080838360005b83811015611d98578181015183820152602001611d80565b50505050905090810190601f168015611dc55780820380516001836020036101000a031916815260200191505b5097505050505050505060405180910390a35050505050505050505050565b60007fff000000000000000000000000000000000000000000000000000000000000007f010000000000000000000000000000000000000000000000000000000000000083831a021615801590611e525750600160c060020a03198216600090815260066020526040812054115b8015611e985750600160c060020a0319821660009081526006602090815260408083205483526005909152902054680100000000000000009004600160a060020a031615155b92915050565b600080600080606080600080600080600080611eb8612cf3565b600060035492505b6000831115611f7657600560008481526020019081526020016000206040805190810160405290816000820160009054906101000a900460c060020a02600160c060020a031916600160c060020a03191681526020016000820160089054906101000a9004600160a060020a0316600160a060020a0316600160a060020a0316815250509150611f548f83600001516122da565b90965094506000861115611f6a57829350611f76565b60001990920191611ec0565b600084118015611f8857506003548411155b1515611f9357600080fd5b6000861180611fa25750600085115b1515611fad57600080fd5b600084815260056020526040902054680100000000000000009004600160a060020a03161515611fdc57600080fd5b506000838152600560205260408082205481517f06fdde030000000000000000000000000000000000000000000000000000000081529151600160a060020a03680100000000000000008304169360c060020a9092029284928a928a9285926306fdde039260048084019382900301818387803b15801561205c57600080fd5b505af1158015612070573d6000803e3d6000fd5b505050506040513d6000823e601f3d908101601f19168201604052602081101561209957600080fd5b8101908080516401000000008111156120b157600080fd5b820160208101848111156120c457600080fd5b81516401000000008111828201871017156120de57600080fd5b505092919050505085600160a060020a03166395d89b416040518163ffffffff1660e060020a028152600401600060405180830381600087803b15801561212457600080fd5b505af1158015612138573d6000803e3d6000fd5b505050506040513d6000823e601f3d908101601f19168201604052602081101561216157600080fd5b81019080805164010000000081111561217957600080fd5b8201602081018481111561218c57600080fd5b81516401000000008111828201871017156121a657600080fd5b505092919050505086600160a060020a031663313ce5676040518163ffffffff1660e060020a028152600401602060405180830381600087803b1580156121ec57600080fd5b505af1158015612200573d6000803e3d6000fd5b505050506040513d602081101561221657600080fd5b50516040805160e160020a63055122a30281529051600160a060020a038a1691630aa245469160048083019260209291908290030181600087803b15801561225d57600080fd5b505af1158015612271573d6000803e3d6000fd5b505050506040513d602081101561228757600080fd5b81019080805190602001909291905050508393508292509d509d509d509d509d509d509d509d50505050505050919395975091939597565b60026020526000908152604090205460ff1681565b60045481565b6000806122e5612cf3565b6040805160e060020a6390358f5d028152600160c060020a03198616600482015290516000918291829130916390358f5d9160248082019260209290919082900301818787803b15801561233857600080fd5b505af115801561234c573d6000803e3d6000fd5b505050506040513d602081101561236257600080fd5b5051156124db57600160c060020a031987811660009081526006602090815260408083205483526005825280832081518083018352905460c060020a8102909516815268010000000000000000909404600160a060020a0316848301819052815160e160020a63055122a30281529151949850965061243f938793630aa2454693600480850194919392918390030190829087803b15801561240357600080fd5b505af1158015612417573d6000803e3d6000fd5b505050506040513d602081101561242d57600080fd5b50518990600a0a63ffffffff612ccc16565b91506124ce6124c184600160a060020a0316630aa245466040518163ffffffff1660e060020a028152600401602060405180830381600087803b15801561248557600080fd5b505af1158015612499573d6000803e3d6000fd5b505050506040513d60208110156124af57600080fd5b50518490600a0a63ffffffff612c9616565b899063ffffffff612ce116565b90508181955095506124e3565b600095508594505b505050509250929050565b600054600160a060020a031681565b60008060608060008060008730600160a060020a03166390358f5d826040518263ffffffff1660e060020a0281526004018082600160c060020a031916600160c060020a0319168152602001915050602060405180830381600087803b15801561256657600080fd5b505af115801561257a573d6000803e3d6000fd5b505050506040513d602081101561259057600080fd5b5051151561259d57600080fd5b600160c060020a03198916600090815260066020908152604080832054835260059091528082205481517f06fdde030000000000000000000000000000000000000000000000000000000081529151680100000000000000008204600160a060020a0316955060c060020a90910292859283926306fdde039260048084019391929182900301818387803b15801561263457600080fd5b505af1158015612648573d6000803e3d6000fd5b505050506040513d6000823e601f3d908101601f19168201604052602081101561267157600080fd5b81019080805164010000000081111561268957600080fd5b8201602081018481111561269c57600080fd5b81516401000000008111828201871017156126b657600080fd5b505092919050505084600160a060020a03166395d89b416040518163ffffffff1660e060020a028152600401600060405180830381600087803b1580156126fc57600080fd5b505af1158015612710573d6000803e3d6000fd5b505050506040513d6000823e601f3d908101601f19168201604052602081101561273957600080fd5b81019080805164010000000081111561275157600080fd5b8201602081018481111561276457600080fd5b815164010000000081118282018710171561277e57600080fd5b505092919050505085600160a060020a031663313ce5676040518163ffffffff1660e060020a028152600401602060405180830381600087803b1580156127c457600080fd5b505af11580156127d8573d6000803e3d6000fd5b505050506040513d60208110156127ee57600080fd5b50516040805160e160020a63055122a30281529051600160a060020a03891691630aa245469160048083019260209291908290030181600087803b15801561283557600080fd5b505af1158015612849573d6000803e3d6000fd5b505050506040513d602081101561285f57600080fd5b5051949e939d50919b50995097509095509350505050565b600080546001546040805160e260020a633d9abf2b028152336004820152600160a060020a039384166024820152929091166044830152518291829173__AOLibrary_____________________________9163f66afcac916064808301926020929190829003018186803b1580156128ee57600080fd5b505af4158015612902573d6000803e3d6000fd5b505050506040513d602081101561291857600080fd5b5051151561292557600080fd5b7fff000000000000000000000000000000000000000000000000000000000000007f0100000000000000000000000000000000000000000000000000000000000000600087901a0216151561297957600080fd5b600160a060020a038416151561298e57600080fd5b600160c060020a03198516600090815260066020526040902054156129b257600080fd5b600380546001908101918290551015612ade5760056000600160035403815260200190815260200160002060000160089054906101000a9004600160a060020a0316915083905081600160a060020a0316630aa245466040518163ffffffff1660e060020a028152600401602060405180830381600087803b158015612a3757600080fd5b505af1158015612a4b573d6000803e3d6000fd5b505050506040513d6020811015612a6157600080fd5b50516040805160e160020a63055122a30281529051600160a060020a03841691630aa245469160048083019260209291908290030181600087803b158015612aa857600080fd5b505af1158015612abc573d6000803e3d6000fd5b505050506040513d6020811015612ad257600080fd5b505111612ade57600080fd5b600380546000908152600560209081526040808320805460c060020a8b0467ffffffffffffffff19909116179055835483528083208054600160a060020a038a1668010000000000000000027bffffffffffffffffffffffffffffffffffffffff0000000000000000199091161790559254600160c060020a03198916835260069091529190205560019250505092915050565b6000806060806000806000600354111515612b8c57600080fd5b612b966001611291565b949b939a50919850965094509092509050565b6000546001546040805160e260020a633d9abf2b028152336004820152600160a060020a0393841660248201529290911660448301525173__AOLibrary_____________________________9163f66afcac916064808301926020929190829003018186803b158015612c1b57600080fd5b505af4158015612c2f573d6000803e3d6000fd5b505050506040513d6020811015612c4557600080fd5b50511515612c5257600080fd5b600160a060020a0381161515612c6757600080fd5b6000805473ffffffffffffffffffffffffffffffffffffffff1916600160a060020a0392909216919091179055565b6000821515612ca757506000611e98565b50818102818382811515612cb757fe5b0414611e9857fe5b81810182811015611e9857fe5b60008183811515612cd957fe5b049392505050565b600082821115612ced57fe5b50900390565b604080518082019091526000808252602082015290565b6040805160a081018252600080825260208201819052918101829052606081018290526080810191909152905600a165627a7a7230582087798abb947e3ccd51a83dadede633e55653a8e8100ace59f697c8ee3c7a34680029",
	"source": "pragma solidity ^0.4.24;\n\nimport './SafeMath.sol';\nimport './AOLibrary.sol';\nimport './TheAO.sol';\nimport './IAOTreasury.sol';\nimport './AOIonInterface.sol';\n\n/**\n * @title AOTreasury\n *\n * The purpose of this contract is to list all of the valid denominations of AOIon and do the conversion between denominations\n */\ncontract AOTreasury is TheAO, IAOTreasury {\n\tusing SafeMath for uint256;\n\n\tuint256 public totalDenominations;\n\tuint256 public totalDenominationExchanges;\n\n\tstruct Denomination {\n\t\tbytes8 name;\n\t\taddress denominationAddress;\n\t}\n\n\tstruct DenominationExchange {\n\t\tbytes32 exchangeId;\n\t\taddress sender;\t\t\t// The sender address\n\t\taddress fromDenominationAddress;\t// The address of the from denomination\n\t\taddress toDenominationAddress;\t\t// The address of the target denomination\n\t\tuint256 amount;\n\t}\n\n\t// Mapping from denomination index to Denomination object\n\t// The list is in order from lowest denomination to highest denomination\n\t// i.e, denominations[1] is the base denomination\n\tmapping (uint256 => Denomination) internal denominations;\n\n\t// Mapping from denomination ID to index of denominations\n\tmapping (bytes8 => uint256) internal denominationIndex;\n\n\t// Mapping from exchange id to DenominationExchange object\n\tmapping (uint256 => DenominationExchange) internal denominationExchanges;\n\tmapping (bytes32 => uint256) internal denominationExchangeIdLookup;\n\n\t// Event to be broadcasted to public when a exchange between denominations happens\n\tevent ExchangeDenomination(address indexed account, bytes32 indexed exchangeId, uint256 amount, address fromDenominationAddress, string fromDenominationSymbol, address toDenominationAddress, string toDenominationSymbol);\n\n\t/**\n\t * @dev Constructor function\n\t */\n\tconstructor(address _nameTAOPositionAddress) public {\n\t\tsetNameTAOPositionAddress(_nameTAOPositionAddress);\n\t}\n\n\t/**\n\t * @dev Checks if the calling contract address is The AO\n\t *\t\tOR\n\t *\t\tIf The AO is set to a Name/TAO, then check if calling address is the Advocate\n\t */\n\tmodifier onlyTheAO {\n\t\trequire (AOLibrary.isTheAO(msg.sender, theAO, nameTAOPositionAddress));\n\t\t_;\n\t}\n\n\t/**\n\t * @dev Checks if denomination is valid\n\t */\n\tmodifier isValidDenomination(bytes8 denominationName) {\n\t\trequire (this.isDenominationExist(denominationName));\n\t\t_;\n\t}\n\n\t/***** The AO ONLY METHODS *****/\n\t/**\n\t * @dev Transfer ownership of The AO to new address\n\t * @param _theAO The new address to be transferred\n\t */\n\tfunction transferOwnership(address _theAO) public onlyTheAO {\n\t\trequire (_theAO != address(0));\n\t\ttheAO = _theAO;\n\t}\n\n\t/**\n\t * @dev Whitelist `_account` address to transact on behalf of others\n\t * @param _account The address to whitelist\n\t * @param _whitelist Either to whitelist or not\n\t */\n\tfunction setWhitelist(address _account, bool _whitelist) public onlyTheAO {\n\t\trequire (_account != address(0));\n\t\twhitelist[_account] = _whitelist;\n\t}\n\n\t/**\n\t * @dev The AO set the NameTAOPosition Address\n\t * @param _nameTAOPositionAddress The address of NameTAOPosition\n\t */\n\tfunction setNameTAOPositionAddress(address _nameTAOPositionAddress) public onlyTheAO {\n\t\trequire (_nameTAOPositionAddress != address(0));\n\t\tnameTAOPositionAddress = _nameTAOPositionAddress;\n\t}\n\n\t/**\n\t * @dev The AO adds denomination and the contract address associated with it\n\t * @param denominationName The name of the denomination, i.e ao, kilo, mega, etc.\n\t * @param denominationAddress The address of the denomination ion\n\t * @return true on success\n\t */\n\tfunction addDenomination(bytes8 denominationName, address denominationAddress) public onlyTheAO returns (bool) {\n\t\trequire (denominationName.length > 0);\n\t\trequire (denominationName[0] != 0);\n\t\trequire (denominationAddress != address(0));\n\t\trequire (denominationIndex[denominationName] == 0);\n\t\ttotalDenominations++;\n\t\t// Make sure the new denomination is higher than the previous\n\t\tif (totalDenominations > 1) {\n\t\t\tAOIonInterface _lastDenominationIon = AOIonInterface(denominations[totalDenominations - 1].denominationAddress);\n\t\t\tAOIonInterface _newDenominationIon = AOIonInterface(denominationAddress);\n\t\t\trequire (_newDenominationIon.powerOfTen() > _lastDenominationIon.powerOfTen());\n\t\t}\n\t\tdenominations[totalDenominations].name = denominationName;\n\t\tdenominations[totalDenominations].denominationAddress = denominationAddress;\n\t\tdenominationIndex[denominationName] = totalDenominations;\n\t\treturn true;\n\t}\n\n\t/**\n\t * @dev The AO updates denomination address or activates/deactivates the denomination\n\t * @param denominationName The name of the denomination, i.e ao, kilo, mega, etc.\n\t * @param denominationAddress The address of the denomination ion\n\t * @return true on success\n\t */\n\tfunction updateDenomination(bytes8 denominationName, address denominationAddress) public onlyTheAO isValidDenomination(denominationName) returns (bool) {\n\t\trequire (denominationAddress != address(0));\n\t\tuint256 _denominationNameIndex = denominationIndex[denominationName];\n\t\tAOIonInterface _newDenominationIon = AOIonInterface(denominationAddress);\n\t\tif (_denominationNameIndex > 1) {\n\t\t\tAOIonInterface _prevDenominationIon = AOIonInterface(denominations[_denominationNameIndex - 1].denominationAddress);\n\t\t\trequire (_newDenominationIon.powerOfTen() > _prevDenominationIon.powerOfTen());\n\t\t}\n\t\tif (_denominationNameIndex < totalDenominations) {\n\t\t\tAOIonInterface _lastDenominationIon = AOIonInterface(denominations[totalDenominations].denominationAddress);\n\t\t\trequire (_newDenominationIon.powerOfTen() < _lastDenominationIon.powerOfTen());\n\t\t}\n\t\tdenominations[denominationIndex[denominationName]].denominationAddress = denominationAddress;\n\t\treturn true;\n\t}\n\n\t/***** PUBLIC METHODS *****/\n\t/**\n\t * @dev Check if denomination exist given a name\n\t * @param denominationName The denomination name to check\n\t * @return true if yes. false otherwise\n\t */\n\tfunction isDenominationExist(bytes8 denominationName) external view returns (bool) {\n\t\treturn (denominationName.length > 0 &&\n\t\t\tdenominationName[0] != 0 &&\n\t\t\tdenominationIndex[denominationName] > 0 &&\n\t\t\tdenominations[denominationIndex[denominationName]].denominationAddress != address(0)\n\t   );\n\t}\n\n\t/**\n\t * @dev Get denomination info based on name\n\t * @param denominationName The name to be queried\n\t * @return the denomination short name\n\t * @return the denomination address\n\t * @return the denomination public name\n\t * @return the denomination symbol\n\t * @return the denomination num of decimals\n\t * @return the denomination multiplier (power of ten)\n\t */\n\tfunction getDenominationByName(bytes8 denominationName) public isValidDenomination(denominationName) view returns (bytes8, address, string, string, uint8, uint256) {\n\t\tAOIonInterface _ao = AOIonInterface(denominations[denominationIndex[denominationName]].denominationAddress);\n\t\treturn (\n\t\t\tdenominations[denominationIndex[denominationName]].name,\n\t\t\tdenominations[denominationIndex[denominationName]].denominationAddress,\n\t\t\t_ao.name(),\n\t\t\t_ao.symbol(),\n\t\t\t_ao.decimals(),\n\t\t\t_ao.powerOfTen()\n\t\t);\n\t}\n\n\t/**\n\t * @dev Get denomination info by index\n\t * @param index The index to be queried\n\t * @return the denomination short name\n\t * @return the denomination address\n\t * @return the denomination public name\n\t * @return the denomination symbol\n\t * @return the denomination num of decimals\n\t * @return the denomination multiplier (power of ten)\n\t */\n\tfunction getDenominationByIndex(uint256 index) public view returns (bytes8, address, string, string, uint8, uint256) {\n\t\trequire (index > 0 && index <= totalDenominations);\n\t\trequire (denominations[index].denominationAddress != address(0));\n\t\tAOIonInterface _ao = AOIonInterface(denominations[index].denominationAddress);\n\t\treturn (\n\t\t\tdenominations[index].name,\n\t\t\tdenominations[index].denominationAddress,\n\t\t\t_ao.name(),\n\t\t\t_ao.symbol(),\n\t\t\t_ao.decimals(),\n\t\t\t_ao.powerOfTen()\n\t\t);\n\t}\n\n\t/**\n\t * @dev Get base denomination info\n\t * @return the denomination short name\n\t * @return the denomination address\n\t * @return the denomination public name\n\t * @return the denomination symbol\n\t * @return the denomination num of decimals\n\t * @return the denomination multiplier (power of ten)\n\t */\n\tfunction getBaseDenomination() public view returns (bytes8, address, string, string, uint8, uint256) {\n\t\trequire (totalDenominations > 0);\n\t\treturn getDenominationByIndex(1);\n\t}\n\n\t/**\n\t * @dev convert ion from `denominationName` denomination to base denomination,\n\t *\t\tin this case it's similar to web3.toWei() functionality\n\t *\n\t * Example:\n\t * 9.1 Kilo should be entered as 9 integerAmount and 100 fractionAmount\n\t * 9.02 Kilo should be entered as 9 integerAmount and 20 fractionAmount\n\t * 9.001 Kilo should be entered as 9 integerAmount and 1 fractionAmount\n\t *\n\t * @param integerAmount uint256 of the integer amount to be converted\n\t * @param fractionAmount uint256 of the frational amount to be converted\n\t * @param denominationName bytes8 name of the ion denomination\n\t * @return uint256 converted amount in base denomination from target denomination\n\t */\n\tfunction toBase(uint256 integerAmount, uint256 fractionAmount, bytes8 denominationName) external view returns (uint256) {\n\t\tuint256 _fractionAmount = fractionAmount;\n\t\tif (this.isDenominationExist(denominationName) && (integerAmount > 0 || _fractionAmount > 0)) {\n\t\t\tDenomination memory _denomination = denominations[denominationIndex[denominationName]];\n\t\t\tAOIonInterface _denominationIon = AOIonInterface(_denomination.denominationAddress);\n\t\t\tuint8 fractionNumDigits = AOLibrary.numDigits(_fractionAmount);\n\t\t\trequire (fractionNumDigits <= _denominationIon.decimals());\n\t\t\tuint256 baseInteger = integerAmount.mul(10 ** _denominationIon.powerOfTen());\n\t\t\tif (_denominationIon.decimals() == 0) {\n\t\t\t\t_fractionAmount = 0;\n\t\t\t}\n\t\t\treturn baseInteger.add(_fractionAmount);\n\t\t} else {\n\t\t\treturn 0;\n\t\t}\n\t}\n\n\t/**\n\t * @dev convert ion from base denomination to `denominationName` denomination,\n\t *\t\tin this case it's similar to web3.fromWei() functionality\n\t * @param integerAmount uint256 of the base amount to be converted\n\t * @param denominationName bytes8 name of the target ion denomination\n\t * @return uint256 of the converted integer amount in target denomination\n\t * @return uint256 of the converted fraction amount in target denomination\n\t */\n\tfunction fromBase(uint256 integerAmount, bytes8 denominationName) public view returns (uint256, uint256) {\n\t\tif (this.isDenominationExist(denominationName)) {\n\t\t\tDenomination memory _denomination = denominations[denominationIndex[denominationName]];\n\t\t\tAOIonInterface _denominationIon = AOIonInterface(_denomination.denominationAddress);\n\t\t\tuint256 denominationInteger = integerAmount.div(10 ** _denominationIon.powerOfTen());\n\t\t\tuint256 denominationFraction = integerAmount.sub(denominationInteger.mul(10 ** _denominationIon.powerOfTen()));\n\t\t\treturn (denominationInteger, denominationFraction);\n\t\t} else {\n\t\t\treturn (0, 0);\n\t\t}\n\t}\n\n\t/**\n\t * @dev exchange `amount` ion from `fromDenominationName` denomination to ion in `toDenominationName` denomination\n\t * @param amount The amount of ion to exchange\n\t * @param fromDenominationName The origin denomination\n\t * @param toDenominationName The target denomination\n\t */\n\tfunction exchangeDenomination(uint256 amount, bytes8 fromDenominationName, bytes8 toDenominationName) public isValidDenomination(fromDenominationName) isValidDenomination(toDenominationName) {\n\t\trequire (amount > 0);\n\t\tDenomination memory _fromDenomination = denominations[denominationIndex[fromDenominationName]];\n\t\tDenomination memory _toDenomination = denominations[denominationIndex[toDenominationName]];\n\t\tAOIonInterface _fromDenominationIon = AOIonInterface(_fromDenomination.denominationAddress);\n\t\tAOIonInterface _toDenominationIon = AOIonInterface(_toDenomination.denominationAddress);\n\t\trequire (_fromDenominationIon.whitelistBurnFrom(msg.sender, amount));\n\t\trequire (_toDenominationIon.mint(msg.sender, amount));\n\n\t\t// Store the DenominationExchange information\n\t\ttotalDenominationExchanges++;\n\t\tbytes32 _exchangeId = keccak256(abi.encodePacked(this, msg.sender, totalDenominationExchanges));\n\t\tdenominationExchangeIdLookup[_exchangeId] = totalDenominationExchanges;\n\n\t\tDenominationExchange storage _denominationExchange = denominationExchanges[totalDenominationExchanges];\n\t\t_denominationExchange.exchangeId = _exchangeId;\n\t\t_denominationExchange.sender = msg.sender;\n\t\t_denominationExchange.fromDenominationAddress = _fromDenomination.denominationAddress;\n\t\t_denominationExchange.toDenominationAddress = _toDenomination.denominationAddress;\n\t\t_denominationExchange.amount = amount;\n\n\t\temit ExchangeDenomination(msg.sender, _exchangeId, amount, _fromDenomination.denominationAddress, AOIonInterface(_fromDenomination.denominationAddress).symbol(), _toDenomination.denominationAddress, AOIonInterface(_toDenomination.denominationAddress).symbol());\n\t}\n\n\t/**\n\t * @dev Get DenominationExchange information given an exchange ID\n\t * @param _exchangeId The exchange ID to query\n\t * @return The sender address\n\t * @return The from denomination address\n\t * @return The to denomination address\n\t * @return The from denomination symbol\n\t * @return The to denomination symbol\n\t * @return The amount exchanged\n\t */\n\tfunction getDenominationExchangeById(bytes32 _exchangeId) public view returns (address, address, address, string, string, uint256) {\n\t\trequire (denominationExchangeIdLookup[_exchangeId] > 0);\n\t\tDenominationExchange memory _denominationExchange = denominationExchanges[denominationExchangeIdLookup[_exchangeId]];\n\t\treturn (\n\t\t\t_denominationExchange.sender,\n\t\t\t_denominationExchange.fromDenominationAddress,\n\t\t\t_denominationExchange.toDenominationAddress,\n\t\t\tAOIonInterface(_denominationExchange.fromDenominationAddress).symbol(),\n\t\t\tAOIonInterface(_denominationExchange.toDenominationAddress).symbol(),\n\t\t\t_denominationExchange.amount\n\t\t);\n\t}\n\n\t/**\n\t * @dev Return the highest possible denomination given a base amount\n\t * @param amount The amount to be converted\n\t * @return the denomination short name\n\t * @return the denomination address\n\t * @return the integer amount at the denomination level\n\t * @return the fraction amount at the denomination level\n\t * @return the denomination public name\n\t * @return the denomination symbol\n\t * @return the denomination num of decimals\n\t * @return the denomination multiplier (power of ten)\n\t */\n\tfunction toHighestDenomination(uint256 amount) public view returns (bytes8, address, uint256, uint256, string, string, uint8, uint256) {\n\t\tuint256 integerAmount;\n\t\tuint256 fractionAmount;\n\t\tuint256 index;\n\t\tfor (uint256 i=totalDenominations; i>0; i--) {\n\t\t\tDenomination memory _denomination = denominations[i];\n\t\t\t(integerAmount, fractionAmount) = fromBase(amount, _denomination.name);\n\t\t\tif (integerAmount > 0) {\n\t\t\t\tindex = i;\n\t\t\t\tbreak;\n\t\t\t}\n\t\t}\n\t\trequire (index > 0 && index <= totalDenominations);\n\t\trequire (integerAmount > 0 || fractionAmount > 0);\n\t\trequire (denominations[index].denominationAddress != address(0));\n\t\tAOIonInterface _ao = AOIonInterface(denominations[index].denominationAddress);\n\t\treturn (\n\t\t\tdenominations[index].name,\n\t\t\tdenominations[index].denominationAddress,\n\t\t\tintegerAmount,\n\t\t\tfractionAmount,\n\t\t\t_ao.name(),\n\t\t\t_ao.symbol(),\n\t\t\t_ao.decimals(),\n\t\t\t_ao.powerOfTen()\n\t\t);\n\t}\n}\n",
	"sourcePath": "/Users/johanmulyono/Work/AO/ao-contracts/contracts/AOTreasury.sol",
	"compiler": {
		"name": "solc",
		"version": "0.4.24+commit.e67f0147.Emscripten.clang"
	},
	"schemaVersion": "2.0.1",
	"updatedAt": "2019-03-22T03:50:44.373Z"
}