{
	"contractName": "Epiphany",
	"abi": [
		{
			"constant": true,
			"inputs": [],
			"name": "nameTAOPositionAddress",
			"outputs": [
				{
					"name": "",
					"type": "address"
				}
			],
			"payable": false,
			"stateMutability": "view",
			"type": "function"
		},
		{
			"constant": true,
			"inputs": [
				{
					"name": "",
					"type": "address"
				}
			],
			"name": "whitelist",
			"outputs": [
				{
					"name": "",
					"type": "bool"
				}
			],
			"payable": false,
			"stateMutability": "view",
			"type": "function"
		},
		{
			"constant": true,
			"inputs": [],
			"name": "where",
			"outputs": [
				{
					"name": "",
					"type": "address"
				}
			],
			"payable": false,
			"stateMutability": "view",
			"type": "function"
		},
		{
			"constant": true,
			"inputs": [],
			"name": "theAO",
			"outputs": [
				{
					"name": "",
					"type": "address"
				}
			],
			"payable": false,
			"stateMutability": "view",
			"type": "function"
		},
		{
			"constant": true,
			"inputs": [],
			"name": "why",
			"outputs": [
				{
					"name": "",
					"type": "string"
				}
			],
			"payable": false,
			"stateMutability": "view",
			"type": "function"
		},
		{
			"constant": true,
			"inputs": [],
			"name": "what",
			"outputs": [
				{
					"name": "",
					"type": "string"
				}
			],
			"payable": false,
			"stateMutability": "view",
			"type": "function"
		},
		{
			"constant": true,
			"inputs": [],
			"name": "logos",
			"outputs": [
				{
					"name": "",
					"type": "string"
				}
			],
			"payable": false,
			"stateMutability": "view",
			"type": "function"
		},
		{
			"constant": true,
			"inputs": [],
			"name": "who",
			"outputs": [
				{
					"name": "",
					"type": "string"
				}
			],
			"payable": false,
			"stateMutability": "view",
			"type": "function"
		},
		{
			"constant": true,
			"inputs": [],
			"name": "aSign",
			"outputs": [
				{
					"name": "",
					"type": "string"
				}
			],
			"payable": false,
			"stateMutability": "view",
			"type": "function"
		},
		{
			"constant": true,
			"inputs": [],
			"name": "when",
			"outputs": [
				{
					"name": "",
					"type": "string"
				}
			],
			"payable": false,
			"stateMutability": "view",
			"type": "function"
		},
		{
			"inputs": [],
			"payable": false,
			"stateMutability": "nonpayable",
			"type": "constructor"
		},
		{
			"constant": false,
			"inputs": [
				{
					"name": "_nameTAOPositionAddress",
					"type": "address"
				}
			],
			"name": "setNameTAOPositionAddress",
			"outputs": [],
			"payable": false,
			"stateMutability": "nonpayable",
			"type": "function"
		},
		{
			"constant": false,
			"inputs": [
				{
					"name": "_theAO",
					"type": "address"
				}
			],
			"name": "transferOwnership",
			"outputs": [],
			"payable": false,
			"stateMutability": "nonpayable",
			"type": "function"
		},
		{
			"constant": false,
			"inputs": [
				{
					"name": "_account",
					"type": "address"
				},
				{
					"name": "_whitelist",
					"type": "bool"
				}
			],
			"name": "setWhitelist",
			"outputs": [],
			"payable": false,
			"stateMutability": "nonpayable",
			"type": "function"
		},
		{
			"constant": false,
			"inputs": [
				{
					"name": "_where",
					"type": "address"
				}
			],
			"name": "setWhere",
			"outputs": [],
			"payable": false,
			"stateMutability": "nonpayable",
			"type": "function"
		}
	],
	"bytecode": "0x608060405234801561001057600080fd5b5060008054600160a060020a031916331790556040805180820190915260068082527f54686520414f000000000000000000000000000000000000000000000000000060209092019182526100679160039161024c565b5060c06040519081016040528060a08152602001610c3660a0913980516100969160049160209091019061024c565b506040805160608101825260328082527f546f20486561722c205365652c20616e6420537065616b207468652048756d61602083019081527f6e20696e736964652048756d616e6974792e000000000000000000000000000092909301919091526101039160059161024c565b506040805160608101825260248082527f596f752e20205365742074686520776f726c642c20467265652e20e280932054602083019081527f727574680000000000000000000000000000000000000000000000000000000092909301919091526101709160069161024c565b50604080516060810182528181527f3038653263346531636366336263636662336238656566313436373962323834602082019081527f3432363439613261373333393630363631323130613062303064396339336266918301919091526101db916008919061024c565b50604080516060810182528181527f3039323063366162313834386466383361333332613231653863396563316133602082019081527f393365363934633339366238373261656530353337323264303233653261333291830191909152610246916009919061024c565b506102e7565b828054600181600116156101000203166002900490600052602060002090601f016020900481019282601f1061028d57805160ff19168380011785556102ba565b828001600101855582156102ba579182015b828111156102ba57825182559160200191906001019061029f565b506102c69291506102ca565b5090565b6102e491905b808211156102c657600081556001016102d0565b90565b610940806102f66000396000f3006080604052600436106100cf5763ffffffff7c0100000000000000000000000000000000000000000000000000000000600035041663289cd94f81146100d45780634ef033f0146100f757806353d6fd59146101285780635cfaf2ef1461014e5780639b19251a1461016f5780639b9bef43146101a4578063a9b6b38e146101b9578063af35b3f1146101ce578063b24bb84514610258578063cd6f8d441461026d578063d6d21dfd14610282578063da421f7f14610297578063e2b0caef146102ac578063f2fde38b146102c1575b600080fd5b3480156100e057600080fd5b506100f5600160a060020a03600435166102e2565b005b34801561010357600080fd5b5061010c6103ba565b60408051600160a060020a039092168252519081900360200190f35b34801561013457600080fd5b506100f5600160a060020a036004351660243515156103c9565b34801561015a57600080fd5b506100f5600160a060020a03600435166104b2565b34801561017b57600080fd5b50610190600160a060020a036004351661059f565b604080519115158252519081900360200190f35b3480156101b057600080fd5b5061010c6105b4565b3480156101c557600080fd5b5061010c6105c3565b3480156101da57600080fd5b506101e36105d2565b6040805160208082528351818301528351919283929083019185019080838360005b8381101561021d578181015183820152602001610205565b50505050905090810190601f16801561024a5780820380516001836020036101000a031916815260200191505b509250505060405180910390f35b34801561026457600080fd5b506101e3610660565b34801561027957600080fd5b506101e36106bb565b34801561028e57600080fd5b506101e3610716565b3480156102a357600080fd5b506101e3610771565b3480156102b857600080fd5b506101e36107cc565b3480156102cd57600080fd5b506100f5600160a060020a0360043516610827565b6000546001546040805160e260020a633d9abf2b028152336004820152600160a060020a0393841660248201529290911660448301525173__AOLibrary_____________________________9163f66afcac916064808301926020929190829003018186803b15801561035457600080fd5b505af4158015610368573d6000803e3d6000fd5b505050506040513d602081101561037e57600080fd5b5051151561038b57600080fd5b6007805473ffffffffffffffffffffffffffffffffffffffff1916600160a060020a0392909216919091179055565b600154600160a060020a031681565b6000546001546040805160e260020a633d9abf2b028152336004820152600160a060020a0393841660248201529290911660448301525173__AOLibrary_____________________________9163f66afcac916064808301926020929190829003018186803b15801561043b57600080fd5b505af415801561044f573d6000803e3d6000fd5b505050506040513d602081101561046557600080fd5b5051151561047257600080fd5b600160a060020a038216151561048757600080fd5b600160a060020a03919091166000908152600260205260409020805460ff1916911515919091179055565b6000546001546040805160e260020a633d9abf2b028152336004820152600160a060020a0393841660248201529290911660448301525173__AOLibrary_____________________________9163f66afcac916064808301926020929190829003018186803b15801561052457600080fd5b505af4158015610538573d6000803e3d6000fd5b505050506040513d602081101561054e57600080fd5b5051151561055b57600080fd5b600160a060020a038116151561057057600080fd5b6001805473ffffffffffffffffffffffffffffffffffffffff1916600160a060020a0392909216919091179055565b60026020526000908152604090205460ff1681565b600754600160a060020a031681565b600054600160a060020a031681565b6005805460408051602060026001851615610100026000190190941693909304601f810184900484028201840190925281815292918301828280156106585780601f1061062d57610100808354040283529160200191610658565b820191906000526020600020905b81548152906001019060200180831161063b57829003601f168201915b505050505081565b6003805460408051602060026001851615610100026000190190941693909304601f810184900484028201840190925281815292918301828280156106585780601f1061062d57610100808354040283529160200191610658565b6009805460408051602060026001851615610100026000190190941693909304601f810184900484028201840190925281815292918301828280156106585780601f1061062d57610100808354040283529160200191610658565b6006805460408051602060026001851615610100026000190190941693909304601f810184900484028201840190925281815292918301828280156106585780601f1061062d57610100808354040283529160200191610658565b6008805460408051602060026001851615610100026000190190941693909304601f810184900484028201840190925281815292918301828280156106585780601f1061062d57610100808354040283529160200191610658565b6004805460408051602060026001851615610100026000190190941693909304601f810184900484028201840190925281815292918301828280156106585780601f1061062d57610100808354040283529160200191610658565b6000546001546040805160e260020a633d9abf2b028152336004820152600160a060020a0393841660248201529290911660448301525173__AOLibrary_____________________________9163f66afcac916064808301926020929190829003018186803b15801561089957600080fd5b505af41580156108ad573d6000803e3d6000fd5b505050506040513d60208110156108c357600080fd5b505115156108d057600080fd5b600160a060020a03811615156108e557600080fd5b6000805473ffffffffffffffffffffffffffffffffffffffff1916600160a060020a03929092169190911790555600a165627a7a72305820048c5a21e2c403b73ad1e4c3aec71bfaf80d348b58a9e1f740be86e44dd947b500294a616e75617279203674682c203230313920612e642c2079656172203120612e632e204570697068616e792e20416e20617070656172616e6365206f72206d616e69666573746174696f6e20657370656369616c6c79206f66206120646976696e65206265696e672e20416e20696c6c756d696e6174696e6720646973636f766572792c207265616c697a6174696f6e2c206f7220646973636c6f737572652e",
	"source": "pragma solidity ^0.4.24;\n\nimport './TheAO.sol';\nimport './AOLibrary.sol';\n\ncontract Epiphany is TheAO {\n\tstring public what;\n\tstring public when;\n\tstring public why;\n\tstring public who;\n\taddress public where;\n\tstring public aSign;\n\tstring public logos;\n\n\tconstructor() public {\n\t\twhat = 'The AO';\n\t\twhen = 'January 6th, 2019 a.d, year 1 a.c. Epiphany. An appearance or manifestation especially of a divine being. An illuminating discovery, realization, or disclosure.';\n\t\twhy = 'To Hear, See, and Speak the Human inside Humanity.';\n\t\twho = 'You.  Set the world, Free. – Truth';\n\t\taSign = '08e2c4e1ccf3bccfb3b8eef14679b28442649a2a733960661210a0b00d9c93bf';\n\t\tlogos = '0920c6ab1848df83a332a21e8c9ec1a393e694c396b872aee053722d023e2a32';\n\t}\n\n\t/**\n\t * @dev Checks if the calling contract address is The AO\n\t *\t\tOR\n\t *\t\tIf The AO is set to a Name/TAO, then check if calling address is the Advocate\n\t */\n\tmodifier onlyTheAO {\n\t\trequire (AOLibrary.isTheAO(msg.sender, theAO, nameTAOPositionAddress));\n\t\t_;\n\t}\n\n\t/***** The AO ONLY METHODS *****/\n\t/**\n\t * @dev The AO set the NameTAOPosition Address\n\t * @param _nameTAOPositionAddress The address of NameTAOPosition\n\t */\n\tfunction setNameTAOPositionAddress(address _nameTAOPositionAddress) public onlyTheAO {\n\t\trequire (_nameTAOPositionAddress != address(0));\n\t\tnameTAOPositionAddress = _nameTAOPositionAddress;\n\t}\n\n\t/**\n\t * @dev Transfer ownership of The AO to new address\n\t * @param _theAO The new address to be transferred\n\t */\n\tfunction transferOwnership(address _theAO) public onlyTheAO {\n\t\trequire (_theAO != address(0));\n\t\ttheAO = _theAO;\n\t}\n\n\t/**\n\t * @dev Whitelist `_account` address to transact on behalf of others\n\t * @param _account The address to whitelist\n\t * @param _whitelist Either to whitelist or not\n\t */\n\tfunction setWhitelist(address _account, bool _whitelist) public onlyTheAO {\n\t\trequire (_account != address(0));\n\t\twhitelist[_account] = _whitelist;\n\t}\n\n\t/**\n\t * @dev Set `where` value\n\t * @param _where The new value to be set\n\t */\n\tfunction setWhere(address _where) public onlyTheAO {\n\t\twhere = _where;\n\t}\n}\n",
	"sourcePath": "/data/jmulyono/ao-contracts/contracts/Epiphany.sol",
	"compiler": {
		"name": "solc",
		"version": "0.4.24+commit.e67f0147.Emscripten.clang"
	},
	"schemaVersion": "2.0.1",
	"updatedAt": "2019-02-22T08:49:00.802Z"
}