{
	"contractName": "Ethos",
	"abi": [
		{
			"constant": true,
			"inputs": [],
			"name": "name",
			"outputs": [
				{
					"name": "",
					"type": "string"
				}
			],
			"payable": false,
			"stateMutability": "view",
			"type": "function"
		},
		{
			"constant": true,
			"inputs": [],
			"name": "powerOfTen",
			"outputs": [
				{
					"name": "",
					"type": "uint256"
				}
			],
			"payable": false,
			"stateMutability": "view",
			"type": "function"
		},
		{
			"constant": true,
			"inputs": [],
			"name": "totalSupply",
			"outputs": [
				{
					"name": "",
					"type": "uint256"
				}
			],
			"payable": false,
			"stateMutability": "view",
			"type": "function"
		},
		{
			"constant": false,
			"inputs": [
				{
					"name": "_from",
					"type": "address"
				},
				{
					"name": "_to",
					"type": "address"
				},
				{
					"name": "_value",
					"type": "uint256"
				}
			],
			"name": "transferFrom",
			"outputs": [
				{
					"name": "",
					"type": "bool"
				}
			],
			"payable": false,
			"stateMutability": "nonpayable",
			"type": "function"
		},
		{
			"constant": true,
			"inputs": [],
			"name": "decimals",
			"outputs": [
				{
					"name": "",
					"type": "uint8"
				}
			],
			"payable": false,
			"stateMutability": "view",
			"type": "function"
		},
		{
			"constant": false,
			"inputs": [
				{
					"name": "target",
					"type": "address"
				},
				{
					"name": "mintedAmount",
					"type": "uint256"
				}
			],
			"name": "mint",
			"outputs": [
				{
					"name": "",
					"type": "bool"
				}
			],
			"payable": false,
			"stateMutability": "nonpayable",
			"type": "function"
		},
		{
			"constant": true,
			"inputs": [],
			"name": "nameTAOPositionAddress",
			"outputs": [
				{
					"name": "",
					"type": "address"
				}
			],
			"payable": false,
			"stateMutability": "view",
			"type": "function"
		},
		{
			"constant": false,
			"inputs": [
				{
					"name": "_account",
					"type": "address"
				},
				{
					"name": "_whitelist",
					"type": "bool"
				}
			],
			"name": "setWhitelist",
			"outputs": [],
			"payable": false,
			"stateMutability": "nonpayable",
			"type": "function"
		},
		{
			"constant": false,
			"inputs": [
				{
					"name": "_nameTAOPositionAddress",
					"type": "address"
				}
			],
			"name": "setNameTAOPositionAddress",
			"outputs": [],
			"payable": false,
			"stateMutability": "nonpayable",
			"type": "function"
		},
		{
			"constant": true,
			"inputs": [
				{
					"name": "",
					"type": "address"
				}
			],
			"name": "balanceOf",
			"outputs": [
				{
					"name": "",
					"type": "uint256"
				}
			],
			"payable": false,
			"stateMutability": "view",
			"type": "function"
		},
		{
			"constant": true,
			"inputs": [],
			"name": "symbol",
			"outputs": [
				{
					"name": "",
					"type": "string"
				}
			],
			"payable": false,
			"stateMutability": "view",
			"type": "function"
		},
		{
			"constant": true,
			"inputs": [
				{
					"name": "",
					"type": "address"
				}
			],
			"name": "whitelist",
			"outputs": [
				{
					"name": "",
					"type": "bool"
				}
			],
			"payable": false,
			"stateMutability": "view",
			"type": "function"
		},
		{
			"constant": true,
			"inputs": [],
			"name": "theAO",
			"outputs": [
				{
					"name": "",
					"type": "address"
				}
			],
			"payable": false,
			"stateMutability": "view",
			"type": "function"
		},
		{
			"constant": false,
			"inputs": [
				{
					"name": "_from",
					"type": "address"
				},
				{
					"name": "_value",
					"type": "uint256"
				}
			],
			"name": "whitelistBurnFrom",
			"outputs": [
				{
					"name": "success",
					"type": "bool"
				}
			],
			"payable": false,
			"stateMutability": "nonpayable",
			"type": "function"
		},
		{
			"constant": false,
			"inputs": [
				{
					"name": "_theAO",
					"type": "address"
				}
			],
			"name": "transferOwnership",
			"outputs": [],
			"payable": false,
			"stateMutability": "nonpayable",
			"type": "function"
		},
		{
			"inputs": [
				{
					"name": "_name",
					"type": "string"
				},
				{
					"name": "_symbol",
					"type": "string"
				},
				{
					"name": "_nameTAOPositionAddress",
					"type": "address"
				}
			],
			"payable": false,
			"stateMutability": "nonpayable",
			"type": "constructor"
		},
		{
			"anonymous": false,
			"inputs": [
				{
					"indexed": true,
					"name": "from",
					"type": "address"
				},
				{
					"indexed": true,
					"name": "to",
					"type": "address"
				},
				{
					"indexed": false,
					"name": "value",
					"type": "uint256"
				}
			],
			"name": "Transfer",
			"type": "event"
		},
		{
			"anonymous": false,
			"inputs": [
				{
					"indexed": true,
					"name": "from",
					"type": "address"
				},
				{
					"indexed": false,
					"name": "value",
					"type": "uint256"
				}
			],
			"name": "Burn",
			"type": "event"
		}
	],
	"bytecode": "0x60806040523480156200001157600080fd5b50604051620012b1380380620012b183398101604090815281516020808401519284015160008054600160a060020a031916331790559184018051909493909301928491849184916200006a91600391860190620001ab565b50815162000080906004906020850190620001ab565b5060006006556005805460ff19169055620000a481640100000000620000b0810204565b50505050505062000250565b600054600154604080517ff66afcac000000000000000000000000000000000000000000000000000000008152336004820152600160a060020a0393841660248201529290911660448301525173__AOLibrary_____________________________9163f66afcac916064808301926020929190829003018186803b1580156200013957600080fd5b505af41580156200014e573d6000803e3d6000fd5b505050506040513d60208110156200016557600080fd5b505115156200017357600080fd5b600160a060020a03811615156200018957600080fd5b60018054600160a060020a031916600160a060020a0392909216919091179055565b828054600181600116156101000203166002900490600052602060002090601f016020900481019282601f10620001ee57805160ff19168380011785556200021e565b828001600101855582156200021e579182015b828111156200021e57825182559160200191906001019062000201565b506200022c92915062000230565b5090565b6200024d91905b808211156200022c576000815560010162000237565b90565b61105180620002606000396000f3006080604052600436106100c15763ffffffff60e060020a60003504166306fdde0381146100c65780630aa245461461015057806318160ddd1461017757806323b872dd1461018c578063313ce567146101ca57806340c10f19146101f55780634ef033f01461021957806353d6fd591461024a5780635cfaf2ef1461027257806370a082311461029357806395d89b41146102b45780639b19251a146102c9578063a9b6b38e146102ea578063b1e19d45146102ff578063f2fde38b14610323575b600080fd5b3480156100d257600080fd5b506100db610344565b6040805160208082528351818301528351919283929083019185019080838360005b838110156101155781810151838201526020016100fd565b50505050905090810190601f1680156101425780820380516001836020036101000a031916815260200191505b509250505060405180910390f35b34801561015c57600080fd5b506101656103d2565b60408051918252519081900360200190f35b34801561018357600080fd5b506101656103d8565b34801561019857600080fd5b506101b6600160a060020a03600435811690602435166044356103de565b604080519115158252519081900360200190f35b3480156101d657600080fd5b506101df61066e565b6040805160ff9092168252519081900360200190f35b34801561020157600080fd5b506101b6600160a060020a0360043516602435610677565b34801561022557600080fd5b5061022e6107d8565b60408051600160a060020a039092168252519081900360200190f35b34801561025657600080fd5b50610270600160a060020a036004351660243515156107e7565b005b34801561027e57600080fd5b50610270600160a060020a03600435166108e6565b34801561029f57600080fd5b50610165600160a060020a03600435166109e9565b3480156102c057600080fd5b506100db6109fb565b3480156102d557600080fd5b506101b6600160a060020a0360043516610a56565b3480156102f657600080fd5b5061022e610a6b565b34801561030b57600080fd5b506101b6600160a060020a0360043516602435610a7a565b34801561032f57600080fd5b50610270600160a060020a0360043516610c8d565b6003805460408051602060026001851615610100026000190190941693909304601f810184900484028201840190925281815292918301828280156103ca5780601f1061039f576101008083540402835291602001916103ca565b820191906000526020600020905b8154815290600101906020018083116103ad57829003601f168201915b505050505081565b60065481565b60075481565b3360009081526002602052604081205460ff1615156001146103ff57600080fd5b8373__AOLibrary_____________________________632d706a34826040518263ffffffff1660e060020a0281526004018082600160a060020a0316600160a060020a0316815260200191505060206040518083038186803b15801561046457600080fd5b505af4158015610478573d6000803e3d6000fd5b505050506040513d602081101561048e57600080fd5b50518061052057506040805160e260020a630bf29505028152600160a060020a0383166004820152905173__AOLibrary_____________________________91632fca5414916024808301926020929190829003018186803b1580156104f357600080fd5b505af4158015610507573d6000803e3d6000fd5b505050506040513d602081101561051d57600080fd5b50515b151561052b57600080fd5b8373__AOLibrary_____________________________632d706a34826040518263ffffffff1660e060020a0281526004018082600160a060020a0316600160a060020a0316815260200191505060206040518083038186803b15801561059057600080fd5b505af41580156105a4573d6000803e3d6000fd5b505050506040513d60208110156105ba57600080fd5b50518061064c57506040805160e260020a630bf29505028152600160a060020a0383166004820152905173__AOLibrary_____________________________91632fca5414916024808301926020929190829003018186803b15801561061f57600080fd5b505af4158015610633573d6000803e3d6000fd5b505050506040513d602081101561064957600080fd5b50515b151561065757600080fd5b610662868686610d90565b50600195945050505050565b60055460ff1681565b3360009081526002602052604081205460ff16151560011461069857600080fd5b8273__AOLibrary_____________________________632d706a34826040518263ffffffff1660e060020a0281526004018082600160a060020a0316600160a060020a0316815260200191505060206040518083038186803b1580156106fd57600080fd5b505af4158015610711573d6000803e3d6000fd5b505050506040513d602081101561072757600080fd5b5051806107b957506040805160e260020a630bf29505028152600160a060020a0383166004820152905173__AOLibrary_____________________________91632fca5414916024808301926020929190829003018186803b15801561078c57600080fd5b505af41580156107a0573d6000803e3d6000fd5b505050506040513d60208110156107b657600080fd5b50515b15156107c457600080fd5b6107ce8484610f2c565b5060019392505050565b600154600160a060020a031681565b600054600154604080517ff66afcac000000000000000000000000000000000000000000000000000000008152336004820152600160a060020a0393841660248201529290911660448301525173__AOLibrary_____________________________9163f66afcac916064808301926020929190829003018186803b15801561086f57600080fd5b505af4158015610883573d6000803e3d6000fd5b505050506040513d602081101561089957600080fd5b505115156108a657600080fd5b600160a060020a03821615156108bb57600080fd5b600160a060020a03919091166000908152600260205260409020805460ff1916911515919091179055565b600054600154604080517ff66afcac000000000000000000000000000000000000000000000000000000008152336004820152600160a060020a0393841660248201529290911660448301525173__AOLibrary_____________________________9163f66afcac916064808301926020929190829003018186803b15801561096e57600080fd5b505af4158015610982573d6000803e3d6000fd5b505050506040513d602081101561099857600080fd5b505115156109a557600080fd5b600160a060020a03811615156109ba57600080fd5b6001805473ffffffffffffffffffffffffffffffffffffffff1916600160a060020a0392909216919091179055565b60086020526000908152604090205481565b6004805460408051602060026001851615610100026000190190941693909304601f810184900484028201840190925281815292918301828280156103ca5780601f1061039f576101008083540402835291602001916103ca565b60026020526000908152604090205460ff1681565b600054600160a060020a031681565b3360009081526002602052604081205460ff161515600114610a9b57600080fd5b8273__AOLibrary_____________________________632d706a34826040518263ffffffff1660e060020a0281526004018082600160a060020a0316600160a060020a0316815260200191505060206040518083038186803b158015610b0057600080fd5b505af4158015610b14573d6000803e3d6000fd5b505050506040513d6020811015610b2a57600080fd5b505180610bbc57506040805160e260020a630bf29505028152600160a060020a0383166004820152905173__AOLibrary_____________________________91632fca5414916024808301926020929190829003018186803b158015610b8f57600080fd5b505af4158015610ba3573d6000803e3d6000fd5b505050506040513d6020811015610bb957600080fd5b50515b1515610bc757600080fd5b600160a060020a038416600090815260086020526040902054831115610bec57600080fd5b600160a060020a038416600090815260086020526040902054610c15908463ffffffff61100016565b600160a060020a038516600090815260086020526040902055600754610c41908463ffffffff61100016565b600755604080518481529051600160a060020a038616917fcc16f5dbb4873280815c1ee09dbd06736cffcc184412cf7a71a0fdb75d397ca5919081900360200190a25060019392505050565b600054600154604080517ff66afcac000000000000000000000000000000000000000000000000000000008152336004820152600160a060020a0393841660248201529290911660448301525173__AOLibrary_____________________________9163f66afcac916064808301926020929190829003018186803b158015610d1557600080fd5b505af4158015610d29573d6000803e3d6000fd5b505050506040513d6020811015610d3f57600080fd5b50511515610d4c57600080fd5b600160a060020a0381161515610d6157600080fd5b6000805473ffffffffffffffffffffffffffffffffffffffff1916600160a060020a0392909216919091179055565b6000600160a060020a0383161515610da757600080fd5b600160a060020a038416600090815260086020526040902054821115610dcc57600080fd5b600160a060020a038316600090815260086020526040902054610df5818463ffffffff61101216565b1015610e0057600080fd5b600160a060020a03808416600090815260086020526040808220549287168252902054610e329163ffffffff61101216565b600160a060020a038516600090815260086020526040902054909150610e5e908363ffffffff61100016565b600160a060020a038086166000908152600860205260408082209390935590851681522054610e93908363ffffffff61101216565b600160a060020a0380851660008181526008602090815260409182902094909455805186815290519193928816927fddf252ad1be2c89b69c2b068fc378daa952ba7f163c4a11628f55a4df523b3ef92918290030190a3600160a060020a038084166000908152600860205260408082205492871682529020548291610f1f919063ffffffff61101216565b14610f2657fe5b50505050565b600160a060020a038216600090815260086020526040902054610f55908263ffffffff61101216565b600160a060020a038316600090815260086020526040902055600754610f81908263ffffffff61101216565b60075560408051828152905130916000917fddf252ad1be2c89b69c2b068fc378daa952ba7f163c4a11628f55a4df523b3ef9181900360200190a3604080518281529051600160a060020a0384169130917fddf252ad1be2c89b69c2b068fc378daa952ba7f163c4a11628f55a4df523b3ef9181900360200190a35050565b60008282111561100c57fe5b50900390565b8181018281101561101f57fe5b929150505600a165627a7a7230582062b098d2dcad55c9e08c535a2c7bd3a3775dbc030aa9ad3690fce1c5fe4d5e180029",
	"source": "pragma solidity ^0.4.24;\n\nimport \"./TAOCurrency.sol\";\n\ncontract Ethos is TAOCurrency {\n\t/**\n\t * @dev Constructor function\n\t */\n\tconstructor(string _name, string _symbol, address _nameTAOPositionAddress)\n\t\tTAOCurrency(_name, _symbol, _nameTAOPositionAddress) public {}\n}\n",
	"sourcePath": "/Users/johanmulyono/Work/AO/ao-contracts/contracts/Ethos.sol",
	"compiler": {
		"name": "solc",
		"version": "0.4.24+commit.e67f0147.Emscripten.clang"
	},
	"schemaVersion": "2.0.1",
	"updatedAt": "2019-02-11T10:27:03.028Z"
}