{
	"contractName": "Logos",
	"abi": [
		{
			"constant": true,
			"inputs": [],
			"name": "name",
			"outputs": [
				{
					"name": "",
					"type": "string"
				}
			],
			"payable": false,
			"stateMutability": "view",
			"type": "function"
		},
		{
			"constant": true,
			"inputs": [],
			"name": "powerOfTen",
			"outputs": [
				{
					"name": "",
					"type": "uint256"
				}
			],
			"payable": false,
			"stateMutability": "view",
			"type": "function"
		},
		{
			"constant": true,
			"inputs": [],
			"name": "totalSupply",
			"outputs": [
				{
					"name": "",
					"type": "uint256"
				}
			],
			"payable": false,
			"stateMutability": "view",
			"type": "function"
		},
		{
			"constant": false,
			"inputs": [
				{
					"name": "_from",
					"type": "address"
				},
				{
					"name": "_to",
					"type": "address"
				},
				{
					"name": "_value",
					"type": "uint256"
				}
			],
			"name": "transferFrom",
			"outputs": [
				{
					"name": "",
					"type": "bool"
				}
			],
			"payable": false,
			"stateMutability": "nonpayable",
			"type": "function"
		},
		{
			"constant": true,
			"inputs": [],
			"name": "decimals",
			"outputs": [
				{
					"name": "",
					"type": "uint8"
				}
			],
			"payable": false,
			"stateMutability": "view",
			"type": "function"
		},
		{
			"constant": false,
			"inputs": [
				{
					"name": "target",
					"type": "address"
				},
				{
					"name": "mintedAmount",
					"type": "uint256"
				}
			],
			"name": "mint",
			"outputs": [
				{
					"name": "",
					"type": "bool"
				}
			],
			"payable": false,
			"stateMutability": "nonpayable",
			"type": "function"
		},
		{
			"constant": true,
			"inputs": [],
			"name": "nameTAOPositionAddress",
			"outputs": [
				{
					"name": "",
					"type": "address"
				}
			],
			"payable": false,
			"stateMutability": "view",
			"type": "function"
		},
		{
			"constant": false,
			"inputs": [
				{
					"name": "_account",
					"type": "address"
				},
				{
					"name": "_whitelist",
					"type": "bool"
				}
			],
			"name": "setWhitelist",
			"outputs": [],
			"payable": false,
			"stateMutability": "nonpayable",
			"type": "function"
		},
		{
			"constant": true,
			"inputs": [
				{
					"name": "",
					"type": "address"
				}
			],
			"name": "totalAdvocatedTAOLogos",
			"outputs": [
				{
					"name": "",
					"type": "uint256"
				}
			],
			"payable": false,
			"stateMutability": "view",
			"type": "function"
		},
		{
			"constant": true,
			"inputs": [
				{
					"name": "",
					"type": "address"
				}
			],
			"name": "balanceOf",
			"outputs": [
				{
					"name": "",
					"type": "uint256"
				}
			],
			"payable": false,
			"stateMutability": "view",
			"type": "function"
		},
		{
			"constant": true,
			"inputs": [
				{
					"name": "",
					"type": "address"
				}
			],
			"name": "totalPositionOnOthers",
			"outputs": [
				{
					"name": "",
					"type": "uint256"
				}
			],
			"payable": false,
			"stateMutability": "view",
			"type": "function"
		},
		{
			"constant": true,
			"inputs": [
				{
					"name": "",
					"type": "address"
				}
			],
			"name": "positionFromOthers",
			"outputs": [
				{
					"name": "",
					"type": "uint256"
				}
			],
			"payable": false,
			"stateMutability": "view",
			"type": "function"
		},
		{
			"constant": true,
			"inputs": [
				{
					"name": "",
					"type": "address"
				},
				{
					"name": "",
					"type": "address"
				}
			],
			"name": "positionOnOthers",
			"outputs": [
				{
					"name": "",
					"type": "uint256"
				}
			],
			"payable": false,
			"stateMutability": "view",
			"type": "function"
		},
		{
			"constant": true,
			"inputs": [
				{
					"name": "",
					"type": "address"
				},
				{
					"name": "",
					"type": "address"
				}
			],
			"name": "advocatedTAOLogos",
			"outputs": [
				{
					"name": "",
					"type": "uint256"
				}
			],
			"payable": false,
			"stateMutability": "view",
			"type": "function"
		},
		{
			"constant": true,
			"inputs": [],
			"name": "symbol",
			"outputs": [
				{
					"name": "",
					"type": "string"
				}
			],
			"payable": false,
			"stateMutability": "view",
			"type": "function"
		},
		{
			"constant": true,
			"inputs": [
				{
					"name": "",
					"type": "address"
				}
			],
			"name": "whitelist",
			"outputs": [
				{
					"name": "",
					"type": "bool"
				}
			],
			"payable": false,
			"stateMutability": "view",
			"type": "function"
		},
		{
			"constant": true,
			"inputs": [],
			"name": "nameAccountRecoveryAddress",
			"outputs": [
				{
					"name": "",
					"type": "address"
				}
			],
			"payable": false,
			"stateMutability": "view",
			"type": "function"
		},
		{
			"constant": true,
			"inputs": [],
			"name": "theAO",
			"outputs": [
				{
					"name": "",
					"type": "address"
				}
			],
			"payable": false,
			"stateMutability": "view",
			"type": "function"
		},
		{
			"constant": false,
			"inputs": [
				{
					"name": "_from",
					"type": "address"
				},
				{
					"name": "_value",
					"type": "uint256"
				}
			],
			"name": "whitelistBurnFrom",
			"outputs": [
				{
					"name": "success",
					"type": "bool"
				}
			],
			"payable": false,
			"stateMutability": "nonpayable",
			"type": "function"
		},
		{
			"constant": true,
			"inputs": [],
			"name": "nameFactoryAddress",
			"outputs": [
				{
					"name": "",
					"type": "address"
				}
			],
			"payable": false,
			"stateMutability": "view",
			"type": "function"
		},
		{
			"constant": false,
			"inputs": [
				{
					"name": "_theAO",
					"type": "address"
				}
			],
			"name": "transferOwnership",
			"outputs": [],
			"payable": false,
			"stateMutability": "nonpayable",
			"type": "function"
		},
		{
			"inputs": [
				{
					"name": "_name",
					"type": "string"
				},
				{
					"name": "_symbol",
					"type": "string"
				},
				{
					"name": "_nameFactoryAddress",
					"type": "address"
				},
				{
					"name": "_nameTAOPositionAddress",
					"type": "address"
				}
			],
			"payable": false,
			"stateMutability": "nonpayable",
			"type": "constructor"
		},
		{
			"anonymous": false,
			"inputs": [
				{
					"indexed": true,
					"name": "from",
					"type": "address"
				},
				{
					"indexed": true,
					"name": "to",
					"type": "address"
				},
				{
					"indexed": false,
					"name": "value",
					"type": "uint256"
				}
			],
			"name": "PositionFrom",
			"type": "event"
		},
		{
			"anonymous": false,
			"inputs": [
				{
					"indexed": true,
					"name": "from",
					"type": "address"
				},
				{
					"indexed": true,
					"name": "to",
					"type": "address"
				},
				{
					"indexed": false,
					"name": "value",
					"type": "uint256"
				}
			],
			"name": "UnpositionFrom",
			"type": "event"
		},
		{
			"anonymous": false,
			"inputs": [
				{
					"indexed": true,
					"name": "nameId",
					"type": "address"
				},
				{
					"indexed": true,
					"name": "taoId",
					"type": "address"
				},
				{
					"indexed": false,
					"name": "amount",
					"type": "uint256"
				}
			],
			"name": "AddAdvocatedTAOLogos",
			"type": "event"
		},
		{
			"anonymous": false,
			"inputs": [
				{
					"indexed": true,
					"name": "fromNameId",
					"type": "address"
				},
				{
					"indexed": true,
					"name": "toNameId",
					"type": "address"
				},
				{
					"indexed": true,
					"name": "taoId",
					"type": "address"
				},
				{
					"indexed": false,
					"name": "amount",
					"type": "uint256"
				}
			],
			"name": "TransferAdvocatedTAOLogos",
			"type": "event"
		},
		{
			"anonymous": false,
			"inputs": [
				{
					"indexed": true,
					"name": "from",
					"type": "address"
				},
				{
					"indexed": true,
					"name": "to",
					"type": "address"
				},
				{
					"indexed": false,
					"name": "value",
					"type": "uint256"
				}
			],
			"name": "Transfer",
			"type": "event"
		},
		{
			"anonymous": false,
			"inputs": [
				{
					"indexed": true,
					"name": "from",
					"type": "address"
				},
				{
					"indexed": false,
					"name": "value",
					"type": "uint256"
				}
			],
			"name": "Burn",
			"type": "event"
		},
		{
			"constant": false,
			"inputs": [
				{
					"name": "_nameFactoryAddress",
					"type": "address"
				}
			],
			"name": "setNameFactoryAddress",
			"outputs": [],
			"payable": false,
			"stateMutability": "nonpayable",
			"type": "function"
		},
		{
			"constant": false,
			"inputs": [
				{
					"name": "_nameTAOPositionAddress",
					"type": "address"
				}
			],
			"name": "setNameTAOPositionAddress",
			"outputs": [],
			"payable": false,
			"stateMutability": "nonpayable",
			"type": "function"
		},
		{
			"constant": false,
			"inputs": [
				{
					"name": "_nameAccountRecoveryAddress",
					"type": "address"
				}
			],
			"name": "setNameAccountRecoveryAddress",
			"outputs": [],
			"payable": false,
			"stateMutability": "nonpayable",
			"type": "function"
		},
		{
			"constant": true,
			"inputs": [
				{
					"name": "_target",
					"type": "address"
				}
			],
			"name": "sumBalanceOf",
			"outputs": [
				{
					"name": "",
					"type": "uint256"
				}
			],
			"payable": false,
			"stateMutability": "view",
			"type": "function"
		},
		{
			"constant": true,
			"inputs": [
				{
					"name": "_sender",
					"type": "address"
				}
			],
			"name": "availableToPositionAmount",
			"outputs": [
				{
					"name": "",
					"type": "uint256"
				}
			],
			"payable": false,
			"stateMutability": "view",
			"type": "function"
		},
		{
			"constant": false,
			"inputs": [
				{
					"name": "_from",
					"type": "address"
				},
				{
					"name": "_to",
					"type": "address"
				},
				{
					"name": "_value",
					"type": "uint256"
				}
			],
			"name": "positionFrom",
			"outputs": [
				{
					"name": "",
					"type": "bool"
				}
			],
			"payable": false,
			"stateMutability": "nonpayable",
			"type": "function"
		},
		{
			"constant": false,
			"inputs": [
				{
					"name": "_from",
					"type": "address"
				},
				{
					"name": "_to",
					"type": "address"
				},
				{
					"name": "_value",
					"type": "uint256"
				}
			],
			"name": "unpositionFrom",
			"outputs": [
				{
					"name": "",
					"type": "bool"
				}
			],
			"payable": false,
			"stateMutability": "nonpayable",
			"type": "function"
		},
		{
			"constant": false,
			"inputs": [
				{
					"name": "_taoId",
					"type": "address"
				},
				{
					"name": "_amount",
					"type": "uint256"
				}
			],
			"name": "addAdvocatedTAOLogos",
			"outputs": [
				{
					"name": "",
					"type": "bool"
				}
			],
			"payable": false,
			"stateMutability": "nonpayable",
			"type": "function"
		},
		{
			"constant": false,
			"inputs": [
				{
					"name": "_fromNameId",
					"type": "address"
				},
				{
					"name": "_taoId",
					"type": "address"
				}
			],
			"name": "transferAdvocatedTAOLogos",
			"outputs": [
				{
					"name": "",
					"type": "bool"
				}
			],
			"payable": false,
			"stateMutability": "nonpayable",
			"type": "function"
		}
	],
	"bytecode": "0x60806040523480156200001157600080fd5b5060405162002b7a38038062002b7a833981016040908152815160208084015192840151606085015160008054600160a060020a03191633179055928501805190959490940193909291859185918491620000739160039190860190620002f2565b50815162000089906004906020850190620002f2565b5060006006556005805460ff19169055620000ad81640100000000620000e8810204565b505050620000ca82620001ed640100000000026401000000009004565b620000de81640100000000620000e8810204565b5050505062000397565b600054600154604080517ff66afcac000000000000000000000000000000000000000000000000000000008152336004820152600160a060020a0393841660248201529290911660448301525173__AOLibrary_____________________________9163f66afcac916064808301926020929190829003018186803b1580156200017157600080fd5b505af415801562000186573d6000803e3d6000fd5b505050506040513d60208110156200019d57600080fd5b50511515620001ab57600080fd5b600160a060020a0381161515620001c157600080fd5b60018054600160a060020a03909216600160a060020a03199283168117909155600c8054909216179055565b600054600154604080517ff66afcac000000000000000000000000000000000000000000000000000000008152336004820152600160a060020a0393841660248201529290911660448301525173__AOLibrary_____________________________9163f66afcac916064808301926020929190829003018186803b1580156200027657600080fd5b505af41580156200028b573d6000803e3d6000fd5b505050506040513d6020811015620002a257600080fd5b50511515620002b057600080fd5b600160a060020a0381161515620002c657600080fd5b60098054600160a060020a03909216600160a060020a03199283168117909155600b8054909216179055565b828054600181600116156101000203166002900490600052602060002090601f016020900481019282601f106200033557805160ff191683800117855562000365565b8280016001018555821562000365579182015b828111156200036557825182559160200191906001019062000348565b506200037392915062000377565b5090565b6200039491905b808211156200037357600081556001016200037e565b90565b6127d380620003a76000396000f3006080604052600436106101665763ffffffff60e060020a60003504166306fdde03811461016b5780630aa24546146101f557806318160ddd1461021c5780631dfde2bd1461023157806323b872dd14610254578063313ce5671461029257806340c10f19146102bd5780634ef033f0146102e157806353d6fd59146103125780635cfaf2ef146103385780636387b19a1461035957806370a082311461037a57806372f19b8f1461039b5780637787f39c146103bc57806381c3af29146103dd5780638c92436114610404578063918b7aa1146104255780639579b1a81461044c57806395d89b411461047357806397fe5ea314610488578063985e4cd0146104ac5780639b19251a146104cd5780639b6503d3146104ee578063a4e5fad21461050f578063a9b6b38e14610524578063b1e19d4514610539578063b7f6e74d1461055d578063bc40620614610587578063d5e45a831461059c578063f2fde38b146105c6575b600080fd5b34801561017757600080fd5b506101806105e7565b6040805160208082528351818301528351919283929083019185019080838360005b838110156101ba5781810151838201526020016101a2565b50505050905090810190601f1680156101e75780820380516001836020036101000a031916815260200191505b509250505060405180910390f35b34801561020157600080fd5b5061020a610675565b60408051918252519081900360200190f35b34801561022857600080fd5b5061020a61067b565b34801561023d57600080fd5b50610252600160a060020a0360043516610681565b005b34801561026057600080fd5b5061027e600160a060020a036004358116906024351660443561077b565b604080519115158252519081900360200190f35b34801561029e57600080fd5b506102a7610a0b565b6040805160ff9092168252519081900360200190f35b3480156102c957600080fd5b5061027e600160a060020a0360043516602435610a14565b3480156102ed57600080fd5b506102f6610b75565b60408051600160a060020a039092168252519081900360200190f35b34801561031e57600080fd5b50610252600160a060020a03600435166024351515610b84565b34801561034457600080fd5b50610252600160a060020a0360043516610c6d565b34801561036557600080fd5b5061020a600160a060020a0360043516610d64565b34801561038657600080fd5b5061020a600160a060020a0360043516610d76565b3480156103a757600080fd5b5061020a600160a060020a0360043516610d88565b3480156103c857600080fd5b5061020a600160a060020a0360043516610d9a565b3480156103e957600080fd5b5061020a600160a060020a0360043581169060243516610dac565b34801561041057600080fd5b50610252600160a060020a0360043516610dc9565b34801561043157600080fd5b5061020a600160a060020a0360043581169060243516610ec0565b34801561045857600080fd5b5061027e600160a060020a0360043581169060243516610edd565b34801561047f57600080fd5b50610180611267565b34801561049457600080fd5b5061027e600160a060020a03600435166024356112c2565b3480156104b857600080fd5b5061020a600160a060020a0360043516611505565b3480156104d957600080fd5b5061027e600160a060020a03600435166115f7565b3480156104fa57600080fd5b5061020a600160a060020a036004351661160c565b34801561051b57600080fd5b506102f66116de565b34801561053057600080fd5b506102f66116ed565b34801561054557600080fd5b5061027e600160a060020a03600435166024356116fc565b34801561056957600080fd5b5061027e600160a060020a036004358116906024351660443561190f565b34801561059357600080fd5b506102f6611e87565b3480156105a857600080fd5b5061027e600160a060020a0360043581169060243516604435611e96565b3480156105d257600080fd5b50610252600160a060020a0360043516612425565b6003805460408051602060026001851615610100026000190190941693909304601f8101849004840282018401909252818152929183018282801561066d5780601f106106425761010080835404028352916020019161066d565b820191906000526020600020905b81548152906001019060200180831161065057829003601f168201915b505050505081565b60065481565b60075481565b6000546001546040805160e260020a633d9abf2b028152336004820152600160a060020a0393841660248201529290911660448301525173__AOLibrary_____________________________9163f66afcac916064808301926020929190829003018186803b1580156106f357600080fd5b505af4158015610707573d6000803e3d6000fd5b505050506040513d602081101561071d57600080fd5b5051151561072a57600080fd5b600160a060020a038116151561073f57600080fd5b600a805473ffffffffffffffffffffffffffffffffffffffff19908116600160a060020a039384161791829055600d8054929093169116179055565b3360009081526002602052604081205460ff16151560011461079c57600080fd5b8373__AOLibrary_____________________________632d706a34826040518263ffffffff1660e060020a0281526004018082600160a060020a0316600160a060020a0316815260200191505060206040518083038186803b15801561080157600080fd5b505af4158015610815573d6000803e3d6000fd5b505050506040513d602081101561082b57600080fd5b5051806108bd57506040805160e260020a630bf29505028152600160a060020a0383166004820152905173__AOLibrary_____________________________91632fca5414916024808301926020929190829003018186803b15801561089057600080fd5b505af41580156108a4573d6000803e3d6000fd5b505050506040513d60208110156108ba57600080fd5b50515b15156108c857600080fd5b8373__AOLibrary_____________________________632d706a34826040518263ffffffff1660e060020a0281526004018082600160a060020a0316600160a060020a0316815260200191505060206040518083038186803b15801561092d57600080fd5b505af4158015610941573d6000803e3d6000fd5b505050506040513d602081101561095757600080fd5b5051806109e957506040805160e260020a630bf29505028152600160a060020a0383166004820152905173__AOLibrary_____________________________91632fca5414916024808301926020929190829003018186803b1580156109bc57600080fd5b505af41580156109d0573d6000803e3d6000fd5b505050506040513d60208110156109e657600080fd5b50515b15156109f457600080fd5b6109ff868686612512565b50600195945050505050565b60055460ff1681565b3360009081526002602052604081205460ff161515600114610a3557600080fd5b8273__AOLibrary_____________________________632d706a34826040518263ffffffff1660e060020a0281526004018082600160a060020a0316600160a060020a0316815260200191505060206040518083038186803b158015610a9a57600080fd5b505af4158015610aae573d6000803e3d6000fd5b505050506040513d6020811015610ac457600080fd5b505180610b5657506040805160e260020a630bf29505028152600160a060020a0383166004820152905173__AOLibrary_____________________________91632fca5414916024808301926020929190829003018186803b158015610b2957600080fd5b505af4158015610b3d573d6000803e3d6000fd5b505050506040513d6020811015610b5357600080fd5b50515b1515610b6157600080fd5b610b6b84846126ae565b5060019392505050565b600154600160a060020a031681565b6000546001546040805160e260020a633d9abf2b028152336004820152600160a060020a0393841660248201529290911660448301525173__AOLibrary_____________________________9163f66afcac916064808301926020929190829003018186803b158015610bf657600080fd5b505af4158015610c0a573d6000803e3d6000fd5b505050506040513d6020811015610c2057600080fd5b50511515610c2d57600080fd5b600160a060020a0382161515610c4257600080fd5b600160a060020a03919091166000908152600260205260409020805460ff1916911515919091179055565b6000546001546040805160e260020a633d9abf2b028152336004820152600160a060020a0393841660248201529290911660448301525173__AOLibrary_____________________________9163f66afcac916064808301926020929190829003018186803b158015610cdf57600080fd5b505af4158015610cf3573d6000803e3d6000fd5b505050506040513d6020811015610d0957600080fd5b50511515610d1657600080fd5b600160a060020a0381161515610d2b57600080fd5b60018054600160a060020a0390921673ffffffffffffffffffffffffffffffffffffffff199283168117909155600c8054909216179055565b60126020526000908152604090205481565b60086020526000908152604090205481565b60106020526000908152604090205481565b600e6020526000908152604090205481565b600f60209081526000928352604080842090915290825290205481565b6000546001546040805160e260020a633d9abf2b028152336004820152600160a060020a0393841660248201529290911660448301525173__AOLibrary_____________________________9163f66afcac916064808301926020929190829003018186803b158015610e3b57600080fd5b505af4158015610e4f573d6000803e3d6000fd5b505050506040513d6020811015610e6557600080fd5b50511515610e7257600080fd5b600160a060020a0381161515610e8757600080fd5b60098054600160a060020a0390921673ffffffffffffffffffffffffffffffffffffffff199283168117909155600b8054909216179055565b601160209081526000928352604080842090915290825290205481565b336000908152600260205260408120548190819060ff161515600114610f0257600080fd5b8473__AOLibrary_____________________________632d706a34826040518263ffffffff1660e060020a0281526004018082600160a060020a0316600160a060020a0316815260200191505060206040518083038186803b158015610f6757600080fd5b505af4158015610f7b573d6000803e3d6000fd5b505050506040513d6020811015610f9157600080fd5b50511515610f9e57600080fd5b8473__AOLibrary_____________________________632fca5414826040518263ffffffff1660e060020a0281526004018082600160a060020a0316600160a060020a0316815260200191505060206040518083038186803b15801561100357600080fd5b505af4158015611017573d6000803e3d6000fd5b505050506040513d602081101561102d57600080fd5b5051151561103a57600080fd5b600c54604080517ffd6f4137000000000000000000000000000000000000000000000000000000008152600160a060020a0389811660048301529151919092169163fd6f41379160248083019260209291908290030181600087803b1580156110a257600080fd5b505af11580156110b6573d6000803e3d6000fd5b505050506040513d60208110156110cc57600080fd5b50519350600160a060020a0387811690851614156110e957600080fd5b600160a060020a038088166000818152601160209081526040808320948b16835293815283822054928252601290529190912054101561112857600080fd5b600160a060020a038088166000818152601160209081526040808320948b168352938152838220805490839055928252601290529190912054909350611174908463ffffffff61278216565b600160a060020a03808916600090815260126020908152604080832094909455878316825260118152838220928a1682529190915220546111bb908463ffffffff61279416565b600160a060020a038086166000818152601160209081526040808320948c168352938152838220949094559081526012909252902054611201908463ffffffff61279416565b600160a060020a0380861660008181526012602090815260409182902094909455805187815290518a84169492938c16927f8b4613e05fc7236bc627dca2e0fadecd777022c54627f6a5212ccc5ac02e7158928290030190a45060019695505050505050565b6004805460408051602060026001851615610100026000190190941693909304601f8101849004840282018401909252818152929183018282801561066d5780601f106106425761010080835404028352916020019161066d565b33600090815260026020526040812054819060ff1615156001146112e557600080fd5b8373__AOLibrary_____________________________632fca5414826040518263ffffffff1660e060020a0281526004018082600160a060020a0316600160a060020a0316815260200191505060206040518083038186803b15801561134a57600080fd5b505af415801561135e573d6000803e3d6000fd5b505050506040513d602081101561137457600080fd5b5051151561138157600080fd5b6000841161138e57600080fd5b600c54604080517ffd6f4137000000000000000000000000000000000000000000000000000000008152600160a060020a0388811660048301529151919092169163fd6f41379160248083019260209291908290030181600087803b1580156113f657600080fd5b505af115801561140a573d6000803e3d6000fd5b505050506040513d602081101561142057600080fd5b5051600160a060020a038082166000908152601160209081526040808320938a168352929052205490925061145b908563ffffffff61279416565b600160a060020a038084166000818152601160209081526040808320948b1683529381528382209490945590815260129092529020546114a1908563ffffffff61279416565b600160a060020a0380841660008181526012602090815260409182902094909455805188815290519289169391927ffbb909cfb1cebddaa90dc958d2d9d96a684866cda33bfd311711fd76f88def0a929181900390910190a3506001949350505050565b60008173__AOLibrary_____________________________632d706a34826040518263ffffffff1660e060020a0281526004018082600160a060020a0316600160a060020a0316815260200191505060206040518083038186803b15801561156c57600080fd5b505af4158015611580573d6000803e3d6000fd5b505050506040513d602081101561159657600080fd5b505115156115a357600080fd5b600160a060020a038316600090815260126020908152604080832054600e83528184205460089093529220546115f092916115e4919063ffffffff61279416565b9063ffffffff61279416565b9392505050565b60026020526000908152604090205460ff1681565b60008173__AOLibrary_____________________________632d706a34826040518263ffffffff1660e060020a0281526004018082600160a060020a0316600160a060020a0316815260200191505060206040518083038186803b15801561167357600080fd5b505af4158015611687573d6000803e3d6000fd5b505050506040513d602081101561169d57600080fd5b505115156116aa57600080fd5b600160a060020a0383166000908152601060209081526040808320546008909252909120546115f09163ffffffff61278216565b600a54600160a060020a031681565b600054600160a060020a031681565b3360009081526002602052604081205460ff16151560011461171d57600080fd5b8273__AOLibrary_____________________________632d706a34826040518263ffffffff1660e060020a0281526004018082600160a060020a0316600160a060020a0316815260200191505060206040518083038186803b15801561178257600080fd5b505af4158015611796573d6000803e3d6000fd5b505050506040513d60208110156117ac57600080fd5b50518061183e57506040805160e260020a630bf29505028152600160a060020a0383166004820152905173__AOLibrary_____________________________91632fca5414916024808301926020929190829003018186803b15801561181157600080fd5b505af4158015611825573d6000803e3d6000fd5b505050506040513d602081101561183b57600080fd5b50515b151561184957600080fd5b600160a060020a03841660009081526008602052604090205483111561186e57600080fd5b600160a060020a038416600090815260086020526040902054611897908463ffffffff61278216565b600160a060020a0385166000908152600860205260409020556007546118c3908463ffffffff61278216565b600755604080518481529051600160a060020a038616917fcc16f5dbb4873280815c1ee09dbd06736cffcc184412cf7a71a0fdb75d397ca5919081900360200190a25060019392505050565b60008373__AOLibrary_____________________________632d706a34826040518263ffffffff1660e060020a0281526004018082600160a060020a0316600160a060020a0316815260200191505060206040518083038186803b15801561197657600080fd5b505af415801561198a573d6000803e3d6000fd5b505050506040513d60208110156119a057600080fd5b505115156119ad57600080fd5b8373__AOLibrary_____________________________632d706a34826040518263ffffffff1660e060020a0281526004018082600160a060020a0316600160a060020a0316815260200191505060206040518083038186803b158015611a1257600080fd5b505af4158015611a26573d6000803e3d6000fd5b505050506040513d6020811015611a3c57600080fd5b50511515611a4957600080fd5b600d546040805160e060020a633ebc2ab3028152600160a060020a03808a166004830152915189939290921691633ebc2ab3916024808201926020929091908290030181600087803b158015611a9e57600080fd5b505af1158015611ab2573d6000803e3d6000fd5b505050506040513d6020811015611ac857600080fd5b505115611ad457600080fd5b600d546040805160e060020a633ebc2ab3028152600160a060020a03808a166004830152915189939290921691633ebc2ab3916024808201926020929091908290030181600087803b158015611b2957600080fd5b505af1158015611b3d573d6000803e3d6000fd5b505050506040513d6020811015611b5357600080fd5b505115611b5f57600080fd5b600c54604080517f71ce52ed000000000000000000000000000000000000000000000000000000008152336004820152600160a060020a03808c16602483015291518b9392909216916371ce52ed916044808201926020929091908290030181600087803b158015611bd057600080fd5b505af1158015611be4573d6000803e3d6000fd5b505050506040513d6020811015611bfa57600080fd5b50511515611c0757600080fd5b600d54600b54604080517f029b7d530000000000000000000000000000000000000000000000000000000081523360048201529051600160a060020a0393841693633ebc2ab393169163029b7d539160248083019260209291908290030181600087803b158015611c7757600080fd5b505af1158015611c8b573d6000803e3d6000fd5b505050506040513d6020811015611ca157600080fd5b50516040805160e060020a63ffffffff8516028152600160a060020a0390921660048301525160248083019260209291908290030181600087803b158015611ce857600080fd5b505af1158015611cfc573d6000803e3d6000fd5b505050506040513d6020811015611d1257600080fd5b505115611d1e57600080fd5b600160a060020a038981169089161415611d3757600080fd5b600160a060020a03808a166000908152600f60209081526040808320938c1683529290522054871115611d6957600080fd5b600160a060020a03808a166000908152600f60209081526040808320938c1683529290522054611d9f908863ffffffff61278216565b600160a060020a03808b166000818152600f60209081526040808320948e168352938152838220949094559081526010909252902054611de5908863ffffffff61278216565b600160a060020a03808b16600090815260106020908152604080832094909455918b168152600e9091522054611e21908863ffffffff61278216565b600160a060020a03808a166000818152600e60209081526040918290209490945580518b815290519193928d16927f4062ffbe4dc631454bf05254af9c69f7be3ad81eea47c870de77ad1d5f60192b92918290030190a350600198975050505050505050565b600954600160a060020a031681565b60008373__AOLibrary_____________________________632d706a34826040518263ffffffff1660e060020a0281526004018082600160a060020a0316600160a060020a0316815260200191505060206040518083038186803b158015611efd57600080fd5b505af4158015611f11573d6000803e3d6000fd5b505050506040513d6020811015611f2757600080fd5b50511515611f3457600080fd5b8373__AOLibrary_____________________________632d706a34826040518263ffffffff1660e060020a0281526004018082600160a060020a0316600160a060020a0316815260200191505060206040518083038186803b158015611f9957600080fd5b505af4158015611fad573d6000803e3d6000fd5b505050506040513d6020811015611fc357600080fd5b50511515611fd057600080fd5b600d546040805160e060020a633ebc2ab3028152600160a060020a03808a166004830152915189939290921691633ebc2ab3916024808201926020929091908290030181600087803b15801561202557600080fd5b505af1158015612039573d6000803e3d6000fd5b505050506040513d602081101561204f57600080fd5b50511561205b57600080fd5b600d546040805160e060020a633ebc2ab3028152600160a060020a03808a166004830152915189939290921691633ebc2ab3916024808201926020929091908290030181600087803b1580156120b057600080fd5b505af11580156120c4573d6000803e3d6000fd5b505050506040513d60208110156120da57600080fd5b5051156120e657600080fd5b600c54604080517f71ce52ed000000000000000000000000000000000000000000000000000000008152336004820152600160a060020a03808c16602483015291518b9392909216916371ce52ed916044808201926020929091908290030181600087803b15801561215757600080fd5b505af115801561216b573d6000803e3d6000fd5b505050506040513d602081101561218157600080fd5b5051151561218e57600080fd5b600d54600b54604080517f029b7d530000000000000000000000000000000000000000000000000000000081523360048201529051600160a060020a0393841693633ebc2ab393169163029b7d539160248083019260209291908290030181600087803b1580156121fe57600080fd5b505af1158015612212573d6000803e3d6000fd5b505050506040513d602081101561222857600080fd5b50516040805160e060020a63ffffffff8516028152600160a060020a0390921660048301525160248083019260209291908290030181600087803b15801561226f57600080fd5b505af1158015612283573d6000803e3d6000fd5b505050506040513d602081101561229957600080fd5b5051156122a557600080fd5b600160a060020a0389811690891614156122be57600080fd5b866122c88a61160c565b10156122d357600080fd5b600160a060020a0388166000908152600e60205260409020546122fc818963ffffffff61279416565b101561230757600080fd5b600160a060020a03808a166000908152600f60209081526040808320938c168352929052205461233d908863ffffffff61279416565b600160a060020a03808b166000818152600f60209081526040808320948e168352938152838220949094559081526010909252902054612383908863ffffffff61279416565b600160a060020a03808b16600090815260106020908152604080832094909455918b168152600e90915220546123bf908863ffffffff61279416565b600160a060020a03808a166000818152600e60209081526040918290209490945580518b815290519193928d16927faa8842001e980c78016b1aeb01672b78a6e676667f9f43b8d3c78ac8b7233b6392918290030190a350600198975050505050505050565b6000546001546040805160e260020a633d9abf2b028152336004820152600160a060020a0393841660248201529290911660448301525173__AOLibrary_____________________________9163f66afcac916064808301926020929190829003018186803b15801561249757600080fd5b505af41580156124ab573d6000803e3d6000fd5b505050506040513d60208110156124c157600080fd5b505115156124ce57600080fd5b600160a060020a03811615156124e357600080fd5b6000805473ffffffffffffffffffffffffffffffffffffffff1916600160a060020a0392909216919091179055565b6000600160a060020a038316151561252957600080fd5b600160a060020a03841660009081526008602052604090205482111561254e57600080fd5b600160a060020a038316600090815260086020526040902054612577818463ffffffff61279416565b101561258257600080fd5b600160a060020a038084166000908152600860205260408082205492871682529020546125b49163ffffffff61279416565b600160a060020a0385166000908152600860205260409020549091506125e0908363ffffffff61278216565b600160a060020a038086166000908152600860205260408082209390935590851681522054612615908363ffffffff61279416565b600160a060020a0380851660008181526008602090815260409182902094909455805186815290519193928816927fddf252ad1be2c89b69c2b068fc378daa952ba7f163c4a11628f55a4df523b3ef92918290030190a3600160a060020a0380841660009081526008602052604080822054928716825290205482916126a1919063ffffffff61279416565b146126a857fe5b50505050565b600160a060020a0382166000908152600860205260409020546126d7908263ffffffff61279416565b600160a060020a038316600090815260086020526040902055600754612703908263ffffffff61279416565b60075560408051828152905130916000917fddf252ad1be2c89b69c2b068fc378daa952ba7f163c4a11628f55a4df523b3ef9181900360200190a3604080518281529051600160a060020a0384169130917fddf252ad1be2c89b69c2b068fc378daa952ba7f163c4a11628f55a4df523b3ef9181900360200190a35050565b60008282111561278e57fe5b50900390565b818101828110156127a157fe5b929150505600a165627a7a723058208fcbdfa68e7554d99b67bcefdabd38b426287f6c0a9dc30e35d7037ddaac49b30029",
	"source": "pragma solidity ^0.4.24;\n\nimport \"./TAOCurrency.sol\";\nimport \"./INameFactory.sol\";\nimport \"./INameTAOPosition.sol\";\nimport './INameAccountRecovery.sol';\n\ncontract Logos is TAOCurrency {\n\taddress public nameFactoryAddress;\n\taddress public nameAccountRecoveryAddress;\n\n\tINameFactory internal _nameFactory;\n\tINameTAOPosition internal _nameTAOPosition;\n\tINameAccountRecovery internal _nameAccountRecovery;\n\n\t// Mapping of a Name ID to the amount of Logos positioned by others to itself\n\t// address is the address of nameId, not the eth public address\n\tmapping (address => uint256) public positionFromOthers;\n\n\t// Mapping of Name ID to other Name ID and the amount of Logos positioned by itself\n\tmapping (address => mapping(address => uint256)) public positionOnOthers;\n\n\t// Mapping of a Name ID to the total amount of Logos positioned by itself on others\n\tmapping (address => uint256) public totalPositionOnOthers;\n\n\t// Mapping of Name ID to it's advocated TAO ID and the amount of Logos earned\n\tmapping (address => mapping(address => uint256)) public advocatedTAOLogos;\n\n\t// Mapping of a Name ID to the total amount of Logos earned from advocated TAO\n\tmapping (address => uint256) public totalAdvocatedTAOLogos;\n\n\t// Event broadcasted to public when `from` address position `value` Logos to `to`\n\tevent PositionFrom(address indexed from, address indexed to, uint256 value);\n\n\t// Event broadcasted to public when `from` address unposition `value` Logos from `to`\n\tevent UnpositionFrom(address indexed from, address indexed to, uint256 value);\n\n\t// Event broadcasted to public when `nameId` receives `amount` of Logos from advocating `taoId`\n\tevent AddAdvocatedTAOLogos(address indexed nameId, address indexed taoId, uint256 amount);\n\n\t// Event broadcasted to public when Logos from advocating `taoId` is transferred from `fromNameId` to `toNameId`\n\tevent TransferAdvocatedTAOLogos(address indexed fromNameId, address indexed toNameId, address indexed taoId, uint256 amount);\n\n\t/**\n\t * @dev Constructor function\n\t */\n\tconstructor(string _name, string _symbol, address _nameFactoryAddress, address _nameTAOPositionAddress)\n\t\tTAOCurrency(_name, _symbol, _nameTAOPositionAddress) public {\n\t\tsetNameFactoryAddress(_nameFactoryAddress);\n\t\tsetNameTAOPositionAddress(_nameTAOPositionAddress);\n\t}\n\n\t/**\n\t * @dev Check if `_taoId` is a TAO\n\t */\n\tmodifier isTAO(address _taoId) {\n\t\trequire (AOLibrary.isTAO(_taoId));\n\t\t_;\n\t}\n\n\t/**\n\t * @dev Check if `_nameId` is a Name\n\t */\n\tmodifier isName(address _nameId) {\n\t\trequire (AOLibrary.isName(_nameId));\n\t\t_;\n\t}\n\n\t/**\n\t * @dev Check if msg.sender is the current advocate of _id\n\t */\n\tmodifier onlyAdvocate(address _id) {\n\t\trequire (_nameTAOPosition.senderIsAdvocate(msg.sender, _id));\n\t\t_;\n\t}\n\n\t/**\n\t * @dev Only allowed if Name is not compromised\n\t */\n\tmodifier nameNotCompromised(address _id) {\n\t\trequire (!_nameAccountRecovery.isCompromised(_id));\n\t\t_;\n\t}\n\n\t/**\n\t * @dev Only allowed if sender's Name is not compromised\n\t */\n\tmodifier senderNameNotCompromised() {\n\t\trequire (!_nameAccountRecovery.isCompromised(_nameFactory.ethAddressToNameId(msg.sender)));\n\t\t_;\n\t}\n\n\t/***** THE AO ONLY METHODS *****/\n\t/**\n\t * @dev The AO sets NameFactory address\n\t * @param _nameFactoryAddress The address of NameFactory\n\t */\n\tfunction setNameFactoryAddress(address _nameFactoryAddress) public onlyTheAO {\n\t\trequire (_nameFactoryAddress != address(0));\n\t\tnameFactoryAddress = _nameFactoryAddress;\n\t\t_nameFactory = INameFactory(_nameFactoryAddress);\n\t}\n\n\t/**\n\t * @dev The AO set the NameTAOPosition Address\n\t * @param _nameTAOPositionAddress The address of NameTAOPosition\n\t */\n\tfunction setNameTAOPositionAddress(address _nameTAOPositionAddress) public onlyTheAO {\n\t\trequire (_nameTAOPositionAddress != address(0));\n\t\tnameTAOPositionAddress = _nameTAOPositionAddress;\n\t\t_nameTAOPosition = INameTAOPosition(_nameTAOPositionAddress);\n\t}\n\n\t/**\n\t * @dev The AO set the NameAccountRecovery Address\n\t * @param _nameAccountRecoveryAddress The address of NameAccountRecovery\n\t */\n\tfunction setNameAccountRecoveryAddress(address _nameAccountRecoveryAddress) public onlyTheAO {\n\t\trequire (_nameAccountRecoveryAddress != address(0));\n\t\tnameAccountRecoveryAddress = _nameAccountRecoveryAddress;\n\t\t_nameAccountRecovery = INameAccountRecovery(nameAccountRecoveryAddress);\n\t}\n\n\t/***** PUBLIC METHODS *****/\n\t/**\n\t * @dev Get the total sum of Logos for an address\n\t * @param _target The address to check\n\t * @return The total sum of Logos (own + positioned + advocated TAOs)\n\t */\n\tfunction sumBalanceOf(address _target) public isName(_target) view returns (uint256) {\n\t\treturn balanceOf[_target].add(positionFromOthers[_target]).add(totalAdvocatedTAOLogos[_target]);\n\t}\n\n\t/**\n\t * @dev Return the amount of Logos that are available to be positioned on other\n\t * @param _sender The sender address to check\n\t * @return The amount of Logos that are available to be positioned on other\n\t */\n\tfunction availableToPositionAmount(address _sender) public isName(_sender) view returns (uint256) {\n\t\treturn balanceOf[_sender].sub(totalPositionOnOthers[_sender]);\n\t}\n\n\t/**\n\t * @dev `_from` Name position `_value` Logos onto `_to` Name\n\t *\n\t * @param _from The address of the sender\n\t * @param _to The address of the recipient\n\t * @param _value the amount to position\n\t * @return true on success\n\t */\n\tfunction positionFrom(address _from, address _to, uint256 _value) public isName(_from) isName(_to) nameNotCompromised(_from) nameNotCompromised(_to) onlyAdvocate(_from) senderNameNotCompromised returns (bool) {\n\t\trequire (_from != _to);\t// Can't position Logos to itself\n\t\trequire (availableToPositionAmount(_from) >= _value); // should have enough balance to position\n\t\trequire (positionFromOthers[_to].add(_value) >= positionFromOthers[_to]); // check for overflows\n\n\t\tpositionOnOthers[_from][_to] = positionOnOthers[_from][_to].add(_value);\n\t\ttotalPositionOnOthers[_from] = totalPositionOnOthers[_from].add(_value);\n\t\tpositionFromOthers[_to] = positionFromOthers[_to].add(_value);\n\n\t\temit PositionFrom(_from, _to, _value);\n\t\treturn true;\n\t}\n\n\t/**\n\t * @dev `_from` Name unposition `_value` Logos from `_to` Name\n\t *\n\t * @param _from The address of the sender\n\t * @param _to The address of the recipient\n\t * @param _value the amount to unposition\n\t * @return true on success\n\t */\n\tfunction unpositionFrom(address _from, address _to, uint256 _value) public isName(_from) isName(_to) nameNotCompromised(_from) nameNotCompromised(_to) onlyAdvocate(_from) senderNameNotCompromised returns (bool) {\n\t\trequire (_from != _to);\t// Can't unposition Logos to itself\n\t\trequire (positionOnOthers[_from][_to] >= _value);\n\n\t\tpositionOnOthers[_from][_to] = positionOnOthers[_from][_to].sub(_value);\n\t\ttotalPositionOnOthers[_from] = totalPositionOnOthers[_from].sub(_value);\n\t\tpositionFromOthers[_to] = positionFromOthers[_to].sub(_value);\n\n\t\temit UnpositionFrom(_from, _to, _value);\n\t\treturn true;\n\t}\n\n\t/**\n\t * @dev Add `_amount` logos earned from advocating a TAO `_taoId` to its Advocate\n\t * @param _taoId The ID of the advocated TAO\n\t * @param _amount the amount to reward\n\t * @return true on success\n\t */\n\tfunction addAdvocatedTAOLogos(address _taoId, uint256 _amount) public inWhitelist isTAO(_taoId) returns (bool) {\n\t\trequire (_amount > 0);\n\t\taddress _nameId = _nameTAOPosition.getAdvocate(_taoId);\n\n\t\tadvocatedTAOLogos[_nameId][_taoId] = advocatedTAOLogos[_nameId][_taoId].add(_amount);\n\t\ttotalAdvocatedTAOLogos[_nameId] = totalAdvocatedTAOLogos[_nameId].add(_amount);\n\n\t\temit AddAdvocatedTAOLogos(_nameId, _taoId, _amount);\n\t\treturn true;\n\t}\n\n\t/**\n\t * @dev Transfer logos earned from advocating a TAO `_taoId` from `_fromNameId` to the Advocate of `_taoId`\n\t * @param _fromNameId The ID of the Name that sends the Logos\n\t * @param _taoId The ID of the advocated TAO\n\t * @return true on success\n\t */\n\tfunction transferAdvocatedTAOLogos(address _fromNameId, address _taoId) public inWhitelist isName(_fromNameId) isTAO(_taoId) returns (bool) {\n\t\taddress _toNameId = _nameTAOPosition.getAdvocate(_taoId);\n\t\trequire (_fromNameId != _toNameId);\n\t\trequire (totalAdvocatedTAOLogos[_fromNameId] >= advocatedTAOLogos[_fromNameId][_taoId]);\n\n\t\tuint256 _amount = advocatedTAOLogos[_fromNameId][_taoId];\n\t\tadvocatedTAOLogos[_fromNameId][_taoId] = 0;\n\t\ttotalAdvocatedTAOLogos[_fromNameId] = totalAdvocatedTAOLogos[_fromNameId].sub(_amount);\n\t\tadvocatedTAOLogos[_toNameId][_taoId] = advocatedTAOLogos[_toNameId][_taoId].add(_amount);\n\t\ttotalAdvocatedTAOLogos[_toNameId] = totalAdvocatedTAOLogos[_toNameId].add(_amount);\n\n\t\temit TransferAdvocatedTAOLogos(_fromNameId, _toNameId, _taoId, _amount);\n\t\treturn true;\n\t}\n}\n",
	"sourcePath": "/data/jmulyono/ao-contracts/contracts/Logos.sol",
	"compiler": {
		"name": "solc",
		"version": "0.4.24+commit.e67f0147.Emscripten.clang"
	},
	"schemaVersion": "2.0.1",
	"updatedAt": "2019-02-22T08:49:01.043Z"
}