{
	"contractName": "LogosTreasury",
	"abi": [
		{
			"constant": true,
			"inputs": [
				{
					"name": "integerAmount",
					"type": "uint256"
				},
				{
					"name": "fractionAmount",
					"type": "uint256"
				},
				{
					"name": "denominationName",
					"type": "bytes8"
				}
			],
			"name": "toBase",
			"outputs": [
				{
					"name": "",
					"type": "uint256"
				}
			],
			"payable": false,
			"stateMutability": "view",
			"type": "function"
		},
		{
			"constant": false,
			"inputs": [
				{
					"name": "denominationName",
					"type": "bytes8"
				},
				{
					"name": "denominationAddress",
					"type": "address"
				}
			],
			"name": "updateDenomination",
			"outputs": [
				{
					"name": "",
					"type": "bool"
				}
			],
			"payable": false,
			"stateMutability": "nonpayable",
			"type": "function"
		},
		{
			"constant": true,
			"inputs": [
				{
					"name": "_exchangeId",
					"type": "bytes32"
				}
			],
			"name": "getDenominationExchangeById",
			"outputs": [
				{
					"name": "",
					"type": "address"
				},
				{
					"name": "",
					"type": "address"
				},
				{
					"name": "",
					"type": "address"
				},
				{
					"name": "",
					"type": "string"
				},
				{
					"name": "",
					"type": "string"
				},
				{
					"name": "",
					"type": "uint256"
				}
			],
			"payable": false,
			"stateMutability": "view",
			"type": "function"
		},
		{
			"constant": true,
			"inputs": [],
			"name": "nameTAOPositionAddress",
			"outputs": [
				{
					"name": "",
					"type": "address"
				}
			],
			"payable": false,
			"stateMutability": "view",
			"type": "function"
		},
		{
			"constant": false,
			"inputs": [
				{
					"name": "_account",
					"type": "address"
				},
				{
					"name": "_whitelist",
					"type": "bool"
				}
			],
			"name": "setWhitelist",
			"outputs": [],
			"payable": false,
			"stateMutability": "nonpayable",
			"type": "function"
		},
		{
			"constant": true,
			"inputs": [],
			"name": "totalDenominations",
			"outputs": [
				{
					"name": "",
					"type": "uint256"
				}
			],
			"payable": false,
			"stateMutability": "view",
			"type": "function"
		},
		{
			"constant": false,
			"inputs": [
				{
					"name": "_nameTAOPositionAddress",
					"type": "address"
				}
			],
			"name": "setNameTAOPositionAddress",
			"outputs": [],
			"payable": false,
			"stateMutability": "nonpayable",
			"type": "function"
		},
		{
			"constant": true,
			"inputs": [
				{
					"name": "index",
					"type": "uint256"
				}
			],
			"name": "getDenominationByIndex",
			"outputs": [
				{
					"name": "",
					"type": "bytes8"
				},
				{
					"name": "",
					"type": "address"
				},
				{
					"name": "",
					"type": "string"
				},
				{
					"name": "",
					"type": "string"
				},
				{
					"name": "",
					"type": "uint8"
				},
				{
					"name": "",
					"type": "uint256"
				}
			],
			"payable": false,
			"stateMutability": "view",
			"type": "function"
		},
		{
			"constant": false,
			"inputs": [
				{
					"name": "amount",
					"type": "uint256"
				},
				{
					"name": "fromDenominationName",
					"type": "bytes8"
				},
				{
					"name": "toDenominationName",
					"type": "bytes8"
				}
			],
			"name": "exchangeDenomination",
			"outputs": [],
			"payable": false,
			"stateMutability": "nonpayable",
			"type": "function"
		},
		{
			"constant": false,
			"inputs": [
				{
					"name": "_nameFactoryAddress",
					"type": "address"
				}
			],
			"name": "setNameFactoryAddress",
			"outputs": [],
			"payable": false,
			"stateMutability": "nonpayable",
			"type": "function"
		},
		{
			"constant": true,
			"inputs": [
				{
					"name": "denominationName",
					"type": "bytes8"
				}
			],
			"name": "isDenominationExist",
			"outputs": [
				{
					"name": "",
					"type": "bool"
				}
			],
			"payable": false,
			"stateMutability": "view",
			"type": "function"
		},
		{
			"constant": true,
			"inputs": [
				{
					"name": "amount",
					"type": "uint256"
				}
			],
			"name": "toHighestDenomination",
			"outputs": [
				{
					"name": "",
					"type": "bytes8"
				},
				{
					"name": "",
					"type": "address"
				},
				{
					"name": "",
					"type": "uint256"
				},
				{
					"name": "",
					"type": "uint256"
				},
				{
					"name": "",
					"type": "string"
				},
				{
					"name": "",
					"type": "string"
				},
				{
					"name": "",
					"type": "uint8"
				},
				{
					"name": "",
					"type": "uint256"
				}
			],
			"payable": false,
			"stateMutability": "view",
			"type": "function"
		},
		{
			"constant": true,
			"inputs": [
				{
					"name": "",
					"type": "address"
				}
			],
			"name": "whitelist",
			"outputs": [
				{
					"name": "",
					"type": "bool"
				}
			],
			"payable": false,
			"stateMutability": "view",
			"type": "function"
		},
		{
			"constant": true,
			"inputs": [],
			"name": "totalDenominationExchanges",
			"outputs": [
				{
					"name": "",
					"type": "uint256"
				}
			],
			"payable": false,
			"stateMutability": "view",
			"type": "function"
		},
		{
			"constant": true,
			"inputs": [
				{
					"name": "integerAmount",
					"type": "uint256"
				},
				{
					"name": "denominationName",
					"type": "bytes8"
				}
			],
			"name": "fromBase",
			"outputs": [
				{
					"name": "",
					"type": "uint256"
				},
				{
					"name": "",
					"type": "uint256"
				}
			],
			"payable": false,
			"stateMutability": "view",
			"type": "function"
		},
		{
			"constant": true,
			"inputs": [],
			"name": "theAO",
			"outputs": [
				{
					"name": "",
					"type": "address"
				}
			],
			"payable": false,
			"stateMutability": "view",
			"type": "function"
		},
		{
			"constant": true,
			"inputs": [
				{
					"name": "denominationName",
					"type": "bytes8"
				}
			],
			"name": "getDenominationByName",
			"outputs": [
				{
					"name": "",
					"type": "bytes8"
				},
				{
					"name": "",
					"type": "address"
				},
				{
					"name": "",
					"type": "string"
				},
				{
					"name": "",
					"type": "string"
				},
				{
					"name": "",
					"type": "uint8"
				},
				{
					"name": "",
					"type": "uint256"
				}
			],
			"payable": false,
			"stateMutability": "view",
			"type": "function"
		},
		{
			"constant": true,
			"inputs": [],
			"name": "nameFactoryAddress",
			"outputs": [
				{
					"name": "",
					"type": "address"
				}
			],
			"payable": false,
			"stateMutability": "view",
			"type": "function"
		},
		{
			"constant": false,
			"inputs": [
				{
					"name": "denominationName",
					"type": "bytes8"
				},
				{
					"name": "denominationAddress",
					"type": "address"
				}
			],
			"name": "addDenomination",
			"outputs": [
				{
					"name": "",
					"type": "bool"
				}
			],
			"payable": false,
			"stateMutability": "nonpayable",
			"type": "function"
		},
		{
			"constant": true,
			"inputs": [],
			"name": "getBaseDenomination",
			"outputs": [
				{
					"name": "",
					"type": "bytes8"
				},
				{
					"name": "",
					"type": "address"
				},
				{
					"name": "",
					"type": "string"
				},
				{
					"name": "",
					"type": "string"
				},
				{
					"name": "",
					"type": "uint8"
				},
				{
					"name": "",
					"type": "uint256"
				}
			],
			"payable": false,
			"stateMutability": "view",
			"type": "function"
		},
		{
			"constant": false,
			"inputs": [
				{
					"name": "_theAO",
					"type": "address"
				}
			],
			"name": "transferOwnership",
			"outputs": [],
			"payable": false,
			"stateMutability": "nonpayable",
			"type": "function"
		},
		{
			"inputs": [
				{
					"name": "_nameFactoryAddress",
					"type": "address"
				},
				{
					"name": "_nameTAOPositionAddress",
					"type": "address"
				}
			],
			"payable": false,
			"stateMutability": "nonpayable",
			"type": "constructor"
		},
		{
			"anonymous": false,
			"inputs": [
				{
					"indexed": true,
					"name": "nameId",
					"type": "address"
				},
				{
					"indexed": true,
					"name": "exchangeId",
					"type": "bytes32"
				},
				{
					"indexed": false,
					"name": "amount",
					"type": "uint256"
				},
				{
					"indexed": false,
					"name": "fromDenominationAddress",
					"type": "address"
				},
				{
					"indexed": false,
					"name": "fromDenominationSymbol",
					"type": "string"
				},
				{
					"indexed": false,
					"name": "toDenominationAddress",
					"type": "address"
				},
				{
					"indexed": false,
					"name": "toDenominationSymbol",
					"type": "string"
				}
			],
			"name": "ExchangeDenomination",
			"type": "event"
		}
	],
	"bytecode": "0x60806040523480156200001157600080fd5b50604051604080620031e683398101604052805160209091015160008054600160a060020a031916331790558181620000538264010000000062000071810204565b620000678164010000000062000176810204565b5050505062000271565b600054600154604080517ff66afcac000000000000000000000000000000000000000000000000000000008152336004820152600160a060020a0393841660248201529290911660448301525173__AOLibrary_____________________________9163f66afcac916064808301926020929190829003018186803b158015620000fa57600080fd5b505af41580156200010f573d6000803e3d6000fd5b505050506040513d60208110156200012657600080fd5b505115156200013457600080fd5b600160a060020a03811615156200014a57600080fd5b60058054600160a060020a03909216600160a060020a0319928316811790915560068054909216179055565b600054600154604080517ff66afcac000000000000000000000000000000000000000000000000000000008152336004820152600160a060020a0393841660248201529290911660448301525173__AOLibrary_____________________________9163f66afcac916064808301926020929190829003018186803b158015620001ff57600080fd5b505af415801562000214573d6000803e3d6000fd5b505050506040513d60208110156200022b57600080fd5b505115156200023957600080fd5b600160a060020a03811615156200024f57600080fd5b60018054600160a060020a031916600160a060020a0392909216919091179055565b612f6580620002816000396000f3006080604052600436106101035763ffffffff60e060020a600035041663217db8e881146101085780633d9f923b14610142578063446ea599146101845780634ef033f0146102cc57806353d6fd59146102fd5780635768f84d146103255780635cfaf2ef1461033a5780635d9907911461035b5780636e006924146104575780638c9243611461048257806390358f5d146104a3578063932fd99f146104c55780639b19251a146106115780639d28d1d014610632578063a46a891e14610647578063a9b6b38e14610685578063aa25c7441461069a578063bc406206146106bc578063c1e52775146106d1578063dc689d3c146106ff578063f2fde38b14610714575b600080fd5b34801561011457600080fd5b50610130600435602435600160c060020a031960443516610735565b60408051918252519081900360200190f35b34801561014e57600080fd5b50610170600160c060020a031960043516600160a060020a0360243516610a8a565b604080519115158252519081900360200190f35b34801561019057600080fd5b5061019c600435610ea0565b6040518087600160a060020a0316600160a060020a0316815260200186600160a060020a0316600160a060020a0316815260200185600160a060020a0316600160a060020a031681526020018060200180602001848152602001838103835286818151815260200191508051906020019080838360005b8381101561022b578181015183820152602001610213565b50505050905090810190601f1680156102585780820380516001836020036101000a031916815260200191505b50838103825285518152855160209182019187019080838360005b8381101561028b578181015183820152602001610273565b50505050905090810190601f1680156102b85780820380516001836020036101000a031916815260200191505b509850505050505050505060405180910390f35b3480156102d857600080fd5b506102e16110f2565b60408051600160a060020a039092168252519081900360200190f35b34801561030957600080fd5b50610323600160a060020a03600435166024351515611101565b005b34801561033157600080fd5b506101306111ea565b34801561034657600080fd5b50610323600160a060020a03600435166111f0565b34801561036757600080fd5b506103736004356112dd565b6040518087600160c060020a031916600160c060020a031916815260200186600160a060020a0316600160a060020a0316815260200180602001806020018560ff1660ff168152602001848152602001838103835287818151815260200191508051906020019080838360005b838110156103f85781810151838201526020016103e0565b50505050905090810190601f1680156104255780820380516001836020036101000a031916815260200191505b50838103825286518152865160209182019188019080838360008381101561028b578181015183820152602001610273565b34801561046357600080fd5b50610323600435600160c060020a0319602435811690604435166115f3565b34801561048e57600080fd5b50610323600160a060020a0360043516611edf565b3480156104af57600080fd5b50610170600160c060020a031960043516611fd6565b3480156104d157600080fd5b506104dd600435612090565b6040518089600160c060020a031916600160c060020a031916815260200188600160a060020a0316600160a060020a0316815260200187815260200186815260200180602001806020018560ff1660ff168152602001848152602001838103835287818151815260200191508051906020019080838360005b8381101561056e578181015183820152602001610556565b50505050905090810190601f16801561059b5780820380516001836020036101000a031916815260200191505b50838103825286518152865160209182019188019080838360005b838110156105ce5781810151838201526020016105b6565b50505050905090810190601f1680156105fb5780820380516001836020036101000a031916815260200191505b509a505050505050505050505060405180910390f35b34801561061d57600080fd5b50610170600160a060020a03600435166124b1565b34801561063e57600080fd5b506101306124c6565b34801561065357600080fd5b5061066c600435600160c060020a0319602435166124cc565b6040805192835260208301919091528051918290030190f35b34801561069157600080fd5b506102e16126e0565b3480156106a657600080fd5b50610373600160c060020a0319600435166126ef565b3480156106c857600080fd5b506102e1612a69565b3480156106dd57600080fd5b50610170600160c060020a031960043516600160a060020a0360243516612a78565b34801561070b57600080fd5b50610373612d73565b34801561072057600080fd5b50610323600160a060020a0360043516612daa565b600080610740612ef4565b6040805160e060020a6390358f5d028152600160c060020a03198616600482015290518693506000918291829130916390358f5d9160248082019260209290919082900301818787803b15801561079657600080fd5b505af11580156107aa573d6000803e3d6000fd5b505050506040513d60208110156107c057600080fd5b505180156107d8575060008911806107d85750600085115b15610a7957600160c060020a03198781166000908152600860209081526040808320548352600782529182902082518084018452905460c060020a8102909416815268010000000000000000909304600160a060020a031683820181905282517fdb9d28d5000000000000000000000000000000000000000000000000000000008152600481018a90529251939750955073__AOLibrary_____________________________9263db9d28d5926024808201939291829003018186803b1580156108a157600080fd5b505af41580156108b5573d6000803e3d6000fd5b505050506040513d60208110156108cb57600080fd5b5051604080517f313ce5670000000000000000000000000000000000000000000000000000000081529051919350600160a060020a0385169163313ce567916004808201926020929091908290030181600087803b15801561092c57600080fd5b505af1158015610940573d6000803e3d6000fd5b505050506040513d602081101561095657600080fd5b505160ff908116908316111561096b57600080fd5b6109e883600160a060020a0316630aa245466040518163ffffffff1660e060020a028152600401602060405180830381600087803b1580156109ac57600080fd5b505af11580156109c0573d6000803e3d6000fd5b505050506040513d60208110156109d657600080fd5b50518a90600a0a63ffffffff612e9716565b905082600160a060020a031663313ce5676040518163ffffffff1660e060020a028152600401602060405180830381600087803b158015610a2857600080fd5b505af1158015610a3c573d6000803e3d6000fd5b505050506040513d6020811015610a5257600080fd5b505160ff161515610a6257600094505b610a72818663ffffffff612ec016565b9550610a7e565b600095505b50505050509392505050565b600080546001546040805160e260020a633d9abf2b028152336004820152600160a060020a03938416602482015292909116604483015251829182918291829173__AOLibrary_____________________________9163f66afcac916064808301926020929190829003018186803b158015610b0557600080fd5b505af4158015610b19573d6000803e3d6000fd5b505050506040513d6020811015610b2f57600080fd5b50511515610b3c57600080fd5b6040805160e060020a6390358f5d028152600160c060020a0319891660048201529051889130916390358f5d916024808201926020929091908290030181600087803b158015610b8b57600080fd5b505af1158015610b9f573d6000803e3d6000fd5b505050506040513d6020811015610bb557600080fd5b50511515610bc257600080fd5b600160a060020a0387161515610bd757600080fd5b600160c060020a0319881660009081526008602052604090205494508693506001851115610d13576007600060018703815260200190815260200160002060000160089054906101000a9004600160a060020a0316925082600160a060020a0316630aa245466040518163ffffffff1660e060020a028152600401602060405180830381600087803b158015610c6c57600080fd5b505af1158015610c80573d6000803e3d6000fd5b505050506040513d6020811015610c9657600080fd5b50516040805160e160020a63055122a30281529051600160a060020a03871691630aa245469160048083019260209291908290030181600087803b158015610cdd57600080fd5b505af1158015610cf1573d6000803e3d6000fd5b505050506040513d6020811015610d0757600080fd5b505111610d1357600080fd5b600354851015610e305760076000600354815260200190815260200160002060000160089054906101000a9004600160a060020a0316915081600160a060020a0316630aa245466040518163ffffffff1660e060020a028152600401602060405180830381600087803b158015610d8957600080fd5b505af1158015610d9d573d6000803e3d6000fd5b505050506040513d6020811015610db357600080fd5b50516040805160e160020a63055122a30281529051600160a060020a03871691630aa245469160048083019260209291908290030181600087803b158015610dfa57600080fd5b505af1158015610e0e573d6000803e3d6000fd5b505050506040513d6020811015610e2457600080fd5b505110610e3057600080fd5b600160c060020a031988166000908152600860209081526040808320548352600790915290208054600160a060020a03891668010000000000000000027bffffffffffffffffffffffffffffffffffffffff00000000000000001990911617905560019550505050505092915050565b60008060006060806000610eb2612f0b565b6000888152600a602052604081205411610ecb57600080fd5b506000878152600a6020908152604080832054835260098252808320815160a081018352815481526001820154600160a060020a0390811694820185905260028301548116828501819052600384015490911660608301819052600493840154608084015284517f95d89b41000000000000000000000000000000000000000000000000000000008152945192969194909385936395d89b41938383019390929082900301818387803b158015610f8157600080fd5b505af1158015610f95573d6000803e3d6000fd5b505050506040513d6000823e601f3d908101601f191682016040526020811015610fbe57600080fd5b810190808051640100000000811115610fd657600080fd5b82016020810184811115610fe957600080fd5b815164010000000081118282018710171561100357600080fd5b50509291905050508460600151600160a060020a03166395d89b416040518163ffffffff1660e060020a028152600401600060405180830381600087803b15801561104d57600080fd5b505af1158015611061573d6000803e3d6000fd5b505050506040513d6000823e601f3d908101601f19168201604052602081101561108a57600080fd5b8101908080516401000000008111156110a257600080fd5b820160208101848111156110b557600080fd5b81516401000000008111828201871017156110cf57600080fd5b505060809890980151969f959e50939c50919a5094985092965090945050505050565b600154600160a060020a031681565b6000546001546040805160e260020a633d9abf2b028152336004820152600160a060020a0393841660248201529290911660448301525173__AOLibrary_____________________________9163f66afcac916064808301926020929190829003018186803b15801561117357600080fd5b505af4158015611187573d6000803e3d6000fd5b505050506040513d602081101561119d57600080fd5b505115156111aa57600080fd5b600160a060020a03821615156111bf57600080fd5b600160a060020a03919091166000908152600260205260409020805460ff1916911515919091179055565b60035481565b6000546001546040805160e260020a633d9abf2b028152336004820152600160a060020a0393841660248201529290911660448301525173__AOLibrary_____________________________9163f66afcac916064808301926020929190829003018186803b15801561126257600080fd5b505af4158015611276573d6000803e3d6000fd5b505050506040513d602081101561128c57600080fd5b5051151561129957600080fd5b600160a060020a03811615156112ae57600080fd5b6001805473ffffffffffffffffffffffffffffffffffffffff1916600160a060020a0392909216919091179055565b600080606080600080600080881180156112f957506003548811155b151561130457600080fd5b600088815260076020526040902054680100000000000000009004600160a060020a0316151561133357600080fd5b506000878152600760205260408082205481517f06fdde030000000000000000000000000000000000000000000000000000000081529151600160a060020a03680100000000000000008304169360c060020a90920292849283926306fdde0392600480820193929182900301818387803b1580156113b157600080fd5b505af11580156113c5573d6000803e3d6000fd5b505050506040513d6000823e601f3d908101601f1916820160405260208110156113ee57600080fd5b81019080805164010000000081111561140657600080fd5b8201602081018481111561141957600080fd5b815164010000000081118282018710171561143357600080fd5b505092919050505083600160a060020a03166395d89b416040518163ffffffff1660e060020a028152600401600060405180830381600087803b15801561147957600080fd5b505af115801561148d573d6000803e3d6000fd5b505050506040513d6000823e601f3d908101601f1916820160405260208110156114b657600080fd5b8101908080516401000000008111156114ce57600080fd5b820160208101848111156114e157600080fd5b81516401000000008111828201871017156114fb57600080fd5b505092919050505084600160a060020a031663313ce5676040518163ffffffff1660e060020a028152600401602060405180830381600087803b15801561154157600080fd5b505af1158015611555573d6000803e3d6000fd5b505050506040513d602081101561156b57600080fd5b50516040805160e160020a63055122a30281529051600160a060020a03881691630aa245469160048083019260209291908290030181600087803b1580156115b257600080fd5b505af11580156115c6573d6000803e3d6000fd5b505050506040513d60208110156115dc57600080fd5b5051949d939c50919a509850965090945092505050565b60006115fd612ef4565b611605612ef4565b6000806000808830600160a060020a03166390358f5d826040518263ffffffff1660e060020a0281526004018082600160c060020a031916600160c060020a0319168152602001915050602060405180830381600087803b15801561166957600080fd5b505af115801561167d573d6000803e3d6000fd5b505050506040513d602081101561169357600080fd5b505115156116a057600080fd5b6040805160e060020a6390358f5d028152600160c060020a03198b16600482015290518a9130916390358f5d916024808201926020929091908290030181600087803b1580156116ef57600080fd5b505af1158015611703573d6000803e3d6000fd5b505050506040513d602081101561171957600080fd5b5051151561172657600080fd5b600654604080517f029b7d530000000000000000000000000000000000000000000000000000000081523360048201529051600160a060020a039092169163029b7d53916024808201926020929091908290030181600087803b15801561178c57600080fd5b505af11580156117a0573d6000803e3d6000fd5b505050506040513d60208110156117b657600080fd5b50519850600160a060020a03891615156117cf57600080fd5b60008c116117dc57600080fd5b60076000600860008e600160c060020a031916600160c060020a03191681526020019081526020016000205481526020019081526020016000206040805190810160405290816000820160009054906101000a900460c060020a02600160c060020a031916600160c060020a03191681526020016000820160089054906101000a9004600160a060020a0316600160a060020a0316600160a060020a031681525050975060076000600860008d600160c060020a031916600160c060020a03191681526020019081526020016000205481526020019081526020016000206040805190810160405290816000820160009054906101000a900460c060020a02600160c060020a031916600160c060020a03191681526020016000820160089054906101000a9004600160a060020a0316600160a060020a0316600160a060020a0316815250509650876020015195508660200151945085600160a060020a031663b1e19d458a8e6040518363ffffffff1660e060020a0281526004018083600160a060020a0316600160a060020a0316815260200182815260200192505050602060405180830381600087803b15801561199557600080fd5b505af11580156119a9573d6000803e3d6000fd5b505050506040513d60208110156119bf57600080fd5b505115156119cc57600080fd5b84600160a060020a03166340c10f198a8e6040518363ffffffff1660e060020a0281526004018083600160a060020a0316600160a060020a0316815260200182815260200192505050602060405180830381600087803b158015611a2f57600080fd5b505af1158015611a43573d6000803e3d6000fd5b505050506040513d6020811015611a5957600080fd5b50511515611a6657600080fd5b6004805460010190819055604080516c01000000000000000000000000308102602080840191909152600160a060020a038e16909102603483015260488083019490945282518083039094018452606890910191829052825182918401908083835b60208310611ae75780518252601f199092019160209182019101611ac8565b6001836020036101000a03801982511681845116808217855250505050505090500191505060405180910390209350600454600a6000866000191660001916815260200190815260200160002081905550600960006004548152602001908152602001600020925083836000018160001916905550888360010160006101000a815481600160a060020a030219169083600160a060020a0316021790555087602001518360020160006101000a815481600160a060020a030219169083600160a060020a0316021790555086602001518360030160006101000a815481600160a060020a030219169083600160a060020a031602179055508b8360040181905550836000191689600160a060020a03167f82cf2552454b8d1e8c4cdb9c621ef4e6cb79e8614fa8044ce1903ae97eb46ff38e8b602001518c60200151600160a060020a03166395d89b416040518163ffffffff1660e060020a028152600401600060405180830381600087803b158015611c6057600080fd5b505af1158015611c74573d6000803e3d6000fd5b505050506040513d6000823e601f3d908101601f191682016040526020811015611c9d57600080fd5b810190808051640100000000811115611cb557600080fd5b82016020810184811115611cc857600080fd5b8151640100000000811182820187101715611ce257600080fd5b50509291905050508c602001518d60200151600160a060020a03166395d89b416040518163ffffffff1660e060020a028152600401600060405180830381600087803b158015611d3157600080fd5b505af1158015611d45573d6000803e3d6000fd5b505050506040513d6000823e601f3d908101601f191682016040526020811015611d6e57600080fd5b810190808051640100000000811115611d8657600080fd5b82016020810184811115611d9957600080fd5b8151640100000000811182820187101715611db357600080fd5b50509291905050506040518086815260200185600160a060020a0316600160a060020a031681526020018060200184600160a060020a0316600160a060020a0316815260200180602001838103835286818151815260200191508051906020019080838360005b83811015611e32578181015183820152602001611e1a565b50505050905090810190601f168015611e5f5780820380516001836020036101000a031916815260200191505b50838103825284518152845160209182019186019080838360005b83811015611e92578181015183820152602001611e7a565b50505050905090810190601f168015611ebf5780820380516001836020036101000a031916815260200191505b5097505050505050505060405180910390a3505050505050505050505050565b6000546001546040805160e260020a633d9abf2b028152336004820152600160a060020a0393841660248201529290911660448301525173__AOLibrary_____________________________9163f66afcac916064808301926020929190829003018186803b158015611f5157600080fd5b505af4158015611f65573d6000803e3d6000fd5b505050506040513d6020811015611f7b57600080fd5b50511515611f8857600080fd5b600160a060020a0381161515611f9d57600080fd5b60058054600160a060020a0390921673ffffffffffffffffffffffffffffffffffffffff19928316811790915560068054909216179055565b60007fff000000000000000000000000000000000000000000000000000000000000007f010000000000000000000000000000000000000000000000000000000000000083831a0216158015906120445750600160c060020a03198216600090815260086020526040812054115b801561208a5750600160c060020a0319821660009081526008602090815260408083205483526007909152902054680100000000000000009004600160a060020a031615155b92915050565b6000806000806060806000806000806000806120aa612ef4565b600060035492505b600083111561216857600760008481526020019081526020016000206040805190810160405290816000820160009054906101000a900460c060020a02600160c060020a031916600160c060020a03191681526020016000820160089054906101000a9004600160a060020a0316600160a060020a0316600160a060020a03168152505091506121468f83600001516124cc565b9096509450600086111561215c57829350612168565b600019909201916120b2565b60008411801561217a57506003548411155b151561218557600080fd5b60008611806121945750600085115b151561219f57600080fd5b600084815260076020526040902054680100000000000000009004600160a060020a031615156121ce57600080fd5b506000838152600760205260408082205481517f06fdde030000000000000000000000000000000000000000000000000000000081529151600160a060020a03680100000000000000008304169360c060020a9092029284928a928a9285926306fdde039260048084019382900301818387803b15801561224e57600080fd5b505af1158015612262573d6000803e3d6000fd5b505050506040513d6000823e601f3d908101601f19168201604052602081101561228b57600080fd5b8101908080516401000000008111156122a357600080fd5b820160208101848111156122b657600080fd5b81516401000000008111828201871017156122d057600080fd5b505092919050505085600160a060020a03166395d89b416040518163ffffffff1660e060020a028152600401600060405180830381600087803b15801561231657600080fd5b505af115801561232a573d6000803e3d6000fd5b505050506040513d6000823e601f3d908101601f19168201604052602081101561235357600080fd5b81019080805164010000000081111561236b57600080fd5b8201602081018481111561237e57600080fd5b815164010000000081118282018710171561239857600080fd5b505092919050505086600160a060020a031663313ce5676040518163ffffffff1660e060020a028152600401602060405180830381600087803b1580156123de57600080fd5b505af11580156123f2573d6000803e3d6000fd5b505050506040513d602081101561240857600080fd5b50516040805160e160020a63055122a30281529051600160a060020a038a1691630aa245469160048083019260209291908290030181600087803b15801561244f57600080fd5b505af1158015612463573d6000803e3d6000fd5b505050506040513d602081101561247957600080fd5b81019080805190602001909291905050508393508292509d509d509d509d509d509d509d509d50505050505050919395975091939597565b60026020526000908152604090205460ff1681565b60045481565b6000806124d7612ef4565b6040805160e060020a6390358f5d028152600160c060020a03198616600482015290516000918291829130916390358f5d9160248082019260209290919082900301818787803b15801561252a57600080fd5b505af115801561253e573d6000803e3d6000fd5b505050506040513d602081101561255457600080fd5b5051156126cd57600160c060020a031987811660009081526008602090815260408083205483526007825280832081518083018352905460c060020a8102909516815268010000000000000000909404600160a060020a0316848301819052815160e160020a63055122a302815291519498509650612631938793630aa2454693600480850194919392918390030190829087803b1580156125f557600080fd5b505af1158015612609573d6000803e3d6000fd5b505050506040513d602081101561261f57600080fd5b50518990600a0a63ffffffff612ecd16565b91506126c06126b384600160a060020a0316630aa245466040518163ffffffff1660e060020a028152600401602060405180830381600087803b15801561267757600080fd5b505af115801561268b573d6000803e3d6000fd5b505050506040513d60208110156126a157600080fd5b50518490600a0a63ffffffff612e9716565b899063ffffffff612ee216565b90508181955095506126d5565b600095508594505b505050509250929050565b600054600160a060020a031681565b60008060608060008060008730600160a060020a03166390358f5d826040518263ffffffff1660e060020a0281526004018082600160c060020a031916600160c060020a0319168152602001915050602060405180830381600087803b15801561275857600080fd5b505af115801561276c573d6000803e3d6000fd5b505050506040513d602081101561278257600080fd5b5051151561278f57600080fd5b600160c060020a03198916600090815260086020908152604080832054835260079091528082205481517f06fdde030000000000000000000000000000000000000000000000000000000081529151680100000000000000008204600160a060020a0316955060c060020a90910292859283926306fdde039260048084019391929182900301818387803b15801561282657600080fd5b505af115801561283a573d6000803e3d6000fd5b505050506040513d6000823e601f3d908101601f19168201604052602081101561286357600080fd5b81019080805164010000000081111561287b57600080fd5b8201602081018481111561288e57600080fd5b81516401000000008111828201871017156128a857600080fd5b505092919050505084600160a060020a03166395d89b416040518163ffffffff1660e060020a028152600401600060405180830381600087803b1580156128ee57600080fd5b505af1158015612902573d6000803e3d6000fd5b505050506040513d6000823e601f3d908101601f19168201604052602081101561292b57600080fd5b81019080805164010000000081111561294357600080fd5b8201602081018481111561295657600080fd5b815164010000000081118282018710171561297057600080fd5b505092919050505085600160a060020a031663313ce5676040518163ffffffff1660e060020a028152600401602060405180830381600087803b1580156129b657600080fd5b505af11580156129ca573d6000803e3d6000fd5b505050506040513d60208110156129e057600080fd5b50516040805160e160020a63055122a30281529051600160a060020a03891691630aa245469160048083019260209291908290030181600087803b158015612a2757600080fd5b505af1158015612a3b573d6000803e3d6000fd5b505050506040513d6020811015612a5157600080fd5b5051949e939d50919b50995097509095509350505050565b600554600160a060020a031681565b600080546001546040805160e260020a633d9abf2b028152336004820152600160a060020a039384166024820152929091166044830152518291829173__AOLibrary_____________________________9163f66afcac916064808301926020929190829003018186803b158015612aef57600080fd5b505af4158015612b03573d6000803e3d6000fd5b505050506040513d6020811015612b1957600080fd5b50511515612b2657600080fd5b7fff000000000000000000000000000000000000000000000000000000000000007f0100000000000000000000000000000000000000000000000000000000000000600087901a02161515612b7a57600080fd5b600160a060020a0384161515612b8f57600080fd5b600160c060020a0319851660009081526008602052604090205415612bb357600080fd5b600380546001908101918290551015612cdf5760076000600160035403815260200190815260200160002060000160089054906101000a9004600160a060020a0316915083905081600160a060020a0316630aa245466040518163ffffffff1660e060020a028152600401602060405180830381600087803b158015612c3857600080fd5b505af1158015612c4c573d6000803e3d6000fd5b505050506040513d6020811015612c6257600080fd5b50516040805160e160020a63055122a30281529051600160a060020a03841691630aa245469160048083019260209291908290030181600087803b158015612ca957600080fd5b505af1158015612cbd573d6000803e3d6000fd5b505050506040513d6020811015612cd357600080fd5b505111612cdf57600080fd5b600380546000908152600760209081526040808320805460c060020a8b0467ffffffffffffffff19909116179055835483528083208054600160a060020a038a1668010000000000000000027bffffffffffffffffffffffffffffffffffffffff0000000000000000199091161790559254600160c060020a03198916835260089091529190205560019250505092915050565b6000806060806000806000600354111515612d8d57600080fd5b612d9760016112dd565b949b939a50919850965094509092509050565b6000546001546040805160e260020a633d9abf2b028152336004820152600160a060020a0393841660248201529290911660448301525173__AOLibrary_____________________________9163f66afcac916064808301926020929190829003018186803b158015612e1c57600080fd5b505af4158015612e30573d6000803e3d6000fd5b505050506040513d6020811015612e4657600080fd5b50511515612e5357600080fd5b600160a060020a0381161515612e6857600080fd5b6000805473ffffffffffffffffffffffffffffffffffffffff1916600160a060020a0392909216919091179055565b6000821515612ea85750600061208a565b50818102818382811515612eb857fe5b041461208a57fe5b8181018281101561208a57fe5b60008183811515612eda57fe5b049392505050565b600082821115612eee57fe5b50900390565b604080518082019091526000808252602082015290565b6040805160a081018252600080825260208201819052918101829052606081018290526080810191909152905600a165627a7a7230582065a1dd81127f07872e1569d7b5e329d4e8f8f1b1d58895ef7ef8691bf8a7af340029",
	"source": "pragma solidity ^0.4.24;\n\nimport './TAOCurrencyTreasury.sol';\n\n/**\n * @title LogosTreasury\n *\n * The purpose of this contract is to list all of the valid denominations of Logos and do the conversion between denominations\n */\ncontract LogosTreasury is TAOCurrencyTreasury {\n\t/**\n\t * @dev Constructor function\n\t */\n\tconstructor(address _nameFactoryAddress, address _nameTAOPositionAddress)\n\t\tTAOCurrencyTreasury(_nameFactoryAddress, _nameTAOPositionAddress) public {}\n}\n",
	"sourcePath": "/Users/johanmulyono/Work/AO/ao-contracts/contracts/LogosTreasury.sol",
	"compiler": {
		"name": "solc",
		"version": "0.4.24+commit.e67f0147.Emscripten.clang"
	},
	"schemaVersion": "2.0.1",
	"updatedAt": "2019-02-20T03:03:11.461Z"
}