{
	"contractName": "NameTAOPosition",
	"abi": [
		{
			"constant": true,
			"inputs": [],
			"name": "aoSettingAddress",
			"outputs": [
				{
					"name": "",
					"type": "address"
				}
			],
			"payable": false,
			"stateMutability": "view",
			"type": "function"
		},
		{
			"constant": true,
			"inputs": [],
			"name": "totalTAOAdvocateChallenges",
			"outputs": [
				{
					"name": "",
					"type": "uint256"
				}
			],
			"payable": false,
			"stateMutability": "view",
			"type": "function"
		},
		{
			"constant": true,
			"inputs": [],
			"name": "logosAddress",
			"outputs": [
				{
					"name": "",
					"type": "address"
				}
			],
			"payable": false,
			"stateMutability": "view",
			"type": "function"
		},
		{
			"constant": true,
			"inputs": [],
			"name": "nameTAOPositionAddress",
			"outputs": [
				{
					"name": "",
					"type": "address"
				}
			],
			"payable": false,
			"stateMutability": "view",
			"type": "function"
		},
		{
			"constant": true,
			"inputs": [
				{
					"name": "",
					"type": "address"
				}
			],
			"name": "whitelist",
			"outputs": [
				{
					"name": "",
					"type": "bool"
				}
			],
			"payable": false,
			"stateMutability": "view",
			"type": "function"
		},
		{
			"constant": true,
			"inputs": [],
			"name": "nameAccountRecoveryAddress",
			"outputs": [
				{
					"name": "",
					"type": "address"
				}
			],
			"payable": false,
			"stateMutability": "view",
			"type": "function"
		},
		{
			"constant": true,
			"inputs": [],
			"name": "theAO",
			"outputs": [
				{
					"name": "",
					"type": "address"
				}
			],
			"payable": false,
			"stateMutability": "view",
			"type": "function"
		},
		{
			"constant": true,
			"inputs": [],
			"name": "taoAncestryAddress",
			"outputs": [
				{
					"name": "",
					"type": "address"
				}
			],
			"payable": false,
			"stateMutability": "view",
			"type": "function"
		},
		{
			"constant": true,
			"inputs": [],
			"name": "nameFactoryAddress",
			"outputs": [
				{
					"name": "",
					"type": "address"
				}
			],
			"payable": false,
			"stateMutability": "view",
			"type": "function"
		},
		{
			"constant": true,
			"inputs": [],
			"name": "settingTAOId",
			"outputs": [
				{
					"name": "",
					"type": "address"
				}
			],
			"payable": false,
			"stateMutability": "view",
			"type": "function"
		},
		{
			"constant": true,
			"inputs": [],
			"name": "taoFactoryAddress",
			"outputs": [
				{
					"name": "",
					"type": "address"
				}
			],
			"payable": false,
			"stateMutability": "view",
			"type": "function"
		},
		{
			"inputs": [
				{
					"name": "_nameFactoryAddress",
					"type": "address"
				},
				{
					"name": "_taoFactoryAddress",
					"type": "address"
				}
			],
			"payable": false,
			"stateMutability": "nonpayable",
			"type": "constructor"
		},
		{
			"anonymous": false,
			"inputs": [
				{
					"indexed": true,
					"name": "taoId",
					"type": "address"
				},
				{
					"indexed": false,
					"name": "oldAdvocateId",
					"type": "address"
				},
				{
					"indexed": false,
					"name": "newAdvocateId",
					"type": "address"
				},
				{
					"indexed": false,
					"name": "nonce",
					"type": "uint256"
				}
			],
			"name": "SetAdvocate",
			"type": "event"
		},
		{
			"anonymous": false,
			"inputs": [
				{
					"indexed": true,
					"name": "taoId",
					"type": "address"
				},
				{
					"indexed": false,
					"name": "oldListenerId",
					"type": "address"
				},
				{
					"indexed": false,
					"name": "newListenerId",
					"type": "address"
				},
				{
					"indexed": false,
					"name": "nonce",
					"type": "uint256"
				}
			],
			"name": "SetListener",
			"type": "event"
		},
		{
			"anonymous": false,
			"inputs": [
				{
					"indexed": true,
					"name": "taoId",
					"type": "address"
				},
				{
					"indexed": false,
					"name": "oldSpeakerId",
					"type": "address"
				},
				{
					"indexed": false,
					"name": "newSpeakerId",
					"type": "address"
				},
				{
					"indexed": false,
					"name": "nonce",
					"type": "uint256"
				}
			],
			"name": "SetSpeaker",
			"type": "event"
		},
		{
			"anonymous": false,
			"inputs": [
				{
					"indexed": true,
					"name": "taoId",
					"type": "address"
				},
				{
					"indexed": true,
					"name": "challengeId",
					"type": "bytes32"
				},
				{
					"indexed": false,
					"name": "currentAdvocateId",
					"type": "address"
				},
				{
					"indexed": false,
					"name": "challengerAdvocateId",
					"type": "address"
				},
				{
					"indexed": false,
					"name": "createdTimestamp",
					"type": "uint256"
				},
				{
					"indexed": false,
					"name": "lockedUntilTimestamp",
					"type": "uint256"
				},
				{
					"indexed": false,
					"name": "completeBeforeTimestamp",
					"type": "uint256"
				}
			],
			"name": "ChallengeTAOAdvocate",
			"type": "event"
		},
		{
			"anonymous": false,
			"inputs": [
				{
					"indexed": true,
					"name": "taoId",
					"type": "address"
				},
				{
					"indexed": true,
					"name": "challengeId",
					"type": "bytes32"
				}
			],
			"name": "CompleteTAOAdvocateChallenge",
			"type": "event"
		},
		{
			"constant": false,
			"inputs": [
				{
					"name": "_theAO",
					"type": "address"
				}
			],
			"name": "transferOwnership",
			"outputs": [],
			"payable": false,
			"stateMutability": "nonpayable",
			"type": "function"
		},
		{
			"constant": false,
			"inputs": [
				{
					"name": "_account",
					"type": "address"
				},
				{
					"name": "_whitelist",
					"type": "bool"
				}
			],
			"name": "setWhitelist",
			"outputs": [],
			"payable": false,
			"stateMutability": "nonpayable",
			"type": "function"
		},
		{
			"constant": false,
			"inputs": [
				{
					"name": "_nameFactoryAddress",
					"type": "address"
				}
			],
			"name": "setNameFactoryAddress",
			"outputs": [],
			"payable": false,
			"stateMutability": "nonpayable",
			"type": "function"
		},
		{
			"constant": false,
			"inputs": [
				{
					"name": "_nameAccountRecoveryAddress",
					"type": "address"
				}
			],
			"name": "setNameAccountRecoveryAddress",
			"outputs": [],
			"payable": false,
			"stateMutability": "nonpayable",
			"type": "function"
		},
		{
			"constant": false,
			"inputs": [
				{
					"name": "_taoFactoryAddress",
					"type": "address"
				}
			],
			"name": "setTAOFactoryAddress",
			"outputs": [],
			"payable": false,
			"stateMutability": "nonpayable",
			"type": "function"
		},
		{
			"constant": false,
			"inputs": [
				{
					"name": "_settingTAOId",
					"type": "address"
				}
			],
			"name": "setSettingTAOId",
			"outputs": [],
			"payable": false,
			"stateMutability": "nonpayable",
			"type": "function"
		},
		{
			"constant": false,
			"inputs": [
				{
					"name": "_aoSettingAddress",
					"type": "address"
				}
			],
			"name": "setAOSettingAddress",
			"outputs": [],
			"payable": false,
			"stateMutability": "nonpayable",
			"type": "function"
		},
		{
			"constant": false,
			"inputs": [
				{
					"name": "_taoAncestryAddress",
					"type": "address"
				}
			],
			"name": "setTAOAncestryAddress",
			"outputs": [],
			"payable": false,
			"stateMutability": "nonpayable",
			"type": "function"
		},
		{
			"constant": false,
			"inputs": [
				{
					"name": "_logosAddress",
					"type": "address"
				}
			],
			"name": "setLogosAddress",
			"outputs": [],
			"payable": false,
			"stateMutability": "nonpayable",
			"type": "function"
		},
		{
			"constant": true,
			"inputs": [
				{
					"name": "_id",
					"type": "address"
				}
			],
			"name": "isExist",
			"outputs": [
				{
					"name": "",
					"type": "bool"
				}
			],
			"payable": false,
			"stateMutability": "view",
			"type": "function"
		},
		{
			"constant": true,
			"inputs": [
				{
					"name": "_sender",
					"type": "address"
				},
				{
					"name": "_id",
					"type": "address"
				}
			],
			"name": "senderIsAdvocate",
			"outputs": [
				{
					"name": "",
					"type": "bool"
				}
			],
			"payable": false,
			"stateMutability": "view",
			"type": "function"
		},
		{
			"constant": true,
			"inputs": [
				{
					"name": "_sender",
					"type": "address"
				},
				{
					"name": "_id",
					"type": "address"
				}
			],
			"name": "senderIsListener",
			"outputs": [
				{
					"name": "",
					"type": "bool"
				}
			],
			"payable": false,
			"stateMutability": "view",
			"type": "function"
		},
		{
			"constant": true,
			"inputs": [
				{
					"name": "_sender",
					"type": "address"
				},
				{
					"name": "_id",
					"type": "address"
				}
			],
			"name": "senderIsSpeaker",
			"outputs": [
				{
					"name": "",
					"type": "bool"
				}
			],
			"payable": false,
			"stateMutability": "view",
			"type": "function"
		},
		{
			"constant": true,
			"inputs": [
				{
					"name": "_sender",
					"type": "address"
				},
				{
					"name": "_id",
					"type": "address"
				}
			],
			"name": "senderIsAdvocateOfParent",
			"outputs": [
				{
					"name": "",
					"type": "bool"
				}
			],
			"payable": false,
			"stateMutability": "view",
			"type": "function"
		},
		{
			"constant": true,
			"inputs": [
				{
					"name": "_sender",
					"type": "address"
				},
				{
					"name": "_id",
					"type": "address"
				}
			],
			"name": "senderIsPosition",
			"outputs": [
				{
					"name": "",
					"type": "bool"
				}
			],
			"payable": false,
			"stateMutability": "view",
			"type": "function"
		},
		{
			"constant": true,
			"inputs": [
				{
					"name": "_nameId",
					"type": "address"
				},
				{
					"name": "_id",
					"type": "address"
				}
			],
			"name": "nameIsAdvocate",
			"outputs": [
				{
					"name": "",
					"type": "bool"
				}
			],
			"payable": false,
			"stateMutability": "view",
			"type": "function"
		},
		{
			"constant": true,
			"inputs": [
				{
					"name": "_sender",
					"type": "address"
				},
				{
					"name": "_id",
					"type": "address"
				}
			],
			"name": "determinePosition",
			"outputs": [
				{
					"name": "",
					"type": "uint256"
				}
			],
			"payable": false,
			"stateMutability": "view",
			"type": "function"
		},
		{
			"constant": false,
			"inputs": [
				{
					"name": "_id",
					"type": "address"
				},
				{
					"name": "_advocateId",
					"type": "address"
				},
				{
					"name": "_listenerId",
					"type": "address"
				},
				{
					"name": "_speakerId",
					"type": "address"
				}
			],
			"name": "initialize",
			"outputs": [
				{
					"name": "",
					"type": "bool"
				}
			],
			"payable": false,
			"stateMutability": "nonpayable",
			"type": "function"
		},
		{
			"constant": true,
			"inputs": [
				{
					"name": "_id",
					"type": "address"
				}
			],
			"name": "getPositionById",
			"outputs": [
				{
					"name": "",
					"type": "address"
				},
				{
					"name": "",
					"type": "address"
				},
				{
					"name": "",
					"type": "address"
				}
			],
			"payable": false,
			"stateMutability": "view",
			"type": "function"
		},
		{
			"constant": true,
			"inputs": [
				{
					"name": "_id",
					"type": "address"
				}
			],
			"name": "getAdvocate",
			"outputs": [
				{
					"name": "",
					"type": "address"
				}
			],
			"payable": false,
			"stateMutability": "view",
			"type": "function"
		},
		{
			"constant": true,
			"inputs": [
				{
					"name": "_id",
					"type": "address"
				}
			],
			"name": "getListener",
			"outputs": [
				{
					"name": "",
					"type": "address"
				}
			],
			"payable": false,
			"stateMutability": "view",
			"type": "function"
		},
		{
			"constant": true,
			"inputs": [
				{
					"name": "_id",
					"type": "address"
				}
			],
			"name": "getSpeaker",
			"outputs": [
				{
					"name": "",
					"type": "address"
				}
			],
			"payable": false,
			"stateMutability": "view",
			"type": "function"
		},
		{
			"constant": false,
			"inputs": [
				{
					"name": "_taoId",
					"type": "address"
				},
				{
					"name": "_newAdvocateId",
					"type": "address"
				}
			],
			"name": "setAdvocate",
			"outputs": [],
			"payable": false,
			"stateMutability": "nonpayable",
			"type": "function"
		},
		{
			"constant": false,
			"inputs": [
				{
					"name": "_taoId",
					"type": "address"
				}
			],
			"name": "parentReplaceChildAdvocate",
			"outputs": [],
			"payable": false,
			"stateMutability": "nonpayable",
			"type": "function"
		},
		{
			"constant": false,
			"inputs": [
				{
					"name": "_taoId",
					"type": "address"
				}
			],
			"name": "challengeTAOAdvocate",
			"outputs": [],
			"payable": false,
			"stateMutability": "nonpayable",
			"type": "function"
		},
		{
			"constant": true,
			"inputs": [
				{
					"name": "_challengeId",
					"type": "bytes32"
				},
				{
					"name": "_sender",
					"type": "address"
				}
			],
			"name": "getChallengeStatus",
			"outputs": [
				{
					"name": "",
					"type": "uint8"
				}
			],
			"payable": false,
			"stateMutability": "view",
			"type": "function"
		},
		{
			"constant": false,
			"inputs": [
				{
					"name": "_challengeId",
					"type": "bytes32"
				}
			],
			"name": "completeTAOAdvocateChallenge",
			"outputs": [],
			"payable": false,
			"stateMutability": "nonpayable",
			"type": "function"
		},
		{
			"constant": true,
			"inputs": [
				{
					"name": "_challengeId",
					"type": "bytes32"
				}
			],
			"name": "getTAOAdvocateChallengeById",
			"outputs": [
				{
					"name": "",
					"type": "address"
				},
				{
					"name": "",
					"type": "address"
				},
				{
					"name": "",
					"type": "bool"
				},
				{
					"name": "",
					"type": "uint256"
				},
				{
					"name": "",
					"type": "uint256"
				},
				{
					"name": "",
					"type": "uint256"
				}
			],
			"payable": false,
			"stateMutability": "view",
			"type": "function"
		},
		{
			"constant": false,
			"inputs": [
				{
					"name": "_id",
					"type": "address"
				},
				{
					"name": "_newListenerId",
					"type": "address"
				}
			],
			"name": "setListener",
			"outputs": [],
			"payable": false,
			"stateMutability": "nonpayable",
			"type": "function"
		},
		{
			"constant": false,
			"inputs": [
				{
					"name": "_id",
					"type": "address"
				},
				{
					"name": "_newSpeakerId",
					"type": "address"
				}
			],
			"name": "setSpeaker",
			"outputs": [],
			"payable": false,
			"stateMutability": "nonpayable",
			"type": "function"
		}
	],
	"bytecode": "0x60806040523480156200001157600080fd5b5060405160408062004eab83398101604052805160209091015160008054600160a060020a0319163317905562000051826401000000006200007f810204565b620000658164010000000062000184810204565b505060018054600160a060020a0319163017905562000289565b600054600154604080517ff66afcac000000000000000000000000000000000000000000000000000000008152336004820152600160a060020a0393841660248201529290911660448301525173__AOLibrary_____________________________9163f66afcac916064808301926020929190829003018186803b1580156200010857600080fd5b505af41580156200011d573d6000803e3d6000fd5b505050506040513d60208110156200013457600080fd5b505115156200014257600080fd5b600160a060020a03811615156200015857600080fd5b60048054600160a060020a03909216600160a060020a03199283168117909155600b8054909216179055565b600054600154604080517ff66afcac000000000000000000000000000000000000000000000000000000008152336004820152600160a060020a0393841660248201529290911660448301525173__AOLibrary_____________________________9163f66afcac916064808301926020929190829003018186803b1580156200020d57600080fd5b505af415801562000222573d6000803e3d6000fd5b505050506040513d60208110156200023957600080fd5b505115156200024757600080fd5b600160a060020a03811615156200025d57600080fd5b60068054600160a060020a03909216600160a060020a03199283168117909155600d8054909216179055565b614c1280620002996000396000f3006080604052600436106101de5763ffffffff60e060020a60003504166213eb4b81146101e3578063058af9821461021857806306fd70881461023f5780631d0138ff146102625780631dfde2bd1461029357806320082c69146102b45780632191207a146102db57806323f48bc9146102fc57806329981db4146103235780632cfed9f01461034a578063339c5c061461037157806338da7de7146103925780633b6682d5146103a75780634926248f146103fe5780634b670418146104255780634ef033f01461044c57806353d6fd59146104615780636fb487fc1461048757806371ce52ed146104a85780637767d034146104cf5780637a1d66dd146104f0578063897e359a146105175780638c924361146105515780639b19251a14610572578063a4e5fad214610593578063a9b6b38e146105a8578063af6ddc10146105bd578063bc406206146105d2578063d6830af3146105e7578063d8a0aa6c14610608578063daacb9ce14610654578063e2c8e54a1461067b578063e7c50185146106a2578063eb342f79146106b7578063ef44fe24146106cf578063f203c857146106f0578063f2fde38b14610711578063f8c8765e14610732578063fd6f413714610765578063ff0374b514610786578063ff3781c61461079b575b600080fd5b3480156101ef57600080fd5b50610204600160a060020a03600435166107bc565b604080519115158252519081900360200190f35b34801561022457600080fd5b50610204600160a060020a03600435811690602435166107e4565b34801561024b57600080fd5b50610260600160a060020a0360043516610839565b005b34801561026e57600080fd5b50610277610923565b60408051600160a060020a039092168252519081900360200190f35b34801561029f57600080fd5b50610260600160a060020a0360043516610932565b3480156102c057600080fd5b50610204600160a060020a0360043581169060243516610a1f565b3480156102e757600080fd5b50610260600160a060020a0360043516610af4565b34801561030857600080fd5b50610311610bde565b60408051918252519081900360200190f35b34801561032f57600080fd5b50610260600160a060020a0360043581169060243516610be4565b34801561035657600080fd5b50610260600160a060020a0360043581169060243516610fe4565b34801561037d57600080fd5b50610260600160a060020a036004351661184d565b34801561039e57600080fd5b50610277611d46565b3480156103b357600080fd5b506103bf600435611d55565b60408051600160a060020a039788168152959096166020860152921515848601526060840191909152608083015260a082015290519081900360c00190f35b34801561040a57600080fd5b50610260600160a060020a0360043581169060243516611e18565b34801561043157600080fd5b50610204600160a060020a0360043581169060243516612681565b34801561045857600080fd5b50610277612967565b34801561046d57600080fd5b50610260600160a060020a03600435166024351515612976565b34801561049357600080fd5b50610277600160a060020a0360043516612a5f565b3480156104b457600080fd5b50610204600160a060020a0360043581169060243516612add565b3480156104db57600080fd5b50610260600160a060020a0360043516612baf565b3480156104fc57600080fd5b50610311600160a060020a0360043581169060243516612c9c565b34801561052357600080fd5b5061053b600435600160a060020a0360243516612e63565b6040805160ff9092168252519081900360200190f35b34801561055d57600080fd5b50610260600160a060020a0360043516613107565b34801561057e57600080fd5b50610204600160a060020a03600435166131f1565b34801561059f57600080fd5b50610277613206565b3480156105b457600080fd5b50610277613215565b3480156105c957600080fd5b50610277613224565b3480156105de57600080fd5b50610277613233565b3480156105f357600080fd5b50610260600160a060020a0360043516613242565b34801561061457600080fd5b50610629600160a060020a03600435166133a1565b60408051600160a060020a039485168152928416602084015292168183015290519081900360600190f35b34801561066057600080fd5b50610204600160a060020a0360043581169060243516613428565b34801561068757600080fd5b50610204600160a060020a03600435811690602435166134fd565b3480156106ae57600080fd5b5061027761363f565b3480156106c357600080fd5b5061026060043561364e565b3480156106db57600080fd5b50610260600160a060020a036004351661388e565b3480156106fc57600080fd5b50610277600160a060020a0360043516613f39565b34801561071d57600080fd5b50610260600160a060020a0360043516613fb8565b34801561073e57600080fd5b50610204600160a060020a0360043581169060243581169060443581169060643516614098565b34801561077157600080fd5b50610277600160a060020a036004351661457c565b34801561079257600080fd5b506102776145fc565b3480156107a757600080fd5b50610260600160a060020a036004351661460b565b600160a060020a031660009081526011602052604090206002015460a060020a900460ff1690565b600160a060020a03811660009081526011602052604081206002015460a060020a900460ff1680156108325750600160a060020a038281166000908152601160205260409020548116908416145b9392505050565b6000546001546040805160e260020a633d9abf2b028152336004820152600160a060020a0393841660248201529290911660448301525173__AOLibrary_____________________________9163f66afcac916064808301926020929190829003018186803b1580156108ab57600080fd5b505af41580156108bf573d6000803e3d6000fd5b505050506040513d60208110156108d557600080fd5b505115156108e257600080fd5b600160a060020a03811615156108f757600080fd5b60078054600160a060020a03909216600160a060020a03199283168117909155600e8054909216179055565b600754600160a060020a031681565b6000546001546040805160e260020a633d9abf2b028152336004820152600160a060020a0393841660248201529290911660448301525173__AOLibrary_____________________________9163f66afcac916064808301926020929190829003018186803b1580156109a457600080fd5b505af41580156109b8573d6000803e3d6000fd5b505050506040513d60208110156109ce57600080fd5b505115156109db57600080fd5b600160a060020a03811615156109f057600080fd5b60058054600160a060020a0319908116600160a060020a039384161791829055600c8054929093169116179055565b600160a060020a03811660009081526011602052604081206002015460a060020a900460ff1680156108325750600b546040805160e060020a63029b7d53028152600160a060020a0386811660048301529151919092169163029b7d539160248083019260209291908290030181600087803b158015610a9e57600080fd5b505af1158015610ab2573d6000803e3d6000fd5b505050506040513d6020811015610ac857600080fd5b5051600160a060020a038381166000908152601160205260409020600201548116911614905092915050565b6000546001546040805160e260020a633d9abf2b028152336004820152600160a060020a0393841660248201529290911660448301525173__AOLibrary_____________________________9163f66afcac916064808301926020929190829003018186803b158015610b6657600080fd5b505af4158015610b7a573d6000803e3d6000fd5b505050506040513d6020811015610b9057600080fd5b50511515610b9d57600080fd5b600160a060020a0381161515610bb257600080fd5b60068054600160a060020a03909216600160a060020a03199283168117909155600d8054909216179055565b600a5481565b8173__AOLibrary_____________________________632fca5414826040518263ffffffff1660e060020a0281526004018082600160a060020a0316600160a060020a0316815260200191505060206040518083038186803b158015610c4957600080fd5b505af4158015610c5d573d6000803e3d6000fd5b505050506040513d6020811015610c7357600080fd5b50511515610c8057600080fd5b8173__AOLibrary_____________________________632d706a34826040518263ffffffff1660e060020a0281526004018082600160a060020a0316600160a060020a0316815260200191505060206040518083038186803b158015610ce557600080fd5b505af4158015610cf9573d6000803e3d6000fd5b505050506040513d6020811015610d0f57600080fd5b50511515610d1c57600080fd5b6040805160e060020a6371ce52ed028152336004820152600160a060020a03861660248201529051859130916371ce52ed916044808201926020929091908290030181600087803b158015610d7057600080fd5b505af1158015610d84573d6000803e3d6000fd5b505050506040513d6020811015610d9a57600080fd5b50511515610da757600080fd5b600b546040805160e060020a63029b7d530281523360048201529051600092600160a060020a03169163029b7d5391602480830192602092919082900301818787803b158015610df657600080fd5b505af1158015610e0a573d6000803e3d6000fd5b505050506040513d6020811015610e2057600080fd5b5051600160a060020a03161415610e3657600080fd5b600c54600b546040805160e060020a63029b7d530281523360048201529051600160a060020a0393841693633ebc2ab393169163029b7d539160248083019260209291908290030181600087803b158015610e9057600080fd5b505af1158015610ea4573d6000803e3d6000fd5b505050506040513d6020811015610eba57600080fd5b50516040805160e060020a63ffffffff8516028152600160a060020a0390921660048301525160248083019260209291908290030181600087803b158015610f0157600080fd5b505af1158015610f15573d6000803e3d6000fd5b505050506040513d6020811015610f2b57600080fd5b505115610f3757600080fd5b610f40856107bc565b1515610f4b57600080fd5b600c546040805160e060020a633ebc2ab3028152600160a060020a03878116600483015291519190921691633ebc2ab39160248083019260209291908290030181600087803b158015610f9d57600080fd5b505af1158015610fb1573d6000803e3d6000fd5b505050506040513d6020811015610fc757600080fd5b505115610fd357600080fd5b610fdd85856146f5565b5050505050565b6000806000808573__AOLibrary_____________________________632d706a34826040518263ffffffff1660e060020a0281526004018082600160a060020a0316600160a060020a0316815260200191505060206040518083038186803b15801561104f57600080fd5b505af4158015611063573d6000803e3d6000fd5b505050506040513d602081101561107957600080fd5b50518061110b57506040805160e260020a630bf29505028152600160a060020a0383166004820152905173__AOLibrary_____________________________91632fca5414916024808301926020929190829003018186803b1580156110de57600080fd5b505af41580156110f2573d6000803e3d6000fd5b505050506040513d602081101561110857600080fd5b50515b151561111657600080fd5b8573__AOLibrary_____________________________632d706a34826040518263ffffffff1660e060020a0281526004018082600160a060020a0316600160a060020a0316815260200191505060206040518083038186803b15801561117b57600080fd5b505af415801561118f573d6000803e3d6000fd5b505050506040513d60208110156111a557600080fd5b50518061123757506040805160e260020a630bf29505028152600160a060020a0383166004820152905173__AOLibrary_____________________________91632fca5414916024808301926020929190829003018186803b15801561120a57600080fd5b505af415801561121e573d6000803e3d6000fd5b505050506040513d602081101561123457600080fd5b50515b151561124257600080fd5b600b546040805160e060020a63029b7d530281523360048201529051600092600160a060020a03169163029b7d5391602480830192602092919082900301818787803b15801561129157600080fd5b505af11580156112a5573d6000803e3d6000fd5b505050506040513d60208110156112bb57600080fd5b5051600160a060020a031614156112d157600080fd5b600c54600b546040805160e060020a63029b7d530281523360048201529051600160a060020a0393841693633ebc2ab393169163029b7d539160248083019260209291908290030181600087803b15801561132b57600080fd5b505af115801561133f573d6000803e3d6000fd5b505050506040513d602081101561135557600080fd5b50516040805160e060020a63ffffffff8516028152600160a060020a0390921660048301525160248083019260209291908290030181600087803b15801561139c57600080fd5b505af11580156113b0573d6000803e3d6000fd5b505050506040513d60208110156113c657600080fd5b5051156113d257600080fd5b6040805160e060020a6371ce52ed028152336004820152600160a060020a038a1660248201529051899130916371ce52ed916044808201926020929091908290030181600087803b15801561142657600080fd5b505af115801561143a573d6000803e3d6000fd5b505050506040513d602081101561145057600080fd5b5051151561145d57600080fd5b611466896107bc565b151561147157600080fd5b6040805160e260020a630b5c1a8d028152600160a060020a038b16600482015290516000985073__AOLibrary_____________________________91632d706a34916024808301926020929190829003018186803b1580156114d257600080fd5b505af41580156114e6573d6000803e3d6000fd5b505050506040513d60208110156114fc57600080fd5b5051156116ab576040805160e260020a630b5c1a8d028152600160a060020a038a16600482015290516001985073__AOLibrary_____________________________91632d706a34916024808301926020929190829003018186803b15801561156457600080fd5b505af4158015611578573d6000803e3d6000fd5b505050506040513d602081101561158e57600080fd5b5051151561159b57600080fd5b600c546040805160e060020a633ebc2ab3028152600160a060020a038c8116600483015291519190921691633ebc2ab39160248083019260209291908290030181600087803b1580156115ed57600080fd5b505af1158015611601573d6000803e3d6000fd5b505050506040513d602081101561161757600080fd5b50511561162357600080fd5b600c546040805160e060020a633ebc2ab3028152600160a060020a038b8116600483015291519190921691633ebc2ab39160248083019260209291908290030181600087803b15801561167557600080fd5b505af1158015611689573d6000803e3d6000fd5b505050506040513d602081101561169f57600080fd5b5051156116ab57600080fd5b600160a060020a03808a1660009081526011602052604090206002810180548b8416600160a060020a0319821617909155909750169450861561176d57600b546040805160e260020a633d5d0f13028152600160a060020a038c811660048301529151919092169163f5743c4c9160248083019260209291908290030181600087803b15801561173a57600080fd5b505af115801561174e573d6000803e3d6000fd5b505050506040513d602081101561176457600080fd5b505193506117ee565b600d546040805160e260020a633d5d0f13028152600160a060020a038c811660048301529151919092169163f5743c4c9160248083019260209291908290030181600087803b1580156117bf57600080fd5b505af11580156117d3573d6000803e3d6000fd5b505050506040513d60208110156117e957600080fd5b505193505b600286015460408051600160a060020a03888116825292831660208201528082018790529051918b16917fe60c26cbb956b589a247aabcdf98ec9be5509ac7ee76c3508b41647fa1457eca9181900360600190a2505050505050505050565b6000808273__AOLibrary_____________________________632fca5414826040518263ffffffff1660e060020a0281526004018082600160a060020a0316600160a060020a0316815260200191505060206040518083038186803b1580156118b557600080fd5b505af41580156118c9573d6000803e3d6000fd5b505050506040513d60208110156118df57600080fd5b505115156118ec57600080fd5b600b546040805160e060020a63029b7d530281523360048201529051600092600160a060020a03169163029b7d5391602480830192602092919082900301818787803b15801561193b57600080fd5b505af115801561194f573d6000803e3d6000fd5b505050506040513d602081101561196557600080fd5b5051600160a060020a0316141561197b57600080fd5b600c54600b546040805160e060020a63029b7d530281523360048201529051600160a060020a0393841693633ebc2ab393169163029b7d539160248083019260209291908290030181600087803b1580156119d557600080fd5b505af11580156119e9573d6000803e3d6000fd5b505050506040513d60208110156119ff57600080fd5b50516040805160e060020a63ffffffff8516028152600160a060020a0390921660048301525160248083019260209291908290030181600087803b158015611a4657600080fd5b505af1158015611a5a573d6000803e3d6000fd5b505050506040513d6020811015611a7057600080fd5b505115611a7c57600080fd5b611a85846107bc565b1515611a9057600080fd5b611a9a3385612681565b1515611aa557600080fd5b600b546040805160e060020a63029b7d530281523360048201529051600160a060020a039092169163029b7d53916024808201926020929091908290030181600087803b158015611af557600080fd5b505af1158015611b09573d6000803e3d6000fd5b505050506040513d6020811015611b1f57600080fd5b50516040805160e060020a63fd6f4137028152600160a060020a03871660048201529051919450309163fd6f4137916024808201926020929091908290030181600087803b158015611b7057600080fd5b505af1158015611b84573d6000803e3d6000fd5b505050506040513d6020811015611b9a57600080fd5b50519150600160a060020a038381169083161415611bb757600080fd5b6010546040805160e060020a63fd6f4137028152600160a060020a0387811660048301529151919092169163985e4cd091309163fd6f41379160248083019260209291908290030181600087803b158015611c1157600080fd5b505af1158015611c25573d6000803e3d6000fd5b505050506040513d6020811015611c3b57600080fd5b50516040805160e060020a63ffffffff8516028152600160a060020a0390921660048301525160248083019260209291908290030181600087803b158015611c8257600080fd5b505af1158015611c96573d6000803e3d6000fd5b505050506040513d6020811015611cac57600080fd5b50516010546040805160e460020a630985e4cd028152600160a060020a0387811660048301529151919092169163985e4cd09160248083019260209291908290030181600087803b158015611d0057600080fd5b505af1158015611d14573d6000803e3d6000fd5b505050506040513d6020811015611d2a57600080fd5b505111611d3657600080fd5b611d4084846146f5565b50505050565b600954600160a060020a031681565b600080600080600080611d66614b83565b50600087815260126020908152604091829020825160e081018452815481526001820154600160a060020a0390811693820193909352600282015492831693810184905260a060020a90920460ff161515606083015260038101546080830152600481015460a08301526005015460c0820152901515611de557600080fd5b602081015160408201516060830151608084015160a085015160c090950151939c929b5090995097509195509350915050565b6000806000808573__AOLibrary_____________________________632d706a34826040518263ffffffff1660e060020a0281526004018082600160a060020a0316600160a060020a0316815260200191505060206040518083038186803b158015611e8357600080fd5b505af4158015611e97573d6000803e3d6000fd5b505050506040513d6020811015611ead57600080fd5b505180611f3f57506040805160e260020a630bf29505028152600160a060020a0383166004820152905173__AOLibrary_____________________________91632fca5414916024808301926020929190829003018186803b158015611f1257600080fd5b505af4158015611f26573d6000803e3d6000fd5b505050506040513d6020811015611f3c57600080fd5b50515b1515611f4a57600080fd5b8573__AOLibrary_____________________________632d706a34826040518263ffffffff1660e060020a0281526004018082600160a060020a0316600160a060020a0316815260200191505060206040518083038186803b158015611faf57600080fd5b505af4158015611fc3573d6000803e3d6000fd5b505050506040513d6020811015611fd957600080fd5b50518061206b57506040805160e260020a630bf29505028152600160a060020a0383166004820152905173__AOLibrary_____________________________91632fca5414916024808301926020929190829003018186803b15801561203e57600080fd5b505af4158015612052573d6000803e3d6000fd5b505050506040513d602081101561206857600080fd5b50515b151561207657600080fd5b600b546040805160e060020a63029b7d530281523360048201529051600092600160a060020a03169163029b7d5391602480830192602092919082900301818787803b1580156120c557600080fd5b505af11580156120d9573d6000803e3d6000fd5b505050506040513d60208110156120ef57600080fd5b5051600160a060020a0316141561210557600080fd5b600c54600b546040805160e060020a63029b7d530281523360048201529051600160a060020a0393841693633ebc2ab393169163029b7d539160248083019260209291908290030181600087803b15801561215f57600080fd5b505af1158015612173573d6000803e3d6000fd5b505050506040513d602081101561218957600080fd5b50516040805160e060020a63ffffffff8516028152600160a060020a0390921660048301525160248083019260209291908290030181600087803b1580156121d057600080fd5b505af11580156121e4573d6000803e3d6000fd5b505050506040513d60208110156121fa57600080fd5b50511561220657600080fd5b6040805160e060020a6371ce52ed028152336004820152600160a060020a038a1660248201529051899130916371ce52ed916044808201926020929091908290030181600087803b15801561225a57600080fd5b505af115801561226e573d6000803e3d6000fd5b505050506040513d602081101561228457600080fd5b5051151561229157600080fd5b61229a896107bc565b15156122a557600080fd5b6040805160e260020a630b5c1a8d028152600160a060020a038b16600482015290516000985073__AOLibrary_____________________________91632d706a34916024808301926020929190829003018186803b15801561230657600080fd5b505af415801561231a573d6000803e3d6000fd5b505050506040513d602081101561233057600080fd5b5051156124df576040805160e260020a630b5c1a8d028152600160a060020a038a16600482015290516001985073__AOLibrary_____________________________91632d706a34916024808301926020929190829003018186803b15801561239857600080fd5b505af41580156123ac573d6000803e3d6000fd5b505050506040513d60208110156123c257600080fd5b505115156123cf57600080fd5b600c546040805160e060020a633ebc2ab3028152600160a060020a038c8116600483015291519190921691633ebc2ab39160248083019260209291908290030181600087803b15801561242157600080fd5b505af1158015612435573d6000803e3d6000fd5b505050506040513d602081101561244b57600080fd5b50511561245757600080fd5b600c546040805160e060020a633ebc2ab3028152600160a060020a038b8116600483015291519190921691633ebc2ab39160248083019260209291908290030181600087803b1580156124a957600080fd5b505af11580156124bd573d6000803e3d6000fd5b505050506040513d60208110156124d357600080fd5b5051156124df57600080fd5b600160a060020a03808a1660009081526011602052604090206001810180548b8416600160a060020a031982161790915590975016945086156125a157600b546040805160e260020a633d5d0f13028152600160a060020a038c811660048301529151919092169163f5743c4c9160248083019260209291908290030181600087803b15801561256e57600080fd5b505af1158015612582573d6000803e3d6000fd5b505050506040513d602081101561259857600080fd5b50519350612622565b600d546040805160e260020a633d5d0f13028152600160a060020a038c811660048301529151919092169163f5743c4c9160248083019260209291908290030181600087803b1580156125f357600080fd5b505af1158015612607573d6000803e3d6000fd5b505050506040513d602081101561261d57600080fd5b505193505b600186015460408051600160a060020a03888116825292831660208201528082018790529051918b16917f2e81a908b9dece3c9a64e14f5daaa72174a5403092f82ab988ba4cc14b1390029181900360600190a2505050505050505050565b600f54604080517f7b23a437000000000000000000000000000000000000000000000000000000008152600160a060020a038481166004830152915160009384931691637b23a43791602480830192606092919082900301818787803b1580156126ea57600080fd5b505af11580156126fe573d6000803e3d6000fd5b505050506040513d606081101561271457600080fd5b50516040805160e260020a630b5c1a8d028152600160a060020a0383166004820152905191925073__AOLibrary_____________________________91632d706a3491602480820192602092909190829003018186803b15801561277757600080fd5b505af415801561278b573d6000803e3d6000fd5b505050506040513d60208110156127a157600080fd5b5051806128d657506040805160e260020a630bf29505028152600160a060020a0383166004820152905173__AOLibrary_____________________________91632fca5414916024808301926020929190829003018186803b15801561280657600080fd5b505af415801561281a573d6000803e3d6000fd5b505050506040513d602081101561283057600080fd5b505180156128d65750600f54604080517f56dbc007000000000000000000000000000000000000000000000000000000008152600160a060020a0384811660048301528681166024830152915191909216916356dbc0079160448083019260209291908290030181600087803b1580156128a957600080fd5b505af11580156128bd573d6000803e3d6000fd5b505050506040513d60208110156128d357600080fd5b50515b801561295d57506040805160e060020a6371ce52ed028152600160a060020a03868116600483015283166024820152905130916371ce52ed9160448083019260209291908290030181600087803b15801561293057600080fd5b505af1158015612944573d6000803e3d6000fd5b505050506040513d602081101561295a57600080fd5b50515b91505b5092915050565b600154600160a060020a031681565b6000546001546040805160e260020a633d9abf2b028152336004820152600160a060020a0393841660248201529290911660448301525173__AOLibrary_____________________________9163f66afcac916064808301926020929190829003018186803b1580156129e857600080fd5b505af41580156129fc573d6000803e3d6000fd5b505050506040513d6020811015612a1257600080fd5b50511515612a1f57600080fd5b600160a060020a0382161515612a3457600080fd5b600160a060020a03919091166000908152600260205260409020805460ff1916911515919091179055565b6000612a69614bbf565b612a72836107bc565b1515612a7d57600080fd5b5050600160a060020a039081166000908152601160209081526040918290208251608081018452815485168152600182015485169281018390526002909101549384169281019290925260a060020a90920460ff16151560609091015290565b600160a060020a03811660009081526011602052604081206002015460a060020a900460ff1680156108325750600b546040805160e060020a63029b7d53028152600160a060020a0386811660048301529151919092169163029b7d539160248083019260209291908290030181600087803b158015612b5c57600080fd5b505af1158015612b70573d6000803e3d6000fd5b505050506040513d6020811015612b8657600080fd5b5051600160a060020a038381166000908152601160205260409020548116911614905092915050565b6000546001546040805160e260020a633d9abf2b028152336004820152600160a060020a0393841660248201529290911660448301525173__AOLibrary_____________________________9163f66afcac916064808301926020929190829003018186803b158015612c2157600080fd5b505af4158015612c35573d6000803e3d6000fd5b505050506040513d6020811015612c4b57600080fd5b50511515612c5857600080fd5b600160a060020a0381161515612c6d57600080fd5b60088054600160a060020a0319908116600160a060020a039384161791829055600f8054929093169116179055565b6000612ca6614bbf565b604080517fe2c8e54a000000000000000000000000000000000000000000000000000000008152600160a060020a038681166004830152851660248201529051600091309163e2c8e54a9160448082019260209290919082900301818787803b158015612d1257600080fd5b505af1158015612d26573d6000803e3d6000fd5b505050506040513d6020811015612d3c57600080fd5b50511515612d4957600080fd5b600160a060020a038481166000908152601160209081526040808320815160808101835281548616815260018201548616818501526002909101548086168284015260a060020a900460ff1615156060820152600b54825160e060020a63029b7d530281528b8716600482015292519197509094169363029b7d5393602480840194938390030190829087803b158015612de257600080fd5b505af1158015612df6573d6000803e3d6000fd5b505050506040513d6020811015612e0c57600080fd5b50518251909150600160a060020a0380831691161415612e2f5760019250612e5b565b8160200151600160a060020a031681600160a060020a03161415612e565760029250612e5b565b600392505b505092915050565b600b546040805160e060020a63029b7d53028152600160a060020a03848116600483015291516000938493849391169163029b7d539160248082019260209290919082900301818787803b158015612eba57600080fd5b505af1158015612ece573d6000803e3d6000fd5b505050506040513d6020811015612ee457600080fd5b5051600086815260126020526040902060028101549193509150600160a060020a03161515612f165760029250612e5b565b6001810154600160a060020a03838116911614612f365760039250612e5b565b8060040154421080612f4b5750806005015442115b15612f595760049250612e5b565b600281015460a060020a900460ff1615612f765760059250612e5b565b60105460028201546040805160e060020a63fd6f4137028152600160a060020a0392831660048201529051919092169163985e4cd091309163fd6f41379160248083019260209291908290030181600087803b158015612fd557600080fd5b505af1158015612fe9573d6000803e3d6000fd5b505050506040513d6020811015612fff57600080fd5b50516040805160e060020a63ffffffff8516028152600160a060020a0390921660048301525160248083019260209291908290030181600087803b15801561304657600080fd5b505af115801561305a573d6000803e3d6000fd5b505050506040513d602081101561307057600080fd5b50516010546040805160e460020a630985e4cd028152600160a060020a0386811660048301529151919092169163985e4cd09160248083019260209291908290030181600087803b1580156130c457600080fd5b505af11580156130d8573d6000803e3d6000fd5b505050506040513d60208110156130ee57600080fd5b5051116130fe5760069250612e5b565b60019250612e5b565b6000546001546040805160e260020a633d9abf2b028152336004820152600160a060020a0393841660248201529290911660448301525173__AOLibrary_____________________________9163f66afcac916064808301926020929190829003018186803b15801561317957600080fd5b505af415801561318d573d6000803e3d6000fd5b505050506040513d60208110156131a357600080fd5b505115156131b057600080fd5b600160a060020a03811615156131c557600080fd5b60048054600160a060020a03909216600160a060020a03199283168117909155600b8054909216179055565b60026020526000908152604090205460ff1681565b600554600160a060020a031681565b600054600160a060020a031681565b600854600160a060020a031681565b600454600160a060020a031681565b6000546001546040805160e260020a633d9abf2b028152336004820152600160a060020a0393841660248201529290911660448301525173__AOLibrary_____________________________9163f66afcac916064808301926020929190829003018186803b1580156132b457600080fd5b505af41580156132c8573d6000803e3d6000fd5b505050506040513d60208110156132de57600080fd5b505115156132eb57600080fd5b6040805160e260020a630bf29505028152600160a060020a0383166004820152905173__AOLibrary_____________________________91632fca5414916024808301926020929190829003018186803b15801561334857600080fd5b505af415801561335c573d6000803e3d6000fd5b505050506040513d602081101561337257600080fd5b5051151561337f57600080fd5b60038054600160a060020a031916600160a060020a0392909216919091179055565b60008060006133ae614bbf565b6133b7856107bc565b15156133c257600080fd5b50505050600160a060020a039081166000908152601160209081526040918290208251608081018452815485168082526001830154861693820184905260029092015494851693810184905260a060020a90940460ff1615156060909401939093529192565b600160a060020a03811660009081526011602052604081206002015460a060020a900460ff1680156108325750600b546040805160e060020a63029b7d53028152600160a060020a0386811660048301529151919092169163029b7d539160248083019260209291908290030181600087803b1580156134a757600080fd5b505af11580156134bb573d6000803e3d6000fd5b505050506040513d60208110156134d157600080fd5b5051600160a060020a038381166000908152601160205260409020600101548116911614905092915050565b600b546040805160e060020a63029b7d53028152600160a060020a03858116600483015291516000938493169163029b7d5391602480830192602092919082900301818787803b15801561355057600080fd5b505af1158015613564573d6000803e3d6000fd5b505050506040513d602081101561357a57600080fd5b50519050600160a060020a03811615156135975760009150612960565b600160a060020a03831660009081526011602052604090206002015460a060020a900460ff1680156136385750600160a060020a038381166000908152601160205260409020548116908216148061360e5750600160a060020a038381166000908152601160205260409020600101548116908216145b806136385750600160a060020a038381166000908152601160205260409020600201548116908216145b9150612960565b600354600160a060020a031681565b600b546040805160e060020a63029b7d5302815233600482015290516000928392600160a060020a039091169163029b7d539160248082019260209290919082900301818787803b1580156136a257600080fd5b505af11580156136b6573d6000803e3d6000fd5b505050506040513d60208110156136cc57600080fd5b5051600160a060020a031614156136e257600080fd5b600c54600b546040805160e060020a63029b7d530281523360048201529051600160a060020a0393841693633ebc2ab393169163029b7d539160248083019260209291908290030181600087803b15801561373c57600080fd5b505af1158015613750573d6000803e3d6000fd5b505050506040513d602081101561376657600080fd5b50516040805160e060020a63ffffffff8516028152600160a060020a0390921660048301525160248083019260209291908290030181600087803b1580156137ad57600080fd5b505af11580156137c1573d6000803e3d6000fd5b505050506040513d60208110156137d757600080fd5b5051156137e357600080fd5b5060008181526012602052604090206137fc8233612e63565b60ff16600114151561380d57600080fd5b60028101805474ff0000000000000000000000000000000000000000191660a060020a1790819055600182015461385091600160a060020a0390811691166146f5565b60028101546040518391600160a060020a0316907fa06cbfd9ebd454fc08633c987fb3cca83ac8f69dc24ae471a3c5be82ffff7d1290600090a35050565b6000806000806000808673__AOLibrary_____________________________632fca5414826040518263ffffffff1660e060020a0281526004018082600160a060020a0316600160a060020a0316815260200191505060206040518083038186803b1580156138fc57600080fd5b505af4158015613910573d6000803e3d6000fd5b505050506040513d602081101561392657600080fd5b5051151561393357600080fd5b600b546040805160e060020a63029b7d530281523360048201529051600092600160a060020a03169163029b7d5391602480830192602092919082900301818787803b15801561398257600080fd5b505af1158015613996573d6000803e3d6000fd5b505050506040513d60208110156139ac57600080fd5b5051600160a060020a031614156139c257600080fd5b600c54600b546040805160e060020a63029b7d530281523360048201529051600160a060020a0393841693633ebc2ab393169163029b7d539160248083019260209291908290030181600087803b158015613a1c57600080fd5b505af1158015613a30573d6000803e3d6000fd5b505050506040513d6020811015613a4657600080fd5b50516040805160e060020a63ffffffff8516028152600160a060020a0390921660048301525160248083019260209291908290030181600087803b158015613a8d57600080fd5b505af1158015613aa1573d6000803e3d6000fd5b505050506040513d6020811015613ab757600080fd5b505115613ac357600080fd5b613acc886107bc565b1515613ad757600080fd5b600b546040805160e060020a63029b7d530281523360048201529051600160a060020a039092169163029b7d53916024808201926020929091908290030181600087803b158015613b2757600080fd5b505af1158015613b3b573d6000803e3d6000fd5b505050506040513d6020811015613b5157600080fd5b50516040805160e060020a63fd6f4137028152600160a060020a038b1660048201529051919850309163fd6f4137916024808201926020929091908290030181600087803b158015613ba257600080fd5b505af1158015613bb6573d6000803e3d6000fd5b505050506040513d6020811015613bcc57600080fd5b50519550600160a060020a038781169087161415613be957600080fd5b6010546040805160e460020a630985e4cd028152600160a060020a0389811660048301529151919092169163985e4cd09160248083019260209291908290030181600087803b158015613c3b57600080fd5b505af1158015613c4f573d6000803e3d6000fd5b505050506040513d6020811015613c6557600080fd5b50516010546040805160e460020a630985e4cd028152600160a060020a038b811660048301529151919092169163985e4cd09160248083019260209291908290030181600087803b158015613cb957600080fd5b505af1158015613ccd573d6000803e3d6000fd5b505050506040513d6020811015613ce357600080fd5b505111613cef57600080fd5b613cf76148a5565b94509450600a60008154809291906001019190505550308888600a546040516020018085600160a060020a0316600160a060020a03166c0100000000000000000000000002815260140184600160a060020a0316600160a060020a03166c0100000000000000000000000002815260140183600160a060020a0316600160a060020a03166c010000000000000000000000000281526014018281526020019450505050506040516020818303038152906040526040518082805190602001908083835b60208310613dd95780518252601f199092019160209182019101613dba565b6001836020036101000a03801982511681845116808217855250505050505090500191505060405180910390209250601260008460001916600019168152602001908152602001600020915082826000018160001916905550868260010160006101000a815481600160a060020a030219169083600160a060020a03160217905550878260020160006101000a815481600160a060020a030219169083600160a060020a03160217905550428260030181905550613ea4858360030154614b7090919063ffffffff16565b60048301819055613ebb908563ffffffff614b7016565b600583018190556003830154600484015460408051600160a060020a038b811682528c81166020830152818301949094526060810192909252608082019390935291518592918b16917f981571316fc5090cfcb298ad4ce178e523677e724c0ae1ec87fd70743b2c3f6b919081900360a00190a35050505050505050565b6000613f43614bbf565b613f4c836107bc565b1515613f5757600080fd5b5050600160a060020a03908116600090815260116020908152604091829020825160808101845281548516815260018201548516928101929092526002015492831691810182905260a060020a90920460ff16151560609092019190915290565b6000546001546040805160e260020a633d9abf2b028152336004820152600160a060020a0393841660248201529290911660448301525173__AOLibrary_____________________________9163f66afcac916064808301926020929190829003018186803b15801561402a57600080fd5b505af415801561403e573d6000803e3d6000fd5b505050506040513d602081101561405457600080fd5b5051151561406157600080fd5b600160a060020a038116151561407657600080fd5b60008054600160a060020a031916600160a060020a0392909216919091179055565b6000808573__AOLibrary_____________________________632d706a34826040518263ffffffff1660e060020a0281526004018082600160a060020a0316600160a060020a0316815260200191505060206040518083038186803b15801561410057600080fd5b505af4158015614114573d6000803e3d6000fd5b505050506040513d602081101561412a57600080fd5b5051806141bc57506040805160e260020a630bf29505028152600160a060020a0383166004820152905173__AOLibrary_____________________________91632fca5414916024808301926020929190829003018186803b15801561418f57600080fd5b505af41580156141a3573d6000803e3d6000fd5b505050506040513d60208110156141b957600080fd5b50515b15156141c757600080fd5b8573__AOLibrary_____________________________632d706a34826040518263ffffffff1660e060020a0281526004018082600160a060020a0316600160a060020a0316815260200191505060206040518083038186803b15801561422c57600080fd5b505af4158015614240573d6000803e3d6000fd5b505050506040513d602081101561425657600080fd5b5051151561426357600080fd5b8573__AOLibrary_____________________________632d706a34826040518263ffffffff1660e060020a0281526004018082600160a060020a0316600160a060020a0316815260200191505060206040518083038186803b1580156142c857600080fd5b505af41580156142dc573d6000803e3d6000fd5b505050506040513d60208110156142f257600080fd5b50518061438457506040805160e260020a630bf29505028152600160a060020a0383166004820152905173__AOLibrary_____________________________91632fca5414916024808301926020929190829003018186803b15801561435757600080fd5b505af415801561436b573d6000803e3d6000fd5b505050506040513d602081101561438157600080fd5b50515b151561438f57600080fd5b8573__AOLibrary_____________________________632d706a34826040518263ffffffff1660e060020a0281526004018082600160a060020a0316600160a060020a0316815260200191505060206040518083038186803b1580156143f457600080fd5b505af4158015614408573d6000803e3d6000fd5b505050506040513d602081101561441e57600080fd5b5051806144b057506040805160e260020a630bf29505028152600160a060020a0383166004820152905173__AOLibrary_____________________________91632fca5414916024808301926020929190829003018186803b15801561448357600080fd5b505af4158015614497573d6000803e3d6000fd5b505050506040513d60208110156144ad57600080fd5b50515b15156144bb57600080fd5b600454600160a060020a03163314806144de5750600654600160a060020a031633145b15156144e957600080fd5b6144f28a6107bc565b156144fc57600080fd5b50505050600160a060020a0395861660009081526011602052604090208054600160a060020a031990811696881696909617815560018082018054881696891696909617909555600201805460a060020a9616939096169290921774ff000000000000000000000000000000000000000019169390931790935592915050565b6000614586614bbf565b61458f836107bc565b151561459a57600080fd5b5050600160a060020a0390811660009081526011602090815260409182902082516080810184528154851680825260018301548616938201939093526002909101549384169281019290925260a060020a90920460ff16151560609091015290565b600654600160a060020a031681565b6000546001546040805160e260020a633d9abf2b028152336004820152600160a060020a0393841660248201529290911660448301525173__AOLibrary_____________________________9163f66afcac916064808301926020929190829003018186803b15801561467d57600080fd5b505af4158015614691573d6000803e3d6000fd5b505050506040513d60208110156146a757600080fd5b505115156146b457600080fd5b600160a060020a03811615156146c957600080fd5b60098054600160a060020a03909216600160a060020a0319928316811790915560108054909216179055565b600160a060020a0380831660008181526011602090815260408083208054878716600160a060020a03198216178255600d54835160e260020a633d5d0f130281526004810197909752925191969081169592169263f5743c4c926024808201939182900301818787803b15801561476b57600080fd5b505af115801561477f573d6000803e3d6000fd5b505050506040513d602081101561479557600080fd5b50519050600081116147a657600080fd5b601054604080517f9579b1a8000000000000000000000000000000000000000000000000000000008152600160a060020a038581166004830152888116602483015291519190921691639579b1a89160448083019260209291908290030181600087803b15801561481657600080fd5b505af115801561482a573d6000803e3d6000fd5b505050506040513d602081101561484057600080fd5b5051151561484d57600080fd5b825460408051600160a060020a03858116825292831660208201528082018490529051918716917f7883860d48d58f44441bf70d860a25ba5bb7f97cddbb6f0d85a3e1fe0f7f184e9181900360600190a25050505050565b600e54600354604080517f7065bedc000000000000000000000000000000000000000000000000000000008152600160a060020a03928316600482015260248101829052602060448201527f6368616c6c656e676554414f4164766f636174654c6f636b4475726174696f6e606482015290516000938493849384939190921691637065bedc916084808301928692919082900301818387803b15801561494b57600080fd5b505af115801561495f573d6000803e3d6000fd5b505050506040513d6000823e601f3d908101601f1916820160405260a081101561498857600080fd5b8151602083015160408401516060850151608086018051949693959294919392830192916401000000008111156149be57600080fd5b820160208101848111156149d157600080fd5b81516401000000008111828201871017156149eb57600080fd5b5050600e54600354604080517f7065bedc000000000000000000000000000000000000000000000000000000008152600160a060020a039283166004820152602480820183905260448201527f6368616c6c656e676554414f4164766f63617465436f6d706c6574654475726160648201527f74696f6e00000000000000000000000000000000000000000000000000000000608482015290519a9c50911698637065bedc985060a48083019850600097509095509085900301925083915084905087803b158015614abc57600080fd5b505af1158015614ad0573d6000803e3d6000fd5b505050506040513d6000823e601f3d908101601f1916820160405260a0811015614af957600080fd5b815160208301516040840151606085015160808601805194969395929491939283019291640100000000811115614b2f57600080fd5b82016020810184811115614b4257600080fd5b8151640100000000811182820187101715614b5c57600080fd5b50999c979b50969950505050505050505050565b81810182811015614b7d57fe5b92915050565b6040805160e081018252600080825260208201819052918101829052606081018290526080810182905260a0810182905260c081019190915290565b604080516080810182526000808252602082018190529181018290526060810191909152905600a165627a7a7230582074bbfa47c4e7ec080c549aae2d2a5d3b4adb2a4dd4e2da713900a6caf68140da0029",
	"source": "pragma solidity ^0.4.24;\n\nimport './SafeMath.sol';\nimport './AOLibrary.sol';\nimport './TheAO.sol';\nimport './INameTAOPosition.sol';\nimport './INameFactory.sol';\nimport './INameAccountRecovery.sol';\nimport './ITAOFactory.sol';\nimport './ITAOAncestry.sol';\nimport './IAOSetting.sol';\nimport './Logos.sol';\n\n/**\n * @title NameTAOPosition\n */\ncontract NameTAOPosition is TheAO, INameTAOPosition {\n\tusing SafeMath for uint256;\n\n\taddress public settingTAOId;\n\taddress public nameFactoryAddress;\n\taddress public nameAccountRecoveryAddress;\n\taddress public taoFactoryAddress;\n\taddress public aoSettingAddress;\n\taddress public taoAncestryAddress;\n\taddress public logosAddress;\n\n\tuint256 public totalTAOAdvocateChallenges;\n\n\tINameFactory internal _nameFactory;\n\tINameAccountRecovery internal _nameAccountRecovery;\n\tITAOFactory internal _taoFactory;\n\tIAOSetting internal _aoSetting;\n\tITAOAncestry internal _taoAncestry;\n\tLogos internal _logos;\n\n\tstruct PositionDetail {\n\t\taddress advocateId;\n\t\taddress listenerId;\n\t\taddress speakerId;\n\t\tbool created;\n\t}\n\n\tstruct TAOAdvocateChallenge {\n\t\tbytes32 challengeId;\n\t\taddress newAdvocateId;\t\t// The Name ID that wants to be the new Advocate\n\t\taddress taoId;\t\t\t\t// The TAO ID being challenged\n\t\tbool completed;\t\t\t\t// Status of the challenge\n\t\tuint256 createdTimestamp;\t// Timestamp when this challenge is created\n\t\tuint256 lockedUntilTimestamp;\t// The deadline for current Advocate to respond\n\t\tuint256 completeBeforeTimestamp; // The deadline for the challenger to respond and complete the challenge\n\t}\n\n\t// Mapping from Name/TAO ID to its PositionDetail info\n\tmapping (address => PositionDetail) internal positionDetails;\n\n\t// Mapping from challengeId to TAOAdvocateChallenge info\n\tmapping (bytes32 => TAOAdvocateChallenge) internal taoAdvocateChallenges;\n\n\t// Event to be broadcasted to public when current Advocate of TAO sets New Advocate\n\tevent SetAdvocate(address indexed taoId, address oldAdvocateId, address newAdvocateId, uint256 nonce);\n\n\t// Event to be broadcasted to public when current Advocate of Name/TAO sets New Listener\n\tevent SetListener(address indexed taoId, address oldListenerId, address newListenerId, uint256 nonce);\n\n\t// Event to be broadcasted to public when current Advocate of Name/TAO sets New Speaker\n\tevent SetSpeaker(address indexed taoId, address oldSpeakerId, address newSpeakerId, uint256 nonce);\n\n\t// Event to be broadcasted to public when a Name challenges to become TAO's new Advocate\n\tevent ChallengeTAOAdvocate(address indexed taoId, bytes32 indexed challengeId, address currentAdvocateId, address challengerAdvocateId, uint256 createdTimestamp, uint256 lockedUntilTimestamp, uint256 completeBeforeTimestamp);\n\n\t// Event to be broadcasted to public when Challenger completes the TAO Advocate challenge\n\tevent CompleteTAOAdvocateChallenge(address indexed taoId, bytes32 indexed challengeId);\n\n\t/**\n\t * @dev Constructor function\n\t */\n\tconstructor(address _nameFactoryAddress, address _taoFactoryAddress) public {\n\t\tsetNameFactoryAddress(_nameFactoryAddress);\n\t\tsetTAOFactoryAddress(_taoFactoryAddress);\n\n\t\tnameTAOPositionAddress = address(this);\n\t}\n\n\t/**\n\t * @dev Checks if the calling contract address is The AO\n\t *\t\tOR\n\t *\t\tIf The AO is set to a Name/TAO, then check if calling address is the Advocate\n\t */\n\tmodifier onlyTheAO {\n\t\trequire (AOLibrary.isTheAO(msg.sender, theAO, nameTAOPositionAddress));\n\t\t_;\n\t}\n\n\t/**\n\t * @dev Check if calling address is Factory\n\t */\n\tmodifier onlyFactory {\n\t\trequire (msg.sender == nameFactoryAddress || msg.sender == taoFactoryAddress);\n\t\t_;\n\t}\n\n\t/**\n\t * @dev Check if `_taoId` is a TAO\n\t */\n\tmodifier isTAO(address _taoId) {\n\t\trequire (AOLibrary.isTAO(_taoId));\n\t\t_;\n\t}\n\n\t/**\n\t * @dev Check if `_nameId` is a Name\n\t */\n\tmodifier isName(address _nameId) {\n\t\trequire (AOLibrary.isName(_nameId));\n\t\t_;\n\t}\n\n\t/**\n\t * @dev Check if `_id` is a Name or a TAO\n\t */\n\tmodifier isNameOrTAO(address _id) {\n\t\trequire (AOLibrary.isName(_id) || AOLibrary.isTAO(_id));\n\t\t_;\n\t}\n\n\t/**\n\t * @dev Check is msg.sender address is a Name\n\t */\n\t modifier senderIsName() {\n\t\trequire (_nameFactory.ethAddressToNameId(msg.sender) != address(0));\n\t\t_;\n\t }\n\n\t/**\n\t * @dev Check if msg.sender is the current advocate of a Name/TAO ID\n\t */\n\tmodifier onlyAdvocate(address _id) {\n\t\trequire (this.senderIsAdvocate(msg.sender, _id));\n\t\t_;\n\t}\n\n\t/**\n\t * @dev Only allowed if sender's Name is not compromised\n\t */\n\tmodifier senderNameNotCompromised() {\n\t\trequire (!_nameAccountRecovery.isCompromised(_nameFactory.ethAddressToNameId(msg.sender)));\n\t\t_;\n\t}\n\n\t/***** The AO ONLY METHODS *****/\n\t/**\n\t * @dev Transfer ownership of The AO to new address\n\t * @param _theAO The new address to be transferred\n\t */\n\tfunction transferOwnership(address _theAO) public onlyTheAO {\n\t\trequire (_theAO != address(0));\n\t\ttheAO = _theAO;\n\t}\n\n\t/**\n\t * @dev Whitelist `_account` address to transact on behalf of others\n\t * @param _account The address to whitelist\n\t * @param _whitelist Either to whitelist or not\n\t */\n\tfunction setWhitelist(address _account, bool _whitelist) public onlyTheAO {\n\t\trequire (_account != address(0));\n\t\twhitelist[_account] = _whitelist;\n\t}\n\n\t/**\n\t * @dev The AO set the NameFactory Address\n\t * @param _nameFactoryAddress The address of NameFactory\n\t */\n\tfunction setNameFactoryAddress(address _nameFactoryAddress) public onlyTheAO {\n\t\trequire (_nameFactoryAddress != address(0));\n\t\tnameFactoryAddress = _nameFactoryAddress;\n\t\t_nameFactory = INameFactory(_nameFactoryAddress);\n\t}\n\n\t/**\n\t * @dev The AO set the NameAccountRecovery Address\n\t * @param _nameAccountRecoveryAddress The address of NameAccountRecovery\n\t */\n\tfunction setNameAccountRecoveryAddress(address _nameAccountRecoveryAddress) public onlyTheAO {\n\t\trequire (_nameAccountRecoveryAddress != address(0));\n\t\tnameAccountRecoveryAddress = _nameAccountRecoveryAddress;\n\t\t_nameAccountRecovery = INameAccountRecovery(nameAccountRecoveryAddress);\n\t}\n\n\t/**\n\t * @dev The AO set the TAOFactory Address\n\t * @param _taoFactoryAddress The address of TAOFactory\n\t */\n\tfunction setTAOFactoryAddress(address _taoFactoryAddress) public onlyTheAO {\n\t\trequire (_taoFactoryAddress != address(0));\n\t\ttaoFactoryAddress = _taoFactoryAddress;\n\t\t_taoFactory = ITAOFactory(_taoFactoryAddress);\n\t}\n\n\t/**\n\t * @dev The AO sets setting TAO ID\n\t * @param _settingTAOId The new setting TAO ID to set\n\t */\n\tfunction setSettingTAOId(address _settingTAOId) public onlyTheAO {\n\t\trequire (AOLibrary.isTAO(_settingTAOId));\n\t\tsettingTAOId = _settingTAOId;\n\t}\n\n\t/**\n\t * @dev The AO sets AO Setting address\n\t * @param _aoSettingAddress The address of AOSetting\n\t */\n\tfunction setAOSettingAddress(address _aoSettingAddress) public onlyTheAO {\n\t\trequire (_aoSettingAddress != address(0));\n\t\taoSettingAddress = _aoSettingAddress;\n\t\t_aoSetting = IAOSetting(_aoSettingAddress);\n\t}\n\n\t/**\n\t * @dev The AO set the TAOAncestry Address\n\t * @param _taoAncestryAddress The address of TAOAncestry\n\t */\n\tfunction setTAOAncestryAddress(address _taoAncestryAddress) public onlyTheAO {\n\t\trequire (_taoAncestryAddress != address(0));\n\t\ttaoAncestryAddress = _taoAncestryAddress;\n\t\t_taoAncestry = ITAOAncestry(taoAncestryAddress);\n\t}\n\n\t/**\n\t * @dev The AO set the logosAddress Address\n\t * @param _logosAddress The address of Logos\n\t */\n\tfunction setLogosAddress(address _logosAddress) public onlyTheAO {\n\t\trequire (_logosAddress != address(0));\n\t\tlogosAddress = _logosAddress;\n\t\t_logos = Logos(_logosAddress);\n\t}\n\n\t/***** PUBLIC METHODS *****/\n\t/**\n\t * @dev Check whether or not a Name/TAO ID exist in the list\n\t * @param _id The ID to be checked\n\t * @return true if yes, false otherwise\n\t */\n\tfunction isExist(address _id) public view returns (bool) {\n\t\treturn positionDetails[_id].created;\n\t}\n\n\t/**\n\t * @dev Check whether or not `_sender` eth address is Advocate of _id\n\t * @param _sender The eth address to check\n\t * @param _id The ID to be checked\n\t * @return true if yes, false otherwise\n\t */\n\tfunction senderIsAdvocate(address _sender, address _id) external view returns (bool) {\n\t\treturn (positionDetails[_id].created && positionDetails[_id].advocateId == _nameFactory.ethAddressToNameId(_sender));\n\t}\n\n\t/**\n\t * @dev Check whether or not `_sender` eth address is Listener of _id\n\t * @param _sender The eth address to check\n\t * @param _id The ID to be checked\n\t * @return true if yes, false otherwise\n\t */\n\tfunction senderIsListener(address _sender, address _id) external view returns (bool) {\n\t\treturn (positionDetails[_id].created && positionDetails[_id].listenerId == _nameFactory.ethAddressToNameId(_sender));\n\t}\n\n\t/**\n\t * @dev Check whether or not `_sender` eth address is Speaker of _id\n\t * @param _sender The eth address to check\n\t * @param _id The ID to be checked\n\t * @return true if yes, false otherwise\n\t */\n\tfunction senderIsSpeaker(address _sender, address _id) external view returns (bool) {\n\t\treturn (positionDetails[_id].created && positionDetails[_id].speakerId == _nameFactory.ethAddressToNameId(_sender));\n\t}\n\n\t/**\n\t * @dev Check whether or not `_sender` eth address is Advocate of Parent of _id\n\t * @param _sender The eth address to check\n\t * @param _id The ID to be checked\n\t * @return true if yes, false otherwise\n\t */\n\tfunction senderIsAdvocateOfParent(address _sender, address _id) public view returns (bool) {\n\t\t(address _parentId,,) = _taoAncestry.getAncestryById(_id);\n\t\t return ((AOLibrary.isName(_parentId) || (AOLibrary.isTAO(_parentId) && _taoAncestry.isChild(_parentId, _id))) && this.senderIsAdvocate(_sender, _parentId));\n\t}\n\n\t/**\n\t * @dev Check whether or not eth address is either Advocate/Listener/Speaker of _id\n\t * @param _sender The eth address to check\n\t * @param _id The ID to be checked\n\t * @return true if yes, false otherwise\n\t */\n\tfunction senderIsPosition(address _sender, address _id) external view returns (bool) {\n\t\taddress _nameId = _nameFactory.ethAddressToNameId(_sender);\n\t\tif (_nameId == address(0)) {\n\t\t\treturn false;\n\t\t} else {\n\t\t\treturn (positionDetails[_id].created &&\n\t\t\t\t(positionDetails[_id].advocateId == _nameId ||\n\t\t\t\t positionDetails[_id].listenerId == _nameId ||\n\t\t\t\t positionDetails[_id].speakerId == _nameId\n\t\t\t\t)\n\t\t\t);\n\t\t}\n\t}\n\n\t/**\n\t * @dev Check whether or not _nameId is advocate of _id\n\t * @param _nameId The name ID to be checked\n\t * @param _id The ID to be checked\n\t * @return true if yes, false otherwise\n\t */\n\tfunction nameIsAdvocate(address _nameId, address _id) external view returns (bool) {\n\t\treturn (positionDetails[_id].created && positionDetails[_id].advocateId == _nameId);\n\t}\n\n\t/**\n\t * @dev Determine whether or not `_sender` is Advocate/Listener/Speaker of the Name/TAO\n\t * @param _sender The ETH address that to check\n\t * @param _id The ID of the Name/TAO\n\t * @return 1 if Advocate. 2 if Listener. 3 if Speaker\n\t */\n\tfunction determinePosition(address _sender, address _id) external view returns (uint256) {\n\t\trequire (this.senderIsPosition(_sender, _id));\n\t\tPositionDetail memory _positionDetail = positionDetails[_id];\n\t\taddress _nameId = _nameFactory.ethAddressToNameId(_sender);\n\t\tif (_nameId == _positionDetail.advocateId) {\n\t\t\treturn 1;\n\t\t} else if (_nameId == _positionDetail.listenerId) {\n\t\t\treturn 2;\n\t\t} else {\n\t\t\treturn 3;\n\t\t}\n\t}\n\n\t/**\n\t * @dev Initialize Position for a Name/TAO\n\t * @param _id The ID of the Name/TAO\n\t * @param _advocateId The Advocate ID of the Name/TAO\n\t * @param _listenerId The Listener ID of the Name/TAO\n\t * @param _speakerId The Speaker ID of the Name/TAO\n\t * @return true on success\n\t */\n\tfunction initialize(address _id, address _advocateId, address _listenerId, address _speakerId)\n\t\texternal\n\t\tisNameOrTAO(_id)\n\t\tisName(_advocateId)\n\t\tisNameOrTAO(_listenerId)\n\t\tisNameOrTAO(_speakerId)\n\t\tonlyFactory returns (bool) {\n\t\trequire (!isExist(_id));\n\n\t\tPositionDetail storage _positionDetail = positionDetails[_id];\n\t\t_positionDetail.advocateId = _advocateId;\n\t\t_positionDetail.listenerId = _listenerId;\n\t\t_positionDetail.speakerId = _speakerId;\n\t\t_positionDetail.created = true;\n\t\treturn true;\n\t}\n\n\t/**\n\t * @dev Get Name/TAO's Position info\n\t * @param _id The ID of the Name/TAO\n\t * @return the Advocate ID of Name/TAO\n\t * @return the Listener ID of Name/TAO\n\t * @return the Speaker ID of Name/TAO\n\t */\n\tfunction getPositionById(address _id) public view returns (address, address, address) {\n\t\trequire (isExist(_id));\n\t\tPositionDetail memory _positionDetail = positionDetails[_id];\n\t\treturn (\n\t\t\t_positionDetail.advocateId,\n\t\t\t_positionDetail.listenerId,\n\t\t\t_positionDetail.speakerId\n\t\t);\n\t}\n\n\t/**\n\t * @dev Get Name/TAO's Advocate\n\t * @param _id The ID of the Name/TAO\n\t * @return the Advocate ID of Name/TAO\n\t */\n\tfunction getAdvocate(address _id) external view returns (address) {\n\t\trequire (isExist(_id));\n\t\tPositionDetail memory _positionDetail = positionDetails[_id];\n\t\treturn _positionDetail.advocateId;\n\t}\n\n\t/**\n\t * @dev Get Name/TAO's Listener\n\t * @param _id The ID of the Name/TAO\n\t * @return the Listener ID of Name/TAO\n\t */\n\tfunction getListener(address _id) public view returns (address) {\n\t\trequire (isExist(_id));\n\t\tPositionDetail memory _positionDetail = positionDetails[_id];\n\t\treturn _positionDetail.listenerId;\n\t}\n\n\t/**\n\t * @dev Get Name/TAO's Speaker\n\t * @param _id The ID of the Name/TAO\n\t * @return the Speaker ID of Name/TAO\n\t */\n\tfunction getSpeaker(address _id) public view returns (address) {\n\t\trequire (isExist(_id));\n\t\tPositionDetail memory _positionDetail = positionDetails[_id];\n\t\treturn _positionDetail.speakerId;\n\t}\n\n\t/**\n\t * @dev Set Advocate for a TAO\n\t * @param _taoId The ID of the TAO\n\t * @param _newAdvocateId The new advocate ID to be set\n\t */\n\tfunction setAdvocate(address _taoId, address _newAdvocateId)\n\t\tpublic\n\t\tisTAO(_taoId)\n\t\tisName(_newAdvocateId)\n\t\tonlyAdvocate(_taoId)\n\t\tsenderIsName\n\t\tsenderNameNotCompromised {\n\t\trequire (isExist(_taoId));\n\t\t// Make sure the newAdvocate is not compromised\n\t\trequire (!_nameAccountRecovery.isCompromised(_newAdvocateId));\n\t\t_setAdvocate(_taoId, _newAdvocateId);\n\t}\n\n\t/**\n\t * Only Advocate of Parent of `_taoId` can replace child `_taoId` 's Advocate with himself\n\t * @param _taoId The ID of the TAO\n\t */\n\tfunction parentReplaceChildAdvocate(address _taoId)\n\t\tpublic\n\t\tisTAO(_taoId)\n\t\tsenderIsName\n\t\tsenderNameNotCompromised {\n\t\trequire (isExist(_taoId));\n\t\trequire (senderIsAdvocateOfParent(msg.sender, _taoId));\n\t\taddress _parentNameId = _nameFactory.ethAddressToNameId(msg.sender);\n\t\taddress _currentAdvocateId = this.getAdvocate(_taoId);\n\n\t\t// Make sure it's not replacing itself\n\t\trequire (_parentNameId != _currentAdvocateId);\n\n\t\t// Parent has to have more Logos than current Advocate\n\t\trequire (_logos.sumBalanceOf(_parentNameId) > _logos.sumBalanceOf(this.getAdvocate(_taoId)));\n\n\t\t_setAdvocate(_taoId, _parentNameId);\n\t}\n\n\t/**\n\t * A Name challenges current TAO's Advocate to be its new Advocate\n\t * @param _taoId The ID of the TAO\n\t */\n\tfunction challengeTAOAdvocate(address _taoId)\n\t\tpublic\n\t\tisTAO(_taoId)\n\t\tsenderIsName\n\t\tsenderNameNotCompromised {\n\t\trequire (isExist(_taoId));\n\t\taddress _newAdvocateId = _nameFactory.ethAddressToNameId(msg.sender);\n\t\taddress _currentAdvocateId = this.getAdvocate(_taoId);\n\n\t\t// Make sure it's not challenging itself\n\t\trequire (_newAdvocateId != _currentAdvocateId);\n\n\t\t// New Advocate has to have more Logos than current Advocate\n\t\trequire (_logos.sumBalanceOf(_newAdvocateId) > _logos.sumBalanceOf(_currentAdvocateId));\n\n\t\t(uint256 _lockDuration, uint256 _completeDuration) = _getSettingVariables();\n\n\t\ttotalTAOAdvocateChallenges++;\n\t\tbytes32 _challengeId = keccak256(abi.encodePacked(this, _taoId, _newAdvocateId, totalTAOAdvocateChallenges));\n\t\tTAOAdvocateChallenge storage _taoAdvocateChallenge = taoAdvocateChallenges[_challengeId];\n\t\t_taoAdvocateChallenge.challengeId = _challengeId;\n\t\t_taoAdvocateChallenge.newAdvocateId = _newAdvocateId;\n\t\t_taoAdvocateChallenge.taoId = _taoId;\n\t\t_taoAdvocateChallenge.createdTimestamp = now;\n\t\t_taoAdvocateChallenge.lockedUntilTimestamp = _taoAdvocateChallenge.createdTimestamp.add(_lockDuration);\n\t\t_taoAdvocateChallenge.completeBeforeTimestamp = _taoAdvocateChallenge.lockedUntilTimestamp.add(_completeDuration);\n\n\t\temit ChallengeTAOAdvocate(_taoId, _challengeId, _currentAdvocateId, _newAdvocateId, _taoAdvocateChallenge.createdTimestamp, _taoAdvocateChallenge.lockedUntilTimestamp, _taoAdvocateChallenge.completeBeforeTimestamp);\n\t}\n\n\t/**\n\t * Get status of a TAOAdvocateChallenge given a `_challengeId` and a `_sender` eth address\n\t * @param _challengeId The ID of TAOAdvocateChallenge\n\t * @param _sender The sender address\n\t * @return status of the challenge\n\t *\t\t1 = Can complete challenge\n\t *\t\t2 = Challenge not exist\n\t *\t\t3 = Sender is not the creator of the challenge\n\t *\t\t4 = Transaction is not in the allowed period of time\n\t *\t\t5 = Challenge has been completed\n\t *\t\t6 = Challenger has less Logos than current Advocate of TAO\n\t */\n\tfunction getChallengeStatus(bytes32 _challengeId, address _sender) public view returns (uint8) {\n\t\taddress _challengerNameId = _nameFactory.ethAddressToNameId(_sender);\n\t\tTAOAdvocateChallenge storage _taoAdvocateChallenge = taoAdvocateChallenges[_challengeId];\n\n\t\t// If the challenge does not exist\n\t\tif (_taoAdvocateChallenge.taoId == address(0)) {\n\t\t\treturn 2;\n\t\t} else if (_challengerNameId != _taoAdvocateChallenge.newAdvocateId) {\n\t\t\t// If the calling address is not the creator of the challenge\n\t\t\treturn 3;\n\t\t} else if (now < _taoAdvocateChallenge.lockedUntilTimestamp || now > _taoAdvocateChallenge.completeBeforeTimestamp) {\n\t\t\t// If this transaction is not in the allowed period of time\n\t\t\treturn 4;\n\t\t} else if (_taoAdvocateChallenge.completed) {\n\t\t\t// If the challenge has been completed\n\t\t\treturn 5;\n\t\t} else if (_logos.sumBalanceOf(_challengerNameId) <= _logos.sumBalanceOf(this.getAdvocate(_taoAdvocateChallenge.taoId))) {\n\t\t\t// If challenger has less Logos than current Advocate of TAO\n\t\t\treturn 6;\n\t\t} else {\n\t\t\t// Can complete!\n\t\t\treturn 1;\n\t\t}\n\t}\n\n\t/**\n\t * Only owner of challenge can respond and complete of the challenge\n\t * @param _challengeId The ID of the TAOAdvocateChallenge\n\t */\n\tfunction completeTAOAdvocateChallenge(bytes32 _challengeId)\n\t\tpublic\n\t\tsenderIsName\n\t\tsenderNameNotCompromised {\n\t\tTAOAdvocateChallenge storage _taoAdvocateChallenge = taoAdvocateChallenges[_challengeId];\n\n\t\t// Make sure the challenger can complete this challenge\n\t\trequire (getChallengeStatus(_challengeId, msg.sender) == 1);\n\n\t\t_taoAdvocateChallenge.completed = true;\n\n\t\t_setAdvocate(_taoAdvocateChallenge.taoId, _taoAdvocateChallenge.newAdvocateId);\n\n\t\temit CompleteTAOAdvocateChallenge(_taoAdvocateChallenge.taoId, _challengeId);\n\t}\n\n\t/**\n\t * @dev Get TAOAdvocateChallenge info given an ID\n\t * @param _challengeId The ID of TAOAdvocateChallenge\n\t * @return the new Advocate ID in the challenge\n\t * @return the ID of Name/TAO\n\t * @return the completion status of the challenge\n\t * @return the created timestamp\n\t * @return the lockedUntil timestamp (The deadline for current Advocate to respond)\n\t * @return the completeBefore timestamp (The deadline for the challenger to respond and complete the challenge)\n\t */\n\tfunction getTAOAdvocateChallengeById(bytes32 _challengeId) public view returns (address, address, bool, uint256, uint256, uint256) {\n\t\tTAOAdvocateChallenge memory _taoAdvocateChallenge = taoAdvocateChallenges[_challengeId];\n\t\trequire (_taoAdvocateChallenge.taoId != address(0));\n\t\treturn (\n\t\t\t_taoAdvocateChallenge.newAdvocateId,\n\t\t\t_taoAdvocateChallenge.taoId,\n\t\t\t_taoAdvocateChallenge.completed,\n\t\t\t_taoAdvocateChallenge.createdTimestamp,\n\t\t\t_taoAdvocateChallenge.lockedUntilTimestamp,\n\t\t\t_taoAdvocateChallenge.completeBeforeTimestamp\n\t\t);\n\t}\n\n\t/**\n\t * @dev Set Listener for a Name/TAO\n\t * @param _id The ID of the Name/TAO\n\t * @param _newListenerId The new listener ID to be set\n\t */\n\tfunction setListener(address _id, address _newListenerId)\n\t\tpublic\n\t\tisNameOrTAO(_id)\n\t\tisNameOrTAO(_newListenerId)\n\t\tsenderIsName\n\t\tsenderNameNotCompromised\n\t\tonlyAdvocate(_id) {\n\t\trequire (isExist(_id));\n\n\t\t// If _id is a Name, then new Listener can only be a Name\n\t\t// If _id is a TAO, then new Listener can be a TAO/Name\n\t\tbool _isName = false;\n\t\tif (AOLibrary.isName(_id)) {\n\t\t\t_isName = true;\n\t\t\trequire (AOLibrary.isName(_newListenerId));\n\t\t\trequire (!_nameAccountRecovery.isCompromised(_id));\n\t\t\trequire (!_nameAccountRecovery.isCompromised(_newListenerId));\n\t\t}\n\n\t\tPositionDetail storage _positionDetail = positionDetails[_id];\n\t\taddress _currentListenerId = _positionDetail.listenerId;\n\t\t_positionDetail.listenerId = _newListenerId;\n\n\t\tif (_isName) {\n\t\t\tuint256 _nonce = _nameFactory.incrementNonce(_id);\n\t\t} else {\n\t\t\t_nonce = _taoFactory.incrementNonce(_id);\n\t\t}\n\t\temit SetListener(_id, _currentListenerId, _positionDetail.listenerId, _nonce);\n\t}\n\n\t/**\n\t * @dev Set Speaker for a Name/TAO\n\t * @param _id The ID of the Name/TAO\n\t * @param _newSpeakerId The new speaker ID to be set\n\t */\n\tfunction setSpeaker(address _id, address _newSpeakerId)\n\t\tpublic\n\t\tisNameOrTAO(_id)\n\t\tisNameOrTAO(_newSpeakerId)\n\t\tsenderIsName\n\t\tsenderNameNotCompromised\n\t\tonlyAdvocate(_id) {\n\t\trequire (isExist(_id));\n\n\t\t// If _id is a Name, then new Speaker can only be a Name\n\t\t// If _id is a TAO, then new Speaker can be a TAO/Name\n\t\tbool _isName = false;\n\t\tif (AOLibrary.isName(_id)) {\n\t\t\t_isName = true;\n\t\t\trequire (AOLibrary.isName(_newSpeakerId));\n\t\t\trequire (!_nameAccountRecovery.isCompromised(_id));\n\t\t\trequire (!_nameAccountRecovery.isCompromised(_newSpeakerId));\n\t\t}\n\n\t\tPositionDetail storage _positionDetail = positionDetails[_id];\n\t\taddress _currentSpeakerId = _positionDetail.speakerId;\n\t\t_positionDetail.speakerId = _newSpeakerId;\n\n\t\tif (_isName) {\n\t\t\tuint256 _nonce = _nameFactory.incrementNonce(_id);\n\t\t} else {\n\t\t\t_nonce = _taoFactory.incrementNonce(_id);\n\t\t}\n\t\temit SetSpeaker(_id, _currentSpeakerId, _positionDetail.speakerId, _nonce);\n\t}\n\n\t/***** INTERNAL METHOD *****/\n\t/**\n\t * @dev Actually setting Advocate for a TAO\n\t * @param _taoId The ID of the TAO\n\t * @param _newAdvocateId The new advocate ID to be set\n\t */\n\tfunction _setAdvocate(address _taoId, address _newAdvocateId) internal {\n\t\tPositionDetail storage _positionDetail = positionDetails[_taoId];\n\t\taddress _currentAdvocateId = _positionDetail.advocateId;\n\t\t_positionDetail.advocateId = _newAdvocateId;\n\n\t\tuint256 _nonce = _taoFactory.incrementNonce(_taoId);\n\t\trequire (_nonce > 0);\n\n\t\t// Transfer Advocated TAO Logos to the new Advocate\n\t\trequire (_logos.transferAdvocatedTAOLogos(_currentAdvocateId, _taoId));\n\n\t\temit SetAdvocate(_taoId, _currentAdvocateId, _positionDetail.advocateId, _nonce);\n\t}\n\n\t/**\n\t * @dev Get setting variables\n\t * @return challengeTAOAdvocateLockDuration = The amount of time for current Advocate to respond to TAO Advocate challenge from another Name\n\t * @return challengeTAOAdvocateCompleteDuration = The amount of time for challenger Advocate to respond and complete the challenge after the lock period ends\n\t */\n\tfunction _getSettingVariables() internal view returns (uint256, uint256) {\n\t\t(uint256 challengeTAOAdvocateLockDuration,,,,) = _aoSetting.getSettingValuesByTAOName(settingTAOId, 'challengeTAOAdvocateLockDuration');\n\t\t(uint256 challengeTAOAdvocateCompleteDuration,,,,) = _aoSetting.getSettingValuesByTAOName(settingTAOId, 'challengeTAOAdvocateCompleteDuration');\n\n\t\treturn (\n\t\t\tchallengeTAOAdvocateLockDuration,\n\t\t\tchallengeTAOAdvocateCompleteDuration\n\t\t);\n\t}\n}\n",
	"sourcePath": "/Users/johanmulyono/Work/AO/ao-contracts/contracts/NameTAOPosition.sol",
	"compiler": {
		"name": "solc",
		"version": "0.4.24+commit.e67f0147.Emscripten.clang"
	},
	"schemaVersion": "2.0.1",
	"updatedAt": "2019-02-07T11:33:45.190Z"
}