{
	"contractName": "NamePublicKey",
	"abi": [
		{
			"constant": true,
			"inputs": [],
			"name": "nameTAOPositionAddress",
			"outputs": [
				{
					"name": "",
					"type": "address"
				}
			],
			"payable": false,
			"stateMutability": "view",
			"type": "function"
		},
		{
			"constant": true,
			"inputs": [
				{
					"name": "",
					"type": "address"
				}
			],
			"name": "whitelist",
			"outputs": [
				{
					"name": "",
					"type": "bool"
				}
			],
			"payable": false,
			"stateMutability": "view",
			"type": "function"
		},
		{
			"constant": true,
			"inputs": [],
			"name": "nameAccountRecoveryAddress",
			"outputs": [
				{
					"name": "",
					"type": "address"
				}
			],
			"payable": false,
			"stateMutability": "view",
			"type": "function"
		},
		{
			"constant": true,
			"inputs": [],
			"name": "theAO",
			"outputs": [
				{
					"name": "",
					"type": "address"
				}
			],
			"payable": false,
			"stateMutability": "view",
			"type": "function"
		},
		{
			"constant": true,
			"inputs": [],
			"name": "nameFactoryAddress",
			"outputs": [
				{
					"name": "",
					"type": "address"
				}
			],
			"payable": false,
			"stateMutability": "view",
			"type": "function"
		},
		{
			"inputs": [
				{
					"name": "_nameFactoryAddress",
					"type": "address"
				},
				{
					"name": "_nameTAOPositionAddress",
					"type": "address"
				}
			],
			"payable": false,
			"stateMutability": "nonpayable",
			"type": "constructor"
		},
		{
			"anonymous": false,
			"inputs": [
				{
					"indexed": true,
					"name": "nameId",
					"type": "address"
				},
				{
					"indexed": false,
					"name": "publicKey",
					"type": "address"
				},
				{
					"indexed": false,
					"name": "nonce",
					"type": "uint256"
				}
			],
			"name": "AddKey",
			"type": "event"
		},
		{
			"anonymous": false,
			"inputs": [
				{
					"indexed": true,
					"name": "nameId",
					"type": "address"
				},
				{
					"indexed": false,
					"name": "publicKey",
					"type": "address"
				},
				{
					"indexed": false,
					"name": "nonce",
					"type": "uint256"
				}
			],
			"name": "RemoveKey",
			"type": "event"
		},
		{
			"anonymous": false,
			"inputs": [
				{
					"indexed": true,
					"name": "nameId",
					"type": "address"
				},
				{
					"indexed": false,
					"name": "publicKey",
					"type": "address"
				},
				{
					"indexed": false,
					"name": "nonce",
					"type": "uint256"
				}
			],
			"name": "SetDefaultKey",
			"type": "event"
		},
		{
			"constant": false,
			"inputs": [
				{
					"name": "_theAO",
					"type": "address"
				}
			],
			"name": "transferOwnership",
			"outputs": [],
			"payable": false,
			"stateMutability": "nonpayable",
			"type": "function"
		},
		{
			"constant": false,
			"inputs": [
				{
					"name": "_account",
					"type": "address"
				},
				{
					"name": "_whitelist",
					"type": "bool"
				}
			],
			"name": "setWhitelist",
			"outputs": [],
			"payable": false,
			"stateMutability": "nonpayable",
			"type": "function"
		},
		{
			"constant": false,
			"inputs": [
				{
					"name": "_nameFactoryAddress",
					"type": "address"
				}
			],
			"name": "setNameFactoryAddress",
			"outputs": [],
			"payable": false,
			"stateMutability": "nonpayable",
			"type": "function"
		},
		{
			"constant": false,
			"inputs": [
				{
					"name": "_nameTAOPositionAddress",
					"type": "address"
				}
			],
			"name": "setNameTAOPositionAddress",
			"outputs": [],
			"payable": false,
			"stateMutability": "nonpayable",
			"type": "function"
		},
		{
			"constant": false,
			"inputs": [
				{
					"name": "_nameAccountRecoveryAddress",
					"type": "address"
				}
			],
			"name": "setNameAccountRecoveryAddress",
			"outputs": [],
			"payable": false,
			"stateMutability": "nonpayable",
			"type": "function"
		},
		{
			"constant": false,
			"inputs": [
				{
					"name": "_id",
					"type": "address"
				},
				{
					"name": "_key",
					"type": "address"
				}
			],
			"name": "whitelistAddKey",
			"outputs": [
				{
					"name": "",
					"type": "bool"
				}
			],
			"payable": false,
			"stateMutability": "nonpayable",
			"type": "function"
		},
		{
			"constant": true,
			"inputs": [
				{
					"name": "_id",
					"type": "address"
				}
			],
			"name": "isExist",
			"outputs": [
				{
					"name": "",
					"type": "bool"
				}
			],
			"payable": false,
			"stateMutability": "view",
			"type": "function"
		},
		{
			"constant": false,
			"inputs": [
				{
					"name": "_id",
					"type": "address"
				},
				{
					"name": "_defaultKey",
					"type": "address"
				}
			],
			"name": "initialize",
			"outputs": [
				{
					"name": "",
					"type": "bool"
				}
			],
			"payable": false,
			"stateMutability": "nonpayable",
			"type": "function"
		},
		{
			"constant": true,
			"inputs": [
				{
					"name": "_id",
					"type": "address"
				}
			],
			"name": "getTotalPublicKeysCount",
			"outputs": [
				{
					"name": "",
					"type": "uint256"
				}
			],
			"payable": false,
			"stateMutability": "view",
			"type": "function"
		},
		{
			"constant": true,
			"inputs": [
				{
					"name": "_id",
					"type": "address"
				},
				{
					"name": "_key",
					"type": "address"
				}
			],
			"name": "isKeyExist",
			"outputs": [
				{
					"name": "",
					"type": "bool"
				}
			],
			"payable": false,
			"stateMutability": "view",
			"type": "function"
		},
		{
			"constant": false,
			"inputs": [
				{
					"name": "_id",
					"type": "address"
				},
				{
					"name": "_key",
					"type": "address"
				},
				{
					"name": "_nonce",
					"type": "uint256"
				},
				{
					"name": "_signatureV",
					"type": "uint8"
				},
				{
					"name": "_signatureR",
					"type": "bytes32"
				},
				{
					"name": "_signatureS",
					"type": "bytes32"
				}
			],
			"name": "addKey",
			"outputs": [],
			"payable": false,
			"stateMutability": "nonpayable",
			"type": "function"
		},
		{
			"constant": true,
			"inputs": [
				{
					"name": "_id",
					"type": "address"
				}
			],
			"name": "getDefaultKey",
			"outputs": [
				{
					"name": "",
					"type": "address"
				}
			],
			"payable": false,
			"stateMutability": "view",
			"type": "function"
		},
		{
			"constant": true,
			"inputs": [
				{
					"name": "_id",
					"type": "address"
				},
				{
					"name": "_from",
					"type": "uint256"
				},
				{
					"name": "_to",
					"type": "uint256"
				}
			],
			"name": "getKeys",
			"outputs": [
				{
					"name": "",
					"type": "address[]"
				}
			],
			"payable": false,
			"stateMutability": "view",
			"type": "function"
		},
		{
			"constant": false,
			"inputs": [
				{
					"name": "_id",
					"type": "address"
				},
				{
					"name": "_key",
					"type": "address"
				}
			],
			"name": "removeKey",
			"outputs": [],
			"payable": false,
			"stateMutability": "nonpayable",
			"type": "function"
		},
		{
			"constant": false,
			"inputs": [
				{
					"name": "_id",
					"type": "address"
				},
				{
					"name": "_defaultKey",
					"type": "address"
				},
				{
					"name": "_signatureV",
					"type": "uint8"
				},
				{
					"name": "_signatureR",
					"type": "bytes32"
				},
				{
					"name": "_signatureS",
					"type": "bytes32"
				}
			],
			"name": "setDefaultKey",
			"outputs": [],
			"payable": false,
			"stateMutability": "nonpayable",
			"type": "function"
		}
	],
	"bytecode": "0x60806040523480156200001157600080fd5b506040516040806200258a83398101604052805160209091015160008054600160a060020a0319163317905562000051826401000000006200006d810204565b620000658164010000000062000172810204565b505062000277565b600054600154604080517ff66afcac000000000000000000000000000000000000000000000000000000008152336004820152600160a060020a0393841660248201529290911660448301525173__AOLibrary_____________________________9163f66afcac916064808301926020929190829003018186803b158015620000f657600080fd5b505af41580156200010b573d6000803e3d6000fd5b505050506040513d60208110156200012257600080fd5b505115156200013057600080fd5b600160a060020a03811615156200014657600080fd5b60038054600160a060020a03909216600160a060020a0319928316811790915560058054909216179055565b600054600154604080517ff66afcac000000000000000000000000000000000000000000000000000000008152336004820152600160a060020a0393841660248201529290911660448301525173__AOLibrary_____________________________9163f66afcac916064808301926020929190829003018186803b158015620001fb57600080fd5b505af415801562000210573d6000803e3d6000fd5b505050506040513d60208110156200022757600080fd5b505115156200023557600080fd5b600160a060020a03811615156200024b57600080fd5b60018054600160a060020a03909216600160a060020a0319928316811790915560068054909216179055565b61230380620002876000396000f3006080604052600436106100f75763ffffffff60e060020a60003504166213eb4b81146100fc578063181a916b146101315780631dfde2bd146101a8578063485cc955146101cb5780634ef033f0146101f257806353d6fd59146102235780635cfaf2ef14610249578063722e16771461026a5780638ab3e33f1461029d5780638c924361146102c45780639b19251a146102e5578063a481247c14610306578063a4e5fad21461032d578063a9b6b38e14610342578063bc40620614610357578063c59c11441461036c578063d68467821461039f578063db536d2f146103d5578063f0f2fd04146103f6578063f2fde38b1461041d575b600080fd5b34801561010857600080fd5b5061011d600160a060020a036004351661043e565b604080519115158252519081900360200190f35b34801561013d57600080fd5b50610158600160a060020a036004351660243560443561045c565b60408051602080825283518183015283519192839290830191858101910280838360005b8381101561019457818101518382015260200161017c565b505050509050019250505060405180910390f35b3480156101b457600080fd5b506101c9600160a060020a03600435166106d6565b005b3480156101d757600080fd5b5061011d600160a060020a03600435811690602435166107c3565b3480156101fe57600080fd5b50610207610916565b60408051600160a060020a039092168252519081900360200190f35b34801561022f57600080fd5b506101c9600160a060020a03600435166024351515610925565b34801561025557600080fd5b506101c9600160a060020a0360043516610a0e565b34801561027657600080fd5b5061028b600160a060020a0360043516610af8565b60408051918252519081900360200190f35b3480156102a957600080fd5b506101c9600160a060020a0360043581169060243516610bca565b3480156102d057600080fd5b506101c9600160a060020a0360043516611116565b3480156102f157600080fd5b5061011d600160a060020a0360043516611200565b34801561031257600080fd5b5061011d600160a060020a0360043581169060243516611215565b34801561033957600080fd5b506102076113e7565b34801561034e57600080fd5b506102076113f6565b34801561036357600080fd5b50610207611405565b34801561037857600080fd5b506101c9600160a060020a036004358116906024351660ff60443516606435608435611414565b3480156103ab57600080fd5b506101c9600160a060020a036004358116906024351660443560ff6064351660843560a43561199b565b3480156103e157600080fd5b50610207600160a060020a0360043516611de5565b34801561040257600080fd5b5061011d600160a060020a0360043581169060243516611ebc565b34801561042957600080fd5b506101c9600160a060020a0360043516611f8f565b600160a060020a031660009081526008602052604090205460ff1690565b606061046661226e565b606060008673__AOLibrary_____________________________632d706a34826040518263ffffffff1660e060020a0281526004018082600160a060020a0316600160a060020a0316815260200191505060206040518083038186803b1580156104cf57600080fd5b505af41580156104e3573d6000803e3d6000fd5b505050506040513d60208110156104f957600080fd5b5051151561050657600080fd5b61050f8861043e565b151561051a57600080fd5b6000871015801561052b5750868610155b151561053657600080fd5b600160a060020a038089166000908152600860209081526040918290208251606081018452815460ff811615158252610100900490941684830152600181018054845181850281018501865281815292948601938301828280156105c357602002820191906000526020600020905b8154600160a060020a031681526001909101906020018083116105a5575b505050505081525050935060008460400151511115156105e257600080fd5b6040840151516105f990600163ffffffff61206f16565b86111561061a5760408401515161061790600163ffffffff61206f16565b95505b61063b600161062f888a63ffffffff61206f16565b9063ffffffff61208116565b604051908082528060200260200182016040528015610664578160200160208202803883390190505b5092508691505b8582116106ca57604084015180518390811061068357fe5b602090810290910101518361069e848a63ffffffff61206f16565b815181106106a857fe5b600160a060020a0390921660209283029091019091015260019091019061066b565b50909695505050505050565b6000546001546040805160e260020a633d9abf2b028152336004820152600160a060020a0393841660248201529290911660448301525173__AOLibrary_____________________________9163f66afcac916064808301926020929190829003018186803b15801561074857600080fd5b505af415801561075c573d6000803e3d6000fd5b505050506040513d602081101561077257600080fd5b5051151561077f57600080fd5b600160a060020a038116151561079457600080fd5b60048054600160a060020a0319908116600160a060020a03938416179182905560078054929093169116179055565b6000808373__AOLibrary_____________________________632d706a34826040518263ffffffff1660e060020a0281526004018082600160a060020a0316600160a060020a0316815260200191505060206040518083038186803b15801561082b57600080fd5b505af415801561083f573d6000803e3d6000fd5b505050506040513d602081101561085557600080fd5b5051151561086257600080fd5b600354600160a060020a0316331461087957600080fd5b6108828561043e565b1561088c57600080fd5b600160a060020a03841615156108a157600080fd5b505050600160a060020a03918216600090815260086020908152604082208054600160ff19909116811774ffffffffffffffffffffffffffffffffffffffff001916610100959096169485029590951781558401805480860182559083529120018054600160a060020a031916909117905590565b600154600160a060020a031681565b6000546001546040805160e260020a633d9abf2b028152336004820152600160a060020a0393841660248201529290911660448301525173__AOLibrary_____________________________9163f66afcac916064808301926020929190829003018186803b15801561099757600080fd5b505af41580156109ab573d6000803e3d6000fd5b505050506040513d60208110156109c157600080fd5b505115156109ce57600080fd5b600160a060020a03821615156109e357600080fd5b600160a060020a03919091166000908152600260205260409020805460ff1916911515919091179055565b6000546001546040805160e260020a633d9abf2b028152336004820152600160a060020a0393841660248201529290911660448301525173__AOLibrary_____________________________9163f66afcac916064808301926020929190829003018186803b158015610a8057600080fd5b505af4158015610a94573d6000803e3d6000fd5b505050506040513d6020811015610aaa57600080fd5b50511515610ab757600080fd5b600160a060020a0381161515610acc57600080fd5b60018054600160a060020a03909216600160a060020a0319928316811790915560068054909216179055565b60008173__AOLibrary_____________________________632d706a34826040518263ffffffff1660e060020a0281526004018082600160a060020a0316600160a060020a0316815260200191505060206040518083038186803b158015610b5f57600080fd5b505af4158015610b73573d6000803e3d6000fd5b505050506040513d6020811015610b8957600080fd5b50511515610b9657600080fd5b610b9f8361043e565b1515610baa57600080fd5b5050600160a060020a031660009081526008602052604090206001015490565b6000806000808573__AOLibrary_____________________________632d706a34826040518263ffffffff1660e060020a0281526004018082600160a060020a0316600160a060020a0316815260200191505060206040518083038186803b158015610c3557600080fd5b505af4158015610c49573d6000803e3d6000fd5b505050506040513d6020811015610c5f57600080fd5b50511515610c6c57600080fd5b600654604080517f71ce52ed000000000000000000000000000000000000000000000000000000008152336004820152600160a060020a03808b16602483015291518a9392909216916371ce52ed916044808201926020929091908290030181600087803b158015610cdd57600080fd5b505af1158015610cf1573d6000803e3d6000fd5b505050506040513d6020811015610d0757600080fd5b50511515610d1457600080fd5b600754600554604080517f029b7d530000000000000000000000000000000000000000000000000000000081523360048201529051600160a060020a0393841693633ebc2ab393169163029b7d539160248083019260209291908290030181600087803b158015610d8457600080fd5b505af1158015610d98573d6000803e3d6000fd5b505050506040513d6020811015610dae57600080fd5b50516040805160e060020a63ffffffff8516028152600160a060020a0390921660048301525160248083019260209291908290030181600087803b158015610df557600080fd5b505af1158015610e09573d6000803e3d6000fd5b505050506040513d6020811015610e1f57600080fd5b505115610e2b57600080fd5b610e348861043e565b1515610e3f57600080fd5b604080517fa481247c000000000000000000000000000000000000000000000000000000008152600160a060020a038a81166004830152891660248201529051309163a481247c9160448083019260209291908290030181600087803b158015610ea857600080fd5b505af1158015610ebc573d6000803e3d6000fd5b505050506040513d6020811015610ed257600080fd5b50511515610edf57600080fd5b600160a060020a0388811660009081526008602052604090208054909750610100900481169088161415610f1257600080fd5b60018681015411610f2257600080fd5b600093505b6001860154841015610f7c5786600160a060020a03168660010185815481101515610f4e57fe5b600091825260209091200154600160a060020a03161415610f7157839450610f7c565b600190930192610f27565b8493505b600186810154610f959163ffffffff61206f16565b84101561100d578560010184600101815481101515610fb057fe5b600091825260209091200154600187018054600160a060020a039092169186908110610fd857fe5b60009182526020909120018054600160a060020a031916600160a060020a039290921691909117905560019390930192610f80565b6001860180549061102290600019830161228d565b50600554604080517ff5743c4c000000000000000000000000000000000000000000000000000000008152600160a060020a038b811660048301529151919092169163f5743c4c9160248083019260209291908290030181600087803b15801561108b57600080fd5b505af115801561109f573d6000803e3d6000fd5b505050506040513d60208110156110b557600080fd5b50519250600083116110c657600080fd5b60408051600160a060020a038981168252602082018690528251908b16927faec0509ffc1f2fe28ada93894c552d532d94e3c32821ce0939b2064d95686642928290030190a25050505050505050565b6000546001546040805160e260020a633d9abf2b028152336004820152600160a060020a0393841660248201529290911660448301525173__AOLibrary_____________________________9163f66afcac916064808301926020929190829003018186803b15801561118857600080fd5b505af415801561119c573d6000803e3d6000fd5b505050506040513d60208110156111b257600080fd5b505115156111bf57600080fd5b600160a060020a03811615156111d457600080fd5b60038054600160a060020a03909216600160a060020a0319928316811790915560058054909216179055565b60026020526000908152604090205460ff1681565b600061121f61226e565b60008473__AOLibrary_____________________________632d706a34826040518263ffffffff1660e060020a0281526004018082600160a060020a0316600160a060020a0316815260200191505060206040518083038186803b15801561128657600080fd5b505af415801561129a573d6000803e3d6000fd5b505050506040513d60208110156112b057600080fd5b505115156112bd57600080fd5b6112c68661043e565b15156112d157600080fd5b600160a060020a03851615156112e657600080fd5b600160a060020a038087166000908152600860209081526040918290208251606081018452815460ff8116151582526101009004909416848301526001810180548451818502810185018652818152929486019383018282801561137357602002820191906000526020600020905b8154600160a060020a03168152600190910190602001808311611355575b5050505050815250509250600091505b8260400151518210156113d95784600160a060020a03168360400151838151811015156113ac57fe5b90602001906020020151600160a060020a031614156113ce57600193506113de565b600190910190611383565b600093505b50505092915050565b600454600160a060020a031681565b600054600160a060020a031681565b600354600160a060020a031681565b60008060008773__AOLibrary_____________________________632d706a34826040518263ffffffff1660e060020a0281526004018082600160a060020a0316600160a060020a0316815260200191505060206040518083038186803b15801561147e57600080fd5b505af4158015611492573d6000803e3d6000fd5b505050506040513d60208110156114a857600080fd5b505115156114b557600080fd5b600654604080517f71ce52ed000000000000000000000000000000000000000000000000000000008152336004820152600160a060020a03808d16602483015291518c9392909216916371ce52ed916044808201926020929091908290030181600087803b15801561152657600080fd5b505af115801561153a573d6000803e3d6000fd5b505050506040513d602081101561155057600080fd5b5051151561155d57600080fd5b600754600554604080517f029b7d530000000000000000000000000000000000000000000000000000000081523360048201529051600160a060020a0393841693633ebc2ab393169163029b7d539160248083019260209291908290030181600087803b1580156115cd57600080fd5b505af11580156115e1573d6000803e3d6000fd5b505050506040513d60208110156115f757600080fd5b50516040805160e060020a63ffffffff8516028152600160a060020a0390921660048301525160248083019260209291908290030181600087803b15801561163e57600080fd5b505af1158015611652573d6000803e3d6000fd5b505050506040513d602081101561166857600080fd5b50511561167457600080fd5b61167d8a61043e565b151561168857600080fd5b604080517fa481247c000000000000000000000000000000000000000000000000000000008152600160a060020a038c811660048301528b1660248201529051309163a481247c9160448083019260209291908290030181600087803b1580156116f157600080fd5b505af1158015611705573d6000803e3d6000fd5b505050506040513d602081101561171b57600080fd5b5051151561172857600080fd5b604080516c01000000000000000000000000308102602080840191909152600160a060020a03808f16830260348501528d1690910260488301528251603c818403018152605c90920192839052815191929182918401908083835b602083106117a25780518252601f199092019160209182019101611783565b6001836020036101000a0380198251168184511680821785525050505050509050019150506040518091039020945033600160a060020a03166001868a8a8a604051600081526020016040526040518085600019166000191681526020018460ff1660ff1681526020018360001916600019168152602001826000191660001916815260200194505050505060206040516020810390808403906000865af1158015611852573d6000803e3d6000fd5b50505060206040510351600160a060020a031614151561187157600080fd5b600160a060020a03808b16600081815260086020908152604080832080548f87166101000274ffffffffffffffffffffffffffffffffffffffff001990911617815560055482517ff5743c4c0000000000000000000000000000000000000000000000000000000081526004810196909652915190995094169363f5743c4c93602480820194918390030190829087803b15801561190e57600080fd5b505af1158015611922573d6000803e3d6000fd5b505050506040513d602081101561193857600080fd5b505192506000831161194957600080fd5b60408051600160a060020a038b81168252602082018690528251908d16927fd77f210e9f1b29555f577c8e8794a9470fa9198f423fc077f55168838ba679a9928290030190a250505050505050505050565b60008673__AOLibrary_____________________________632d706a34826040518263ffffffff1660e060020a0281526004018082600160a060020a0316600160a060020a0316815260200191505060206040518083038186803b158015611a0257600080fd5b505af4158015611a16573d6000803e3d6000fd5b505050506040513d6020811015611a2c57600080fd5b50511515611a3957600080fd5b600654604080517f71ce52ed000000000000000000000000000000000000000000000000000000008152336004820152600160a060020a03808c16602483015291518b9392909216916371ce52ed916044808201926020929091908290030181600087803b158015611aaa57600080fd5b505af1158015611abe573d6000803e3d6000fd5b505050506040513d6020811015611ad457600080fd5b50511515611ae157600080fd5b600754600554604080517f029b7d530000000000000000000000000000000000000000000000000000000081523360048201529051600160a060020a0393841693633ebc2ab393169163029b7d539160248083019260209291908290030181600087803b158015611b5157600080fd5b505af1158015611b65573d6000803e3d6000fd5b505050506040513d6020811015611b7b57600080fd5b50516040805160e060020a63ffffffff8516028152600160a060020a0390921660048301525160248083019260209291908290030181600087803b158015611bc257600080fd5b505af1158015611bd6573d6000803e3d6000fd5b505050506040513d6020811015611bec57600080fd5b505115611bf857600080fd5b600554604080517f7ecebe00000000000000000000000000000000000000000000000000000000008152600160a060020a038c811660048301529151611c9c936001931691637ecebe009160248083019260209291908290030181600087803b158015611c6457600080fd5b505af1158015611c78573d6000803e3d6000fd5b505050506040513d6020811015611c8e57600080fd5b50519063ffffffff61208116565b8714611ca757600080fd5b604080516c01000000000000000000000000308102602080840191909152600160a060020a03808e16830260348501528c169091026048830152605c8083018b905283518084039091018152607c90920192839052815191929182918401908083835b60208310611d295780518252601f199092019160209182019101611d0a565b51815160209384036101000a600019018019909216911617905260408051929094018290038220600080845283830180875282905260ff8e1684870152606084018d9052608084018c90529451909950600160a060020a038f1696506001955060a080840195929450601f198201938290030191865af1158015611db1573d6000803e3d6000fd5b50505060206040510351600160a060020a0316141515611dd057600080fd5b611dda8989612094565b505050505050505050565b60008173__AOLibrary_____________________________632d706a34826040518263ffffffff1660e060020a0281526004018082600160a060020a0316600160a060020a0316815260200191505060206040518083038186803b158015611e4c57600080fd5b505af4158015611e60573d6000803e3d6000fd5b505050506040513d6020811015611e7657600080fd5b50511515611e8357600080fd5b611e8c8361043e565b1515611e9757600080fd5b5050600160a060020a0390811660009081526008602052604090205461010090041690565b60008273__AOLibrary_____________________________632d706a34826040518263ffffffff1660e060020a0281526004018082600160a060020a0316600160a060020a0316815260200191505060206040518083038186803b158015611f2357600080fd5b505af4158015611f37573d6000803e3d6000fd5b505050506040513d6020811015611f4d57600080fd5b50511515611f5a57600080fd5b3360009081526002602052604090205460ff161515600114611f7b57600080fd5b611f858484612094565b5060019392505050565b6000546001546040805160e260020a633d9abf2b028152336004820152600160a060020a0393841660248201529290911660448301525173__AOLibrary_____________________________9163f66afcac916064808301926020929190829003018186803b15801561200157600080fd5b505af4158015612015573d6000803e3d6000fd5b505050506040513d602081101561202b57600080fd5b5051151561203857600080fd5b600160a060020a038116151561204d57600080fd5b60008054600160a060020a031916600160a060020a0392909216919091179055565b60008282111561207b57fe5b50900390565b8181018281101561208e57fe5b92915050565b604080517fa481247c000000000000000000000000000000000000000000000000000000008152600160a060020a0384811660048301528316602482015290516000918291309163a481247c91604480830192602092919082900301818787803b15801561210157600080fd5b505af1158015612115573d6000803e3d6000fd5b505050506040513d602081101561212b57600080fd5b50511561213757600080fd5b600160a060020a038316151561214c57600080fd5b600160a060020a0384811660008181526008602090815260408083206001808201805491820181558552838520018054600160a060020a0319168a881617905560055482517ff5743c4c0000000000000000000000000000000000000000000000000000000081526004810196909652915190975094169363f5743c4c93602480820194918390030190829087803b1580156121e757600080fd5b505af11580156121fb573d6000803e3d6000fd5b505050506040513d602081101561221157600080fd5b505190506000811161222257600080fd5b60408051600160a060020a038581168252602082018490528251908716927f4487b0a9ffea124fa087f0b52b2e9ce94d4cc7863686b6d07b61569b2652b153928290030190a250505050565b6040805160608181018352600080835260208301529181019190915290565b8154818355818111156122b1576000838152602090206122b19181019083016122b6565b505050565b6122d491905b808211156122d057600081556001016122bc565b5090565b905600a165627a7a72305820d24b94731cbf31512dd7e55df5b5ff0b5511135267b42fca48ffdac7d07bf3030029",
	"source": "pragma solidity ^0.4.24;\n\nimport './SafeMath.sol';\nimport './AOLibrary.sol';\nimport './TheAO.sol';\nimport './INamePublicKey.sol';\nimport './INameFactory.sol';\nimport './INameTAOPosition.sol';\nimport './INameAccountRecovery.sol';\n\n/**\n * @title NamePublicKey\n */\ncontract NamePublicKey is TheAO, INamePublicKey {\n\tusing SafeMath for uint256;\n\n\taddress public nameFactoryAddress;\n\taddress public nameAccountRecoveryAddress;\n\n\tINameFactory internal _nameFactory;\n\tINameTAOPosition internal _nameTAOPosition;\n\tINameAccountRecovery internal _nameAccountRecovery;\n\n\tstruct PublicKey {\n\t\tbool created;\n\t\taddress defaultKey;\n\t\taddress[] keys;\n\t}\n\n\t// Mapping from nameId to its PublicKey\n\tmapping (address => PublicKey) internal publicKeys;\n\n\t// Event to be broadcasted to public when a publicKey is added to a Name\n\tevent AddKey(address indexed nameId, address publicKey, uint256 nonce);\n\n\t// Event to be broadcasted to public when a publicKey is removed from a Name\n\tevent RemoveKey(address indexed nameId, address publicKey, uint256 nonce);\n\n\t// Event to be broadcasted to public when a publicKey is set as default for a Name\n\tevent SetDefaultKey(address indexed nameId, address publicKey, uint256 nonce);\n\n\t/**\n\t * @dev Constructor function\n\t */\n\tconstructor(address _nameFactoryAddress, address _nameTAOPositionAddress) public {\n\t\tsetNameFactoryAddress(_nameFactoryAddress);\n\t\tsetNameTAOPositionAddress(_nameTAOPositionAddress);\n\t}\n\n\t/**\n\t * @dev Checks if the calling contract address is The AO\n\t *\t\tOR\n\t *\t\tIf The AO is set to a Name/TAO, then check if calling address is the Advocate\n\t */\n\tmodifier onlyTheAO {\n\t\trequire (AOLibrary.isTheAO(msg.sender, theAO, nameTAOPositionAddress));\n\t\t_;\n\t}\n\n\t/**\n\t * @dev Check if calling address is Factory\n\t */\n\tmodifier onlyFactory {\n\t\trequire (msg.sender == nameFactoryAddress);\n\t\t_;\n\t}\n\n\t/**\n\t * @dev Check if `_nameId` is a Name\n\t */\n\tmodifier isName(address _nameId) {\n\t\trequire (AOLibrary.isName(_nameId));\n\t\t_;\n\t}\n\n\t/**\n\t * @dev Check if msg.sender is the current advocate of Name ID\n\t */\n\tmodifier onlyAdvocate(address _id) {\n\t\trequire (_nameTAOPosition.senderIsAdvocate(msg.sender, _id));\n\t\t_;\n\t}\n\n\t/**\n\t * @dev Only allowed if sender's Name is not compromised\n\t */\n\tmodifier senderNameNotCompromised() {\n\t\trequire (!_nameAccountRecovery.isCompromised(_nameFactory.ethAddressToNameId(msg.sender)));\n\t\t_;\n\t}\n\n\t/***** The AO ONLY METHODS *****/\n\t/**\n\t * @dev Transfer ownership of The AO to new address\n\t * @param _theAO The new address to be transferred\n\t */\n\tfunction transferOwnership(address _theAO) public onlyTheAO {\n\t\trequire (_theAO != address(0));\n\t\ttheAO = _theAO;\n\t}\n\n\t/**\n\t * @dev Whitelist `_account` address to transact on behalf of others\n\t * @param _account The address to whitelist\n\t * @param _whitelist Either to whitelist or not\n\t */\n\tfunction setWhitelist(address _account, bool _whitelist) public onlyTheAO {\n\t\trequire (_account != address(0));\n\t\twhitelist[_account] = _whitelist;\n\t}\n\n\t/**\n\t * @dev The AO sets NameFactory address\n\t * @param _nameFactoryAddress The address of NameFactory\n\t */\n\tfunction setNameFactoryAddress(address _nameFactoryAddress) public onlyTheAO {\n\t\trequire (_nameFactoryAddress != address(0));\n\t\tnameFactoryAddress = _nameFactoryAddress;\n\t\t_nameFactory = INameFactory(_nameFactoryAddress);\n\t}\n\n\t/**\n\t * @dev The AO sets NameTAOPosition address\n\t * @param _nameTAOPositionAddress The address of NameTAOPosition\n\t */\n\tfunction setNameTAOPositionAddress(address _nameTAOPositionAddress) public onlyTheAO {\n\t\trequire (_nameTAOPositionAddress != address(0));\n\t\tnameTAOPositionAddress = _nameTAOPositionAddress;\n\t\t_nameTAOPosition = INameTAOPosition(_nameTAOPositionAddress);\n\t}\n\n\t/**\n\t * @dev The AO set the NameAccountRecovery Address\n\t * @param _nameAccountRecoveryAddress The address of NameAccountRecovery\n\t */\n\tfunction setNameAccountRecoveryAddress(address _nameAccountRecoveryAddress) public onlyTheAO {\n\t\trequire (_nameAccountRecoveryAddress != address(0));\n\t\tnameAccountRecoveryAddress = _nameAccountRecoveryAddress;\n\t\t_nameAccountRecovery = INameAccountRecovery(nameAccountRecoveryAddress);\n\t}\n\n\t/**\n\t * @dev Whitelisted address add publicKey to list for a Name\n\t * @param _id The ID of the Name\n\t * @param _key The publicKey to be added\n\t * @return true on success\n\t */\n\tfunction whitelistAddKey(address _id, address _key) external isName(_id) inWhitelist returns (bool) {\n\t\t_addKey(_id, _key);\n\t\treturn true;\n\t}\n\n\t/***** PUBLIC METHODS *****/\n\t/**\n\t * @dev Check whether or not a Name ID exist in the list of Public Keys\n\t * @param _id The ID to be checked\n\t * @return true if yes, false otherwise\n\t */\n\tfunction isExist(address _id) public view returns (bool) {\n\t\treturn publicKeys[_id].created;\n\t}\n\n\t/**\n\t * @dev Store the PublicKey info for a Name\n\t * @param _id The ID of the Name\n\t * @param _defaultKey The default public key for this Name\n\t * @return true on success\n\t */\n\tfunction initialize(address _id, address _defaultKey)\n\t\texternal\n\t\tisName(_id)\n\t\tonlyFactory returns (bool) {\n\t\trequire (!isExist(_id));\n\t\trequire (_defaultKey != address(0));\n\n\t\tPublicKey storage _publicKey = publicKeys[_id];\n\t\t_publicKey.created = true;\n\t\t_publicKey.defaultKey = _defaultKey;\n\t\t_publicKey.keys.push(_defaultKey);\n\t\treturn true;\n\t}\n\n\t/**\n\t * @dev Get total publicKeys count for a Name\n\t * @param _id The ID of the Name\n\t * @return total publicKeys count\n\t */\n\tfunction getTotalPublicKeysCount(address _id) public isName(_id) view returns (uint256) {\n\t\trequire (isExist(_id));\n\t\treturn publicKeys[_id].keys.length;\n\t}\n\n\t/**\n\t * @dev Check whether or not a publicKey exist in the list for a Name\n\t * @param _id The ID of the Name\n\t * @param _key The publicKey to check\n\t * @return true if yes. false otherwise\n\t */\n\tfunction isKeyExist(address _id, address _key) isName(_id) external view returns (bool) {\n\t\trequire (isExist(_id));\n\t\trequire (_key != address(0));\n\n\t\tPublicKey memory _publicKey = publicKeys[_id];\n\t\tfor (uint256 i = 0; i < _publicKey.keys.length; i++) {\n\t\t\tif (_publicKey.keys[i] == _key) {\n\t\t\t\treturn true;\n\t\t\t}\n\t\t}\n\t\treturn false;\n\t}\n\n\t/**\n\t * @dev Add publicKey to list for a Name\n\t * @param _id The ID of the Name\n\t * @param _key The publicKey to be added\n\t * @param _nonce The signed uint256 nonce (should be Name's current nonce + 1)\n\t * @param _signatureV The V part of the signature\n\t * @param _signatureR The R part of the signature\n\t * @param _signatureS The S part of the signature\n\t */\n\tfunction addKey(address _id,\n\t\taddress _key,\n\t\tuint256 _nonce,\n\t\tuint8 _signatureV,\n\t\tbytes32 _signatureR,\n\t\tbytes32 _signatureS\n\t) public isName(_id) onlyAdvocate(_id) senderNameNotCompromised {\n\t\trequire (_nonce == _nameFactory.nonces(_id).add(1));\n\t\tbytes32 _hash = keccak256(abi.encodePacked(address(this), _id, _key, _nonce));\n\t\trequire (ecrecover(_hash, _signatureV, _signatureR, _signatureS) == _key);\n\t\t_addKey(_id, _key);\n\t}\n\n\t/**\n\t * @dev Get default public key of a Name\n\t * @param _id The ID of the Name\n\t * @return the default public key\n\t */\n\tfunction getDefaultKey(address _id) external isName(_id) view returns (address) {\n\t\trequire (isExist(_id));\n\t\treturn publicKeys[_id].defaultKey;\n\t}\n\n\t/**\n\t * @dev Get list of publicKeys of a Name\n\t * @param _id The ID of the Name\n\t * @param _from The starting index\n\t * @param _to The ending index\n\t * @return list of publicKeys\n\t */\n\tfunction getKeys(address _id, uint256 _from, uint256 _to) public isName(_id) view returns (address[]) {\n\t\trequire (isExist(_id));\n\t\trequire (_from >= 0 && _to >= _from);\n\n\t\tPublicKey memory _publicKey = publicKeys[_id];\n\t\trequire (_publicKey.keys.length > 0);\n\n\t\tif (_to >  _publicKey.keys.length.sub(1)) {\n\t\t\t_to = _publicKey.keys.length.sub(1);\n\t\t}\n\t\taddress[] memory _keys = new address[](_to.sub(_from).add(1));\n\n\t\tfor (uint256 i = _from; i <= _to; i++) {\n\t\t\t_keys[i.sub(_from)] = _publicKey.keys[i];\n\t\t}\n\t\treturn _keys;\n\t}\n\n\t/**\n\t * @dev Remove publicKey from the list\n\t * @param _id The ID of the Name\n\t * @param _key The publicKey to be removed\n\t */\n\tfunction removeKey(address _id, address _key) public isName(_id) onlyAdvocate(_id) senderNameNotCompromised {\n\t\trequire (isExist(_id));\n\t\trequire (this.isKeyExist(_id, _key));\n\n\t\tPublicKey storage _publicKey = publicKeys[_id];\n\n\t\t// Can't remove default key\n\t\trequire (_key != _publicKey.defaultKey);\n\t\trequire (_publicKey.keys.length > 1);\n\n\t\tuint256 index;\n\t\tfor (uint256 i = 0; i < _publicKey.keys.length; i++) {\n\t\t\tif (_publicKey.keys[i] == _key) {\n\t\t\t\tindex = i;\n\t\t\t\tbreak;\n\t\t\t}\n\t\t}\n\n\t\tfor (i = index; i < _publicKey.keys.length.sub(1); i++) {\n\t\t\t_publicKey.keys[i] = _publicKey.keys[i+1];\n\t\t}\n\t\t_publicKey.keys.length--;\n\n\t\tuint256 _nonce = _nameFactory.incrementNonce(_id);\n\t\trequire (_nonce > 0);\n\n\t\temit RemoveKey(_id, _key, _nonce);\n\t}\n\n\t/**\n\t * @dev Set a publicKey as the default for a Name\n\t * @param _id The ID of the Name\n\t * @param _defaultKey The defaultKey to be set\n\t * @param _signatureV The V part of the signature for this update\n\t * @param _signatureR The R part of the signature for this update\n\t * @param _signatureS The S part of the signature for this update\n\t */\n\tfunction setDefaultKey(address _id, address _defaultKey, uint8 _signatureV, bytes32 _signatureR, bytes32 _signatureS) public isName(_id) onlyAdvocate(_id) senderNameNotCompromised {\n\t\trequire (isExist(_id));\n\t\trequire (this.isKeyExist(_id, _defaultKey));\n\n\t\tbytes32 _hash = keccak256(abi.encodePacked(address(this), _id, _defaultKey));\n\t\trequire (ecrecover(_hash, _signatureV, _signatureR, _signatureS) == msg.sender);\n\n\t\tPublicKey storage _publicKey = publicKeys[_id];\n\t\t_publicKey.defaultKey = _defaultKey;\n\n\t\tuint256 _nonce = _nameFactory.incrementNonce(_id);\n\t\trequire (_nonce > 0);\n\t\temit SetDefaultKey(_id, _defaultKey, _nonce);\n\t}\n\n\t/***** INTERNAL METHOD *****/\n\t/**\n\t * @dev Actual adding the publicKey to list for a Name\n\t * @param _id The ID of the Name\n\t * @param _key The publicKey to be added\n\t */\n\tfunction _addKey(address _id, address _key) internal {\n\t\trequire (!this.isKeyExist(_id, _key));\n\t\trequire (_key != address(0));\n\n\t\tPublicKey storage _publicKey = publicKeys[_id];\n\t\t_publicKey.keys.push(_key);\n\n\t\tuint256 _nonce = _nameFactory.incrementNonce(_id);\n\t\trequire (_nonce > 0);\n\n\t\temit AddKey(_id, _key, _nonce);\n\t}\n}\n",
	"sourcePath": "/Users/johanmulyono/Work/AO/ao-contracts/contracts/NamePublicKey.sol",
	"compiler": {
		"name": "solc",
		"version": "0.4.24+commit.e67f0147.Emscripten.clang"
	},
	"schemaVersion": "2.0.1",
	"updatedAt": "2019-04-04T04:29:47.036Z"
}