{
	"contractName": "NameTAOPosition",
	"abi": [
		{
			"constant": true,
			"inputs": [],
			"name": "aoSettingAddress",
			"outputs": [
				{
					"name": "",
					"type": "address"
				}
			],
			"payable": false,
			"stateMutability": "view",
			"type": "function"
		},
		{
			"constant": true,
			"inputs": [],
			"name": "totalTAOAdvocateChallenges",
			"outputs": [
				{
					"name": "",
					"type": "uint256"
				}
			],
			"payable": false,
			"stateMutability": "view",
			"type": "function"
		},
		{
			"constant": true,
			"inputs": [],
			"name": "logosAddress",
			"outputs": [
				{
					"name": "",
					"type": "address"
				}
			],
			"payable": false,
			"stateMutability": "view",
			"type": "function"
		},
		{
			"constant": true,
			"inputs": [],
			"name": "nameTAOPositionAddress",
			"outputs": [
				{
					"name": "",
					"type": "address"
				}
			],
			"payable": false,
			"stateMutability": "view",
			"type": "function"
		},
		{
			"constant": true,
			"inputs": [
				{
					"name": "",
					"type": "address"
				}
			],
			"name": "whitelist",
			"outputs": [
				{
					"name": "",
					"type": "bool"
				}
			],
			"payable": false,
			"stateMutability": "view",
			"type": "function"
		},
		{
			"constant": true,
			"inputs": [],
			"name": "nameAccountRecoveryAddress",
			"outputs": [
				{
					"name": "",
					"type": "address"
				}
			],
			"payable": false,
			"stateMutability": "view",
			"type": "function"
		},
		{
			"constant": true,
			"inputs": [],
			"name": "theAO",
			"outputs": [
				{
					"name": "",
					"type": "address"
				}
			],
			"payable": false,
			"stateMutability": "view",
			"type": "function"
		},
		{
			"constant": true,
			"inputs": [],
			"name": "taoAncestryAddress",
			"outputs": [
				{
					"name": "",
					"type": "address"
				}
			],
			"payable": false,
			"stateMutability": "view",
			"type": "function"
		},
		{
			"constant": true,
			"inputs": [],
			"name": "nameFactoryAddress",
			"outputs": [
				{
					"name": "",
					"type": "address"
				}
			],
			"payable": false,
			"stateMutability": "view",
			"type": "function"
		},
		{
			"constant": true,
			"inputs": [],
			"name": "settingTAOId",
			"outputs": [
				{
					"name": "",
					"type": "address"
				}
			],
			"payable": false,
			"stateMutability": "view",
			"type": "function"
		},
		{
			"constant": true,
			"inputs": [],
			"name": "taoFactoryAddress",
			"outputs": [
				{
					"name": "",
					"type": "address"
				}
			],
			"payable": false,
			"stateMutability": "view",
			"type": "function"
		},
		{
			"inputs": [
				{
					"name": "_nameFactoryAddress",
					"type": "address"
				},
				{
					"name": "_taoFactoryAddress",
					"type": "address"
				}
			],
			"payable": false,
			"stateMutability": "nonpayable",
			"type": "constructor"
		},
		{
			"anonymous": false,
			"inputs": [
				{
					"indexed": true,
					"name": "taoId",
					"type": "address"
				},
				{
					"indexed": false,
					"name": "oldAdvocateId",
					"type": "address"
				},
				{
					"indexed": false,
					"name": "newAdvocateId",
					"type": "address"
				},
				{
					"indexed": false,
					"name": "nonce",
					"type": "uint256"
				}
			],
			"name": "SetAdvocate",
			"type": "event"
		},
		{
			"anonymous": false,
			"inputs": [
				{
					"indexed": true,
					"name": "taoId",
					"type": "address"
				},
				{
					"indexed": false,
					"name": "oldListenerId",
					"type": "address"
				},
				{
					"indexed": false,
					"name": "newListenerId",
					"type": "address"
				},
				{
					"indexed": false,
					"name": "nonce",
					"type": "uint256"
				}
			],
			"name": "SetListener",
			"type": "event"
		},
		{
			"anonymous": false,
			"inputs": [
				{
					"indexed": true,
					"name": "taoId",
					"type": "address"
				},
				{
					"indexed": false,
					"name": "oldSpeakerId",
					"type": "address"
				},
				{
					"indexed": false,
					"name": "newSpeakerId",
					"type": "address"
				},
				{
					"indexed": false,
					"name": "nonce",
					"type": "uint256"
				}
			],
			"name": "SetSpeaker",
			"type": "event"
		},
		{
			"anonymous": false,
			"inputs": [
				{
					"indexed": true,
					"name": "taoId",
					"type": "address"
				},
				{
					"indexed": true,
					"name": "challengeId",
					"type": "bytes32"
				},
				{
					"indexed": false,
					"name": "currentAdvocateId",
					"type": "address"
				},
				{
					"indexed": false,
					"name": "challengerAdvocateId",
					"type": "address"
				},
				{
					"indexed": false,
					"name": "createdTimestamp",
					"type": "uint256"
				},
				{
					"indexed": false,
					"name": "lockedUntilTimestamp",
					"type": "uint256"
				},
				{
					"indexed": false,
					"name": "completeBeforeTimestamp",
					"type": "uint256"
				}
			],
			"name": "ChallengeTAOAdvocate",
			"type": "event"
		},
		{
			"anonymous": false,
			"inputs": [
				{
					"indexed": true,
					"name": "taoId",
					"type": "address"
				},
				{
					"indexed": true,
					"name": "challengeId",
					"type": "bytes32"
				}
			],
			"name": "CompleteTAOAdvocateChallenge",
			"type": "event"
		},
		{
			"constant": false,
			"inputs": [
				{
					"name": "_theAO",
					"type": "address"
				}
			],
			"name": "transferOwnership",
			"outputs": [],
			"payable": false,
			"stateMutability": "nonpayable",
			"type": "function"
		},
		{
			"constant": false,
			"inputs": [
				{
					"name": "_account",
					"type": "address"
				},
				{
					"name": "_whitelist",
					"type": "bool"
				}
			],
			"name": "setWhitelist",
			"outputs": [],
			"payable": false,
			"stateMutability": "nonpayable",
			"type": "function"
		},
		{
			"constant": false,
			"inputs": [
				{
					"name": "_nameFactoryAddress",
					"type": "address"
				}
			],
			"name": "setNameFactoryAddress",
			"outputs": [],
			"payable": false,
			"stateMutability": "nonpayable",
			"type": "function"
		},
		{
			"constant": false,
			"inputs": [
				{
					"name": "_nameAccountRecoveryAddress",
					"type": "address"
				}
			],
			"name": "setNameAccountRecoveryAddress",
			"outputs": [],
			"payable": false,
			"stateMutability": "nonpayable",
			"type": "function"
		},
		{
			"constant": false,
			"inputs": [
				{
					"name": "_taoFactoryAddress",
					"type": "address"
				}
			],
			"name": "setTAOFactoryAddress",
			"outputs": [],
			"payable": false,
			"stateMutability": "nonpayable",
			"type": "function"
		},
		{
			"constant": false,
			"inputs": [
				{
					"name": "_settingTAOId",
					"type": "address"
				}
			],
			"name": "setSettingTAOId",
			"outputs": [],
			"payable": false,
			"stateMutability": "nonpayable",
			"type": "function"
		},
		{
			"constant": false,
			"inputs": [
				{
					"name": "_aoSettingAddress",
					"type": "address"
				}
			],
			"name": "setAOSettingAddress",
			"outputs": [],
			"payable": false,
			"stateMutability": "nonpayable",
			"type": "function"
		},
		{
			"constant": false,
			"inputs": [
				{
					"name": "_taoAncestryAddress",
					"type": "address"
				}
			],
			"name": "setTAOAncestryAddress",
			"outputs": [],
			"payable": false,
			"stateMutability": "nonpayable",
			"type": "function"
		},
		{
			"constant": false,
			"inputs": [
				{
					"name": "_logosAddress",
					"type": "address"
				}
			],
			"name": "setLogosAddress",
			"outputs": [],
			"payable": false,
			"stateMutability": "nonpayable",
			"type": "function"
		},
		{
			"constant": true,
			"inputs": [
				{
					"name": "_id",
					"type": "address"
				}
			],
			"name": "isExist",
			"outputs": [
				{
					"name": "",
					"type": "bool"
				}
			],
			"payable": false,
			"stateMutability": "view",
			"type": "function"
		},
		{
			"constant": true,
			"inputs": [
				{
					"name": "_sender",
					"type": "address"
				},
				{
					"name": "_id",
					"type": "address"
				}
			],
			"name": "senderIsAdvocate",
			"outputs": [
				{
					"name": "",
					"type": "bool"
				}
			],
			"payable": false,
			"stateMutability": "view",
			"type": "function"
		},
		{
			"constant": true,
			"inputs": [
				{
					"name": "_sender",
					"type": "address"
				},
				{
					"name": "_id",
					"type": "address"
				}
			],
			"name": "senderIsListener",
			"outputs": [
				{
					"name": "",
					"type": "bool"
				}
			],
			"payable": false,
			"stateMutability": "view",
			"type": "function"
		},
		{
			"constant": true,
			"inputs": [
				{
					"name": "_sender",
					"type": "address"
				},
				{
					"name": "_id",
					"type": "address"
				}
			],
			"name": "senderIsSpeaker",
			"outputs": [
				{
					"name": "",
					"type": "bool"
				}
			],
			"payable": false,
			"stateMutability": "view",
			"type": "function"
		},
		{
			"constant": true,
			"inputs": [
				{
					"name": "_sender",
					"type": "address"
				},
				{
					"name": "_id",
					"type": "address"
				}
			],
			"name": "senderIsAdvocateOfParent",
			"outputs": [
				{
					"name": "",
					"type": "bool"
				}
			],
			"payable": false,
			"stateMutability": "view",
			"type": "function"
		},
		{
			"constant": true,
			"inputs": [
				{
					"name": "_sender",
					"type": "address"
				},
				{
					"name": "_id",
					"type": "address"
				}
			],
			"name": "senderIsPosition",
			"outputs": [
				{
					"name": "",
					"type": "bool"
				}
			],
			"payable": false,
			"stateMutability": "view",
			"type": "function"
		},
		{
			"constant": true,
			"inputs": [
				{
					"name": "_nameId",
					"type": "address"
				},
				{
					"name": "_id",
					"type": "address"
				}
			],
			"name": "nameIsAdvocate",
			"outputs": [
				{
					"name": "",
					"type": "bool"
				}
			],
			"payable": false,
			"stateMutability": "view",
			"type": "function"
		},
		{
			"constant": true,
			"inputs": [
				{
					"name": "_nameId",
					"type": "address"
				},
				{
					"name": "_id",
					"type": "address"
				}
			],
			"name": "nameIsPosition",
			"outputs": [
				{
					"name": "",
					"type": "bool"
				}
			],
			"payable": false,
			"stateMutability": "view",
			"type": "function"
		},
		{
			"constant": true,
			"inputs": [
				{
					"name": "_sender",
					"type": "address"
				},
				{
					"name": "_id",
					"type": "address"
				}
			],
			"name": "determinePosition",
			"outputs": [
				{
					"name": "",
					"type": "uint256"
				}
			],
			"payable": false,
			"stateMutability": "view",
			"type": "function"
		},
		{
			"constant": false,
			"inputs": [
				{
					"name": "_id",
					"type": "address"
				},
				{
					"name": "_advocateId",
					"type": "address"
				},
				{
					"name": "_listenerId",
					"type": "address"
				},
				{
					"name": "_speakerId",
					"type": "address"
				}
			],
			"name": "initialize",
			"outputs": [
				{
					"name": "",
					"type": "bool"
				}
			],
			"payable": false,
			"stateMutability": "nonpayable",
			"type": "function"
		},
		{
			"constant": true,
			"inputs": [
				{
					"name": "_id",
					"type": "address"
				}
			],
			"name": "getPositionById",
			"outputs": [
				{
					"name": "",
					"type": "string"
				},
				{
					"name": "",
					"type": "address"
				},
				{
					"name": "",
					"type": "string"
				},
				{
					"name": "",
					"type": "address"
				},
				{
					"name": "",
					"type": "string"
				},
				{
					"name": "",
					"type": "address"
				}
			],
			"payable": false,
			"stateMutability": "view",
			"type": "function"
		},
		{
			"constant": true,
			"inputs": [
				{
					"name": "_id",
					"type": "address"
				}
			],
			"name": "getAdvocate",
			"outputs": [
				{
					"name": "",
					"type": "address"
				}
			],
			"payable": false,
			"stateMutability": "view",
			"type": "function"
		},
		{
			"constant": true,
			"inputs": [
				{
					"name": "_id",
					"type": "address"
				}
			],
			"name": "getListener",
			"outputs": [
				{
					"name": "",
					"type": "address"
				}
			],
			"payable": false,
			"stateMutability": "view",
			"type": "function"
		},
		{
			"constant": true,
			"inputs": [
				{
					"name": "_id",
					"type": "address"
				}
			],
			"name": "getSpeaker",
			"outputs": [
				{
					"name": "",
					"type": "address"
				}
			],
			"payable": false,
			"stateMutability": "view",
			"type": "function"
		},
		{
			"constant": false,
			"inputs": [
				{
					"name": "_taoId",
					"type": "address"
				},
				{
					"name": "_newAdvocateId",
					"type": "address"
				}
			],
			"name": "setAdvocate",
			"outputs": [],
			"payable": false,
			"stateMutability": "nonpayable",
			"type": "function"
		},
		{
			"constant": false,
			"inputs": [
				{
					"name": "_taoId",
					"type": "address"
				}
			],
			"name": "parentReplaceChildAdvocate",
			"outputs": [],
			"payable": false,
			"stateMutability": "nonpayable",
			"type": "function"
		},
		{
			"constant": false,
			"inputs": [
				{
					"name": "_taoId",
					"type": "address"
				}
			],
			"name": "challengeTAOAdvocate",
			"outputs": [],
			"payable": false,
			"stateMutability": "nonpayable",
			"type": "function"
		},
		{
			"constant": true,
			"inputs": [
				{
					"name": "_challengeId",
					"type": "bytes32"
				},
				{
					"name": "_sender",
					"type": "address"
				}
			],
			"name": "getChallengeStatus",
			"outputs": [
				{
					"name": "",
					"type": "uint8"
				}
			],
			"payable": false,
			"stateMutability": "view",
			"type": "function"
		},
		{
			"constant": false,
			"inputs": [
				{
					"name": "_challengeId",
					"type": "bytes32"
				}
			],
			"name": "completeTAOAdvocateChallenge",
			"outputs": [],
			"payable": false,
			"stateMutability": "nonpayable",
			"type": "function"
		},
		{
			"constant": true,
			"inputs": [
				{
					"name": "_challengeId",
					"type": "bytes32"
				}
			],
			"name": "getTAOAdvocateChallengeById",
			"outputs": [
				{
					"name": "",
					"type": "address"
				},
				{
					"name": "",
					"type": "address"
				},
				{
					"name": "",
					"type": "bool"
				},
				{
					"name": "",
					"type": "uint256"
				},
				{
					"name": "",
					"type": "uint256"
				},
				{
					"name": "",
					"type": "uint256"
				}
			],
			"payable": false,
			"stateMutability": "view",
			"type": "function"
		},
		{
			"constant": false,
			"inputs": [
				{
					"name": "_id",
					"type": "address"
				},
				{
					"name": "_newListenerId",
					"type": "address"
				}
			],
			"name": "setListener",
			"outputs": [],
			"payable": false,
			"stateMutability": "nonpayable",
			"type": "function"
		},
		{
			"constant": false,
			"inputs": [
				{
					"name": "_id",
					"type": "address"
				},
				{
					"name": "_newSpeakerId",
					"type": "address"
				}
			],
			"name": "setSpeaker",
			"outputs": [],
			"payable": false,
			"stateMutability": "nonpayable",
			"type": "function"
		}
	],
	"bytecode": "0x60806040523480156200001157600080fd5b506040516040806200536383398101604052805160209091015160008054600160a060020a0319163317905562000051826401000000006200007f810204565b620000658164010000000062000184810204565b505060018054600160a060020a0319163017905562000289565b600054600154604080517ff66afcac000000000000000000000000000000000000000000000000000000008152336004820152600160a060020a0393841660248201529290911660448301525173__AOLibrary_____________________________9163f66afcac916064808301926020929190829003018186803b1580156200010857600080fd5b505af41580156200011d573d6000803e3d6000fd5b505050506040513d60208110156200013457600080fd5b505115156200014257600080fd5b600160a060020a03811615156200015857600080fd5b60048054600160a060020a03909216600160a060020a03199283168117909155600b8054909216179055565b600054600154604080517ff66afcac000000000000000000000000000000000000000000000000000000008152336004820152600160a060020a0393841660248201529290911660448301525173__AOLibrary_____________________________9163f66afcac916064808301926020929190829003018186803b1580156200020d57600080fd5b505af415801562000222573d6000803e3d6000fd5b505050506040513d60208110156200023957600080fd5b505115156200024757600080fd5b600160a060020a03811615156200025d57600080fd5b60068054600160a060020a03909216600160a060020a03199283168117909155600d8054909216179055565b6150ca80620002996000396000f3006080604052600436106101e95763ffffffff60e060020a60003504166213eb4b81146101ee578063058af9821461022357806306fd70881461024a5780631d0138ff1461026d5780631dfde2bd1461029e57806320082c69146102bf5780632191207a146102e657806323f48bc91461030757806329981db41461032e5780632cfed9f014610355578063339c5c061461037c57806338da7de71461039d5780633b6682d5146103b2578063473f1e4d146104095780634926248f146104305780634b670418146104575780634ef033f01461047e57806353d6fd59146104935780636fb487fc146104b957806371ce52ed146104da5780637767d034146105015780637a1d66dd14610522578063897e359a146105495780638c924361146105835780639b19251a146105a4578063a4e5fad2146105c5578063a9b6b38e146105da578063af6ddc10146105ef578063bc40620614610604578063d6830af314610619578063d8a0aa6c1461063a578063daacb9ce146107ea578063e2c8e54a14610811578063e7c5018514610838578063eb342f791461084d578063ef44fe2414610865578063f203c85714610886578063f2fde38b146108a7578063f8c8765e146108c8578063fd6f4137146108fb578063ff0374b51461091c578063ff3781c614610931575b600080fd5b3480156101fa57600080fd5b5061020f600160a060020a0360043516610952565b604080519115158252519081900360200190f35b34801561022f57600080fd5b5061020f600160a060020a036004358116906024351661097a565b34801561025657600080fd5b5061026b600160a060020a03600435166109cf565b005b34801561027957600080fd5b50610282610ab9565b60408051600160a060020a039092168252519081900360200190f35b3480156102aa57600080fd5b5061026b600160a060020a0360043516610ac8565b3480156102cb57600080fd5b5061020f600160a060020a0360043581169060243516610bb5565b3480156102f257600080fd5b5061026b600160a060020a0360043516610c8a565b34801561031357600080fd5b5061031c610d74565b60408051918252519081900360200190f35b34801561033a57600080fd5b5061026b600160a060020a0360043581169060243516610d7a565b34801561036157600080fd5b5061026b600160a060020a036004358116906024351661117a565b34801561038857600080fd5b5061026b600160a060020a03600435166119e3565b3480156103a957600080fd5b50610282611edc565b3480156103be57600080fd5b506103ca600435611eeb565b60408051600160a060020a039788168152959096166020860152921515848601526060840191909152608083015260a082015290519081900360c00190f35b34801561041557600080fd5b5061020f600160a060020a0360043581169060243516611fae565b34801561043c57600080fd5b5061026b600160a060020a0360043581169060243516612051565b34801561046357600080fd5b5061020f600160a060020a03600435811690602435166128ba565b34801561048a57600080fd5b50610282612ba0565b34801561049f57600080fd5b5061026b600160a060020a03600435166024351515612baf565b3480156104c557600080fd5b50610282600160a060020a0360043516612c98565b3480156104e657600080fd5b5061020f600160a060020a0360043581169060243516612d16565b34801561050d57600080fd5b5061026b600160a060020a0360043516612de8565b34801561052e57600080fd5b5061031c600160a060020a0360043581169060243516612ed5565b34801561055557600080fd5b5061056d600435600160a060020a036024351661309c565b6040805160ff9092168252519081900360200190f35b34801561058f57600080fd5b5061026b600160a060020a0360043516613340565b3480156105b057600080fd5b5061020f600160a060020a036004351661342a565b3480156105d157600080fd5b5061028261343f565b3480156105e657600080fd5b5061028261344e565b3480156105fb57600080fd5b5061028261345d565b34801561061057600080fd5b5061028261346c565b34801561062557600080fd5b5061026b600160a060020a036004351661347b565b34801561064657600080fd5b5061065b600160a060020a03600435166135da565b604051808060200187600160a060020a0316600160a060020a031681526020018060200186600160a060020a0316600160a060020a031681526020018060200185600160a060020a0316600160a060020a0316815260200184810384528a818151815260200191508051906020019080838360005b838110156106e85781810151838201526020016106d0565b50505050905090810190601f1680156107155780820380516001836020036101000a031916815260200191505b5084810383528851815288516020918201918a019080838360005b83811015610748578181015183820152602001610730565b50505050905090810190601f1680156107755780820380516001836020036101000a031916815260200191505b50848103825286518152865160209182019188019080838360005b838110156107a8578181015183820152602001610790565b50505050905090810190601f1680156107d55780820380516001836020036101000a031916815260200191505b50995050505050505050505060405180910390f35b3480156107f657600080fd5b5061020f600160a060020a03600435811690602435166138ec565b34801561081d57600080fd5b5061020f600160a060020a03600435811690602435166139c1565b34801561084457600080fd5b50610282613af7565b34801561085957600080fd5b5061026b600435613b06565b34801561087157600080fd5b5061026b600160a060020a0360043516613d46565b34801561089257600080fd5b50610282600160a060020a03600435166143f1565b3480156108b357600080fd5b5061026b600160a060020a0360043516614470565b3480156108d457600080fd5b5061020f600160a060020a0360043581169060243581169060443581169060643516614550565b34801561090757600080fd5b50610282600160a060020a0360043516614a34565b34801561092857600080fd5b50610282614ab4565b34801561093d57600080fd5b5061026b600160a060020a0360043516614ac3565b600160a060020a031660009081526011602052604090206002015460a060020a900460ff1690565b600160a060020a03811660009081526011602052604081206002015460a060020a900460ff1680156109c85750600160a060020a038281166000908152601160205260409020548116908416145b9392505050565b6000546001546040805160e260020a633d9abf2b028152336004820152600160a060020a0393841660248201529290911660448301525173__AOLibrary_____________________________9163f66afcac916064808301926020929190829003018186803b158015610a4157600080fd5b505af4158015610a55573d6000803e3d6000fd5b505050506040513d6020811015610a6b57600080fd5b50511515610a7857600080fd5b600160a060020a0381161515610a8d57600080fd5b60078054600160a060020a03909216600160a060020a03199283168117909155600e8054909216179055565b600754600160a060020a031681565b6000546001546040805160e260020a633d9abf2b028152336004820152600160a060020a0393841660248201529290911660448301525173__AOLibrary_____________________________9163f66afcac916064808301926020929190829003018186803b158015610b3a57600080fd5b505af4158015610b4e573d6000803e3d6000fd5b505050506040513d6020811015610b6457600080fd5b50511515610b7157600080fd5b600160a060020a0381161515610b8657600080fd5b60058054600160a060020a0319908116600160a060020a039384161791829055600c8054929093169116179055565b600160a060020a03811660009081526011602052604081206002015460a060020a900460ff1680156109c85750600b546040805160e060020a63029b7d53028152600160a060020a0386811660048301529151919092169163029b7d539160248083019260209291908290030181600087803b158015610c3457600080fd5b505af1158015610c48573d6000803e3d6000fd5b505050506040513d6020811015610c5e57600080fd5b5051600160a060020a038381166000908152601160205260409020600201548116911614905092915050565b6000546001546040805160e260020a633d9abf2b028152336004820152600160a060020a0393841660248201529290911660448301525173__AOLibrary_____________________________9163f66afcac916064808301926020929190829003018186803b158015610cfc57600080fd5b505af4158015610d10573d6000803e3d6000fd5b505050506040513d6020811015610d2657600080fd5b50511515610d3357600080fd5b600160a060020a0381161515610d4857600080fd5b60068054600160a060020a03909216600160a060020a03199283168117909155600d8054909216179055565b600a5481565b8173__AOLibrary_____________________________632fca5414826040518263ffffffff1660e060020a0281526004018082600160a060020a0316600160a060020a0316815260200191505060206040518083038186803b158015610ddf57600080fd5b505af4158015610df3573d6000803e3d6000fd5b505050506040513d6020811015610e0957600080fd5b50511515610e1657600080fd5b8173__AOLibrary_____________________________632d706a34826040518263ffffffff1660e060020a0281526004018082600160a060020a0316600160a060020a0316815260200191505060206040518083038186803b158015610e7b57600080fd5b505af4158015610e8f573d6000803e3d6000fd5b505050506040513d6020811015610ea557600080fd5b50511515610eb257600080fd5b6040805160e060020a6371ce52ed028152336004820152600160a060020a03861660248201529051859130916371ce52ed916044808201926020929091908290030181600087803b158015610f0657600080fd5b505af1158015610f1a573d6000803e3d6000fd5b505050506040513d6020811015610f3057600080fd5b50511515610f3d57600080fd5b600b546040805160e060020a63029b7d530281523360048201529051600092600160a060020a03169163029b7d5391602480830192602092919082900301818787803b158015610f8c57600080fd5b505af1158015610fa0573d6000803e3d6000fd5b505050506040513d6020811015610fb657600080fd5b5051600160a060020a03161415610fcc57600080fd5b600c54600b546040805160e060020a63029b7d530281523360048201529051600160a060020a0393841693633ebc2ab393169163029b7d539160248083019260209291908290030181600087803b15801561102657600080fd5b505af115801561103a573d6000803e3d6000fd5b505050506040513d602081101561105057600080fd5b50516040805160e060020a63ffffffff8516028152600160a060020a0390921660048301525160248083019260209291908290030181600087803b15801561109757600080fd5b505af11580156110ab573d6000803e3d6000fd5b505050506040513d60208110156110c157600080fd5b5051156110cd57600080fd5b6110d685610952565b15156110e157600080fd5b600c546040805160e060020a633ebc2ab3028152600160a060020a03878116600483015291519190921691633ebc2ab39160248083019260209291908290030181600087803b15801561113357600080fd5b505af1158015611147573d6000803e3d6000fd5b505050506040513d602081101561115d57600080fd5b50511561116957600080fd5b6111738585614bad565b5050505050565b6000806000808573__AOLibrary_____________________________632d706a34826040518263ffffffff1660e060020a0281526004018082600160a060020a0316600160a060020a0316815260200191505060206040518083038186803b1580156111e557600080fd5b505af41580156111f9573d6000803e3d6000fd5b505050506040513d602081101561120f57600080fd5b5051806112a157506040805160e260020a630bf29505028152600160a060020a0383166004820152905173__AOLibrary_____________________________91632fca5414916024808301926020929190829003018186803b15801561127457600080fd5b505af4158015611288573d6000803e3d6000fd5b505050506040513d602081101561129e57600080fd5b50515b15156112ac57600080fd5b8573__AOLibrary_____________________________632d706a34826040518263ffffffff1660e060020a0281526004018082600160a060020a0316600160a060020a0316815260200191505060206040518083038186803b15801561131157600080fd5b505af4158015611325573d6000803e3d6000fd5b505050506040513d602081101561133b57600080fd5b5051806113cd57506040805160e260020a630bf29505028152600160a060020a0383166004820152905173__AOLibrary_____________________________91632fca5414916024808301926020929190829003018186803b1580156113a057600080fd5b505af41580156113b4573d6000803e3d6000fd5b505050506040513d60208110156113ca57600080fd5b50515b15156113d857600080fd5b600b546040805160e060020a63029b7d530281523360048201529051600092600160a060020a03169163029b7d5391602480830192602092919082900301818787803b15801561142757600080fd5b505af115801561143b573d6000803e3d6000fd5b505050506040513d602081101561145157600080fd5b5051600160a060020a0316141561146757600080fd5b600c54600b546040805160e060020a63029b7d530281523360048201529051600160a060020a0393841693633ebc2ab393169163029b7d539160248083019260209291908290030181600087803b1580156114c157600080fd5b505af11580156114d5573d6000803e3d6000fd5b505050506040513d60208110156114eb57600080fd5b50516040805160e060020a63ffffffff8516028152600160a060020a0390921660048301525160248083019260209291908290030181600087803b15801561153257600080fd5b505af1158015611546573d6000803e3d6000fd5b505050506040513d602081101561155c57600080fd5b50511561156857600080fd5b6040805160e060020a6371ce52ed028152336004820152600160a060020a038a1660248201529051899130916371ce52ed916044808201926020929091908290030181600087803b1580156115bc57600080fd5b505af11580156115d0573d6000803e3d6000fd5b505050506040513d60208110156115e657600080fd5b505115156115f357600080fd5b6115fc89610952565b151561160757600080fd5b6040805160e260020a630b5c1a8d028152600160a060020a038b16600482015290516000985073__AOLibrary_____________________________91632d706a34916024808301926020929190829003018186803b15801561166857600080fd5b505af415801561167c573d6000803e3d6000fd5b505050506040513d602081101561169257600080fd5b505115611841576040805160e260020a630b5c1a8d028152600160a060020a038a16600482015290516001985073__AOLibrary_____________________________91632d706a34916024808301926020929190829003018186803b1580156116fa57600080fd5b505af415801561170e573d6000803e3d6000fd5b505050506040513d602081101561172457600080fd5b5051151561173157600080fd5b600c546040805160e060020a633ebc2ab3028152600160a060020a038c8116600483015291519190921691633ebc2ab39160248083019260209291908290030181600087803b15801561178357600080fd5b505af1158015611797573d6000803e3d6000fd5b505050506040513d60208110156117ad57600080fd5b5051156117b957600080fd5b600c546040805160e060020a633ebc2ab3028152600160a060020a038b8116600483015291519190921691633ebc2ab39160248083019260209291908290030181600087803b15801561180b57600080fd5b505af115801561181f573d6000803e3d6000fd5b505050506040513d602081101561183557600080fd5b50511561184157600080fd5b600160a060020a03808a1660009081526011602052604090206002810180548b8416600160a060020a0319821617909155909750169450861561190357600b546040805160e260020a633d5d0f13028152600160a060020a038c811660048301529151919092169163f5743c4c9160248083019260209291908290030181600087803b1580156118d057600080fd5b505af11580156118e4573d6000803e3d6000fd5b505050506040513d60208110156118fa57600080fd5b50519350611984565b600d546040805160e260020a633d5d0f13028152600160a060020a038c811660048301529151919092169163f5743c4c9160248083019260209291908290030181600087803b15801561195557600080fd5b505af1158015611969573d6000803e3d6000fd5b505050506040513d602081101561197f57600080fd5b505193505b600286015460408051600160a060020a03888116825292831660208201528082018790529051918b16917fe60c26cbb956b589a247aabcdf98ec9be5509ac7ee76c3508b41647fa1457eca9181900360600190a2505050505050505050565b6000808273__AOLibrary_____________________________632fca5414826040518263ffffffff1660e060020a0281526004018082600160a060020a0316600160a060020a0316815260200191505060206040518083038186803b158015611a4b57600080fd5b505af4158015611a5f573d6000803e3d6000fd5b505050506040513d6020811015611a7557600080fd5b50511515611a8257600080fd5b600b546040805160e060020a63029b7d530281523360048201529051600092600160a060020a03169163029b7d5391602480830192602092919082900301818787803b158015611ad157600080fd5b505af1158015611ae5573d6000803e3d6000fd5b505050506040513d6020811015611afb57600080fd5b5051600160a060020a03161415611b1157600080fd5b600c54600b546040805160e060020a63029b7d530281523360048201529051600160a060020a0393841693633ebc2ab393169163029b7d539160248083019260209291908290030181600087803b158015611b6b57600080fd5b505af1158015611b7f573d6000803e3d6000fd5b505050506040513d6020811015611b9557600080fd5b50516040805160e060020a63ffffffff8516028152600160a060020a0390921660048301525160248083019260209291908290030181600087803b158015611bdc57600080fd5b505af1158015611bf0573d6000803e3d6000fd5b505050506040513d6020811015611c0657600080fd5b505115611c1257600080fd5b611c1b84610952565b1515611c2657600080fd5b611c3033856128ba565b1515611c3b57600080fd5b600b546040805160e060020a63029b7d530281523360048201529051600160a060020a039092169163029b7d53916024808201926020929091908290030181600087803b158015611c8b57600080fd5b505af1158015611c9f573d6000803e3d6000fd5b505050506040513d6020811015611cb557600080fd5b50516040805160e060020a63fd6f4137028152600160a060020a03871660048201529051919450309163fd6f4137916024808201926020929091908290030181600087803b158015611d0657600080fd5b505af1158015611d1a573d6000803e3d6000fd5b505050506040513d6020811015611d3057600080fd5b50519150600160a060020a038381169083161415611d4d57600080fd5b6010546040805160e060020a63fd6f4137028152600160a060020a0387811660048301529151919092169163985e4cd091309163fd6f41379160248083019260209291908290030181600087803b158015611da757600080fd5b505af1158015611dbb573d6000803e3d6000fd5b505050506040513d6020811015611dd157600080fd5b50516040805160e060020a63ffffffff8516028152600160a060020a0390921660048301525160248083019260209291908290030181600087803b158015611e1857600080fd5b505af1158015611e2c573d6000803e3d6000fd5b505050506040513d6020811015611e4257600080fd5b50516010546040805160e460020a630985e4cd028152600160a060020a0387811660048301529151919092169163985e4cd09160248083019260209291908290030181600087803b158015611e9657600080fd5b505af1158015611eaa573d6000803e3d6000fd5b505050506040513d6020811015611ec057600080fd5b505111611ecc57600080fd5b611ed68484614bad565b50505050565b600954600160a060020a031681565b600080600080600080611efc61503b565b50600087815260126020908152604091829020825160e081018452815481526001820154600160a060020a0390811693820193909352600282015492831693810184905260a060020a90920460ff161515606083015260038101546080830152600481015460a08301526005015460c0820152901515611f7b57600080fd5b602081015160408201516060830151608084015160a085015160c090950151939c929b5090995097509195509350915050565b600160a060020a03811660009081526011602052604081206002015460a060020a900460ff1680156109c85750600160a060020a03828116600090815260116020526040902054811690841614806120255750600160a060020a038281166000908152601160205260409020600101548116908416145b806109c8575050600160a060020a03908116600090815260116020526040902060020154811691161490565b6000806000808573__AOLibrary_____________________________632d706a34826040518263ffffffff1660e060020a0281526004018082600160a060020a0316600160a060020a0316815260200191505060206040518083038186803b1580156120bc57600080fd5b505af41580156120d0573d6000803e3d6000fd5b505050506040513d60208110156120e657600080fd5b50518061217857506040805160e260020a630bf29505028152600160a060020a0383166004820152905173__AOLibrary_____________________________91632fca5414916024808301926020929190829003018186803b15801561214b57600080fd5b505af415801561215f573d6000803e3d6000fd5b505050506040513d602081101561217557600080fd5b50515b151561218357600080fd5b8573__AOLibrary_____________________________632d706a34826040518263ffffffff1660e060020a0281526004018082600160a060020a0316600160a060020a0316815260200191505060206040518083038186803b1580156121e857600080fd5b505af41580156121fc573d6000803e3d6000fd5b505050506040513d602081101561221257600080fd5b5051806122a457506040805160e260020a630bf29505028152600160a060020a0383166004820152905173__AOLibrary_____________________________91632fca5414916024808301926020929190829003018186803b15801561227757600080fd5b505af415801561228b573d6000803e3d6000fd5b505050506040513d60208110156122a157600080fd5b50515b15156122af57600080fd5b600b546040805160e060020a63029b7d530281523360048201529051600092600160a060020a03169163029b7d5391602480830192602092919082900301818787803b1580156122fe57600080fd5b505af1158015612312573d6000803e3d6000fd5b505050506040513d602081101561232857600080fd5b5051600160a060020a0316141561233e57600080fd5b600c54600b546040805160e060020a63029b7d530281523360048201529051600160a060020a0393841693633ebc2ab393169163029b7d539160248083019260209291908290030181600087803b15801561239857600080fd5b505af11580156123ac573d6000803e3d6000fd5b505050506040513d60208110156123c257600080fd5b50516040805160e060020a63ffffffff8516028152600160a060020a0390921660048301525160248083019260209291908290030181600087803b15801561240957600080fd5b505af115801561241d573d6000803e3d6000fd5b505050506040513d602081101561243357600080fd5b50511561243f57600080fd5b6040805160e060020a6371ce52ed028152336004820152600160a060020a038a1660248201529051899130916371ce52ed916044808201926020929091908290030181600087803b15801561249357600080fd5b505af11580156124a7573d6000803e3d6000fd5b505050506040513d60208110156124bd57600080fd5b505115156124ca57600080fd5b6124d389610952565b15156124de57600080fd5b6040805160e260020a630b5c1a8d028152600160a060020a038b16600482015290516000985073__AOLibrary_____________________________91632d706a34916024808301926020929190829003018186803b15801561253f57600080fd5b505af4158015612553573d6000803e3d6000fd5b505050506040513d602081101561256957600080fd5b505115612718576040805160e260020a630b5c1a8d028152600160a060020a038a16600482015290516001985073__AOLibrary_____________________________91632d706a34916024808301926020929190829003018186803b1580156125d157600080fd5b505af41580156125e5573d6000803e3d6000fd5b505050506040513d60208110156125fb57600080fd5b5051151561260857600080fd5b600c546040805160e060020a633ebc2ab3028152600160a060020a038c8116600483015291519190921691633ebc2ab39160248083019260209291908290030181600087803b15801561265a57600080fd5b505af115801561266e573d6000803e3d6000fd5b505050506040513d602081101561268457600080fd5b50511561269057600080fd5b600c546040805160e060020a633ebc2ab3028152600160a060020a038b8116600483015291519190921691633ebc2ab39160248083019260209291908290030181600087803b1580156126e257600080fd5b505af11580156126f6573d6000803e3d6000fd5b505050506040513d602081101561270c57600080fd5b50511561271857600080fd5b600160a060020a03808a1660009081526011602052604090206001810180548b8416600160a060020a031982161790915590975016945086156127da57600b546040805160e260020a633d5d0f13028152600160a060020a038c811660048301529151919092169163f5743c4c9160248083019260209291908290030181600087803b1580156127a757600080fd5b505af11580156127bb573d6000803e3d6000fd5b505050506040513d60208110156127d157600080fd5b5051935061285b565b600d546040805160e260020a633d5d0f13028152600160a060020a038c811660048301529151919092169163f5743c4c9160248083019260209291908290030181600087803b15801561282c57600080fd5b505af1158015612840573d6000803e3d6000fd5b505050506040513d602081101561285657600080fd5b505193505b600186015460408051600160a060020a03888116825292831660208201528082018790529051918b16917f2e81a908b9dece3c9a64e14f5daaa72174a5403092f82ab988ba4cc14b1390029181900360600190a2505050505050505050565b600f54604080517f7b23a437000000000000000000000000000000000000000000000000000000008152600160a060020a038481166004830152915160009384931691637b23a43791602480830192606092919082900301818787803b15801561292357600080fd5b505af1158015612937573d6000803e3d6000fd5b505050506040513d606081101561294d57600080fd5b50516040805160e260020a630b5c1a8d028152600160a060020a0383166004820152905191925073__AOLibrary_____________________________91632d706a3491602480820192602092909190829003018186803b1580156129b057600080fd5b505af41580156129c4573d6000803e3d6000fd5b505050506040513d60208110156129da57600080fd5b505180612b0f57506040805160e260020a630bf29505028152600160a060020a0383166004820152905173__AOLibrary_____________________________91632fca5414916024808301926020929190829003018186803b158015612a3f57600080fd5b505af4158015612a53573d6000803e3d6000fd5b505050506040513d6020811015612a6957600080fd5b50518015612b0f5750600f54604080517f56dbc007000000000000000000000000000000000000000000000000000000008152600160a060020a0384811660048301528681166024830152915191909216916356dbc0079160448083019260209291908290030181600087803b158015612ae257600080fd5b505af1158015612af6573d6000803e3d6000fd5b505050506040513d6020811015612b0c57600080fd5b50515b8015612b9657506040805160e060020a6371ce52ed028152600160a060020a03868116600483015283166024820152905130916371ce52ed9160448083019260209291908290030181600087803b158015612b6957600080fd5b505af1158015612b7d573d6000803e3d6000fd5b505050506040513d6020811015612b9357600080fd5b50515b91505b5092915050565b600154600160a060020a031681565b6000546001546040805160e260020a633d9abf2b028152336004820152600160a060020a0393841660248201529290911660448301525173__AOLibrary_____________________________9163f66afcac916064808301926020929190829003018186803b158015612c2157600080fd5b505af4158015612c35573d6000803e3d6000fd5b505050506040513d6020811015612c4b57600080fd5b50511515612c5857600080fd5b600160a060020a0382161515612c6d57600080fd5b600160a060020a03919091166000908152600260205260409020805460ff1916911515919091179055565b6000612ca2615077565b612cab83610952565b1515612cb657600080fd5b5050600160a060020a039081166000908152601160209081526040918290208251608081018452815485168152600182015485169281018390526002909101549384169281019290925260a060020a90920460ff16151560609091015290565b600160a060020a03811660009081526011602052604081206002015460a060020a900460ff1680156109c85750600b546040805160e060020a63029b7d53028152600160a060020a0386811660048301529151919092169163029b7d539160248083019260209291908290030181600087803b158015612d9557600080fd5b505af1158015612da9573d6000803e3d6000fd5b505050506040513d6020811015612dbf57600080fd5b5051600160a060020a038381166000908152601160205260409020548116911614905092915050565b6000546001546040805160e260020a633d9abf2b028152336004820152600160a060020a0393841660248201529290911660448301525173__AOLibrary_____________________________9163f66afcac916064808301926020929190829003018186803b158015612e5a57600080fd5b505af4158015612e6e573d6000803e3d6000fd5b505050506040513d6020811015612e8457600080fd5b50511515612e9157600080fd5b600160a060020a0381161515612ea657600080fd5b60088054600160a060020a0319908116600160a060020a039384161791829055600f8054929093169116179055565b6000612edf615077565b604080517fe2c8e54a000000000000000000000000000000000000000000000000000000008152600160a060020a038681166004830152851660248201529051600091309163e2c8e54a9160448082019260209290919082900301818787803b158015612f4b57600080fd5b505af1158015612f5f573d6000803e3d6000fd5b505050506040513d6020811015612f7557600080fd5b50511515612f8257600080fd5b600160a060020a038481166000908152601160209081526040808320815160808101835281548616815260018201548616818501526002909101548086168284015260a060020a900460ff1615156060820152600b54825160e060020a63029b7d530281528b8716600482015292519197509094169363029b7d5393602480840194938390030190829087803b15801561301b57600080fd5b505af115801561302f573d6000803e3d6000fd5b505050506040513d602081101561304557600080fd5b50518251909150600160a060020a03808316911614156130685760019250613094565b8160200151600160a060020a031681600160a060020a0316141561308f5760029250613094565b600392505b505092915050565b600b546040805160e060020a63029b7d53028152600160a060020a03848116600483015291516000938493849391169163029b7d539160248082019260209290919082900301818787803b1580156130f357600080fd5b505af1158015613107573d6000803e3d6000fd5b505050506040513d602081101561311d57600080fd5b5051600086815260126020526040902060028101549193509150600160a060020a0316151561314f5760029250613094565b6001810154600160a060020a0383811691161461316f5760039250613094565b80600401544210806131845750806005015442115b156131925760049250613094565b600281015460a060020a900460ff16156131af5760059250613094565b60105460028201546040805160e060020a63fd6f4137028152600160a060020a0392831660048201529051919092169163985e4cd091309163fd6f41379160248083019260209291908290030181600087803b15801561320e57600080fd5b505af1158015613222573d6000803e3d6000fd5b505050506040513d602081101561323857600080fd5b50516040805160e060020a63ffffffff8516028152600160a060020a0390921660048301525160248083019260209291908290030181600087803b15801561327f57600080fd5b505af1158015613293573d6000803e3d6000fd5b505050506040513d60208110156132a957600080fd5b50516010546040805160e460020a630985e4cd028152600160a060020a0386811660048301529151919092169163985e4cd09160248083019260209291908290030181600087803b1580156132fd57600080fd5b505af1158015613311573d6000803e3d6000fd5b505050506040513d602081101561332757600080fd5b5051116133375760069250613094565b60019250613094565b6000546001546040805160e260020a633d9abf2b028152336004820152600160a060020a0393841660248201529290911660448301525173__AOLibrary_____________________________9163f66afcac916064808301926020929190829003018186803b1580156133b257600080fd5b505af41580156133c6573d6000803e3d6000fd5b505050506040513d60208110156133dc57600080fd5b505115156133e957600080fd5b600160a060020a03811615156133fe57600080fd5b60048054600160a060020a03909216600160a060020a03199283168117909155600b8054909216179055565b60026020526000908152604090205460ff1681565b600554600160a060020a031681565b600054600160a060020a031681565b600854600160a060020a031681565b600454600160a060020a031681565b6000546001546040805160e260020a633d9abf2b028152336004820152600160a060020a0393841660248201529290911660448301525173__AOLibrary_____________________________9163f66afcac916064808301926020929190829003018186803b1580156134ed57600080fd5b505af4158015613501573d6000803e3d6000fd5b505050506040513d602081101561351757600080fd5b5051151561352457600080fd5b6040805160e260020a630bf29505028152600160a060020a0383166004820152905173__AOLibrary_____________________________91632fca5414916024808301926020929190829003018186803b15801561358157600080fd5b505af4158015613595573d6000803e3d6000fd5b505050506040513d60208110156135ab57600080fd5b505115156135b857600080fd5b60038054600160a060020a031916600160a060020a0392909216919091179055565b6060600060606000606060006135ee615077565b6135f788610952565b151561360257600080fd5b50600160a060020a03878116600090815260116020908152604080832081516080810183528154861680825260018301548716948201949094526002909101549485168183015260a060020a90940460ff161515606085015280517f06fdde03000000000000000000000000000000000000000000000000000000008152905191926306fdde039260048084019382900301818387803b1580156136a557600080fd5b505af11580156136b9573d6000803e3d6000fd5b505050506040513d6000823e601f3d908101601f1916820160405260208110156136e257600080fd5b8101908080516401000000008111156136fa57600080fd5b8201602081018481111561370d57600080fd5b815164010000000081118282018710171561372757600080fd5b505092919050505081600001518260200151600160a060020a03166306fdde036040518163ffffffff1660e060020a028152600401600060405180830381600087803b15801561377657600080fd5b505af115801561378a573d6000803e3d6000fd5b505050506040513d6000823e601f3d908101601f1916820160405260208110156137b357600080fd5b8101908080516401000000008111156137cb57600080fd5b820160208101848111156137de57600080fd5b81516401000000008111828201871017156137f857600080fd5b505092919050505083602001518460400151600160a060020a03166306fdde036040518163ffffffff1660e060020a028152600401600060405180830381600087803b15801561384757600080fd5b505af115801561385b573d6000803e3d6000fd5b505050506040513d6000823e601f3d908101601f19168201604052602081101561388457600080fd5b81019080805164010000000081111561389c57600080fd5b820160208101848111156138af57600080fd5b81516401000000008111828201871017156138c957600080fd5b505060409890980151969f959e50939c50919a5094985092965090945050505050565b600160a060020a03811660009081526011602052604081206002015460a060020a900460ff1680156109c85750600b546040805160e060020a63029b7d53028152600160a060020a0386811660048301529151919092169163029b7d539160248083019260209291908290030181600087803b15801561396b57600080fd5b505af115801561397f573d6000803e3d6000fd5b505050506040513d602081101561399557600080fd5b5051600160a060020a038381166000908152601160205260409020600101548116911614905092915050565b600b546040805160e060020a63029b7d53028152600160a060020a03858116600483015291516000938493169163029b7d5391602480830192602092919082900301818787803b158015613a1457600080fd5b505af1158015613a28573d6000803e3d6000fd5b505050506040513d6020811015613a3e57600080fd5b50519050600160a060020a0381161515613a5b5760009150612b99565b604080517f473f1e4d000000000000000000000000000000000000000000000000000000008152600160a060020a038381166004830152851660248201529051309163473f1e4d9160448083019260209291908290030181600087803b158015613ac457600080fd5b505af1158015613ad8573d6000803e3d6000fd5b505050506040513d6020811015613aee57600080fd5b50519150612b99565b600354600160a060020a031681565b600b546040805160e060020a63029b7d5302815233600482015290516000928392600160a060020a039091169163029b7d539160248082019260209290919082900301818787803b158015613b5a57600080fd5b505af1158015613b6e573d6000803e3d6000fd5b505050506040513d6020811015613b8457600080fd5b5051600160a060020a03161415613b9a57600080fd5b600c54600b546040805160e060020a63029b7d530281523360048201529051600160a060020a0393841693633ebc2ab393169163029b7d539160248083019260209291908290030181600087803b158015613bf457600080fd5b505af1158015613c08573d6000803e3d6000fd5b505050506040513d6020811015613c1e57600080fd5b50516040805160e060020a63ffffffff8516028152600160a060020a0390921660048301525160248083019260209291908290030181600087803b158015613c6557600080fd5b505af1158015613c79573d6000803e3d6000fd5b505050506040513d6020811015613c8f57600080fd5b505115613c9b57600080fd5b506000818152601260205260409020613cb4823361309c565b60ff166001141515613cc557600080fd5b60028101805474ff0000000000000000000000000000000000000000191660a060020a17908190556001820154613d0891600160a060020a039081169116614bad565b60028101546040518391600160a060020a0316907fa06cbfd9ebd454fc08633c987fb3cca83ac8f69dc24ae471a3c5be82ffff7d1290600090a35050565b6000806000806000808673__AOLibrary_____________________________632fca5414826040518263ffffffff1660e060020a0281526004018082600160a060020a0316600160a060020a0316815260200191505060206040518083038186803b158015613db457600080fd5b505af4158015613dc8573d6000803e3d6000fd5b505050506040513d6020811015613dde57600080fd5b50511515613deb57600080fd5b600b546040805160e060020a63029b7d530281523360048201529051600092600160a060020a03169163029b7d5391602480830192602092919082900301818787803b158015613e3a57600080fd5b505af1158015613e4e573d6000803e3d6000fd5b505050506040513d6020811015613e6457600080fd5b5051600160a060020a03161415613e7a57600080fd5b600c54600b546040805160e060020a63029b7d530281523360048201529051600160a060020a0393841693633ebc2ab393169163029b7d539160248083019260209291908290030181600087803b158015613ed457600080fd5b505af1158015613ee8573d6000803e3d6000fd5b505050506040513d6020811015613efe57600080fd5b50516040805160e060020a63ffffffff8516028152600160a060020a0390921660048301525160248083019260209291908290030181600087803b158015613f4557600080fd5b505af1158015613f59573d6000803e3d6000fd5b505050506040513d6020811015613f6f57600080fd5b505115613f7b57600080fd5b613f8488610952565b1515613f8f57600080fd5b600b546040805160e060020a63029b7d530281523360048201529051600160a060020a039092169163029b7d53916024808201926020929091908290030181600087803b158015613fdf57600080fd5b505af1158015613ff3573d6000803e3d6000fd5b505050506040513d602081101561400957600080fd5b50516040805160e060020a63fd6f4137028152600160a060020a038b1660048201529051919850309163fd6f4137916024808201926020929091908290030181600087803b15801561405a57600080fd5b505af115801561406e573d6000803e3d6000fd5b505050506040513d602081101561408457600080fd5b50519550600160a060020a0387811690871614156140a157600080fd5b6010546040805160e460020a630985e4cd028152600160a060020a0389811660048301529151919092169163985e4cd09160248083019260209291908290030181600087803b1580156140f357600080fd5b505af1158015614107573d6000803e3d6000fd5b505050506040513d602081101561411d57600080fd5b50516010546040805160e460020a630985e4cd028152600160a060020a038b811660048301529151919092169163985e4cd09160248083019260209291908290030181600087803b15801561417157600080fd5b505af1158015614185573d6000803e3d6000fd5b505050506040513d602081101561419b57600080fd5b5051116141a757600080fd5b6141af614d5d565b94509450600a60008154809291906001019190505550308888600a546040516020018085600160a060020a0316600160a060020a03166c0100000000000000000000000002815260140184600160a060020a0316600160a060020a03166c0100000000000000000000000002815260140183600160a060020a0316600160a060020a03166c010000000000000000000000000281526014018281526020019450505050506040516020818303038152906040526040518082805190602001908083835b602083106142915780518252601f199092019160209182019101614272565b6001836020036101000a03801982511681845116808217855250505050505090500191505060405180910390209250601260008460001916600019168152602001908152602001600020915082826000018160001916905550868260010160006101000a815481600160a060020a030219169083600160a060020a03160217905550878260020160006101000a815481600160a060020a030219169083600160a060020a0316021790555042826003018190555061435c85836003015461502890919063ffffffff16565b60048301819055614373908563ffffffff61502816565b600583018190556003830154600484015460408051600160a060020a038b811682528c81166020830152818301949094526060810192909252608082019390935291518592918b16917f981571316fc5090cfcb298ad4ce178e523677e724c0ae1ec87fd70743b2c3f6b919081900360a00190a35050505050505050565b60006143fb615077565b61440483610952565b151561440f57600080fd5b5050600160a060020a03908116600090815260116020908152604091829020825160808101845281548516815260018201548516928101929092526002015492831691810182905260a060020a90920460ff16151560609092019190915290565b6000546001546040805160e260020a633d9abf2b028152336004820152600160a060020a0393841660248201529290911660448301525173__AOLibrary_____________________________9163f66afcac916064808301926020929190829003018186803b1580156144e257600080fd5b505af41580156144f6573d6000803e3d6000fd5b505050506040513d602081101561450c57600080fd5b5051151561451957600080fd5b600160a060020a038116151561452e57600080fd5b60008054600160a060020a031916600160a060020a0392909216919091179055565b6000808573__AOLibrary_____________________________632d706a34826040518263ffffffff1660e060020a0281526004018082600160a060020a0316600160a060020a0316815260200191505060206040518083038186803b1580156145b857600080fd5b505af41580156145cc573d6000803e3d6000fd5b505050506040513d60208110156145e257600080fd5b50518061467457506040805160e260020a630bf29505028152600160a060020a0383166004820152905173__AOLibrary_____________________________91632fca5414916024808301926020929190829003018186803b15801561464757600080fd5b505af415801561465b573d6000803e3d6000fd5b505050506040513d602081101561467157600080fd5b50515b151561467f57600080fd5b8573__AOLibrary_____________________________632d706a34826040518263ffffffff1660e060020a0281526004018082600160a060020a0316600160a060020a0316815260200191505060206040518083038186803b1580156146e457600080fd5b505af41580156146f8573d6000803e3d6000fd5b505050506040513d602081101561470e57600080fd5b5051151561471b57600080fd5b8573__AOLibrary_____________________________632d706a34826040518263ffffffff1660e060020a0281526004018082600160a060020a0316600160a060020a0316815260200191505060206040518083038186803b15801561478057600080fd5b505af4158015614794573d6000803e3d6000fd5b505050506040513d60208110156147aa57600080fd5b50518061483c57506040805160e260020a630bf29505028152600160a060020a0383166004820152905173__AOLibrary_____________________________91632fca5414916024808301926020929190829003018186803b15801561480f57600080fd5b505af4158015614823573d6000803e3d6000fd5b505050506040513d602081101561483957600080fd5b50515b151561484757600080fd5b8573__AOLibrary_____________________________632d706a34826040518263ffffffff1660e060020a0281526004018082600160a060020a0316600160a060020a0316815260200191505060206040518083038186803b1580156148ac57600080fd5b505af41580156148c0573d6000803e3d6000fd5b505050506040513d60208110156148d657600080fd5b50518061496857506040805160e260020a630bf29505028152600160a060020a0383166004820152905173__AOLibrary_____________________________91632fca5414916024808301926020929190829003018186803b15801561493b57600080fd5b505af415801561494f573d6000803e3d6000fd5b505050506040513d602081101561496557600080fd5b50515b151561497357600080fd5b600454600160a060020a03163314806149965750600654600160a060020a031633145b15156149a157600080fd5b6149aa8a610952565b156149b457600080fd5b50505050600160a060020a0395861660009081526011602052604090208054600160a060020a031990811696881696909617815560018082018054881696891696909617909555600201805460a060020a9616939096169290921774ff000000000000000000000000000000000000000019169390931790935592915050565b6000614a3e615077565b614a4783610952565b1515614a5257600080fd5b5050600160a060020a0390811660009081526011602090815260409182902082516080810184528154851680825260018301548616938201939093526002909101549384169281019290925260a060020a90920460ff16151560609091015290565b600654600160a060020a031681565b6000546001546040805160e260020a633d9abf2b028152336004820152600160a060020a0393841660248201529290911660448301525173__AOLibrary_____________________________9163f66afcac916064808301926020929190829003018186803b158015614b3557600080fd5b505af4158015614b49573d6000803e3d6000fd5b505050506040513d6020811015614b5f57600080fd5b50511515614b6c57600080fd5b600160a060020a0381161515614b8157600080fd5b60098054600160a060020a03909216600160a060020a0319928316811790915560108054909216179055565b600160a060020a0380831660008181526011602090815260408083208054878716600160a060020a03198216178255600d54835160e260020a633d5d0f130281526004810197909752925191969081169592169263f5743c4c926024808201939182900301818787803b158015614c2357600080fd5b505af1158015614c37573d6000803e3d6000fd5b505050506040513d6020811015614c4d57600080fd5b5051905060008111614c5e57600080fd5b601054604080517f9579b1a8000000000000000000000000000000000000000000000000000000008152600160a060020a038581166004830152888116602483015291519190921691639579b1a89160448083019260209291908290030181600087803b158015614cce57600080fd5b505af1158015614ce2573d6000803e3d6000fd5b505050506040513d6020811015614cf857600080fd5b50511515614d0557600080fd5b825460408051600160a060020a03858116825292831660208201528082018490529051918716917f7883860d48d58f44441bf70d860a25ba5bb7f97cddbb6f0d85a3e1fe0f7f184e9181900360600190a25050505050565b600e54600354604080517f7065bedc000000000000000000000000000000000000000000000000000000008152600160a060020a03928316600482015260248101829052602060448201527f6368616c6c656e676554414f4164766f636174654c6f636b4475726174696f6e606482015290516000938493849384939190921691637065bedc916084808301928692919082900301818387803b158015614e0357600080fd5b505af1158015614e17573d6000803e3d6000fd5b505050506040513d6000823e601f3d908101601f1916820160405260a0811015614e4057600080fd5b815160208301516040840151606085015160808601805194969395929491939283019291640100000000811115614e7657600080fd5b82016020810184811115614e8957600080fd5b8151640100000000811182820187101715614ea357600080fd5b5050600e54600354604080517f7065bedc000000000000000000000000000000000000000000000000000000008152600160a060020a039283166004820152602480820183905260448201527f6368616c6c656e676554414f4164766f63617465436f6d706c6574654475726160648201527f74696f6e00000000000000000000000000000000000000000000000000000000608482015290519a9c50911698637065bedc985060a48083019850600097509095509085900301925083915084905087803b158015614f7457600080fd5b505af1158015614f88573d6000803e3d6000fd5b505050506040513d6000823e601f3d908101601f1916820160405260a0811015614fb157600080fd5b815160208301516040840151606085015160808601805194969395929491939283019291640100000000811115614fe757600080fd5b82016020810184811115614ffa57600080fd5b815164010000000081118282018710171561501457600080fd5b50999c979b50969950505050505050505050565b8181018281101561503557fe5b92915050565b6040805160e081018252600080825260208201819052918101829052606081018290526080810182905260a0810182905260c081019190915290565b604080516080810182526000808252602082018190529181018290526060810191909152905600a165627a7a72305820a24ef46ced5f93a36d752690839b261345845bb8f0c958a4c0a7da473c5ee7550029",
	"source": "pragma solidity ^0.4.24;\n\nimport './SafeMath.sol';\nimport './AOLibrary.sol';\nimport './TheAO.sol';\nimport './INameTAOPosition.sol';\nimport './INameFactory.sol';\nimport './INameAccountRecovery.sol';\nimport './ITAOFactory.sol';\nimport './ITAOAncestry.sol';\nimport './IAOSetting.sol';\nimport './Logos.sol';\nimport './TAO.sol';\n\n/**\n * @title NameTAOPosition\n */\ncontract NameTAOPosition is TheAO, INameTAOPosition {\n\tusing SafeMath for uint256;\n\n\taddress public settingTAOId;\n\taddress public nameFactoryAddress;\n\taddress public nameAccountRecoveryAddress;\n\taddress public taoFactoryAddress;\n\taddress public aoSettingAddress;\n\taddress public taoAncestryAddress;\n\taddress public logosAddress;\n\n\tuint256 public totalTAOAdvocateChallenges;\n\n\tINameFactory internal _nameFactory;\n\tINameAccountRecovery internal _nameAccountRecovery;\n\tITAOFactory internal _taoFactory;\n\tIAOSetting internal _aoSetting;\n\tITAOAncestry internal _taoAncestry;\n\tLogos internal _logos;\n\n\tstruct PositionDetail {\n\t\taddress advocateId;\n\t\taddress listenerId;\n\t\taddress speakerId;\n\t\tbool created;\n\t}\n\n\tstruct TAOAdvocateChallenge {\n\t\tbytes32 challengeId;\n\t\taddress newAdvocateId;\t\t// The Name ID that wants to be the new Advocate\n\t\taddress taoId;\t\t\t\t// The TAO ID being challenged\n\t\tbool completed;\t\t\t\t// Status of the challenge\n\t\tuint256 createdTimestamp;\t// Timestamp when this challenge is created\n\t\tuint256 lockedUntilTimestamp;\t// The deadline for current Advocate to respond\n\t\tuint256 completeBeforeTimestamp; // The deadline for the challenger to respond and complete the challenge\n\t}\n\n\t// Mapping from Name/TAO ID to its PositionDetail info\n\tmapping (address => PositionDetail) internal positionDetails;\n\n\t// Mapping from challengeId to TAOAdvocateChallenge info\n\tmapping (bytes32 => TAOAdvocateChallenge) internal taoAdvocateChallenges;\n\n\t// Event to be broadcasted to public when current Advocate of TAO sets New Advocate\n\tevent SetAdvocate(address indexed taoId, address oldAdvocateId, address newAdvocateId, uint256 nonce);\n\n\t// Event to be broadcasted to public when current Advocate of Name/TAO sets New Listener\n\tevent SetListener(address indexed taoId, address oldListenerId, address newListenerId, uint256 nonce);\n\n\t// Event to be broadcasted to public when current Advocate of Name/TAO sets New Speaker\n\tevent SetSpeaker(address indexed taoId, address oldSpeakerId, address newSpeakerId, uint256 nonce);\n\n\t// Event to be broadcasted to public when a Name challenges to become TAO's new Advocate\n\tevent ChallengeTAOAdvocate(address indexed taoId, bytes32 indexed challengeId, address currentAdvocateId, address challengerAdvocateId, uint256 createdTimestamp, uint256 lockedUntilTimestamp, uint256 completeBeforeTimestamp);\n\n\t// Event to be broadcasted to public when Challenger completes the TAO Advocate challenge\n\tevent CompleteTAOAdvocateChallenge(address indexed taoId, bytes32 indexed challengeId);\n\n\t/**\n\t * @dev Constructor function\n\t */\n\tconstructor(address _nameFactoryAddress, address _taoFactoryAddress) public {\n\t\tsetNameFactoryAddress(_nameFactoryAddress);\n\t\tsetTAOFactoryAddress(_taoFactoryAddress);\n\n\t\tnameTAOPositionAddress = address(this);\n\t}\n\n\t/**\n\t * @dev Checks if the calling contract address is The AO\n\t *\t\tOR\n\t *\t\tIf The AO is set to a Name/TAO, then check if calling address is the Advocate\n\t */\n\tmodifier onlyTheAO {\n\t\trequire (AOLibrary.isTheAO(msg.sender, theAO, nameTAOPositionAddress));\n\t\t_;\n\t}\n\n\t/**\n\t * @dev Check if calling address is Factory\n\t */\n\tmodifier onlyFactory {\n\t\trequire (msg.sender == nameFactoryAddress || msg.sender == taoFactoryAddress);\n\t\t_;\n\t}\n\n\t/**\n\t * @dev Check if `_taoId` is a TAO\n\t */\n\tmodifier isTAO(address _taoId) {\n\t\trequire (AOLibrary.isTAO(_taoId));\n\t\t_;\n\t}\n\n\t/**\n\t * @dev Check if `_nameId` is a Name\n\t */\n\tmodifier isName(address _nameId) {\n\t\trequire (AOLibrary.isName(_nameId));\n\t\t_;\n\t}\n\n\t/**\n\t * @dev Check if `_id` is a Name or a TAO\n\t */\n\tmodifier isNameOrTAO(address _id) {\n\t\trequire (AOLibrary.isName(_id) || AOLibrary.isTAO(_id));\n\t\t_;\n\t}\n\n\t/**\n\t * @dev Check is msg.sender address is a Name\n\t */\n\t modifier senderIsName() {\n\t\trequire (_nameFactory.ethAddressToNameId(msg.sender) != address(0));\n\t\t_;\n\t }\n\n\t/**\n\t * @dev Check if msg.sender is the current advocate of a Name/TAO ID\n\t */\n\tmodifier onlyAdvocate(address _id) {\n\t\trequire (this.senderIsAdvocate(msg.sender, _id));\n\t\t_;\n\t}\n\n\t/**\n\t * @dev Only allowed if sender's Name is not compromised\n\t */\n\tmodifier senderNameNotCompromised() {\n\t\trequire (!_nameAccountRecovery.isCompromised(_nameFactory.ethAddressToNameId(msg.sender)));\n\t\t_;\n\t}\n\n\t/***** The AO ONLY METHODS *****/\n\t/**\n\t * @dev Transfer ownership of The AO to new address\n\t * @param _theAO The new address to be transferred\n\t */\n\tfunction transferOwnership(address _theAO) public onlyTheAO {\n\t\trequire (_theAO != address(0));\n\t\ttheAO = _theAO;\n\t}\n\n\t/**\n\t * @dev Whitelist `_account` address to transact on behalf of others\n\t * @param _account The address to whitelist\n\t * @param _whitelist Either to whitelist or not\n\t */\n\tfunction setWhitelist(address _account, bool _whitelist) public onlyTheAO {\n\t\trequire (_account != address(0));\n\t\twhitelist[_account] = _whitelist;\n\t}\n\n\t/**\n\t * @dev The AO set the NameFactory Address\n\t * @param _nameFactoryAddress The address of NameFactory\n\t */\n\tfunction setNameFactoryAddress(address _nameFactoryAddress) public onlyTheAO {\n\t\trequire (_nameFactoryAddress != address(0));\n\t\tnameFactoryAddress = _nameFactoryAddress;\n\t\t_nameFactory = INameFactory(_nameFactoryAddress);\n\t}\n\n\t/**\n\t * @dev The AO set the NameAccountRecovery Address\n\t * @param _nameAccountRecoveryAddress The address of NameAccountRecovery\n\t */\n\tfunction setNameAccountRecoveryAddress(address _nameAccountRecoveryAddress) public onlyTheAO {\n\t\trequire (_nameAccountRecoveryAddress != address(0));\n\t\tnameAccountRecoveryAddress = _nameAccountRecoveryAddress;\n\t\t_nameAccountRecovery = INameAccountRecovery(nameAccountRecoveryAddress);\n\t}\n\n\t/**\n\t * @dev The AO set the TAOFactory Address\n\t * @param _taoFactoryAddress The address of TAOFactory\n\t */\n\tfunction setTAOFactoryAddress(address _taoFactoryAddress) public onlyTheAO {\n\t\trequire (_taoFactoryAddress != address(0));\n\t\ttaoFactoryAddress = _taoFactoryAddress;\n\t\t_taoFactory = ITAOFactory(_taoFactoryAddress);\n\t}\n\n\t/**\n\t * @dev The AO sets setting TAO ID\n\t * @param _settingTAOId The new setting TAO ID to set\n\t */\n\tfunction setSettingTAOId(address _settingTAOId) public onlyTheAO {\n\t\trequire (AOLibrary.isTAO(_settingTAOId));\n\t\tsettingTAOId = _settingTAOId;\n\t}\n\n\t/**\n\t * @dev The AO sets AO Setting address\n\t * @param _aoSettingAddress The address of AOSetting\n\t */\n\tfunction setAOSettingAddress(address _aoSettingAddress) public onlyTheAO {\n\t\trequire (_aoSettingAddress != address(0));\n\t\taoSettingAddress = _aoSettingAddress;\n\t\t_aoSetting = IAOSetting(_aoSettingAddress);\n\t}\n\n\t/**\n\t * @dev The AO set the TAOAncestry Address\n\t * @param _taoAncestryAddress The address of TAOAncestry\n\t */\n\tfunction setTAOAncestryAddress(address _taoAncestryAddress) public onlyTheAO {\n\t\trequire (_taoAncestryAddress != address(0));\n\t\ttaoAncestryAddress = _taoAncestryAddress;\n\t\t_taoAncestry = ITAOAncestry(taoAncestryAddress);\n\t}\n\n\t/**\n\t * @dev The AO set the logosAddress Address\n\t * @param _logosAddress The address of Logos\n\t */\n\tfunction setLogosAddress(address _logosAddress) public onlyTheAO {\n\t\trequire (_logosAddress != address(0));\n\t\tlogosAddress = _logosAddress;\n\t\t_logos = Logos(_logosAddress);\n\t}\n\n\t/***** PUBLIC METHODS *****/\n\t/**\n\t * @dev Check whether or not a Name/TAO ID exist in the list\n\t * @param _id The ID to be checked\n\t * @return true if yes, false otherwise\n\t */\n\tfunction isExist(address _id) public view returns (bool) {\n\t\treturn positionDetails[_id].created;\n\t}\n\n\t/**\n\t * @dev Check whether or not `_sender` eth address is Advocate of _id\n\t * @param _sender The eth address to check\n\t * @param _id The ID to be checked\n\t * @return true if yes, false otherwise\n\t */\n\tfunction senderIsAdvocate(address _sender, address _id) external view returns (bool) {\n\t\treturn (positionDetails[_id].created && positionDetails[_id].advocateId == _nameFactory.ethAddressToNameId(_sender));\n\t}\n\n\t/**\n\t * @dev Check whether or not `_sender` eth address is Listener of _id\n\t * @param _sender The eth address to check\n\t * @param _id The ID to be checked\n\t * @return true if yes, false otherwise\n\t */\n\tfunction senderIsListener(address _sender, address _id) external view returns (bool) {\n\t\treturn (positionDetails[_id].created && positionDetails[_id].listenerId == _nameFactory.ethAddressToNameId(_sender));\n\t}\n\n\t/**\n\t * @dev Check whether or not `_sender` eth address is Speaker of _id\n\t * @param _sender The eth address to check\n\t * @param _id The ID to be checked\n\t * @return true if yes, false otherwise\n\t */\n\tfunction senderIsSpeaker(address _sender, address _id) external view returns (bool) {\n\t\treturn (positionDetails[_id].created && positionDetails[_id].speakerId == _nameFactory.ethAddressToNameId(_sender));\n\t}\n\n\t/**\n\t * @dev Check whether or not `_sender` eth address is Advocate of Parent of _id\n\t * @param _sender The eth address to check\n\t * @param _id The ID to be checked\n\t * @return true if yes, false otherwise\n\t */\n\tfunction senderIsAdvocateOfParent(address _sender, address _id) public view returns (bool) {\n\t\t(address _parentId,,) = _taoAncestry.getAncestryById(_id);\n\t\t return ((AOLibrary.isName(_parentId) || (AOLibrary.isTAO(_parentId) && _taoAncestry.isChild(_parentId, _id))) && this.senderIsAdvocate(_sender, _parentId));\n\t}\n\n\t/**\n\t * @dev Check whether or not eth address is either Advocate/Listener/Speaker of _id\n\t * @param _sender The eth address to check\n\t * @param _id The ID to be checked\n\t * @return true if yes, false otherwise\n\t */\n\tfunction senderIsPosition(address _sender, address _id) external view returns (bool) {\n\t\taddress _nameId = _nameFactory.ethAddressToNameId(_sender);\n\t\tif (_nameId == address(0)) {\n\t\t\treturn false;\n\t\t} else {\n\t\t\treturn this.nameIsPosition(_nameId, _id);\n\t\t}\n\t}\n\n\t/**\n\t * @dev Check whether or not _nameId is advocate of _id\n\t * @param _nameId The name ID to be checked\n\t * @param _id The ID to be checked\n\t * @return true if yes, false otherwise\n\t */\n\tfunction nameIsAdvocate(address _nameId, address _id) external view returns (bool) {\n\t\treturn (positionDetails[_id].created && positionDetails[_id].advocateId == _nameId);\n\t}\n\n\t/**\n\t * @dev Check whether or not _nameId is either Advocate/Listener/Speaker of _id\n\t * @param _nameId The name ID to be checked\n\t * @param _id The ID to be checked\n\t * @return true if yes, false otherwise\n\t */\n\tfunction nameIsPosition(address _nameId, address _id) external view returns (bool) {\n\t\treturn (positionDetails[_id].created &&\n\t\t\t(positionDetails[_id].advocateId == _nameId ||\n\t\t\t positionDetails[_id].listenerId == _nameId ||\n\t\t\t positionDetails[_id].speakerId == _nameId\n\t\t\t)\n\t   );\n\t}\n\n\t/**\n\t * @dev Determine whether or not `_sender` is Advocate/Listener/Speaker of the Name/TAO\n\t * @param _sender The ETH address that to check\n\t * @param _id The ID of the Name/TAO\n\t * @return 1 if Advocate. 2 if Listener. 3 if Speaker\n\t */\n\tfunction determinePosition(address _sender, address _id) external view returns (uint256) {\n\t\trequire (this.senderIsPosition(_sender, _id));\n\t\tPositionDetail memory _positionDetail = positionDetails[_id];\n\t\taddress _nameId = _nameFactory.ethAddressToNameId(_sender);\n\t\tif (_nameId == _positionDetail.advocateId) {\n\t\t\treturn 1;\n\t\t} else if (_nameId == _positionDetail.listenerId) {\n\t\t\treturn 2;\n\t\t} else {\n\t\t\treturn 3;\n\t\t}\n\t}\n\n\t/**\n\t * @dev Initialize Position for a Name/TAO\n\t * @param _id The ID of the Name/TAO\n\t * @param _advocateId The Advocate ID of the Name/TAO\n\t * @param _listenerId The Listener ID of the Name/TAO\n\t * @param _speakerId The Speaker ID of the Name/TAO\n\t * @return true on success\n\t */\n\tfunction initialize(address _id, address _advocateId, address _listenerId, address _speakerId)\n\t\texternal\n\t\tisNameOrTAO(_id)\n\t\tisName(_advocateId)\n\t\tisNameOrTAO(_listenerId)\n\t\tisNameOrTAO(_speakerId)\n\t\tonlyFactory returns (bool) {\n\t\trequire (!isExist(_id));\n\n\t\tPositionDetail storage _positionDetail = positionDetails[_id];\n\t\t_positionDetail.advocateId = _advocateId;\n\t\t_positionDetail.listenerId = _listenerId;\n\t\t_positionDetail.speakerId = _speakerId;\n\t\t_positionDetail.created = true;\n\t\treturn true;\n\t}\n\n\t/**\n\t * @dev Get Name/TAO's Position info\n\t * @param _id The ID of the Name/TAO\n\t * @return the Advocate name\n\t * @return the Advocate ID of Name/TAO\n\t * @return the Listener name\n\t * @return the Listener ID of Name/TAO\n\t * @return the Speaker name\n\t * @return the Speaker ID of Name/TAO\n\t */\n\tfunction getPositionById(address _id) public view returns (string, address, string, address, string, address) {\n\t\trequire (isExist(_id));\n\t\tPositionDetail memory _positionDetail = positionDetails[_id];\n\t\treturn (\n\t\t\tTAO(_positionDetail.advocateId).name(),\n\t\t\t_positionDetail.advocateId,\n\t\t\tTAO(_positionDetail.listenerId).name(),\n\t\t\t_positionDetail.listenerId,\n\t\t\tTAO(_positionDetail.speakerId).name(),\n\t\t\t_positionDetail.speakerId\n\t\t);\n\t}\n\n\t/**\n\t * @dev Get Name/TAO's Advocate\n\t * @param _id The ID of the Name/TAO\n\t * @return the Advocate ID of Name/TAO\n\t */\n\tfunction getAdvocate(address _id) external view returns (address) {\n\t\trequire (isExist(_id));\n\t\tPositionDetail memory _positionDetail = positionDetails[_id];\n\t\treturn _positionDetail.advocateId;\n\t}\n\n\t/**\n\t * @dev Get Name/TAO's Listener\n\t * @param _id The ID of the Name/TAO\n\t * @return the Listener ID of Name/TAO\n\t */\n\tfunction getListener(address _id) public view returns (address) {\n\t\trequire (isExist(_id));\n\t\tPositionDetail memory _positionDetail = positionDetails[_id];\n\t\treturn _positionDetail.listenerId;\n\t}\n\n\t/**\n\t * @dev Get Name/TAO's Speaker\n\t * @param _id The ID of the Name/TAO\n\t * @return the Speaker ID of Name/TAO\n\t */\n\tfunction getSpeaker(address _id) public view returns (address) {\n\t\trequire (isExist(_id));\n\t\tPositionDetail memory _positionDetail = positionDetails[_id];\n\t\treturn _positionDetail.speakerId;\n\t}\n\n\t/**\n\t * @dev Set Advocate for a TAO\n\t * @param _taoId The ID of the TAO\n\t * @param _newAdvocateId The new advocate ID to be set\n\t */\n\tfunction setAdvocate(address _taoId, address _newAdvocateId)\n\t\tpublic\n\t\tisTAO(_taoId)\n\t\tisName(_newAdvocateId)\n\t\tonlyAdvocate(_taoId)\n\t\tsenderIsName\n\t\tsenderNameNotCompromised {\n\t\trequire (isExist(_taoId));\n\t\t// Make sure the newAdvocate is not compromised\n\t\trequire (!_nameAccountRecovery.isCompromised(_newAdvocateId));\n\t\t_setAdvocate(_taoId, _newAdvocateId);\n\t}\n\n\t/**\n\t * Only Advocate of Parent of `_taoId` can replace child `_taoId` 's Advocate with himself\n\t * @param _taoId The ID of the TAO\n\t */\n\tfunction parentReplaceChildAdvocate(address _taoId)\n\t\tpublic\n\t\tisTAO(_taoId)\n\t\tsenderIsName\n\t\tsenderNameNotCompromised {\n\t\trequire (isExist(_taoId));\n\t\trequire (senderIsAdvocateOfParent(msg.sender, _taoId));\n\t\taddress _parentNameId = _nameFactory.ethAddressToNameId(msg.sender);\n\t\taddress _currentAdvocateId = this.getAdvocate(_taoId);\n\n\t\t// Make sure it's not replacing itself\n\t\trequire (_parentNameId != _currentAdvocateId);\n\n\t\t// Parent has to have more Logos than current Advocate\n\t\trequire (_logos.sumBalanceOf(_parentNameId) > _logos.sumBalanceOf(this.getAdvocate(_taoId)));\n\n\t\t_setAdvocate(_taoId, _parentNameId);\n\t}\n\n\t/**\n\t * A Name challenges current TAO's Advocate to be its new Advocate\n\t * @param _taoId The ID of the TAO\n\t */\n\tfunction challengeTAOAdvocate(address _taoId)\n\t\tpublic\n\t\tisTAO(_taoId)\n\t\tsenderIsName\n\t\tsenderNameNotCompromised {\n\t\trequire (isExist(_taoId));\n\t\taddress _newAdvocateId = _nameFactory.ethAddressToNameId(msg.sender);\n\t\taddress _currentAdvocateId = this.getAdvocate(_taoId);\n\n\t\t// Make sure it's not challenging itself\n\t\trequire (_newAdvocateId != _currentAdvocateId);\n\n\t\t// New Advocate has to have more Logos than current Advocate\n\t\trequire (_logos.sumBalanceOf(_newAdvocateId) > _logos.sumBalanceOf(_currentAdvocateId));\n\n\t\t(uint256 _lockDuration, uint256 _completeDuration) = _getSettingVariables();\n\n\t\ttotalTAOAdvocateChallenges++;\n\t\tbytes32 _challengeId = keccak256(abi.encodePacked(this, _taoId, _newAdvocateId, totalTAOAdvocateChallenges));\n\t\tTAOAdvocateChallenge storage _taoAdvocateChallenge = taoAdvocateChallenges[_challengeId];\n\t\t_taoAdvocateChallenge.challengeId = _challengeId;\n\t\t_taoAdvocateChallenge.newAdvocateId = _newAdvocateId;\n\t\t_taoAdvocateChallenge.taoId = _taoId;\n\t\t_taoAdvocateChallenge.createdTimestamp = now;\n\t\t_taoAdvocateChallenge.lockedUntilTimestamp = _taoAdvocateChallenge.createdTimestamp.add(_lockDuration);\n\t\t_taoAdvocateChallenge.completeBeforeTimestamp = _taoAdvocateChallenge.lockedUntilTimestamp.add(_completeDuration);\n\n\t\temit ChallengeTAOAdvocate(_taoId, _challengeId, _currentAdvocateId, _newAdvocateId, _taoAdvocateChallenge.createdTimestamp, _taoAdvocateChallenge.lockedUntilTimestamp, _taoAdvocateChallenge.completeBeforeTimestamp);\n\t}\n\n\t/**\n\t * Get status of a TAOAdvocateChallenge given a `_challengeId` and a `_sender` eth address\n\t * @param _challengeId The ID of TAOAdvocateChallenge\n\t * @param _sender The sender address\n\t * @return status of the challenge\n\t *\t\t1 = Can complete challenge\n\t *\t\t2 = Challenge not exist\n\t *\t\t3 = Sender is not the creator of the challenge\n\t *\t\t4 = Transaction is not in the allowed period of time\n\t *\t\t5 = Challenge has been completed\n\t *\t\t6 = Challenger has less Logos than current Advocate of TAO\n\t */\n\tfunction getChallengeStatus(bytes32 _challengeId, address _sender) public view returns (uint8) {\n\t\taddress _challengerNameId = _nameFactory.ethAddressToNameId(_sender);\n\t\tTAOAdvocateChallenge storage _taoAdvocateChallenge = taoAdvocateChallenges[_challengeId];\n\n\t\t// If the challenge does not exist\n\t\tif (_taoAdvocateChallenge.taoId == address(0)) {\n\t\t\treturn 2;\n\t\t} else if (_challengerNameId != _taoAdvocateChallenge.newAdvocateId) {\n\t\t\t// If the calling address is not the creator of the challenge\n\t\t\treturn 3;\n\t\t} else if (now < _taoAdvocateChallenge.lockedUntilTimestamp || now > _taoAdvocateChallenge.completeBeforeTimestamp) {\n\t\t\t// If this transaction is not in the allowed period of time\n\t\t\treturn 4;\n\t\t} else if (_taoAdvocateChallenge.completed) {\n\t\t\t// If the challenge has been completed\n\t\t\treturn 5;\n\t\t} else if (_logos.sumBalanceOf(_challengerNameId) <= _logos.sumBalanceOf(this.getAdvocate(_taoAdvocateChallenge.taoId))) {\n\t\t\t// If challenger has less Logos than current Advocate of TAO\n\t\t\treturn 6;\n\t\t} else {\n\t\t\t// Can complete!\n\t\t\treturn 1;\n\t\t}\n\t}\n\n\t/**\n\t * Only owner of challenge can respond and complete of the challenge\n\t * @param _challengeId The ID of the TAOAdvocateChallenge\n\t */\n\tfunction completeTAOAdvocateChallenge(bytes32 _challengeId)\n\t\tpublic\n\t\tsenderIsName\n\t\tsenderNameNotCompromised {\n\t\tTAOAdvocateChallenge storage _taoAdvocateChallenge = taoAdvocateChallenges[_challengeId];\n\n\t\t// Make sure the challenger can complete this challenge\n\t\trequire (getChallengeStatus(_challengeId, msg.sender) == 1);\n\n\t\t_taoAdvocateChallenge.completed = true;\n\n\t\t_setAdvocate(_taoAdvocateChallenge.taoId, _taoAdvocateChallenge.newAdvocateId);\n\n\t\temit CompleteTAOAdvocateChallenge(_taoAdvocateChallenge.taoId, _challengeId);\n\t}\n\n\t/**\n\t * @dev Get TAOAdvocateChallenge info given an ID\n\t * @param _challengeId The ID of TAOAdvocateChallenge\n\t * @return the new Advocate ID in the challenge\n\t * @return the ID of Name/TAO\n\t * @return the completion status of the challenge\n\t * @return the created timestamp\n\t * @return the lockedUntil timestamp (The deadline for current Advocate to respond)\n\t * @return the completeBefore timestamp (The deadline for the challenger to respond and complete the challenge)\n\t */\n\tfunction getTAOAdvocateChallengeById(bytes32 _challengeId) public view returns (address, address, bool, uint256, uint256, uint256) {\n\t\tTAOAdvocateChallenge memory _taoAdvocateChallenge = taoAdvocateChallenges[_challengeId];\n\t\trequire (_taoAdvocateChallenge.taoId != address(0));\n\t\treturn (\n\t\t\t_taoAdvocateChallenge.newAdvocateId,\n\t\t\t_taoAdvocateChallenge.taoId,\n\t\t\t_taoAdvocateChallenge.completed,\n\t\t\t_taoAdvocateChallenge.createdTimestamp,\n\t\t\t_taoAdvocateChallenge.lockedUntilTimestamp,\n\t\t\t_taoAdvocateChallenge.completeBeforeTimestamp\n\t\t);\n\t}\n\n\t/**\n\t * @dev Set Listener for a Name/TAO\n\t * @param _id The ID of the Name/TAO\n\t * @param _newListenerId The new listener ID to be set\n\t */\n\tfunction setListener(address _id, address _newListenerId)\n\t\tpublic\n\t\tisNameOrTAO(_id)\n\t\tisNameOrTAO(_newListenerId)\n\t\tsenderIsName\n\t\tsenderNameNotCompromised\n\t\tonlyAdvocate(_id) {\n\t\trequire (isExist(_id));\n\n\t\t// If _id is a Name, then new Listener can only be a Name\n\t\t// If _id is a TAO, then new Listener can be a TAO/Name\n\t\tbool _isName = false;\n\t\tif (AOLibrary.isName(_id)) {\n\t\t\t_isName = true;\n\t\t\trequire (AOLibrary.isName(_newListenerId));\n\t\t\trequire (!_nameAccountRecovery.isCompromised(_id));\n\t\t\trequire (!_nameAccountRecovery.isCompromised(_newListenerId));\n\t\t}\n\n\t\tPositionDetail storage _positionDetail = positionDetails[_id];\n\t\taddress _currentListenerId = _positionDetail.listenerId;\n\t\t_positionDetail.listenerId = _newListenerId;\n\n\t\tif (_isName) {\n\t\t\tuint256 _nonce = _nameFactory.incrementNonce(_id);\n\t\t} else {\n\t\t\t_nonce = _taoFactory.incrementNonce(_id);\n\t\t}\n\t\temit SetListener(_id, _currentListenerId, _positionDetail.listenerId, _nonce);\n\t}\n\n\t/**\n\t * @dev Set Speaker for a Name/TAO\n\t * @param _id The ID of the Name/TAO\n\t * @param _newSpeakerId The new speaker ID to be set\n\t */\n\tfunction setSpeaker(address _id, address _newSpeakerId)\n\t\tpublic\n\t\tisNameOrTAO(_id)\n\t\tisNameOrTAO(_newSpeakerId)\n\t\tsenderIsName\n\t\tsenderNameNotCompromised\n\t\tonlyAdvocate(_id) {\n\t\trequire (isExist(_id));\n\n\t\t// If _id is a Name, then new Speaker can only be a Name\n\t\t// If _id is a TAO, then new Speaker can be a TAO/Name\n\t\tbool _isName = false;\n\t\tif (AOLibrary.isName(_id)) {\n\t\t\t_isName = true;\n\t\t\trequire (AOLibrary.isName(_newSpeakerId));\n\t\t\trequire (!_nameAccountRecovery.isCompromised(_id));\n\t\t\trequire (!_nameAccountRecovery.isCompromised(_newSpeakerId));\n\t\t}\n\n\t\tPositionDetail storage _positionDetail = positionDetails[_id];\n\t\taddress _currentSpeakerId = _positionDetail.speakerId;\n\t\t_positionDetail.speakerId = _newSpeakerId;\n\n\t\tif (_isName) {\n\t\t\tuint256 _nonce = _nameFactory.incrementNonce(_id);\n\t\t} else {\n\t\t\t_nonce = _taoFactory.incrementNonce(_id);\n\t\t}\n\t\temit SetSpeaker(_id, _currentSpeakerId, _positionDetail.speakerId, _nonce);\n\t}\n\n\t/***** INTERNAL METHOD *****/\n\t/**\n\t * @dev Actually setting Advocate for a TAO\n\t * @param _taoId The ID of the TAO\n\t * @param _newAdvocateId The new advocate ID to be set\n\t */\n\tfunction _setAdvocate(address _taoId, address _newAdvocateId) internal {\n\t\tPositionDetail storage _positionDetail = positionDetails[_taoId];\n\t\taddress _currentAdvocateId = _positionDetail.advocateId;\n\t\t_positionDetail.advocateId = _newAdvocateId;\n\n\t\tuint256 _nonce = _taoFactory.incrementNonce(_taoId);\n\t\trequire (_nonce > 0);\n\n\t\t// Transfer Advocated TAO Logos to the new Advocate\n\t\trequire (_logos.transferAdvocatedTAOLogos(_currentAdvocateId, _taoId));\n\n\t\temit SetAdvocate(_taoId, _currentAdvocateId, _positionDetail.advocateId, _nonce);\n\t}\n\n\t/**\n\t * @dev Get setting variables\n\t * @return challengeTAOAdvocateLockDuration = The amount of time for current Advocate to respond to TAO Advocate challenge from another Name\n\t * @return challengeTAOAdvocateCompleteDuration = The amount of time for challenger Advocate to respond and complete the challenge after the lock period ends\n\t */\n\tfunction _getSettingVariables() internal view returns (uint256, uint256) {\n\t\t(uint256 challengeTAOAdvocateLockDuration,,,,) = _aoSetting.getSettingValuesByTAOName(settingTAOId, 'challengeTAOAdvocateLockDuration');\n\t\t(uint256 challengeTAOAdvocateCompleteDuration,,,,) = _aoSetting.getSettingValuesByTAOName(settingTAOId, 'challengeTAOAdvocateCompleteDuration');\n\n\t\treturn (\n\t\t\tchallengeTAOAdvocateLockDuration,\n\t\t\tchallengeTAOAdvocateCompleteDuration\n\t\t);\n\t}\n}\n",
	"sourcePath": "/Users/johanmulyono/Work/AO/ao-contracts/contracts/NameTAOPosition.sol",
	"compiler": {
		"name": "solc",
		"version": "0.4.24+commit.e67f0147.Emscripten.clang"
	},
	"schemaVersion": "2.0.1",
	"updatedAt": "2019-04-04T04:29:46.811Z"
}