{
	"contractName": "NamePublicKey",
	"abi": [
		{
			"constant": true,
			"inputs": [],
			"name": "nameTAOPositionAddress",
			"outputs": [
				{
					"name": "",
					"type": "address"
				}
			],
			"payable": false,
			"stateMutability": "view",
			"type": "function"
		},
		{
			"constant": true,
			"inputs": [
				{
					"name": "",
					"type": "address"
				}
			],
			"name": "whitelist",
			"outputs": [
				{
					"name": "",
					"type": "bool"
				}
			],
			"payable": false,
			"stateMutability": "view",
			"type": "function"
		},
		{
			"constant": true,
			"inputs": [],
			"name": "nameAccountRecoveryAddress",
			"outputs": [
				{
					"name": "",
					"type": "address"
				}
			],
			"payable": false,
			"stateMutability": "view",
			"type": "function"
		},
		{
			"constant": true,
			"inputs": [],
			"name": "theAO",
			"outputs": [
				{
					"name": "",
					"type": "address"
				}
			],
			"payable": false,
			"stateMutability": "view",
			"type": "function"
		},
		{
			"constant": true,
			"inputs": [],
			"name": "nameFactoryAddress",
			"outputs": [
				{
					"name": "",
					"type": "address"
				}
			],
			"payable": false,
			"stateMutability": "view",
			"type": "function"
		},
		{
			"inputs": [
				{
					"name": "_nameFactoryAddress",
					"type": "address"
				},
				{
					"name": "_nameTAOPositionAddress",
					"type": "address"
				}
			],
			"payable": false,
			"stateMutability": "nonpayable",
			"type": "constructor"
		},
		{
			"anonymous": false,
			"inputs": [
				{
					"indexed": true,
					"name": "nameId",
					"type": "address"
				},
				{
					"indexed": false,
					"name": "publicKey",
					"type": "address"
				},
				{
					"indexed": false,
					"name": "nonce",
					"type": "uint256"
				}
			],
			"name": "AddKey",
			"type": "event"
		},
		{
			"anonymous": false,
			"inputs": [
				{
					"indexed": true,
					"name": "nameId",
					"type": "address"
				},
				{
					"indexed": false,
					"name": "publicKey",
					"type": "address"
				},
				{
					"indexed": false,
					"name": "nonce",
					"type": "uint256"
				}
			],
			"name": "RemoveKey",
			"type": "event"
		},
		{
			"anonymous": false,
			"inputs": [
				{
					"indexed": true,
					"name": "nameId",
					"type": "address"
				},
				{
					"indexed": false,
					"name": "publicKey",
					"type": "address"
				},
				{
					"indexed": false,
					"name": "nonce",
					"type": "uint256"
				}
			],
			"name": "SetDefaultKey",
			"type": "event"
		},
		{
			"constant": false,
			"inputs": [
				{
					"name": "_theAO",
					"type": "address"
				}
			],
			"name": "transferOwnership",
			"outputs": [],
			"payable": false,
			"stateMutability": "nonpayable",
			"type": "function"
		},
		{
			"constant": false,
			"inputs": [
				{
					"name": "_account",
					"type": "address"
				},
				{
					"name": "_whitelist",
					"type": "bool"
				}
			],
			"name": "setWhitelist",
			"outputs": [],
			"payable": false,
			"stateMutability": "nonpayable",
			"type": "function"
		},
		{
			"constant": false,
			"inputs": [
				{
					"name": "_nameFactoryAddress",
					"type": "address"
				}
			],
			"name": "setNameFactoryAddress",
			"outputs": [],
			"payable": false,
			"stateMutability": "nonpayable",
			"type": "function"
		},
		{
			"constant": false,
			"inputs": [
				{
					"name": "_nameTAOPositionAddress",
					"type": "address"
				}
			],
			"name": "setNameTAOPositionAddress",
			"outputs": [],
			"payable": false,
			"stateMutability": "nonpayable",
			"type": "function"
		},
		{
			"constant": false,
			"inputs": [
				{
					"name": "_nameAccountRecoveryAddress",
					"type": "address"
				}
			],
			"name": "setNameAccountRecoveryAddress",
			"outputs": [],
			"payable": false,
			"stateMutability": "nonpayable",
			"type": "function"
		},
		{
			"constant": false,
			"inputs": [
				{
					"name": "_id",
					"type": "address"
				},
				{
					"name": "_key",
					"type": "address"
				}
			],
			"name": "whitelistAddKey",
			"outputs": [
				{
					"name": "",
					"type": "bool"
				}
			],
			"payable": false,
			"stateMutability": "nonpayable",
			"type": "function"
		},
		{
			"constant": true,
			"inputs": [
				{
					"name": "_id",
					"type": "address"
				}
			],
			"name": "isExist",
			"outputs": [
				{
					"name": "",
					"type": "bool"
				}
			],
			"payable": false,
			"stateMutability": "view",
			"type": "function"
		},
		{
			"constant": false,
			"inputs": [
				{
					"name": "_id",
					"type": "address"
				},
				{
					"name": "_defaultKey",
					"type": "address"
				}
			],
			"name": "initialize",
			"outputs": [
				{
					"name": "",
					"type": "bool"
				}
			],
			"payable": false,
			"stateMutability": "nonpayable",
			"type": "function"
		},
		{
			"constant": true,
			"inputs": [
				{
					"name": "_id",
					"type": "address"
				}
			],
			"name": "getTotalPublicKeysCount",
			"outputs": [
				{
					"name": "",
					"type": "uint256"
				}
			],
			"payable": false,
			"stateMutability": "view",
			"type": "function"
		},
		{
			"constant": true,
			"inputs": [
				{
					"name": "_id",
					"type": "address"
				},
				{
					"name": "_key",
					"type": "address"
				}
			],
			"name": "isKeyExist",
			"outputs": [
				{
					"name": "",
					"type": "bool"
				}
			],
			"payable": false,
			"stateMutability": "view",
			"type": "function"
		},
		{
			"constant": false,
			"inputs": [
				{
					"name": "_id",
					"type": "address"
				},
				{
					"name": "_key",
					"type": "address"
				}
			],
			"name": "addKey",
			"outputs": [],
			"payable": false,
			"stateMutability": "nonpayable",
			"type": "function"
		},
		{
			"constant": true,
			"inputs": [
				{
					"name": "_id",
					"type": "address"
				}
			],
			"name": "getDefaultKey",
			"outputs": [
				{
					"name": "",
					"type": "address"
				}
			],
			"payable": false,
			"stateMutability": "view",
			"type": "function"
		},
		{
			"constant": true,
			"inputs": [
				{
					"name": "_id",
					"type": "address"
				},
				{
					"name": "_from",
					"type": "uint256"
				},
				{
					"name": "_to",
					"type": "uint256"
				}
			],
			"name": "getKeys",
			"outputs": [
				{
					"name": "",
					"type": "address[]"
				}
			],
			"payable": false,
			"stateMutability": "view",
			"type": "function"
		},
		{
			"constant": false,
			"inputs": [
				{
					"name": "_id",
					"type": "address"
				},
				{
					"name": "_key",
					"type": "address"
				}
			],
			"name": "removeKey",
			"outputs": [],
			"payable": false,
			"stateMutability": "nonpayable",
			"type": "function"
		},
		{
			"constant": false,
			"inputs": [
				{
					"name": "_id",
					"type": "address"
				},
				{
					"name": "_defaultKey",
					"type": "address"
				},
				{
					"name": "_signatureV",
					"type": "uint8"
				},
				{
					"name": "_signatureR",
					"type": "bytes32"
				},
				{
					"name": "_signatureS",
					"type": "bytes32"
				}
			],
			"name": "setDefaultKey",
			"outputs": [],
			"payable": false,
			"stateMutability": "nonpayable",
			"type": "function"
		}
	],
	"bytecode": "0x60806040523480156200001157600080fd5b506040516040806200233083398101604052805160209091015160008054600160a060020a0319163317905562000051826401000000006200006d810204565b620000658164010000000062000172810204565b505062000277565b600054600154604080517ff66afcac000000000000000000000000000000000000000000000000000000008152336004820152600160a060020a0393841660248201529290911660448301525173__AOLibrary_____________________________9163f66afcac916064808301926020929190829003018186803b158015620000f657600080fd5b505af41580156200010b573d6000803e3d6000fd5b505050506040513d60208110156200012257600080fd5b505115156200013057600080fd5b600160a060020a03811615156200014657600080fd5b60038054600160a060020a03909216600160a060020a0319928316811790915560058054909216179055565b600054600154604080517ff66afcac000000000000000000000000000000000000000000000000000000008152336004820152600160a060020a0393841660248201529290911660448301525173__AOLibrary_____________________________9163f66afcac916064808301926020929190829003018186803b158015620001fb57600080fd5b505af415801562000210573d6000803e3d6000fd5b505050506040513d60208110156200022757600080fd5b505115156200023557600080fd5b600160a060020a03811615156200024b57600080fd5b60018054600160a060020a03909216600160a060020a0319928316811790915560068054909216179055565b6120a980620002876000396000f3006080604052600436106100f75763ffffffff60e060020a60003504166213eb4b81146100fc578063181a916b146101315780631dfde2bd146101a8578063485cc955146101cb5780634ef033f0146101f257806353d6fd59146102235780635cfaf2ef14610249578063722e16771461026a5780638ab3e33f1461029d5780638c924361146102c45780639b19251a146102e5578063a481247c14610306578063a4e5fad21461032d578063a9b6b38e14610342578063bc40620614610357578063c59c11441461036c578063db536d2f1461039f578063ea6dee80146103c0578063f0f2fd04146103e7578063f2fde38b1461040e575b600080fd5b34801561010857600080fd5b5061011d600160a060020a036004351661042f565b604080519115158252519081900360200190f35b34801561013d57600080fd5b50610158600160a060020a036004351660243560443561044d565b60408051602080825283518183015283519192839290830191858101910280838360005b8381101561019457818101518382015260200161017c565b505050509050019250505060405180910390f35b3480156101b457600080fd5b506101c9600160a060020a03600435166106c8565b005b3480156101d757600080fd5b5061011d600160a060020a03600435811690602435166107b5565b3480156101fe57600080fd5b50610207610908565b60408051600160a060020a039092168252519081900360200190f35b34801561022f57600080fd5b506101c9600160a060020a03600435166024351515610917565b34801561025557600080fd5b506101c9600160a060020a0360043516610a00565b34801561027657600080fd5b5061028b600160a060020a0360043516610aea565b60408051918252519081900360200190f35b3480156102a957600080fd5b506101c9600160a060020a0360043581169060243516610bbc565b3480156102d057600080fd5b506101c9600160a060020a036004351661109b565b3480156102f157600080fd5b5061011d600160a060020a0360043516611185565b34801561031257600080fd5b5061011d600160a060020a036004358116906024351661119a565b34801561033957600080fd5b5061020761136c565b34801561034e57600080fd5b5061020761137b565b34801561036357600080fd5b5061020761138a565b34801561037857600080fd5b506101c9600160a060020a036004358116906024351660ff60443516606435608435611399565b3480156103ab57600080fd5b50610207600160a060020a0360043516611920565b3480156103cc57600080fd5b506101c9600160a060020a03600435811690602435166119f7565b3480156103f357600080fd5b5061011d600160a060020a0360043581169060243516611c62565b34801561041a57600080fd5b506101c9600160a060020a0360043516611d35565b600160a060020a031660009081526008602052604090205460ff1690565b6060610457612014565b606060008673__AOLibrary_____________________________632d706a34826040518263ffffffff1660e060020a0281526004018082600160a060020a0316600160a060020a0316815260200191505060206040518083038186803b1580156104c057600080fd5b505af41580156104d4573d6000803e3d6000fd5b505050506040513d60208110156104ea57600080fd5b505115156104f757600080fd5b6105008861042f565b151561050b57600080fd5b6000871015801561051c5750868610155b151561052757600080fd5b600160a060020a038089166000908152600860209081526040918290208251606081018452815460ff811615158252610100900490941684830152600181018054845181850281018501865281815292948601938301828280156105b457602002820191906000526020600020905b8154600160a060020a03168152600190910190602001808311610596575b505050505081525050935060008460400151511115156105d357600080fd5b6105f460016105e8888a63ffffffff611e1516565b9063ffffffff611e2716565b60405190808252806020026020018201604052801561061d578160200160208202803883390190505b5060408501515190935061063890600163ffffffff611e1516565b8611156106595760408401515161065690600163ffffffff611e1516565b95505b8691505b8582116106bc57604084015180518390811061067557fe5b6020908102909101015183610690848a63ffffffff611e1516565b8151811061069a57fe5b600160a060020a0390921660209283029091019091015260019091019061065d565b50909695505050505050565b6000546001546040805160e260020a633d9abf2b028152336004820152600160a060020a0393841660248201529290911660448301525173__AOLibrary_____________________________9163f66afcac916064808301926020929190829003018186803b15801561073a57600080fd5b505af415801561074e573d6000803e3d6000fd5b505050506040513d602081101561076457600080fd5b5051151561077157600080fd5b600160a060020a038116151561078657600080fd5b60048054600160a060020a0319908116600160a060020a03938416179182905560078054929093169116179055565b6000808373__AOLibrary_____________________________632d706a34826040518263ffffffff1660e060020a0281526004018082600160a060020a0316600160a060020a0316815260200191505060206040518083038186803b15801561081d57600080fd5b505af4158015610831573d6000803e3d6000fd5b505050506040513d602081101561084757600080fd5b5051151561085457600080fd5b600354600160a060020a0316331461086b57600080fd5b6108748561042f565b1561087e57600080fd5b600160a060020a038416151561089357600080fd5b505050600160a060020a03918216600090815260086020908152604082208054600160ff19909116811774ffffffffffffffffffffffffffffffffffffffff001916610100959096169485029590951781558401805480860182559083529120018054600160a060020a031916909117905590565b600154600160a060020a031681565b6000546001546040805160e260020a633d9abf2b028152336004820152600160a060020a0393841660248201529290911660448301525173__AOLibrary_____________________________9163f66afcac916064808301926020929190829003018186803b15801561098957600080fd5b505af415801561099d573d6000803e3d6000fd5b505050506040513d60208110156109b357600080fd5b505115156109c057600080fd5b600160a060020a03821615156109d557600080fd5b600160a060020a03919091166000908152600260205260409020805460ff1916911515919091179055565b6000546001546040805160e260020a633d9abf2b028152336004820152600160a060020a0393841660248201529290911660448301525173__AOLibrary_____________________________9163f66afcac916064808301926020929190829003018186803b158015610a7257600080fd5b505af4158015610a86573d6000803e3d6000fd5b505050506040513d6020811015610a9c57600080fd5b50511515610aa957600080fd5b600160a060020a0381161515610abe57600080fd5b60018054600160a060020a03909216600160a060020a0319928316811790915560068054909216179055565b60008173__AOLibrary_____________________________632d706a34826040518263ffffffff1660e060020a0281526004018082600160a060020a0316600160a060020a0316815260200191505060206040518083038186803b158015610b5157600080fd5b505af4158015610b65573d6000803e3d6000fd5b505050506040513d6020811015610b7b57600080fd5b50511515610b8857600080fd5b610b918361042f565b1515610b9c57600080fd5b5050600160a060020a031660009081526008602052604090206001015490565b60008060008473__AOLibrary_____________________________632d706a34826040518263ffffffff1660e060020a0281526004018082600160a060020a0316600160a060020a0316815260200191505060206040518083038186803b158015610c2657600080fd5b505af4158015610c3a573d6000803e3d6000fd5b505050506040513d6020811015610c5057600080fd5b50511515610c5d57600080fd5b600654604080517f71ce52ed000000000000000000000000000000000000000000000000000000008152336004820152600160a060020a03808a1660248301529151899392909216916371ce52ed916044808201926020929091908290030181600087803b158015610cce57600080fd5b505af1158015610ce2573d6000803e3d6000fd5b505050506040513d6020811015610cf857600080fd5b50511515610d0557600080fd5b600754600554604080517f029b7d530000000000000000000000000000000000000000000000000000000081523360048201529051600160a060020a0393841693633ebc2ab393169163029b7d539160248083019260209291908290030181600087803b158015610d7557600080fd5b505af1158015610d89573d6000803e3d6000fd5b505050506040513d6020811015610d9f57600080fd5b50516040805160e060020a63ffffffff8516028152600160a060020a0390921660048301525160248083019260209291908290030181600087803b158015610de657600080fd5b505af1158015610dfa573d6000803e3d6000fd5b505050506040513d6020811015610e1057600080fd5b505115610e1c57600080fd5b610e258761042f565b1515610e3057600080fd5b604080517fa481247c000000000000000000000000000000000000000000000000000000008152600160a060020a038981166004830152881660248201529051309163a481247c9160448083019260209291908290030181600087803b158015610e9957600080fd5b505af1158015610ead573d6000803e3d6000fd5b505050506040513d6020811015610ec357600080fd5b50511515610ed057600080fd5b600160a060020a0387811660009081526008602052604090208054909650610100900481169087161415610f0357600080fd5b60018581015411610f1357600080fd5b600093505b600185015484101561103f5785600160a060020a03168560010185815481101515610f3f57fe5b600091825260209091200154600160a060020a031614156110345760018501805485908110610f6a57fe5b60009182526020909120018054600160a060020a031916905560018501805490610f98906000198301612033565b50600554604080517ff5743c4c000000000000000000000000000000000000000000000000000000008152600160a060020a038a811660048301529151919092169163f5743c4c9160248083019260209291908290030181600087803b15801561100157600080fd5b505af1158015611015573d6000803e3d6000fd5b505050506040513d602081101561102b57600080fd5b5051925061103f565b600190930192610f18565b6000831161104c57600080fd5b60408051600160a060020a038881168252602082018690528251908a16927faec0509ffc1f2fe28ada93894c552d532d94e3c32821ce0939b2064d95686642928290030190a250505050505050565b6000546001546040805160e260020a633d9abf2b028152336004820152600160a060020a0393841660248201529290911660448301525173__AOLibrary_____________________________9163f66afcac916064808301926020929190829003018186803b15801561110d57600080fd5b505af4158015611121573d6000803e3d6000fd5b505050506040513d602081101561113757600080fd5b5051151561114457600080fd5b600160a060020a038116151561115957600080fd5b60038054600160a060020a03909216600160a060020a0319928316811790915560058054909216179055565b60026020526000908152604090205460ff1681565b60006111a4612014565b60008473__AOLibrary_____________________________632d706a34826040518263ffffffff1660e060020a0281526004018082600160a060020a0316600160a060020a0316815260200191505060206040518083038186803b15801561120b57600080fd5b505af415801561121f573d6000803e3d6000fd5b505050506040513d602081101561123557600080fd5b5051151561124257600080fd5b61124b8661042f565b151561125657600080fd5b600160a060020a038516151561126b57600080fd5b600160a060020a038087166000908152600860209081526040918290208251606081018452815460ff811615158252610100900490941684830152600181018054845181850281018501865281815292948601938301828280156112f857602002820191906000526020600020905b8154600160a060020a031681526001909101906020018083116112da575b5050505050815250509250600091505b82604001515182101561135e5784600160a060020a031683604001518381518110151561133157fe5b90602001906020020151600160a060020a031614156113535760019350611363565b600190910190611308565b600093505b50505092915050565b600454600160a060020a031681565b600054600160a060020a031681565b600354600160a060020a031681565b60008060008773__AOLibrary_____________________________632d706a34826040518263ffffffff1660e060020a0281526004018082600160a060020a0316600160a060020a0316815260200191505060206040518083038186803b15801561140357600080fd5b505af4158015611417573d6000803e3d6000fd5b505050506040513d602081101561142d57600080fd5b5051151561143a57600080fd5b600654604080517f71ce52ed000000000000000000000000000000000000000000000000000000008152336004820152600160a060020a03808d16602483015291518c9392909216916371ce52ed916044808201926020929091908290030181600087803b1580156114ab57600080fd5b505af11580156114bf573d6000803e3d6000fd5b505050506040513d60208110156114d557600080fd5b505115156114e257600080fd5b600754600554604080517f029b7d530000000000000000000000000000000000000000000000000000000081523360048201529051600160a060020a0393841693633ebc2ab393169163029b7d539160248083019260209291908290030181600087803b15801561155257600080fd5b505af1158015611566573d6000803e3d6000fd5b505050506040513d602081101561157c57600080fd5b50516040805160e060020a63ffffffff8516028152600160a060020a0390921660048301525160248083019260209291908290030181600087803b1580156115c357600080fd5b505af11580156115d7573d6000803e3d6000fd5b505050506040513d60208110156115ed57600080fd5b5051156115f957600080fd5b6116028a61042f565b151561160d57600080fd5b604080517fa481247c000000000000000000000000000000000000000000000000000000008152600160a060020a038c811660048301528b1660248201529051309163a481247c9160448083019260209291908290030181600087803b15801561167657600080fd5b505af115801561168a573d6000803e3d6000fd5b505050506040513d60208110156116a057600080fd5b505115156116ad57600080fd5b604080516c01000000000000000000000000308102602080840191909152600160a060020a03808f16830260348501528d1690910260488301528251603c818403018152605c90920192839052815191929182918401908083835b602083106117275780518252601f199092019160209182019101611708565b6001836020036101000a0380198251168184511680821785525050505050509050019150506040518091039020945033600160a060020a03166001868a8a8a604051600081526020016040526040518085600019166000191681526020018460ff1660ff1681526020018360001916600019168152602001826000191660001916815260200194505050505060206040516020810390808403906000865af11580156117d7573d6000803e3d6000fd5b50505060206040510351600160a060020a03161415156117f657600080fd5b600160a060020a03808b16600081815260086020908152604080832080548f87166101000274ffffffffffffffffffffffffffffffffffffffff001990911617815560055482517ff5743c4c0000000000000000000000000000000000000000000000000000000081526004810196909652915190995094169363f5743c4c93602480820194918390030190829087803b15801561189357600080fd5b505af11580156118a7573d6000803e3d6000fd5b505050506040513d60208110156118bd57600080fd5b50519250600083116118ce57600080fd5b60408051600160a060020a038b81168252602082018690528251908d16927fd77f210e9f1b29555f577c8e8794a9470fa9198f423fc077f55168838ba679a9928290030190a250505050505050505050565b60008173__AOLibrary_____________________________632d706a34826040518263ffffffff1660e060020a0281526004018082600160a060020a0316600160a060020a0316815260200191505060206040518083038186803b15801561198757600080fd5b505af415801561199b573d6000803e3d6000fd5b505050506040513d60208110156119b157600080fd5b505115156119be57600080fd5b6119c78361042f565b15156119d257600080fd5b5050600160a060020a0390811660009081526008602052604090205461010090041690565b8173__AOLibrary_____________________________632d706a34826040518263ffffffff1660e060020a0281526004018082600160a060020a0316600160a060020a0316815260200191505060206040518083038186803b158015611a5c57600080fd5b505af4158015611a70573d6000803e3d6000fd5b505050506040513d6020811015611a8657600080fd5b50511515611a9357600080fd5b600654604080517f71ce52ed000000000000000000000000000000000000000000000000000000008152336004820152600160a060020a0380871660248301529151869392909216916371ce52ed916044808201926020929091908290030181600087803b158015611b0457600080fd5b505af1158015611b18573d6000803e3d6000fd5b505050506040513d6020811015611b2e57600080fd5b50511515611b3b57600080fd5b600754600554604080517f029b7d530000000000000000000000000000000000000000000000000000000081523360048201529051600160a060020a0393841693633ebc2ab393169163029b7d539160248083019260209291908290030181600087803b158015611bab57600080fd5b505af1158015611bbf573d6000803e3d6000fd5b505050506040513d6020811015611bd557600080fd5b50516040805160e060020a63ffffffff8516028152600160a060020a0390921660048301525160248083019260209291908290030181600087803b158015611c1c57600080fd5b505af1158015611c30573d6000803e3d6000fd5b505050506040513d6020811015611c4657600080fd5b505115611c5257600080fd5b611c5c8484611e3a565b50505050565b60008273__AOLibrary_____________________________632d706a34826040518263ffffffff1660e060020a0281526004018082600160a060020a0316600160a060020a0316815260200191505060206040518083038186803b158015611cc957600080fd5b505af4158015611cdd573d6000803e3d6000fd5b505050506040513d6020811015611cf357600080fd5b50511515611d0057600080fd5b3360009081526002602052604090205460ff161515600114611d2157600080fd5b611d2b8484611e3a565b5060019392505050565b6000546001546040805160e260020a633d9abf2b028152336004820152600160a060020a0393841660248201529290911660448301525173__AOLibrary_____________________________9163f66afcac916064808301926020929190829003018186803b158015611da757600080fd5b505af4158015611dbb573d6000803e3d6000fd5b505050506040513d6020811015611dd157600080fd5b50511515611dde57600080fd5b600160a060020a0381161515611df357600080fd5b60008054600160a060020a031916600160a060020a0392909216919091179055565b600082821115611e2157fe5b50900390565b81810182811015611e3457fe5b92915050565b604080517fa481247c000000000000000000000000000000000000000000000000000000008152600160a060020a0384811660048301528316602482015290516000918291309163a481247c91604480830192602092919082900301818787803b158015611ea757600080fd5b505af1158015611ebb573d6000803e3d6000fd5b505050506040513d6020811015611ed157600080fd5b505115611edd57600080fd5b600160a060020a0383161515611ef257600080fd5b600160a060020a0384811660008181526008602090815260408083206001808201805491820181558552838520018054600160a060020a0319168a881617905560055482517ff5743c4c0000000000000000000000000000000000000000000000000000000081526004810196909652915190975094169363f5743c4c93602480820194918390030190829087803b158015611f8d57600080fd5b505af1158015611fa1573d6000803e3d6000fd5b505050506040513d6020811015611fb757600080fd5b5051905060008111611fc857600080fd5b60408051600160a060020a038581168252602082018490528251908716927f4487b0a9ffea124fa087f0b52b2e9ce94d4cc7863686b6d07b61569b2652b153928290030190a250505050565b6040805160608181018352600080835260208301529181019190915290565b8154818355818111156120575760008381526020902061205791810190830161205c565b505050565b61207a91905b808211156120765760008155600101612062565b5090565b905600a165627a7a723058209542ca2064d017cf0517bca2a2bff008c8205228295acf1cb525b6f859da4cb90029",
	"source": "pragma solidity ^0.4.24;\n\nimport './SafeMath.sol';\nimport './AOLibrary.sol';\nimport './TheAO.sol';\nimport './INamePublicKey.sol';\nimport './INameFactory.sol';\nimport './INameTAOPosition.sol';\nimport './INameAccountRecovery.sol';\n\n/**\n * @title NamePublicKey\n */\ncontract NamePublicKey is TheAO, INamePublicKey {\n\tusing SafeMath for uint256;\n\n\taddress public nameFactoryAddress;\n\taddress public nameAccountRecoveryAddress;\n\n\tINameFactory internal _nameFactory;\n\tINameTAOPosition internal _nameTAOPosition;\n\tINameAccountRecovery internal _nameAccountRecovery;\n\n\tstruct PublicKey {\n\t\tbool created;\n\t\taddress defaultKey;\n\t\taddress[] keys;\n\t}\n\n\t// Mapping from nameId to its PublicKey\n\tmapping (address => PublicKey) internal publicKeys;\n\n\t// Event to be broadcasted to public when a publicKey is added to a Name\n\tevent AddKey(address indexed nameId, address publicKey, uint256 nonce);\n\n\t// Event to be broadcasted to public when a publicKey is removed from a Name\n\tevent RemoveKey(address indexed nameId, address publicKey, uint256 nonce);\n\n\t// Event to be broadcasted to public when a publicKey is set as default for a Name\n\tevent SetDefaultKey(address indexed nameId, address publicKey, uint256 nonce);\n\n\t/**\n\t * @dev Constructor function\n\t */\n\tconstructor(address _nameFactoryAddress, address _nameTAOPositionAddress) public {\n\t\tsetNameFactoryAddress(_nameFactoryAddress);\n\t\tsetNameTAOPositionAddress(_nameTAOPositionAddress);\n\t}\n\n\t/**\n\t * @dev Checks if the calling contract address is The AO\n\t *\t\tOR\n\t *\t\tIf The AO is set to a Name/TAO, then check if calling address is the Advocate\n\t */\n\tmodifier onlyTheAO {\n\t\trequire (AOLibrary.isTheAO(msg.sender, theAO, nameTAOPositionAddress));\n\t\t_;\n\t}\n\n\t/**\n\t * @dev Check if calling address is Factory\n\t */\n\tmodifier onlyFactory {\n\t\trequire (msg.sender == nameFactoryAddress);\n\t\t_;\n\t}\n\n\t/**\n\t * @dev Check if `_nameId` is a Name\n\t */\n\tmodifier isName(address _nameId) {\n\t\trequire (AOLibrary.isName(_nameId));\n\t\t_;\n\t}\n\n\t/**\n\t * @dev Check if msg.sender is the current advocate of Name ID\n\t */\n\tmodifier onlyAdvocate(address _id) {\n\t\trequire (_nameTAOPosition.senderIsAdvocate(msg.sender, _id));\n\t\t_;\n\t}\n\n\t/**\n\t * @dev Only allowed if sender's Name is not compromised\n\t */\n\tmodifier senderNameNotCompromised() {\n\t\trequire (!_nameAccountRecovery.isCompromised(_nameFactory.ethAddressToNameId(msg.sender)));\n\t\t_;\n\t}\n\n\t/***** The AO ONLY METHODS *****/\n\t/**\n\t * @dev Transfer ownership of The AO to new address\n\t * @param _theAO The new address to be transferred\n\t */\n\tfunction transferOwnership(address _theAO) public onlyTheAO {\n\t\trequire (_theAO != address(0));\n\t\ttheAO = _theAO;\n\t}\n\n\t/**\n\t * @dev Whitelist `_account` address to transact on behalf of others\n\t * @param _account The address to whitelist\n\t * @param _whitelist Either to whitelist or not\n\t */\n\tfunction setWhitelist(address _account, bool _whitelist) public onlyTheAO {\n\t\trequire (_account != address(0));\n\t\twhitelist[_account] = _whitelist;\n\t}\n\n\t/**\n\t * @dev The AO sets NameFactory address\n\t * @param _nameFactoryAddress The address of NameFactory\n\t */\n\tfunction setNameFactoryAddress(address _nameFactoryAddress) public onlyTheAO {\n\t\trequire (_nameFactoryAddress != address(0));\n\t\tnameFactoryAddress = _nameFactoryAddress;\n\t\t_nameFactory = INameFactory(_nameFactoryAddress);\n\t}\n\n\t/**\n\t * @dev The AO sets NameTAOPosition address\n\t * @param _nameTAOPositionAddress The address of NameTAOPosition\n\t */\n\tfunction setNameTAOPositionAddress(address _nameTAOPositionAddress) public onlyTheAO {\n\t\trequire (_nameTAOPositionAddress != address(0));\n\t\tnameTAOPositionAddress = _nameTAOPositionAddress;\n\t\t_nameTAOPosition = INameTAOPosition(_nameTAOPositionAddress);\n\t}\n\n\t/**\n\t * @dev The AO set the NameAccountRecovery Address\n\t * @param _nameAccountRecoveryAddress The address of NameAccountRecovery\n\t */\n\tfunction setNameAccountRecoveryAddress(address _nameAccountRecoveryAddress) public onlyTheAO {\n\t\trequire (_nameAccountRecoveryAddress != address(0));\n\t\tnameAccountRecoveryAddress = _nameAccountRecoveryAddress;\n\t\t_nameAccountRecovery = INameAccountRecovery(nameAccountRecoveryAddress);\n\t}\n\n\t/**\n\t * @dev Whitelisted address add publicKey to list for a Name\n\t * @param _id The ID of the Name\n\t * @param _key The publicKey to be added\n\t * @return true on success\n\t */\n\tfunction whitelistAddKey(address _id, address _key) external isName(_id) inWhitelist returns (bool) {\n\t\t_addKey(_id, _key);\n\t\treturn true;\n\t}\n\n\t/***** PUBLIC METHODS *****/\n\t/**\n\t * @dev Check whether or not a Name ID exist in the list of Public Keys\n\t * @param _id The ID to be checked\n\t * @return true if yes, false otherwise\n\t */\n\tfunction isExist(address _id) public view returns (bool) {\n\t\treturn publicKeys[_id].created;\n\t}\n\n\t/**\n\t * @dev Store the PublicKey info for a Name\n\t * @param _id The ID of the Name\n\t * @param _defaultKey The default public key for this Name\n\t * @return true on success\n\t */\n\tfunction initialize(address _id, address _defaultKey)\n\t\texternal\n\t\tisName(_id)\n\t\tonlyFactory returns (bool) {\n\t\trequire (!isExist(_id));\n\t\trequire (_defaultKey != address(0));\n\n\t\tPublicKey storage _publicKey = publicKeys[_id];\n\t\t_publicKey.created = true;\n\t\t_publicKey.defaultKey = _defaultKey;\n\t\t_publicKey.keys.push(_defaultKey);\n\t\treturn true;\n\t}\n\n\t/**\n\t * @dev Get total publicKeys count for a Name\n\t * @param _id The ID of the Name\n\t * @return total publicKeys count\n\t */\n\tfunction getTotalPublicKeysCount(address _id) public isName(_id) view returns (uint256) {\n\t\trequire (isExist(_id));\n\t\treturn publicKeys[_id].keys.length;\n\t}\n\n\t/**\n\t * @dev Check whether or not a publicKey exist in the list for a Name\n\t * @param _id The ID of the Name\n\t * @param _key The publicKey to check\n\t * @return true if yes. false otherwise\n\t */\n\tfunction isKeyExist(address _id, address _key) isName(_id) external view returns (bool) {\n\t\trequire (isExist(_id));\n\t\trequire (_key != address(0));\n\n\t\tPublicKey memory _publicKey = publicKeys[_id];\n\t\tfor (uint256 i = 0; i < _publicKey.keys.length; i++) {\n\t\t\tif (_publicKey.keys[i] == _key) {\n\t\t\t\treturn true;\n\t\t\t}\n\t\t}\n\t\treturn false;\n\t}\n\n\t/**\n\t * @dev Add publicKey to list for a Name\n\t * @param _id The ID of the Name\n\t * @param _key The publicKey to be added\n\t */\n\tfunction addKey(address _id, address _key) public isName(_id) onlyAdvocate(_id) senderNameNotCompromised {\n\t\t_addKey(_id, _key);\n\t}\n\n\t/**\n\t * @dev Get default public key of a Name\n\t * @param _id The ID of the Name\n\t * @return the default public key\n\t */\n\tfunction getDefaultKey(address _id) external isName(_id) view returns (address) {\n\t\trequire (isExist(_id));\n\t\treturn publicKeys[_id].defaultKey;\n\t}\n\n\t/**\n\t * @dev Get list of publicKeys of a Name\n\t * @param _id The ID of the Name\n\t * @param _from The starting index\n\t * @param _to The ending index\n\t * @return list of publicKeys\n\t */\n\tfunction getKeys(address _id, uint256 _from, uint256 _to) public isName(_id) view returns (address[]) {\n\t\trequire (isExist(_id));\n\t\trequire (_from >= 0 && _to >= _from);\n\n\t\tPublicKey memory _publicKey = publicKeys[_id];\n\t\trequire (_publicKey.keys.length > 0);\n\n\t\taddress[] memory _keys = new address[](_to.sub(_from).add(1));\n\t\tif (_to > _publicKey.keys.length.sub(1)) {\n\t\t\t_to = _publicKey.keys.length.sub(1);\n\t\t}\n\t\tfor (uint256 i = _from; i <= _to; i++) {\n\t\t\t_keys[i.sub(_from)] = _publicKey.keys[i];\n\t\t}\n\t\treturn _keys;\n\t}\n\n\t/**\n\t * @dev Remove publicKey from the list\n\t * @param _id The ID of the Name\n\t * @param _key The publicKey to be removed\n\t */\n\tfunction removeKey(address _id, address _key) public isName(_id) onlyAdvocate(_id) senderNameNotCompromised {\n\t\trequire (isExist(_id));\n\t\trequire (this.isKeyExist(_id, _key));\n\n\t\tPublicKey storage _publicKey = publicKeys[_id];\n\n\t\t// Can't remove default key\n\t\trequire (_key != _publicKey.defaultKey);\n\t\trequire (_publicKey.keys.length > 1);\n\n\t\tfor (uint256 i = 0; i < _publicKey.keys.length; i++) {\n\t\t\tif (_publicKey.keys[i] == _key) {\n\t\t\t\tdelete _publicKey.keys[i];\n\t\t\t\t_publicKey.keys.length--;\n\n\t\t\t\tuint256 _nonce = _nameFactory.incrementNonce(_id);\n\t\t\t\tbreak;\n\t\t\t}\n\t\t}\n\t\trequire (_nonce > 0);\n\n\t\temit RemoveKey(_id, _key, _nonce);\n\t}\n\n\t/**\n\t * @dev Set a publicKey as the default for a Name\n\t * @param _id The ID of the Name\n\t * @param _defaultKey The defaultKey to be set\n\t * @param _signatureV The V part of the signature for this update\n\t * @param _signatureR The R part of the signature for this update\n\t * @param _signatureS The S part of the signature for this update\n\t */\n\tfunction setDefaultKey(address _id, address _defaultKey, uint8 _signatureV, bytes32 _signatureR, bytes32 _signatureS) public isName(_id) onlyAdvocate(_id) senderNameNotCompromised {\n\t\trequire (isExist(_id));\n\t\trequire (this.isKeyExist(_id, _defaultKey));\n\n\t\tbytes32 _hash = keccak256(abi.encodePacked(address(this), _id, _defaultKey));\n\t\trequire (ecrecover(_hash, _signatureV, _signatureR, _signatureS) == msg.sender);\n\n\t\tPublicKey storage _publicKey = publicKeys[_id];\n\t\t_publicKey.defaultKey = _defaultKey;\n\n\t\tuint256 _nonce = _nameFactory.incrementNonce(_id);\n\t\trequire (_nonce > 0);\n\t\temit SetDefaultKey(_id, _defaultKey, _nonce);\n\t}\n\n\t/***** INTERNAL METHOD *****/\n\t/**\n\t * @dev Actual adding the publicKey to list for a Name\n\t * @param _id The ID of the Name\n\t * @param _key The publicKey to be added\n\t */\n\tfunction _addKey(address _id, address _key) internal {\n\t\trequire (!this.isKeyExist(_id, _key));\n\t\trequire (_key != address(0));\n\n\t\tPublicKey storage _publicKey = publicKeys[_id];\n\t\t_publicKey.keys.push(_key);\n\n\t\tuint256 _nonce = _nameFactory.incrementNonce(_id);\n\t\trequire (_nonce > 0);\n\n\t\temit AddKey(_id, _key, _nonce);\n\t}\n}\n",
	"sourcePath": "/Users/johanmulyono/Work/AO/ao-contracts/contracts/NamePublicKey.sol",
	"compiler": {
		"name": "solc",
		"version": "0.4.24+commit.e67f0147.Emscripten.clang"
	},
	"schemaVersion": "2.0.1",
	"updatedAt": "2019-02-07T11:33:45.162Z"
}