{
	"contractName": "NameTAOPosition",
	"abi": [
		{
			"constant": true,
			"inputs": [],
			"name": "aoSettingAddress",
			"outputs": [
				{
					"name": "",
					"type": "address"
				}
			],
			"payable": false,
			"stateMutability": "view",
			"type": "function"
		},
		{
			"constant": true,
			"inputs": [],
			"name": "totalTAOAdvocateChallenges",
			"outputs": [
				{
					"name": "",
					"type": "uint256"
				}
			],
			"payable": false,
			"stateMutability": "view",
			"type": "function"
		},
		{
			"constant": true,
			"inputs": [],
			"name": "logosAddress",
			"outputs": [
				{
					"name": "",
					"type": "address"
				}
			],
			"payable": false,
			"stateMutability": "view",
			"type": "function"
		},
		{
			"constant": true,
			"inputs": [],
			"name": "nameTAOPositionAddress",
			"outputs": [
				{
					"name": "",
					"type": "address"
				}
			],
			"payable": false,
			"stateMutability": "view",
			"type": "function"
		},
		{
			"constant": true,
			"inputs": [
				{
					"name": "",
					"type": "address"
				}
			],
			"name": "whitelist",
			"outputs": [
				{
					"name": "",
					"type": "bool"
				}
			],
			"payable": false,
			"stateMutability": "view",
			"type": "function"
		},
		{
			"constant": true,
			"inputs": [],
			"name": "nameAccountRecoveryAddress",
			"outputs": [
				{
					"name": "",
					"type": "address"
				}
			],
			"payable": false,
			"stateMutability": "view",
			"type": "function"
		},
		{
			"constant": true,
			"inputs": [],
			"name": "theAO",
			"outputs": [
				{
					"name": "",
					"type": "address"
				}
			],
			"payable": false,
			"stateMutability": "view",
			"type": "function"
		},
		{
			"constant": true,
			"inputs": [],
			"name": "taoAncestryAddress",
			"outputs": [
				{
					"name": "",
					"type": "address"
				}
			],
			"payable": false,
			"stateMutability": "view",
			"type": "function"
		},
		{
			"constant": true,
			"inputs": [],
			"name": "nameFactoryAddress",
			"outputs": [
				{
					"name": "",
					"type": "address"
				}
			],
			"payable": false,
			"stateMutability": "view",
			"type": "function"
		},
		{
			"constant": true,
			"inputs": [],
			"name": "settingTAOId",
			"outputs": [
				{
					"name": "",
					"type": "address"
				}
			],
			"payable": false,
			"stateMutability": "view",
			"type": "function"
		},
		{
			"constant": true,
			"inputs": [],
			"name": "taoFactoryAddress",
			"outputs": [
				{
					"name": "",
					"type": "address"
				}
			],
			"payable": false,
			"stateMutability": "view",
			"type": "function"
		},
		{
			"inputs": [
				{
					"name": "_nameFactoryAddress",
					"type": "address"
				},
				{
					"name": "_taoFactoryAddress",
					"type": "address"
				}
			],
			"payable": false,
			"stateMutability": "nonpayable",
			"type": "constructor"
		},
		{
			"anonymous": false,
			"inputs": [
				{
					"indexed": true,
					"name": "taoId",
					"type": "address"
				},
				{
					"indexed": false,
					"name": "oldAdvocateId",
					"type": "address"
				},
				{
					"indexed": false,
					"name": "newAdvocateId",
					"type": "address"
				},
				{
					"indexed": false,
					"name": "nonce",
					"type": "uint256"
				}
			],
			"name": "SetAdvocate",
			"type": "event"
		},
		{
			"anonymous": false,
			"inputs": [
				{
					"indexed": true,
					"name": "taoId",
					"type": "address"
				},
				{
					"indexed": false,
					"name": "oldListenerId",
					"type": "address"
				},
				{
					"indexed": false,
					"name": "newListenerId",
					"type": "address"
				},
				{
					"indexed": false,
					"name": "nonce",
					"type": "uint256"
				}
			],
			"name": "SetListener",
			"type": "event"
		},
		{
			"anonymous": false,
			"inputs": [
				{
					"indexed": true,
					"name": "taoId",
					"type": "address"
				},
				{
					"indexed": false,
					"name": "oldSpeakerId",
					"type": "address"
				},
				{
					"indexed": false,
					"name": "newSpeakerId",
					"type": "address"
				},
				{
					"indexed": false,
					"name": "nonce",
					"type": "uint256"
				}
			],
			"name": "SetSpeaker",
			"type": "event"
		},
		{
			"anonymous": false,
			"inputs": [
				{
					"indexed": true,
					"name": "taoId",
					"type": "address"
				},
				{
					"indexed": true,
					"name": "challengeId",
					"type": "bytes32"
				},
				{
					"indexed": false,
					"name": "currentAdvocateId",
					"type": "address"
				},
				{
					"indexed": false,
					"name": "challengerAdvocateId",
					"type": "address"
				},
				{
					"indexed": false,
					"name": "createdTimestamp",
					"type": "uint256"
				},
				{
					"indexed": false,
					"name": "lockedUntilTimestamp",
					"type": "uint256"
				},
				{
					"indexed": false,
					"name": "completeBeforeTimestamp",
					"type": "uint256"
				}
			],
			"name": "ChallengeTAOAdvocate",
			"type": "event"
		},
		{
			"anonymous": false,
			"inputs": [
				{
					"indexed": true,
					"name": "taoId",
					"type": "address"
				},
				{
					"indexed": true,
					"name": "challengeId",
					"type": "bytes32"
				}
			],
			"name": "CompleteTAOAdvocateChallenge",
			"type": "event"
		},
		{
			"constant": false,
			"inputs": [
				{
					"name": "_theAO",
					"type": "address"
				}
			],
			"name": "transferOwnership",
			"outputs": [],
			"payable": false,
			"stateMutability": "nonpayable",
			"type": "function"
		},
		{
			"constant": false,
			"inputs": [
				{
					"name": "_account",
					"type": "address"
				},
				{
					"name": "_whitelist",
					"type": "bool"
				}
			],
			"name": "setWhitelist",
			"outputs": [],
			"payable": false,
			"stateMutability": "nonpayable",
			"type": "function"
		},
		{
			"constant": false,
			"inputs": [
				{
					"name": "_nameFactoryAddress",
					"type": "address"
				}
			],
			"name": "setNameFactoryAddress",
			"outputs": [],
			"payable": false,
			"stateMutability": "nonpayable",
			"type": "function"
		},
		{
			"constant": false,
			"inputs": [
				{
					"name": "_nameAccountRecoveryAddress",
					"type": "address"
				}
			],
			"name": "setNameAccountRecoveryAddress",
			"outputs": [],
			"payable": false,
			"stateMutability": "nonpayable",
			"type": "function"
		},
		{
			"constant": false,
			"inputs": [
				{
					"name": "_taoFactoryAddress",
					"type": "address"
				}
			],
			"name": "setTAOFactoryAddress",
			"outputs": [],
			"payable": false,
			"stateMutability": "nonpayable",
			"type": "function"
		},
		{
			"constant": false,
			"inputs": [
				{
					"name": "_settingTAOId",
					"type": "address"
				}
			],
			"name": "setSettingTAOId",
			"outputs": [],
			"payable": false,
			"stateMutability": "nonpayable",
			"type": "function"
		},
		{
			"constant": false,
			"inputs": [
				{
					"name": "_aoSettingAddress",
					"type": "address"
				}
			],
			"name": "setAOSettingAddress",
			"outputs": [],
			"payable": false,
			"stateMutability": "nonpayable",
			"type": "function"
		},
		{
			"constant": false,
			"inputs": [
				{
					"name": "_taoAncestryAddress",
					"type": "address"
				}
			],
			"name": "setTAOAncestryAddress",
			"outputs": [],
			"payable": false,
			"stateMutability": "nonpayable",
			"type": "function"
		},
		{
			"constant": false,
			"inputs": [
				{
					"name": "_logosAddress",
					"type": "address"
				}
			],
			"name": "setLogosAddress",
			"outputs": [],
			"payable": false,
			"stateMutability": "nonpayable",
			"type": "function"
		},
		{
			"constant": true,
			"inputs": [
				{
					"name": "_id",
					"type": "address"
				}
			],
			"name": "isExist",
			"outputs": [
				{
					"name": "",
					"type": "bool"
				}
			],
			"payable": false,
			"stateMutability": "view",
			"type": "function"
		},
		{
			"constant": true,
			"inputs": [
				{
					"name": "_sender",
					"type": "address"
				},
				{
					"name": "_id",
					"type": "address"
				}
			],
			"name": "senderIsAdvocate",
			"outputs": [
				{
					"name": "",
					"type": "bool"
				}
			],
			"payable": false,
			"stateMutability": "view",
			"type": "function"
		},
		{
			"constant": true,
			"inputs": [
				{
					"name": "_sender",
					"type": "address"
				},
				{
					"name": "_id",
					"type": "address"
				}
			],
			"name": "senderIsListener",
			"outputs": [
				{
					"name": "",
					"type": "bool"
				}
			],
			"payable": false,
			"stateMutability": "view",
			"type": "function"
		},
		{
			"constant": true,
			"inputs": [
				{
					"name": "_sender",
					"type": "address"
				},
				{
					"name": "_id",
					"type": "address"
				}
			],
			"name": "senderIsSpeaker",
			"outputs": [
				{
					"name": "",
					"type": "bool"
				}
			],
			"payable": false,
			"stateMutability": "view",
			"type": "function"
		},
		{
			"constant": true,
			"inputs": [
				{
					"name": "_sender",
					"type": "address"
				},
				{
					"name": "_id",
					"type": "address"
				}
			],
			"name": "senderIsAdvocateOfParent",
			"outputs": [
				{
					"name": "",
					"type": "bool"
				}
			],
			"payable": false,
			"stateMutability": "view",
			"type": "function"
		},
		{
			"constant": true,
			"inputs": [
				{
					"name": "_sender",
					"type": "address"
				},
				{
					"name": "_id",
					"type": "address"
				}
			],
			"name": "senderIsPosition",
			"outputs": [
				{
					"name": "",
					"type": "bool"
				}
			],
			"payable": false,
			"stateMutability": "view",
			"type": "function"
		},
		{
			"constant": true,
			"inputs": [
				{
					"name": "_nameId",
					"type": "address"
				},
				{
					"name": "_id",
					"type": "address"
				}
			],
			"name": "nameIsAdvocate",
			"outputs": [
				{
					"name": "",
					"type": "bool"
				}
			],
			"payable": false,
			"stateMutability": "view",
			"type": "function"
		},
		{
			"constant": true,
			"inputs": [
				{
					"name": "_sender",
					"type": "address"
				},
				{
					"name": "_id",
					"type": "address"
				}
			],
			"name": "determinePosition",
			"outputs": [
				{
					"name": "",
					"type": "uint256"
				}
			],
			"payable": false,
			"stateMutability": "view",
			"type": "function"
		},
		{
			"constant": false,
			"inputs": [
				{
					"name": "_id",
					"type": "address"
				},
				{
					"name": "_advocateId",
					"type": "address"
				},
				{
					"name": "_listenerId",
					"type": "address"
				},
				{
					"name": "_speakerId",
					"type": "address"
				}
			],
			"name": "initialize",
			"outputs": [
				{
					"name": "",
					"type": "bool"
				}
			],
			"payable": false,
			"stateMutability": "nonpayable",
			"type": "function"
		},
		{
			"constant": true,
			"inputs": [
				{
					"name": "_id",
					"type": "address"
				}
			],
			"name": "getPositionById",
			"outputs": [
				{
					"name": "",
					"type": "string"
				},
				{
					"name": "",
					"type": "address"
				},
				{
					"name": "",
					"type": "string"
				},
				{
					"name": "",
					"type": "address"
				},
				{
					"name": "",
					"type": "string"
				},
				{
					"name": "",
					"type": "address"
				}
			],
			"payable": false,
			"stateMutability": "view",
			"type": "function"
		},
		{
			"constant": true,
			"inputs": [
				{
					"name": "_id",
					"type": "address"
				}
			],
			"name": "getAdvocate",
			"outputs": [
				{
					"name": "",
					"type": "address"
				}
			],
			"payable": false,
			"stateMutability": "view",
			"type": "function"
		},
		{
			"constant": true,
			"inputs": [
				{
					"name": "_id",
					"type": "address"
				}
			],
			"name": "getListener",
			"outputs": [
				{
					"name": "",
					"type": "address"
				}
			],
			"payable": false,
			"stateMutability": "view",
			"type": "function"
		},
		{
			"constant": true,
			"inputs": [
				{
					"name": "_id",
					"type": "address"
				}
			],
			"name": "getSpeaker",
			"outputs": [
				{
					"name": "",
					"type": "address"
				}
			],
			"payable": false,
			"stateMutability": "view",
			"type": "function"
		},
		{
			"constant": false,
			"inputs": [
				{
					"name": "_taoId",
					"type": "address"
				},
				{
					"name": "_newAdvocateId",
					"type": "address"
				}
			],
			"name": "setAdvocate",
			"outputs": [],
			"payable": false,
			"stateMutability": "nonpayable",
			"type": "function"
		},
		{
			"constant": false,
			"inputs": [
				{
					"name": "_taoId",
					"type": "address"
				}
			],
			"name": "parentReplaceChildAdvocate",
			"outputs": [],
			"payable": false,
			"stateMutability": "nonpayable",
			"type": "function"
		},
		{
			"constant": false,
			"inputs": [
				{
					"name": "_taoId",
					"type": "address"
				}
			],
			"name": "challengeTAOAdvocate",
			"outputs": [],
			"payable": false,
			"stateMutability": "nonpayable",
			"type": "function"
		},
		{
			"constant": true,
			"inputs": [
				{
					"name": "_challengeId",
					"type": "bytes32"
				},
				{
					"name": "_sender",
					"type": "address"
				}
			],
			"name": "getChallengeStatus",
			"outputs": [
				{
					"name": "",
					"type": "uint8"
				}
			],
			"payable": false,
			"stateMutability": "view",
			"type": "function"
		},
		{
			"constant": false,
			"inputs": [
				{
					"name": "_challengeId",
					"type": "bytes32"
				}
			],
			"name": "completeTAOAdvocateChallenge",
			"outputs": [],
			"payable": false,
			"stateMutability": "nonpayable",
			"type": "function"
		},
		{
			"constant": true,
			"inputs": [
				{
					"name": "_challengeId",
					"type": "bytes32"
				}
			],
			"name": "getTAOAdvocateChallengeById",
			"outputs": [
				{
					"name": "",
					"type": "address"
				},
				{
					"name": "",
					"type": "address"
				},
				{
					"name": "",
					"type": "bool"
				},
				{
					"name": "",
					"type": "uint256"
				},
				{
					"name": "",
					"type": "uint256"
				},
				{
					"name": "",
					"type": "uint256"
				}
			],
			"payable": false,
			"stateMutability": "view",
			"type": "function"
		},
		{
			"constant": false,
			"inputs": [
				{
					"name": "_id",
					"type": "address"
				},
				{
					"name": "_newListenerId",
					"type": "address"
				}
			],
			"name": "setListener",
			"outputs": [],
			"payable": false,
			"stateMutability": "nonpayable",
			"type": "function"
		},
		{
			"constant": false,
			"inputs": [
				{
					"name": "_id",
					"type": "address"
				},
				{
					"name": "_newSpeakerId",
					"type": "address"
				}
			],
			"name": "setSpeaker",
			"outputs": [],
			"payable": false,
			"stateMutability": "nonpayable",
			"type": "function"
		}
	],
	"bytecode": "0x60806040523480156200001157600080fd5b506040516040806200529a83398101604052805160209091015160008054600160a060020a0319163317905562000051826401000000006200007f810204565b620000658164010000000062000184810204565b505060018054600160a060020a0319163017905562000289565b600054600154604080517ff66afcac000000000000000000000000000000000000000000000000000000008152336004820152600160a060020a0393841660248201529290911660448301525173__AOLibrary_____________________________9163f66afcac916064808301926020929190829003018186803b1580156200010857600080fd5b505af41580156200011d573d6000803e3d6000fd5b505050506040513d60208110156200013457600080fd5b505115156200014257600080fd5b600160a060020a03811615156200015857600080fd5b60048054600160a060020a03909216600160a060020a03199283168117909155600b8054909216179055565b600054600154604080517ff66afcac000000000000000000000000000000000000000000000000000000008152336004820152600160a060020a0393841660248201529290911660448301525173__AOLibrary_____________________________9163f66afcac916064808301926020929190829003018186803b1580156200020d57600080fd5b505af415801562000222573d6000803e3d6000fd5b505050506040513d60208110156200023957600080fd5b505115156200024757600080fd5b600160a060020a03811615156200025d57600080fd5b60068054600160a060020a03909216600160a060020a03199283168117909155600d8054909216179055565b61500180620002996000396000f3006080604052600436106101de5763ffffffff60e060020a60003504166213eb4b81146101e3578063058af9821461021857806306fd70881461023f5780631d0138ff146102625780631dfde2bd1461029357806320082c69146102b45780632191207a146102db57806323f48bc9146102fc57806329981db4146103235780632cfed9f01461034a578063339c5c061461037157806338da7de7146103925780633b6682d5146103a75780634926248f146103fe5780634b670418146104255780634ef033f01461044c57806353d6fd59146104615780636fb487fc1461048757806371ce52ed146104a85780637767d034146104cf5780637a1d66dd146104f0578063897e359a146105175780638c924361146105515780639b19251a14610572578063a4e5fad214610593578063a9b6b38e146105a8578063af6ddc10146105bd578063bc406206146105d2578063d6830af3146105e7578063d8a0aa6c14610608578063daacb9ce146107b8578063e2c8e54a146107df578063e7c5018514610806578063eb342f791461081b578063ef44fe2414610833578063f203c85714610854578063f2fde38b14610875578063f8c8765e14610896578063fd6f4137146108c9578063ff0374b5146108ea578063ff3781c6146108ff575b600080fd5b3480156101ef57600080fd5b50610204600160a060020a0360043516610920565b604080519115158252519081900360200190f35b34801561022457600080fd5b50610204600160a060020a0360043581169060243516610948565b34801561024b57600080fd5b50610260600160a060020a036004351661099d565b005b34801561026e57600080fd5b50610277610a87565b60408051600160a060020a039092168252519081900360200190f35b34801561029f57600080fd5b50610260600160a060020a0360043516610a96565b3480156102c057600080fd5b50610204600160a060020a0360043581169060243516610b83565b3480156102e757600080fd5b50610260600160a060020a0360043516610c58565b34801561030857600080fd5b50610311610d42565b60408051918252519081900360200190f35b34801561032f57600080fd5b50610260600160a060020a0360043581169060243516610d48565b34801561035657600080fd5b50610260600160a060020a0360043581169060243516611148565b34801561037d57600080fd5b50610260600160a060020a03600435166119b1565b34801561039e57600080fd5b50610277611eaa565b3480156103b357600080fd5b506103bf600435611eb9565b60408051600160a060020a039788168152959096166020860152921515848601526060840191909152608083015260a082015290519081900360c00190f35b34801561040a57600080fd5b50610260600160a060020a0360043581169060243516611f7c565b34801561043157600080fd5b50610204600160a060020a03600435811690602435166127e5565b34801561045857600080fd5b50610277612acb565b34801561046d57600080fd5b50610260600160a060020a03600435166024351515612ada565b34801561049357600080fd5b50610277600160a060020a0360043516612bc3565b3480156104b457600080fd5b50610204600160a060020a0360043581169060243516612c41565b3480156104db57600080fd5b50610260600160a060020a0360043516612d13565b3480156104fc57600080fd5b50610311600160a060020a0360043581169060243516612e00565b34801561052357600080fd5b5061053b600435600160a060020a0360243516612fc7565b6040805160ff9092168252519081900360200190f35b34801561055d57600080fd5b50610260600160a060020a036004351661326b565b34801561057e57600080fd5b50610204600160a060020a0360043516613355565b34801561059f57600080fd5b5061027761336a565b3480156105b457600080fd5b50610277613379565b3480156105c957600080fd5b50610277613388565b3480156105de57600080fd5b50610277613397565b3480156105f357600080fd5b50610260600160a060020a03600435166133a6565b34801561061457600080fd5b50610629600160a060020a0360043516613505565b604051808060200187600160a060020a0316600160a060020a031681526020018060200186600160a060020a0316600160a060020a031681526020018060200185600160a060020a0316600160a060020a0316815260200184810384528a818151815260200191508051906020019080838360005b838110156106b657818101518382015260200161069e565b50505050905090810190601f1680156106e35780820380516001836020036101000a031916815260200191505b5084810383528851815288516020918201918a019080838360005b838110156107165781810151838201526020016106fe565b50505050905090810190601f1680156107435780820380516001836020036101000a031916815260200191505b50848103825286518152865160209182019188019080838360005b8381101561077657818101518382015260200161075e565b50505050905090810190601f1680156107a35780820380516001836020036101000a031916815260200191505b50995050505050505050505060405180910390f35b3480156107c457600080fd5b50610204600160a060020a0360043581169060243516613817565b3480156107eb57600080fd5b50610204600160a060020a03600435811690602435166138ec565b34801561081257600080fd5b50610277613a2e565b34801561082757600080fd5b50610260600435613a3d565b34801561083f57600080fd5b50610260600160a060020a0360043516613c7d565b34801561086057600080fd5b50610277600160a060020a0360043516614328565b34801561088157600080fd5b50610260600160a060020a03600435166143a7565b3480156108a257600080fd5b50610204600160a060020a0360043581169060243581169060443581169060643516614487565b3480156108d557600080fd5b50610277600160a060020a036004351661496b565b3480156108f657600080fd5b506102776149eb565b34801561090b57600080fd5b50610260600160a060020a03600435166149fa565b600160a060020a031660009081526011602052604090206002015460a060020a900460ff1690565b600160a060020a03811660009081526011602052604081206002015460a060020a900460ff1680156109965750600160a060020a038281166000908152601160205260409020548116908416145b9392505050565b6000546001546040805160e260020a633d9abf2b028152336004820152600160a060020a0393841660248201529290911660448301525173__AOLibrary_____________________________9163f66afcac916064808301926020929190829003018186803b158015610a0f57600080fd5b505af4158015610a23573d6000803e3d6000fd5b505050506040513d6020811015610a3957600080fd5b50511515610a4657600080fd5b600160a060020a0381161515610a5b57600080fd5b60078054600160a060020a03909216600160a060020a03199283168117909155600e8054909216179055565b600754600160a060020a031681565b6000546001546040805160e260020a633d9abf2b028152336004820152600160a060020a0393841660248201529290911660448301525173__AOLibrary_____________________________9163f66afcac916064808301926020929190829003018186803b158015610b0857600080fd5b505af4158015610b1c573d6000803e3d6000fd5b505050506040513d6020811015610b3257600080fd5b50511515610b3f57600080fd5b600160a060020a0381161515610b5457600080fd5b60058054600160a060020a0319908116600160a060020a039384161791829055600c8054929093169116179055565b600160a060020a03811660009081526011602052604081206002015460a060020a900460ff1680156109965750600b546040805160e060020a63029b7d53028152600160a060020a0386811660048301529151919092169163029b7d539160248083019260209291908290030181600087803b158015610c0257600080fd5b505af1158015610c16573d6000803e3d6000fd5b505050506040513d6020811015610c2c57600080fd5b5051600160a060020a038381166000908152601160205260409020600201548116911614905092915050565b6000546001546040805160e260020a633d9abf2b028152336004820152600160a060020a0393841660248201529290911660448301525173__AOLibrary_____________________________9163f66afcac916064808301926020929190829003018186803b158015610cca57600080fd5b505af4158015610cde573d6000803e3d6000fd5b505050506040513d6020811015610cf457600080fd5b50511515610d0157600080fd5b600160a060020a0381161515610d1657600080fd5b60068054600160a060020a03909216600160a060020a03199283168117909155600d8054909216179055565b600a5481565b8173__AOLibrary_____________________________632fca5414826040518263ffffffff1660e060020a0281526004018082600160a060020a0316600160a060020a0316815260200191505060206040518083038186803b158015610dad57600080fd5b505af4158015610dc1573d6000803e3d6000fd5b505050506040513d6020811015610dd757600080fd5b50511515610de457600080fd5b8173__AOLibrary_____________________________632d706a34826040518263ffffffff1660e060020a0281526004018082600160a060020a0316600160a060020a0316815260200191505060206040518083038186803b158015610e4957600080fd5b505af4158015610e5d573d6000803e3d6000fd5b505050506040513d6020811015610e7357600080fd5b50511515610e8057600080fd5b6040805160e060020a6371ce52ed028152336004820152600160a060020a03861660248201529051859130916371ce52ed916044808201926020929091908290030181600087803b158015610ed457600080fd5b505af1158015610ee8573d6000803e3d6000fd5b505050506040513d6020811015610efe57600080fd5b50511515610f0b57600080fd5b600b546040805160e060020a63029b7d530281523360048201529051600092600160a060020a03169163029b7d5391602480830192602092919082900301818787803b158015610f5a57600080fd5b505af1158015610f6e573d6000803e3d6000fd5b505050506040513d6020811015610f8457600080fd5b5051600160a060020a03161415610f9a57600080fd5b600c54600b546040805160e060020a63029b7d530281523360048201529051600160a060020a0393841693633ebc2ab393169163029b7d539160248083019260209291908290030181600087803b158015610ff457600080fd5b505af1158015611008573d6000803e3d6000fd5b505050506040513d602081101561101e57600080fd5b50516040805160e060020a63ffffffff8516028152600160a060020a0390921660048301525160248083019260209291908290030181600087803b15801561106557600080fd5b505af1158015611079573d6000803e3d6000fd5b505050506040513d602081101561108f57600080fd5b50511561109b57600080fd5b6110a485610920565b15156110af57600080fd5b600c546040805160e060020a633ebc2ab3028152600160a060020a03878116600483015291519190921691633ebc2ab39160248083019260209291908290030181600087803b15801561110157600080fd5b505af1158015611115573d6000803e3d6000fd5b505050506040513d602081101561112b57600080fd5b50511561113757600080fd5b6111418585614ae4565b5050505050565b6000806000808573__AOLibrary_____________________________632d706a34826040518263ffffffff1660e060020a0281526004018082600160a060020a0316600160a060020a0316815260200191505060206040518083038186803b1580156111b357600080fd5b505af41580156111c7573d6000803e3d6000fd5b505050506040513d60208110156111dd57600080fd5b50518061126f57506040805160e260020a630bf29505028152600160a060020a0383166004820152905173__AOLibrary_____________________________91632fca5414916024808301926020929190829003018186803b15801561124257600080fd5b505af4158015611256573d6000803e3d6000fd5b505050506040513d602081101561126c57600080fd5b50515b151561127a57600080fd5b8573__AOLibrary_____________________________632d706a34826040518263ffffffff1660e060020a0281526004018082600160a060020a0316600160a060020a0316815260200191505060206040518083038186803b1580156112df57600080fd5b505af41580156112f3573d6000803e3d6000fd5b505050506040513d602081101561130957600080fd5b50518061139b57506040805160e260020a630bf29505028152600160a060020a0383166004820152905173__AOLibrary_____________________________91632fca5414916024808301926020929190829003018186803b15801561136e57600080fd5b505af4158015611382573d6000803e3d6000fd5b505050506040513d602081101561139857600080fd5b50515b15156113a657600080fd5b600b546040805160e060020a63029b7d530281523360048201529051600092600160a060020a03169163029b7d5391602480830192602092919082900301818787803b1580156113f557600080fd5b505af1158015611409573d6000803e3d6000fd5b505050506040513d602081101561141f57600080fd5b5051600160a060020a0316141561143557600080fd5b600c54600b546040805160e060020a63029b7d530281523360048201529051600160a060020a0393841693633ebc2ab393169163029b7d539160248083019260209291908290030181600087803b15801561148f57600080fd5b505af11580156114a3573d6000803e3d6000fd5b505050506040513d60208110156114b957600080fd5b50516040805160e060020a63ffffffff8516028152600160a060020a0390921660048301525160248083019260209291908290030181600087803b15801561150057600080fd5b505af1158015611514573d6000803e3d6000fd5b505050506040513d602081101561152a57600080fd5b50511561153657600080fd5b6040805160e060020a6371ce52ed028152336004820152600160a060020a038a1660248201529051899130916371ce52ed916044808201926020929091908290030181600087803b15801561158a57600080fd5b505af115801561159e573d6000803e3d6000fd5b505050506040513d60208110156115b457600080fd5b505115156115c157600080fd5b6115ca89610920565b15156115d557600080fd5b6040805160e260020a630b5c1a8d028152600160a060020a038b16600482015290516000985073__AOLibrary_____________________________91632d706a34916024808301926020929190829003018186803b15801561163657600080fd5b505af415801561164a573d6000803e3d6000fd5b505050506040513d602081101561166057600080fd5b50511561180f576040805160e260020a630b5c1a8d028152600160a060020a038a16600482015290516001985073__AOLibrary_____________________________91632d706a34916024808301926020929190829003018186803b1580156116c857600080fd5b505af41580156116dc573d6000803e3d6000fd5b505050506040513d60208110156116f257600080fd5b505115156116ff57600080fd5b600c546040805160e060020a633ebc2ab3028152600160a060020a038c8116600483015291519190921691633ebc2ab39160248083019260209291908290030181600087803b15801561175157600080fd5b505af1158015611765573d6000803e3d6000fd5b505050506040513d602081101561177b57600080fd5b50511561178757600080fd5b600c546040805160e060020a633ebc2ab3028152600160a060020a038b8116600483015291519190921691633ebc2ab39160248083019260209291908290030181600087803b1580156117d957600080fd5b505af11580156117ed573d6000803e3d6000fd5b505050506040513d602081101561180357600080fd5b50511561180f57600080fd5b600160a060020a03808a1660009081526011602052604090206002810180548b8416600160a060020a031982161790915590975016945086156118d157600b546040805160e260020a633d5d0f13028152600160a060020a038c811660048301529151919092169163f5743c4c9160248083019260209291908290030181600087803b15801561189e57600080fd5b505af11580156118b2573d6000803e3d6000fd5b505050506040513d60208110156118c857600080fd5b50519350611952565b600d546040805160e260020a633d5d0f13028152600160a060020a038c811660048301529151919092169163f5743c4c9160248083019260209291908290030181600087803b15801561192357600080fd5b505af1158015611937573d6000803e3d6000fd5b505050506040513d602081101561194d57600080fd5b505193505b600286015460408051600160a060020a03888116825292831660208201528082018790529051918b16917fe60c26cbb956b589a247aabcdf98ec9be5509ac7ee76c3508b41647fa1457eca9181900360600190a2505050505050505050565b6000808273__AOLibrary_____________________________632fca5414826040518263ffffffff1660e060020a0281526004018082600160a060020a0316600160a060020a0316815260200191505060206040518083038186803b158015611a1957600080fd5b505af4158015611a2d573d6000803e3d6000fd5b505050506040513d6020811015611a4357600080fd5b50511515611a5057600080fd5b600b546040805160e060020a63029b7d530281523360048201529051600092600160a060020a03169163029b7d5391602480830192602092919082900301818787803b158015611a9f57600080fd5b505af1158015611ab3573d6000803e3d6000fd5b505050506040513d6020811015611ac957600080fd5b5051600160a060020a03161415611adf57600080fd5b600c54600b546040805160e060020a63029b7d530281523360048201529051600160a060020a0393841693633ebc2ab393169163029b7d539160248083019260209291908290030181600087803b158015611b3957600080fd5b505af1158015611b4d573d6000803e3d6000fd5b505050506040513d6020811015611b6357600080fd5b50516040805160e060020a63ffffffff8516028152600160a060020a0390921660048301525160248083019260209291908290030181600087803b158015611baa57600080fd5b505af1158015611bbe573d6000803e3d6000fd5b505050506040513d6020811015611bd457600080fd5b505115611be057600080fd5b611be984610920565b1515611bf457600080fd5b611bfe33856127e5565b1515611c0957600080fd5b600b546040805160e060020a63029b7d530281523360048201529051600160a060020a039092169163029b7d53916024808201926020929091908290030181600087803b158015611c5957600080fd5b505af1158015611c6d573d6000803e3d6000fd5b505050506040513d6020811015611c8357600080fd5b50516040805160e060020a63fd6f4137028152600160a060020a03871660048201529051919450309163fd6f4137916024808201926020929091908290030181600087803b158015611cd457600080fd5b505af1158015611ce8573d6000803e3d6000fd5b505050506040513d6020811015611cfe57600080fd5b50519150600160a060020a038381169083161415611d1b57600080fd5b6010546040805160e060020a63fd6f4137028152600160a060020a0387811660048301529151919092169163985e4cd091309163fd6f41379160248083019260209291908290030181600087803b158015611d7557600080fd5b505af1158015611d89573d6000803e3d6000fd5b505050506040513d6020811015611d9f57600080fd5b50516040805160e060020a63ffffffff8516028152600160a060020a0390921660048301525160248083019260209291908290030181600087803b158015611de657600080fd5b505af1158015611dfa573d6000803e3d6000fd5b505050506040513d6020811015611e1057600080fd5b50516010546040805160e460020a630985e4cd028152600160a060020a0387811660048301529151919092169163985e4cd09160248083019260209291908290030181600087803b158015611e6457600080fd5b505af1158015611e78573d6000803e3d6000fd5b505050506040513d6020811015611e8e57600080fd5b505111611e9a57600080fd5b611ea48484614ae4565b50505050565b600954600160a060020a031681565b600080600080600080611eca614f72565b50600087815260126020908152604091829020825160e081018452815481526001820154600160a060020a0390811693820193909352600282015492831693810184905260a060020a90920460ff161515606083015260038101546080830152600481015460a08301526005015460c0820152901515611f4957600080fd5b602081015160408201516060830151608084015160a085015160c090950151939c929b5090995097509195509350915050565b6000806000808573__AOLibrary_____________________________632d706a34826040518263ffffffff1660e060020a0281526004018082600160a060020a0316600160a060020a0316815260200191505060206040518083038186803b158015611fe757600080fd5b505af4158015611ffb573d6000803e3d6000fd5b505050506040513d602081101561201157600080fd5b5051806120a357506040805160e260020a630bf29505028152600160a060020a0383166004820152905173__AOLibrary_____________________________91632fca5414916024808301926020929190829003018186803b15801561207657600080fd5b505af415801561208a573d6000803e3d6000fd5b505050506040513d60208110156120a057600080fd5b50515b15156120ae57600080fd5b8573__AOLibrary_____________________________632d706a34826040518263ffffffff1660e060020a0281526004018082600160a060020a0316600160a060020a0316815260200191505060206040518083038186803b15801561211357600080fd5b505af4158015612127573d6000803e3d6000fd5b505050506040513d602081101561213d57600080fd5b5051806121cf57506040805160e260020a630bf29505028152600160a060020a0383166004820152905173__AOLibrary_____________________________91632fca5414916024808301926020929190829003018186803b1580156121a257600080fd5b505af41580156121b6573d6000803e3d6000fd5b505050506040513d60208110156121cc57600080fd5b50515b15156121da57600080fd5b600b546040805160e060020a63029b7d530281523360048201529051600092600160a060020a03169163029b7d5391602480830192602092919082900301818787803b15801561222957600080fd5b505af115801561223d573d6000803e3d6000fd5b505050506040513d602081101561225357600080fd5b5051600160a060020a0316141561226957600080fd5b600c54600b546040805160e060020a63029b7d530281523360048201529051600160a060020a0393841693633ebc2ab393169163029b7d539160248083019260209291908290030181600087803b1580156122c357600080fd5b505af11580156122d7573d6000803e3d6000fd5b505050506040513d60208110156122ed57600080fd5b50516040805160e060020a63ffffffff8516028152600160a060020a0390921660048301525160248083019260209291908290030181600087803b15801561233457600080fd5b505af1158015612348573d6000803e3d6000fd5b505050506040513d602081101561235e57600080fd5b50511561236a57600080fd5b6040805160e060020a6371ce52ed028152336004820152600160a060020a038a1660248201529051899130916371ce52ed916044808201926020929091908290030181600087803b1580156123be57600080fd5b505af11580156123d2573d6000803e3d6000fd5b505050506040513d60208110156123e857600080fd5b505115156123f557600080fd5b6123fe89610920565b151561240957600080fd5b6040805160e260020a630b5c1a8d028152600160a060020a038b16600482015290516000985073__AOLibrary_____________________________91632d706a34916024808301926020929190829003018186803b15801561246a57600080fd5b505af415801561247e573d6000803e3d6000fd5b505050506040513d602081101561249457600080fd5b505115612643576040805160e260020a630b5c1a8d028152600160a060020a038a16600482015290516001985073__AOLibrary_____________________________91632d706a34916024808301926020929190829003018186803b1580156124fc57600080fd5b505af4158015612510573d6000803e3d6000fd5b505050506040513d602081101561252657600080fd5b5051151561253357600080fd5b600c546040805160e060020a633ebc2ab3028152600160a060020a038c8116600483015291519190921691633ebc2ab39160248083019260209291908290030181600087803b15801561258557600080fd5b505af1158015612599573d6000803e3d6000fd5b505050506040513d60208110156125af57600080fd5b5051156125bb57600080fd5b600c546040805160e060020a633ebc2ab3028152600160a060020a038b8116600483015291519190921691633ebc2ab39160248083019260209291908290030181600087803b15801561260d57600080fd5b505af1158015612621573d6000803e3d6000fd5b505050506040513d602081101561263757600080fd5b50511561264357600080fd5b600160a060020a03808a1660009081526011602052604090206001810180548b8416600160a060020a0319821617909155909750169450861561270557600b546040805160e260020a633d5d0f13028152600160a060020a038c811660048301529151919092169163f5743c4c9160248083019260209291908290030181600087803b1580156126d257600080fd5b505af11580156126e6573d6000803e3d6000fd5b505050506040513d60208110156126fc57600080fd5b50519350612786565b600d546040805160e260020a633d5d0f13028152600160a060020a038c811660048301529151919092169163f5743c4c9160248083019260209291908290030181600087803b15801561275757600080fd5b505af115801561276b573d6000803e3d6000fd5b505050506040513d602081101561278157600080fd5b505193505b600186015460408051600160a060020a03888116825292831660208201528082018790529051918b16917f2e81a908b9dece3c9a64e14f5daaa72174a5403092f82ab988ba4cc14b1390029181900360600190a2505050505050505050565b600f54604080517f7b23a437000000000000000000000000000000000000000000000000000000008152600160a060020a038481166004830152915160009384931691637b23a43791602480830192606092919082900301818787803b15801561284e57600080fd5b505af1158015612862573d6000803e3d6000fd5b505050506040513d606081101561287857600080fd5b50516040805160e260020a630b5c1a8d028152600160a060020a0383166004820152905191925073__AOLibrary_____________________________91632d706a3491602480820192602092909190829003018186803b1580156128db57600080fd5b505af41580156128ef573d6000803e3d6000fd5b505050506040513d602081101561290557600080fd5b505180612a3a57506040805160e260020a630bf29505028152600160a060020a0383166004820152905173__AOLibrary_____________________________91632fca5414916024808301926020929190829003018186803b15801561296a57600080fd5b505af415801561297e573d6000803e3d6000fd5b505050506040513d602081101561299457600080fd5b50518015612a3a5750600f54604080517f56dbc007000000000000000000000000000000000000000000000000000000008152600160a060020a0384811660048301528681166024830152915191909216916356dbc0079160448083019260209291908290030181600087803b158015612a0d57600080fd5b505af1158015612a21573d6000803e3d6000fd5b505050506040513d6020811015612a3757600080fd5b50515b8015612ac157506040805160e060020a6371ce52ed028152600160a060020a03868116600483015283166024820152905130916371ce52ed9160448083019260209291908290030181600087803b158015612a9457600080fd5b505af1158015612aa8573d6000803e3d6000fd5b505050506040513d6020811015612abe57600080fd5b50515b91505b5092915050565b600154600160a060020a031681565b6000546001546040805160e260020a633d9abf2b028152336004820152600160a060020a0393841660248201529290911660448301525173__AOLibrary_____________________________9163f66afcac916064808301926020929190829003018186803b158015612b4c57600080fd5b505af4158015612b60573d6000803e3d6000fd5b505050506040513d6020811015612b7657600080fd5b50511515612b8357600080fd5b600160a060020a0382161515612b9857600080fd5b600160a060020a03919091166000908152600260205260409020805460ff1916911515919091179055565b6000612bcd614fae565b612bd683610920565b1515612be157600080fd5b5050600160a060020a039081166000908152601160209081526040918290208251608081018452815485168152600182015485169281018390526002909101549384169281019290925260a060020a90920460ff16151560609091015290565b600160a060020a03811660009081526011602052604081206002015460a060020a900460ff1680156109965750600b546040805160e060020a63029b7d53028152600160a060020a0386811660048301529151919092169163029b7d539160248083019260209291908290030181600087803b158015612cc057600080fd5b505af1158015612cd4573d6000803e3d6000fd5b505050506040513d6020811015612cea57600080fd5b5051600160a060020a038381166000908152601160205260409020548116911614905092915050565b6000546001546040805160e260020a633d9abf2b028152336004820152600160a060020a0393841660248201529290911660448301525173__AOLibrary_____________________________9163f66afcac916064808301926020929190829003018186803b158015612d8557600080fd5b505af4158015612d99573d6000803e3d6000fd5b505050506040513d6020811015612daf57600080fd5b50511515612dbc57600080fd5b600160a060020a0381161515612dd157600080fd5b60088054600160a060020a0319908116600160a060020a039384161791829055600f8054929093169116179055565b6000612e0a614fae565b604080517fe2c8e54a000000000000000000000000000000000000000000000000000000008152600160a060020a038681166004830152851660248201529051600091309163e2c8e54a9160448082019260209290919082900301818787803b158015612e7657600080fd5b505af1158015612e8a573d6000803e3d6000fd5b505050506040513d6020811015612ea057600080fd5b50511515612ead57600080fd5b600160a060020a038481166000908152601160209081526040808320815160808101835281548616815260018201548616818501526002909101548086168284015260a060020a900460ff1615156060820152600b54825160e060020a63029b7d530281528b8716600482015292519197509094169363029b7d5393602480840194938390030190829087803b158015612f4657600080fd5b505af1158015612f5a573d6000803e3d6000fd5b505050506040513d6020811015612f7057600080fd5b50518251909150600160a060020a0380831691161415612f935760019250612fbf565b8160200151600160a060020a031681600160a060020a03161415612fba5760029250612fbf565b600392505b505092915050565b600b546040805160e060020a63029b7d53028152600160a060020a03848116600483015291516000938493849391169163029b7d539160248082019260209290919082900301818787803b15801561301e57600080fd5b505af1158015613032573d6000803e3d6000fd5b505050506040513d602081101561304857600080fd5b5051600086815260126020526040902060028101549193509150600160a060020a0316151561307a5760029250612fbf565b6001810154600160a060020a0383811691161461309a5760039250612fbf565b80600401544210806130af5750806005015442115b156130bd5760049250612fbf565b600281015460a060020a900460ff16156130da5760059250612fbf565b60105460028201546040805160e060020a63fd6f4137028152600160a060020a0392831660048201529051919092169163985e4cd091309163fd6f41379160248083019260209291908290030181600087803b15801561313957600080fd5b505af115801561314d573d6000803e3d6000fd5b505050506040513d602081101561316357600080fd5b50516040805160e060020a63ffffffff8516028152600160a060020a0390921660048301525160248083019260209291908290030181600087803b1580156131aa57600080fd5b505af11580156131be573d6000803e3d6000fd5b505050506040513d60208110156131d457600080fd5b50516010546040805160e460020a630985e4cd028152600160a060020a0386811660048301529151919092169163985e4cd09160248083019260209291908290030181600087803b15801561322857600080fd5b505af115801561323c573d6000803e3d6000fd5b505050506040513d602081101561325257600080fd5b5051116132625760069250612fbf565b60019250612fbf565b6000546001546040805160e260020a633d9abf2b028152336004820152600160a060020a0393841660248201529290911660448301525173__AOLibrary_____________________________9163f66afcac916064808301926020929190829003018186803b1580156132dd57600080fd5b505af41580156132f1573d6000803e3d6000fd5b505050506040513d602081101561330757600080fd5b5051151561331457600080fd5b600160a060020a038116151561332957600080fd5b60048054600160a060020a03909216600160a060020a03199283168117909155600b8054909216179055565b60026020526000908152604090205460ff1681565b600554600160a060020a031681565b600054600160a060020a031681565b600854600160a060020a031681565b600454600160a060020a031681565b6000546001546040805160e260020a633d9abf2b028152336004820152600160a060020a0393841660248201529290911660448301525173__AOLibrary_____________________________9163f66afcac916064808301926020929190829003018186803b15801561341857600080fd5b505af415801561342c573d6000803e3d6000fd5b505050506040513d602081101561344257600080fd5b5051151561344f57600080fd5b6040805160e260020a630bf29505028152600160a060020a0383166004820152905173__AOLibrary_____________________________91632fca5414916024808301926020929190829003018186803b1580156134ac57600080fd5b505af41580156134c0573d6000803e3d6000fd5b505050506040513d60208110156134d657600080fd5b505115156134e357600080fd5b60038054600160a060020a031916600160a060020a0392909216919091179055565b606060006060600060606000613519614fae565b61352288610920565b151561352d57600080fd5b50600160a060020a03878116600090815260116020908152604080832081516080810183528154861680825260018301548716948201949094526002909101549485168183015260a060020a90940460ff161515606085015280517f06fdde03000000000000000000000000000000000000000000000000000000008152905191926306fdde039260048084019382900301818387803b1580156135d057600080fd5b505af11580156135e4573d6000803e3d6000fd5b505050506040513d6000823e601f3d908101601f19168201604052602081101561360d57600080fd5b81019080805164010000000081111561362557600080fd5b8201602081018481111561363857600080fd5b815164010000000081118282018710171561365257600080fd5b505092919050505081600001518260200151600160a060020a03166306fdde036040518163ffffffff1660e060020a028152600401600060405180830381600087803b1580156136a157600080fd5b505af11580156136b5573d6000803e3d6000fd5b505050506040513d6000823e601f3d908101601f1916820160405260208110156136de57600080fd5b8101908080516401000000008111156136f657600080fd5b8201602081018481111561370957600080fd5b815164010000000081118282018710171561372357600080fd5b505092919050505083602001518460400151600160a060020a03166306fdde036040518163ffffffff1660e060020a028152600401600060405180830381600087803b15801561377257600080fd5b505af1158015613786573d6000803e3d6000fd5b505050506040513d6000823e601f3d908101601f1916820160405260208110156137af57600080fd5b8101908080516401000000008111156137c757600080fd5b820160208101848111156137da57600080fd5b81516401000000008111828201871017156137f457600080fd5b505060409890980151969f959e50939c50919a5094985092965090945050505050565b600160a060020a03811660009081526011602052604081206002015460a060020a900460ff1680156109965750600b546040805160e060020a63029b7d53028152600160a060020a0386811660048301529151919092169163029b7d539160248083019260209291908290030181600087803b15801561389657600080fd5b505af11580156138aa573d6000803e3d6000fd5b505050506040513d60208110156138c057600080fd5b5051600160a060020a038381166000908152601160205260409020600101548116911614905092915050565b600b546040805160e060020a63029b7d53028152600160a060020a03858116600483015291516000938493169163029b7d5391602480830192602092919082900301818787803b15801561393f57600080fd5b505af1158015613953573d6000803e3d6000fd5b505050506040513d602081101561396957600080fd5b50519050600160a060020a03811615156139865760009150612ac4565b600160a060020a03831660009081526011602052604090206002015460a060020a900460ff168015613a275750600160a060020a03838116600090815260116020526040902054811690821614806139fd5750600160a060020a038381166000908152601160205260409020600101548116908216145b80613a275750600160a060020a038381166000908152601160205260409020600201548116908216145b9150612ac4565b600354600160a060020a031681565b600b546040805160e060020a63029b7d5302815233600482015290516000928392600160a060020a039091169163029b7d539160248082019260209290919082900301818787803b158015613a9157600080fd5b505af1158015613aa5573d6000803e3d6000fd5b505050506040513d6020811015613abb57600080fd5b5051600160a060020a03161415613ad157600080fd5b600c54600b546040805160e060020a63029b7d530281523360048201529051600160a060020a0393841693633ebc2ab393169163029b7d539160248083019260209291908290030181600087803b158015613b2b57600080fd5b505af1158015613b3f573d6000803e3d6000fd5b505050506040513d6020811015613b5557600080fd5b50516040805160e060020a63ffffffff8516028152600160a060020a0390921660048301525160248083019260209291908290030181600087803b158015613b9c57600080fd5b505af1158015613bb0573d6000803e3d6000fd5b505050506040513d6020811015613bc657600080fd5b505115613bd257600080fd5b506000818152601260205260409020613beb8233612fc7565b60ff166001141515613bfc57600080fd5b60028101805474ff0000000000000000000000000000000000000000191660a060020a17908190556001820154613c3f91600160a060020a039081169116614ae4565b60028101546040518391600160a060020a0316907fa06cbfd9ebd454fc08633c987fb3cca83ac8f69dc24ae471a3c5be82ffff7d1290600090a35050565b6000806000806000808673__AOLibrary_____________________________632fca5414826040518263ffffffff1660e060020a0281526004018082600160a060020a0316600160a060020a0316815260200191505060206040518083038186803b158015613ceb57600080fd5b505af4158015613cff573d6000803e3d6000fd5b505050506040513d6020811015613d1557600080fd5b50511515613d2257600080fd5b600b546040805160e060020a63029b7d530281523360048201529051600092600160a060020a03169163029b7d5391602480830192602092919082900301818787803b158015613d7157600080fd5b505af1158015613d85573d6000803e3d6000fd5b505050506040513d6020811015613d9b57600080fd5b5051600160a060020a03161415613db157600080fd5b600c54600b546040805160e060020a63029b7d530281523360048201529051600160a060020a0393841693633ebc2ab393169163029b7d539160248083019260209291908290030181600087803b158015613e0b57600080fd5b505af1158015613e1f573d6000803e3d6000fd5b505050506040513d6020811015613e3557600080fd5b50516040805160e060020a63ffffffff8516028152600160a060020a0390921660048301525160248083019260209291908290030181600087803b158015613e7c57600080fd5b505af1158015613e90573d6000803e3d6000fd5b505050506040513d6020811015613ea657600080fd5b505115613eb257600080fd5b613ebb88610920565b1515613ec657600080fd5b600b546040805160e060020a63029b7d530281523360048201529051600160a060020a039092169163029b7d53916024808201926020929091908290030181600087803b158015613f1657600080fd5b505af1158015613f2a573d6000803e3d6000fd5b505050506040513d6020811015613f4057600080fd5b50516040805160e060020a63fd6f4137028152600160a060020a038b1660048201529051919850309163fd6f4137916024808201926020929091908290030181600087803b158015613f9157600080fd5b505af1158015613fa5573d6000803e3d6000fd5b505050506040513d6020811015613fbb57600080fd5b50519550600160a060020a038781169087161415613fd857600080fd5b6010546040805160e460020a630985e4cd028152600160a060020a0389811660048301529151919092169163985e4cd09160248083019260209291908290030181600087803b15801561402a57600080fd5b505af115801561403e573d6000803e3d6000fd5b505050506040513d602081101561405457600080fd5b50516010546040805160e460020a630985e4cd028152600160a060020a038b811660048301529151919092169163985e4cd09160248083019260209291908290030181600087803b1580156140a857600080fd5b505af11580156140bc573d6000803e3d6000fd5b505050506040513d60208110156140d257600080fd5b5051116140de57600080fd5b6140e6614c94565b94509450600a60008154809291906001019190505550308888600a546040516020018085600160a060020a0316600160a060020a03166c0100000000000000000000000002815260140184600160a060020a0316600160a060020a03166c0100000000000000000000000002815260140183600160a060020a0316600160a060020a03166c010000000000000000000000000281526014018281526020019450505050506040516020818303038152906040526040518082805190602001908083835b602083106141c85780518252601f1990920191602091820191016141a9565b6001836020036101000a03801982511681845116808217855250505050505090500191505060405180910390209250601260008460001916600019168152602001908152602001600020915082826000018160001916905550868260010160006101000a815481600160a060020a030219169083600160a060020a03160217905550878260020160006101000a815481600160a060020a030219169083600160a060020a03160217905550428260030181905550614293858360030154614f5f90919063ffffffff16565b600483018190556142aa908563ffffffff614f5f16565b600583018190556003830154600484015460408051600160a060020a038b811682528c81166020830152818301949094526060810192909252608082019390935291518592918b16917f981571316fc5090cfcb298ad4ce178e523677e724c0ae1ec87fd70743b2c3f6b919081900360a00190a35050505050505050565b6000614332614fae565b61433b83610920565b151561434657600080fd5b5050600160a060020a03908116600090815260116020908152604091829020825160808101845281548516815260018201548516928101929092526002015492831691810182905260a060020a90920460ff16151560609092019190915290565b6000546001546040805160e260020a633d9abf2b028152336004820152600160a060020a0393841660248201529290911660448301525173__AOLibrary_____________________________9163f66afcac916064808301926020929190829003018186803b15801561441957600080fd5b505af415801561442d573d6000803e3d6000fd5b505050506040513d602081101561444357600080fd5b5051151561445057600080fd5b600160a060020a038116151561446557600080fd5b60008054600160a060020a031916600160a060020a0392909216919091179055565b6000808573__AOLibrary_____________________________632d706a34826040518263ffffffff1660e060020a0281526004018082600160a060020a0316600160a060020a0316815260200191505060206040518083038186803b1580156144ef57600080fd5b505af4158015614503573d6000803e3d6000fd5b505050506040513d602081101561451957600080fd5b5051806145ab57506040805160e260020a630bf29505028152600160a060020a0383166004820152905173__AOLibrary_____________________________91632fca5414916024808301926020929190829003018186803b15801561457e57600080fd5b505af4158015614592573d6000803e3d6000fd5b505050506040513d60208110156145a857600080fd5b50515b15156145b657600080fd5b8573__AOLibrary_____________________________632d706a34826040518263ffffffff1660e060020a0281526004018082600160a060020a0316600160a060020a0316815260200191505060206040518083038186803b15801561461b57600080fd5b505af415801561462f573d6000803e3d6000fd5b505050506040513d602081101561464557600080fd5b5051151561465257600080fd5b8573__AOLibrary_____________________________632d706a34826040518263ffffffff1660e060020a0281526004018082600160a060020a0316600160a060020a0316815260200191505060206040518083038186803b1580156146b757600080fd5b505af41580156146cb573d6000803e3d6000fd5b505050506040513d60208110156146e157600080fd5b50518061477357506040805160e260020a630bf29505028152600160a060020a0383166004820152905173__AOLibrary_____________________________91632fca5414916024808301926020929190829003018186803b15801561474657600080fd5b505af415801561475a573d6000803e3d6000fd5b505050506040513d602081101561477057600080fd5b50515b151561477e57600080fd5b8573__AOLibrary_____________________________632d706a34826040518263ffffffff1660e060020a0281526004018082600160a060020a0316600160a060020a0316815260200191505060206040518083038186803b1580156147e357600080fd5b505af41580156147f7573d6000803e3d6000fd5b505050506040513d602081101561480d57600080fd5b50518061489f57506040805160e260020a630bf29505028152600160a060020a0383166004820152905173__AOLibrary_____________________________91632fca5414916024808301926020929190829003018186803b15801561487257600080fd5b505af4158015614886573d6000803e3d6000fd5b505050506040513d602081101561489c57600080fd5b50515b15156148aa57600080fd5b600454600160a060020a03163314806148cd5750600654600160a060020a031633145b15156148d857600080fd5b6148e18a610920565b156148eb57600080fd5b50505050600160a060020a0395861660009081526011602052604090208054600160a060020a031990811696881696909617815560018082018054881696891696909617909555600201805460a060020a9616939096169290921774ff000000000000000000000000000000000000000019169390931790935592915050565b6000614975614fae565b61497e83610920565b151561498957600080fd5b5050600160a060020a0390811660009081526011602090815260409182902082516080810184528154851680825260018301548616938201939093526002909101549384169281019290925260a060020a90920460ff16151560609091015290565b600654600160a060020a031681565b6000546001546040805160e260020a633d9abf2b028152336004820152600160a060020a0393841660248201529290911660448301525173__AOLibrary_____________________________9163f66afcac916064808301926020929190829003018186803b158015614a6c57600080fd5b505af4158015614a80573d6000803e3d6000fd5b505050506040513d6020811015614a9657600080fd5b50511515614aa357600080fd5b600160a060020a0381161515614ab857600080fd5b60098054600160a060020a03909216600160a060020a0319928316811790915560108054909216179055565b600160a060020a0380831660008181526011602090815260408083208054878716600160a060020a03198216178255600d54835160e260020a633d5d0f130281526004810197909752925191969081169592169263f5743c4c926024808201939182900301818787803b158015614b5a57600080fd5b505af1158015614b6e573d6000803e3d6000fd5b505050506040513d6020811015614b8457600080fd5b5051905060008111614b9557600080fd5b601054604080517f9579b1a8000000000000000000000000000000000000000000000000000000008152600160a060020a038581166004830152888116602483015291519190921691639579b1a89160448083019260209291908290030181600087803b158015614c0557600080fd5b505af1158015614c19573d6000803e3d6000fd5b505050506040513d6020811015614c2f57600080fd5b50511515614c3c57600080fd5b825460408051600160a060020a03858116825292831660208201528082018490529051918716917f7883860d48d58f44441bf70d860a25ba5bb7f97cddbb6f0d85a3e1fe0f7f184e9181900360600190a25050505050565b600e54600354604080517f7065bedc000000000000000000000000000000000000000000000000000000008152600160a060020a03928316600482015260248101829052602060448201527f6368616c6c656e676554414f4164766f636174654c6f636b4475726174696f6e606482015290516000938493849384939190921691637065bedc916084808301928692919082900301818387803b158015614d3a57600080fd5b505af1158015614d4e573d6000803e3d6000fd5b505050506040513d6000823e601f3d908101601f1916820160405260a0811015614d7757600080fd5b815160208301516040840151606085015160808601805194969395929491939283019291640100000000811115614dad57600080fd5b82016020810184811115614dc057600080fd5b8151640100000000811182820187101715614dda57600080fd5b5050600e54600354604080517f7065bedc000000000000000000000000000000000000000000000000000000008152600160a060020a039283166004820152602480820183905260448201527f6368616c6c656e676554414f4164766f63617465436f6d706c6574654475726160648201527f74696f6e00000000000000000000000000000000000000000000000000000000608482015290519a9c50911698637065bedc985060a48083019850600097509095509085900301925083915084905087803b158015614eab57600080fd5b505af1158015614ebf573d6000803e3d6000fd5b505050506040513d6000823e601f3d908101601f1916820160405260a0811015614ee857600080fd5b815160208301516040840151606085015160808601805194969395929491939283019291640100000000811115614f1e57600080fd5b82016020810184811115614f3157600080fd5b8151640100000000811182820187101715614f4b57600080fd5b50999c979b50969950505050505050505050565b81810182811015614f6c57fe5b92915050565b6040805160e081018252600080825260208201819052918101829052606081018290526080810182905260a0810182905260c081019190915290565b604080516080810182526000808252602082018190529181018290526060810191909152905600a165627a7a72305820a044401ae44552fc8b8cfbbc0cda77dd42863c2588329c16f9e0eb7c76ae7e790029",
	"source": "pragma solidity ^0.4.24;\n\nimport './SafeMath.sol';\nimport './AOLibrary.sol';\nimport './TheAO.sol';\nimport './INameTAOPosition.sol';\nimport './INameFactory.sol';\nimport './INameAccountRecovery.sol';\nimport './ITAOFactory.sol';\nimport './ITAOAncestry.sol';\nimport './IAOSetting.sol';\nimport './Logos.sol';\nimport './TAO.sol';\n\n/**\n * @title NameTAOPosition\n */\ncontract NameTAOPosition is TheAO, INameTAOPosition {\n\tusing SafeMath for uint256;\n\n\taddress public settingTAOId;\n\taddress public nameFactoryAddress;\n\taddress public nameAccountRecoveryAddress;\n\taddress public taoFactoryAddress;\n\taddress public aoSettingAddress;\n\taddress public taoAncestryAddress;\n\taddress public logosAddress;\n\n\tuint256 public totalTAOAdvocateChallenges;\n\n\tINameFactory internal _nameFactory;\n\tINameAccountRecovery internal _nameAccountRecovery;\n\tITAOFactory internal _taoFactory;\n\tIAOSetting internal _aoSetting;\n\tITAOAncestry internal _taoAncestry;\n\tLogos internal _logos;\n\n\tstruct PositionDetail {\n\t\taddress advocateId;\n\t\taddress listenerId;\n\t\taddress speakerId;\n\t\tbool created;\n\t}\n\n\tstruct TAOAdvocateChallenge {\n\t\tbytes32 challengeId;\n\t\taddress newAdvocateId;\t\t// The Name ID that wants to be the new Advocate\n\t\taddress taoId;\t\t\t\t// The TAO ID being challenged\n\t\tbool completed;\t\t\t\t// Status of the challenge\n\t\tuint256 createdTimestamp;\t// Timestamp when this challenge is created\n\t\tuint256 lockedUntilTimestamp;\t// The deadline for current Advocate to respond\n\t\tuint256 completeBeforeTimestamp; // The deadline for the challenger to respond and complete the challenge\n\t}\n\n\t// Mapping from Name/TAO ID to its PositionDetail info\n\tmapping (address => PositionDetail) internal positionDetails;\n\n\t// Mapping from challengeId to TAOAdvocateChallenge info\n\tmapping (bytes32 => TAOAdvocateChallenge) internal taoAdvocateChallenges;\n\n\t// Event to be broadcasted to public when current Advocate of TAO sets New Advocate\n\tevent SetAdvocate(address indexed taoId, address oldAdvocateId, address newAdvocateId, uint256 nonce);\n\n\t// Event to be broadcasted to public when current Advocate of Name/TAO sets New Listener\n\tevent SetListener(address indexed taoId, address oldListenerId, address newListenerId, uint256 nonce);\n\n\t// Event to be broadcasted to public when current Advocate of Name/TAO sets New Speaker\n\tevent SetSpeaker(address indexed taoId, address oldSpeakerId, address newSpeakerId, uint256 nonce);\n\n\t// Event to be broadcasted to public when a Name challenges to become TAO's new Advocate\n\tevent ChallengeTAOAdvocate(address indexed taoId, bytes32 indexed challengeId, address currentAdvocateId, address challengerAdvocateId, uint256 createdTimestamp, uint256 lockedUntilTimestamp, uint256 completeBeforeTimestamp);\n\n\t// Event to be broadcasted to public when Challenger completes the TAO Advocate challenge\n\tevent CompleteTAOAdvocateChallenge(address indexed taoId, bytes32 indexed challengeId);\n\n\t/**\n\t * @dev Constructor function\n\t */\n\tconstructor(address _nameFactoryAddress, address _taoFactoryAddress) public {\n\t\tsetNameFactoryAddress(_nameFactoryAddress);\n\t\tsetTAOFactoryAddress(_taoFactoryAddress);\n\n\t\tnameTAOPositionAddress = address(this);\n\t}\n\n\t/**\n\t * @dev Checks if the calling contract address is The AO\n\t *\t\tOR\n\t *\t\tIf The AO is set to a Name/TAO, then check if calling address is the Advocate\n\t */\n\tmodifier onlyTheAO {\n\t\trequire (AOLibrary.isTheAO(msg.sender, theAO, nameTAOPositionAddress));\n\t\t_;\n\t}\n\n\t/**\n\t * @dev Check if calling address is Factory\n\t */\n\tmodifier onlyFactory {\n\t\trequire (msg.sender == nameFactoryAddress || msg.sender == taoFactoryAddress);\n\t\t_;\n\t}\n\n\t/**\n\t * @dev Check if `_taoId` is a TAO\n\t */\n\tmodifier isTAO(address _taoId) {\n\t\trequire (AOLibrary.isTAO(_taoId));\n\t\t_;\n\t}\n\n\t/**\n\t * @dev Check if `_nameId` is a Name\n\t */\n\tmodifier isName(address _nameId) {\n\t\trequire (AOLibrary.isName(_nameId));\n\t\t_;\n\t}\n\n\t/**\n\t * @dev Check if `_id` is a Name or a TAO\n\t */\n\tmodifier isNameOrTAO(address _id) {\n\t\trequire (AOLibrary.isName(_id) || AOLibrary.isTAO(_id));\n\t\t_;\n\t}\n\n\t/**\n\t * @dev Check is msg.sender address is a Name\n\t */\n\t modifier senderIsName() {\n\t\trequire (_nameFactory.ethAddressToNameId(msg.sender) != address(0));\n\t\t_;\n\t }\n\n\t/**\n\t * @dev Check if msg.sender is the current advocate of a Name/TAO ID\n\t */\n\tmodifier onlyAdvocate(address _id) {\n\t\trequire (this.senderIsAdvocate(msg.sender, _id));\n\t\t_;\n\t}\n\n\t/**\n\t * @dev Only allowed if sender's Name is not compromised\n\t */\n\tmodifier senderNameNotCompromised() {\n\t\trequire (!_nameAccountRecovery.isCompromised(_nameFactory.ethAddressToNameId(msg.sender)));\n\t\t_;\n\t}\n\n\t/***** The AO ONLY METHODS *****/\n\t/**\n\t * @dev Transfer ownership of The AO to new address\n\t * @param _theAO The new address to be transferred\n\t */\n\tfunction transferOwnership(address _theAO) public onlyTheAO {\n\t\trequire (_theAO != address(0));\n\t\ttheAO = _theAO;\n\t}\n\n\t/**\n\t * @dev Whitelist `_account` address to transact on behalf of others\n\t * @param _account The address to whitelist\n\t * @param _whitelist Either to whitelist or not\n\t */\n\tfunction setWhitelist(address _account, bool _whitelist) public onlyTheAO {\n\t\trequire (_account != address(0));\n\t\twhitelist[_account] = _whitelist;\n\t}\n\n\t/**\n\t * @dev The AO set the NameFactory Address\n\t * @param _nameFactoryAddress The address of NameFactory\n\t */\n\tfunction setNameFactoryAddress(address _nameFactoryAddress) public onlyTheAO {\n\t\trequire (_nameFactoryAddress != address(0));\n\t\tnameFactoryAddress = _nameFactoryAddress;\n\t\t_nameFactory = INameFactory(_nameFactoryAddress);\n\t}\n\n\t/**\n\t * @dev The AO set the NameAccountRecovery Address\n\t * @param _nameAccountRecoveryAddress The address of NameAccountRecovery\n\t */\n\tfunction setNameAccountRecoveryAddress(address _nameAccountRecoveryAddress) public onlyTheAO {\n\t\trequire (_nameAccountRecoveryAddress != address(0));\n\t\tnameAccountRecoveryAddress = _nameAccountRecoveryAddress;\n\t\t_nameAccountRecovery = INameAccountRecovery(nameAccountRecoveryAddress);\n\t}\n\n\t/**\n\t * @dev The AO set the TAOFactory Address\n\t * @param _taoFactoryAddress The address of TAOFactory\n\t */\n\tfunction setTAOFactoryAddress(address _taoFactoryAddress) public onlyTheAO {\n\t\trequire (_taoFactoryAddress != address(0));\n\t\ttaoFactoryAddress = _taoFactoryAddress;\n\t\t_taoFactory = ITAOFactory(_taoFactoryAddress);\n\t}\n\n\t/**\n\t * @dev The AO sets setting TAO ID\n\t * @param _settingTAOId The new setting TAO ID to set\n\t */\n\tfunction setSettingTAOId(address _settingTAOId) public onlyTheAO {\n\t\trequire (AOLibrary.isTAO(_settingTAOId));\n\t\tsettingTAOId = _settingTAOId;\n\t}\n\n\t/**\n\t * @dev The AO sets AO Setting address\n\t * @param _aoSettingAddress The address of AOSetting\n\t */\n\tfunction setAOSettingAddress(address _aoSettingAddress) public onlyTheAO {\n\t\trequire (_aoSettingAddress != address(0));\n\t\taoSettingAddress = _aoSettingAddress;\n\t\t_aoSetting = IAOSetting(_aoSettingAddress);\n\t}\n\n\t/**\n\t * @dev The AO set the TAOAncestry Address\n\t * @param _taoAncestryAddress The address of TAOAncestry\n\t */\n\tfunction setTAOAncestryAddress(address _taoAncestryAddress) public onlyTheAO {\n\t\trequire (_taoAncestryAddress != address(0));\n\t\ttaoAncestryAddress = _taoAncestryAddress;\n\t\t_taoAncestry = ITAOAncestry(taoAncestryAddress);\n\t}\n\n\t/**\n\t * @dev The AO set the logosAddress Address\n\t * @param _logosAddress The address of Logos\n\t */\n\tfunction setLogosAddress(address _logosAddress) public onlyTheAO {\n\t\trequire (_logosAddress != address(0));\n\t\tlogosAddress = _logosAddress;\n\t\t_logos = Logos(_logosAddress);\n\t}\n\n\t/***** PUBLIC METHODS *****/\n\t/**\n\t * @dev Check whether or not a Name/TAO ID exist in the list\n\t * @param _id The ID to be checked\n\t * @return true if yes, false otherwise\n\t */\n\tfunction isExist(address _id) public view returns (bool) {\n\t\treturn positionDetails[_id].created;\n\t}\n\n\t/**\n\t * @dev Check whether or not `_sender` eth address is Advocate of _id\n\t * @param _sender The eth address to check\n\t * @param _id The ID to be checked\n\t * @return true if yes, false otherwise\n\t */\n\tfunction senderIsAdvocate(address _sender, address _id) external view returns (bool) {\n\t\treturn (positionDetails[_id].created && positionDetails[_id].advocateId == _nameFactory.ethAddressToNameId(_sender));\n\t}\n\n\t/**\n\t * @dev Check whether or not `_sender` eth address is Listener of _id\n\t * @param _sender The eth address to check\n\t * @param _id The ID to be checked\n\t * @return true if yes, false otherwise\n\t */\n\tfunction senderIsListener(address _sender, address _id) external view returns (bool) {\n\t\treturn (positionDetails[_id].created && positionDetails[_id].listenerId == _nameFactory.ethAddressToNameId(_sender));\n\t}\n\n\t/**\n\t * @dev Check whether or not `_sender` eth address is Speaker of _id\n\t * @param _sender The eth address to check\n\t * @param _id The ID to be checked\n\t * @return true if yes, false otherwise\n\t */\n\tfunction senderIsSpeaker(address _sender, address _id) external view returns (bool) {\n\t\treturn (positionDetails[_id].created && positionDetails[_id].speakerId == _nameFactory.ethAddressToNameId(_sender));\n\t}\n\n\t/**\n\t * @dev Check whether or not `_sender` eth address is Advocate of Parent of _id\n\t * @param _sender The eth address to check\n\t * @param _id The ID to be checked\n\t * @return true if yes, false otherwise\n\t */\n\tfunction senderIsAdvocateOfParent(address _sender, address _id) public view returns (bool) {\n\t\t(address _parentId,,) = _taoAncestry.getAncestryById(_id);\n\t\t return ((AOLibrary.isName(_parentId) || (AOLibrary.isTAO(_parentId) && _taoAncestry.isChild(_parentId, _id))) && this.senderIsAdvocate(_sender, _parentId));\n\t}\n\n\t/**\n\t * @dev Check whether or not eth address is either Advocate/Listener/Speaker of _id\n\t * @param _sender The eth address to check\n\t * @param _id The ID to be checked\n\t * @return true if yes, false otherwise\n\t */\n\tfunction senderIsPosition(address _sender, address _id) external view returns (bool) {\n\t\taddress _nameId = _nameFactory.ethAddressToNameId(_sender);\n\t\tif (_nameId == address(0)) {\n\t\t\treturn false;\n\t\t} else {\n\t\t\treturn (positionDetails[_id].created &&\n\t\t\t\t(positionDetails[_id].advocateId == _nameId ||\n\t\t\t\t positionDetails[_id].listenerId == _nameId ||\n\t\t\t\t positionDetails[_id].speakerId == _nameId\n\t\t\t\t)\n\t\t\t);\n\t\t}\n\t}\n\n\t/**\n\t * @dev Check whether or not _nameId is advocate of _id\n\t * @param _nameId The name ID to be checked\n\t * @param _id The ID to be checked\n\t * @return true if yes, false otherwise\n\t */\n\tfunction nameIsAdvocate(address _nameId, address _id) external view returns (bool) {\n\t\treturn (positionDetails[_id].created && positionDetails[_id].advocateId == _nameId);\n\t}\n\n\t/**\n\t * @dev Determine whether or not `_sender` is Advocate/Listener/Speaker of the Name/TAO\n\t * @param _sender The ETH address that to check\n\t * @param _id The ID of the Name/TAO\n\t * @return 1 if Advocate. 2 if Listener. 3 if Speaker\n\t */\n\tfunction determinePosition(address _sender, address _id) external view returns (uint256) {\n\t\trequire (this.senderIsPosition(_sender, _id));\n\t\tPositionDetail memory _positionDetail = positionDetails[_id];\n\t\taddress _nameId = _nameFactory.ethAddressToNameId(_sender);\n\t\tif (_nameId == _positionDetail.advocateId) {\n\t\t\treturn 1;\n\t\t} else if (_nameId == _positionDetail.listenerId) {\n\t\t\treturn 2;\n\t\t} else {\n\t\t\treturn 3;\n\t\t}\n\t}\n\n\t/**\n\t * @dev Initialize Position for a Name/TAO\n\t * @param _id The ID of the Name/TAO\n\t * @param _advocateId The Advocate ID of the Name/TAO\n\t * @param _listenerId The Listener ID of the Name/TAO\n\t * @param _speakerId The Speaker ID of the Name/TAO\n\t * @return true on success\n\t */\n\tfunction initialize(address _id, address _advocateId, address _listenerId, address _speakerId)\n\t\texternal\n\t\tisNameOrTAO(_id)\n\t\tisName(_advocateId)\n\t\tisNameOrTAO(_listenerId)\n\t\tisNameOrTAO(_speakerId)\n\t\tonlyFactory returns (bool) {\n\t\trequire (!isExist(_id));\n\n\t\tPositionDetail storage _positionDetail = positionDetails[_id];\n\t\t_positionDetail.advocateId = _advocateId;\n\t\t_positionDetail.listenerId = _listenerId;\n\t\t_positionDetail.speakerId = _speakerId;\n\t\t_positionDetail.created = true;\n\t\treturn true;\n\t}\n\n\t/**\n\t * @dev Get Name/TAO's Position info\n\t * @param _id The ID of the Name/TAO\n\t * @return the Advocate name\n\t * @return the Advocate ID of Name/TAO\n\t * @return the Listener name\n\t * @return the Listener ID of Name/TAO\n\t * @return the Speaker name\n\t * @return the Speaker ID of Name/TAO\n\t */\n\tfunction getPositionById(address _id) public view returns (string, address, string, address, string, address) {\n\t\trequire (isExist(_id));\n\t\tPositionDetail memory _positionDetail = positionDetails[_id];\n\t\treturn (\n\t\t\tTAO(_positionDetail.advocateId).name(),\n\t\t\t_positionDetail.advocateId,\n\t\t\tTAO(_positionDetail.listenerId).name(),\n\t\t\t_positionDetail.listenerId,\n\t\t\tTAO(_positionDetail.speakerId).name(),\n\t\t\t_positionDetail.speakerId\n\t\t);\n\t}\n\n\t/**\n\t * @dev Get Name/TAO's Advocate\n\t * @param _id The ID of the Name/TAO\n\t * @return the Advocate ID of Name/TAO\n\t */\n\tfunction getAdvocate(address _id) external view returns (address) {\n\t\trequire (isExist(_id));\n\t\tPositionDetail memory _positionDetail = positionDetails[_id];\n\t\treturn _positionDetail.advocateId;\n\t}\n\n\t/**\n\t * @dev Get Name/TAO's Listener\n\t * @param _id The ID of the Name/TAO\n\t * @return the Listener ID of Name/TAO\n\t */\n\tfunction getListener(address _id) public view returns (address) {\n\t\trequire (isExist(_id));\n\t\tPositionDetail memory _positionDetail = positionDetails[_id];\n\t\treturn _positionDetail.listenerId;\n\t}\n\n\t/**\n\t * @dev Get Name/TAO's Speaker\n\t * @param _id The ID of the Name/TAO\n\t * @return the Speaker ID of Name/TAO\n\t */\n\tfunction getSpeaker(address _id) public view returns (address) {\n\t\trequire (isExist(_id));\n\t\tPositionDetail memory _positionDetail = positionDetails[_id];\n\t\treturn _positionDetail.speakerId;\n\t}\n\n\t/**\n\t * @dev Set Advocate for a TAO\n\t * @param _taoId The ID of the TAO\n\t * @param _newAdvocateId The new advocate ID to be set\n\t */\n\tfunction setAdvocate(address _taoId, address _newAdvocateId)\n\t\tpublic\n\t\tisTAO(_taoId)\n\t\tisName(_newAdvocateId)\n\t\tonlyAdvocate(_taoId)\n\t\tsenderIsName\n\t\tsenderNameNotCompromised {\n\t\trequire (isExist(_taoId));\n\t\t// Make sure the newAdvocate is not compromised\n\t\trequire (!_nameAccountRecovery.isCompromised(_newAdvocateId));\n\t\t_setAdvocate(_taoId, _newAdvocateId);\n\t}\n\n\t/**\n\t * Only Advocate of Parent of `_taoId` can replace child `_taoId` 's Advocate with himself\n\t * @param _taoId The ID of the TAO\n\t */\n\tfunction parentReplaceChildAdvocate(address _taoId)\n\t\tpublic\n\t\tisTAO(_taoId)\n\t\tsenderIsName\n\t\tsenderNameNotCompromised {\n\t\trequire (isExist(_taoId));\n\t\trequire (senderIsAdvocateOfParent(msg.sender, _taoId));\n\t\taddress _parentNameId = _nameFactory.ethAddressToNameId(msg.sender);\n\t\taddress _currentAdvocateId = this.getAdvocate(_taoId);\n\n\t\t// Make sure it's not replacing itself\n\t\trequire (_parentNameId != _currentAdvocateId);\n\n\t\t// Parent has to have more Logos than current Advocate\n\t\trequire (_logos.sumBalanceOf(_parentNameId) > _logos.sumBalanceOf(this.getAdvocate(_taoId)));\n\n\t\t_setAdvocate(_taoId, _parentNameId);\n\t}\n\n\t/**\n\t * A Name challenges current TAO's Advocate to be its new Advocate\n\t * @param _taoId The ID of the TAO\n\t */\n\tfunction challengeTAOAdvocate(address _taoId)\n\t\tpublic\n\t\tisTAO(_taoId)\n\t\tsenderIsName\n\t\tsenderNameNotCompromised {\n\t\trequire (isExist(_taoId));\n\t\taddress _newAdvocateId = _nameFactory.ethAddressToNameId(msg.sender);\n\t\taddress _currentAdvocateId = this.getAdvocate(_taoId);\n\n\t\t// Make sure it's not challenging itself\n\t\trequire (_newAdvocateId != _currentAdvocateId);\n\n\t\t// New Advocate has to have more Logos than current Advocate\n\t\trequire (_logos.sumBalanceOf(_newAdvocateId) > _logos.sumBalanceOf(_currentAdvocateId));\n\n\t\t(uint256 _lockDuration, uint256 _completeDuration) = _getSettingVariables();\n\n\t\ttotalTAOAdvocateChallenges++;\n\t\tbytes32 _challengeId = keccak256(abi.encodePacked(this, _taoId, _newAdvocateId, totalTAOAdvocateChallenges));\n\t\tTAOAdvocateChallenge storage _taoAdvocateChallenge = taoAdvocateChallenges[_challengeId];\n\t\t_taoAdvocateChallenge.challengeId = _challengeId;\n\t\t_taoAdvocateChallenge.newAdvocateId = _newAdvocateId;\n\t\t_taoAdvocateChallenge.taoId = _taoId;\n\t\t_taoAdvocateChallenge.createdTimestamp = now;\n\t\t_taoAdvocateChallenge.lockedUntilTimestamp = _taoAdvocateChallenge.createdTimestamp.add(_lockDuration);\n\t\t_taoAdvocateChallenge.completeBeforeTimestamp = _taoAdvocateChallenge.lockedUntilTimestamp.add(_completeDuration);\n\n\t\temit ChallengeTAOAdvocate(_taoId, _challengeId, _currentAdvocateId, _newAdvocateId, _taoAdvocateChallenge.createdTimestamp, _taoAdvocateChallenge.lockedUntilTimestamp, _taoAdvocateChallenge.completeBeforeTimestamp);\n\t}\n\n\t/**\n\t * Get status of a TAOAdvocateChallenge given a `_challengeId` and a `_sender` eth address\n\t * @param _challengeId The ID of TAOAdvocateChallenge\n\t * @param _sender The sender address\n\t * @return status of the challenge\n\t *\t\t1 = Can complete challenge\n\t *\t\t2 = Challenge not exist\n\t *\t\t3 = Sender is not the creator of the challenge\n\t *\t\t4 = Transaction is not in the allowed period of time\n\t *\t\t5 = Challenge has been completed\n\t *\t\t6 = Challenger has less Logos than current Advocate of TAO\n\t */\n\tfunction getChallengeStatus(bytes32 _challengeId, address _sender) public view returns (uint8) {\n\t\taddress _challengerNameId = _nameFactory.ethAddressToNameId(_sender);\n\t\tTAOAdvocateChallenge storage _taoAdvocateChallenge = taoAdvocateChallenges[_challengeId];\n\n\t\t// If the challenge does not exist\n\t\tif (_taoAdvocateChallenge.taoId == address(0)) {\n\t\t\treturn 2;\n\t\t} else if (_challengerNameId != _taoAdvocateChallenge.newAdvocateId) {\n\t\t\t// If the calling address is not the creator of the challenge\n\t\t\treturn 3;\n\t\t} else if (now < _taoAdvocateChallenge.lockedUntilTimestamp || now > _taoAdvocateChallenge.completeBeforeTimestamp) {\n\t\t\t// If this transaction is not in the allowed period of time\n\t\t\treturn 4;\n\t\t} else if (_taoAdvocateChallenge.completed) {\n\t\t\t// If the challenge has been completed\n\t\t\treturn 5;\n\t\t} else if (_logos.sumBalanceOf(_challengerNameId) <= _logos.sumBalanceOf(this.getAdvocate(_taoAdvocateChallenge.taoId))) {\n\t\t\t// If challenger has less Logos than current Advocate of TAO\n\t\t\treturn 6;\n\t\t} else {\n\t\t\t// Can complete!\n\t\t\treturn 1;\n\t\t}\n\t}\n\n\t/**\n\t * Only owner of challenge can respond and complete of the challenge\n\t * @param _challengeId The ID of the TAOAdvocateChallenge\n\t */\n\tfunction completeTAOAdvocateChallenge(bytes32 _challengeId)\n\t\tpublic\n\t\tsenderIsName\n\t\tsenderNameNotCompromised {\n\t\tTAOAdvocateChallenge storage _taoAdvocateChallenge = taoAdvocateChallenges[_challengeId];\n\n\t\t// Make sure the challenger can complete this challenge\n\t\trequire (getChallengeStatus(_challengeId, msg.sender) == 1);\n\n\t\t_taoAdvocateChallenge.completed = true;\n\n\t\t_setAdvocate(_taoAdvocateChallenge.taoId, _taoAdvocateChallenge.newAdvocateId);\n\n\t\temit CompleteTAOAdvocateChallenge(_taoAdvocateChallenge.taoId, _challengeId);\n\t}\n\n\t/**\n\t * @dev Get TAOAdvocateChallenge info given an ID\n\t * @param _challengeId The ID of TAOAdvocateChallenge\n\t * @return the new Advocate ID in the challenge\n\t * @return the ID of Name/TAO\n\t * @return the completion status of the challenge\n\t * @return the created timestamp\n\t * @return the lockedUntil timestamp (The deadline for current Advocate to respond)\n\t * @return the completeBefore timestamp (The deadline for the challenger to respond and complete the challenge)\n\t */\n\tfunction getTAOAdvocateChallengeById(bytes32 _challengeId) public view returns (address, address, bool, uint256, uint256, uint256) {\n\t\tTAOAdvocateChallenge memory _taoAdvocateChallenge = taoAdvocateChallenges[_challengeId];\n\t\trequire (_taoAdvocateChallenge.taoId != address(0));\n\t\treturn (\n\t\t\t_taoAdvocateChallenge.newAdvocateId,\n\t\t\t_taoAdvocateChallenge.taoId,\n\t\t\t_taoAdvocateChallenge.completed,\n\t\t\t_taoAdvocateChallenge.createdTimestamp,\n\t\t\t_taoAdvocateChallenge.lockedUntilTimestamp,\n\t\t\t_taoAdvocateChallenge.completeBeforeTimestamp\n\t\t);\n\t}\n\n\t/**\n\t * @dev Set Listener for a Name/TAO\n\t * @param _id The ID of the Name/TAO\n\t * @param _newListenerId The new listener ID to be set\n\t */\n\tfunction setListener(address _id, address _newListenerId)\n\t\tpublic\n\t\tisNameOrTAO(_id)\n\t\tisNameOrTAO(_newListenerId)\n\t\tsenderIsName\n\t\tsenderNameNotCompromised\n\t\tonlyAdvocate(_id) {\n\t\trequire (isExist(_id));\n\n\t\t// If _id is a Name, then new Listener can only be a Name\n\t\t// If _id is a TAO, then new Listener can be a TAO/Name\n\t\tbool _isName = false;\n\t\tif (AOLibrary.isName(_id)) {\n\t\t\t_isName = true;\n\t\t\trequire (AOLibrary.isName(_newListenerId));\n\t\t\trequire (!_nameAccountRecovery.isCompromised(_id));\n\t\t\trequire (!_nameAccountRecovery.isCompromised(_newListenerId));\n\t\t}\n\n\t\tPositionDetail storage _positionDetail = positionDetails[_id];\n\t\taddress _currentListenerId = _positionDetail.listenerId;\n\t\t_positionDetail.listenerId = _newListenerId;\n\n\t\tif (_isName) {\n\t\t\tuint256 _nonce = _nameFactory.incrementNonce(_id);\n\t\t} else {\n\t\t\t_nonce = _taoFactory.incrementNonce(_id);\n\t\t}\n\t\temit SetListener(_id, _currentListenerId, _positionDetail.listenerId, _nonce);\n\t}\n\n\t/**\n\t * @dev Set Speaker for a Name/TAO\n\t * @param _id The ID of the Name/TAO\n\t * @param _newSpeakerId The new speaker ID to be set\n\t */\n\tfunction setSpeaker(address _id, address _newSpeakerId)\n\t\tpublic\n\t\tisNameOrTAO(_id)\n\t\tisNameOrTAO(_newSpeakerId)\n\t\tsenderIsName\n\t\tsenderNameNotCompromised\n\t\tonlyAdvocate(_id) {\n\t\trequire (isExist(_id));\n\n\t\t// If _id is a Name, then new Speaker can only be a Name\n\t\t// If _id is a TAO, then new Speaker can be a TAO/Name\n\t\tbool _isName = false;\n\t\tif (AOLibrary.isName(_id)) {\n\t\t\t_isName = true;\n\t\t\trequire (AOLibrary.isName(_newSpeakerId));\n\t\t\trequire (!_nameAccountRecovery.isCompromised(_id));\n\t\t\trequire (!_nameAccountRecovery.isCompromised(_newSpeakerId));\n\t\t}\n\n\t\tPositionDetail storage _positionDetail = positionDetails[_id];\n\t\taddress _currentSpeakerId = _positionDetail.speakerId;\n\t\t_positionDetail.speakerId = _newSpeakerId;\n\n\t\tif (_isName) {\n\t\t\tuint256 _nonce = _nameFactory.incrementNonce(_id);\n\t\t} else {\n\t\t\t_nonce = _taoFactory.incrementNonce(_id);\n\t\t}\n\t\temit SetSpeaker(_id, _currentSpeakerId, _positionDetail.speakerId, _nonce);\n\t}\n\n\t/***** INTERNAL METHOD *****/\n\t/**\n\t * @dev Actually setting Advocate for a TAO\n\t * @param _taoId The ID of the TAO\n\t * @param _newAdvocateId The new advocate ID to be set\n\t */\n\tfunction _setAdvocate(address _taoId, address _newAdvocateId) internal {\n\t\tPositionDetail storage _positionDetail = positionDetails[_taoId];\n\t\taddress _currentAdvocateId = _positionDetail.advocateId;\n\t\t_positionDetail.advocateId = _newAdvocateId;\n\n\t\tuint256 _nonce = _taoFactory.incrementNonce(_taoId);\n\t\trequire (_nonce > 0);\n\n\t\t// Transfer Advocated TAO Logos to the new Advocate\n\t\trequire (_logos.transferAdvocatedTAOLogos(_currentAdvocateId, _taoId));\n\n\t\temit SetAdvocate(_taoId, _currentAdvocateId, _positionDetail.advocateId, _nonce);\n\t}\n\n\t/**\n\t * @dev Get setting variables\n\t * @return challengeTAOAdvocateLockDuration = The amount of time for current Advocate to respond to TAO Advocate challenge from another Name\n\t * @return challengeTAOAdvocateCompleteDuration = The amount of time for challenger Advocate to respond and complete the challenge after the lock period ends\n\t */\n\tfunction _getSettingVariables() internal view returns (uint256, uint256) {\n\t\t(uint256 challengeTAOAdvocateLockDuration,,,,) = _aoSetting.getSettingValuesByTAOName(settingTAOId, 'challengeTAOAdvocateLockDuration');\n\t\t(uint256 challengeTAOAdvocateCompleteDuration,,,,) = _aoSetting.getSettingValuesByTAOName(settingTAOId, 'challengeTAOAdvocateCompleteDuration');\n\n\t\treturn (\n\t\t\tchallengeTAOAdvocateLockDuration,\n\t\t\tchallengeTAOAdvocateCompleteDuration\n\t\t);\n\t}\n}\n",
	"sourcePath": "/Users/johanmulyono/Work/AO/ao-contracts/contracts/NameTAOPosition.sol",
	"compiler": {
		"name": "solc",
		"version": "0.4.24+commit.e67f0147.Emscripten.clang"
	},
	"schemaVersion": "2.0.1",
	"updatedAt": "2019-02-11T10:27:02.809Z"
}