{
	"contractName": "NameFactory",
	"abi": [
		{
			"constant": true,
			"inputs": [],
			"name": "voiceAddress",
			"outputs": [
				{
					"name": "",
					"type": "address"
				}
			],
			"payable": false,
			"stateMutability": "view",
			"type": "function"
		},
		{
			"constant": true,
			"inputs": [],
			"name": "nameTAOPositionAddress",
			"outputs": [
				{
					"name": "",
					"type": "address"
				}
			],
			"payable": false,
			"stateMutability": "view",
			"type": "function"
		},
		{
			"constant": true,
			"inputs": [
				{
					"name": "",
					"type": "address"
				}
			],
			"name": "whitelist",
			"outputs": [
				{
					"name": "",
					"type": "bool"
				}
			],
			"payable": false,
			"stateMutability": "view",
			"type": "function"
		},
		{
			"constant": true,
			"inputs": [],
			"name": "nameAccountRecoveryAddress",
			"outputs": [
				{
					"name": "",
					"type": "address"
				}
			],
			"payable": false,
			"stateMutability": "view",
			"type": "function"
		},
		{
			"constant": true,
			"inputs": [],
			"name": "theAO",
			"outputs": [
				{
					"name": "",
					"type": "address"
				}
			],
			"payable": false,
			"stateMutability": "view",
			"type": "function"
		},
		{
			"constant": true,
			"inputs": [],
			"name": "nameTAOVaultAddress",
			"outputs": [
				{
					"name": "",
					"type": "address"
				}
			],
			"payable": false,
			"stateMutability": "view",
			"type": "function"
		},
		{
			"constant": true,
			"inputs": [],
			"name": "namePublicKeyAddress",
			"outputs": [
				{
					"name": "",
					"type": "address"
				}
			],
			"payable": false,
			"stateMutability": "view",
			"type": "function"
		},
		{
			"constant": true,
			"inputs": [],
			"name": "nameTAOLookupAddress",
			"outputs": [
				{
					"name": "",
					"type": "address"
				}
			],
			"payable": false,
			"stateMutability": "view",
			"type": "function"
		},
		{
			"inputs": [
				{
					"name": "_voiceAddress",
					"type": "address"
				}
			],
			"payable": false,
			"stateMutability": "nonpayable",
			"type": "constructor"
		},
		{
			"anonymous": false,
			"inputs": [
				{
					"indexed": true,
					"name": "ethAddress",
					"type": "address"
				},
				{
					"indexed": false,
					"name": "nameId",
					"type": "address"
				},
				{
					"indexed": false,
					"name": "index",
					"type": "uint256"
				},
				{
					"indexed": false,
					"name": "name",
					"type": "string"
				}
			],
			"name": "CreateName",
			"type": "event"
		},
		{
			"constant": false,
			"inputs": [
				{
					"name": "_theAO",
					"type": "address"
				}
			],
			"name": "transferOwnership",
			"outputs": [],
			"payable": false,
			"stateMutability": "nonpayable",
			"type": "function"
		},
		{
			"constant": false,
			"inputs": [
				{
					"name": "_account",
					"type": "address"
				},
				{
					"name": "_whitelist",
					"type": "bool"
				}
			],
			"name": "setWhitelist",
			"outputs": [],
			"payable": false,
			"stateMutability": "nonpayable",
			"type": "function"
		},
		{
			"constant": false,
			"inputs": [
				{
					"name": "_voiceAddress",
					"type": "address"
				}
			],
			"name": "setVoiceAddress",
			"outputs": [],
			"payable": false,
			"stateMutability": "nonpayable",
			"type": "function"
		},
		{
			"constant": false,
			"inputs": [
				{
					"name": "_nameTAOVaultAddress",
					"type": "address"
				}
			],
			"name": "setNameTAOVaultAddress",
			"outputs": [],
			"payable": false,
			"stateMutability": "nonpayable",
			"type": "function"
		},
		{
			"constant": false,
			"inputs": [
				{
					"name": "_nameTAOLookupAddress",
					"type": "address"
				}
			],
			"name": "setNameTAOLookupAddress",
			"outputs": [],
			"payable": false,
			"stateMutability": "nonpayable",
			"type": "function"
		},
		{
			"constant": false,
			"inputs": [
				{
					"name": "_nameTAOPositionAddress",
					"type": "address"
				}
			],
			"name": "setNameTAOPositionAddress",
			"outputs": [],
			"payable": false,
			"stateMutability": "nonpayable",
			"type": "function"
		},
		{
			"constant": false,
			"inputs": [
				{
					"name": "_namePublicKeyAddress",
					"type": "address"
				}
			],
			"name": "setNamePublicKeyAddress",
			"outputs": [],
			"payable": false,
			"stateMutability": "nonpayable",
			"type": "function"
		},
		{
			"constant": false,
			"inputs": [
				{
					"name": "_nameAccountRecoveryAddress",
					"type": "address"
				}
			],
			"name": "setNameAccountRecoveryAddress",
			"outputs": [],
			"payable": false,
			"stateMutability": "nonpayable",
			"type": "function"
		},
		{
			"constant": false,
			"inputs": [
				{
					"name": "_id",
					"type": "address"
				},
				{
					"name": "_newAddress",
					"type": "address"
				}
			],
			"name": "setNameNewAddress",
			"outputs": [
				{
					"name": "",
					"type": "bool"
				}
			],
			"payable": false,
			"stateMutability": "nonpayable",
			"type": "function"
		},
		{
			"constant": true,
			"inputs": [
				{
					"name": "_nameId",
					"type": "address"
				}
			],
			"name": "nonces",
			"outputs": [
				{
					"name": "",
					"type": "uint256"
				}
			],
			"payable": false,
			"stateMutability": "view",
			"type": "function"
		},
		{
			"constant": false,
			"inputs": [
				{
					"name": "_nameId",
					"type": "address"
				}
			],
			"name": "incrementNonce",
			"outputs": [
				{
					"name": "",
					"type": "uint256"
				}
			],
			"payable": false,
			"stateMutability": "nonpayable",
			"type": "function"
		},
		{
			"constant": false,
			"inputs": [
				{
					"name": "_name",
					"type": "string"
				},
				{
					"name": "_datHash",
					"type": "string"
				},
				{
					"name": "_database",
					"type": "string"
				},
				{
					"name": "_keyValue",
					"type": "string"
				},
				{
					"name": "_contentId",
					"type": "bytes32"
				}
			],
			"name": "createName",
			"outputs": [],
			"payable": false,
			"stateMutability": "nonpayable",
			"type": "function"
		},
		{
			"constant": true,
			"inputs": [
				{
					"name": "_ethAddress",
					"type": "address"
				}
			],
			"name": "ethAddressToNameId",
			"outputs": [
				{
					"name": "",
					"type": "address"
				}
			],
			"payable": false,
			"stateMutability": "view",
			"type": "function"
		},
		{
			"constant": true,
			"inputs": [
				{
					"name": "_nameId",
					"type": "address"
				}
			],
			"name": "nameIdToEthAddress",
			"outputs": [
				{
					"name": "",
					"type": "address"
				}
			],
			"payable": false,
			"stateMutability": "view",
			"type": "function"
		},
		{
			"constant": true,
			"inputs": [
				{
					"name": "_nameId",
					"type": "address"
				}
			],
			"name": "getName",
			"outputs": [
				{
					"name": "",
					"type": "string"
				},
				{
					"name": "",
					"type": "address"
				},
				{
					"name": "",
					"type": "string"
				},
				{
					"name": "",
					"type": "string"
				},
				{
					"name": "",
					"type": "string"
				},
				{
					"name": "",
					"type": "bytes32"
				},
				{
					"name": "",
					"type": "uint8"
				}
			],
			"payable": false,
			"stateMutability": "view",
			"type": "function"
		},
		{
			"constant": true,
			"inputs": [],
			"name": "getTotalNamesCount",
			"outputs": [
				{
					"name": "",
					"type": "uint256"
				}
			],
			"payable": false,
			"stateMutability": "view",
			"type": "function"
		},
		{
			"constant": true,
			"inputs": [
				{
					"name": "_from",
					"type": "uint256"
				},
				{
					"name": "_to",
					"type": "uint256"
				}
			],
			"name": "getNameIds",
			"outputs": [
				{
					"name": "",
					"type": "address[]"
				}
			],
			"payable": false,
			"stateMutability": "view",
			"type": "function"
		},
		{
			"constant": true,
			"inputs": [
				{
					"name": "_data",
					"type": "string"
				},
				{
					"name": "_nonce",
					"type": "uint256"
				},
				{
					"name": "_validateAddress",
					"type": "address"
				},
				{
					"name": "_name",
					"type": "string"
				},
				{
					"name": "_signatureV",
					"type": "uint8"
				},
				{
					"name": "_signatureR",
					"type": "bytes32"
				},
				{
					"name": "_signatureS",
					"type": "bytes32"
				}
			],
			"name": "validateNameSignature",
			"outputs": [
				{
					"name": "",
					"type": "bool"
				}
			],
			"payable": false,
			"stateMutability": "view",
			"type": "function"
		}
	],
	"bytecode": "0x60806040523480156200001157600080fd5b50604051602080620027c5833981016040525160008054600160a060020a031916331790556200004a8164010000000062000051810204565b5062000159565b600054600154604080517ff66afcac000000000000000000000000000000000000000000000000000000008152336004820152600160a060020a0393841660248201529290911660448301525173__AOLibrary_____________________________9163f66afcac916064808301926020929190829003018186803b158015620000da57600080fd5b505af4158015620000ef573d6000803e3d6000fd5b505050506040513d60208110156200010657600080fd5b505115156200011457600080fd5b600160a060020a03811615156200012a57600080fd5b60038054600160a060020a0319908116600160a060020a03938416179182905560088054929093169116179055565b61265c80620001696000396000f30060806040526004361061013a5763ffffffff60e060020a600035041663029b7d53811461013f57806319d4cc311461017c5780631dfde2bd1461019f5780632b3fd4a0146101c05780632d2f45b9146101fb5780633670832e14610210578063419e6e5c146102315780634ef033f01461025857806353d6fd591461026d5780635cfaf2ef146102935780635fd4b08a146102b45780636d9aa034146104a7578063743ab538146104c85780637ecebe00146105845780639b19251a146105a5578063a4e5fad2146105c6578063a9b6b38e146105db578063afb2dd87146105f0578063d8ce52d114610605578063df2721f01461061a578063e20573441461062f578063e9233a6514610650578063f2fde38b146106bb578063f46da084146106dc578063f5743c4c146107f1578063fc86202714610812575b600080fd5b34801561014b57600080fd5b50610160600160a060020a0360043516610833565b60408051600160a060020a039092168252519081900360200190f35b34801561018857600080fd5b5061019d600160a060020a0360043516610851565b005b3480156101ab57600080fd5b5061019d600160a060020a036004351661093e565b3480156101cc57600080fd5b506101e7600160a060020a0360043581169060243516610a2b565b604080519115158252519081900360200190f35b34801561020757600080fd5b50610160610bb2565b34801561021c57600080fd5b5061019d600160a060020a0360043516610bc1565b34801561023d57600080fd5b50610246610ca1565b60408051918252519081900360200190f35b34801561026457600080fd5b50610160610ca7565b34801561027957600080fd5b5061019d600160a060020a03600435166024351515610cb6565b34801561029f57600080fd5b5061019d600160a060020a0360043516610d9f565b3480156102c057600080fd5b506102d5600160a060020a0360043516610e8c565b60408051600160a060020a03881660208083019190915260a0820185905260ff841660c083015260e08083528a51908301528951919283929083019160608401916080850191610100860191908e019080838360005b8381101561034357818101518382015260200161032b565b50505050905090810190601f1680156103705780820380516001836020036101000a031916815260200191505b5085810384528a5181528a516020918201918c019080838360005b838110156103a357818101518382015260200161038b565b50505050905090810190601f1680156103d05780820380516001836020036101000a031916815260200191505b5085810383528951815289516020918201918b019080838360005b838110156104035781810151838201526020016103eb565b50505050905090810190601f1680156104305780820380516001836020036101000a031916815260200191505b5085810382528851815288516020918201918a019080838360005b8381101561046357818101518382015260200161044b565b50505050905090810190601f1680156104905780820380516001836020036101000a031916815260200191505b509b50505050505050505050505060405180910390f35b3480156104b357600080fd5b5061019d600160a060020a036004351661134c565b3480156104d457600080fd5b506040805160206004803580820135601f81018490048402850184019095528484526101e794369492936024939284019190819084018382808284375050604080516020888301358a018035601f8101839004830284018301909452838352979a89359a8a830135600160a060020a03169a919990985060609091019650919450908101925081908401838280828437509497505050833560ff1694505050602082013591604001359050611439565b34801561059057600080fd5b50610246600160a060020a0360043516611827565b3480156105b157600080fd5b506101e7600160a060020a0360043516611842565b3480156105d257600080fd5b50610160611857565b3480156105e757600080fd5b50610160611866565b3480156105fc57600080fd5b50610160611875565b34801561061157600080fd5b50610160611884565b34801561062657600080fd5b50610160611893565b34801561063b57600080fd5b50610160600160a060020a03600435166118a2565b34801561065c57600080fd5b5061066b6004356024356118c0565b60408051602080825283518183015283519192839290830191858101910280838360005b838110156106a757818101518382015260200161068f565b505050509050019250505060405180910390f35b3480156106c757600080fd5b5061019d600160a060020a03600435166119de565b3480156106e857600080fd5b506040805160206004803580820135601f810184900484028501840190955284845261019d94369492936024939284019190819084018382808284375050604080516020601f89358b018035918201839004830284018301909452808352979a99988101979196509182019450925082915084018382808284375050604080516020601f89358b018035918201839004830284018301909452808352979a99988101979196509182019450925082915084018382808284375050604080516020601f89358b018035918201839004830284018301909452808352979a9998810197919650918201945092508291508401838280828437509497505093359450611abe9350505050565b3480156107fd57600080fd5b50610246600160a060020a036004351661233b565b34801561081e57600080fd5b5061019d600160a060020a03600435166123c8565b600160a060020a039081166000908152600e60205260409020541690565b6000546001546040805160e260020a633d9abf2b028152336004820152600160a060020a0393841660248201529290911660448301525173__AOLibrary_____________________________9163f66afcac916064808301926020929190829003018186803b1580156108c357600080fd5b505af41580156108d7573d6000803e3d6000fd5b505050506040513d60208110156108ed57600080fd5b505115156108fa57600080fd5b600160a060020a038116151561090f57600080fd5b60038054600160a060020a0319908116600160a060020a03938416179182905560088054929093169116179055565b6000546001546040805160e260020a633d9abf2b028152336004820152600160a060020a0393841660248201529290911660448301525173__AOLibrary_____________________________9163f66afcac916064808301926020929190829003018186803b1580156109b057600080fd5b505af41580156109c4573d6000803e3d6000fd5b505050506040513d60208110156109da57600080fd5b505115156109e757600080fd5b600160a060020a03811615156109fc57600080fd5b60078054600160a060020a0319908116600160a060020a039384161791829055600c8054929093169116179055565b6007546000908190600160a060020a03163314610a4757600080fd5b604080517f2d706a34000000000000000000000000000000000000000000000000000000008152600160a060020a0386166004820152905173__AOLibrary_____________________________91632d706a34916024808301926020929190829003018186803b158015610aba57600080fd5b505af4158015610ace573d6000803e3d6000fd5b505050506040513d6020811015610ae457600080fd5b50511515610af157600080fd5b600160a060020a0383161515610b0657600080fd5b600160a060020a038381166000908152600e60205260409020541615610b2b57600080fd5b600160a060020a038481166000908152600f6020526040902054161515610b5157600080fd5b5050600160a060020a039182166000818152600f60208181526040808420805488168552600e83528185208054600160a060020a03199081169091559690971680855290842080548716861790559390925290528254909116179055600190565b600354600160a060020a031681565b6000546001546040805160e260020a633d9abf2b028152336004820152600160a060020a0393841660248201529290911660448301525173__AOLibrary_____________________________9163f66afcac916064808301926020929190829003018186803b158015610c3357600080fd5b505af4158015610c47573d6000803e3d6000fd5b505050506040513d6020811015610c5d57600080fd5b50511515610c6a57600080fd5b600160a060020a0381161515610c7f57600080fd5b60048054600160a060020a031916600160a060020a0392909216919091179055565b600d5490565b600154600160a060020a031681565b6000546001546040805160e260020a633d9abf2b028152336004820152600160a060020a0393841660248201529290911660448301525173__AOLibrary_____________________________9163f66afcac916064808301926020929190829003018186803b158015610d2857600080fd5b505af4158015610d3c573d6000803e3d6000fd5b505050506040513d6020811015610d5257600080fd5b50511515610d5f57600080fd5b600160a060020a0382161515610d7457600080fd5b600160a060020a03919091166000908152600260205260409020805460ff1916911515919091179055565b6000546001546040805160e260020a633d9abf2b028152336004820152600160a060020a0393841660248201529290911660448301525173__AOLibrary_____________________________9163f66afcac916064808301926020929190829003018186803b158015610e1157600080fd5b505af4158015610e25573d6000803e3d6000fd5b505050506040513d6020811015610e3b57600080fd5b50511515610e4857600080fd5b600160a060020a0381161515610e5d57600080fd5b60018054600160a060020a0319908116600160a060020a039384161791829055600a8054929093169116179055565b606060006060806060600080600088905080600160a060020a03166306fdde036040518163ffffffff1660e060020a028152600401600060405180830381600087803b158015610edb57600080fd5b505af1158015610eef573d6000803e3d6000fd5b505050506040513d6000823e601f3d908101601f191682016040526020811015610f1857600080fd5b810190808051640100000000811115610f3057600080fd5b82016020810184811115610f4357600080fd5b8151640100000000811182820187101715610f5d57600080fd5b505092919050505081600160a060020a03166313866efa6040518163ffffffff1660e060020a028152600401602060405180830381600087803b158015610fa357600080fd5b505af1158015610fb7573d6000803e3d6000fd5b505050506040513d6020811015610fcd57600080fd5b5051604080517f056847900000000000000000000000000000000000000000000000000000000081529051600160a060020a03851691630568479091600480830192600092919082900301818387803b15801561102957600080fd5b505af115801561103d573d6000803e3d6000fd5b505050506040513d6000823e601f3d908101601f19168201604052602081101561106657600080fd5b81019080805164010000000081111561107e57600080fd5b8201602081018481111561109157600080fd5b81516401000000008111828201871017156110ab57600080fd5b505092919050505083600160a060020a031663713b563f6040518163ffffffff1660e060020a028152600401600060405180830381600087803b1580156110f157600080fd5b505af1158015611105573d6000803e3d6000fd5b505050506040513d6000823e601f3d908101601f19168201604052602081101561112e57600080fd5b81019080805164010000000081111561114657600080fd5b8201602081018481111561115957600080fd5b815164010000000081118282018710171561117357600080fd5b505092919050505084600160a060020a031663a727be576040518163ffffffff1660e060020a028152600401600060405180830381600087803b1580156111b957600080fd5b505af11580156111cd573d6000803e3d6000fd5b505050506040513d6000823e601f3d908101601f1916820160405260208110156111f657600080fd5b81019080805164010000000081111561120e57600080fd5b8201602081018481111561122157600080fd5b815164010000000081118282018710171561123b57600080fd5b505092919050505085600160a060020a031663d97aa9776040518163ffffffff1660e060020a028152600401602060405180830381600087803b15801561128157600080fd5b505af1158015611295573d6000803e3d6000fd5b505050506040513d60208110156112ab57600080fd5b5051604080517f8f940f630000000000000000000000000000000000000000000000000000000081529051600160a060020a03891691638f940f639160048083019260209291908290030181600087803b15801561130857600080fd5b505af115801561131c573d6000803e3d6000fd5b505050506040513d602081101561133257600080fd5b5051959f949e50929c50909a509850965090945092505050565b6000546001546040805160e260020a633d9abf2b028152336004820152600160a060020a0393841660248201529290911660448301525173__AOLibrary_____________________________9163f66afcac916064808301926020929190829003018186803b1580156113be57600080fd5b505af41580156113d2573d6000803e3d6000fd5b505050506040513d60208110156113e857600080fd5b505115156113f557600080fd5b600160a060020a038116151561140a57600080fd5b60068054600160a060020a0319908116600160a060020a039384161791829055600b8054929093169116179055565b6009546040517f4d3d096b00000000000000000000000000000000000000000000000000000000815260206004820181815287516024840152875160009485948594600160a060020a0390921693634d3d096b938c9391928392604490910191908501908083838b5b838110156114ba5781810151838201526020016114a2565b50505050905090810190601f1680156114e75780820380516001836020036101000a031916815260200191505b5092505050602060405180830381600087803b15801561150657600080fd5b505af115801561151a573d6000803e3d6000fd5b505050506040513d602081101561153057600080fd5b5051151561153d57600080fd5b6009546040517f1367944b0000000000000000000000000000000000000000000000000000000081526020600482018181528a5160248401528a51600160a060020a0390941693631367944b938c9383926044909201919085019080838360005b838110156115b657818101518382015260200161159e565b50505050905090810190601f1680156115e35780820380516001836020036101000a031916815260200191505b5092505050602060405180830381600087803b15801561160257600080fd5b505af1158015611616573d6000803e3d6000fd5b505050506040513d602081101561162c57600080fd5b5051915061163d8a8a8888886124b5565b9050600160a060020a0388161561174257600160a060020a03821660009081526010602052604090205461167890600163ffffffff61260b16565b89148015611697575087600160a060020a031681600160a060020a0316145b801561173b5750600b54604080517fa481247c000000000000000000000000000000000000000000000000000000008152600160a060020a0385811660048301528b811660248301529151919092169163a481247c9160448083019260209291908290030181600087803b15801561170e57600080fd5b505af1158015611722573d6000803e3d6000fd5b505050506040513d602081101561173857600080fd5b50515b925061181a565b600160a060020a03821660009081526010602052604090205461176c90600163ffffffff61260b16565b8914801561173b5750600b54604080517fdb536d2f000000000000000000000000000000000000000000000000000000008152600160a060020a0385811660048301529151919092169163db536d2f9160248083019260209291908290030181600087803b1580156117dd57600080fd5b505af11580156117f1573d6000803e3d6000fd5b505050506040513d602081101561180757600080fd5b5051600160a060020a0382811691161492505b5050979650505050505050565b600160a060020a031660009081526010602052604090205490565b60026020526000908152604090205460ff1681565b600754600160a060020a031681565b600054600160a060020a031681565b600454600160a060020a031681565b600654600160a060020a031681565b600554600160a060020a031681565b600160a060020a039081166000908152600f60205260409020541690565b60608060008085101580156118d55750848410155b15156118e057600080fd5b600d546000106118ef57600080fd5b6119106001611904868863ffffffff61261e16565b9063ffffffff61260b16565b604051908082528060200260200182016040528015611939578160200160208202803883390190505b50600d5490925061195190600163ffffffff61261e16565b84111561196f57600d5461196c90600163ffffffff61261e16565b93505b50835b8381116119d657600d80548290811061198757fe5b600091825260209091200154600160a060020a0316826119ad838863ffffffff61261e16565b815181106119b757fe5b600160a060020a03909216602092830290910190910152600101611972565b509392505050565b6000546001546040805160e260020a633d9abf2b028152336004820152600160a060020a0393841660248201529290911660448301525173__AOLibrary_____________________________9163f66afcac916064808301926020929190829003018186803b158015611a5057600080fd5b505af4158015611a64573d6000803e3d6000fd5b505050506040513d6020811015611a7a57600080fd5b50511515611a8757600080fd5b600160a060020a0381161515611a9c57600080fd5b60008054600160a060020a031916600160a060020a0392909216919091179055565b6000808651111515611acf57600080fd5b6009546040517f4d3d096b000000000000000000000000000000000000000000000000000000008152602060048201818152895160248401528951600160a060020a0390941693634d3d096b938b9383926044909201919085019080838360005b83811015611b48578181015183820152602001611b30565b50505050905090810190601f168015611b755780820380516001836020036101000a031916815260200191505b5092505050602060405180830381600087803b158015611b9457600080fd5b505af1158015611ba8573d6000803e3d6000fd5b505050506040513d6020811015611bbe57600080fd5b505115611bca57600080fd5b336000908152600e6020526040902054600160a060020a031615611bed57600080fd5b600480546040517fa1e79750000000000000000000000000000000000000000000000000000000008152336024820181905260a48201869052600160a060020a0390921660c4820181905260e0938201938452895160e4830152895173__AOLibrary_____________________________9463a1e79750948c9490938c938c938c938c939282916044810191606482019160848101916101049091019060208e019080838360005b83811015611cad578181015183820152602001611c95565b50505050905090810190601f168015611cda5780820380516001836020036101000a031916815260200191505b5085810384528a5181528a516020918201918c019080838360005b83811015611d0d578181015183820152602001611cf5565b50505050905090810190601f168015611d3a5780820380516001836020036101000a031916815260200191505b5085810383528951815289516020918201918b019080838360005b83811015611d6d578181015183820152602001611d55565b50505050905090810190601f168015611d9a5780820380516001836020036101000a031916815260200191505b5085810382528851815288516020918201918a019080838360005b83811015611dcd578181015183820152602001611db5565b50505050905090810190601f168015611dfa5780820380516001836020036101000a031916815260200191505b509b50505050505050505050505060206040518083038186803b158015611e2057600080fd5b505af4158015611e34573d6000803e3d6000fd5b505050506040513d6020811015611e4a57600080fd5b5051600160a060020a038082166000908152600f60205260409020549192501615611e7457600080fd5b600160a060020a0380821660008181526010602090815260408083208054600190810190915533808552600e84528285208054600160a060020a03199081168817909155868652600f855283862080549091168217905560095492517faaa9165a00000000000000000000000000000000000000000000000000000000815260248101969096526044860182905260848601819052600260a4870181905260c0600488019081528e5160c48901528e51949098169763aaa9165a978f978b9795969495939492938493606484019360e40192918b01918190849084905b83811015611f69578181015183820152602001611f51565b50505050905090810190601f168015611f965780820380516001836020036101000a031916815260200191505b50838103825260058152602001807f68756d616e000000000000000000000000000000000000000000000000000000815250602001975050505050505050602060405180830381600087803b158015611fee57600080fd5b505af1158015612002573d6000803e3d6000fd5b505050506040513d602081101561201857600080fd5b5051151561202557600080fd5b600a54604080517ff8c8765e000000000000000000000000000000000000000000000000000000008152600160a060020a0384811660048301819052602483018190526044830181905260648301529151919092169163f8c8765e9160848083019260209291908290030181600087803b1580156120a257600080fd5b505af11580156120b6573d6000803e3d6000fd5b505050506040513d60208110156120cc57600080fd5b505115156120d957600080fd5b600b54604080517f485cc955000000000000000000000000000000000000000000000000000000008152600160a060020a0384811660048301523360248301529151919092169163485cc9559160448083019260209291908290030181600087803b15801561214757600080fd5b505af115801561215b573d6000803e3d6000fd5b505050506040513d602081101561217157600080fd5b5051151561217e57600080fd5b600d805460018101825560009182527fd7b6990105719101dabeb77144f2a3385c8033acd3af97e9423a695e81ad1eb5018054600160a060020a031916600160a060020a03848116918217909255600854604080517f6a627842000000000000000000000000000000000000000000000000000000008152600481019390935251921692636a627842926024808401936020939083900390910190829087803b15801561222a57600080fd5b505af115801561223e573d6000803e3d6000fd5b505050506040513d602081101561225457600080fd5b5051151561226157600080fd5b600d5433907fdd445519212181802441b3ea8a0080462d25346f8279d9de28b7a64365d5f2fa90839061229b90600163ffffffff61261e16565b896040518084600160a060020a0316600160a060020a0316815260200183815260200180602001828103825283818151815260200191508051906020019080838360005b838110156122f75781810151838201526020016122df565b50505050905090810190601f1680156123245780820380516001836020036101000a031916815260200191505b5094505050505060405180910390a2505050505050565b600154600090600160a060020a03163314806123615750600654600160a060020a031633145b806123765750600754600160a060020a031633145b151561238157600080fd5b600160a060020a038216600090815260106020526040812054116123a457600080fd5b50600160a060020a0316600090815260106020526040902080546001019081905590565b6000546001546040805160e260020a633d9abf2b028152336004820152600160a060020a0393841660248201529290911660448301525173__AOLibrary_____________________________9163f66afcac916064808301926020929190829003018186803b15801561243a57600080fd5b505af415801561244e573d6000803e3d6000fd5b505050506040513d602081101561246457600080fd5b5051151561247157600080fd5b600160a060020a038116151561248657600080fd5b60058054600160a060020a0319908116600160a060020a03938416179182905560098054929093169116179055565b6000803087876040516020018084600160a060020a0316600160a060020a03166c0100000000000000000000000002815260140183805190602001908083835b602083106125145780518252601f1990920191602091820191016124f5565b51815160209384036101000a60001901801990921691161790529201938452506040805180850381529382019081905283519395509350839290850191508083835b602083106125755780518252601f199092019160209182019101612556565b51815160209384036101000a600019018019909216911617905260408051929094018290038220600080845283830180875282905260ff8d1684870152606084018c9052608084018b905294519097506001965060a080840196509194601f19820194509281900390910191865af11580156125f5573d6000803e3d6000fd5b5050604051601f19015198975050505050505050565b8181018281101561261857fe5b92915050565b60008282111561262a57fe5b509003905600a165627a7a72305820da8a041a6e6d948320200c04551f8edd9e24bc8dfbdf5c0497288eb4ee937fb40029",
	"source": "pragma solidity ^0.4.24;\n\nimport './SafeMath.sol';\nimport './AOLibrary.sol';\nimport './TheAO.sol';\nimport './INameFactory.sol';\nimport './Name.sol';\nimport './Voice.sol';\nimport './INameTAOLookup.sol';\nimport './INameTAOPosition.sol';\nimport './INamePublicKey.sol';\nimport './INameAccountRecovery.sol';\n\n/**\n * @title NameFactory\n *\n * The purpose of this contract is to allow node to create Name\n */\ncontract NameFactory is TheAO, INameFactory {\n\tusing SafeMath for uint256;\n\n\taddress public voiceAddress;\n\taddress public nameTAOVaultAddress;\n\taddress public nameTAOLookupAddress;\n\taddress public namePublicKeyAddress;\n\taddress public nameAccountRecoveryAddress;\n\n\tVoice internal _voice;\n\tINameTAOLookup internal _nameTAOLookup;\n\tINameTAOPosition internal _nameTAOPosition;\n\tINamePublicKey internal _namePublicKey;\n\tINameAccountRecovery internal _nameAccountRecovery;\n\n\taddress[] internal names;\n\n\t// Mapping from eth address to Name ID\n\tmapping (address => address) internal _ethAddressToNameId;\n\n\t// Mapping from Name ID to eth address\n\tmapping (address => address) internal _nameIdToEthAddress;\n\n\t// Mapping from Name ID to its nonce\n\tmapping (address => uint256) internal _nonces;\n\n\t// Event to be broadcasted to public when a Name is created\n\tevent CreateName(address indexed ethAddress, address nameId, uint256 index, string name);\n\n\t/**\n\t * @dev Constructor function\n\t */\n\tconstructor(address _voiceAddress) public {\n\t\tsetVoiceAddress(_voiceAddress);\n\t}\n\n\t/**\n\t * @dev Checks if the calling contract address is The AO\n\t *\t\tOR\n\t *\t\tIf The AO is set to a Name/TAO, then check if calling address is the Advocate\n\t */\n\tmodifier onlyTheAO {\n\t\trequire (AOLibrary.isTheAO(msg.sender, theAO, nameTAOPositionAddress));\n\t\t_;\n\t}\n\n\t/**\n\t * @dev Checks if calling address can update Name's nonce\n\t */\n\tmodifier canUpdateNonce {\n\t\trequire (msg.sender == nameTAOPositionAddress || msg.sender == namePublicKeyAddress || msg.sender == nameAccountRecoveryAddress);\n\t\t_;\n\t}\n\n\t/***** The AO ONLY METHODS *****/\n\t/**\n\t * @dev Transfer ownership of The AO to new address\n\t * @param _theAO The new address to be transferred\n\t */\n\tfunction transferOwnership(address _theAO) public onlyTheAO {\n\t\trequire (_theAO != address(0));\n\t\ttheAO = _theAO;\n\t}\n\n\t/**\n\t * @dev Whitelist `_account` address to transact on behalf of others\n\t * @param _account The address to whitelist\n\t * @param _whitelist Either to whitelist or not\n\t */\n\tfunction setWhitelist(address _account, bool _whitelist) public onlyTheAO {\n\t\trequire (_account != address(0));\n\t\twhitelist[_account] = _whitelist;\n\t}\n\n\t/**\n\t * @dev The AO set the Voice Address\n\t * @param _voiceAddress The address of Voice\n\t */\n\tfunction setVoiceAddress(address _voiceAddress) public onlyTheAO {\n\t\trequire (_voiceAddress != address(0));\n\t\tvoiceAddress = _voiceAddress;\n\t\t_voice = Voice(voiceAddress);\n\t}\n\n\t/**\n\t * @dev The AO set the NameTAOVault Address\n\t * @param _nameTAOVaultAddress The address of NameTAOVault\n\t */\n\tfunction setNameTAOVaultAddress(address _nameTAOVaultAddress) public onlyTheAO {\n\t\trequire (_nameTAOVaultAddress != address(0));\n\t\tnameTAOVaultAddress = _nameTAOVaultAddress;\n\t}\n\n\t/**\n\t * @dev The AO set the NameTAOLookup Address\n\t * @param _nameTAOLookupAddress The address of NameTAOLookup\n\t */\n\tfunction setNameTAOLookupAddress(address _nameTAOLookupAddress) public onlyTheAO {\n\t\trequire (_nameTAOLookupAddress != address(0));\n\t\tnameTAOLookupAddress = _nameTAOLookupAddress;\n\t\t_nameTAOLookup = INameTAOLookup(nameTAOLookupAddress);\n\t}\n\n\t/**\n\t * @dev The AO set the NameTAOPosition Address\n\t * @param _nameTAOPositionAddress The address of NameTAOPosition\n\t */\n\tfunction setNameTAOPositionAddress(address _nameTAOPositionAddress) public onlyTheAO {\n\t\trequire (_nameTAOPositionAddress != address(0));\n\t\tnameTAOPositionAddress = _nameTAOPositionAddress;\n\t\t_nameTAOPosition = INameTAOPosition(nameTAOPositionAddress);\n\t}\n\n\t/**\n\t * @dev The AO set the NamePublicKey Address\n\t * @param _namePublicKeyAddress The address of NamePublicKey\n\t */\n\tfunction setNamePublicKeyAddress(address _namePublicKeyAddress) public onlyTheAO {\n\t\trequire (_namePublicKeyAddress != address(0));\n\t\tnamePublicKeyAddress = _namePublicKeyAddress;\n\t\t_namePublicKey = INamePublicKey(namePublicKeyAddress);\n\t}\n\n\t/**\n\t * @dev The AO set the NameAccountRecovery Address\n\t * @param _nameAccountRecoveryAddress The address of NameAccountRecovery\n\t */\n\tfunction setNameAccountRecoveryAddress(address _nameAccountRecoveryAddress) public onlyTheAO {\n\t\trequire (_nameAccountRecoveryAddress != address(0));\n\t\tnameAccountRecoveryAddress = _nameAccountRecoveryAddress;\n\t\t_nameAccountRecovery = INameAccountRecovery(nameAccountRecoveryAddress);\n\t}\n\n\t/**\n\t * @dev NameAccountRecovery contract replaces eth address associated with a Name\n\t * @param _id The ID of the Name\n\t * @param _newAddress The new eth address\n\t * @return true on success\n\t */\n\tfunction setNameNewAddress(address _id, address _newAddress) external returns (bool) {\n\t\trequire (msg.sender == nameAccountRecoveryAddress);\n\t\trequire (AOLibrary.isName(_id));\n\t\trequire (_newAddress != address(0));\n\t\trequire (_ethAddressToNameId[_newAddress] == address(0));\n\t\trequire (_nameIdToEthAddress[_id] != address(0));\n\n\t\taddress _currentEthAddress = _nameIdToEthAddress[_id];\n\t\t_ethAddressToNameId[_currentEthAddress] = address(0);\n\t\t_ethAddressToNameId[_newAddress] = _id;\n\t\t_nameIdToEthAddress[_id] = _newAddress;\n\t\treturn true;\n\t}\n\n\t/***** PUBLIC METHODS *****/\n\t/**\n\t * @dev Get the nonce given a Name ID\n\t * @param _nameId The Name ID to check\n\t * @return The nonce of the Name\n\t */\n\tfunction nonces(address _nameId) external view returns (uint256) {\n\t\treturn _nonces[_nameId];\n\t}\n\n\t/**\n\t * @dev Increment the nonce of a Name\n\t * @param _nameId The ID of the Name\n\t * @return current nonce\n\t */\n\tfunction incrementNonce(address _nameId) external canUpdateNonce returns (uint256) {\n\t\t// Check if _nameId exist\n\t\trequire (_nonces[_nameId] > 0);\n\t\t_nonces[_nameId]++;\n\t\treturn _nonces[_nameId];\n\t}\n\n\t/**\n\t * @dev Create a Name\n\t * @param _name The name of the Name\n\t * @param _datHash The datHash to this Name's profile\n\t * @param _database The database for this Name\n\t * @param _keyValue The key/value pair to be checked on the database\n\t * @param _contentId The contentId related to this Name\n\t */\n\tfunction createName(string _name, string _datHash, string _database, string _keyValue, bytes32 _contentId) public {\n\t\trequire (bytes(_name).length > 0);\n\t\trequire (!_nameTAOLookup.isExist(_name));\n\n\t\t// Only one Name per ETH address\n\t\trequire (_ethAddressToNameId[msg.sender] == address(0));\n\n\t\t// The address is the Name ID (which is also a TAO ID)\n\t\taddress nameId = AOLibrary.deployName(_name, msg.sender, _datHash, _database, _keyValue, _contentId, nameTAOVaultAddress);\n\n\t\t// Only one ETH address per Name\n\t\trequire (_nameIdToEthAddress[nameId] == address(0));\n\n\t\t// Increment the nonce\n\t\t_nonces[nameId]++;\n\n\t\t_ethAddressToNameId[msg.sender] = nameId;\n\t\t_nameIdToEthAddress[nameId] = msg.sender;\n\n\t\t// Store the name lookup information\n\t\trequire (_nameTAOLookup.initialize(_name, nameId, 1, 'human', msg.sender, 2));\n\n\t\t// Store the Advocate/Listener/Speaker information\n\t\trequire (_nameTAOPosition.initialize(nameId, nameId, nameId, nameId));\n\n\t\t// Store the public key information\n\t\trequire (_namePublicKey.initialize(nameId, msg.sender));\n\n\t\tnames.push(nameId);\n\n\t\t// Need to mint Voice for this Name\n\t\trequire (_voice.mint(nameId));\n\n\t\temit CreateName(msg.sender, nameId, names.length.sub(1), _name);\n\t}\n\n\t/**\n\t * @dev Get the Name ID given an ETH address\n\t * @param _ethAddress The ETH address to check\n\t * @return The Name ID\n\t */\n\tfunction ethAddressToNameId(address _ethAddress) external view returns (address) {\n\t\treturn _ethAddressToNameId[_ethAddress];\n\t}\n\n\t/**\n\t * @dev Get the ETH address given a Name ID\n\t * @param _nameId The Name ID to check\n\t * @return The ETH address\n\t */\n\tfunction nameIdToEthAddress(address _nameId) external view returns (address) {\n\t\treturn _nameIdToEthAddress[_nameId];\n\t}\n\n\t/**\n\t * @dev Get Name information\n\t * @param _nameId The ID of the Name to be queried\n\t * @return The name of the Name\n\t * @return The originId of the Name (in this case, it's the creator node's ETH address)\n\t * @return The datHash of the Name\n\t * @return The database of the Name\n\t * @return The keyValue of the Name\n\t * @return The contentId of the Name\n\t * @return The typeId of the Name\n\t */\n\tfunction getName(address _nameId) public view returns (string, address, string, string, string, bytes32, uint8) {\n\t\tName _name = Name(_nameId);\n\t\treturn (\n\t\t\t_name.name(),\n\t\t\t_name.originId(),\n\t\t\t_name.datHash(),\n\t\t\t_name.database(),\n\t\t\t_name.keyValue(),\n\t\t\t_name.contentId(),\n\t\t\t_name.typeId()\n\t\t);\n\t}\n\n\t/**\n\t * @dev Get total Names count\n\t * @return total Names count\n\t */\n\tfunction getTotalNamesCount() public view returns (uint256) {\n\t\treturn names.length;\n\t}\n\n\t/**\n\t * @dev Get list of Name IDs\n\t * @param _from The starting index\n\t * @param _to The ending index\n\t * @return list of Name IDs\n\t */\n\tfunction getNameIds(uint256 _from, uint256 _to) public view returns (address[]) {\n\t\trequire (_from >= 0 && _to >= _from);\n\t\trequire (names.length > 0);\n\n\t\taddress[] memory _names = new address[](_to.sub(_from).add(1));\n\t\tif (_to > names.length.sub(1)) {\n\t\t\t_to = names.length.sub(1);\n\t\t}\n\t\tfor (uint256 i = _from; i <= _to; i++) {\n\t\t\t_names[i.sub(_from)] = names[i];\n\t\t}\n\t\treturn _names;\n\t}\n\n\t/**\n\t * @dev Check whether or not the signature is valid\n\t * @param _data The signed string data\n\t * @param _nonce The signed uint256 nonce (should be Name's current nonce + 1)\n\t * @param _validateAddress The ETH address to be validated (optional)\n\t * @param _name The name of the Name\n\t * @param _signatureV The V part of the signature\n\t * @param _signatureR The R part of the signature\n\t * @param _signatureS The S part of the signature\n\t * @return true if valid. false otherwise\n\t */\n\tfunction validateNameSignature(\n\t\tstring _data,\n\t\tuint256 _nonce,\n\t\taddress _validateAddress,\n\t\tstring _name,\n\t\tuint8 _signatureV,\n\t\tbytes32 _signatureR,\n\t\tbytes32 _signatureS\n\t) public view returns (bool) {\n\t\trequire (_nameTAOLookup.isExist(_name));\n\t\taddress _nameId = _nameTAOLookup.getIdByName(_name);\n\t\taddress _signatureAddress = _getValidateSignatureAddress(_data, _nonce, _signatureV, _signatureR, _signatureS);\n\t\tif (_validateAddress != address(0)) {\n\t\t\treturn (\n\t\t\t\t_nonce == _nonces[_nameId].add(1) &&\n\t\t\t\t_signatureAddress == _validateAddress &&\n\t\t\t\t_namePublicKey.isKeyExist(_nameId, _validateAddress)\n\t\t\t);\n\t\t} else {\n\t\t\treturn (\n\t\t\t\t_nonce == _nonces[_nameId].add(1) &&\n\t\t\t\t_signatureAddress == _namePublicKey.getDefaultKey(_nameId)\n\t\t\t);\n\t\t}\n\t}\n\n\t/***** INTERNAL METHODS *****/\n\t/**\n\t * @dev Return the address that signed the data and nonce when validating signature\n\t * @param _data the data that was signed\n\t * @param _nonce The signed uint256 nonce\n\t * @param _v part of the signature\n\t * @param _r part of the signature\n\t * @param _s part of the signature\n\t * @return the address that signed the message\n\t */\n\tfunction _getValidateSignatureAddress(string _data, uint256 _nonce, uint8 _v, bytes32 _r, bytes32 _s) internal view returns (address) {\n\t\tbytes32 _hash = keccak256(abi.encodePacked(address(this), _data, _nonce));\n\t\treturn ecrecover(_hash, _v, _r, _s);\n\t}\n}\n",
	"sourcePath": "/Users/johanmulyono/Work/AO/ao-contracts/contracts/NameFactory.sol",
	"compiler": {
		"name": "solc",
		"version": "0.4.24+commit.e67f0147.Emscripten.clang"
	},
	"schemaVersion": "2.0.1",
	"updatedAt": "2019-02-19T08:13:51.527Z"
}