{
	"contractName": "NameTAOLookup",
	"abi": [
		{
			"constant": true,
			"inputs": [],
			"name": "nameTAOPositionAddress",
			"outputs": [
				{
					"name": "",
					"type": "address"
				}
			],
			"payable": false,
			"stateMutability": "view",
			"type": "function"
		},
		{
			"constant": true,
			"inputs": [
				{
					"name": "",
					"type": "address"
				}
			],
			"name": "whitelist",
			"outputs": [
				{
					"name": "",
					"type": "bool"
				}
			],
			"payable": false,
			"stateMutability": "view",
			"type": "function"
		},
		{
			"constant": true,
			"inputs": [],
			"name": "totalNames",
			"outputs": [
				{
					"name": "",
					"type": "uint256"
				}
			],
			"payable": false,
			"stateMutability": "view",
			"type": "function"
		},
		{
			"constant": true,
			"inputs": [],
			"name": "theAO",
			"outputs": [
				{
					"name": "",
					"type": "address"
				}
			],
			"payable": false,
			"stateMutability": "view",
			"type": "function"
		},
		{
			"constant": true,
			"inputs": [],
			"name": "nameFactoryAddress",
			"outputs": [
				{
					"name": "",
					"type": "address"
				}
			],
			"payable": false,
			"stateMutability": "view",
			"type": "function"
		},
		{
			"constant": true,
			"inputs": [],
			"name": "totalTAOs",
			"outputs": [
				{
					"name": "",
					"type": "uint256"
				}
			],
			"payable": false,
			"stateMutability": "view",
			"type": "function"
		},
		{
			"constant": true,
			"inputs": [],
			"name": "taoFactoryAddress",
			"outputs": [
				{
					"name": "",
					"type": "address"
				}
			],
			"payable": false,
			"stateMutability": "view",
			"type": "function"
		},
		{
			"inputs": [
				{
					"name": "_nameFactoryAddress",
					"type": "address"
				},
				{
					"name": "_taoFactoryAddress",
					"type": "address"
				},
				{
					"name": "_nameTAOPositionAddress",
					"type": "address"
				}
			],
			"payable": false,
			"stateMutability": "nonpayable",
			"type": "constructor"
		},
		{
			"constant": false,
			"inputs": [
				{
					"name": "_theAO",
					"type": "address"
				}
			],
			"name": "transferOwnership",
			"outputs": [],
			"payable": false,
			"stateMutability": "nonpayable",
			"type": "function"
		},
		{
			"constant": false,
			"inputs": [
				{
					"name": "_account",
					"type": "address"
				},
				{
					"name": "_whitelist",
					"type": "bool"
				}
			],
			"name": "setWhitelist",
			"outputs": [],
			"payable": false,
			"stateMutability": "nonpayable",
			"type": "function"
		},
		{
			"constant": false,
			"inputs": [
				{
					"name": "_nameFactoryAddress",
					"type": "address"
				}
			],
			"name": "setNameFactoryAddress",
			"outputs": [],
			"payable": false,
			"stateMutability": "nonpayable",
			"type": "function"
		},
		{
			"constant": false,
			"inputs": [
				{
					"name": "_taoFactoryAddress",
					"type": "address"
				}
			],
			"name": "setTAOFactoryAddress",
			"outputs": [],
			"payable": false,
			"stateMutability": "nonpayable",
			"type": "function"
		},
		{
			"constant": false,
			"inputs": [
				{
					"name": "_nameTAOPositionAddress",
					"type": "address"
				}
			],
			"name": "setNameTAOPositionAddress",
			"outputs": [],
			"payable": false,
			"stateMutability": "nonpayable",
			"type": "function"
		},
		{
			"constant": true,
			"inputs": [
				{
					"name": "_name",
					"type": "string"
				}
			],
			"name": "isExist",
			"outputs": [
				{
					"name": "",
					"type": "bool"
				}
			],
			"payable": false,
			"stateMutability": "view",
			"type": "function"
		},
		{
			"constant": false,
			"inputs": [
				{
					"name": "_name",
					"type": "string"
				},
				{
					"name": "_nameTAOId",
					"type": "address"
				},
				{
					"name": "_typeId",
					"type": "uint256"
				},
				{
					"name": "_parentName",
					"type": "string"
				},
				{
					"name": "_parentId",
					"type": "address"
				},
				{
					"name": "_parentTypeId",
					"type": "uint256"
				}
			],
			"name": "initialize",
			"outputs": [
				{
					"name": "",
					"type": "bool"
				}
			],
			"payable": false,
			"stateMutability": "nonpayable",
			"type": "function"
		},
		{
			"constant": true,
			"inputs": [
				{
					"name": "_name",
					"type": "string"
				}
			],
			"name": "getByName",
			"outputs": [
				{
					"name": "",
					"type": "string"
				},
				{
					"name": "",
					"type": "address"
				},
				{
					"name": "",
					"type": "uint256"
				},
				{
					"name": "",
					"type": "string"
				},
				{
					"name": "",
					"type": "address"
				},
				{
					"name": "",
					"type": "uint256"
				}
			],
			"payable": false,
			"stateMutability": "view",
			"type": "function"
		},
		{
			"constant": true,
			"inputs": [
				{
					"name": "_id",
					"type": "address"
				}
			],
			"name": "getById",
			"outputs": [
				{
					"name": "",
					"type": "string"
				},
				{
					"name": "",
					"type": "address"
				},
				{
					"name": "",
					"type": "uint256"
				},
				{
					"name": "",
					"type": "string"
				},
				{
					"name": "",
					"type": "address"
				},
				{
					"name": "",
					"type": "uint256"
				}
			],
			"payable": false,
			"stateMutability": "view",
			"type": "function"
		},
		{
			"constant": true,
			"inputs": [
				{
					"name": "_name",
					"type": "string"
				}
			],
			"name": "getIdByName",
			"outputs": [
				{
					"name": "",
					"type": "address"
				}
			],
			"payable": false,
			"stateMutability": "view",
			"type": "function"
		}
	],
	"bytecode": "0x60806040523480156200001157600080fd5b50604051606080620018f783398101604090815281516020830151919092015160008054600160a060020a03191633179055620000578364010000000062000088810204565b6200006b8264010000000062000183810204565b6200007f816401000000006200027e810204565b50505062000379565b600054600154604080517ff66afcac000000000000000000000000000000000000000000000000000000008152336004820152600160a060020a0393841660248201529290911660448301525173__AOLibrary_____________________________9163f66afcac916064808301926020929190829003018186803b1580156200011157600080fd5b505af415801562000126573d6000803e3d6000fd5b505050506040513d60208110156200013d57600080fd5b505115156200014b57600080fd5b600160a060020a03811615156200016157600080fd5b60038054600160a060020a031916600160a060020a0392909216919091179055565b600054600154604080517ff66afcac000000000000000000000000000000000000000000000000000000008152336004820152600160a060020a0393841660248201529290911660448301525173__AOLibrary_____________________________9163f66afcac916064808301926020929190829003018186803b1580156200020c57600080fd5b505af415801562000221573d6000803e3d6000fd5b505050506040513d60208110156200023857600080fd5b505115156200024657600080fd5b600160a060020a03811615156200025c57600080fd5b60048054600160a060020a031916600160a060020a0392909216919091179055565b600054600154604080517ff66afcac000000000000000000000000000000000000000000000000000000008152336004820152600160a060020a0393841660248201529290911660448301525173__AOLibrary_____________________________9163f66afcac916064808301926020929190829003018186803b1580156200030757600080fd5b505af41580156200031c573d6000803e3d6000fd5b505050506040513d60208110156200033357600080fd5b505115156200034157600080fd5b600160a060020a03811615156200035757600080fd5b60018054600160a060020a031916600160a060020a0392909216919091179055565b61156e80620003896000396000f3006080604052600436106100f05763ffffffff7c010000000000000000000000000000000000000000000000000000000060003504166303d1e5dd81146100f55780631367944b146102345780632191207a146102705780634d3d096b146102935780634ef033f0146102c757806353d6fd59146102dc5780635cfaf2ef146103025780638c924361146103235780639b19251a14610344578063a38cb6c114610365578063a9b6b38e1461038c578063aaa9165a146103a1578063b336ad83146103e8578063bc40620614610441578063c93c271d14610456578063f2fde38b1461046b578063ff0374b51461048c575b600080fd5b34801561010157600080fd5b50610116600160a060020a03600435166104a1565b604051808060200187600160a060020a0316600160a060020a031681526020018681526020018060200185600160a060020a0316600160a060020a03168152602001848152602001838103835289818151815260200191508051906020019080838360005b8381101561019357818101518382015260200161017b565b50505050905090810190601f1680156101c05780820380516001836020036101000a031916815260200191505b50838103825286518152865160209182019188019080838360005b838110156101f35781810151838201526020016101db565b50505050905090810190601f1680156102205780820380516001836020036101000a031916815260200191505b509850505050505050505060405180910390f35b34801561024057600080fd5b506102546004803560248101910135610695565b60408051600160a060020a039092168252519081900360200190f35b34801561027c57600080fd5b50610291600160a060020a03600435166107ce565b005b34801561029f57600080fd5b506102b360048035602481019101356108bb565b604080519115158252519081900360200190f35b3480156102d357600080fd5b50610254610961565b3480156102e857600080fd5b50610291600160a060020a03600435166024351515610970565b34801561030e57600080fd5b50610291600160a060020a0360043516610a59565b34801561032f57600080fd5b50610291600160a060020a0360043516610b46565b34801561035057600080fd5b506102b3600160a060020a0360043516610c33565b34801561037157600080fd5b5061037a610c48565b60408051918252519081900360200190f35b34801561039857600080fd5b50610254610c4e565b3480156103ad57600080fd5b506102b3602460048035828101929082013591600160a060020a0382358116926044359260643591820192910135906084351660a435610c5d565b3480156103f457600080fd5b506040805160206004803580820135601f8101849004840285018401909552848452610116943694929360249392840191908190840183828082843750949750610fd99650505050505050565b34801561044d57600080fd5b5061025461134d565b34801561046257600080fd5b5061037a61135c565b34801561047757600080fd5b50610291600160a060020a0360043516611362565b34801561049857600080fd5b5061025461144f565b606060008060606000806104b361145e565b600160a060020a038881166000908152600760205260409020600101541615156104dc57600080fd5b600160a060020a0388166000908152600760209081526040918290208251815460026001821615610100026000190190911604601f8101849004909302810160e090810190945260c081018381529093919284928491908401828280156105845780601f1061055957610100808354040283529160200191610584565b820191906000526020600020905b81548152906001019060200180831161056757829003601f168201915b5050509183525050600182810154600160a060020a031660208084019190915260028085015460408086019190915260038601805482516101009682161596909602600019011692909204601f8101849004840285018401909152808452606090940193909183018282801561063b5780601f106106105761010080835404028352916020019161063b565b820191906000526020600020905b81548152906001019060200180831161061e57829003601f168201915b50505091835250506004820154600160a060020a0316602080830191909152600590920154604091820152825191830151908301516060840151608085015160a090950151939d929c50909a509850919650945092505050565b60405160e060020a634d3d096b0281526020600482019081526024820183905260009182913091634d3d096b918791879190819060440184848082843782019150509350505050602060405180830381600087803b1580156106f657600080fd5b505af115801561070a573d6000803e3d6000fd5b505050506040513d602081101561072057600080fd5b5051151561072d57600080fd5b8383604051602001808383808284378201915050925050506040516020818303038152906040526040518082805190602001908083835b602083106107835780518252601f199092019160209182019101610764565b51815160209384036101000a60001901801990921691161790526040805192909401829003909120600090815260089091529190912054600160a060020a0316979650505050505050565b6000546001546040805160e260020a633d9abf2b028152336004820152600160a060020a0393841660248201529290911660448301525173__AOLibrary_____________________________9163f66afcac916064808301926020929190829003018186803b15801561084057600080fd5b505af4158015610854573d6000803e3d6000fd5b505050506040513d602081101561086a57600080fd5b5051151561087757600080fd5b600160a060020a038116151561088c57600080fd5b6004805473ffffffffffffffffffffffffffffffffffffffff1916600160a060020a0392909216919091179055565b6000808383604051602001808383808284378201915050925050506040516020818303038152906040526040518082805190602001908083835b602083106109145780518252601f1990920191602091820191016108f5565b51815160209384036101000a60001901801990921691161790526040805192909401829003909120600090815260089091529190912054600160a060020a03161515979650505050505050565b600154600160a060020a031681565b6000546001546040805160e260020a633d9abf2b028152336004820152600160a060020a0393841660248201529290911660448301525173__AOLibrary_____________________________9163f66afcac916064808301926020929190829003018186803b1580156109e257600080fd5b505af41580156109f6573d6000803e3d6000fd5b505050506040513d6020811015610a0c57600080fd5b50511515610a1957600080fd5b600160a060020a0382161515610a2e57600080fd5b600160a060020a03919091166000908152600260205260409020805460ff1916911515919091179055565b6000546001546040805160e260020a633d9abf2b028152336004820152600160a060020a0393841660248201529290911660448301525173__AOLibrary_____________________________9163f66afcac916064808301926020929190829003018186803b158015610acb57600080fd5b505af4158015610adf573d6000803e3d6000fd5b505050506040513d6020811015610af557600080fd5b50511515610b0257600080fd5b600160a060020a0381161515610b1757600080fd5b6001805473ffffffffffffffffffffffffffffffffffffffff1916600160a060020a0392909216919091179055565b6000546001546040805160e260020a633d9abf2b028152336004820152600160a060020a0393841660248201529290911660448301525173__AOLibrary_____________________________9163f66afcac916064808301926020929190829003018186803b158015610bb857600080fd5b505af4158015610bcc573d6000803e3d6000fd5b505050506040513d6020811015610be257600080fd5b50511515610bef57600080fd5b600160a060020a0381161515610c0457600080fd5b6003805473ffffffffffffffffffffffffffffffffffffffff1916600160a060020a0392909216919091179055565b60026020526000908152604090205460ff1681565b60055481565b600054600160a060020a031681565b60035460009081908190600160a060020a0316331480610c875750600454600160a060020a031633145b1515610c9257600080fd5b60008a11610c9f57600080fd5b600160a060020a0389161515610cb457600080fd5b871580610cc15750876001145b1515610ccc57600080fd5b60008611610cd957600080fd5b600160a060020a0385161515610cee57600080fd5b60008410158015610d00575060028411155b1515610d0b57600080fd5b60405160e060020a634d3d096b028152602060048201908152602482018c90523091634d3d096b918e918e9190819060440184848082843782019150509350505050602060405180830381600087803b158015610d6757600080fd5b505af1158015610d7b573d6000803e3d6000fd5b505050506040513d6020811015610d9157600080fd5b505115610d9d57600080fd5b60028414610e385760405160e060020a634d3d096b028152602060048201908152602482018890523091634d3d096b918a918a9190819060440184848082843782019150509350505050602060405180830381600087803b158015610e0157600080fd5b505af1158015610e15573d6000803e3d6000fd5b505050506040513d6020811015610e2b57600080fd5b50511515610e3857600080fd5b8a8a604051602001808383808284378201915050925050506040516020818303038152906040526040518082805190602001908083835b60208310610e8e5780518252601f199092019160209182019101610e6f565b6001836020036101000a038019825116818451168082178552505050505050905001915050604051809103902091508860086000846000191660001916815260200190815260200160002060006101000a815481600160a060020a030219169083600160a060020a03160217905550600760008a600160a060020a0316600160a060020a0316815260200190815260200160002090508a8a826000019190610f379291906114a7565b5060018101805473ffffffffffffffffffffffffffffffffffffffff1916600160a060020a038b1617905560028101889055610f776003820188886114a7565b5060048101805473ffffffffffffffffffffffffffffffffffffffff1916600160a060020a03871617905560058101849055871515610fbe57600680546001019055610fc8565b6005805460010190555b5060019a9950505050505050505050565b606060008060606000806000610fed61145e565b60405160e060020a634d3d096b0281526020600482018181528b5160248401528b513093634d3d096b938e939283926044019185019080838360005b83811015611041578181015183820152602001611029565b50505050905090810190601f16801561106e5780820380516001836020036101000a031916815260200191505b5092505050602060405180830381600087803b15801561108d57600080fd5b505af11580156110a1573d6000803e3d6000fd5b505050506040513d60208110156110b757600080fd5b505115156110c457600080fd5b886040516020018082805190602001908083835b602083106110f75780518252601f1990920191602091820191016110d8565b6001836020036101000a0380198251168184511680821785525050505050509050019150506040516020818303038152906040526040518082805190602001908083835b6020831061115a5780518252601f19909201916020918201910161113b565b518151600019602094850361010090810a8201928316921993909316919091179092526040805196909401869003862060008181526008855285812054600160a060020a0316815260078552859020805460e0601f60026001841615909602909601909116939093049384018590049094028701820190945260c086018281529399509496509094508593919250849184018282801561123b5780601f106112105761010080835404028352916020019161123b565b820191906000526020600020905b81548152906001019060200180831161121e57829003601f168201915b5050509183525050600182810154600160a060020a031660208084019190915260028085015460408086019190915260038601805482516101009682161596909602600019011692909204601f810184900484028501840190915280845260609094019390918301828280156112f25780601f106112c7576101008083540402835291602001916112f2565b820191906000526020600020905b8154815290600101906020018083116112d557829003601f168201915b50505091835250506004820154600160a060020a0316602080830191909152600590920154604091820152825191830151908301516060840151608085015160a090950151939e929d50909b50995091975095509350505050565b600354600160a060020a031681565b60065481565b6000546001546040805160e260020a633d9abf2b028152336004820152600160a060020a0393841660248201529290911660448301525173__AOLibrary_____________________________9163f66afcac916064808301926020929190829003018186803b1580156113d457600080fd5b505af41580156113e8573d6000803e3d6000fd5b505050506040513d60208110156113fe57600080fd5b5051151561140b57600080fd5b600160a060020a038116151561142057600080fd5b6000805473ffffffffffffffffffffffffffffffffffffffff1916600160a060020a0392909216919091179055565b600454600160a060020a031681565b60c060405190810160405280606081526020016000600160a060020a0316815260200160008152602001606081526020016000600160a060020a03168152602001600081525090565b828054600181600116156101000203166002900490600052602060002090601f016020900481019282601f106114e85782800160ff19823516178555611515565b82800160010185558215611515579182015b828111156115155782358255916020019190600101906114fa565b50611521929150611525565b5090565b61153f91905b80821115611521576000815560010161152b565b905600a165627a7a723058203ba91fcee747c13703ad37a192ed6417c9bd9d104f4196ec0efd3438e96bfb0f0029",
	"source": "pragma solidity ^0.4.24;\n\nimport './TheAO.sol';\nimport './AOLibrary.sol';\nimport './INameTAOLookup.sol';\n\n/**\n * @title NameTAOLookup\n *\n */\ncontract NameTAOLookup is TheAO, INameTAOLookup {\n\taddress public nameFactoryAddress;\n\taddress public taoFactoryAddress;\n\n\tstruct NameTAOInfo {\n\t\tstring name;\n\t\taddress nameTAOId;\n\t\tuint256 typeId; // 0 = TAO. 1 = Name\n\t\tstring parentName;\n\t\taddress parentId; // Can be a Name ID/TAO ID/ETH address\n\t\tuint256 parentTypeId; // 0 = TAO. 1 = Name. 2 = ETH address\n\t}\n\n\tuint256 public totalNames;\n\tuint256 public totalTAOs;\n\n\t// Mapping from Name/TAO ID to NameTAOInfo\n\tmapping (address => NameTAOInfo) internal nameTAOInfos;\n\n\t// Mapping from name to Name/TAO ID\n\tmapping (bytes32 => address) internal nameToNameTAOIdLookup;\n\n\t/**\n\t * @dev Constructor function\n\t */\n\tconstructor(address _nameFactoryAddress, address _taoFactoryAddress, address _nameTAOPositionAddress) public {\n\t\tsetNameFactoryAddress(_nameFactoryAddress);\n\t\tsetTAOFactoryAddress(_taoFactoryAddress);\n\t\tsetNameTAOPositionAddress(_nameTAOPositionAddress);\n\t}\n\n\t/**\n\t * @dev Checks if the calling contract address is The AO\n\t *\t\tOR\n\t *\t\tIf The AO is set to a Name/TAO, then check if calling address is the Advocate\n\t */\n\tmodifier onlyTheAO {\n\t\trequire (AOLibrary.isTheAO(msg.sender, theAO, nameTAOPositionAddress));\n\t\t_;\n\t}\n\n\t/**\n\t * @dev Check if calling address is Factory\n\t */\n\tmodifier onlyFactory {\n\t\trequire (msg.sender == nameFactoryAddress || msg.sender == taoFactoryAddress);\n\t\t_;\n\t}\n\n\t/***** The AO ONLY METHODS *****/\n\t/**\n\t * @dev Transfer ownership of The AO to new address\n\t * @param _theAO The new address to be transferred\n\t */\n\tfunction transferOwnership(address _theAO) public onlyTheAO {\n\t\trequire (_theAO != address(0));\n\t\ttheAO = _theAO;\n\t}\n\n\t/**\n\t * @dev Whitelist `_account` address to transact on behalf of others\n\t * @param _account The address to whitelist\n\t * @param _whitelist Either to whitelist or not\n\t */\n\tfunction setWhitelist(address _account, bool _whitelist) public onlyTheAO {\n\t\trequire (_account != address(0));\n\t\twhitelist[_account] = _whitelist;\n\t}\n\n\t/**\n\t * @dev The AO set the nameFactoryAddress Address\n\t * @param _nameFactoryAddress The address of NameFactory\n\t */\n\tfunction setNameFactoryAddress(address _nameFactoryAddress) public onlyTheAO {\n\t\trequire (_nameFactoryAddress != address(0));\n\t\tnameFactoryAddress = _nameFactoryAddress;\n\t}\n\n\t/**\n\t * @dev The AO set the taoFactoryAddress Address\n\t * @param _taoFactoryAddress The address of TAOFactory\n\t */\n\tfunction setTAOFactoryAddress(address _taoFactoryAddress) public onlyTheAO {\n\t\trequire (_taoFactoryAddress != address(0));\n\t\ttaoFactoryAddress = _taoFactoryAddress;\n\t}\n\n\t/**\n\t * @dev The AO set the NameTAOPosition Address\n\t * @param _nameTAOPositionAddress The address of NameTAOPosition\n\t */\n\tfunction setNameTAOPositionAddress(address _nameTAOPositionAddress) public onlyTheAO {\n\t\trequire (_nameTAOPositionAddress != address(0));\n\t\tnameTAOPositionAddress = _nameTAOPositionAddress;\n\t}\n\n\t/***** PUBLIC METHODS *****/\n\t/**\n\t * @dev Check whether or not a name exist in the list\n\t * @param _name The name to be checked\n\t * @return true if yes, false otherwise\n\t */\n\tfunction isExist(string _name) external view returns (bool) {\n\t\tbytes32 _nameKey = keccak256(abi.encodePacked(_name));\n\t\treturn (nameToNameTAOIdLookup[_nameKey] != address(0));\n\t}\n\n\t/**\n\t * @dev Add a new NameTAOInfo\n\t * @param _name The name of the Name/TAO\n\t * @param _nameTAOId The address of the Name/TAO\n\t * @param _typeId If TAO = 0. Name = 1\n\t * @param _parentName The parent name of the Name/TAO\n\t * @param _parentId The address of the parent. Can be a Name ID/TAO ID/ETH address\n\t * @param _parentTypeId If TAO = 0. Name = 1. 2 = ETH address\n\t * @return true on success\n\t */\n\tfunction initialize(string _name, address _nameTAOId, uint256 _typeId, string _parentName, address _parentId, uint256 _parentTypeId) external onlyFactory returns (bool) {\n\t\trequire (bytes(_name).length > 0);\n\t\trequire (_nameTAOId != address(0));\n\t\trequire (_typeId == 0 || _typeId == 1);\n\t\trequire (bytes(_parentName).length > 0);\n\t\trequire (_parentId != address(0));\n\t\trequire (_parentTypeId >= 0 && _parentTypeId <= 2);\n\t\trequire (!this.isExist(_name));\n\t\tif (_parentTypeId != 2) {\n\t\t\trequire (this.isExist(_parentName));\n\t\t}\n\n\t\tbytes32 _nameKey = keccak256(abi.encodePacked(_name));\n\t\tnameToNameTAOIdLookup[_nameKey] = _nameTAOId;\n\n\t\tNameTAOInfo storage _nameTAOInfo = nameTAOInfos[_nameTAOId];\n\t\t_nameTAOInfo.name = _name;\n\t\t_nameTAOInfo.nameTAOId = _nameTAOId;\n\t\t_nameTAOInfo.typeId = _typeId;\n\t\t_nameTAOInfo.parentName = _parentName;\n\t\t_nameTAOInfo.parentId = _parentId;\n\t\t_nameTAOInfo.parentTypeId = _parentTypeId;\n\n\t\tif (_typeId == 0) {\n\t\t\ttotalTAOs++;\n\t\t} else {\n\t\t\ttotalNames++;\n\t\t}\n\t\treturn true;\n\t}\n\n\t/**\n\t * @dev Get the NameTAOInfo given a name\n\t * @param _name The name to be queried\n\t * @return the name of Name/TAO\n\t * @return the address of Name/TAO\n\t * @return type ID. 0 = TAO. 1 = Name\n\t * @return the parent name of Name/TAO\n\t * @return the address of the parent. Can be a Name ID/TAO ID/ETH address\n\t * @return the parent typeId. If TAO = 0. Name = 1. 2 = ETH address\n\t */\n\tfunction getByName(string _name) public view returns (string, address, uint256, string, address, uint256) {\n\t\trequire (this.isExist(_name));\n\t\tbytes32 _nameKey = keccak256(abi.encodePacked(_name));\n\t\tNameTAOInfo memory _nameTAOInfo = nameTAOInfos[nameToNameTAOIdLookup[_nameKey]];\n\t\treturn (\n\t\t\t_nameTAOInfo.name,\n\t\t\t_nameTAOInfo.nameTAOId,\n\t\t\t_nameTAOInfo.typeId,\n\t\t\t_nameTAOInfo.parentName,\n\t\t\t_nameTAOInfo.parentId,\n\t\t\t_nameTAOInfo.parentTypeId\n\t\t);\n\t}\n\n\t/**\n\t * @dev Get the NameTAOInfo given a Name/TAO ID\n\t * @param _id The Name/TAO ID to be queried\n\t * @return the name of Name/TAO\n\t * @return the address of Name/TAO\n\t * @return type ID. 0 = TAO. 1 = Name\n\t * @return the parent name of Name/TAO\n\t * @return the address of the parent. Can be a Name ID/TAO ID/ETH address\n\t * @return the parent typeId. If TAO = 0. Name = 1. 2 = ETH address\n\t */\n\tfunction getById(address _id) external view returns (string, address, uint256, string, address, uint256) {\n\t\trequire (nameTAOInfos[_id].nameTAOId != address(0));\n\t\tNameTAOInfo memory _nameTAOInfo = nameTAOInfos[_id];\n\t\treturn (\n\t\t\t_nameTAOInfo.name,\n\t\t\t_nameTAOInfo.nameTAOId,\n\t\t\t_nameTAOInfo.typeId,\n\t\t\t_nameTAOInfo.parentName,\n\t\t\t_nameTAOInfo.parentId,\n\t\t\t_nameTAOInfo.parentTypeId\n\t\t);\n\t}\n\n\t/**\n\t * @dev Return the Name/TAO ID given a _name\n\t * @param _name The name to be queried\n\t * @return the nameTAOId of the name\n\t */\n\tfunction getIdByName(string _name) external view returns (address) {\n\t\trequire (this.isExist(_name));\n\t\tbytes32 _nameKey = keccak256(abi.encodePacked(_name));\n\t\treturn nameToNameTAOIdLookup[_nameKey];\n\t}\n}\n",
	"sourcePath": "/Users/johanmulyono/Work/AO/ao-contracts/contracts/NameTAOLookup.sol",
	"compiler": {
		"name": "solc",
		"version": "0.4.24+commit.e67f0147.Emscripten.clang"
	},
	"schemaVersion": "2.0.1",
	"updatedAt": "2019-02-12T13:00:57.042Z"
}