{
	"contractName": "NameTAOVault",
	"abi": [
		{
			"constant": true,
			"inputs": [],
			"name": "aoIonAddress",
			"outputs": [
				{
					"name": "",
					"type": "address"
				}
			],
			"payable": false,
			"stateMutability": "view",
			"type": "function"
		},
		{
			"constant": true,
			"inputs": [],
			"name": "nameTAOPositionAddress",
			"outputs": [
				{
					"name": "",
					"type": "address"
				}
			],
			"payable": false,
			"stateMutability": "view",
			"type": "function"
		},
		{
			"constant": true,
			"inputs": [
				{
					"name": "",
					"type": "address"
				}
			],
			"name": "whitelist",
			"outputs": [
				{
					"name": "",
					"type": "bool"
				}
			],
			"payable": false,
			"stateMutability": "view",
			"type": "function"
		},
		{
			"constant": true,
			"inputs": [],
			"name": "nameAccountRecoveryAddress",
			"outputs": [
				{
					"name": "",
					"type": "address"
				}
			],
			"payable": false,
			"stateMutability": "view",
			"type": "function"
		},
		{
			"constant": true,
			"inputs": [],
			"name": "theAO",
			"outputs": [
				{
					"name": "",
					"type": "address"
				}
			],
			"payable": false,
			"stateMutability": "view",
			"type": "function"
		},
		{
			"constant": true,
			"inputs": [],
			"name": "nameFactoryAddress",
			"outputs": [
				{
					"name": "",
					"type": "address"
				}
			],
			"payable": false,
			"stateMutability": "view",
			"type": "function"
		},
		{
			"inputs": [
				{
					"name": "_nameFactoryAddress",
					"type": "address"
				},
				{
					"name": "_nameTAOPositionAddress",
					"type": "address"
				}
			],
			"payable": false,
			"stateMutability": "nonpayable",
			"type": "constructor"
		},
		{
			"anonymous": false,
			"inputs": [
				{
					"indexed": true,
					"name": "advocateId",
					"type": "address"
				},
				{
					"indexed": false,
					"name": "from",
					"type": "address"
				},
				{
					"indexed": false,
					"name": "to",
					"type": "address"
				},
				{
					"indexed": false,
					"name": "amount",
					"type": "uint256"
				}
			],
			"name": "TransferEth",
			"type": "event"
		},
		{
			"anonymous": false,
			"inputs": [
				{
					"indexed": true,
					"name": "advocateId",
					"type": "address"
				},
				{
					"indexed": false,
					"name": "from",
					"type": "address"
				},
				{
					"indexed": false,
					"name": "to",
					"type": "address"
				},
				{
					"indexed": false,
					"name": "amount",
					"type": "uint256"
				},
				{
					"indexed": false,
					"name": "erc20TokenAddress",
					"type": "address"
				},
				{
					"indexed": false,
					"name": "erc20Name",
					"type": "string"
				},
				{
					"indexed": false,
					"name": "erc20Symbol",
					"type": "string"
				}
			],
			"name": "TransferERC20",
			"type": "event"
		},
		{
			"anonymous": false,
			"inputs": [
				{
					"indexed": true,
					"name": "advocateId",
					"type": "address"
				},
				{
					"indexed": false,
					"name": "from",
					"type": "address"
				},
				{
					"indexed": false,
					"name": "to",
					"type": "address"
				},
				{
					"indexed": false,
					"name": "amount",
					"type": "uint256"
				}
			],
			"name": "TransferAO",
			"type": "event"
		},
		{
			"anonymous": false,
			"inputs": [
				{
					"indexed": true,
					"name": "advocateId",
					"type": "address"
				},
				{
					"indexed": false,
					"name": "from",
					"type": "address"
				},
				{
					"indexed": false,
					"name": "to",
					"type": "address"
				},
				{
					"indexed": false,
					"name": "amount",
					"type": "uint256"
				}
			],
			"name": "TransferPrimordialAO",
			"type": "event"
		},
		{
			"constant": false,
			"inputs": [
				{
					"name": "_theAO",
					"type": "address"
				}
			],
			"name": "transferOwnership",
			"outputs": [],
			"payable": false,
			"stateMutability": "nonpayable",
			"type": "function"
		},
		{
			"constant": false,
			"inputs": [
				{
					"name": "_account",
					"type": "address"
				},
				{
					"name": "_whitelist",
					"type": "bool"
				}
			],
			"name": "setWhitelist",
			"outputs": [],
			"payable": false,
			"stateMutability": "nonpayable",
			"type": "function"
		},
		{
			"constant": false,
			"inputs": [
				{
					"name": "_nameFactoryAddress",
					"type": "address"
				}
			],
			"name": "setNameFactoryAddress",
			"outputs": [],
			"payable": false,
			"stateMutability": "nonpayable",
			"type": "function"
		},
		{
			"constant": false,
			"inputs": [
				{
					"name": "_nameTAOPositionAddress",
					"type": "address"
				}
			],
			"name": "setNameTAOPositionAddress",
			"outputs": [],
			"payable": false,
			"stateMutability": "nonpayable",
			"type": "function"
		},
		{
			"constant": false,
			"inputs": [
				{
					"name": "_nameAccountRecoveryAddress",
					"type": "address"
				}
			],
			"name": "setNameAccountRecoveryAddress",
			"outputs": [],
			"payable": false,
			"stateMutability": "nonpayable",
			"type": "function"
		},
		{
			"constant": false,
			"inputs": [
				{
					"name": "_aoIonAddress",
					"type": "address"
				}
			],
			"name": "setAOIonAddress",
			"outputs": [],
			"payable": false,
			"stateMutability": "nonpayable",
			"type": "function"
		},
		{
			"constant": true,
			"inputs": [
				{
					"name": "_id",
					"type": "address"
				}
			],
			"name": "ethBalanceOf",
			"outputs": [
				{
					"name": "",
					"type": "uint256"
				}
			],
			"payable": false,
			"stateMutability": "view",
			"type": "function"
		},
		{
			"constant": true,
			"inputs": [
				{
					"name": "_erc20TokenAddress",
					"type": "address"
				},
				{
					"name": "_id",
					"type": "address"
				}
			],
			"name": "erc20BalanceOf",
			"outputs": [
				{
					"name": "",
					"type": "uint256"
				}
			],
			"payable": false,
			"stateMutability": "view",
			"type": "function"
		},
		{
			"constant": true,
			"inputs": [
				{
					"name": "_id",
					"type": "address"
				}
			],
			"name": "AOBalanceOf",
			"outputs": [
				{
					"name": "",
					"type": "uint256"
				}
			],
			"payable": false,
			"stateMutability": "view",
			"type": "function"
		},
		{
			"constant": true,
			"inputs": [
				{
					"name": "_id",
					"type": "address"
				}
			],
			"name": "primordialAOBalanceOf",
			"outputs": [
				{
					"name": "",
					"type": "uint256"
				}
			],
			"payable": false,
			"stateMutability": "view",
			"type": "function"
		},
		{
			"constant": false,
			"inputs": [
				{
					"name": "_from",
					"type": "address"
				},
				{
					"name": "_to",
					"type": "address"
				},
				{
					"name": "_amount",
					"type": "uint256"
				}
			],
			"name": "transferEth",
			"outputs": [],
			"payable": false,
			"stateMutability": "nonpayable",
			"type": "function"
		},
		{
			"constant": false,
			"inputs": [
				{
					"name": "_erc20TokenAddress",
					"type": "address"
				},
				{
					"name": "_from",
					"type": "address"
				},
				{
					"name": "_to",
					"type": "address"
				},
				{
					"name": "_amount",
					"type": "uint256"
				}
			],
			"name": "transferERC20",
			"outputs": [],
			"payable": false,
			"stateMutability": "nonpayable",
			"type": "function"
		},
		{
			"constant": false,
			"inputs": [
				{
					"name": "_from",
					"type": "address"
				},
				{
					"name": "_to",
					"type": "address"
				},
				{
					"name": "_amount",
					"type": "uint256"
				}
			],
			"name": "transferAO",
			"outputs": [],
			"payable": false,
			"stateMutability": "nonpayable",
			"type": "function"
		},
		{
			"constant": false,
			"inputs": [
				{
					"name": "_from",
					"type": "address"
				},
				{
					"name": "_to",
					"type": "address"
				},
				{
					"name": "_amount",
					"type": "uint256"
				}
			],
			"name": "transferPrimordialAO",
			"outputs": [],
			"payable": false,
			"stateMutability": "nonpayable",
			"type": "function"
		}
	],
	"bytecode": "0x60806040523480156200001157600080fd5b50604051604080620032e283398101604052805160209091015160008054600160a060020a0319163317905562000051826401000000006200006d810204565b620000658164010000000062000172810204565b505062000277565b600054600154604080517ff66afcac000000000000000000000000000000000000000000000000000000008152336004820152600160a060020a0393841660248201529290911660448301525173__AOLibrary_____________________________9163f66afcac916064808301926020929190829003018186803b158015620000f657600080fd5b505af41580156200010b573d6000803e3d6000fd5b505050506040513d60208110156200012257600080fd5b505115156200013057600080fd5b600160a060020a03811615156200014657600080fd5b60038054600160a060020a03909216600160a060020a0319928316811790915560068054909216179055565b600054600154604080517ff66afcac000000000000000000000000000000000000000000000000000000008152336004820152600160a060020a0393841660248201529290911660448301525173__AOLibrary_____________________________9163f66afcac916064808301926020929190829003018186803b158015620001fb57600080fd5b505af415801562000210573d6000803e3d6000fd5b505050506040513d60208110156200022757600080fd5b505115156200023557600080fd5b600160a060020a03811615156200024b57600080fd5b60018054600160a060020a03909216600160a060020a0319928316811790915560078054909216179055565b61305b80620002876000396000f3006080604052600436106100f85763ffffffff60e060020a6000350416631dfde2bd81146100fd5780633c56b011146101205780634ef033f01461015157806353d6fd59146101665780635cfaf2ef1461018c5780637252bbf2146101ad57806380f3659c146101e05780638c924361146102015780639937ae95146102225780639b19251a1461024c578063a4e5fad214610281578063a9b6b38e14610296578063bc406206146102ab578063c5f98177146102c0578063ce6c9138146102ea578063d765925d1461030b578063da3e8ce414610335578063e1c6fb6614610365578063f2fde38b1461038c578063f97106b5146103ad575b600080fd5b34801561010957600080fd5b5061011e600160a060020a03600435166103ce565b005b34801561012c57600080fd5b506101356104c8565b60408051600160a060020a039092168252519081900360200190f35b34801561015d57600080fd5b506101356104d7565b34801561017257600080fd5b5061011e600160a060020a036004351660243515156104e6565b34801561019857600080fd5b5061011e600160a060020a03600435166105cf565b3480156101b957600080fd5b506101ce600160a060020a03600435166106c6565b60408051918252519081900360200190f35b3480156101ec57600080fd5b506101ce600160a060020a0360043516610803565b34801561020d57600080fd5b5061011e600160a060020a03600435166109cc565b34801561022e57600080fd5b5061011e600160a060020a0360043581169060243516604435610ac3565b34801561025857600080fd5b5061026d600160a060020a0360043516611215565b604080519115158252519081900360200190f35b34801561028d57600080fd5b5061013561122a565b3480156102a257600080fd5b50610135611239565b3480156102b757600080fd5b50610135611248565b3480156102cc57600080fd5b5061011e600160a060020a0360043581169060243516604435611257565b3480156102f657600080fd5b506101ce600160a060020a03600435166119a9565b34801561031757600080fd5b5061011e600160a060020a0360043581169060243516604435611b3f565b34801561034157600080fd5b5061011e600160a060020a03600435811690602435811690604435166064356121f2565b34801561037157600080fd5b506101ce600160a060020a0360043581169060243516612c8e565b34801561039857600080fd5b5061011e600160a060020a0360043516612e4b565b3480156103b957600080fd5b5061011e600160a060020a0360043516612f38565b6000546001546040805160e260020a633d9abf2b028152336004820152600160a060020a0393841660248201529290911660448301525173__AOLibrary_____________________________9163f66afcac916064808301926020929190829003018186803b15801561044057600080fd5b505af4158015610454573d6000803e3d6000fd5b505050506040513d602081101561046a57600080fd5b5051151561047757600080fd5b600160a060020a038116151561048c57600080fd5b6004805473ffffffffffffffffffffffffffffffffffffffff19908116600160a060020a03938416179182905560088054929093169116179055565b600554600160a060020a031681565b600154600160a060020a031681565b6000546001546040805160e260020a633d9abf2b028152336004820152600160a060020a0393841660248201529290911660448301525173__AOLibrary_____________________________9163f66afcac916064808301926020929190829003018186803b15801561055857600080fd5b505af415801561056c573d6000803e3d6000fd5b505050506040513d602081101561058257600080fd5b5051151561058f57600080fd5b600160a060020a03821615156105a457600080fd5b600160a060020a03919091166000908152600260205260409020805460ff1916911515919091179055565b6000546001546040805160e260020a633d9abf2b028152336004820152600160a060020a0393841660248201529290911660448301525173__AOLibrary_____________________________9163f66afcac916064808301926020929190829003018186803b15801561064157600080fd5b505af4158015610655573d6000803e3d6000fd5b505050506040513d602081101561066b57600080fd5b5051151561067857600080fd5b600160a060020a038116151561068d57600080fd5b60018054600160a060020a0390921673ffffffffffffffffffffffffffffffffffffffff19928316811790915560078054909216179055565b60008173__AOLibrary_____________________________632d706a34826040518263ffffffff1660e060020a0281526004018082600160a060020a0316600160a060020a0316815260200191505060206040518083038186803b15801561072d57600080fd5b505af4158015610741573d6000803e3d6000fd5b505050506040513d602081101561075757600080fd5b5051806107e957506040805160e260020a630bf29505028152600160a060020a0383166004820152905173__AOLibrary_____________________________91632fca5414916024808301926020929190829003018186803b1580156107bc57600080fd5b505af41580156107d0573d6000803e3d6000fd5b505050506040513d60208110156107e657600080fd5b50515b15156107f457600080fd5b5050600160a060020a03163190565b60008173__AOLibrary_____________________________632d706a34826040518263ffffffff1660e060020a0281526004018082600160a060020a0316600160a060020a0316815260200191505060206040518083038186803b15801561086a57600080fd5b505af415801561087e573d6000803e3d6000fd5b505050506040513d602081101561089457600080fd5b50518061092657506040805160e260020a630bf29505028152600160a060020a0383166004820152905173__AOLibrary_____________________________91632fca5414916024808301926020929190829003018186803b1580156108f957600080fd5b505af415801561090d573d6000803e3d6000fd5b505050506040513d602081101561092357600080fd5b50515b151561093157600080fd5b600954604080517f57946b8e000000000000000000000000000000000000000000000000000000008152600160a060020a038681166004830152915191909216916357946b8e9160248083019260209291908290030181600087803b15801561099957600080fd5b505af11580156109ad573d6000803e3d6000fd5b505050506040513d60208110156109c357600080fd5b50519392505050565b6000546001546040805160e260020a633d9abf2b028152336004820152600160a060020a0393841660248201529290911660448301525173__AOLibrary_____________________________9163f66afcac916064808301926020929190829003018186803b158015610a3e57600080fd5b505af4158015610a52573d6000803e3d6000fd5b505050506040513d6020811015610a6857600080fd5b50511515610a7557600080fd5b600160a060020a0381161515610a8a57600080fd5b60038054600160a060020a0390921673ffffffffffffffffffffffffffffffffffffffff19928316811790915560068054909216179055565b8273__AOLibrary_____________________________632d706a34826040518263ffffffff1660e060020a0281526004018082600160a060020a0316600160a060020a0316815260200191505060206040518083038186803b158015610b2857600080fd5b505af4158015610b3c573d6000803e3d6000fd5b505050506040513d6020811015610b5257600080fd5b505180610be457506040805160e260020a630bf29505028152600160a060020a0383166004820152905173__AOLibrary_____________________________91632fca5414916024808301926020929190829003018186803b158015610bb757600080fd5b505af4158015610bcb573d6000803e3d6000fd5b505050506040513d6020811015610be157600080fd5b50515b1515610bef57600080fd5b6007546040805160e060020a6371ce52ed028152336004820152600160a060020a0380881660248301529151879392909216916371ce52ed916044808201926020929091908290030181600087803b158015610c4a57600080fd5b505af1158015610c5e573d6000803e3d6000fd5b505050506040513d6020811015610c7457600080fd5b50511515610c8157600080fd5b6008546006546040805160e060020a63029b7d530281523360048201529051600160a060020a0393841693633ebc2ab393169163029b7d539160248083019260209291908290030181600087803b158015610cdb57600080fd5b505af1158015610cef573d6000803e3d6000fd5b505050506040513d6020811015610d0557600080fd5b50516040805160e060020a63ffffffff8516028152600160a060020a0390921660048301525160248083019260209291908290030181600087803b158015610d4c57600080fd5b505af1158015610d60573d6000803e3d6000fd5b505050506040513d6020811015610d7657600080fd5b505115610d8257600080fd5b600083118015610e275750600954604080517f70a08231000000000000000000000000000000000000000000000000000000008152600160a060020a0388811660048301529151869392909216916370a08231916024808201926020929091908290030181600087803b158015610df857600080fd5b505af1158015610e0c573d6000803e3d6000fd5b505050506040513d6020811015610e2257600080fd5b505110155b1515610e3257600080fd5b600160a060020a03841615801590610e5c575083600160a060020a031685600160a060020a031614155b1515610e6757600080fd5b6006546040805160e260020a6338815cd1028152600160a060020a03888116600483015291516000939092169163e20573449160248082019260209290919082900301818787803b158015610ebb57600080fd5b505af1158015610ecf573d6000803e3d6000fd5b505050506040513d6020811015610ee557600080fd5b5051600160a060020a031614610f7d576008546040805160e060020a633ebc2ab3028152600160a060020a03888116600483015291519190921691633ebc2ab39160248083019260209291908290030181600087803b158015610f4757600080fd5b505af1158015610f5b573d6000803e3d6000fd5b505050506040513d6020811015610f7157600080fd5b505115610f7d57600080fd5b6006546040805160e260020a6338815cd1028152600160a060020a03878116600483015291516000939092169163e20573449160248082019260209290919082900301818787803b158015610fd157600080fd5b505af1158015610fe5573d6000803e3d6000fd5b505050506040513d6020811015610ffb57600080fd5b5051600160a060020a031614611093576008546040805160e060020a633ebc2ab3028152600160a060020a03878116600483015291519190921691633ebc2ab39160248083019260209291908290030181600087803b15801561105d57600080fd5b505af1158015611071573d6000803e3d6000fd5b505050506040513d602081101561108757600080fd5b50511561109357600080fd5b600954604080517fa144a3e0000000000000000000000000000000000000000000000000000000008152600160a060020a0388811660048301528781166024830152604482018790529151919092169163a144a3e09160648083019260209291908290030181600087803b15801561110a57600080fd5b505af115801561111e573d6000803e3d6000fd5b505050506040513d602081101561113457600080fd5b5051151561114157600080fd5b6006546040805160e060020a63029b7d530281523360048201529051600160a060020a039092169163029b7d53916024808201926020929091908290030181600087803b15801561119157600080fd5b505af11580156111a5573d6000803e3d6000fd5b505050506040513d60208110156111bb57600080fd5b505160408051600160a060020a0388811682528781166020830152818301879052915191909216917f658cf4630baa0314cfa2427dcb40dd2eb2fa2cb15dfa6b4fb9af7fb84a1eeefd919081900360600190a25050505050565b60026020526000908152604090205460ff1681565b600454600160a060020a031681565b600054600160a060020a031681565b600354600160a060020a031681565b8273__AOLibrary_____________________________632d706a34826040518263ffffffff1660e060020a0281526004018082600160a060020a0316600160a060020a0316815260200191505060206040518083038186803b1580156112bc57600080fd5b505af41580156112d0573d6000803e3d6000fd5b505050506040513d60208110156112e657600080fd5b50518061137857506040805160e260020a630bf29505028152600160a060020a0383166004820152905173__AOLibrary_____________________________91632fca5414916024808301926020929190829003018186803b15801561134b57600080fd5b505af415801561135f573d6000803e3d6000fd5b505050506040513d602081101561137557600080fd5b50515b151561138357600080fd5b6007546040805160e060020a6371ce52ed028152336004820152600160a060020a0380881660248301529151879392909216916371ce52ed916044808201926020929091908290030181600087803b1580156113de57600080fd5b505af11580156113f2573d6000803e3d6000fd5b505050506040513d602081101561140857600080fd5b5051151561141557600080fd5b6008546006546040805160e060020a63029b7d530281523360048201529051600160a060020a0393841693633ebc2ab393169163029b7d539160248083019260209291908290030181600087803b15801561146f57600080fd5b505af1158015611483573d6000803e3d6000fd5b505050506040513d602081101561149957600080fd5b50516040805160e060020a63ffffffff8516028152600160a060020a0390921660048301525160248083019260209291908290030181600087803b1580156114e057600080fd5b505af11580156114f4573d6000803e3d6000fd5b505050506040513d602081101561150a57600080fd5b50511561151657600080fd5b6000831180156115bb5750600954604080517f57946b8e000000000000000000000000000000000000000000000000000000008152600160a060020a0388811660048301529151869392909216916357946b8e916024808201926020929091908290030181600087803b15801561158c57600080fd5b505af11580156115a0573d6000803e3d6000fd5b505050506040513d60208110156115b657600080fd5b505110155b15156115c657600080fd5b600160a060020a038416158015906115f0575083600160a060020a031685600160a060020a031614155b15156115fb57600080fd5b6006546040805160e260020a6338815cd1028152600160a060020a03888116600483015291516000939092169163e20573449160248082019260209290919082900301818787803b15801561164f57600080fd5b505af1158015611663573d6000803e3d6000fd5b505050506040513d602081101561167957600080fd5b5051600160a060020a031614611711576008546040805160e060020a633ebc2ab3028152600160a060020a03888116600483015291519190921691633ebc2ab39160248083019260209291908290030181600087803b1580156116db57600080fd5b505af11580156116ef573d6000803e3d6000fd5b505050506040513d602081101561170557600080fd5b50511561171157600080fd5b6006546040805160e260020a6338815cd1028152600160a060020a03878116600483015291516000939092169163e20573449160248082019260209290919082900301818787803b15801561176557600080fd5b505af1158015611779573d6000803e3d6000fd5b505050506040513d602081101561178f57600080fd5b5051600160a060020a031614611827576008546040805160e060020a633ebc2ab3028152600160a060020a03878116600483015291519190921691633ebc2ab39160248083019260209291908290030181600087803b1580156117f157600080fd5b505af1158015611805573d6000803e3d6000fd5b505050506040513d602081101561181b57600080fd5b50511561182757600080fd5b600954604080517f9eeead7a000000000000000000000000000000000000000000000000000000008152600160a060020a03888116600483015287811660248301526044820187905291519190921691639eeead7a9160648083019260209291908290030181600087803b15801561189e57600080fd5b505af11580156118b2573d6000803e3d6000fd5b505050506040513d60208110156118c857600080fd5b505115156118d557600080fd5b6006546040805160e060020a63029b7d530281523360048201529051600160a060020a039092169163029b7d53916024808201926020929091908290030181600087803b15801561192557600080fd5b505af1158015611939573d6000803e3d6000fd5b505050506040513d602081101561194f57600080fd5b505160408051600160a060020a0388811682528781166020830152818301879052915191909216917f18b5b019bd18c19ea9e68f05645b493bd5e0494f7f566a89b360ffc076423de9919081900360600190a25050505050565b60008173__AOLibrary_____________________________632d706a34826040518263ffffffff1660e060020a0281526004018082600160a060020a0316600160a060020a0316815260200191505060206040518083038186803b158015611a1057600080fd5b505af4158015611a24573d6000803e3d6000fd5b505050506040513d6020811015611a3a57600080fd5b505180611acc57506040805160e260020a630bf29505028152600160a060020a0383166004820152905173__AOLibrary_____________________________91632fca5414916024808301926020929190829003018186803b158015611a9f57600080fd5b505af4158015611ab3573d6000803e3d6000fd5b505050506040513d6020811015611ac957600080fd5b50515b1515611ad757600080fd5b600954604080517f70a08231000000000000000000000000000000000000000000000000000000008152600160a060020a038681166004830152915191909216916370a082319160248083019260209291908290030181600087803b15801561099957600080fd5b8273__AOLibrary_____________________________632d706a34826040518263ffffffff1660e060020a0281526004018082600160a060020a0316600160a060020a0316815260200191505060206040518083038186803b158015611ba457600080fd5b505af4158015611bb8573d6000803e3d6000fd5b505050506040513d6020811015611bce57600080fd5b505180611c6057506040805160e260020a630bf29505028152600160a060020a0383166004820152905173__AOLibrary_____________________________91632fca5414916024808301926020929190829003018186803b158015611c3357600080fd5b505af4158015611c47573d6000803e3d6000fd5b505050506040513d6020811015611c5d57600080fd5b50515b1515611c6b57600080fd5b6007546040805160e060020a6371ce52ed028152336004820152600160a060020a0380881660248301529151879392909216916371ce52ed916044808201926020929091908290030181600087803b158015611cc657600080fd5b505af1158015611cda573d6000803e3d6000fd5b505050506040513d6020811015611cf057600080fd5b50511515611cfd57600080fd5b6008546006546040805160e060020a63029b7d530281523360048201529051600160a060020a0393841693633ebc2ab393169163029b7d539160248083019260209291908290030181600087803b158015611d5757600080fd5b505af1158015611d6b573d6000803e3d6000fd5b505050506040513d6020811015611d8157600080fd5b50516040805160e060020a63ffffffff8516028152600160a060020a0390921660048301525160248083019260209291908290030181600087803b158015611dc857600080fd5b505af1158015611ddc573d6000803e3d6000fd5b505050506040513d6020811015611df257600080fd5b505115611dfe57600080fd5b600083118015611e1857508285600160a060020a03163110155b1515611e2357600080fd5b600160a060020a03841615801590611e4d575083600160a060020a031685600160a060020a031614155b1515611e5857600080fd5b6006546040805160e260020a6338815cd1028152600160a060020a03888116600483015291516000939092169163e20573449160248082019260209290919082900301818787803b158015611eac57600080fd5b505af1158015611ec0573d6000803e3d6000fd5b505050506040513d6020811015611ed657600080fd5b5051600160a060020a031614611f6e576008546040805160e060020a633ebc2ab3028152600160a060020a03888116600483015291519190921691633ebc2ab39160248083019260209291908290030181600087803b158015611f3857600080fd5b505af1158015611f4c573d6000803e3d6000fd5b505050506040513d6020811015611f6257600080fd5b505115611f6e57600080fd5b6006546040805160e260020a6338815cd1028152600160a060020a03878116600483015291516000939092169163e20573449160248082019260209290919082900301818787803b158015611fc257600080fd5b505af1158015611fd6573d6000803e3d6000fd5b505050506040513d6020811015611fec57600080fd5b5051600160a060020a031614612084576008546040805160e060020a633ebc2ab3028152600160a060020a03878116600483015291519190921691633ebc2ab39160248083019260209291908290030181600087803b15801561204e57600080fd5b505af1158015612062573d6000803e3d6000fd5b505050506040513d602081101561207857600080fd5b50511561208457600080fd5b84600160a060020a031663e9bb84c285856040518363ffffffff1660e060020a0281526004018083600160a060020a0316600160a060020a0316815260200182815260200192505050602060405180830381600087803b1580156120e757600080fd5b505af11580156120fb573d6000803e3d6000fd5b505050506040513d602081101561211157600080fd5b5051151561211e57600080fd5b6006546040805160e060020a63029b7d530281523360048201529051600160a060020a039092169163029b7d53916024808201926020929091908290030181600087803b15801561216e57600080fd5b505af1158015612182573d6000803e3d6000fd5b505050506040513d602081101561219857600080fd5b505160408051600160a060020a0388811682528781166020830152818301879052915191909216917f465b2f4afe4365933cc5ead3aec00111a21a453e8d71bf1453b1d59ff4693081919081900360600190a25050505050565b60008373__AOLibrary_____________________________632d706a34826040518263ffffffff1660e060020a0281526004018082600160a060020a0316600160a060020a0316815260200191505060206040518083038186803b15801561225957600080fd5b505af415801561226d573d6000803e3d6000fd5b505050506040513d602081101561228357600080fd5b50518061231557506040805160e260020a630bf29505028152600160a060020a0383166004820152905173__AOLibrary_____________________________91632fca5414916024808301926020929190829003018186803b1580156122e857600080fd5b505af41580156122fc573d6000803e3d6000fd5b505050506040513d602081101561231257600080fd5b50515b151561232057600080fd5b6007546040805160e060020a6371ce52ed028152336004820152600160a060020a0380891660248301529151889392909216916371ce52ed916044808201926020929091908290030181600087803b15801561237b57600080fd5b505af115801561238f573d6000803e3d6000fd5b505050506040513d60208110156123a557600080fd5b505115156123b257600080fd5b6008546006546040805160e060020a63029b7d530281523360048201529051600160a060020a0393841693633ebc2ab393169163029b7d539160248083019260209291908290030181600087803b15801561240c57600080fd5b505af1158015612420573d6000803e3d6000fd5b505050506040513d602081101561243657600080fd5b50516040805160e060020a63ffffffff8516028152600160a060020a0390921660048301525160248083019260209291908290030181600087803b15801561247d57600080fd5b505af1158015612491573d6000803e3d6000fd5b505050506040513d60208110156124a757600080fd5b5051156124b357600080fd5b604080517f2b439a94000000000000000000000000000000000000000000000000000000008152600160a060020a0389166004820152905173__AOLibrary_____________________________91632b439a94916024808301926020929190829003018186803b15801561252657600080fd5b505af415801561253a573d6000803e3d6000fd5b505050506040513d602081101561255057600080fd5b5051151561255d57600080fd5b8692506000841180156125f657508383600160a060020a03166370a08231886040518263ffffffff1660e060020a0281526004018082600160a060020a0316600160a060020a03168152602001915050602060405180830381600087803b1580156125c757600080fd5b505af11580156125db573d6000803e3d6000fd5b505050506040513d60208110156125f157600080fd5b505110155b151561260157600080fd5b600160a060020a0385161580159061262b575084600160a060020a031686600160a060020a031614155b151561263657600080fd5b6006546040805160e260020a6338815cd1028152600160a060020a03898116600483015291516000939092169163e20573449160248082019260209290919082900301818787803b15801561268a57600080fd5b505af115801561269e573d6000803e3d6000fd5b505050506040513d60208110156126b457600080fd5b5051600160a060020a03161461274c576008546040805160e060020a633ebc2ab3028152600160a060020a03898116600483015291519190921691633ebc2ab39160248083019260209291908290030181600087803b15801561271657600080fd5b505af115801561272a573d6000803e3d6000fd5b505050506040513d602081101561274057600080fd5b50511561274c57600080fd5b6006546040805160e260020a6338815cd1028152600160a060020a03888116600483015291516000939092169163e20573449160248082019260209290919082900301818787803b1580156127a057600080fd5b505af11580156127b4573d6000803e3d6000fd5b505050506040513d60208110156127ca57600080fd5b5051600160a060020a031614612862576008546040805160e060020a633ebc2ab3028152600160a060020a03888116600483015291519190921691633ebc2ab39160248083019260209291908290030181600087803b15801561282c57600080fd5b505af1158015612840573d6000803e3d6000fd5b505050506040513d602081101561285657600080fd5b50511561286257600080fd5b604080517f9db5dbe4000000000000000000000000000000000000000000000000000000008152600160a060020a038981166004830152878116602483015260448201879052915191881691639db5dbe4916064808201926020929091908290030181600087803b1580156128d657600080fd5b505af11580156128ea573d6000803e3d6000fd5b505050506040513d602081101561290057600080fd5b5051151561290d57600080fd5b6006546040805160e060020a63029b7d530281523360048201529051600160a060020a039092169163029b7d53916024808201926020929091908290030181600087803b15801561295d57600080fd5b505af1158015612971573d6000803e3d6000fd5b505050506040513d602081101561298757600080fd5b8101908080519060200190929190505050600160a060020a03167fc0f0c797c493e6d182b6024333a29a628896a4efd7c18d491c8f717407aa93c98787878b88600160a060020a03166306fdde036040518163ffffffff1660e060020a028152600401600060405180830381600087803b158015612a0457600080fd5b505af1158015612a18573d6000803e3d6000fd5b505050506040513d6000823e601f3d908101601f191682016040526020811015612a4157600080fd5b810190808051640100000000811115612a5957600080fd5b82016020810184811115612a6c57600080fd5b8151640100000000811182820187101715612a8657600080fd5b505092919050505089600160a060020a03166395d89b416040518163ffffffff1660e060020a028152600401600060405180830381600087803b158015612acc57600080fd5b505af1158015612ae0573d6000803e3d6000fd5b505050506040513d6000823e601f3d908101601f191682016040526020811015612b0957600080fd5b810190808051640100000000811115612b2157600080fd5b82016020810184811115612b3457600080fd5b8151640100000000811182820187101715612b4e57600080fd5b50509291905050506040518087600160a060020a0316600160a060020a0316815260200186600160a060020a0316600160a060020a0316815260200185815260200184600160a060020a0316600160a060020a031681526020018060200180602001838103835285818151815260200191508051906020019080838360005b83811015612be5578181015183820152602001612bcd565b50505050905090810190601f168015612c125780820380516001836020036101000a031916815260200191505b50838103825284518152845160209182019186019080838360005b83811015612c45578181015183820152602001612c2d565b50505050905090810190601f168015612c725780820380516001836020036101000a031916815260200191505b509850505050505050505060405180910390a250505050505050565b60008173__AOLibrary_____________________________632d706a34826040518263ffffffff1660e060020a0281526004018082600160a060020a0316600160a060020a0316815260200191505060206040518083038186803b158015612cf557600080fd5b505af4158015612d09573d6000803e3d6000fd5b505050506040513d6020811015612d1f57600080fd5b505180612db157506040805160e260020a630bf29505028152600160a060020a0383166004820152905173__AOLibrary_____________________________91632fca5414916024808301926020929190829003018186803b158015612d8457600080fd5b505af4158015612d98573d6000803e3d6000fd5b505050506040513d6020811015612dae57600080fd5b50515b1515612dbc57600080fd5b83600160a060020a03166370a08231846040518263ffffffff1660e060020a0281526004018082600160a060020a0316600160a060020a03168152602001915050602060405180830381600087803b158015612e1757600080fd5b505af1158015612e2b573d6000803e3d6000fd5b505050506040513d6020811015612e4157600080fd5b5051949350505050565b6000546001546040805160e260020a633d9abf2b028152336004820152600160a060020a0393841660248201529290911660448301525173__AOLibrary_____________________________9163f66afcac916064808301926020929190829003018186803b158015612ebd57600080fd5b505af4158015612ed1573d6000803e3d6000fd5b505050506040513d6020811015612ee757600080fd5b50511515612ef457600080fd5b600160a060020a0381161515612f0957600080fd5b6000805473ffffffffffffffffffffffffffffffffffffffff1916600160a060020a0392909216919091179055565b6000546001546040805160e260020a633d9abf2b028152336004820152600160a060020a0393841660248201529290911660448301525173__AOLibrary_____________________________9163f66afcac916064808301926020929190829003018186803b158015612faa57600080fd5b505af4158015612fbe573d6000803e3d6000fd5b505050506040513d6020811015612fd457600080fd5b50511515612fe157600080fd5b600160a060020a0381161515612ff657600080fd5b60058054600160a060020a0390921673ffffffffffffffffffffffffffffffffffffffff199283168117909155600980549092161790555600a165627a7a723058208efc1850e07932dbd2b4722d3ac54e9085507f57195fadb228f4313cc23dd6ae0029",
	"source": "pragma solidity ^0.4.24;\n\nimport './SafeMath.sol';\nimport './AOLibrary.sol';\nimport './TheAO.sol';\nimport './INameFactory.sol';\nimport './INameTAOPosition.sol';\nimport './INameAccountRecovery.sol';\nimport './TokenERC20.sol';\nimport './AOIon.sol';\n\n/**\n * @title NameTAOVault\n */\ncontract NameTAOVault is TheAO {\n\tusing SafeMath for uint256;\n\n\taddress public nameFactoryAddress;\n\taddress public nameAccountRecoveryAddress;\n\taddress public aoIonAddress;\n\n\tINameFactory internal _nameFactory;\n\tINameTAOPosition internal _nameTAOPosition;\n\tINameAccountRecovery internal _nameAccountRecovery;\n\tAOIon internal _aoIon;\n\n\t// Event to be broadcasted to public when Advocate of `from` Name/TAO transfer ETH\n\t// `from` is a Name/TAO\n\tevent TransferEth(address indexed advocateId, address from, address to, uint256 amount);\n\n\t// Event to be broadcasted to public when Advocate of `from` Name/TAO transfer ERC20 Token\n\t// `from` is a Name/TAO\n\tevent TransferERC20(address indexed advocateId, address from, address to, uint256 amount, address erc20TokenAddress, string erc20Name, string erc20Symbol);\n\n\t// Event to be broadcasted to public when Advocate of `from` Name/TAO transfer AO\n\t// `from` is a Name/TAO\n\tevent TransferAO(address indexed advocateId, address from, address to, uint256 amount);\n\n\t// Event to be broadcasted to public when Advocate of `from` Name/TAO transfer AO+\n\t// `from` is a Name/TAO\n\tevent TransferPrimordialAO(address indexed advocateId, address from, address to, uint256 amount);\n\n\t/**\n\t * @dev Constructor function\n\t */\n\tconstructor(address _nameFactoryAddress, address _nameTAOPositionAddress) public {\n\t\tsetNameFactoryAddress(_nameFactoryAddress);\n\t\tsetNameTAOPositionAddress(_nameTAOPositionAddress);\n\t}\n\n\t/**\n\t * @dev Checks if the calling contract address is The AO\n\t *\t\tOR\n\t *\t\tIf The AO is set to a Name/TAO, then check if calling address is the Advocate\n\t */\n\tmodifier onlyTheAO {\n\t\trequire (AOLibrary.isTheAO(msg.sender, theAO, nameTAOPositionAddress));\n\t\t_;\n\t}\n\n\t/**\n\t * @dev Check if `_id` is a Name or a TAO\n\t */\n\tmodifier isNameOrTAO(address _id) {\n\t\trequire (AOLibrary.isName(_id) || AOLibrary.isTAO(_id));\n\t\t_;\n\t}\n\n\t/**\n\t * @dev Check if msg.sender is the current advocate of Name ID\n\t */\n\tmodifier onlyAdvocate(address _id) {\n\t\trequire (_nameTAOPosition.senderIsAdvocate(msg.sender, _id));\n\t\t_;\n\t}\n\n\t/**\n\t * @dev Only allowed if sender's Name is not compromised\n\t */\n\tmodifier senderNameNotCompromised() {\n\t\trequire (!_nameAccountRecovery.isCompromised(_nameFactory.ethAddressToNameId(msg.sender)));\n\t\t_;\n\t}\n\n\t/***** THE AO ONLY METHODS *****/\n\t/**\n\t * @dev Transfer ownership of The AO to new address\n\t * @param _theAO The new address to be transferred\n\t */\n\tfunction transferOwnership(address _theAO) public onlyTheAO {\n\t\trequire (_theAO != address(0));\n\t\ttheAO = _theAO;\n\t}\n\n\t/**\n\t * @dev Whitelist `_account` address to transact on behalf of others\n\t * @param _account The address to whitelist\n\t * @param _whitelist Either to whitelist or not\n\t */\n\tfunction setWhitelist(address _account, bool _whitelist) public onlyTheAO {\n\t\trequire (_account != address(0));\n\t\twhitelist[_account] = _whitelist;\n\t}\n\n\t/**\n\t * @dev The AO sets NameFactory address\n\t * @param _nameFactoryAddress The address of NameFactory\n\t */\n\tfunction setNameFactoryAddress(address _nameFactoryAddress) public onlyTheAO {\n\t\trequire (_nameFactoryAddress != address(0));\n\t\tnameFactoryAddress = _nameFactoryAddress;\n\t\t_nameFactory = INameFactory(_nameFactoryAddress);\n\t}\n\n\t/**\n\t * @dev The AO sets NameTAOPosition address\n\t * @param _nameTAOPositionAddress The address of NameTAOPosition\n\t */\n\tfunction setNameTAOPositionAddress(address _nameTAOPositionAddress) public onlyTheAO {\n\t\trequire (_nameTAOPositionAddress != address(0));\n\t\tnameTAOPositionAddress = _nameTAOPositionAddress;\n\t\t_nameTAOPosition = INameTAOPosition(_nameTAOPositionAddress);\n\t}\n\n\t/**\n\t * @dev The AO set the NameAccountRecovery Address\n\t * @param _nameAccountRecoveryAddress The address of NameAccountRecovery\n\t */\n\tfunction setNameAccountRecoveryAddress(address _nameAccountRecoveryAddress) public onlyTheAO {\n\t\trequire (_nameAccountRecoveryAddress != address(0));\n\t\tnameAccountRecoveryAddress = _nameAccountRecoveryAddress;\n\t\t_nameAccountRecovery = INameAccountRecovery(nameAccountRecoveryAddress);\n\t}\n\n\t/**\n\t * @dev The AO sets AOIon (base denomination of AO) address\n\t * @param _aoIonAddress The address of AOIon\n\t */\n\tfunction setAOIonAddress(address _aoIonAddress) public onlyTheAO {\n\t\trequire (_aoIonAddress != address(0));\n\t\taoIonAddress = _aoIonAddress;\n\t\t_aoIon = AOIon(_aoIonAddress);\n\t}\n\n\t/***** PUBLIC METHODS *****/\n\t/**\n\t * @dev Get Ethereum balance of `_id`\n\t * @param _id The ID to check\n\t * @return The ethereum balance\n\t */\n\tfunction ethBalanceOf(address _id) public isNameOrTAO(_id) view returns (uint256) {\n\t\treturn address(_id).balance;\n\t}\n\n\t/**\n\t * @dev Get ERC20 token balance of `_id`\n\t * @param _erc20TokenAddress The address of the ERC20 Token\n\t * @param _id The ID to check\n\t * @return The ERC20 Token balance\n\t */\n\tfunction erc20BalanceOf(address _erc20TokenAddress, address _id) public isNameOrTAO(_id) view returns (uint256) {\n\t\treturn TokenERC20(_erc20TokenAddress).balanceOf(_id);\n\t}\n\n\t/**\n\t * @dev Get AO balance of `_id`\n\t * @param _id The ID to check\n\t * @return The AO balance\n\t */\n\tfunction AOBalanceOf(address _id) public isNameOrTAO(_id) view returns (uint256) {\n\t\treturn _aoIon.balanceOf(_id);\n\t}\n\n\t/**\n\t * @dev Get AO+ balance of `_id`\n\t * @param _id The ID to check\n\t * @return The AO+ balance\n\t */\n\tfunction primordialAOBalanceOf(address _id) public isNameOrTAO(_id) view returns (uint256) {\n\t\treturn _aoIon.primordialBalanceOf(_id);\n\t}\n\n\t/**\n\t * @dev Transfer `_amount` of ETH from `_from` to `_to`\n\t * @param _from The sender address\n\t * @param _to The recipient address\n\t * @param _amount The amount to transfer\n\t */\n\tfunction transferEth(address _from, address _to, uint256 _amount) public isNameOrTAO(_from) onlyAdvocate(_from) senderNameNotCompromised {\n\t\trequire (_amount > 0 && address(_from).balance >= _amount);\n\t\trequire (_to != address(0) && _from != _to);\n\t\tif (_nameFactory.nameIdToEthAddress(_from) != address(0)) {\n\t\t\trequire (!_nameAccountRecovery.isCompromised(_from));\n\t\t}\n\t\tif (_nameFactory.nameIdToEthAddress(_to) != address(0)) {\n\t\t\trequire (!_nameAccountRecovery.isCompromised(_to));\n\t\t}\n\t\trequire (TAO(_from).transferEth(_to, _amount));\n\t\temit TransferEth(_nameFactory.ethAddressToNameId(msg.sender), _from, _to, _amount);\n\t}\n\n\t/**\n\t * @dev Transfer `_amount` of ERC20 Token from `_from` to `_to`\n\t * @param _erc20TokenAddress The ERC20 Token Address\n\t * @param _from The sender address\n\t * @param _to The recipient address\n\t * @param _amount The amount to transfer\n\t */\n\tfunction transferERC20(address _erc20TokenAddress, address _from, address _to, uint256 _amount) public isNameOrTAO(_from) onlyAdvocate(_from) senderNameNotCompromised {\n\t\trequire (AOLibrary.isValidERC20TokenAddress(_erc20TokenAddress));\n\t\tTokenERC20 _erc20 = TokenERC20(_erc20TokenAddress);\n\t\trequire (_amount > 0 && _erc20.balanceOf(_from) >= _amount);\n\t\trequire (_to != address(0) && _from != _to);\n\t\tif (_nameFactory.nameIdToEthAddress(_from) != address(0)) {\n\t\t\trequire (!_nameAccountRecovery.isCompromised(_from));\n\t\t}\n\t\tif (_nameFactory.nameIdToEthAddress(_to) != address(0)) {\n\t\t\trequire (!_nameAccountRecovery.isCompromised(_to));\n\t\t}\n\t\trequire (TAO(_from).transferERC20(_erc20TokenAddress, _to, _amount));\n\t\temit TransferERC20(_nameFactory.ethAddressToNameId(msg.sender), _from, _to, _amount, _erc20TokenAddress, _erc20.name(), _erc20.symbol());\n\t}\n\n\t/**\n\t * @dev Transfer `_amount` of AO from `_from` to `_to`\n\t * @param _from The sender address\n\t * @param _to The recipient address\n\t * @param _amount The amount to transfer\n\t */\n\tfunction transferAO(address _from, address _to, uint256 _amount) public isNameOrTAO(_from) onlyAdvocate(_from) senderNameNotCompromised {\n\t\trequire (_amount > 0 && _aoIon.balanceOf(_from) >= _amount);\n\t\trequire (_to != address(0) && _from != _to);\n\t\tif (_nameFactory.nameIdToEthAddress(_from) != address(0)) {\n\t\t\trequire (!_nameAccountRecovery.isCompromised(_from));\n\t\t}\n\t\tif (_nameFactory.nameIdToEthAddress(_to) != address(0)) {\n\t\t\trequire (!_nameAccountRecovery.isCompromised(_to));\n\t\t}\n\t\trequire (_aoIon.whitelistTransferFrom(_from, _to, _amount));\n\t\temit TransferAO(_nameFactory.ethAddressToNameId(msg.sender), _from, _to, _amount);\n\t}\n\n\t/**\n\t * @dev Transfer `_amount` of AO+ (Primordial) from `_from` to `_to`\n\t * @param _from The sender address\n\t * @param _to The recipient address\n\t * @param _amount The amount to transfer\n\t */\n\tfunction transferPrimordialAO(address _from, address _to, uint256 _amount) public isNameOrTAO(_from) onlyAdvocate(_from) senderNameNotCompromised {\n\t\trequire (_amount > 0 && _aoIon.primordialBalanceOf(_from) >= _amount);\n\t\trequire (_to != address(0) && _from != _to);\n\t\tif (_nameFactory.nameIdToEthAddress(_from) != address(0)) {\n\t\t\trequire (!_nameAccountRecovery.isCompromised(_from));\n\t\t}\n\t\tif (_nameFactory.nameIdToEthAddress(_to) != address(0)) {\n\t\t\trequire (!_nameAccountRecovery.isCompromised(_to));\n\t\t}\n\t\trequire (_aoIon.whitelistTransferPrimordialFrom(_from, _to, _amount));\n\t\temit TransferPrimordialAO(_nameFactory.ethAddressToNameId(msg.sender), _from, _to, _amount);\n\t}\n}\n",
	"sourcePath": "/Users/johanmulyono/Work/AO/ao-contracts/contracts/NameTAOVault.sol",
	"compiler": {
		"name": "solc",
		"version": "0.4.24+commit.e67f0147.Emscripten.clang"
	},
	"schemaVersion": "2.0.1",
	"updatedAt": "2019-02-12T13:00:56.883Z"
}