{
	"contractName": "Name",
	"abi": [
		{
			"constant": true,
			"inputs": [],
			"name": "datHash",
			"outputs": [
				{
					"name": "",
					"type": "string"
				}
			],
			"payable": false,
			"stateMutability": "view",
			"type": "function"
		},
		{
			"constant": true,
			"inputs": [],
			"name": "name",
			"outputs": [
				{
					"name": "",
					"type": "string"
				}
			],
			"payable": false,
			"stateMutability": "view",
			"type": "function"
		},
		{
			"constant": true,
			"inputs": [],
			"name": "originId",
			"outputs": [
				{
					"name": "",
					"type": "address"
				}
			],
			"payable": false,
			"stateMutability": "view",
			"type": "function"
		},
		{
			"constant": true,
			"inputs": [],
			"name": "vaultAddress",
			"outputs": [
				{
					"name": "",
					"type": "address"
				}
			],
			"payable": false,
			"stateMutability": "view",
			"type": "function"
		},
		{
			"constant": true,
			"inputs": [],
			"name": "database",
			"outputs": [
				{
					"name": "",
					"type": "string"
				}
			],
			"payable": false,
			"stateMutability": "view",
			"type": "function"
		},
		{
			"constant": true,
			"inputs": [],
			"name": "typeId",
			"outputs": [
				{
					"name": "",
					"type": "uint8"
				}
			],
			"payable": false,
			"stateMutability": "view",
			"type": "function"
		},
		{
			"constant": false,
			"inputs": [
				{
					"name": "_erc20TokenAddress",
					"type": "address"
				},
				{
					"name": "_recipient",
					"type": "address"
				},
				{
					"name": "_amount",
					"type": "uint256"
				}
			],
			"name": "transferERC20",
			"outputs": [
				{
					"name": "",
					"type": "bool"
				}
			],
			"payable": false,
			"stateMutability": "nonpayable",
			"type": "function"
		},
		{
			"constant": true,
			"inputs": [],
			"name": "keyValue",
			"outputs": [
				{
					"name": "",
					"type": "string"
				}
			],
			"payable": false,
			"stateMutability": "view",
			"type": "function"
		},
		{
			"constant": true,
			"inputs": [],
			"name": "contentId",
			"outputs": [
				{
					"name": "",
					"type": "bytes32"
				}
			],
			"payable": false,
			"stateMutability": "view",
			"type": "function"
		},
		{
			"constant": false,
			"inputs": [
				{
					"name": "_recipient",
					"type": "address"
				},
				{
					"name": "_amount",
					"type": "uint256"
				}
			],
			"name": "transferEth",
			"outputs": [
				{
					"name": "",
					"type": "bool"
				}
			],
			"payable": false,
			"stateMutability": "nonpayable",
			"type": "function"
		},
		{
			"inputs": [
				{
					"name": "_name",
					"type": "string"
				},
				{
					"name": "_originId",
					"type": "address"
				},
				{
					"name": "_datHash",
					"type": "string"
				},
				{
					"name": "_database",
					"type": "string"
				},
				{
					"name": "_keyValue",
					"type": "string"
				},
				{
					"name": "_contentId",
					"type": "bytes32"
				},
				{
					"name": "_vaultAddress",
					"type": "address"
				}
			],
			"payable": false,
			"stateMutability": "nonpayable",
			"type": "constructor"
		},
		{
			"payable": true,
			"stateMutability": "payable",
			"type": "fallback"
		}
	],
	"bytecode": "0x608060405234801561001057600080fd5b506040516107393803806107398339810160409081528151602080840151928401516060850151608086015160a087015160c08801519588018051909894850196938501959290940193909291889188918891889188918891889161007b91600191908a019061011a565b5060028054600160a060020a031916600160a060020a03881617905584516100aa90600390602088019061011a565b5083516100be90600490602087019061011a565b5082516100d290600590602086019061011a565b506006919091556007805460008054600160a060020a031916600160a060020a039094169390931790925560ff199091166001179055506101b59a5050505050505050505050565b828054600181600116156101000203166002900490600052602060002090601f016020900481019282601f1061015b57805160ff1916838001178555610188565b82800160010185558215610188579182015b8281111561018857825182559160200191906001019061016d565b50610194929150610198565b5090565b6101b291905b80821115610194576000815560010161019e565b90565b610575806101c46000396000f3006080604052600436106100a35763ffffffff7c01000000000000000000000000000000000000000000000000000000006000350416630568479081146100a557806306fdde031461012f57806313866efa14610144578063430bf08a14610175578063713b563f1461018a5780638f940f631461019f5780639db5dbe4146101ca578063a727be5714610208578063d97aa9771461021d578063e9bb84c214610244575b005b3480156100b157600080fd5b506100ba610268565b6040805160208082528351818301528351919283929083019185019080838360005b838110156100f45781810151838201526020016100dc565b50505050905090810190601f1680156101215780820380516001836020036101000a031916815260200191505b509250505060405180910390f35b34801561013b57600080fd5b506100ba6102f6565b34801561015057600080fd5b50610159610350565b60408051600160a060020a039092168252519081900360200190f35b34801561018157600080fd5b5061015961035f565b34801561019657600080fd5b506100ba61036e565b3480156101ab57600080fd5b506101b46103c9565b6040805160ff9092168252519081900360200190f35b3480156101d657600080fd5b506101f4600160a060020a03600435811690602435166044356103d2565b604080519115158252519081900360200190f35b34801561021457600080fd5b506100ba610490565b34801561022957600080fd5b506102326104eb565b60408051918252519081900360200190f35b34801561025057600080fd5b506101f4600160a060020a03600435166024356104f1565b6003805460408051602060026001851615610100026000190190941693909304601f810184900484028201840190925281815292918301828280156102ee5780601f106102c3576101008083540402835291602001916102ee565b820191906000526020600020905b8154815290600101906020018083116102d157829003601f168201915b505050505081565b60018054604080516020600284861615610100026000190190941693909304601f810184900484028201840190925281815292918301828280156102ee5780601f106102c3576101008083540402835291602001916102ee565b600254600160a060020a031681565b600054600160a060020a031681565b6004805460408051602060026001851615610100026000190190941693909304601f810184900484028201840190925281815292918301828280156102ee5780601f106102c3576101008083540402835291602001916102ee565b60075460ff1681565b600080548190600160a060020a031633146103ec57600080fd5b50604080517fa9059cbb000000000000000000000000000000000000000000000000000000008152600160a060020a038581166004830152602482018590529151869283169163a9059cbb9160448083019260209291908290030181600087803b15801561045957600080fd5b505af115801561046d573d6000803e3d6000fd5b505050506040513d602081101561048357600080fd5b5060019695505050505050565b6005805460408051602060026001851615610100026000190190941693909304601f810184900484028201840190925281815292918301828280156102ee5780601f106102c3576101008083540402835291602001916102ee565b60065481565b60008054600160a060020a0316331461050957600080fd5b604051600160a060020a0384169083156108fc029084906000818181858888f1935050505015801561053f573d6000803e3d6000fd5b50600193925050505600a165627a7a723058205822ef5c3c6213a46930354ca87960125877d25f31f1495c766763fccac918ec0029",
	"source": "pragma solidity ^0.4.24;\n\nimport './TAO.sol';\n/**\n * @title Name\n */\ncontract Name is TAO {\n\t/**\n\t * @dev Constructor function\n\t */\n\tconstructor (string _name, address _originId, string _datHash, string _database, string _keyValue, bytes32 _contentId, address _vaultAddress)\n\t\tTAO (_name, _originId, _datHash, _database, _keyValue, _contentId, _vaultAddress) public {\n\t\t// Creating Name\n\t\ttypeId = 1;\n\t}\n}\n",
	"sourcePath": "/Users/johanmulyono/Work/AO/ao-contracts/contracts/Name.sol",
	"compiler": {
		"name": "solc",
		"version": "0.4.24+commit.e67f0147.Emscripten.clang"
	},
	"schemaVersion": "2.0.1",
	"updatedAt": "2019-04-04T04:26:19.886Z"
}