{
	"contractName": "NameAccountRecovery",
	"abi": [
		{
			"constant": true,
			"inputs": [],
			"name": "aoSettingAddress",
			"outputs": [
				{
					"name": "",
					"type": "address"
				}
			],
			"payable": false,
			"stateMutability": "view",
			"type": "function"
		},
		{
			"constant": true,
			"inputs": [],
			"name": "nameTAOPositionAddress",
			"outputs": [
				{
					"name": "",
					"type": "address"
				}
			],
			"payable": false,
			"stateMutability": "view",
			"type": "function"
		},
		{
			"constant": true,
			"inputs": [
				{
					"name": "",
					"type": "address"
				}
			],
			"name": "whitelist",
			"outputs": [
				{
					"name": "",
					"type": "bool"
				}
			],
			"payable": false,
			"stateMutability": "view",
			"type": "function"
		},
		{
			"constant": true,
			"inputs": [],
			"name": "theAO",
			"outputs": [
				{
					"name": "",
					"type": "address"
				}
			],
			"payable": false,
			"stateMutability": "view",
			"type": "function"
		},
		{
			"constant": true,
			"inputs": [],
			"name": "nameFactoryAddress",
			"outputs": [
				{
					"name": "",
					"type": "address"
				}
			],
			"payable": false,
			"stateMutability": "view",
			"type": "function"
		},
		{
			"constant": true,
			"inputs": [],
			"name": "namePublicKeyAddress",
			"outputs": [
				{
					"name": "",
					"type": "address"
				}
			],
			"payable": false,
			"stateMutability": "view",
			"type": "function"
		},
		{
			"constant": true,
			"inputs": [],
			"name": "settingTAOId",
			"outputs": [
				{
					"name": "",
					"type": "address"
				}
			],
			"payable": false,
			"stateMutability": "view",
			"type": "function"
		},
		{
			"inputs": [
				{
					"name": "_nameFactoryAddress",
					"type": "address"
				},
				{
					"name": "_nameTAOPositionAddress",
					"type": "address"
				}
			],
			"payable": false,
			"stateMutability": "nonpayable",
			"type": "constructor"
		},
		{
			"anonymous": false,
			"inputs": [
				{
					"indexed": true,
					"name": "nameId",
					"type": "address"
				},
				{
					"indexed": false,
					"name": "listenerId",
					"type": "address"
				},
				{
					"indexed": false,
					"name": "compromised",
					"type": "bool"
				},
				{
					"indexed": false,
					"name": "submittedTimestamp",
					"type": "uint256"
				},
				{
					"indexed": false,
					"name": "lockedUntilTimestamp",
					"type": "uint256"
				},
				{
					"indexed": false,
					"name": "nonce",
					"type": "uint256"
				}
			],
			"name": "SubmitAccountRecovery",
			"type": "event"
		},
		{
			"anonymous": false,
			"inputs": [
				{
					"indexed": true,
					"name": "nameId",
					"type": "address"
				},
				{
					"indexed": false,
					"name": "speakerId",
					"type": "address"
				},
				{
					"indexed": false,
					"name": "newAddress",
					"type": "address"
				},
				{
					"indexed": false,
					"name": "timestamp",
					"type": "uint256"
				},
				{
					"indexed": false,
					"name": "nonce",
					"type": "uint256"
				}
			],
			"name": "SetNameNewAddress",
			"type": "event"
		},
		{
			"constant": false,
			"inputs": [
				{
					"name": "_theAO",
					"type": "address"
				}
			],
			"name": "transferOwnership",
			"outputs": [],
			"payable": false,
			"stateMutability": "nonpayable",
			"type": "function"
		},
		{
			"constant": false,
			"inputs": [
				{
					"name": "_account",
					"type": "address"
				},
				{
					"name": "_whitelist",
					"type": "bool"
				}
			],
			"name": "setWhitelist",
			"outputs": [],
			"payable": false,
			"stateMutability": "nonpayable",
			"type": "function"
		},
		{
			"constant": false,
			"inputs": [
				{
					"name": "_nameFactoryAddress",
					"type": "address"
				}
			],
			"name": "setNameFactoryAddress",
			"outputs": [],
			"payable": false,
			"stateMutability": "nonpayable",
			"type": "function"
		},
		{
			"constant": false,
			"inputs": [
				{
					"name": "_nameTAOPositionAddress",
					"type": "address"
				}
			],
			"name": "setNameTAOPositionAddress",
			"outputs": [],
			"payable": false,
			"stateMutability": "nonpayable",
			"type": "function"
		},
		{
			"constant": false,
			"inputs": [
				{
					"name": "_namePublicKeyAddress",
					"type": "address"
				}
			],
			"name": "setNamePublicKeyAddress",
			"outputs": [],
			"payable": false,
			"stateMutability": "nonpayable",
			"type": "function"
		},
		{
			"constant": false,
			"inputs": [
				{
					"name": "_settingTAOId",
					"type": "address"
				}
			],
			"name": "setSettingTAOId",
			"outputs": [],
			"payable": false,
			"stateMutability": "nonpayable",
			"type": "function"
		},
		{
			"constant": false,
			"inputs": [
				{
					"name": "_aoSettingAddress",
					"type": "address"
				}
			],
			"name": "setAOSettingAddress",
			"outputs": [],
			"payable": false,
			"stateMutability": "nonpayable",
			"type": "function"
		},
		{
			"constant": true,
			"inputs": [
				{
					"name": "_id",
					"type": "address"
				}
			],
			"name": "getAccountRecovery",
			"outputs": [
				{
					"name": "",
					"type": "bool"
				},
				{
					"name": "",
					"type": "uint256"
				},
				{
					"name": "",
					"type": "uint256"
				}
			],
			"payable": false,
			"stateMutability": "view",
			"type": "function"
		},
		{
			"constant": false,
			"inputs": [
				{
					"name": "_id",
					"type": "address"
				}
			],
			"name": "submitAccountRecovery",
			"outputs": [],
			"payable": false,
			"stateMutability": "nonpayable",
			"type": "function"
		},
		{
			"constant": true,
			"inputs": [
				{
					"name": "_id",
					"type": "address"
				}
			],
			"name": "isCompromised",
			"outputs": [
				{
					"name": "",
					"type": "bool"
				}
			],
			"payable": false,
			"stateMutability": "view",
			"type": "function"
		},
		{
			"constant": false,
			"inputs": [
				{
					"name": "_id",
					"type": "address"
				},
				{
					"name": "_newAddress",
					"type": "address"
				}
			],
			"name": "setNameNewAddress",
			"outputs": [],
			"payable": false,
			"stateMutability": "nonpayable",
			"type": "function"
		}
	],
	"bytecode": "0x60806040523480156200001157600080fd5b5060405160408062001e2b83398101604052805160209091015160008054600160a060020a0319163317905562000051826401000000006200006d810204565b620000658164010000000062000172810204565b505062000277565b600054600554604080517ff66afcac000000000000000000000000000000000000000000000000000000008152336004820152600160a060020a0393841660248201529290911660448301525173__AOLibrary_____________________________9163f66afcac916064808301926020929190829003018186803b158015620000f657600080fd5b505af41580156200010b573d6000803e3d6000fd5b505050506040513d60208110156200012257600080fd5b505115156200013057600080fd5b600160a060020a03811615156200014657600080fd5b60048054600160a060020a03909216600160a060020a0319928316811790915560088054909216179055565b600054600554604080517ff66afcac000000000000000000000000000000000000000000000000000000008152336004820152600160a060020a0393841660248201529290911660448301525173__AOLibrary_____________________________9163f66afcac916064808301926020929190829003018186803b158015620001fb57600080fd5b505af415801562000210573d6000803e3d6000fd5b505050506040513d60208110156200022757600080fd5b505115156200023557600080fd5b600160a060020a03811615156200024b57600080fd5b60058054600160a060020a03909216600160a060020a0319928316811790915560098054909216179055565b611ba480620002876000396000f3006080604052600436106100e25763ffffffff60e060020a60003504166306fd708881146100e75780631d0138ff1461010a5780632b3fd4a01461013b5780633ebc2ab3146101625780634ef033f01461019757806353d6fd59146101ac5780635cfaf2ef146101d25780636c98d7fc146101f35780636d9aa034146102145780638c924361146102355780639b19251a14610256578063a9b6b38e14610277578063bc4062061461028c578063d6830af3146102a1578063d8ce52d1146102c2578063e7c50185146102d7578063f2fde38b146102ec578063f42037a71461030d575b600080fd5b3480156100f357600080fd5b50610108600160a060020a036004351661034e565b005b34801561011657600080fd5b5061011f610445565b60408051600160a060020a039092168252519081900360200190f35b34801561014757600080fd5b50610108600160a060020a0360043581169060243516610454565b34801561016e57600080fd5b50610183600160a060020a0360043516610bf5565b604080519115158252519081900360200190f35b3480156101a357600080fd5b5061011f610cfd565b3480156101b857600080fd5b50610108600160a060020a03600435166024351515610d0c565b3480156101de57600080fd5b50610108600160a060020a0360043516610df5565b3480156101ff57600080fd5b50610108600160a060020a0360043516610eec565b34801561022057600080fd5b50610108600160a060020a036004351661144b565b34801561024157600080fd5b50610108600160a060020a0360043516611542565b34801561026257600080fd5b50610183600160a060020a0360043516611639565b34801561028357600080fd5b5061011f61164e565b34801561029857600080fd5b5061011f61165d565b3480156102ad57600080fd5b50610108600160a060020a036004351661166c565b3480156102ce57600080fd5b5061011f6117ee565b3480156102e357600080fd5b5061011f6117fd565b3480156102f857600080fd5b50610108600160a060020a036004351661180c565b34801561031957600080fd5b5061032e600160a060020a03600435166118f9565b604080519315158452602084019290925282820152519081900360600190f35b6000546005546040805160e260020a633d9abf2b028152336004820152600160a060020a0393841660248201529290911660448301525173__AOLibrary_____________________________9163f66afcac916064808301926020929190829003018186803b1580156103c057600080fd5b505af41580156103d4573d6000803e3d6000fd5b505050506040513d60208110156103ea57600080fd5b505115156103f757600080fd5b600160a060020a038116151561040c57600080fd5b60078054600160a060020a0390921673ffffffffffffffffffffffffffffffffffffffff199283168117909155600b8054909216179055565b600754600160a060020a031681565b6000808373__AOLibrary_____________________________632d706a34826040518263ffffffff1660e060020a0281526004018082600160a060020a0316600160a060020a0316815260200191505060206040518083038186803b1580156104bc57600080fd5b505af41580156104d0573d6000803e3d6000fd5b505050506040513d60208110156104e657600080fd5b505115156104f357600080fd5b6008546040805160e060020a63029b7d530281523360048201529051600092600160a060020a03169163029b7d5391602480830192602092919082900301818787803b15801561054257600080fd5b505af1158015610556573d6000803e3d6000fd5b505050506040513d602081101561056c57600080fd5b5051600160a060020a0316141561058257600080fd5b600160a060020a038416151561059757600080fd5b600954604080517f20082c69000000000000000000000000000000000000000000000000000000008152336004820152600160a060020a038881166024830152915191909216916320082c699160448083019260209291908290030181600087803b15801561060557600080fd5b505af1158015610619573d6000803e3d6000fd5b505050506040513d602081101561062f57600080fd5b5051151561063c57600080fd5b6008546040805160e060020a63029b7d5302815233600482015290513092633ebc2ab392600160a060020a039091169163029b7d53916024808201926020929091908290030181600087803b15801561069457600080fd5b505af11580156106a8573d6000803e3d6000fd5b505050506040513d60208110156106be57600080fd5b50516040805160e060020a63ffffffff8516028152600160a060020a0390921660048301525160248083019260209291908290030181600087803b15801561070557600080fd5b505af1158015610719573d6000803e3d6000fd5b505050506040513d602081101561072f57600080fd5b50511561073b57600080fd5b604080517f3ebc2ab3000000000000000000000000000000000000000000000000000000008152600160a060020a038716600482015290513091633ebc2ab39160248083019260209291908290030181600087803b15801561079c57600080fd5b505af11580156107b0573d6000803e3d6000fd5b505050506040513d60208110156107c657600080fd5b505115156107d357600080fd5b6008546040805160e060020a63029b7d53028152600160a060020a03878116600483015291516000939092169163029b7d539160248082019260209290919082900301818787803b15801561082757600080fd5b505af115801561083b573d6000803e3d6000fd5b505050506040513d602081101561085157600080fd5b5051600160a060020a03161461086657600080fd5b600160a060020a038086166000818152600c60209081526040808320805460ff19168155600181018490556002810184905560085482517f2b3fd4a000000000000000000000000000000000000000000000000000000000815260048101969096528a871660248701529151909850941693632b3fd4a093604480820194918390030190829087803b1580156108fb57600080fd5b505af115801561090f573d6000803e3d6000fd5b505050506040513d602081101561092557600080fd5b5051151561093257600080fd5b600a54604080517fa481247c000000000000000000000000000000000000000000000000000000008152600160a060020a03888116600483015287811660248301529151919092169163a481247c9160448083019260209291908290030181600087803b1580156109a257600080fd5b505af11580156109b6573d6000803e3d6000fd5b505050506040513d60208110156109cc57600080fd5b50511515610a7b57600a54604080517ff0f2fd04000000000000000000000000000000000000000000000000000000008152600160a060020a03888116600483015287811660248301529151919092169163f0f2fd049160448083019260209291908290030181600087803b158015610a4457600080fd5b505af1158015610a58573d6000803e3d6000fd5b505050506040513d6020811015610a6e57600080fd5b50511515610a7b57600080fd5b600854604080517ff5743c4c000000000000000000000000000000000000000000000000000000008152600160a060020a0388811660048301529151919092169163f5743c4c9160248083019260209291908290030181600087803b158015610ae357600080fd5b505af1158015610af7573d6000803e3d6000fd5b505050506040513d6020811015610b0d57600080fd5b5051915060008211610b1e57600080fd5b6008546040805160e060020a63029b7d530281523360048201529051600160a060020a03808916937fa2ba799ab310a8972c43fac2fe72f0e89beeb1807531fea8bcec1311328090119391169163029b7d53916024808201926020929091908290030181600087803b158015610b9357600080fd5b505af1158015610ba7573d6000803e3d6000fd5b505050506040513d6020811015610bbd57600080fd5b505160408051600160a060020a0392831681529188166020830152428282015260016060830152519081900360800190a25050505050565b6000610bff611b54565b8273__AOLibrary_____________________________632d706a34826040518263ffffffff1660e060020a0281526004018082600160a060020a0316600160a060020a0316815260200191505060206040518083038186803b158015610c6457600080fd5b505af4158015610c78573d6000803e3d6000fd5b505050506040513d6020811015610c8e57600080fd5b50511515610c9b57600080fd5b600160a060020a0384166000908152600c60209081526040918290208251606081018452815460ff161580158083526001840154948301949094526002909201549381019390935291935090610cf5575081604001514211155b949350505050565b600554600160a060020a031681565b6000546005546040805160e260020a633d9abf2b028152336004820152600160a060020a0393841660248201529290911660448301525173__AOLibrary_____________________________9163f66afcac916064808301926020929190829003018186803b158015610d7e57600080fd5b505af4158015610d92573d6000803e3d6000fd5b505050506040513d6020811015610da857600080fd5b50511515610db557600080fd5b600160a060020a0382161515610dca57600080fd5b600160a060020a03919091166000908152600260205260409020805460ff1916911515919091179055565b6000546005546040805160e260020a633d9abf2b028152336004820152600160a060020a0393841660248201529290911660448301525173__AOLibrary_____________________________9163f66afcac916064808301926020929190829003018186803b158015610e6757600080fd5b505af4158015610e7b573d6000803e3d6000fd5b505050506040513d6020811015610e9157600080fd5b50511515610e9e57600080fd5b600160a060020a0381161515610eb357600080fd5b60058054600160a060020a0390921673ffffffffffffffffffffffffffffffffffffffff19928316811790915560098054909216179055565b6000808273__AOLibrary_____________________________632d706a34826040518263ffffffff1660e060020a0281526004018082600160a060020a0316600160a060020a0316815260200191505060206040518083038186803b158015610f5457600080fd5b505af4158015610f68573d6000803e3d6000fd5b505050506040513d6020811015610f7e57600080fd5b50511515610f8b57600080fd5b6008546040805160e060020a63029b7d530281523360048201529051600092600160a060020a03169163029b7d5391602480830192602092919082900301818787803b158015610fda57600080fd5b505af1158015610fee573d6000803e3d6000fd5b505050506040513d602081101561100457600080fd5b5051600160a060020a0316141561101a57600080fd5b600954604080517fdaacb9ce000000000000000000000000000000000000000000000000000000008152336004820152600160a060020a0387811660248301529151919092169163daacb9ce9160448083019260209291908290030181600087803b15801561108857600080fd5b505af115801561109c573d6000803e3d6000fd5b505050506040513d60208110156110b257600080fd5b505115156110bf57600080fd5b600954604080517f71ce52ed000000000000000000000000000000000000000000000000000000008152336004820152600160a060020a038781166024830152915191909216916371ce52ed9160448083019260209291908290030181600087803b15801561112d57600080fd5b505af1158015611141573d6000803e3d6000fd5b505050506040513d602081101561115757600080fd5b50511561116357600080fd5b6008546040805160e060020a63029b7d5302815233600482015290513092633ebc2ab392600160a060020a039091169163029b7d53916024808201926020929091908290030181600087803b1580156111bb57600080fd5b505af11580156111cf573d6000803e3d6000fd5b505050506040513d60208110156111e557600080fd5b50516040805160e060020a63ffffffff8516028152600160a060020a0390921660048301525160248083019260209291908290030181600087803b15801561122c57600080fd5b505af1158015611240573d6000803e3d6000fd5b505050506040513d602081101561125657600080fd5b50511561126257600080fd5b600160a060020a0384166000908152600c602052604090206002810154909350421161128d57600080fd5b825460ff19166001908117845542908401556112bb6112aa6119f2565b60018501549063ffffffff611b4116565b6002840155600854604080517ff5743c4c000000000000000000000000000000000000000000000000000000008152600160a060020a0387811660048301529151919092169163f5743c4c9160248083019260209291908290030181600087803b15801561132857600080fd5b505af115801561133c573d6000803e3d6000fd5b505050506040513d602081101561135257600080fd5b505191506000821161136357600080fd5b6008546040805160e060020a63029b7d530281523360048201529051600160a060020a03808816937f47deb83140ae2c85e9af08db49e64191bda9b547269f4167e02ef7d15836048a9391169163029b7d53916024808201926020929091908290030181600087803b1580156113d857600080fd5b505af11580156113ec573d6000803e3d6000fd5b505050506040513d602081101561140257600080fd5b5051600186810154600288015460408051600160a060020a039095168552602085019390935283830191909152606083015260808201869052519081900360a00190a250505050565b6000546005546040805160e260020a633d9abf2b028152336004820152600160a060020a0393841660248201529290911660448301525173__AOLibrary_____________________________9163f66afcac916064808301926020929190829003018186803b1580156114bd57600080fd5b505af41580156114d1573d6000803e3d6000fd5b505050506040513d60208110156114e757600080fd5b505115156114f457600080fd5b600160a060020a038116151561150957600080fd5b60068054600160a060020a0390921673ffffffffffffffffffffffffffffffffffffffff199283168117909155600a8054909216179055565b6000546005546040805160e260020a633d9abf2b028152336004820152600160a060020a0393841660248201529290911660448301525173__AOLibrary_____________________________9163f66afcac916064808301926020929190829003018186803b1580156115b457600080fd5b505af41580156115c8573d6000803e3d6000fd5b505050506040513d60208110156115de57600080fd5b505115156115eb57600080fd5b600160a060020a038116151561160057600080fd5b60048054600160a060020a0390921673ffffffffffffffffffffffffffffffffffffffff19928316811790915560088054909216179055565b60026020526000908152604090205460ff1681565b600054600160a060020a031681565b600454600160a060020a031681565b6000546005546040805160e260020a633d9abf2b028152336004820152600160a060020a0393841660248201529290911660448301525173__AOLibrary_____________________________9163f66afcac916064808301926020929190829003018186803b1580156116de57600080fd5b505af41580156116f2573d6000803e3d6000fd5b505050506040513d602081101561170857600080fd5b5051151561171557600080fd5b604080517f2fca5414000000000000000000000000000000000000000000000000000000008152600160a060020a0383166004820152905173__AOLibrary_____________________________91632fca5414916024808301926020929190829003018186803b15801561178857600080fd5b505af415801561179c573d6000803e3d6000fd5b505050506040513d60208110156117b257600080fd5b505115156117bf57600080fd5b6003805473ffffffffffffffffffffffffffffffffffffffff1916600160a060020a0392909216919091179055565b600654600160a060020a031681565b600354600160a060020a031681565b6000546005546040805160e260020a633d9abf2b028152336004820152600160a060020a0393841660248201529290911660448301525173__AOLibrary_____________________________9163f66afcac916064808301926020929190829003018186803b15801561187e57600080fd5b505af4158015611892573d6000803e3d6000fd5b505050506040513d60208110156118a857600080fd5b505115156118b557600080fd5b600160a060020a03811615156118ca57600080fd5b6000805473ffffffffffffffffffffffffffffffffffffffff1916600160a060020a0392909216919091179055565b6000806000611906611b54565b8473__AOLibrary_____________________________632d706a34826040518263ffffffff1660e060020a0281526004018082600160a060020a0316600160a060020a0316815260200191505060206040518083038186803b15801561196b57600080fd5b505af415801561197f573d6000803e3d6000fd5b505050506040513d602081101561199557600080fd5b505115156119a257600080fd5b50505050600160a060020a03919091166000908152600c60209081526040918290208251606081018452815460ff1615158082526001830154938201849052600290920154930183905293909250565b600b54600354604080517f7065bedc000000000000000000000000000000000000000000000000000000008152600160a060020a03928316600482015260248101829052601b60448201527f6163636f756e745265636f766572794c6f636b4475726174696f6e00000000006064820152905160009384931691637065bedc916084808301928692919082900301818387803b158015611a9157600080fd5b505af1158015611aa5573d6000803e3d6000fd5b505050506040513d6000823e601f3d908101601f1916820160405260a0811015611ace57600080fd5b815160208301516040840151606085015160808601805194969395929491939283019291640100000000811115611b0457600080fd5b82016020810184811115611b1757600080fd5b8151640100000000811182820187101715611b3157600080fd5b50979a9950505050505050505050565b81810182811015611b4e57fe5b92915050565b606060405190810160405280600015158152602001600081526020016000815250905600a165627a7a723058207912e7d8713c581eb19001bb855deacf14d86146e656ce13aceb37b903202ae10029",
	"source": "pragma solidity ^0.4.24;\n\nimport './SafeMath.sol';\nimport './AOLibrary.sol';\nimport './TheAO.sol';\nimport './INameAccountRecovery.sol';\nimport './INameFactory.sol';\nimport './INameTAOPosition.sol';\nimport './INamePublicKey.sol';\nimport './IAOSetting.sol';\n\n/**\n * @title NameAccountRecovery\n */\ncontract NameAccountRecovery is TheAO {\n\tusing SafeMath for uint256;\n\n\taddress public settingTAOId;\n\taddress public nameFactoryAddress;\n\taddress public nameTAOPositionAddress;\n\taddress public namePublicKeyAddress;\n\taddress public aoSettingAddress;\n\n\tINameFactory internal _nameFactory;\n\tINameTAOPosition internal _nameTAOPosition;\n\tINamePublicKey internal _namePublicKey;\n\tIAOSetting internal _aoSetting;\n\n\tstruct AccountRecovery {\n\t\t// If submitted, then Name is locked until lockedUntilTimestamp\n\t\t// and if no action is taken by the Speaker, then the current\n\t\t// eth address associated with the Name can resume operation\n\t\tbool submitted;\n\t\tuint256 submittedTimestamp;\t\t// Timestamp when this account recovery is submitted\n\t\tuint256 lockedUntilTimestamp;\t// The deadline for the current Speaker of Name to respond and replace the new eth address\n\t}\n\n\tmapping (address => AccountRecovery) internal accountRecoveries;\n\n\t// Event to be broadcasted to public when current Listener of Name submitted account recovery for a Name\n\tevent SubmitAccountRecovery(address indexed nameId, address listenerId, bool compromised, uint256 submittedTimestamp, uint256 lockedUntilTimestamp, uint256 nonce);\n\n\t// Event to be broadcasted to public when current Speaker of Name set new ETH Address for a Name\n\tevent SetNameNewAddress(address indexed nameId, address speakerId, address newAddress, uint256 timestamp, uint256 nonce);\n\n\t/**\n\t * @dev Constructor function\n\t */\n\tconstructor(address _nameFactoryAddress, address _nameTAOPositionAddress) public {\n\t\tsetNameFactoryAddress(_nameFactoryAddress);\n\t\tsetNameTAOPositionAddress(_nameTAOPositionAddress);\n\t}\n\n\t/**\n\t * @dev Checks if the calling contract address is The AO\n\t *\t\tOR\n\t *\t\tIf The AO is set to a Name/TAO, then check if calling address is the Advocate\n\t */\n\tmodifier onlyTheAO {\n\t\trequire (AOLibrary.isTheAO(msg.sender, theAO, nameTAOPositionAddress));\n\t\t_;\n\t}\n\n\t/**\n\t * @dev Check if calling address is Factory\n\t */\n\tmodifier onlyFactory {\n\t\trequire (msg.sender == nameFactoryAddress);\n\t\t_;\n\t}\n\n\t/**\n\t * @dev Check is msg.sender address is a Name\n\t */\n\t modifier senderIsName() {\n\t\trequire (_nameFactory.ethAddressToNameId(msg.sender) != address(0));\n\t\t_;\n\t }\n\n\t/**\n\t * @dev Check if `_nameId` is a Name\n\t */\n\tmodifier isName(address _nameId) {\n\t\trequire (AOLibrary.isName(_nameId));\n\t\t_;\n\t}\n\n\t/***** The AO ONLY METHODS *****/\n\t/**\n\t * @dev Transfer ownership of The AO to new address\n\t * @param _theAO The new address to be transferred\n\t */\n\tfunction transferOwnership(address _theAO) public onlyTheAO {\n\t\trequire (_theAO != address(0));\n\t\ttheAO = _theAO;\n\t}\n\n\t/**\n\t * @dev Whitelist `_account` address to transact on behalf of others\n\t * @param _account The address to whitelist\n\t * @param _whitelist Either to whitelist or not\n\t */\n\tfunction setWhitelist(address _account, bool _whitelist) public onlyTheAO {\n\t\trequire (_account != address(0));\n\t\twhitelist[_account] = _whitelist;\n\t}\n\n\t/**\n\t * @dev The AO set the NameFactory Address\n\t * @param _nameFactoryAddress The address of NameFactory\n\t */\n\tfunction setNameFactoryAddress(address _nameFactoryAddress) public onlyTheAO {\n\t\trequire (_nameFactoryAddress != address(0));\n\t\tnameFactoryAddress = _nameFactoryAddress;\n\t\t_nameFactory = INameFactory(_nameFactoryAddress);\n\t}\n\n\t/**\n\t * @dev The AO set the NameTAOPosition Address\n\t * @param _nameTAOPositionAddress The address of NameTAOPosition\n\t */\n\tfunction setNameTAOPositionAddress(address _nameTAOPositionAddress) public onlyTheAO {\n\t\trequire (_nameTAOPositionAddress != address(0));\n\t\tnameTAOPositionAddress = _nameTAOPositionAddress;\n\t\t_nameTAOPosition = INameTAOPosition(_nameTAOPositionAddress);\n\t}\n\n\t/**\n\t * @dev The AO set the NamePublicKey Address\n\t * @param _namePublicKeyAddress The address of NamePublicKey\n\t */\n\tfunction setNamePublicKeyAddress(address _namePublicKeyAddress) public onlyTheAO {\n\t\trequire (_namePublicKeyAddress != address(0));\n\t\tnamePublicKeyAddress = _namePublicKeyAddress;\n\t\t_namePublicKey = INamePublicKey(_namePublicKeyAddress);\n\t}\n\n\t/**\n\t * @dev The AO sets setting TAO ID\n\t * @param _settingTAOId The new setting TAO ID to set\n\t */\n\tfunction setSettingTAOId(address _settingTAOId) public onlyTheAO {\n\t\trequire (AOLibrary.isTAO(_settingTAOId));\n\t\tsettingTAOId = _settingTAOId;\n\t}\n\n\t/**\n\t * @dev The AO sets AO Setting address\n\t * @param _aoSettingAddress The address of AOSetting\n\t */\n\tfunction setAOSettingAddress(address _aoSettingAddress) public onlyTheAO {\n\t\trequire (_aoSettingAddress != address(0));\n\t\taoSettingAddress = _aoSettingAddress;\n\t\t_aoSetting = IAOSetting(_aoSettingAddress);\n\t}\n\n\t/***** PUBLIC METHODS *****/\n\t/**\n\t * @dev Get AccountRecovery information given a Name ID\n\t * @param _id The ID of the Name\n\t * @return the submit status of the account recovery\n\t * @return submittedTimestamp - Timestamp when this account recovery is submitted\n\t * @return lockedUntilTimestamp - The deadline for the current Speaker of Name to respond and replace the new eth address\n\t */\n\tfunction getAccountRecovery(address _id) public isName(_id) view returns (bool, uint256, uint256) {\n\t\tAccountRecovery memory _accountRecovery = accountRecoveries[_id];\n\t\treturn (\n\t\t\t_accountRecovery.submitted,\n\t\t\t_accountRecovery.submittedTimestamp,\n\t\t\t_accountRecovery.lockedUntilTimestamp\n\t\t);\n\t}\n\n\t/**\n\t * @dev Listener of Name submits an account recovery for the Name\n\t * @param _id The ID of the Name\n\t */\n\tfunction submitAccountRecovery(address _id) public isName(_id) senderIsName {\n\t\trequire (_nameTAOPosition.senderIsListener(msg.sender, _id));\n\n\t\t// Can't submit account recovery for itself\n\t\trequire (!_nameTAOPosition.senderIsAdvocate(msg.sender, _id));\n\n\t\t// Make sure Listener is not currenty compromised\n\t\trequire (!this.isCompromised(_nameFactory.ethAddressToNameId(msg.sender)));\n\n\t\tAccountRecovery storage _accountRecovery = accountRecoveries[_id];\n\n\t\t// Make sure currently it's not currently locked\n\t\trequire (now > _accountRecovery.lockedUntilTimestamp);\n\n\t\t_accountRecovery.submitted = true;\n\t\t_accountRecovery.submittedTimestamp = now;\n\t\t_accountRecovery.lockedUntilTimestamp = _accountRecovery.submittedTimestamp.add(_getAccountRecoveryLockDuration());\n\n\t\tuint256 _nonce = _nameFactory.incrementNonce(_id);\n\t\trequire (_nonce > 0);\n\n\t\temit SubmitAccountRecovery(_id, _nameFactory.ethAddressToNameId(msg.sender), true, _accountRecovery.submittedTimestamp, _accountRecovery.lockedUntilTimestamp, _nonce);\n\t}\n\n\t/**\n\t * @dev Check whether or not current Name is compromised,\n\t *\t\ti.e an account recovery has been submitted and waiting for\n\t *\t\taction from Speaker\n\t * @param _id The ID of the Name\n\t * @return true if yes. false otherwise\n\t */\n\tfunction isCompromised(address _id) external isName(_id) view returns (bool) {\n\t\tAccountRecovery memory _accountRecovery = accountRecoveries[_id];\n\t\treturn (_accountRecovery.submitted && now <= _accountRecovery.lockedUntilTimestamp);\n\t}\n\n\t/**\n\t * @dev Speaker of Name respond to AccountRecovery and submits a new eth address for Name\n\t * @param _id The ID of the Name\n\t * @param _newAddress The new replacement eth address\n\t */\n\tfunction setNameNewAddress(address _id, address _newAddress) public isName(_id) senderIsName {\n\t\trequire (_newAddress != address(0));\n\n\t\t// Only Speaker can do this action\n\t\trequire (_nameTAOPosition.senderIsSpeaker(msg.sender, _id));\n\n\t\t// Make sure Speaker is not currenty compromised\n\t\trequire (!this.isCompromised(_nameFactory.ethAddressToNameId(msg.sender)));\n\n\t\t// Make sure this Name is currently compromised and needs action\n\t\trequire (this.isCompromised(_id));\n\n\t\t// Make sure the newAddress is not yet assigned to a Name\n\t\trequire (_nameFactory.ethAddressToNameId(_newAddress) == address(0));\n\n\t\tAccountRecovery storage _accountRecovery = accountRecoveries[_id];\n\t\t_accountRecovery.submitted = false;\n\t\t_accountRecovery.submittedTimestamp = 0;\n\t\t_accountRecovery.lockedUntilTimestamp = 0;\n\n\t\t// Replace the existing eth address with new address\n\t\trequire (_nameFactory.setNameNewAddress(_id, _newAddress));\n\n\t\t// Add this _newAddress to Name's publicKey if needed\n\t\tif (!_namePublicKey.isKeyExist(_id, _newAddress)) {\n\t\t\trequire (_namePublicKey.whitelistAddKey(_id, _newAddress));\n\t\t}\n\n\t\tuint256 _nonce = _nameFactory.incrementNonce(_id);\n\t\trequire (_nonce > 0);\n\n\t\temit SetNameNewAddress(_id, _nameFactory.ethAddressToNameId(msg.sender), _newAddress, now, 1);\n\t}\n\n\t/***** INTERNAL METHOD *****/\n\t/**\n\t * @dev Get accountRecoveryLockDuration setting\n\t * @return accountRecoveryLockDuration = The amount of time for current Speaker of Name to response and replace the eth address associated with the Name\n\t */\n\tfunction _getAccountRecoveryLockDuration() internal view returns (uint256) {\n\t\t(uint256 accountRecoveryLockDuration,,,,) = _aoSetting.getSettingValuesByTAOName(settingTAOId, 'accountRecoveryLockDuration');\n\t\treturn accountRecoveryLockDuration;\n\t}\n}\n",
	"sourcePath": "/Users/johanmulyono/Work/AO/ao-contracts/contracts/NameAccountRecovery.sol",
	"compiler": {
		"name": "solc",
		"version": "0.4.24+commit.e67f0147.Emscripten.clang"
	},
	"schemaVersion": "2.0.1",
	"updatedAt": "2019-03-22T03:50:43.388Z"
}