{
	"contractName": "TAOAncestry",
	"abi": [
		{
			"constant": false,
			"inputs": [
				{
					"name": "_nameAccountRecoveryAddress",
					"type": "address"
				}
			],
			"name": "setNameAccountRecoveryAddress",
			"outputs": [],
			"payable": false,
			"stateMutability": "nonpayable",
			"type": "function"
		},
		{
			"constant": true,
			"inputs": [],
			"name": "nameTAOPositionAddress",
			"outputs": [
				{
					"name": "",
					"type": "address"
				}
			],
			"payable": false,
			"stateMutability": "view",
			"type": "function"
		},
		{
			"constant": false,
			"inputs": [
				{
					"name": "_account",
					"type": "address"
				},
				{
					"name": "_whitelist",
					"type": "bool"
				}
			],
			"name": "setWhitelist",
			"outputs": [],
			"payable": false,
			"stateMutability": "nonpayable",
			"type": "function"
		},
		{
			"constant": false,
			"inputs": [
				{
					"name": "_nameTAOPositionAddress",
					"type": "address"
				}
			],
			"name": "setNameTAOPositionAddress",
			"outputs": [],
			"payable": false,
			"stateMutability": "nonpayable",
			"type": "function"
		},
		{
			"constant": false,
			"inputs": [
				{
					"name": "_nameFactoryAddress",
					"type": "address"
				}
			],
			"name": "setNameFactoryAddress",
			"outputs": [],
			"payable": false,
			"stateMutability": "nonpayable",
			"type": "function"
		},
		{
			"constant": true,
			"inputs": [
				{
					"name": "",
					"type": "address"
				}
			],
			"name": "whitelist",
			"outputs": [
				{
					"name": "",
					"type": "bool"
				}
			],
			"payable": false,
			"stateMutability": "view",
			"type": "function"
		},
		{
			"constant": true,
			"inputs": [],
			"name": "nameAccountRecoveryAddress",
			"outputs": [
				{
					"name": "",
					"type": "address"
				}
			],
			"payable": false,
			"stateMutability": "view",
			"type": "function"
		},
		{
			"constant": true,
			"inputs": [],
			"name": "theAO",
			"outputs": [
				{
					"name": "",
					"type": "address"
				}
			],
			"payable": false,
			"stateMutability": "view",
			"type": "function"
		},
		{
			"constant": true,
			"inputs": [],
			"name": "nameFactoryAddress",
			"outputs": [
				{
					"name": "",
					"type": "address"
				}
			],
			"payable": false,
			"stateMutability": "view",
			"type": "function"
		},
		{
			"constant": false,
			"inputs": [
				{
					"name": "_theAO",
					"type": "address"
				}
			],
			"name": "transferOwnership",
			"outputs": [],
			"payable": false,
			"stateMutability": "nonpayable",
			"type": "function"
		},
		{
			"constant": true,
			"inputs": [],
			"name": "taoFactoryAddress",
			"outputs": [
				{
					"name": "",
					"type": "address"
				}
			],
			"payable": false,
			"stateMutability": "view",
			"type": "function"
		},
		{
			"inputs": [
				{
					"name": "_nameFactoryAddress",
					"type": "address"
				},
				{
					"name": "_taoFactoryAddress",
					"type": "address"
				},
				{
					"name": "_nameTAOPositionAddress",
					"type": "address"
				}
			],
			"payable": false,
			"stateMutability": "nonpayable",
			"type": "constructor"
		},
		{
			"anonymous": false,
			"inputs": [
				{
					"indexed": true,
					"name": "taoId",
					"type": "address"
				},
				{
					"indexed": false,
					"name": "childMinLogos",
					"type": "uint256"
				},
				{
					"indexed": false,
					"name": "nonce",
					"type": "uint256"
				}
			],
			"name": "UpdateChildMinLogos",
			"type": "event"
		},
		{
			"anonymous": false,
			"inputs": [
				{
					"indexed": true,
					"name": "taoId",
					"type": "address"
				},
				{
					"indexed": false,
					"name": "taoAdvocate",
					"type": "address"
				},
				{
					"indexed": false,
					"name": "childId",
					"type": "address"
				},
				{
					"indexed": false,
					"name": "childAdvocate",
					"type": "address"
				},
				{
					"indexed": false,
					"name": "approved",
					"type": "bool"
				},
				{
					"indexed": false,
					"name": "connected",
					"type": "bool"
				}
			],
			"name": "AddChild",
			"type": "event"
		},
		{
			"anonymous": false,
			"inputs": [
				{
					"indexed": true,
					"name": "taoId",
					"type": "address"
				},
				{
					"indexed": false,
					"name": "taoAdvocate",
					"type": "address"
				},
				{
					"indexed": false,
					"name": "childId",
					"type": "address"
				},
				{
					"indexed": false,
					"name": "childAdvocate",
					"type": "address"
				},
				{
					"indexed": false,
					"name": "nonce",
					"type": "uint256"
				}
			],
			"name": "ApproveChild",
			"type": "event"
		},
		{
			"anonymous": false,
			"inputs": [
				{
					"indexed": true,
					"name": "taoId",
					"type": "address"
				},
				{
					"indexed": false,
					"name": "taoAdvocate",
					"type": "address"
				},
				{
					"indexed": false,
					"name": "childId",
					"type": "address"
				},
				{
					"indexed": false,
					"name": "childAdvocate",
					"type": "address"
				},
				{
					"indexed": false,
					"name": "nonce",
					"type": "uint256"
				}
			],
			"name": "RemoveChild",
			"type": "event"
		},
		{
			"constant": false,
			"inputs": [
				{
					"name": "_taoFactoryAddress",
					"type": "address"
				}
			],
			"name": "setTAOFactoryAddress",
			"outputs": [],
			"payable": false,
			"stateMutability": "nonpayable",
			"type": "function"
		},
		{
			"constant": true,
			"inputs": [
				{
					"name": "_id",
					"type": "address"
				}
			],
			"name": "isExist",
			"outputs": [
				{
					"name": "",
					"type": "bool"
				}
			],
			"payable": false,
			"stateMutability": "view",
			"type": "function"
		},
		{
			"constant": false,
			"inputs": [
				{
					"name": "_id",
					"type": "address"
				},
				{
					"name": "_parentId",
					"type": "address"
				},
				{
					"name": "_childMinLogos",
					"type": "uint256"
				}
			],
			"name": "initialize",
			"outputs": [
				{
					"name": "",
					"type": "bool"
				}
			],
			"payable": false,
			"stateMutability": "nonpayable",
			"type": "function"
		},
		{
			"constant": true,
			"inputs": [
				{
					"name": "_id",
					"type": "address"
				}
			],
			"name": "getAncestryById",
			"outputs": [
				{
					"name": "",
					"type": "address"
				},
				{
					"name": "",
					"type": "uint256"
				},
				{
					"name": "",
					"type": "uint256"
				}
			],
			"payable": false,
			"stateMutability": "view",
			"type": "function"
		},
		{
			"constant": false,
			"inputs": [
				{
					"name": "_id",
					"type": "address"
				},
				{
					"name": "_childMinLogos",
					"type": "uint256"
				}
			],
			"name": "updateChildMinLogos",
			"outputs": [],
			"payable": false,
			"stateMutability": "nonpayable",
			"type": "function"
		},
		{
			"constant": true,
			"inputs": [
				{
					"name": "_taoId",
					"type": "address"
				},
				{
					"name": "_childId",
					"type": "address"
				}
			],
			"name": "isChild",
			"outputs": [
				{
					"name": "",
					"type": "bool"
				}
			],
			"payable": false,
			"stateMutability": "view",
			"type": "function"
		},
		{
			"constant": true,
			"inputs": [
				{
					"name": "_taoId",
					"type": "address"
				},
				{
					"name": "_childId",
					"type": "address"
				}
			],
			"name": "isNotApprovedChild",
			"outputs": [
				{
					"name": "",
					"type": "bool"
				}
			],
			"payable": false,
			"stateMutability": "view",
			"type": "function"
		},
		{
			"constant": false,
			"inputs": [
				{
					"name": "_taoId",
					"type": "address"
				},
				{
					"name": "_childId",
					"type": "address"
				}
			],
			"name": "addChild",
			"outputs": [
				{
					"name": "",
					"type": "bool"
				}
			],
			"payable": false,
			"stateMutability": "nonpayable",
			"type": "function"
		},
		{
			"constant": false,
			"inputs": [
				{
					"name": "_taoId",
					"type": "address"
				},
				{
					"name": "_childId",
					"type": "address"
				}
			],
			"name": "approveChild",
			"outputs": [],
			"payable": false,
			"stateMutability": "nonpayable",
			"type": "function"
		},
		{
			"constant": false,
			"inputs": [
				{
					"name": "_taoId",
					"type": "address"
				},
				{
					"name": "_childId",
					"type": "address"
				}
			],
			"name": "removeChild",
			"outputs": [],
			"payable": false,
			"stateMutability": "nonpayable",
			"type": "function"
		},
		{
			"constant": true,
			"inputs": [
				{
					"name": "_taoId",
					"type": "address"
				},
				{
					"name": "_from",
					"type": "uint256"
				},
				{
					"name": "_to",
					"type": "uint256"
				}
			],
			"name": "getChildIds",
			"outputs": [
				{
					"name": "",
					"type": "address[]"
				}
			],
			"payable": false,
			"stateMutability": "view",
			"type": "function"
		}
	],
	"bytecode": "0x60806040523480156200001157600080fd5b5060405160608062002ac683398101604090815281516020830151919092015160008054600160a060020a031916331790558262000058816401000000006200008a810204565b506200006d826401000000006200018f810204565b620000818164010000000062000294810204565b50505062000399565b600054600154604080517ff66afcac000000000000000000000000000000000000000000000000000000008152336004820152600160a060020a0393841660248201529290911660448301525173__AOLibrary_____________________________9163f66afcac916064808301926020929190829003018186803b1580156200011357600080fd5b505af415801562000128573d6000803e3d6000fd5b505050506040513d60208110156200013f57600080fd5b505115156200014d57600080fd5b600160a060020a03811615156200016357600080fd5b60038054600160a060020a03909216600160a060020a0319928316811790915560058054909216179055565b600054600154604080517ff66afcac000000000000000000000000000000000000000000000000000000008152336004820152600160a060020a0393841660248201529290911660448301525173__AOLibrary_____________________________9163f66afcac916064808301926020929190829003018186803b1580156200021857600080fd5b505af41580156200022d573d6000803e3d6000fd5b505050506040513d60208110156200024457600080fd5b505115156200025257600080fd5b600160a060020a03811615156200026857600080fd5b60088054600160a060020a03909216600160a060020a0319928316811790915560098054909216179055565b600054600154604080517ff66afcac000000000000000000000000000000000000000000000000000000008152336004820152600160a060020a0393841660248201529290911660448301525173__AOLibrary_____________________________9163f66afcac916064808301926020929190829003018186803b1580156200031d57600080fd5b505af415801562000332573d6000803e3d6000fd5b505050506040513d60208110156200034957600080fd5b505115156200035757600080fd5b600160a060020a03811615156200036d57600080fd5b60018054600160a060020a03909216600160a060020a0319928316811790915560068054909216179055565b61271d80620003a96000396000f30060806040526004361061010d5763ffffffff60e060020a60003504166213eb4b81146101125780631794bb3c146101475780631dfde2bd146101715780632191207a14610194578063447843cf146101b55780634e0be991146101dc5780634ef033f01461020357806353d6fd591461023457806356dbc0071461025a5780635cfaf2ef146102815780636d629749146102a25780637b23a437146102c95780638bd0ba67146103125780638c924361146103395780639b19251a1461035a578063a17841391461037b578063a4e5fad21461039f578063a9b6b38e146103b4578063bc406206146103c9578063ec5c71b3146103de578063f2fde38b14610455578063ff0374b514610476575b600080fd5b34801561011e57600080fd5b50610133600160a060020a036004351661048b565b604080519115158252519081900360200190f35b34801561015357600080fd5b50610133600160a060020a03600435811690602435166044356104ab565b34801561017d57600080fd5b50610192600160a060020a0360043516610703565b005b3480156101a057600080fd5b50610192600160a060020a03600435166107f0565b3480156101c157600080fd5b50610192600160a060020a03600435811690602435166108da565b3480156101e857600080fd5b50610192600160a060020a0360043581169060243516610c94565b34801561020f57600080fd5b506102186113d2565b60408051600160a060020a039092168252519081900360200190f35b34801561024057600080fd5b50610192600160a060020a036004351660243515156113e1565b34801561026657600080fd5b50610133600160a060020a03600435811690602435166114ca565b34801561028d57600080fd5b50610192600160a060020a03600435166115db565b3480156102ae57600080fd5b50610133600160a060020a03600435811690602435166116c5565b3480156102d557600080fd5b506102ea600160a060020a036004351661176f565b60408051600160a060020a039094168452602084019290925282820152519081900360600190f35b34801561031e57600080fd5b50610133600160a060020a03600435811690602435166117f9565b34801561034557600080fd5b50610192600160a060020a0360043516611c77565b34801561036657600080fd5b50610133600160a060020a0360043516611d61565b34801561038757600080fd5b50610192600160a060020a0360043516602435611d76565b3480156103ab57600080fd5b5061021861216b565b3480156103c057600080fd5b5061021861217a565b3480156103d557600080fd5b50610218612189565b3480156103ea57600080fd5b50610405600160a060020a0360043516602435604435612198565b60408051602080825283518183015283519192839290830191858101910280838360005b83811015610441578181015183820152602001610429565b505050509050019250505060405180910390f35b34801561046157600080fd5b50610192600160a060020a03600435166122fa565b34801561048257600080fd5b506102186123da565b600160a060020a039081166000908152600a602052604090205416151590565b6000808473__AOLibrary_____________________________632fca5414826040518263ffffffff1660e060020a0281526004018082600160a060020a0316600160a060020a0316815260200191505060206040518083038186803b15801561051357600080fd5b505af4158015610527573d6000803e3d6000fd5b505050506040513d602081101561053d57600080fd5b5051151561054a57600080fd5b8473__AOLibrary_____________________________632d706a34826040518263ffffffff1660e060020a0281526004018082600160a060020a0316600160a060020a0316815260200191505060206040518083038186803b1580156105af57600080fd5b505af41580156105c3573d6000803e3d6000fd5b505050506040513d60208110156105d957600080fd5b5051806106815750604080517f2fca5414000000000000000000000000000000000000000000000000000000008152600160a060020a0383166004820152905173__AOLibrary_____________________________91632fca5414916024808301926020929190829003018186803b15801561065457600080fd5b505af4158015610668573d6000803e3d6000fd5b505050506040513d602081101561067e57600080fd5b50515b151561068c57600080fd5b600854600160a060020a031633146106a357600080fd5b6106ac8761048b565b156106b657600080fd5b50505050600160a060020a039283166000818152600a602052604090208054600160a060020a03199081169092178155600180820180549093169490951693909317905560029091015590565b6000546001546040805160e260020a633d9abf2b028152336004820152600160a060020a0393841660248201529290911660448301525173__AOLibrary_____________________________9163f66afcac916064808301926020929190829003018186803b15801561077557600080fd5b505af4158015610789573d6000803e3d6000fd5b505050506040513d602081101561079f57600080fd5b505115156107ac57600080fd5b600160a060020a03811615156107c157600080fd5b60048054600160a060020a0319908116600160a060020a03938416179182905560078054929093169116179055565b6000546001546040805160e260020a633d9abf2b028152336004820152600160a060020a0393841660248201529290911660448301525173__AOLibrary_____________________________9163f66afcac916064808301926020929190829003018186803b15801561086257600080fd5b505af4158015610876573d6000803e3d6000fd5b505050506040513d602081101561088c57600080fd5b5051151561089957600080fd5b600160a060020a03811615156108ae57600080fd5b60088054600160a060020a03909216600160a060020a0319928316811790915560098054909216179055565b8173__AOLibrary_____________________________632fca5414826040518263ffffffff1660e060020a0281526004018082600160a060020a0316600160a060020a0316815260200191505060206040518083038186803b15801561093f57600080fd5b505af4158015610953573d6000803e3d6000fd5b505050506040513d602081101561096957600080fd5b5051151561097657600080fd5b8173__AOLibrary_____________________________632fca5414826040518263ffffffff1660e060020a0281526004018082600160a060020a0316600160a060020a0316815260200191505060206040518083038186803b1580156109db57600080fd5b505af41580156109ef573d6000803e3d6000fd5b505050506040513d6020811015610a0557600080fd5b50511515610a1257600080fd5b6005546040805160e060020a63029b7d530281523360048201529051600092600160a060020a03169163029b7d5391602480830192602092919082900301818787803b158015610a6157600080fd5b505af1158015610a75573d6000803e3d6000fd5b505050506040513d6020811015610a8b57600080fd5b5051600160a060020a03161415610aa157600080fd5b6007546005546040805160e060020a63029b7d530281523360048201529051600160a060020a0393841693633ebc2ab393169163029b7d539160248083019260209291908290030181600087803b158015610afb57600080fd5b505af1158015610b0f573d6000803e3d6000fd5b505050506040513d6020811015610b2557600080fd5b50516040805160e060020a63ffffffff8516028152600160a060020a0390921660048301525160248083019260209291908290030181600087803b158015610b6c57600080fd5b505af1158015610b80573d6000803e3d6000fd5b505050506040513d6020811015610b9657600080fd5b505115610ba257600080fd5b600654604080517f71ce52ed000000000000000000000000000000000000000000000000000000008152336004820152600160a060020a0380881660248301529151879392909216916371ce52ed916044808201926020929091908290030181600087803b158015610c1357600080fd5b505af1158015610c27573d6000803e3d6000fd5b505050506040513d6020811015610c3d57600080fd5b50511515610c4a57600080fd5b610c538561048b565b8015610c635750610c638461048b565b1515610c6e57600080fd5b610c7885856116c5565b1515610c8357600080fd5b610c8d85856123e9565b5050505050565b6000806000806000808773__AOLibrary_____________________________632fca5414826040518263ffffffff1660e060020a0281526004018082600160a060020a0316600160a060020a0316815260200191505060206040518083038186803b158015610d0257600080fd5b505af4158015610d16573d6000803e3d6000fd5b505050506040513d6020811015610d2c57600080fd5b50511515610d3957600080fd5b8773__AOLibrary_____________________________632fca5414826040518263ffffffff1660e060020a0281526004018082600160a060020a0316600160a060020a0316815260200191505060206040518083038186803b158015610d9e57600080fd5b505af4158015610db2573d6000803e3d6000fd5b505050506040513d6020811015610dc857600080fd5b50511515610dd557600080fd5b6005546040805160e060020a63029b7d530281523360048201529051600092600160a060020a03169163029b7d5391602480830192602092919082900301818787803b158015610e2457600080fd5b505af1158015610e38573d6000803e3d6000fd5b505050506040513d6020811015610e4e57600080fd5b5051600160a060020a03161415610e6457600080fd5b6007546005546040805160e060020a63029b7d530281523360048201529051600160a060020a0393841693633ebc2ab393169163029b7d539160248083019260209291908290030181600087803b158015610ebe57600080fd5b505af1158015610ed2573d6000803e3d6000fd5b505050506040513d6020811015610ee857600080fd5b50516040805160e060020a63ffffffff8516028152600160a060020a0390921660048301525160248083019260209291908290030181600087803b158015610f2f57600080fd5b505af1158015610f43573d6000803e3d6000fd5b505050506040513d6020811015610f5957600080fd5b505115610f6557600080fd5b600654604080517f71ce52ed000000000000000000000000000000000000000000000000000000008152336004820152600160a060020a03808e16602483015291518d9392909216916371ce52ed916044808201926020929091908290030181600087803b158015610fd657600080fd5b505af1158015610fea573d6000803e3d6000fd5b505050506040513d602081101561100057600080fd5b5051151561100d57600080fd5b604080517f56dbc007000000000000000000000000000000000000000000000000000000008152600160a060020a038d811660048301528c166024820152905130916356dbc0079160448083019260209291908290030181600087803b15801561107657600080fd5b505af115801561108a573d6000803e3d6000fd5b505050506040513d60208110156110a057600080fd5b505115156110ad57600080fd5b600a60008c600160a060020a0316600160a060020a0316815260200190815260200160002098508860050160008154809291906001900391905055508860030160008a60040160008d600160a060020a0316600160a060020a03168152602001908152602001600020548152602001908152602001600020975060008860000160156101000a81548160ff02191690831515021790555060008960040160008c600160a060020a0316600160a060020a0316815260200190815260200160002081905550600a60008b600160a060020a0316600160a060020a03168152602001908152602001600020965060008760010160006101000a815481600160a060020a030219169083600160a060020a03160217905550600960009054906101000a9004600160a060020a0316600160a060020a031663f5743c4c8c6040518263ffffffff1660e060020a0281526004018082600160a060020a0316600160a060020a03168152602001915050602060405180830381600087803b15801561123257600080fd5b505af1158015611246573d6000803e3d6000fd5b505050506040513d602081101561125c57600080fd5b505195506000861161126d57600080fd5b6006546040805160e060020a63fd6f4137028152600160a060020a038e811660048301529151919092169163fd6f41379160248083019260209291908290030181600087803b1580156112bf57600080fd5b505af11580156112d3573d6000803e3d6000fd5b505050506040513d60208110156112e957600080fd5b50516006546040805160e060020a63fd6f4137028152600160a060020a038e81166004830152915193985091169163fd6f4137916024808201926020929091908290030181600087803b15801561133f57600080fd5b505af1158015611353573d6000803e3d6000fd5b505050506040513d602081101561136957600080fd5b505160408051600160a060020a0388811682528d8116602083015280841682840152606082018a90529151929650908d16917fc0f198af4324ea043d3aeb74e5eb714633d7b769d717646178e52308935094d29181900360800190a25050505050505050505050565b600154600160a060020a031681565b6000546001546040805160e260020a633d9abf2b028152336004820152600160a060020a0393841660248201529290911660448301525173__AOLibrary_____________________________9163f66afcac916064808301926020929190829003018186803b15801561145357600080fd5b505af4158015611467573d6000803e3d6000fd5b505050506040513d602081101561147d57600080fd5b5051151561148a57600080fd5b600160a060020a038216151561149f57600080fd5b600160a060020a03919091166000908152600260205260409020805460ff1916911515919091179055565b6000806114d56126af565b60006114e08661048b565b80156114f057506114f08561048b565b15156114fb57600080fd5b505050600160a060020a038084166000908152600a60209081526040808320868516808552828520835160a081018552815488168152600182015490971687860152600281015487850152600581015460608801526006015460808701528452600481019092528220549092918111801561158d5750600081815260038401602052604090205460a060020a900460ff165b80156115b05750600081815260038401602052604090205460a860020a900460ff165b80156115d1575085600160a060020a03168260200151600160a060020a0316145b9695505050505050565b6000546001546040805160e260020a633d9abf2b028152336004820152600160a060020a0393841660248201529290911660448301525173__AOLibrary_____________________________9163f66afcac916064808301926020929190829003018186803b15801561164d57600080fd5b505af4158015611661573d6000803e3d6000fd5b505050506040513d602081101561167757600080fd5b5051151561168457600080fd5b600160a060020a038116151561169957600080fd5b60018054600160a060020a03909216600160a060020a0319928316811790915560068054909216179055565b60008060006116d38561048b565b80156116e357506116e38461048b565b15156116ee57600080fd5b5050600160a060020a038084166000908152600a6020908152604080832093861683526004840190915281205490811180156117425750600081815260038301602052604090205460a060020a900460ff16155b80156117665750600081815260038301602052604090205460a860020a900460ff16155b95945050505050565b600080600061177c6126af565b6117858561048b565b151561179057600080fd5b50505050600160a060020a039081166000908152600a6020908152604091829020825160a0810184528154851681526001820154909416918401829052600281015492840183905260058101546060850181905260069091015460809094019390935292909190565b60008060008060008673__AOLibrary_____________________________632fca5414826040518263ffffffff1660e060020a0281526004018082600160a060020a0316600160a060020a0316815260200191505060206040518083038186803b15801561186657600080fd5b505af415801561187a573d6000803e3d6000fd5b505050506040513d602081101561189057600080fd5b5051151561189d57600080fd5b8673__AOLibrary_____________________________632fca5414826040518263ffffffff1660e060020a0281526004018082600160a060020a0316600160a060020a0316815260200191505060206040518083038186803b15801561190257600080fd5b505af4158015611916573d6000803e3d6000fd5b505050506040513d602081101561192c57600080fd5b5051151561193957600080fd5b600854600160a060020a0316331461195057600080fd5b604080517f56dbc007000000000000000000000000000000000000000000000000000000008152600160a060020a038b811660048301528a166024820152905130916356dbc0079160448083019260209291908290030181600087803b1580156119b957600080fd5b505af11580156119cd573d6000803e3d6000fd5b505050506040513d60208110156119e357600080fd5b5051156119ef57600080fd5b600160a060020a03808a166000908152600a60209081526040808320938c1683526004840190915290205490965015611a2757600080fd5b856006016000815480929190600101919050555085600601548660040160008a600160a060020a0316600160a060020a0316815260200190815260200160002081905550856003016000876006015481526020019081526020016000209450878560000160006101000a815481600160a060020a030219169083600160a060020a03160217905550600660009054906101000a9004600160a060020a0316600160a060020a031663fd6f41378a6040518263ffffffff1660e060020a0281526004018082600160a060020a0316600160a060020a03168152602001915050602060405180830381600087803b158015611b1f57600080fd5b505af1158015611b33573d6000803e3d6000fd5b505050506040513d6020811015611b4957600080fd5b50516006546040805160e060020a63fd6f4137028152600160a060020a038c81166004830152915193975091169163fd6f4137916024808201926020929091908290030181600087803b158015611b9f57600080fd5b505af1158015611bb3573d6000803e3d6000fd5b505050506040513d6020811015611bc957600080fd5b5051855460408051600160a060020a0388811682528c811660208301528085168284015260ff60a060020a850481161515606084015260a860020a909404909316151560808201529051929550908b16917f8573ba99b8df17a58eb2c2a292145273d192dc5b033c7fcd716706e0bd38deb29181900360a00190a282600160a060020a031684600160a060020a03161415611c6857611c6889896123e9565b50600198975050505050505050565b6000546001546040805160e260020a633d9abf2b028152336004820152600160a060020a0393841660248201529290911660448301525173__AOLibrary_____________________________9163f66afcac916064808301926020929190829003018186803b158015611ce957600080fd5b505af4158015611cfd573d6000803e3d6000fd5b505050506040513d6020811015611d1357600080fd5b50511515611d2057600080fd5b600160a060020a0381161515611d3557600080fd5b60038054600160a060020a03909216600160a060020a0319928316811790915560058054909216179055565b60026020526000908152604090205460ff1681565b6000808373__AOLibrary_____________________________632fca5414826040518263ffffffff1660e060020a0281526004018082600160a060020a0316600160a060020a0316815260200191505060206040518083038186803b158015611dde57600080fd5b505af4158015611df2573d6000803e3d6000fd5b505050506040513d6020811015611e0857600080fd5b50511515611e1557600080fd5b6005546040805160e060020a63029b7d530281523360048201529051600092600160a060020a03169163029b7d5391602480830192602092919082900301818787803b158015611e6457600080fd5b505af1158015611e78573d6000803e3d6000fd5b505050506040513d6020811015611e8e57600080fd5b5051600160a060020a03161415611ea457600080fd5b6007546005546040805160e060020a63029b7d530281523360048201529051600160a060020a0393841693633ebc2ab393169163029b7d539160248083019260209291908290030181600087803b158015611efe57600080fd5b505af1158015611f12573d6000803e3d6000fd5b505050506040513d6020811015611f2857600080fd5b50516040805160e060020a63ffffffff8516028152600160a060020a0390921660048301525160248083019260209291908290030181600087803b158015611f6f57600080fd5b505af1158015611f83573d6000803e3d6000fd5b505050506040513d6020811015611f9957600080fd5b505115611fa557600080fd5b600654604080517f71ce52ed000000000000000000000000000000000000000000000000000000008152336004820152600160a060020a0380891660248301529151889392909216916371ce52ed916044808201926020929091908290030181600087803b15801561201657600080fd5b505af115801561202a573d6000803e3d6000fd5b505050506040513d602081101561204057600080fd5b5051151561204d57600080fd5b6120568661048b565b151561206157600080fd5b600160a060020a038087166000818152600a60209081526040808320600281018b905560095482517ff5743c4c0000000000000000000000000000000000000000000000000000000081526004810196909652915190995094169363f5743c4c93602480820194918390030190829087803b1580156120df57600080fd5b505af11580156120f3573d6000803e3d6000fd5b505050506040513d602081101561210957600080fd5b505192506000831161211a57600080fd5b600284015460408051918252602082018590528051600160a060020a038916927f432764b4ba5e42a85ef0b766607df8550deee8129d8f51fe368dc3b1eb684a6f92908290030190a2505050505050565b600454600160a060020a031681565b600054600160a060020a031681565b600354600160a060020a031681565b60606000606060006121a98761048b565b15156121b457600080fd5b600160a060020a0387166000908152600a602052604090209250600186108015906121df5750858510155b80156121ef575084836006015410155b15156121fa57600080fd5b61221b600161220f878963ffffffff61268a16565b9063ffffffff61269c16565b604051908082528060200260200182016040528015612244578160200160208202803883390190505b5091508590505b8481116122f057600081815260038401602052604090205460a060020a900460ff1680156122905750600081815260038401602052604090205460a860020a900460ff165b61229b5760006122b6565b6000818152600384016020526040902054600160a060020a03165b826122c7838963ffffffff61268a16565b815181106122d157fe5b600160a060020a0390921660209283029091019091015260010161224b565b5095945050505050565b6000546001546040805160e260020a633d9abf2b028152336004820152600160a060020a0393841660248201529290911660448301525173__AOLibrary_____________________________9163f66afcac916064808301926020929190829003018186803b15801561236c57600080fd5b505af4158015612380573d6000803e3d6000fd5b505050506040513d602081101561239657600080fd5b505115156123a357600080fd5b600160a060020a03811615156123b857600080fd5b60008054600160a060020a031916600160a060020a0392909216919091179055565b600854600160a060020a031681565b600160a060020a038083166000818152600a60209081526040808320868616845281842060048083018552838620546005840180546001908101909155818852600385018752858820805475ff0000000000000000000000000000000000000000001974ff00000000000000000000000000000000000000001990911660a060020a171660a860020a1781559084018054600160a060020a0319168a17905560095486517ff5743c4c000000000000000000000000000000000000000000000000000000008152938401999099529451939892979096949585948594929092169263f5743c4c926024808301939282900301818787803b1580156124ec57600080fd5b505af1158015612500573d6000803e3d6000fd5b505050506040513d602081101561251657600080fd5b505192506000831161252757600080fd5b6006546040805160e060020a63fd6f4137028152600160a060020a038c811660048301529151919092169163fd6f41379160248083019260209291908290030181600087803b15801561257957600080fd5b505af115801561258d573d6000803e3d6000fd5b505050506040513d60208110156125a357600080fd5b50516006546040805160e060020a63fd6f4137028152600160a060020a038c81166004830152915193955091169163fd6f4137916024808201926020929091908290030181600087803b1580156125f957600080fd5b505af115801561260d573d6000803e3d6000fd5b505050506040513d602081101561262357600080fd5b505160408051600160a060020a0385811682528b8116602083015280841682840152606082018790529151929350908b16917faddca2e9e867c5dfe4955df18f13db95b67bf1908ead867e1e0916f9d08b3c2c9181900360800190a2505050505050505050565b60008282111561269657fe5b50900390565b818101828110156126a957fe5b92915050565b60a0604051908101604052806000600160a060020a031681526020016000600160a060020a0316815260200160008152602001600081526020016000815250905600a165627a7a72305820308e483b4cfb939c180c8170a54e26c2bab6f116f57505b2efc523d5b3d41a180029",
	"source": "pragma solidity ^0.4.24;\n\nimport './SafeMath.sol';\nimport './AOLibrary.sol';\nimport './TAOController.sol';\nimport './ITAOAncestry.sol';\nimport './ITAOFactory.sol';\n\n/**\n * @title TAOAncestry\n */\ncontract TAOAncestry is TAOController, ITAOAncestry {\n\tusing SafeMath for uint256;\n\n\taddress public taoFactoryAddress;\n\n\tITAOFactory internal _taoFactory;\n\n\tstruct Child {\n\t\taddress taoId;\n\t\tbool approved;\t\t// If false, then waiting for parent TAO approval\n\t\tbool connected;\t\t// If false, then parent TAO want to remove this child TAO\n\t}\n\n\tstruct Ancestry {\n\t\taddress taoId;\n\t\taddress parentId;\t// The parent of this TAO ID (could be a Name or TAO)\n\t\tuint256 childMinLogos;\n\t\tmapping (uint256 => Child) children;\n\t\tmapping (address => uint256) childInternalIdLookup;\n\t\tuint256 totalChildren;\n\t\tuint256 childInternalId;\n\t}\n\n\tmapping (address => Ancestry) internal ancestries;\n\n\t// Event to be broadcasted to public when Advocate updates min required Logos to create a child TAO\n\tevent UpdateChildMinLogos(address indexed taoId, uint256 childMinLogos, uint256 nonce);\n\n\t// Event to be broadcasted to public when a TAO adds a child TAO\n\tevent AddChild(address indexed taoId, address taoAdvocate, address childId, address childAdvocate, bool approved, bool connected);\n\n\t// Event to be broadcasted to public when a TAO approves a child TAO\n\tevent ApproveChild(address indexed taoId, address taoAdvocate, address childId, address childAdvocate, uint256 nonce);\n\n\t// Event to be broadcasted to public when a TAO removes a child TAO\n\tevent RemoveChild(address indexed taoId, address taoAdvocate, address childId, address childAdvocate, uint256 nonce);\n\n\t/**\n\t * @dev Constructor function\n\t */\n\tconstructor(address _nameFactoryAddress, address _taoFactoryAddress, address _nameTAOPositionAddress)\n\t\tTAOController(_nameFactoryAddress) public {\n\t\tsetTAOFactoryAddress(_taoFactoryAddress);\n\t\tsetNameTAOPositionAddress(_nameTAOPositionAddress);\n\t}\n\n\t/**\n\t * @dev Check if calling address is Factory\n\t */\n\tmodifier onlyFactory {\n\t\trequire (msg.sender == taoFactoryAddress);\n\t\t_;\n\t}\n\n\t/***** The AO ONLY METHODS *****/\n\t/**\n\t * @dev The AO set the TAOFactory Address\n\t * @param _taoFactoryAddress The address of TAOFactory\n\t */\n\tfunction setTAOFactoryAddress(address _taoFactoryAddress) public onlyTheAO {\n\t\trequire (_taoFactoryAddress != address(0));\n\t\ttaoFactoryAddress = _taoFactoryAddress;\n\t\t_taoFactory = ITAOFactory(_taoFactoryAddress);\n\t}\n\n\t/***** PUBLIC METHODS *****/\n\t/**\n\t * @dev Check whether or not a TAO ID exist in the list of ancestries\n\t * @param _id The ID to be checked\n\t * @return true if yes, false otherwise\n\t */\n\tfunction isExist(address _id) public view returns (bool) {\n\t\treturn ancestries[_id].taoId != address(0);\n\t}\n\n\t/**\n\t * @dev Store the Ancestry info for a TAO\n\t * @param _id The ID of the TAO\n\t * @param _parentId The parent ID of this TAO\n\t * @param _childMinLogos The min required Logos to create a TAO\n\t * @return true on success\n\t */\n\tfunction initialize(address _id, address _parentId, uint256 _childMinLogos)\n\t\texternal\n\t\tisTAO(_id)\n\t\tisNameOrTAO(_parentId)\n\t\tonlyFactory returns (bool) {\n\t\trequire (!isExist(_id));\n\n\t\tAncestry storage _ancestry = ancestries[_id];\n\t\t_ancestry.taoId = _id;\n\t\t_ancestry.parentId = _parentId;\n\t\t_ancestry.childMinLogos = _childMinLogos;\n\t\treturn true;\n\t}\n\n\t/**\n\t * @dev Get Ancestry info given a TAO ID\n\t * @param _id The ID of the TAO\n\t * @return the parent ID of this TAO (could be a Name/TAO)\n\t * @return the min required Logos to create a child TAO\n\t * @return the total child TAOs count\n\t */\n\tfunction getAncestryById(address _id) external view returns (address, uint256, uint256) {\n\t\trequire (isExist(_id));\n\t\tAncestry memory _ancestry = ancestries[_id];\n\t\treturn (\n\t\t\t_ancestry.parentId,\n\t\t\t_ancestry.childMinLogos,\n\t\t\t_ancestry.totalChildren\n\t\t);\n\t}\n\n\t/**\n\t * @dev Set min required Logos to create a child from this TAO\n\t * @param _childMinLogos The min Logos to set\n\t * @return the nonce for this transaction\n\t */\n\tfunction updateChildMinLogos(address _id, uint256 _childMinLogos)\n\t\tpublic\n\t\tisTAO(_id)\n\t\tsenderIsName\n\t\tsenderNameNotCompromised\n\t\tonlyAdvocate(_id) {\n\t\trequire (isExist(_id));\n\n\t\tAncestry storage _ancestry = ancestries[_id];\n\t\t_ancestry.childMinLogos = _childMinLogos;\n\n\t\tuint256 _nonce = _taoFactory.incrementNonce(_id);\n\t\trequire (_nonce > 0);\n\t\temit UpdateChildMinLogos(_id, _ancestry.childMinLogos, _nonce);\n\t}\n\n\t/**\n\t * @dev Check if `_childId` is a child TAO of `_taoId`\n\t * @param _taoId The TAO ID to be checked\n\t * @param _childId The child TAO ID to check\n\t * @return true if yes. Otherwise return false.\n\t */\n\tfunction isChild(address _taoId, address _childId) external view returns (bool) {\n\t\trequire (isExist(_taoId) && isExist(_childId));\n\t\tAncestry storage _ancestry = ancestries[_taoId];\n\t\tAncestry memory _childAncestry = ancestries[_childId];\n\t\tuint256 _childInternalId = _ancestry.childInternalIdLookup[_childId];\n\t\treturn (\n\t\t\t_childInternalId > 0 &&\n\t\t\t_ancestry.children[_childInternalId].approved &&\n\t\t\t_ancestry.children[_childInternalId].connected &&\n\t\t\t_childAncestry.parentId == _taoId\n\t\t);\n\t}\n\n\t/**\n\t * @dev Check if `_childId` is a child TAO of `_taoId` that is not yet approved\n\t * @param _taoId The TAO ID to be checked\n\t * @param _childId The child TAO ID to check\n\t * @return true if yes. Otherwise return false.\n\t */\n\tfunction isNotApprovedChild(address _taoId, address _childId) public view returns (bool) {\n\t\trequire (isExist(_taoId) && isExist(_childId));\n\t\tAncestry storage _ancestry = ancestries[_taoId];\n\t\tuint256 _childInternalId = _ancestry.childInternalIdLookup[_childId];\n\t\treturn (\n\t\t\t_childInternalId > 0 &&\n\t\t\t!_ancestry.children[_childInternalId].approved &&\n\t\t\t!_ancestry.children[_childInternalId].connected\n\t\t);\n\t}\n\n\t/**\n\t * @dev Add child TAO\n\t * @param _taoId The TAO ID to be added to\n\t * @param _childId The ID to be added to as child TAO\n\t */\n\tfunction addChild(address _taoId, address _childId)\n\t\texternal\n\t\tisTAO(_taoId)\n\t\tisTAO(_childId)\n\t\tonlyFactory returns (bool) {\n\t\trequire (!this.isChild(_taoId, _childId));\n\t\tAncestry storage _ancestry = ancestries[_taoId];\n\t\trequire (_ancestry.childInternalIdLookup[_childId] == 0);\n\n\t\t_ancestry.childInternalId++;\n\t\t_ancestry.childInternalIdLookup[_childId] = _ancestry.childInternalId;\n\n\t\tChild storage _child = _ancestry.children[_ancestry.childInternalId];\n\t\t_child.taoId = _childId;\n\n\t\t// If _taoId's Advocate == _childId's Advocate, then the child is automatically approved and connected\n\t\t// Otherwise, child TAO needs parent TAO approval\n\t\taddress _taoAdvocate = _nameTAOPosition.getAdvocate(_taoId);\n\t\taddress _childAdvocate = _nameTAOPosition.getAdvocate(_childId);\n\t\temit AddChild(_taoId, _taoAdvocate, _childId, _childAdvocate, _child.approved, _child.connected);\n\n\t\tif (_taoAdvocate == _childAdvocate) {\n\t\t\t_approveChild(_taoId, _childId);\n\t\t}\n\t\treturn true;\n\t}\n\n\t/**\n\t * @dev Advocate of `_taoId` approves child `_childId`\n\t * @param _taoId The TAO ID to be checked\n\t * @param _childId The child TAO ID to be approved\n\t */\n\tfunction approveChild(address _taoId, address _childId)\n\t\tpublic\n\t\tisTAO(_taoId)\n\t\tisTAO(_childId)\n\t\tsenderIsName\n\t\tsenderNameNotCompromised\n\t\tonlyAdvocate(_taoId) {\n\t\trequire (isExist(_taoId) && isExist(_childId));\n\t\trequire (isNotApprovedChild(_taoId, _childId));\n\t\t_approveChild(_taoId, _childId);\n\t}\n\n\t/**\n\t * @dev Advocate of `_taoId` removes child `_childId`\n\t * @param _taoId The TAO ID to be checked\n\t * @param _childId The child TAO ID to be removed\n\t */\n\tfunction removeChild(address _taoId, address _childId)\n\t\tpublic\n\t\tisTAO(_taoId)\n\t\tisTAO(_childId)\n\t\tsenderIsName\n\t\tsenderNameNotCompromised\n\t\tonlyAdvocate(_taoId) {\n\t\trequire (this.isChild(_taoId, _childId));\n\n\t\tAncestry storage _ancestry = ancestries[_taoId];\n\t\t_ancestry.totalChildren--;\n\n\t\tChild storage _child = _ancestry.children[_ancestry.childInternalIdLookup[_childId]];\n\t\t_child.connected = false;\n\t\t_ancestry.childInternalIdLookup[_childId] = 0;\n\n\t\tAncestry storage _childAncestry = ancestries[_childId];\n\t\t_childAncestry.parentId = address(0);\n\n\t\tuint256 _nonce = _taoFactory.incrementNonce(_taoId);\n\t\trequire (_nonce > 0);\n\n\t\taddress _taoAdvocate = _nameTAOPosition.getAdvocate(_taoId);\n\t\taddress _childAdvocate = _nameTAOPosition.getAdvocate(_childId);\n\t\temit RemoveChild(_taoId, _taoAdvocate, _childId, _childAdvocate, _nonce);\n\t}\n\n\t/**\n\t * @dev Get list of child TAO IDs\n\t * @param _taoId The TAO ID to be checked\n\t * @param _from The starting index (start from 1)\n\t * @param _to The ending index, (max is childInternalId)\n\t * @return list of child TAO IDs\n\t */\n\tfunction getChildIds(address _taoId, uint256 _from, uint256 _to) public view returns (address[]) {\n\t\trequire (isExist(_taoId));\n\t\tAncestry storage _ancestry = ancestries[_taoId];\n\t\trequire (_from >= 1 && _to >= _from && _ancestry.childInternalId >= _to);\n\t\taddress[] memory _childIds = new address[](_to.sub(_from).add(1));\n\t\tfor (uint256 i = _from; i <= _to; i++) {\n\t\t\t_childIds[i.sub(_from)] = _ancestry.children[i].approved && _ancestry.children[i].connected ? _ancestry.children[i].taoId : address(0);\n\t\t}\n\t\treturn _childIds;\n\t}\n\n\t/***** INTERNAL METHOD *****/\n\t/**\n\t * @dev Actually approving the child TAO\n\t * @param _taoId The TAO ID to be checked\n\t * @param _childId The child TAO ID to be approved\n\t */\n\tfunction _approveChild(address _taoId, address _childId) internal {\n\t\tAncestry storage _ancestry = ancestries[_taoId];\n\t\tAncestry storage _childAncestry = ancestries[_childId];\n\t\tuint256 _childInternalId = _ancestry.childInternalIdLookup[_childId];\n\n\t\t_ancestry.totalChildren++;\n\n\t\tChild storage _child = _ancestry.children[_childInternalId];\n\t\t_child.approved = true;\n\t\t_child.connected = true;\n\n\t\t_childAncestry.parentId = _taoId;\n\n\t\tuint256 _nonce = _taoFactory.incrementNonce(_taoId);\n\t\trequire (_nonce > 0);\n\n\t\taddress _taoAdvocate = _nameTAOPosition.getAdvocate(_taoId);\n\t\taddress _childAdvocate = _nameTAOPosition.getAdvocate(_childId);\n\t\temit ApproveChild(_taoId, _taoAdvocate, _childId, _childAdvocate, _nonce);\n\t}\n}\n",
	"sourcePath": "/data/jmulyono/ao-contracts/contracts/TAOAncestry.sol",
	"compiler": {
		"name": "solc",
		"version": "0.4.24+commit.e67f0147.Emscripten.clang"
	},
	"schemaVersion": "2.0.1",
	"updatedAt": "2019-02-22T08:49:01.030Z"
}