{
	"contractName": "TAOFactory",
	"abi": [
		{
			"constant": true,
			"inputs": [],
			"name": "aoSettingAddress",
			"outputs": [
				{
					"name": "",
					"type": "address"
				}
			],
			"payable": false,
			"stateMutability": "view",
			"type": "function"
		},
		{
			"constant": false,
			"inputs": [
				{
					"name": "_nameAccountRecoveryAddress",
					"type": "address"
				}
			],
			"name": "setNameAccountRecoveryAddress",
			"outputs": [],
			"payable": false,
			"stateMutability": "nonpayable",
			"type": "function"
		},
		{
			"constant": true,
			"inputs": [],
			"name": "taoPoolAddress",
			"outputs": [
				{
					"name": "",
					"type": "address"
				}
			],
			"payable": false,
			"stateMutability": "view",
			"type": "function"
		},
		{
			"constant": true,
			"inputs": [],
			"name": "logosAddress",
			"outputs": [
				{
					"name": "",
					"type": "address"
				}
			],
			"payable": false,
			"stateMutability": "view",
			"type": "function"
		},
		{
			"constant": true,
			"inputs": [],
			"name": "nameTAOPositionAddress",
			"outputs": [
				{
					"name": "",
					"type": "address"
				}
			],
			"payable": false,
			"stateMutability": "view",
			"type": "function"
		},
		{
			"constant": false,
			"inputs": [
				{
					"name": "_account",
					"type": "address"
				},
				{
					"name": "_whitelist",
					"type": "bool"
				}
			],
			"name": "setWhitelist",
			"outputs": [],
			"payable": false,
			"stateMutability": "nonpayable",
			"type": "function"
		},
		{
			"constant": false,
			"inputs": [
				{
					"name": "_nameTAOPositionAddress",
					"type": "address"
				}
			],
			"name": "setNameTAOPositionAddress",
			"outputs": [],
			"payable": false,
			"stateMutability": "nonpayable",
			"type": "function"
		},
		{
			"constant": false,
			"inputs": [
				{
					"name": "_nameFactoryAddress",
					"type": "address"
				}
			],
			"name": "setNameFactoryAddress",
			"outputs": [],
			"payable": false,
			"stateMutability": "nonpayable",
			"type": "function"
		},
		{
			"constant": true,
			"inputs": [
				{
					"name": "",
					"type": "address"
				}
			],
			"name": "whitelist",
			"outputs": [
				{
					"name": "",
					"type": "bool"
				}
			],
			"payable": false,
			"stateMutability": "view",
			"type": "function"
		},
		{
			"constant": true,
			"inputs": [],
			"name": "nameAccountRecoveryAddress",
			"outputs": [
				{
					"name": "",
					"type": "address"
				}
			],
			"payable": false,
			"stateMutability": "view",
			"type": "function"
		},
		{
			"constant": true,
			"inputs": [],
			"name": "theAO",
			"outputs": [
				{
					"name": "",
					"type": "address"
				}
			],
			"payable": false,
			"stateMutability": "view",
			"type": "function"
		},
		{
			"constant": true,
			"inputs": [],
			"name": "taoAncestryAddress",
			"outputs": [
				{
					"name": "",
					"type": "address"
				}
			],
			"payable": false,
			"stateMutability": "view",
			"type": "function"
		},
		{
			"constant": true,
			"inputs": [],
			"name": "nameTAOVaultAddress",
			"outputs": [
				{
					"name": "",
					"type": "address"
				}
			],
			"payable": false,
			"stateMutability": "view",
			"type": "function"
		},
		{
			"constant": true,
			"inputs": [],
			"name": "nameFactoryAddress",
			"outputs": [
				{
					"name": "",
					"type": "address"
				}
			],
			"payable": false,
			"stateMutability": "view",
			"type": "function"
		},
		{
			"constant": true,
			"inputs": [],
			"name": "nameTAOLookupAddress",
			"outputs": [
				{
					"name": "",
					"type": "address"
				}
			],
			"payable": false,
			"stateMutability": "view",
			"type": "function"
		},
		{
			"constant": true,
			"inputs": [],
			"name": "settingTAOId",
			"outputs": [
				{
					"name": "",
					"type": "address"
				}
			],
			"payable": false,
			"stateMutability": "view",
			"type": "function"
		},
		{
			"constant": false,
			"inputs": [
				{
					"name": "_theAO",
					"type": "address"
				}
			],
			"name": "transferOwnership",
			"outputs": [],
			"payable": false,
			"stateMutability": "nonpayable",
			"type": "function"
		},
		{
			"inputs": [
				{
					"name": "_nameFactoryAddress",
					"type": "address"
				}
			],
			"payable": false,
			"stateMutability": "nonpayable",
			"type": "constructor"
		},
		{
			"anonymous": false,
			"inputs": [
				{
					"indexed": true,
					"name": "ethAddress",
					"type": "address"
				},
				{
					"indexed": false,
					"name": "advocateId",
					"type": "address"
				},
				{
					"indexed": false,
					"name": "taoId",
					"type": "address"
				},
				{
					"indexed": false,
					"name": "index",
					"type": "uint256"
				},
				{
					"indexed": false,
					"name": "parent",
					"type": "address"
				},
				{
					"indexed": false,
					"name": "parentTypeId",
					"type": "uint8"
				}
			],
			"name": "CreateTAO",
			"type": "event"
		},
		{
			"constant": false,
			"inputs": [
				{
					"name": "_nameTAOLookupAddress",
					"type": "address"
				}
			],
			"name": "setNameTAOLookupAddress",
			"outputs": [],
			"payable": false,
			"stateMutability": "nonpayable",
			"type": "function"
		},
		{
			"constant": false,
			"inputs": [
				{
					"name": "_aoSettingAddress",
					"type": "address"
				}
			],
			"name": "setAOSettingAddress",
			"outputs": [],
			"payable": false,
			"stateMutability": "nonpayable",
			"type": "function"
		},
		{
			"constant": false,
			"inputs": [
				{
					"name": "_logosAddress",
					"type": "address"
				}
			],
			"name": "setLogosAddress",
			"outputs": [],
			"payable": false,
			"stateMutability": "nonpayable",
			"type": "function"
		},
		{
			"constant": false,
			"inputs": [
				{
					"name": "_nameTAOVaultAddress",
					"type": "address"
				}
			],
			"name": "setNameTAOVaultAddress",
			"outputs": [],
			"payable": false,
			"stateMutability": "nonpayable",
			"type": "function"
		},
		{
			"constant": false,
			"inputs": [
				{
					"name": "_taoAncestryAddress",
					"type": "address"
				}
			],
			"name": "setTAOAncestryAddress",
			"outputs": [],
			"payable": false,
			"stateMutability": "nonpayable",
			"type": "function"
		},
		{
			"constant": false,
			"inputs": [
				{
					"name": "_settingTAOId",
					"type": "address"
				}
			],
			"name": "setSettingTAOId",
			"outputs": [],
			"payable": false,
			"stateMutability": "nonpayable",
			"type": "function"
		},
		{
			"constant": false,
			"inputs": [
				{
					"name": "_taoPoolAddress",
					"type": "address"
				}
			],
			"name": "setTAOPoolAddress",
			"outputs": [],
			"payable": false,
			"stateMutability": "nonpayable",
			"type": "function"
		},
		{
			"constant": true,
			"inputs": [
				{
					"name": "_taoId",
					"type": "address"
				}
			],
			"name": "nonces",
			"outputs": [
				{
					"name": "",
					"type": "uint256"
				}
			],
			"payable": false,
			"stateMutability": "view",
			"type": "function"
		},
		{
			"constant": false,
			"inputs": [
				{
					"name": "_taoId",
					"type": "address"
				}
			],
			"name": "incrementNonce",
			"outputs": [
				{
					"name": "",
					"type": "uint256"
				}
			],
			"payable": false,
			"stateMutability": "nonpayable",
			"type": "function"
		},
		{
			"constant": false,
			"inputs": [
				{
					"name": "_name",
					"type": "string"
				},
				{
					"name": "_datHash",
					"type": "string"
				},
				{
					"name": "_database",
					"type": "string"
				},
				{
					"name": "_keyValue",
					"type": "string"
				},
				{
					"name": "_contentId",
					"type": "bytes32"
				},
				{
					"name": "_parentId",
					"type": "address"
				},
				{
					"name": "_childMinLogos",
					"type": "uint256"
				},
				{
					"name": "_ethosCapStatus",
					"type": "bool"
				},
				{
					"name": "_ethosCapAmount",
					"type": "uint256"
				}
			],
			"name": "createTAO",
			"outputs": [],
			"payable": false,
			"stateMutability": "nonpayable",
			"type": "function"
		},
		{
			"constant": true,
			"inputs": [
				{
					"name": "_taoId",
					"type": "address"
				}
			],
			"name": "getTAO",
			"outputs": [
				{
					"name": "",
					"type": "string"
				},
				{
					"name": "",
					"type": "address"
				},
				{
					"name": "",
					"type": "string"
				},
				{
					"name": "",
					"type": "string"
				},
				{
					"name": "",
					"type": "string"
				},
				{
					"name": "",
					"type": "string"
				},
				{
					"name": "",
					"type": "bytes32"
				},
				{
					"name": "",
					"type": "uint8"
				}
			],
			"payable": false,
			"stateMutability": "view",
			"type": "function"
		},
		{
			"constant": true,
			"inputs": [],
			"name": "getTotalTAOsCount",
			"outputs": [
				{
					"name": "",
					"type": "uint256"
				}
			],
			"payable": false,
			"stateMutability": "view",
			"type": "function"
		},
		{
			"constant": true,
			"inputs": [
				{
					"name": "_from",
					"type": "uint256"
				},
				{
					"name": "_to",
					"type": "uint256"
				}
			],
			"name": "getTAOIds",
			"outputs": [
				{
					"name": "",
					"type": "address[]"
				}
			],
			"payable": false,
			"stateMutability": "view",
			"type": "function"
		},
		{
			"constant": true,
			"inputs": [
				{
					"name": "_data",
					"type": "string"
				},
				{
					"name": "_nonce",
					"type": "uint256"
				},
				{
					"name": "_validateAddress",
					"type": "address"
				},
				{
					"name": "_name",
					"type": "string"
				},
				{
					"name": "_signatureV",
					"type": "uint8"
				},
				{
					"name": "_signatureR",
					"type": "bytes32"
				},
				{
					"name": "_signatureS",
					"type": "bytes32"
				}
			],
			"name": "validateTAOSignature",
			"outputs": [
				{
					"name": "",
					"type": "bool"
				},
				{
					"name": "",
					"type": "string"
				},
				{
					"name": "",
					"type": "uint256"
				}
			],
			"payable": false,
			"stateMutability": "view",
			"type": "function"
		}
	],
	"bytecode": "0x60806040523480156200001157600080fd5b5060405160208062003a1c833981016040525160008054600160a060020a03191633179055806200004b8164010000000062000053810204565b505062000158565b600054600154604080517ff66afcac000000000000000000000000000000000000000000000000000000008152336004820152600160a060020a0393841660248201529290911660448301525173__AOLibrary_____________________________9163f66afcac916064808301926020929190829003018186803b158015620000dc57600080fd5b505af4158015620000f1573d6000803e3d6000fd5b505050506040513d60208110156200010857600080fd5b505115156200011657600080fd5b600160a060020a03811615156200012c57600080fd5b60038054600160a060020a03909216600160a060020a0319928316811790915560058054909216179055565b6138b480620001686000396000f3006080604052600436106101715763ffffffff60e060020a60003504166306fd708881146101765780631d0138ff146101995780631dfde2bd146101ca578063213beccb146101eb5780633670832e1461020057806338da7de7146102215780634ef033f01461023657806353d6fd591461024b5780635cfaf2ef146102715780637767d034146102925780637ecebe00146102b357806381a46893146102e65780638c924361146103075780639b19251a146103285780639d0e0cd31461035d578063a4e5fad214610372578063a9b6b38e14610387578063af6ddc101461039c578063afb2dd87146103b1578063bc406206146103c6578063cd2e322a146103db578063d6830af314610510578063da3986e414610531578063da8ad6b61461059c578063df2721f014610802578063e7c5018514610817578063ed9c7c111461082c578063f2fde38b1461096f578063f5743c4c14610990578063fc862027146109b1578063ff3781c6146109d2575b600080fd5b34801561018257600080fd5b50610197600160a060020a03600435166109f3565b005b3480156101a557600080fd5b506101ae610add565b60408051600160a060020a039092168252519081900360200190f35b3480156101d657600080fd5b50610197600160a060020a0360043516610aec565b3480156101f757600080fd5b506101ae610bd9565b34801561020c57600080fd5b50610197600160a060020a0360043516610be8565b34801561022d57600080fd5b506101ae610cc8565b34801561024257600080fd5b506101ae610cd7565b34801561025757600080fd5b50610197600160a060020a03600435166024351515610ce6565b34801561027d57600080fd5b50610197600160a060020a0360043516610dcf565b34801561029e57600080fd5b50610197600160a060020a0360043516610eb9565b3480156102bf57600080fd5b506102d4600160a060020a0360043516610fa6565b60408051918252519081900360200190f35b3480156102f257600080fd5b50610197600160a060020a0360043516610fc1565b34801561031357600080fd5b50610197600160a060020a03600435166110ae565b34801561033457600080fd5b50610349600160a060020a0360043516611198565b604080519115158252519081900360200190f35b34801561036957600080fd5b506102d46111ad565b34801561037e57600080fd5b506101ae6111b3565b34801561039357600080fd5b506101ae6111c2565b3480156103a857600080fd5b506101ae6111d1565b3480156103bd57600080fd5b506101ae6111e0565b3480156103d257600080fd5b506101ae6111ef565b3480156103e757600080fd5b506040805160206004803580820135601f810184900484028501840190955284845261019794369492936024939284019190819084018382808284375050604080516020601f89358b018035918201839004830284018301909452808352979a99988101979196509182019450925082915084018382808284375050604080516020601f89358b018035918201839004830284018301909452808352979a99988101979196509182019450925082915084018382808284375050604080516020601f89358b018035918201839004830284018301909452808352979a99988101979196509182019450925082915084018382808284375094975050843595505050506020820135600160a060020a031691604081013591506060810135151590608001356111fe565b34801561051c57600080fd5b50610197600160a060020a03600435166119df565b34801561053d57600080fd5b5061054c600435602435611b47565b60408051602080825283518183015283519192839290830191858101910280838360005b83811015610588578181015183820152602001610570565b505050509050019250505060405180910390f35b3480156105a857600080fd5b506105bd600160a060020a0360043516611c65565b604051808060200189600160a060020a0316600160a060020a031681526020018060200180602001806020018060200188600019166000191681526020018760ff1660ff16815260200186810386528e818151815260200191508051906020019080838360005b8381101561063c578181015183820152602001610624565b50505050905090810190601f1680156106695780820380516001836020036101000a031916815260200191505b5086810385528c5181528c516020918201918e019080838360005b8381101561069c578181015183820152602001610684565b50505050905090810190601f1680156106c95780820380516001836020036101000a031916815260200191505b5086810384528b5181528b516020918201918d019080838360005b838110156106fc5781810151838201526020016106e4565b50505050905090810190601f1680156107295780820380516001836020036101000a031916815260200191505b5086810383528a5181528a516020918201918c019080838360005b8381101561075c578181015183820152602001610744565b50505050905090810190601f1680156107895780820380516001836020036101000a031916815260200191505b5086810382528951815289516020918201918b019080838360005b838110156107bc5781810151838201526020016107a4565b50505050905090810190601f1680156107e95780820380516001836020036101000a031916815260200191505b509d505050505050505050505050505060405180910390f35b34801561080e57600080fd5b506101ae61227f565b34801561082357600080fd5b506101ae61228e565b34801561083857600080fd5b506040805160206004803580820135601f81018490048402850184019095528484526108e894369492936024939284019190819084018382808284375050604080516020888301358a018035601f8101839004830284018301909452838352979a89359a8a830135600160a060020a03169a919990985060609091019650919450908101925081908401838280828437509497505050833560ff169450505060208201359160400135905061229d565b604080518415158152908101829052606060208083018281528551928401929092528451608084019186019080838360005b8381101561093257818101518382015260200161091a565b50505050905090810190601f16801561095f5780820380516001836020036101000a031916815260200191505b5094505050505060405180910390f35b34801561097b57600080fd5b50610197600160a060020a03600435166125c6565b34801561099c57600080fd5b506102d4600160a060020a03600435166126a6565b3480156109bd57600080fd5b50610197600160a060020a0360043516612733565b3480156109de57600080fd5b50610197600160a060020a036004351661281d565b6000546001546040805160e260020a633d9abf2b028152336004820152600160a060020a0393841660248201529290911660448301525173__AOLibrary_____________________________9163f66afcac916064808301926020929190829003018186803b158015610a6557600080fd5b505af4158015610a79573d6000803e3d6000fd5b505050506040513d6020811015610a8f57600080fd5b50511515610a9c57600080fd5b600160a060020a0381161515610ab157600080fd5b600a8054600160a060020a03909216600160a060020a0319928316811790915560118054909216179055565b600a54600160a060020a031681565b6000546001546040805160e260020a633d9abf2b028152336004820152600160a060020a0393841660248201529290911660448301525173__AOLibrary_____________________________9163f66afcac916064808301926020929190829003018186803b158015610b5e57600080fd5b505af4158015610b72573d6000803e3d6000fd5b505050506040513d6020811015610b8857600080fd5b50511515610b9557600080fd5b600160a060020a0381161515610baa57600080fd5b60048054600160a060020a0319908116600160a060020a03938416179182905560078054929093169116179055565b600f54600160a060020a031681565b6000546001546040805160e260020a633d9abf2b028152336004820152600160a060020a0393841660248201529290911660448301525173__AOLibrary_____________________________9163f66afcac916064808301926020929190829003018186803b158015610c5a57600080fd5b505af4158015610c6e573d6000803e3d6000fd5b505050506040513d6020811015610c8457600080fd5b50511515610c9157600080fd5b600160a060020a0381161515610ca657600080fd5b600c8054600160a060020a031916600160a060020a0392909216919091179055565b600b54600160a060020a031681565b600154600160a060020a031681565b6000546001546040805160e260020a633d9abf2b028152336004820152600160a060020a0393841660248201529290911660448301525173__AOLibrary_____________________________9163f66afcac916064808301926020929190829003018186803b158015610d5857600080fd5b505af4158015610d6c573d6000803e3d6000fd5b505050506040513d6020811015610d8257600080fd5b50511515610d8f57600080fd5b600160a060020a0382161515610da457600080fd5b600160a060020a03919091166000908152600260205260409020805460ff1916911515919091179055565b6000546001546040805160e260020a633d9abf2b028152336004820152600160a060020a0393841660248201529290911660448301525173__AOLibrary_____________________________9163f66afcac916064808301926020929190829003018186803b158015610e4157600080fd5b505af4158015610e55573d6000803e3d6000fd5b505050506040513d6020811015610e6b57600080fd5b50511515610e7857600080fd5b600160a060020a0381161515610e8d57600080fd5b60018054600160a060020a03909216600160a060020a0319928316811790915560068054909216179055565b6000546001546040805160e260020a633d9abf2b028152336004820152600160a060020a0393841660248201529290911660448301525173__AOLibrary_____________________________9163f66afcac916064808301926020929190829003018186803b158015610f2b57600080fd5b505af4158015610f3f573d6000803e3d6000fd5b505050506040513d6020811015610f5557600080fd5b50511515610f6257600080fd5b600160a060020a0381161515610f7757600080fd5b600d8054600160a060020a0319908116600160a060020a03938416179182905560138054929093169116179055565b600160a060020a031660009081526015602052604090205490565b6000546001546040805160e260020a633d9abf2b028152336004820152600160a060020a0393841660248201529290911660448301525173__AOLibrary_____________________________9163f66afcac916064808301926020929190829003018186803b15801561103357600080fd5b505af4158015611047573d6000803e3d6000fd5b505050506040513d602081101561105d57600080fd5b5051151561106a57600080fd5b600160a060020a038116151561107f57600080fd5b600f8054600160a060020a0319908116600160a060020a03938416179182905560148054929093169116179055565b6000546001546040805160e260020a633d9abf2b028152336004820152600160a060020a0393841660248201529290911660448301525173__AOLibrary_____________________________9163f66afcac916064808301926020929190829003018186803b15801561112057600080fd5b505af4158015611134573d6000803e3d6000fd5b505050506040513d602081101561114a57600080fd5b5051151561115757600080fd5b600160a060020a038116151561116c57600080fd5b60038054600160a060020a03909216600160a060020a0319928316811790915560058054909216179055565b60026020526000908152604090205460ff1681565b60085490565b600454600160a060020a031681565b600054600160a060020a031681565b600d54600160a060020a031681565b600c54600160a060020a031681565b600354600160a060020a031681565b6005546040805160e060020a63029b7d53028152336004820152905160009283928392600160a060020a039092169163029b7d539160248082019260209290919082900301818787803b15801561125457600080fd5b505af1158015611268573d6000803e3d6000fd5b505050506040513d602081101561127e57600080fd5b5051600160a060020a0316141561129457600080fd5b6007546005546040805160e060020a63029b7d530281523360048201529051600160a060020a0393841693633ebc2ab393169163029b7d539160248083019260209291908290030181600087803b1580156112ee57600080fd5b505af1158015611302573d6000803e3d6000fd5b505050506040513d602081101561131857600080fd5b50516040805160e060020a63ffffffff8516028152600160a060020a0390921660048301525160248083019260209291908290030181600087803b15801561135f57600080fd5b505af1158015611373573d6000803e3d6000fd5b505050506040513d602081101561138957600080fd5b50511561139557600080fd5b8573__AOLibrary_____________________________632d706a34826040518263ffffffff1660e060020a0281526004018082600160a060020a0316600160a060020a0316815260200191505060206040518083038186803b1580156113fa57600080fd5b505af415801561140e573d6000803e3d6000fd5b505050506040513d602081101561142457600080fd5b5051806114cc5750604080517f2fca5414000000000000000000000000000000000000000000000000000000008152600160a060020a0383166004820152905173__AOLibrary_____________________________91632fca5414916024808301926020929190829003018186803b15801561149f57600080fd5b505af41580156114b3573d6000803e3d6000fd5b505050506040513d60208110156114c957600080fd5b50515b15156114d757600080fd5b8b516000106114e557600080fd5b601060009054906101000a9004600160a060020a0316600160a060020a0316634d3d096b8d6040518263ffffffff1660e060020a0281526004018080602001828103825283818151815260200191508051906020019080838360005b83811015611559578181015183820152602001611541565b50505050905090810190601f1680156115865780820380516001836020036101000a031916815260200191505b5092505050602060405180830381600087803b1580156115a557600080fd5b505af11580156115b9573d6000803e3d6000fd5b505050506040513d60208110156115cf57600080fd5b5051156115db57600080fd5b6115e3612907565b915073__AOLibrary_____________________________632fca5414886040518263ffffffff1660e060020a0281526004018082600160a060020a0316600160a060020a0316815260200191505060206040518083038186803b15801561164957600080fd5b505af415801561165d573d6000803e3d6000fd5b505050506040513d602081101561167357600080fd5b50511561171457601354604080517f7b23a437000000000000000000000000000000000000000000000000000000008152600160a060020a038a8116600483015291519190921691637b23a4379160248083019260609291908290030181600087803b1580156116e257600080fd5b505af11580156116f6573d6000803e3d6000fd5b505050506040513d606081101561170c57600080fd5b506020015192505b6000831115611828576012546005546040805160e060020a63029b7d5302815233600482015290518693600160a060020a039081169363985e4cd09391169163029b7d53916024808201926020929091908290030181600087803b15801561177b57600080fd5b505af115801561178f573d6000803e3d6000fd5b505050506040513d60208110156117a557600080fd5b50516040805160e060020a63ffffffff8516028152600160a060020a0390921660048301525160248083019260209291908290030181600087803b1580156117ec57600080fd5b505af1158015611800573d6000803e3d6000fd5b505050506040513d602081101561181657600080fd5b5051101561182357600080fd5b611937565b6000821115611937576012546005546040805160e060020a63029b7d5302815233600482015290518593600160a060020a039081169363985e4cd09391169163029b7d53916024808201926020929091908290030181600087803b15801561188f57600080fd5b505af11580156118a3573d6000803e3d6000fd5b505050506040513d60208110156118b957600080fd5b50516040805160e060020a63ffffffff8516028152600160a060020a0390921660048301525160248083019260209291908290030181600087803b15801561190057600080fd5b505af1158015611914573d6000803e3d6000fd5b505050506040513d602081101561192a57600080fd5b5051101561193757600080fd5b6005546040805160e060020a63029b7d5302815233600482015290516119c6928f92600160a060020a039091169163029b7d53916024808201926020929091908290030181600087803b15801561198d57600080fd5b505af11580156119a1573d6000803e3d6000fd5b505050506040513d60208110156119b757600080fd5b50518d8d8d8d8d8d8d8d612a56565b15156119d157600080fd5b505050505050505050505050565b6000546001546040805160e260020a633d9abf2b028152336004820152600160a060020a0393841660248201529290911660448301525173__AOLibrary_____________________________9163f66afcac916064808301926020929190829003018186803b158015611a5157600080fd5b505af4158015611a65573d6000803e3d6000fd5b505050506040513d6020811015611a7b57600080fd5b50511515611a8857600080fd5b8073__AOLibrary_____________________________632fca5414826040518263ffffffff1660e060020a0281526004018082600160a060020a0316600160a060020a0316815260200191505060206040518083038186803b158015611aed57600080fd5b505af4158015611b01573d6000803e3d6000fd5b505050506040513d6020811015611b1757600080fd5b50511515611b2457600080fd5b50600e8054600160a060020a031916600160a060020a0392909216919091179055565b6060806000808510158015611b5c5750848410155b1515611b6757600080fd5b600854600010611b7657600080fd5b611b976001611b8b868863ffffffff61346816565b9063ffffffff61347a16565b604051908082528060200260200182016040528015611bc0578160200160208202803883390190505b50600854909250611bd890600163ffffffff61346816565b841115611bf657600854611bf390600163ffffffff61346816565b93505b50835b838111611c5d576008805482908110611c0e57fe5b600091825260209091200154600160a060020a031682611c34838863ffffffff61346816565b81518110611c3e57fe5b600160a060020a03909216602092830290910190910152600101611bf9565b509392505050565b60606000606080606080600080600089905080600160a060020a03166306fdde036040518163ffffffff1660e060020a028152600401600060405180830381600087803b158015611cb557600080fd5b505af1158015611cc9573d6000803e3d6000fd5b505050506040513d6000823e601f3d908101601f191682016040526020811015611cf257600080fd5b810190808051640100000000811115611d0a57600080fd5b82016020810184811115611d1d57600080fd5b8151640100000000811182820187101715611d3757600080fd5b505092919050505081600160a060020a03166313866efa6040518163ffffffff1660e060020a028152600401602060405180830381600087803b158015611d7d57600080fd5b505af1158015611d91573d6000803e3d6000fd5b505050506040513d6020811015611da757600080fd5b5051604080517f13866efa0000000000000000000000000000000000000000000000000000000081529051600160a060020a038516916313866efa9160048083019260209291908290030181600087803b158015611e0457600080fd5b505af1158015611e18573d6000803e3d6000fd5b505050506040513d6020811015611e2e57600080fd5b5051604080517f06fdde030000000000000000000000000000000000000000000000000000000081529051600160a060020a03909216916306fdde039160048082019260009290919082900301818387803b158015611e8c57600080fd5b505af1158015611ea0573d6000803e3d6000fd5b505050506040513d6000823e601f3d908101601f191682016040526020811015611ec957600080fd5b810190808051640100000000811115611ee157600080fd5b82016020810184811115611ef457600080fd5b8151640100000000811182820187101715611f0e57600080fd5b505092919050505083600160a060020a031663056847906040518163ffffffff1660e060020a028152600401600060405180830381600087803b158015611f5457600080fd5b505af1158015611f68573d6000803e3d6000fd5b505050506040513d6000823e601f3d908101601f191682016040526020811015611f9157600080fd5b810190808051640100000000811115611fa957600080fd5b82016020810184811115611fbc57600080fd5b8151640100000000811182820187101715611fd657600080fd5b505092919050505084600160a060020a031663713b563f6040518163ffffffff1660e060020a028152600401600060405180830381600087803b15801561201c57600080fd5b505af1158015612030573d6000803e3d6000fd5b505050506040513d6000823e601f3d908101601f19168201604052602081101561205957600080fd5b81019080805164010000000081111561207157600080fd5b8201602081018481111561208457600080fd5b815164010000000081118282018710171561209e57600080fd5b505092919050505085600160a060020a031663a727be576040518163ffffffff1660e060020a028152600401600060405180830381600087803b1580156120e457600080fd5b505af11580156120f8573d6000803e3d6000fd5b505050506040513d6000823e601f3d908101601f19168201604052602081101561212157600080fd5b81019080805164010000000081111561213957600080fd5b8201602081018481111561214c57600080fd5b815164010000000081118282018710171561216657600080fd5b505092919050505086600160a060020a031663d97aa9776040518163ffffffff1660e060020a028152600401602060405180830381600087803b1580156121ac57600080fd5b505af11580156121c0573d6000803e3d6000fd5b505050506040513d60208110156121d657600080fd5b5051604080517f8f940f630000000000000000000000000000000000000000000000000000000081529051600160a060020a038a1691638f940f639160048083019260209291908290030181600087803b15801561223357600080fd5b505af1158015612247573d6000803e3d6000fd5b505050506040513d602081101561225d57600080fd5b5051969f50949d50929b50909950975095509350915050919395975091939597565b600954600160a060020a031681565b600e54600160a060020a031681565b600060606000806122ad8861348d565b604080517f2fca5414000000000000000000000000000000000000000000000000000000008152600160a060020a0383166004820152905173__AOLibrary_____________________________91632fca5414916024808301926020929190829003018186803b15801561232057600080fd5b505af4158015612334573d6000803e3d6000fd5b505050506040513d602081101561234a57600080fd5b5051151561235757600080fd5b6123648c8c8a8a8a613582565b915061237a8a836123748c61348d565b8e6136d8565b1561259f576005546040805160e060020a63029b7d53028152600160a060020a0385811660048301529151600193929092169163029b7d53916024808201926020929091908290030181600087803b1580156123d557600080fd5b505af11580156123e9573d6000803e3d6000fd5b505050506040513d60208110156123ff57600080fd5b5051604080517f06fdde030000000000000000000000000000000000000000000000000000000081529051600160a060020a03909216916306fdde039160048082019260009290919082900301818387803b15801561245d57600080fd5b505af1158015612471573d6000803e3d6000fd5b505050506040513d6000823e601f3d908101601f19168201604052602081101561249a57600080fd5b8101908080516401000000008111156124b257600080fd5b820160208101848111156124c557600080fd5b81516401000000008111828201871017156124df57600080fd5b5050600654909350600160a060020a03169150637a1d66dd9050856125038e61348d565b6040518363ffffffff1660e060020a0281526004018083600160a060020a0316600160a060020a0316815260200182600160a060020a0316600160a060020a0316815260200192505050602060405180830381600087803b15801561256757600080fd5b505af115801561257b573d6000803e3d6000fd5b505050506040513d602081101561259157600080fd5b5051919650945092506125b7565b60408051602081019091526000808252955093508492505b50509750975097945050505050565b6000546001546040805160e260020a633d9abf2b028152336004820152600160a060020a0393841660248201529290911660448301525173__AOLibrary_____________________________9163f66afcac916064808301926020929190829003018186803b15801561263857600080fd5b505af415801561264c573d6000803e3d6000fd5b505050506040513d602081101561266257600080fd5b5051151561266f57600080fd5b600160a060020a038116151561268457600080fd5b60008054600160a060020a031916600160a060020a0392909216919091179055565b600154600090600160a060020a03163314806126cc5750600d54600160a060020a031633145b806126e15750600f54600160a060020a031633145b15156126ec57600080fd5b600160a060020a0382166000908152601560205260408120541161270f57600080fd5b50600160a060020a0316600090815260156020526040902080546001019081905590565b6000546001546040805160e260020a633d9abf2b028152336004820152600160a060020a0393841660248201529290911660448301525173__AOLibrary_____________________________9163f66afcac916064808301926020929190829003018186803b1580156127a557600080fd5b505af41580156127b9573d6000803e3d6000fd5b505050506040513d60208110156127cf57600080fd5b505115156127dc57600080fd5b600160a060020a03811615156127f157600080fd5b60098054600160a060020a03909216600160a060020a0319928316811790915560108054909216179055565b6000546001546040805160e260020a633d9abf2b028152336004820152600160a060020a0393841660248201529290911660448301525173__AOLibrary_____________________________9163f66afcac916064808301926020929190829003018186803b15801561288f57600080fd5b505af41580156128a3573d6000803e3d6000fd5b505050506040513d60208110156128b957600080fd5b505115156128c657600080fd5b600160a060020a03811615156128db57600080fd5b600b8054600160a060020a03909216600160a060020a0319928316811790915560128054909216179055565b601154600e54604080517f7065bedc000000000000000000000000000000000000000000000000000000008152600160a060020a03928316600482015260248101829052601660448201527f6372656174654368696c6454414f4d696e4c6f676f73000000000000000000006064820152905160009384931691637065bedc916084808301928692919082900301818387803b1580156129a657600080fd5b505af11580156129ba573d6000803e3d6000fd5b505050506040513d6000823e601f3d908101601f1916820160405260a08110156129e357600080fd5b815160208301516040840151606085015160808601805194969395929491939283019291640100000000811115612a1957600080fd5b82016020810184811115612a2c57600080fd5b8151640100000000811182820187101715612a4657600080fd5b50979a9950505050505050505050565b60008073__AOLibrary_____________________________63b49ec3e18d8d8d8d8d8d600c60009054906101000a9004600160a060020a03166040518863ffffffff1660e060020a028152600401808060200188600160a060020a0316600160a060020a03168152602001806020018060200180602001876000191660001916815260200186600160a060020a0316600160a060020a0316815260200185810385528c818151815260200191508051906020019080838360005b83811015612b28578181015183820152602001612b10565b50505050905090810190601f168015612b555780820380516001836020036101000a031916815260200191505b5085810384528a5181528a516020918201918c019080838360005b83811015612b88578181015183820152602001612b70565b50505050905090810190601f168015612bb55780820380516001836020036101000a031916815260200191505b5085810383528951815289516020918201918b019080838360005b83811015612be8578181015183820152602001612bd0565b50505050905090810190601f168015612c155780820380516001836020036101000a031916815260200191505b5085810382528851815288516020918201918a019080838360005b83811015612c48578181015183820152602001612c30565b50505050905090810190601f168015612c755780820380516001836020036101000a031916815260200191505b509b50505050505050505050505060206040518083038186803b158015612c9b57600080fd5b505af4158015612caf573d6000803e3d6000fd5b505050506040513d6020811015612cc557600080fd5b810190808051906020019092919050505090506015600082600160a060020a0316600160a060020a0316815260200190815260200160002060008154809291906001019190505550601060009054906101000a9004600160a060020a0316600160a060020a031663aaa9165a8d8360008a600160a060020a03166306fdde036040518163ffffffff1660e060020a028152600401600060405180830381600087803b158015612d7357600080fd5b505af1158015612d87573d6000803e3d6000fd5b505050506040513d6000823e601f3d908101601f191682016040526020811015612db057600080fd5b810190808051640100000000811115612dc857600080fd5b82016020810184811115612ddb57600080fd5b8151640100000000811182820187101715612df557600080fd5b50509291905050508b8c600160a060020a0316638f940f636040518163ffffffff1660e060020a028152600401602060405180830381600087803b158015612e3c57600080fd5b505af1158015612e50573d6000803e3d6000fd5b505050506040513d6020811015612e6657600080fd5b505160405160e060020a63ffffffff8916028152600160a060020a038087166024830152604482018690528316608482015260ff90911660a4820181905260c060048301908152875160c48401528751919290918291606481019160e49091019060208b019080838360005b83811015612eea578181015183820152602001612ed2565b50505050905090810190601f168015612f175780820380516001836020036101000a031916815260200191505b50838103825286518152865160209182019188019080838360005b83811015612f4a578181015183820152602001612f32565b50505050905090810190601f168015612f775780820380516001836020036101000a031916815260200191505b5098505050505050505050602060405180830381600087803b158015612f9c57600080fd5b505af1158015612fb0573d6000803e3d6000fd5b505050506040513d6020811015612fc657600080fd5b50511515612fd357600080fd5b600654604080517ff8c8765e000000000000000000000000000000000000000000000000000000008152600160a060020a0384811660048301528e8116602483018190526044830181905260648301529151919092169163f8c8765e9160848083019260209291908290030181600087803b15801561305157600080fd5b505af1158015613065573d6000803e3d6000fd5b505050506040513d602081101561307b57600080fd5b5051151561308857600080fd5b601354604080517f1794bb3c000000000000000000000000000000000000000000000000000000008152600160a060020a03848116600483015289811660248301526044820189905291519190921691631794bb3c9160648083019260209291908290030181600087803b1580156130ff57600080fd5b505af1158015613113573d6000803e3d6000fd5b505050506040513d602081101561312957600080fd5b5051151561313657600080fd5b601454604080517f698b7764000000000000000000000000000000000000000000000000000000008152600160a060020a0384811660048301528715156024830152604482018790529151919092169163698b77649160648083019260209291908290030181600087803b1580156131ad57600080fd5b505af11580156131c1573d6000803e3d6000fd5b505050506040513d60208110156131d757600080fd5b505115156131e457600080fd5b600880546001808201835560008390527ff3f7a9fe364faab93b216da50a3214154f22a0a2b415b23a84c8169e8b636ee39091018054600160a060020a031916600160a060020a038516179055905433917f99e31d932a8dc18a1c2fdc042033221392c096cb2cba47bd413ae5e36b915ce7918e91859161326491613468565b8a8b600160a060020a0316638f940f636040518163ffffffff1660e060020a028152600401602060405180830381600087803b1580156132a357600080fd5b505af11580156132b7573d6000803e3d6000fd5b505050506040513d60208110156132cd57600080fd5b505160408051600160a060020a0396871681529486166020860152848101939093529316606083015260ff909216608082015290519081900360a00190a2604080517f2fca5414000000000000000000000000000000000000000000000000000000008152600160a060020a0388166004820152905173__AOLibrary_____________________________91632fca5414916024808301926020929190829003018186803b15801561337e57600080fd5b505af4158015613392573d6000803e3d6000fd5b505050506040513d60208110156133a857600080fd5b50511561345657601354604080517f8bd0ba67000000000000000000000000000000000000000000000000000000008152600160a060020a038981166004830152848116602483015291519190921691638bd0ba679160448083019260209291908290030181600087803b15801561341f57600080fd5b505af1158015613433573d6000803e3d6000fd5b505050506040513d602081101561344957600080fd5b5051151561345657600080fd5b5060019b9a5050505050505050505050565b60008282111561347457fe5b50900390565b8181018281101561348757fe5b92915050565b6010546040517f1367944b000000000000000000000000000000000000000000000000000000008152602060048201818152845160248401528451600094600160a060020a031693631367944b938793928392604401918501908083838b5b838110156135045781810151838201526020016134ec565b50505050905090810190601f1680156135315780820380516001836020036101000a031916815260200191505b5092505050602060405180830381600087803b15801561355057600080fd5b505af1158015613564573d6000803e3d6000fd5b505050506040513d602081101561357a57600080fd5b505192915050565b6000803087876040516020018084600160a060020a0316600160a060020a03166c0100000000000000000000000002815260140183805190602001908083835b602083106135e15780518252601f1990920191602091820191016135c2565b51815160209384036101000a60001901801990921691161790529201938452506040805180850381529382019081905283519395509350839290850191508083835b602083106136425780518252601f199092019160209182019101613623565b51815160209384036101000a600019018019909216911617905260408051929094018290038220600080845283830180875282905260ff8d1684870152606084018c9052608084018b905294519097506001965060a080840196509194601f19820194509281900390910191865af11580156136c2573d6000803e3d6000fd5b5050604051601f19015198975050505050505050565b6000600160a060020a038516156137dd57600160a060020a03831660009081526015602052604090205461371390600163ffffffff61347a16565b82148015613732575084600160a060020a031684600160a060020a0316145b80156137d65750600654604080517fe2c8e54a000000000000000000000000000000000000000000000000000000008152600160a060020a03888116600483015286811660248301529151919092169163e2c8e54a9160448083019260209291908290030181600087803b1580156137a957600080fd5b505af11580156137bd573d6000803e3d6000fd5b505050506040513d60208110156137d357600080fd5b50515b9050613880565b600160a060020a03831660009081526015602052604090205461380790600163ffffffff61347a16565b821480156137d65750600654604080517fe2c8e54a000000000000000000000000000000000000000000000000000000008152600160a060020a03878116600483015286811660248301529151919092169163e2c8e54a9160448083019260209291908290030181600087803b1580156137a957600080fd5b9493505050505600a165627a7a72305820403b182b55b3e24aadd99f2156a546c8a424383c113277c747299be01b937bae0029",
	"source": "pragma solidity ^0.4.24;\n\nimport './SafeMath.sol';\nimport './TAOController.sol';\nimport './ITAOFactory.sol';\nimport './Name.sol';\nimport './INameTAOLookup.sol';\nimport './ITAOAncestry.sol';\nimport './IAOSetting.sol';\nimport './Logos.sol';\nimport './ITAOPool.sol';\n\n/**\n * @title TAOFactory\n *\n * The purpose of this contract is to allow node to create TAO\n */\ncontract TAOFactory is TAOController, ITAOFactory {\n\tusing SafeMath for uint256;\n\n\taddress[] internal taos;\n\n\taddress public nameTAOLookupAddress;\n\taddress public aoSettingAddress;\n\taddress public logosAddress;\n\taddress public nameTAOVaultAddress;\n\taddress public taoAncestryAddress;\n\taddress public settingTAOId;\n\taddress public taoPoolAddress;\n\n\tINameTAOLookup internal _nameTAOLookup;\n\tIAOSetting internal _aoSetting;\n\tLogos internal _logos;\n\tITAOAncestry internal _taoAncestry;\n\tITAOPool internal _taoPool;\n\n\t// Mapping from TAO ID to its nonce\n\tmapping (address => uint256) internal _nonces;\n\n\t// Event to be broadcasted to public when Advocate creates a TAO\n\tevent CreateTAO(address indexed ethAddress, address advocateId, address taoId, uint256 index, address parent, uint8 parentTypeId);\n\n\t/**\n\t * @dev Constructor function\n\t */\n\tconstructor(address _nameFactoryAddress)\n\t\tTAOController(_nameFactoryAddress) public {}\n\n\t/**\n\t * @dev Checks if calling address can update TAO's nonce\n\t */\n\tmodifier canUpdateNonce {\n\t\trequire (msg.sender == nameTAOPositionAddress || msg.sender == taoAncestryAddress || msg.sender == taoPoolAddress);\n\t\t_;\n\t}\n\n\t/***** The AO ONLY METHODS *****/\n\t/**\n\t * @dev The AO set the NameTAOLookup Address\n\t * @param _nameTAOLookupAddress The address of NameTAOLookup\n\t */\n\tfunction setNameTAOLookupAddress(address _nameTAOLookupAddress) public onlyTheAO {\n\t\trequire (_nameTAOLookupAddress != address(0));\n\t\tnameTAOLookupAddress = _nameTAOLookupAddress;\n\t\t_nameTAOLookup = INameTAOLookup(_nameTAOLookupAddress);\n\t}\n\n\t/**\n\t * @dev The AO set the AOSetting Address\n\t * @param _aoSettingAddress The address of AOSetting\n\t */\n\tfunction setAOSettingAddress(address _aoSettingAddress) public onlyTheAO {\n\t\trequire (_aoSettingAddress != address(0));\n\t\taoSettingAddress = _aoSettingAddress;\n\t\t_aoSetting = IAOSetting(_aoSettingAddress);\n\t}\n\n\t/**\n\t * @dev The AO set the Logos Address\n\t * @param _logosAddress The address of Logos\n\t */\n\tfunction setLogosAddress(address _logosAddress) public onlyTheAO {\n\t\trequire (_logosAddress != address(0));\n\t\tlogosAddress = _logosAddress;\n\t\t_logos = Logos(_logosAddress);\n\t}\n\n\t/**\n\t * @dev The AO set the NameTAOVault Address\n\t * @param _nameTAOVaultAddress The address of NameTAOVault\n\t */\n\tfunction setNameTAOVaultAddress(address _nameTAOVaultAddress) public onlyTheAO {\n\t\trequire (_nameTAOVaultAddress != address(0));\n\t\tnameTAOVaultAddress = _nameTAOVaultAddress;\n\t}\n\n\t/**\n\t * @dev The AO set the TAOAncestry Address\n\t * @param _taoAncestryAddress The address of TAOAncestry\n\t */\n\tfunction setTAOAncestryAddress(address _taoAncestryAddress) public onlyTheAO {\n\t\trequire (_taoAncestryAddress != address(0));\n\t\ttaoAncestryAddress = _taoAncestryAddress;\n\t\t_taoAncestry = ITAOAncestry(taoAncestryAddress);\n\t}\n\n\t/**\n\t * @dev The AO set settingTAOId (The TAO ID that holds the setting values)\n\t * @param _settingTAOId The address of settingTAOId\n\t */\n\tfunction setSettingTAOId(address _settingTAOId) public onlyTheAO isTAO(_settingTAOId) {\n\t\tsettingTAOId = _settingTAOId;\n\t}\n\n\t/**\n\t * @dev The AO set the TAOPool Address\n\t * @param _taoPoolAddress The address of TAOPool\n\t */\n\tfunction setTAOPoolAddress(address _taoPoolAddress) public onlyTheAO {\n\t\trequire (_taoPoolAddress != address(0));\n\t\ttaoPoolAddress = _taoPoolAddress;\n\t\t_taoPool = ITAOPool(taoPoolAddress);\n\t}\n\n\t/***** PUBLIC METHODS *****/\n\t/**\n\t * @dev Get the nonce given a TAO ID\n\t * @param _taoId The TAO ID to check\n\t * @return The nonce of the TAO\n\t */\n\tfunction nonces(address _taoId) external view returns (uint256) {\n\t\treturn _nonces[_taoId];\n\t}\n\n\t/**\n\t * @dev Increment the nonce of a TAO\n\t * @param _taoId The ID of the TAO\n\t * @return current nonce\n\t */\n\tfunction incrementNonce(address _taoId) external canUpdateNonce returns (uint256) {\n\t\t// Check if _taoId exist\n\t\trequire (_nonces[_taoId] > 0);\n\t\t_nonces[_taoId]++;\n\t\treturn _nonces[_taoId];\n\t}\n\n\t/**\n\t * @dev Name creates a TAO\n\t * @param _name The name of the TAO\n\t * @param _datHash The datHash of this TAO\n\t * @param _database The database for this TAO\n\t * @param _keyValue The key/value pair to be checked on the database\n\t * @param _contentId The contentId related to this TAO\n\t * @param _parentId The parent of this TAO (has to be a Name or TAO)\n\t * @param _childMinLogos The min required Logos to create a child from this TAO\n\t */\n\tfunction createTAO(\n\t\tstring _name,\n\t\tstring _datHash,\n\t\tstring _database,\n\t\tstring _keyValue,\n\t\tbytes32 _contentId,\n\t\taddress _parentId,\n\t\tuint256 _childMinLogos,\n\t\tbool _ethosCapStatus,\n\t\tuint256 _ethosCapAmount\n\t) public senderIsName senderNameNotCompromised isNameOrTAO(_parentId) {\n\t\trequire (bytes(_name).length > 0);\n\t\trequire (!_nameTAOLookup.isExist(_name));\n\n\t\tuint256 _parentCreateChildTAOMinLogos;\n\t\tuint256 _createChildTAOMinLogos = _getSettingVariables();\n\t\tif (AOLibrary.isTAO(_parentId)) {\n\t\t\t(, _parentCreateChildTAOMinLogos,) = _taoAncestry.getAncestryById(_parentId);\n\t\t}\n\t\tif (_parentCreateChildTAOMinLogos > 0) {\n\t\t\trequire (_logos.sumBalanceOf(_nameFactory.ethAddressToNameId(msg.sender)) >= _parentCreateChildTAOMinLogos);\n\t\t} else if (_createChildTAOMinLogos > 0) {\n\t\t\trequire (_logos.sumBalanceOf(_nameFactory.ethAddressToNameId(msg.sender)) >= _createChildTAOMinLogos);\n\t\t}\n\n\t\t// Create the TAO\n\t\trequire (_createTAO(_name, _nameFactory.ethAddressToNameId(msg.sender), _datHash, _database, _keyValue, _contentId, _parentId, _childMinLogos, _ethosCapStatus, _ethosCapAmount));\n\t}\n\n\t/**\n\t * @dev Get TAO information\n\t * @param _taoId The ID of the TAO to be queried\n\t * @return The name of the TAO\n\t * @return The origin Name ID that created the TAO\n\t * @return The name of Name that created the TAO\n\t * @return The datHash of the TAO\n\t * @return The database of the TAO\n\t * @return The keyValue of the TAO\n\t * @return The contentId of the TAO\n\t * @return The typeId of the TAO\n\t */\n\tfunction getTAO(address _taoId) public view returns (string, address, string, string, string, string, bytes32, uint8) {\n\t\tTAO _tao = TAO(_taoId);\n\t\treturn (\n\t\t\t_tao.name(),\n\t\t\t_tao.originId(),\n\t\t\tName(_tao.originId()).name(),\n\t\t\t_tao.datHash(),\n\t\t\t_tao.database(),\n\t\t\t_tao.keyValue(),\n\t\t\t_tao.contentId(),\n\t\t\t_tao.typeId()\n\t\t);\n\t}\n\n\t/**\n\t * @dev Get total TAOs count\n\t * @return total TAOs count\n\t */\n\tfunction getTotalTAOsCount() public view returns (uint256) {\n\t\treturn taos.length;\n\t}\n\n\t/**\n\t * @dev Get list of TAO IDs\n\t * @param _from The starting index\n\t * @param _to The ending index\n\t * @return list of TAO IDs\n\t */\n\tfunction getTAOIds(uint256 _from, uint256 _to) public view returns (address[]) {\n\t\trequire (_from >= 0 && _to >= _from);\n\t\trequire (taos.length > 0);\n\n\t\taddress[] memory _taos = new address[](_to.sub(_from).add(1));\n\t\tif (_to > taos.length.sub(1)) {\n\t\t\t_to = taos.length.sub(1);\n\t\t}\n\t\tfor (uint256 i = _from; i <= _to; i++) {\n\t\t\t_taos[i.sub(_from)] = taos[i];\n\t\t}\n\t\treturn _taos;\n\t}\n\n\t/**\n\t * @dev Check whether or not the signature is valid\n\t * @param _data The signed string data\n\t * @param _nonce The signed uint256 nonce (should be TAO's current nonce + 1)\n\t * @param _validateAddress The ETH address to be validated (optional)\n\t * @param _name The Name of the TAO\n\t * @param _signatureV The V part of the signature\n\t * @param _signatureR The R part of the signature\n\t * @param _signatureS The S part of the signature\n\t * @return true if valid. false otherwise\n\t * @return The name of the Name that created the signature\n\t * @return The Position of the Name that created the signature.\n\t *\t\t\t0 == unknown. 1 == Advocate. 2 == Listener. 3 == Speaker\n\t */\n\tfunction validateTAOSignature(\n\t\tstring _data,\n\t\tuint256 _nonce,\n\t\taddress _validateAddress,\n\t\tstring _name,\n\t\tuint8 _signatureV,\n\t\tbytes32 _signatureR,\n\t\tbytes32 _signatureS\n\t) public isTAO(_getTAOIdByName(_name)) view returns (bool, string, uint256) {\n\t\taddress _signatureAddress = _getValidateSignatureAddress(_data, _nonce, _signatureV, _signatureR, _signatureS);\n\t\tif (_isTAOSignatureAddressValid(_validateAddress, _signatureAddress, _getTAOIdByName(_name), _nonce)) {\n\t\t\treturn (true, Name(_nameFactory.ethAddressToNameId(_signatureAddress)).name(), _nameTAOPosition.determinePosition(_signatureAddress, _getTAOIdByName(_name)));\n\t\t} else {\n\t\t\treturn (false, \"\", 0);\n\t\t}\n\t}\n\n\t/***** INTERNAL METHOD *****/\n\t/**\n\t * @dev Actual creating the TAO\n\t * @param _name The name of the TAO\n\t * @param _nameId The ID of the Name that creates this TAO\n\t * @param _datHash The datHash of this TAO\n\t * @param _database The database for this TAO\n\t * @param _keyValue The key/value pair to be checked on the database\n\t * @param _contentId The contentId related to this TAO\n\t * @param _parentId The parent of this TAO (has to be a Name or TAO)\n\t * @param _childMinLogos The min required Logos to create a child from this TAO\n\t * @return true on success\n\t */\n\tfunction _createTAO(\n\t\tstring _name,\n\t\taddress _nameId,\n\t\tstring _datHash,\n\t\tstring _database,\n\t\tstring _keyValue,\n\t\tbytes32 _contentId,\n\t\taddress _parentId,\n\t\tuint256 _childMinLogos,\n\t\tbool _ethosCapStatus,\n\t\tuint256 _ethosCapAmount\n\t) internal returns (bool) {\n\t\t// Create the TAO\n\t\taddress taoId = AOLibrary.deployTAO(_name, _nameId, _datHash, _database, _keyValue, _contentId, nameTAOVaultAddress);\n\n\t\t// Increment the nonce\n\t\t_nonces[taoId]++;\n\n\t\t// Store the name lookup information\n\t\trequire (_nameTAOLookup.initialize(_name, taoId, 0, TAO(_parentId).name(), _parentId, uint256(TAO(_parentId).typeId())));\n\n\t\t// Store the Advocate/Listener/Speaker information\n\t\trequire (_nameTAOPosition.initialize(taoId, _nameId, _nameId, _nameId));\n\n\t\t// Store the \"Ancestry\" info of this TAO\n\t\trequire (_taoAncestry.initialize(taoId, _parentId, _childMinLogos));\n\n\t\t// Creat a Pool so that public can stake Ethos/Pathos on it\n\t\trequire (_taoPool.createPool(taoId, _ethosCapStatus, _ethosCapAmount));\n\n\t\ttaos.push(taoId);\n\n\t\temit CreateTAO(msg.sender, _nameId, taoId, taos.length.sub(1), _parentId, TAO(_parentId).typeId());\n\n\t\tif (AOLibrary.isTAO(_parentId)) {\n\t\t\trequire (_taoAncestry.addChild(_parentId, taoId));\n\t\t}\n\t\treturn true;\n\t}\n\n\t/**\n\t * @dev Check whether or not the address recovered from the signature is valid\n\t * @param _validateAddress The ETH address to be validated (optional)\n\t * @param _signatureAddress The address recovered from the signature\n\t * @param _taoId The ID of the TAO\n\t * @param _nonce The signed uint256 nonce\n\t * @return true if valid. false otherwise\n\t */\n\tfunction _isTAOSignatureAddressValid(\n\t\taddress _validateAddress,\n\t\taddress _signatureAddress,\n\t\taddress _taoId,\n\t\tuint256 _nonce\n\t) internal view returns (bool) {\n\t\tif (_validateAddress != address(0)) {\n\t\t\treturn (_nonce == _nonces[_taoId].add(1) &&\n\t\t\t\t_signatureAddress == _validateAddress &&\n\t\t\t\t_nameTAOPosition.senderIsPosition(_validateAddress, _taoId)\n\t\t\t);\n\t\t} else {\n\t\t\treturn (\n\t\t\t\t_nonce == _nonces[_taoId].add(1) &&\n\t\t\t\t_nameTAOPosition.senderIsPosition(_signatureAddress, _taoId)\n\t\t\t);\n\t\t}\n\t}\n\n\t/**\n\t * @dev Internal function to get the TAO Id by name\n\t * @param _name The name of the TAO\n\t * @return the TAO ID\n\t */\n\tfunction _getTAOIdByName(string _name) internal view returns (address) {\n\t\treturn _nameTAOLookup.getIdByName(_name);\n\t}\n\n\t/**\n\t * @dev Get setting variables\n\t * @return createChildTAOMinLogos The minimum required Logos to create a TAO\n\t */\n\tfunction _getSettingVariables() internal view returns (uint256) {\n\t\t(uint256 createChildTAOMinLogos,,,,) = _aoSetting.getSettingValuesByTAOName(settingTAOId, 'createChildTAOMinLogos');\n\t\treturn createChildTAOMinLogos;\n\t}\n\n\t/**\n\t * @dev Return the address that signed the data and nonce when validating signature\n\t * @param _data the data that was signed\n\t * @param _nonce The signed uint256 nonce\n\t * @param _v part of the signature\n\t * @param _r part of the signature\n\t * @param _s part of the signature\n\t * @return the address that signed the message\n\t */\n\tfunction _getValidateSignatureAddress(string _data, uint256 _nonce, uint8 _v, bytes32 _r, bytes32 _s) internal view returns (address) {\n\t\tbytes32 _hash = keccak256(abi.encodePacked(address(this), _data, _nonce));\n\t\treturn ecrecover(_hash, _v, _r, _s);\n\t}\n}\n",
	"sourcePath": "/Users/johanmulyono/Work/AO/ao-contracts/contracts/TAOFactory.sol",
	"compiler": {
		"name": "solc",
		"version": "0.4.24+commit.e67f0147.Emscripten.clang"
	},
	"schemaVersion": "2.0.1",
	"updatedAt": "2019-02-19T08:13:51.743Z"
}