{
	"contractName": "TAOPool",
	"abi": [
		{
			"constant": false,
			"inputs": [
				{
					"name": "_nameAccountRecoveryAddress",
					"type": "address"
				}
			],
			"name": "setNameAccountRecoveryAddress",
			"outputs": [],
			"payable": false,
			"stateMutability": "nonpayable",
			"type": "function"
		},
		{
			"constant": true,
			"inputs": [
				{
					"name": "",
					"type": "address"
				}
			],
			"name": "totalEthosStaked",
			"outputs": [
				{
					"name": "",
					"type": "uint256"
				}
			],
			"payable": false,
			"stateMutability": "view",
			"type": "function"
		},
		{
			"constant": true,
			"inputs": [
				{
					"name": "",
					"type": "address"
				}
			],
			"name": "poolTotalLogosWithdrawn",
			"outputs": [
				{
					"name": "",
					"type": "uint256"
				}
			],
			"payable": false,
			"stateMutability": "view",
			"type": "function"
		},
		{
			"constant": true,
			"inputs": [],
			"name": "logosAddress",
			"outputs": [
				{
					"name": "",
					"type": "address"
				}
			],
			"payable": false,
			"stateMutability": "view",
			"type": "function"
		},
		{
			"constant": true,
			"inputs": [
				{
					"name": "",
					"type": "address"
				}
			],
			"name": "poolTotalLot",
			"outputs": [
				{
					"name": "",
					"type": "uint256"
				}
			],
			"payable": false,
			"stateMutability": "view",
			"type": "function"
		},
		{
			"constant": true,
			"inputs": [],
			"name": "pathosAddress",
			"outputs": [
				{
					"name": "",
					"type": "address"
				}
			],
			"payable": false,
			"stateMutability": "view",
			"type": "function"
		},
		{
			"constant": true,
			"inputs": [],
			"name": "nameTAOPositionAddress",
			"outputs": [
				{
					"name": "",
					"type": "address"
				}
			],
			"payable": false,
			"stateMutability": "view",
			"type": "function"
		},
		{
			"constant": true,
			"inputs": [],
			"name": "contractTotalLot",
			"outputs": [
				{
					"name": "",
					"type": "uint256"
				}
			],
			"payable": false,
			"stateMutability": "view",
			"type": "function"
		},
		{
			"constant": false,
			"inputs": [
				{
					"name": "_account",
					"type": "address"
				},
				{
					"name": "_whitelist",
					"type": "bool"
				}
			],
			"name": "setWhitelist",
			"outputs": [],
			"payable": false,
			"stateMutability": "nonpayable",
			"type": "function"
		},
		{
			"constant": true,
			"inputs": [
				{
					"name": "",
					"type": "address"
				}
			],
			"name": "totalPathosStaked",
			"outputs": [
				{
					"name": "",
					"type": "uint256"
				}
			],
			"payable": false,
			"stateMutability": "view",
			"type": "function"
		},
		{
			"constant": false,
			"inputs": [
				{
					"name": "_nameTAOPositionAddress",
					"type": "address"
				}
			],
			"name": "setNameTAOPositionAddress",
			"outputs": [],
			"payable": false,
			"stateMutability": "nonpayable",
			"type": "function"
		},
		{
			"constant": true,
			"inputs": [],
			"name": "contractTotalEthos",
			"outputs": [
				{
					"name": "",
					"type": "uint256"
				}
			],
			"payable": false,
			"stateMutability": "view",
			"type": "function"
		},
		{
			"constant": false,
			"inputs": [
				{
					"name": "_nameFactoryAddress",
					"type": "address"
				}
			],
			"name": "setNameFactoryAddress",
			"outputs": [],
			"payable": false,
			"stateMutability": "nonpayable",
			"type": "function"
		},
		{
			"constant": true,
			"inputs": [],
			"name": "ethosAddress",
			"outputs": [
				{
					"name": "",
					"type": "address"
				}
			],
			"payable": false,
			"stateMutability": "view",
			"type": "function"
		},
		{
			"constant": true,
			"inputs": [],
			"name": "contractTotalLogosWithdrawn",
			"outputs": [
				{
					"name": "",
					"type": "uint256"
				}
			],
			"payable": false,
			"stateMutability": "view",
			"type": "function"
		},
		{
			"constant": true,
			"inputs": [
				{
					"name": "",
					"type": "address"
				}
			],
			"name": "whitelist",
			"outputs": [
				{
					"name": "",
					"type": "bool"
				}
			],
			"payable": false,
			"stateMutability": "view",
			"type": "function"
		},
		{
			"constant": true,
			"inputs": [
				{
					"name": "",
					"type": "address"
				}
			],
			"name": "pools",
			"outputs": [
				{
					"name": "taoId",
					"type": "address"
				},
				{
					"name": "ethosCapStatus",
					"type": "bool"
				},
				{
					"name": "ethosCapAmount",
					"type": "uint256"
				},
				{
					"name": "status",
					"type": "bool"
				}
			],
			"payable": false,
			"stateMutability": "view",
			"type": "function"
		},
		{
			"constant": true,
			"inputs": [],
			"name": "nameAccountRecoveryAddress",
			"outputs": [
				{
					"name": "",
					"type": "address"
				}
			],
			"payable": false,
			"stateMutability": "view",
			"type": "function"
		},
		{
			"constant": true,
			"inputs": [],
			"name": "theAO",
			"outputs": [
				{
					"name": "",
					"type": "address"
				}
			],
			"payable": false,
			"stateMutability": "view",
			"type": "function"
		},
		{
			"constant": true,
			"inputs": [],
			"name": "nameFactoryAddress",
			"outputs": [
				{
					"name": "",
					"type": "address"
				}
			],
			"payable": false,
			"stateMutability": "view",
			"type": "function"
		},
		{
			"constant": true,
			"inputs": [],
			"name": "contractTotalPathos",
			"outputs": [
				{
					"name": "",
					"type": "uint256"
				}
			],
			"payable": false,
			"stateMutability": "view",
			"type": "function"
		},
		{
			"constant": true,
			"inputs": [
				{
					"name": "",
					"type": "bytes32"
				}
			],
			"name": "lots",
			"outputs": [
				{
					"name": "lotId",
					"type": "bytes32"
				},
				{
					"name": "nameId",
					"type": "address"
				},
				{
					"name": "lotQuantity",
					"type": "uint256"
				},
				{
					"name": "taoId",
					"type": "address"
				},
				{
					"name": "poolPreStakeSnapshot",
					"type": "uint256"
				},
				{
					"name": "poolStakeLotSnapshot",
					"type": "uint256"
				},
				{
					"name": "lotValueInLogos",
					"type": "uint256"
				},
				{
					"name": "logosWithdrawn",
					"type": "uint256"
				},
				{
					"name": "timestamp",
					"type": "uint256"
				}
			],
			"payable": false,
			"stateMutability": "view",
			"type": "function"
		},
		{
			"constant": false,
			"inputs": [
				{
					"name": "_theAO",
					"type": "address"
				}
			],
			"name": "transferOwnership",
			"outputs": [],
			"payable": false,
			"stateMutability": "nonpayable",
			"type": "function"
		},
		{
			"constant": true,
			"inputs": [],
			"name": "taoFactoryAddress",
			"outputs": [
				{
					"name": "",
					"type": "address"
				}
			],
			"payable": false,
			"stateMutability": "view",
			"type": "function"
		},
		{
			"inputs": [
				{
					"name": "_nameFactoryAddress",
					"type": "address"
				},
				{
					"name": "_taoFactoryAddress",
					"type": "address"
				},
				{
					"name": "_nameTAOPositionAddress",
					"type": "address"
				},
				{
					"name": "_pathosAddress",
					"type": "address"
				},
				{
					"name": "_ethosAddress",
					"type": "address"
				},
				{
					"name": "_logosAddress",
					"type": "address"
				}
			],
			"payable": false,
			"stateMutability": "nonpayable",
			"type": "constructor"
		},
		{
			"anonymous": false,
			"inputs": [
				{
					"indexed": true,
					"name": "taoId",
					"type": "address"
				},
				{
					"indexed": false,
					"name": "ethosCapStatus",
					"type": "bool"
				},
				{
					"indexed": false,
					"name": "ethosCapAmount",
					"type": "uint256"
				},
				{
					"indexed": false,
					"name": "status",
					"type": "bool"
				}
			],
			"name": "CreatePool",
			"type": "event"
		},
		{
			"anonymous": false,
			"inputs": [
				{
					"indexed": true,
					"name": "taoId",
					"type": "address"
				},
				{
					"indexed": false,
					"name": "status",
					"type": "bool"
				},
				{
					"indexed": false,
					"name": "nonce",
					"type": "uint256"
				}
			],
			"name": "UpdatePoolStatus",
			"type": "event"
		},
		{
			"anonymous": false,
			"inputs": [
				{
					"indexed": true,
					"name": "taoId",
					"type": "address"
				},
				{
					"indexed": false,
					"name": "ethosCapStatus",
					"type": "bool"
				},
				{
					"indexed": false,
					"name": "ethosCapAmount",
					"type": "uint256"
				},
				{
					"indexed": false,
					"name": "nonce",
					"type": "uint256"
				}
			],
			"name": "UpdatePoolEthosCap",
			"type": "event"
		},
		{
			"anonymous": false,
			"inputs": [
				{
					"indexed": true,
					"name": "taoId",
					"type": "address"
				},
				{
					"indexed": true,
					"name": "lotId",
					"type": "bytes32"
				},
				{
					"indexed": true,
					"name": "nameId",
					"type": "address"
				},
				{
					"indexed": false,
					"name": "lotQuantity",
					"type": "uint256"
				},
				{
					"indexed": false,
					"name": "poolPreStakeSnapshot",
					"type": "uint256"
				},
				{
					"indexed": false,
					"name": "poolStakeLotSnapshot",
					"type": "uint256"
				},
				{
					"indexed": false,
					"name": "lotValueInLogos",
					"type": "uint256"
				},
				{
					"indexed": false,
					"name": "timestamp",
					"type": "uint256"
				}
			],
			"name": "StakeEthos",
			"type": "event"
		},
		{
			"anonymous": false,
			"inputs": [
				{
					"indexed": true,
					"name": "taoId",
					"type": "address"
				},
				{
					"indexed": true,
					"name": "nameId",
					"type": "address"
				},
				{
					"indexed": false,
					"name": "stakeQuantity",
					"type": "uint256"
				},
				{
					"indexed": false,
					"name": "currentPoolTotalStakedPathos",
					"type": "uint256"
				}
			],
			"name": "StakePathos",
			"type": "event"
		},
		{
			"anonymous": false,
			"inputs": [
				{
					"indexed": true,
					"name": "nameId",
					"type": "address"
				},
				{
					"indexed": true,
					"name": "lotId",
					"type": "bytes32"
				},
				{
					"indexed": true,
					"name": "taoId",
					"type": "address"
				},
				{
					"indexed": false,
					"name": "withdrawnAmount",
					"type": "uint256"
				},
				{
					"indexed": false,
					"name": "currentLotValueInLogos",
					"type": "uint256"
				},
				{
					"indexed": false,
					"name": "currentLotLogosWithdrawn",
					"type": "uint256"
				}
			],
			"name": "WithdrawLogos",
			"type": "event"
		},
		{
			"constant": false,
			"inputs": [
				{
					"name": "_taoFactoryAddress",
					"type": "address"
				}
			],
			"name": "setTAOFactoryAddress",
			"outputs": [],
			"payable": false,
			"stateMutability": "nonpayable",
			"type": "function"
		},
		{
			"constant": false,
			"inputs": [
				{
					"name": "_pathosAddress",
					"type": "address"
				}
			],
			"name": "setPathosAddress",
			"outputs": [],
			"payable": false,
			"stateMutability": "nonpayable",
			"type": "function"
		},
		{
			"constant": false,
			"inputs": [
				{
					"name": "_ethosAddress",
					"type": "address"
				}
			],
			"name": "setEthosAddress",
			"outputs": [],
			"payable": false,
			"stateMutability": "nonpayable",
			"type": "function"
		},
		{
			"constant": false,
			"inputs": [
				{
					"name": "_logosAddress",
					"type": "address"
				}
			],
			"name": "setLogosAddress",
			"outputs": [],
			"payable": false,
			"stateMutability": "nonpayable",
			"type": "function"
		},
		{
			"constant": true,
			"inputs": [
				{
					"name": "_id",
					"type": "address"
				}
			],
			"name": "isExist",
			"outputs": [
				{
					"name": "",
					"type": "bool"
				}
			],
			"payable": false,
			"stateMutability": "view",
			"type": "function"
		},
		{
			"constant": false,
			"inputs": [
				{
					"name": "_taoId",
					"type": "address"
				},
				{
					"name": "_ethosCapStatus",
					"type": "bool"
				},
				{
					"name": "_ethosCapAmount",
					"type": "uint256"
				}
			],
			"name": "createPool",
			"outputs": [
				{
					"name": "",
					"type": "bool"
				}
			],
			"payable": false,
			"stateMutability": "nonpayable",
			"type": "function"
		},
		{
			"constant": false,
			"inputs": [
				{
					"name": "_taoId",
					"type": "address"
				},
				{
					"name": "_status",
					"type": "bool"
				}
			],
			"name": "updatePoolStatus",
			"outputs": [],
			"payable": false,
			"stateMutability": "nonpayable",
			"type": "function"
		},
		{
			"constant": false,
			"inputs": [
				{
					"name": "_taoId",
					"type": "address"
				},
				{
					"name": "_ethosCapStatus",
					"type": "bool"
				},
				{
					"name": "_ethosCapAmount",
					"type": "uint256"
				}
			],
			"name": "updatePoolEthosCap",
			"outputs": [],
			"payable": false,
			"stateMutability": "nonpayable",
			"type": "function"
		},
		{
			"constant": false,
			"inputs": [
				{
					"name": "_taoId",
					"type": "address"
				},
				{
					"name": "_quantity",
					"type": "uint256"
				}
			],
			"name": "stakeEthos",
			"outputs": [],
			"payable": false,
			"stateMutability": "nonpayable",
			"type": "function"
		},
		{
			"constant": true,
			"inputs": [
				{
					"name": "_nameId",
					"type": "address"
				}
			],
			"name": "ownerTotalLot",
			"outputs": [
				{
					"name": "",
					"type": "uint256"
				}
			],
			"payable": false,
			"stateMutability": "view",
			"type": "function"
		},
		{
			"constant": true,
			"inputs": [
				{
					"name": "_nameId",
					"type": "address"
				},
				{
					"name": "_from",
					"type": "uint256"
				},
				{
					"name": "_to",
					"type": "uint256"
				}
			],
			"name": "ownerLotIds",
			"outputs": [
				{
					"name": "",
					"type": "bytes32[]"
				}
			],
			"payable": false,
			"stateMutability": "view",
			"type": "function"
		},
		{
			"constant": true,
			"inputs": [
				{
					"name": "_taoId",
					"type": "address"
				}
			],
			"name": "availablePathosToStake",
			"outputs": [
				{
					"name": "",
					"type": "uint256"
				}
			],
			"payable": false,
			"stateMutability": "view",
			"type": "function"
		},
		{
			"constant": false,
			"inputs": [
				{
					"name": "_taoId",
					"type": "address"
				},
				{
					"name": "_quantity",
					"type": "uint256"
				}
			],
			"name": "stakePathos",
			"outputs": [],
			"payable": false,
			"stateMutability": "nonpayable",
			"type": "function"
		},
		{
			"constant": false,
			"inputs": [
				{
					"name": "_lotId",
					"type": "bytes32"
				}
			],
			"name": "withdrawLogos",
			"outputs": [],
			"payable": false,
			"stateMutability": "nonpayable",
			"type": "function"
		},
		{
			"constant": true,
			"inputs": [
				{
					"name": "_lotId",
					"type": "bytes32"
				}
			],
			"name": "lotLogosAvailableToWithdraw",
			"outputs": [
				{
					"name": "",
					"type": "uint256"
				}
			],
			"payable": false,
			"stateMutability": "view",
			"type": "function"
		}
	],
	"bytecode": "0x60806040523480156200001157600080fd5b5060405160c08062003ae683398101604090815281516020830151918301516060840151608085015160a09095015160008054600160a060020a0319163317905592949192909190856200006e81640100000000620000df810204565b506200008385640100000000620001e4810204565b6200009784640100000000620002e9810204565b620000ab83640100000000620003ee810204565b620000bf82640100000000620004f3810204565b620000d381640100000000620005f8810204565b505050505050620006fd565b600054600154604080517ff66afcac000000000000000000000000000000000000000000000000000000008152336004820152600160a060020a0393841660248201529290911660448301525173__AOLibrary_____________________________9163f66afcac916064808301926020929190829003018186803b1580156200016857600080fd5b505af41580156200017d573d6000803e3d6000fd5b505050506040513d60208110156200019457600080fd5b50511515620001a257600080fd5b600160a060020a0381161515620001b857600080fd5b60038054600160a060020a03909216600160a060020a0319928316811790915560058054909216179055565b600054600154604080517ff66afcac000000000000000000000000000000000000000000000000000000008152336004820152600160a060020a0393841660248201529290911660448301525173__AOLibrary_____________________________9163f66afcac916064808301926020929190829003018186803b1580156200026d57600080fd5b505af415801562000282573d6000803e3d6000fd5b505050506040513d60208110156200029957600080fd5b50511515620002a757600080fd5b600160a060020a0381161515620002bd57600080fd5b60088054600160a060020a03909216600160a060020a03199283168117909155600c8054909216179055565b600054600154604080517ff66afcac000000000000000000000000000000000000000000000000000000008152336004820152600160a060020a0393841660248201529290911660448301525173__AOLibrary_____________________________9163f66afcac916064808301926020929190829003018186803b1580156200037257600080fd5b505af415801562000387573d6000803e3d6000fd5b505050506040513d60208110156200039e57600080fd5b50511515620003ac57600080fd5b600160a060020a0381161515620003c257600080fd5b60018054600160a060020a03909216600160a060020a0319928316811790915560068054909216179055565b600054600154604080517ff66afcac000000000000000000000000000000000000000000000000000000008152336004820152600160a060020a0393841660248201529290911660448301525173__AOLibrary_____________________________9163f66afcac916064808301926020929190829003018186803b1580156200047757600080fd5b505af41580156200048c573d6000803e3d6000fd5b505050506040513d6020811015620004a357600080fd5b50511515620004b157600080fd5b600160a060020a0381161515620004c757600080fd5b60098054600160a060020a03909216600160a060020a03199283168117909155600d8054909216179055565b600054600154604080517ff66afcac000000000000000000000000000000000000000000000000000000008152336004820152600160a060020a0393841660248201529290911660448301525173__AOLibrary_____________________________9163f66afcac916064808301926020929190829003018186803b1580156200057c57600080fd5b505af415801562000591573d6000803e3d6000fd5b505050506040513d6020811015620005a857600080fd5b50511515620005b657600080fd5b600160a060020a0381161515620005cc57600080fd5b600a8054600160a060020a03909216600160a060020a03199283168117909155600e8054909216179055565b600054600154604080517ff66afcac000000000000000000000000000000000000000000000000000000008152336004820152600160a060020a0393841660248201529290911660448301525173__AOLibrary_____________________________9163f66afcac916064808301926020929190829003018186803b1580156200068157600080fd5b505af415801562000696573d6000803e3d6000fd5b505050506040513d6020811015620006ad57600080fd5b50511515620006bb57600080fd5b600160a060020a0381161515620006d157600080fd5b600b8054600160a060020a03909216600160a060020a03199283168117909155600f8054909216179055565b6133d9806200070d6000396000f3006080604052600436106101c85763ffffffff60e060020a60003504166213eb4b81146101cd5780631add5b98146102025780631dfde2bd146102255780632191207a1461024657806324d723171461026757806328d313b51461028b5780632f4f6bc4146102be5780632fbb7695146102e757806332232636146102ff57806334172c9e1461032057806338da7de7146103465780633a10617d146103775780634486ab0a146103985780634ef033f0146103ad57806350159a9e146103c257806353d6fd59146103d75780635baf6a47146103fd5780635cfaf2ef1461041e5780635d813eb41461043f578063698b776414610460578063793c8228146104895780638bce77f3146104aa5780638c924361146104bf5780639093a790146104e057806395c13f0a146104f5578063983344611461050a5780639b19251a1461052b578063a4063dbc1461054c578063a4e5fad21461059f578063a9b6b38e146105b4578063bc406206146105c9578063c6185ae1146105de578063de4796cd146105f3578063e3fcd93014610661578063f2fde38b14610679578063f68d8f5a1461069a578063f838955a146106be578063ff0374b514610735578063ff3781c61461074a575b600080fd5b3480156101d957600080fd5b506101ee600160a060020a036004351661076b565b604080519115158252519081900360200190f35b34801561020e57600080fd5b50610223600160a060020a036004351661078b565b005b34801561023157600080fd5b50610223600160a060020a0360043516610875565b34801561025257600080fd5b50610223600160a060020a0360043516610962565b34801561027357600080fd5b50610223600160a060020a0360043516602435610a4c565b34801561029757600080fd5b506102ac600160a060020a036004351661107e565b60408051918252519081900360200190f35b3480156102ca57600080fd5b50610223600160a060020a03600435166024351515604435611090565b3480156102f357600080fd5b506102ac6004356114fb565b34801561030b57600080fd5b506102ac600160a060020a0360043516611793565b34801561032c57600080fd5b50610223600160a060020a036004351660243515156117a5565b34801561035257600080fd5b5061035b611b1c565b60408051600160a060020a039092168252519081900360200190f35b34801561038357600080fd5b506102ac600160a060020a0360043516611b2b565b3480156103a457600080fd5b5061035b611b3d565b3480156103b957600080fd5b5061035b611b4c565b3480156103ce57600080fd5b506102ac611b5b565b3480156103e357600080fd5b50610223600160a060020a03600435166024351515611b61565b34801561040957600080fd5b506102ac600160a060020a0360043516611c4a565b34801561042a57600080fd5b50610223600160a060020a0360043516611c5c565b34801561044b57600080fd5b506102ac600160a060020a0360043516611d46565b34801561046c57600080fd5b506101ee600160a060020a03600435166024351515604435611d61565b34801561049557600080fd5b50610223600160a060020a0360043516611f35565b3480156104b657600080fd5b506102ac61201f565b3480156104cb57600080fd5b50610223600160a060020a0360043516612025565b3480156104ec57600080fd5b5061035b61210f565b34801561050157600080fd5b506102ac61211e565b34801561051657600080fd5b506102ac600160a060020a0360043516612124565b34801561053757600080fd5b506101ee600160a060020a03600435166122d2565b34801561055857600080fd5b5061056d600160a060020a03600435166122e7565b60408051600160a060020a03909516855292151560208501528383019190915215156060830152519081900360800190f35b3480156105ab57600080fd5b5061035b612320565b3480156105c057600080fd5b5061035b61232f565b3480156105d557600080fd5b5061035b61233e565b3480156105ea57600080fd5b506102ac61234d565b3480156105ff57600080fd5b5061060b600435612353565b60408051998a52600160a060020a0398891660208b015289810197909752949096166060880152608087019290925260a086015260c085015260e084019290925261010083019190915251908190036101200190f35b34801561066d57600080fd5b506102236004356123aa565b34801561068557600080fd5b50610223600160a060020a03600435166127c6565b3480156106a657600080fd5b50610223600160a060020a03600435166024356128a6565b3480156106ca57600080fd5b506106e5600160a060020a0360043516602435604435613105565b60408051602080825283518183015283519192839290830191858101910280838360005b83811015610721578181015183820152602001610709565b505050509050019250505060405180910390f35b34801561074157600080fd5b5061035b613206565b34801561075657600080fd5b50610223600160a060020a0360043516613215565b600160a060020a0390811660009081526014602052604090205416151590565b6000546001546040805160e260020a633d9abf2b028152336004820152600160a060020a0393841660248201529290911660448301525173__AOLibrary_____________________________9163f66afcac916064808301926020929190829003018186803b1580156107fd57600080fd5b505af4158015610811573d6000803e3d6000fd5b505050506040513d602081101561082757600080fd5b5051151561083457600080fd5b600160a060020a038116151561084957600080fd5b600a8054600160a060020a03909216600160a060020a03199283168117909155600e8054909216179055565b6000546001546040805160e260020a633d9abf2b028152336004820152600160a060020a0393841660248201529290911660448301525173__AOLibrary_____________________________9163f66afcac916064808301926020929190829003018186803b1580156108e757600080fd5b505af41580156108fb573d6000803e3d6000fd5b505050506040513d602081101561091157600080fd5b5051151561091e57600080fd5b600160a060020a038116151561093357600080fd5b60048054600160a060020a0319908116600160a060020a03938416179182905560078054929093169116179055565b6000546001546040805160e260020a633d9abf2b028152336004820152600160a060020a0393841660248201529290911660448301525173__AOLibrary_____________________________9163f66afcac916064808301926020929190829003018186803b1580156109d457600080fd5b505af41580156109e8573d6000803e3d6000fd5b505050506040513d60208110156109fe57600080fd5b50511515610a0b57600080fd5b600160a060020a0381161515610a2057600080fd5b60088054600160a060020a03909216600160a060020a03199283168117909155600c8054909216179055565b610a54613324565b60008373__AOLibrary_____________________________632fca5414826040518263ffffffff1660e060020a0281526004018082600160a060020a0316600160a060020a0316815260200191505060206040518083038186803b158015610abb57600080fd5b505af4158015610acf573d6000803e3d6000fd5b505050506040513d6020811015610ae557600080fd5b50511515610af257600080fd5b6005546040805160e060020a63029b7d530281523360048201529051600092600160a060020a03169163029b7d5391602480830192602092919082900301818787803b158015610b4157600080fd5b505af1158015610b55573d6000803e3d6000fd5b505050506040513d6020811015610b6b57600080fd5b5051600160a060020a03161415610b8157600080fd5b6007546005546040805160e060020a63029b7d530281523360048201529051600160a060020a0393841693633ebc2ab393169163029b7d539160248083019260209291908290030181600087803b158015610bdb57600080fd5b505af1158015610bef573d6000803e3d6000fd5b505050506040513d6020811015610c0557600080fd5b50516040805160e060020a63ffffffff8516028152600160a060020a0390921660048301525160248083019260209291908290030181600087803b158015610c4c57600080fd5b505af1158015610c60573d6000803e3d6000fd5b505050506040513d6020811015610c7657600080fd5b505115610c8257600080fd5b600160a060020a03808616600090815260146020908152604080832081516080810183528154808716825260ff60a060020a909104811615158286015260018301548285015260029092015490911615156060820152600554825160e060020a63029b7d5302815233600482015292519198509094169363029b7d5393602480840194938390030190829087803b158015610d1c57600080fd5b505af1158015610d30573d6000803e3d6000fd5b505050506040513d6020811015610d4657600080fd5b5051606084015190925015156001148015610d615750600084115b8015610dec5750600d546040805160e060020a6370a08231028152600160a060020a0385811660048301529151879392909216916370a08231916024808201926020929091908290030181600087803b158015610dbd57600080fd5b505af1158015610dd1573d6000803e3d6000fd5b505050506040513d6020811015610de757600080fd5b505110155b8015610e005750610dfc85612124565b8411155b1515610e0b57600080fd5b600160a060020a0382166000908152601a6020526040902054610e34908563ffffffff6132ff16565b600160a060020a0383166000908152601a6020526040902055601254610e60908563ffffffff6132ff16565b601255600d54604080517f23b872dd000000000000000000000000000000000000000000000000000000008152600160a060020a038581166004830152888116602483015260448201889052915191909216916323b872dd9160648083019260209291908290030181600087803b158015610eda57600080fd5b505af1158015610eee573d6000803e3d6000fd5b505050506040513d6020811015610f0457600080fd5b50511515610f1157600080fd5b600f54604080517f97fe5ea3000000000000000000000000000000000000000000000000000000008152600160a060020a03888116600483015260248201889052915191909216916397fe5ea39160448083019260209291908290030181600087803b158015610f8057600080fd5b505af1158015610f94573d6000803e3d6000fd5b505050506040513d6020811015610faa57600080fd5b50511515610fb757600080fd5b600d546040805160e060020a6370a08231028152600160a060020a03888116600483018190529251868216947fad55db0d41c96097ea516af16ed6458bb2b54fdf95347b6108c0822c0442b1ba938a93909116916370a08231916024808201926020929091908290030181600087803b15801561103357600080fd5b505af1158015611047573d6000803e3d6000fd5b505050506040513d602081101561105d57600080fd5b50516040805192835260208301919091528051918290030190a35050505050565b60196020526000908152604090205481565b60008373__AOLibrary_____________________________632fca5414826040518263ffffffff1660e060020a0281526004018082600160a060020a0316600160a060020a0316815260200191505060206040518083038186803b1580156110f757600080fd5b505af415801561110b573d6000803e3d6000fd5b505050506040513d602081101561112157600080fd5b5051151561112e57600080fd5b600654604080517f71ce52ed000000000000000000000000000000000000000000000000000000008152336004820152600160a060020a0380891660248301529151889392909216916371ce52ed916044808201926020929091908290030181600087803b15801561119f57600080fd5b505af11580156111b3573d6000803e3d6000fd5b505050506040513d60208110156111c957600080fd5b505115156111d657600080fd5b6007546005546040805160e060020a63029b7d530281523360048201529051600160a060020a0393841693633ebc2ab393169163029b7d539160248083019260209291908290030181600087803b15801561123057600080fd5b505af1158015611244573d6000803e3d6000fd5b505050506040513d602081101561125a57600080fd5b50516040805160e060020a63ffffffff8516028152600160a060020a0390921660048301525160248083019260209291908290030181600087803b1580156112a157600080fd5b505af11580156112b5573d6000803e3d6000fd5b505050506040513d60208110156112cb57600080fd5b5051156112d757600080fd5b600160a060020a038681166000908152601460205260409020541615156112fd57600080fd5b841561139a5760008411801561138f5750600d546040805160e060020a6370a08231028152600160a060020a038981166004830152915191909216916370a082319160248083019260209291908290030181600087803b15801561136057600080fd5b505af1158015611374573d6000803e3d6000fd5b505050506040513d602081101561138a57600080fd5b505184115b151561139a57600080fd5b600160a060020a038616600090815260146020526040902080548615801560a060020a0274ff0000000000000000000000000000000000000000199092169190911790915561140257600160a060020a03861660009081526014602052604090206001018490555b600c54604080517ff5743c4c000000000000000000000000000000000000000000000000000000008152600160a060020a0389811660048301529151919092169163f5743c4c9160248083019260209291908290030181600087803b15801561146a57600080fd5b505af115801561147e573d6000803e3d6000fd5b505050506040513d602081101561149457600080fd5b50519250600083116114a557600080fd5b604080518615158152602081018690528082018590529051600160a060020a038816917f710a196358986b34ff7b89eb2ca10d88508cb3f52d8392a2f595722804cc1325919081900360600190a2505050505050565b600061150561334b565b506000828152601560209081526040808320815161012081018352815481526001820154600160a060020a039081169482018590526002830154938201939093526003820154909216606083015260048101546080830152600581015460a0830152600681015460c0830152600781015460e0830152600801546101008201529190151561159257600080fd5b506080810151600d5460608301516040805160e060020a6370a08231028152600160a060020a03928316600482015290516000949392909216916370a082319160248082019260209290919082900301818887803b1580156115f357600080fd5b505af1158015611607573d6000803e3d6000fd5b505050506040513d602081101561161d57600080fd5b5051118015611630575060008260c00151115b1561178c5760a0820151600d5460608401516040805160e060020a6370a08231028152600160a060020a039283166004820152905191909216916370a082319160248083019260209291908290030181600087803b15801561169157600080fd5b505af11580156116a5573d6000803e3d6000fd5b505050506040513d60208110156116bb57600080fd5b50511015611762576080820151600d5460608401516040805160e060020a6370a08231028152600160a060020a039283166004820152905161175d949392909216916370a08231916024808201926020929091908290030181600087803b15801561172557600080fd5b505af1158015611739573d6000803e3d6000fd5b505050506040513d602081101561174f57600080fd5b50519063ffffffff61331216565b611768565b81604001515b9050600081111561178c5760e082015161178990829063ffffffff61331216565b90505b9392505050565b60176020526000908152604090205481565b60008273__AOLibrary_____________________________632fca5414826040518263ffffffff1660e060020a0281526004018082600160a060020a0316600160a060020a0316815260200191505060206040518083038186803b15801561180c57600080fd5b505af4158015611820573d6000803e3d6000fd5b505050506040513d602081101561183657600080fd5b5051151561184357600080fd5b600654604080517f71ce52ed000000000000000000000000000000000000000000000000000000008152336004820152600160a060020a0380881660248301529151879392909216916371ce52ed916044808201926020929091908290030181600087803b1580156118b457600080fd5b505af11580156118c8573d6000803e3d6000fd5b505050506040513d60208110156118de57600080fd5b505115156118eb57600080fd5b6007546005546040805160e060020a63029b7d530281523360048201529051600160a060020a0393841693633ebc2ab393169163029b7d539160248083019260209291908290030181600087803b15801561194557600080fd5b505af1158015611959573d6000803e3d6000fd5b505050506040513d602081101561196f57600080fd5b50516040805160e060020a63ffffffff8516028152600160a060020a0390921660048301525160248083019260209291908290030181600087803b1580156119b657600080fd5b505af11580156119ca573d6000803e3d6000fd5b505050506040513d60208110156119e057600080fd5b5051156119ec57600080fd5b600160a060020a03858116600090815260146020526040902054161515611a1257600080fd5b600160a060020a038581166000818152601460209081526040808320600201805460ff19168a1515179055600c5481517ff5743c4c0000000000000000000000000000000000000000000000000000000081526004810195909552905194169363f5743c4c93602480820194918390030190829087803b158015611a9557600080fd5b505af1158015611aa9573d6000803e3d6000fd5b505050506040513d6020811015611abf57600080fd5b5051925060008311611ad057600080fd5b604080518515158152602081018590528151600160a060020a038816927ff5f6f496ff95818da72c68de653328ef258d57133b8c64064a809a21df3b2d15928290030190a25050505050565b600b54600160a060020a031681565b60166020526000908152604090205481565b600954600160a060020a031681565b600154600160a060020a031681565b60105481565b6000546001546040805160e260020a633d9abf2b028152336004820152600160a060020a0393841660248201529290911660448301525173__AOLibrary_____________________________9163f66afcac916064808301926020929190829003018186803b158015611bd357600080fd5b505af4158015611be7573d6000803e3d6000fd5b505050506040513d6020811015611bfd57600080fd5b50511515611c0a57600080fd5b600160a060020a0382161515611c1f57600080fd5b600160a060020a03919091166000908152600260205260409020805460ff1916911515919091179055565b601a6020526000908152604090205481565b6000546001546040805160e260020a633d9abf2b028152336004820152600160a060020a0393841660248201529290911660448301525173__AOLibrary_____________________________9163f66afcac916064808301926020929190829003018186803b158015611cce57600080fd5b505af4158015611ce2573d6000803e3d6000fd5b505050506040513d6020811015611cf857600080fd5b50511515611d0557600080fd5b600160a060020a0381161515611d1a57600080fd5b60018054600160a060020a03909216600160a060020a0319928316811790915560068054909216179055565b600160a060020a031660009081526018602052604090205490565b6000808473__AOLibrary_____________________________632fca5414826040518263ffffffff1660e060020a0281526004018082600160a060020a0316600160a060020a0316815260200191505060206040518083038186803b158015611dc957600080fd5b505af4158015611ddd573d6000803e3d6000fd5b505050506040513d6020811015611df357600080fd5b50511515611e0057600080fd5b600854600160a060020a03163314611e1757600080fd5b8415611e2a5760008411611e2a57600080fd5b600160a060020a038681166000908152601460205260409020541615611e4f57600080fd5b600160a060020a0386166000818152601460205260409020805460028201805460ff191660011790558715801560a060020a0274ff000000000000000000000000000000000000000019600160a060020a0319909316909417919091169290921781559250611ec057600182018490555b8154600183015460028401546040805160ff60a060020a86048116151582526020820194909452919092161515818301529051600160a060020a03909216917f2d333584a4195376719b161f274a701d7dbe5698253665deb3edc1c1e4b8c6bd9181900360600190a250600195945050505050565b6000546001546040805160e260020a633d9abf2b028152336004820152600160a060020a0393841660248201529290911660448301525173__AOLibrary_____________________________9163f66afcac916064808301926020929190829003018186803b158015611fa757600080fd5b505af4158015611fbb573d6000803e3d6000fd5b505050506040513d6020811015611fd157600080fd5b50511515611fde57600080fd5b600160a060020a0381161515611ff357600080fd5b60098054600160a060020a03909216600160a060020a03199283168117909155600d8054909216179055565b60115481565b6000546001546040805160e260020a633d9abf2b028152336004820152600160a060020a0393841660248201529290911660448301525173__AOLibrary_____________________________9163f66afcac916064808301926020929190829003018186803b15801561209757600080fd5b505af41580156120ab573d6000803e3d6000fd5b505050506040513d60208110156120c157600080fd5b505115156120ce57600080fd5b600160a060020a03811615156120e357600080fd5b60038054600160a060020a03909216600160a060020a0319928316811790915560058054909216179055565b600a54600160a060020a031681565b60135481565b60008173__AOLibrary_____________________________632fca5414826040518263ffffffff1660e060020a0281526004018082600160a060020a0316600160a060020a0316815260200191505060206040518083038186803b15801561218b57600080fd5b505af415801561219f573d6000803e3d6000fd5b505050506040513d60208110156121b557600080fd5b505115156121c257600080fd5b600160a060020a03831660009081526014602052604090206002015460ff161515600114156122c757600d546040805160e060020a6370a08231028152600160a060020a03868116600483015291516122c09392909216916370a08231916024808201926020929091908290030181600087803b15801561224257600080fd5b505af1158015612256573d6000803e3d6000fd5b505050506040513d602081101561226c57600080fd5b5051600e546040805160e060020a6370a08231028152600160a060020a038881166004830152915191909216916370a082319160248083019260209291908290030181600087803b15801561172557600080fd5b91506122cc565b600091505b50919050565b60026020526000908152604090205460ff1681565b601460205260009081526040902080546001820154600290920154600160a060020a0382169260ff60a060020a90930483169290911684565b600454600160a060020a031681565b600054600160a060020a031681565b600354600160a060020a031681565b60125481565b6015602052600090815260409020805460018201546002830154600384015460048501546005860154600687015460078801546008909801549697600160a060020a03968716979596909416949293919290919089565b6005546040805160e060020a63029b7d530281523360048201529051600092839283928392600160a060020a03169163029b7d5391602480830192602092919082900301818787803b1580156123ff57600080fd5b505af1158015612413573d6000803e3d6000fd5b505050506040513d602081101561242957600080fd5b5051600160a060020a0316141561243f57600080fd5b6007546005546040805160e060020a63029b7d530281523360048201529051600160a060020a0393841693633ebc2ab393169163029b7d539160248083019260209291908290030181600087803b15801561249957600080fd5b505af11580156124ad573d6000803e3d6000fd5b505050506040513d60208110156124c357600080fd5b50516040805160e060020a63ffffffff8516028152600160a060020a0390921660048301525160248083019260209291908290030181600087803b15801561250a57600080fd5b505af115801561251e573d6000803e3d6000fd5b505050506040513d602081101561253457600080fd5b50511561254057600080fd5b6000848152601560209081526040808320600554825160e060020a63029b7d530281523360048201529251919750600160a060020a03169363029b7d5393602480850194919392918390030190829087803b15801561259e57600080fd5b505af11580156125b2573d6000803e3d6000fd5b505050506040513d60208110156125c857600080fd5b50516001840154909250600160a060020a0380841691161480156125f0575060008360060154115b15156125fb57600080fd5b612604846114fb565b905060008111801561261a575082600601548111155b151561262557600080fd5b600783015461263a908263ffffffff6132ff16565b60078401556006830154612654908263ffffffff61331216565b600684015560135461266c908263ffffffff6132ff16565b6013556003830154600160a060020a031660009081526017602052604090205461269c908263ffffffff6132ff16565b6003840154600160a060020a03908116600090815260176020908152604080832094909455600f5484517f40c10f1900000000000000000000000000000000000000000000000000000000815287851660048201526024810187905294519316936340c10f199360448083019491928390030190829087803b15801561272157600080fd5b505af1158015612735573d6000803e3d6000fd5b505050506040513d602081101561274b57600080fd5b5051151561275857600080fd5b600383015483546001850154600686015460078701546040805187815260208101939093528281019190915251600160a060020a039485169492909216917fb0d51de1a22d42472f71d0eae171c27ae2e8fc84aaf70008c7a57857ae0a079d9181900360600190a450505050565b6000546001546040805160e260020a633d9abf2b028152336004820152600160a060020a0393841660248201529290911660448301525173__AOLibrary_____________________________9163f66afcac916064808301926020929190829003018186803b15801561283857600080fd5b505af415801561284c573d6000803e3d6000fd5b505050506040513d602081101561286257600080fd5b5051151561286f57600080fd5b600160a060020a038116151561288457600080fd5b60008054600160a060020a031916600160a060020a0392909216919091179055565b6128ae613324565b60008060008573__AOLibrary_____________________________632fca5414826040518263ffffffff1660e060020a0281526004018082600160a060020a0316600160a060020a0316815260200191505060206040518083038186803b15801561291857600080fd5b505af415801561292c573d6000803e3d6000fd5b505050506040513d602081101561294257600080fd5b5051151561294f57600080fd5b6005546040805160e060020a63029b7d530281523360048201529051600092600160a060020a03169163029b7d5391602480830192602092919082900301818787803b15801561299e57600080fd5b505af11580156129b2573d6000803e3d6000fd5b505050506040513d60208110156129c857600080fd5b5051600160a060020a031614156129de57600080fd5b6007546005546040805160e060020a63029b7d530281523360048201529051600160a060020a0393841693633ebc2ab393169163029b7d539160248083019260209291908290030181600087803b158015612a3857600080fd5b505af1158015612a4c573d6000803e3d6000fd5b505050506040513d6020811015612a6257600080fd5b50516040805160e060020a63ffffffff8516028152600160a060020a0390921660048301525160248083019260209291908290030181600087803b158015612aa957600080fd5b505af1158015612abd573d6000803e3d6000fd5b505050506040513d6020811015612ad357600080fd5b505115612adf57600080fd5b600160a060020a03808816600090815260146020908152604080832081516080810183528154808716825260ff60a060020a909104811615158286015260018301548285015260029092015490911615156060820152600554825160e060020a63029b7d530281523360048201529251919a509094169363029b7d5393602480840194938390030190829087803b158015612b7957600080fd5b505af1158015612b8d573d6000803e3d6000fd5b505050506040513d6020811015612ba357600080fd5b5051606086015190945015156001148015612bbe5750600086115b8015612c495750600e546040805160e060020a6370a08231028152600160a060020a0387811660048301529151899392909216916370a08231916024808201926020929091908290030181600087803b158015612c1a57600080fd5b505af1158015612c2e573d6000803e3d6000fd5b505050506040513d6020811015612c4457600080fd5b505110155b1515612c5457600080fd5b846020015115612cff57604080860151600e54825160e060020a6370a08231028152600160a060020a038b8116600483015293519293612cf4938b9391909116916370a082319160248083019260209291908290030181600087803b158015612cbc57600080fd5b505af1158015612cd0573d6000803e3d6000fd5b505050506040513d6020811015612ce657600080fd5b50519063ffffffff6132ff16565b1115612cff57600080fd5b6010805460019081018255600160a060020a0389166000908152601660209081526040918290208054909301909255915482516c010000000000000000000000003081028285015233026034820152604880820192909252835180820390920182526068019283905280519092918291908401908083835b60208310612d965780518252601f199092019160209182019101612d77565b6001836020036101000a03801982511681845116808217855250505050505090500191505060405180910390209250601560008460001916600019168152602001908152602001600020915082826000018160001916905550838260010160006101000a815481600160a060020a030219169083600160a060020a03160217905550858260020181905550868260030160006101000a815481600160a060020a030219169083600160a060020a03160217905550600e60009054906101000a9004600160a060020a0316600160a060020a03166370a08231886040518263ffffffff1660e060020a0281526004018082600160a060020a0316600160a060020a03168152602001915050602060405180830381600087803b158015612eba57600080fd5b505af1158015612ece573d6000803e3d6000fd5b505050506040513d6020811015612ee457600080fd5b5051600480840191909155600e546040805160e060020a6370a08231028152600160a060020a038b8116948201949094529051612f46938a9316916370a082319160248083019260209291908290030181600087803b158015612cbc57600080fd5b600583015560068201869055426008830155600160a060020a0384166000818152601860209081526040808320805460018101825590845282842001879055928252601990522054612f9e908763ffffffff6132ff16565b600160a060020a038516600090815260196020526040902055601154612fca908763ffffffff6132ff16565b601155600e54604080517f23b872dd000000000000000000000000000000000000000000000000000000008152600160a060020a0387811660048301528a81166024830152604482018a9052915191909216916323b872dd9160648083019260209291908290030181600087803b15801561304457600080fd5b505af1158015613058573d6000803e3d6000fd5b505050506040513d602081101561306e57600080fd5b5051151561307b57600080fd5b60018201548254600384015460028501546004860154600587015460068801546008890154604080519586526020860194909452848401929092526060840152608083015251600160a060020a039485169492909216917f649ebc3a713a736fd86489f7362fff3bb4099403c0f6de86bd7d409aeb9808389181900360a00190a450505050505050565b606080600080851015801561311a5750848410155b801561313d5750600160a060020a03861660009081526018602052604090205484105b151561314857600080fd5b613169600161315d868863ffffffff61331216565b9063ffffffff6132ff16565b604051908082528060200260200182016040528015613192578160200160208202803883390190505b5091508490505b8381116131fd57600160a060020a03861660009081526018602052604090208054829081106131c457fe5b600091825260209091200154826131e1838863ffffffff61331216565b815181106131eb57fe5b60209081029091010152600101613199565b50949350505050565b600854600160a060020a031681565b6000546001546040805160e260020a633d9abf2b028152336004820152600160a060020a0393841660248201529290911660448301525173__AOLibrary_____________________________9163f66afcac916064808301926020929190829003018186803b15801561328757600080fd5b505af415801561329b573d6000803e3d6000fd5b505050506040513d60208110156132b157600080fd5b505115156132be57600080fd5b600160a060020a03811615156132d357600080fd5b600b8054600160a060020a03909216600160a060020a03199283168117909155600f8054909216179055565b8181018281101561330c57fe5b92915050565b60008282111561331e57fe5b50900390565b60408051608081018252600080825260208201819052918101829052606081019190915290565b61012060405190810160405280600080191681526020016000600160a060020a03168152602001600081526020016000600160a060020a03168152602001600081526020016000815260200160008152602001600081526020016000815250905600a165627a7a723058203b5e8ff94d218f52d31d3b64faab651a7d0990ee0b9fd3fb9aa3230fabc8b64e0029",
	"source": "pragma solidity ^0.4.24;\n\nimport './SafeMath.sol';\nimport './TAOController.sol';\nimport './ITAOPool.sol';\nimport './ITAOFactory.sol';\nimport './TAOCurrency.sol';\nimport './Logos.sol';\nimport './TAO.sol';\n\n/**\n * @title TAOPool\n *\n * This contract acts as the bookkeeper of TAO Currencies that are staked on TAO\n */\ncontract TAOPool is TAOController, ITAOPool {\n\tusing SafeMath for uint256;\n\n\taddress public taoFactoryAddress;\n\taddress public pathosAddress;\n\taddress public ethosAddress;\n\taddress public logosAddress;\n\n\tITAOFactory internal _taoFactory;\n\tTAOCurrency internal _pathos;\n\tTAOCurrency internal _ethos;\n\tLogos internal _logos;\n\n\tstruct Pool {\n\t\taddress taoId;\n\t\t/**\n\t\t * If true, has ethos cap. Otherwise, no ethos cap.\n\t\t */\n\t\tbool ethosCapStatus;\n\t\tuint256 ethosCapAmount;\t// Creates a cap for the amount of Ethos that can be staked into this pool\n\n\t\t/**\n\t\t * If true, Pool is live and can be staked into.\n\t\t */\n\t\tbool status;\n\t}\n\n\tstruct Lot {\n\t\tbytes32 lotId;\t\t\t\t\t\t// The ID of this Lot\n\t\taddress nameId;\t\t\t\t\t\t// The ID of the Name that staked Ethos\n\t\tuint256 lotQuantity;\t\t\t\t// Amount of Ethos being staked to the Pool from this Lot\n\t\taddress taoId;\t\t\t\t\t\t// Identifier for the Pool this Lot is adding to\n\t\tuint256 poolPreStakeSnapshot;\t\t// Amount of Ethos contributed to the Pool prior to this Lot Number\n\t\tuint256 poolStakeLotSnapshot;\t\t// poolPreStakeSnapshot + lotQuantity - logosWithdrawn\n\t\tuint256 lotValueInLogos;\n\t\tuint256 logosWithdrawn;\t\t\t\t// Amount of Logos withdrawn from this Lot\n\t\tuint256 timestamp;\n\t}\n\n\tuint256 public contractTotalLot;\t\t// Total lot from all pools\n\tuint256 public contractTotalEthos;\t\t// Quantity of Ethos that has been staked to all Pools\n\tuint256 public contractTotalPathos;\t\t// Quantity of Pathos that has been staked to all Pools\n\tuint256 public contractTotalLogosWithdrawn;\t\t// Quantity of Logos that has been withdrawn from all Pools\n\n\t// Mapping from TAO ID to Pool\n\tmapping (address => Pool) public pools;\n\n\t// Mapping from Lot ID to Lot\n\tmapping (bytes32 => Lot) public lots;\n\n\t// Mapping from Pool's TAO ID to total Lots in the Pool\n\tmapping (address => uint256) public poolTotalLot;\n\n\t// Mapping from Pool's TAO ID to quantity of Logos that has been withdrawn from the Pool\n\tmapping (address => uint256) public poolTotalLogosWithdrawn;\n\n\t// Mapping from a Name ID to its Lots\n\tmapping (address => bytes32[]) internal ownerLots;\n\n\t// Mapping from a Name ID to quantity of Ethos staked from all lots\n\tmapping (address => uint256) public totalEthosStaked;\n\n\t// Mapping from a Name ID to quantity of Pathos staked from all lots\n\tmapping (address => uint256) public totalPathosStaked;\n\n\t// Event to be broadcasted to public when Pool is created\n\tevent CreatePool(address indexed taoId, bool ethosCapStatus, uint256 ethosCapAmount, bool status);\n\n\t// Event to be broadcasted to public when Pool's status is updated\n\t// If status == true, start Pool\n\t// Otherwise, stop Pool\n\tevent UpdatePoolStatus(address indexed taoId, bool status, uint256 nonce);\n\n\t// Event to be broadcasted to public when Pool's Ethos cap is updated\n\tevent UpdatePoolEthosCap(address indexed taoId, bool ethosCapStatus, uint256 ethosCapAmount, uint256 nonce);\n\n\t/**\n\t * Event to be broadcasted to public when nameId stakes Ethos\n\t */\n\tevent StakeEthos(address indexed taoId, bytes32 indexed lotId, address indexed nameId, uint256 lotQuantity, uint256 poolPreStakeSnapshot, uint256 poolStakeLotSnapshot, uint256 lotValueInLogos, uint256 timestamp);\n\n\t// Event to be broadcasted to public when nameId stakes Pathos\n\tevent StakePathos(address indexed taoId, address indexed nameId, uint256 stakeQuantity, uint256 currentPoolTotalStakedPathos);\n\n\t// Event to be broadcasted to public when nameId withdraws Logos from Lot\n\tevent WithdrawLogos(address indexed nameId, bytes32 indexed lotId, address indexed taoId, uint256 withdrawnAmount, uint256 currentLotValueInLogos, uint256 currentLotLogosWithdrawn);\n\n\t/**\n\t * @dev Constructor function\n\t */\n\tconstructor(address _nameFactoryAddress, address _taoFactoryAddress, address _nameTAOPositionAddress, address _pathosAddress, address _ethosAddress, address _logosAddress)\n\t\tTAOController(_nameFactoryAddress) public {\n\t\tsetTAOFactoryAddress(_taoFactoryAddress);\n\t\tsetNameTAOPositionAddress(_nameTAOPositionAddress);\n\t\tsetPathosAddress(_pathosAddress);\n\t\tsetEthosAddress(_ethosAddress);\n\t\tsetLogosAddress(_logosAddress);\n\t}\n\n\t/**\n\t * @dev Check if calling address is TAO Factory address\n\t */\n\tmodifier onlyTAOFactory {\n\t\trequire (msg.sender == taoFactoryAddress);\n\t\t_;\n\t}\n\n\t/***** The AO ONLY METHODS *****/\n\t/**\n\t * @dev The AO set the TAOFactory Address\n\t * @param _taoFactoryAddress The address of TAOFactory\n\t */\n\tfunction setTAOFactoryAddress(address _taoFactoryAddress) public onlyTheAO {\n\t\trequire (_taoFactoryAddress != address(0));\n\t\ttaoFactoryAddress = _taoFactoryAddress;\n\t\t_taoFactory = ITAOFactory(_taoFactoryAddress);\n\t}\n\n\t/**\n\t * @dev The AO set the Pathos Address\n\t * @param _pathosAddress The address of Pathos\n\t */\n\tfunction setPathosAddress(address _pathosAddress) public onlyTheAO {\n\t\trequire (_pathosAddress != address(0));\n\t\tpathosAddress = _pathosAddress;\n\t\t_pathos = TAOCurrency(_pathosAddress);\n\t}\n\n\t/**\n\t * @dev The AO set the Ethos Address\n\t * @param _ethosAddress The address of Ethos\n\t */\n\tfunction setEthosAddress(address _ethosAddress) public onlyTheAO {\n\t\trequire (_ethosAddress != address(0));\n\t\tethosAddress = _ethosAddress;\n\t\t_ethos = TAOCurrency(_ethosAddress);\n\t}\n\n\t/**\n\t * @dev The AO set the Logos Address\n\t * @param _logosAddress The address of Logos\n\t */\n\tfunction setLogosAddress(address _logosAddress) public onlyTheAO {\n\t\trequire (_logosAddress != address(0));\n\t\tlogosAddress = _logosAddress;\n\t\t_logos = Logos(_logosAddress);\n\t}\n\n\t/***** PUBLIC METHODS *****/\n\t/**\n\t * @dev Check whether or not Pool exist for a TAO ID\n\t * @param _id The ID to be checked\n\t * @return true if yes, false otherwise\n\t */\n\tfunction isExist(address _id) public view returns (bool) {\n\t\treturn pools[_id].taoId != address(0);\n\t}\n\n\t/**\n\t * @dev Create a pool for a TAO\n\t */\n\tfunction createPool(\n\t\taddress _taoId,\n\t\tbool _ethosCapStatus,\n\t\tuint256 _ethosCapAmount\n\t) external isTAO(_taoId) onlyTAOFactory returns (bool) {\n\t\t// Make sure ethos cap amount is provided if ethos cap is enabled\n\t\tif (_ethosCapStatus) {\n\t\t\trequire (_ethosCapAmount > 0);\n\t\t}\n\t\t// Make sure the pool is not yet created\n\t\trequire (pools[_taoId].taoId == address(0));\n\n\t\tPool storage _pool = pools[_taoId];\n\t\t_pool.taoId = _taoId;\n\t\t_pool.status = true;\n\t\t_pool.ethosCapStatus = _ethosCapStatus;\n\t\tif (_ethosCapStatus) {\n\t\t\t_pool.ethosCapAmount = _ethosCapAmount;\n\t\t}\n\n\t\temit CreatePool(_pool.taoId, _pool.ethosCapStatus, _pool.ethosCapAmount, _pool.status);\n\t\treturn true;\n\t}\n\n\t/**\n\t * @dev Start/Stop a Pool\n\t * @param _taoId The TAO ID of the Pool\n\t * @param _status The status to set. true = start. false = stop\n\t */\n\tfunction updatePoolStatus(address _taoId, bool _status) public isTAO(_taoId) onlyAdvocate(_taoId) senderNameNotCompromised {\n\t\trequire (pools[_taoId].taoId != address(0));\n\t\tpools[_taoId].status = _status;\n\n\t\tuint256 _nonce = _taoFactory.incrementNonce(_taoId);\n\t\trequire (_nonce > 0);\n\n\t\temit UpdatePoolStatus(_taoId, _status, _nonce);\n\t}\n\n\t/**\n\t * @dev Update Ethos cap of a Pool\n\t * @param _taoId The TAO ID of the Pool\n\t * @param _ethosCapStatus The ethos cap status to set\n\t * @param _ethosCapAmount The ethos cap amount to set\n\t */\n\tfunction updatePoolEthosCap(address _taoId, bool _ethosCapStatus, uint256 _ethosCapAmount) public isTAO(_taoId) onlyAdvocate(_taoId) senderNameNotCompromised {\n\t\trequire (pools[_taoId].taoId != address(0));\n\t\t// If there is an ethos cap\n\t\tif (_ethosCapStatus) {\n\t\t\trequire (_ethosCapAmount > 0 && _ethosCapAmount > _pathos.balanceOf(_taoId));\n\t\t}\n\n\t\tpools[_taoId].ethosCapStatus = _ethosCapStatus;\n\t\tif (_ethosCapStatus) {\n\t\t\tpools[_taoId].ethosCapAmount = _ethosCapAmount;\n\t\t}\n\n\t\tuint256 _nonce = _taoFactory.incrementNonce(_taoId);\n\t\trequire (_nonce > 0);\n\n\t\temit UpdatePoolEthosCap(_taoId, _ethosCapStatus, _ethosCapAmount, _nonce);\n\t}\n\n\t/**\n\t * @dev A Name stakes Ethos in Pool `_taoId`\n\t * @param _taoId The TAO ID of the Pool\n\t * @param _quantity The amount of Ethos to be staked\n\t */\n\tfunction stakeEthos(address _taoId, uint256 _quantity) public isTAO(_taoId) senderIsName senderNameNotCompromised {\n\t\tPool memory _pool = pools[_taoId];\n\t\taddress _nameId = _nameFactory.ethAddressToNameId(msg.sender);\n\t\trequire (_pool.status == true && _quantity > 0 && _ethos.balanceOf(_nameId) >= _quantity);\n\n\t\t// If there is an ethos cap\n\t\tif (_pool.ethosCapStatus) {\n\t\t\trequire (_ethos.balanceOf(_taoId).add(_quantity) <= _pool.ethosCapAmount);\n\t\t}\n\n\t\t// Create Lot for this transaction\n\t\tcontractTotalLot++;\n\t\tpoolTotalLot[_taoId]++;\n\n\t\t// Generate Lot ID\n\t\tbytes32 _lotId = keccak256(abi.encodePacked(this, msg.sender, contractTotalLot));\n\n\t\tLot storage _lot = lots[_lotId];\n\t\t_lot.lotId = _lotId;\n\t\t_lot.nameId = _nameId;\n\t\t_lot.lotQuantity = _quantity;\n\t\t_lot.taoId = _taoId;\n\t\t_lot.poolPreStakeSnapshot = _ethos.balanceOf(_taoId);\n\t\t_lot.poolStakeLotSnapshot = _ethos.balanceOf(_taoId).add(_quantity);\n\t\t_lot.lotValueInLogos = _quantity;\n\t\t_lot.timestamp = now;\n\n\t\townerLots[_nameId].push(_lotId);\n\n\t\t// Update contract variables\n\t\ttotalEthosStaked[_nameId] = totalEthosStaked[_nameId].add(_quantity);\n\t\tcontractTotalEthos = contractTotalEthos.add(_quantity);\n\n\t\trequire (_ethos.transferFrom(_nameId, _taoId, _quantity));\n\n\t\temit StakeEthos(_lot.taoId, _lot.lotId, _lot.nameId, _lot.lotQuantity, _lot.poolPreStakeSnapshot, _lot.poolStakeLotSnapshot, _lot.lotValueInLogos, _lot.timestamp);\n\t}\n\n\t/**\n\t * @dev Retrieve number of Lots a `_nameId` has\n\t * @param _nameId The Name ID of the Lot's owner\n\t * @return Total Lots the owner has\n\t */\n\tfunction ownerTotalLot(address _nameId) public view returns (uint256) {\n\t\treturn ownerLots[_nameId].length;\n\t}\n\n\t/**\n\t * @dev Get list of owner's Lot IDs from `_from` to `_to` index\n\t * @param _nameId The Name Id of the Lot's owner\n\t * @param _from The starting index, (i.e 0)\n\t * @param _to The ending index, (i.e total - 1)\n\t * @return list of owner's Lot IDs\n\t */\n\tfunction ownerLotIds(address _nameId, uint256 _from, uint256 _to) public view returns (bytes32[]) {\n\t\trequire (_from >= 0 && _to >= _from && ownerLots[_nameId].length > _to);\n\t\tbytes32[] memory _lotIds = new bytes32[](_to.sub(_from).add(1));\n\t\tfor (uint256 i = _from; i <= _to; i++) {\n\t\t\t_lotIds[i.sub(_from)] = ownerLots[_nameId][i];\n\t\t}\n\t\treturn _lotIds;\n\t}\n\n\t/**\n\t * @dev Return the amount of Pathos that can be staked on Pool\n\t * @param _taoId The TAO ID of the Pool\n\t * @return The amount of Pathos that can be staked\n\t */\n\tfunction availablePathosToStake(address _taoId) public isTAO(_taoId) view returns (uint256) {\n\t\tif (pools[_taoId].status == true) {\n\t\t\treturn _ethos.balanceOf(_taoId).sub(_pathos.balanceOf(_taoId));\n\t\t} else {\n\t\t\treturn 0;\n\t\t}\n\t}\n\n\t/**\n\t * @dev A Name stakes Pathos in Pool `_taoId`\n\t * @param _taoId The TAO ID of the Pool\n\t * @param _quantity The amount of Pathos to stake\n\t */\n\tfunction stakePathos(address _taoId, uint256 _quantity) public isTAO(_taoId) senderIsName senderNameNotCompromised {\n\t\tPool memory _pool = pools[_taoId];\n\t\taddress _nameId = _nameFactory.ethAddressToNameId(msg.sender);\n\t\trequire (_pool.status == true && _quantity > 0 && _pathos.balanceOf(_nameId) >= _quantity && _quantity <= availablePathosToStake(_taoId));\n\n\t\t// Update contract variables\n\t\ttotalPathosStaked[_nameId] = totalPathosStaked[_nameId].add(_quantity);\n\t\tcontractTotalPathos = contractTotalPathos.add(_quantity);\n\n\t\trequire (_pathos.transferFrom(_nameId, _taoId, _quantity));\n\n\t\t// Also add advocated TAO logos to Advocate of _taoId\n\t\trequire (_logos.addAdvocatedTAOLogos(_taoId, _quantity));\n\n\t\temit StakePathos(_taoId, _nameId, _quantity, _pathos.balanceOf(_taoId));\n\t}\n\n\t/**\n\t * @dev Name that staked Ethos withdraw Logos from Lot `_lotId`\n\t * @param _lotId The ID of the Lot\n\t */\n\tfunction withdrawLogos(bytes32 _lotId) public senderIsName senderNameNotCompromised {\n\t\tLot storage _lot = lots[_lotId];\n\t\taddress _nameId = _nameFactory.ethAddressToNameId(msg.sender);\n\t\trequire (_lot.nameId == _nameId && _lot.lotValueInLogos > 0);\n\n\t\tuint256 logosAvailableToWithdraw = lotLogosAvailableToWithdraw(_lotId);\n\n\t\trequire (logosAvailableToWithdraw > 0 && logosAvailableToWithdraw <= _lot.lotValueInLogos);\n\n\t\t// Update lot variables\n\t\t_lot.logosWithdrawn = _lot.logosWithdrawn.add(logosAvailableToWithdraw);\n\t\t_lot.lotValueInLogos = _lot.lotValueInLogos.sub(logosAvailableToWithdraw);\n\n\t\t// Update contract variables\n\t\tcontractTotalLogosWithdrawn = contractTotalLogosWithdrawn.add(logosAvailableToWithdraw);\n\t\tpoolTotalLogosWithdrawn[_lot.taoId] = poolTotalLogosWithdrawn[_lot.taoId].add(logosAvailableToWithdraw);\n\n\t\t// Mint logos to seller\n\t\trequire (_logos.mint(_nameId, logosAvailableToWithdraw));\n\n\t\temit WithdrawLogos(_lot.nameId, _lot.lotId, _lot.taoId, logosAvailableToWithdraw, _lot.lotValueInLogos, _lot.logosWithdrawn);\n\t}\n\n\t/**\n\t * @dev Name gets Lot `_lotId` available Logos to withdraw\n\t * @param _lotId The ID of the Lot\n\t * @return The amount of Logos available to withdraw\n\t */\n\tfunction lotLogosAvailableToWithdraw(bytes32 _lotId) public view returns (uint256) {\n\t\tLot memory _lot = lots[_lotId];\n\t\trequire (_lot.nameId != address(0));\n\n\t\tuint256 logosAvailableToWithdraw = 0;\n\n\t\tif (_pathos.balanceOf(_lot.taoId) > _lot.poolPreStakeSnapshot && _lot.lotValueInLogos > 0) {\n\t\t\tlogosAvailableToWithdraw = (_pathos.balanceOf(_lot.taoId) >= _lot.poolStakeLotSnapshot) ? _lot.lotQuantity : _pathos.balanceOf(_lot.taoId).sub(_lot.poolPreStakeSnapshot);\n\t\t\tif (logosAvailableToWithdraw > 0) {\n\t\t\t\tlogosAvailableToWithdraw = logosAvailableToWithdraw.sub(_lot.logosWithdrawn);\n\t\t\t}\n\t\t}\n\t\treturn logosAvailableToWithdraw;\n\t}\n}\n",
	"sourcePath": "/Users/johanmulyono/Work/AO/ao-contracts/contracts/TAOPool.sol",
	"compiler": {
		"name": "solc",
		"version": "0.4.24+commit.e67f0147.Emscripten.clang"
	},
	"schemaVersion": "2.0.1",
	"updatedAt": "2019-02-19T08:13:52.208Z"
}