{
	"contractName": "TAOPool",
	"abi": [
		{
			"constant": false,
			"inputs": [
				{
					"name": "_nameAccountRecoveryAddress",
					"type": "address"
				}
			],
			"name": "setNameAccountRecoveryAddress",
			"outputs": [],
			"payable": false,
			"stateMutability": "nonpayable",
			"type": "function"
		},
		{
			"constant": true,
			"inputs": [
				{
					"name": "",
					"type": "address"
				}
			],
			"name": "totalEthosStaked",
			"outputs": [
				{
					"name": "",
					"type": "uint256"
				}
			],
			"payable": false,
			"stateMutability": "view",
			"type": "function"
		},
		{
			"constant": true,
			"inputs": [
				{
					"name": "",
					"type": "address"
				}
			],
			"name": "poolTotalLogosWithdrawn",
			"outputs": [
				{
					"name": "",
					"type": "uint256"
				}
			],
			"payable": false,
			"stateMutability": "view",
			"type": "function"
		},
		{
			"constant": true,
			"inputs": [],
			"name": "logosAddress",
			"outputs": [
				{
					"name": "",
					"type": "address"
				}
			],
			"payable": false,
			"stateMutability": "view",
			"type": "function"
		},
		{
			"constant": true,
			"inputs": [
				{
					"name": "",
					"type": "address"
				}
			],
			"name": "poolTotalLot",
			"outputs": [
				{
					"name": "",
					"type": "uint256"
				}
			],
			"payable": false,
			"stateMutability": "view",
			"type": "function"
		},
		{
			"constant": true,
			"inputs": [],
			"name": "pathosAddress",
			"outputs": [
				{
					"name": "",
					"type": "address"
				}
			],
			"payable": false,
			"stateMutability": "view",
			"type": "function"
		},
		{
			"constant": true,
			"inputs": [
				{
					"name": "",
					"type": "address"
				}
			],
			"name": "totalLogosWithdrawn",
			"outputs": [
				{
					"name": "",
					"type": "uint256"
				}
			],
			"payable": false,
			"stateMutability": "view",
			"type": "function"
		},
		{
			"constant": true,
			"inputs": [],
			"name": "nameTAOPositionAddress",
			"outputs": [
				{
					"name": "",
					"type": "address"
				}
			],
			"payable": false,
			"stateMutability": "view",
			"type": "function"
		},
		{
			"constant": true,
			"inputs": [],
			"name": "contractTotalLot",
			"outputs": [
				{
					"name": "",
					"type": "uint256"
				}
			],
			"payable": false,
			"stateMutability": "view",
			"type": "function"
		},
		{
			"constant": false,
			"inputs": [
				{
					"name": "_account",
					"type": "address"
				},
				{
					"name": "_whitelist",
					"type": "bool"
				}
			],
			"name": "setWhitelist",
			"outputs": [],
			"payable": false,
			"stateMutability": "nonpayable",
			"type": "function"
		},
		{
			"constant": true,
			"inputs": [
				{
					"name": "",
					"type": "address"
				}
			],
			"name": "totalPathosStaked",
			"outputs": [
				{
					"name": "",
					"type": "uint256"
				}
			],
			"payable": false,
			"stateMutability": "view",
			"type": "function"
		},
		{
			"constant": false,
			"inputs": [
				{
					"name": "_nameTAOPositionAddress",
					"type": "address"
				}
			],
			"name": "setNameTAOPositionAddress",
			"outputs": [],
			"payable": false,
			"stateMutability": "nonpayable",
			"type": "function"
		},
		{
			"constant": true,
			"inputs": [
				{
					"name": "",
					"type": "address"
				},
				{
					"name": "",
					"type": "address"
				}
			],
			"name": "namePoolPathosStaked",
			"outputs": [
				{
					"name": "",
					"type": "uint256"
				}
			],
			"payable": false,
			"stateMutability": "view",
			"type": "function"
		},
		{
			"constant": true,
			"inputs": [],
			"name": "contractTotalEthos",
			"outputs": [
				{
					"name": "",
					"type": "uint256"
				}
			],
			"payable": false,
			"stateMutability": "view",
			"type": "function"
		},
		{
			"constant": false,
			"inputs": [
				{
					"name": "_nameFactoryAddress",
					"type": "address"
				}
			],
			"name": "setNameFactoryAddress",
			"outputs": [],
			"payable": false,
			"stateMutability": "nonpayable",
			"type": "function"
		},
		{
			"constant": true,
			"inputs": [],
			"name": "ethosAddress",
			"outputs": [
				{
					"name": "",
					"type": "address"
				}
			],
			"payable": false,
			"stateMutability": "view",
			"type": "function"
		},
		{
			"constant": true,
			"inputs": [
				{
					"name": "",
					"type": "address"
				},
				{
					"name": "",
					"type": "address"
				}
			],
			"name": "namePoolLogosWithdrawn",
			"outputs": [
				{
					"name": "",
					"type": "uint256"
				}
			],
			"payable": false,
			"stateMutability": "view",
			"type": "function"
		},
		{
			"constant": true,
			"inputs": [],
			"name": "contractTotalLogosWithdrawn",
			"outputs": [
				{
					"name": "",
					"type": "uint256"
				}
			],
			"payable": false,
			"stateMutability": "view",
			"type": "function"
		},
		{
			"constant": true,
			"inputs": [
				{
					"name": "",
					"type": "address"
				}
			],
			"name": "whitelist",
			"outputs": [
				{
					"name": "",
					"type": "bool"
				}
			],
			"payable": false,
			"stateMutability": "view",
			"type": "function"
		},
		{
			"constant": true,
			"inputs": [
				{
					"name": "",
					"type": "address"
				}
			],
			"name": "pools",
			"outputs": [
				{
					"name": "taoId",
					"type": "address"
				},
				{
					"name": "ethosCapStatus",
					"type": "bool"
				},
				{
					"name": "ethosCapAmount",
					"type": "uint256"
				},
				{
					"name": "status",
					"type": "bool"
				}
			],
			"payable": false,
			"stateMutability": "view",
			"type": "function"
		},
		{
			"constant": true,
			"inputs": [],
			"name": "nameAccountRecoveryAddress",
			"outputs": [
				{
					"name": "",
					"type": "address"
				}
			],
			"payable": false,
			"stateMutability": "view",
			"type": "function"
		},
		{
			"constant": true,
			"inputs": [],
			"name": "theAO",
			"outputs": [
				{
					"name": "",
					"type": "address"
				}
			],
			"payable": false,
			"stateMutability": "view",
			"type": "function"
		},
		{
			"constant": true,
			"inputs": [
				{
					"name": "",
					"type": "address"
				},
				{
					"name": "",
					"type": "address"
				}
			],
			"name": "namePoolEthosStaked",
			"outputs": [
				{
					"name": "",
					"type": "uint256"
				}
			],
			"payable": false,
			"stateMutability": "view",
			"type": "function"
		},
		{
			"constant": true,
			"inputs": [],
			"name": "nameFactoryAddress",
			"outputs": [
				{
					"name": "",
					"type": "address"
				}
			],
			"payable": false,
			"stateMutability": "view",
			"type": "function"
		},
		{
			"constant": true,
			"inputs": [],
			"name": "contractTotalPathos",
			"outputs": [
				{
					"name": "",
					"type": "uint256"
				}
			],
			"payable": false,
			"stateMutability": "view",
			"type": "function"
		},
		{
			"constant": true,
			"inputs": [
				{
					"name": "",
					"type": "bytes32"
				}
			],
			"name": "lots",
			"outputs": [
				{
					"name": "lotId",
					"type": "bytes32"
				},
				{
					"name": "nameId",
					"type": "address"
				},
				{
					"name": "lotQuantity",
					"type": "uint256"
				},
				{
					"name": "taoId",
					"type": "address"
				},
				{
					"name": "poolPreStakeSnapshot",
					"type": "uint256"
				},
				{
					"name": "poolStakeLotSnapshot",
					"type": "uint256"
				},
				{
					"name": "lotValueInLogos",
					"type": "uint256"
				},
				{
					"name": "logosWithdrawn",
					"type": "uint256"
				},
				{
					"name": "timestamp",
					"type": "uint256"
				}
			],
			"payable": false,
			"stateMutability": "view",
			"type": "function"
		},
		{
			"constant": false,
			"inputs": [
				{
					"name": "_theAO",
					"type": "address"
				}
			],
			"name": "transferOwnership",
			"outputs": [],
			"payable": false,
			"stateMutability": "nonpayable",
			"type": "function"
		},
		{
			"constant": true,
			"inputs": [],
			"name": "taoFactoryAddress",
			"outputs": [
				{
					"name": "",
					"type": "address"
				}
			],
			"payable": false,
			"stateMutability": "view",
			"type": "function"
		},
		{
			"inputs": [
				{
					"name": "_nameFactoryAddress",
					"type": "address"
				},
				{
					"name": "_taoFactoryAddress",
					"type": "address"
				},
				{
					"name": "_nameTAOPositionAddress",
					"type": "address"
				},
				{
					"name": "_pathosAddress",
					"type": "address"
				},
				{
					"name": "_ethosAddress",
					"type": "address"
				},
				{
					"name": "_logosAddress",
					"type": "address"
				}
			],
			"payable": false,
			"stateMutability": "nonpayable",
			"type": "constructor"
		},
		{
			"anonymous": false,
			"inputs": [
				{
					"indexed": true,
					"name": "taoId",
					"type": "address"
				},
				{
					"indexed": false,
					"name": "ethosCapStatus",
					"type": "bool"
				},
				{
					"indexed": false,
					"name": "ethosCapAmount",
					"type": "uint256"
				},
				{
					"indexed": false,
					"name": "status",
					"type": "bool"
				}
			],
			"name": "CreatePool",
			"type": "event"
		},
		{
			"anonymous": false,
			"inputs": [
				{
					"indexed": true,
					"name": "taoId",
					"type": "address"
				},
				{
					"indexed": false,
					"name": "status",
					"type": "bool"
				},
				{
					"indexed": false,
					"name": "nonce",
					"type": "uint256"
				}
			],
			"name": "UpdatePoolStatus",
			"type": "event"
		},
		{
			"anonymous": false,
			"inputs": [
				{
					"indexed": true,
					"name": "taoId",
					"type": "address"
				},
				{
					"indexed": false,
					"name": "ethosCapStatus",
					"type": "bool"
				},
				{
					"indexed": false,
					"name": "ethosCapAmount",
					"type": "uint256"
				},
				{
					"indexed": false,
					"name": "nonce",
					"type": "uint256"
				}
			],
			"name": "UpdatePoolEthosCap",
			"type": "event"
		},
		{
			"anonymous": false,
			"inputs": [
				{
					"indexed": true,
					"name": "taoId",
					"type": "address"
				},
				{
					"indexed": true,
					"name": "lotId",
					"type": "bytes32"
				},
				{
					"indexed": true,
					"name": "nameId",
					"type": "address"
				},
				{
					"indexed": false,
					"name": "lotQuantity",
					"type": "uint256"
				},
				{
					"indexed": false,
					"name": "poolPreStakeSnapshot",
					"type": "uint256"
				},
				{
					"indexed": false,
					"name": "poolStakeLotSnapshot",
					"type": "uint256"
				},
				{
					"indexed": false,
					"name": "lotValueInLogos",
					"type": "uint256"
				},
				{
					"indexed": false,
					"name": "timestamp",
					"type": "uint256"
				}
			],
			"name": "StakeEthos",
			"type": "event"
		},
		{
			"anonymous": false,
			"inputs": [
				{
					"indexed": true,
					"name": "taoId",
					"type": "address"
				},
				{
					"indexed": true,
					"name": "nameId",
					"type": "address"
				},
				{
					"indexed": false,
					"name": "stakeQuantity",
					"type": "uint256"
				},
				{
					"indexed": false,
					"name": "currentPoolTotalStakedPathos",
					"type": "uint256"
				}
			],
			"name": "StakePathos",
			"type": "event"
		},
		{
			"anonymous": false,
			"inputs": [
				{
					"indexed": true,
					"name": "nameId",
					"type": "address"
				},
				{
					"indexed": true,
					"name": "lotId",
					"type": "bytes32"
				},
				{
					"indexed": true,
					"name": "taoId",
					"type": "address"
				},
				{
					"indexed": false,
					"name": "withdrawnAmount",
					"type": "uint256"
				},
				{
					"indexed": false,
					"name": "currentLotValueInLogos",
					"type": "uint256"
				},
				{
					"indexed": false,
					"name": "currentLotLogosWithdrawn",
					"type": "uint256"
				}
			],
			"name": "WithdrawLogos",
			"type": "event"
		},
		{
			"constant": false,
			"inputs": [
				{
					"name": "_taoFactoryAddress",
					"type": "address"
				}
			],
			"name": "setTAOFactoryAddress",
			"outputs": [],
			"payable": false,
			"stateMutability": "nonpayable",
			"type": "function"
		},
		{
			"constant": false,
			"inputs": [
				{
					"name": "_pathosAddress",
					"type": "address"
				}
			],
			"name": "setPathosAddress",
			"outputs": [],
			"payable": false,
			"stateMutability": "nonpayable",
			"type": "function"
		},
		{
			"constant": false,
			"inputs": [
				{
					"name": "_ethosAddress",
					"type": "address"
				}
			],
			"name": "setEthosAddress",
			"outputs": [],
			"payable": false,
			"stateMutability": "nonpayable",
			"type": "function"
		},
		{
			"constant": false,
			"inputs": [
				{
					"name": "_logosAddress",
					"type": "address"
				}
			],
			"name": "setLogosAddress",
			"outputs": [],
			"payable": false,
			"stateMutability": "nonpayable",
			"type": "function"
		},
		{
			"constant": true,
			"inputs": [
				{
					"name": "_id",
					"type": "address"
				}
			],
			"name": "isExist",
			"outputs": [
				{
					"name": "",
					"type": "bool"
				}
			],
			"payable": false,
			"stateMutability": "view",
			"type": "function"
		},
		{
			"constant": false,
			"inputs": [
				{
					"name": "_taoId",
					"type": "address"
				},
				{
					"name": "_ethosCapStatus",
					"type": "bool"
				},
				{
					"name": "_ethosCapAmount",
					"type": "uint256"
				}
			],
			"name": "createPool",
			"outputs": [
				{
					"name": "",
					"type": "bool"
				}
			],
			"payable": false,
			"stateMutability": "nonpayable",
			"type": "function"
		},
		{
			"constant": false,
			"inputs": [
				{
					"name": "_taoId",
					"type": "address"
				},
				{
					"name": "_status",
					"type": "bool"
				}
			],
			"name": "updatePoolStatus",
			"outputs": [],
			"payable": false,
			"stateMutability": "nonpayable",
			"type": "function"
		},
		{
			"constant": false,
			"inputs": [
				{
					"name": "_taoId",
					"type": "address"
				},
				{
					"name": "_ethosCapStatus",
					"type": "bool"
				},
				{
					"name": "_ethosCapAmount",
					"type": "uint256"
				}
			],
			"name": "updatePoolEthosCap",
			"outputs": [],
			"payable": false,
			"stateMutability": "nonpayable",
			"type": "function"
		},
		{
			"constant": false,
			"inputs": [
				{
					"name": "_taoId",
					"type": "address"
				},
				{
					"name": "_quantity",
					"type": "uint256"
				}
			],
			"name": "stakeEthos",
			"outputs": [],
			"payable": false,
			"stateMutability": "nonpayable",
			"type": "function"
		},
		{
			"constant": true,
			"inputs": [
				{
					"name": "_nameId",
					"type": "address"
				}
			],
			"name": "ownerTotalLot",
			"outputs": [
				{
					"name": "",
					"type": "uint256"
				}
			],
			"payable": false,
			"stateMutability": "view",
			"type": "function"
		},
		{
			"constant": true,
			"inputs": [
				{
					"name": "_nameId",
					"type": "address"
				},
				{
					"name": "_from",
					"type": "uint256"
				},
				{
					"name": "_to",
					"type": "uint256"
				}
			],
			"name": "ownerLotIds",
			"outputs": [
				{
					"name": "",
					"type": "bytes32[]"
				}
			],
			"payable": false,
			"stateMutability": "view",
			"type": "function"
		},
		{
			"constant": true,
			"inputs": [
				{
					"name": "_taoId",
					"type": "address"
				}
			],
			"name": "availablePathosToStake",
			"outputs": [
				{
					"name": "",
					"type": "uint256"
				}
			],
			"payable": false,
			"stateMutability": "view",
			"type": "function"
		},
		{
			"constant": false,
			"inputs": [
				{
					"name": "_taoId",
					"type": "address"
				},
				{
					"name": "_quantity",
					"type": "uint256"
				}
			],
			"name": "stakePathos",
			"outputs": [],
			"payable": false,
			"stateMutability": "nonpayable",
			"type": "function"
		},
		{
			"constant": false,
			"inputs": [
				{
					"name": "_lotId",
					"type": "bytes32"
				}
			],
			"name": "withdrawLogos",
			"outputs": [],
			"payable": false,
			"stateMutability": "nonpayable",
			"type": "function"
		},
		{
			"constant": true,
			"inputs": [
				{
					"name": "_lotId",
					"type": "bytes32"
				}
			],
			"name": "lotLogosAvailableToWithdraw",
			"outputs": [
				{
					"name": "",
					"type": "uint256"
				}
			],
			"payable": false,
			"stateMutability": "view",
			"type": "function"
		}
	],
	"bytecode": "0x60806040523480156200001157600080fd5b5060405160c08062003d5483398101604090815281516020830151918301516060840151608085015160a09095015160008054600160a060020a0319163317905592949192909190856200006e81640100000000620000df810204565b506200008385640100000000620001e4810204565b6200009784640100000000620002e9810204565b620000ab83640100000000620003ee810204565b620000bf82640100000000620004f3810204565b620000d381640100000000620005f8810204565b505050505050620006fd565b600054600154604080517ff66afcac000000000000000000000000000000000000000000000000000000008152336004820152600160a060020a0393841660248201529290911660448301525173__AOLibrary_____________________________9163f66afcac916064808301926020929190829003018186803b1580156200016857600080fd5b505af41580156200017d573d6000803e3d6000fd5b505050506040513d60208110156200019457600080fd5b50511515620001a257600080fd5b600160a060020a0381161515620001b857600080fd5b60038054600160a060020a03909216600160a060020a0319928316811790915560058054909216179055565b600054600154604080517ff66afcac000000000000000000000000000000000000000000000000000000008152336004820152600160a060020a0393841660248201529290911660448301525173__AOLibrary_____________________________9163f66afcac916064808301926020929190829003018186803b1580156200026d57600080fd5b505af415801562000282573d6000803e3d6000fd5b505050506040513d60208110156200029957600080fd5b50511515620002a757600080fd5b600160a060020a0381161515620002bd57600080fd5b60088054600160a060020a03909216600160a060020a03199283168117909155600c8054909216179055565b600054600154604080517ff66afcac000000000000000000000000000000000000000000000000000000008152336004820152600160a060020a0393841660248201529290911660448301525173__AOLibrary_____________________________9163f66afcac916064808301926020929190829003018186803b1580156200037257600080fd5b505af415801562000387573d6000803e3d6000fd5b505050506040513d60208110156200039e57600080fd5b50511515620003ac57600080fd5b600160a060020a0381161515620003c257600080fd5b60018054600160a060020a03909216600160a060020a0319928316811790915560068054909216179055565b600054600154604080517ff66afcac000000000000000000000000000000000000000000000000000000008152336004820152600160a060020a0393841660248201529290911660448301525173__AOLibrary_____________________________9163f66afcac916064808301926020929190829003018186803b1580156200047757600080fd5b505af41580156200048c573d6000803e3d6000fd5b505050506040513d6020811015620004a357600080fd5b50511515620004b157600080fd5b600160a060020a0381161515620004c757600080fd5b60098054600160a060020a03909216600160a060020a03199283168117909155600d8054909216179055565b600054600154604080517ff66afcac000000000000000000000000000000000000000000000000000000008152336004820152600160a060020a0393841660248201529290911660448301525173__AOLibrary_____________________________9163f66afcac916064808301926020929190829003018186803b1580156200057c57600080fd5b505af415801562000591573d6000803e3d6000fd5b505050506040513d6020811015620005a857600080fd5b50511515620005b657600080fd5b600160a060020a0381161515620005cc57600080fd5b600a8054600160a060020a03909216600160a060020a03199283168117909155600e8054909216179055565b600054600154604080517ff66afcac000000000000000000000000000000000000000000000000000000008152336004820152600160a060020a0393841660248201529290911660448301525173__AOLibrary_____________________________9163f66afcac916064808301926020929190829003018186803b1580156200068157600080fd5b505af415801562000696573d6000803e3d6000fd5b505050506040513d6020811015620006ad57600080fd5b50511515620006bb57600080fd5b600160a060020a0381161515620006d157600080fd5b600b8054600160a060020a03909216600160a060020a03199283168117909155600f8054909216179055565b613647806200070d6000396000f3006080604052600436106101f45763ffffffff60e060020a60003504166213eb4b81146101f95780631add5b981461022e5780631dfde2bd146102515780632191207a1461027257806324d723171461029357806328d313b5146102b75780632f4f6bc4146102ea5780632fbb769514610313578063322326361461032b57806334172c9e1461034c57806338da7de7146103725780633a10617d146103a35780634486ab0a146103c457806349c82bc4146103d95780634ef033f0146103fa57806350159a9e1461040f57806353d6fd59146104245780635baf6a471461044a5780635cfaf2ef1461046b5780635d813eb41461048c5780635f7f0ad8146104ad578063698b7764146104d4578063793c8228146104fd5780638bce77f31461051e5780638c924361146105335780639093a79014610554578063917f84e21461056957806395c13f0a1461059057806398334461146105a55780639b19251a146105c6578063a4063dbc146105e7578063a4e5fad21461063a578063a9b6b38e1461064f578063b2e6b2fc14610664578063bc4062061461068b578063c6185ae1146106a0578063de4796cd146106b5578063e3fcd93014610723578063f2fde38b1461073b578063f68d8f5a1461075c578063f838955a14610780578063ff0374b5146107f7578063ff3781c61461080c575b600080fd5b34801561020557600080fd5b5061021a600160a060020a036004351661082d565b604080519115158252519081900360200190f35b34801561023a57600080fd5b5061024f600160a060020a036004351661084d565b005b34801561025d57600080fd5b5061024f600160a060020a0360043516610937565b34801561027e57600080fd5b5061024f600160a060020a0360043516610a24565b34801561029f57600080fd5b5061024f600160a060020a0360043516602435610b0e565b3480156102c357600080fd5b506102d8600160a060020a036004351661118f565b60408051918252519081900360200190f35b3480156102f657600080fd5b5061024f600160a060020a036004351660243515156044356111a1565b34801561031f57600080fd5b506102d860043561160c565b34801561033757600080fd5b506102d8600160a060020a03600435166118a4565b34801561035857600080fd5b5061024f600160a060020a036004351660243515156118b6565b34801561037e57600080fd5b50610387611c2d565b60408051600160a060020a039092168252519081900360200190f35b3480156103af57600080fd5b506102d8600160a060020a0360043516611c3c565b3480156103d057600080fd5b50610387611c4e565b3480156103e557600080fd5b506102d8600160a060020a0360043516611c5d565b34801561040657600080fd5b50610387611c6f565b34801561041b57600080fd5b506102d8611c7e565b34801561043057600080fd5b5061024f600160a060020a03600435166024351515611c84565b34801561045657600080fd5b506102d8600160a060020a0360043516611d6d565b34801561047757600080fd5b5061024f600160a060020a0360043516611d7f565b34801561049857600080fd5b506102d8600160a060020a0360043516611e69565b3480156104b957600080fd5b506102d8600160a060020a0360043581169060243516611e84565b3480156104e057600080fd5b5061021a600160a060020a03600435166024351515604435611ea1565b34801561050957600080fd5b5061024f600160a060020a0360043516612075565b34801561052a57600080fd5b506102d861215f565b34801561053f57600080fd5b5061024f600160a060020a0360043516612165565b34801561056057600080fd5b5061038761224f565b34801561057557600080fd5b506102d8600160a060020a036004358116906024351661225e565b34801561059c57600080fd5b506102d861227b565b3480156105b157600080fd5b506102d8600160a060020a0360043516612281565b3480156105d257600080fd5b5061021a600160a060020a036004351661242f565b3480156105f357600080fd5b50610608600160a060020a0360043516612444565b60408051600160a060020a03909516855292151560208501528383019190915215156060830152519081900360800190f35b34801561064657600080fd5b5061038761247d565b34801561065b57600080fd5b5061038761248c565b34801561067057600080fd5b506102d8600160a060020a036004358116906024351661249b565b34801561069757600080fd5b506103876124b8565b3480156106ac57600080fd5b506102d86124c7565b3480156106c157600080fd5b506106cd6004356124cd565b60408051998a52600160a060020a0398891660208b015289810197909752949096166060880152608087019290925260a086015260c085015260e084019290925261010083019190915251908190036101200190f35b34801561072f57600080fd5b5061024f600435612524565b34801561074757600080fd5b5061024f600160a060020a03600435166129e5565b34801561076857600080fd5b5061024f600160a060020a0360043516602435612ac5565b34801561078c57600080fd5b506107a7600160a060020a0360043516602435604435613373565b60408051602080825283518183015283519192839290830191858101910280838360005b838110156107e35781810151838201526020016107cb565b505050509050019250505060405180910390f35b34801561080357600080fd5b50610387613474565b34801561081857600080fd5b5061024f600160a060020a0360043516613483565b600160a060020a0390811660009081526014602052604090205416151590565b6000546001546040805160e260020a633d9abf2b028152336004820152600160a060020a0393841660248201529290911660448301525173__AOLibrary_____________________________9163f66afcac916064808301926020929190829003018186803b1580156108bf57600080fd5b505af41580156108d3573d6000803e3d6000fd5b505050506040513d60208110156108e957600080fd5b505115156108f657600080fd5b600160a060020a038116151561090b57600080fd5b600a8054600160a060020a03909216600160a060020a03199283168117909155600e8054909216179055565b6000546001546040805160e260020a633d9abf2b028152336004820152600160a060020a0393841660248201529290911660448301525173__AOLibrary_____________________________9163f66afcac916064808301926020929190829003018186803b1580156109a957600080fd5b505af41580156109bd573d6000803e3d6000fd5b505050506040513d60208110156109d357600080fd5b505115156109e057600080fd5b600160a060020a03811615156109f557600080fd5b60048054600160a060020a0319908116600160a060020a03938416179182905560078054929093169116179055565b6000546001546040805160e260020a633d9abf2b028152336004820152600160a060020a0393841660248201529290911660448301525173__AOLibrary_____________________________9163f66afcac916064808301926020929190829003018186803b158015610a9657600080fd5b505af4158015610aaa573d6000803e3d6000fd5b505050506040513d6020811015610ac057600080fd5b50511515610acd57600080fd5b600160a060020a0381161515610ae257600080fd5b60088054600160a060020a03909216600160a060020a03199283168117909155600c8054909216179055565b610b16613592565b60008373__AOLibrary_____________________________632fca5414826040518263ffffffff1660e060020a0281526004018082600160a060020a0316600160a060020a0316815260200191505060206040518083038186803b158015610b7d57600080fd5b505af4158015610b91573d6000803e3d6000fd5b505050506040513d6020811015610ba757600080fd5b50511515610bb457600080fd5b6005546040805160e060020a63029b7d530281523360048201529051600092600160a060020a03169163029b7d5391602480830192602092919082900301818787803b158015610c0357600080fd5b505af1158015610c17573d6000803e3d6000fd5b505050506040513d6020811015610c2d57600080fd5b5051600160a060020a03161415610c4357600080fd5b6007546005546040805160e060020a63029b7d530281523360048201529051600160a060020a0393841693633ebc2ab393169163029b7d539160248083019260209291908290030181600087803b158015610c9d57600080fd5b505af1158015610cb1573d6000803e3d6000fd5b505050506040513d6020811015610cc757600080fd5b50516040805160e060020a63ffffffff8516028152600160a060020a0390921660048301525160248083019260209291908290030181600087803b158015610d0e57600080fd5b505af1158015610d22573d6000803e3d6000fd5b505050506040513d6020811015610d3857600080fd5b505115610d4457600080fd5b600160a060020a03808616600090815260146020908152604080832081516080810183528154808716825260ff60a060020a909104811615158286015260018301548285015260029092015490911615156060820152600554825160e060020a63029b7d5302815233600482015292519198509094169363029b7d5393602480840194938390030190829087803b158015610dde57600080fd5b505af1158015610df2573d6000803e3d6000fd5b505050506040513d6020811015610e0857600080fd5b5051606084015190925015156001148015610e235750600084115b8015610eae5750600d546040805160e060020a6370a08231028152600160a060020a0385811660048301529151879392909216916370a08231916024808201926020929091908290030181600087803b158015610e7f57600080fd5b505af1158015610e93573d6000803e3d6000fd5b505050506040513d6020811015610ea957600080fd5b505110155b8015610ec25750610ebe85612281565b8411155b1515610ecd57600080fd5b600160a060020a0382166000908152601a6020526040902054610ef6908563ffffffff61356d16565b600160a060020a038084166000908152601a6020908152604080832094909455601d81528382209289168252919091522054610f38908563ffffffff61356d16565b600160a060020a038084166000908152601d60209081526040808320938a1683529290522055601254610f71908563ffffffff61356d16565b601255600d54604080517f23b872dd000000000000000000000000000000000000000000000000000000008152600160a060020a038581166004830152888116602483015260448201889052915191909216916323b872dd9160648083019260209291908290030181600087803b158015610feb57600080fd5b505af1158015610fff573d6000803e3d6000fd5b505050506040513d602081101561101557600080fd5b5051151561102257600080fd5b600f54604080517f97fe5ea3000000000000000000000000000000000000000000000000000000008152600160a060020a03888116600483015260248201889052915191909216916397fe5ea39160448083019260209291908290030181600087803b15801561109157600080fd5b505af11580156110a5573d6000803e3d6000fd5b505050506040513d60208110156110bb57600080fd5b505115156110c857600080fd5b600d546040805160e060020a6370a08231028152600160a060020a03888116600483018190529251868216947fad55db0d41c96097ea516af16ed6458bb2b54fdf95347b6108c0822c0442b1ba938a93909116916370a08231916024808201926020929091908290030181600087803b15801561114457600080fd5b505af1158015611158573d6000803e3d6000fd5b505050506040513d602081101561116e57600080fd5b50516040805192835260208301919091528051918290030190a35050505050565b60196020526000908152604090205481565b60008373__AOLibrary_____________________________632fca5414826040518263ffffffff1660e060020a0281526004018082600160a060020a0316600160a060020a0316815260200191505060206040518083038186803b15801561120857600080fd5b505af415801561121c573d6000803e3d6000fd5b505050506040513d602081101561123257600080fd5b5051151561123f57600080fd5b600654604080517f71ce52ed000000000000000000000000000000000000000000000000000000008152336004820152600160a060020a0380891660248301529151889392909216916371ce52ed916044808201926020929091908290030181600087803b1580156112b057600080fd5b505af11580156112c4573d6000803e3d6000fd5b505050506040513d60208110156112da57600080fd5b505115156112e757600080fd5b6007546005546040805160e060020a63029b7d530281523360048201529051600160a060020a0393841693633ebc2ab393169163029b7d539160248083019260209291908290030181600087803b15801561134157600080fd5b505af1158015611355573d6000803e3d6000fd5b505050506040513d602081101561136b57600080fd5b50516040805160e060020a63ffffffff8516028152600160a060020a0390921660048301525160248083019260209291908290030181600087803b1580156113b257600080fd5b505af11580156113c6573d6000803e3d6000fd5b505050506040513d60208110156113dc57600080fd5b5051156113e857600080fd5b600160a060020a0386811660009081526014602052604090205416151561140e57600080fd5b84156114ab576000841180156114a05750600d546040805160e060020a6370a08231028152600160a060020a038981166004830152915191909216916370a082319160248083019260209291908290030181600087803b15801561147157600080fd5b505af1158015611485573d6000803e3d6000fd5b505050506040513d602081101561149b57600080fd5b505184115b15156114ab57600080fd5b600160a060020a038616600090815260146020526040902080548615801560a060020a0274ff0000000000000000000000000000000000000000199092169190911790915561151357600160a060020a03861660009081526014602052604090206001018490555b600c54604080517ff5743c4c000000000000000000000000000000000000000000000000000000008152600160a060020a0389811660048301529151919092169163f5743c4c9160248083019260209291908290030181600087803b15801561157b57600080fd5b505af115801561158f573d6000803e3d6000fd5b505050506040513d60208110156115a557600080fd5b50519250600083116115b657600080fd5b604080518615158152602081018690528082018590529051600160a060020a038816917f710a196358986b34ff7b89eb2ca10d88508cb3f52d8392a2f595722804cc1325919081900360600190a2505050505050565b60006116166135b9565b506000828152601560209081526040808320815161012081018352815481526001820154600160a060020a039081169482018590526002830154938201939093526003820154909216606083015260048101546080830152600581015460a0830152600681015460c0830152600781015460e083015260080154610100820152919015156116a357600080fd5b506080810151600d5460608301516040805160e060020a6370a08231028152600160a060020a03928316600482015290516000949392909216916370a082319160248082019260209290919082900301818887803b15801561170457600080fd5b505af1158015611718573d6000803e3d6000fd5b505050506040513d602081101561172e57600080fd5b5051118015611741575060008260c00151115b1561189d5760a0820151600d5460608401516040805160e060020a6370a08231028152600160a060020a039283166004820152905191909216916370a082319160248083019260209291908290030181600087803b1580156117a257600080fd5b505af11580156117b6573d6000803e3d6000fd5b505050506040513d60208110156117cc57600080fd5b50511015611873576080820151600d5460608401516040805160e060020a6370a08231028152600160a060020a039283166004820152905161186e949392909216916370a08231916024808201926020929091908290030181600087803b15801561183657600080fd5b505af115801561184a573d6000803e3d6000fd5b505050506040513d602081101561186057600080fd5b50519063ffffffff61358016565b611879565b81604001515b9050600081111561189d5760e082015161189a90829063ffffffff61358016565b90505b9392505050565b60176020526000908152604090205481565b60008273__AOLibrary_____________________________632fca5414826040518263ffffffff1660e060020a0281526004018082600160a060020a0316600160a060020a0316815260200191505060206040518083038186803b15801561191d57600080fd5b505af4158015611931573d6000803e3d6000fd5b505050506040513d602081101561194757600080fd5b5051151561195457600080fd5b600654604080517f71ce52ed000000000000000000000000000000000000000000000000000000008152336004820152600160a060020a0380881660248301529151879392909216916371ce52ed916044808201926020929091908290030181600087803b1580156119c557600080fd5b505af11580156119d9573d6000803e3d6000fd5b505050506040513d60208110156119ef57600080fd5b505115156119fc57600080fd5b6007546005546040805160e060020a63029b7d530281523360048201529051600160a060020a0393841693633ebc2ab393169163029b7d539160248083019260209291908290030181600087803b158015611a5657600080fd5b505af1158015611a6a573d6000803e3d6000fd5b505050506040513d6020811015611a8057600080fd5b50516040805160e060020a63ffffffff8516028152600160a060020a0390921660048301525160248083019260209291908290030181600087803b158015611ac757600080fd5b505af1158015611adb573d6000803e3d6000fd5b505050506040513d6020811015611af157600080fd5b505115611afd57600080fd5b600160a060020a03858116600090815260146020526040902054161515611b2357600080fd5b600160a060020a038581166000818152601460209081526040808320600201805460ff19168a1515179055600c5481517ff5743c4c0000000000000000000000000000000000000000000000000000000081526004810195909552905194169363f5743c4c93602480820194918390030190829087803b158015611ba657600080fd5b505af1158015611bba573d6000803e3d6000fd5b505050506040513d6020811015611bd057600080fd5b5051925060008311611be157600080fd5b604080518515158152602081018590528151600160a060020a038816927ff5f6f496ff95818da72c68de653328ef258d57133b8c64064a809a21df3b2d15928290030190a25050505050565b600b54600160a060020a031681565b60166020526000908152604090205481565b600954600160a060020a031681565b601b6020526000908152604090205481565b600154600160a060020a031681565b60105481565b6000546001546040805160e260020a633d9abf2b028152336004820152600160a060020a0393841660248201529290911660448301525173__AOLibrary_____________________________9163f66afcac916064808301926020929190829003018186803b158015611cf657600080fd5b505af4158015611d0a573d6000803e3d6000fd5b505050506040513d6020811015611d2057600080fd5b50511515611d2d57600080fd5b600160a060020a0382161515611d4257600080fd5b600160a060020a03919091166000908152600260205260409020805460ff1916911515919091179055565b601a6020526000908152604090205481565b6000546001546040805160e260020a633d9abf2b028152336004820152600160a060020a0393841660248201529290911660448301525173__AOLibrary_____________________________9163f66afcac916064808301926020929190829003018186803b158015611df157600080fd5b505af4158015611e05573d6000803e3d6000fd5b505050506040513d6020811015611e1b57600080fd5b50511515611e2857600080fd5b600160a060020a0381161515611e3d57600080fd5b60018054600160a060020a03909216600160a060020a0319928316811790915560068054909216179055565b600160a060020a031660009081526018602052604090205490565b601d60209081526000928352604080842090915290825290205481565b6000808473__AOLibrary_____________________________632fca5414826040518263ffffffff1660e060020a0281526004018082600160a060020a0316600160a060020a0316815260200191505060206040518083038186803b158015611f0957600080fd5b505af4158015611f1d573d6000803e3d6000fd5b505050506040513d6020811015611f3357600080fd5b50511515611f4057600080fd5b600854600160a060020a03163314611f5757600080fd5b8415611f6a5760008411611f6a57600080fd5b600160a060020a038681166000908152601460205260409020541615611f8f57600080fd5b600160a060020a0386166000818152601460205260409020805460028201805460ff191660011790558715801560a060020a0274ff000000000000000000000000000000000000000019600160a060020a031990931690941791909116929092178155925061200057600182018490555b8154600183015460028401546040805160ff60a060020a86048116151582526020820194909452919092161515818301529051600160a060020a03909216917f2d333584a4195376719b161f274a701d7dbe5698253665deb3edc1c1e4b8c6bd9181900360600190a250600195945050505050565b6000546001546040805160e260020a633d9abf2b028152336004820152600160a060020a0393841660248201529290911660448301525173__AOLibrary_____________________________9163f66afcac916064808301926020929190829003018186803b1580156120e757600080fd5b505af41580156120fb573d6000803e3d6000fd5b505050506040513d602081101561211157600080fd5b5051151561211e57600080fd5b600160a060020a038116151561213357600080fd5b60098054600160a060020a03909216600160a060020a03199283168117909155600d8054909216179055565b60115481565b6000546001546040805160e260020a633d9abf2b028152336004820152600160a060020a0393841660248201529290911660448301525173__AOLibrary_____________________________9163f66afcac916064808301926020929190829003018186803b1580156121d757600080fd5b505af41580156121eb573d6000803e3d6000fd5b505050506040513d602081101561220157600080fd5b5051151561220e57600080fd5b600160a060020a038116151561222357600080fd5b60038054600160a060020a03909216600160a060020a0319928316811790915560058054909216179055565b600a54600160a060020a031681565b601e60209081526000928352604080842090915290825290205481565b60135481565b60008173__AOLibrary_____________________________632fca5414826040518263ffffffff1660e060020a0281526004018082600160a060020a0316600160a060020a0316815260200191505060206040518083038186803b1580156122e857600080fd5b505af41580156122fc573d6000803e3d6000fd5b505050506040513d602081101561231257600080fd5b5051151561231f57600080fd5b600160a060020a03831660009081526014602052604090206002015460ff1615156001141561242457600d546040805160e060020a6370a08231028152600160a060020a038681166004830152915161241d9392909216916370a08231916024808201926020929091908290030181600087803b15801561239f57600080fd5b505af11580156123b3573d6000803e3d6000fd5b505050506040513d60208110156123c957600080fd5b5051600e546040805160e060020a6370a08231028152600160a060020a038881166004830152915191909216916370a082319160248083019260209291908290030181600087803b15801561183657600080fd5b9150612429565b600091505b50919050565b60026020526000908152604090205460ff1681565b601460205260009081526040902080546001820154600290920154600160a060020a0382169260ff60a060020a90930483169290911684565b600454600160a060020a031681565b600054600160a060020a031681565b601c60209081526000928352604080842090915290825290205481565b600354600160a060020a031681565b60125481565b6015602052600090815260409020805460018201546002830154600384015460048501546005860154600687015460078801546008909801549697600160a060020a03968716979596909416949293919290919089565b6005546040805160e060020a63029b7d530281523360048201529051600092839283928392600160a060020a03169163029b7d5391602480830192602092919082900301818787803b15801561257957600080fd5b505af115801561258d573d6000803e3d6000fd5b505050506040513d60208110156125a357600080fd5b5051600160a060020a031614156125b957600080fd5b6007546005546040805160e060020a63029b7d530281523360048201529051600160a060020a0393841693633ebc2ab393169163029b7d539160248083019260209291908290030181600087803b15801561261357600080fd5b505af1158015612627573d6000803e3d6000fd5b505050506040513d602081101561263d57600080fd5b50516040805160e060020a63ffffffff8516028152600160a060020a0390921660048301525160248083019260209291908290030181600087803b15801561268457600080fd5b505af1158015612698573d6000803e3d6000fd5b505050506040513d60208110156126ae57600080fd5b5051156126ba57600080fd5b6000848152601560209081526040808320600554825160e060020a63029b7d530281523360048201529251919750600160a060020a03169363029b7d5393602480850194919392918390030190829087803b15801561271857600080fd5b505af115801561272c573d6000803e3d6000fd5b505050506040513d602081101561274257600080fd5b50516001840154909250600160a060020a03808416911614801561276a575060008360060154115b151561277557600080fd5b61277e8461160c565b9050600081118015612794575082600601548111155b151561279f57600080fd5b60078301546127b4908263ffffffff61356d16565b600784015560068301546127ce908263ffffffff61358016565b60068401556013546127e6908263ffffffff61356d16565b6013556003830154600160a060020a0316600090815260176020526040902054612816908263ffffffff61356d16565b6003840154600160a060020a0390811660009081526017602090815260408083209490945560018701549092168152601b909152205461285c908263ffffffff61356d16565b600184018054600160a060020a039081166000908152601b6020908152604080832095909555925482168152601e835283812060038801549092168152915220546128ad908263ffffffff61356d16565b6001840154600160a060020a039081166000908152601e60209081526040808320600389015485168452825280832094909455600f5484517f40c10f1900000000000000000000000000000000000000000000000000000000815287851660048201526024810187905294519316936340c10f199360448083019491928390030190829087803b15801561294057600080fd5b505af1158015612954573d6000803e3d6000fd5b505050506040513d602081101561296a57600080fd5b5051151561297757600080fd5b600383015483546001850154600686015460078701546040805187815260208101939093528281019190915251600160a060020a039485169492909216917fb0d51de1a22d42472f71d0eae171c27ae2e8fc84aaf70008c7a57857ae0a079d9181900360600190a450505050565b6000546001546040805160e260020a633d9abf2b028152336004820152600160a060020a0393841660248201529290911660448301525173__AOLibrary_____________________________9163f66afcac916064808301926020929190829003018186803b158015612a5757600080fd5b505af4158015612a6b573d6000803e3d6000fd5b505050506040513d6020811015612a8157600080fd5b50511515612a8e57600080fd5b600160a060020a0381161515612aa357600080fd5b60008054600160a060020a031916600160a060020a0392909216919091179055565b612acd613592565b60008060008573__AOLibrary_____________________________632fca5414826040518263ffffffff1660e060020a0281526004018082600160a060020a0316600160a060020a0316815260200191505060206040518083038186803b158015612b3757600080fd5b505af4158015612b4b573d6000803e3d6000fd5b505050506040513d6020811015612b6157600080fd5b50511515612b6e57600080fd5b6005546040805160e060020a63029b7d530281523360048201529051600092600160a060020a03169163029b7d5391602480830192602092919082900301818787803b158015612bbd57600080fd5b505af1158015612bd1573d6000803e3d6000fd5b505050506040513d6020811015612be757600080fd5b5051600160a060020a03161415612bfd57600080fd5b6007546005546040805160e060020a63029b7d530281523360048201529051600160a060020a0393841693633ebc2ab393169163029b7d539160248083019260209291908290030181600087803b158015612c5757600080fd5b505af1158015612c6b573d6000803e3d6000fd5b505050506040513d6020811015612c8157600080fd5b50516040805160e060020a63ffffffff8516028152600160a060020a0390921660048301525160248083019260209291908290030181600087803b158015612cc857600080fd5b505af1158015612cdc573d6000803e3d6000fd5b505050506040513d6020811015612cf257600080fd5b505115612cfe57600080fd5b600160a060020a03808816600090815260146020908152604080832081516080810183528154808716825260ff60a060020a909104811615158286015260018301548285015260029092015490911615156060820152600554825160e060020a63029b7d530281523360048201529251919a509094169363029b7d5393602480840194938390030190829087803b158015612d9857600080fd5b505af1158015612dac573d6000803e3d6000fd5b505050506040513d6020811015612dc257600080fd5b5051606086015190945015156001148015612ddd5750600086115b8015612e685750600e546040805160e060020a6370a08231028152600160a060020a0387811660048301529151899392909216916370a08231916024808201926020929091908290030181600087803b158015612e3957600080fd5b505af1158015612e4d573d6000803e3d6000fd5b505050506040513d6020811015612e6357600080fd5b505110155b1515612e7357600080fd5b846020015115612f1e57604080860151600e54825160e060020a6370a08231028152600160a060020a038b8116600483015293519293612f13938b9391909116916370a082319160248083019260209291908290030181600087803b158015612edb57600080fd5b505af1158015612eef573d6000803e3d6000fd5b505050506040513d6020811015612f0557600080fd5b50519063ffffffff61356d16565b1115612f1e57600080fd5b6010805460019081018255600160a060020a0389166000908152601660209081526040918290208054909301909255915482516c010000000000000000000000003081028285015233026034820152604880820192909252835180820390920182526068019283905280519092918291908401908083835b60208310612fb55780518252601f199092019160209182019101612f96565b6001836020036101000a03801982511681845116808217855250505050505090500191505060405180910390209250601560008460001916600019168152602001908152602001600020915082826000018160001916905550838260010160006101000a815481600160a060020a030219169083600160a060020a03160217905550858260020181905550868260030160006101000a815481600160a060020a030219169083600160a060020a03160217905550600e60009054906101000a9004600160a060020a0316600160a060020a03166370a08231886040518263ffffffff1660e060020a0281526004018082600160a060020a0316600160a060020a03168152602001915050602060405180830381600087803b1580156130d957600080fd5b505af11580156130ed573d6000803e3d6000fd5b505050506040513d602081101561310357600080fd5b5051600480840191909155600e546040805160e060020a6370a08231028152600160a060020a038b8116948201949094529051613165938a9316916370a082319160248083019260209291908290030181600087803b158015612edb57600080fd5b600583015560068201869055426008830155600160a060020a03841660008181526018602090815260408083208054600181018255908452828420018790559282526019905220546131bd908763ffffffff61356d16565b600160a060020a03808616600090815260196020908152604080832094909455601c8152838220928b1682529190915220546131ff908763ffffffff61356d16565b600160a060020a038086166000908152601c60209081526040808320938c1683529290522055601154613238908763ffffffff61356d16565b601155600e54604080517f23b872dd000000000000000000000000000000000000000000000000000000008152600160a060020a0387811660048301528a81166024830152604482018a9052915191909216916323b872dd9160648083019260209291908290030181600087803b1580156132b257600080fd5b505af11580156132c6573d6000803e3d6000fd5b505050506040513d60208110156132dc57600080fd5b505115156132e957600080fd5b60018201548254600384015460028501546004860154600587015460068801546008890154604080519586526020860194909452848401929092526060840152608083015251600160a060020a039485169492909216917f649ebc3a713a736fd86489f7362fff3bb4099403c0f6de86bd7d409aeb9808389181900360a00190a450505050505050565b60608060008085101580156133885750848410155b80156133ab5750600160a060020a03861660009081526018602052604090205484105b15156133b657600080fd5b6133d760016133cb868863ffffffff61358016565b9063ffffffff61356d16565b604051908082528060200260200182016040528015613400578160200160208202803883390190505b5091508490505b83811161346b57600160a060020a038616600090815260186020526040902080548290811061343257fe5b6000918252602090912001548261344f838863ffffffff61358016565b8151811061345957fe5b60209081029091010152600101613407565b50949350505050565b600854600160a060020a031681565b6000546001546040805160e260020a633d9abf2b028152336004820152600160a060020a0393841660248201529290911660448301525173__AOLibrary_____________________________9163f66afcac916064808301926020929190829003018186803b1580156134f557600080fd5b505af4158015613509573d6000803e3d6000fd5b505050506040513d602081101561351f57600080fd5b5051151561352c57600080fd5b600160a060020a038116151561354157600080fd5b600b8054600160a060020a03909216600160a060020a03199283168117909155600f8054909216179055565b8181018281101561357a57fe5b92915050565b60008282111561358c57fe5b50900390565b60408051608081018252600080825260208201819052918101829052606081019190915290565b61012060405190810160405280600080191681526020016000600160a060020a03168152602001600081526020016000600160a060020a03168152602001600081526020016000815260200160008152602001600081526020016000815250905600a165627a7a7230582086e7c07ea80fd4d6e05446a09a83ac9e371158a92f1df70e7a23c864b67766050029",
	"source": "pragma solidity ^0.4.24;\n\nimport './SafeMath.sol';\nimport './TAOController.sol';\nimport './ITAOPool.sol';\nimport './ITAOFactory.sol';\nimport './TAOCurrency.sol';\nimport './Logos.sol';\nimport './TAO.sol';\n\n/**\n * @title TAOPool\n *\n * This contract acts as the bookkeeper of TAO Currencies that are staked on TAO\n */\ncontract TAOPool is TAOController, ITAOPool {\n\tusing SafeMath for uint256;\n\n\taddress public taoFactoryAddress;\n\taddress public pathosAddress;\n\taddress public ethosAddress;\n\taddress public logosAddress;\n\n\tITAOFactory internal _taoFactory;\n\tTAOCurrency internal _pathos;\n\tTAOCurrency internal _ethos;\n\tLogos internal _logos;\n\n\tstruct Pool {\n\t\taddress taoId;\n\t\t/**\n\t\t * If true, has ethos cap. Otherwise, no ethos cap.\n\t\t */\n\t\tbool ethosCapStatus;\n\t\tuint256 ethosCapAmount;\t// Creates a cap for the amount of Ethos that can be staked into this pool\n\n\t\t/**\n\t\t * If true, Pool is live and can be staked into.\n\t\t */\n\t\tbool status;\n\t}\n\n\tstruct Lot {\n\t\tbytes32 lotId;\t\t\t\t\t\t// The ID of this Lot\n\t\taddress nameId;\t\t\t\t\t\t// The ID of the Name that staked Ethos\n\t\tuint256 lotQuantity;\t\t\t\t// Amount of Ethos being staked to the Pool from this Lot\n\t\taddress taoId;\t\t\t\t\t\t// Identifier for the Pool this Lot is adding to\n\t\tuint256 poolPreStakeSnapshot;\t\t// Amount of Ethos contributed to the Pool prior to this Lot Number\n\t\tuint256 poolStakeLotSnapshot;\t\t// poolPreStakeSnapshot + lotQuantity - logosWithdrawn\n\t\tuint256 lotValueInLogos;\n\t\tuint256 logosWithdrawn;\t\t\t\t// Amount of Logos withdrawn from this Lot\n\t\tuint256 timestamp;\n\t}\n\n\tuint256 public contractTotalLot;\t\t// Total lot from all pools\n\tuint256 public contractTotalEthos;\t\t// Quantity of Ethos that has been staked to all Pools\n\tuint256 public contractTotalPathos;\t\t// Quantity of Pathos that has been staked to all Pools\n\tuint256 public contractTotalLogosWithdrawn;\t\t// Quantity of Logos that has been withdrawn from all Pools\n\n\t// Mapping from TAO ID to Pool\n\tmapping (address => Pool) public pools;\n\n\t// Mapping from Lot ID to Lot\n\tmapping (bytes32 => Lot) public lots;\n\n\t// Mapping from Pool's TAO ID to total Lots in the Pool\n\tmapping (address => uint256) public poolTotalLot;\n\n\t// Mapping from Pool's TAO ID to quantity of Logos that has been withdrawn from the Pool\n\tmapping (address => uint256) public poolTotalLogosWithdrawn;\n\n\t// Mapping from a Name ID to its Lots\n\tmapping (address => bytes32[]) internal ownerLots;\n\n\t// Mapping from a Name ID to quantity of Ethos staked from all lots\n\tmapping (address => uint256) public totalEthosStaked;\n\n\t// Mapping from a Name ID to quantity of Pathos staked from all lots\n\tmapping (address => uint256) public totalPathosStaked;\n\n\t// Mapping from a Name ID to total Logos withdrawn from all lots\n\tmapping (address => uint256) public totalLogosWithdrawn;\n\n\t// Mapping from a Name ID to quantity of Ethos staked from all lots on a Pool\n\tmapping (address => mapping (address => uint256)) public namePoolEthosStaked;\n\n\t// Mapping from a Name ID to quantity of Pathos staked from all lots on a Pool\n\tmapping (address => mapping (address => uint256)) public namePoolPathosStaked;\n\n\t// Mapping from a Name ID to quantity of Logos withdrawn from a Pool\n\tmapping (address => mapping (address => uint256)) public namePoolLogosWithdrawn;\n\n\t// Event to be broadcasted to public when Pool is created\n\tevent CreatePool(address indexed taoId, bool ethosCapStatus, uint256 ethosCapAmount, bool status);\n\n\t// Event to be broadcasted to public when Pool's status is updated\n\t// If status == true, start Pool\n\t// Otherwise, stop Pool\n\tevent UpdatePoolStatus(address indexed taoId, bool status, uint256 nonce);\n\n\t// Event to be broadcasted to public when Pool's Ethos cap is updated\n\tevent UpdatePoolEthosCap(address indexed taoId, bool ethosCapStatus, uint256 ethosCapAmount, uint256 nonce);\n\n\t/**\n\t * Event to be broadcasted to public when nameId stakes Ethos\n\t */\n\tevent StakeEthos(address indexed taoId, bytes32 indexed lotId, address indexed nameId, uint256 lotQuantity, uint256 poolPreStakeSnapshot, uint256 poolStakeLotSnapshot, uint256 lotValueInLogos, uint256 timestamp);\n\n\t// Event to be broadcasted to public when nameId stakes Pathos\n\tevent StakePathos(address indexed taoId, address indexed nameId, uint256 stakeQuantity, uint256 currentPoolTotalStakedPathos);\n\n\t// Event to be broadcasted to public when nameId withdraws Logos from Lot\n\tevent WithdrawLogos(address indexed nameId, bytes32 indexed lotId, address indexed taoId, uint256 withdrawnAmount, uint256 currentLotValueInLogos, uint256 currentLotLogosWithdrawn);\n\n\t/**\n\t * @dev Constructor function\n\t */\n\tconstructor(address _nameFactoryAddress, address _taoFactoryAddress, address _nameTAOPositionAddress, address _pathosAddress, address _ethosAddress, address _logosAddress)\n\t\tTAOController(_nameFactoryAddress) public {\n\t\tsetTAOFactoryAddress(_taoFactoryAddress);\n\t\tsetNameTAOPositionAddress(_nameTAOPositionAddress);\n\t\tsetPathosAddress(_pathosAddress);\n\t\tsetEthosAddress(_ethosAddress);\n\t\tsetLogosAddress(_logosAddress);\n\t}\n\n\t/**\n\t * @dev Check if calling address is TAO Factory address\n\t */\n\tmodifier onlyTAOFactory {\n\t\trequire (msg.sender == taoFactoryAddress);\n\t\t_;\n\t}\n\n\t/***** The AO ONLY METHODS *****/\n\t/**\n\t * @dev The AO set the TAOFactory Address\n\t * @param _taoFactoryAddress The address of TAOFactory\n\t */\n\tfunction setTAOFactoryAddress(address _taoFactoryAddress) public onlyTheAO {\n\t\trequire (_taoFactoryAddress != address(0));\n\t\ttaoFactoryAddress = _taoFactoryAddress;\n\t\t_taoFactory = ITAOFactory(_taoFactoryAddress);\n\t}\n\n\t/**\n\t * @dev The AO set the Pathos Address\n\t * @param _pathosAddress The address of Pathos\n\t */\n\tfunction setPathosAddress(address _pathosAddress) public onlyTheAO {\n\t\trequire (_pathosAddress != address(0));\n\t\tpathosAddress = _pathosAddress;\n\t\t_pathos = TAOCurrency(_pathosAddress);\n\t}\n\n\t/**\n\t * @dev The AO set the Ethos Address\n\t * @param _ethosAddress The address of Ethos\n\t */\n\tfunction setEthosAddress(address _ethosAddress) public onlyTheAO {\n\t\trequire (_ethosAddress != address(0));\n\t\tethosAddress = _ethosAddress;\n\t\t_ethos = TAOCurrency(_ethosAddress);\n\t}\n\n\t/**\n\t * @dev The AO set the Logos Address\n\t * @param _logosAddress The address of Logos\n\t */\n\tfunction setLogosAddress(address _logosAddress) public onlyTheAO {\n\t\trequire (_logosAddress != address(0));\n\t\tlogosAddress = _logosAddress;\n\t\t_logos = Logos(_logosAddress);\n\t}\n\n\t/***** PUBLIC METHODS *****/\n\t/**\n\t * @dev Check whether or not Pool exist for a TAO ID\n\t * @param _id The ID to be checked\n\t * @return true if yes, false otherwise\n\t */\n\tfunction isExist(address _id) public view returns (bool) {\n\t\treturn pools[_id].taoId != address(0);\n\t}\n\n\t/**\n\t * @dev Create a pool for a TAO\n\t */\n\tfunction createPool(\n\t\taddress _taoId,\n\t\tbool _ethosCapStatus,\n\t\tuint256 _ethosCapAmount\n\t) external isTAO(_taoId) onlyTAOFactory returns (bool) {\n\t\t// Make sure ethos cap amount is provided if ethos cap is enabled\n\t\tif (_ethosCapStatus) {\n\t\t\trequire (_ethosCapAmount > 0);\n\t\t}\n\t\t// Make sure the pool is not yet created\n\t\trequire (pools[_taoId].taoId == address(0));\n\n\t\tPool storage _pool = pools[_taoId];\n\t\t_pool.taoId = _taoId;\n\t\t_pool.status = true;\n\t\t_pool.ethosCapStatus = _ethosCapStatus;\n\t\tif (_ethosCapStatus) {\n\t\t\t_pool.ethosCapAmount = _ethosCapAmount;\n\t\t}\n\n\t\temit CreatePool(_pool.taoId, _pool.ethosCapStatus, _pool.ethosCapAmount, _pool.status);\n\t\treturn true;\n\t}\n\n\t/**\n\t * @dev Start/Stop a Pool\n\t * @param _taoId The TAO ID of the Pool\n\t * @param _status The status to set. true = start. false = stop\n\t */\n\tfunction updatePoolStatus(address _taoId, bool _status) public isTAO(_taoId) onlyAdvocate(_taoId) senderNameNotCompromised {\n\t\trequire (pools[_taoId].taoId != address(0));\n\t\tpools[_taoId].status = _status;\n\n\t\tuint256 _nonce = _taoFactory.incrementNonce(_taoId);\n\t\trequire (_nonce > 0);\n\n\t\temit UpdatePoolStatus(_taoId, _status, _nonce);\n\t}\n\n\t/**\n\t * @dev Update Ethos cap of a Pool\n\t * @param _taoId The TAO ID of the Pool\n\t * @param _ethosCapStatus The ethos cap status to set\n\t * @param _ethosCapAmount The ethos cap amount to set\n\t */\n\tfunction updatePoolEthosCap(address _taoId, bool _ethosCapStatus, uint256 _ethosCapAmount) public isTAO(_taoId) onlyAdvocate(_taoId) senderNameNotCompromised {\n\t\trequire (pools[_taoId].taoId != address(0));\n\t\t// If there is an ethos cap\n\t\tif (_ethosCapStatus) {\n\t\t\trequire (_ethosCapAmount > 0 && _ethosCapAmount > _pathos.balanceOf(_taoId));\n\t\t}\n\n\t\tpools[_taoId].ethosCapStatus = _ethosCapStatus;\n\t\tif (_ethosCapStatus) {\n\t\t\tpools[_taoId].ethosCapAmount = _ethosCapAmount;\n\t\t}\n\n\t\tuint256 _nonce = _taoFactory.incrementNonce(_taoId);\n\t\trequire (_nonce > 0);\n\n\t\temit UpdatePoolEthosCap(_taoId, _ethosCapStatus, _ethosCapAmount, _nonce);\n\t}\n\n\t/**\n\t * @dev A Name stakes Ethos in Pool `_taoId`\n\t * @param _taoId The TAO ID of the Pool\n\t * @param _quantity The amount of Ethos to be staked\n\t */\n\tfunction stakeEthos(address _taoId, uint256 _quantity) public isTAO(_taoId) senderIsName senderNameNotCompromised {\n\t\tPool memory _pool = pools[_taoId];\n\t\taddress _nameId = _nameFactory.ethAddressToNameId(msg.sender);\n\t\trequire (_pool.status == true && _quantity > 0 && _ethos.balanceOf(_nameId) >= _quantity);\n\n\t\t// If there is an ethos cap\n\t\tif (_pool.ethosCapStatus) {\n\t\t\trequire (_ethos.balanceOf(_taoId).add(_quantity) <= _pool.ethosCapAmount);\n\t\t}\n\n\t\t// Create Lot for this transaction\n\t\tcontractTotalLot++;\n\t\tpoolTotalLot[_taoId]++;\n\n\t\t// Generate Lot ID\n\t\tbytes32 _lotId = keccak256(abi.encodePacked(this, msg.sender, contractTotalLot));\n\n\t\tLot storage _lot = lots[_lotId];\n\t\t_lot.lotId = _lotId;\n\t\t_lot.nameId = _nameId;\n\t\t_lot.lotQuantity = _quantity;\n\t\t_lot.taoId = _taoId;\n\t\t_lot.poolPreStakeSnapshot = _ethos.balanceOf(_taoId);\n\t\t_lot.poolStakeLotSnapshot = _ethos.balanceOf(_taoId).add(_quantity);\n\t\t_lot.lotValueInLogos = _quantity;\n\t\t_lot.timestamp = now;\n\n\t\townerLots[_nameId].push(_lotId);\n\n\t\t// Update contract variables\n\t\ttotalEthosStaked[_nameId] = totalEthosStaked[_nameId].add(_quantity);\n\t\tnamePoolEthosStaked[_nameId][_taoId] = namePoolEthosStaked[_nameId][_taoId].add(_quantity);\n\t\tcontractTotalEthos = contractTotalEthos.add(_quantity);\n\n\t\trequire (_ethos.transferFrom(_nameId, _taoId, _quantity));\n\n\t\temit StakeEthos(_lot.taoId, _lot.lotId, _lot.nameId, _lot.lotQuantity, _lot.poolPreStakeSnapshot, _lot.poolStakeLotSnapshot, _lot.lotValueInLogos, _lot.timestamp);\n\t}\n\n\t/**\n\t * @dev Retrieve number of Lots a `_nameId` has\n\t * @param _nameId The Name ID of the Lot's owner\n\t * @return Total Lots the owner has\n\t */\n\tfunction ownerTotalLot(address _nameId) public view returns (uint256) {\n\t\treturn ownerLots[_nameId].length;\n\t}\n\n\t/**\n\t * @dev Get list of owner's Lot IDs from `_from` to `_to` index\n\t * @param _nameId The Name Id of the Lot's owner\n\t * @param _from The starting index, (i.e 0)\n\t * @param _to The ending index, (i.e total - 1)\n\t * @return list of owner's Lot IDs\n\t */\n\tfunction ownerLotIds(address _nameId, uint256 _from, uint256 _to) public view returns (bytes32[]) {\n\t\trequire (_from >= 0 && _to >= _from && ownerLots[_nameId].length > _to);\n\t\tbytes32[] memory _lotIds = new bytes32[](_to.sub(_from).add(1));\n\t\tfor (uint256 i = _from; i <= _to; i++) {\n\t\t\t_lotIds[i.sub(_from)] = ownerLots[_nameId][i];\n\t\t}\n\t\treturn _lotIds;\n\t}\n\n\t/**\n\t * @dev Return the amount of Pathos that can be staked on Pool\n\t * @param _taoId The TAO ID of the Pool\n\t * @return The amount of Pathos that can be staked\n\t */\n\tfunction availablePathosToStake(address _taoId) public isTAO(_taoId) view returns (uint256) {\n\t\tif (pools[_taoId].status == true) {\n\t\t\treturn _ethos.balanceOf(_taoId).sub(_pathos.balanceOf(_taoId));\n\t\t} else {\n\t\t\treturn 0;\n\t\t}\n\t}\n\n\t/**\n\t * @dev A Name stakes Pathos in Pool `_taoId`\n\t * @param _taoId The TAO ID of the Pool\n\t * @param _quantity The amount of Pathos to stake\n\t */\n\tfunction stakePathos(address _taoId, uint256 _quantity) public isTAO(_taoId) senderIsName senderNameNotCompromised {\n\t\tPool memory _pool = pools[_taoId];\n\t\taddress _nameId = _nameFactory.ethAddressToNameId(msg.sender);\n\t\trequire (_pool.status == true && _quantity > 0 && _pathos.balanceOf(_nameId) >= _quantity && _quantity <= availablePathosToStake(_taoId));\n\n\t\t// Update contract variables\n\t\ttotalPathosStaked[_nameId] = totalPathosStaked[_nameId].add(_quantity);\n\t\tnamePoolPathosStaked[_nameId][_taoId] = namePoolPathosStaked[_nameId][_taoId].add(_quantity);\n\t\tcontractTotalPathos = contractTotalPathos.add(_quantity);\n\n\t\trequire (_pathos.transferFrom(_nameId, _taoId, _quantity));\n\n\t\t// Also add advocated TAO logos to Advocate of _taoId\n\t\trequire (_logos.addAdvocatedTAOLogos(_taoId, _quantity));\n\n\t\temit StakePathos(_taoId, _nameId, _quantity, _pathos.balanceOf(_taoId));\n\t}\n\n\t/**\n\t * @dev Name that staked Ethos withdraw Logos from Lot `_lotId`\n\t * @param _lotId The ID of the Lot\n\t */\n\tfunction withdrawLogos(bytes32 _lotId) public senderIsName senderNameNotCompromised {\n\t\tLot storage _lot = lots[_lotId];\n\t\taddress _nameId = _nameFactory.ethAddressToNameId(msg.sender);\n\t\trequire (_lot.nameId == _nameId && _lot.lotValueInLogos > 0);\n\n\t\tuint256 logosAvailableToWithdraw = lotLogosAvailableToWithdraw(_lotId);\n\n\t\trequire (logosAvailableToWithdraw > 0 && logosAvailableToWithdraw <= _lot.lotValueInLogos);\n\n\t\t// Update lot variables\n\t\t_lot.logosWithdrawn = _lot.logosWithdrawn.add(logosAvailableToWithdraw);\n\t\t_lot.lotValueInLogos = _lot.lotValueInLogos.sub(logosAvailableToWithdraw);\n\n\t\t// Update contract variables\n\t\tcontractTotalLogosWithdrawn = contractTotalLogosWithdrawn.add(logosAvailableToWithdraw);\n\t\tpoolTotalLogosWithdrawn[_lot.taoId] = poolTotalLogosWithdrawn[_lot.taoId].add(logosAvailableToWithdraw);\n\t\ttotalLogosWithdrawn[_lot.nameId] = totalLogosWithdrawn[_lot.nameId].add(logosAvailableToWithdraw);\n\t\tnamePoolLogosWithdrawn[_lot.nameId][_lot.taoId] = namePoolLogosWithdrawn[_lot.nameId][_lot.taoId].add(logosAvailableToWithdraw);\n\n\t\t// Mint logos to seller\n\t\trequire (_logos.mint(_nameId, logosAvailableToWithdraw));\n\n\t\temit WithdrawLogos(_lot.nameId, _lot.lotId, _lot.taoId, logosAvailableToWithdraw, _lot.lotValueInLogos, _lot.logosWithdrawn);\n\t}\n\n\t/**\n\t * @dev Name gets Lot `_lotId` available Logos to withdraw\n\t * @param _lotId The ID of the Lot\n\t * @return The amount of Logos available to withdraw\n\t */\n\tfunction lotLogosAvailableToWithdraw(bytes32 _lotId) public view returns (uint256) {\n\t\tLot memory _lot = lots[_lotId];\n\t\trequire (_lot.nameId != address(0));\n\n\t\tuint256 logosAvailableToWithdraw = 0;\n\n\t\tif (_pathos.balanceOf(_lot.taoId) > _lot.poolPreStakeSnapshot && _lot.lotValueInLogos > 0) {\n\t\t\tlogosAvailableToWithdraw = (_pathos.balanceOf(_lot.taoId) >= _lot.poolStakeLotSnapshot) ? _lot.lotQuantity : _pathos.balanceOf(_lot.taoId).sub(_lot.poolPreStakeSnapshot);\n\t\t\tif (logosAvailableToWithdraw > 0) {\n\t\t\t\tlogosAvailableToWithdraw = logosAvailableToWithdraw.sub(_lot.logosWithdrawn);\n\t\t\t}\n\t\t}\n\t\treturn logosAvailableToWithdraw;\n\t}\n}\n",
	"sourcePath": "/Users/johanmulyono/Work/AO/ao-contracts/contracts/TAOPool.sol",
	"compiler": {
		"name": "solc",
		"version": "0.4.24+commit.e67f0147.Emscripten.clang"
	},
	"schemaVersion": "2.0.1",
	"updatedAt": "2019-03-21T01:34:19.482Z"
}