{
	"contractName": "TAOPool",
	"abi": [
		{
			"constant": false,
			"inputs": [
				{
					"name": "_nameAccountRecoveryAddress",
					"type": "address"
				}
			],
			"name": "setNameAccountRecoveryAddress",
			"outputs": [],
			"payable": false,
			"stateMutability": "nonpayable",
			"type": "function"
		},
		{
			"constant": true,
			"inputs": [
				{
					"name": "",
					"type": "address"
				}
			],
			"name": "totalEthosStaked",
			"outputs": [
				{
					"name": "",
					"type": "uint256"
				}
			],
			"payable": false,
			"stateMutability": "view",
			"type": "function"
		},
		{
			"constant": true,
			"inputs": [
				{
					"name": "",
					"type": "address"
				}
			],
			"name": "poolTotalLogosWithdrawn",
			"outputs": [
				{
					"name": "",
					"type": "uint256"
				}
			],
			"payable": false,
			"stateMutability": "view",
			"type": "function"
		},
		{
			"constant": true,
			"inputs": [],
			"name": "logosAddress",
			"outputs": [
				{
					"name": "",
					"type": "address"
				}
			],
			"payable": false,
			"stateMutability": "view",
			"type": "function"
		},
		{
			"constant": true,
			"inputs": [],
			"name": "pathosAddress",
			"outputs": [
				{
					"name": "",
					"type": "address"
				}
			],
			"payable": false,
			"stateMutability": "view",
			"type": "function"
		},
		{
			"constant": true,
			"inputs": [
				{
					"name": "",
					"type": "address"
				}
			],
			"name": "totalLogosWithdrawn",
			"outputs": [
				{
					"name": "",
					"type": "uint256"
				}
			],
			"payable": false,
			"stateMutability": "view",
			"type": "function"
		},
		{
			"constant": true,
			"inputs": [],
			"name": "nameTAOPositionAddress",
			"outputs": [
				{
					"name": "",
					"type": "address"
				}
			],
			"payable": false,
			"stateMutability": "view",
			"type": "function"
		},
		{
			"constant": false,
			"inputs": [
				{
					"name": "_account",
					"type": "address"
				},
				{
					"name": "_whitelist",
					"type": "bool"
				}
			],
			"name": "setWhitelist",
			"outputs": [],
			"payable": false,
			"stateMutability": "nonpayable",
			"type": "function"
		},
		{
			"constant": true,
			"inputs": [
				{
					"name": "",
					"type": "address"
				}
			],
			"name": "totalPathosStaked",
			"outputs": [
				{
					"name": "",
					"type": "uint256"
				}
			],
			"payable": false,
			"stateMutability": "view",
			"type": "function"
		},
		{
			"constant": false,
			"inputs": [
				{
					"name": "_nameTAOPositionAddress",
					"type": "address"
				}
			],
			"name": "setNameTAOPositionAddress",
			"outputs": [],
			"payable": false,
			"stateMutability": "nonpayable",
			"type": "function"
		},
		{
			"constant": true,
			"inputs": [
				{
					"name": "",
					"type": "address"
				},
				{
					"name": "",
					"type": "address"
				}
			],
			"name": "namePoolPathosStaked",
			"outputs": [
				{
					"name": "",
					"type": "uint256"
				}
			],
			"payable": false,
			"stateMutability": "view",
			"type": "function"
		},
		{
			"constant": true,
			"inputs": [
				{
					"name": "",
					"type": "bytes32"
				}
			],
			"name": "ethosLots",
			"outputs": [
				{
					"name": "ethosLotId",
					"type": "bytes32"
				},
				{
					"name": "nameId",
					"type": "address"
				},
				{
					"name": "lotQuantity",
					"type": "uint256"
				},
				{
					"name": "taoId",
					"type": "address"
				},
				{
					"name": "poolPreStakeSnapshot",
					"type": "uint256"
				},
				{
					"name": "poolStakeLotSnapshot",
					"type": "uint256"
				},
				{
					"name": "lotValueInLogos",
					"type": "uint256"
				},
				{
					"name": "logosWithdrawn",
					"type": "uint256"
				},
				{
					"name": "timestamp",
					"type": "uint256"
				}
			],
			"payable": false,
			"stateMutability": "view",
			"type": "function"
		},
		{
			"constant": true,
			"inputs": [],
			"name": "contractTotalPathosStake",
			"outputs": [
				{
					"name": "",
					"type": "uint256"
				}
			],
			"payable": false,
			"stateMutability": "view",
			"type": "function"
		},
		{
			"constant": true,
			"inputs": [],
			"name": "contractTotalEthos",
			"outputs": [
				{
					"name": "",
					"type": "uint256"
				}
			],
			"payable": false,
			"stateMutability": "view",
			"type": "function"
		},
		{
			"constant": false,
			"inputs": [
				{
					"name": "_nameFactoryAddress",
					"type": "address"
				}
			],
			"name": "setNameFactoryAddress",
			"outputs": [],
			"payable": false,
			"stateMutability": "nonpayable",
			"type": "function"
		},
		{
			"constant": true,
			"inputs": [
				{
					"name": "",
					"type": "address"
				}
			],
			"name": "poolTotalEthosLot",
			"outputs": [
				{
					"name": "",
					"type": "uint256"
				}
			],
			"payable": false,
			"stateMutability": "view",
			"type": "function"
		},
		{
			"constant": true,
			"inputs": [],
			"name": "ethosAddress",
			"outputs": [
				{
					"name": "",
					"type": "address"
				}
			],
			"payable": false,
			"stateMutability": "view",
			"type": "function"
		},
		{
			"constant": true,
			"inputs": [
				{
					"name": "",
					"type": "address"
				},
				{
					"name": "",
					"type": "address"
				}
			],
			"name": "namePoolLogosWithdrawn",
			"outputs": [
				{
					"name": "",
					"type": "uint256"
				}
			],
			"payable": false,
			"stateMutability": "view",
			"type": "function"
		},
		{
			"constant": true,
			"inputs": [],
			"name": "contractTotalLogosWithdrawn",
			"outputs": [
				{
					"name": "",
					"type": "uint256"
				}
			],
			"payable": false,
			"stateMutability": "view",
			"type": "function"
		},
		{
			"constant": true,
			"inputs": [
				{
					"name": "",
					"type": "address"
				}
			],
			"name": "whitelist",
			"outputs": [
				{
					"name": "",
					"type": "bool"
				}
			],
			"payable": false,
			"stateMutability": "view",
			"type": "function"
		},
		{
			"constant": true,
			"inputs": [
				{
					"name": "",
					"type": "address"
				}
			],
			"name": "pools",
			"outputs": [
				{
					"name": "taoId",
					"type": "address"
				},
				{
					"name": "ethosCapStatus",
					"type": "bool"
				},
				{
					"name": "ethosCapAmount",
					"type": "uint256"
				},
				{
					"name": "status",
					"type": "bool"
				}
			],
			"payable": false,
			"stateMutability": "view",
			"type": "function"
		},
		{
			"constant": true,
			"inputs": [],
			"name": "nameAccountRecoveryAddress",
			"outputs": [
				{
					"name": "",
					"type": "address"
				}
			],
			"payable": false,
			"stateMutability": "view",
			"type": "function"
		},
		{
			"constant": true,
			"inputs": [],
			"name": "theAO",
			"outputs": [
				{
					"name": "",
					"type": "address"
				}
			],
			"payable": false,
			"stateMutability": "view",
			"type": "function"
		},
		{
			"constant": true,
			"inputs": [
				{
					"name": "",
					"type": "address"
				},
				{
					"name": "",
					"type": "address"
				}
			],
			"name": "namePoolEthosStaked",
			"outputs": [
				{
					"name": "",
					"type": "uint256"
				}
			],
			"payable": false,
			"stateMutability": "view",
			"type": "function"
		},
		{
			"constant": true,
			"inputs": [],
			"name": "nameFactoryAddress",
			"outputs": [
				{
					"name": "",
					"type": "address"
				}
			],
			"payable": false,
			"stateMutability": "view",
			"type": "function"
		},
		{
			"constant": true,
			"inputs": [],
			"name": "contractTotalPathos",
			"outputs": [
				{
					"name": "",
					"type": "uint256"
				}
			],
			"payable": false,
			"stateMutability": "view",
			"type": "function"
		},
		{
			"constant": true,
			"inputs": [],
			"name": "contractTotalEthosLot",
			"outputs": [
				{
					"name": "",
					"type": "uint256"
				}
			],
			"payable": false,
			"stateMutability": "view",
			"type": "function"
		},
		{
			"constant": false,
			"inputs": [
				{
					"name": "_theAO",
					"type": "address"
				}
			],
			"name": "transferOwnership",
			"outputs": [],
			"payable": false,
			"stateMutability": "nonpayable",
			"type": "function"
		},
		{
			"constant": true,
			"inputs": [],
			"name": "taoFactoryAddress",
			"outputs": [
				{
					"name": "",
					"type": "address"
				}
			],
			"payable": false,
			"stateMutability": "view",
			"type": "function"
		},
		{
			"inputs": [
				{
					"name": "_nameFactoryAddress",
					"type": "address"
				},
				{
					"name": "_taoFactoryAddress",
					"type": "address"
				},
				{
					"name": "_nameTAOPositionAddress",
					"type": "address"
				},
				{
					"name": "_pathosAddress",
					"type": "address"
				},
				{
					"name": "_ethosAddress",
					"type": "address"
				},
				{
					"name": "_logosAddress",
					"type": "address"
				}
			],
			"payable": false,
			"stateMutability": "nonpayable",
			"type": "constructor"
		},
		{
			"anonymous": false,
			"inputs": [
				{
					"indexed": true,
					"name": "taoId",
					"type": "address"
				},
				{
					"indexed": false,
					"name": "ethosCapStatus",
					"type": "bool"
				},
				{
					"indexed": false,
					"name": "ethosCapAmount",
					"type": "uint256"
				},
				{
					"indexed": false,
					"name": "status",
					"type": "bool"
				}
			],
			"name": "CreatePool",
			"type": "event"
		},
		{
			"anonymous": false,
			"inputs": [
				{
					"indexed": true,
					"name": "taoId",
					"type": "address"
				},
				{
					"indexed": false,
					"name": "status",
					"type": "bool"
				},
				{
					"indexed": false,
					"name": "nonce",
					"type": "uint256"
				}
			],
			"name": "UpdatePoolStatus",
			"type": "event"
		},
		{
			"anonymous": false,
			"inputs": [
				{
					"indexed": true,
					"name": "taoId",
					"type": "address"
				},
				{
					"indexed": false,
					"name": "ethosCapStatus",
					"type": "bool"
				},
				{
					"indexed": false,
					"name": "ethosCapAmount",
					"type": "uint256"
				},
				{
					"indexed": false,
					"name": "nonce",
					"type": "uint256"
				}
			],
			"name": "UpdatePoolEthosCap",
			"type": "event"
		},
		{
			"anonymous": false,
			"inputs": [
				{
					"indexed": true,
					"name": "taoId",
					"type": "address"
				},
				{
					"indexed": true,
					"name": "ethosLotId",
					"type": "bytes32"
				},
				{
					"indexed": true,
					"name": "nameId",
					"type": "address"
				},
				{
					"indexed": false,
					"name": "lotQuantity",
					"type": "uint256"
				},
				{
					"indexed": false,
					"name": "poolPreStakeSnapshot",
					"type": "uint256"
				},
				{
					"indexed": false,
					"name": "poolStakeLotSnapshot",
					"type": "uint256"
				},
				{
					"indexed": false,
					"name": "lotValueInLogos",
					"type": "uint256"
				},
				{
					"indexed": false,
					"name": "timestamp",
					"type": "uint256"
				}
			],
			"name": "StakeEthos",
			"type": "event"
		},
		{
			"anonymous": false,
			"inputs": [
				{
					"indexed": true,
					"name": "taoId",
					"type": "address"
				},
				{
					"indexed": true,
					"name": "stakeId",
					"type": "bytes32"
				},
				{
					"indexed": true,
					"name": "nameId",
					"type": "address"
				},
				{
					"indexed": false,
					"name": "stakeQuantity",
					"type": "uint256"
				},
				{
					"indexed": false,
					"name": "currentPoolTotalStakedPathos",
					"type": "uint256"
				},
				{
					"indexed": false,
					"name": "timestamp",
					"type": "uint256"
				}
			],
			"name": "StakePathos",
			"type": "event"
		},
		{
			"anonymous": false,
			"inputs": [
				{
					"indexed": true,
					"name": "nameId",
					"type": "address"
				},
				{
					"indexed": true,
					"name": "ethosLotId",
					"type": "bytes32"
				},
				{
					"indexed": true,
					"name": "taoId",
					"type": "address"
				},
				{
					"indexed": false,
					"name": "withdrawnAmount",
					"type": "uint256"
				},
				{
					"indexed": false,
					"name": "currentLotValueInLogos",
					"type": "uint256"
				},
				{
					"indexed": false,
					"name": "currentLotLogosWithdrawn",
					"type": "uint256"
				},
				{
					"indexed": false,
					"name": "timestamp",
					"type": "uint256"
				}
			],
			"name": "WithdrawLogos",
			"type": "event"
		},
		{
			"constant": false,
			"inputs": [
				{
					"name": "_taoFactoryAddress",
					"type": "address"
				}
			],
			"name": "setTAOFactoryAddress",
			"outputs": [],
			"payable": false,
			"stateMutability": "nonpayable",
			"type": "function"
		},
		{
			"constant": false,
			"inputs": [
				{
					"name": "_pathosAddress",
					"type": "address"
				}
			],
			"name": "setPathosAddress",
			"outputs": [],
			"payable": false,
			"stateMutability": "nonpayable",
			"type": "function"
		},
		{
			"constant": false,
			"inputs": [
				{
					"name": "_ethosAddress",
					"type": "address"
				}
			],
			"name": "setEthosAddress",
			"outputs": [],
			"payable": false,
			"stateMutability": "nonpayable",
			"type": "function"
		},
		{
			"constant": false,
			"inputs": [
				{
					"name": "_logosAddress",
					"type": "address"
				}
			],
			"name": "setLogosAddress",
			"outputs": [],
			"payable": false,
			"stateMutability": "nonpayable",
			"type": "function"
		},
		{
			"constant": true,
			"inputs": [
				{
					"name": "_id",
					"type": "address"
				}
			],
			"name": "isExist",
			"outputs": [
				{
					"name": "",
					"type": "bool"
				}
			],
			"payable": false,
			"stateMutability": "view",
			"type": "function"
		},
		{
			"constant": false,
			"inputs": [
				{
					"name": "_taoId",
					"type": "address"
				},
				{
					"name": "_ethosCapStatus",
					"type": "bool"
				},
				{
					"name": "_ethosCapAmount",
					"type": "uint256"
				}
			],
			"name": "createPool",
			"outputs": [
				{
					"name": "",
					"type": "bool"
				}
			],
			"payable": false,
			"stateMutability": "nonpayable",
			"type": "function"
		},
		{
			"constant": false,
			"inputs": [
				{
					"name": "_taoId",
					"type": "address"
				},
				{
					"name": "_status",
					"type": "bool"
				}
			],
			"name": "updatePoolStatus",
			"outputs": [],
			"payable": false,
			"stateMutability": "nonpayable",
			"type": "function"
		},
		{
			"constant": false,
			"inputs": [
				{
					"name": "_taoId",
					"type": "address"
				},
				{
					"name": "_ethosCapStatus",
					"type": "bool"
				},
				{
					"name": "_ethosCapAmount",
					"type": "uint256"
				}
			],
			"name": "updatePoolEthosCap",
			"outputs": [],
			"payable": false,
			"stateMutability": "nonpayable",
			"type": "function"
		},
		{
			"constant": false,
			"inputs": [
				{
					"name": "_taoId",
					"type": "address"
				},
				{
					"name": "_quantity",
					"type": "uint256"
				}
			],
			"name": "stakeEthos",
			"outputs": [],
			"payable": false,
			"stateMutability": "nonpayable",
			"type": "function"
		},
		{
			"constant": true,
			"inputs": [
				{
					"name": "_nameId",
					"type": "address"
				}
			],
			"name": "ownerTotalEthosLot",
			"outputs": [
				{
					"name": "",
					"type": "uint256"
				}
			],
			"payable": false,
			"stateMutability": "view",
			"type": "function"
		},
		{
			"constant": true,
			"inputs": [
				{
					"name": "_nameId",
					"type": "address"
				},
				{
					"name": "_from",
					"type": "uint256"
				},
				{
					"name": "_to",
					"type": "uint256"
				}
			],
			"name": "ownerEthosLotIds",
			"outputs": [
				{
					"name": "",
					"type": "bytes32[]"
				}
			],
			"payable": false,
			"stateMutability": "view",
			"type": "function"
		},
		{
			"constant": true,
			"inputs": [
				{
					"name": "_taoId",
					"type": "address"
				}
			],
			"name": "availablePathosToStake",
			"outputs": [
				{
					"name": "",
					"type": "uint256"
				}
			],
			"payable": false,
			"stateMutability": "view",
			"type": "function"
		},
		{
			"constant": false,
			"inputs": [
				{
					"name": "_taoId",
					"type": "address"
				},
				{
					"name": "_quantity",
					"type": "uint256"
				}
			],
			"name": "stakePathos",
			"outputs": [],
			"payable": false,
			"stateMutability": "nonpayable",
			"type": "function"
		},
		{
			"constant": false,
			"inputs": [
				{
					"name": "_ethosLotId",
					"type": "bytes32"
				}
			],
			"name": "withdrawLogos",
			"outputs": [],
			"payable": false,
			"stateMutability": "nonpayable",
			"type": "function"
		},
		{
			"constant": true,
			"inputs": [
				{
					"name": "_ethosLotId",
					"type": "bytes32"
				}
			],
			"name": "lotLogosAvailableToWithdraw",
			"outputs": [
				{
					"name": "",
					"type": "uint256"
				}
			],
			"payable": false,
			"stateMutability": "view",
			"type": "function"
		}
	],
	"bytecode": "0x60806040523480156200001157600080fd5b5060405160c08062003e2c83398101604090815281516020830151918301516060840151608085015160a09095015160008054600160a060020a0319163317905592949192909190856200006e81640100000000620000df810204565b506200008385640100000000620001e4810204565b6200009784640100000000620002e9810204565b620000ab83640100000000620003ee810204565b620000bf82640100000000620004f3810204565b620000d381640100000000620005f8810204565b505050505050620006fd565b600054600154604080517ff66afcac000000000000000000000000000000000000000000000000000000008152336004820152600160a060020a0393841660248201529290911660448301525173__AOLibrary_____________________________9163f66afcac916064808301926020929190829003018186803b1580156200016857600080fd5b505af41580156200017d573d6000803e3d6000fd5b505050506040513d60208110156200019457600080fd5b50511515620001a257600080fd5b600160a060020a0381161515620001b857600080fd5b60038054600160a060020a03909216600160a060020a0319928316811790915560058054909216179055565b600054600154604080517ff66afcac000000000000000000000000000000000000000000000000000000008152336004820152600160a060020a0393841660248201529290911660448301525173__AOLibrary_____________________________9163f66afcac916064808301926020929190829003018186803b1580156200026d57600080fd5b505af415801562000282573d6000803e3d6000fd5b505050506040513d60208110156200029957600080fd5b50511515620002a757600080fd5b600160a060020a0381161515620002bd57600080fd5b60088054600160a060020a03909216600160a060020a03199283168117909155600c8054909216179055565b600054600154604080517ff66afcac000000000000000000000000000000000000000000000000000000008152336004820152600160a060020a0393841660248201529290911660448301525173__AOLibrary_____________________________9163f66afcac916064808301926020929190829003018186803b1580156200037257600080fd5b505af415801562000387573d6000803e3d6000fd5b505050506040513d60208110156200039e57600080fd5b50511515620003ac57600080fd5b600160a060020a0381161515620003c257600080fd5b60018054600160a060020a03909216600160a060020a0319928316811790915560068054909216179055565b600054600154604080517ff66afcac000000000000000000000000000000000000000000000000000000008152336004820152600160a060020a0393841660248201529290911660448301525173__AOLibrary_____________________________9163f66afcac916064808301926020929190829003018186803b1580156200047757600080fd5b505af41580156200048c573d6000803e3d6000fd5b505050506040513d6020811015620004a357600080fd5b50511515620004b157600080fd5b600160a060020a0381161515620004c757600080fd5b60098054600160a060020a03909216600160a060020a03199283168117909155600d8054909216179055565b600054600154604080517ff66afcac000000000000000000000000000000000000000000000000000000008152336004820152600160a060020a0393841660248201529290911660448301525173__AOLibrary_____________________________9163f66afcac916064808301926020929190829003018186803b1580156200057c57600080fd5b505af415801562000591573d6000803e3d6000fd5b505050506040513d6020811015620005a857600080fd5b50511515620005b657600080fd5b600160a060020a0381161515620005cc57600080fd5b600a8054600160a060020a03909216600160a060020a03199283168117909155600e8054909216179055565b600054600154604080517ff66afcac000000000000000000000000000000000000000000000000000000008152336004820152600160a060020a0393841660248201529290911660448301525173__AOLibrary_____________________________9163f66afcac916064808301926020929190829003018186803b1580156200068157600080fd5b505af415801562000696573d6000803e3d6000fd5b505050506040513d6020811015620006ad57600080fd5b50511515620006bb57600080fd5b600160a060020a0381161515620006d157600080fd5b600b8054600160a060020a03909216600160a060020a03199283168117909155600f8054909216179055565b61371f806200070d6000396000f3006080604052600436106101ff5763ffffffff60e060020a60003504166213eb4b81146102045780631add5b98146102395780631dfde2bd1461025c5780632191207a1461027d57806324d723171461029e57806328d313b5146102c25780632f4f6bc4146102f55780632fbb76951461031e578063322326361461033657806334172c9e1461035757806338da7de71461037d5780634486ab0a146103ae57806349c82bc4146103c35780634ef033f0146103e457806353d6fd59146103f95780635baf6a471461041f5780635cfaf2ef146104405780635f7f0ad814610461578063698b7764146104885780636dfdf69b146104b15780637565fb6a1461051f578063793c8228146105405780637b3d6013146105615780638bce77f3146105765780638c9243611461058b5780638f55e65f146105ac5780639093a790146105cd578063917f84e2146105e257806395c13f0a14610609578063983344611461061e5780639b19251a1461063f578063a4063dbc14610660578063a4e5fad2146106b3578063a9b6b38e146106c8578063b2e6b2fc146106dd578063bc40620614610704578063c6185ae114610719578063ddd332d21461072e578063e3fcd930146107a5578063ef3070f8146107bd578063f2fde38b146107d2578063f68d8f5a146107f3578063ff0374b514610817578063ff3781c61461082c575b600080fd5b34801561021057600080fd5b50610225600160a060020a036004351661084d565b604080519115158252519081900360200190f35b34801561024557600080fd5b5061025a600160a060020a036004351661086d565b005b34801561026857600080fd5b5061025a600160a060020a0360043516610957565b34801561028957600080fd5b5061025a600160a060020a0360043516610a44565b3480156102aa57600080fd5b5061025a600160a060020a0360043516602435610b2e565b3480156102ce57600080fd5b506102e3600160a060020a036004351661125b565b60408051918252519081900360200190f35b34801561030157600080fd5b5061025a600160a060020a0360043516602435151560443561126d565b34801561032a57600080fd5b506102e36004356116d8565b34801561034257600080fd5b506102e3600160a060020a0360043516611970565b34801561036357600080fd5b5061025a600160a060020a03600435166024351515611982565b34801561038957600080fd5b50610392611cf9565b60408051600160a060020a039092168252519081900360200190f35b3480156103ba57600080fd5b50610392611d08565b3480156103cf57600080fd5b506102e3600160a060020a0360043516611d17565b3480156103f057600080fd5b50610392611d29565b34801561040557600080fd5b5061025a600160a060020a03600435166024351515611d38565b34801561042b57600080fd5b506102e3600160a060020a0360043516611e21565b34801561044c57600080fd5b5061025a600160a060020a0360043516611e33565b34801561046d57600080fd5b506102e3600160a060020a0360043581169060243516611f1d565b34801561049457600080fd5b50610225600160a060020a03600435166024351515604435611f3a565b3480156104bd57600080fd5b506104c960043561210e565b60408051998a52600160a060020a0398891660208b015289810197909752949096166060880152608087019290925260a086015260c085015260e084019290925261010083019190915251908190036101200190f35b34801561052b57600080fd5b506102e3600160a060020a0360043516612165565b34801561054c57600080fd5b5061025a600160a060020a0360043516612180565b34801561056d57600080fd5b506102e361226a565b34801561058257600080fd5b506102e3612270565b34801561059757600080fd5b5061025a600160a060020a0360043516612276565b3480156105b857600080fd5b506102e3600160a060020a0360043516612360565b3480156105d957600080fd5b50610392612372565b3480156105ee57600080fd5b506102e3600160a060020a0360043581169060243516612381565b34801561061557600080fd5b506102e361239e565b34801561062a57600080fd5b506102e3600160a060020a03600435166123a4565b34801561064b57600080fd5b50610225600160a060020a0360043516612552565b34801561066c57600080fd5b50610681600160a060020a0360043516612567565b60408051600160a060020a03909516855292151560208501528383019190915215156060830152519081900360800190f35b3480156106bf57600080fd5b506103926125a0565b3480156106d457600080fd5b506103926125af565b3480156106e957600080fd5b506102e3600160a060020a03600435811690602435166125be565b34801561071057600080fd5b506103926125db565b34801561072557600080fd5b506102e36125ea565b34801561073a57600080fd5b50610755600160a060020a03600435166024356044356125f0565b60408051602080825283518183015283519192839290830191858101910280838360005b83811015610791578181015183820152602001610779565b505050509050019250505060405180910390f35b3480156107b157600080fd5b5061025a6004356126f1565b3480156107c957600080fd5b506102e3612bb8565b3480156107de57600080fd5b5061025a600160a060020a0360043516612bbe565b3480156107ff57600080fd5b5061025a600160a060020a0360043516602435612c9e565b34801561082357600080fd5b5061039261354c565b34801561083857600080fd5b5061025a600160a060020a036004351661355b565b600160a060020a0390811660009081526015602052604090205416151590565b6000546001546040805160e260020a633d9abf2b028152336004820152600160a060020a0393841660248201529290911660448301525173__AOLibrary_____________________________9163f66afcac916064808301926020929190829003018186803b1580156108df57600080fd5b505af41580156108f3573d6000803e3d6000fd5b505050506040513d602081101561090957600080fd5b5051151561091657600080fd5b600160a060020a038116151561092b57600080fd5b600a8054600160a060020a03909216600160a060020a03199283168117909155600e8054909216179055565b6000546001546040805160e260020a633d9abf2b028152336004820152600160a060020a0393841660248201529290911660448301525173__AOLibrary_____________________________9163f66afcac916064808301926020929190829003018186803b1580156109c957600080fd5b505af41580156109dd573d6000803e3d6000fd5b505050506040513d60208110156109f357600080fd5b50511515610a0057600080fd5b600160a060020a0381161515610a1557600080fd5b60048054600160a060020a0319908116600160a060020a03938416179182905560078054929093169116179055565b6000546001546040805160e260020a633d9abf2b028152336004820152600160a060020a0393841660248201529290911660448301525173__AOLibrary_____________________________9163f66afcac916064808301926020929190829003018186803b158015610ab657600080fd5b505af4158015610aca573d6000803e3d6000fd5b505050506040513d6020811015610ae057600080fd5b50511515610aed57600080fd5b600160a060020a0381161515610b0257600080fd5b60088054600160a060020a03909216600160a060020a03199283168117909155600c8054909216179055565b610b3661366a565b6000808473__AOLibrary_____________________________632fca5414826040518263ffffffff1660e060020a0281526004018082600160a060020a0316600160a060020a0316815260200191505060206040518083038186803b158015610b9e57600080fd5b505af4158015610bb2573d6000803e3d6000fd5b505050506040513d6020811015610bc857600080fd5b50511515610bd557600080fd5b6005546040805160e060020a63029b7d530281523360048201529051600092600160a060020a03169163029b7d5391602480830192602092919082900301818787803b158015610c2457600080fd5b505af1158015610c38573d6000803e3d6000fd5b505050506040513d6020811015610c4e57600080fd5b5051600160a060020a03161415610c6457600080fd5b6007546005546040805160e060020a63029b7d530281523360048201529051600160a060020a0393841693633ebc2ab393169163029b7d539160248083019260209291908290030181600087803b158015610cbe57600080fd5b505af1158015610cd2573d6000803e3d6000fd5b505050506040513d6020811015610ce857600080fd5b50516040805160e060020a63ffffffff8516028152600160a060020a0390921660048301525160248083019260209291908290030181600087803b158015610d2f57600080fd5b505af1158015610d43573d6000803e3d6000fd5b505050506040513d6020811015610d5957600080fd5b505115610d6557600080fd5b600160a060020a03808716600090815260156020908152604080832081516080810183528154808716825260ff60a060020a909104811615158286015260018301548285015260029092015490911615156060820152600554825160e060020a63029b7d5302815233600482015292519199509094169363029b7d5393602480840194938390030190829087803b158015610dff57600080fd5b505af1158015610e13573d6000803e3d6000fd5b505050506040513d6020811015610e2957600080fd5b5051606085015190935015156001148015610e445750600085115b8015610ecf5750600d546040805160e060020a6370a08231028152600160a060020a0386811660048301529151889392909216916370a08231916024808201926020929091908290030181600087803b158015610ea057600080fd5b505af1158015610eb4573d6000803e3d6000fd5b505050506040513d6020811015610eca57600080fd5b505110155b8015610ee35750610edf866123a4565b8511155b1515610eee57600080fd5b601180546001019055600160a060020a0383166000908152601b6020526040902054610f20908663ffffffff61364516565b600160a060020a038085166000908152601b6020908152604080832094909455601e8152838220928a168252919091522054610f62908663ffffffff61364516565b600160a060020a038085166000908152601e60209081526040808320938b1683529290522055601354610f9b908663ffffffff61364516565b601355601154604080516c010000000000000000000000003081026020808401919091523391909102603483015260488083019490945282518083039094018452606890910191829052825182918401908083835b6020831061100f5780518252601f199092019160209182019101610ff0565b51815160209384036101000a600019018019909216911617905260408051929094018290038220600d547f23b872dd000000000000000000000000000000000000000000000000000000008452600160a060020a038b811660048601528e81166024860152604485018e905295519199509490941695506323b872dd945060648083019491935090918290030181600087803b1580156110ae57600080fd5b505af11580156110c2573d6000803e3d6000fd5b505050506040513d60208110156110d857600080fd5b505115156110e557600080fd5b600f54604080517f97fe5ea3000000000000000000000000000000000000000000000000000000008152600160a060020a03898116600483015260248201899052915191909216916397fe5ea39160448083019260209291908290030181600087803b15801561115457600080fd5b505af1158015611168573d6000803e3d6000fd5b505050506040513d602081101561117e57600080fd5b5051151561118b57600080fd5b600d546040805160e060020a6370a08231028152600160a060020a03898116600483018190529251818816948794937f8b94cee0a5e9ffbca07138e4e77976118bfa50f795533045acb35a073a8d084a938c939216916370a08231916024808201926020929091908290030181600087803b15801561120957600080fd5b505af115801561121d573d6000803e3d6000fd5b505050506040513d602081101561123357600080fd5b50516040805192835260208301919091524282820152519081900360600190a4505050505050565b601a6020526000908152604090205481565b60008373__AOLibrary_____________________________632fca5414826040518263ffffffff1660e060020a0281526004018082600160a060020a0316600160a060020a0316815260200191505060206040518083038186803b1580156112d457600080fd5b505af41580156112e8573d6000803e3d6000fd5b505050506040513d60208110156112fe57600080fd5b5051151561130b57600080fd5b600654604080517f71ce52ed000000000000000000000000000000000000000000000000000000008152336004820152600160a060020a0380891660248301529151889392909216916371ce52ed916044808201926020929091908290030181600087803b15801561137c57600080fd5b505af1158015611390573d6000803e3d6000fd5b505050506040513d60208110156113a657600080fd5b505115156113b357600080fd5b6007546005546040805160e060020a63029b7d530281523360048201529051600160a060020a0393841693633ebc2ab393169163029b7d539160248083019260209291908290030181600087803b15801561140d57600080fd5b505af1158015611421573d6000803e3d6000fd5b505050506040513d602081101561143757600080fd5b50516040805160e060020a63ffffffff8516028152600160a060020a0390921660048301525160248083019260209291908290030181600087803b15801561147e57600080fd5b505af1158015611492573d6000803e3d6000fd5b505050506040513d60208110156114a857600080fd5b5051156114b457600080fd5b600160a060020a038681166000908152601560205260409020541615156114da57600080fd5b84156115775760008411801561156c5750600d546040805160e060020a6370a08231028152600160a060020a038981166004830152915191909216916370a082319160248083019260209291908290030181600087803b15801561153d57600080fd5b505af1158015611551573d6000803e3d6000fd5b505050506040513d602081101561156757600080fd5b505184115b151561157757600080fd5b600160a060020a038616600090815260156020526040902080548615801560a060020a0274ff000000000000000000000000000000000000000019909216919091179091556115df57600160a060020a03861660009081526015602052604090206001018490555b600c54604080517ff5743c4c000000000000000000000000000000000000000000000000000000008152600160a060020a0389811660048301529151919092169163f5743c4c9160248083019260209291908290030181600087803b15801561164757600080fd5b505af115801561165b573d6000803e3d6000fd5b505050506040513d602081101561167157600080fd5b505192506000831161168257600080fd5b604080518615158152602081018690528082018590529051600160a060020a038816917f710a196358986b34ff7b89eb2ca10d88508cb3f52d8392a2f595722804cc1325919081900360600190a2505050505050565b60006116e2613691565b506000828152601660209081526040808320815161012081018352815481526001820154600160a060020a039081169482018590526002830154938201939093526003820154909216606083015260048101546080830152600581015460a0830152600681015460c0830152600781015460e0830152600801546101008201529190151561176f57600080fd5b506080810151600d5460608301516040805160e060020a6370a08231028152600160a060020a03928316600482015290516000949392909216916370a082319160248082019260209290919082900301818887803b1580156117d057600080fd5b505af11580156117e4573d6000803e3d6000fd5b505050506040513d60208110156117fa57600080fd5b505111801561180d575060008260c00151115b156119695760a0820151600d5460608401516040805160e060020a6370a08231028152600160a060020a039283166004820152905191909216916370a082319160248083019260209291908290030181600087803b15801561186e57600080fd5b505af1158015611882573d6000803e3d6000fd5b505050506040513d602081101561189857600080fd5b5051101561193f576080820151600d5460608401516040805160e060020a6370a08231028152600160a060020a039283166004820152905161193a949392909216916370a08231916024808201926020929091908290030181600087803b15801561190257600080fd5b505af1158015611916573d6000803e3d6000fd5b505050506040513d602081101561192c57600080fd5b50519063ffffffff61365816565b611945565b81604001515b905060008111156119695760e082015161196690829063ffffffff61365816565b90505b9392505050565b60186020526000908152604090205481565b60008273__AOLibrary_____________________________632fca5414826040518263ffffffff1660e060020a0281526004018082600160a060020a0316600160a060020a0316815260200191505060206040518083038186803b1580156119e957600080fd5b505af41580156119fd573d6000803e3d6000fd5b505050506040513d6020811015611a1357600080fd5b50511515611a2057600080fd5b600654604080517f71ce52ed000000000000000000000000000000000000000000000000000000008152336004820152600160a060020a0380881660248301529151879392909216916371ce52ed916044808201926020929091908290030181600087803b158015611a9157600080fd5b505af1158015611aa5573d6000803e3d6000fd5b505050506040513d6020811015611abb57600080fd5b50511515611ac857600080fd5b6007546005546040805160e060020a63029b7d530281523360048201529051600160a060020a0393841693633ebc2ab393169163029b7d539160248083019260209291908290030181600087803b158015611b2257600080fd5b505af1158015611b36573d6000803e3d6000fd5b505050506040513d6020811015611b4c57600080fd5b50516040805160e060020a63ffffffff8516028152600160a060020a0390921660048301525160248083019260209291908290030181600087803b158015611b9357600080fd5b505af1158015611ba7573d6000803e3d6000fd5b505050506040513d6020811015611bbd57600080fd5b505115611bc957600080fd5b600160a060020a03858116600090815260156020526040902054161515611bef57600080fd5b600160a060020a038581166000818152601560209081526040808320600201805460ff19168a1515179055600c5481517ff5743c4c0000000000000000000000000000000000000000000000000000000081526004810195909552905194169363f5743c4c93602480820194918390030190829087803b158015611c7257600080fd5b505af1158015611c86573d6000803e3d6000fd5b505050506040513d6020811015611c9c57600080fd5b5051925060008311611cad57600080fd5b604080518515158152602081018590528151600160a060020a038816927ff5f6f496ff95818da72c68de653328ef258d57133b8c64064a809a21df3b2d15928290030190a25050505050565b600b54600160a060020a031681565b600954600160a060020a031681565b601c6020526000908152604090205481565b600154600160a060020a031681565b6000546001546040805160e260020a633d9abf2b028152336004820152600160a060020a0393841660248201529290911660448301525173__AOLibrary_____________________________9163f66afcac916064808301926020929190829003018186803b158015611daa57600080fd5b505af4158015611dbe573d6000803e3d6000fd5b505050506040513d6020811015611dd457600080fd5b50511515611de157600080fd5b600160a060020a0382161515611df657600080fd5b600160a060020a03919091166000908152600260205260409020805460ff1916911515919091179055565b601b6020526000908152604090205481565b6000546001546040805160e260020a633d9abf2b028152336004820152600160a060020a0393841660248201529290911660448301525173__AOLibrary_____________________________9163f66afcac916064808301926020929190829003018186803b158015611ea557600080fd5b505af4158015611eb9573d6000803e3d6000fd5b505050506040513d6020811015611ecf57600080fd5b50511515611edc57600080fd5b600160a060020a0381161515611ef157600080fd5b60018054600160a060020a03909216600160a060020a0319928316811790915560068054909216179055565b601e60209081526000928352604080842090915290825290205481565b6000808473__AOLibrary_____________________________632fca5414826040518263ffffffff1660e060020a0281526004018082600160a060020a0316600160a060020a0316815260200191505060206040518083038186803b158015611fa257600080fd5b505af4158015611fb6573d6000803e3d6000fd5b505050506040513d6020811015611fcc57600080fd5b50511515611fd957600080fd5b600854600160a060020a03163314611ff057600080fd5b8415612003576000841161200357600080fd5b600160a060020a03868116600090815260156020526040902054161561202857600080fd5b600160a060020a0386166000818152601560205260409020805460028201805460ff191660011790558715801560a060020a0274ff000000000000000000000000000000000000000019600160a060020a031990931690941791909116929092178155925061209957600182018490555b8154600183015460028401546040805160ff60a060020a86048116151582526020820194909452919092161515818301529051600160a060020a03909216917f2d333584a4195376719b161f274a701d7dbe5698253665deb3edc1c1e4b8c6bd9181900360600190a250600195945050505050565b6016602052600090815260409020805460018201546002830154600384015460048501546005860154600687015460078801546008909801549697600160a060020a03968716979596909416949293919290919089565b600160a060020a031660009081526019602052604090205490565b6000546001546040805160e260020a633d9abf2b028152336004820152600160a060020a0393841660248201529290911660448301525173__AOLibrary_____________________________9163f66afcac916064808301926020929190829003018186803b1580156121f257600080fd5b505af4158015612206573d6000803e3d6000fd5b505050506040513d602081101561221c57600080fd5b5051151561222957600080fd5b600160a060020a038116151561223e57600080fd5b60098054600160a060020a03909216600160a060020a03199283168117909155600d8054909216179055565b60115481565b60125481565b6000546001546040805160e260020a633d9abf2b028152336004820152600160a060020a0393841660248201529290911660448301525173__AOLibrary_____________________________9163f66afcac916064808301926020929190829003018186803b1580156122e857600080fd5b505af41580156122fc573d6000803e3d6000fd5b505050506040513d602081101561231257600080fd5b5051151561231f57600080fd5b600160a060020a038116151561233457600080fd5b60038054600160a060020a03909216600160a060020a0319928316811790915560058054909216179055565b60176020526000908152604090205481565b600a54600160a060020a031681565b601f60209081526000928352604080842090915290825290205481565b60145481565b60008173__AOLibrary_____________________________632fca5414826040518263ffffffff1660e060020a0281526004018082600160a060020a0316600160a060020a0316815260200191505060206040518083038186803b15801561240b57600080fd5b505af415801561241f573d6000803e3d6000fd5b505050506040513d602081101561243557600080fd5b5051151561244257600080fd5b600160a060020a03831660009081526015602052604090206002015460ff1615156001141561254757600d546040805160e060020a6370a08231028152600160a060020a03868116600483015291516125409392909216916370a08231916024808201926020929091908290030181600087803b1580156124c257600080fd5b505af11580156124d6573d6000803e3d6000fd5b505050506040513d60208110156124ec57600080fd5b5051600e546040805160e060020a6370a08231028152600160a060020a038881166004830152915191909216916370a082319160248083019260209291908290030181600087803b15801561190257600080fd5b915061254c565b600091505b50919050565b60026020526000908152604090205460ff1681565b601560205260009081526040902080546001820154600290920154600160a060020a0382169260ff60a060020a90930483169290911684565b600454600160a060020a031681565b600054600160a060020a031681565b601d60209081526000928352604080842090915290825290205481565b600354600160a060020a031681565b60135481565b60608060008085101580156126055750848410155b80156126285750600160a060020a03861660009081526019602052604090205484105b151561263357600080fd5b6126546001612648868863ffffffff61365816565b9063ffffffff61364516565b60405190808252806020026020018201604052801561267d578160200160208202803883390190505b5091508490505b8381116126e857600160a060020a03861660009081526019602052604090208054829081106126af57fe5b600091825260209091200154826126cc838863ffffffff61365816565b815181106126d657fe5b60209081029091010152600101612684565b50949350505050565b6005546040805160e060020a63029b7d530281523360048201529051600092839283928392600160a060020a03169163029b7d5391602480830192602092919082900301818787803b15801561274657600080fd5b505af115801561275a573d6000803e3d6000fd5b505050506040513d602081101561277057600080fd5b5051600160a060020a0316141561278657600080fd5b6007546005546040805160e060020a63029b7d530281523360048201529051600160a060020a0393841693633ebc2ab393169163029b7d539160248083019260209291908290030181600087803b1580156127e057600080fd5b505af11580156127f4573d6000803e3d6000fd5b505050506040513d602081101561280a57600080fd5b50516040805160e060020a63ffffffff8516028152600160a060020a0390921660048301525160248083019260209291908290030181600087803b15801561285157600080fd5b505af1158015612865573d6000803e3d6000fd5b505050506040513d602081101561287b57600080fd5b50511561288757600080fd5b6000848152601660209081526040808320600554825160e060020a63029b7d530281523360048201529251919750600160a060020a03169363029b7d5393602480850194919392918390030190829087803b1580156128e557600080fd5b505af11580156128f9573d6000803e3d6000fd5b505050506040513d602081101561290f57600080fd5b50516001840154909250600160a060020a038084169116148015612937575060008360060154115b151561294257600080fd5b61294b846116d8565b9050600081118015612961575082600601548111155b151561296c57600080fd5b6007830154612981908263ffffffff61364516565b6007840155600683015461299b908263ffffffff61365816565b60068401556014546129b3908263ffffffff61364516565b6014556003830154600160a060020a03166000908152601860205260409020546129e3908263ffffffff61364516565b6003840154600160a060020a0390811660009081526018602090815260408083209490945560018701549092168152601c9091522054612a29908263ffffffff61364516565b600184018054600160a060020a039081166000908152601c6020908152604080832095909555925482168152601f83528381206003880154909216815291522054612a7a908263ffffffff61364516565b6001840154600160a060020a039081166000908152601f60209081526040808320600389015485168452825280832094909455600f5484517f40c10f1900000000000000000000000000000000000000000000000000000000815287851660048201526024810187905294519316936340c10f199360448083019491928390030190829087803b158015612b0d57600080fd5b505af1158015612b21573d6000803e3d6000fd5b505050506040513d6020811015612b3757600080fd5b50511515612b4457600080fd5b600383015483546001850154600686015460078701546040805187815260208101939093528281019190915242606083015251600160a060020a039485169492909216917f04948b7acb9fd946cfe937519700b8b415b7e2b1b2ed0c45464add19548c05cc9181900360800190a450505050565b60105481565b6000546001546040805160e260020a633d9abf2b028152336004820152600160a060020a0393841660248201529290911660448301525173__AOLibrary_____________________________9163f66afcac916064808301926020929190829003018186803b158015612c3057600080fd5b505af4158015612c44573d6000803e3d6000fd5b505050506040513d6020811015612c5a57600080fd5b50511515612c6757600080fd5b600160a060020a0381161515612c7c57600080fd5b60008054600160a060020a031916600160a060020a0392909216919091179055565b612ca661366a565b60008060008573__AOLibrary_____________________________632fca5414826040518263ffffffff1660e060020a0281526004018082600160a060020a0316600160a060020a0316815260200191505060206040518083038186803b158015612d1057600080fd5b505af4158015612d24573d6000803e3d6000fd5b505050506040513d6020811015612d3a57600080fd5b50511515612d4757600080fd5b6005546040805160e060020a63029b7d530281523360048201529051600092600160a060020a03169163029b7d5391602480830192602092919082900301818787803b158015612d9657600080fd5b505af1158015612daa573d6000803e3d6000fd5b505050506040513d6020811015612dc057600080fd5b5051600160a060020a03161415612dd657600080fd5b6007546005546040805160e060020a63029b7d530281523360048201529051600160a060020a0393841693633ebc2ab393169163029b7d539160248083019260209291908290030181600087803b158015612e3057600080fd5b505af1158015612e44573d6000803e3d6000fd5b505050506040513d6020811015612e5a57600080fd5b50516040805160e060020a63ffffffff8516028152600160a060020a0390921660048301525160248083019260209291908290030181600087803b158015612ea157600080fd5b505af1158015612eb5573d6000803e3d6000fd5b505050506040513d6020811015612ecb57600080fd5b505115612ed757600080fd5b600160a060020a03808816600090815260156020908152604080832081516080810183528154808716825260ff60a060020a909104811615158286015260018301548285015260029092015490911615156060820152600554825160e060020a63029b7d530281523360048201529251919a509094169363029b7d5393602480840194938390030190829087803b158015612f7157600080fd5b505af1158015612f85573d6000803e3d6000fd5b505050506040513d6020811015612f9b57600080fd5b5051606086015190945015156001148015612fb65750600086115b80156130415750600e546040805160e060020a6370a08231028152600160a060020a0387811660048301529151899392909216916370a08231916024808201926020929091908290030181600087803b15801561301257600080fd5b505af1158015613026573d6000803e3d6000fd5b505050506040513d602081101561303c57600080fd5b505110155b151561304c57600080fd5b8460200151156130f757604080860151600e54825160e060020a6370a08231028152600160a060020a038b81166004830152935192936130ec938b9391909116916370a082319160248083019260209291908290030181600087803b1580156130b457600080fd5b505af11580156130c8573d6000803e3d6000fd5b505050506040513d60208110156130de57600080fd5b50519063ffffffff61364516565b11156130f757600080fd5b6010805460019081018255600160a060020a0389166000908152601760209081526040918290208054909301909255915482516c010000000000000000000000003081028285015233026034820152604880820192909252835180820390920182526068019283905280519092918291908401908083835b6020831061318e5780518252601f19909201916020918201910161316f565b6001836020036101000a03801982511681845116808217855250505050505090500191505060405180910390209250601660008460001916600019168152602001908152602001600020915082826000018160001916905550838260010160006101000a815481600160a060020a030219169083600160a060020a03160217905550858260020181905550868260030160006101000a815481600160a060020a030219169083600160a060020a03160217905550600e60009054906101000a9004600160a060020a0316600160a060020a03166370a08231886040518263ffffffff1660e060020a0281526004018082600160a060020a0316600160a060020a03168152602001915050602060405180830381600087803b1580156132b257600080fd5b505af11580156132c6573d6000803e3d6000fd5b505050506040513d60208110156132dc57600080fd5b5051600480840191909155600e546040805160e060020a6370a08231028152600160a060020a038b811694820194909452905161333e938a9316916370a082319160248083019260209291908290030181600087803b1580156130b457600080fd5b600583015560068201869055426008830155600160a060020a0384166000818152601960209081526040808320805460018101825590845282842001879055928252601a90522054613396908763ffffffff61364516565b600160a060020a038086166000908152601a6020908152604080832094909455601d8152838220928b1682529190915220546133d8908763ffffffff61364516565b600160a060020a038086166000908152601d60209081526040808320938c1683529290522055601254613411908763ffffffff61364516565b601255600e54604080517f23b872dd000000000000000000000000000000000000000000000000000000008152600160a060020a0387811660048301528a81166024830152604482018a9052915191909216916323b872dd9160648083019260209291908290030181600087803b15801561348b57600080fd5b505af115801561349f573d6000803e3d6000fd5b505050506040513d60208110156134b557600080fd5b505115156134c257600080fd5b60018201548254600384015460028501546004860154600587015460068801546008890154604080519586526020860194909452848401929092526060840152608083015251600160a060020a039485169492909216917f649ebc3a713a736fd86489f7362fff3bb4099403c0f6de86bd7d409aeb9808389181900360a00190a450505050505050565b600854600160a060020a031681565b6000546001546040805160e260020a633d9abf2b028152336004820152600160a060020a0393841660248201529290911660448301525173__AOLibrary_____________________________9163f66afcac916064808301926020929190829003018186803b1580156135cd57600080fd5b505af41580156135e1573d6000803e3d6000fd5b505050506040513d60208110156135f757600080fd5b5051151561360457600080fd5b600160a060020a038116151561361957600080fd5b600b8054600160a060020a03909216600160a060020a03199283168117909155600f8054909216179055565b8181018281101561365257fe5b92915050565b60008282111561366457fe5b50900390565b60408051608081018252600080825260208201819052918101829052606081019190915290565b61012060405190810160405280600080191681526020016000600160a060020a03168152602001600081526020016000600160a060020a03168152602001600081526020016000815260200160008152602001600081526020016000815250905600a165627a7a723058205a52ddb1516bac21af3d938b996b8708748df7f92c2d527f5e75a75e6637ad010029",
	"source": "pragma solidity ^0.4.24;\n\nimport './SafeMath.sol';\nimport './TAOController.sol';\nimport './ITAOPool.sol';\nimport './ITAOFactory.sol';\nimport './TAOCurrency.sol';\nimport './Logos.sol';\nimport './TAO.sol';\n\n/**\n * @title TAOPool\n *\n * This contract acts as the bookkeeper of TAO Currencies that are staked on TAO\n */\ncontract TAOPool is TAOController, ITAOPool {\n\tusing SafeMath for uint256;\n\n\taddress public taoFactoryAddress;\n\taddress public pathosAddress;\n\taddress public ethosAddress;\n\taddress public logosAddress;\n\n\tITAOFactory internal _taoFactory;\n\tTAOCurrency internal _pathos;\n\tTAOCurrency internal _ethos;\n\tLogos internal _logos;\n\n\tstruct Pool {\n\t\taddress taoId;\n\t\t/**\n\t\t * If true, has ethos cap. Otherwise, no ethos cap.\n\t\t */\n\t\tbool ethosCapStatus;\n\t\tuint256 ethosCapAmount;\t// Creates a cap for the amount of Ethos that can be staked into this pool\n\n\t\t/**\n\t\t * If true, Pool is live and can be staked into.\n\t\t */\n\t\tbool status;\n\t}\n\n\tstruct EthosLot {\n\t\tbytes32 ethosLotId;\t\t\t\t\t// The ID of this Lot\n\t\taddress nameId;\t\t\t\t\t\t// The ID of the Name that staked Ethos\n\t\tuint256 lotQuantity;\t\t\t\t// Amount of Ethos being staked to the Pool from this Lot\n\t\taddress taoId;\t\t\t\t\t\t// Identifier for the Pool this Lot is adding to\n\t\tuint256 poolPreStakeSnapshot;\t\t// Amount of Ethos contributed to the Pool prior to this Lot Number\n\t\tuint256 poolStakeLotSnapshot;\t\t// poolPreStakeSnapshot + lotQuantity\n\t\tuint256 lotValueInLogos;\n\t\tuint256 logosWithdrawn;\t\t\t\t// Amount of Logos withdrawn from this Lot\n\t\tuint256 timestamp;\n\t}\n\n\tuint256 public contractTotalEthosLot;\t\t// Total Ethos lot from all pools\n\tuint256 public contractTotalPathosStake;\t// Total Pathos stake from all pools (how many Pathos stakes are there in contract)\n\tuint256 public contractTotalEthos;\t\t\t// Quantity of Ethos that has been staked to all Pools\n\tuint256 public contractTotalPathos;\t\t\t// Quantity of Pathos that has been staked to all Pools\n\tuint256 public contractTotalLogosWithdrawn;\t\t// Quantity of Logos that has been withdrawn from all Pools\n\n\t// Mapping from TAO ID to Pool\n\tmapping (address => Pool) public pools;\n\n\t// Mapping from Ethos Lot ID to Ethos Lot\n\tmapping (bytes32 => EthosLot) public ethosLots;\n\n\t// Mapping from Pool's TAO ID to total Ethos Lots in the Pool\n\tmapping (address => uint256) public poolTotalEthosLot;\n\n\t// Mapping from Pool's TAO ID to quantity of Logos that has been withdrawn from the Pool\n\tmapping (address => uint256) public poolTotalLogosWithdrawn;\n\n\t// Mapping from a Name ID to its Ethos Lots\n\tmapping (address => bytes32[]) internal ownerEthosLots;\n\n\t// Mapping from a Name ID to quantity of Ethos staked from all Ethos lots\n\tmapping (address => uint256) public totalEthosStaked;\n\n\t// Mapping from a Name ID to quantity of Pathos staked from all Ethos lots\n\tmapping (address => uint256) public totalPathosStaked;\n\n\t// Mapping from a Name ID to total Logos withdrawn from all Ethos lots\n\tmapping (address => uint256) public totalLogosWithdrawn;\n\n\t// Mapping from a Name ID to quantity of Ethos staked from all Ethos lots on a Pool\n\tmapping (address => mapping (address => uint256)) public namePoolEthosStaked;\n\n\t// Mapping from a Name ID to quantity of Pathos staked on a Pool\n\tmapping (address => mapping (address => uint256)) public namePoolPathosStaked;\n\n\t// Mapping from a Name ID to quantity of Logos withdrawn from a Pool\n\tmapping (address => mapping (address => uint256)) public namePoolLogosWithdrawn;\n\n\t// Event to be broadcasted to public when Pool is created\n\tevent CreatePool(address indexed taoId, bool ethosCapStatus, uint256 ethosCapAmount, bool status);\n\n\t// Event to be broadcasted to public when Pool's status is updated\n\t// If status == true, start Pool\n\t// Otherwise, stop Pool\n\tevent UpdatePoolStatus(address indexed taoId, bool status, uint256 nonce);\n\n\t// Event to be broadcasted to public when Pool's Ethos cap is updated\n\tevent UpdatePoolEthosCap(address indexed taoId, bool ethosCapStatus, uint256 ethosCapAmount, uint256 nonce);\n\n\t/**\n\t * Event to be broadcasted to public when nameId stakes Ethos\n\t */\n\tevent StakeEthos(address indexed taoId, bytes32 indexed ethosLotId, address indexed nameId, uint256 lotQuantity, uint256 poolPreStakeSnapshot, uint256 poolStakeLotSnapshot, uint256 lotValueInLogos, uint256 timestamp);\n\n\t// Event to be broadcasted to public when nameId stakes Pathos\n\tevent StakePathos(address indexed taoId, bytes32 indexed stakeId, address indexed nameId, uint256 stakeQuantity, uint256 currentPoolTotalStakedPathos, uint256 timestamp);\n\n\t// Event to be broadcasted to public when nameId withdraws Logos from Ethos Lot\n\tevent WithdrawLogos(address indexed nameId, bytes32 indexed ethosLotId, address indexed taoId, uint256 withdrawnAmount, uint256 currentLotValueInLogos, uint256 currentLotLogosWithdrawn, uint256 timestamp);\n\n\t/**\n\t * @dev Constructor function\n\t */\n\tconstructor(address _nameFactoryAddress, address _taoFactoryAddress, address _nameTAOPositionAddress, address _pathosAddress, address _ethosAddress, address _logosAddress)\n\t\tTAOController(_nameFactoryAddress) public {\n\t\tsetTAOFactoryAddress(_taoFactoryAddress);\n\t\tsetNameTAOPositionAddress(_nameTAOPositionAddress);\n\t\tsetPathosAddress(_pathosAddress);\n\t\tsetEthosAddress(_ethosAddress);\n\t\tsetLogosAddress(_logosAddress);\n\t}\n\n\t/**\n\t * @dev Check if calling address is TAO Factory address\n\t */\n\tmodifier onlyTAOFactory {\n\t\trequire (msg.sender == taoFactoryAddress);\n\t\t_;\n\t}\n\n\t/***** The AO ONLY METHODS *****/\n\t/**\n\t * @dev The AO set the TAOFactory Address\n\t * @param _taoFactoryAddress The address of TAOFactory\n\t */\n\tfunction setTAOFactoryAddress(address _taoFactoryAddress) public onlyTheAO {\n\t\trequire (_taoFactoryAddress != address(0));\n\t\ttaoFactoryAddress = _taoFactoryAddress;\n\t\t_taoFactory = ITAOFactory(_taoFactoryAddress);\n\t}\n\n\t/**\n\t * @dev The AO set the Pathos Address\n\t * @param _pathosAddress The address of Pathos\n\t */\n\tfunction setPathosAddress(address _pathosAddress) public onlyTheAO {\n\t\trequire (_pathosAddress != address(0));\n\t\tpathosAddress = _pathosAddress;\n\t\t_pathos = TAOCurrency(_pathosAddress);\n\t}\n\n\t/**\n\t * @dev The AO set the Ethos Address\n\t * @param _ethosAddress The address of Ethos\n\t */\n\tfunction setEthosAddress(address _ethosAddress) public onlyTheAO {\n\t\trequire (_ethosAddress != address(0));\n\t\tethosAddress = _ethosAddress;\n\t\t_ethos = TAOCurrency(_ethosAddress);\n\t}\n\n\t/**\n\t * @dev The AO set the Logos Address\n\t * @param _logosAddress The address of Logos\n\t */\n\tfunction setLogosAddress(address _logosAddress) public onlyTheAO {\n\t\trequire (_logosAddress != address(0));\n\t\tlogosAddress = _logosAddress;\n\t\t_logos = Logos(_logosAddress);\n\t}\n\n\t/***** PUBLIC METHODS *****/\n\t/**\n\t * @dev Check whether or not Pool exist for a TAO ID\n\t * @param _id The ID to be checked\n\t * @return true if yes, false otherwise\n\t */\n\tfunction isExist(address _id) public view returns (bool) {\n\t\treturn pools[_id].taoId != address(0);\n\t}\n\n\t/**\n\t * @dev Create a pool for a TAO\n\t */\n\tfunction createPool(\n\t\taddress _taoId,\n\t\tbool _ethosCapStatus,\n\t\tuint256 _ethosCapAmount\n\t) external isTAO(_taoId) onlyTAOFactory returns (bool) {\n\t\t// Make sure ethos cap amount is provided if ethos cap is enabled\n\t\tif (_ethosCapStatus) {\n\t\t\trequire (_ethosCapAmount > 0);\n\t\t}\n\t\t// Make sure the pool is not yet created\n\t\trequire (pools[_taoId].taoId == address(0));\n\n\t\tPool storage _pool = pools[_taoId];\n\t\t_pool.taoId = _taoId;\n\t\t_pool.status = true;\n\t\t_pool.ethosCapStatus = _ethosCapStatus;\n\t\tif (_ethosCapStatus) {\n\t\t\t_pool.ethosCapAmount = _ethosCapAmount;\n\t\t}\n\n\t\temit CreatePool(_pool.taoId, _pool.ethosCapStatus, _pool.ethosCapAmount, _pool.status);\n\t\treturn true;\n\t}\n\n\t/**\n\t * @dev Start/Stop a Pool\n\t * @param _taoId The TAO ID of the Pool\n\t * @param _status The status to set. true = start. false = stop\n\t */\n\tfunction updatePoolStatus(address _taoId, bool _status) public isTAO(_taoId) onlyAdvocate(_taoId) senderNameNotCompromised {\n\t\trequire (pools[_taoId].taoId != address(0));\n\t\tpools[_taoId].status = _status;\n\n\t\tuint256 _nonce = _taoFactory.incrementNonce(_taoId);\n\t\trequire (_nonce > 0);\n\n\t\temit UpdatePoolStatus(_taoId, _status, _nonce);\n\t}\n\n\t/**\n\t * @dev Update Ethos cap of a Pool\n\t * @param _taoId The TAO ID of the Pool\n\t * @param _ethosCapStatus The ethos cap status to set\n\t * @param _ethosCapAmount The ethos cap amount to set\n\t */\n\tfunction updatePoolEthosCap(address _taoId, bool _ethosCapStatus, uint256 _ethosCapAmount) public isTAO(_taoId) onlyAdvocate(_taoId) senderNameNotCompromised {\n\t\trequire (pools[_taoId].taoId != address(0));\n\t\t// If there is an ethos cap\n\t\tif (_ethosCapStatus) {\n\t\t\trequire (_ethosCapAmount > 0 && _ethosCapAmount > _pathos.balanceOf(_taoId));\n\t\t}\n\n\t\tpools[_taoId].ethosCapStatus = _ethosCapStatus;\n\t\tif (_ethosCapStatus) {\n\t\t\tpools[_taoId].ethosCapAmount = _ethosCapAmount;\n\t\t}\n\n\t\tuint256 _nonce = _taoFactory.incrementNonce(_taoId);\n\t\trequire (_nonce > 0);\n\n\t\temit UpdatePoolEthosCap(_taoId, _ethosCapStatus, _ethosCapAmount, _nonce);\n\t}\n\n\t/**\n\t * @dev A Name stakes Ethos in Pool `_taoId`\n\t * @param _taoId The TAO ID of the Pool\n\t * @param _quantity The amount of Ethos to be staked\n\t */\n\tfunction stakeEthos(address _taoId, uint256 _quantity) public isTAO(_taoId) senderIsName senderNameNotCompromised {\n\t\tPool memory _pool = pools[_taoId];\n\t\taddress _nameId = _nameFactory.ethAddressToNameId(msg.sender);\n\t\trequire (_pool.status == true && _quantity > 0 && _ethos.balanceOf(_nameId) >= _quantity);\n\n\t\t// If there is an ethos cap\n\t\tif (_pool.ethosCapStatus) {\n\t\t\trequire (_ethos.balanceOf(_taoId).add(_quantity) <= _pool.ethosCapAmount);\n\t\t}\n\n\t\t// Create Ethos Lot for this transaction\n\t\tcontractTotalEthosLot++;\n\t\tpoolTotalEthosLot[_taoId]++;\n\n\t\t// Generate Ethos Lot ID\n\t\tbytes32 _ethosLotId = keccak256(abi.encodePacked(this, msg.sender, contractTotalEthosLot));\n\n\t\tEthosLot storage _ethosLot = ethosLots[_ethosLotId];\n\t\t_ethosLot.ethosLotId = _ethosLotId;\n\t\t_ethosLot.nameId = _nameId;\n\t\t_ethosLot.lotQuantity = _quantity;\n\t\t_ethosLot.taoId = _taoId;\n\t\t_ethosLot.poolPreStakeSnapshot = _ethos.balanceOf(_taoId);\n\t\t_ethosLot.poolStakeLotSnapshot = _ethos.balanceOf(_taoId).add(_quantity);\n\t\t_ethosLot.lotValueInLogos = _quantity;\n\t\t_ethosLot.timestamp = now;\n\n\t\townerEthosLots[_nameId].push(_ethosLotId);\n\n\t\t// Update contract variables\n\t\ttotalEthosStaked[_nameId] = totalEthosStaked[_nameId].add(_quantity);\n\t\tnamePoolEthosStaked[_nameId][_taoId] = namePoolEthosStaked[_nameId][_taoId].add(_quantity);\n\t\tcontractTotalEthos = contractTotalEthos.add(_quantity);\n\n\t\trequire (_ethos.transferFrom(_nameId, _taoId, _quantity));\n\n\t\temit StakeEthos(_ethosLot.taoId, _ethosLot.ethosLotId, _ethosLot.nameId, _ethosLot.lotQuantity, _ethosLot.poolPreStakeSnapshot, _ethosLot.poolStakeLotSnapshot, _ethosLot.lotValueInLogos, _ethosLot.timestamp);\n\t}\n\n\t/**\n\t * @dev Retrieve number of Ethos Lots a `_nameId` has\n\t * @param _nameId The Name ID of the Ethos Lot's owner\n\t * @return Total Ethos Lots the owner has\n\t */\n\tfunction ownerTotalEthosLot(address _nameId) public view returns (uint256) {\n\t\treturn ownerEthosLots[_nameId].length;\n\t}\n\n\t/**\n\t * @dev Get list of owner's Ethos Lot IDs from `_from` to `_to` index\n\t * @param _nameId The Name Id of the Ethos Lot's owner\n\t * @param _from The starting index, (i.e 0)\n\t * @param _to The ending index, (i.e total - 1)\n\t * @return list of owner's Ethos Lot IDs\n\t */\n\tfunction ownerEthosLotIds(address _nameId, uint256 _from, uint256 _to) public view returns (bytes32[]) {\n\t\trequire (_from >= 0 && _to >= _from && ownerEthosLots[_nameId].length > _to);\n\t\tbytes32[] memory _ethosLotIds = new bytes32[](_to.sub(_from).add(1));\n\t\tfor (uint256 i = _from; i <= _to; i++) {\n\t\t\t_ethosLotIds[i.sub(_from)] = ownerEthosLots[_nameId][i];\n\t\t}\n\t\treturn _ethosLotIds;\n\t}\n\n\t/**\n\t * @dev Return the amount of Pathos that can be staked on Pool\n\t * @param _taoId The TAO ID of the Pool\n\t * @return The amount of Pathos that can be staked\n\t */\n\tfunction availablePathosToStake(address _taoId) public isTAO(_taoId) view returns (uint256) {\n\t\tif (pools[_taoId].status == true) {\n\t\t\treturn _ethos.balanceOf(_taoId).sub(_pathos.balanceOf(_taoId));\n\t\t} else {\n\t\t\treturn 0;\n\t\t}\n\t}\n\n\t/**\n\t * @dev A Name stakes Pathos in Pool `_taoId`\n\t * @param _taoId The TAO ID of the Pool\n\t * @param _quantity The amount of Pathos to stake\n\t */\n\tfunction stakePathos(address _taoId, uint256 _quantity) public isTAO(_taoId) senderIsName senderNameNotCompromised {\n\t\tPool memory _pool = pools[_taoId];\n\t\taddress _nameId = _nameFactory.ethAddressToNameId(msg.sender);\n\t\trequire (_pool.status == true && _quantity > 0 && _pathos.balanceOf(_nameId) >= _quantity && _quantity <= availablePathosToStake(_taoId));\n\n\t\t// Update contract variables\n\t\tcontractTotalPathosStake++;\n\t\ttotalPathosStaked[_nameId] = totalPathosStaked[_nameId].add(_quantity);\n\t\tnamePoolPathosStaked[_nameId][_taoId] = namePoolPathosStaked[_nameId][_taoId].add(_quantity);\n\t\tcontractTotalPathos = contractTotalPathos.add(_quantity);\n\n\t\t// Generate Pathos Stake ID\n\t\tbytes32 _stakeId = keccak256(abi.encodePacked(this, msg.sender, contractTotalPathosStake));\n\n\t\trequire (_pathos.transferFrom(_nameId, _taoId, _quantity));\n\n\t\t// Also add advocated TAO logos to Advocate of _taoId\n\t\trequire (_logos.addAdvocatedTAOLogos(_taoId, _quantity));\n\n\t\temit StakePathos(_taoId, _stakeId, _nameId, _quantity, _pathos.balanceOf(_taoId), now);\n\t}\n\n\t/**\n\t * @dev Name that staked Ethos withdraw Logos from Ethos Lot `_ethosLotId`\n\t * @param _ethosLotId The ID of the Ethos Lot\n\t */\n\tfunction withdrawLogos(bytes32 _ethosLotId) public senderIsName senderNameNotCompromised {\n\t\tEthosLot storage _ethosLot = ethosLots[_ethosLotId];\n\t\taddress _nameId = _nameFactory.ethAddressToNameId(msg.sender);\n\t\trequire (_ethosLot.nameId == _nameId && _ethosLot.lotValueInLogos > 0);\n\n\t\tuint256 logosAvailableToWithdraw = lotLogosAvailableToWithdraw(_ethosLotId);\n\n\t\trequire (logosAvailableToWithdraw > 0 && logosAvailableToWithdraw <= _ethosLot.lotValueInLogos);\n\n\t\t// Update lot variables\n\t\t_ethosLot.logosWithdrawn = _ethosLot.logosWithdrawn.add(logosAvailableToWithdraw);\n\t\t_ethosLot.lotValueInLogos = _ethosLot.lotValueInLogos.sub(logosAvailableToWithdraw);\n\n\t\t// Update contract variables\n\t\tcontractTotalLogosWithdrawn = contractTotalLogosWithdrawn.add(logosAvailableToWithdraw);\n\t\tpoolTotalLogosWithdrawn[_ethosLot.taoId] = poolTotalLogosWithdrawn[_ethosLot.taoId].add(logosAvailableToWithdraw);\n\t\ttotalLogosWithdrawn[_ethosLot.nameId] = totalLogosWithdrawn[_ethosLot.nameId].add(logosAvailableToWithdraw);\n\t\tnamePoolLogosWithdrawn[_ethosLot.nameId][_ethosLot.taoId] = namePoolLogosWithdrawn[_ethosLot.nameId][_ethosLot.taoId].add(logosAvailableToWithdraw);\n\n\t\t// Mint logos to seller\n\t\trequire (_logos.mint(_nameId, logosAvailableToWithdraw));\n\n\t\temit WithdrawLogos(_ethosLot.nameId, _ethosLot.ethosLotId, _ethosLot.taoId, logosAvailableToWithdraw, _ethosLot.lotValueInLogos, _ethosLot.logosWithdrawn, now);\n\t}\n\n\t/**\n\t * @dev Name gets Ethos Lot `_ethosLotId` available Logos to withdraw\n\t * @param _ethosLotId The ID of the Ethos Lot\n\t * @return The amount of Logos available to withdraw\n\t */\n\tfunction lotLogosAvailableToWithdraw(bytes32 _ethosLotId) public view returns (uint256) {\n\t\tEthosLot memory _ethosLot = ethosLots[_ethosLotId];\n\t\trequire (_ethosLot.nameId != address(0));\n\n\t\tuint256 logosAvailableToWithdraw = 0;\n\n\t\tif (_pathos.balanceOf(_ethosLot.taoId) > _ethosLot.poolPreStakeSnapshot && _ethosLot.lotValueInLogos > 0) {\n\t\t\tlogosAvailableToWithdraw = (_pathos.balanceOf(_ethosLot.taoId) >= _ethosLot.poolStakeLotSnapshot) ? _ethosLot.lotQuantity : _pathos.balanceOf(_ethosLot.taoId).sub(_ethosLot.poolPreStakeSnapshot);\n\t\t\tif (logosAvailableToWithdraw > 0) {\n\t\t\t\tlogosAvailableToWithdraw = logosAvailableToWithdraw.sub(_ethosLot.logosWithdrawn);\n\t\t\t}\n\t\t}\n\t\treturn logosAvailableToWithdraw;\n\t}\n}\n",
	"sourcePath": "/Users/johanmulyono/Work/AO/ao-contracts/contracts/TAOPool.sol",
	"compiler": {
		"name": "solc",
		"version": "0.4.24+commit.e67f0147.Emscripten.clang"
	},
	"schemaVersion": "2.0.1",
	"updatedAt": "2019-03-22T03:50:43.812Z"
}