{
	"contractName": "TAOVoice",
	"abi": [
		{
			"constant": false,
			"inputs": [
				{
					"name": "_nameAccountRecoveryAddress",
					"type": "address"
				}
			],
			"name": "setNameAccountRecoveryAddress",
			"outputs": [],
			"payable": false,
			"stateMutability": "nonpayable",
			"type": "function"
		},
		{
			"constant": true,
			"inputs": [],
			"name": "voiceAddress",
			"outputs": [
				{
					"name": "",
					"type": "address"
				}
			],
			"payable": false,
			"stateMutability": "view",
			"type": "function"
		},
		{
			"constant": true,
			"inputs": [],
			"name": "nameTAOPositionAddress",
			"outputs": [
				{
					"name": "",
					"type": "address"
				}
			],
			"payable": false,
			"stateMutability": "view",
			"type": "function"
		},
		{
			"constant": false,
			"inputs": [
				{
					"name": "_account",
					"type": "address"
				},
				{
					"name": "_whitelist",
					"type": "bool"
				}
			],
			"name": "setWhitelist",
			"outputs": [],
			"payable": false,
			"stateMutability": "nonpayable",
			"type": "function"
		},
		{
			"constant": false,
			"inputs": [
				{
					"name": "_nameTAOPositionAddress",
					"type": "address"
				}
			],
			"name": "setNameTAOPositionAddress",
			"outputs": [],
			"payable": false,
			"stateMutability": "nonpayable",
			"type": "function"
		},
		{
			"constant": false,
			"inputs": [
				{
					"name": "_nameFactoryAddress",
					"type": "address"
				}
			],
			"name": "setNameFactoryAddress",
			"outputs": [],
			"payable": false,
			"stateMutability": "nonpayable",
			"type": "function"
		},
		{
			"constant": true,
			"inputs": [
				{
					"name": "",
					"type": "address"
				}
			],
			"name": "whitelist",
			"outputs": [
				{
					"name": "",
					"type": "bool"
				}
			],
			"payable": false,
			"stateMutability": "view",
			"type": "function"
		},
		{
			"constant": true,
			"inputs": [],
			"name": "nameAccountRecoveryAddress",
			"outputs": [
				{
					"name": "",
					"type": "address"
				}
			],
			"payable": false,
			"stateMutability": "view",
			"type": "function"
		},
		{
			"constant": true,
			"inputs": [],
			"name": "theAO",
			"outputs": [
				{
					"name": "",
					"type": "address"
				}
			],
			"payable": false,
			"stateMutability": "view",
			"type": "function"
		},
		{
			"constant": true,
			"inputs": [],
			"name": "nameFactoryAddress",
			"outputs": [
				{
					"name": "",
					"type": "address"
				}
			],
			"payable": false,
			"stateMutability": "view",
			"type": "function"
		},
		{
			"constant": false,
			"inputs": [
				{
					"name": "_theAO",
					"type": "address"
				}
			],
			"name": "transferOwnership",
			"outputs": [],
			"payable": false,
			"stateMutability": "nonpayable",
			"type": "function"
		},
		{
			"inputs": [
				{
					"name": "_nameFactoryAddress",
					"type": "address"
				},
				{
					"name": "_voiceAddress",
					"type": "address"
				},
				{
					"name": "_nameTAOPositionAddress",
					"type": "address"
				}
			],
			"payable": false,
			"stateMutability": "nonpayable",
			"type": "constructor"
		},
		{
			"constant": false,
			"inputs": [
				{
					"name": "_voiceAddress",
					"type": "address"
				}
			],
			"name": "setVoiceAddress",
			"outputs": [],
			"payable": false,
			"stateMutability": "nonpayable",
			"type": "function"
		},
		{
			"constant": false,
			"inputs": [
				{
					"name": "_taoId",
					"type": "address"
				},
				{
					"name": "_voiceAmount",
					"type": "uint256"
				}
			],
			"name": "stakeVoice",
			"outputs": [],
			"payable": false,
			"stateMutability": "nonpayable",
			"type": "function"
		},
		{
			"constant": false,
			"inputs": [
				{
					"name": "_taoId",
					"type": "address"
				},
				{
					"name": "_voiceAmount",
					"type": "uint256"
				}
			],
			"name": "unstakeVoice",
			"outputs": [],
			"payable": false,
			"stateMutability": "nonpayable",
			"type": "function"
		}
	],
	"bytecode": "0x60806040523480156200001157600080fd5b506040516060806200123c83398101604090815281516020830151919092015160008054600160a060020a031916331790558262000058816401000000006200008a810204565b506200006d826401000000006200018f810204565b620000818164010000000062000294810204565b50505062000399565b600054600154604080517ff66afcac000000000000000000000000000000000000000000000000000000008152336004820152600160a060020a0393841660248201529290911660448301525173__AOLibrary_____________________________9163f66afcac916064808301926020929190829003018186803b1580156200011357600080fd5b505af415801562000128573d6000803e3d6000fd5b505050506040513d60208110156200013f57600080fd5b505115156200014d57600080fd5b600160a060020a03811615156200016357600080fd5b60038054600160a060020a03909216600160a060020a0319928316811790915560058054909216179055565b600054600154604080517ff66afcac000000000000000000000000000000000000000000000000000000008152336004820152600160a060020a0393841660248201529290911660448301525173__AOLibrary_____________________________9163f66afcac916064808301926020929190829003018186803b1580156200021857600080fd5b505af41580156200022d573d6000803e3d6000fd5b505050506040513d60208110156200024457600080fd5b505115156200025257600080fd5b600160a060020a03811615156200026857600080fd5b60088054600160a060020a03909216600160a060020a0319928316811790915560098054909216179055565b600054600154604080517ff66afcac000000000000000000000000000000000000000000000000000000008152336004820152600160a060020a0393841660248201529290911660448301525173__AOLibrary_____________________________9163f66afcac916064808301926020929190829003018186803b1580156200031d57600080fd5b505af415801562000332573d6000803e3d6000fd5b505050506040513d60208110156200034957600080fd5b505115156200035757600080fd5b600160a060020a03811615156200036d57600080fd5b60018054600160a060020a03909216600160a060020a0319928316811790915560068054909216179055565b610e9380620003a96000396000f3006080604052600436106100b65763ffffffff60e060020a600035041663034767ec81146100bb57806319d4cc31146100e15780631dfde2bd146101025780632d2f45b9146101235780634ef033f01461015457806353d6fd59146101695780635cfaf2ef1461018f5780638c924361146101b05780639b19251a146101d1578063a4e5fad214610206578063a9b6b38e1461021b578063bc40620614610230578063f2fde38b14610245578063f929784314610266575b600080fd5b3480156100c757600080fd5b506100df600160a060020a036004351660243561028a565b005b3480156100ed57600080fd5b506100df600160a060020a03600435166105cc565b34801561010e57600080fd5b506100df600160a060020a03600435166106c3565b34801561012f57600080fd5b506101386107bd565b60408051600160a060020a039092168252519081900360200190f35b34801561016057600080fd5b506101386107cc565b34801561017557600080fd5b506100df600160a060020a036004351660243515156107db565b34801561019b57600080fd5b506100df600160a060020a03600435166108c4565b3480156101bc57600080fd5b506100df600160a060020a03600435166109bb565b3480156101dd57600080fd5b506101f2600160a060020a0360043516610ab2565b604080519115158252519081900360200190f35b34801561021257600080fd5b50610138610ac7565b34801561022757600080fd5b50610138610ad6565b34801561023c57600080fd5b50610138610ae5565b34801561025157600080fd5b506100df600160a060020a0360043516610af4565b34801561027257600080fd5b506100df600160a060020a0360043516602435610be1565b8173__AOLibrary_____________________________632fca5414826040518263ffffffff1660e060020a0281526004018082600160a060020a0316600160a060020a0316815260200191505060206040518083038186803b1580156102ef57600080fd5b505af4158015610303573d6000803e3d6000fd5b505050506040513d602081101561031957600080fd5b5051151561032657600080fd5b6005546040805160e060020a63029b7d530281523360048201529051600092600160a060020a03169163029b7d5391602480830192602092919082900301818787803b15801561037557600080fd5b505af1158015610389573d6000803e3d6000fd5b505050506040513d602081101561039f57600080fd5b5051600160a060020a031614156103b557600080fd5b6007546005546040805160e060020a63029b7d530281523360048201529051600160a060020a0393841693633ebc2ab393169163029b7d539160248083019260209291908290030181600087803b15801561040f57600080fd5b505af1158015610423573d6000803e3d6000fd5b505050506040513d602081101561043957600080fd5b50516040805160e060020a63ffffffff8516028152600160a060020a0390921660048301525160248083019260209291908290030181600087803b15801561048057600080fd5b505af1158015610494573d6000803e3d6000fd5b505050506040513d60208110156104aa57600080fd5b5051156104b657600080fd5b6009546005546040805160e060020a63029b7d530281523360048201529051600160a060020a039384169363bf6eac2f93169163029b7d539160248083019260209291908290030181600087803b15801561051057600080fd5b505af1158015610524573d6000803e3d6000fd5b505050506040513d602081101561053a57600080fd5b50516040805160e060020a63ffffffff8516028152600160a060020a0392831660048201529187166024830152604482018690525160648083019260209291908290030181600087803b15801561059057600080fd5b505af11580156105a4573d6000803e3d6000fd5b505050506040513d60208110156105ba57600080fd5b505115156105c757600080fd5b505050565b6000546001546040805160e260020a633d9abf2b028152336004820152600160a060020a0393841660248201529290911660448301525173__AOLibrary_____________________________9163f66afcac916064808301926020929190829003018186803b15801561063e57600080fd5b505af4158015610652573d6000803e3d6000fd5b505050506040513d602081101561066857600080fd5b5051151561067557600080fd5b600160a060020a038116151561068a57600080fd5b60088054600160a060020a0390921673ffffffffffffffffffffffffffffffffffffffff19928316811790915560098054909216179055565b6000546001546040805160e260020a633d9abf2b028152336004820152600160a060020a0393841660248201529290911660448301525173__AOLibrary_____________________________9163f66afcac916064808301926020929190829003018186803b15801561073557600080fd5b505af4158015610749573d6000803e3d6000fd5b505050506040513d602081101561075f57600080fd5b5051151561076c57600080fd5b600160a060020a038116151561078157600080fd5b6004805473ffffffffffffffffffffffffffffffffffffffff19908116600160a060020a03938416179182905560078054929093169116179055565b600854600160a060020a031681565b600154600160a060020a031681565b6000546001546040805160e260020a633d9abf2b028152336004820152600160a060020a0393841660248201529290911660448301525173__AOLibrary_____________________________9163f66afcac916064808301926020929190829003018186803b15801561084d57600080fd5b505af4158015610861573d6000803e3d6000fd5b505050506040513d602081101561087757600080fd5b5051151561088457600080fd5b600160a060020a038216151561089957600080fd5b600160a060020a03919091166000908152600260205260409020805460ff1916911515919091179055565b6000546001546040805160e260020a633d9abf2b028152336004820152600160a060020a0393841660248201529290911660448301525173__AOLibrary_____________________________9163f66afcac916064808301926020929190829003018186803b15801561093657600080fd5b505af415801561094a573d6000803e3d6000fd5b505050506040513d602081101561096057600080fd5b5051151561096d57600080fd5b600160a060020a038116151561098257600080fd5b60018054600160a060020a0390921673ffffffffffffffffffffffffffffffffffffffff19928316811790915560068054909216179055565b6000546001546040805160e260020a633d9abf2b028152336004820152600160a060020a0393841660248201529290911660448301525173__AOLibrary_____________________________9163f66afcac916064808301926020929190829003018186803b158015610a2d57600080fd5b505af4158015610a41573d6000803e3d6000fd5b505050506040513d6020811015610a5757600080fd5b50511515610a6457600080fd5b600160a060020a0381161515610a7957600080fd5b60038054600160a060020a0390921673ffffffffffffffffffffffffffffffffffffffff19928316811790915560058054909216179055565b60026020526000908152604090205460ff1681565b600454600160a060020a031681565b600054600160a060020a031681565b600354600160a060020a031681565b6000546001546040805160e260020a633d9abf2b028152336004820152600160a060020a0393841660248201529290911660448301525173__AOLibrary_____________________________9163f66afcac916064808301926020929190829003018186803b158015610b6657600080fd5b505af4158015610b7a573d6000803e3d6000fd5b505050506040513d6020811015610b9057600080fd5b50511515610b9d57600080fd5b600160a060020a0381161515610bb257600080fd5b6000805473ffffffffffffffffffffffffffffffffffffffff1916600160a060020a0392909216919091179055565b8173__AOLibrary_____________________________632fca5414826040518263ffffffff1660e060020a0281526004018082600160a060020a0316600160a060020a0316815260200191505060206040518083038186803b158015610c4657600080fd5b505af4158015610c5a573d6000803e3d6000fd5b505050506040513d6020811015610c7057600080fd5b50511515610c7d57600080fd5b6005546040805160e060020a63029b7d530281523360048201529051600092600160a060020a03169163029b7d5391602480830192602092919082900301818787803b158015610ccc57600080fd5b505af1158015610ce0573d6000803e3d6000fd5b505050506040513d6020811015610cf657600080fd5b5051600160a060020a03161415610d0c57600080fd5b6007546005546040805160e060020a63029b7d530281523360048201529051600160a060020a0393841693633ebc2ab393169163029b7d539160248083019260209291908290030181600087803b158015610d6657600080fd5b505af1158015610d7a573d6000803e3d6000fd5b505050506040513d6020811015610d9057600080fd5b50516040805160e060020a63ffffffff8516028152600160a060020a0390921660048301525160248083019260209291908290030181600087803b158015610dd757600080fd5b505af1158015610deb573d6000803e3d6000fd5b505050506040513d6020811015610e0157600080fd5b505115610e0d57600080fd5b6009546005546040805160e060020a63029b7d530281523360048201529051600160a060020a03938416936360829f8a93169163029b7d539160248083019260209291908290030181600087803b15801561051057600080fd00a165627a7a72305820c47966a34a6aac3e97e0128e3d982d353f0772c21dbfcd2f2bebe6726ab3a3320029",
	"source": "pragma solidity ^0.4.24;\n\nimport './TAOController.sol';\nimport './Voice.sol';\n\n/**\n * @title TAOVoice\n *\n * The purpose of this contract is for Name to stake/unstake Voice on a TAO\n */\ncontract TAOVoice is TAOController {\n\taddress public voiceAddress;\n\n\tVoice internal _voice;\n\n\t/**\n\t * @dev Constructor function\n\t */\n\tconstructor(address _nameFactoryAddress, address _voiceAddress, address _nameTAOPositionAddress)\n\t\tTAOController(_nameFactoryAddress) public {\n\t\tsetVoiceAddress(_voiceAddress);\n\t\tsetNameTAOPositionAddress(_nameTAOPositionAddress);\n\t}\n\n\t/***** The AO ONLY METHODS *****/\n\t/**\n\t * @dev The AO set the Voice Address\n\t * @param _voiceAddress The address of Voice\n\t */\n\tfunction setVoiceAddress(address _voiceAddress) public onlyTheAO {\n\t\trequire (_voiceAddress != address(0));\n\t\tvoiceAddress = _voiceAddress;\n\t\t_voice = Voice(_voiceAddress);\n\t}\n\n\t/***** PUBLIC METHODS *****/\n\t/**\n\t * @dev Name stakes Voice on a TAO\n\t * @param _taoId The ID of the TAO\n\t * @param _voiceAmount The amount of Voice to stake\n\t */\n\tfunction stakeVoice(address _taoId, uint256 _voiceAmount) public isTAO(_taoId) senderIsName senderNameNotCompromised {\n\t\trequire (_voice.stake(_nameFactory.ethAddressToNameId(msg.sender), _taoId, _voiceAmount));\n\t}\n\n\t/**\n\t * @dev Name unstakes Voice on a TAO\n\t * @param _taoId The ID of the TAO\n\t * @param _voiceAmount The amount of Voice to unstake\n\t */\n\tfunction unstakeVoice(address _taoId, uint256 _voiceAmount) public isTAO(_taoId) senderIsName senderNameNotCompromised {\n\t\trequire (_voice.unstake(_nameFactory.ethAddressToNameId(msg.sender), _taoId, _voiceAmount));\n\t}\n}\n",
	"sourcePath": "/Users/johanmulyono/Work/AO/ao-contracts/contracts/TAOVoice.sol",
	"compiler": {
		"name": "solc",
		"version": "0.4.24+commit.e67f0147.Emscripten.clang"
	},
	"schemaVersion": "2.0.1",
	"updatedAt": "2019-04-04T04:29:46.782Z"
}