{
	"contractName": "TheAO",
	"abi": [
		{
			"constant": true,
			"inputs": [],
			"name": "nameTAOPositionAddress",
			"outputs": [
				{
					"name": "",
					"type": "address"
				}
			],
			"payable": false,
			"stateMutability": "view",
			"type": "function"
		},
		{
			"constant": true,
			"inputs": [
				{
					"name": "",
					"type": "address"
				}
			],
			"name": "whitelist",
			"outputs": [
				{
					"name": "",
					"type": "bool"
				}
			],
			"payable": false,
			"stateMutability": "view",
			"type": "function"
		},
		{
			"constant": true,
			"inputs": [],
			"name": "theAO",
			"outputs": [
				{
					"name": "",
					"type": "address"
				}
			],
			"payable": false,
			"stateMutability": "view",
			"type": "function"
		},
		{
			"inputs": [],
			"payable": false,
			"stateMutability": "nonpayable",
			"type": "constructor"
		},
		{
			"constant": false,
			"inputs": [
				{
					"name": "_theAO",
					"type": "address"
				}
			],
			"name": "transferOwnership",
			"outputs": [],
			"payable": false,
			"stateMutability": "nonpayable",
			"type": "function"
		},
		{
			"constant": false,
			"inputs": [
				{
					"name": "_account",
					"type": "address"
				},
				{
					"name": "_whitelist",
					"type": "bool"
				}
			],
			"name": "setWhitelist",
			"outputs": [],
			"payable": false,
			"stateMutability": "nonpayable",
			"type": "function"
		}
	],
	"bytecode": "0x608060405234801561001057600080fd5b5060008054600160a060020a03191633179055610246806100326000396000f30060806040526004361061006c5763ffffffff7c01000000000000000000000000000000000000000000000000000000006000350416634ef033f0811461007157806353d6fd59146100a25780639b19251a146100ca578063a9b6b38e146100ff578063f2fde38b14610114575b600080fd5b34801561007d57600080fd5b50610086610135565b60408051600160a060020a039092168252519081900360200190f35b3480156100ae57600080fd5b506100c8600160a060020a03600435166024351515610144565b005b3480156100d657600080fd5b506100eb600160a060020a036004351661019b565b604080519115158252519081900360200190f35b34801561010b57600080fd5b506100866101b0565b34801561012057600080fd5b506100c8600160a060020a03600435166101bf565b600154600160a060020a031681565b600054600160a060020a0316331461015b57600080fd5b600160a060020a038216151561017057600080fd5b600160a060020a03919091166000908152600260205260409020805460ff1916911515919091179055565b60026020526000908152604090205460ff1681565b600054600160a060020a031681565b600054600160a060020a031633146101d657600080fd5b600160a060020a03811615156101eb57600080fd5b6000805473ffffffffffffffffffffffffffffffffffffffff1916600160a060020a03929092169190911790555600a165627a7a7230582046c67569b0f70f54acd76f77deeab7dc43a4bf8c02585b59fd7a5062558a7e790029",
	"source": "pragma solidity ^0.4.24;\n\ncontract TheAO {\n\taddress public theAO;\n\taddress public nameTAOPositionAddress;\n\n\t// Check whether an address is whitelisted and granted access to transact\n\t// on behalf of others\n\tmapping (address => bool) public whitelist;\n\n\tconstructor() public {\n\t\ttheAO = msg.sender;\n\t}\n\n\t/**\n\t * @dev Checks if msg.sender is in whitelist.\n\t */\n\tmodifier inWhitelist() {\n\t\trequire (whitelist[msg.sender] == true);\n\t\t_;\n\t}\n\n\t/**\n\t * @dev Transfer ownership of The AO to new address\n\t * @param _theAO The new address to be transferred\n\t */\n\tfunction transferOwnership(address _theAO) public {\n\t\trequire (msg.sender == theAO);\n\t\trequire (_theAO != address(0));\n\t\ttheAO = _theAO;\n\t}\n\n\t/**\n\t * @dev Whitelist `_account` address to transact on behalf of others\n\t * @param _account The address to whitelist\n\t * @param _whitelist Either to whitelist or not\n\t */\n\tfunction setWhitelist(address _account, bool _whitelist) public {\n\t\trequire (msg.sender == theAO);\n\t\trequire (_account != address(0));\n\t\twhitelist[_account] = _whitelist;\n\t}\n}\n",
	"sourcePath": "/Users/johanmulyono/Work/AO/ao-contracts/contracts/TheAO.sol",
	"compiler": {
		"name": "solc",
		"version": "0.4.24+commit.e67f0147.Emscripten.clang"
	},
	"schemaVersion": "2.0.1",
	"updatedAt": "2019-02-20T03:01:43.974Z"
}