{
	"contractName": "TokenERC20",
	"abi": [
		{
			"constant": true,
			"inputs": [],
			"name": "name",
			"outputs": [
				{
					"name": "",
					"type": "string"
				}
			],
			"payable": false,
			"stateMutability": "view",
			"type": "function"
		},
		{
			"constant": true,
			"inputs": [],
			"name": "totalSupply",
			"outputs": [
				{
					"name": "",
					"type": "uint256"
				}
			],
			"payable": false,
			"stateMutability": "view",
			"type": "function"
		},
		{
			"constant": true,
			"inputs": [],
			"name": "decimals",
			"outputs": [
				{
					"name": "",
					"type": "uint8"
				}
			],
			"payable": false,
			"stateMutability": "view",
			"type": "function"
		},
		{
			"constant": true,
			"inputs": [
				{
					"name": "",
					"type": "address"
				}
			],
			"name": "balanceOf",
			"outputs": [
				{
					"name": "",
					"type": "uint256"
				}
			],
			"payable": false,
			"stateMutability": "view",
			"type": "function"
		},
		{
			"constant": true,
			"inputs": [],
			"name": "symbol",
			"outputs": [
				{
					"name": "",
					"type": "string"
				}
			],
			"payable": false,
			"stateMutability": "view",
			"type": "function"
		},
		{
			"constant": true,
			"inputs": [
				{
					"name": "",
					"type": "address"
				},
				{
					"name": "",
					"type": "address"
				}
			],
			"name": "allowance",
			"outputs": [
				{
					"name": "",
					"type": "uint256"
				}
			],
			"payable": false,
			"stateMutability": "view",
			"type": "function"
		},
		{
			"inputs": [
				{
					"name": "initialSupply",
					"type": "uint256"
				},
				{
					"name": "tokenName",
					"type": "string"
				},
				{
					"name": "tokenSymbol",
					"type": "string"
				}
			],
			"payable": false,
			"stateMutability": "nonpayable",
			"type": "constructor"
		},
		{
			"anonymous": false,
			"inputs": [
				{
					"indexed": true,
					"name": "from",
					"type": "address"
				},
				{
					"indexed": true,
					"name": "to",
					"type": "address"
				},
				{
					"indexed": false,
					"name": "value",
					"type": "uint256"
				}
			],
			"name": "Transfer",
			"type": "event"
		},
		{
			"anonymous": false,
			"inputs": [
				{
					"indexed": true,
					"name": "_owner",
					"type": "address"
				},
				{
					"indexed": true,
					"name": "_spender",
					"type": "address"
				},
				{
					"indexed": false,
					"name": "_value",
					"type": "uint256"
				}
			],
			"name": "Approval",
			"type": "event"
		},
		{
			"anonymous": false,
			"inputs": [
				{
					"indexed": true,
					"name": "from",
					"type": "address"
				},
				{
					"indexed": false,
					"name": "value",
					"type": "uint256"
				}
			],
			"name": "Burn",
			"type": "event"
		},
		{
			"constant": false,
			"inputs": [
				{
					"name": "_to",
					"type": "address"
				},
				{
					"name": "_value",
					"type": "uint256"
				}
			],
			"name": "transfer",
			"outputs": [
				{
					"name": "success",
					"type": "bool"
				}
			],
			"payable": false,
			"stateMutability": "nonpayable",
			"type": "function"
		},
		{
			"constant": false,
			"inputs": [
				{
					"name": "_from",
					"type": "address"
				},
				{
					"name": "_to",
					"type": "address"
				},
				{
					"name": "_value",
					"type": "uint256"
				}
			],
			"name": "transferFrom",
			"outputs": [
				{
					"name": "success",
					"type": "bool"
				}
			],
			"payable": false,
			"stateMutability": "nonpayable",
			"type": "function"
		},
		{
			"constant": false,
			"inputs": [
				{
					"name": "_spender",
					"type": "address"
				},
				{
					"name": "_value",
					"type": "uint256"
				}
			],
			"name": "approve",
			"outputs": [
				{
					"name": "success",
					"type": "bool"
				}
			],
			"payable": false,
			"stateMutability": "nonpayable",
			"type": "function"
		},
		{
			"constant": false,
			"inputs": [
				{
					"name": "_spender",
					"type": "address"
				},
				{
					"name": "_value",
					"type": "uint256"
				},
				{
					"name": "_extraData",
					"type": "bytes"
				}
			],
			"name": "approveAndCall",
			"outputs": [
				{
					"name": "success",
					"type": "bool"
				}
			],
			"payable": false,
			"stateMutability": "nonpayable",
			"type": "function"
		},
		{
			"constant": false,
			"inputs": [
				{
					"name": "_value",
					"type": "uint256"
				}
			],
			"name": "burn",
			"outputs": [
				{
					"name": "success",
					"type": "bool"
				}
			],
			"payable": false,
			"stateMutability": "nonpayable",
			"type": "function"
		},
		{
			"constant": false,
			"inputs": [
				{
					"name": "_from",
					"type": "address"
				},
				{
					"name": "_value",
					"type": "uint256"
				}
			],
			"name": "burnFrom",
			"outputs": [
				{
					"name": "success",
					"type": "bool"
				}
			],
			"payable": false,
			"stateMutability": "nonpayable",
			"type": "function"
		}
	],
	"bytecode": "0x60806040526002805460ff1916601217905534801561001d57600080fd5b50604051610a04380380610a0483398101604090815281516020808401518385015160025460ff16600a0a84026003819055336000908152600485529586205590850180519395909491019261007592850190610092565b508051610089906001906020840190610092565b5050505061012d565b828054600181600116156101000203166002900490600052602060002090601f016020900481019282601f106100d357805160ff1916838001178555610100565b82800160010185558215610100579182015b828111156101005782518255916020019190600101906100e5565b5061010c929150610110565b5090565b61012a91905b8082111561010c5760008155600101610116565b90565b6108c88061013c6000396000f3006080604052600436106100b95763ffffffff7c010000000000000000000000000000000000000000000000000000000060003504166306fdde0381146100be578063095ea7b31461014857806318160ddd1461018057806323b872dd146101a7578063313ce567146101d157806342966c68146101fc57806370a082311461021457806379cc67901461023557806395d89b4114610259578063a9059cbb1461026e578063cae9ca5114610292578063dd62ed3e146102fb575b600080fd5b3480156100ca57600080fd5b506100d3610322565b6040805160208082528351818301528351919283929083019185019080838360005b8381101561010d5781810151838201526020016100f5565b50505050905090810190601f16801561013a5780820380516001836020036101000a031916815260200191505b509250505060405180910390f35b34801561015457600080fd5b5061016c600160a060020a03600435166024356103b0565b604080519115158252519081900360200190f35b34801561018c57600080fd5b50610195610416565b60408051918252519081900360200190f35b3480156101b357600080fd5b5061016c600160a060020a036004358116906024351660443561041c565b3480156101dd57600080fd5b506101e661048b565b6040805160ff9092168252519081900360200190f35b34801561020857600080fd5b5061016c600435610494565b34801561022057600080fd5b50610195600160a060020a036004351661050c565b34801561024157600080fd5b5061016c600160a060020a036004351660243561051e565b34801561026557600080fd5b506100d36105ef565b34801561027a57600080fd5b5061016c600160a060020a0360043516602435610649565b34801561029e57600080fd5b50604080516020600460443581810135601f810184900484028501840190955284845261016c948235600160a060020a031694602480359536959460649492019190819084018382808284375094975061065f9650505050505050565b34801561030757600080fd5b50610195600160a060020a0360043581169060243516610778565b6000805460408051602060026001851615610100026000190190941693909304601f810184900484028201840190925281815292918301828280156103a85780601f1061037d576101008083540402835291602001916103a8565b820191906000526020600020905b81548152906001019060200180831161038b57829003601f168201915b505050505081565b336000818152600560209081526040808320600160a060020a038716808552908352818420869055815186815291519394909390927f8c5be1e5ebec7d5bd14f71427d1e84f3dd0314c0f7b2291e5b200ac8c7c3b925928290030190a350600192915050565b60035481565b600160a060020a038316600090815260056020908152604080832033845290915281205482111561044c57600080fd5b600160a060020a0384166000908152600560209081526040808320338452909152902080548390039055610481848484610795565b5060019392505050565b60025460ff1681565b336000908152600460205260408120548211156104b057600080fd5b3360008181526004602090815260409182902080548690039055600380548690039055815185815291517fcc16f5dbb4873280815c1ee09dbd06736cffcc184412cf7a71a0fdb75d397ca59281900390910190a2506001919050565b60046020526000908152604090205481565b600160a060020a03821660009081526004602052604081205482111561054357600080fd5b600160a060020a038316600090815260056020908152604080832033845290915290205482111561057357600080fd5b600160a060020a0383166000818152600460209081526040808320805487900390556005825280832033845282529182902080548690039055600380548690039055815185815291517fcc16f5dbb4873280815c1ee09dbd06736cffcc184412cf7a71a0fdb75d397ca59281900390910190a250600192915050565b60018054604080516020600284861615610100026000190190941693909304601f810184900484028201840190925281815292918301828280156103a85780601f1061037d576101008083540402835291602001916103a8565b6000610656338484610795565b50600192915050565b60008361066c81856103b0565b15610770576040517f8f4ffcb10000000000000000000000000000000000000000000000000000000081523360048201818152602483018790523060448401819052608060648501908152875160848601528751600160a060020a03871695638f4ffcb195948b94938b939192909160a490910190602085019080838360005b838110156107045781810151838201526020016106ec565b50505050905090810190601f1680156107315780820380516001836020036101000a031916815260200191505b5095505050505050600060405180830381600087803b15801561075357600080fd5b505af1158015610767573d6000803e3d6000fd5b50505050600191505b509392505050565b600560209081526000928352604080842090915290825290205481565b6000600160a060020a03831615156107ac57600080fd5b600160a060020a0384166000908152600460205260409020548211156107d157600080fd5b600160a060020a038316600090815260046020526040902054828101116107f757600080fd5b50600160a060020a038083166000818152600460209081526040808320805495891680855282852080548981039091559486905281548801909155815187815291519390950194927fddf252ad1be2c89b69c2b068fc378daa952ba7f163c4a11628f55a4df523b3ef929181900390910190a3600160a060020a0380841660009081526004602052604080822054928716825290205401811461089657fe5b505050505600a165627a7a7230582040a2e3d7248eccbb6c560c161d7871cdee0cd95a9475099cf15f534d3482a3170029",
	"source": "pragma solidity ^0.4.24;\n\nimport \"./tokenRecipient.sol\";\n\ncontract TokenERC20 {\n\t// Public variables of the token\n\tstring public name;\n\tstring public symbol;\n\tuint8 public decimals = 18;\n\t// 18 decimals is the strongly suggested default, avoid changing it\n\tuint256 public totalSupply;\n\n\t// This creates an array with all balances\n\tmapping (address => uint256) public balanceOf;\n\tmapping (address => mapping (address => uint256)) public allowance;\n\n\t// This generates a public event on the blockchain that will notify clients\n\tevent Transfer(address indexed from, address indexed to, uint256 value);\n\n\t// This generates a public event on the blockchain that will notify clients\n\tevent Approval(address indexed _owner, address indexed _spender, uint256 _value);\n\n\t// This notifies clients about the amount burnt\n\tevent Burn(address indexed from, uint256 value);\n\n\t/**\n\t * Constructor function\n\t *\n\t * Initializes contract with initial supply tokens to the creator of the contract\n\t */\n\tconstructor (uint256 initialSupply, string tokenName, string tokenSymbol) public {\n\t\ttotalSupply = initialSupply * 10 ** uint256(decimals);  // Update total supply with the decimal amount\n\t\tbalanceOf[msg.sender] = totalSupply;                // Give the creator all initial tokens\n\t\tname = tokenName;                                   // Set the name for display purposes\n\t\tsymbol = tokenSymbol;                               // Set the symbol for display purposes\n\t}\n\n\t/**\n\t * Internal transfer, only can be called by this contract\n\t */\n\tfunction _transfer(address _from, address _to, uint _value) internal {\n\t\t// Prevent transfer to 0x0 address. Use burn() instead\n\t\trequire(_to != 0x0);\n\t\t// Check if the sender has enough\n\t\trequire(balanceOf[_from] >= _value);\n\t\t// Check for overflows\n\t\trequire(balanceOf[_to] + _value > balanceOf[_to]);\n\t\t// Save this for an assertion in the future\n\t\tuint previousBalances = balanceOf[_from] + balanceOf[_to];\n\t\t// Subtract from the sender\n\t\tbalanceOf[_from] -= _value;\n\t\t// Add the same to the recipient\n\t\tbalanceOf[_to] += _value;\n\t\temit Transfer(_from, _to, _value);\n\t\t// Asserts are used to use static analysis to find bugs in your code. They should never fail\n\t\tassert(balanceOf[_from] + balanceOf[_to] == previousBalances);\n\t}\n\n\t/**\n\t * Transfer tokens\n\t *\n\t * Send `_value` tokens to `_to` from your account\n\t *\n\t * @param _to The address of the recipient\n\t * @param _value the amount to send\n\t */\n\tfunction transfer(address _to, uint256 _value) public returns (bool success) {\n\t\t_transfer(msg.sender, _to, _value);\n\t\treturn true;\n\t}\n\n\t/**\n\t * Transfer tokens from other address\n\t *\n\t * Send `_value` tokens to `_to` in behalf of `_from`\n\t *\n\t * @param _from The address of the sender\n\t * @param _to The address of the recipient\n\t * @param _value the amount to send\n\t */\n\tfunction transferFrom(address _from, address _to, uint256 _value) public returns (bool success) {\n\t\trequire(_value <= allowance[_from][msg.sender]);     // Check allowance\n\t\tallowance[_from][msg.sender] -= _value;\n\t\t_transfer(_from, _to, _value);\n\t\treturn true;\n\t}\n\n\t/**\n\t * Set allowance for other address\n\t *\n\t * Allows `_spender` to spend no more than `_value` tokens in your behalf\n\t *\n\t * @param _spender The address authorized to spend\n\t * @param _value the max amount they can spend\n\t */\n\tfunction approve(address _spender, uint256 _value) public returns (bool success) {\n\t\tallowance[msg.sender][_spender] = _value;\n\t\temit Approval(msg.sender, _spender, _value);\n\t\treturn true;\n\t}\n\n\t/**\n\t * Set allowance for other address and notify\n\t *\n\t * Allows `_spender` to spend no more than `_value` tokens in your behalf, and then ping the contract about it\n\t *\n\t * @param _spender The address authorized to spend\n\t * @param _value the max amount they can spend\n\t * @param _extraData some extra information to send to the approved contract\n\t */\n\tfunction approveAndCall(address _spender, uint256 _value, bytes _extraData) public returns (bool success) {\n\t\ttokenRecipient spender = tokenRecipient(_spender);\n\t\tif (approve(_spender, _value)) {\n\t\t\tspender.receiveApproval(msg.sender, _value, this, _extraData);\n\t\t\treturn true;\n\t\t}\n\t}\n\n\t/**\n\t * Destroy tokens\n\t *\n\t * Remove `_value` tokens from the system irreversibly\n\t *\n\t * @param _value the amount of money to burn\n\t */\n\tfunction burn(uint256 _value) public returns (bool success) {\n\t\trequire(balanceOf[msg.sender] >= _value);   // Check if the sender has enough\n\t\tbalanceOf[msg.sender] -= _value;            // Subtract from the sender\n\t\ttotalSupply -= _value;                      // Updates totalSupply\n\t\temit Burn(msg.sender, _value);\n\t\treturn true;\n\t}\n\n\t/**\n\t * Destroy tokens from other account\n\t *\n\t * Remove `_value` tokens from the system irreversibly on behalf of `_from`.\n\t *\n\t * @param _from the address of the sender\n\t * @param _value the amount of money to burn\n\t */\n\tfunction burnFrom(address _from, uint256 _value) public returns (bool success) {\n\t\trequire(balanceOf[_from] >= _value);                // Check if the targeted balance is enough\n\t\trequire(_value <= allowance[_from][msg.sender]);    // Check allowance\n\t\tbalanceOf[_from] -= _value;                         // Subtract from the targeted balance\n\t\tallowance[_from][msg.sender] -= _value;             // Subtract from the sender's allowance\n\t\ttotalSupply -= _value;                              // Update totalSupply\n\t\temit Burn(_from, _value);\n\t\treturn true;\n\t}\n}\n",
	"sourcePath": "/Users/johanmulyono/Work/AO/ao-contracts/contracts/TokenERC20.sol",
	"compiler": {
		"name": "solc",
		"version": "0.4.24+commit.e67f0147.Emscripten.clang"
	},
	"schemaVersion": "2.0.1",
	"updatedAt": "2019-02-12T12:59:40.101Z"
}