{
	"contractName": "TokenOne",
	"abi": [
		{
			"constant": true,
			"inputs": [],
			"name": "name",
			"outputs": [
				{
					"name": "",
					"type": "string"
				}
			],
			"payable": false,
			"stateMutability": "view",
			"type": "function"
		},
		{
			"constant": false,
			"inputs": [
				{
					"name": "_spender",
					"type": "address"
				},
				{
					"name": "_value",
					"type": "uint256"
				}
			],
			"name": "approve",
			"outputs": [
				{
					"name": "success",
					"type": "bool"
				}
			],
			"payable": false,
			"stateMutability": "nonpayable",
			"type": "function"
		},
		{
			"constant": true,
			"inputs": [],
			"name": "totalSupply",
			"outputs": [
				{
					"name": "",
					"type": "uint256"
				}
			],
			"payable": false,
			"stateMutability": "view",
			"type": "function"
		},
		{
			"constant": false,
			"inputs": [
				{
					"name": "_from",
					"type": "address"
				},
				{
					"name": "_to",
					"type": "address"
				},
				{
					"name": "_value",
					"type": "uint256"
				}
			],
			"name": "transferFrom",
			"outputs": [
				{
					"name": "success",
					"type": "bool"
				}
			],
			"payable": false,
			"stateMutability": "nonpayable",
			"type": "function"
		},
		{
			"constant": true,
			"inputs": [],
			"name": "decimals",
			"outputs": [
				{
					"name": "",
					"type": "uint8"
				}
			],
			"payable": false,
			"stateMutability": "view",
			"type": "function"
		},
		{
			"constant": false,
			"inputs": [
				{
					"name": "_value",
					"type": "uint256"
				}
			],
			"name": "burn",
			"outputs": [
				{
					"name": "success",
					"type": "bool"
				}
			],
			"payable": false,
			"stateMutability": "nonpayable",
			"type": "function"
		},
		{
			"constant": true,
			"inputs": [
				{
					"name": "",
					"type": "address"
				}
			],
			"name": "balanceOf",
			"outputs": [
				{
					"name": "",
					"type": "uint256"
				}
			],
			"payable": false,
			"stateMutability": "view",
			"type": "function"
		},
		{
			"constant": false,
			"inputs": [
				{
					"name": "_from",
					"type": "address"
				},
				{
					"name": "_value",
					"type": "uint256"
				}
			],
			"name": "burnFrom",
			"outputs": [
				{
					"name": "success",
					"type": "bool"
				}
			],
			"payable": false,
			"stateMutability": "nonpayable",
			"type": "function"
		},
		{
			"constant": true,
			"inputs": [],
			"name": "symbol",
			"outputs": [
				{
					"name": "",
					"type": "string"
				}
			],
			"payable": false,
			"stateMutability": "view",
			"type": "function"
		},
		{
			"constant": false,
			"inputs": [
				{
					"name": "_to",
					"type": "address"
				},
				{
					"name": "_value",
					"type": "uint256"
				}
			],
			"name": "transfer",
			"outputs": [
				{
					"name": "success",
					"type": "bool"
				}
			],
			"payable": false,
			"stateMutability": "nonpayable",
			"type": "function"
		},
		{
			"constant": false,
			"inputs": [
				{
					"name": "_spender",
					"type": "address"
				},
				{
					"name": "_value",
					"type": "uint256"
				},
				{
					"name": "_extraData",
					"type": "bytes"
				}
			],
			"name": "approveAndCall",
			"outputs": [
				{
					"name": "success",
					"type": "bool"
				}
			],
			"payable": false,
			"stateMutability": "nonpayable",
			"type": "function"
		},
		{
			"constant": true,
			"inputs": [
				{
					"name": "",
					"type": "address"
				},
				{
					"name": "",
					"type": "address"
				}
			],
			"name": "allowance",
			"outputs": [
				{
					"name": "",
					"type": "uint256"
				}
			],
			"payable": false,
			"stateMutability": "view",
			"type": "function"
		},
		{
			"inputs": [
				{
					"name": "initialSupply",
					"type": "uint256"
				},
				{
					"name": "tokenName",
					"type": "string"
				},
				{
					"name": "tokenSymbol",
					"type": "string"
				}
			],
			"payable": false,
			"stateMutability": "nonpayable",
			"type": "constructor"
		},
		{
			"anonymous": false,
			"inputs": [
				{
					"indexed": true,
					"name": "from",
					"type": "address"
				},
				{
					"indexed": true,
					"name": "to",
					"type": "address"
				},
				{
					"indexed": false,
					"name": "value",
					"type": "uint256"
				}
			],
			"name": "Transfer",
			"type": "event"
		},
		{
			"anonymous": false,
			"inputs": [
				{
					"indexed": true,
					"name": "_owner",
					"type": "address"
				},
				{
					"indexed": true,
					"name": "_spender",
					"type": "address"
				},
				{
					"indexed": false,
					"name": "_value",
					"type": "uint256"
				}
			],
			"name": "Approval",
			"type": "event"
		},
		{
			"anonymous": false,
			"inputs": [
				{
					"indexed": true,
					"name": "from",
					"type": "address"
				},
				{
					"indexed": false,
					"name": "value",
					"type": "uint256"
				}
			],
			"name": "Burn",
			"type": "event"
		}
	],
	"bytecode": "0x60806040526002805460ff1916601217905534801561001d57600080fd5b50604051610a3b380380610a3b83398101604090815281516020808401518385015160025460ff16600a0a84026003819055336000908152600485529586205590850180519395909491019285928592859261007b928501906100c9565b50805161008f9060019060208401906100c9565b50506002805460ff19166012179081905560ff16600a0a949094026003819055336000908152600460205260409020555061016492505050565b828054600181600116156101000203166002900490600052602060002090601f016020900481019282601f1061010a57805160ff1916838001178555610137565b82800160010185558215610137579182015b8281111561013757825182559160200191906001019061011c565b50610143929150610147565b5090565b61016191905b80821115610143576000815560010161014d565b90565b6108c8806101736000396000f3006080604052600436106100b95763ffffffff7c010000000000000000000000000000000000000000000000000000000060003504166306fdde0381146100be578063095ea7b31461014857806318160ddd1461018057806323b872dd146101a7578063313ce567146101d157806342966c68146101fc57806370a082311461021457806379cc67901461023557806395d89b4114610259578063a9059cbb1461026e578063cae9ca5114610292578063dd62ed3e146102fb575b600080fd5b3480156100ca57600080fd5b506100d3610322565b6040805160208082528351818301528351919283929083019185019080838360005b8381101561010d5781810151838201526020016100f5565b50505050905090810190601f16801561013a5780820380516001836020036101000a031916815260200191505b509250505060405180910390f35b34801561015457600080fd5b5061016c600160a060020a03600435166024356103b0565b604080519115158252519081900360200190f35b34801561018c57600080fd5b50610195610416565b60408051918252519081900360200190f35b3480156101b357600080fd5b5061016c600160a060020a036004358116906024351660443561041c565b3480156101dd57600080fd5b506101e661048b565b6040805160ff9092168252519081900360200190f35b34801561020857600080fd5b5061016c600435610494565b34801561022057600080fd5b50610195600160a060020a036004351661050c565b34801561024157600080fd5b5061016c600160a060020a036004351660243561051e565b34801561026557600080fd5b506100d36105ef565b34801561027a57600080fd5b5061016c600160a060020a0360043516602435610649565b34801561029e57600080fd5b50604080516020600460443581810135601f810184900484028501840190955284845261016c948235600160a060020a031694602480359536959460649492019190819084018382808284375094975061065f9650505050505050565b34801561030757600080fd5b50610195600160a060020a0360043581169060243516610778565b6000805460408051602060026001851615610100026000190190941693909304601f810184900484028201840190925281815292918301828280156103a85780601f1061037d576101008083540402835291602001916103a8565b820191906000526020600020905b81548152906001019060200180831161038b57829003601f168201915b505050505081565b336000818152600560209081526040808320600160a060020a038716808552908352818420869055815186815291519394909390927f8c5be1e5ebec7d5bd14f71427d1e84f3dd0314c0f7b2291e5b200ac8c7c3b925928290030190a350600192915050565b60035481565b600160a060020a038316600090815260056020908152604080832033845290915281205482111561044c57600080fd5b600160a060020a0384166000908152600560209081526040808320338452909152902080548390039055610481848484610795565b5060019392505050565b60025460ff1681565b336000908152600460205260408120548211156104b057600080fd5b3360008181526004602090815260409182902080548690039055600380548690039055815185815291517fcc16f5dbb4873280815c1ee09dbd06736cffcc184412cf7a71a0fdb75d397ca59281900390910190a2506001919050565b60046020526000908152604090205481565b600160a060020a03821660009081526004602052604081205482111561054357600080fd5b600160a060020a038316600090815260056020908152604080832033845290915290205482111561057357600080fd5b600160a060020a0383166000818152600460209081526040808320805487900390556005825280832033845282529182902080548690039055600380548690039055815185815291517fcc16f5dbb4873280815c1ee09dbd06736cffcc184412cf7a71a0fdb75d397ca59281900390910190a250600192915050565b60018054604080516020600284861615610100026000190190941693909304601f810184900484028201840190925281815292918301828280156103a85780601f1061037d576101008083540402835291602001916103a8565b6000610656338484610795565b50600192915050565b60008361066c81856103b0565b15610770576040517f8f4ffcb10000000000000000000000000000000000000000000000000000000081523360048201818152602483018790523060448401819052608060648501908152875160848601528751600160a060020a03871695638f4ffcb195948b94938b939192909160a490910190602085019080838360005b838110156107045781810151838201526020016106ec565b50505050905090810190601f1680156107315780820380516001836020036101000a031916815260200191505b5095505050505050600060405180830381600087803b15801561075357600080fd5b505af1158015610767573d6000803e3d6000fd5b50505050600191505b509392505050565b600560209081526000928352604080842090915290825290205481565b6000600160a060020a03831615156107ac57600080fd5b600160a060020a0384166000908152600460205260409020548211156107d157600080fd5b600160a060020a038316600090815260046020526040902054828101116107f757600080fd5b50600160a060020a038083166000818152600460209081526040808320805495891680855282852080548981039091559486905281548801909155815187815291519390950194927fddf252ad1be2c89b69c2b068fc378daa952ba7f163c4a11628f55a4df523b3ef929181900390910190a3600160a060020a0380841660009081526004602052604080822054928716825290205401811461089657fe5b505050505600a165627a7a72305820d981687ce6493ccee5ceee83eed209b256947b0bba734e45809e8d4c91e9fa200029",
	"source": "pragma solidity ^0.4.24;\n\nimport './TokenERC20.sol';\n\n/**\n * @title TokenOne\n */\ncontract TokenOne is TokenERC20 {\n\t/**\n\t * @dev Constructor function\n\t */\n\tconstructor(uint256 initialSupply, string tokenName, string tokenSymbol)\n\t\tTokenERC20(initialSupply, tokenName, tokenSymbol) public {\n\t\tdecimals = 18;\n\t\ttotalSupply = initialSupply * 10 ** uint256(decimals);  // Update total supply with the decimal amount\n\t\tbalanceOf[msg.sender] = totalSupply;                // Give the creator all initial tokens\n\t}\n}\n",
	"sourcePath": "/Users/johanmulyono/Work/AO/ao-contracts/contracts/TokenOne.sol",
	"compiler": {
		"name": "solc",
		"version": "0.4.24+commit.e67f0147.Emscripten.clang"
	},
	"schemaVersion": "2.0.1",
	"updatedAt": "2019-02-07T11:33:45.891Z"
}