{
	"contractName": "Voice",
	"abi": [
		{
			"constant": true,
			"inputs": [],
			"name": "name",
			"outputs": [
				{
					"name": "",
					"type": "string"
				}
			],
			"payable": false,
			"stateMutability": "view",
			"type": "function"
		},
		{
			"constant": true,
			"inputs": [],
			"name": "totalSupply",
			"outputs": [
				{
					"name": "",
					"type": "uint256"
				}
			],
			"payable": false,
			"stateMutability": "view",
			"type": "function"
		},
		{
			"constant": true,
			"inputs": [],
			"name": "decimals",
			"outputs": [
				{
					"name": "",
					"type": "uint8"
				}
			],
			"payable": false,
			"stateMutability": "view",
			"type": "function"
		},
		{
			"constant": true,
			"inputs": [
				{
					"name": "",
					"type": "address"
				},
				{
					"name": "",
					"type": "address"
				}
			],
			"name": "taoStakedBalance",
			"outputs": [
				{
					"name": "",
					"type": "uint256"
				}
			],
			"payable": false,
			"stateMutability": "view",
			"type": "function"
		},
		{
			"constant": true,
			"inputs": [],
			"name": "nameTAOPositionAddress",
			"outputs": [
				{
					"name": "",
					"type": "address"
				}
			],
			"payable": false,
			"stateMutability": "view",
			"type": "function"
		},
		{
			"constant": true,
			"inputs": [
				{
					"name": "",
					"type": "address"
				}
			],
			"name": "hasReceived",
			"outputs": [
				{
					"name": "",
					"type": "bool"
				}
			],
			"payable": false,
			"stateMutability": "view",
			"type": "function"
		},
		{
			"constant": true,
			"inputs": [
				{
					"name": "",
					"type": "address"
				}
			],
			"name": "balanceOf",
			"outputs": [
				{
					"name": "",
					"type": "uint256"
				}
			],
			"payable": false,
			"stateMutability": "view",
			"type": "function"
		},
		{
			"constant": true,
			"inputs": [],
			"name": "MAX_SUPPLY_PER_NAME",
			"outputs": [
				{
					"name": "",
					"type": "uint256"
				}
			],
			"payable": false,
			"stateMutability": "view",
			"type": "function"
		},
		{
			"constant": true,
			"inputs": [],
			"name": "symbol",
			"outputs": [
				{
					"name": "",
					"type": "string"
				}
			],
			"payable": false,
			"stateMutability": "view",
			"type": "function"
		},
		{
			"constant": true,
			"inputs": [
				{
					"name": "",
					"type": "address"
				}
			],
			"name": "whitelist",
			"outputs": [
				{
					"name": "",
					"type": "bool"
				}
			],
			"payable": false,
			"stateMutability": "view",
			"type": "function"
		},
		{
			"constant": true,
			"inputs": [],
			"name": "theAO",
			"outputs": [
				{
					"name": "",
					"type": "address"
				}
			],
			"payable": false,
			"stateMutability": "view",
			"type": "function"
		},
		{
			"inputs": [
				{
					"name": "_name",
					"type": "string"
				},
				{
					"name": "_symbol",
					"type": "string"
				}
			],
			"payable": false,
			"stateMutability": "nonpayable",
			"type": "constructor"
		},
		{
			"anonymous": false,
			"inputs": [
				{
					"indexed": true,
					"name": "nameId",
					"type": "address"
				},
				{
					"indexed": false,
					"name": "value",
					"type": "uint256"
				}
			],
			"name": "Mint",
			"type": "event"
		},
		{
			"anonymous": false,
			"inputs": [
				{
					"indexed": true,
					"name": "nameId",
					"type": "address"
				},
				{
					"indexed": true,
					"name": "taoId",
					"type": "address"
				},
				{
					"indexed": false,
					"name": "value",
					"type": "uint256"
				}
			],
			"name": "Stake",
			"type": "event"
		},
		{
			"anonymous": false,
			"inputs": [
				{
					"indexed": true,
					"name": "nameId",
					"type": "address"
				},
				{
					"indexed": true,
					"name": "taoId",
					"type": "address"
				},
				{
					"indexed": false,
					"name": "value",
					"type": "uint256"
				}
			],
			"name": "Unstake",
			"type": "event"
		},
		{
			"constant": false,
			"inputs": [
				{
					"name": "_theAO",
					"type": "address"
				}
			],
			"name": "transferOwnership",
			"outputs": [],
			"payable": false,
			"stateMutability": "nonpayable",
			"type": "function"
		},
		{
			"constant": false,
			"inputs": [
				{
					"name": "_account",
					"type": "address"
				},
				{
					"name": "_whitelist",
					"type": "bool"
				}
			],
			"name": "setWhitelist",
			"outputs": [],
			"payable": false,
			"stateMutability": "nonpayable",
			"type": "function"
		},
		{
			"constant": false,
			"inputs": [
				{
					"name": "_nameTAOPositionAddress",
					"type": "address"
				}
			],
			"name": "setNameTAOPositionAddress",
			"outputs": [],
			"payable": false,
			"stateMutability": "nonpayable",
			"type": "function"
		},
		{
			"constant": false,
			"inputs": [
				{
					"name": "_nameId",
					"type": "address"
				}
			],
			"name": "mint",
			"outputs": [
				{
					"name": "",
					"type": "bool"
				}
			],
			"payable": false,
			"stateMutability": "nonpayable",
			"type": "function"
		},
		{
			"constant": true,
			"inputs": [
				{
					"name": "_nameId",
					"type": "address"
				}
			],
			"name": "stakedBalance",
			"outputs": [
				{
					"name": "",
					"type": "uint256"
				}
			],
			"payable": false,
			"stateMutability": "view",
			"type": "function"
		},
		{
			"constant": false,
			"inputs": [
				{
					"name": "_nameId",
					"type": "address"
				},
				{
					"name": "_taoId",
					"type": "address"
				},
				{
					"name": "_value",
					"type": "uint256"
				}
			],
			"name": "stake",
			"outputs": [
				{
					"name": "",
					"type": "bool"
				}
			],
			"payable": false,
			"stateMutability": "nonpayable",
			"type": "function"
		},
		{
			"constant": false,
			"inputs": [
				{
					"name": "_nameId",
					"type": "address"
				},
				{
					"name": "_taoId",
					"type": "address"
				},
				{
					"name": "_value",
					"type": "uint256"
				}
			],
			"name": "unstake",
			"outputs": [
				{
					"name": "",
					"type": "bool"
				}
			],
			"payable": false,
			"stateMutability": "nonpayable",
			"type": "function"
		}
	],
	"bytecode": "0x60806040526005805460ff191660041790553480156200001e57600080fd5b50604051620011de380380620011de83398101604052805160208083015160008054600160a060020a031916331790559183018051909392909201916200006c91600391908501906200008b565b508051620000829060049060208401906200008b565b50505062000130565b828054600181600116156101000203166002900490600052602060002090601f016020900481019282601f10620000ce57805160ff1916838001178555620000fe565b82800160010185558215620000fe579182015b82811115620000fe578251825591602001919060010190620000e1565b506200010c92915062000110565b5090565b6200012d91905b808211156200010c576000815560010162000117565b90565b61109e80620001406000396000f3006080604052600436106100e25763ffffffff60e060020a60003504166306fdde0381146100e757806318160ddd14610171578063313ce5671461019857806331d5e94d146101c35780634ef033f0146101ea57806353d6fd591461021b5780635cfaf2ef14610243578063602172671461026457806360829f8a1461028557806367327ecc146102c35780636a627842146102e457806370a08231146103055780637c291a0e1461032657806395d89b411461033b5780639b19251a14610350578063a9b6b38e14610371578063bf6eac2f14610386578063f2fde38b146103b0575b600080fd5b3480156100f357600080fd5b506100fc6103d1565b6040805160208082528351818301528351919283929083019185019080838360005b8381101561013657818101518382015260200161011e565b50505050905090810190601f1680156101635780820380516001836020036101000a031916815260200191505b509250505060405180910390f35b34801561017d57600080fd5b5061018661045f565b60408051918252519081900360200190f35b3480156101a457600080fd5b506101ad610465565b6040805160ff9092168252519081900360200190f35b3480156101cf57600080fd5b50610186600160a060020a036004358116906024351661046e565b3480156101f657600080fd5b506101ff61048b565b60408051600160a060020a039092168252519081900360200190f35b34801561022757600080fd5b50610241600160a060020a0360043516602435151561049a565b005b34801561024f57600080fd5b50610241600160a060020a0360043516610599565b34801561027057600080fd5b50610186600160a060020a036004351661069c565b34801561029157600080fd5b506102af600160a060020a036004358116906024351660443561076e565b604080519115158252519081900360200190f35b3480156102cf57600080fd5b506102af600160a060020a0360043516610a4f565b3480156102f057600080fd5b506102af600160a060020a0360043516610a64565b34801561031157600080fd5b50610186600160a060020a0360043516610c05565b34801561033257600080fd5b50610186610c17565b34801561034757600080fd5b506100fc610c1e565b34801561035c57600080fd5b506102af600160a060020a0360043516610c79565b34801561037d57600080fd5b506101ff610c8e565b34801561039257600080fd5b506102af600160a060020a0360043581169060243516604435610c9d565b3480156103bc57600080fd5b50610241600160a060020a0360043516610f4a565b6003805460408051602060026001851615610100026000190190941693909304601f810184900484028201840190925281815292918301828280156104575780601f1061042c57610100808354040283529160200191610457565b820191906000526020600020905b81548152906001019060200180831161043a57829003601f168201915b505050505081565b60065481565b60055460ff1681565b600960209081526000928352604080842090915290825290205481565b600154600160a060020a031681565b600054600154604080517ff66afcac000000000000000000000000000000000000000000000000000000008152336004820152600160a060020a0393841660248201529290911660448301525173__AOLibrary_____________________________9163f66afcac916064808301926020929190829003018186803b15801561052257600080fd5b505af4158015610536573d6000803e3d6000fd5b505050506040513d602081101561054c57600080fd5b5051151561055957600080fd5b600160a060020a038216151561056e57600080fd5b600160a060020a03919091166000908152600260205260409020805460ff1916911515919091179055565b600054600154604080517ff66afcac000000000000000000000000000000000000000000000000000000008152336004820152600160a060020a0393841660248201529290911660448301525173__AOLibrary_____________________________9163f66afcac916064808301926020929190829003018186803b15801561062157600080fd5b505af4158015610635573d6000803e3d6000fd5b505050506040513d602081101561064b57600080fd5b5051151561065857600080fd5b600160a060020a038116151561066d57600080fd5b6001805473ffffffffffffffffffffffffffffffffffffffff1916600160a060020a0392909216919091179055565b60008173__AOLibrary_____________________________632d706a34826040518263ffffffff1660e060020a0281526004018082600160a060020a0316600160a060020a0316815260200191505060206040518083038186803b15801561070357600080fd5b505af4158015610717573d6000803e3d6000fd5b505050506040513d602081101561072d57600080fd5b5051151561073a57600080fd5b600160a060020a03831660009081526008602052604090205461076790620f42409063ffffffff61104d16565b9392505050565b3360009081526002602052604081205460ff16151560011461078f57600080fd5b8373__AOLibrary_____________________________632d706a34826040518263ffffffff1660e060020a0281526004018082600160a060020a0316600160a060020a0316815260200191505060206040518083038186803b1580156107f457600080fd5b505af4158015610808573d6000803e3d6000fd5b505050506040513d602081101561081e57600080fd5b5051151561082b57600080fd5b8373__AOLibrary_____________________________632fca5414826040518263ffffffff1660e060020a0281526004018082600160a060020a0316600160a060020a0316815260200191505060206040518083038186803b15801561089057600080fd5b505af41580156108a4573d6000803e3d6000fd5b505050506040513d60208110156108ba57600080fd5b505115156108c757600080fd5b6000841180156108da5750620f42408411155b15156108e557600080fd5b600160a060020a0380871660009081526009602090815260408083209389168352929052205484111561091757600080fd5b600160a060020a03851660009081526008602052604090205484111561093c57600080fd5b600160a060020a03808716600090815260096020908152604080832093891683529290522054610972908563ffffffff61104d16565b600160a060020a038088166000908152600960209081526040808320938a1683529281528282209390935560089092529020546109b5908563ffffffff61104d16565b600160a060020a0380871660009081526008602052604080822093909355908816815220546109ea908563ffffffff61105f16565b600160a060020a0380881660008181526008602090815260409182902094909455805188815290519289169391927f390b1276974b9463e5d66ab10df69b6f3d7b930eb066a0e66df327edd2cc811c929181900390910190a350600195945050505050565b60076020526000908152604090205460ff1681565b3360009081526002602052604081205460ff161515600114610a8557600080fd5b8173__AOLibrary_____________________________632d706a34826040518263ffffffff1660e060020a0281526004018082600160a060020a0316600160a060020a0316815260200191505060206040518083038186803b158015610aea57600080fd5b505af4158015610afe573d6000803e3d6000fd5b505050506040513d6020811015610b1457600080fd5b50511515610b2157600080fd5b600160a060020a03831660009081526007602052604090205460ff1615610b4757600080fd5b600160a060020a0383166000908152600760209081526040808320805460ff191660011790556008909152902054610b8890620f424063ffffffff61105f16565b600160a060020a038416600090815260086020526040902055600654610bb790620f424063ffffffff61105f16565b60065560408051620f424081529051600160a060020a038516917f0f6798a560793a54c3bcfe86a93cde1e73087d944c0ea20544137d4121396885919081900360200190a250600192915050565b60086020526000908152604090205481565b620f424081565b6004805460408051602060026001851615610100026000190190941693909304601f810184900484028201840190925281815292918301828280156104575780601f1061042c57610100808354040283529160200191610457565b60026020526000908152604090205460ff1681565b600054600160a060020a031681565b3360009081526002602052604081205460ff161515600114610cbe57600080fd5b8373__AOLibrary_____________________________632d706a34826040518263ffffffff1660e060020a0281526004018082600160a060020a0316600160a060020a0316815260200191505060206040518083038186803b158015610d2357600080fd5b505af4158015610d37573d6000803e3d6000fd5b505050506040513d6020811015610d4d57600080fd5b50511515610d5a57600080fd5b8373__AOLibrary_____________________________632fca5414826040518263ffffffff1660e060020a0281526004018082600160a060020a0316600160a060020a0316815260200191505060206040518083038186803b158015610dbf57600080fd5b505af4158015610dd3573d6000803e3d6000fd5b505050506040513d6020811015610de957600080fd5b50511515610df657600080fd5b600084118015610e095750620f42408411155b1515610e1457600080fd5b600160a060020a038616600090815260086020526040902054841115610e3957600080fd5b600160a060020a038616600090815260086020526040902054610e62908563ffffffff61104d16565b600160a060020a03808816600090815260086020908152604080832094909455600981528382209289168252919091522054610ea4908563ffffffff61105f16565b600160a060020a038088166000908152600960209081526040808320938a168352928152828220939093556008909252902054610ee7908563ffffffff61105f16565b600160a060020a0380871660008181526008602090815260409182902094909455805188815290519193928a16927f99039fcf0a98f484616c5196ee8b2ecfa971babf0b519848289ea4db381f85f792918290030190a350600195945050505050565b600054600154604080517ff66afcac000000000000000000000000000000000000000000000000000000008152336004820152600160a060020a0393841660248201529290911660448301525173__AOLibrary_____________________________9163f66afcac916064808301926020929190829003018186803b158015610fd257600080fd5b505af4158015610fe6573d6000803e3d6000fd5b505050506040513d6020811015610ffc57600080fd5b5051151561100957600080fd5b600160a060020a038116151561101e57600080fd5b6000805473ffffffffffffffffffffffffffffffffffffffff1916600160a060020a0392909216919091179055565b60008282111561105957fe5b50900390565b8181018281101561106c57fe5b929150505600a165627a7a7230582070b10b6eb0336e1912eff7f6c16787f0457bc6f74c91a5b53ccb8ec82fc0cc570029",
	"source": "pragma solidity ^0.4.24;\n\nimport './SafeMath.sol';\nimport './AOLibrary.sol';\nimport './TheAO.sol';\n\n/**\n * @title Voice\n */\ncontract Voice is TheAO {\n\tusing SafeMath for uint256;\n\n\t// Public variables of the contract\n\tstring public name;\n\tstring public symbol;\n\tuint8 public decimals = 4;\n\n\tuint256 constant public MAX_SUPPLY_PER_NAME = 100 * (10 ** 4);\n\n\tuint256 public totalSupply;\n\n\t// Mapping from Name ID to bool value whether or not it has received Voice\n\tmapping (address => bool) public hasReceived;\n\n\t// Mapping from Name/TAO ID to its total available balance\n\tmapping (address => uint256) public balanceOf;\n\n\t// Mapping from Name ID to TAO ID and its staked amount\n\tmapping (address => mapping(address => uint256)) public taoStakedBalance;\n\n\t// This generates a public event on the blockchain that will notify clients\n\tevent Mint(address indexed nameId, uint256 value);\n\tevent Stake(address indexed nameId, address indexed taoId, uint256 value);\n\tevent Unstake(address indexed nameId, address indexed taoId, uint256 value);\n\n\t/**\n\t * Constructor function\n\t */\n\tconstructor (string _name, string _symbol) public {\n\t\tname = _name;\t\t\t\t\t\t// Set the name for display purposes\n\t\tsymbol = _symbol;\t\t\t\t\t// Set the symbol for display purposes\n\t}\n\n\t/**\n\t * @dev Checks if the calling contract address is The AO\n\t *\t\tOR\n\t *\t\tIf The AO is set to a Name/TAO, then check if calling address is the Advocate\n\t */\n\tmodifier onlyTheAO {\n\t\trequire (AOLibrary.isTheAO(msg.sender, theAO, nameTAOPositionAddress));\n\t\t_;\n\t}\n\n\t/**\n\t * @dev Check if `_taoId` is a TAO\n\t */\n\tmodifier isTAO(address _taoId) {\n\t\trequire (AOLibrary.isTAO(_taoId));\n\t\t_;\n\t}\n\n\t/**\n\t * @dev Check if `_nameId` is a Name\n\t */\n\tmodifier isName(address _nameId) {\n\t\trequire (AOLibrary.isName(_nameId));\n\t\t_;\n\t}\n\n\t/***** The AO ONLY METHODS *****/\n\t/**\n\t * @dev Transfer ownership of The AO to new address\n\t * @param _theAO The new address to be transferred\n\t */\n\tfunction transferOwnership(address _theAO) public onlyTheAO {\n\t\trequire (_theAO != address(0));\n\t\ttheAO = _theAO;\n\t}\n\n\t/**\n\t * @dev Whitelist `_account` address to transact on behalf of others\n\t * @param _account The address to whitelist\n\t * @param _whitelist Either to whitelist or not\n\t */\n\tfunction setWhitelist(address _account, bool _whitelist) public onlyTheAO {\n\t\trequire (_account != address(0));\n\t\twhitelist[_account] = _whitelist;\n\t}\n\n\t/**\n\t * @dev The AO set the NameTAOPosition Address\n\t * @param _nameTAOPositionAddress The address of NameTAOPosition\n\t */\n\tfunction setNameTAOPositionAddress(address _nameTAOPositionAddress) public onlyTheAO {\n\t\trequire (_nameTAOPositionAddress != address(0));\n\t\tnameTAOPositionAddress = _nameTAOPositionAddress;\n\t}\n\n\t/***** PUBLIC METHODS *****/\n\t/**\n\t * @dev Create `MAX_SUPPLY_PER_NAME` Voice and send it to `_nameId`\n\t * @param _nameId Address to receive Voice\n\t * @return true on success\n\t */\n\tfunction mint(address _nameId) public inWhitelist isName(_nameId) returns (bool) {\n\t\t// Make sure _nameId has not received Voice\n\t\trequire (hasReceived[_nameId] == false);\n\n\t\thasReceived[_nameId] = true;\n\t\tbalanceOf[_nameId] = balanceOf[_nameId].add(MAX_SUPPLY_PER_NAME);\n\t\ttotalSupply = totalSupply.add(MAX_SUPPLY_PER_NAME);\n\t\temit Mint(_nameId, MAX_SUPPLY_PER_NAME);\n\t\treturn true;\n\t}\n\n\t/**\n\t * @dev Get staked balance of `_nameId`\n\t * @param _nameId The Name ID to be queried\n\t * @return total staked balance\n\t */\n\tfunction stakedBalance(address _nameId) public isName(_nameId) view returns (uint256) {\n\t\treturn MAX_SUPPLY_PER_NAME.sub(balanceOf[_nameId]);\n\t}\n\n\t/**\n\t * @dev Stake `_value` Voice on `_taoId` from `_nameId`\n\t * @param _nameId The Name ID that wants to stake\n\t * @param _taoId The TAO ID to stake\n\t * @param _value The amount to stake\n\t * @return true on success\n\t */\n\tfunction stake(address _nameId, address _taoId, uint256 _value) public inWhitelist isName(_nameId) isTAO(_taoId) returns (bool) {\n\t\trequire (_value > 0 && _value <= MAX_SUPPLY_PER_NAME);\n\t\trequire (balanceOf[_nameId] >= _value);\t\t\t\t\t\t\t// Check if the targeted balance is enough\n\t\tbalanceOf[_nameId] = balanceOf[_nameId].sub(_value);\t\t\t// Subtract from the targeted balance\n\t\ttaoStakedBalance[_nameId][_taoId] = taoStakedBalance[_nameId][_taoId].add(_value);\t// Add to the targeted staked balance\n\t\tbalanceOf[_taoId] = balanceOf[_taoId].add(_value);\n\t\temit Stake(_nameId, _taoId, _value);\n\t\treturn true;\n\t}\n\n\t/**\n\t * @dev Unstake `_value` Voice from `_nameId`'s `_taoId`\n\t * @param _nameId The Name ID that wants to unstake\n\t * @param _taoId The TAO ID to unstake\n\t * @param _value The amount to unstake\n\t * @return true on success\n\t */\n\tfunction unstake(address _nameId, address _taoId, uint256 _value) public inWhitelist isName(_nameId) isTAO(_taoId) returns (bool) {\n\t\trequire (_value > 0 && _value <= MAX_SUPPLY_PER_NAME);\n\t\trequire (taoStakedBalance[_nameId][_taoId] >= _value);\t// Check if the targeted staked balance is enough\n\t\trequire (balanceOf[_taoId] >= _value);\t// Check if the total targeted staked balance is enough\n\t\ttaoStakedBalance[_nameId][_taoId] = taoStakedBalance[_nameId][_taoId].sub(_value);\t// Subtract from the targeted staked balance\n\t\tbalanceOf[_taoId] = balanceOf[_taoId].sub(_value);\n\t\tbalanceOf[_nameId] = balanceOf[_nameId].add(_value);\t\t\t// Add to the targeted balance\n\t\temit Unstake(_nameId, _taoId, _value);\n\t\treturn true;\n\t}\n}\n",
	"sourcePath": "/Users/johanmulyono/Work/AO/ao-contracts/contracts/Voice.sol",
	"compiler": {
		"name": "solc",
		"version": "0.4.24+commit.e67f0147.Emscripten.clang"
	},
	"schemaVersion": "2.0.1",
	"updatedAt": "2019-04-04T04:29:46.417Z"
}